{
	"data": {
		"bytecode": {
			"linkReferences": {},
			"object": "60806040526009600a610012919061106a565b670de0b6b3a764000061002591906110b4565b600a55600a545f196100379190611122565b5f196100439190611152565b600b556009600a610054919061106a565b620f424061006291906110b4565b600c556009600a610073919061106a565b66071afd498d000061008591906110b4565b600d556001600e5f6101000a81548160ff021916908315150217905550600160105f6101000a81548160ff021916908315150217905550604560115573c56d6d2ae78102c9d7a72bcab720ca1cae97b2cc60125f6101000a81548173ffffffffffffffffffffffffffffffffffffffff021916908373ffffffffffffffffffffffffffffffffffffffff16021790555073b3aae54be35e8044c8044f5488aaf3861279328b60135f6101000a81548173ffffffffffffffffffffffffffffffffffffffff021916908373ffffffffffffffffffffffffffffffffffffffff1602179055507345b495b912c33db96d57b18fbb5f4a439573d77060145f6101000a81548173ffffffffffffffffffffffffffffffffffffffff021916908373ffffffffffffffffffffffffffffffffffffffff160217905550737a250d5630b4cf539739df2c5dacb4c659f2488d60155f6101000a81548173ffffffffffffffffffffffffffffffffffffffff021916908373ffffffffffffffffffffffffffffffffffffffff1602179055506040518060c001604052806001815260200160018152602001600181526020016003815260200160038152602001600281525060165f820151815f01556020820151816001015560408201518160020155606082015181600301556080820151816004015560a08201518160050155505034801561028d575f5ffd5b506102aa61029f61085760201b60201c565b61085e60201b60201c565b5f60155f9054906101000a900473ffffffffffffffffffffffffffffffffffffffff1690505f8173ffffffffffffffffffffffffffffffffffffffff1663c45a01556040518163ffffffff1660e01b8152600401602060405180830381865afa158015610319573d5f5f3e3d5ffd5b505050506040513d601f19601f8201168201806040525081019061033d91906111e3565b73ffffffffffffffffffffffffffffffffffffffff1663c9c65396308473ffffffffffffffffffffffffffffffffffffffff1663ad5c46486040518163ffffffff1660e01b8152600401602060405180830381865afa1580156103a2573d5f5f3e3d5ffd5b505050506040513d601f19601f820116820180604052508101906103c691906111e3565b6040518363ffffffff1660e01b81526004016103e392919061121d565b6020604051808303815f875af11580156103ff573d5f5f3e3d5ffd5b505050506040513d601f19601f8201168201806040525081019061042391906111e3565b905081600860026101000a81548173ffffffffffffffffffffffffffffffffffffffff021916908373ffffffffffffffffffffffffffffffffffffffff1602179055508060095f6101000a81548173ffffffffffffffffffffffffffffffffffffffff021916908373ffffffffffffffffffffffffffffffffffffffff1602179055506104d660095f9054906101000a900473ffffffffffffffffffffffffffffffffffffffff1661091f60201b60201c565b6104e761dead61091f60201b60201c565b600b5460015f6104fb610bbc60201b60201c565b73ffffffffffffffffffffffffffffffffffffffff1673ffffffffffffffffffffffffffffffffffffffff1681526020019081526020015f2081905550600160045f61054b610bbc60201b60201c565b73ffffffffffffffffffffffffffffffffffffffff1673ffffffffffffffffffffffffffffffffffffffff1681526020019081526020015f205f6101000a81548160ff021916908315150217905550600160045f3073ffffffffffffffffffffffffffffffffffffffff1673ffffffffffffffffffffffffffffffffffffffff1681526020019081526020015f205f6101000a81548160ff021916908315150217905550600160045f60135f9054906101000a900473ffffffffffffffffffffffffffffffffffffffff1673ffffffffffffffffffffffffffffffffffffffff1673ffffffffffffffffffffffffffffffffffffffff1681526020019081526020015f205f6101000a81548160ff021916908315150217905550600160045f60125f9054906101000a900473ffffffffffffffffffffffffffffffffffffffff1673ffffffffffffffffffffffffffffffffffffffff1673ffffffffffffffffffffffffffffffffffffffff1681526020019081526020015f205f6101000a81548160ff021916908315150217905550600160045f60145f9054906101000a900473ffffffffffffffffffffffffffffffffffffffff1673ffffffffffffffffffffffffffffffffffffffff1673ffffffffffffffffffffffffffffffffffffffff1681526020019081526020015f205f6101000a81548160ff021916908315150217905550600160045f61dead73ffffffffffffffffffffffffffffffffffffffff1673ffffffffffffffffffffffffffffffffffffffff1681526020019081526020015f205f6101000a81548160ff0219169083151502179055506001600e5f6101000a81548160ff021916908315150217905550600160085f6101000a81548160ff0219169083151502179055506107ea610bbc60201b60201c565b73ffffffffffffffffffffffffffffffffffffffff165f73ffffffffffffffffffffffffffffffffffffffff167fddf252ad1be2c89b69c2b068fc378daa952ba7f163c4a11628f55a4df523b3ef600a546040516108489190611253565b60405180910390a35050611437565b5f33905090565b5f5f5f9054906101000a900473ffffffffffffffffffffffffffffffffffffffff169050815f5f6101000a81548173ffffffffffffffffffffffffffffffffffffffff021916908373ffffffffffffffffffffffffffffffffffffffff1602179055508173ffffffffffffffffffffffffffffffffffffffff168173ffffffffffffffffffffffffffffffffffffffff167f8be0079c531659141344cd1fd0a4f28419497f9722a3daafe3b4186f6b6457e060405160405180910390a35050565b61092d61085760201b60201c565b73ffffffffffffffffffffffffffffffffffffffff16610951610bbc60201b60201c565b73ffffffffffffffffffffffffffffffffffffffff16146109a7576040517f08c379a000000000000000000000000000000000000000000000000000000000815260040161099e906112c6565b60405180910390fd5b60055f8273ffffffffffffffffffffffffffffffffffffffff1673ffffffffffffffffffffffffffffffffffffffff1681526020019081526020015f205f9054906101000a900460ff1615610a31576040517f08c379a0000000000000000000000000000000000000000000000000000000008152600401610a289061132e565b60405180910390fd5b5f60015f8373ffffffffffffffffffffffffffffffffffffffff1673ffffffffffffffffffffffffffffffffffffffff1681526020019081526020015f20541115610b0457610ac260015f8373ffffffffffffffffffffffffffffffffffffffff1673ffffffffffffffffffffffffffffffffffffffff1681526020019081526020015f2054610be360201b60201c565b60025f8373ffffffffffffffffffffffffffffffffffffffff1673ffffffffffffffffffffffffffffffffffffffff1681526020019081526020015f20819055505b600160055f8373ffffffffffffffffffffffffffffffffffffffff1673ffffffffffffffffffffffffffffffffffffffff1681526020019081526020015f205f6101000a81548160ff021916908315150217905550600781908060018154018082558091505060019003905f5260205f20015f9091909190916101000a81548173ffffffffffffffffffffffffffffffffffffffff021916908373ffffffffffffffffffffffffffffffffffffffff16021790555050565b5f5f5f9054906101000a900473ffffffffffffffffffffffffffffffffffffffff16905090565b5f600b54821115610c29576040517f08c379a0000000000000000000000000000000000000000000000000000000008152600401610c20906113bc565b60405180910390fd5b5f610c38610c4e60201b60201c565b90508083610c4691906113da565b915050919050565b5f5f5f610c5f610c7660201b60201c565b915091508082610c6f91906113da565b9250505090565b5f5f5f600b5490505f600a5490505f5f90505b600780549050811015610ec3578260015f60078481548110610cae57610cad61140a565b5b905f5260205f20015f9054906101000a900473ffffffffffffffffffffffffffffffffffffffff1673ffffffffffffffffffffffffffffffffffffffff1673ffffffffffffffffffffffffffffffffffffffff1681526020019081526020015f20541180610d9357508160025f60078481548110610d2f57610d2e61140a565b5b905f5260205f20015f9054906101000a900473ffffffffffffffffffffffffffffffffffffffff1673ffffffffffffffffffffffffffffffffffffffff1673ffffffffffffffffffffffffffffffffffffffff1681526020019081526020015f2054115b15610daa57600b54600a5494509450505050610ef5565b60015f60078381548110610dc157610dc061140a565b5b905f5260205f20015f9054906101000a900473ffffffffffffffffffffffffffffffffffffffff1673ffffffffffffffffffffffffffffffffffffffff1673ffffffffffffffffffffffffffffffffffffffff1681526020019081526020015f205483610e2e9190611152565b925060025f60078381548110610e4757610e4661140a565b5b905f5260205f20015f9054906101000a900473ffffffffffffffffffffffffffffffffffffffff1673ffffffffffffffffffffffffffffffffffffffff1673ffffffffffffffffffffffffffffffffffffffff1681526020019081526020015f205482610eb49190611152565b91508080600101915050610c89565b50600a54600b54610ed491906113da565b821015610eec57600b54600a54935093505050610ef5565b81819350935050505b9091565b7f4e487b71000000000000000000000000000000000000000000000000000000005f52601160045260245ffd5b5f8160011c9050919050565b5f5f8291508390505b6001851115610f7b57808604811115610f5757610f56610ef9565b5b6001851615610f665780820291505b8081029050610f7485610f26565b9450610f3b565b94509492505050565b5f82610f93576001905061104e565b81610fa0575f905061104e565b8160018114610fb65760028114610fc057610fef565b600191505061104e565b60ff841115610fd257610fd1610ef9565b5b8360020a915084821115610fe957610fe8610ef9565b5b5061104e565b5060208310610133831016604e8410600b84101617156110245782820a90508381111561101f5761101e610ef9565b5b61104e565b6110318484846001610f32565b9250905081840481111561104857611047610ef9565b5b81810290505b9392505050565b5f819050919050565b5f60ff82169050919050565b5f61107482611055565b915061107f8361105e565b92506110ac7fffffffffffffffffffffffffffffffffffffffffffffffffffffffffffffffff8484610f84565b905092915050565b5f6110be82611055565b91506110c983611055565b92508282026110d781611055565b915082820484148315176110ee576110ed610ef9565b5b5092915050565b7f4e487b71000000000000000000000000000000000000000000000000000000005f52601260045260245ffd5b5f61112c82611055565b915061113783611055565b925082611147576111466110f5565b5b828206905092915050565b5f61115c82611055565b915061116783611055565b925082820390508181111561117f5761117e610ef9565b5b92915050565b5f5ffd5b5f73ffffffffffffffffffffffffffffffffffffffff82169050919050565b5f6111b282611189565b9050919050565b6111c2816111a8565b81146111cc575f5ffd5b50565b5f815190506111dd816111b9565b92915050565b5f602082840312156111f8576111f7611185565b5b5f611205848285016111cf565b91505092915050565b611217816111a8565b82525050565b5f6040820190506112305f83018561120e565b61123d602083018461120e565b9392505050565b61124d81611055565b82525050565b5f6020820190506112665f830184611244565b92915050565b5f82825260208201905092915050565b7f4f776e61626c653a2063616c6c6572206973206e6f7420746865206f776e65725f82015250565b5f6112b060208361126c565b91506112bb8261127c565b602082019050919050565b5f6020820190508181035f8301526112dd816112a4565b9050919050565b7f4163636f756e7420697320616c7265616479206578636c7564656400000000005f82015250565b5f611318601b8361126c565b9150611323826112e4565b602082019050919050565b5f6020820190508181035f8301526113458161130c565b9050919050565b7f416d6f756e74206d757374206265206c657373207468616e20746f74616c20725f8201527f65666c656374696f6e7300000000000000000000000000000000000000000000602082015250565b5f6113a6602a8361126c565b91506113b18261134c565b604082019050919050565b5f6020820190508181035f8301526113d38161139a565b9050919050565b5f6113e482611055565b91506113ef83611055565b9250826113ff576113fe6110f5565b5b828204905092915050565b7f4e487b71000000000000000000000000000000000000000000000000000000005f52603260045260245ffd5b6163c7806114445f395ff3fe608060405260043610610302575f3560e01c80638c0b5e221161018f578063bff78169116100db578063e2f4560511610094578063f2fde38b1161006e578063f2fde38b14610bad578063f887ea4014610bd5578063f965aa1d14610bff578063fc17044114610c2757610309565b8063e2f4560514610b31578063ea2f0b3714610b5b578063ee36e35914610b8357610309565b8063bff7816914610a2b578063d257b34f14610a53578063d2ce0db214610a7b578063d5ccb8ee14610aa5578063dd62ed3e14610acd578063e116554514610b0957610309565b8063a457c2d711610148578063a8aa1b3111610122578063a8aa1b3114610973578063a9059cbb1461099d578063afcf2fc4146109d9578063b31470a414610a0357610309565b8063a457c2d7146108d1578063a5ece9411461090d578063a87859f61461093757610309565b80638c0b5e22146107d45780638da5cb5b146107fe578063924de9b71461082857806395d89b41146108505780639ba5e4d51461087a5780639e252f00146108a957610309565b806340b28c2f1161024e5780635342acb411610207578063715018a6116101e1578063715018a61461072b578063728f8eea1461074157806388f82020146107705780638c0ae3df146107ac57610309565b80635342acb4146106895780636ddd1713146106c557806370a08231146106ef57610309565b806340b28c2f14610583578063437823ec146105ab5780634549b039146105d357806349244cb01461060f5780634ada218b1461063757806352390c021461066157610309565b806327c8f835116102bb5780633685d419116102955780633685d419146104b957806339509351146104e15780633ad10ef61461051d5780633bbac5791461054757610309565b806327c8f835146104295780632d83811914610453578063313ce5671461048f57610309565b806304d4c9901461030d57806306fdde0314610335578063095ea7b31461035f5780630d65df9b1461039b57806318160ddd146103c357806323b872dd146103ed57610309565b3661030957005b5f5ffd5b348015610318575f5ffd5b50610333600480360381019061032e9190614d11565b610c4f565b005b348015610340575f5ffd5b50610349610d3a565b6040516103569190614e0a565b60405180910390f35b34801561036a575f5ffd5b5061038560048036038101906103809190614e84565b610d77565b6040516103929190614edc565b60405180910390f35b3480156103a6575f5ffd5b506103c160048036038101906103bc9190614ef5565b610d94565b005b3480156103ce575f5ffd5b506103d7610e91565b6040516103e49190614f54565b60405180910390f35b3480156103f8575f5ffd5b50610413600480360381019061040e9190614ef5565b610e9a565b6040516104209190614edc565b60405180910390f35b348015610434575f5ffd5b5061043d610f95565b60405161044a9190614f7c565b60405180910390f35b34801561045e575f5ffd5b5061047960048036038101906104749190614f95565b610f9b565b6040516104869190614f54565b60405180910390f35b34801561049a575f5ffd5b506104a3611000565b6040516104b09190614fdb565b60405180910390f35b3480156104c4575f5ffd5b506104df60048036038101906104da9190614ff4565b611008565b005b3480156104ec575f5ffd5b5061050760048036038101906105029190614e84565b611323565b6040516105149190614edc565b60405180910390f35b348015610528575f5ffd5b506105316113ca565b60405161053e9190614f7c565b60405180910390f35b348015610552575f5ffd5b5061056d60048036038101906105689190614ff4565b6113ef565b60405161057a9190614edc565b60405180910390f35b34801561058e575f5ffd5b506105a960048036038101906105a4919061501f565b611441565b005b3480156105b6575f5ffd5b506105d160048036038101906105cc9190614ff4565b611542565b005b3480156105de575f5ffd5b506105f960048036038101906105f49190615087565b611616565b6040516106069190614f54565b60405180910390f35b34801561061a575f5ffd5b5061063560048036038101906106309190614ff4565b611698565b005b348015610642575f5ffd5b5061064b61184f565b6040516106589190614edc565b60405180910390f35b34801561066c575f5ffd5b5061068760048036038101906106829190614ff4565b611864565b005b348015610694575f5ffd5b506106af60048036038101906106aa9190614ff4565b611aef565b6040516106bc9190614edc565b60405180910390f35b3480156106d0575f5ffd5b506106d9611b41565b6040516106e69190614edc565b60405180910390f35b3480156106fa575f5ffd5b5061071560048036038101906107109190614ff4565b611b53565b6040516107229190614f54565b60405180910390f35b348015610736575f5ffd5b5061073f611c36565b005b34801561074c575f5ffd5b50610755611cbd565b604051610767969594939291906150c5565b60405180910390f35b34801561077b575f5ffd5b5061079660048036038101906107919190614ff4565b611ce6565b6040516107a39190614edc565b60405180910390f35b3480156107b7575f5ffd5b506107d260048036038101906107cd9190615124565b611d38565b005b3480156107df575f5ffd5b506107e8611de4565b6040516107f59190614f54565b60405180910390f35b348015610809575f5ffd5b50610812611dea565b60405161081f9190614f7c565b60405180910390f35b348015610833575f5ffd5b5061084e60048036038101906108499190615162565b611e11565b005b34801561085b575f5ffd5b50610864611ea9565b6040516108719190614e0a565b60405180910390f35b348015610885575f5ffd5b5061088e611ee6565b6040516108a0969594939291906150c5565b60405180910390f35b3480156108b4575f5ffd5b506108cf60048036038101906108ca9190614f95565b611f0f565b005b3480156108dc575f5ffd5b506108f760048036038101906108f29190614e84565b612015565b6040516109049190614edc565b60405180910390f35b348015610918575f5ffd5b50610921612104565b60405161092e9190614f7c565b60405180910390f35b348015610942575f5ffd5b5061095d60048036038101906109589190614ff4565b612129565b60405161096a9190614f54565b60405180910390f35b34801561097e575f5ffd5b5061098761213e565b6040516109949190614f7c565b60405180910390f35b3480156109a8575f5ffd5b506109c360048036038101906109be9190614e84565b612163565b6040516109d09190614edc565b60405180910390f35b3480156109e4575f5ffd5b506109ed6121d5565b6040516109fa9190614f7c565b60405180910390f35b348015610a0e575f5ffd5b50610a296004803603810190610a2491906152cd565b6121fa565b005b348015610a36575f5ffd5b50610a516004803603810190610a4c9190614ff4565b612304565b005b348015610a5e575f5ffd5b50610a796004803603810190610a749190614f95565b6124bb565b005b348015610a86575f5ffd5b50610a8f612559565b604051610a9c9190614f54565b60405180910390f35b348015610ab0575f5ffd5b50610acb6004803603810190610ac69190615162565b61255f565b005b348015610ad8575f5ffd5b50610af36004803603810190610aee919061501f565b6125f7565b604051610b009190614f54565b60405180910390f35b348015610b14575f5ffd5b50610b2f6004803603810190610b2a9190615327565b612679565b005b348015610b3c575f5ffd5b50610b456127dc565b604051610b529190614f54565b60405180910390f35b348015610b66575f5ffd5b50610b816004803603810190610b7c9190614ff4565b6127e2565b005b348015610b8e575f5ffd5b50610b976128b5565b604051610ba49190614edc565b60405180910390f35b348015610bb8575f5ffd5b50610bd36004803603810190610bce9190614ff4565b6128c7565b005b348015610be0575f5ffd5b50610be96129bd565b604051610bf691906153c0565b60405180910390f35b348015610c0a575f5ffd5b50610c256004803603810190610c209190614f95565b6129e3565b005b348015610c32575f5ffd5b50610c4d6004803603810190610c489190614ff4565b612a81565b005b610c57612c38565b73ffffffffffffffffffffffffffffffffffffffff16610c75611dea565b73ffffffffffffffffffffffffffffffffffffffff1614610ccb576040517f08c379a0000000000000000000000000000000000000000000000000000000008152600401610cc290615423565b60405180910390fd5b8560165f018190555084601660030181905550836016600401819055508260166005018190555081601660020181905550806016600101819055507f846206d6c3449ac0b05841dfb88bf28b55aef00f96152490c69c96238048de1560405160405180910390a1505050505050565b60606040518060400160405280600d81526020017f4d65646920546f6b656e20563200000000000000000000000000000000000000815250905090565b5f610d8a610d83612c38565b8484612c3f565b6001905092915050565b610d9c612c38565b73ffffffffffffffffffffffffffffffffffffffff16610dba611dea565b73ffffffffffffffffffffffffffffffffffffffff1614610e10576040517f08c379a0000000000000000000000000000000000000000000000000000000008152600401610e0790615423565b60405180910390fd5b8273ffffffffffffffffffffffffffffffffffffffff1663a9059cbb83836040518363ffffffff1660e01b8152600401610e4b929190615441565b6020604051808303815f875af1158015610e67573d5f5f3e3d5ffd5b505050506040513d601f19601f82011682018060405250810190610e8b919061547c565b50505050565b5f600a54905090565b5f610ea6848484612e02565b5f60035f8673ffffffffffffffffffffffffffffffffffffffff1673ffffffffffffffffffffffffffffffffffffffff1681526020019081526020015f205f610eed612c38565b73ffffffffffffffffffffffffffffffffffffffff1673ffffffffffffffffffffffffffffffffffffffff1681526020019081526020015f2054905082811015610f6c576040517f08c379a0000000000000000000000000000000000000000000000000000000008152600401610f6390615517565b60405180910390fd5b610f8985610f78612c38565b8584610f849190615562565b612c3f565b60019150509392505050565b61dead81565b5f600b54821115610fe1576040517f08c379a0000000000000000000000000000000000000000000000000000000008152600401610fd890615605565b60405180910390fd5b5f610fea6135cb565b90508083610ff89190615650565b915050919050565b5f6009905090565b611010612c38565b73ffffffffffffffffffffffffffffffffffffffff1661102e611dea565b73ffffffffffffffffffffffffffffffffffffffff1614611084576040517f08c379a000000000000000000000000000000000000000000000000000000000815260040161107b90615423565b60405180910390fd5b60055f8273ffffffffffffffffffffffffffffffffffffffff1673ffffffffffffffffffffffffffffffffffffffff1681526020019081526020015f205f9054906101000a900460ff1661110d576040517f08c379a0000000000000000000000000000000000000000000000000000000008152600401611104906156ca565b60405180910390fd5b5f5f90505b60078054905081101561131f578173ffffffffffffffffffffffffffffffffffffffff166007828154811061114a576111496156e8565b5b905f5260205f20015f9054906101000a900473ffffffffffffffffffffffffffffffffffffffff1673ffffffffffffffffffffffffffffffffffffffff160361131257600760016007805490506111a19190615562565b815481106111b2576111b16156e8565b5b905f5260205f20015f9054906101000a900473ffffffffffffffffffffffffffffffffffffffff16600782815481106111ee576111ed6156e8565b5b905f5260205f20015f6101000a81548173ffffffffffffffffffffffffffffffffffffffff021916908373ffffffffffffffffffffffffffffffffffffffff1602179055505f60025f8473ffffffffffffffffffffffffffffffffffffffff1673ffffffffffffffffffffffffffffffffffffffff1681526020019081526020015f20819055505f60055f8473ffffffffffffffffffffffffffffffffffffffff1673ffffffffffffffffffffffffffffffffffffffff1681526020019081526020015f205f6101000a81548160ff02191690831515021790555060078054806112db576112da615715565b5b600190038181905f5260205f20015f6101000a81549073ffffffffffffffffffffffffffffffffffffffff0219169055905561131f565b8080600101915050611112565b5050565b5f6113c061132f612c38565b848460035f61133c612c38565b73ffffffffffffffffffffffffffffffffffffffff1673ffffffffffffffffffffffffffffffffffffffff1681526020019081526020015f205f8873ffffffffffffffffffffffffffffffffffffffff1673ffffffffffffffffffffffffffffffffffffffff1681526020019081526020015f20546113bb9190615742565b612c3f565b6001905092915050565b60125f9054906101000a900473ffffffffffffffffffffffffffffffffffffffff1681565b5f60065f8373ffffffffffffffffffffffffffffffffffffffff1673ffffffffffffffffffffffffffffffffffffffff1681526020019081526020015f205f9054906101000a900460ff169050919050565b611449612c38565b73ffffffffffffffffffffffffffffffffffffffff16611467611dea565b73ffffffffffffffffffffffffffffffffffffffff16146114bd576040517f08c379a00000000000000000000000000000000000000000000000000000000081526004016114b490615423565b60405180910390fd5b81600860026101000a81548173ffffffffffffffffffffffffffffffffffffffff021916908373ffffffffffffffffffffffffffffffffffffffff1602179055508060095f6101000a81548173ffffffffffffffffffffffffffffffffffffffff021916908373ffffffffffffffffffffffffffffffffffffffff1602179055505050565b61154a612c38565b73ffffffffffffffffffffffffffffffffffffffff16611568611dea565b73ffffffffffffffffffffffffffffffffffffffff16146115be576040517f08c379a00000000000000000000000000000000000000000000000000000000081526004016115b590615423565b60405180910390fd5b600160045f8373ffffffffffffffffffffffffffffffffffffffff1673ffffffffffffffffffffffffffffffffffffffff1681526020019081526020015f205f6101000a81548160ff02191690831515021790555050565b5f600a5483111561165c576040517f08c379a0000000000000000000000000000000000000000000000000000000008152600401611653906157bf565b60405180910390fd5b8161167b575f61166d8460016135ed565b9050805f0151915050611692565b5f6116878460016135ed565b905080602001519150505b92915050565b6116a0612c38565b73ffffffffffffffffffffffffffffffffffffffff166116be611dea565b73ffffffffffffffffffffffffffffffffffffffff1614611714576040517f08c379a000000000000000000000000000000000000000000000000000000000815260040161170b90615423565b60405180910390fd5b8073ffffffffffffffffffffffffffffffffffffffff1660135f9054906101000a900473ffffffffffffffffffffffffffffffffffffffff1673ffffffffffffffffffffffffffffffffffffffff16036117a3576040517f08c379a000000000000000000000000000000000000000000000000000000000815260040161179a90615827565b60405180910390fd5b8060135f6101000a81548173ffffffffffffffffffffffffffffffffffffffff021916908373ffffffffffffffffffffffffffffffffffffffff16021790555060045f60135f9054906101000a900473ffffffffffffffffffffffffffffffffffffffff1673ffffffffffffffffffffffffffffffffffffffff1673ffffffffffffffffffffffffffffffffffffffff1681526020019081526020015f205f9054906101000a90505050565b5f600e5f9054906101000a900460ff16905090565b61186c612c38565b73ffffffffffffffffffffffffffffffffffffffff1661188a611dea565b73ffffffffffffffffffffffffffffffffffffffff16146118e0576040517f08c379a00000000000000000000000000000000000000000000000000000000081526004016118d790615423565b60405180910390fd5b60055f8273ffffffffffffffffffffffffffffffffffffffff1673ffffffffffffffffffffffffffffffffffffffff1681526020019081526020015f205f9054906101000a900460ff161561196a576040517f08c379a00000000000000000000000000000000000000000000000000000000081526004016119619061588f565b60405180910390fd5b5f60015f8373ffffffffffffffffffffffffffffffffffffffff1673ffffffffffffffffffffffffffffffffffffffff1681526020019081526020015f20541115611a37576119f560015f8373ffffffffffffffffffffffffffffffffffffffff1673ffffffffffffffffffffffffffffffffffffffff1681526020019081526020015f2054610f9b565b60025f8373ffffffffffffffffffffffffffffffffffffffff1673ffffffffffffffffffffffffffffffffffffffff1681526020019081526020015f20819055505b600160055f8373ffffffffffffffffffffffffffffffffffffffff1673ffffffffffffffffffffffffffffffffffffffff1681526020019081526020015f205f6101000a81548160ff021916908315150217905550600781908060018154018082558091505060019003905f5260205f20015f9091909190916101000a81548173ffffffffffffffffffffffffffffffffffffffff021916908373ffffffffffffffffffffffffffffffffffffffff16021790555050565b5f60045f8373ffffffffffffffffffffffffffffffffffffffff1673ffffffffffffffffffffffffffffffffffffffff1681526020019081526020015f205f9054906101000a900460ff169050919050565b60085f9054906101000a900460ff1681565b5f60055f8373ffffffffffffffffffffffffffffffffffffffff1673ffffffffffffffffffffffffffffffffffffffff1681526020019081526020015f205f9054906101000a900460ff1615611be85760025f8373ffffffffffffffffffffffffffffffffffffffff1673ffffffffffffffffffffffffffffffffffffffff1681526020019081526020015f20549050611c31565b611c2e60015f8473ffffffffffffffffffffffffffffffffffffffff1673ffffffffffffffffffffffffffffffffffffffff1681526020019081526020015f2054610f9b565b90505b919050565b611c3e612c38565b73ffffffffffffffffffffffffffffffffffffffff16611c5c611dea565b73ffffffffffffffffffffffffffffffffffffffff1614611cb2576040517f08c379a0000000000000000000000000000000000000000000000000000000008152600401611ca990615423565b60405180910390fd5b611cbb5f613661565b565b6016805f0154908060010154908060020154908060030154908060040154908060050154905086565b5f60055f8373ffffffffffffffffffffffffffffffffffffffff1673ffffffffffffffffffffffffffffffffffffffff1681526020019081526020015f205f9054906101000a900460ff169050919050565b611d40612c38565b73ffffffffffffffffffffffffffffffffffffffff16611d5e611dea565b73ffffffffffffffffffffffffffffffffffffffff1614611db4576040517f08c379a0000000000000000000000000000000000000000000000000000000008152600401611dab90615423565b60405180910390fd5b8160105f6101000a81548160ff021916908315150217905550600181611dda91906158ad565b6011819055505050565b600d5481565b5f5f5f9054906101000a900473ffffffffffffffffffffffffffffffffffffffff16905090565b611e19612c38565b73ffffffffffffffffffffffffffffffffffffffff16611e37611dea565b73ffffffffffffffffffffffffffffffffffffffff1614611e8d576040517f08c379a0000000000000000000000000000000000000000000000000000000008152600401611e8490615423565b60405180910390fd5b8060085f6101000a81548160ff02191690831515021790555050565b60606040518060400160405280600481526020017f4d45444900000000000000000000000000000000000000000000000000000000815250905090565b601c805f0154908060010154908060020154908060030154908060040154908060050154905086565b611f17612c38565b73ffffffffffffffffffffffffffffffffffffffff16611f35611dea565b73ffffffffffffffffffffffffffffffffffffffff1614611f8b576040517f08c379a0000000000000000000000000000000000000000000000000000000008152600401611f8290615423565b60405180910390fd5b80471015611fce576040517f08c379a0000000000000000000000000000000000000000000000000000000008152600401611fc590615938565b60405180910390fd5b3373ffffffffffffffffffffffffffffffffffffffff166108fc8290811502906040515f60405180830381858888f19350505050158015612011573d5f5f3e3d5ffd5b5050565b5f5f60035f612022612c38565b73ffffffffffffffffffffffffffffffffffffffff1673ffffffffffffffffffffffffffffffffffffffff1681526020019081526020015f205f8573ffffffffffffffffffffffffffffffffffffffff1673ffffffffffffffffffffffffffffffffffffffff1681526020019081526020015f20549050828110156120dc576040517f08c379a00000000000000000000000000000000000000000000000000000000081526004016120d3906159c6565b60405180910390fd5b6120f96120e7612c38565b8585846120f49190615562565b612c3f565b600191505092915050565b60145f9054906101000a900473ffffffffffffffffffffffffffffffffffffffff1681565b600f602052805f5260405f205f915090505481565b60095f9054906101000a900473ffffffffffffffffffffffffffffffffffffffff1681565b5f60011515600e5f9054906101000a900460ff161515146121b9576040517f08c379a00000000000000000000000000000000000000000000000000000000081526004016121b090615a2e565b60405180910390fd5b6121cb6121c4612c38565b8484612e02565b6001905092915050565b60135f9054906101000a900473ffffffffffffffffffffffffffffffffffffffff1681565b612202612c38565b73ffffffffffffffffffffffffffffffffffffffff16612220611dea565b73ffffffffffffffffffffffffffffffffffffffff1614612276576040517f08c379a000000000000000000000000000000000000000000000000000000000815260040161226d90615423565b60405180910390fd5b5f5f90505b82518110156122ff578160065f85848151811061229b5761229a6156e8565b5b602002602001015173ffffffffffffffffffffffffffffffffffffffff1673ffffffffffffffffffffffffffffffffffffffff1681526020019081526020015f205f6101000a81548160ff021916908315150217905550808060010191505061227b565b505050565b61230c612c38565b73ffffffffffffffffffffffffffffffffffffffff1661232a611dea565b73ffffffffffffffffffffffffffffffffffffffff1614612380576040517f08c379a000000000000000000000000000000000000000000000000000000000815260040161237790615423565b60405180910390fd5b8073ffffffffffffffffffffffffffffffffffffffff1660145f9054906101000a900473ffffffffffffffffffffffffffffffffffffffff1673ffffffffffffffffffffffffffffffffffffffff160361240f576040517f08c379a000000000000000000000000000000000000000000000000000000000815260040161240690615827565b60405180910390fd5b8060145f6101000a81548173ffffffffffffffffffffffffffffffffffffffff021916908373ffffffffffffffffffffffffffffffffffffffff16021790555060045f60145f9054906101000a900473ffffffffffffffffffffffffffffffffffffffff1673ffffffffffffffffffffffffffffffffffffffff1673ffffffffffffffffffffffffffffffffffffffff1681526020019081526020015f205f9054906101000a90505050565b6124c3612c38565b73ffffffffffffffffffffffffffffffffffffffff166124e1611dea565b73ffffffffffffffffffffffffffffffffffffffff1614612537576040517f08c379a000000000000000000000000000000000000000000000000000000000815260040161252e90615423565b60405180910390fd5b6009600a6125459190615b7b565b8161255091906158ad565b600c8190555050565b60115481565b612567612c38565b73ffffffffffffffffffffffffffffffffffffffff16612585611dea565b73ffffffffffffffffffffffffffffffffffffffff16146125db576040517f08c379a00000000000000000000000000000000000000000000000000000000081526004016125d290615423565b60405180910390fd5b80600e5f6101000a81548160ff02191690831515021790555050565b5f60035f8473ffffffffffffffffffffffffffffffffffffffff1673ffffffffffffffffffffffffffffffffffffffff1681526020019081526020015f205f8373ffffffffffffffffffffffffffffffffffffffff1673ffffffffffffffffffffffffffffffffffffffff1681526020019081526020015f2054905092915050565b612681612c38565b73ffffffffffffffffffffffffffffffffffffffff1661269f611dea565b73ffffffffffffffffffffffffffffffffffffffff16146126f5576040517f08c379a00000000000000000000000000000000000000000000000000000000081526004016126ec90615423565b60405180910390fd5b80151560065f8473ffffffffffffffffffffffffffffffffffffffff1673ffffffffffffffffffffffffffffffffffffffff1681526020019081526020015f205f9054906101000a900460ff16151503612784576040517f08c379a000000000000000000000000000000000000000000000000000000000815260040161277b90615c0f565b60405180910390fd5b8060065f8473ffffffffffffffffffffffffffffffffffffffff1673ffffffffffffffffffffffffffffffffffffffff1681526020019081526020015f205f6101000a81548160ff0219169083151502179055505050565b600c5481565b6127ea612c38565b73ffffffffffffffffffffffffffffffffffffffff16612808611dea565b73ffffffffffffffffffffffffffffffffffffffff161461285e576040517f08c379a000000000000000000000000000000000000000000000000000000000815260040161285590615423565b60405180910390fd5b5f60045f8373ffffffffffffffffffffffffffffffffffffffff1673ffffffffffffffffffffffffffffffffffffffff1681526020019081526020015f205f6101000a81548160ff02191690831515021790555050565b60105f9054906101000a900460ff1681565b6128cf612c38565b73ffffffffffffffffffffffffffffffffffffffff166128ed611dea565b73ffffffffffffffffffffffffffffffffffffffff1614612943576040517f08c379a000000000000000000000000000000000000000000000000000000000815260040161293a90615423565b60405180910390fd5b5f73ffffffffffffffffffffffffffffffffffffffff168173ffffffffffffffffffffffffffffffffffffffff16036129b1576040517f08c379a00000000000000000000000000000000000000000000000000000000081526004016129a890615c9d565b60405180910390fd5b6129ba81613661565b50565b600860029054906101000a900473ffffffffffffffffffffffffffffffffffffffff1681565b6129eb612c38565b73ffffffffffffffffffffffffffffffffffffffff16612a09611dea565b73ffffffffffffffffffffffffffffffffffffffff1614612a5f576040517f08c379a0000000000000000000000000000000000000000000000000000000008152600401612a5690615423565b60405180910390fd5b6009600a612a6d9190615b7b565b81612a7891906158ad565b600d8190555050565b612a89612c38565b73ffffffffffffffffffffffffffffffffffffffff16612aa7611dea565b73ffffffffffffffffffffffffffffffffffffffff1614612afd576040517f08c379a0000000000000000000000000000000000000000000000000000000008152600401612af490615423565b60405180910390fd5b8073ffffffffffffffffffffffffffffffffffffffff1660125f9054906101000a900473ffffffffffffffffffffffffffffffffffffffff1673ffffffffffffffffffffffffffffffffffffffff1603612b8c576040517f08c379a0000000000000000000000000000000000000000000000000000000008152600401612b8390615827565b60405180910390fd5b8060125f6101000a81548173ffffffffffffffffffffffffffffffffffffffff021916908373ffffffffffffffffffffffffffffffffffffffff16021790555060045f60125f9054906101000a900473ffffffffffffffffffffffffffffffffffffffff1673ffffffffffffffffffffffffffffffffffffffff1673ffffffffffffffffffffffffffffffffffffffff1681526020019081526020015f205f9054906101000a90505050565b5f33905090565b5f73ffffffffffffffffffffffffffffffffffffffff168373ffffffffffffffffffffffffffffffffffffffff1603612cad576040517f08c379a0000000000000000000000000000000000000000000000000000000008152600401612ca490615d2b565b60405180910390fd5b5f73ffffffffffffffffffffffffffffffffffffffff168273ffffffffffffffffffffffffffffffffffffffff1603612d1b576040517f08c379a0000000000000000000000000000000000000000000000000000000008152600401612d1290615db9565b60405180910390fd5b8060035f8573ffffffffffffffffffffffffffffffffffffffff1673ffffffffffffffffffffffffffffffffffffffff1681526020019081526020015f205f8473ffffffffffffffffffffffffffffffffffffffff1673ffffffffffffffffffffffffffffffffffffffff1681526020019081526020015f20819055508173ffffffffffffffffffffffffffffffffffffffff168373ffffffffffffffffffffffffffffffffffffffff167f8c5be1e5ebec7d5bd14f71427d1e84f3dd0314c0f7b2291e5b200ac8c7c3b92583604051612df59190614f54565b60405180910390a3505050565b5f73ffffffffffffffffffffffffffffffffffffffff168373ffffffffffffffffffffffffffffffffffffffff1603612e70576040517f08c379a0000000000000000000000000000000000000000000000000000000008152600401612e6790615e47565b60405180910390fd5b5f73ffffffffffffffffffffffffffffffffffffffff168273ffffffffffffffffffffffffffffffffffffffff1603612ede576040517f08c379a0000000000000000000000000000000000000000000000000000000008152600401612ed590615ed5565b60405180910390fd5b5f8111612f20576040517f08c379a0000000000000000000000000000000000000000000000000000000008152600401612f1790615f63565b60405180910390fd5b612f2983611b53565b811115612f6b576040517f08c379a0000000000000000000000000000000000000000000000000000000008152600401612f6290615ff1565b60405180910390fd5b60065f8473ffffffffffffffffffffffffffffffffffffffff1673ffffffffffffffffffffffffffffffffffffffff1681526020019081526020015f205f9054906101000a900460ff16158015613009575060065f8373ffffffffffffffffffffffffffffffffffffffff1673ffffffffffffffffffffffffffffffffffffffff1681526020019081526020015f205f9054906101000a900460ff16155b613048576040517f08c379a000000000000000000000000000000000000000000000000000000000815260040161303f90616059565b60405180910390fd5b60045f8473ffffffffffffffffffffffffffffffffffffffff1673ffffffffffffffffffffffffffffffffffffffff1681526020019081526020015f205f9054906101000a900460ff161580156130e6575060045f8373ffffffffffffffffffffffffffffffffffffffff1673ffffffffffffffffffffffffffffffffffffffff1681526020019081526020015f205f9054906101000a900460ff16155b80156130ff5750600860019054906101000a900460ff16155b156133cc57600d54811115613149576040517f08c379a0000000000000000000000000000000000000000000000000000000008152600401613140906160c1565b60405180910390fd5b60095f9054906101000a900473ffffffffffffffffffffffffffffffffffffffff1673ffffffffffffffffffffffffffffffffffffffff168373ffffffffffffffffffffffffffffffffffffffff16141580156131b1575060105f9054906101000a900460ff165b1561328a575f600f5f8573ffffffffffffffffffffffffffffffffffffffff1673ffffffffffffffffffffffffffffffffffffffff1681526020019081526020015f2054426132009190615562565b90506011548111613246576040517f08c379a000000000000000000000000000000000000000000000000000000000815260040161323d90616129565b60405180910390fd5b42600f5f8673ffffffffffffffffffffffffffffffffffffffff1673ffffffffffffffffffffffffffffffffffffffff1681526020019081526020015f2081905550505b60095f9054906101000a900473ffffffffffffffffffffffffffffffffffffffff1673ffffffffffffffffffffffffffffffffffffffff168273ffffffffffffffffffffffffffffffffffffffff16141580156132f2575060105f9054906101000a900460ff165b156133cb575f600f5f8473ffffffffffffffffffffffffffffffffffffffff1673ffffffffffffffffffffffffffffffffffffffff1681526020019081526020015f2054426133419190615562565b90506011548111613387576040517f08c379a000000000000000000000000000000000000000000000000000000000815260040161337e90616129565b60405180910390fd5b42600f5f8573ffffffffffffffffffffffffffffffffffffffff1673ffffffffffffffffffffffffffffffffffffffff1681526020019081526020015f2081905550505b5b5f600c546133d930611b53565b10159050600860019054906101000a900460ff16158015613405575060085f9054906101000a900460ff165b801561340e5750805b8015613467575060095f9054906101000a900473ffffffffffffffffffffffffffffffffffffffff1673ffffffffffffffffffffffffffffffffffffffff168473ffffffffffffffffffffffffffffffffffffffff1614155b80156134ba575060045f8573ffffffffffffffffffffffffffffffffffffffff1673ffffffffffffffffffffffffffffffffffffffff1681526020019081526020015f205f9054906101000a900460ff16155b801561350d575060045f8473ffffffffffffffffffffffffffffffffffffffff1673ffffffffffffffffffffffffffffffffffffffff1681526020019081526020015f205f9054906101000a900460ff16155b1561351e5761351d600c54613722565b5b6135c584848460045f8973ffffffffffffffffffffffffffffffffffffffff1673ffffffffffffffffffffffffffffffffffffffff1681526020019081526020015f205f9054906101000a900460ff16806135bf575060045f8873ffffffffffffffffffffffffffffffffffffffff1673ffffffffffffffffffffffffffffffffffffffff1681526020019081526020015f205f9054906101000a900460ff165b156139e3565b50505050565b5f5f5f6135d6613ead565b9150915080826135e69190615650565b9250505090565b6135f5614c66565b6135ff8383614130565b905061361481848461360f6135cb565b6142a8565b885f01896020018a6040018b60a0018c60c0018d60e0018e6080018f6060018881525088815250888152508881525088815250888152508881525088815250505050505050505092915050565b5f5f5f9054906101000a900473ffffffffffffffffffffffffffffffffffffffff169050815f5f6101000a81548173ffffffffffffffffffffffffffffffffffffffff021916908373ffffffffffffffffffffffffffffffffffffffff1602179055508173ffffffffffffffffffffffffffffffffffffffff168173ffffffffffffffffffffffffffffffffffffffff167f8be0079c531659141344cd1fd0a4f28419497f9722a3daafe3b4186f6b6457e060405160405180910390a35050565b6001600860016101000a81548160ff0219169083151502179055505f60026016600501546016600301546016600401546016600201546137629190615742565b61376c9190615742565b6137769190615742565b61378091906158ad565b90505f816016600201548461379591906158ad565b61379f9190615650565b90505f81846137ae9190615562565b90505f4790506137bd826143a6565b5f81476137ca9190615562565b90505f601660020154866137de9190615562565b826137e99190615650565b90505f601660020154826137fd91906158ad565b90505f8111156138125761381186826145df565b5b5f60166003015460028461382691906158ad565b61383091906158ad565b90505f8111156138a05760125f9054906101000a900473ffffffffffffffffffffffffffffffffffffffff1673ffffffffffffffffffffffffffffffffffffffff166108fc8290811502906040515f60405180830381858888f1935050505015801561389e573d5f5f3e3d5ffd5b505b5f6016600401546002856138b491906158ad565b6138be91906158ad565b90505f81111561392e5760135f9054906101000a900473ffffffffffffffffffffffffffffffffffffffff1673ffffffffffffffffffffffffffffffffffffffff166108fc8290811502906040515f60405180830381858888f1935050505015801561392c573d5f5f3e3d5ffd5b505b5f60166005015460028661394291906158ad565b61394c91906158ad565b90505f8111156139bc5760145f9054906101000a900473ffffffffffffffffffffffffffffffffffffffff1673ffffffffffffffffffffffffffffffffffffffff166108fc8290811502906040515f60405180830381858888f193505050501580156139ba573d5f5f3e3d5ffd5b505b505050505050505050505f600860016101000a81548160ff02191690831515021790555050565b5f6139ee83836135ed565b905060055f8673ffffffffffffffffffffffffffffffffffffffff1673ffffffffffffffffffffffffffffffffffffffff1681526020019081526020015f205f9054906101000a900460ff1615613aca578260025f8773ffffffffffffffffffffffffffffffffffffffff1673ffffffffffffffffffffffffffffffffffffffff1681526020019081526020015f2054613a889190615562565b60025f8773ffffffffffffffffffffffffffffffffffffffff1673ffffffffffffffffffffffffffffffffffffffff1681526020019081526020015f20819055505b60055f8573ffffffffffffffffffffffffffffffffffffffff1673ffffffffffffffffffffffffffffffffffffffff1681526020019081526020015f205f9054906101000a900460ff1615613ba95780610100015160025f8673ffffffffffffffffffffffffffffffffffffffff1673ffffffffffffffffffffffffffffffffffffffff1681526020019081526020015f2054613b679190615742565b60025f8673ffffffffffffffffffffffffffffffffffffffff1673ffffffffffffffffffffffffffffffffffffffff1681526020019081526020015f20819055505b805f015160015f8773ffffffffffffffffffffffffffffffffffffffff1673ffffffffffffffffffffffffffffffffffffffff1681526020019081526020015f2054613bf59190615562565b60015f8773ffffffffffffffffffffffffffffffffffffffff1673ffffffffffffffffffffffffffffffffffffffff1681526020019081526020015f2081905550806020015160015f8673ffffffffffffffffffffffffffffffffffffffff1673ffffffffffffffffffffffffffffffffffffffff1681526020019081526020015f2054613c839190615742565b60015f8673ffffffffffffffffffffffffffffffffffffffff1673ffffffffffffffffffffffffffffffffffffffff1681526020019081526020015f2081905550613cd781604001518261012001516146c1565b613cea81608001518261016001516146f7565b613cfd8160c00151826101a0015161480c565b613d108160e00151826101c00151614921565b613d238160a00151826101800151614a36565b613d368160600151826101400151614b4b565b61dead73ffffffffffffffffffffffffffffffffffffffff168573ffffffffffffffffffffffffffffffffffffffff167fddf252ad1be2c89b69c2b068fc378daa952ba7f163c4a11628f55a4df523b3ef836101400151604051613d9a9190614f54565b60405180910390a38373ffffffffffffffffffffffffffffffffffffffff168573ffffffffffffffffffffffffffffffffffffffff167fddf252ad1be2c89b69c2b068fc378daa952ba7f163c4a11628f55a4df523b3ef836101000151604051613e049190614f54565b60405180910390a33073ffffffffffffffffffffffffffffffffffffffff168573ffffffffffffffffffffffffffffffffffffffff167fddf252ad1be2c89b69c2b068fc378daa952ba7f163c4a11628f55a4df523b3ef836101c00151846101a00151856101800151866101600151613e7d9190615742565b613e879190615742565b613e919190615742565b604051613e9e9190614f54565b60405180910390a35050505050565b5f5f5f600b5490505f600a5490505f5f90505b6007805490508110156140fa578260015f60078481548110613ee557613ee46156e8565b5b905f5260205f20015f9054906101000a900473ffffffffffffffffffffffffffffffffffffffff1673ffffffffffffffffffffffffffffffffffffffff1673ffffffffffffffffffffffffffffffffffffffff1681526020019081526020015f20541180613fca57508160025f60078481548110613f6657613f656156e8565b5b905f5260205f20015f9054906101000a900473ffffffffffffffffffffffffffffffffffffffff1673ffffffffffffffffffffffffffffffffffffffff1673ffffffffffffffffffffffffffffffffffffffff1681526020019081526020015f2054115b15613fe157600b54600a549450945050505061412c565b60015f60078381548110613ff857613ff76156e8565b5b905f5260205f20015f9054906101000a900473ffffffffffffffffffffffffffffffffffffffff1673ffffffffffffffffffffffffffffffffffffffff1673ffffffffffffffffffffffffffffffffffffffff1681526020019081526020015f2054836140659190615562565b925060025f6007838154811061407e5761407d6156e8565b5b905f5260205f20015f9054906101000a900473ffffffffffffffffffffffffffffffffffffffff1673ffffffffffffffffffffffffffffffffffffffff1673ffffffffffffffffffffffffffffffffffffffff1681526020019081526020015f2054826140eb9190615562565b91508080600101915050613ec0565b50600a54600b5461410b9190615650565b82101561412357600b54600a5493509350505061412c565b81819350935050505b9091565b614138614c66565b8161414d5782816101000181815250506142a2565b606460165f01548461415f91906158ad565b6141699190615650565b8161012001818152505060646016600301548461418691906158ad565b6141909190615650565b816101800181815250506064601660040154846141ad91906158ad565b6141b79190615650565b816101a00181815250506064601660050154846141d491906158ad565b6141de9190615650565b816101c00181815250506064601660020154846141fb91906158ad565b6142059190615650565b8161016001818152505060646016600101548461422291906158ad565b61422c9190615650565b81610140018181525050806101400151816101600151826101c00151836101a00151846101800151856101200151886142659190615562565b61426f9190615562565b6142799190615562565b6142839190615562565b61428d9190615562565b6142979190615562565b816101000181815250505b92915050565b5f5f5f5f5f5f5f5f888b6142bc91906158ad565b9750896142e05787885f5f5f5f5f5f97509750975097509750975097509750614397565b888c61012001516142f191906158ad565b9550888c610180015161430491906158ad565b9450888c6101a0015161431791906158ad565b9350888c6101c0015161432a91906158ad565b9250888c610160015161433d91906158ad565b9150888c6060015161434f91906158ad565b905080828486888a8d6143629190615562565b61436c9190615562565b6143769190615562565b6143809190615562565b61438a9190615562565b6143949190615562565b96505b94995094995094999196509450565b5f600267ffffffffffffffff8111156143c2576143c1615191565b5b6040519080825280602002602001820160405280156143f05781602001602082028036833780820191505090505b50905030815f81518110614407576144066156e8565b5b602002602001019073ffffffffffffffffffffffffffffffffffffffff16908173ffffffffffffffffffffffffffffffffffffffff1681525050600860029054906101000a900473ffffffffffffffffffffffffffffffffffffffff1673ffffffffffffffffffffffffffffffffffffffff1663ad5c46486040518163ffffffff1660e01b8152600401602060405180830381865afa1580156144ac573d5f5f3e3d5ffd5b505050506040513d601f19601f820116820180604052508101906144d0919061615b565b816001815181106144e4576144e36156e8565b5b602002602001019073ffffffffffffffffffffffffffffffffffffffff16908173ffffffffffffffffffffffffffffffffffffffff168152505061454b30600860029054906101000a900473ffffffffffffffffffffffffffffffffffffffff1684612c3f565b600860029054906101000a900473ffffffffffffffffffffffffffffffffffffffff1673ffffffffffffffffffffffffffffffffffffffff1663791ac947835f8430426040518663ffffffff1660e01b81526004016145ae959493929190616276565b5f604051808303815f87803b1580156145c5575f5ffd5b505af11580156145d7573d5f5f3e3d5ffd5b505050505050565b61460c30600860029054906101000a900473ffffffffffffffffffffffffffffffffffffffff1684612c3f565b600860029054906101000a900473ffffffffffffffffffffffffffffffffffffffff1673ffffffffffffffffffffffffffffffffffffffff1663f305d7198230855f5f614657611dea565b426040518863ffffffff1660e01b8152600401614679969594939291906162ce565b60606040518083038185885af1158015614695573d5f5f3e3d5ffd5b50505050506040513d601f19601f820116820180604052508101906146ba9190616341565b5050505050565b81600b5f8282546146d29190615562565b9250508190555080601c5f015f8282546146ec9190615742565b925050819055505050565b80601c6002015f82825461470b9190615742565b9250508190555060055f3073ffffffffffffffffffffffffffffffffffffffff1673ffffffffffffffffffffffffffffffffffffffff1681526020019081526020015f205f9054906101000a900460ff16156147b5578060025f3073ffffffffffffffffffffffffffffffffffffffff1673ffffffffffffffffffffffffffffffffffffffff1681526020019081526020015f205f8282546147ad9190615742565b925050819055505b8160015f3073ffffffffffffffffffffffffffffffffffffffff1673ffffffffffffffffffffffffffffffffffffffff1681526020019081526020015f205f8282546148019190615742565b925050819055505050565b80601c6004015f8282546148209190615742565b9250508190555060055f3073ffffffffffffffffffffffffffffffffffffffff1673ffffffffffffffffffffffffffffffffffffffff1681526020019081526020015f205f9054906101000a900460ff16156148ca578060025f3073ffffffffffffffffffffffffffffffffffffffff1673ffffffffffffffffffffffffffffffffffffffff1681526020019081526020015f205f8282546148c29190615742565b925050819055505b8160015f3073ffffffffffffffffffffffffffffffffffffffff1673ffffffffffffffffffffffffffffffffffffffff1681526020019081526020015f205f8282546149169190615742565b925050819055505050565b80601c6005015f8282546149359190615742565b9250508190555060055f3073ffffffffffffffffffffffffffffffffffffffff1673ffffffffffffffffffffffffffffffffffffffff1681526020019081526020015f205f9054906101000a900460ff16156149df578060025f3073ffffffffffffffffffffffffffffffffffffffff1673ffffffffffffffffffffffffffffffffffffffff1681526020019081526020015f205f8282546149d79190615742565b925050819055505b8160015f3073ffffffffffffffffffffffffffffffffffffffff1673ffffffffffffffffffffffffffffffffffffffff1681526020019081526020015f205f828254614a2b9190615742565b925050819055505050565b80601c6003015f828254614a4a9190615742565b9250508190555060055f3073ffffffffffffffffffffffffffffffffffffffff1673ffffffffffffffffffffffffffffffffffffffff1681526020019081526020015f205f9054906101000a900460ff1615614af4578060025f3073ffffffffffffffffffffffffffffffffffffffff1673ffffffffffffffffffffffffffffffffffffffff1681526020019081526020015f205f828254614aec9190615742565b925050819055505b8160015f3073ffffffffffffffffffffffffffffffffffffffff1673ffffffffffffffffffffffffffffffffffffffff1681526020019081526020015f205f828254614b409190615742565b925050819055505050565b80601c6001015f828254614b5f9190615742565b9250508190555060055f61dead73ffffffffffffffffffffffffffffffffffffffff1673ffffffffffffffffffffffffffffffffffffffff1681526020019081526020015f205f9054906101000a900460ff1615614c0d578060025f61dead73ffffffffffffffffffffffffffffffffffffffff1673ffffffffffffffffffffffffffffffffffffffff1681526020019081526020015f205f828254614c059190615742565b925050819055505b8160015f61dead73ffffffffffffffffffffffffffffffffffffffff1673ffffffffffffffffffffffffffffffffffffffff1681526020019081526020015f205f828254614c5b9190615742565b925050819055505050565b604051806101e001604052805f81526020015f81526020015f81526020015f81526020015f81526020015f81526020015f81526020015f81526020015f81526020015f81526020015f81526020015f81526020015f81526020015f81526020015f81525090565b5f604051905090565b5f5ffd5b5f5ffd5b5f819050919050565b614cf081614cde565b8114614cfa575f5ffd5b50565b5f81359050614d0b81614ce7565b92915050565b5f5f5f5f5f5f60c08789031215614d2b57614d2a614cd6565b5b5f614d3889828a01614cfd565b9650506020614d4989828a01614cfd565b9550506040614d5a89828a01614cfd565b9450506060614d6b89828a01614cfd565b9350506080614d7c89828a01614cfd565b92505060a0614d8d89828a01614cfd565b9150509295509295509295565b5f81519050919050565b5f82825260208201905092915050565b8281835e5f83830152505050565b5f601f19601f8301169050919050565b5f614ddc82614d9a565b614de68185614da4565b9350614df6818560208601614db4565b614dff81614dc2565b840191505092915050565b5f6020820190508181035f830152614e228184614dd2565b905092915050565b5f73ffffffffffffffffffffffffffffffffffffffff82169050919050565b5f614e5382614e2a565b9050919050565b614e6381614e49565b8114614e6d575f5ffd5b50565b5f81359050614e7e81614e5a565b92915050565b5f5f60408385031215614e9a57614e99614cd6565b5b5f614ea785828601614e70565b9250506020614eb885828601614cfd565b9150509250929050565b5f8115159050919050565b614ed681614ec2565b82525050565b5f602082019050614eef5f830184614ecd565b92915050565b5f5f5f60608486031215614f0c57614f0b614cd6565b5b5f614f1986828701614e70565b9350506020614f2a86828701614e70565b9250506040614f3b86828701614cfd565b9150509250925092565b614f4e81614cde565b82525050565b5f602082019050614f675f830184614f45565b92915050565b614f7681614e49565b82525050565b5f602082019050614f8f5f830184614f6d565b92915050565b5f60208284031215614faa57614fa9614cd6565b5b5f614fb784828501614cfd565b91505092915050565b5f60ff82169050919050565b614fd581614fc0565b82525050565b5f602082019050614fee5f830184614fcc565b92915050565b5f6020828403121561500957615008614cd6565b5b5f61501684828501614e70565b91505092915050565b5f5f6040838503121561503557615034614cd6565b5b5f61504285828601614e70565b925050602061505385828601614e70565b9150509250929050565b61506681614ec2565b8114615070575f5ffd5b50565b5f813590506150818161505d565b92915050565b5f5f6040838503121561509d5761509c614cd6565b5b5f6150aa85828601614cfd565b92505060206150bb85828601615073565b9150509250929050565b5f60c0820190506150d85f830189614f45565b6150e56020830188614f45565b6150f26040830187614f45565b6150ff6060830186614f45565b61510c6080830185614f45565b61511960a0830184614f45565b979650505050505050565b5f5f6040838503121561513a57615139614cd6565b5b5f61514785828601615073565b925050602061515885828601614cfd565b9150509250929050565b5f6020828403121561517757615176614cd6565b5b5f61518484828501615073565b91505092915050565b5f5ffd5b7f4e487b71000000000000000000000000000000000000000000000000000000005f52604160045260245ffd5b6151c782614dc2565b810181811067ffffffffffffffff821117156151e6576151e5615191565b5b80604052505050565b5f6151f8614ccd565b905061520482826151be565b919050565b5f67ffffffffffffffff82111561522357615222615191565b5b602082029050602081019050919050565b5f5ffd5b5f61524a61524584615209565b6151ef565b9050808382526020820190506020840283018581111561526d5761526c615234565b5b835b8181101561529657806152828882614e70565b84526020840193505060208101905061526f565b5050509392505050565b5f82601f8301126152b4576152b361518d565b5b81356152c4848260208601615238565b91505092915050565b5f5f604083850312156152e3576152e2614cd6565b5b5f83013567ffffffffffffffff811115615300576152ff614cda565b5b61530c858286016152a0565b925050602061531d85828601615073565b9150509250929050565b5f5f6040838503121561533d5761533c614cd6565b5b5f61534a85828601614e70565b925050602061535b85828601615073565b9150509250929050565b5f819050919050565b5f61538861538361537e84614e2a565b615365565b614e2a565b9050919050565b5f6153998261536e565b9050919050565b5f6153aa8261538f565b9050919050565b6153ba816153a0565b82525050565b5f6020820190506153d35f8301846153b1565b92915050565b7f4f776e61626c653a2063616c6c6572206973206e6f7420746865206f776e65725f82015250565b5f61540d602083614da4565b9150615418826153d9565b602082019050919050565b5f6020820190508181035f83015261543a81615401565b9050919050565b5f6040820190506154545f830185614f6d565b6154616020830184614f45565b9392505050565b5f815190506154768161505d565b92915050565b5f6020828403121561549157615490614cd6565b5b5f61549e84828501615468565b91505092915050565b7f45524332303a207472616e7366657220616d6f756e74206578636565647320615f8201527f6c6c6f77616e6365000000000000000000000000000000000000000000000000602082015250565b5f615501602883614da4565b915061550c826154a7565b604082019050919050565b5f6020820190508181035f83015261552e816154f5565b9050919050565b7f4e487b71000000000000000000000000000000000000000000000000000000005f52601160045260245ffd5b5f61556c82614cde565b915061557783614cde565b925082820390508181111561558f5761558e615535565b5b92915050565b7f416d6f756e74206d757374206265206c657373207468616e20746f74616c20725f8201527f65666c656374696f6e7300000000000000000000000000000000000000000000602082015250565b5f6155ef602a83614da4565b91506155fa82615595565b604082019050919050565b5f6020820190508181035f83015261561c816155e3565b9050919050565b7f4e487b71000000000000000000000000000000000000000000000000000000005f52601260045260245ffd5b5f61565a82614cde565b915061566583614cde565b92508261567557615674615623565b5b828204905092915050565b7f4163636f756e74206973206e6f74206578636c756465640000000000000000005f82015250565b5f6156b4601783614da4565b91506156bf82615680565b602082019050919050565b5f6020820190508181035f8301526156e1816156a8565b9050919050565b7f4e487b71000000000000000000000000000000000000000000000000000000005f52603260045260245ffd5b7f4e487b71000000000000000000000000000000000000000000000000000000005f52603160045260245ffd5b5f61574c82614cde565b915061575783614cde565b925082820190508082111561576f5761576e615535565b5b92915050565b7f416d6f756e74206d757374206265206c657373207468616e20737570706c79005f82015250565b5f6157a9601f83614da4565b91506157b482615775565b602082019050919050565b5f6020820190508181035f8301526157d68161579d565b9050919050565b7f57616c6c657420616c72656164792073657400000000000000000000000000005f82015250565b5f615811601283614da4565b915061581c826157dd565b602082019050919050565b5f6020820190508181035f83015261583e81615805565b9050919050565b7f4163636f756e7420697320616c7265616479206578636c7564656400000000005f82015250565b5f615879601b83614da4565b915061588482615845565b602082019050919050565b5f6020820190508181035f8301526158a68161586d565b9050919050565b5f6158b782614cde565b91506158c283614cde565b92508282026158d081614cde565b915082820484148315176158e7576158e6615535565b5b5092915050565b7f696e73756666696369656e74204554482062616c616e636500000000000000005f82015250565b5f615922601883614da4565b915061592d826158ee565b602082019050919050565b5f6020820190508181035f83015261594f81615916565b9050919050565b7f45524332303a2064656372656173656420616c6c6f77616e63652062656c6f775f8201527f207a65726f000000000000000000000000000000000000000000000000000000602082015250565b5f6159b0602583614da4565b91506159bb82615956565b604082019050919050565b5f6020820190508181035f8301526159dd816159a4565b9050919050565b7f54726164696e672069732063757272656e746c792064697361626c65642e00005f82015250565b5f615a18601e83614da4565b9150615a23826159e4565b602082019050919050565b5f6020820190508181035f830152615a4581615a0c565b9050919050565b5f8160011c9050919050565b5f5f8291508390505b6001851115615aa157808604811115615a7d57615a7c615535565b5b6001851615615a8c5780820291505b8081029050615a9a85615a4c565b9450615a61565b94509492505050565b5f82615ab95760019050615b74565b81615ac6575f9050615b74565b8160018114615adc5760028114615ae657615b15565b6001915050615b74565b60ff841115615af857615af7615535565b5b8360020a915084821115615b0f57615b0e615535565b5b50615b74565b5060208310610133831016604e8410600b8410161715615b4a5782820a905083811115615b4557615b44615535565b5b615b74565b615b578484846001615a58565b92509050818404811115615b6e57615b6d615535565b5b81810290505b9392505050565b5f615b8582614cde565b9150615b9083614fc0565b9250615bbd7fffffffffffffffffffffffffffffffffffffffffffffffffffffffffffffffff8484615aaa565b905092915050565b7f56616c756520616c7265616479207365740000000000000000000000000000005f82015250565b5f615bf9601183614da4565b9150615c0482615bc5565b602082019050919050565b5f6020820190508181035f830152615c2681615bed565b9050919050565b7f4f776e61626c653a206e6577206f776e657220697320746865207a65726f20615f8201527f6464726573730000000000000000000000000000000000000000000000000000602082015250565b5f615c87602683614da4565b9150615c9282615c2d565b604082019050919050565b5f6020820190508181035f830152615cb481615c7b565b9050919050565b7f45524332303a20617070726f76652066726f6d20746865207a65726f206164645f8201527f7265737300000000000000000000000000000000000000000000000000000000602082015250565b5f615d15602483614da4565b9150615d2082615cbb565b604082019050919050565b5f6020820190508181035f830152615d4281615d09565b9050919050565b7f45524332303a20617070726f766520746f20746865207a65726f2061646472655f8201527f7373000000000000000000000000000000000000000000000000000000000000602082015250565b5f615da3602283614da4565b9150615dae82615d49565b604082019050919050565b5f6020820190508181035f830152615dd081615d97565b9050919050565b7f45524332303a207472616e736665722066726f6d20746865207a65726f2061645f8201527f6472657373000000000000000000000000000000000000000000000000000000602082015250565b5f615e31602583614da4565b9150615e3c82615dd7565b604082019050919050565b5f6020820190508181035f830152615e5e81615e25565b9050919050565b7f45524332303a207472616e7366657220746f20746865207a65726f20616464725f8201527f6573730000000000000000000000000000000000000000000000000000000000602082015250565b5f615ebf602383614da4565b9150615eca82615e65565b604082019050919050565b5f6020820190508181035f830152615eec81615eb3565b9050919050565b7f5472616e7366657220616d6f756e74206d7573742062652067726561746572205f8201527f7468616e207a65726f0000000000000000000000000000000000000000000000602082015250565b5f615f4d602983614da4565b9150615f5882615ef3565b604082019050919050565b5f6020820190508181035f830152615f7a81615f41565b9050919050565b7f596f752061726520747279696e6720746f207472616e73666572206d6f7265205f8201527f7468616e20796f75722062616c616e6365000000000000000000000000000000602082015250565b5f615fdb603183614da4565b9150615fe682615f81565b604082019050919050565b5f6020820190508181035f83015261600881615fcf565b9050919050565b7f596f7520617265206120626f74000000000000000000000000000000000000005f82015250565b5f616043600d83614da4565b915061604e8261600f565b602082019050919050565b5f6020820190508181035f83015261607081616037565b9050919050565b7f416d6f756e7420697320657863656564696e67206d61785478416d6f756e74005f82015250565b5f6160ab601f83614da4565b91506160b682616077565b602082019050919050565b5f6020820190508181035f8301526160d88161609f565b9050919050565b7f596f75206d757374207761697420636f6f6c446f776e54696d650000000000005f82015250565b5f616113601a83614da4565b915061611e826160df565b602082019050919050565b5f6020820190508181035f83015261614081616107565b9050919050565b5f8151905061615581614e5a565b92915050565b5f602082840312156161705761616f614cd6565b5b5f61617d84828501616147565b91505092915050565b5f819050919050565b5f6161a96161a461619f84616186565b615365565b614cde565b9050919050565b6161b98161618f565b82525050565b5f81519050919050565b5f82825260208201905092915050565b5f819050602082019050919050565b6161f181614e49565b82525050565b5f61620283836161e8565b60208301905092915050565b5f602082019050919050565b5f616224826161bf565b61622e81856161c9565b9350616239836161d9565b805f5b8381101561626957815161625088826161f7565b975061625b8361620e565b92505060018101905061623c565b5085935050505092915050565b5f60a0820190506162895f830188614f45565b61629660208301876161b0565b81810360408301526162a8818661621a565b90506162b76060830185614f6d565b6162c46080830184614f45565b9695505050505050565b5f60c0820190506162e15f830189614f6d565b6162ee6020830188614f45565b6162fb60408301876161b0565b61630860608301866161b0565b6163156080830185614f6d565b61632260a0830184614f45565b979650505050505050565b5f8151905061633b81614ce7565b92915050565b5f5f5f6060848603121561635857616357614cd6565b5b5f6163658682870161632d565b93505060206163768682870161632d565b92505060406163878682870161632d565b915050925092509256fea26469706673582212205fbd7beafb23a69dfa6b3240559313b7eed5f71a32521e3b16558fb2f9f5cf8a64736f6c634300081b0033",
			"opcodes": "PUSH1 0x80 PUSH1 0x40 MSTORE PUSH1 0x9 PUSH1 0xA PUSH2 0x12 SWAP2 SWAP1 PUSH2 0x106A JUMP JUMPDEST PUSH8 0xDE0B6B3A7640000 PUSH2 0x25 SWAP2 SWAP1 PUSH2 0x10B4 JUMP JUMPDEST PUSH1 0xA SSTORE PUSH1 0xA SLOAD PUSH0 NOT PUSH2 0x37 SWAP2 SWAP1 PUSH2 0x1122 JUMP JUMPDEST PUSH0 NOT PUSH2 0x43 SWAP2 SWAP1 PUSH2 0x1152 JUMP JUMPDEST PUSH1 0xB SSTORE PUSH1 0x9 PUSH1 0xA PUSH2 0x54 SWAP2 SWAP1 PUSH2 0x106A JUMP JUMPDEST PUSH3 0xF4240 PUSH2 0x62 SWAP2 SWAP1 PUSH2 0x10B4 JUMP JUMPDEST PUSH1 0xC SSTORE PUSH1 0x9 PUSH1 0xA PUSH2 0x73 SWAP2 SWAP1 PUSH2 0x106A JUMP JUMPDEST PUSH7 0x71AFD498D0000 PUSH2 0x85 SWAP2 SWAP1 PUSH2 0x10B4 JUMP JUMPDEST PUSH1 0xD SSTORE PUSH1 0x1 PUSH1 0xE PUSH0 PUSH2 0x100 EXP DUP2 SLOAD DUP2 PUSH1 0xFF MUL NOT AND SWAP1 DUP4 ISZERO ISZERO MUL OR SWAP1 SSTORE POP PUSH1 0x1 PUSH1 0x10 PUSH0 PUSH2 0x100 EXP DUP2 SLOAD DUP2 PUSH1 0xFF MUL NOT AND SWAP1 DUP4 ISZERO ISZERO MUL OR SWAP1 SSTORE POP PUSH1 0x45 PUSH1 0x11 SSTORE PUSH20 0xC56D6D2AE78102C9D7A72BCAB720CA1CAE97B2CC PUSH1 0x12 PUSH0 PUSH2 0x100 EXP DUP2 SLOAD DUP2 PUSH20 0xFFFFFFFFFFFFFFFFFFFFFFFFFFFFFFFFFFFFFFFF MUL NOT AND SWAP1 DUP4 PUSH20 0xFFFFFFFFFFFFFFFFFFFFFFFFFFFFFFFFFFFFFFFF AND MUL OR SWAP1 SSTORE POP PUSH20 0xB3AAE54BE35E8044C8044F5488AAF3861279328B PUSH1 0x13 PUSH0 PUSH2 0x100 EXP DUP2 SLOAD DUP2 PUSH20 0xFFFFFFFFFFFFFFFFFFFFFFFFFFFFFFFFFFFFFFFF MUL NOT AND SWAP1 DUP4 PUSH20 0xFFFFFFFFFFFFFFFFFFFFFFFFFFFFFFFFFFFFFFFF AND MUL OR SWAP1 SSTORE POP PUSH20 0x45B495B912C33DB96D57B18FBB5F4A439573D770 PUSH1 0x14 PUSH0 PUSH2 0x100 EXP DUP2 SLOAD DUP2 PUSH20 0xFFFFFFFFFFFFFFFFFFFFFFFFFFFFFFFFFFFFFFFF MUL NOT AND SWAP1 DUP4 PUSH20 0xFFFFFFFFFFFFFFFFFFFFFFFFFFFFFFFFFFFFFFFF AND MUL OR SWAP1 SSTORE POP PUSH20 0x7A250D5630B4CF539739DF2C5DACB4C659F2488D PUSH1 0x15 PUSH0 PUSH2 0x100 EXP DUP2 SLOAD DUP2 PUSH20 0xFFFFFFFFFFFFFFFFFFFFFFFFFFFFFFFFFFFFFFFF MUL NOT AND SWAP1 DUP4 PUSH20 0xFFFFFFFFFFFFFFFFFFFFFFFFFFFFFFFFFFFFFFFF AND MUL OR SWAP1 SSTORE POP PUSH1 0x40 MLOAD DUP1 PUSH1 0xC0 ADD PUSH1 0x40 MSTORE DUP1 PUSH1 0x1 DUP2 MSTORE PUSH1 0x20 ADD PUSH1 0x1 DUP2 MSTORE PUSH1 0x20 ADD PUSH1 0x1 DUP2 MSTORE PUSH1 0x20 ADD PUSH1 0x3 DUP2 MSTORE PUSH1 0x20 ADD PUSH1 0x3 DUP2 MSTORE PUSH1 0x20 ADD PUSH1 0x2 DUP2 MSTORE POP PUSH1 0x16 PUSH0 DUP3 ADD MLOAD DUP2 PUSH0 ADD SSTORE PUSH1 0x20 DUP3 ADD MLOAD DUP2 PUSH1 0x1 ADD SSTORE PUSH1 0x40 DUP3 ADD MLOAD DUP2 PUSH1 0x2 ADD SSTORE PUSH1 0x60 DUP3 ADD MLOAD DUP2 PUSH1 0x3 ADD SSTORE PUSH1 0x80 DUP3 ADD MLOAD DUP2 PUSH1 0x4 ADD SSTORE PUSH1 0xA0 DUP3 ADD MLOAD DUP2 PUSH1 0x5 ADD SSTORE POP POP CALLVALUE DUP1 ISZERO PUSH2 0x28D JUMPI PUSH0 PUSH0 REVERT JUMPDEST POP PUSH2 0x2AA PUSH2 0x29F PUSH2 0x857 PUSH1 0x20 SHL PUSH1 0x20 SHR JUMP JUMPDEST PUSH2 0x85E PUSH1 0x20 SHL PUSH1 0x20 SHR JUMP JUMPDEST PUSH0 PUSH1 0x15 PUSH0 SWAP1 SLOAD SWAP1 PUSH2 0x100 EXP SWAP1 DIV PUSH20 0xFFFFFFFFFFFFFFFFFFFFFFFFFFFFFFFFFFFFFFFF AND SWAP1 POP PUSH0 DUP2 PUSH20 0xFFFFFFFFFFFFFFFFFFFFFFFFFFFFFFFFFFFFFFFF AND PUSH4 0xC45A0155 PUSH1 0x40 MLOAD DUP2 PUSH4 0xFFFFFFFF AND PUSH1 0xE0 SHL DUP2 MSTORE PUSH1 0x4 ADD PUSH1 0x20 PUSH1 0x40 MLOAD DUP1 DUP4 SUB DUP2 DUP7 GAS STATICCALL ISZERO DUP1 ISZERO PUSH2 0x319 JUMPI RETURNDATASIZE PUSH0 PUSH0 RETURNDATACOPY RETURNDATASIZE PUSH0 REVERT JUMPDEST POP POP POP POP PUSH1 0x40 MLOAD RETURNDATASIZE PUSH1 0x1F NOT PUSH1 0x1F DUP3 ADD AND DUP3 ADD DUP1 PUSH1 0x40 MSTORE POP DUP2 ADD SWAP1 PUSH2 0x33D SWAP2 SWAP1 PUSH2 0x11E3 JUMP JUMPDEST PUSH20 0xFFFFFFFFFFFFFFFFFFFFFFFFFFFFFFFFFFFFFFFF AND PUSH4 0xC9C65396 ADDRESS DUP5 PUSH20 0xFFFFFFFFFFFFFFFFFFFFFFFFFFFFFFFFFFFFFFFF AND PUSH4 0xAD5C4648 PUSH1 0x40 MLOAD DUP2 PUSH4 0xFFFFFFFF AND PUSH1 0xE0 SHL DUP2 MSTORE PUSH1 0x4 ADD PUSH1 0x20 PUSH1 0x40 MLOAD DUP1 DUP4 SUB DUP2 DUP7 GAS STATICCALL ISZERO DUP1 ISZERO PUSH2 0x3A2 JUMPI RETURNDATASIZE PUSH0 PUSH0 RETURNDATACOPY RETURNDATASIZE PUSH0 REVERT JUMPDEST POP POP POP POP PUSH1 0x40 MLOAD RETURNDATASIZE PUSH1 0x1F NOT PUSH1 0x1F DUP3 ADD AND DUP3 ADD DUP1 PUSH1 0x40 MSTORE POP DUP2 ADD SWAP1 PUSH2 0x3C6 SWAP2 SWAP1 PUSH2 0x11E3 JUMP JUMPDEST PUSH1 0x40 MLOAD DUP4 PUSH4 0xFFFFFFFF AND PUSH1 0xE0 SHL DUP2 MSTORE PUSH1 0x4 ADD PUSH2 0x3E3 SWAP3 SWAP2 SWAP1 PUSH2 0x121D JUMP JUMPDEST PUSH1 0x20 PUSH1 0x40 MLOAD DUP1 DUP4 SUB DUP2 PUSH0 DUP8 GAS CALL ISZERO DUP1 ISZERO PUSH2 0x3FF JUMPI RETURNDATASIZE PUSH0 PUSH0 RETURNDATACOPY RETURNDATASIZE PUSH0 REVERT JUMPDEST POP POP POP POP PUSH1 0x40 MLOAD RETURNDATASIZE PUSH1 0x1F NOT PUSH1 0x1F DUP3 ADD AND DUP3 ADD DUP1 PUSH1 0x40 MSTORE POP DUP2 ADD SWAP1 PUSH2 0x423 SWAP2 SWAP1 PUSH2 0x11E3 JUMP JUMPDEST SWAP1 POP DUP2 PUSH1 0x8 PUSH1 0x2 PUSH2 0x100 EXP DUP2 SLOAD DUP2 PUSH20 0xFFFFFFFFFFFFFFFFFFFFFFFFFFFFFFFFFFFFFFFF MUL NOT AND SWAP1 DUP4 PUSH20 0xFFFFFFFFFFFFFFFFFFFFFFFFFFFFFFFFFFFFFFFF AND MUL OR SWAP1 SSTORE POP DUP1 PUSH1 0x9 PUSH0 PUSH2 0x100 EXP DUP2 SLOAD DUP2 PUSH20 0xFFFFFFFFFFFFFFFFFFFFFFFFFFFFFFFFFFFFFFFF MUL NOT AND SWAP1 DUP4 PUSH20 0xFFFFFFFFFFFFFFFFFFFFFFFFFFFFFFFFFFFFFFFF AND MUL OR SWAP1 SSTORE POP PUSH2 0x4D6 PUSH1 0x9 PUSH0 SWAP1 SLOAD SWAP1 PUSH2 0x100 EXP SWAP1 DIV PUSH20 0xFFFFFFFFFFFFFFFFFFFFFFFFFFFFFFFFFFFFFFFF AND PUSH2 0x91F PUSH1 0x20 SHL PUSH1 0x20 SHR JUMP JUMPDEST PUSH2 0x4E7 PUSH2 0xDEAD PUSH2 0x91F PUSH1 0x20 SHL PUSH1 0x20 SHR JUMP JUMPDEST PUSH1 0xB SLOAD PUSH1 0x1 PUSH0 PUSH2 0x4FB PUSH2 0xBBC PUSH1 0x20 SHL PUSH1 0x20 SHR JUMP JUMPDEST PUSH20 0xFFFFFFFFFFFFFFFFFFFFFFFFFFFFFFFFFFFFFFFF AND PUSH20 0xFFFFFFFFFFFFFFFFFFFFFFFFFFFFFFFFFFFFFFFF AND DUP2 MSTORE PUSH1 0x20 ADD SWAP1 DUP2 MSTORE PUSH1 0x20 ADD PUSH0 KECCAK256 DUP2 SWAP1 SSTORE POP PUSH1 0x1 PUSH1 0x4 PUSH0 PUSH2 0x54B PUSH2 0xBBC PUSH1 0x20 SHL PUSH1 0x20 SHR JUMP JUMPDEST PUSH20 0xFFFFFFFFFFFFFFFFFFFFFFFFFFFFFFFFFFFFFFFF AND PUSH20 0xFFFFFFFFFFFFFFFFFFFFFFFFFFFFFFFFFFFFFFFF AND DUP2 MSTORE PUSH1 0x20 ADD SWAP1 DUP2 MSTORE PUSH1 0x20 ADD PUSH0 KECCAK256 PUSH0 PUSH2 0x100 EXP DUP2 SLOAD DUP2 PUSH1 0xFF MUL NOT AND SWAP1 DUP4 ISZERO ISZERO MUL OR SWAP1 SSTORE POP PUSH1 0x1 PUSH1 0x4 PUSH0 ADDRESS PUSH20 0xFFFFFFFFFFFFFFFFFFFFFFFFFFFFFFFFFFFFFFFF AND PUSH20 0xFFFFFFFFFFFFFFFFFFFFFFFFFFFFFFFFFFFFFFFF AND DUP2 MSTORE PUSH1 0x20 ADD SWAP1 DUP2 MSTORE PUSH1 0x20 ADD PUSH0 KECCAK256 PUSH0 PUSH2 0x100 EXP DUP2 SLOAD DUP2 PUSH1 0xFF MUL NOT AND SWAP1 DUP4 ISZERO ISZERO MUL OR SWAP1 SSTORE POP PUSH1 0x1 PUSH1 0x4 PUSH0 PUSH1 0x13 PUSH0 SWAP1 SLOAD SWAP1 PUSH2 0x100 EXP SWAP1 DIV PUSH20 0xFFFFFFFFFFFFFFFFFFFFFFFFFFFFFFFFFFFFFFFF AND PUSH20 0xFFFFFFFFFFFFFFFFFFFFFFFFFFFFFFFFFFFFFFFF AND PUSH20 0xFFFFFFFFFFFFFFFFFFFFFFFFFFFFFFFFFFFFFFFF AND DUP2 MSTORE PUSH1 0x20 ADD SWAP1 DUP2 MSTORE PUSH1 0x20 ADD PUSH0 KECCAK256 PUSH0 PUSH2 0x100 EXP DUP2 SLOAD DUP2 PUSH1 0xFF MUL NOT AND SWAP1 DUP4 ISZERO ISZERO MUL OR SWAP1 SSTORE POP PUSH1 0x1 PUSH1 0x4 PUSH0 PUSH1 0x12 PUSH0 SWAP1 SLOAD SWAP1 PUSH2 0x100 EXP SWAP1 DIV PUSH20 0xFFFFFFFFFFFFFFFFFFFFFFFFFFFFFFFFFFFFFFFF AND PUSH20 0xFFFFFFFFFFFFFFFFFFFFFFFFFFFFFFFFFFFFFFFF AND PUSH20 0xFFFFFFFFFFFFFFFFFFFFFFFFFFFFFFFFFFFFFFFF AND DUP2 MSTORE PUSH1 0x20 ADD SWAP1 DUP2 MSTORE PUSH1 0x20 ADD PUSH0 KECCAK256 PUSH0 PUSH2 0x100 EXP DUP2 SLOAD DUP2 PUSH1 0xFF MUL NOT AND SWAP1 DUP4 ISZERO ISZERO MUL OR SWAP1 SSTORE POP PUSH1 0x1 PUSH1 0x4 PUSH0 PUSH1 0x14 PUSH0 SWAP1 SLOAD SWAP1 PUSH2 0x100 EXP SWAP1 DIV PUSH20 0xFFFFFFFFFFFFFFFFFFFFFFFFFFFFFFFFFFFFFFFF AND PUSH20 0xFFFFFFFFFFFFFFFFFFFFFFFFFFFFFFFFFFFFFFFF AND PUSH20 0xFFFFFFFFFFFFFFFFFFFFFFFFFFFFFFFFFFFFFFFF AND DUP2 MSTORE PUSH1 0x20 ADD SWAP1 DUP2 MSTORE PUSH1 0x20 ADD PUSH0 KECCAK256 PUSH0 PUSH2 0x100 EXP DUP2 SLOAD DUP2 PUSH1 0xFF MUL NOT AND SWAP1 DUP4 ISZERO ISZERO MUL OR SWAP1 SSTORE POP PUSH1 0x1 PUSH1 0x4 PUSH0 PUSH2 0xDEAD PUSH20 0xFFFFFFFFFFFFFFFFFFFFFFFFFFFFFFFFFFFFFFFF AND PUSH20 0xFFFFFFFFFFFFFFFFFFFFFFFFFFFFFFFFFFFFFFFF AND DUP2 MSTORE PUSH1 0x20 ADD SWAP1 DUP2 MSTORE PUSH1 0x20 ADD PUSH0 KECCAK256 PUSH0 PUSH2 0x100 EXP DUP2 SLOAD DUP2 PUSH1 0xFF MUL NOT AND SWAP1 DUP4 ISZERO ISZERO MUL OR SWAP1 SSTORE POP PUSH1 0x1 PUSH1 0xE PUSH0 PUSH2 0x100 EXP DUP2 SLOAD DUP2 PUSH1 0xFF MUL NOT AND SWAP1 DUP4 ISZERO ISZERO MUL OR SWAP1 SSTORE POP PUSH1 0x1 PUSH1 0x8 PUSH0 PUSH2 0x100 EXP DUP2 SLOAD DUP2 PUSH1 0xFF MUL NOT AND SWAP1 DUP4 ISZERO ISZERO MUL OR SWAP1 SSTORE POP PUSH2 0x7EA PUSH2 0xBBC PUSH1 0x20 SHL PUSH1 0x20 SHR JUMP JUMPDEST PUSH20 0xFFFFFFFFFFFFFFFFFFFFFFFFFFFFFFFFFFFFFFFF AND PUSH0 PUSH20 0xFFFFFFFFFFFFFFFFFFFFFFFFFFFFFFFFFFFFFFFF AND PUSH32 0xDDF252AD1BE2C89B69C2B068FC378DAA952BA7F163C4A11628F55A4DF523B3EF PUSH1 0xA SLOAD PUSH1 0x40 MLOAD PUSH2 0x848 SWAP2 SWAP1 PUSH2 0x1253 JUMP JUMPDEST PUSH1 0x40 MLOAD DUP1 SWAP2 SUB SWAP1 LOG3 POP POP PUSH2 0x1437 JUMP JUMPDEST PUSH0 CALLER SWAP1 POP SWAP1 JUMP JUMPDEST PUSH0 PUSH0 PUSH0 SWAP1 SLOAD SWAP1 PUSH2 0x100 EXP SWAP1 DIV PUSH20 0xFFFFFFFFFFFFFFFFFFFFFFFFFFFFFFFFFFFFFFFF AND SWAP1 POP DUP2 PUSH0 PUSH0 PUSH2 0x100 EXP DUP2 SLOAD DUP2 PUSH20 0xFFFFFFFFFFFFFFFFFFFFFFFFFFFFFFFFFFFFFFFF MUL NOT AND SWAP1 DUP4 PUSH20 0xFFFFFFFFFFFFFFFFFFFFFFFFFFFFFFFFFFFFFFFF AND MUL OR SWAP1 SSTORE POP DUP2 PUSH20 0xFFFFFFFFFFFFFFFFFFFFFFFFFFFFFFFFFFFFFFFF AND DUP2 PUSH20 0xFFFFFFFFFFFFFFFFFFFFFFFFFFFFFFFFFFFFFFFF AND PUSH32 0x8BE0079C531659141344CD1FD0A4F28419497F9722A3DAAFE3B4186F6B6457E0 PUSH1 0x40 MLOAD PUSH1 0x40 MLOAD DUP1 SWAP2 SUB SWAP1 LOG3 POP POP JUMP JUMPDEST PUSH2 0x92D PUSH2 0x857 PUSH1 0x20 SHL PUSH1 0x20 SHR JUMP JUMPDEST PUSH20 0xFFFFFFFFFFFFFFFFFFFFFFFFFFFFFFFFFFFFFFFF AND PUSH2 0x951 PUSH2 0xBBC PUSH1 0x20 SHL PUSH1 0x20 SHR JUMP JUMPDEST PUSH20 0xFFFFFFFFFFFFFFFFFFFFFFFFFFFFFFFFFFFFFFFF AND EQ PUSH2 0x9A7 JUMPI PUSH1 0x40 MLOAD PUSH32 0x8C379A000000000000000000000000000000000000000000000000000000000 DUP2 MSTORE PUSH1 0x4 ADD PUSH2 0x99E SWAP1 PUSH2 0x12C6 JUMP JUMPDEST PUSH1 0x40 MLOAD DUP1 SWAP2 SUB SWAP1 REVERT JUMPDEST PUSH1 0x5 PUSH0 DUP3 PUSH20 0xFFFFFFFFFFFFFFFFFFFFFFFFFFFFFFFFFFFFFFFF AND PUSH20 0xFFFFFFFFFFFFFFFFFFFFFFFFFFFFFFFFFFFFFFFF AND DUP2 MSTORE PUSH1 0x20 ADD SWAP1 DUP2 MSTORE PUSH1 0x20 ADD PUSH0 KECCAK256 PUSH0 SWAP1 SLOAD SWAP1 PUSH2 0x100 EXP SWAP1 DIV PUSH1 0xFF AND ISZERO PUSH2 0xA31 JUMPI PUSH1 0x40 MLOAD PUSH32 0x8C379A000000000000000000000000000000000000000000000000000000000 DUP2 MSTORE PUSH1 0x4 ADD PUSH2 0xA28 SWAP1 PUSH2 0x132E JUMP JUMPDEST PUSH1 0x40 MLOAD DUP1 SWAP2 SUB SWAP1 REVERT JUMPDEST PUSH0 PUSH1 0x1 PUSH0 DUP4 PUSH20 0xFFFFFFFFFFFFFFFFFFFFFFFFFFFFFFFFFFFFFFFF AND PUSH20 0xFFFFFFFFFFFFFFFFFFFFFFFFFFFFFFFFFFFFFFFF AND DUP2 MSTORE PUSH1 0x20 ADD SWAP1 DUP2 MSTORE PUSH1 0x20 ADD PUSH0 KECCAK256 SLOAD GT ISZERO PUSH2 0xB04 JUMPI PUSH2 0xAC2 PUSH1 0x1 PUSH0 DUP4 PUSH20 0xFFFFFFFFFFFFFFFFFFFFFFFFFFFFFFFFFFFFFFFF AND PUSH20 0xFFFFFFFFFFFFFFFFFFFFFFFFFFFFFFFFFFFFFFFF AND DUP2 MSTORE PUSH1 0x20 ADD SWAP1 DUP2 MSTORE PUSH1 0x20 ADD PUSH0 KECCAK256 SLOAD PUSH2 0xBE3 PUSH1 0x20 SHL PUSH1 0x20 SHR JUMP JUMPDEST PUSH1 0x2 PUSH0 DUP4 PUSH20 0xFFFFFFFFFFFFFFFFFFFFFFFFFFFFFFFFFFFFFFFF AND PUSH20 0xFFFFFFFFFFFFFFFFFFFFFFFFFFFFFFFFFFFFFFFF AND DUP2 MSTORE PUSH1 0x20 ADD SWAP1 DUP2 MSTORE PUSH1 0x20 ADD PUSH0 KECCAK256 DUP2 SWAP1 SSTORE POP JUMPDEST PUSH1 0x1 PUSH1 0x5 PUSH0 DUP4 PUSH20 0xFFFFFFFFFFFFFFFFFFFFFFFFFFFFFFFFFFFFFFFF AND PUSH20 0xFFFFFFFFFFFFFFFFFFFFFFFFFFFFFFFFFFFFFFFF AND DUP2 MSTORE PUSH1 0x20 ADD SWAP1 DUP2 MSTORE PUSH1 0x20 ADD PUSH0 KECCAK256 PUSH0 PUSH2 0x100 EXP DUP2 SLOAD DUP2 PUSH1 0xFF MUL NOT AND SWAP1 DUP4 ISZERO ISZERO MUL OR SWAP1 SSTORE POP PUSH1 0x7 DUP2 SWAP1 DUP1 PUSH1 0x1 DUP2 SLOAD ADD DUP1 DUP3 SSTORE DUP1 SWAP2 POP POP PUSH1 0x1 SWAP1 SUB SWAP1 PUSH0 MSTORE PUSH1 0x20 PUSH0 KECCAK256 ADD PUSH0 SWAP1 SWAP2 SWAP1 SWAP2 SWAP1 SWAP2 PUSH2 0x100 EXP DUP2 SLOAD DUP2 PUSH20 0xFFFFFFFFFFFFFFFFFFFFFFFFFFFFFFFFFFFFFFFF MUL NOT AND SWAP1 DUP4 PUSH20 0xFFFFFFFFFFFFFFFFFFFFFFFFFFFFFFFFFFFFFFFF AND MUL OR SWAP1 SSTORE POP POP JUMP JUMPDEST PUSH0 PUSH0 PUSH0 SWAP1 SLOAD SWAP1 PUSH2 0x100 EXP SWAP1 DIV PUSH20 0xFFFFFFFFFFFFFFFFFFFFFFFFFFFFFFFFFFFFFFFF AND SWAP1 POP SWAP1 JUMP JUMPDEST PUSH0 PUSH1 0xB SLOAD DUP3 GT ISZERO PUSH2 0xC29 JUMPI PUSH1 0x40 MLOAD PUSH32 0x8C379A000000000000000000000000000000000000000000000000000000000 DUP2 MSTORE PUSH1 0x4 ADD PUSH2 0xC20 SWAP1 PUSH2 0x13BC JUMP JUMPDEST PUSH1 0x40 MLOAD DUP1 SWAP2 SUB SWAP1 REVERT JUMPDEST PUSH0 PUSH2 0xC38 PUSH2 0xC4E PUSH1 0x20 SHL PUSH1 0x20 SHR JUMP JUMPDEST SWAP1 POP DUP1 DUP4 PUSH2 0xC46 SWAP2 SWAP1 PUSH2 0x13DA JUMP JUMPDEST SWAP2 POP POP SWAP2 SWAP1 POP JUMP JUMPDEST PUSH0 PUSH0 PUSH0 PUSH2 0xC5F PUSH2 0xC76 PUSH1 0x20 SHL PUSH1 0x20 SHR JUMP JUMPDEST SWAP2 POP SWAP2 POP DUP1 DUP3 PUSH2 0xC6F SWAP2 SWAP1 PUSH2 0x13DA JUMP JUMPDEST SWAP3 POP POP POP SWAP1 JUMP JUMPDEST PUSH0 PUSH0 PUSH0 PUSH1 0xB SLOAD SWAP1 POP PUSH0 PUSH1 0xA SLOAD SWAP1 POP PUSH0 PUSH0 SWAP1 POP JUMPDEST PUSH1 0x7 DUP1 SLOAD SWAP1 POP DUP2 LT ISZERO PUSH2 0xEC3 JUMPI DUP3 PUSH1 0x1 PUSH0 PUSH1 0x7 DUP5 DUP2 SLOAD DUP2 LT PUSH2 0xCAE JUMPI PUSH2 0xCAD PUSH2 0x140A JUMP JUMPDEST JUMPDEST SWAP1 PUSH0 MSTORE PUSH1 0x20 PUSH0 KECCAK256 ADD PUSH0 SWAP1 SLOAD SWAP1 PUSH2 0x100 EXP SWAP1 DIV PUSH20 0xFFFFFFFFFFFFFFFFFFFFFFFFFFFFFFFFFFFFFFFF AND PUSH20 0xFFFFFFFFFFFFFFFFFFFFFFFFFFFFFFFFFFFFFFFF AND PUSH20 0xFFFFFFFFFFFFFFFFFFFFFFFFFFFFFFFFFFFFFFFF AND DUP2 MSTORE PUSH1 0x20 ADD SWAP1 DUP2 MSTORE PUSH1 0x20 ADD PUSH0 KECCAK256 SLOAD GT DUP1 PUSH2 0xD93 JUMPI POP DUP2 PUSH1 0x2 PUSH0 PUSH1 0x7 DUP5 DUP2 SLOAD DUP2 LT PUSH2 0xD2F JUMPI PUSH2 0xD2E PUSH2 0x140A JUMP JUMPDEST JUMPDEST SWAP1 PUSH0 MSTORE PUSH1 0x20 PUSH0 KECCAK256 ADD PUSH0 SWAP1 SLOAD SWAP1 PUSH2 0x100 EXP SWAP1 DIV PUSH20 0xFFFFFFFFFFFFFFFFFFFFFFFFFFFFFFFFFFFFFFFF AND PUSH20 0xFFFFFFFFFFFFFFFFFFFFFFFFFFFFFFFFFFFFFFFF AND PUSH20 0xFFFFFFFFFFFFFFFFFFFFFFFFFFFFFFFFFFFFFFFF AND DUP2 MSTORE PUSH1 0x20 ADD SWAP1 DUP2 MSTORE PUSH1 0x20 ADD PUSH0 KECCAK256 SLOAD GT JUMPDEST ISZERO PUSH2 0xDAA JUMPI PUSH1 0xB SLOAD PUSH1 0xA SLOAD SWAP5 POP SWAP5 POP POP POP POP PUSH2 0xEF5 JUMP JUMPDEST PUSH1 0x1 PUSH0 PUSH1 0x7 DUP4 DUP2 SLOAD DUP2 LT PUSH2 0xDC1 JUMPI PUSH2 0xDC0 PUSH2 0x140A JUMP JUMPDEST JUMPDEST SWAP1 PUSH0 MSTORE PUSH1 0x20 PUSH0 KECCAK256 ADD PUSH0 SWAP1 SLOAD SWAP1 PUSH2 0x100 EXP SWAP1 DIV PUSH20 0xFFFFFFFFFFFFFFFFFFFFFFFFFFFFFFFFFFFFFFFF AND PUSH20 0xFFFFFFFFFFFFFFFFFFFFFFFFFFFFFFFFFFFFFFFF AND PUSH20 0xFFFFFFFFFFFFFFFFFFFFFFFFFFFFFFFFFFFFFFFF AND DUP2 MSTORE PUSH1 0x20 ADD SWAP1 DUP2 MSTORE PUSH1 0x20 ADD PUSH0 KECCAK256 SLOAD DUP4 PUSH2 0xE2E SWAP2 SWAP1 PUSH2 0x1152 JUMP JUMPDEST SWAP3 POP PUSH1 0x2 PUSH0 PUSH1 0x7 DUP4 DUP2 SLOAD DUP2 LT PUSH2 0xE47 JUMPI PUSH2 0xE46 PUSH2 0x140A JUMP JUMPDEST JUMPDEST SWAP1 PUSH0 MSTORE PUSH1 0x20 PUSH0 KECCAK256 ADD PUSH0 SWAP1 SLOAD SWAP1 PUSH2 0x100 EXP SWAP1 DIV PUSH20 0xFFFFFFFFFFFFFFFFFFFFFFFFFFFFFFFFFFFFFFFF AND PUSH20 0xFFFFFFFFFFFFFFFFFFFFFFFFFFFFFFFFFFFFFFFF AND PUSH20 0xFFFFFFFFFFFFFFFFFFFFFFFFFFFFFFFFFFFFFFFF AND DUP2 MSTORE PUSH1 0x20 ADD SWAP1 DUP2 MSTORE PUSH1 0x20 ADD PUSH0 KECCAK256 SLOAD DUP3 PUSH2 0xEB4 SWAP2 SWAP1 PUSH2 0x1152 JUMP JUMPDEST SWAP2 POP DUP1 DUP1 PUSH1 0x1 ADD SWAP2 POP POP PUSH2 0xC89 JUMP JUMPDEST POP PUSH1 0xA SLOAD PUSH1 0xB SLOAD PUSH2 0xED4 SWAP2 SWAP1 PUSH2 0x13DA JUMP JUMPDEST DUP3 LT ISZERO PUSH2 0xEEC JUMPI PUSH1 0xB SLOAD PUSH1 0xA SLOAD SWAP4 POP SWAP4 POP POP POP PUSH2 0xEF5 JUMP JUMPDEST DUP2 DUP2 SWAP4 POP SWAP4 POP POP POP JUMPDEST SWAP1 SWAP2 JUMP JUMPDEST PUSH32 0x4E487B7100000000000000000000000000000000000000000000000000000000 PUSH0 MSTORE PUSH1 0x11 PUSH1 0x4 MSTORE PUSH1 0x24 PUSH0 REVERT JUMPDEST PUSH0 DUP2 PUSH1 0x1 SHR SWAP1 POP SWAP2 SWAP1 POP JUMP JUMPDEST PUSH0 PUSH0 DUP3 SWAP2 POP DUP4 SWAP1 POP JUMPDEST PUSH1 0x1 DUP6 GT ISZERO PUSH2 0xF7B JUMPI DUP1 DUP7 DIV DUP2 GT ISZERO PUSH2 0xF57 JUMPI PUSH2 0xF56 PUSH2 0xEF9 JUMP JUMPDEST JUMPDEST PUSH1 0x1 DUP6 AND ISZERO PUSH2 0xF66 JUMPI DUP1 DUP3 MUL SWAP2 POP JUMPDEST DUP1 DUP2 MUL SWAP1 POP PUSH2 0xF74 DUP6 PUSH2 0xF26 JUMP JUMPDEST SWAP5 POP PUSH2 0xF3B JUMP JUMPDEST SWAP5 POP SWAP5 SWAP3 POP POP POP JUMP JUMPDEST PUSH0 DUP3 PUSH2 0xF93 JUMPI PUSH1 0x1 SWAP1 POP PUSH2 0x104E JUMP JUMPDEST DUP2 PUSH2 0xFA0 JUMPI PUSH0 SWAP1 POP PUSH2 0x104E JUMP JUMPDEST DUP2 PUSH1 0x1 DUP2 EQ PUSH2 0xFB6 JUMPI PUSH1 0x2 DUP2 EQ PUSH2 0xFC0 JUMPI PUSH2 0xFEF JUMP JUMPDEST PUSH1 0x1 SWAP2 POP POP PUSH2 0x104E JUMP JUMPDEST PUSH1 0xFF DUP5 GT ISZERO PUSH2 0xFD2 JUMPI PUSH2 0xFD1 PUSH2 0xEF9 JUMP JUMPDEST JUMPDEST DUP4 PUSH1 0x2 EXP SWAP2 POP DUP5 DUP3 GT ISZERO PUSH2 0xFE9 JUMPI PUSH2 0xFE8 PUSH2 0xEF9 JUMP JUMPDEST JUMPDEST POP PUSH2 0x104E JUMP JUMPDEST POP PUSH1 0x20 DUP4 LT PUSH2 0x133 DUP4 LT AND PUSH1 0x4E DUP5 LT PUSH1 0xB DUP5 LT AND OR ISZERO PUSH2 0x1024 JUMPI DUP3 DUP3 EXP SWAP1 POP DUP4 DUP2 GT ISZERO PUSH2 0x101F JUMPI PUSH2 0x101E PUSH2 0xEF9 JUMP JUMPDEST JUMPDEST PUSH2 0x104E JUMP JUMPDEST PUSH2 0x1031 DUP5 DUP5 DUP5 PUSH1 0x1 PUSH2 0xF32 JUMP JUMPDEST SWAP3 POP SWAP1 POP DUP2 DUP5 DIV DUP2 GT ISZERO PUSH2 0x1048 JUMPI PUSH2 0x1047 PUSH2 0xEF9 JUMP JUMPDEST JUMPDEST DUP2 DUP2 MUL SWAP1 POP JUMPDEST SWAP4 SWAP3 POP POP POP JUMP JUMPDEST PUSH0 DUP2 SWAP1 POP SWAP2 SWAP1 POP JUMP JUMPDEST PUSH0 PUSH1 0xFF DUP3 AND SWAP1 POP SWAP2 SWAP1 POP JUMP JUMPDEST PUSH0 PUSH2 0x1074 DUP3 PUSH2 0x1055 JUMP JUMPDEST SWAP2 POP PUSH2 0x107F DUP4 PUSH2 0x105E JUMP JUMPDEST SWAP3 POP PUSH2 0x10AC PUSH32 0xFFFFFFFFFFFFFFFFFFFFFFFFFFFFFFFFFFFFFFFFFFFFFFFFFFFFFFFFFFFFFFFF DUP5 DUP5 PUSH2 0xF84 JUMP JUMPDEST SWAP1 POP SWAP3 SWAP2 POP POP JUMP JUMPDEST PUSH0 PUSH2 0x10BE DUP3 PUSH2 0x1055 JUMP JUMPDEST SWAP2 POP PUSH2 0x10C9 DUP4 PUSH2 0x1055 JUMP JUMPDEST SWAP3 POP DUP3 DUP3 MUL PUSH2 0x10D7 DUP2 PUSH2 0x1055 JUMP JUMPDEST SWAP2 POP DUP3 DUP3 DIV DUP5 EQ DUP4 ISZERO OR PUSH2 0x10EE JUMPI PUSH2 0x10ED PUSH2 0xEF9 JUMP JUMPDEST JUMPDEST POP SWAP3 SWAP2 POP POP JUMP JUMPDEST PUSH32 0x4E487B7100000000000000000000000000000000000000000000000000000000 PUSH0 MSTORE PUSH1 0x12 PUSH1 0x4 MSTORE PUSH1 0x24 PUSH0 REVERT JUMPDEST PUSH0 PUSH2 0x112C DUP3 PUSH2 0x1055 JUMP JUMPDEST SWAP2 POP PUSH2 0x1137 DUP4 PUSH2 0x1055 JUMP JUMPDEST SWAP3 POP DUP3 PUSH2 0x1147 JUMPI PUSH2 0x1146 PUSH2 0x10F5 JUMP JUMPDEST JUMPDEST DUP3 DUP3 MOD SWAP1 POP SWAP3 SWAP2 POP POP JUMP JUMPDEST PUSH0 PUSH2 0x115C DUP3 PUSH2 0x1055 JUMP JUMPDEST SWAP2 POP PUSH2 0x1167 DUP4 PUSH2 0x1055 JUMP JUMPDEST SWAP3 POP DUP3 DUP3 SUB SWAP1 POP DUP2 DUP2 GT ISZERO PUSH2 0x117F JUMPI PUSH2 0x117E PUSH2 0xEF9 JUMP JUMPDEST JUMPDEST SWAP3 SWAP2 POP POP JUMP JUMPDEST PUSH0 PUSH0 REVERT JUMPDEST PUSH0 PUSH20 0xFFFFFFFFFFFFFFFFFFFFFFFFFFFFFFFFFFFFFFFF DUP3 AND SWAP1 POP SWAP2 SWAP1 POP JUMP JUMPDEST PUSH0 PUSH2 0x11B2 DUP3 PUSH2 0x1189 JUMP JUMPDEST SWAP1 POP SWAP2 SWAP1 POP JUMP JUMPDEST PUSH2 0x11C2 DUP2 PUSH2 0x11A8 JUMP JUMPDEST DUP2 EQ PUSH2 0x11CC JUMPI PUSH0 PUSH0 REVERT JUMPDEST POP JUMP JUMPDEST PUSH0 DUP2 MLOAD SWAP1 POP PUSH2 0x11DD DUP2 PUSH2 0x11B9 JUMP JUMPDEST SWAP3 SWAP2 POP POP JUMP JUMPDEST PUSH0 PUSH1 0x20 DUP3 DUP5 SUB SLT ISZERO PUSH2 0x11F8 JUMPI PUSH2 0x11F7 PUSH2 0x1185 JUMP JUMPDEST JUMPDEST PUSH0 PUSH2 0x1205 DUP5 DUP3 DUP6 ADD PUSH2 0x11CF JUMP JUMPDEST SWAP2 POP POP SWAP3 SWAP2 POP POP JUMP JUMPDEST PUSH2 0x1217 DUP2 PUSH2 0x11A8 JUMP JUMPDEST DUP3 MSTORE POP POP JUMP JUMPDEST PUSH0 PUSH1 0x40 DUP3 ADD SWAP1 POP PUSH2 0x1230 PUSH0 DUP4 ADD DUP6 PUSH2 0x120E JUMP JUMPDEST PUSH2 0x123D PUSH1 0x20 DUP4 ADD DUP5 PUSH2 0x120E JUMP JUMPDEST SWAP4 SWAP3 POP POP POP JUMP JUMPDEST PUSH2 0x124D DUP2 PUSH2 0x1055 JUMP JUMPDEST DUP3 MSTORE POP POP JUMP JUMPDEST PUSH0 PUSH1 0x20 DUP3 ADD SWAP1 POP PUSH2 0x1266 PUSH0 DUP4 ADD DUP5 PUSH2 0x1244 JUMP JUMPDEST SWAP3 SWAP2 POP POP JUMP JUMPDEST PUSH0 DUP3 DUP3 MSTORE PUSH1 0x20 DUP3 ADD SWAP1 POP SWAP3 SWAP2 POP POP JUMP JUMPDEST PUSH32 0x4F776E61626C653A2063616C6C6572206973206E6F7420746865206F776E6572 PUSH0 DUP3 ADD MSTORE POP JUMP JUMPDEST PUSH0 PUSH2 0x12B0 PUSH1 0x20 DUP4 PUSH2 0x126C JUMP JUMPDEST SWAP2 POP PUSH2 0x12BB DUP3 PUSH2 0x127C JUMP JUMPDEST PUSH1 0x20 DUP3 ADD SWAP1 POP SWAP2 SWAP1 POP JUMP JUMPDEST PUSH0 PUSH1 0x20 DUP3 ADD SWAP1 POP DUP2 DUP2 SUB PUSH0 DUP4 ADD MSTORE PUSH2 0x12DD DUP2 PUSH2 0x12A4 JUMP JUMPDEST SWAP1 POP SWAP2 SWAP1 POP JUMP JUMPDEST PUSH32 0x4163636F756E7420697320616C7265616479206578636C756465640000000000 PUSH0 DUP3 ADD MSTORE POP JUMP JUMPDEST PUSH0 PUSH2 0x1318 PUSH1 0x1B DUP4 PUSH2 0x126C JUMP JUMPDEST SWAP2 POP PUSH2 0x1323 DUP3 PUSH2 0x12E4 JUMP JUMPDEST PUSH1 0x20 DUP3 ADD SWAP1 POP SWAP2 SWAP1 POP JUMP JUMPDEST PUSH0 PUSH1 0x20 DUP3 ADD SWAP1 POP DUP2 DUP2 SUB PUSH0 DUP4 ADD MSTORE PUSH2 0x1345 DUP2 PUSH2 0x130C JUMP JUMPDEST SWAP1 POP SWAP2 SWAP1 POP JUMP JUMPDEST PUSH32 0x416D6F756E74206D757374206265206C657373207468616E20746F74616C2072 PUSH0 DUP3 ADD MSTORE PUSH32 0x65666C656374696F6E7300000000000000000000000000000000000000000000 PUSH1 0x20 DUP3 ADD MSTORE POP JUMP JUMPDEST PUSH0 PUSH2 0x13A6 PUSH1 0x2A DUP4 PUSH2 0x126C JUMP JUMPDEST SWAP2 POP PUSH2 0x13B1 DUP3 PUSH2 0x134C JUMP JUMPDEST PUSH1 0x40 DUP3 ADD SWAP1 POP SWAP2 SWAP1 POP JUMP JUMPDEST PUSH0 PUSH1 0x20 DUP3 ADD SWAP1 POP DUP2 DUP2 SUB PUSH0 DUP4 ADD MSTORE PUSH2 0x13D3 DUP2 PUSH2 0x139A JUMP JUMPDEST SWAP1 POP SWAP2 SWAP1 POP JUMP JUMPDEST PUSH0 PUSH2 0x13E4 DUP3 PUSH2 0x1055 JUMP JUMPDEST SWAP2 POP PUSH2 0x13EF DUP4 PUSH2 0x1055 JUMP JUMPDEST SWAP3 POP DUP3 PUSH2 0x13FF JUMPI PUSH2 0x13FE PUSH2 0x10F5 JUMP JUMPDEST JUMPDEST DUP3 DUP3 DIV SWAP1 POP SWAP3 SWAP2 POP POP JUMP JUMPDEST PUSH32 0x4E487B7100000000000000000000000000000000000000000000000000000000 PUSH0 MSTORE PUSH1 0x32 PUSH1 0x4 MSTORE PUSH1 0x24 PUSH0 REVERT JUMPDEST PUSH2 0x63C7 DUP1 PUSH2 0x1444 PUSH0 CODECOPY PUSH0 RETURN INVALID PUSH1 0x80 PUSH1 0x40 MSTORE PUSH1 0x4 CALLDATASIZE LT PUSH2 0x302 JUMPI PUSH0 CALLDATALOAD PUSH1 0xE0 SHR DUP1 PUSH4 0x8C0B5E22 GT PUSH2 0x18F JUMPI DUP1 PUSH4 0xBFF78169 GT PUSH2 0xDB JUMPI DUP1 PUSH4 0xE2F45605 GT PUSH2 0x94 JUMPI DUP1 PUSH4 0xF2FDE38B GT PUSH2 0x6E JUMPI DUP1 PUSH4 0xF2FDE38B EQ PUSH2 0xBAD JUMPI DUP1 PUSH4 0xF887EA40 EQ PUSH2 0xBD5 JUMPI DUP1 PUSH4 0xF965AA1D EQ PUSH2 0xBFF JUMPI DUP1 PUSH4 0xFC170441 EQ PUSH2 0xC27 JUMPI PUSH2 0x309 JUMP JUMPDEST DUP1 PUSH4 0xE2F45605 EQ PUSH2 0xB31 JUMPI DUP1 PUSH4 0xEA2F0B37 EQ PUSH2 0xB5B JUMPI DUP1 PUSH4 0xEE36E359 EQ PUSH2 0xB83 JUMPI PUSH2 0x309 JUMP JUMPDEST DUP1 PUSH4 0xBFF78169 EQ PUSH2 0xA2B JUMPI DUP1 PUSH4 0xD257B34F EQ PUSH2 0xA53 JUMPI DUP1 PUSH4 0xD2CE0DB2 EQ PUSH2 0xA7B JUMPI DUP1 PUSH4 0xD5CCB8EE EQ PUSH2 0xAA5 JUMPI DUP1 PUSH4 0xDD62ED3E EQ PUSH2 0xACD JUMPI DUP1 PUSH4 0xE1165545 EQ PUSH2 0xB09 JUMPI PUSH2 0x309 JUMP JUMPDEST DUP1 PUSH4 0xA457C2D7 GT PUSH2 0x148 JUMPI DUP1 PUSH4 0xA8AA1B31 GT PUSH2 0x122 JUMPI DUP1 PUSH4 0xA8AA1B31 EQ PUSH2 0x973 JUMPI DUP1 PUSH4 0xA9059CBB EQ PUSH2 0x99D JUMPI DUP1 PUSH4 0xAFCF2FC4 EQ PUSH2 0x9D9 JUMPI DUP1 PUSH4 0xB31470A4 EQ PUSH2 0xA03 JUMPI PUSH2 0x309 JUMP JUMPDEST DUP1 PUSH4 0xA457C2D7 EQ PUSH2 0x8D1 JUMPI DUP1 PUSH4 0xA5ECE941 EQ PUSH2 0x90D JUMPI DUP1 PUSH4 0xA87859F6 EQ PUSH2 0x937 JUMPI PUSH2 0x309 JUMP JUMPDEST DUP1 PUSH4 0x8C0B5E22 EQ PUSH2 0x7D4 JUMPI DUP1 PUSH4 0x8DA5CB5B EQ PUSH2 0x7FE JUMPI DUP1 PUSH4 0x924DE9B7 EQ PUSH2 0x828 JUMPI DUP1 PUSH4 0x95D89B41 EQ PUSH2 0x850 JUMPI DUP1 PUSH4 0x9BA5E4D5 EQ PUSH2 0x87A JUMPI DUP1 PUSH4 0x9E252F00 EQ PUSH2 0x8A9 JUMPI PUSH2 0x309 JUMP JUMPDEST DUP1 PUSH4 0x40B28C2F GT PUSH2 0x24E JUMPI DUP1 PUSH4 0x5342ACB4 GT PUSH2 0x207 JUMPI DUP1 PUSH4 0x715018A6 GT PUSH2 0x1E1 JUMPI DUP1 PUSH4 0x715018A6 EQ PUSH2 0x72B JUMPI DUP1 PUSH4 0x728F8EEA EQ PUSH2 0x741 JUMPI DUP1 PUSH4 0x88F82020 EQ PUSH2 0x770 JUMPI DUP1 PUSH4 0x8C0AE3DF EQ PUSH2 0x7AC JUMPI PUSH2 0x309 JUMP JUMPDEST DUP1 PUSH4 0x5342ACB4 EQ PUSH2 0x689 JUMPI DUP1 PUSH4 0x6DDD1713 EQ PUSH2 0x6C5 JUMPI DUP1 PUSH4 0x70A08231 EQ PUSH2 0x6EF JUMPI PUSH2 0x309 JUMP JUMPDEST DUP1 PUSH4 0x40B28C2F EQ PUSH2 0x583 JUMPI DUP1 PUSH4 0x437823EC EQ PUSH2 0x5AB JUMPI DUP1 PUSH4 0x4549B039 EQ PUSH2 0x5D3 JUMPI DUP1 PUSH4 0x49244CB0 EQ PUSH2 0x60F JUMPI DUP1 PUSH4 0x4ADA218B EQ PUSH2 0x637 JUMPI DUP1 PUSH4 0x52390C02 EQ PUSH2 0x661 JUMPI PUSH2 0x309 JUMP JUMPDEST DUP1 PUSH4 0x27C8F835 GT PUSH2 0x2BB JUMPI DUP1 PUSH4 0x3685D419 GT PUSH2 0x295 JUMPI DUP1 PUSH4 0x3685D419 EQ PUSH2 0x4B9 JUMPI DUP1 PUSH4 0x39509351 EQ PUSH2 0x4E1 JUMPI DUP1 PUSH4 0x3AD10EF6 EQ PUSH2 0x51D JUMPI DUP1 PUSH4 0x3BBAC579 EQ PUSH2 0x547 JUMPI PUSH2 0x309 JUMP JUMPDEST DUP1 PUSH4 0x27C8F835 EQ PUSH2 0x429 JUMPI DUP1 PUSH4 0x2D838119 EQ PUSH2 0x453 JUMPI DUP1 PUSH4 0x313CE567 EQ PUSH2 0x48F JUMPI PUSH2 0x309 JUMP JUMPDEST DUP1 PUSH4 0x4D4C990 EQ PUSH2 0x30D JUMPI DUP1 PUSH4 0x6FDDE03 EQ PUSH2 0x335 JUMPI DUP1 PUSH4 0x95EA7B3 EQ PUSH2 0x35F JUMPI DUP1 PUSH4 0xD65DF9B EQ PUSH2 0x39B JUMPI DUP1 PUSH4 0x18160DDD EQ PUSH2 0x3C3 JUMPI DUP1 PUSH4 0x23B872DD EQ PUSH2 0x3ED JUMPI PUSH2 0x309 JUMP JUMPDEST CALLDATASIZE PUSH2 0x309 JUMPI STOP JUMPDEST PUSH0 PUSH0 REVERT JUMPDEST CALLVALUE DUP1 ISZERO PUSH2 0x318 JUMPI PUSH0 PUSH0 REVERT JUMPDEST POP PUSH2 0x333 PUSH1 0x4 DUP1 CALLDATASIZE SUB DUP2 ADD SWAP1 PUSH2 0x32E SWAP2 SWAP1 PUSH2 0x4D11 JUMP JUMPDEST PUSH2 0xC4F JUMP JUMPDEST STOP JUMPDEST CALLVALUE DUP1 ISZERO PUSH2 0x340 JUMPI PUSH0 PUSH0 REVERT JUMPDEST POP PUSH2 0x349 PUSH2 0xD3A JUMP JUMPDEST PUSH1 0x40 MLOAD PUSH2 0x356 SWAP2 SWAP1 PUSH2 0x4E0A JUMP JUMPDEST PUSH1 0x40 MLOAD DUP1 SWAP2 SUB SWAP1 RETURN JUMPDEST CALLVALUE DUP1 ISZERO PUSH2 0x36A JUMPI PUSH0 PUSH0 REVERT JUMPDEST POP PUSH2 0x385 PUSH1 0x4 DUP1 CALLDATASIZE SUB DUP2 ADD SWAP1 PUSH2 0x380 SWAP2 SWAP1 PUSH2 0x4E84 JUMP JUMPDEST PUSH2 0xD77 JUMP JUMPDEST PUSH1 0x40 MLOAD PUSH2 0x392 SWAP2 SWAP1 PUSH2 0x4EDC JUMP JUMPDEST PUSH1 0x40 MLOAD DUP1 SWAP2 SUB SWAP1 RETURN JUMPDEST CALLVALUE DUP1 ISZERO PUSH2 0x3A6 JUMPI PUSH0 PUSH0 REVERT JUMPDEST POP PUSH2 0x3C1 PUSH1 0x4 DUP1 CALLDATASIZE SUB DUP2 ADD SWAP1 PUSH2 0x3BC SWAP2 SWAP1 PUSH2 0x4EF5 JUMP JUMPDEST PUSH2 0xD94 JUMP JUMPDEST STOP JUMPDEST CALLVALUE DUP1 ISZERO PUSH2 0x3CE JUMPI PUSH0 PUSH0 REVERT JUMPDEST POP PUSH2 0x3D7 PUSH2 0xE91 JUMP JUMPDEST PUSH1 0x40 MLOAD PUSH2 0x3E4 SWAP2 SWAP1 PUSH2 0x4F54 JUMP JUMPDEST PUSH1 0x40 MLOAD DUP1 SWAP2 SUB SWAP1 RETURN JUMPDEST CALLVALUE DUP1 ISZERO PUSH2 0x3F8 JUMPI PUSH0 PUSH0 REVERT JUMPDEST POP PUSH2 0x413 PUSH1 0x4 DUP1 CALLDATASIZE SUB DUP2 ADD SWAP1 PUSH2 0x40E SWAP2 SWAP1 PUSH2 0x4EF5 JUMP JUMPDEST PUSH2 0xE9A JUMP JUMPDEST PUSH1 0x40 MLOAD PUSH2 0x420 SWAP2 SWAP1 PUSH2 0x4EDC JUMP JUMPDEST PUSH1 0x40 MLOAD DUP1 SWAP2 SUB SWAP1 RETURN JUMPDEST CALLVALUE DUP1 ISZERO PUSH2 0x434 JUMPI PUSH0 PUSH0 REVERT JUMPDEST POP PUSH2 0x43D PUSH2 0xF95 JUMP JUMPDEST PUSH1 0x40 MLOAD PUSH2 0x44A SWAP2 SWAP1 PUSH2 0x4F7C JUMP JUMPDEST PUSH1 0x40 MLOAD DUP1 SWAP2 SUB SWAP1 RETURN JUMPDEST CALLVALUE DUP1 ISZERO PUSH2 0x45E JUMPI PUSH0 PUSH0 REVERT JUMPDEST POP PUSH2 0x479 PUSH1 0x4 DUP1 CALLDATASIZE SUB DUP2 ADD SWAP1 PUSH2 0x474 SWAP2 SWAP1 PUSH2 0x4F95 JUMP JUMPDEST PUSH2 0xF9B JUMP JUMPDEST PUSH1 0x40 MLOAD PUSH2 0x486 SWAP2 SWAP1 PUSH2 0x4F54 JUMP JUMPDEST PUSH1 0x40 MLOAD DUP1 SWAP2 SUB SWAP1 RETURN JUMPDEST CALLVALUE DUP1 ISZERO PUSH2 0x49A JUMPI PUSH0 PUSH0 REVERT JUMPDEST POP PUSH2 0x4A3 PUSH2 0x1000 JUMP JUMPDEST PUSH1 0x40 MLOAD PUSH2 0x4B0 SWAP2 SWAP1 PUSH2 0x4FDB JUMP JUMPDEST PUSH1 0x40 MLOAD DUP1 SWAP2 SUB SWAP1 RETURN JUMPDEST CALLVALUE DUP1 ISZERO PUSH2 0x4C4 JUMPI PUSH0 PUSH0 REVERT JUMPDEST POP PUSH2 0x4DF PUSH1 0x4 DUP1 CALLDATASIZE SUB DUP2 ADD SWAP1 PUSH2 0x4DA SWAP2 SWAP1 PUSH2 0x4FF4 JUMP JUMPDEST PUSH2 0x1008 JUMP JUMPDEST STOP JUMPDEST CALLVALUE DUP1 ISZERO PUSH2 0x4EC JUMPI PUSH0 PUSH0 REVERT JUMPDEST POP PUSH2 0x507 PUSH1 0x4 DUP1 CALLDATASIZE SUB DUP2 ADD SWAP1 PUSH2 0x502 SWAP2 SWAP1 PUSH2 0x4E84 JUMP JUMPDEST PUSH2 0x1323 JUMP JUMPDEST PUSH1 0x40 MLOAD PUSH2 0x514 SWAP2 SWAP1 PUSH2 0x4EDC JUMP JUMPDEST PUSH1 0x40 MLOAD DUP1 SWAP2 SUB SWAP1 RETURN JUMPDEST CALLVALUE DUP1 ISZERO PUSH2 0x528 JUMPI PUSH0 PUSH0 REVERT JUMPDEST POP PUSH2 0x531 PUSH2 0x13CA JUMP JUMPDEST PUSH1 0x40 MLOAD PUSH2 0x53E SWAP2 SWAP1 PUSH2 0x4F7C JUMP JUMPDEST PUSH1 0x40 MLOAD DUP1 SWAP2 SUB SWAP1 RETURN JUMPDEST CALLVALUE DUP1 ISZERO PUSH2 0x552 JUMPI PUSH0 PUSH0 REVERT JUMPDEST POP PUSH2 0x56D PUSH1 0x4 DUP1 CALLDATASIZE SUB DUP2 ADD SWAP1 PUSH2 0x568 SWAP2 SWAP1 PUSH2 0x4FF4 JUMP JUMPDEST PUSH2 0x13EF JUMP JUMPDEST PUSH1 0x40 MLOAD PUSH2 0x57A SWAP2 SWAP1 PUSH2 0x4EDC JUMP JUMPDEST PUSH1 0x40 MLOAD DUP1 SWAP2 SUB SWAP1 RETURN JUMPDEST CALLVALUE DUP1 ISZERO PUSH2 0x58E JUMPI PUSH0 PUSH0 REVERT JUMPDEST POP PUSH2 0x5A9 PUSH1 0x4 DUP1 CALLDATASIZE SUB DUP2 ADD SWAP1 PUSH2 0x5A4 SWAP2 SWAP1 PUSH2 0x501F JUMP JUMPDEST PUSH2 0x1441 JUMP JUMPDEST STOP JUMPDEST CALLVALUE DUP1 ISZERO PUSH2 0x5B6 JUMPI PUSH0 PUSH0 REVERT JUMPDEST POP PUSH2 0x5D1 PUSH1 0x4 DUP1 CALLDATASIZE SUB DUP2 ADD SWAP1 PUSH2 0x5CC SWAP2 SWAP1 PUSH2 0x4FF4 JUMP JUMPDEST PUSH2 0x1542 JUMP JUMPDEST STOP JUMPDEST CALLVALUE DUP1 ISZERO PUSH2 0x5DE JUMPI PUSH0 PUSH0 REVERT JUMPDEST POP PUSH2 0x5F9 PUSH1 0x4 DUP1 CALLDATASIZE SUB DUP2 ADD SWAP1 PUSH2 0x5F4 SWAP2 SWAP1 PUSH2 0x5087 JUMP JUMPDEST PUSH2 0x1616 JUMP JUMPDEST PUSH1 0x40 MLOAD PUSH2 0x606 SWAP2 SWAP1 PUSH2 0x4F54 JUMP JUMPDEST PUSH1 0x40 MLOAD DUP1 SWAP2 SUB SWAP1 RETURN JUMPDEST CALLVALUE DUP1 ISZERO PUSH2 0x61A JUMPI PUSH0 PUSH0 REVERT JUMPDEST POP PUSH2 0x635 PUSH1 0x4 DUP1 CALLDATASIZE SUB DUP2 ADD SWAP1 PUSH2 0x630 SWAP2 SWAP1 PUSH2 0x4FF4 JUMP JUMPDEST PUSH2 0x1698 JUMP JUMPDEST STOP JUMPDEST CALLVALUE DUP1 ISZERO PUSH2 0x642 JUMPI PUSH0 PUSH0 REVERT JUMPDEST POP PUSH2 0x64B PUSH2 0x184F JUMP JUMPDEST PUSH1 0x40 MLOAD PUSH2 0x658 SWAP2 SWAP1 PUSH2 0x4EDC JUMP JUMPDEST PUSH1 0x40 MLOAD DUP1 SWAP2 SUB SWAP1 RETURN JUMPDEST CALLVALUE DUP1 ISZERO PUSH2 0x66C JUMPI PUSH0 PUSH0 REVERT JUMPDEST POP PUSH2 0x687 PUSH1 0x4 DUP1 CALLDATASIZE SUB DUP2 ADD SWAP1 PUSH2 0x682 SWAP2 SWAP1 PUSH2 0x4FF4 JUMP JUMPDEST PUSH2 0x1864 JUMP JUMPDEST STOP JUMPDEST CALLVALUE DUP1 ISZERO PUSH2 0x694 JUMPI PUSH0 PUSH0 REVERT JUMPDEST POP PUSH2 0x6AF PUSH1 0x4 DUP1 CALLDATASIZE SUB DUP2 ADD SWAP1 PUSH2 0x6AA SWAP2 SWAP1 PUSH2 0x4FF4 JUMP JUMPDEST PUSH2 0x1AEF JUMP JUMPDEST PUSH1 0x40 MLOAD PUSH2 0x6BC SWAP2 SWAP1 PUSH2 0x4EDC JUMP JUMPDEST PUSH1 0x40 MLOAD DUP1 SWAP2 SUB SWAP1 RETURN JUMPDEST CALLVALUE DUP1 ISZERO PUSH2 0x6D0 JUMPI PUSH0 PUSH0 REVERT JUMPDEST POP PUSH2 0x6D9 PUSH2 0x1B41 JUMP JUMPDEST PUSH1 0x40 MLOAD PUSH2 0x6E6 SWAP2 SWAP1 PUSH2 0x4EDC JUMP JUMPDEST PUSH1 0x40 MLOAD DUP1 SWAP2 SUB SWAP1 RETURN JUMPDEST CALLVALUE DUP1 ISZERO PUSH2 0x6FA JUMPI PUSH0 PUSH0 REVERT JUMPDEST POP PUSH2 0x715 PUSH1 0x4 DUP1 CALLDATASIZE SUB DUP2 ADD SWAP1 PUSH2 0x710 SWAP2 SWAP1 PUSH2 0x4FF4 JUMP JUMPDEST PUSH2 0x1B53 JUMP JUMPDEST PUSH1 0x40 MLOAD PUSH2 0x722 SWAP2 SWAP1 PUSH2 0x4F54 JUMP JUMPDEST PUSH1 0x40 MLOAD DUP1 SWAP2 SUB SWAP1 RETURN JUMPDEST CALLVALUE DUP1 ISZERO PUSH2 0x736 JUMPI PUSH0 PUSH0 REVERT JUMPDEST POP PUSH2 0x73F PUSH2 0x1C36 JUMP JUMPDEST STOP JUMPDEST CALLVALUE DUP1 ISZERO PUSH2 0x74C JUMPI PUSH0 PUSH0 REVERT JUMPDEST POP PUSH2 0x755 PUSH2 0x1CBD JUMP JUMPDEST PUSH1 0x40 MLOAD PUSH2 0x767 SWAP7 SWAP6 SWAP5 SWAP4 SWAP3 SWAP2 SWAP1 PUSH2 0x50C5 JUMP JUMPDEST PUSH1 0x40 MLOAD DUP1 SWAP2 SUB SWAP1 RETURN JUMPDEST CALLVALUE DUP1 ISZERO PUSH2 0x77B JUMPI PUSH0 PUSH0 REVERT JUMPDEST POP PUSH2 0x796 PUSH1 0x4 DUP1 CALLDATASIZE SUB DUP2 ADD SWAP1 PUSH2 0x791 SWAP2 SWAP1 PUSH2 0x4FF4 JUMP JUMPDEST PUSH2 0x1CE6 JUMP JUMPDEST PUSH1 0x40 MLOAD PUSH2 0x7A3 SWAP2 SWAP1 PUSH2 0x4EDC JUMP JUMPDEST PUSH1 0x40 MLOAD DUP1 SWAP2 SUB SWAP1 RETURN JUMPDEST CALLVALUE DUP1 ISZERO PUSH2 0x7B7 JUMPI PUSH0 PUSH0 REVERT JUMPDEST POP PUSH2 0x7D2 PUSH1 0x4 DUP1 CALLDATASIZE SUB DUP2 ADD SWAP1 PUSH2 0x7CD SWAP2 SWAP1 PUSH2 0x5124 JUMP JUMPDEST PUSH2 0x1D38 JUMP JUMPDEST STOP JUMPDEST CALLVALUE DUP1 ISZERO PUSH2 0x7DF JUMPI PUSH0 PUSH0 REVERT JUMPDEST POP PUSH2 0x7E8 PUSH2 0x1DE4 JUMP JUMPDEST PUSH1 0x40 MLOAD PUSH2 0x7F5 SWAP2 SWAP1 PUSH2 0x4F54 JUMP JUMPDEST PUSH1 0x40 MLOAD DUP1 SWAP2 SUB SWAP1 RETURN JUMPDEST CALLVALUE DUP1 ISZERO PUSH2 0x809 JUMPI PUSH0 PUSH0 REVERT JUMPDEST POP PUSH2 0x812 PUSH2 0x1DEA JUMP JUMPDEST PUSH1 0x40 MLOAD PUSH2 0x81F SWAP2 SWAP1 PUSH2 0x4F7C JUMP JUMPDEST PUSH1 0x40 MLOAD DUP1 SWAP2 SUB SWAP1 RETURN JUMPDEST CALLVALUE DUP1 ISZERO PUSH2 0x833 JUMPI PUSH0 PUSH0 REVERT JUMPDEST POP PUSH2 0x84E PUSH1 0x4 DUP1 CALLDATASIZE SUB DUP2 ADD SWAP1 PUSH2 0x849 SWAP2 SWAP1 PUSH2 0x5162 JUMP JUMPDEST PUSH2 0x1E11 JUMP JUMPDEST STOP JUMPDEST CALLVALUE DUP1 ISZERO PUSH2 0x85B JUMPI PUSH0 PUSH0 REVERT JUMPDEST POP PUSH2 0x864 PUSH2 0x1EA9 JUMP JUMPDEST PUSH1 0x40 MLOAD PUSH2 0x871 SWAP2 SWAP1 PUSH2 0x4E0A JUMP JUMPDEST PUSH1 0x40 MLOAD DUP1 SWAP2 SUB SWAP1 RETURN JUMPDEST CALLVALUE DUP1 ISZERO PUSH2 0x885 JUMPI PUSH0 PUSH0 REVERT JUMPDEST POP PUSH2 0x88E PUSH2 0x1EE6 JUMP JUMPDEST PUSH1 0x40 MLOAD PUSH2 0x8A0 SWAP7 SWAP6 SWAP5 SWAP4 SWAP3 SWAP2 SWAP1 PUSH2 0x50C5 JUMP JUMPDEST PUSH1 0x40 MLOAD DUP1 SWAP2 SUB SWAP1 RETURN JUMPDEST CALLVALUE DUP1 ISZERO PUSH2 0x8B4 JUMPI PUSH0 PUSH0 REVERT JUMPDEST POP PUSH2 0x8CF PUSH1 0x4 DUP1 CALLDATASIZE SUB DUP2 ADD SWAP1 PUSH2 0x8CA SWAP2 SWAP1 PUSH2 0x4F95 JUMP JUMPDEST PUSH2 0x1F0F JUMP JUMPDEST STOP JUMPDEST CALLVALUE DUP1 ISZERO PUSH2 0x8DC JUMPI PUSH0 PUSH0 REVERT JUMPDEST POP PUSH2 0x8F7 PUSH1 0x4 DUP1 CALLDATASIZE SUB DUP2 ADD SWAP1 PUSH2 0x8F2 SWAP2 SWAP1 PUSH2 0x4E84 JUMP JUMPDEST PUSH2 0x2015 JUMP JUMPDEST PUSH1 0x40 MLOAD PUSH2 0x904 SWAP2 SWAP1 PUSH2 0x4EDC JUMP JUMPDEST PUSH1 0x40 MLOAD DUP1 SWAP2 SUB SWAP1 RETURN JUMPDEST CALLVALUE DUP1 ISZERO PUSH2 0x918 JUMPI PUSH0 PUSH0 REVERT JUMPDEST POP PUSH2 0x921 PUSH2 0x2104 JUMP JUMPDEST PUSH1 0x40 MLOAD PUSH2 0x92E SWAP2 SWAP1 PUSH2 0x4F7C JUMP JUMPDEST PUSH1 0x40 MLOAD DUP1 SWAP2 SUB SWAP1 RETURN JUMPDEST CALLVALUE DUP1 ISZERO PUSH2 0x942 JUMPI PUSH0 PUSH0 REVERT JUMPDEST POP PUSH2 0x95D PUSH1 0x4 DUP1 CALLDATASIZE SUB DUP2 ADD SWAP1 PUSH2 0x958 SWAP2 SWAP1 PUSH2 0x4FF4 JUMP JUMPDEST PUSH2 0x2129 JUMP JUMPDEST PUSH1 0x40 MLOAD PUSH2 0x96A SWAP2 SWAP1 PUSH2 0x4F54 JUMP JUMPDEST PUSH1 0x40 MLOAD DUP1 SWAP2 SUB SWAP1 RETURN JUMPDEST CALLVALUE DUP1 ISZERO PUSH2 0x97E JUMPI PUSH0 PUSH0 REVERT JUMPDEST POP PUSH2 0x987 PUSH2 0x213E JUMP JUMPDEST PUSH1 0x40 MLOAD PUSH2 0x994 SWAP2 SWAP1 PUSH2 0x4F7C JUMP JUMPDEST PUSH1 0x40 MLOAD DUP1 SWAP2 SUB SWAP1 RETURN JUMPDEST CALLVALUE DUP1 ISZERO PUSH2 0x9A8 JUMPI PUSH0 PUSH0 REVERT JUMPDEST POP PUSH2 0x9C3 PUSH1 0x4 DUP1 CALLDATASIZE SUB DUP2 ADD SWAP1 PUSH2 0x9BE SWAP2 SWAP1 PUSH2 0x4E84 JUMP JUMPDEST PUSH2 0x2163 JUMP JUMPDEST PUSH1 0x40 MLOAD PUSH2 0x9D0 SWAP2 SWAP1 PUSH2 0x4EDC JUMP JUMPDEST PUSH1 0x40 MLOAD DUP1 SWAP2 SUB SWAP1 RETURN JUMPDEST CALLVALUE DUP1 ISZERO PUSH2 0x9E4 JUMPI PUSH0 PUSH0 REVERT JUMPDEST POP PUSH2 0x9ED PUSH2 0x21D5 JUMP JUMPDEST PUSH1 0x40 MLOAD PUSH2 0x9FA SWAP2 SWAP1 PUSH2 0x4F7C JUMP JUMPDEST PUSH1 0x40 MLOAD DUP1 SWAP2 SUB SWAP1 RETURN JUMPDEST CALLVALUE DUP1 ISZERO PUSH2 0xA0E JUMPI PUSH0 PUSH0 REVERT JUMPDEST POP PUSH2 0xA29 PUSH1 0x4 DUP1 CALLDATASIZE SUB DUP2 ADD SWAP1 PUSH2 0xA24 SWAP2 SWAP1 PUSH2 0x52CD JUMP JUMPDEST PUSH2 0x21FA JUMP JUMPDEST STOP JUMPDEST CALLVALUE DUP1 ISZERO PUSH2 0xA36 JUMPI PUSH0 PUSH0 REVERT JUMPDEST POP PUSH2 0xA51 PUSH1 0x4 DUP1 CALLDATASIZE SUB DUP2 ADD SWAP1 PUSH2 0xA4C SWAP2 SWAP1 PUSH2 0x4FF4 JUMP JUMPDEST PUSH2 0x2304 JUMP JUMPDEST STOP JUMPDEST CALLVALUE DUP1 ISZERO PUSH2 0xA5E JUMPI PUSH0 PUSH0 REVERT JUMPDEST POP PUSH2 0xA79 PUSH1 0x4 DUP1 CALLDATASIZE SUB DUP2 ADD SWAP1 PUSH2 0xA74 SWAP2 SWAP1 PUSH2 0x4F95 JUMP JUMPDEST PUSH2 0x24BB JUMP JUMPDEST STOP JUMPDEST CALLVALUE DUP1 ISZERO PUSH2 0xA86 JUMPI PUSH0 PUSH0 REVERT JUMPDEST POP PUSH2 0xA8F PUSH2 0x2559 JUMP JUMPDEST PUSH1 0x40 MLOAD PUSH2 0xA9C SWAP2 SWAP1 PUSH2 0x4F54 JUMP JUMPDEST PUSH1 0x40 MLOAD DUP1 SWAP2 SUB SWAP1 RETURN JUMPDEST CALLVALUE DUP1 ISZERO PUSH2 0xAB0 JUMPI PUSH0 PUSH0 REVERT JUMPDEST POP PUSH2 0xACB PUSH1 0x4 DUP1 CALLDATASIZE SUB DUP2 ADD SWAP1 PUSH2 0xAC6 SWAP2 SWAP1 PUSH2 0x5162 JUMP JUMPDEST PUSH2 0x255F JUMP JUMPDEST STOP JUMPDEST CALLVALUE DUP1 ISZERO PUSH2 0xAD8 JUMPI PUSH0 PUSH0 REVERT JUMPDEST POP PUSH2 0xAF3 PUSH1 0x4 DUP1 CALLDATASIZE SUB DUP2 ADD SWAP1 PUSH2 0xAEE SWAP2 SWAP1 PUSH2 0x501F JUMP JUMPDEST PUSH2 0x25F7 JUMP JUMPDEST PUSH1 0x40 MLOAD PUSH2 0xB00 SWAP2 SWAP1 PUSH2 0x4F54 JUMP JUMPDEST PUSH1 0x40 MLOAD DUP1 SWAP2 SUB SWAP1 RETURN JUMPDEST CALLVALUE DUP1 ISZERO PUSH2 0xB14 JUMPI PUSH0 PUSH0 REVERT JUMPDEST POP PUSH2 0xB2F PUSH1 0x4 DUP1 CALLDATASIZE SUB DUP2 ADD SWAP1 PUSH2 0xB2A SWAP2 SWAP1 PUSH2 0x5327 JUMP JUMPDEST PUSH2 0x2679 JUMP JUMPDEST STOP JUMPDEST CALLVALUE DUP1 ISZERO PUSH2 0xB3C JUMPI PUSH0 PUSH0 REVERT JUMPDEST POP PUSH2 0xB45 PUSH2 0x27DC JUMP JUMPDEST PUSH1 0x40 MLOAD PUSH2 0xB52 SWAP2 SWAP1 PUSH2 0x4F54 JUMP JUMPDEST PUSH1 0x40 MLOAD DUP1 SWAP2 SUB SWAP1 RETURN JUMPDEST CALLVALUE DUP1 ISZERO PUSH2 0xB66 JUMPI PUSH0 PUSH0 REVERT JUMPDEST POP PUSH2 0xB81 PUSH1 0x4 DUP1 CALLDATASIZE SUB DUP2 ADD SWAP1 PUSH2 0xB7C SWAP2 SWAP1 PUSH2 0x4FF4 JUMP JUMPDEST PUSH2 0x27E2 JUMP JUMPDEST STOP JUMPDEST CALLVALUE DUP1 ISZERO PUSH2 0xB8E JUMPI PUSH0 PUSH0 REVERT JUMPDEST POP PUSH2 0xB97 PUSH2 0x28B5 JUMP JUMPDEST PUSH1 0x40 MLOAD PUSH2 0xBA4 SWAP2 SWAP1 PUSH2 0x4EDC JUMP JUMPDEST PUSH1 0x40 MLOAD DUP1 SWAP2 SUB SWAP1 RETURN JUMPDEST CALLVALUE DUP1 ISZERO PUSH2 0xBB8 JUMPI PUSH0 PUSH0 REVERT JUMPDEST POP PUSH2 0xBD3 PUSH1 0x4 DUP1 CALLDATASIZE SUB DUP2 ADD SWAP1 PUSH2 0xBCE SWAP2 SWAP1 PUSH2 0x4FF4 JUMP JUMPDEST PUSH2 0x28C7 JUMP JUMPDEST STOP JUMPDEST CALLVALUE DUP1 ISZERO PUSH2 0xBE0 JUMPI PUSH0 PUSH0 REVERT JUMPDEST POP PUSH2 0xBE9 PUSH2 0x29BD JUMP JUMPDEST PUSH1 0x40 MLOAD PUSH2 0xBF6 SWAP2 SWAP1 PUSH2 0x53C0 JUMP JUMPDEST PUSH1 0x40 MLOAD DUP1 SWAP2 SUB SWAP1 RETURN JUMPDEST CALLVALUE DUP1 ISZERO PUSH2 0xC0A JUMPI PUSH0 PUSH0 REVERT JUMPDEST POP PUSH2 0xC25 PUSH1 0x4 DUP1 CALLDATASIZE SUB DUP2 ADD SWAP1 PUSH2 0xC20 SWAP2 SWAP1 PUSH2 0x4F95 JUMP JUMPDEST PUSH2 0x29E3 JUMP JUMPDEST STOP JUMPDEST CALLVALUE DUP1 ISZERO PUSH2 0xC32 JUMPI PUSH0 PUSH0 REVERT JUMPDEST POP PUSH2 0xC4D PUSH1 0x4 DUP1 CALLDATASIZE SUB DUP2 ADD SWAP1 PUSH2 0xC48 SWAP2 SWAP1 PUSH2 0x4FF4 JUMP JUMPDEST PUSH2 0x2A81 JUMP JUMPDEST STOP JUMPDEST PUSH2 0xC57 PUSH2 0x2C38 JUMP JUMPDEST PUSH20 0xFFFFFFFFFFFFFFFFFFFFFFFFFFFFFFFFFFFFFFFF AND PUSH2 0xC75 PUSH2 0x1DEA JUMP JUMPDEST PUSH20 0xFFFFFFFFFFFFFFFFFFFFFFFFFFFFFFFFFFFFFFFF AND EQ PUSH2 0xCCB JUMPI PUSH1 0x40 MLOAD PUSH32 0x8C379A000000000000000000000000000000000000000000000000000000000 DUP2 MSTORE PUSH1 0x4 ADD PUSH2 0xCC2 SWAP1 PUSH2 0x5423 JUMP JUMPDEST PUSH1 0x40 MLOAD DUP1 SWAP2 SUB SWAP1 REVERT JUMPDEST DUP6 PUSH1 0x16 PUSH0 ADD DUP2 SWAP1 SSTORE POP DUP5 PUSH1 0x16 PUSH1 0x3 ADD DUP2 SWAP1 SSTORE POP DUP4 PUSH1 0x16 PUSH1 0x4 ADD DUP2 SWAP1 SSTORE POP DUP3 PUSH1 0x16 PUSH1 0x5 ADD DUP2 SWAP1 SSTORE POP DUP2 PUSH1 0x16 PUSH1 0x2 ADD DUP2 SWAP1 SSTORE POP DUP1 PUSH1 0x16 PUSH1 0x1 ADD DUP2 SWAP1 SSTORE POP PUSH32 0x846206D6C3449AC0B05841DFB88BF28B55AEF00F96152490C69C96238048DE15 PUSH1 0x40 MLOAD PUSH1 0x40 MLOAD DUP1 SWAP2 SUB SWAP1 LOG1 POP POP POP POP POP POP JUMP JUMPDEST PUSH1 0x60 PUSH1 0x40 MLOAD DUP1 PUSH1 0x40 ADD PUSH1 0x40 MSTORE DUP1 PUSH1 0xD DUP2 MSTORE PUSH1 0x20 ADD PUSH32 0x4D65646920546F6B656E20563200000000000000000000000000000000000000 DUP2 MSTORE POP SWAP1 POP SWAP1 JUMP JUMPDEST PUSH0 PUSH2 0xD8A PUSH2 0xD83 PUSH2 0x2C38 JUMP JUMPDEST DUP5 DUP5 PUSH2 0x2C3F JUMP JUMPDEST PUSH1 0x1 SWAP1 POP SWAP3 SWAP2 POP POP JUMP JUMPDEST PUSH2 0xD9C PUSH2 0x2C38 JUMP JUMPDEST PUSH20 0xFFFFFFFFFFFFFFFFFFFFFFFFFFFFFFFFFFFFFFFF AND PUSH2 0xDBA PUSH2 0x1DEA JUMP JUMPDEST PUSH20 0xFFFFFFFFFFFFFFFFFFFFFFFFFFFFFFFFFFFFFFFF AND EQ PUSH2 0xE10 JUMPI PUSH1 0x40 MLOAD PUSH32 0x8C379A000000000000000000000000000000000000000000000000000000000 DUP2 MSTORE PUSH1 0x4 ADD PUSH2 0xE07 SWAP1 PUSH2 0x5423 JUMP JUMPDEST PUSH1 0x40 MLOAD DUP1 SWAP2 SUB SWAP1 REVERT JUMPDEST DUP3 PUSH20 0xFFFFFFFFFFFFFFFFFFFFFFFFFFFFFFFFFFFFFFFF AND PUSH4 0xA9059CBB DUP4 DUP4 PUSH1 0x40 MLOAD DUP4 PUSH4 0xFFFFFFFF AND PUSH1 0xE0 SHL DUP2 MSTORE PUSH1 0x4 ADD PUSH2 0xE4B SWAP3 SWAP2 SWAP1 PUSH2 0x5441 JUMP JUMPDEST PUSH1 0x20 PUSH1 0x40 MLOAD DUP1 DUP4 SUB DUP2 PUSH0 DUP8 GAS CALL ISZERO DUP1 ISZERO PUSH2 0xE67 JUMPI RETURNDATASIZE PUSH0 PUSH0 RETURNDATACOPY RETURNDATASIZE PUSH0 REVERT JUMPDEST POP POP POP POP PUSH1 0x40 MLOAD RETURNDATASIZE PUSH1 0x1F NOT PUSH1 0x1F DUP3 ADD AND DUP3 ADD DUP1 PUSH1 0x40 MSTORE POP DUP2 ADD SWAP1 PUSH2 0xE8B SWAP2 SWAP1 PUSH2 0x547C JUMP JUMPDEST POP POP POP POP JUMP JUMPDEST PUSH0 PUSH1 0xA SLOAD SWAP1 POP SWAP1 JUMP JUMPDEST PUSH0 PUSH2 0xEA6 DUP5 DUP5 DUP5 PUSH2 0x2E02 JUMP JUMPDEST PUSH0 PUSH1 0x3 PUSH0 DUP7 PUSH20 0xFFFFFFFFFFFFFFFFFFFFFFFFFFFFFFFFFFFFFFFF AND PUSH20 0xFFFFFFFFFFFFFFFFFFFFFFFFFFFFFFFFFFFFFFFF AND DUP2 MSTORE PUSH1 0x20 ADD SWAP1 DUP2 MSTORE PUSH1 0x20 ADD PUSH0 KECCAK256 PUSH0 PUSH2 0xEED PUSH2 0x2C38 JUMP JUMPDEST PUSH20 0xFFFFFFFFFFFFFFFFFFFFFFFFFFFFFFFFFFFFFFFF AND PUSH20 0xFFFFFFFFFFFFFFFFFFFFFFFFFFFFFFFFFFFFFFFF AND DUP2 MSTORE PUSH1 0x20 ADD SWAP1 DUP2 MSTORE PUSH1 0x20 ADD PUSH0 KECCAK256 SLOAD SWAP1 POP DUP3 DUP2 LT ISZERO PUSH2 0xF6C JUMPI PUSH1 0x40 MLOAD PUSH32 0x8C379A000000000000000000000000000000000000000000000000000000000 DUP2 MSTORE PUSH1 0x4 ADD PUSH2 0xF63 SWAP1 PUSH2 0x5517 JUMP JUMPDEST PUSH1 0x40 MLOAD DUP1 SWAP2 SUB SWAP1 REVERT JUMPDEST PUSH2 0xF89 DUP6 PUSH2 0xF78 PUSH2 0x2C38 JUMP JUMPDEST DUP6 DUP5 PUSH2 0xF84 SWAP2 SWAP1 PUSH2 0x5562 JUMP JUMPDEST PUSH2 0x2C3F JUMP JUMPDEST PUSH1 0x1 SWAP2 POP POP SWAP4 SWAP3 POP POP POP JUMP JUMPDEST PUSH2 0xDEAD DUP2 JUMP JUMPDEST PUSH0 PUSH1 0xB SLOAD DUP3 GT ISZERO PUSH2 0xFE1 JUMPI PUSH1 0x40 MLOAD PUSH32 0x8C379A000000000000000000000000000000000000000000000000000000000 DUP2 MSTORE PUSH1 0x4 ADD PUSH2 0xFD8 SWAP1 PUSH2 0x5605 JUMP JUMPDEST PUSH1 0x40 MLOAD DUP1 SWAP2 SUB SWAP1 REVERT JUMPDEST PUSH0 PUSH2 0xFEA PUSH2 0x35CB JUMP JUMPDEST SWAP1 POP DUP1 DUP4 PUSH2 0xFF8 SWAP2 SWAP1 PUSH2 0x5650 JUMP JUMPDEST SWAP2 POP POP SWAP2 SWAP1 POP JUMP JUMPDEST PUSH0 PUSH1 0x9 SWAP1 POP SWAP1 JUMP JUMPDEST PUSH2 0x1010 PUSH2 0x2C38 JUMP JUMPDEST PUSH20 0xFFFFFFFFFFFFFFFFFFFFFFFFFFFFFFFFFFFFFFFF AND PUSH2 0x102E PUSH2 0x1DEA JUMP JUMPDEST PUSH20 0xFFFFFFFFFFFFFFFFFFFFFFFFFFFFFFFFFFFFFFFF AND EQ PUSH2 0x1084 JUMPI PUSH1 0x40 MLOAD PUSH32 0x8C379A000000000000000000000000000000000000000000000000000000000 DUP2 MSTORE PUSH1 0x4 ADD PUSH2 0x107B SWAP1 PUSH2 0x5423 JUMP JUMPDEST PUSH1 0x40 MLOAD DUP1 SWAP2 SUB SWAP1 REVERT JUMPDEST PUSH1 0x5 PUSH0 DUP3 PUSH20 0xFFFFFFFFFFFFFFFFFFFFFFFFFFFFFFFFFFFFFFFF AND PUSH20 0xFFFFFFFFFFFFFFFFFFFFFFFFFFFFFFFFFFFFFFFF AND DUP2 MSTORE PUSH1 0x20 ADD SWAP1 DUP2 MSTORE PUSH1 0x20 ADD PUSH0 KECCAK256 PUSH0 SWAP1 SLOAD SWAP1 PUSH2 0x100 EXP SWAP1 DIV PUSH1 0xFF AND PUSH2 0x110D JUMPI PUSH1 0x40 MLOAD PUSH32 0x8C379A000000000000000000000000000000000000000000000000000000000 DUP2 MSTORE PUSH1 0x4 ADD PUSH2 0x1104 SWAP1 PUSH2 0x56CA JUMP JUMPDEST PUSH1 0x40 MLOAD DUP1 SWAP2 SUB SWAP1 REVERT JUMPDEST PUSH0 PUSH0 SWAP1 POP JUMPDEST PUSH1 0x7 DUP1 SLOAD SWAP1 POP DUP2 LT ISZERO PUSH2 0x131F JUMPI DUP2 PUSH20 0xFFFFFFFFFFFFFFFFFFFFFFFFFFFFFFFFFFFFFFFF AND PUSH1 0x7 DUP3 DUP2 SLOAD DUP2 LT PUSH2 0x114A JUMPI PUSH2 0x1149 PUSH2 0x56E8 JUMP JUMPDEST JUMPDEST SWAP1 PUSH0 MSTORE PUSH1 0x20 PUSH0 KECCAK256 ADD PUSH0 SWAP1 SLOAD SWAP1 PUSH2 0x100 EXP SWAP1 DIV PUSH20 0xFFFFFFFFFFFFFFFFFFFFFFFFFFFFFFFFFFFFFFFF AND PUSH20 0xFFFFFFFFFFFFFFFFFFFFFFFFFFFFFFFFFFFFFFFF AND SUB PUSH2 0x1312 JUMPI PUSH1 0x7 PUSH1 0x1 PUSH1 0x7 DUP1 SLOAD SWAP1 POP PUSH2 0x11A1 SWAP2 SWAP1 PUSH2 0x5562 JUMP JUMPDEST DUP2 SLOAD DUP2 LT PUSH2 0x11B2 JUMPI PUSH2 0x11B1 PUSH2 0x56E8 JUMP JUMPDEST JUMPDEST SWAP1 PUSH0 MSTORE PUSH1 0x20 PUSH0 KECCAK256 ADD PUSH0 SWAP1 SLOAD SWAP1 PUSH2 0x100 EXP SWAP1 DIV PUSH20 0xFFFFFFFFFFFFFFFFFFFFFFFFFFFFFFFFFFFFFFFF AND PUSH1 0x7 DUP3 DUP2 SLOAD DUP2 LT PUSH2 0x11EE JUMPI PUSH2 0x11ED PUSH2 0x56E8 JUMP JUMPDEST JUMPDEST SWAP1 PUSH0 MSTORE PUSH1 0x20 PUSH0 KECCAK256 ADD PUSH0 PUSH2 0x100 EXP DUP2 SLOAD DUP2 PUSH20 0xFFFFFFFFFFFFFFFFFFFFFFFFFFFFFFFFFFFFFFFF MUL NOT AND SWAP1 DUP4 PUSH20 0xFFFFFFFFFFFFFFFFFFFFFFFFFFFFFFFFFFFFFFFF AND MUL OR SWAP1 SSTORE POP PUSH0 PUSH1 0x2 PUSH0 DUP5 PUSH20 0xFFFFFFFFFFFFFFFFFFFFFFFFFFFFFFFFFFFFFFFF AND PUSH20 0xFFFFFFFFFFFFFFFFFFFFFFFFFFFFFFFFFFFFFFFF AND DUP2 MSTORE PUSH1 0x20 ADD SWAP1 DUP2 MSTORE PUSH1 0x20 ADD PUSH0 KECCAK256 DUP2 SWAP1 SSTORE POP PUSH0 PUSH1 0x5 PUSH0 DUP5 PUSH20 0xFFFFFFFFFFFFFFFFFFFFFFFFFFFFFFFFFFFFFFFF AND PUSH20 0xFFFFFFFFFFFFFFFFFFFFFFFFFFFFFFFFFFFFFFFF AND DUP2 MSTORE PUSH1 0x20 ADD SWAP1 DUP2 MSTORE PUSH1 0x20 ADD PUSH0 KECCAK256 PUSH0 PUSH2 0x100 EXP DUP2 SLOAD DUP2 PUSH1 0xFF MUL NOT AND SWAP1 DUP4 ISZERO ISZERO MUL OR SWAP1 SSTORE POP PUSH1 0x7 DUP1 SLOAD DUP1 PUSH2 0x12DB JUMPI PUSH2 0x12DA PUSH2 0x5715 JUMP JUMPDEST JUMPDEST PUSH1 0x1 SWAP1 SUB DUP2 DUP2 SWAP1 PUSH0 MSTORE PUSH1 0x20 PUSH0 KECCAK256 ADD PUSH0 PUSH2 0x100 EXP DUP2 SLOAD SWAP1 PUSH20 0xFFFFFFFFFFFFFFFFFFFFFFFFFFFFFFFFFFFFFFFF MUL NOT AND SWAP1 SSTORE SWAP1 SSTORE PUSH2 0x131F JUMP JUMPDEST DUP1 DUP1 PUSH1 0x1 ADD SWAP2 POP POP PUSH2 0x1112 JUMP JUMPDEST POP POP JUMP JUMPDEST PUSH0 PUSH2 0x13C0 PUSH2 0x132F PUSH2 0x2C38 JUMP JUMPDEST DUP5 DUP5 PUSH1 0x3 PUSH0 PUSH2 0x133C PUSH2 0x2C38 JUMP JUMPDEST PUSH20 0xFFFFFFFFFFFFFFFFFFFFFFFFFFFFFFFFFFFFFFFF AND PUSH20 0xFFFFFFFFFFFFFFFFFFFFFFFFFFFFFFFFFFFFFFFF AND DUP2 MSTORE PUSH1 0x20 ADD SWAP1 DUP2 MSTORE PUSH1 0x20 ADD PUSH0 KECCAK256 PUSH0 DUP9 PUSH20 0xFFFFFFFFFFFFFFFFFFFFFFFFFFFFFFFFFFFFFFFF AND PUSH20 0xFFFFFFFFFFFFFFFFFFFFFFFFFFFFFFFFFFFFFFFF AND DUP2 MSTORE PUSH1 0x20 ADD SWAP1 DUP2 MSTORE PUSH1 0x20 ADD PUSH0 KECCAK256 SLOAD PUSH2 0x13BB SWAP2 SWAP1 PUSH2 0x5742 JUMP JUMPDEST PUSH2 0x2C3F JUMP JUMPDEST PUSH1 0x1 SWAP1 POP SWAP3 SWAP2 POP POP JUMP JUMPDEST PUSH1 0x12 PUSH0 SWAP1 SLOAD SWAP1 PUSH2 0x100 EXP SWAP1 DIV PUSH20 0xFFFFFFFFFFFFFFFFFFFFFFFFFFFFFFFFFFFFFFFF AND DUP2 JUMP JUMPDEST PUSH0 PUSH1 0x6 PUSH0 DUP4 PUSH20 0xFFFFFFFFFFFFFFFFFFFFFFFFFFFFFFFFFFFFFFFF AND PUSH20 0xFFFFFFFFFFFFFFFFFFFFFFFFFFFFFFFFFFFFFFFF AND DUP2 MSTORE PUSH1 0x20 ADD SWAP1 DUP2 MSTORE PUSH1 0x20 ADD PUSH0 KECCAK256 PUSH0 SWAP1 SLOAD SWAP1 PUSH2 0x100 EXP SWAP1 DIV PUSH1 0xFF AND SWAP1 POP SWAP2 SWAP1 POP JUMP JUMPDEST PUSH2 0x1449 PUSH2 0x2C38 JUMP JUMPDEST PUSH20 0xFFFFFFFFFFFFFFFFFFFFFFFFFFFFFFFFFFFFFFFF AND PUSH2 0x1467 PUSH2 0x1DEA JUMP JUMPDEST PUSH20 0xFFFFFFFFFFFFFFFFFFFFFFFFFFFFFFFFFFFFFFFF AND EQ PUSH2 0x14BD JUMPI PUSH1 0x40 MLOAD PUSH32 0x8C379A000000000000000000000000000000000000000000000000000000000 DUP2 MSTORE PUSH1 0x4 ADD PUSH2 0x14B4 SWAP1 PUSH2 0x5423 JUMP JUMPDEST PUSH1 0x40 MLOAD DUP1 SWAP2 SUB SWAP1 REVERT JUMPDEST DUP2 PUSH1 0x8 PUSH1 0x2 PUSH2 0x100 EXP DUP2 SLOAD DUP2 PUSH20 0xFFFFFFFFFFFFFFFFFFFFFFFFFFFFFFFFFFFFFFFF MUL NOT AND SWAP1 DUP4 PUSH20 0xFFFFFFFFFFFFFFFFFFFFFFFFFFFFFFFFFFFFFFFF AND MUL OR SWAP1 SSTORE POP DUP1 PUSH1 0x9 PUSH0 PUSH2 0x100 EXP DUP2 SLOAD DUP2 PUSH20 0xFFFFFFFFFFFFFFFFFFFFFFFFFFFFFFFFFFFFFFFF MUL NOT AND SWAP1 DUP4 PUSH20 0xFFFFFFFFFFFFFFFFFFFFFFFFFFFFFFFFFFFFFFFF AND MUL OR SWAP1 SSTORE POP POP POP JUMP JUMPDEST PUSH2 0x154A PUSH2 0x2C38 JUMP JUMPDEST PUSH20 0xFFFFFFFFFFFFFFFFFFFFFFFFFFFFFFFFFFFFFFFF AND PUSH2 0x1568 PUSH2 0x1DEA JUMP JUMPDEST PUSH20 0xFFFFFFFFFFFFFFFFFFFFFFFFFFFFFFFFFFFFFFFF AND EQ PUSH2 0x15BE JUMPI PUSH1 0x40 MLOAD PUSH32 0x8C379A000000000000000000000000000000000000000000000000000000000 DUP2 MSTORE PUSH1 0x4 ADD PUSH2 0x15B5 SWAP1 PUSH2 0x5423 JUMP JUMPDEST PUSH1 0x40 MLOAD DUP1 SWAP2 SUB SWAP1 REVERT JUMPDEST PUSH1 0x1 PUSH1 0x4 PUSH0 DUP4 PUSH20 0xFFFFFFFFFFFFFFFFFFFFFFFFFFFFFFFFFFFFFFFF AND PUSH20 0xFFFFFFFFFFFFFFFFFFFFFFFFFFFFFFFFFFFFFFFF AND DUP2 MSTORE PUSH1 0x20 ADD SWAP1 DUP2 MSTORE PUSH1 0x20 ADD PUSH0 KECCAK256 PUSH0 PUSH2 0x100 EXP DUP2 SLOAD DUP2 PUSH1 0xFF MUL NOT AND SWAP1 DUP4 ISZERO ISZERO MUL OR SWAP1 SSTORE POP POP JUMP JUMPDEST PUSH0 PUSH1 0xA SLOAD DUP4 GT ISZERO PUSH2 0x165C JUMPI PUSH1 0x40 MLOAD PUSH32 0x8C379A000000000000000000000000000000000000000000000000000000000 DUP2 MSTORE PUSH1 0x4 ADD PUSH2 0x1653 SWAP1 PUSH2 0x57BF JUMP JUMPDEST PUSH1 0x40 MLOAD DUP1 SWAP2 SUB SWAP1 REVERT JUMPDEST DUP2 PUSH2 0x167B JUMPI PUSH0 PUSH2 0x166D DUP5 PUSH1 0x1 PUSH2 0x35ED JUMP JUMPDEST SWAP1 POP DUP1 PUSH0 ADD MLOAD SWAP2 POP POP PUSH2 0x1692 JUMP JUMPDEST PUSH0 PUSH2 0x1687 DUP5 PUSH1 0x1 PUSH2 0x35ED JUMP JUMPDEST SWAP1 POP DUP1 PUSH1 0x20 ADD MLOAD SWAP2 POP POP JUMPDEST SWAP3 SWAP2 POP POP JUMP JUMPDEST PUSH2 0x16A0 PUSH2 0x2C38 JUMP JUMPDEST PUSH20 0xFFFFFFFFFFFFFFFFFFFFFFFFFFFFFFFFFFFFFFFF AND PUSH2 0x16BE PUSH2 0x1DEA JUMP JUMPDEST PUSH20 0xFFFFFFFFFFFFFFFFFFFFFFFFFFFFFFFFFFFFFFFF AND EQ PUSH2 0x1714 JUMPI PUSH1 0x40 MLOAD PUSH32 0x8C379A000000000000000000000000000000000000000000000000000000000 DUP2 MSTORE PUSH1 0x4 ADD PUSH2 0x170B SWAP1 PUSH2 0x5423 JUMP JUMPDEST PUSH1 0x40 MLOAD DUP1 SWAP2 SUB SWAP1 REVERT JUMPDEST DUP1 PUSH20 0xFFFFFFFFFFFFFFFFFFFFFFFFFFFFFFFFFFFFFFFF AND PUSH1 0x13 PUSH0 SWAP1 SLOAD SWAP1 PUSH2 0x100 EXP SWAP1 DIV PUSH20 0xFFFFFFFFFFFFFFFFFFFFFFFFFFFFFFFFFFFFFFFF AND PUSH20 0xFFFFFFFFFFFFFFFFFFFFFFFFFFFFFFFFFFFFFFFF AND SUB PUSH2 0x17A3 JUMPI PUSH1 0x40 MLOAD PUSH32 0x8C379A000000000000000000000000000000000000000000000000000000000 DUP2 MSTORE PUSH1 0x4 ADD PUSH2 0x179A SWAP1 PUSH2 0x5827 JUMP JUMPDEST PUSH1 0x40 MLOAD DUP1 SWAP2 SUB SWAP1 REVERT JUMPDEST DUP1 PUSH1 0x13 PUSH0 PUSH2 0x100 EXP DUP2 SLOAD DUP2 PUSH20 0xFFFFFFFFFFFFFFFFFFFFFFFFFFFFFFFFFFFFFFFF MUL NOT AND SWAP1 DUP4 PUSH20 0xFFFFFFFFFFFFFFFFFFFFFFFFFFFFFFFFFFFFFFFF AND MUL OR SWAP1 SSTORE POP PUSH1 0x4 PUSH0 PUSH1 0x13 PUSH0 SWAP1 SLOAD SWAP1 PUSH2 0x100 EXP SWAP1 DIV PUSH20 0xFFFFFFFFFFFFFFFFFFFFFFFFFFFFFFFFFFFFFFFF AND PUSH20 0xFFFFFFFFFFFFFFFFFFFFFFFFFFFFFFFFFFFFFFFF AND PUSH20 0xFFFFFFFFFFFFFFFFFFFFFFFFFFFFFFFFFFFFFFFF AND DUP2 MSTORE PUSH1 0x20 ADD SWAP1 DUP2 MSTORE PUSH1 0x20 ADD PUSH0 KECCAK256 PUSH0 SWAP1 SLOAD SWAP1 PUSH2 0x100 EXP SWAP1 POP POP POP JUMP JUMPDEST PUSH0 PUSH1 0xE PUSH0 SWAP1 SLOAD SWAP1 PUSH2 0x100 EXP SWAP1 DIV PUSH1 0xFF AND SWAP1 POP SWAP1 JUMP JUMPDEST PUSH2 0x186C PUSH2 0x2C38 JUMP JUMPDEST PUSH20 0xFFFFFFFFFFFFFFFFFFFFFFFFFFFFFFFFFFFFFFFF AND PUSH2 0x188A PUSH2 0x1DEA JUMP JUMPDEST PUSH20 0xFFFFFFFFFFFFFFFFFFFFFFFFFFFFFFFFFFFFFFFF AND EQ PUSH2 0x18E0 JUMPI PUSH1 0x40 MLOAD PUSH32 0x8C379A000000000000000000000000000000000000000000000000000000000 DUP2 MSTORE PUSH1 0x4 ADD PUSH2 0x18D7 SWAP1 PUSH2 0x5423 JUMP JUMPDEST PUSH1 0x40 MLOAD DUP1 SWAP2 SUB SWAP1 REVERT JUMPDEST PUSH1 0x5 PUSH0 DUP3 PUSH20 0xFFFFFFFFFFFFFFFFFFFFFFFFFFFFFFFFFFFFFFFF AND PUSH20 0xFFFFFFFFFFFFFFFFFFFFFFFFFFFFFFFFFFFFFFFF AND DUP2 MSTORE PUSH1 0x20 ADD SWAP1 DUP2 MSTORE PUSH1 0x20 ADD PUSH0 KECCAK256 PUSH0 SWAP1 SLOAD SWAP1 PUSH2 0x100 EXP SWAP1 DIV PUSH1 0xFF AND ISZERO PUSH2 0x196A JUMPI PUSH1 0x40 MLOAD PUSH32 0x8C379A000000000000000000000000000000000000000000000000000000000 DUP2 MSTORE PUSH1 0x4 ADD PUSH2 0x1961 SWAP1 PUSH2 0x588F JUMP JUMPDEST PUSH1 0x40 MLOAD DUP1 SWAP2 SUB SWAP1 REVERT JUMPDEST PUSH0 PUSH1 0x1 PUSH0 DUP4 PUSH20 0xFFFFFFFFFFFFFFFFFFFFFFFFFFFFFFFFFFFFFFFF AND PUSH20 0xFFFFFFFFFFFFFFFFFFFFFFFFFFFFFFFFFFFFFFFF AND DUP2 MSTORE PUSH1 0x20 ADD SWAP1 DUP2 MSTORE PUSH1 0x20 ADD PUSH0 KECCAK256 SLOAD GT ISZERO PUSH2 0x1A37 JUMPI PUSH2 0x19F5 PUSH1 0x1 PUSH0 DUP4 PUSH20 0xFFFFFFFFFFFFFFFFFFFFFFFFFFFFFFFFFFFFFFFF AND PUSH20 0xFFFFFFFFFFFFFFFFFFFFFFFFFFFFFFFFFFFFFFFF AND DUP2 MSTORE PUSH1 0x20 ADD SWAP1 DUP2 MSTORE PUSH1 0x20 ADD PUSH0 KECCAK256 SLOAD PUSH2 0xF9B JUMP JUMPDEST PUSH1 0x2 PUSH0 DUP4 PUSH20 0xFFFFFFFFFFFFFFFFFFFFFFFFFFFFFFFFFFFFFFFF AND PUSH20 0xFFFFFFFFFFFFFFFFFFFFFFFFFFFFFFFFFFFFFFFF AND DUP2 MSTORE PUSH1 0x20 ADD SWAP1 DUP2 MSTORE PUSH1 0x20 ADD PUSH0 KECCAK256 DUP2 SWAP1 SSTORE POP JUMPDEST PUSH1 0x1 PUSH1 0x5 PUSH0 DUP4 PUSH20 0xFFFFFFFFFFFFFFFFFFFFFFFFFFFFFFFFFFFFFFFF AND PUSH20 0xFFFFFFFFFFFFFFFFFFFFFFFFFFFFFFFFFFFFFFFF AND DUP2 MSTORE PUSH1 0x20 ADD SWAP1 DUP2 MSTORE PUSH1 0x20 ADD PUSH0 KECCAK256 PUSH0 PUSH2 0x100 EXP DUP2 SLOAD DUP2 PUSH1 0xFF MUL NOT AND SWAP1 DUP4 ISZERO ISZERO MUL OR SWAP1 SSTORE POP PUSH1 0x7 DUP2 SWAP1 DUP1 PUSH1 0x1 DUP2 SLOAD ADD DUP1 DUP3 SSTORE DUP1 SWAP2 POP POP PUSH1 0x1 SWAP1 SUB SWAP1 PUSH0 MSTORE PUSH1 0x20 PUSH0 KECCAK256 ADD PUSH0 SWAP1 SWAP2 SWAP1 SWAP2 SWAP1 SWAP2 PUSH2 0x100 EXP DUP2 SLOAD DUP2 PUSH20 0xFFFFFFFFFFFFFFFFFFFFFFFFFFFFFFFFFFFFFFFF MUL NOT AND SWAP1 DUP4 PUSH20 0xFFFFFFFFFFFFFFFFFFFFFFFFFFFFFFFFFFFFFFFF AND MUL OR SWAP1 SSTORE POP POP JUMP JUMPDEST PUSH0 PUSH1 0x4 PUSH0 DUP4 PUSH20 0xFFFFFFFFFFFFFFFFFFFFFFFFFFFFFFFFFFFFFFFF AND PUSH20 0xFFFFFFFFFFFFFFFFFFFFFFFFFFFFFFFFFFFFFFFF AND DUP2 MSTORE PUSH1 0x20 ADD SWAP1 DUP2 MSTORE PUSH1 0x20 ADD PUSH0 KECCAK256 PUSH0 SWAP1 SLOAD SWAP1 PUSH2 0x100 EXP SWAP1 DIV PUSH1 0xFF AND SWAP1 POP SWAP2 SWAP1 POP JUMP JUMPDEST PUSH1 0x8 PUSH0 SWAP1 SLOAD SWAP1 PUSH2 0x100 EXP SWAP1 DIV PUSH1 0xFF AND DUP2 JUMP JUMPDEST PUSH0 PUSH1 0x5 PUSH0 DUP4 PUSH20 0xFFFFFFFFFFFFFFFFFFFFFFFFFFFFFFFFFFFFFFFF AND PUSH20 0xFFFFFFFFFFFFFFFFFFFFFFFFFFFFFFFFFFFFFFFF AND DUP2 MSTORE PUSH1 0x20 ADD SWAP1 DUP2 MSTORE PUSH1 0x20 ADD PUSH0 KECCAK256 PUSH0 SWAP1 SLOAD SWAP1 PUSH2 0x100 EXP SWAP1 DIV PUSH1 0xFF AND ISZERO PUSH2 0x1BE8 JUMPI PUSH1 0x2 PUSH0 DUP4 PUSH20 0xFFFFFFFFFFFFFFFFFFFFFFFFFFFFFFFFFFFFFFFF AND PUSH20 0xFFFFFFFFFFFFFFFFFFFFFFFFFFFFFFFFFFFFFFFF AND DUP2 MSTORE PUSH1 0x20 ADD SWAP1 DUP2 MSTORE PUSH1 0x20 ADD PUSH0 KECCAK256 SLOAD SWAP1 POP PUSH2 0x1C31 JUMP JUMPDEST PUSH2 0x1C2E PUSH1 0x1 PUSH0 DUP5 PUSH20 0xFFFFFFFFFFFFFFFFFFFFFFFFFFFFFFFFFFFFFFFF AND PUSH20 0xFFFFFFFFFFFFFFFFFFFFFFFFFFFFFFFFFFFFFFFF AND DUP2 MSTORE PUSH1 0x20 ADD SWAP1 DUP2 MSTORE PUSH1 0x20 ADD PUSH0 KECCAK256 SLOAD PUSH2 0xF9B JUMP JUMPDEST SWAP1 POP JUMPDEST SWAP2 SWAP1 POP JUMP JUMPDEST PUSH2 0x1C3E PUSH2 0x2C38 JUMP JUMPDEST PUSH20 0xFFFFFFFFFFFFFFFFFFFFFFFFFFFFFFFFFFFFFFFF AND PUSH2 0x1C5C PUSH2 0x1DEA JUMP JUMPDEST PUSH20 0xFFFFFFFFFFFFFFFFFFFFFFFFFFFFFFFFFFFFFFFF AND EQ PUSH2 0x1CB2 JUMPI PUSH1 0x40 MLOAD PUSH32 0x8C379A000000000000000000000000000000000000000000000000000000000 DUP2 MSTORE PUSH1 0x4 ADD PUSH2 0x1CA9 SWAP1 PUSH2 0x5423 JUMP JUMPDEST PUSH1 0x40 MLOAD DUP1 SWAP2 SUB SWAP1 REVERT JUMPDEST PUSH2 0x1CBB PUSH0 PUSH2 0x3661 JUMP JUMPDEST JUMP JUMPDEST PUSH1 0x16 DUP1 PUSH0 ADD SLOAD SWAP1 DUP1 PUSH1 0x1 ADD SLOAD SWAP1 DUP1 PUSH1 0x2 ADD SLOAD SWAP1 DUP1 PUSH1 0x3 ADD SLOAD SWAP1 DUP1 PUSH1 0x4 ADD SLOAD SWAP1 DUP1 PUSH1 0x5 ADD SLOAD SWAP1 POP DUP7 JUMP JUMPDEST PUSH0 PUSH1 0x5 PUSH0 DUP4 PUSH20 0xFFFFFFFFFFFFFFFFFFFFFFFFFFFFFFFFFFFFFFFF AND PUSH20 0xFFFFFFFFFFFFFFFFFFFFFFFFFFFFFFFFFFFFFFFF AND DUP2 MSTORE PUSH1 0x20 ADD SWAP1 DUP2 MSTORE PUSH1 0x20 ADD PUSH0 KECCAK256 PUSH0 SWAP1 SLOAD SWAP1 PUSH2 0x100 EXP SWAP1 DIV PUSH1 0xFF AND SWAP1 POP SWAP2 SWAP1 POP JUMP JUMPDEST PUSH2 0x1D40 PUSH2 0x2C38 JUMP JUMPDEST PUSH20 0xFFFFFFFFFFFFFFFFFFFFFFFFFFFFFFFFFFFFFFFF AND PUSH2 0x1D5E PUSH2 0x1DEA JUMP JUMPDEST PUSH20 0xFFFFFFFFFFFFFFFFFFFFFFFFFFFFFFFFFFFFFFFF AND EQ PUSH2 0x1DB4 JUMPI PUSH1 0x40 MLOAD PUSH32 0x8C379A000000000000000000000000000000000000000000000000000000000 DUP2 MSTORE PUSH1 0x4 ADD PUSH2 0x1DAB SWAP1 PUSH2 0x5423 JUMP JUMPDEST PUSH1 0x40 MLOAD DUP1 SWAP2 SUB SWAP1 REVERT JUMPDEST DUP2 PUSH1 0x10 PUSH0 PUSH2 0x100 EXP DUP2 SLOAD DUP2 PUSH1 0xFF MUL NOT AND SWAP1 DUP4 ISZERO ISZERO MUL OR SWAP1 SSTORE POP PUSH1 0x1 DUP2 PUSH2 0x1DDA SWAP2 SWAP1 PUSH2 0x58AD JUMP JUMPDEST PUSH1 0x11 DUP2 SWAP1 SSTORE POP POP POP JUMP JUMPDEST PUSH1 0xD SLOAD DUP2 JUMP JUMPDEST PUSH0 PUSH0 PUSH0 SWAP1 SLOAD SWAP1 PUSH2 0x100 EXP SWAP1 DIV PUSH20 0xFFFFFFFFFFFFFFFFFFFFFFFFFFFFFFFFFFFFFFFF AND SWAP1 POP SWAP1 JUMP JUMPDEST PUSH2 0x1E19 PUSH2 0x2C38 JUMP JUMPDEST PUSH20 0xFFFFFFFFFFFFFFFFFFFFFFFFFFFFFFFFFFFFFFFF AND PUSH2 0x1E37 PUSH2 0x1DEA JUMP JUMPDEST PUSH20 0xFFFFFFFFFFFFFFFFFFFFFFFFFFFFFFFFFFFFFFFF AND EQ PUSH2 0x1E8D JUMPI PUSH1 0x40 MLOAD PUSH32 0x8C379A000000000000000000000000000000000000000000000000000000000 DUP2 MSTORE PUSH1 0x4 ADD PUSH2 0x1E84 SWAP1 PUSH2 0x5423 JUMP JUMPDEST PUSH1 0x40 MLOAD DUP1 SWAP2 SUB SWAP1 REVERT JUMPDEST DUP1 PUSH1 0x8 PUSH0 PUSH2 0x100 EXP DUP2 SLOAD DUP2 PUSH1 0xFF MUL NOT AND SWAP1 DUP4 ISZERO ISZERO MUL OR SWAP1 SSTORE POP POP JUMP JUMPDEST PUSH1 0x60 PUSH1 0x40 MLOAD DUP1 PUSH1 0x40 ADD PUSH1 0x40 MSTORE DUP1 PUSH1 0x4 DUP2 MSTORE PUSH1 0x20 ADD PUSH32 0x4D45444900000000000000000000000000000000000000000000000000000000 DUP2 MSTORE POP SWAP1 POP SWAP1 JUMP JUMPDEST PUSH1 0x1C DUP1 PUSH0 ADD SLOAD SWAP1 DUP1 PUSH1 0x1 ADD SLOAD SWAP1 DUP1 PUSH1 0x2 ADD SLOAD SWAP1 DUP1 PUSH1 0x3 ADD SLOAD SWAP1 DUP1 PUSH1 0x4 ADD SLOAD SWAP1 DUP1 PUSH1 0x5 ADD SLOAD SWAP1 POP DUP7 JUMP JUMPDEST PUSH2 0x1F17 PUSH2 0x2C38 JUMP JUMPDEST PUSH20 0xFFFFFFFFFFFFFFFFFFFFFFFFFFFFFFFFFFFFFFFF AND PUSH2 0x1F35 PUSH2 0x1DEA JUMP JUMPDEST PUSH20 0xFFFFFFFFFFFFFFFFFFFFFFFFFFFFFFFFFFFFFFFF AND EQ PUSH2 0x1F8B JUMPI PUSH1 0x40 MLOAD PUSH32 0x8C379A000000000000000000000000000000000000000000000000000000000 DUP2 MSTORE PUSH1 0x4 ADD PUSH2 0x1F82 SWAP1 PUSH2 0x5423 JUMP JUMPDEST PUSH1 0x40 MLOAD DUP1 SWAP2 SUB SWAP1 REVERT JUMPDEST DUP1 SELFBALANCE LT ISZERO PUSH2 0x1FCE JUMPI PUSH1 0x40 MLOAD PUSH32 0x8C379A000000000000000000000000000000000000000000000000000000000 DUP2 MSTORE PUSH1 0x4 ADD PUSH2 0x1FC5 SWAP1 PUSH2 0x5938 JUMP JUMPDEST PUSH1 0x40 MLOAD DUP1 SWAP2 SUB SWAP1 REVERT JUMPDEST CALLER PUSH20 0xFFFFFFFFFFFFFFFFFFFFFFFFFFFFFFFFFFFFFFFF AND PUSH2 0x8FC DUP3 SWAP1 DUP2 ISZERO MUL SWAP1 PUSH1 0x40 MLOAD PUSH0 PUSH1 0x40 MLOAD DUP1 DUP4 SUB DUP2 DUP6 DUP9 DUP9 CALL SWAP4 POP POP POP POP ISZERO DUP1 ISZERO PUSH2 0x2011 JUMPI RETURNDATASIZE PUSH0 PUSH0 RETURNDATACOPY RETURNDATASIZE PUSH0 REVERT JUMPDEST POP POP JUMP JUMPDEST PUSH0 PUSH0 PUSH1 0x3 PUSH0 PUSH2 0x2022 PUSH2 0x2C38 JUMP JUMPDEST PUSH20 0xFFFFFFFFFFFFFFFFFFFFFFFFFFFFFFFFFFFFFFFF AND PUSH20 0xFFFFFFFFFFFFFFFFFFFFFFFFFFFFFFFFFFFFFFFF AND DUP2 MSTORE PUSH1 0x20 ADD SWAP1 DUP2 MSTORE PUSH1 0x20 ADD PUSH0 KECCAK256 PUSH0 DUP6 PUSH20 0xFFFFFFFFFFFFFFFFFFFFFFFFFFFFFFFFFFFFFFFF AND PUSH20 0xFFFFFFFFFFFFFFFFFFFFFFFFFFFFFFFFFFFFFFFF AND DUP2 MSTORE PUSH1 0x20 ADD SWAP1 DUP2 MSTORE PUSH1 0x20 ADD PUSH0 KECCAK256 SLOAD SWAP1 POP DUP3 DUP2 LT ISZERO PUSH2 0x20DC JUMPI PUSH1 0x40 MLOAD PUSH32 0x8C379A000000000000000000000000000000000000000000000000000000000 DUP2 MSTORE PUSH1 0x4 ADD PUSH2 0x20D3 SWAP1 PUSH2 0x59C6 JUMP JUMPDEST PUSH1 0x40 MLOAD DUP1 SWAP2 SUB SWAP1 REVERT JUMPDEST PUSH2 0x20F9 PUSH2 0x20E7 PUSH2 0x2C38 JUMP JUMPDEST DUP6 DUP6 DUP5 PUSH2 0x20F4 SWAP2 SWAP1 PUSH2 0x5562 JUMP JUMPDEST PUSH2 0x2C3F JUMP JUMPDEST PUSH1 0x1 SWAP2 POP POP SWAP3 SWAP2 POP POP JUMP JUMPDEST PUSH1 0x14 PUSH0 SWAP1 SLOAD SWAP1 PUSH2 0x100 EXP SWAP1 DIV PUSH20 0xFFFFFFFFFFFFFFFFFFFFFFFFFFFFFFFFFFFFFFFF AND DUP2 JUMP JUMPDEST PUSH1 0xF PUSH1 0x20 MSTORE DUP1 PUSH0 MSTORE PUSH1 0x40 PUSH0 KECCAK256 PUSH0 SWAP2 POP SWAP1 POP SLOAD DUP2 JUMP JUMPDEST PUSH1 0x9 PUSH0 SWAP1 SLOAD SWAP1 PUSH2 0x100 EXP SWAP1 DIV PUSH20 0xFFFFFFFFFFFFFFFFFFFFFFFFFFFFFFFFFFFFFFFF AND DUP2 JUMP JUMPDEST PUSH0 PUSH1 0x1 ISZERO ISZERO PUSH1 0xE PUSH0 SWAP1 SLOAD SWAP1 PUSH2 0x100 EXP SWAP1 DIV PUSH1 0xFF AND ISZERO ISZERO EQ PUSH2 0x21B9 JUMPI PUSH1 0x40 MLOAD PUSH32 0x8C379A000000000000000000000000000000000000000000000000000000000 DUP2 MSTORE PUSH1 0x4 ADD PUSH2 0x21B0 SWAP1 PUSH2 0x5A2E JUMP JUMPDEST PUSH1 0x40 MLOAD DUP1 SWAP2 SUB SWAP1 REVERT JUMPDEST PUSH2 0x21CB PUSH2 0x21C4 PUSH2 0x2C38 JUMP JUMPDEST DUP5 DUP5 PUSH2 0x2E02 JUMP JUMPDEST PUSH1 0x1 SWAP1 POP SWAP3 SWAP2 POP POP JUMP JUMPDEST PUSH1 0x13 PUSH0 SWAP1 SLOAD SWAP1 PUSH2 0x100 EXP SWAP1 DIV PUSH20 0xFFFFFFFFFFFFFFFFFFFFFFFFFFFFFFFFFFFFFFFF AND DUP2 JUMP JUMPDEST PUSH2 0x2202 PUSH2 0x2C38 JUMP JUMPDEST PUSH20 0xFFFFFFFFFFFFFFFFFFFFFFFFFFFFFFFFFFFFFFFF AND PUSH2 0x2220 PUSH2 0x1DEA JUMP JUMPDEST PUSH20 0xFFFFFFFFFFFFFFFFFFFFFFFFFFFFFFFFFFFFFFFF AND EQ PUSH2 0x2276 JUMPI PUSH1 0x40 MLOAD PUSH32 0x8C379A000000000000000000000000000000000000000000000000000000000 DUP2 MSTORE PUSH1 0x4 ADD PUSH2 0x226D SWAP1 PUSH2 0x5423 JUMP JUMPDEST PUSH1 0x40 MLOAD DUP1 SWAP2 SUB SWAP1 REVERT JUMPDEST PUSH0 PUSH0 SWAP1 POP JUMPDEST DUP3 MLOAD DUP2 LT ISZERO PUSH2 0x22FF JUMPI DUP2 PUSH1 0x6 PUSH0 DUP6 DUP5 DUP2 MLOAD DUP2 LT PUSH2 0x229B JUMPI PUSH2 0x229A PUSH2 0x56E8 JUMP JUMPDEST JUMPDEST PUSH1 0x20 MUL PUSH1 0x20 ADD ADD MLOAD PUSH20 0xFFFFFFFFFFFFFFFFFFFFFFFFFFFFFFFFFFFFFFFF AND PUSH20 0xFFFFFFFFFFFFFFFFFFFFFFFFFFFFFFFFFFFFFFFF AND DUP2 MSTORE PUSH1 0x20 ADD SWAP1 DUP2 MSTORE PUSH1 0x20 ADD PUSH0 KECCAK256 PUSH0 PUSH2 0x100 EXP DUP2 SLOAD DUP2 PUSH1 0xFF MUL NOT AND SWAP1 DUP4 ISZERO ISZERO MUL OR SWAP1 SSTORE POP DUP1 DUP1 PUSH1 0x1 ADD SWAP2 POP POP PUSH2 0x227B JUMP JUMPDEST POP POP POP JUMP JUMPDEST PUSH2 0x230C PUSH2 0x2C38 JUMP JUMPDEST PUSH20 0xFFFFFFFFFFFFFFFFFFFFFFFFFFFFFFFFFFFFFFFF AND PUSH2 0x232A PUSH2 0x1DEA JUMP JUMPDEST PUSH20 0xFFFFFFFFFFFFFFFFFFFFFFFFFFFFFFFFFFFFFFFF AND EQ PUSH2 0x2380 JUMPI PUSH1 0x40 MLOAD PUSH32 0x8C379A000000000000000000000000000000000000000000000000000000000 DUP2 MSTORE PUSH1 0x4 ADD PUSH2 0x2377 SWAP1 PUSH2 0x5423 JUMP JUMPDEST PUSH1 0x40 MLOAD DUP1 SWAP2 SUB SWAP1 REVERT JUMPDEST DUP1 PUSH20 0xFFFFFFFFFFFFFFFFFFFFFFFFFFFFFFFFFFFFFFFF AND PUSH1 0x14 PUSH0 SWAP1 SLOAD SWAP1 PUSH2 0x100 EXP SWAP1 DIV PUSH20 0xFFFFFFFFFFFFFFFFFFFFFFFFFFFFFFFFFFFFFFFF AND PUSH20 0xFFFFFFFFFFFFFFFFFFFFFFFFFFFFFFFFFFFFFFFF AND SUB PUSH2 0x240F JUMPI PUSH1 0x40 MLOAD PUSH32 0x8C379A000000000000000000000000000000000000000000000000000000000 DUP2 MSTORE PUSH1 0x4 ADD PUSH2 0x2406 SWAP1 PUSH2 0x5827 JUMP JUMPDEST PUSH1 0x40 MLOAD DUP1 SWAP2 SUB SWAP1 REVERT JUMPDEST DUP1 PUSH1 0x14 PUSH0 PUSH2 0x100 EXP DUP2 SLOAD DUP2 PUSH20 0xFFFFFFFFFFFFFFFFFFFFFFFFFFFFFFFFFFFFFFFF MUL NOT AND SWAP1 DUP4 PUSH20 0xFFFFFFFFFFFFFFFFFFFFFFFFFFFFFFFFFFFFFFFF AND MUL OR SWAP1 SSTORE POP PUSH1 0x4 PUSH0 PUSH1 0x14 PUSH0 SWAP1 SLOAD SWAP1 PUSH2 0x100 EXP SWAP1 DIV PUSH20 0xFFFFFFFFFFFFFFFFFFFFFFFFFFFFFFFFFFFFFFFF AND PUSH20 0xFFFFFFFFFFFFFFFFFFFFFFFFFFFFFFFFFFFFFFFF AND PUSH20 0xFFFFFFFFFFFFFFFFFFFFFFFFFFFFFFFFFFFFFFFF AND DUP2 MSTORE PUSH1 0x20 ADD SWAP1 DUP2 MSTORE PUSH1 0x20 ADD PUSH0 KECCAK256 PUSH0 SWAP1 SLOAD SWAP1 PUSH2 0x100 EXP SWAP1 POP POP POP JUMP JUMPDEST PUSH2 0x24C3 PUSH2 0x2C38 JUMP JUMPDEST PUSH20 0xFFFFFFFFFFFFFFFFFFFFFFFFFFFFFFFFFFFFFFFF AND PUSH2 0x24E1 PUSH2 0x1DEA JUMP JUMPDEST PUSH20 0xFFFFFFFFFFFFFFFFFFFFFFFFFFFFFFFFFFFFFFFF AND EQ PUSH2 0x2537 JUMPI PUSH1 0x40 MLOAD PUSH32 0x8C379A000000000000000000000000000000000000000000000000000000000 DUP2 MSTORE PUSH1 0x4 ADD PUSH2 0x252E SWAP1 PUSH2 0x5423 JUMP JUMPDEST PUSH1 0x40 MLOAD DUP1 SWAP2 SUB SWAP1 REVERT JUMPDEST PUSH1 0x9 PUSH1 0xA PUSH2 0x2545 SWAP2 SWAP1 PUSH2 0x5B7B JUMP JUMPDEST DUP2 PUSH2 0x2550 SWAP2 SWAP1 PUSH2 0x58AD JUMP JUMPDEST PUSH1 0xC DUP2 SWAP1 SSTORE POP POP JUMP JUMPDEST PUSH1 0x11 SLOAD DUP2 JUMP JUMPDEST PUSH2 0x2567 PUSH2 0x2C38 JUMP JUMPDEST PUSH20 0xFFFFFFFFFFFFFFFFFFFFFFFFFFFFFFFFFFFFFFFF AND PUSH2 0x2585 PUSH2 0x1DEA JUMP JUMPDEST PUSH20 0xFFFFFFFFFFFFFFFFFFFFFFFFFFFFFFFFFFFFFFFF AND EQ PUSH2 0x25DB JUMPI PUSH1 0x40 MLOAD PUSH32 0x8C379A000000000000000000000000000000000000000000000000000000000 DUP2 MSTORE PUSH1 0x4 ADD PUSH2 0x25D2 SWAP1 PUSH2 0x5423 JUMP JUMPDEST PUSH1 0x40 MLOAD DUP1 SWAP2 SUB SWAP1 REVERT JUMPDEST DUP1 PUSH1 0xE PUSH0 PUSH2 0x100 EXP DUP2 SLOAD DUP2 PUSH1 0xFF MUL NOT AND SWAP1 DUP4 ISZERO ISZERO MUL OR SWAP1 SSTORE POP POP JUMP JUMPDEST PUSH0 PUSH1 0x3 PUSH0 DUP5 PUSH20 0xFFFFFFFFFFFFFFFFFFFFFFFFFFFFFFFFFFFFFFFF AND PUSH20 0xFFFFFFFFFFFFFFFFFFFFFFFFFFFFFFFFFFFFFFFF AND DUP2 MSTORE PUSH1 0x20 ADD SWAP1 DUP2 MSTORE PUSH1 0x20 ADD PUSH0 KECCAK256 PUSH0 DUP4 PUSH20 0xFFFFFFFFFFFFFFFFFFFFFFFFFFFFFFFFFFFFFFFF AND PUSH20 0xFFFFFFFFFFFFFFFFFFFFFFFFFFFFFFFFFFFFFFFF AND DUP2 MSTORE PUSH1 0x20 ADD SWAP1 DUP2 MSTORE PUSH1 0x20 ADD PUSH0 KECCAK256 SLOAD SWAP1 POP SWAP3 SWAP2 POP POP JUMP JUMPDEST PUSH2 0x2681 PUSH2 0x2C38 JUMP JUMPDEST PUSH20 0xFFFFFFFFFFFFFFFFFFFFFFFFFFFFFFFFFFFFFFFF AND PUSH2 0x269F PUSH2 0x1DEA JUMP JUMPDEST PUSH20 0xFFFFFFFFFFFFFFFFFFFFFFFFFFFFFFFFFFFFFFFF AND EQ PUSH2 0x26F5 JUMPI PUSH1 0x40 MLOAD PUSH32 0x8C379A000000000000000000000000000000000000000000000000000000000 DUP2 MSTORE PUSH1 0x4 ADD PUSH2 0x26EC SWAP1 PUSH2 0x5423 JUMP JUMPDEST PUSH1 0x40 MLOAD DUP1 SWAP2 SUB SWAP1 REVERT JUMPDEST DUP1 ISZERO ISZERO PUSH1 0x6 PUSH0 DUP5 PUSH20 0xFFFFFFFFFFFFFFFFFFFFFFFFFFFFFFFFFFFFFFFF AND PUSH20 0xFFFFFFFFFFFFFFFFFFFFFFFFFFFFFFFFFFFFFFFF AND DUP2 MSTORE PUSH1 0x20 ADD SWAP1 DUP2 MSTORE PUSH1 0x20 ADD PUSH0 KECCAK256 PUSH0 SWAP1 SLOAD SWAP1 PUSH2 0x100 EXP SWAP1 DIV PUSH1 0xFF AND ISZERO ISZERO SUB PUSH2 0x2784 JUMPI PUSH1 0x40 MLOAD PUSH32 0x8C379A000000000000000000000000000000000000000000000000000000000 DUP2 MSTORE PUSH1 0x4 ADD PUSH2 0x277B SWAP1 PUSH2 0x5C0F JUMP JUMPDEST PUSH1 0x40 MLOAD DUP1 SWAP2 SUB SWAP1 REVERT JUMPDEST DUP1 PUSH1 0x6 PUSH0 DUP5 PUSH20 0xFFFFFFFFFFFFFFFFFFFFFFFFFFFFFFFFFFFFFFFF AND PUSH20 0xFFFFFFFFFFFFFFFFFFFFFFFFFFFFFFFFFFFFFFFF AND DUP2 MSTORE PUSH1 0x20 ADD SWAP1 DUP2 MSTORE PUSH1 0x20 ADD PUSH0 KECCAK256 PUSH0 PUSH2 0x100 EXP DUP2 SLOAD DUP2 PUSH1 0xFF MUL NOT AND SWAP1 DUP4 ISZERO ISZERO MUL OR SWAP1 SSTORE POP POP POP JUMP JUMPDEST PUSH1 0xC SLOAD DUP2 JUMP JUMPDEST PUSH2 0x27EA PUSH2 0x2C38 JUMP JUMPDEST PUSH20 0xFFFFFFFFFFFFFFFFFFFFFFFFFFFFFFFFFFFFFFFF AND PUSH2 0x2808 PUSH2 0x1DEA JUMP JUMPDEST PUSH20 0xFFFFFFFFFFFFFFFFFFFFFFFFFFFFFFFFFFFFFFFF AND EQ PUSH2 0x285E JUMPI PUSH1 0x40 MLOAD PUSH32 0x8C379A000000000000000000000000000000000000000000000000000000000 DUP2 MSTORE PUSH1 0x4 ADD PUSH2 0x2855 SWAP1 PUSH2 0x5423 JUMP JUMPDEST PUSH1 0x40 MLOAD DUP1 SWAP2 SUB SWAP1 REVERT JUMPDEST PUSH0 PUSH1 0x4 PUSH0 DUP4 PUSH20 0xFFFFFFFFFFFFFFFFFFFFFFFFFFFFFFFFFFFFFFFF AND PUSH20 0xFFFFFFFFFFFFFFFFFFFFFFFFFFFFFFFFFFFFFFFF AND DUP2 MSTORE PUSH1 0x20 ADD SWAP1 DUP2 MSTORE PUSH1 0x20 ADD PUSH0 KECCAK256 PUSH0 PUSH2 0x100 EXP DUP2 SLOAD DUP2 PUSH1 0xFF MUL NOT AND SWAP1 DUP4 ISZERO ISZERO MUL OR SWAP1 SSTORE POP POP JUMP JUMPDEST PUSH1 0x10 PUSH0 SWAP1 SLOAD SWAP1 PUSH2 0x100 EXP SWAP1 DIV PUSH1 0xFF AND DUP2 JUMP JUMPDEST PUSH2 0x28CF PUSH2 0x2C38 JUMP JUMPDEST PUSH20 0xFFFFFFFFFFFFFFFFFFFFFFFFFFFFFFFFFFFFFFFF AND PUSH2 0x28ED PUSH2 0x1DEA JUMP JUMPDEST PUSH20 0xFFFFFFFFFFFFFFFFFFFFFFFFFFFFFFFFFFFFFFFF AND EQ PUSH2 0x2943 JUMPI PUSH1 0x40 MLOAD PUSH32 0x8C379A000000000000000000000000000000000000000000000000000000000 DUP2 MSTORE PUSH1 0x4 ADD PUSH2 0x293A SWAP1 PUSH2 0x5423 JUMP JUMPDEST PUSH1 0x40 MLOAD DUP1 SWAP2 SUB SWAP1 REVERT JUMPDEST PUSH0 PUSH20 0xFFFFFFFFFFFFFFFFFFFFFFFFFFFFFFFFFFFFFFFF AND DUP2 PUSH20 0xFFFFFFFFFFFFFFFFFFFFFFFFFFFFFFFFFFFFFFFF AND SUB PUSH2 0x29B1 JUMPI PUSH1 0x40 MLOAD PUSH32 0x8C379A000000000000000000000000000000000000000000000000000000000 DUP2 MSTORE PUSH1 0x4 ADD PUSH2 0x29A8 SWAP1 PUSH2 0x5C9D JUMP JUMPDEST PUSH1 0x40 MLOAD DUP1 SWAP2 SUB SWAP1 REVERT JUMPDEST PUSH2 0x29BA DUP2 PUSH2 0x3661 JUMP JUMPDEST POP JUMP JUMPDEST PUSH1 0x8 PUSH1 0x2 SWAP1 SLOAD SWAP1 PUSH2 0x100 EXP SWAP1 DIV PUSH20 0xFFFFFFFFFFFFFFFFFFFFFFFFFFFFFFFFFFFFFFFF AND DUP2 JUMP JUMPDEST PUSH2 0x29EB PUSH2 0x2C38 JUMP JUMPDEST PUSH20 0xFFFFFFFFFFFFFFFFFFFFFFFFFFFFFFFFFFFFFFFF AND PUSH2 0x2A09 PUSH2 0x1DEA JUMP JUMPDEST PUSH20 0xFFFFFFFFFFFFFFFFFFFFFFFFFFFFFFFFFFFFFFFF AND EQ PUSH2 0x2A5F JUMPI PUSH1 0x40 MLOAD PUSH32 0x8C379A000000000000000000000000000000000000000000000000000000000 DUP2 MSTORE PUSH1 0x4 ADD PUSH2 0x2A56 SWAP1 PUSH2 0x5423 JUMP JUMPDEST PUSH1 0x40 MLOAD DUP1 SWAP2 SUB SWAP1 REVERT JUMPDEST PUSH1 0x9 PUSH1 0xA PUSH2 0x2A6D SWAP2 SWAP1 PUSH2 0x5B7B JUMP JUMPDEST DUP2 PUSH2 0x2A78 SWAP2 SWAP1 PUSH2 0x58AD JUMP JUMPDEST PUSH1 0xD DUP2 SWAP1 SSTORE POP POP JUMP JUMPDEST PUSH2 0x2A89 PUSH2 0x2C38 JUMP JUMPDEST PUSH20 0xFFFFFFFFFFFFFFFFFFFFFFFFFFFFFFFFFFFFFFFF AND PUSH2 0x2AA7 PUSH2 0x1DEA JUMP JUMPDEST PUSH20 0xFFFFFFFFFFFFFFFFFFFFFFFFFFFFFFFFFFFFFFFF AND EQ PUSH2 0x2AFD JUMPI PUSH1 0x40 MLOAD PUSH32 0x8C379A000000000000000000000000000000000000000000000000000000000 DUP2 MSTORE PUSH1 0x4 ADD PUSH2 0x2AF4 SWAP1 PUSH2 0x5423 JUMP JUMPDEST PUSH1 0x40 MLOAD DUP1 SWAP2 SUB SWAP1 REVERT JUMPDEST DUP1 PUSH20 0xFFFFFFFFFFFFFFFFFFFFFFFFFFFFFFFFFFFFFFFF AND PUSH1 0x12 PUSH0 SWAP1 SLOAD SWAP1 PUSH2 0x100 EXP SWAP1 DIV PUSH20 0xFFFFFFFFFFFFFFFFFFFFFFFFFFFFFFFFFFFFFFFF AND PUSH20 0xFFFFFFFFFFFFFFFFFFFFFFFFFFFFFFFFFFFFFFFF AND SUB PUSH2 0x2B8C JUMPI PUSH1 0x40 MLOAD PUSH32 0x8C379A000000000000000000000000000000000000000000000000000000000 DUP2 MSTORE PUSH1 0x4 ADD PUSH2 0x2B83 SWAP1 PUSH2 0x5827 JUMP JUMPDEST PUSH1 0x40 MLOAD DUP1 SWAP2 SUB SWAP1 REVERT JUMPDEST DUP1 PUSH1 0x12 PUSH0 PUSH2 0x100 EXP DUP2 SLOAD DUP2 PUSH20 0xFFFFFFFFFFFFFFFFFFFFFFFFFFFFFFFFFFFFFFFF MUL NOT AND SWAP1 DUP4 PUSH20 0xFFFFFFFFFFFFFFFFFFFFFFFFFFFFFFFFFFFFFFFF AND MUL OR SWAP1 SSTORE POP PUSH1 0x4 PUSH0 PUSH1 0x12 PUSH0 SWAP1 SLOAD SWAP1 PUSH2 0x100 EXP SWAP1 DIV PUSH20 0xFFFFFFFFFFFFFFFFFFFFFFFFFFFFFFFFFFFFFFFF AND PUSH20 0xFFFFFFFFFFFFFFFFFFFFFFFFFFFFFFFFFFFFFFFF AND PUSH20 0xFFFFFFFFFFFFFFFFFFFFFFFFFFFFFFFFFFFFFFFF AND DUP2 MSTORE PUSH1 0x20 ADD SWAP1 DUP2 MSTORE PUSH1 0x20 ADD PUSH0 KECCAK256 PUSH0 SWAP1 SLOAD SWAP1 PUSH2 0x100 EXP SWAP1 POP POP POP JUMP JUMPDEST PUSH0 CALLER SWAP1 POP SWAP1 JUMP JUMPDEST PUSH0 PUSH20 0xFFFFFFFFFFFFFFFFFFFFFFFFFFFFFFFFFFFFFFFF AND DUP4 PUSH20 0xFFFFFFFFFFFFFFFFFFFFFFFFFFFFFFFFFFFFFFFF AND SUB PUSH2 0x2CAD JUMPI PUSH1 0x40 MLOAD PUSH32 0x8C379A000000000000000000000000000000000000000000000000000000000 DUP2 MSTORE PUSH1 0x4 ADD PUSH2 0x2CA4 SWAP1 PUSH2 0x5D2B JUMP JUMPDEST PUSH1 0x40 MLOAD DUP1 SWAP2 SUB SWAP1 REVERT JUMPDEST PUSH0 PUSH20 0xFFFFFFFFFFFFFFFFFFFFFFFFFFFFFFFFFFFFFFFF AND DUP3 PUSH20 0xFFFFFFFFFFFFFFFFFFFFFFFFFFFFFFFFFFFFFFFF AND SUB PUSH2 0x2D1B JUMPI PUSH1 0x40 MLOAD PUSH32 0x8C379A000000000000000000000000000000000000000000000000000000000 DUP2 MSTORE PUSH1 0x4 ADD PUSH2 0x2D12 SWAP1 PUSH2 0x5DB9 JUMP JUMPDEST PUSH1 0x40 MLOAD DUP1 SWAP2 SUB SWAP1 REVERT JUMPDEST DUP1 PUSH1 0x3 PUSH0 DUP6 PUSH20 0xFFFFFFFFFFFFFFFFFFFFFFFFFFFFFFFFFFFFFFFF AND PUSH20 0xFFFFFFFFFFFFFFFFFFFFFFFFFFFFFFFFFFFFFFFF AND DUP2 MSTORE PUSH1 0x20 ADD SWAP1 DUP2 MSTORE PUSH1 0x20 ADD PUSH0 KECCAK256 PUSH0 DUP5 PUSH20 0xFFFFFFFFFFFFFFFFFFFFFFFFFFFFFFFFFFFFFFFF AND PUSH20 0xFFFFFFFFFFFFFFFFFFFFFFFFFFFFFFFFFFFFFFFF AND DUP2 MSTORE PUSH1 0x20 ADD SWAP1 DUP2 MSTORE PUSH1 0x20 ADD PUSH0 KECCAK256 DUP2 SWAP1 SSTORE POP DUP2 PUSH20 0xFFFFFFFFFFFFFFFFFFFFFFFFFFFFFFFFFFFFFFFF AND DUP4 PUSH20 0xFFFFFFFFFFFFFFFFFFFFFFFFFFFFFFFFFFFFFFFF AND PUSH32 0x8C5BE1E5EBEC7D5BD14F71427D1E84F3DD0314C0F7B2291E5B200AC8C7C3B925 DUP4 PUSH1 0x40 MLOAD PUSH2 0x2DF5 SWAP2 SWAP1 PUSH2 0x4F54 JUMP JUMPDEST PUSH1 0x40 MLOAD DUP1 SWAP2 SUB SWAP1 LOG3 POP POP POP JUMP JUMPDEST PUSH0 PUSH20 0xFFFFFFFFFFFFFFFFFFFFFFFFFFFFFFFFFFFFFFFF AND DUP4 PUSH20 0xFFFFFFFFFFFFFFFFFFFFFFFFFFFFFFFFFFFFFFFF AND SUB PUSH2 0x2E70 JUMPI PUSH1 0x40 MLOAD PUSH32 0x8C379A000000000000000000000000000000000000000000000000000000000 DUP2 MSTORE PUSH1 0x4 ADD PUSH2 0x2E67 SWAP1 PUSH2 0x5E47 JUMP JUMPDEST PUSH1 0x40 MLOAD DUP1 SWAP2 SUB SWAP1 REVERT JUMPDEST PUSH0 PUSH20 0xFFFFFFFFFFFFFFFFFFFFFFFFFFFFFFFFFFFFFFFF AND DUP3 PUSH20 0xFFFFFFFFFFFFFFFFFFFFFFFFFFFFFFFFFFFFFFFF AND SUB PUSH2 0x2EDE JUMPI PUSH1 0x40 MLOAD PUSH32 0x8C379A000000000000000000000000000000000000000000000000000000000 DUP2 MSTORE PUSH1 0x4 ADD PUSH2 0x2ED5 SWAP1 PUSH2 0x5ED5 JUMP JUMPDEST PUSH1 0x40 MLOAD DUP1 SWAP2 SUB SWAP1 REVERT JUMPDEST PUSH0 DUP2 GT PUSH2 0x2F20 JUMPI PUSH1 0x40 MLOAD PUSH32 0x8C379A000000000000000000000000000000000000000000000000000000000 DUP2 MSTORE PUSH1 0x4 ADD PUSH2 0x2F17 SWAP1 PUSH2 0x5F63 JUMP JUMPDEST PUSH1 0x40 MLOAD DUP1 SWAP2 SUB SWAP1 REVERT JUMPDEST PUSH2 0x2F29 DUP4 PUSH2 0x1B53 JUMP JUMPDEST DUP2 GT ISZERO PUSH2 0x2F6B JUMPI PUSH1 0x40 MLOAD PUSH32 0x8C379A000000000000000000000000000000000000000000000000000000000 DUP2 MSTORE PUSH1 0x4 ADD PUSH2 0x2F62 SWAP1 PUSH2 0x5FF1 JUMP JUMPDEST PUSH1 0x40 MLOAD DUP1 SWAP2 SUB SWAP1 REVERT JUMPDEST PUSH1 0x6 PUSH0 DUP5 PUSH20 0xFFFFFFFFFFFFFFFFFFFFFFFFFFFFFFFFFFFFFFFF AND PUSH20 0xFFFFFFFFFFFFFFFFFFFFFFFFFFFFFFFFFFFFFFFF AND DUP2 MSTORE PUSH1 0x20 ADD SWAP1 DUP2 MSTORE PUSH1 0x20 ADD PUSH0 KECCAK256 PUSH0 SWAP1 SLOAD SWAP1 PUSH2 0x100 EXP SWAP1 DIV PUSH1 0xFF AND ISZERO DUP1 ISZERO PUSH2 0x3009 JUMPI POP PUSH1 0x6 PUSH0 DUP4 PUSH20 0xFFFFFFFFFFFFFFFFFFFFFFFFFFFFFFFFFFFFFFFF AND PUSH20 0xFFFFFFFFFFFFFFFFFFFFFFFFFFFFFFFFFFFFFFFF AND DUP2 MSTORE PUSH1 0x20 ADD SWAP1 DUP2 MSTORE PUSH1 0x20 ADD PUSH0 KECCAK256 PUSH0 SWAP1 SLOAD SWAP1 PUSH2 0x100 EXP SWAP1 DIV PUSH1 0xFF AND ISZERO JUMPDEST PUSH2 0x3048 JUMPI PUSH1 0x40 MLOAD PUSH32 0x8C379A000000000000000000000000000000000000000000000000000000000 DUP2 MSTORE PUSH1 0x4 ADD PUSH2 0x303F SWAP1 PUSH2 0x6059 JUMP JUMPDEST PUSH1 0x40 MLOAD DUP1 SWAP2 SUB SWAP1 REVERT JUMPDEST PUSH1 0x4 PUSH0 DUP5 PUSH20 0xFFFFFFFFFFFFFFFFFFFFFFFFFFFFFFFFFFFFFFFF AND PUSH20 0xFFFFFFFFFFFFFFFFFFFFFFFFFFFFFFFFFFFFFFFF AND DUP2 MSTORE PUSH1 0x20 ADD SWAP1 DUP2 MSTORE PUSH1 0x20 ADD PUSH0 KECCAK256 PUSH0 SWAP1 SLOAD SWAP1 PUSH2 0x100 EXP SWAP1 DIV PUSH1 0xFF AND ISZERO DUP1 ISZERO PUSH2 0x30E6 JUMPI POP PUSH1 0x4 PUSH0 DUP4 PUSH20 0xFFFFFFFFFFFFFFFFFFFFFFFFFFFFFFFFFFFFFFFF AND PUSH20 0xFFFFFFFFFFFFFFFFFFFFFFFFFFFFFFFFFFFFFFFF AND DUP2 MSTORE PUSH1 0x20 ADD SWAP1 DUP2 MSTORE PUSH1 0x20 ADD PUSH0 KECCAK256 PUSH0 SWAP1 SLOAD SWAP1 PUSH2 0x100 EXP SWAP1 DIV PUSH1 0xFF AND ISZERO JUMPDEST DUP1 ISZERO PUSH2 0x30FF JUMPI POP PUSH1 0x8 PUSH1 0x1 SWAP1 SLOAD SWAP1 PUSH2 0x100 EXP SWAP1 DIV PUSH1 0xFF AND ISZERO JUMPDEST ISZERO PUSH2 0x33CC JUMPI PUSH1 0xD SLOAD DUP2 GT ISZERO PUSH2 0x3149 JUMPI PUSH1 0x40 MLOAD PUSH32 0x8C379A000000000000000000000000000000000000000000000000000000000 DUP2 MSTORE PUSH1 0x4 ADD PUSH2 0x3140 SWAP1 PUSH2 0x60C1 JUMP JUMPDEST PUSH1 0x40 MLOAD DUP1 SWAP2 SUB SWAP1 REVERT JUMPDEST PUSH1 0x9 PUSH0 SWAP1 SLOAD SWAP1 PUSH2 0x100 EXP SWAP1 DIV PUSH20 0xFFFFFFFFFFFFFFFFFFFFFFFFFFFFFFFFFFFFFFFF AND PUSH20 0xFFFFFFFFFFFFFFFFFFFFFFFFFFFFFFFFFFFFFFFF AND DUP4 PUSH20 0xFFFFFFFFFFFFFFFFFFFFFFFFFFFFFFFFFFFFFFFF AND EQ ISZERO DUP1 ISZERO PUSH2 0x31B1 JUMPI POP PUSH1 0x10 PUSH0 SWAP1 SLOAD SWAP1 PUSH2 0x100 EXP SWAP1 DIV PUSH1 0xFF AND JUMPDEST ISZERO PUSH2 0x328A JUMPI PUSH0 PUSH1 0xF PUSH0 DUP6 PUSH20 0xFFFFFFFFFFFFFFFFFFFFFFFFFFFFFFFFFFFFFFFF AND PUSH20 0xFFFFFFFFFFFFFFFFFFFFFFFFFFFFFFFFFFFFFFFF AND DUP2 MSTORE PUSH1 0x20 ADD SWAP1 DUP2 MSTORE PUSH1 0x20 ADD PUSH0 KECCAK256 SLOAD TIMESTAMP PUSH2 0x3200 SWAP2 SWAP1 PUSH2 0x5562 JUMP JUMPDEST SWAP1 POP PUSH1 0x11 SLOAD DUP2 GT PUSH2 0x3246 JUMPI PUSH1 0x40 MLOAD PUSH32 0x8C379A000000000000000000000000000000000000000000000000000000000 DUP2 MSTORE PUSH1 0x4 ADD PUSH2 0x323D SWAP1 PUSH2 0x6129 JUMP JUMPDEST PUSH1 0x40 MLOAD DUP1 SWAP2 SUB SWAP1 REVERT JUMPDEST TIMESTAMP PUSH1 0xF PUSH0 DUP7 PUSH20 0xFFFFFFFFFFFFFFFFFFFFFFFFFFFFFFFFFFFFFFFF AND PUSH20 0xFFFFFFFFFFFFFFFFFFFFFFFFFFFFFFFFFFFFFFFF AND DUP2 MSTORE PUSH1 0x20 ADD SWAP1 DUP2 MSTORE PUSH1 0x20 ADD PUSH0 KECCAK256 DUP2 SWAP1 SSTORE POP POP JUMPDEST PUSH1 0x9 PUSH0 SWAP1 SLOAD SWAP1 PUSH2 0x100 EXP SWAP1 DIV PUSH20 0xFFFFFFFFFFFFFFFFFFFFFFFFFFFFFFFFFFFFFFFF AND PUSH20 0xFFFFFFFFFFFFFFFFFFFFFFFFFFFFFFFFFFFFFFFF AND DUP3 PUSH20 0xFFFFFFFFFFFFFFFFFFFFFFFFFFFFFFFFFFFFFFFF AND EQ ISZERO DUP1 ISZERO PUSH2 0x32F2 JUMPI POP PUSH1 0x10 PUSH0 SWAP1 SLOAD SWAP1 PUSH2 0x100 EXP SWAP1 DIV PUSH1 0xFF AND JUMPDEST ISZERO PUSH2 0x33CB JUMPI PUSH0 PUSH1 0xF PUSH0 DUP5 PUSH20 0xFFFFFFFFFFFFFFFFFFFFFFFFFFFFFFFFFFFFFFFF AND PUSH20 0xFFFFFFFFFFFFFFFFFFFFFFFFFFFFFFFFFFFFFFFF AND DUP2 MSTORE PUSH1 0x20 ADD SWAP1 DUP2 MSTORE PUSH1 0x20 ADD PUSH0 KECCAK256 SLOAD TIMESTAMP PUSH2 0x3341 SWAP2 SWAP1 PUSH2 0x5562 JUMP JUMPDEST SWAP1 POP PUSH1 0x11 SLOAD DUP2 GT PUSH2 0x3387 JUMPI PUSH1 0x40 MLOAD PUSH32 0x8C379A000000000000000000000000000000000000000000000000000000000 DUP2 MSTORE PUSH1 0x4 ADD PUSH2 0x337E SWAP1 PUSH2 0x6129 JUMP JUMPDEST PUSH1 0x40 MLOAD DUP1 SWAP2 SUB SWAP1 REVERT JUMPDEST TIMESTAMP PUSH1 0xF PUSH0 DUP6 PUSH20 0xFFFFFFFFFFFFFFFFFFFFFFFFFFFFFFFFFFFFFFFF AND PUSH20 0xFFFFFFFFFFFFFFFFFFFFFFFFFFFFFFFFFFFFFFFF AND DUP2 MSTORE PUSH1 0x20 ADD SWAP1 DUP2 MSTORE PUSH1 0x20 ADD PUSH0 KECCAK256 DUP2 SWAP1 SSTORE POP POP JUMPDEST JUMPDEST PUSH0 PUSH1 0xC SLOAD PUSH2 0x33D9 ADDRESS PUSH2 0x1B53 JUMP JUMPDEST LT ISZERO SWAP1 POP PUSH1 0x8 PUSH1 0x1 SWAP1 SLOAD SWAP1 PUSH2 0x100 EXP SWAP1 DIV PUSH1 0xFF AND ISZERO DUP1 ISZERO PUSH2 0x3405 JUMPI POP PUSH1 0x8 PUSH0 SWAP1 SLOAD SWAP1 PUSH2 0x100 EXP SWAP1 DIV PUSH1 0xFF AND JUMPDEST DUP1 ISZERO PUSH2 0x340E JUMPI POP DUP1 JUMPDEST DUP1 ISZERO PUSH2 0x3467 JUMPI POP PUSH1 0x9 PUSH0 SWAP1 SLOAD SWAP1 PUSH2 0x100 EXP SWAP1 DIV PUSH20 0xFFFFFFFFFFFFFFFFFFFFFFFFFFFFFFFFFFFFFFFF AND PUSH20 0xFFFFFFFFFFFFFFFFFFFFFFFFFFFFFFFFFFFFFFFF AND DUP5 PUSH20 0xFFFFFFFFFFFFFFFFFFFFFFFFFFFFFFFFFFFFFFFF AND EQ ISZERO JUMPDEST DUP1 ISZERO PUSH2 0x34BA JUMPI POP PUSH1 0x4 PUSH0 DUP6 PUSH20 0xFFFFFFFFFFFFFFFFFFFFFFFFFFFFFFFFFFFFFFFF AND PUSH20 0xFFFFFFFFFFFFFFFFFFFFFFFFFFFFFFFFFFFFFFFF AND DUP2 MSTORE PUSH1 0x20 ADD SWAP1 DUP2 MSTORE PUSH1 0x20 ADD PUSH0 KECCAK256 PUSH0 SWAP1 SLOAD SWAP1 PUSH2 0x100 EXP SWAP1 DIV PUSH1 0xFF AND ISZERO JUMPDEST DUP1 ISZERO PUSH2 0x350D JUMPI POP PUSH1 0x4 PUSH0 DUP5 PUSH20 0xFFFFFFFFFFFFFFFFFFFFFFFFFFFFFFFFFFFFFFFF AND PUSH20 0xFFFFFFFFFFFFFFFFFFFFFFFFFFFFFFFFFFFFFFFF AND DUP2 MSTORE PUSH1 0x20 ADD SWAP1 DUP2 MSTORE PUSH1 0x20 ADD PUSH0 KECCAK256 PUSH0 SWAP1 SLOAD SWAP1 PUSH2 0x100 EXP SWAP1 DIV PUSH1 0xFF AND ISZERO JUMPDEST ISZERO PUSH2 0x351E JUMPI PUSH2 0x351D PUSH1 0xC SLOAD PUSH2 0x3722 JUMP JUMPDEST JUMPDEST PUSH2 0x35C5 DUP5 DUP5 DUP5 PUSH1 0x4 PUSH0 DUP10 PUSH20 0xFFFFFFFFFFFFFFFFFFFFFFFFFFFFFFFFFFFFFFFF AND PUSH20 0xFFFFFFFFFFFFFFFFFFFFFFFFFFFFFFFFFFFFFFFF AND DUP2 MSTORE PUSH1 0x20 ADD SWAP1 DUP2 MSTORE PUSH1 0x20 ADD PUSH0 KECCAK256 PUSH0 SWAP1 SLOAD SWAP1 PUSH2 0x100 EXP SWAP1 DIV PUSH1 0xFF AND DUP1 PUSH2 0x35BF JUMPI POP PUSH1 0x4 PUSH0 DUP9 PUSH20 0xFFFFFFFFFFFFFFFFFFFFFFFFFFFFFFFFFFFFFFFF AND PUSH20 0xFFFFFFFFFFFFFFFFFFFFFFFFFFFFFFFFFFFFFFFF AND DUP2 MSTORE PUSH1 0x20 ADD SWAP1 DUP2 MSTORE PUSH1 0x20 ADD PUSH0 KECCAK256 PUSH0 SWAP1 SLOAD SWAP1 PUSH2 0x100 EXP SWAP1 DIV PUSH1 0xFF AND JUMPDEST ISZERO PUSH2 0x39E3 JUMP JUMPDEST POP POP POP POP JUMP JUMPDEST PUSH0 PUSH0 PUSH0 PUSH2 0x35D6 PUSH2 0x3EAD JUMP JUMPDEST SWAP2 POP SWAP2 POP DUP1 DUP3 PUSH2 0x35E6 SWAP2 SWAP1 PUSH2 0x5650 JUMP JUMPDEST SWAP3 POP POP POP SWAP1 JUMP JUMPDEST PUSH2 0x35F5 PUSH2 0x4C66 JUMP JUMPDEST PUSH2 0x35FF DUP4 DUP4 PUSH2 0x4130 JUMP JUMPDEST SWAP1 POP PUSH2 0x3614 DUP2 DUP5 DUP5 PUSH2 0x360F PUSH2 0x35CB JUMP JUMPDEST PUSH2 0x42A8 JUMP JUMPDEST DUP9 PUSH0 ADD DUP10 PUSH1 0x20 ADD DUP11 PUSH1 0x40 ADD DUP12 PUSH1 0xA0 ADD DUP13 PUSH1 0xC0 ADD DUP14 PUSH1 0xE0 ADD DUP15 PUSH1 0x80 ADD DUP16 PUSH1 0x60 ADD DUP9 DUP2 MSTORE POP DUP9 DUP2 MSTORE POP DUP9 DUP2 MSTORE POP DUP9 DUP2 MSTORE POP DUP9 DUP2 MSTORE POP DUP9 DUP2 MSTORE POP DUP9 DUP2 MSTORE POP DUP9 DUP2 MSTORE POP POP POP POP POP POP POP POP POP SWAP3 SWAP2 POP POP JUMP JUMPDEST PUSH0 PUSH0 PUSH0 SWAP1 SLOAD SWAP1 PUSH2 0x100 EXP SWAP1 DIV PUSH20 0xFFFFFFFFFFFFFFFFFFFFFFFFFFFFFFFFFFFFFFFF AND SWAP1 POP DUP2 PUSH0 PUSH0 PUSH2 0x100 EXP DUP2 SLOAD DUP2 PUSH20 0xFFFFFFFFFFFFFFFFFFFFFFFFFFFFFFFFFFFFFFFF MUL NOT AND SWAP1 DUP4 PUSH20 0xFFFFFFFFFFFFFFFFFFFFFFFFFFFFFFFFFFFFFFFF AND MUL OR SWAP1 SSTORE POP DUP2 PUSH20 0xFFFFFFFFFFFFFFFFFFFFFFFFFFFFFFFFFFFFFFFF AND DUP2 PUSH20 0xFFFFFFFFFFFFFFFFFFFFFFFFFFFFFFFFFFFFFFFF AND PUSH32 0x8BE0079C531659141344CD1FD0A4F28419497F9722A3DAAFE3B4186F6B6457E0 PUSH1 0x40 MLOAD PUSH1 0x40 MLOAD DUP1 SWAP2 SUB SWAP1 LOG3 POP POP JUMP JUMPDEST PUSH1 0x1 PUSH1 0x8 PUSH1 0x1 PUSH2 0x100 EXP DUP2 SLOAD DUP2 PUSH1 0xFF MUL NOT AND SWAP1 DUP4 ISZERO ISZERO MUL OR SWAP1 SSTORE POP PUSH0 PUSH1 0x2 PUSH1 0x16 PUSH1 0x5 ADD SLOAD PUSH1 0x16 PUSH1 0x3 ADD SLOAD PUSH1 0x16 PUSH1 0x4 ADD SLOAD PUSH1 0x16 PUSH1 0x2 ADD SLOAD PUSH2 0x3762 SWAP2 SWAP1 PUSH2 0x5742 JUMP JUMPDEST PUSH2 0x376C SWAP2 SWAP1 PUSH2 0x5742 JUMP JUMPDEST PUSH2 0x3776 SWAP2 SWAP1 PUSH2 0x5742 JUMP JUMPDEST PUSH2 0x3780 SWAP2 SWAP1 PUSH2 0x58AD JUMP JUMPDEST SWAP1 POP PUSH0 DUP2 PUSH1 0x16 PUSH1 0x2 ADD SLOAD DUP5 PUSH2 0x3795 SWAP2 SWAP1 PUSH2 0x58AD JUMP JUMPDEST PUSH2 0x379F SWAP2 SWAP1 PUSH2 0x5650 JUMP JUMPDEST SWAP1 POP PUSH0 DUP2 DUP5 PUSH2 0x37AE SWAP2 SWAP1 PUSH2 0x5562 JUMP JUMPDEST SWAP1 POP PUSH0 SELFBALANCE SWAP1 POP PUSH2 0x37BD DUP3 PUSH2 0x43A6 JUMP JUMPDEST PUSH0 DUP2 SELFBALANCE PUSH2 0x37CA SWAP2 SWAP1 PUSH2 0x5562 JUMP JUMPDEST SWAP1 POP PUSH0 PUSH1 0x16 PUSH1 0x2 ADD SLOAD DUP7 PUSH2 0x37DE SWAP2 SWAP1 PUSH2 0x5562 JUMP JUMPDEST DUP3 PUSH2 0x37E9 SWAP2 SWAP1 PUSH2 0x5650 JUMP JUMPDEST SWAP1 POP PUSH0 PUSH1 0x16 PUSH1 0x2 ADD SLOAD DUP3 PUSH2 0x37FD SWAP2 SWAP1 PUSH2 0x58AD JUMP JUMPDEST SWAP1 POP PUSH0 DUP2 GT ISZERO PUSH2 0x3812 JUMPI PUSH2 0x3811 DUP7 DUP3 PUSH2 0x45DF JUMP JUMPDEST JUMPDEST PUSH0 PUSH1 0x16 PUSH1 0x3 ADD SLOAD PUSH1 0x2 DUP5 PUSH2 0x3826 SWAP2 SWAP1 PUSH2 0x58AD JUMP JUMPDEST PUSH2 0x3830 SWAP2 SWAP1 PUSH2 0x58AD JUMP JUMPDEST SWAP1 POP PUSH0 DUP2 GT ISZERO PUSH2 0x38A0 JUMPI PUSH1 0x12 PUSH0 SWAP1 SLOAD SWAP1 PUSH2 0x100 EXP SWAP1 DIV PUSH20 0xFFFFFFFFFFFFFFFFFFFFFFFFFFFFFFFFFFFFFFFF AND PUSH20 0xFFFFFFFFFFFFFFFFFFFFFFFFFFFFFFFFFFFFFFFF AND PUSH2 0x8FC DUP3 SWAP1 DUP2 ISZERO MUL SWAP1 PUSH1 0x40 MLOAD PUSH0 PUSH1 0x40 MLOAD DUP1 DUP4 SUB DUP2 DUP6 DUP9 DUP9 CALL SWAP4 POP POP POP POP ISZERO DUP1 ISZERO PUSH2 0x389E JUMPI RETURNDATASIZE PUSH0 PUSH0 RETURNDATACOPY RETURNDATASIZE PUSH0 REVERT JUMPDEST POP JUMPDEST PUSH0 PUSH1 0x16 PUSH1 0x4 ADD SLOAD PUSH1 0x2 DUP6 PUSH2 0x38B4 SWAP2 SWAP1 PUSH2 0x58AD JUMP JUMPDEST PUSH2 0x38BE SWAP2 SWAP1 PUSH2 0x58AD JUMP JUMPDEST SWAP1 POP PUSH0 DUP2 GT ISZERO PUSH2 0x392E JUMPI PUSH1 0x13 PUSH0 SWAP1 SLOAD SWAP1 PUSH2 0x100 EXP SWAP1 DIV PUSH20 0xFFFFFFFFFFFFFFFFFFFFFFFFFFFFFFFFFFFFFFFF AND PUSH20 0xFFFFFFFFFFFFFFFFFFFFFFFFFFFFFFFFFFFFFFFF AND PUSH2 0x8FC DUP3 SWAP1 DUP2 ISZERO MUL SWAP1 PUSH1 0x40 MLOAD PUSH0 PUSH1 0x40 MLOAD DUP1 DUP4 SUB DUP2 DUP6 DUP9 DUP9 CALL SWAP4 POP POP POP POP ISZERO DUP1 ISZERO PUSH2 0x392C JUMPI RETURNDATASIZE PUSH0 PUSH0 RETURNDATACOPY RETURNDATASIZE PUSH0 REVERT JUMPDEST POP JUMPDEST PUSH0 PUSH1 0x16 PUSH1 0x5 ADD SLOAD PUSH1 0x2 DUP7 PUSH2 0x3942 SWAP2 SWAP1 PUSH2 0x58AD JUMP JUMPDEST PUSH2 0x394C SWAP2 SWAP1 PUSH2 0x58AD JUMP JUMPDEST SWAP1 POP PUSH0 DUP2 GT ISZERO PUSH2 0x39BC JUMPI PUSH1 0x14 PUSH0 SWAP1 SLOAD SWAP1 PUSH2 0x100 EXP SWAP1 DIV PUSH20 0xFFFFFFFFFFFFFFFFFFFFFFFFFFFFFFFFFFFFFFFF AND PUSH20 0xFFFFFFFFFFFFFFFFFFFFFFFFFFFFFFFFFFFFFFFF AND PUSH2 0x8FC DUP3 SWAP1 DUP2 ISZERO MUL SWAP1 PUSH1 0x40 MLOAD PUSH0 PUSH1 0x40 MLOAD DUP1 DUP4 SUB DUP2 DUP6 DUP9 DUP9 CALL SWAP4 POP POP POP POP ISZERO DUP1 ISZERO PUSH2 0x39BA JUMPI RETURNDATASIZE PUSH0 PUSH0 RETURNDATACOPY RETURNDATASIZE PUSH0 REVERT JUMPDEST POP JUMPDEST POP POP POP POP POP POP POP POP POP POP PUSH0 PUSH1 0x8 PUSH1 0x1 PUSH2 0x100 EXP DUP2 SLOAD DUP2 PUSH1 0xFF MUL NOT AND SWAP1 DUP4 ISZERO ISZERO MUL OR SWAP1 SSTORE POP POP JUMP JUMPDEST PUSH0 PUSH2 0x39EE DUP4 DUP4 PUSH2 0x35ED JUMP JUMPDEST SWAP1 POP PUSH1 0x5 PUSH0 DUP7 PUSH20 0xFFFFFFFFFFFFFFFFFFFFFFFFFFFFFFFFFFFFFFFF AND PUSH20 0xFFFFFFFFFFFFFFFFFFFFFFFFFFFFFFFFFFFFFFFF AND DUP2 MSTORE PUSH1 0x20 ADD SWAP1 DUP2 MSTORE PUSH1 0x20 ADD PUSH0 KECCAK256 PUSH0 SWAP1 SLOAD SWAP1 PUSH2 0x100 EXP SWAP1 DIV PUSH1 0xFF AND ISZERO PUSH2 0x3ACA JUMPI DUP3 PUSH1 0x2 PUSH0 DUP8 PUSH20 0xFFFFFFFFFFFFFFFFFFFFFFFFFFFFFFFFFFFFFFFF AND PUSH20 0xFFFFFFFFFFFFFFFFFFFFFFFFFFFFFFFFFFFFFFFF AND DUP2 MSTORE PUSH1 0x20 ADD SWAP1 DUP2 MSTORE PUSH1 0x20 ADD PUSH0 KECCAK256 SLOAD PUSH2 0x3A88 SWAP2 SWAP1 PUSH2 0x5562 JUMP JUMPDEST PUSH1 0x2 PUSH0 DUP8 PUSH20 0xFFFFFFFFFFFFFFFFFFFFFFFFFFFFFFFFFFFFFFFF AND PUSH20 0xFFFFFFFFFFFFFFFFFFFFFFFFFFFFFFFFFFFFFFFF AND DUP2 MSTORE PUSH1 0x20 ADD SWAP1 DUP2 MSTORE PUSH1 0x20 ADD PUSH0 KECCAK256 DUP2 SWAP1 SSTORE POP JUMPDEST PUSH1 0x5 PUSH0 DUP6 PUSH20 0xFFFFFFFFFFFFFFFFFFFFFFFFFFFFFFFFFFFFFFFF AND PUSH20 0xFFFFFFFFFFFFFFFFFFFFFFFFFFFFFFFFFFFFFFFF AND DUP2 MSTORE PUSH1 0x20 ADD SWAP1 DUP2 MSTORE PUSH1 0x20 ADD PUSH0 KECCAK256 PUSH0 SWAP1 SLOAD SWAP1 PUSH2 0x100 EXP SWAP1 DIV PUSH1 0xFF AND ISZERO PUSH2 0x3BA9 JUMPI DUP1 PUSH2 0x100 ADD MLOAD PUSH1 0x2 PUSH0 DUP7 PUSH20 0xFFFFFFFFFFFFFFFFFFFFFFFFFFFFFFFFFFFFFFFF AND PUSH20 0xFFFFFFFFFFFFFFFFFFFFFFFFFFFFFFFFFFFFFFFF AND DUP2 MSTORE PUSH1 0x20 ADD SWAP1 DUP2 MSTORE PUSH1 0x20 ADD PUSH0 KECCAK256 SLOAD PUSH2 0x3B67 SWAP2 SWAP1 PUSH2 0x5742 JUMP JUMPDEST PUSH1 0x2 PUSH0 DUP7 PUSH20 0xFFFFFFFFFFFFFFFFFFFFFFFFFFFFFFFFFFFFFFFF AND PUSH20 0xFFFFFFFFFFFFFFFFFFFFFFFFFFFFFFFFFFFFFFFF AND DUP2 MSTORE PUSH1 0x20 ADD SWAP1 DUP2 MSTORE PUSH1 0x20 ADD PUSH0 KECCAK256 DUP2 SWAP1 SSTORE POP JUMPDEST DUP1 PUSH0 ADD MLOAD PUSH1 0x1 PUSH0 DUP8 PUSH20 0xFFFFFFFFFFFFFFFFFFFFFFFFFFFFFFFFFFFFFFFF AND PUSH20 0xFFFFFFFFFFFFFFFFFFFFFFFFFFFFFFFFFFFFFFFF AND DUP2 MSTORE PUSH1 0x20 ADD SWAP1 DUP2 MSTORE PUSH1 0x20 ADD PUSH0 KECCAK256 SLOAD PUSH2 0x3BF5 SWAP2 SWAP1 PUSH2 0x5562 JUMP JUMPDEST PUSH1 0x1 PUSH0 DUP8 PUSH20 0xFFFFFFFFFFFFFFFFFFFFFFFFFFFFFFFFFFFFFFFF AND PUSH20 0xFFFFFFFFFFFFFFFFFFFFFFFFFFFFFFFFFFFFFFFF AND DUP2 MSTORE PUSH1 0x20 ADD SWAP1 DUP2 MSTORE PUSH1 0x20 ADD PUSH0 KECCAK256 DUP2 SWAP1 SSTORE POP DUP1 PUSH1 0x20 ADD MLOAD PUSH1 0x1 PUSH0 DUP7 PUSH20 0xFFFFFFFFFFFFFFFFFFFFFFFFFFFFFFFFFFFFFFFF AND PUSH20 0xFFFFFFFFFFFFFFFFFFFFFFFFFFFFFFFFFFFFFFFF AND DUP2 MSTORE PUSH1 0x20 ADD SWAP1 DUP2 MSTORE PUSH1 0x20 ADD PUSH0 KECCAK256 SLOAD PUSH2 0x3C83 SWAP2 SWAP1 PUSH2 0x5742 JUMP JUMPDEST PUSH1 0x1 PUSH0 DUP7 PUSH20 0xFFFFFFFFFFFFFFFFFFFFFFFFFFFFFFFFFFFFFFFF AND PUSH20 0xFFFFFFFFFFFFFFFFFFFFFFFFFFFFFFFFFFFFFFFF AND DUP2 MSTORE PUSH1 0x20 ADD SWAP1 DUP2 MSTORE PUSH1 0x20 ADD PUSH0 KECCAK256 DUP2 SWAP1 SSTORE POP PUSH2 0x3CD7 DUP2 PUSH1 0x40 ADD MLOAD DUP3 PUSH2 0x120 ADD MLOAD PUSH2 0x46C1 JUMP JUMPDEST PUSH2 0x3CEA DUP2 PUSH1 0x80 ADD MLOAD DUP3 PUSH2 0x160 ADD MLOAD PUSH2 0x46F7 JUMP JUMPDEST PUSH2 0x3CFD DUP2 PUSH1 0xC0 ADD MLOAD DUP3 PUSH2 0x1A0 ADD MLOAD PUSH2 0x480C JUMP JUMPDEST PUSH2 0x3D10 DUP2 PUSH1 0xE0 ADD MLOAD DUP3 PUSH2 0x1C0 ADD MLOAD PUSH2 0x4921 JUMP JUMPDEST PUSH2 0x3D23 DUP2 PUSH1 0xA0 ADD MLOAD DUP3 PUSH2 0x180 ADD MLOAD PUSH2 0x4A36 JUMP JUMPDEST PUSH2 0x3D36 DUP2 PUSH1 0x60 ADD MLOAD DUP3 PUSH2 0x140 ADD MLOAD PUSH2 0x4B4B JUMP JUMPDEST PUSH2 0xDEAD PUSH20 0xFFFFFFFFFFFFFFFFFFFFFFFFFFFFFFFFFFFFFFFF AND DUP6 PUSH20 0xFFFFFFFFFFFFFFFFFFFFFFFFFFFFFFFFFFFFFFFF AND PUSH32 0xDDF252AD1BE2C89B69C2B068FC378DAA952BA7F163C4A11628F55A4DF523B3EF DUP4 PUSH2 0x140 ADD MLOAD PUSH1 0x40 MLOAD PUSH2 0x3D9A SWAP2 SWAP1 PUSH2 0x4F54 JUMP JUMPDEST PUSH1 0x40 MLOAD DUP1 SWAP2 SUB SWAP1 LOG3 DUP4 PUSH20 0xFFFFFFFFFFFFFFFFFFFFFFFFFFFFFFFFFFFFFFFF AND DUP6 PUSH20 0xFFFFFFFFFFFFFFFFFFFFFFFFFFFFFFFFFFFFFFFF AND PUSH32 0xDDF252AD1BE2C89B69C2B068FC378DAA952BA7F163C4A11628F55A4DF523B3EF DUP4 PUSH2 0x100 ADD MLOAD PUSH1 0x40 MLOAD PUSH2 0x3E04 SWAP2 SWAP1 PUSH2 0x4F54 JUMP JUMPDEST PUSH1 0x40 MLOAD DUP1 SWAP2 SUB SWAP1 LOG3 ADDRESS PUSH20 0xFFFFFFFFFFFFFFFFFFFFFFFFFFFFFFFFFFFFFFFF AND DUP6 PUSH20 0xFFFFFFFFFFFFFFFFFFFFFFFFFFFFFFFFFFFFFFFF AND PUSH32 0xDDF252AD1BE2C89B69C2B068FC378DAA952BA7F163C4A11628F55A4DF523B3EF DUP4 PUSH2 0x1C0 ADD MLOAD DUP5 PUSH2 0x1A0 ADD MLOAD DUP6 PUSH2 0x180 ADD MLOAD DUP7 PUSH2 0x160 ADD MLOAD PUSH2 0x3E7D SWAP2 SWAP1 PUSH2 0x5742 JUMP JUMPDEST PUSH2 0x3E87 SWAP2 SWAP1 PUSH2 0x5742 JUMP JUMPDEST PUSH2 0x3E91 SWAP2 SWAP1 PUSH2 0x5742 JUMP JUMPDEST PUSH1 0x40 MLOAD PUSH2 0x3E9E SWAP2 SWAP1 PUSH2 0x4F54 JUMP JUMPDEST PUSH1 0x40 MLOAD DUP1 SWAP2 SUB SWAP1 LOG3 POP POP POP POP POP JUMP JUMPDEST PUSH0 PUSH0 PUSH0 PUSH1 0xB SLOAD SWAP1 POP PUSH0 PUSH1 0xA SLOAD SWAP1 POP PUSH0 PUSH0 SWAP1 POP JUMPDEST PUSH1 0x7 DUP1 SLOAD SWAP1 POP DUP2 LT ISZERO PUSH2 0x40FA JUMPI DUP3 PUSH1 0x1 PUSH0 PUSH1 0x7 DUP5 DUP2 SLOAD DUP2 LT PUSH2 0x3EE5 JUMPI PUSH2 0x3EE4 PUSH2 0x56E8 JUMP JUMPDEST JUMPDEST SWAP1 PUSH0 MSTORE PUSH1 0x20 PUSH0 KECCAK256 ADD PUSH0 SWAP1 SLOAD SWAP1 PUSH2 0x100 EXP SWAP1 DIV PUSH20 0xFFFFFFFFFFFFFFFFFFFFFFFFFFFFFFFFFFFFFFFF AND PUSH20 0xFFFFFFFFFFFFFFFFFFFFFFFFFFFFFFFFFFFFFFFF AND PUSH20 0xFFFFFFFFFFFFFFFFFFFFFFFFFFFFFFFFFFFFFFFF AND DUP2 MSTORE PUSH1 0x20 ADD SWAP1 DUP2 MSTORE PUSH1 0x20 ADD PUSH0 KECCAK256 SLOAD GT DUP1 PUSH2 0x3FCA JUMPI POP DUP2 PUSH1 0x2 PUSH0 PUSH1 0x7 DUP5 DUP2 SLOAD DUP2 LT PUSH2 0x3F66 JUMPI PUSH2 0x3F65 PUSH2 0x56E8 JUMP JUMPDEST JUMPDEST SWAP1 PUSH0 MSTORE PUSH1 0x20 PUSH0 KECCAK256 ADD PUSH0 SWAP1 SLOAD SWAP1 PUSH2 0x100 EXP SWAP1 DIV PUSH20 0xFFFFFFFFFFFFFFFFFFFFFFFFFFFFFFFFFFFFFFFF AND PUSH20 0xFFFFFFFFFFFFFFFFFFFFFFFFFFFFFFFFFFFFFFFF AND PUSH20 0xFFFFFFFFFFFFFFFFFFFFFFFFFFFFFFFFFFFFFFFF AND DUP2 MSTORE PUSH1 0x20 ADD SWAP1 DUP2 MSTORE PUSH1 0x20 ADD PUSH0 KECCAK256 SLOAD GT JUMPDEST ISZERO PUSH2 0x3FE1 JUMPI PUSH1 0xB SLOAD PUSH1 0xA SLOAD SWAP5 POP SWAP5 POP POP POP POP PUSH2 0x412C JUMP JUMPDEST PUSH1 0x1 PUSH0 PUSH1 0x7 DUP4 DUP2 SLOAD DUP2 LT PUSH2 0x3FF8 JUMPI PUSH2 0x3FF7 PUSH2 0x56E8 JUMP JUMPDEST JUMPDEST SWAP1 PUSH0 MSTORE PUSH1 0x20 PUSH0 KECCAK256 ADD PUSH0 SWAP1 SLOAD SWAP1 PUSH2 0x100 EXP SWAP1 DIV PUSH20 0xFFFFFFFFFFFFFFFFFFFFFFFFFFFFFFFFFFFFFFFF AND PUSH20 0xFFFFFFFFFFFFFFFFFFFFFFFFFFFFFFFFFFFFFFFF AND PUSH20 0xFFFFFFFFFFFFFFFFFFFFFFFFFFFFFFFFFFFFFFFF AND DUP2 MSTORE PUSH1 0x20 ADD SWAP1 DUP2 MSTORE PUSH1 0x20 ADD PUSH0 KECCAK256 SLOAD DUP4 PUSH2 0x4065 SWAP2 SWAP1 PUSH2 0x5562 JUMP JUMPDEST SWAP3 POP PUSH1 0x2 PUSH0 PUSH1 0x7 DUP4 DUP2 SLOAD DUP2 LT PUSH2 0x407E JUMPI PUSH2 0x407D PUSH2 0x56E8 JUMP JUMPDEST JUMPDEST SWAP1 PUSH0 MSTORE PUSH1 0x20 PUSH0 KECCAK256 ADD PUSH0 SWAP1 SLOAD SWAP1 PUSH2 0x100 EXP SWAP1 DIV PUSH20 0xFFFFFFFFFFFFFFFFFFFFFFFFFFFFFFFFFFFFFFFF AND PUSH20 0xFFFFFFFFFFFFFFFFFFFFFFFFFFFFFFFFFFFFFFFF AND PUSH20 0xFFFFFFFFFFFFFFFFFFFFFFFFFFFFFFFFFFFFFFFF AND DUP2 MSTORE PUSH1 0x20 ADD SWAP1 DUP2 MSTORE PUSH1 0x20 ADD PUSH0 KECCAK256 SLOAD DUP3 PUSH2 0x40EB SWAP2 SWAP1 PUSH2 0x5562 JUMP JUMPDEST SWAP2 POP DUP1 DUP1 PUSH1 0x1 ADD SWAP2 POP POP PUSH2 0x3EC0 JUMP JUMPDEST POP PUSH1 0xA SLOAD PUSH1 0xB SLOAD PUSH2 0x410B SWAP2 SWAP1 PUSH2 0x5650 JUMP JUMPDEST DUP3 LT ISZERO PUSH2 0x4123 JUMPI PUSH1 0xB SLOAD PUSH1 0xA SLOAD SWAP4 POP SWAP4 POP POP POP PUSH2 0x412C JUMP JUMPDEST DUP2 DUP2 SWAP4 POP SWAP4 POP POP POP JUMPDEST SWAP1 SWAP2 JUMP JUMPDEST PUSH2 0x4138 PUSH2 0x4C66 JUMP JUMPDEST DUP2 PUSH2 0x414D JUMPI DUP3 DUP2 PUSH2 0x100 ADD DUP2 DUP2 MSTORE POP POP PUSH2 0x42A2 JUMP JUMPDEST PUSH1 0x64 PUSH1 0x16 PUSH0 ADD SLOAD DUP5 PUSH2 0x415F SWAP2 SWAP1 PUSH2 0x58AD JUMP JUMPDEST PUSH2 0x4169 SWAP2 SWAP1 PUSH2 0x5650 JUMP JUMPDEST DUP2 PUSH2 0x120 ADD DUP2 DUP2 MSTORE POP POP PUSH1 0x64 PUSH1 0x16 PUSH1 0x3 ADD SLOAD DUP5 PUSH2 0x4186 SWAP2 SWAP1 PUSH2 0x58AD JUMP JUMPDEST PUSH2 0x4190 SWAP2 SWAP1 PUSH2 0x5650 JUMP JUMPDEST DUP2 PUSH2 0x180 ADD DUP2 DUP2 MSTORE POP POP PUSH1 0x64 PUSH1 0x16 PUSH1 0x4 ADD SLOAD DUP5 PUSH2 0x41AD SWAP2 SWAP1 PUSH2 0x58AD JUMP JUMPDEST PUSH2 0x41B7 SWAP2 SWAP1 PUSH2 0x5650 JUMP JUMPDEST DUP2 PUSH2 0x1A0 ADD DUP2 DUP2 MSTORE POP POP PUSH1 0x64 PUSH1 0x16 PUSH1 0x5 ADD SLOAD DUP5 PUSH2 0x41D4 SWAP2 SWAP1 PUSH2 0x58AD JUMP JUMPDEST PUSH2 0x41DE SWAP2 SWAP1 PUSH2 0x5650 JUMP JUMPDEST DUP2 PUSH2 0x1C0 ADD DUP2 DUP2 MSTORE POP POP PUSH1 0x64 PUSH1 0x16 PUSH1 0x2 ADD SLOAD DUP5 PUSH2 0x41FB SWAP2 SWAP1 PUSH2 0x58AD JUMP JUMPDEST PUSH2 0x4205 SWAP2 SWAP1 PUSH2 0x5650 JUMP JUMPDEST DUP2 PUSH2 0x160 ADD DUP2 DUP2 MSTORE POP POP PUSH1 0x64 PUSH1 0x16 PUSH1 0x1 ADD SLOAD DUP5 PUSH2 0x4222 SWAP2 SWAP1 PUSH2 0x58AD JUMP JUMPDEST PUSH2 0x422C SWAP2 SWAP1 PUSH2 0x5650 JUMP JUMPDEST DUP2 PUSH2 0x140 ADD DUP2 DUP2 MSTORE POP POP DUP1 PUSH2 0x140 ADD MLOAD DUP2 PUSH2 0x160 ADD MLOAD DUP3 PUSH2 0x1C0 ADD MLOAD DUP4 PUSH2 0x1A0 ADD MLOAD DUP5 PUSH2 0x180 ADD MLOAD DUP6 PUSH2 0x120 ADD MLOAD DUP9 PUSH2 0x4265 SWAP2 SWAP1 PUSH2 0x5562 JUMP JUMPDEST PUSH2 0x426F SWAP2 SWAP1 PUSH2 0x5562 JUMP JUMPDEST PUSH2 0x4279 SWAP2 SWAP1 PUSH2 0x5562 JUMP JUMPDEST PUSH2 0x4283 SWAP2 SWAP1 PUSH2 0x5562 JUMP JUMPDEST PUSH2 0x428D SWAP2 SWAP1 PUSH2 0x5562 JUMP JUMPDEST PUSH2 0x4297 SWAP2 SWAP1 PUSH2 0x5562 JUMP JUMPDEST DUP2 PUSH2 0x100 ADD DUP2 DUP2 MSTORE POP POP JUMPDEST SWAP3 SWAP2 POP POP JUMP JUMPDEST PUSH0 PUSH0 PUSH0 PUSH0 PUSH0 PUSH0 PUSH0 PUSH0 DUP9 DUP12 PUSH2 0x42BC SWAP2 SWAP1 PUSH2 0x58AD JUMP JUMPDEST SWAP8 POP DUP10 PUSH2 0x42E0 JUMPI DUP8 DUP9 PUSH0 PUSH0 PUSH0 PUSH0 PUSH0 PUSH0 SWAP8 POP SWAP8 POP SWAP8 POP SWAP8 POP SWAP8 POP SWAP8 POP SWAP8 POP SWAP8 POP PUSH2 0x4397 JUMP JUMPDEST DUP9 DUP13 PUSH2 0x120 ADD MLOAD PUSH2 0x42F1 SWAP2 SWAP1 PUSH2 0x58AD JUMP JUMPDEST SWAP6 POP DUP9 DUP13 PUSH2 0x180 ADD MLOAD PUSH2 0x4304 SWAP2 SWAP1 PUSH2 0x58AD JUMP JUMPDEST SWAP5 POP DUP9 DUP13 PUSH2 0x1A0 ADD MLOAD PUSH2 0x4317 SWAP2 SWAP1 PUSH2 0x58AD JUMP JUMPDEST SWAP4 POP DUP9 DUP13 PUSH2 0x1C0 ADD MLOAD PUSH2 0x432A SWAP2 SWAP1 PUSH2 0x58AD JUMP JUMPDEST SWAP3 POP DUP9 DUP13 PUSH2 0x160 ADD MLOAD PUSH2 0x433D SWAP2 SWAP1 PUSH2 0x58AD JUMP JUMPDEST SWAP2 POP DUP9 DUP13 PUSH1 0x60 ADD MLOAD PUSH2 0x434F SWAP2 SWAP1 PUSH2 0x58AD JUMP JUMPDEST SWAP1 POP DUP1 DUP3 DUP5 DUP7 DUP9 DUP11 DUP14 PUSH2 0x4362 SWAP2 SWAP1 PUSH2 0x5562 JUMP JUMPDEST PUSH2 0x436C SWAP2 SWAP1 PUSH2 0x5562 JUMP JUMPDEST PUSH2 0x4376 SWAP2 SWAP1 PUSH2 0x5562 JUMP JUMPDEST PUSH2 0x4380 SWAP2 SWAP1 PUSH2 0x5562 JUMP JUMPDEST PUSH2 0x438A SWAP2 SWAP1 PUSH2 0x5562 JUMP JUMPDEST PUSH2 0x4394 SWAP2 SWAP1 PUSH2 0x5562 JUMP JUMPDEST SWAP7 POP JUMPDEST SWAP5 SWAP10 POP SWAP5 SWAP10 POP SWAP5 SWAP10 SWAP2 SWAP7 POP SWAP5 POP JUMP JUMPDEST PUSH0 PUSH1 0x2 PUSH8 0xFFFFFFFFFFFFFFFF DUP2 GT ISZERO PUSH2 0x43C2 JUMPI PUSH2 0x43C1 PUSH2 0x5191 JUMP JUMPDEST JUMPDEST PUSH1 0x40 MLOAD SWAP1 DUP1 DUP3 MSTORE DUP1 PUSH1 0x20 MUL PUSH1 0x20 ADD DUP3 ADD PUSH1 0x40 MSTORE DUP1 ISZERO PUSH2 0x43F0 JUMPI DUP2 PUSH1 0x20 ADD PUSH1 0x20 DUP3 MUL DUP1 CALLDATASIZE DUP4 CALLDATACOPY DUP1 DUP3 ADD SWAP2 POP POP SWAP1 POP JUMPDEST POP SWAP1 POP ADDRESS DUP2 PUSH0 DUP2 MLOAD DUP2 LT PUSH2 0x4407 JUMPI PUSH2 0x4406 PUSH2 0x56E8 JUMP JUMPDEST JUMPDEST PUSH1 0x20 MUL PUSH1 0x20 ADD ADD SWAP1 PUSH20 0xFFFFFFFFFFFFFFFFFFFFFFFFFFFFFFFFFFFFFFFF AND SWAP1 DUP2 PUSH20 0xFFFFFFFFFFFFFFFFFFFFFFFFFFFFFFFFFFFFFFFF AND DUP2 MSTORE POP POP PUSH1 0x8 PUSH1 0x2 SWAP1 SLOAD SWAP1 PUSH2 0x100 EXP SWAP1 DIV PUSH20 0xFFFFFFFFFFFFFFFFFFFFFFFFFFFFFFFFFFFFFFFF AND PUSH20 0xFFFFFFFFFFFFFFFFFFFFFFFFFFFFFFFFFFFFFFFF AND PUSH4 0xAD5C4648 PUSH1 0x40 MLOAD DUP2 PUSH4 0xFFFFFFFF AND PUSH1 0xE0 SHL DUP2 MSTORE PUSH1 0x4 ADD PUSH1 0x20 PUSH1 0x40 MLOAD DUP1 DUP4 SUB DUP2 DUP7 GAS STATICCALL ISZERO DUP1 ISZERO PUSH2 0x44AC JUMPI RETURNDATASIZE PUSH0 PUSH0 RETURNDATACOPY RETURNDATASIZE PUSH0 REVERT JUMPDEST POP POP POP POP PUSH1 0x40 MLOAD RETURNDATASIZE PUSH1 0x1F NOT PUSH1 0x1F DUP3 ADD AND DUP3 ADD DUP1 PUSH1 0x40 MSTORE POP DUP2 ADD SWAP1 PUSH2 0x44D0 SWAP2 SWAP1 PUSH2 0x615B JUMP JUMPDEST DUP2 PUSH1 0x1 DUP2 MLOAD DUP2 LT PUSH2 0x44E4 JUMPI PUSH2 0x44E3 PUSH2 0x56E8 JUMP JUMPDEST JUMPDEST PUSH1 0x20 MUL PUSH1 0x20 ADD ADD SWAP1 PUSH20 0xFFFFFFFFFFFFFFFFFFFFFFFFFFFFFFFFFFFFFFFF AND SWAP1 DUP2 PUSH20 0xFFFFFFFFFFFFFFFFFFFFFFFFFFFFFFFFFFFFFFFF AND DUP2 MSTORE POP POP PUSH2 0x454B ADDRESS PUSH1 0x8 PUSH1 0x2 SWAP1 SLOAD SWAP1 PUSH2 0x100 EXP SWAP1 DIV PUSH20 0xFFFFFFFFFFFFFFFFFFFFFFFFFFFFFFFFFFFFFFFF AND DUP5 PUSH2 0x2C3F JUMP JUMPDEST PUSH1 0x8 PUSH1 0x2 SWAP1 SLOAD SWAP1 PUSH2 0x100 EXP SWAP1 DIV PUSH20 0xFFFFFFFFFFFFFFFFFFFFFFFFFFFFFFFFFFFFFFFF AND PUSH20 0xFFFFFFFFFFFFFFFFFFFFFFFFFFFFFFFFFFFFFFFF AND PUSH4 0x791AC947 DUP4 PUSH0 DUP5 ADDRESS TIMESTAMP PUSH1 0x40 MLOAD DUP7 PUSH4 0xFFFFFFFF AND PUSH1 0xE0 SHL DUP2 MSTORE PUSH1 0x4 ADD PUSH2 0x45AE SWAP6 SWAP5 SWAP4 SWAP3 SWAP2 SWAP1 PUSH2 0x6276 JUMP JUMPDEST PUSH0 PUSH1 0x40 MLOAD DUP1 DUP4 SUB DUP2 PUSH0 DUP8 DUP1 EXTCODESIZE ISZERO DUP1 ISZERO PUSH2 0x45C5 JUMPI PUSH0 PUSH0 REVERT JUMPDEST POP GAS CALL ISZERO DUP1 ISZERO PUSH2 0x45D7 JUMPI RETURNDATASIZE PUSH0 PUSH0 RETURNDATACOPY RETURNDATASIZE PUSH0 REVERT JUMPDEST POP POP POP POP POP POP JUMP JUMPDEST PUSH2 0x460C ADDRESS PUSH1 0x8 PUSH1 0x2 SWAP1 SLOAD SWAP1 PUSH2 0x100 EXP SWAP1 DIV PUSH20 0xFFFFFFFFFFFFFFFFFFFFFFFFFFFFFFFFFFFFFFFF AND DUP5 PUSH2 0x2C3F JUMP JUMPDEST PUSH1 0x8 PUSH1 0x2 SWAP1 SLOAD SWAP1 PUSH2 0x100 EXP SWAP1 DIV PUSH20 0xFFFFFFFFFFFFFFFFFFFFFFFFFFFFFFFFFFFFFFFF AND PUSH20 0xFFFFFFFFFFFFFFFFFFFFFFFFFFFFFFFFFFFFFFFF AND PUSH4 0xF305D719 DUP3 ADDRESS DUP6 PUSH0 PUSH0 PUSH2 0x4657 PUSH2 0x1DEA JUMP JUMPDEST TIMESTAMP PUSH1 0x40 MLOAD DUP9 PUSH4 0xFFFFFFFF AND PUSH1 0xE0 SHL DUP2 MSTORE PUSH1 0x4 ADD PUSH2 0x4679 SWAP7 SWAP6 SWAP5 SWAP4 SWAP3 SWAP2 SWAP1 PUSH2 0x62CE JUMP JUMPDEST PUSH1 0x60 PUSH1 0x40 MLOAD DUP1 DUP4 SUB DUP2 DUP6 DUP9 GAS CALL ISZERO DUP1 ISZERO PUSH2 0x4695 JUMPI RETURNDATASIZE PUSH0 PUSH0 RETURNDATACOPY RETURNDATASIZE PUSH0 REVERT JUMPDEST POP POP POP POP POP PUSH1 0x40 MLOAD RETURNDATASIZE PUSH1 0x1F NOT PUSH1 0x1F DUP3 ADD AND DUP3 ADD DUP1 PUSH1 0x40 MSTORE POP DUP2 ADD SWAP1 PUSH2 0x46BA SWAP2 SWAP1 PUSH2 0x6341 JUMP JUMPDEST POP POP POP POP POP JUMP JUMPDEST DUP2 PUSH1 0xB PUSH0 DUP3 DUP3 SLOAD PUSH2 0x46D2 SWAP2 SWAP1 PUSH2 0x5562 JUMP JUMPDEST SWAP3 POP POP DUP2 SWAP1 SSTORE POP DUP1 PUSH1 0x1C PUSH0 ADD PUSH0 DUP3 DUP3 SLOAD PUSH2 0x46EC SWAP2 SWAP1 PUSH2 0x5742 JUMP JUMPDEST SWAP3 POP POP DUP2 SWAP1 SSTORE POP POP POP JUMP JUMPDEST DUP1 PUSH1 0x1C PUSH1 0x2 ADD PUSH0 DUP3 DUP3 SLOAD PUSH2 0x470B SWAP2 SWAP1 PUSH2 0x5742 JUMP JUMPDEST SWAP3 POP POP DUP2 SWAP1 SSTORE POP PUSH1 0x5 PUSH0 ADDRESS PUSH20 0xFFFFFFFFFFFFFFFFFFFFFFFFFFFFFFFFFFFFFFFF AND PUSH20 0xFFFFFFFFFFFFFFFFFFFFFFFFFFFFFFFFFFFFFFFF AND DUP2 MSTORE PUSH1 0x20 ADD SWAP1 DUP2 MSTORE PUSH1 0x20 ADD PUSH0 KECCAK256 PUSH0 SWAP1 SLOAD SWAP1 PUSH2 0x100 EXP SWAP1 DIV PUSH1 0xFF AND ISZERO PUSH2 0x47B5 JUMPI DUP1 PUSH1 0x2 PUSH0 ADDRESS PUSH20 0xFFFFFFFFFFFFFFFFFFFFFFFFFFFFFFFFFFFFFFFF AND PUSH20 0xFFFFFFFFFFFFFFFFFFFFFFFFFFFFFFFFFFFFFFFF AND DUP2 MSTORE PUSH1 0x20 ADD SWAP1 DUP2 MSTORE PUSH1 0x20 ADD PUSH0 KECCAK256 PUSH0 DUP3 DUP3 SLOAD PUSH2 0x47AD SWAP2 SWAP1 PUSH2 0x5742 JUMP JUMPDEST SWAP3 POP POP DUP2 SWAP1 SSTORE POP JUMPDEST DUP2 PUSH1 0x1 PUSH0 ADDRESS PUSH20 0xFFFFFFFFFFFFFFFFFFFFFFFFFFFFFFFFFFFFFFFF AND PUSH20 0xFFFFFFFFFFFFFFFFFFFFFFFFFFFFFFFFFFFFFFFF AND DUP2 MSTORE PUSH1 0x20 ADD SWAP1 DUP2 MSTORE PUSH1 0x20 ADD PUSH0 KECCAK256 PUSH0 DUP3 DUP3 SLOAD PUSH2 0x4801 SWAP2 SWAP1 PUSH2 0x5742 JUMP JUMPDEST SWAP3 POP POP DUP2 SWAP1 SSTORE POP POP POP JUMP JUMPDEST DUP1 PUSH1 0x1C PUSH1 0x4 ADD PUSH0 DUP3 DUP3 SLOAD PUSH2 0x4820 SWAP2 SWAP1 PUSH2 0x5742 JUMP JUMPDEST SWAP3 POP POP DUP2 SWAP1 SSTORE POP PUSH1 0x5 PUSH0 ADDRESS PUSH20 0xFFFFFFFFFFFFFFFFFFFFFFFFFFFFFFFFFFFFFFFF AND PUSH20 0xFFFFFFFFFFFFFFFFFFFFFFFFFFFFFFFFFFFFFFFF AND DUP2 MSTORE PUSH1 0x20 ADD SWAP1 DUP2 MSTORE PUSH1 0x20 ADD PUSH0 KECCAK256 PUSH0 SWAP1 SLOAD SWAP1 PUSH2 0x100 EXP SWAP1 DIV PUSH1 0xFF AND ISZERO PUSH2 0x48CA JUMPI DUP1 PUSH1 0x2 PUSH0 ADDRESS PUSH20 0xFFFFFFFFFFFFFFFFFFFFFFFFFFFFFFFFFFFFFFFF AND PUSH20 0xFFFFFFFFFFFFFFFFFFFFFFFFFFFFFFFFFFFFFFFF AND DUP2 MSTORE PUSH1 0x20 ADD SWAP1 DUP2 MSTORE PUSH1 0x20 ADD PUSH0 KECCAK256 PUSH0 DUP3 DUP3 SLOAD PUSH2 0x48C2 SWAP2 SWAP1 PUSH2 0x5742 JUMP JUMPDEST SWAP3 POP POP DUP2 SWAP1 SSTORE POP JUMPDEST DUP2 PUSH1 0x1 PUSH0 ADDRESS PUSH20 0xFFFFFFFFFFFFFFFFFFFFFFFFFFFFFFFFFFFFFFFF AND PUSH20 0xFFFFFFFFFFFFFFFFFFFFFFFFFFFFFFFFFFFFFFFF AND DUP2 MSTORE PUSH1 0x20 ADD SWAP1 DUP2 MSTORE PUSH1 0x20 ADD PUSH0 KECCAK256 PUSH0 DUP3 DUP3 SLOAD PUSH2 0x4916 SWAP2 SWAP1 PUSH2 0x5742 JUMP JUMPDEST SWAP3 POP POP DUP2 SWAP1 SSTORE POP POP POP JUMP JUMPDEST DUP1 PUSH1 0x1C PUSH1 0x5 ADD PUSH0 DUP3 DUP3 SLOAD PUSH2 0x4935 SWAP2 SWAP1 PUSH2 0x5742 JUMP JUMPDEST SWAP3 POP POP DUP2 SWAP1 SSTORE POP PUSH1 0x5 PUSH0 ADDRESS PUSH20 0xFFFFFFFFFFFFFFFFFFFFFFFFFFFFFFFFFFFFFFFF AND PUSH20 0xFFFFFFFFFFFFFFFFFFFFFFFFFFFFFFFFFFFFFFFF AND DUP2 MSTORE PUSH1 0x20 ADD SWAP1 DUP2 MSTORE PUSH1 0x20 ADD PUSH0 KECCAK256 PUSH0 SWAP1 SLOAD SWAP1 PUSH2 0x100 EXP SWAP1 DIV PUSH1 0xFF AND ISZERO PUSH2 0x49DF JUMPI DUP1 PUSH1 0x2 PUSH0 ADDRESS PUSH20 0xFFFFFFFFFFFFFFFFFFFFFFFFFFFFFFFFFFFFFFFF AND PUSH20 0xFFFFFFFFFFFFFFFFFFFFFFFFFFFFFFFFFFFFFFFF AND DUP2 MSTORE PUSH1 0x20 ADD SWAP1 DUP2 MSTORE PUSH1 0x20 ADD PUSH0 KECCAK256 PUSH0 DUP3 DUP3 SLOAD PUSH2 0x49D7 SWAP2 SWAP1 PUSH2 0x5742 JUMP JUMPDEST SWAP3 POP POP DUP2 SWAP1 SSTORE POP JUMPDEST DUP2 PUSH1 0x1 PUSH0 ADDRESS PUSH20 0xFFFFFFFFFFFFFFFFFFFFFFFFFFFFFFFFFFFFFFFF AND PUSH20 0xFFFFFFFFFFFFFFFFFFFFFFFFFFFFFFFFFFFFFFFF AND DUP2 MSTORE PUSH1 0x20 ADD SWAP1 DUP2 MSTORE PUSH1 0x20 ADD PUSH0 KECCAK256 PUSH0 DUP3 DUP3 SLOAD PUSH2 0x4A2B SWAP2 SWAP1 PUSH2 0x5742 JUMP JUMPDEST SWAP3 POP POP DUP2 SWAP1 SSTORE POP POP POP JUMP JUMPDEST DUP1 PUSH1 0x1C PUSH1 0x3 ADD PUSH0 DUP3 DUP3 SLOAD PUSH2 0x4A4A SWAP2 SWAP1 PUSH2 0x5742 JUMP JUMPDEST SWAP3 POP POP DUP2 SWAP1 SSTORE POP PUSH1 0x5 PUSH0 ADDRESS PUSH20 0xFFFFFFFFFFFFFFFFFFFFFFFFFFFFFFFFFFFFFFFF AND PUSH20 0xFFFFFFFFFFFFFFFFFFFFFFFFFFFFFFFFFFFFFFFF AND DUP2 MSTORE PUSH1 0x20 ADD SWAP1 DUP2 MSTORE PUSH1 0x20 ADD PUSH0 KECCAK256 PUSH0 SWAP1 SLOAD SWAP1 PUSH2 0x100 EXP SWAP1 DIV PUSH1 0xFF AND ISZERO PUSH2 0x4AF4 JUMPI DUP1 PUSH1 0x2 PUSH0 ADDRESS PUSH20 0xFFFFFFFFFFFFFFFFFFFFFFFFFFFFFFFFFFFFFFFF AND PUSH20 0xFFFFFFFFFFFFFFFFFFFFFFFFFFFFFFFFFFFFFFFF AND DUP2 MSTORE PUSH1 0x20 ADD SWAP1 DUP2 MSTORE PUSH1 0x20 ADD PUSH0 KECCAK256 PUSH0 DUP3 DUP3 SLOAD PUSH2 0x4AEC SWAP2 SWAP1 PUSH2 0x5742 JUMP JUMPDEST SWAP3 POP POP DUP2 SWAP1 SSTORE POP JUMPDEST DUP2 PUSH1 0x1 PUSH0 ADDRESS PUSH20 0xFFFFFFFFFFFFFFFFFFFFFFFFFFFFFFFFFFFFFFFF AND PUSH20 0xFFFFFFFFFFFFFFFFFFFFFFFFFFFFFFFFFFFFFFFF AND DUP2 MSTORE PUSH1 0x20 ADD SWAP1 DUP2 MSTORE PUSH1 0x20 ADD PUSH0 KECCAK256 PUSH0 DUP3 DUP3 SLOAD PUSH2 0x4B40 SWAP2 SWAP1 PUSH2 0x5742 JUMP JUMPDEST SWAP3 POP POP DUP2 SWAP1 SSTORE POP POP POP JUMP JUMPDEST DUP1 PUSH1 0x1C PUSH1 0x1 ADD PUSH0 DUP3 DUP3 SLOAD PUSH2 0x4B5F SWAP2 SWAP1 PUSH2 0x5742 JUMP JUMPDEST SWAP3 POP POP DUP2 SWAP1 SSTORE POP PUSH1 0x5 PUSH0 PUSH2 0xDEAD PUSH20 0xFFFFFFFFFFFFFFFFFFFFFFFFFFFFFFFFFFFFFFFF AND PUSH20 0xFFFFFFFFFFFFFFFFFFFFFFFFFFFFFFFFFFFFFFFF AND DUP2 MSTORE PUSH1 0x20 ADD SWAP1 DUP2 MSTORE PUSH1 0x20 ADD PUSH0 KECCAK256 PUSH0 SWAP1 SLOAD SWAP1 PUSH2 0x100 EXP SWAP1 DIV PUSH1 0xFF AND ISZERO PUSH2 0x4C0D JUMPI DUP1 PUSH1 0x2 PUSH0 PUSH2 0xDEAD PUSH20 0xFFFFFFFFFFFFFFFFFFFFFFFFFFFFFFFFFFFFFFFF AND PUSH20 0xFFFFFFFFFFFFFFFFFFFFFFFFFFFFFFFFFFFFFFFF AND DUP2 MSTORE PUSH1 0x20 ADD SWAP1 DUP2 MSTORE PUSH1 0x20 ADD PUSH0 KECCAK256 PUSH0 DUP3 DUP3 SLOAD PUSH2 0x4C05 SWAP2 SWAP1 PUSH2 0x5742 JUMP JUMPDEST SWAP3 POP POP DUP2 SWAP1 SSTORE POP JUMPDEST DUP2 PUSH1 0x1 PUSH0 PUSH2 0xDEAD PUSH20 0xFFFFFFFFFFFFFFFFFFFFFFFFFFFFFFFFFFFFFFFF AND PUSH20 0xFFFFFFFFFFFFFFFFFFFFFFFFFFFFFFFFFFFFFFFF AND DUP2 MSTORE PUSH1 0x20 ADD SWAP1 DUP2 MSTORE PUSH1 0x20 ADD PUSH0 KECCAK256 PUSH0 DUP3 DUP3 SLOAD PUSH2 0x4C5B SWAP2 SWAP1 PUSH2 0x5742 JUMP JUMPDEST SWAP3 POP POP DUP2 SWAP1 SSTORE POP POP POP JUMP JUMPDEST PUSH1 0x40 MLOAD DUP1 PUSH2 0x1E0 ADD PUSH1 0x40 MSTORE DUP1 PUSH0 DUP2 MSTORE PUSH1 0x20 ADD PUSH0 DUP2 MSTORE PUSH1 0x20 ADD PUSH0 DUP2 MSTORE PUSH1 0x20 ADD PUSH0 DUP2 MSTORE PUSH1 0x20 ADD PUSH0 DUP2 MSTORE PUSH1 0x20 ADD PUSH0 DUP2 MSTORE PUSH1 0x20 ADD PUSH0 DUP2 MSTORE PUSH1 0x20 ADD PUSH0 DUP2 MSTORE PUSH1 0x20 ADD PUSH0 DUP2 MSTORE PUSH1 0x20 ADD PUSH0 DUP2 MSTORE PUSH1 0x20 ADD PUSH0 DUP2 MSTORE PUSH1 0x20 ADD PUSH0 DUP2 MSTORE PUSH1 0x20 ADD PUSH0 DUP2 MSTORE PUSH1 0x20 ADD PUSH0 DUP2 MSTORE PUSH1 0x20 ADD PUSH0 DUP2 MSTORE POP SWAP1 JUMP JUMPDEST PUSH0 PUSH1 0x40 MLOAD SWAP1 POP SWAP1 JUMP JUMPDEST PUSH0 PUSH0 REVERT JUMPDEST PUSH0 PUSH0 REVERT JUMPDEST PUSH0 DUP2 SWAP1 POP SWAP2 SWAP1 POP JUMP JUMPDEST PUSH2 0x4CF0 DUP2 PUSH2 0x4CDE JUMP JUMPDEST DUP2 EQ PUSH2 0x4CFA JUMPI PUSH0 PUSH0 REVERT JUMPDEST POP JUMP JUMPDEST PUSH0 DUP2 CALLDATALOAD SWAP1 POP PUSH2 0x4D0B DUP2 PUSH2 0x4CE7 JUMP JUMPDEST SWAP3 SWAP2 POP POP JUMP JUMPDEST PUSH0 PUSH0 PUSH0 PUSH0 PUSH0 PUSH0 PUSH1 0xC0 DUP8 DUP10 SUB SLT ISZERO PUSH2 0x4D2B JUMPI PUSH2 0x4D2A PUSH2 0x4CD6 JUMP JUMPDEST JUMPDEST PUSH0 PUSH2 0x4D38 DUP10 DUP3 DUP11 ADD PUSH2 0x4CFD JUMP JUMPDEST SWAP7 POP POP PUSH1 0x20 PUSH2 0x4D49 DUP10 DUP3 DUP11 ADD PUSH2 0x4CFD JUMP JUMPDEST SWAP6 POP POP PUSH1 0x40 PUSH2 0x4D5A DUP10 DUP3 DUP11 ADD PUSH2 0x4CFD JUMP JUMPDEST SWAP5 POP POP PUSH1 0x60 PUSH2 0x4D6B DUP10 DUP3 DUP11 ADD PUSH2 0x4CFD JUMP JUMPDEST SWAP4 POP POP PUSH1 0x80 PUSH2 0x4D7C DUP10 DUP3 DUP11 ADD PUSH2 0x4CFD JUMP JUMPDEST SWAP3 POP POP PUSH1 0xA0 PUSH2 0x4D8D DUP10 DUP3 DUP11 ADD PUSH2 0x4CFD JUMP JUMPDEST SWAP2 POP POP SWAP3 SWAP6 POP SWAP3 SWAP6 POP SWAP3 SWAP6 JUMP JUMPDEST PUSH0 DUP2 MLOAD SWAP1 POP SWAP2 SWAP1 POP JUMP JUMPDEST PUSH0 DUP3 DUP3 MSTORE PUSH1 0x20 DUP3 ADD SWAP1 POP SWAP3 SWAP2 POP POP JUMP JUMPDEST DUP3 DUP2 DUP4 MCOPY PUSH0 DUP4 DUP4 ADD MSTORE POP POP POP JUMP JUMPDEST PUSH0 PUSH1 0x1F NOT PUSH1 0x1F DUP4 ADD AND SWAP1 POP SWAP2 SWAP1 POP JUMP JUMPDEST PUSH0 PUSH2 0x4DDC DUP3 PUSH2 0x4D9A JUMP JUMPDEST PUSH2 0x4DE6 DUP2 DUP6 PUSH2 0x4DA4 JUMP JUMPDEST SWAP4 POP PUSH2 0x4DF6 DUP2 DUP6 PUSH1 0x20 DUP7 ADD PUSH2 0x4DB4 JUMP JUMPDEST PUSH2 0x4DFF DUP2 PUSH2 0x4DC2 JUMP JUMPDEST DUP5 ADD SWAP2 POP POP SWAP3 SWAP2 POP POP JUMP JUMPDEST PUSH0 PUSH1 0x20 DUP3 ADD SWAP1 POP DUP2 DUP2 SUB PUSH0 DUP4 ADD MSTORE PUSH2 0x4E22 DUP2 DUP5 PUSH2 0x4DD2 JUMP JUMPDEST SWAP1 POP SWAP3 SWAP2 POP POP JUMP JUMPDEST PUSH0 PUSH20 0xFFFFFFFFFFFFFFFFFFFFFFFFFFFFFFFFFFFFFFFF DUP3 AND SWAP1 POP SWAP2 SWAP1 POP JUMP JUMPDEST PUSH0 PUSH2 0x4E53 DUP3 PUSH2 0x4E2A JUMP JUMPDEST SWAP1 POP SWAP2 SWAP1 POP JUMP JUMPDEST PUSH2 0x4E63 DUP2 PUSH2 0x4E49 JUMP JUMPDEST DUP2 EQ PUSH2 0x4E6D JUMPI PUSH0 PUSH0 REVERT JUMPDEST POP JUMP JUMPDEST PUSH0 DUP2 CALLDATALOAD SWAP1 POP PUSH2 0x4E7E DUP2 PUSH2 0x4E5A JUMP JUMPDEST SWAP3 SWAP2 POP POP JUMP JUMPDEST PUSH0 PUSH0 PUSH1 0x40 DUP4 DUP6 SUB SLT ISZERO PUSH2 0x4E9A JUMPI PUSH2 0x4E99 PUSH2 0x4CD6 JUMP JUMPDEST JUMPDEST PUSH0 PUSH2 0x4EA7 DUP6 DUP3 DUP7 ADD PUSH2 0x4E70 JUMP JUMPDEST SWAP3 POP POP PUSH1 0x20 PUSH2 0x4EB8 DUP6 DUP3 DUP7 ADD PUSH2 0x4CFD JUMP JUMPDEST SWAP2 POP POP SWAP3 POP SWAP3 SWAP1 POP JUMP JUMPDEST PUSH0 DUP2 ISZERO ISZERO SWAP1 POP SWAP2 SWAP1 POP JUMP JUMPDEST PUSH2 0x4ED6 DUP2 PUSH2 0x4EC2 JUMP JUMPDEST DUP3 MSTORE POP POP JUMP JUMPDEST PUSH0 PUSH1 0x20 DUP3 ADD SWAP1 POP PUSH2 0x4EEF PUSH0 DUP4 ADD DUP5 PUSH2 0x4ECD JUMP JUMPDEST SWAP3 SWAP2 POP POP JUMP JUMPDEST PUSH0 PUSH0 PUSH0 PUSH1 0x60 DUP5 DUP7 SUB SLT ISZERO PUSH2 0x4F0C JUMPI PUSH2 0x4F0B PUSH2 0x4CD6 JUMP JUMPDEST JUMPDEST PUSH0 PUSH2 0x4F19 DUP7 DUP3 DUP8 ADD PUSH2 0x4E70 JUMP JUMPDEST SWAP4 POP POP PUSH1 0x20 PUSH2 0x4F2A DUP7 DUP3 DUP8 ADD PUSH2 0x4E70 JUMP JUMPDEST SWAP3 POP POP PUSH1 0x40 PUSH2 0x4F3B DUP7 DUP3 DUP8 ADD PUSH2 0x4CFD JUMP JUMPDEST SWAP2 POP POP SWAP3 POP SWAP3 POP SWAP3 JUMP JUMPDEST PUSH2 0x4F4E DUP2 PUSH2 0x4CDE JUMP JUMPDEST DUP3 MSTORE POP POP JUMP JUMPDEST PUSH0 PUSH1 0x20 DUP3 ADD SWAP1 POP PUSH2 0x4F67 PUSH0 DUP4 ADD DUP5 PUSH2 0x4F45 JUMP JUMPDEST SWAP3 SWAP2 POP POP JUMP JUMPDEST PUSH2 0x4F76 DUP2 PUSH2 0x4E49 JUMP JUMPDEST DUP3 MSTORE POP POP JUMP JUMPDEST PUSH0 PUSH1 0x20 DUP3 ADD SWAP1 POP PUSH2 0x4F8F PUSH0 DUP4 ADD DUP5 PUSH2 0x4F6D JUMP JUMPDEST SWAP3 SWAP2 POP POP JUMP JUMPDEST PUSH0 PUSH1 0x20 DUP3 DUP5 SUB SLT ISZERO PUSH2 0x4FAA JUMPI PUSH2 0x4FA9 PUSH2 0x4CD6 JUMP JUMPDEST JUMPDEST PUSH0 PUSH2 0x4FB7 DUP5 DUP3 DUP6 ADD PUSH2 0x4CFD JUMP JUMPDEST SWAP2 POP POP SWAP3 SWAP2 POP POP JUMP JUMPDEST PUSH0 PUSH1 0xFF DUP3 AND SWAP1 POP SWAP2 SWAP1 POP JUMP JUMPDEST PUSH2 0x4FD5 DUP2 PUSH2 0x4FC0 JUMP JUMPDEST DUP3 MSTORE POP POP JUMP JUMPDEST PUSH0 PUSH1 0x20 DUP3 ADD SWAP1 POP PUSH2 0x4FEE PUSH0 DUP4 ADD DUP5 PUSH2 0x4FCC JUMP JUMPDEST SWAP3 SWAP2 POP POP JUMP JUMPDEST PUSH0 PUSH1 0x20 DUP3 DUP5 SUB SLT ISZERO PUSH2 0x5009 JUMPI PUSH2 0x5008 PUSH2 0x4CD6 JUMP JUMPDEST JUMPDEST PUSH0 PUSH2 0x5016 DUP5 DUP3 DUP6 ADD PUSH2 0x4E70 JUMP JUMPDEST SWAP2 POP POP SWAP3 SWAP2 POP POP JUMP JUMPDEST PUSH0 PUSH0 PUSH1 0x40 DUP4 DUP6 SUB SLT ISZERO PUSH2 0x5035 JUMPI PUSH2 0x5034 PUSH2 0x4CD6 JUMP JUMPDEST JUMPDEST PUSH0 PUSH2 0x5042 DUP6 DUP3 DUP7 ADD PUSH2 0x4E70 JUMP JUMPDEST SWAP3 POP POP PUSH1 0x20 PUSH2 0x5053 DUP6 DUP3 DUP7 ADD PUSH2 0x4E70 JUMP JUMPDEST SWAP2 POP POP SWAP3 POP SWAP3 SWAP1 POP JUMP JUMPDEST PUSH2 0x5066 DUP2 PUSH2 0x4EC2 JUMP JUMPDEST DUP2 EQ PUSH2 0x5070 JUMPI PUSH0 PUSH0 REVERT JUMPDEST POP JUMP JUMPDEST PUSH0 DUP2 CALLDATALOAD SWAP1 POP PUSH2 0x5081 DUP2 PUSH2 0x505D JUMP JUMPDEST SWAP3 SWAP2 POP POP JUMP JUMPDEST PUSH0 PUSH0 PUSH1 0x40 DUP4 DUP6 SUB SLT ISZERO PUSH2 0x509D JUMPI PUSH2 0x509C PUSH2 0x4CD6 JUMP JUMPDEST JUMPDEST PUSH0 PUSH2 0x50AA DUP6 DUP3 DUP7 ADD PUSH2 0x4CFD JUMP JUMPDEST SWAP3 POP POP PUSH1 0x20 PUSH2 0x50BB DUP6 DUP3 DUP7 ADD PUSH2 0x5073 JUMP JUMPDEST SWAP2 POP POP SWAP3 POP SWAP3 SWAP1 POP JUMP JUMPDEST PUSH0 PUSH1 0xC0 DUP3 ADD SWAP1 POP PUSH2 0x50D8 PUSH0 DUP4 ADD DUP10 PUSH2 0x4F45 JUMP JUMPDEST PUSH2 0x50E5 PUSH1 0x20 DUP4 ADD DUP9 PUSH2 0x4F45 JUMP JUMPDEST PUSH2 0x50F2 PUSH1 0x40 DUP4 ADD DUP8 PUSH2 0x4F45 JUMP JUMPDEST PUSH2 0x50FF PUSH1 0x60 DUP4 ADD DUP7 PUSH2 0x4F45 JUMP JUMPDEST PUSH2 0x510C PUSH1 0x80 DUP4 ADD DUP6 PUSH2 0x4F45 JUMP JUMPDEST PUSH2 0x5119 PUSH1 0xA0 DUP4 ADD DUP5 PUSH2 0x4F45 JUMP JUMPDEST SWAP8 SWAP7 POP POP POP POP POP POP POP JUMP JUMPDEST PUSH0 PUSH0 PUSH1 0x40 DUP4 DUP6 SUB SLT ISZERO PUSH2 0x513A JUMPI PUSH2 0x5139 PUSH2 0x4CD6 JUMP JUMPDEST JUMPDEST PUSH0 PUSH2 0x5147 DUP6 DUP3 DUP7 ADD PUSH2 0x5073 JUMP JUMPDEST SWAP3 POP POP PUSH1 0x20 PUSH2 0x5158 DUP6 DUP3 DUP7 ADD PUSH2 0x4CFD JUMP JUMPDEST SWAP2 POP POP SWAP3 POP SWAP3 SWAP1 POP JUMP JUMPDEST PUSH0 PUSH1 0x20 DUP3 DUP5 SUB SLT ISZERO PUSH2 0x5177 JUMPI PUSH2 0x5176 PUSH2 0x4CD6 JUMP JUMPDEST JUMPDEST PUSH0 PUSH2 0x5184 DUP5 DUP3 DUP6 ADD PUSH2 0x5073 JUMP JUMPDEST SWAP2 POP POP SWAP3 SWAP2 POP POP JUMP JUMPDEST PUSH0 PUSH0 REVERT JUMPDEST PUSH32 0x4E487B7100000000000000000000000000000000000000000000000000000000 PUSH0 MSTORE PUSH1 0x41 PUSH1 0x4 MSTORE PUSH1 0x24 PUSH0 REVERT JUMPDEST PUSH2 0x51C7 DUP3 PUSH2 0x4DC2 JUMP JUMPDEST DUP2 ADD DUP2 DUP2 LT PUSH8 0xFFFFFFFFFFFFFFFF DUP3 GT OR ISZERO PUSH2 0x51E6 JUMPI PUSH2 0x51E5 PUSH2 0x5191 JUMP JUMPDEST JUMPDEST DUP1 PUSH1 0x40 MSTORE POP POP POP JUMP JUMPDEST PUSH0 PUSH2 0x51F8 PUSH2 0x4CCD JUMP JUMPDEST SWAP1 POP PUSH2 0x5204 DUP3 DUP3 PUSH2 0x51BE JUMP JUMPDEST SWAP2 SWAP1 POP JUMP JUMPDEST PUSH0 PUSH8 0xFFFFFFFFFFFFFFFF DUP3 GT ISZERO PUSH2 0x5223 JUMPI PUSH2 0x5222 PUSH2 0x5191 JUMP JUMPDEST JUMPDEST PUSH1 0x20 DUP3 MUL SWAP1 POP PUSH1 0x20 DUP2 ADD SWAP1 POP SWAP2 SWAP1 POP JUMP JUMPDEST PUSH0 PUSH0 REVERT JUMPDEST PUSH0 PUSH2 0x524A PUSH2 0x5245 DUP5 PUSH2 0x5209 JUMP JUMPDEST PUSH2 0x51EF JUMP JUMPDEST SWAP1 POP DUP1 DUP4 DUP3 MSTORE PUSH1 0x20 DUP3 ADD SWAP1 POP PUSH1 0x20 DUP5 MUL DUP4 ADD DUP6 DUP2 GT ISZERO PUSH2 0x526D JUMPI PUSH2 0x526C PUSH2 0x5234 JUMP JUMPDEST JUMPDEST DUP4 JUMPDEST DUP2 DUP2 LT ISZERO PUSH2 0x5296 JUMPI DUP1 PUSH2 0x5282 DUP9 DUP3 PUSH2 0x4E70 JUMP JUMPDEST DUP5 MSTORE PUSH1 0x20 DUP5 ADD SWAP4 POP POP PUSH1 0x20 DUP2 ADD SWAP1 POP PUSH2 0x526F JUMP JUMPDEST POP POP POP SWAP4 SWAP3 POP POP POP JUMP JUMPDEST PUSH0 DUP3 PUSH1 0x1F DUP4 ADD SLT PUSH2 0x52B4 JUMPI PUSH2 0x52B3 PUSH2 0x518D JUMP JUMPDEST JUMPDEST DUP2 CALLDATALOAD PUSH2 0x52C4 DUP5 DUP3 PUSH1 0x20 DUP7 ADD PUSH2 0x5238 JUMP JUMPDEST SWAP2 POP POP SWAP3 SWAP2 POP POP JUMP JUMPDEST PUSH0 PUSH0 PUSH1 0x40 DUP4 DUP6 SUB SLT ISZERO PUSH2 0x52E3 JUMPI PUSH2 0x52E2 PUSH2 0x4CD6 JUMP JUMPDEST JUMPDEST PUSH0 DUP4 ADD CALLDATALOAD PUSH8 0xFFFFFFFFFFFFFFFF DUP2 GT ISZERO PUSH2 0x5300 JUMPI PUSH2 0x52FF PUSH2 0x4CDA JUMP JUMPDEST JUMPDEST PUSH2 0x530C DUP6 DUP3 DUP7 ADD PUSH2 0x52A0 JUMP JUMPDEST SWAP3 POP POP PUSH1 0x20 PUSH2 0x531D DUP6 DUP3 DUP7 ADD PUSH2 0x5073 JUMP JUMPDEST SWAP2 POP POP SWAP3 POP SWAP3 SWAP1 POP JUMP JUMPDEST PUSH0 PUSH0 PUSH1 0x40 DUP4 DUP6 SUB SLT ISZERO PUSH2 0x533D JUMPI PUSH2 0x533C PUSH2 0x4CD6 JUMP JUMPDEST JUMPDEST PUSH0 PUSH2 0x534A DUP6 DUP3 DUP7 ADD PUSH2 0x4E70 JUMP JUMPDEST SWAP3 POP POP PUSH1 0x20 PUSH2 0x535B DUP6 DUP3 DUP7 ADD PUSH2 0x5073 JUMP JUMPDEST SWAP2 POP POP SWAP3 POP SWAP3 SWAP1 POP JUMP JUMPDEST PUSH0 DUP2 SWAP1 POP SWAP2 SWAP1 POP JUMP JUMPDEST PUSH0 PUSH2 0x5388 PUSH2 0x5383 PUSH2 0x537E DUP5 PUSH2 0x4E2A JUMP JUMPDEST PUSH2 0x5365 JUMP JUMPDEST PUSH2 0x4E2A JUMP JUMPDEST SWAP1 POP SWAP2 SWAP1 POP JUMP JUMPDEST PUSH0 PUSH2 0x5399 DUP3 PUSH2 0x536E JUMP JUMPDEST SWAP1 POP SWAP2 SWAP1 POP JUMP JUMPDEST PUSH0 PUSH2 0x53AA DUP3 PUSH2 0x538F JUMP JUMPDEST SWAP1 POP SWAP2 SWAP1 POP JUMP JUMPDEST PUSH2 0x53BA DUP2 PUSH2 0x53A0 JUMP JUMPDEST DUP3 MSTORE POP POP JUMP JUMPDEST PUSH0 PUSH1 0x20 DUP3 ADD SWAP1 POP PUSH2 0x53D3 PUSH0 DUP4 ADD DUP5 PUSH2 0x53B1 JUMP JUMPDEST SWAP3 SWAP2 POP POP JUMP JUMPDEST PUSH32 0x4F776E61626C653A2063616C6C6572206973206E6F7420746865206F776E6572 PUSH0 DUP3 ADD MSTORE POP JUMP JUMPDEST PUSH0 PUSH2 0x540D PUSH1 0x20 DUP4 PUSH2 0x4DA4 JUMP JUMPDEST SWAP2 POP PUSH2 0x5418 DUP3 PUSH2 0x53D9 JUMP JUMPDEST PUSH1 0x20 DUP3 ADD SWAP1 POP SWAP2 SWAP1 POP JUMP JUMPDEST PUSH0 PUSH1 0x20 DUP3 ADD SWAP1 POP DUP2 DUP2 SUB PUSH0 DUP4 ADD MSTORE PUSH2 0x543A DUP2 PUSH2 0x5401 JUMP JUMPDEST SWAP1 POP SWAP2 SWAP1 POP JUMP JUMPDEST PUSH0 PUSH1 0x40 DUP3 ADD SWAP1 POP PUSH2 0x5454 PUSH0 DUP4 ADD DUP6 PUSH2 0x4F6D JUMP JUMPDEST PUSH2 0x5461 PUSH1 0x20 DUP4 ADD DUP5 PUSH2 0x4F45 JUMP JUMPDEST SWAP4 SWAP3 POP POP POP JUMP JUMPDEST PUSH0 DUP2 MLOAD SWAP1 POP PUSH2 0x5476 DUP2 PUSH2 0x505D JUMP JUMPDEST SWAP3 SWAP2 POP POP JUMP JUMPDEST PUSH0 PUSH1 0x20 DUP3 DUP5 SUB SLT ISZERO PUSH2 0x5491 JUMPI PUSH2 0x5490 PUSH2 0x4CD6 JUMP JUMPDEST JUMPDEST PUSH0 PUSH2 0x549E DUP5 DUP3 DUP6 ADD PUSH2 0x5468 JUMP JUMPDEST SWAP2 POP POP SWAP3 SWAP2 POP POP JUMP JUMPDEST PUSH32 0x45524332303A207472616E7366657220616D6F756E7420657863656564732061 PUSH0 DUP3 ADD MSTORE PUSH32 0x6C6C6F77616E6365000000000000000000000000000000000000000000000000 PUSH1 0x20 DUP3 ADD MSTORE POP JUMP JUMPDEST PUSH0 PUSH2 0x5501 PUSH1 0x28 DUP4 PUSH2 0x4DA4 JUMP JUMPDEST SWAP2 POP PUSH2 0x550C DUP3 PUSH2 0x54A7 JUMP JUMPDEST PUSH1 0x40 DUP3 ADD SWAP1 POP SWAP2 SWAP1 POP JUMP JUMPDEST PUSH0 PUSH1 0x20 DUP3 ADD SWAP1 POP DUP2 DUP2 SUB PUSH0 DUP4 ADD MSTORE PUSH2 0x552E DUP2 PUSH2 0x54F5 JUMP JUMPDEST SWAP1 POP SWAP2 SWAP1 POP JUMP JUMPDEST PUSH32 0x4E487B7100000000000000000000000000000000000000000000000000000000 PUSH0 MSTORE PUSH1 0x11 PUSH1 0x4 MSTORE PUSH1 0x24 PUSH0 REVERT JUMPDEST PUSH0 PUSH2 0x556C DUP3 PUSH2 0x4CDE JUMP JUMPDEST SWAP2 POP PUSH2 0x5577 DUP4 PUSH2 0x4CDE JUMP JUMPDEST SWAP3 POP DUP3 DUP3 SUB SWAP1 POP DUP2 DUP2 GT ISZERO PUSH2 0x558F JUMPI PUSH2 0x558E PUSH2 0x5535 JUMP JUMPDEST JUMPDEST SWAP3 SWAP2 POP POP JUMP JUMPDEST PUSH32 0x416D6F756E74206D757374206265206C657373207468616E20746F74616C2072 PUSH0 DUP3 ADD MSTORE PUSH32 0x65666C656374696F6E7300000000000000000000000000000000000000000000 PUSH1 0x20 DUP3 ADD MSTORE POP JUMP JUMPDEST PUSH0 PUSH2 0x55EF PUSH1 0x2A DUP4 PUSH2 0x4DA4 JUMP JUMPDEST SWAP2 POP PUSH2 0x55FA DUP3 PUSH2 0x5595 JUMP JUMPDEST PUSH1 0x40 DUP3 ADD SWAP1 POP SWAP2 SWAP1 POP JUMP JUMPDEST PUSH0 PUSH1 0x20 DUP3 ADD SWAP1 POP DUP2 DUP2 SUB PUSH0 DUP4 ADD MSTORE PUSH2 0x561C DUP2 PUSH2 0x55E3 JUMP JUMPDEST SWAP1 POP SWAP2 SWAP1 POP JUMP JUMPDEST PUSH32 0x4E487B7100000000000000000000000000000000000000000000000000000000 PUSH0 MSTORE PUSH1 0x12 PUSH1 0x4 MSTORE PUSH1 0x24 PUSH0 REVERT JUMPDEST PUSH0 PUSH2 0x565A DUP3 PUSH2 0x4CDE JUMP JUMPDEST SWAP2 POP PUSH2 0x5665 DUP4 PUSH2 0x4CDE JUMP JUMPDEST SWAP3 POP DUP3 PUSH2 0x5675 JUMPI PUSH2 0x5674 PUSH2 0x5623 JUMP JUMPDEST JUMPDEST DUP3 DUP3 DIV SWAP1 POP SWAP3 SWAP2 POP POP JUMP JUMPDEST PUSH32 0x4163636F756E74206973206E6F74206578636C75646564000000000000000000 PUSH0 DUP3 ADD MSTORE POP JUMP JUMPDEST PUSH0 PUSH2 0x56B4 PUSH1 0x17 DUP4 PUSH2 0x4DA4 JUMP JUMPDEST SWAP2 POP PUSH2 0x56BF DUP3 PUSH2 0x5680 JUMP JUMPDEST PUSH1 0x20 DUP3 ADD SWAP1 POP SWAP2 SWAP1 POP JUMP JUMPDEST PUSH0 PUSH1 0x20 DUP3 ADD SWAP1 POP DUP2 DUP2 SUB PUSH0 DUP4 ADD MSTORE PUSH2 0x56E1 DUP2 PUSH2 0x56A8 JUMP JUMPDEST SWAP1 POP SWAP2 SWAP1 POP JUMP JUMPDEST PUSH32 0x4E487B7100000000000000000000000000000000000000000000000000000000 PUSH0 MSTORE PUSH1 0x32 PUSH1 0x4 MSTORE PUSH1 0x24 PUSH0 REVERT JUMPDEST PUSH32 0x4E487B7100000000000000000000000000000000000000000000000000000000 PUSH0 MSTORE PUSH1 0x31 PUSH1 0x4 MSTORE PUSH1 0x24 PUSH0 REVERT JUMPDEST PUSH0 PUSH2 0x574C DUP3 PUSH2 0x4CDE JUMP JUMPDEST SWAP2 POP PUSH2 0x5757 DUP4 PUSH2 0x4CDE JUMP JUMPDEST SWAP3 POP DUP3 DUP3 ADD SWAP1 POP DUP1 DUP3 GT ISZERO PUSH2 0x576F JUMPI PUSH2 0x576E PUSH2 0x5535 JUMP JUMPDEST JUMPDEST SWAP3 SWAP2 POP POP JUMP JUMPDEST PUSH32 0x416D6F756E74206D757374206265206C657373207468616E20737570706C7900 PUSH0 DUP3 ADD MSTORE POP JUMP JUMPDEST PUSH0 PUSH2 0x57A9 PUSH1 0x1F DUP4 PUSH2 0x4DA4 JUMP JUMPDEST SWAP2 POP PUSH2 0x57B4 DUP3 PUSH2 0x5775 JUMP JUMPDEST PUSH1 0x20 DUP3 ADD SWAP1 POP SWAP2 SWAP1 POP JUMP JUMPDEST PUSH0 PUSH1 0x20 DUP3 ADD SWAP1 POP DUP2 DUP2 SUB PUSH0 DUP4 ADD MSTORE PUSH2 0x57D6 DUP2 PUSH2 0x579D JUMP JUMPDEST SWAP1 POP SWAP2 SWAP1 POP JUMP JUMPDEST PUSH32 0x57616C6C657420616C7265616479207365740000000000000000000000000000 PUSH0 DUP3 ADD MSTORE POP JUMP JUMPDEST PUSH0 PUSH2 0x5811 PUSH1 0x12 DUP4 PUSH2 0x4DA4 JUMP JUMPDEST SWAP2 POP PUSH2 0x581C DUP3 PUSH2 0x57DD JUMP JUMPDEST PUSH1 0x20 DUP3 ADD SWAP1 POP SWAP2 SWAP1 POP JUMP JUMPDEST PUSH0 PUSH1 0x20 DUP3 ADD SWAP1 POP DUP2 DUP2 SUB PUSH0 DUP4 ADD MSTORE PUSH2 0x583E DUP2 PUSH2 0x5805 JUMP JUMPDEST SWAP1 POP SWAP2 SWAP1 POP JUMP JUMPDEST PUSH32 0x4163636F756E7420697320616C7265616479206578636C756465640000000000 PUSH0 DUP3 ADD MSTORE POP JUMP JUMPDEST PUSH0 PUSH2 0x5879 PUSH1 0x1B DUP4 PUSH2 0x4DA4 JUMP JUMPDEST SWAP2 POP PUSH2 0x5884 DUP3 PUSH2 0x5845 JUMP JUMPDEST PUSH1 0x20 DUP3 ADD SWAP1 POP SWAP2 SWAP1 POP JUMP JUMPDEST PUSH0 PUSH1 0x20 DUP3 ADD SWAP1 POP DUP2 DUP2 SUB PUSH0 DUP4 ADD MSTORE PUSH2 0x58A6 DUP2 PUSH2 0x586D JUMP JUMPDEST SWAP1 POP SWAP2 SWAP1 POP JUMP JUMPDEST PUSH0 PUSH2 0x58B7 DUP3 PUSH2 0x4CDE JUMP JUMPDEST SWAP2 POP PUSH2 0x58C2 DUP4 PUSH2 0x4CDE JUMP JUMPDEST SWAP3 POP DUP3 DUP3 MUL PUSH2 0x58D0 DUP2 PUSH2 0x4CDE JUMP JUMPDEST SWAP2 POP DUP3 DUP3 DIV DUP5 EQ DUP4 ISZERO OR PUSH2 0x58E7 JUMPI PUSH2 0x58E6 PUSH2 0x5535 JUMP JUMPDEST JUMPDEST POP SWAP3 SWAP2 POP POP JUMP JUMPDEST PUSH32 0x696E73756666696369656E74204554482062616C616E63650000000000000000 PUSH0 DUP3 ADD MSTORE POP JUMP JUMPDEST PUSH0 PUSH2 0x5922 PUSH1 0x18 DUP4 PUSH2 0x4DA4 JUMP JUMPDEST SWAP2 POP PUSH2 0x592D DUP3 PUSH2 0x58EE JUMP JUMPDEST PUSH1 0x20 DUP3 ADD SWAP1 POP SWAP2 SWAP1 POP JUMP JUMPDEST PUSH0 PUSH1 0x20 DUP3 ADD SWAP1 POP DUP2 DUP2 SUB PUSH0 DUP4 ADD MSTORE PUSH2 0x594F DUP2 PUSH2 0x5916 JUMP JUMPDEST SWAP1 POP SWAP2 SWAP1 POP JUMP JUMPDEST PUSH32 0x45524332303A2064656372656173656420616C6C6F77616E63652062656C6F77 PUSH0 DUP3 ADD MSTORE PUSH32 0x207A65726F000000000000000000000000000000000000000000000000000000 PUSH1 0x20 DUP3 ADD MSTORE POP JUMP JUMPDEST PUSH0 PUSH2 0x59B0 PUSH1 0x25 DUP4 PUSH2 0x4DA4 JUMP JUMPDEST SWAP2 POP PUSH2 0x59BB DUP3 PUSH2 0x5956 JUMP JUMPDEST PUSH1 0x40 DUP3 ADD SWAP1 POP SWAP2 SWAP1 POP JUMP JUMPDEST PUSH0 PUSH1 0x20 DUP3 ADD SWAP1 POP DUP2 DUP2 SUB PUSH0 DUP4 ADD MSTORE PUSH2 0x59DD DUP2 PUSH2 0x59A4 JUMP JUMPDEST SWAP1 POP SWAP2 SWAP1 POP JUMP JUMPDEST PUSH32 0x54726164696E672069732063757272656E746C792064697361626C65642E0000 PUSH0 DUP3 ADD MSTORE POP JUMP JUMPDEST PUSH0 PUSH2 0x5A18 PUSH1 0x1E DUP4 PUSH2 0x4DA4 JUMP JUMPDEST SWAP2 POP PUSH2 0x5A23 DUP3 PUSH2 0x59E4 JUMP JUMPDEST PUSH1 0x20 DUP3 ADD SWAP1 POP SWAP2 SWAP1 POP JUMP JUMPDEST PUSH0 PUSH1 0x20 DUP3 ADD SWAP1 POP DUP2 DUP2 SUB PUSH0 DUP4 ADD MSTORE PUSH2 0x5A45 DUP2 PUSH2 0x5A0C JUMP JUMPDEST SWAP1 POP SWAP2 SWAP1 POP JUMP JUMPDEST PUSH0 DUP2 PUSH1 0x1 SHR SWAP1 POP SWAP2 SWAP1 POP JUMP JUMPDEST PUSH0 PUSH0 DUP3 SWAP2 POP DUP4 SWAP1 POP JUMPDEST PUSH1 0x1 DUP6 GT ISZERO PUSH2 0x5AA1 JUMPI DUP1 DUP7 DIV DUP2 GT ISZERO PUSH2 0x5A7D JUMPI PUSH2 0x5A7C PUSH2 0x5535 JUMP JUMPDEST JUMPDEST PUSH1 0x1 DUP6 AND ISZERO PUSH2 0x5A8C JUMPI DUP1 DUP3 MUL SWAP2 POP JUMPDEST DUP1 DUP2 MUL SWAP1 POP PUSH2 0x5A9A DUP6 PUSH2 0x5A4C JUMP JUMPDEST SWAP5 POP PUSH2 0x5A61 JUMP JUMPDEST SWAP5 POP SWAP5 SWAP3 POP POP POP JUMP JUMPDEST PUSH0 DUP3 PUSH2 0x5AB9 JUMPI PUSH1 0x1 SWAP1 POP PUSH2 0x5B74 JUMP JUMPDEST DUP2 PUSH2 0x5AC6 JUMPI PUSH0 SWAP1 POP PUSH2 0x5B74 JUMP JUMPDEST DUP2 PUSH1 0x1 DUP2 EQ PUSH2 0x5ADC JUMPI PUSH1 0x2 DUP2 EQ PUSH2 0x5AE6 JUMPI PUSH2 0x5B15 JUMP JUMPDEST PUSH1 0x1 SWAP2 POP POP PUSH2 0x5B74 JUMP JUMPDEST PUSH1 0xFF DUP5 GT ISZERO PUSH2 0x5AF8 JUMPI PUSH2 0x5AF7 PUSH2 0x5535 JUMP JUMPDEST JUMPDEST DUP4 PUSH1 0x2 EXP SWAP2 POP DUP5 DUP3 GT ISZERO PUSH2 0x5B0F JUMPI PUSH2 0x5B0E PUSH2 0x5535 JUMP JUMPDEST JUMPDEST POP PUSH2 0x5B74 JUMP JUMPDEST POP PUSH1 0x20 DUP4 LT PUSH2 0x133 DUP4 LT AND PUSH1 0x4E DUP5 LT PUSH1 0xB DUP5 LT AND OR ISZERO PUSH2 0x5B4A JUMPI DUP3 DUP3 EXP SWAP1 POP DUP4 DUP2 GT ISZERO PUSH2 0x5B45 JUMPI PUSH2 0x5B44 PUSH2 0x5535 JUMP JUMPDEST JUMPDEST PUSH2 0x5B74 JUMP JUMPDEST PUSH2 0x5B57 DUP5 DUP5 DUP5 PUSH1 0x1 PUSH2 0x5A58 JUMP JUMPDEST SWAP3 POP SWAP1 POP DUP2 DUP5 DIV DUP2 GT ISZERO PUSH2 0x5B6E JUMPI PUSH2 0x5B6D PUSH2 0x5535 JUMP JUMPDEST JUMPDEST DUP2 DUP2 MUL SWAP1 POP JUMPDEST SWAP4 SWAP3 POP POP POP JUMP JUMPDEST PUSH0 PUSH2 0x5B85 DUP3 PUSH2 0x4CDE JUMP JUMPDEST SWAP2 POP PUSH2 0x5B90 DUP4 PUSH2 0x4FC0 JUMP JUMPDEST SWAP3 POP PUSH2 0x5BBD PUSH32 0xFFFFFFFFFFFFFFFFFFFFFFFFFFFFFFFFFFFFFFFFFFFFFFFFFFFFFFFFFFFFFFFF DUP5 DUP5 PUSH2 0x5AAA JUMP JUMPDEST SWAP1 POP SWAP3 SWAP2 POP POP JUMP JUMPDEST PUSH32 0x56616C756520616C726561647920736574000000000000000000000000000000 PUSH0 DUP3 ADD MSTORE POP JUMP JUMPDEST PUSH0 PUSH2 0x5BF9 PUSH1 0x11 DUP4 PUSH2 0x4DA4 JUMP JUMPDEST SWAP2 POP PUSH2 0x5C04 DUP3 PUSH2 0x5BC5 JUMP JUMPDEST PUSH1 0x20 DUP3 ADD SWAP1 POP SWAP2 SWAP1 POP JUMP JUMPDEST PUSH0 PUSH1 0x20 DUP3 ADD SWAP1 POP DUP2 DUP2 SUB PUSH0 DUP4 ADD MSTORE PUSH2 0x5C26 DUP2 PUSH2 0x5BED JUMP JUMPDEST SWAP1 POP SWAP2 SWAP1 POP JUMP JUMPDEST PUSH32 0x4F776E61626C653A206E6577206F776E657220697320746865207A65726F2061 PUSH0 DUP3 ADD MSTORE PUSH32 0x6464726573730000000000000000000000000000000000000000000000000000 PUSH1 0x20 DUP3 ADD MSTORE POP JUMP JUMPDEST PUSH0 PUSH2 0x5C87 PUSH1 0x26 DUP4 PUSH2 0x4DA4 JUMP JUMPDEST SWAP2 POP PUSH2 0x5C92 DUP3 PUSH2 0x5C2D JUMP JUMPDEST PUSH1 0x40 DUP3 ADD SWAP1 POP SWAP2 SWAP1 POP JUMP JUMPDEST PUSH0 PUSH1 0x20 DUP3 ADD SWAP1 POP DUP2 DUP2 SUB PUSH0 DUP4 ADD MSTORE PUSH2 0x5CB4 DUP2 PUSH2 0x5C7B JUMP JUMPDEST SWAP1 POP SWAP2 SWAP1 POP JUMP JUMPDEST PUSH32 0x45524332303A20617070726F76652066726F6D20746865207A65726F20616464 PUSH0 DUP3 ADD MSTORE PUSH32 0x7265737300000000000000000000000000000000000000000000000000000000 PUSH1 0x20 DUP3 ADD MSTORE POP JUMP JUMPDEST PUSH0 PUSH2 0x5D15 PUSH1 0x24 DUP4 PUSH2 0x4DA4 JUMP JUMPDEST SWAP2 POP PUSH2 0x5D20 DUP3 PUSH2 0x5CBB JUMP JUMPDEST PUSH1 0x40 DUP3 ADD SWAP1 POP SWAP2 SWAP1 POP JUMP JUMPDEST PUSH0 PUSH1 0x20 DUP3 ADD SWAP1 POP DUP2 DUP2 SUB PUSH0 DUP4 ADD MSTORE PUSH2 0x5D42 DUP2 PUSH2 0x5D09 JUMP JUMPDEST SWAP1 POP SWAP2 SWAP1 POP JUMP JUMPDEST PUSH32 0x45524332303A20617070726F766520746F20746865207A65726F206164647265 PUSH0 DUP3 ADD MSTORE PUSH32 0x7373000000000000000000000000000000000000000000000000000000000000 PUSH1 0x20 DUP3 ADD MSTORE POP JUMP JUMPDEST PUSH0 PUSH2 0x5DA3 PUSH1 0x22 DUP4 PUSH2 0x4DA4 JUMP JUMPDEST SWAP2 POP PUSH2 0x5DAE DUP3 PUSH2 0x5D49 JUMP JUMPDEST PUSH1 0x40 DUP3 ADD SWAP1 POP SWAP2 SWAP1 POP JUMP JUMPDEST PUSH0 PUSH1 0x20 DUP3 ADD SWAP1 POP DUP2 DUP2 SUB PUSH0 DUP4 ADD MSTORE PUSH2 0x5DD0 DUP2 PUSH2 0x5D97 JUMP JUMPDEST SWAP1 POP SWAP2 SWAP1 POP JUMP JUMPDEST PUSH32 0x45524332303A207472616E736665722066726F6D20746865207A65726F206164 PUSH0 DUP3 ADD MSTORE PUSH32 0x6472657373000000000000000000000000000000000000000000000000000000 PUSH1 0x20 DUP3 ADD MSTORE POP JUMP JUMPDEST PUSH0 PUSH2 0x5E31 PUSH1 0x25 DUP4 PUSH2 0x4DA4 JUMP JUMPDEST SWAP2 POP PUSH2 0x5E3C DUP3 PUSH2 0x5DD7 JUMP JUMPDEST PUSH1 0x40 DUP3 ADD SWAP1 POP SWAP2 SWAP1 POP JUMP JUMPDEST PUSH0 PUSH1 0x20 DUP3 ADD SWAP1 POP DUP2 DUP2 SUB PUSH0 DUP4 ADD MSTORE PUSH2 0x5E5E DUP2 PUSH2 0x5E25 JUMP JUMPDEST SWAP1 POP SWAP2 SWAP1 POP JUMP JUMPDEST PUSH32 0x45524332303A207472616E7366657220746F20746865207A65726F2061646472 PUSH0 DUP3 ADD MSTORE PUSH32 0x6573730000000000000000000000000000000000000000000000000000000000 PUSH1 0x20 DUP3 ADD MSTORE POP JUMP JUMPDEST PUSH0 PUSH2 0x5EBF PUSH1 0x23 DUP4 PUSH2 0x4DA4 JUMP JUMPDEST SWAP2 POP PUSH2 0x5ECA DUP3 PUSH2 0x5E65 JUMP JUMPDEST PUSH1 0x40 DUP3 ADD SWAP1 POP SWAP2 SWAP1 POP JUMP JUMPDEST PUSH0 PUSH1 0x20 DUP3 ADD SWAP1 POP DUP2 DUP2 SUB PUSH0 DUP4 ADD MSTORE PUSH2 0x5EEC DUP2 PUSH2 0x5EB3 JUMP JUMPDEST SWAP1 POP SWAP2 SWAP1 POP JUMP JUMPDEST PUSH32 0x5472616E7366657220616D6F756E74206D757374206265206772656174657220 PUSH0 DUP3 ADD MSTORE PUSH32 0x7468616E207A65726F0000000000000000000000000000000000000000000000 PUSH1 0x20 DUP3 ADD MSTORE POP JUMP JUMPDEST PUSH0 PUSH2 0x5F4D PUSH1 0x29 DUP4 PUSH2 0x4DA4 JUMP JUMPDEST SWAP2 POP PUSH2 0x5F58 DUP3 PUSH2 0x5EF3 JUMP JUMPDEST PUSH1 0x40 DUP3 ADD SWAP1 POP SWAP2 SWAP1 POP JUMP JUMPDEST PUSH0 PUSH1 0x20 DUP3 ADD SWAP1 POP DUP2 DUP2 SUB PUSH0 DUP4 ADD MSTORE PUSH2 0x5F7A DUP2 PUSH2 0x5F41 JUMP JUMPDEST SWAP1 POP SWAP2 SWAP1 POP JUMP JUMPDEST PUSH32 0x596F752061726520747279696E6720746F207472616E73666572206D6F726520 PUSH0 DUP3 ADD MSTORE PUSH32 0x7468616E20796F75722062616C616E6365000000000000000000000000000000 PUSH1 0x20 DUP3 ADD MSTORE POP JUMP JUMPDEST PUSH0 PUSH2 0x5FDB PUSH1 0x31 DUP4 PUSH2 0x4DA4 JUMP JUMPDEST SWAP2 POP PUSH2 0x5FE6 DUP3 PUSH2 0x5F81 JUMP JUMPDEST PUSH1 0x40 DUP3 ADD SWAP1 POP SWAP2 SWAP1 POP JUMP JUMPDEST PUSH0 PUSH1 0x20 DUP3 ADD SWAP1 POP DUP2 DUP2 SUB PUSH0 DUP4 ADD MSTORE PUSH2 0x6008 DUP2 PUSH2 0x5FCF JUMP JUMPDEST SWAP1 POP SWAP2 SWAP1 POP JUMP JUMPDEST PUSH32 0x596F7520617265206120626F7400000000000000000000000000000000000000 PUSH0 DUP3 ADD MSTORE POP JUMP JUMPDEST PUSH0 PUSH2 0x6043 PUSH1 0xD DUP4 PUSH2 0x4DA4 JUMP JUMPDEST SWAP2 POP PUSH2 0x604E DUP3 PUSH2 0x600F JUMP JUMPDEST PUSH1 0x20 DUP3 ADD SWAP1 POP SWAP2 SWAP1 POP JUMP JUMPDEST PUSH0 PUSH1 0x20 DUP3 ADD SWAP1 POP DUP2 DUP2 SUB PUSH0 DUP4 ADD MSTORE PUSH2 0x6070 DUP2 PUSH2 0x6037 JUMP JUMPDEST SWAP1 POP SWAP2 SWAP1 POP JUMP JUMPDEST PUSH32 0x416D6F756E7420697320657863656564696E67206D61785478416D6F756E7400 PUSH0 DUP3 ADD MSTORE POP JUMP JUMPDEST PUSH0 PUSH2 0x60AB PUSH1 0x1F DUP4 PUSH2 0x4DA4 JUMP JUMPDEST SWAP2 POP PUSH2 0x60B6 DUP3 PUSH2 0x6077 JUMP JUMPDEST PUSH1 0x20 DUP3 ADD SWAP1 POP SWAP2 SWAP1 POP JUMP JUMPDEST PUSH0 PUSH1 0x20 DUP3 ADD SWAP1 POP DUP2 DUP2 SUB PUSH0 DUP4 ADD MSTORE PUSH2 0x60D8 DUP2 PUSH2 0x609F JUMP JUMPDEST SWAP1 POP SWAP2 SWAP1 POP JUMP JUMPDEST PUSH32 0x596F75206D757374207761697420636F6F6C446F776E54696D65000000000000 PUSH0 DUP3 ADD MSTORE POP JUMP JUMPDEST PUSH0 PUSH2 0x6113 PUSH1 0x1A DUP4 PUSH2 0x4DA4 JUMP JUMPDEST SWAP2 POP PUSH2 0x611E DUP3 PUSH2 0x60DF JUMP JUMPDEST PUSH1 0x20 DUP3 ADD SWAP1 POP SWAP2 SWAP1 POP JUMP JUMPDEST PUSH0 PUSH1 0x20 DUP3 ADD SWAP1 POP DUP2 DUP2 SUB PUSH0 DUP4 ADD MSTORE PUSH2 0x6140 DUP2 PUSH2 0x6107 JUMP JUMPDEST SWAP1 POP SWAP2 SWAP1 POP JUMP JUMPDEST PUSH0 DUP2 MLOAD SWAP1 POP PUSH2 0x6155 DUP2 PUSH2 0x4E5A JUMP JUMPDEST SWAP3 SWAP2 POP POP JUMP JUMPDEST PUSH0 PUSH1 0x20 DUP3 DUP5 SUB SLT ISZERO PUSH2 0x6170 JUMPI PUSH2 0x616F PUSH2 0x4CD6 JUMP JUMPDEST JUMPDEST PUSH0 PUSH2 0x617D DUP5 DUP3 DUP6 ADD PUSH2 0x6147 JUMP JUMPDEST SWAP2 POP POP SWAP3 SWAP2 POP POP JUMP JUMPDEST PUSH0 DUP2 SWAP1 POP SWAP2 SWAP1 POP JUMP JUMPDEST PUSH0 PUSH2 0x61A9 PUSH2 0x61A4 PUSH2 0x619F DUP5 PUSH2 0x6186 JUMP JUMPDEST PUSH2 0x5365 JUMP JUMPDEST PUSH2 0x4CDE JUMP JUMPDEST SWAP1 POP SWAP2 SWAP1 POP JUMP JUMPDEST PUSH2 0x61B9 DUP2 PUSH2 0x618F JUMP JUMPDEST DUP3 MSTORE POP POP JUMP JUMPDEST PUSH0 DUP2 MLOAD SWAP1 POP SWAP2 SWAP1 POP JUMP JUMPDEST PUSH0 DUP3 DUP3 MSTORE PUSH1 0x20 DUP3 ADD SWAP1 POP SWAP3 SWAP2 POP POP JUMP JUMPDEST PUSH0 DUP2 SWAP1 POP PUSH1 0x20 DUP3 ADD SWAP1 POP SWAP2 SWAP1 POP JUMP JUMPDEST PUSH2 0x61F1 DUP2 PUSH2 0x4E49 JUMP JUMPDEST DUP3 MSTORE POP POP JUMP JUMPDEST PUSH0 PUSH2 0x6202 DUP4 DUP4 PUSH2 0x61E8 JUMP JUMPDEST PUSH1 0x20 DUP4 ADD SWAP1 POP SWAP3 SWAP2 POP POP JUMP JUMPDEST PUSH0 PUSH1 0x20 DUP3 ADD SWAP1 POP SWAP2 SWAP1 POP JUMP JUMPDEST PUSH0 PUSH2 0x6224 DUP3 PUSH2 0x61BF JUMP JUMPDEST PUSH2 0x622E DUP2 DUP6 PUSH2 0x61C9 JUMP JUMPDEST SWAP4 POP PUSH2 0x6239 DUP4 PUSH2 0x61D9 JUMP JUMPDEST DUP1 PUSH0 JUMPDEST DUP4 DUP2 LT ISZERO PUSH2 0x6269 JUMPI DUP2 MLOAD PUSH2 0x6250 DUP9 DUP3 PUSH2 0x61F7 JUMP JUMPDEST SWAP8 POP PUSH2 0x625B DUP4 PUSH2 0x620E JUMP JUMPDEST SWAP3 POP POP PUSH1 0x1 DUP2 ADD SWAP1 POP PUSH2 0x623C JUMP JUMPDEST POP DUP6 SWAP4 POP POP POP POP SWAP3 SWAP2 POP POP JUMP JUMPDEST PUSH0 PUSH1 0xA0 DUP3 ADD SWAP1 POP PUSH2 0x6289 PUSH0 DUP4 ADD DUP9 PUSH2 0x4F45 JUMP JUMPDEST PUSH2 0x6296 PUSH1 0x20 DUP4 ADD DUP8 PUSH2 0x61B0 JUMP JUMPDEST DUP2 DUP2 SUB PUSH1 0x40 DUP4 ADD MSTORE PUSH2 0x62A8 DUP2 DUP7 PUSH2 0x621A JUMP JUMPDEST SWAP1 POP PUSH2 0x62B7 PUSH1 0x60 DUP4 ADD DUP6 PUSH2 0x4F6D JUMP JUMPDEST PUSH2 0x62C4 PUSH1 0x80 DUP4 ADD DUP5 PUSH2 0x4F45 JUMP JUMPDEST SWAP7 SWAP6 POP POP POP POP POP POP JUMP JUMPDEST PUSH0 PUSH1 0xC0 DUP3 ADD SWAP1 POP PUSH2 0x62E1 PUSH0 DUP4 ADD DUP10 PUSH2 0x4F6D JUMP JUMPDEST PUSH2 0x62EE PUSH1 0x20 DUP4 ADD DUP9 PUSH2 0x4F45 JUMP JUMPDEST PUSH2 0x62FB PUSH1 0x40 DUP4 ADD DUP8 PUSH2 0x61B0 JUMP JUMPDEST PUSH2 0x6308 PUSH1 0x60 DUP4 ADD DUP7 PUSH2 0x61B0 JUMP JUMPDEST PUSH2 0x6315 PUSH1 0x80 DUP4 ADD DUP6 PUSH2 0x4F6D JUMP JUMPDEST PUSH2 0x6322 PUSH1 0xA0 DUP4 ADD DUP5 PUSH2 0x4F45 JUMP JUMPDEST SWAP8 SWAP7 POP POP POP POP POP POP POP JUMP JUMPDEST PUSH0 DUP2 MLOAD SWAP1 POP PUSH2 0x633B DUP2 PUSH2 0x4CE7 JUMP JUMPDEST SWAP3 SWAP2 POP POP JUMP JUMPDEST PUSH0 PUSH0 PUSH0 PUSH1 0x60 DUP5 DUP7 SUB SLT ISZERO PUSH2 0x6358 JUMPI PUSH2 0x6357 PUSH2 0x4CD6 JUMP JUMPDEST JUMPDEST PUSH0 PUSH2 0x6365 DUP7 DUP3 DUP8 ADD PUSH2 0x632D JUMP JUMPDEST SWAP4 POP POP PUSH1 0x20 PUSH2 0x6376 DUP7 DUP3 DUP8 ADD PUSH2 0x632D JUMP JUMPDEST SWAP3 POP POP PUSH1 0x40 PUSH2 0x6387 DUP7 DUP3 DUP8 ADD PUSH2 0x632D JUMP JUMPDEST SWAP2 POP POP SWAP3 POP SWAP3 POP SWAP3 JUMP INVALID LOG2 PUSH5 0x6970667358 0x22 SLT KECCAK256 PUSH0 0xBD PUSH28 0xEAFB23A69DFA6B3240559313B7EED5F71A32521E3B16558FB2F9F5CF DUP11 PUSH5 0x736F6C6343 STOP ADDMOD SHL STOP CALLER "
		},
		"gasEstimates": {
			"creation": {
				"codeDepositCost": "5108600",
				"executionCost": "infinite",
				"totalCost": "infinite"
			},
			"external": {
				"_lastTrade(address)": "2914",
				"allowance(address,address)": "infinite",
				"approve(address,uint256)": "infinite",
				"balanceOf(address)": "infinite",
				"bulkAntiBot(address[],bool)": "infinite",
				"charityAddress()": "2619",
				"coolDownEnabled()": "2577",
				"coolDownTime()": "2514",
				"deadAddress()": "442",
				"decimals()": "451",
				"decreaseAllowance(address,uint256)": "infinite",
				"devAddress()": "2620",
				"excludeFromFee(address)": "27107",
				"excludeFromReward(address)": "infinite",
				"includeInFee(address)": "27127",
				"includeInReward(address)": "infinite",
				"increaseAllowance(address,uint256)": "infinite",
				"isBot(address)": "3004",
				"isExcludedFromFee(address)": "2938",
				"isExcludedFromReward(address)": "2981",
				"marketingAddress()": "2598",
				"maxTxAmount()": "2471",
				"name()": "infinite",
				"owner()": "2582",
				"pair()": "2575",
				"reflectionFromToken(uint256,bool)": "infinite",
				"renounceOwnership()": "30430",
				"rescueAnyERC20Tokens(address,address,uint256)": "infinite",
				"rescueETH(uint256)": "infinite",
				"router()": "infinite",
				"setAntibot(address,bool)": "29628",
				"setTaxes(uint256,uint256,uint256,uint256,uint256,uint256)": "infinite",
				"setTradingState(bool)": "27020",
				"swapEnabled()": "2556",
				"swapTokensAtAmount()": "2492",
				"symbol()": "infinite",
				"taxes()": "infinite",
				"tokenFromReflection(uint256)": "infinite",
				"totFeesPaid()": "infinite",
				"totalSupply()": "2567",
				"tradingEnabled()": "2607",
				"transfer(address,uint256)": "infinite",
				"transferFrom(address,address,uint256)": "infinite",
				"transferOwnership(address)": "30770",
				"updatMaxTxAmt(uint256)": "infinite",
				"updateCoolDownSettings(bool,uint256)": "infinite",
				"updateRouterAndPair(address,address)": "infinite",
				"updateSwapEnabled(bool)": "26999",
				"updateSwapTokensAtAmount(uint256)": "infinite",
				"updatecharityWallet(address)": "33587",
				"updatedevWallet(address)": "33607",
				"updatemarketingWallet(address)": "33520"
			},
			"internal": {
				"_approve(address,address,uint256)": "infinite",
				"_getCurrentSupply()": "infinite",
				"_getRValues(struct MediTokenV2.valuesFromGetValues memory,uint256,bool,uint256)": "infinite",
				"_getRate()": "infinite",
				"_getTValues(uint256,bool)": "infinite",
				"_getValues(uint256,bool)": "infinite",
				"_reflectRfi(uint256,uint256)": "infinite",
				"_takeBurn(uint256,uint256)": "infinite",
				"_takeCharity(uint256,uint256)": "infinite",
				"_takeDev(uint256,uint256)": "infinite",
				"_takeLiquidity(uint256,uint256)": "infinite",
				"_takeMarketing(uint256,uint256)": "infinite",
				"_tokenTransfer(address,address,uint256,bool)": "infinite",
				"_transfer(address,address,uint256)": "infinite",
				"addLiquidity(uint256,uint256)": "infinite",
				"swapAndLiquify(uint256)": "infinite",
				"swapTokensForETH(uint256)": "infinite"
			}
		},
		"methodIdentifiers": {
			"_lastTrade(address)": "a87859f6",
			"allowance(address,address)": "dd62ed3e",
			"approve(address,uint256)": "095ea7b3",
			"balanceOf(address)": "70a08231",
			"bulkAntiBot(address[],bool)": "b31470a4",
			"charityAddress()": "afcf2fc4",
			"coolDownEnabled()": "ee36e359",
			"coolDownTime()": "d2ce0db2",
			"deadAddress()": "27c8f835",
			"decimals()": "313ce567",
			"decreaseAllowance(address,uint256)": "a457c2d7",
			"devAddress()": "3ad10ef6",
			"excludeFromFee(address)": "437823ec",
			"excludeFromReward(address)": "52390c02",
			"includeInFee(address)": "ea2f0b37",
			"includeInReward(address)": "3685d419",
			"increaseAllowance(address,uint256)": "39509351",
			"isBot(address)": "3bbac579",
			"isExcludedFromFee(address)": "5342acb4",
			"isExcludedFromReward(address)": "88f82020",
			"marketingAddress()": "a5ece941",
			"maxTxAmount()": "8c0b5e22",
			"name()": "06fdde03",
			"owner()": "8da5cb5b",
			"pair()": "a8aa1b31",
			"reflectionFromToken(uint256,bool)": "4549b039",
			"renounceOwnership()": "715018a6",
			"rescueAnyERC20Tokens(address,address,uint256)": "0d65df9b",
			"rescueETH(uint256)": "9e252f00",
			"router()": "f887ea40",
			"setAntibot(address,bool)": "e1165545",
			"setTaxes(uint256,uint256,uint256,uint256,uint256,uint256)": "04d4c990",
			"setTradingState(bool)": "d5ccb8ee",
			"swapEnabled()": "6ddd1713",
			"swapTokensAtAmount()": "e2f45605",
			"symbol()": "95d89b41",
			"taxes()": "728f8eea",
			"tokenFromReflection(uint256)": "2d838119",
			"totFeesPaid()": "9ba5e4d5",
			"totalSupply()": "18160ddd",
			"tradingEnabled()": "4ada218b",
			"transfer(address,uint256)": "a9059cbb",
			"transferFrom(address,address,uint256)": "23b872dd",
			"transferOwnership(address)": "f2fde38b",
			"updatMaxTxAmt(uint256)": "f965aa1d",
			"updateCoolDownSettings(bool,uint256)": "8c0ae3df",
			"updateRouterAndPair(address,address)": "40b28c2f",
			"updateSwapEnabled(bool)": "924de9b7",
			"updateSwapTokensAtAmount(uint256)": "d257b34f",
			"updatecharityWallet(address)": "49244cb0",
			"updatedevWallet(address)": "fc170441",
			"updatemarketingWallet(address)": "bff78169"
		}
	},
	"abi": [
		{
			"inputs": [],
			"stateMutability": "nonpayable",
			"type": "constructor"
		},
		{
			"anonymous": false,
			"inputs": [
				{
					"indexed": true,
					"internalType": "address",
					"name": "owner",
					"type": "address"
				},
				{
					"indexed": true,
					"internalType": "address",
					"name": "spender",
					"type": "address"
				},
				{
					"indexed": false,
					"internalType": "uint256",
					"name": "value",
					"type": "uint256"
				}
			],
			"name": "Approval",
			"type": "event"
		},
		{
			"anonymous": false,
			"inputs": [],
			"name": "FeesChanged",
			"type": "event"
		},
		{
			"anonymous": false,
			"inputs": [
				{
					"indexed": true,
					"internalType": "address",
					"name": "previousOwner",
					"type": "address"
				},
				{
					"indexed": true,
					"internalType": "address",
					"name": "newOwner",
					"type": "address"
				}
			],
			"name": "OwnershipTransferred",
			"type": "event"
		},
		{
			"anonymous": false,
			"inputs": [
				{
					"indexed": true,
					"internalType": "address",
					"name": "from",
					"type": "address"
				},
				{
					"indexed": true,
					"internalType": "address",
					"name": "to",
					"type": "address"
				},
				{
					"indexed": false,
					"internalType": "uint256",
					"name": "value",
					"type": "uint256"
				}
			],
			"name": "Transfer",
			"type": "event"
		},
		{
			"anonymous": false,
			"inputs": [
				{
					"indexed": false,
					"internalType": "address",
					"name": "oldRouter",
					"type": "address"
				},
				{
					"indexed": false,
					"internalType": "address",
					"name": "newRouter",
					"type": "address"
				}
			],
			"name": "UpdatedRouter",
			"type": "event"
		},
		{
			"inputs": [
				{
					"internalType": "address",
					"name": "",
					"type": "address"
				}
			],
			"name": "_lastTrade",
			"outputs": [
				{
					"internalType": "uint256",
					"name": "",
					"type": "uint256"
				}
			],
			"stateMutability": "view",
			"type": "function"
		},
		{
			"inputs": [
				{
					"internalType": "address",
					"name": "owner",
					"type": "address"
				},
				{
					"internalType": "address",
					"name": "spender",
					"type": "address"
				}
			],
			"name": "allowance",
			"outputs": [
				{
					"internalType": "uint256",
					"name": "",
					"type": "uint256"
				}
			],
			"stateMutability": "view",
			"type": "function"
		},
		{
			"inputs": [
				{
					"internalType": "address",
					"name": "spender",
					"type": "address"
				},
				{
					"internalType": "uint256",
					"name": "amount",
					"type": "uint256"
				}
			],
			"name": "approve",
			"outputs": [
				{
					"internalType": "bool",
					"name": "",
					"type": "bool"
				}
			],
			"stateMutability": "nonpayable",
			"type": "function"
		},
		{
			"inputs": [
				{
					"internalType": "address",
					"name": "account",
					"type": "address"
				}
			],
			"name": "balanceOf",
			"outputs": [
				{
					"internalType": "uint256",
					"name": "",
					"type": "uint256"
				}
			],
			"stateMutability": "view",
			"type": "function"
		},
		{
			"inputs": [
				{
					"internalType": "address[]",
					"name": "accounts",
					"type": "address[]"
				},
				{
					"internalType": "bool",
					"name": "state",
					"type": "bool"
				}
			],
			"name": "bulkAntiBot",
			"outputs": [],
			"stateMutability": "nonpayable",
			"type": "function"
		},
		{
			"inputs": [],
			"name": "charityAddress",
			"outputs": [
				{
					"internalType": "address",
					"name": "",
					"type": "address"
				}
			],
			"stateMutability": "view",
			"type": "function"
		},
		{
			"inputs": [],
			"name": "coolDownEnabled",
			"outputs": [
				{
					"internalType": "bool",
					"name": "",
					"type": "bool"
				}
			],
			"stateMutability": "view",
			"type": "function"
		},
		{
			"inputs": [],
			"name": "coolDownTime",
			"outputs": [
				{
					"internalType": "uint256",
					"name": "",
					"type": "uint256"
				}
			],
			"stateMutability": "view",
			"type": "function"
		},
		{
			"inputs": [],
			"name": "deadAddress",
			"outputs": [
				{
					"internalType": "address",
					"name": "",
					"type": "address"
				}
			],
			"stateMutability": "view",
			"type": "function"
		},
		{
			"inputs": [],
			"name": "decimals",
			"outputs": [
				{
					"internalType": "uint8",
					"name": "",
					"type": "uint8"
				}
			],
			"stateMutability": "pure",
			"type": "function"
		},
		{
			"inputs": [
				{
					"internalType": "address",
					"name": "spender",
					"type": "address"
				},
				{
					"internalType": "uint256",
					"name": "subtractedValue",
					"type": "uint256"
				}
			],
			"name": "decreaseAllowance",
			"outputs": [
				{
					"internalType": "bool",
					"name": "",
					"type": "bool"
				}
			],
			"stateMutability": "nonpayable",
			"type": "function"
		},
		{
			"inputs": [],
			"name": "devAddress",
			"outputs": [
				{
					"internalType": "address",
					"name": "",
					"type": "address"
				}
			],
			"stateMutability": "view",
			"type": "function"
		},
		{
			"inputs": [
				{
					"internalType": "address",
					"name": "account",
					"type": "address"
				}
			],
			"name": "excludeFromFee",
			"outputs": [],
			"stateMutability": "nonpayable",
			"type": "function"
		},
		{
			"inputs": [
				{
					"internalType": "address",
					"name": "account",
					"type": "address"
				}
			],
			"name": "excludeFromReward",
			"outputs": [],
			"stateMutability": "nonpayable",
			"type": "function"
		},
		{
			"inputs": [
				{
					"internalType": "address",
					"name": "account",
					"type": "address"
				}
			],
			"name": "includeInFee",
			"outputs": [],
			"stateMutability": "nonpayable",
			"type": "function"
		},
		{
			"inputs": [
				{
					"internalType": "address",
					"name": "account",
					"type": "address"
				}
			],
			"name": "includeInReward",
			"outputs": [],
			"stateMutability": "nonpayable",
			"type": "function"
		},
		{
			"inputs": [
				{
					"internalType": "address",
					"name": "spender",
					"type": "address"
				},
				{
					"internalType": "uint256",
					"name": "addedValue",
					"type": "uint256"
				}
			],
			"name": "increaseAllowance",
			"outputs": [
				{
					"internalType": "bool",
					"name": "",
					"type": "bool"
				}
			],
			"stateMutability": "nonpayable",
			"type": "function"
		},
		{
			"inputs": [
				{
					"internalType": "address",
					"name": "account",
					"type": "address"
				}
			],
			"name": "isBot",
			"outputs": [
				{
					"internalType": "bool",
					"name": "",
					"type": "bool"
				}
			],
			"stateMutability": "view",
			"type": "function"
		},
		{
			"inputs": [
				{
					"internalType": "address",
					"name": "account",
					"type": "address"
				}
			],
			"name": "isExcludedFromFee",
			"outputs": [
				{
					"internalType": "bool",
					"name": "",
					"type": "bool"
				}
			],
			"stateMutability": "view",
			"type": "function"
		},
		{
			"inputs": [
				{
					"internalType": "address",
					"name": "account",
					"type": "address"
				}
			],
			"name": "isExcludedFromReward",
			"outputs": [
				{
					"internalType": "bool",
					"name": "",
					"type": "bool"
				}
			],
			"stateMutability": "view",
			"type": "function"
		},
		{
			"inputs": [],
			"name": "marketingAddress",
			"outputs": [
				{
					"internalType": "address",
					"name": "",
					"type": "address"
				}
			],
			"stateMutability": "view",
			"type": "function"
		},
		{
			"inputs": [],
			"name": "maxTxAmount",
			"outputs": [
				{
					"internalType": "uint256",
					"name": "",
					"type": "uint256"
				}
			],
			"stateMutability": "view",
			"type": "function"
		},
		{
			"inputs": [],
			"name": "name",
			"outputs": [
				{
					"internalType": "string",
					"name": "",
					"type": "string"
				}
			],
			"stateMutability": "pure",
			"type": "function"
		},
		{
			"inputs": [],
			"name": "owner",
			"outputs": [
				{
					"internalType": "address",
					"name": "",
					"type": "address"
				}
			],
			"stateMutability": "view",
			"type": "function"
		},
		{
			"inputs": [],
			"name": "pair",
			"outputs": [
				{
					"internalType": "address",
					"name": "",
					"type": "address"
				}
			],
			"stateMutability": "view",
			"type": "function"
		},
		{
			"inputs": [
				{
					"internalType": "uint256",
					"name": "tAmount",
					"type": "uint256"
				},
				{
					"internalType": "bool",
					"name": "deductTransferRfi",
					"type": "bool"
				}
			],
			"name": "reflectionFromToken",
			"outputs": [
				{
					"internalType": "uint256",
					"name": "",
					"type": "uint256"
				}
			],
			"stateMutability": "view",
			"type": "function"
		},
		{
			"inputs": [],
			"name": "renounceOwnership",
			"outputs": [],
			"stateMutability": "nonpayable",
			"type": "function"
		},
		{
			"inputs": [
				{
					"internalType": "address",
					"name": "_tokenAddr",
					"type": "address"
				},
				{
					"internalType": "address",
					"name": "_to",
					"type": "address"
				},
				{
					"internalType": "uint256",
					"name": "_amount",
					"type": "uint256"
				}
			],
			"name": "rescueAnyERC20Tokens",
			"outputs": [],
			"stateMutability": "nonpayable",
			"type": "function"
		},
		{
			"inputs": [
				{
					"internalType": "uint256",
					"name": "weiAmount",
					"type": "uint256"
				}
			],
			"name": "rescueETH",
			"outputs": [],
			"stateMutability": "nonpayable",
			"type": "function"
		},
		{
			"inputs": [],
			"name": "router",
			"outputs": [
				{
					"internalType": "contract IRouter",
					"name": "",
					"type": "address"
				}
			],
			"stateMutability": "view",
			"type": "function"
		},
		{
			"inputs": [
				{
					"internalType": "address",
					"name": "account",
					"type": "address"
				},
				{
					"internalType": "bool",
					"name": "state",
					"type": "bool"
				}
			],
			"name": "setAntibot",
			"outputs": [],
			"stateMutability": "nonpayable",
			"type": "function"
		},
		{
			"inputs": [
				{
					"internalType": "uint256",
					"name": "_rfi",
					"type": "uint256"
				},
				{
					"internalType": "uint256",
					"name": "_charity",
					"type": "uint256"
				},
				{
					"internalType": "uint256",
					"name": "_dev",
					"type": "uint256"
				},
				{
					"internalType": "uint256",
					"name": "_marketing",
					"type": "uint256"
				},
				{
					"internalType": "uint256",
					"name": "_liquidity",
					"type": "uint256"
				},
				{
					"internalType": "uint256",
					"name": "_burn",
					"type": "uint256"
				}
			],
			"name": "setTaxes",
			"outputs": [],
			"stateMutability": "nonpayable",
			"type": "function"
		},
		{
			"inputs": [
				{
					"internalType": "bool",
					"name": "_state",
					"type": "bool"
				}
			],
			"name": "setTradingState",
			"outputs": [],
			"stateMutability": "nonpayable",
			"type": "function"
		},
		{
			"inputs": [],
			"name": "swapEnabled",
			"outputs": [
				{
					"internalType": "bool",
					"name": "",
					"type": "bool"
				}
			],
			"stateMutability": "view",
			"type": "function"
		},
		{
			"inputs": [],
			"name": "swapTokensAtAmount",
			"outputs": [
				{
					"internalType": "uint256",
					"name": "",
					"type": "uint256"
				}
			],
			"stateMutability": "view",
			"type": "function"
		},
		{
			"inputs": [],
			"name": "symbol",
			"outputs": [
				{
					"internalType": "string",
					"name": "",
					"type": "string"
				}
			],
			"stateMutability": "pure",
			"type": "function"
		},
		{
			"inputs": [],
			"name": "taxes",
			"outputs": [
				{
					"internalType": "uint256",
					"name": "rfi",
					"type": "uint256"
				},
				{
					"internalType": "uint256",
					"name": "burn",
					"type": "uint256"
				},
				{
					"internalType": "uint256",
					"name": "liquidity",
					"type": "uint256"
				},
				{
					"internalType": "uint256",
					"name": "charity",
					"type": "uint256"
				},
				{
					"internalType": "uint256",
					"name": "dev",
					"type": "uint256"
				},
				{
					"internalType": "uint256",
					"name": "marketing",
					"type": "uint256"
				}
			],
			"stateMutability": "view",
			"type": "function"
		},
		{
			"inputs": [
				{
					"internalType": "uint256",
					"name": "rAmount",
					"type": "uint256"
				}
			],
			"name": "tokenFromReflection",
			"outputs": [
				{
					"internalType": "uint256",
					"name": "",
					"type": "uint256"
				}
			],
			"stateMutability": "view",
			"type": "function"
		},
		{
			"inputs": [],
			"name": "totFeesPaid",
			"outputs": [
				{
					"internalType": "uint256",
					"name": "rfi",
					"type": "uint256"
				},
				{
					"internalType": "uint256",
					"name": "burn",
					"type": "uint256"
				},
				{
					"internalType": "uint256",
					"name": "liquidity",
					"type": "uint256"
				},
				{
					"internalType": "uint256",
					"name": "charity",
					"type": "uint256"
				},
				{
					"internalType": "uint256",
					"name": "dev",
					"type": "uint256"
				},
				{
					"internalType": "uint256",
					"name": "marketing",
					"type": "uint256"
				}
			],
			"stateMutability": "view",
			"type": "function"
		},
		{
			"inputs": [],
			"name": "totalSupply",
			"outputs": [
				{
					"internalType": "uint256",
					"name": "",
					"type": "uint256"
				}
			],
			"stateMutability": "view",
			"type": "function"
		},
		{
			"inputs": [],
			"name": "tradingEnabled",
			"outputs": [
				{
					"internalType": "bool",
					"name": "",
					"type": "bool"
				}
			],
			"stateMutability": "view",
			"type": "function"
		},
		{
			"inputs": [
				{
					"internalType": "address",
					"name": "recipient",
					"type": "address"
				},
				{
					"internalType": "uint256",
					"name": "amount",
					"type": "uint256"
				}
			],
			"name": "transfer",
			"outputs": [
				{
					"internalType": "bool",
					"name": "",
					"type": "bool"
				}
			],
			"stateMutability": "nonpayable",
			"type": "function"
		},
		{
			"inputs": [
				{
					"internalType": "address",
					"name": "sender",
					"type": "address"
				},
				{
					"internalType": "address",
					"name": "recipient",
					"type": "address"
				},
				{
					"internalType": "uint256",
					"name": "amount",
					"type": "uint256"
				}
			],
			"name": "transferFrom",
			"outputs": [
				{
					"internalType": "bool",
					"name": "",
					"type": "bool"
				}
			],
			"stateMutability": "nonpayable",
			"type": "function"
		},
		{
			"inputs": [
				{
					"internalType": "address",
					"name": "newOwner",
					"type": "address"
				}
			],
			"name": "transferOwnership",
			"outputs": [],
			"stateMutability": "nonpayable",
			"type": "function"
		},
		{
			"inputs": [
				{
					"internalType": "uint256",
					"name": "amount",
					"type": "uint256"
				}
			],
			"name": "updatMaxTxAmt",
			"outputs": [],
			"stateMutability": "nonpayable",
			"type": "function"
		},
		{
			"inputs": [
				{
					"internalType": "bool",
					"name": "_enabled",
					"type": "bool"
				},
				{
					"internalType": "uint256",
					"name": "_timeInSeconds",
					"type": "uint256"
				}
			],
			"name": "updateCoolDownSettings",
			"outputs": [],
			"stateMutability": "nonpayable",
			"type": "function"
		},
		{
			"inputs": [
				{
					"internalType": "address",
					"name": "newRouter",
					"type": "address"
				},
				{
					"internalType": "address",
					"name": "newPair",
					"type": "address"
				}
			],
			"name": "updateRouterAndPair",
			"outputs": [],
			"stateMutability": "nonpayable",
			"type": "function"
		},
		{
			"inputs": [
				{
					"internalType": "bool",
					"name": "_enabled",
					"type": "bool"
				}
			],
			"name": "updateSwapEnabled",
			"outputs": [],
			"stateMutability": "nonpayable",
			"type": "function"
		},
		{
			"inputs": [
				{
					"internalType": "uint256",
					"name": "amount",
					"type": "uint256"
				}
			],
			"name": "updateSwapTokensAtAmount",
			"outputs": [],
			"stateMutability": "nonpayable",
			"type": "function"
		},
		{
			"inputs": [
				{
					"internalType": "address",
					"name": "newWallet",
					"type": "address"
				}
			],
			"name": "updatecharityWallet",
			"outputs": [],
			"stateMutability": "nonpayable",
			"type": "function"
		},
		{
			"inputs": [
				{
					"internalType": "address",
					"name": "newWallet",
					"type": "address"
				}
			],
			"name": "updatedevWallet",
			"outputs": [],
			"stateMutability": "nonpayable",
			"type": "function"
		},
		{
			"inputs": [
				{
					"internalType": "address",
					"name": "newWallet",
					"type": "address"
				}
			],
			"name": "updatemarketingWallet",
			"outputs": [],
			"stateMutability": "nonpayable",
			"type": "function"
		},
		{
			"stateMutability": "payable",
			"type": "receive"
		}
	]
}