{
	"token-staking(copy)(copy)/contracts/Staking.sol": {
		"Staking": {
			"abi": [
				{
					"inputs": [
						{
							"internalType": "address",
							"name": "oilerToken_",
							"type": "address"
						},
						{
							"internalType": "uint256",
							"name": "stakingDurationInBlocks_",
							"type": "uint256"
						},
						{
							"internalType": "uint256",
							"name": "stakingFundAmount_",
							"type": "uint256"
						},
						{
							"internalType": "uint256",
							"name": "vestingDuration_",
							"type": "uint256"
						},
						{
							"internalType": "address",
							"name": "owner_",
							"type": "address"
						}
					],
					"stateMutability": "nonpayable",
					"type": "constructor"
				},
				{
					"anonymous": false,
					"inputs": [
						{
							"indexed": false,
							"internalType": "address",
							"name": "recipient",
							"type": "address"
						},
						{
							"indexed": false,
							"internalType": "uint256",
							"name": "amountEarned",
							"type": "uint256"
						}
					],
					"name": "RewardGranted",
					"type": "event"
				},
				{
					"anonymous": false,
					"inputs": [
						{
							"indexed": false,
							"internalType": "address",
							"name": "recipient",
							"type": "address"
						},
						{
							"indexed": false,
							"internalType": "uint256",
							"name": "tokenAmount",
							"type": "uint256"
						},
						{
							"indexed": false,
							"internalType": "uint256",
							"name": "lockingPeriodInBlocks",
							"type": "uint256"
						},
						{
							"indexed": false,
							"internalType": "uint256",
							"name": "expectedStakingRewardPoints",
							"type": "uint256"
						}
					],
					"name": "StakeLocked",
					"type": "event"
				},
				{
					"anonymous": false,
					"inputs": [
						{
							"indexed": false,
							"internalType": "address",
							"name": "recipient",
							"type": "address"
						},
						{
							"indexed": false,
							"internalType": "uint256",
							"name": "tokenAmount",
							"type": "uint256"
						},
						{
							"indexed": false,
							"internalType": "uint256",
							"name": "lockingPeriodInBlocks",
							"type": "uint256"
						},
						{
							"indexed": false,
							"internalType": "uint256",
							"name": "rewardPoints",
							"type": "uint256"
						}
					],
					"name": "StakeUnlocked",
					"type": "event"
				},
				{
					"anonymous": false,
					"inputs": [
						{
							"indexed": false,
							"internalType": "address",
							"name": "recipient",
							"type": "address"
						},
						{
							"indexed": false,
							"internalType": "uint256",
							"name": "tokenAmount",
							"type": "uint256"
						},
						{
							"indexed": false,
							"internalType": "uint256",
							"name": "lockingPeriodInBlocks",
							"type": "uint256"
						},
						{
							"indexed": false,
							"internalType": "uint256",
							"name": "actualLockingPeriodInBlocks",
							"type": "uint256"
						}
					],
					"name": "StakeUnlockedPrematurely",
					"type": "event"
				},
				{
					"anonymous": false,
					"inputs": [
						{
							"indexed": false,
							"internalType": "address",
							"name": "recipient",
							"type": "address"
						},
						{
							"indexed": false,
							"internalType": "uint256",
							"name": "amount",
							"type": "uint256"
						}
					],
					"name": "grantedTokensReleased",
					"type": "event"
				},
				{
					"inputs": [
						{
							"internalType": "uint72",
							"name": "tokenAmount_",
							"type": "uint72"
						},
						{
							"internalType": "uint24",
							"name": "lockingPeriodInBlocks_",
							"type": "uint24"
						}
					],
					"name": "calculateStakingRewardPoints",
					"outputs": [
						{
							"internalType": "uint128",
							"name": "",
							"type": "uint128"
						}
					],
					"stateMutability": "pure",
					"type": "function"
				},
				{
					"inputs": [],
					"name": "getRewards",
					"outputs": [],
					"stateMutability": "nonpayable",
					"type": "function"
				},
				{
					"inputs": [
						{
							"internalType": "address",
							"name": "",
							"type": "address"
						}
					],
					"name": "grantedTokens",
					"outputs": [
						{
							"internalType": "uint256",
							"name": "",
							"type": "uint256"
						}
					],
					"stateMutability": "view",
					"type": "function"
				},
				{
					"inputs": [
						{
							"internalType": "uint72",
							"name": "tokenAmount_",
							"type": "uint72"
						},
						{
							"internalType": "uint24",
							"name": "lockingPeriodInBlocks_",
							"type": "uint24"
						}
					],
					"name": "lockTokens",
					"outputs": [],
					"stateMutability": "nonpayable",
					"type": "function"
				},
				{
					"inputs": [],
					"name": "oilerToken",
					"outputs": [
						{
							"internalType": "contract IERC20",
							"name": "",
							"type": "address"
						}
					],
					"stateMutability": "view",
					"type": "function"
				},
				{
					"inputs": [],
					"name": "owner",
					"outputs": [
						{
							"internalType": "address",
							"name": "",
							"type": "address"
						}
					],
					"stateMutability": "view",
					"type": "function"
				},
				{
					"inputs": [],
					"name": "poolToken",
					"outputs": [
						{
							"internalType": "contract IERC20",
							"name": "",
							"type": "address"
						}
					],
					"stateMutability": "view",
					"type": "function"
				},
				{
					"inputs": [],
					"name": "release",
					"outputs": [],
					"stateMutability": "nonpayable",
					"type": "function"
				},
				{
					"inputs": [
						{
							"internalType": "address",
							"name": "",
							"type": "address"
						}
					],
					"name": "releasedTokens",
					"outputs": [
						{
							"internalType": "uint256",
							"name": "",
							"type": "uint256"
						}
					],
					"stateMutability": "view",
					"type": "function"
				},
				{
					"inputs": [
						{
							"internalType": "address",
							"name": "",
							"type": "address"
						}
					],
					"name": "rewardPointsEarned",
					"outputs": [
						{
							"internalType": "uint256",
							"name": "",
							"type": "uint256"
						}
					],
					"stateMutability": "view",
					"type": "function"
				},
				{
					"inputs": [
						{
							"internalType": "address",
							"name": "poolToken_",
							"type": "address"
						},
						{
							"internalType": "address",
							"name": "stakingFundAddress_",
							"type": "address"
						}
					],
					"name": "setPoolToken",
					"outputs": [],
					"stateMutability": "nonpayable",
					"type": "function"
				},
				{
					"inputs": [
						{
							"internalType": "address",
							"name": "",
							"type": "address"
						}
					],
					"name": "stakes",
					"outputs": [
						{
							"internalType": "uint72",
							"name": "tokenAmount",
							"type": "uint72"
						},
						{
							"internalType": "uint24",
							"name": "lockingPeriodInBlocks",
							"type": "uint24"
						},
						{
							"internalType": "uint32",
							"name": "startBlock",
							"type": "uint32"
						},
						{
							"internalType": "uint128",
							"name": "expectedStakingRewardPoints",
							"type": "uint128"
						}
					],
					"stateMutability": "view",
					"type": "function"
				},
				{
					"inputs": [],
					"name": "stakingFundAmount",
					"outputs": [
						{
							"internalType": "uint256",
							"name": "",
							"type": "uint256"
						}
					],
					"stateMutability": "view",
					"type": "function"
				},
				{
					"inputs": [],
					"name": "stakingProgramEndsBlock",
					"outputs": [
						{
							"internalType": "uint256",
							"name": "",
							"type": "uint256"
						}
					],
					"stateMutability": "view",
					"type": "function"
				},
				{
					"inputs": [],
					"name": "totalRewardPoints",
					"outputs": [
						{
							"internalType": "uint256",
							"name": "",
							"type": "uint256"
						}
					],
					"stateMutability": "view",
					"type": "function"
				},
				{
					"inputs": [],
					"name": "unlockTokens",
					"outputs": [],
					"stateMutability": "nonpayable",
					"type": "function"
				},
				{
					"inputs": [],
					"name": "vestingDuration",
					"outputs": [
						{
							"internalType": "uint256",
							"name": "",
							"type": "uint256"
						}
					],
					"stateMutability": "view",
					"type": "function"
				}
			],
			"devdoc": {
				"kind": "dev",
				"methods": {
					"calculateStakingRewardPoints(uint72,uint24)": {
						"details": "If any parameter is zero - it will fail, thus we save gas on \"requires\" by not checking in other places",
						"params": {
							"lockingPeriodInBlocks_": "- Lock duration defined in blocks.",
							"tokenAmount_": "- Amount of tokens to be stake."
						}
					},
					"constructor": {
						"details": "before deploying the stakingFundAddress must have set allowances on behalf of that contract. The address can be predicted basing on the CREATE or CREATE2 opcode.",
						"params": {
							"oilerToken_": "- address of the token in which rewards will be payed off.",
							"owner_": "- Owner of the contract (is used to initialize poolToken after it's available).",
							"stakingDurationInBlocks_": "- Number of blocks after which staking will end.",
							"stakingFundAmount_": "- Amount of tokens to be payed of as rewards.",
							"vestingDuration_": "- Number of blocks after which OIL tokens earned by staking will be released (duration of Vesting period)."
						}
					},
					"getRewards()": {
						"details": "Which means that all stakes lock periods are already over, and totalRewardPoints value isn't changing anymore - so we can now calculate the percentages of rewards"
					},
					"lockTokens(uint72,uint24)": {
						"params": {
							"lockingPeriodInBlocks_": "- locking period duration defined in blocks.",
							"tokenAmount_": "- Amount of LP tokens to be locked."
						}
					}
				},
				"stateVariables": {
					"owner": {
						"details": "Owner is used only in setPoolToken()"
					},
					"vestingDuration": {
						"details": "In blocks - should be around 100 days"
					}
				},
				"version": 1
			},
			"evm": {
				"assembly": "    /* \"token-staking(copy)(copy)/contracts/Staking.sol\":2612:17827  contract Staking {... */\n  mstore(0x40, 0x0120)\n    /* \"token-staking(copy)(copy)/contracts/Staking.sol\":7116:7669  constructor(address oilerToken_, uint256 stakingDurationInBlocks_, uint256 stakingFundAmount_, uint256 vestingDuration_, address owner_) {... */\n  callvalue\n  dup1\n  iszero\n  tag_1\n  jumpi\n  0x00\n  dup1\n  revert\ntag_1:\n  pop\n  mload(0x40)\n  sub(codesize, bytecodeSize)\n  dup1\n  bytecodeSize\n  dup4\n  codecopy\n  dup2\n  add\n  0x40\n  dup2\n  swap1\n  mstore\n  tag_2\n  swap2\n  tag_3\n  jump\t// in\ntag_2:\n  sub(shl(0xa0, 0x01), 0x01)\n    /* \"token-staking(copy)(copy)/contracts/Staking.sol\":7271:7293  owner_ != address(0x0) */\n  dup2\n  and\n    /* \"token-staking(copy)(copy)/contracts/Staking.sol\":7263:7326  require(owner_ != address(0x0), \"Owner address cannot be zero\") */\n  tag_6\n  jumpi\n  mload(0x40)\n  shl(0xe5, 0x461bcd)\n  dup2\n  mstore\n    /* \"#utility.yul\":891:893   */\n  0x20\n    /* \"token-staking(copy)(copy)/contracts/Staking.sol\":7263:7326  require(owner_ != address(0x0), \"Owner address cannot be zero\") */\n  0x04\n  dup3\n  add\n    /* \"#utility.yul\":873:894   */\n  mstore\n    /* \"#utility.yul\":930:932   */\n  0x1c\n    /* \"#utility.yul\":910:928   */\n  0x24\n  dup3\n  add\n    /* \"#utility.yul\":903:933   */\n  mstore\n    /* \"#utility.yul\":969:999   */\n  0x4f776e657220616464726573732063616e6e6f74206265207a65726f00000000\n    /* \"#utility.yul\":949:967   */\n  0x44\n  dup3\n  add\n    /* \"#utility.yul\":942:1000   */\n  mstore\n    /* \"#utility.yul\":1017:1035   */\n  0x64\n  add\n    /* \"token-staking(copy)(copy)/contracts/Staking.sol\":7263:7326  require(owner_ != address(0x0), \"Owner address cannot be zero\") */\ntag_7:\n  mload(0x40)\n  dup1\n  swap2\n  sub\n  swap1\n  revert\ntag_6:\n  not(sub(shl(0x60, 0x01), 0x01))\n    /* \"token-staking(copy)(copy)/contracts/Staking.sol\":7336:7350  owner = owner_ */\n  0x60\n  dup3\n  swap1\n  shl\n  and\n  0x0100\n  mstore\n  sub(shl(0xa0, 0x01), 0x01)\n    /* \"token-staking(copy)(copy)/contracts/Staking.sol\":7369:7396  oilerToken_ != address(0x0) */\n  dup6\n  and\n    /* \"token-staking(copy)(copy)/contracts/Staking.sol\":7361:7434  require(oilerToken_ != address(0x0), \"oilerToken address cannot be zero\") */\n  tag_9\n  jumpi\n  mload(0x40)\n  shl(0xe5, 0x461bcd)\n  dup2\n  mstore\n    /* \"#utility.yul\":1248:1250   */\n  0x20\n    /* \"token-staking(copy)(copy)/contracts/Staking.sol\":7361:7434  require(oilerToken_ != address(0x0), \"oilerToken address cannot be zero\") */\n  0x04\n  dup3\n  add\n    /* \"#utility.yul\":1230:1251   */\n  mstore\n    /* \"#utility.yul\":1287:1289   */\n  0x21\n    /* \"#utility.yul\":1267:1285   */\n  0x24\n  dup3\n  add\n    /* \"#utility.yul\":1260:1290   */\n  mstore\n    /* \"#utility.yul\":1326:1360   */\n  0x6f696c6572546f6b656e20616464726573732063616e6e6f74206265207a6572\n    /* \"#utility.yul\":1306:1324   */\n  0x44\n  dup3\n  add\n    /* \"#utility.yul\":1299:1361   */\n  mstore\n  shl(0xf8, 0x6f)\n    /* \"#utility.yul\":1377:1395   */\n  0x64\n  dup3\n  add\n    /* \"#utility.yul\":1370:1401   */\n  mstore\n    /* \"#utility.yul\":1418:1437   */\n  0x84\n  add\n    /* \"token-staking(copy)(copy)/contracts/Staking.sol\":7361:7434  require(oilerToken_ != address(0x0), \"oilerToken address cannot be zero\") */\n  tag_7\n    /* \"#utility.yul\":1220:1443   */\n  jump\n    /* \"token-staking(copy)(copy)/contracts/Staking.sol\":7361:7434  require(oilerToken_ != address(0x0), \"oilerToken address cannot be zero\") */\ntag_9:\n  not(sub(shl(0x60, 0x01), 0x01))\n    /* \"token-staking(copy)(copy)/contracts/Staking.sol\":7444:7476  oilerToken = IERC20(oilerToken_) */\n  0x60\n  dup7\n  swap1\n  shl\n  and\n  0xc0\n  mstore\n    /* \"token-staking(copy)(copy)/contracts/Staking.sol\":7521:7560  block.number + stakingDurationInBlocks_ */\n  tag_12\n    /* \"token-staking(copy)(copy)/contracts/Staking.sol\":7536:7560  stakingDurationInBlocks_ */\n  dup5\n    /* \"token-staking(copy)(copy)/contracts/Staking.sol\":7521:7533  block.number */\n  number\n    /* \"token-staking(copy)(copy)/contracts/Staking.sol\":7521:7560  block.number + stakingDurationInBlocks_ */\n  tag_13\n  jump\t// in\ntag_12:\n    /* \"token-staking(copy)(copy)/contracts/Staking.sol\":7495:7560  stakingProgramEndsBlock = block.number + stakingDurationInBlocks_ */\n  0x80\n  mstore\n  pop\n    /* \"token-staking(copy)(copy)/contracts/Staking.sol\":7570:7604  vestingDuration = vestingDuration_ */\n  0xe0\n  mstore\n    /* \"token-staking(copy)(copy)/contracts/Staking.sol\":7624:7662  stakingFundAmount = stakingFundAmount_ */\n  0xa0\n  mstore\n  pop\n    /* \"token-staking(copy)(copy)/contracts/Staking.sol\":2612:17827  contract Staking {... */\n  tag_15\n  swap1\n  pop\n  jump\n    /* \"#utility.yul\":14:191   */\ntag_16:\n    /* \"#utility.yul\":93:106   */\n  dup1\n  mload\n  sub(shl(0xa0, 0x01), 0x01)\n    /* \"#utility.yul\":135:166   */\n  dup2\n  and\n    /* \"#utility.yul\":125:167   */\n  dup2\n  eq\n    /* \"#utility.yul\":115:117   */\n  tag_18\n  jumpi\n    /* \"#utility.yul\":181:182   */\n  0x00\n    /* \"#utility.yul\":178:179   */\n  dup1\n    /* \"#utility.yul\":171:183   */\n  revert\n    /* \"#utility.yul\":115:117   */\ntag_18:\n    /* \"#utility.yul\":74:191   */\n  swap2\n  swap1\n  pop\n  jump\t// out\n    /* \"#utility.yul\":196:684   */\ntag_3:\n    /* \"#utility.yul\":302:308   */\n  0x00\n    /* \"#utility.yul\":310:316   */\n  dup1\n    /* \"#utility.yul\":318:324   */\n  0x00\n    /* \"#utility.yul\":326:332   */\n  dup1\n    /* \"#utility.yul\":334:340   */\n  0x00\n    /* \"#utility.yul\":387:390   */\n  0xa0\n    /* \"#utility.yul\":375:384   */\n  dup7\n    /* \"#utility.yul\":366:373   */\n  dup9\n    /* \"#utility.yul\":362:385   */\n  sub\n    /* \"#utility.yul\":358:391   */\n  slt\n    /* \"#utility.yul\":355:357   */\n  iszero\n  tag_20\n  jumpi\n    /* \"#utility.yul\":409:415   */\n  dup1\n    /* \"#utility.yul\":401:407   */\n  dup2\n    /* \"#utility.yul\":394:416   */\n  revert\n    /* \"#utility.yul\":355:357   */\ntag_20:\n    /* \"#utility.yul\":437:477   */\n  tag_21\n    /* \"#utility.yul\":467:476   */\n  dup7\n    /* \"#utility.yul\":437:477   */\n  tag_16\n  jump\t// in\ntag_21:\n    /* \"#utility.yul\":427:477   */\n  swap5\n  pop\n    /* \"#utility.yul\":517:519   */\n  0x20\n    /* \"#utility.yul\":506:515   */\n  dup7\n    /* \"#utility.yul\":502:520   */\n  add\n    /* \"#utility.yul\":496:521   */\n  mload\n    /* \"#utility.yul\":486:521   */\n  swap4\n  pop\n    /* \"#utility.yul\":561:563   */\n  0x40\n    /* \"#utility.yul\":550:559   */\n  dup7\n    /* \"#utility.yul\":546:564   */\n  add\n    /* \"#utility.yul\":540:565   */\n  mload\n    /* \"#utility.yul\":530:565   */\n  swap3\n  pop\n    /* \"#utility.yul\":605:607   */\n  0x60\n    /* \"#utility.yul\":594:603   */\n  dup7\n    /* \"#utility.yul\":590:608   */\n  add\n    /* \"#utility.yul\":584:609   */\n  mload\n    /* \"#utility.yul\":574:609   */\n  swap2\n  pop\n    /* \"#utility.yul\":628:678   */\n  tag_22\n    /* \"#utility.yul\":673:676   */\n  0x80\n    /* \"#utility.yul\":662:671   */\n  dup8\n    /* \"#utility.yul\":658:677   */\n  add\n    /* \"#utility.yul\":628:678   */\n  tag_16\n  jump\t// in\ntag_22:\n    /* \"#utility.yul\":618:678   */\n  swap1\n  pop\n    /* \"#utility.yul\":345:684   */\n  swap3\n  swap6\n  pop\n  swap3\n  swap6\n  swap1\n  swap4\n  pop\n  jump\t// out\n    /* \"#utility.yul\":1448:1677   */\ntag_13:\n    /* \"#utility.yul\":1488:1491   */\n  0x00\n    /* \"#utility.yul\":1519:1520   */\n  dup3\n    /* \"#utility.yul\":1515:1521   */\n  not\n    /* \"#utility.yul\":1512:1513   */\n  dup3\n    /* \"#utility.yul\":1509:1522   */\n  gt\n    /* \"#utility.yul\":1506:1508   */\n  iszero\n  tag_26\n  jumpi\n  shl(0xe0, 0x4e487b71)\n    /* \"#utility.yul\":1545:1578   */\n  dup2\n  mstore\n    /* \"#utility.yul\":1601:1605   */\n  0x11\n    /* \"#utility.yul\":1598:1599   */\n  0x04\n    /* \"#utility.yul\":1591:1606   */\n  mstore\n    /* \"#utility.yul\":1631:1635   */\n  0x24\n    /* \"#utility.yul\":1552:1555   */\n  dup2\n    /* \"#utility.yul\":1619:1636   */\n  revert\n    /* \"#utility.yul\":1506:1508   */\ntag_26:\n  pop\n    /* \"#utility.yul\":1662:1671   */\n  add\n  swap1\n    /* \"#utility.yul\":1496:1677   */\n  jump\t// out\ntag_15:\n    /* \"token-staking(copy)(copy)/contracts/Staking.sol\":2612:17827  contract Staking {... */\n  mload(0x80)\n  mload(0xa0)\n  shr(0x60, mload(0xc0))\n  mload(0xe0)\n  shr(0x60, mload(0x0100))\n  codecopy(0x00, dataOffset(sub_0), dataSize(sub_0))\n  0x00\n  assignImmutable(\"0x57014f1e5f1d53e43fa40624186159531d6372d1ab8f40ec7882845ca66de31d\")\n  0x00\n  assignImmutable(\"0xbbd48b257be1b8216d144ef9be5734f8d11697959c9e0f7768bec89db74a63a3\")\n  0x00\n  assignImmutable(\"0x880de8116b3dfac28e9ff528a9fef1d1e0a51449c1addce011ffec1f302992b6\")\n  0x00\n  assignImmutable(\"0x8b953cbb84328003779eb1ef176ef07f7dd0ae3d4a8e408de53d15a36466c86e\")\n  0x00\n  assignImmutable(\"0x7749cc8014201da2069c21d93ba99c584b6f62d393fde534ed47eac227e31561\")\n  return(0x00, dataSize(sub_0))\nstop\n\nsub_0: assembly {\n        /* \"token-staking(copy)(copy)/contracts/Staking.sol\":2612:17827  contract Staking {... */\n      mstore(0x40, 0x80)\n      callvalue\n      dup1\n      iszero\n      tag_1\n      jumpi\n      0x00\n      dup1\n      revert\n    tag_1:\n      pop\n      jumpi(tag_2, lt(calldatasize, 0x04))\n      shr(0xe0, calldataload(0x00))\n      dup1\n      0x86d1a69f\n      gt\n      tag_20\n      jumpi\n      dup1\n      0xc959360b\n      gt\n      tag_21\n      jumpi\n      dup1\n      0xe0e4a722\n      gt\n      tag_22\n      jumpi\n      dup1\n      0xe0e4a722\n      eq\n      tag_17\n      jumpi\n      dup1\n      0xf6ffab88\n      eq\n      tag_18\n      jumpi\n      dup1\n      0xf968f493\n      eq\n      tag_19\n      jumpi\n      0x00\n      dup1\n      revert\n    tag_22:\n      dup1\n      0xc959360b\n      eq\n      tag_15\n      jumpi\n      dup1\n      0xcbdf382c\n      eq\n      tag_16\n      jumpi\n      0x00\n      dup1\n      revert\n    tag_21:\n      dup1\n      0x86d1a69f\n      eq\n      tag_11\n      jumpi\n      dup1\n      0x8da5cb5b\n      eq\n      tag_12\n      jumpi\n      dup1\n      0xbc0925ae\n      eq\n      tag_13\n      jumpi\n      dup1\n      0xc2e8caf6\n      eq\n      tag_14\n      jumpi\n      0x00\n      dup1\n      revert\n    tag_20:\n      dup1\n      0x52946b04\n      gt\n      tag_23\n      jumpi\n      dup1\n      0x52946b04\n      eq\n      tag_7\n      jumpi\n      dup1\n      0x70ff852b\n      eq\n      tag_8\n      jumpi\n      dup1\n      0x798633b9\n      eq\n      tag_9\n      jumpi\n      dup1\n      0x81e9207d\n      eq\n      tag_10\n      jumpi\n      0x00\n      dup1\n      revert\n    tag_23:\n      dup1\n      0x0572b0cc\n      eq\n      tag_3\n      jumpi\n      dup1\n      0x1514617e\n      eq\n      tag_4\n      jumpi\n      dup1\n      0x16934fc4\n      eq\n      tag_5\n      jumpi\n      dup1\n      0x378592c8\n      eq\n      tag_6\n      jumpi\n    tag_2:\n      0x00\n      dup1\n      revert\n        /* \"token-staking(copy)(copy)/contracts/Staking.sol\":13821:15220  function getRewards() public {... */\n    tag_3:\n      tag_24\n      tag_25\n      jump\t// in\n    tag_24:\n      stop\n        /* \"token-staking(copy)(copy)/contracts/Staking.sol\":5976:6016  uint256 immutable public vestingDuration */\n    tag_4:\n      tag_26\n      immutable(\"0xbbd48b257be1b8216d144ef9be5734f8d11697959c9e0f7768bec89db74a63a3\")\n      dup2\n      jump\n    tag_26:\n      mload(0x40)\n        /* \"#utility.yul\":13239:13264   */\n      swap1\n      dup2\n      mstore\n        /* \"#utility.yul\":13227:13229   */\n      0x20\n        /* \"#utility.yul\":13212:13230   */\n      add\n        /* \"token-staking(copy)(copy)/contracts/Staking.sol\":5976:6016  uint256 immutable public vestingDuration */\n    tag_28:\n      mload(0x40)\n      dup1\n      swap2\n      sub\n      swap1\n      return\n        /* \"token-staking(copy)(copy)/contracts/Staking.sol\":4823:4863  mapping (address => Stake) public stakes */\n    tag_5:\n      tag_30\n      tag_31\n      calldatasize\n      0x04\n      tag_32\n      jump\t// in\n    tag_31:\n      0x00\n      0x20\n      dup2\n      swap1\n      mstore\n      swap1\n      dup2\n      mstore\n      0x40\n      swap1\n      keccak256\n      sload\n      0xffffffffffffffffff\n      dup2\n      and\n      swap1\n      0x01000000000000000000\n      dup2\n      div\n      0xffffff\n      and\n      swap1\n      0x01000000000000000000000000\n      dup2\n      div\n      0xffffffff\n      and\n      swap1\n      0x0100000000000000000000000000000000\n      swap1\n      div\n      0xffffffffffffffffffffffffffffffff\n      and\n      dup5\n      jump\n    tag_30:\n      0x40\n      dup1\n      mload\n        /* \"#utility.yul\":13530:13550   */\n      0xffffffffffffffffff\n        /* \"#utility.yul\":13518:13551   */\n      swap1\n      swap6\n      and\n        /* \"#utility.yul\":13500:13552   */\n      dup6\n      mstore\n        /* \"#utility.yul\":13600:13608   */\n      0xffffff\n        /* \"#utility.yul\":13588:13609   */\n      swap1\n      swap4\n      and\n        /* \"#utility.yul\":13583:13585   */\n      0x20\n        /* \"#utility.yul\":13568:13586   */\n      dup6\n      add\n        /* \"#utility.yul\":13561:13610   */\n      mstore\n        /* \"#utility.yul\":13658:13668   */\n      0xffffffff\n        /* \"#utility.yul\":13646:13669   */\n      swap1\n      swap2\n      and\n        /* \"#utility.yul\":13626:13644   */\n      swap2\n      dup4\n      add\n        /* \"#utility.yul\":13619:13670   */\n      swap2\n      swap1\n      swap2\n      mstore\n        /* \"#utility.yul\":13718:13752   */\n      0xffffffffffffffffffffffffffffffff\n        /* \"#utility.yul\":13706:13753   */\n      and\n        /* \"#utility.yul\":13701:13703   */\n      0x60\n        /* \"#utility.yul\":13686:13704   */\n      dup3\n      add\n        /* \"#utility.yul\":13679:13754   */\n      mstore\n        /* \"#utility.yul\":13487:13490   */\n      0x80\n        /* \"#utility.yul\":13472:13491   */\n      add\n        /* \"token-staking(copy)(copy)/contracts/Staking.sol\":4823:4863  mapping (address => Stake) public stakes */\n      tag_28\n        /* \"#utility.yul\":13454:13760   */\n      jump\n        /* \"token-staking(copy)(copy)/contracts/Staking.sol\":9998:11657  function lockTokens(uint72 tokenAmount_, uint24 lockingPeriodInBlocks_) public poolTokenSet {... */\n    tag_6:\n      tag_24\n      tag_37\n      calldatasize\n      0x04\n      tag_38\n      jump\t// in\n    tag_37:\n      tag_39\n      jump\t// in\n        /* \"token-staking(copy)(copy)/contracts/Staking.sol\":5379:5421  uint256 immutable public stakingFundAmount */\n    tag_7:\n      tag_26\n      immutable(\"0x8b953cbb84328003779eb1ef176ef07f7dd0ae3d4a8e408de53d15a36466c86e\")\n      dup2\n      jump\n        /* \"token-staking(copy)(copy)/contracts/Staking.sol\":5864:5914  mapping (address => uint256) public releasedTokens */\n    tag_8:\n      tag_26\n      tag_44\n      calldatasize\n      0x04\n      tag_32\n      jump\t// in\n    tag_44:\n      mstore(0x20, 0x05)\n      0x00\n      swap1\n      dup2\n      mstore\n      0x40\n      swap1\n      keccak256\n      sload\n      dup2\n      jump\n        /* \"token-staking(copy)(copy)/contracts/Staking.sol\":8938:9605  function calculateStakingRewardPoints(uint72 tokenAmount_, uint24 lockingPeriodInBlocks_) public pure returns (uint128) {... */\n    tag_9:\n      tag_47\n      tag_48\n      calldatasize\n      0x04\n      tag_38\n      jump\t// in\n    tag_48:\n      tag_49\n      jump\t// in\n    tag_47:\n      mload(0x40)\n        /* \"#utility.yul\":13046:13080   */\n      0xffffffffffffffffffffffffffffffff\n        /* \"#utility.yul\":13034:13081   */\n      swap1\n      swap2\n      and\n        /* \"#utility.yul\":13016:13082   */\n      dup2\n      mstore\n        /* \"#utility.yul\":13004:13006   */\n      0x20\n        /* \"#utility.yul\":12989:13007   */\n      add\n        /* \"token-staking(copy)(copy)/contracts/Staking.sol\":8938:9605  function calculateStakingRewardPoints(uint72 tokenAmount_, uint24 lockingPeriodInBlocks_) public pure returns (uint128) {... */\n      tag_28\n        /* \"#utility.yul\":12971:13088   */\n      jump\n        /* \"token-staking(copy)(copy)/contracts/Staking.sol\":5579:5613  IERC20 immutable public oilerToken */\n    tag_10:\n      tag_52\n      immutable(\"0x880de8116b3dfac28e9ff528a9fef1d1e0a51449c1addce011ffec1f302992b6\")\n      dup2\n      jump\n    tag_52:\n      mload(0x40)\n        /* \"#utility.yul\":1859:1901   */\n      0xffffffffffffffffffffffffffffffffffffffff\n        /* \"#utility.yul\":1847:1902   */\n      swap1\n      swap2\n      and\n        /* \"#utility.yul\":1829:1903   */\n      dup2\n      mstore\n        /* \"#utility.yul\":1817:1819   */\n      0x20\n        /* \"#utility.yul\":1802:1820   */\n      add\n        /* \"token-staking(copy)(copy)/contracts/Staking.sol\":5579:5613  IERC20 immutable public oilerToken */\n      tag_28\n        /* \"#utility.yul\":1784:1909   */\n      jump\n        /* \"token-staking(copy)(copy)/contracts/Staking.sol\":15941:16312  function release() public {... */\n    tag_11:\n      tag_24\n      tag_57\n      jump\t// in\n        /* \"token-staking(copy)(copy)/contracts/Staking.sol\":6243:6273  address immutable public owner */\n    tag_12:\n      tag_52\n      immutable(\"0x57014f1e5f1d53e43fa40624186159531d6372d1ab8f40ec7882845ca66de31d\")\n      dup2\n      jump\n        /* \"token-staking(copy)(copy)/contracts/Staking.sol\":5198:5246  uint256 immutable public stakingProgramEndsBlock */\n    tag_13:\n      tag_26\n      immutable(\"0x7749cc8014201da2069c21d93ba99c584b6f62d393fde534ed47eac227e31561\")\n      dup2\n      jump\n        /* \"token-staking(copy)(copy)/contracts/Staking.sol\":5102:5134  uint256 public totalRewardPoints */\n    tag_14:\n      tag_26\n      sload(0x02)\n      dup2\n      jump\n        /* \"token-staking(copy)(copy)/contracts/Staking.sol\":4982:5036  mapping (address => uint256) public rewardPointsEarned */\n    tag_15:\n      tag_26\n      tag_69\n      calldatasize\n      0x04\n      tag_32\n      jump\t// in\n    tag_69:\n      mstore(0x20, 0x01)\n      0x00\n      swap1\n      dup2\n      mstore\n      0x40\n      swap1\n      keccak256\n      sload\n      dup2\n      jump\n        /* \"token-staking(copy)(copy)/contracts/Staking.sol\":5491:5514  IERC20 public poolToken */\n    tag_16:\n      sload(0x03)\n      tag_52\n      swap1\n      0xffffffffffffffffffffffffffffffffffffffff\n      and\n      dup2\n      jump\n        /* \"token-staking(copy)(copy)/contracts/Staking.sol\":5719:5768  mapping (address => uint256) public grantedTokens */\n    tag_17:\n      tag_26\n      tag_76\n      calldatasize\n      0x04\n      tag_32\n      jump\t// in\n    tag_76:\n      mstore(0x20, 0x04)\n      0x00\n      swap1\n      dup2\n      mstore\n      0x40\n      swap1\n      keccak256\n      sload\n      dup2\n      jump\n        /* \"token-staking(copy)(copy)/contracts/Staking.sol\":7753:8561  function setPoolToken(address poolToken_, address stakingFundAddress_) public onlyOwner {... */\n    tag_18:\n      tag_24\n      tag_80\n      calldatasize\n      0x04\n      tag_81\n      jump\t// in\n    tag_80:\n      tag_82\n      jump\t// in\n        /* \"token-staking(copy)(copy)/contracts/Staking.sol\":11815:12509  function unlockTokens() public poolTokenSet {... */\n    tag_19:\n      tag_24\n      tag_84\n      jump\t// in\n        /* \"token-staking(copy)(copy)/contracts/Staking.sol\":13821:15220  function getRewards() public {... */\n    tag_25:\n        /* \"token-staking(copy)(copy)/contracts/Staking.sol\":13883:13906  stakingProgramEndsBlock */\n      immutable(\"0x7749cc8014201da2069c21d93ba99c584b6f62d393fde534ed47eac227e31561\")\n        /* \"token-staking(copy)(copy)/contracts/Staking.sol\":13868:13880  block.number */\n      number\n        /* \"token-staking(copy)(copy)/contracts/Staking.sol\":13868:13906  block.number > stakingProgramEndsBlock */\n      gt\n        /* \"token-staking(copy)(copy)/contracts/Staking.sol\":13860:13962  require(block.number > stakingProgramEndsBlock, \"You can only get Rewards after Staking Program ends\") */\n      tag_86\n      jumpi\n      mload(0x40)\n      0x08c379a000000000000000000000000000000000000000000000000000000000\n      dup2\n      mstore\n        /* \"#utility.yul\":11526:11528   */\n      0x20\n        /* \"token-staking(copy)(copy)/contracts/Staking.sol\":13860:13962  require(block.number > stakingProgramEndsBlock, \"You can only get Rewards after Staking Program ends\") */\n      0x04\n      dup3\n      add\n        /* \"#utility.yul\":11508:11529   */\n      mstore\n        /* \"#utility.yul\":11565:11567   */\n      0x33\n        /* \"#utility.yul\":11545:11563   */\n      0x24\n      dup3\n      add\n        /* \"#utility.yul\":11538:11568   */\n      mstore\n        /* \"#utility.yul\":11604:11638   */\n      0x596f752063616e206f6e6c792067657420526577617264732061667465722053\n        /* \"#utility.yul\":11584:11602   */\n      0x44\n      dup3\n      add\n        /* \"#utility.yul\":11577:11639   */\n      mstore\n        /* \"#utility.yul\":11675:11696   */\n      0x74616b696e672050726f6772616d20656e647300000000000000000000000000\n        /* \"#utility.yul\":11655:11673   */\n      0x64\n      dup3\n      add\n        /* \"#utility.yul\":11648:11697   */\n      mstore\n        /* \"#utility.yul\":11714:11733   */\n      0x84\n      add\n        /* \"token-staking(copy)(copy)/contracts/Staking.sol\":13860:13962  require(block.number > stakingProgramEndsBlock, \"You can only get Rewards after Staking Program ends\") */\n    tag_87:\n      mload(0x40)\n      dup1\n      swap2\n      sub\n      swap1\n      revert\n    tag_86:\n        /* \"token-staking(copy)(copy)/contracts/Staking.sol\":13987:13997  msg.sender */\n      caller\n        /* \"token-staking(copy)(copy)/contracts/Staking.sol\":13980:13986  stakes */\n      0x00\n        /* \"token-staking(copy)(copy)/contracts/Staking.sol\":13980:13998  stakes[msg.sender] */\n      swap1\n      dup2\n      mstore\n      0x20\n      dup2\n      swap1\n      mstore\n      0x40\n      swap1\n      keccak256\n        /* \"token-staking(copy)(copy)/contracts/Staking.sol\":13980:14010  stakes[msg.sender].tokenAmount */\n      sload\n      0xffffffffffffffffff\n      and\n        /* \"token-staking(copy)(copy)/contracts/Staking.sol\":13980:14015  stakes[msg.sender].tokenAmount == 0 */\n      iszero\n        /* \"token-staking(copy)(copy)/contracts/Staking.sol\":13972:14100  require(stakes[msg.sender].tokenAmount == 0, \"You still have a stake locked - please unlock first, don't leave free money here\") */\n      tag_89\n      jumpi\n      mload(0x40)\n      0x08c379a000000000000000000000000000000000000000000000000000000000\n      dup2\n      mstore\n        /* \"#utility.yul\":6368:6370   */\n      0x20\n        /* \"token-staking(copy)(copy)/contracts/Staking.sol\":13972:14100  require(stakes[msg.sender].tokenAmount == 0, \"You still have a stake locked - please unlock first, don't leave free money here\") */\n      0x04\n      dup3\n      add\n        /* \"#utility.yul\":6350:6371   */\n      mstore\n        /* \"#utility.yul\":6407:6409   */\n      0x50\n        /* \"#utility.yul\":6387:6405   */\n      0x24\n      dup3\n      add\n        /* \"#utility.yul\":6380:6410   */\n      mstore\n        /* \"#utility.yul\":6446:6480   */\n      0x596f75207374696c6c20686176652061207374616b65206c6f636b6564202d20\n        /* \"#utility.yul\":6426:6444   */\n      0x44\n      dup3\n      add\n        /* \"#utility.yul\":6419:6481   */\n      mstore\n        /* \"#utility.yul\":6517:6551   */\n      0x706c6561736520756e6c6f636b2066697273742c20646f6e2774206c65617665\n        /* \"#utility.yul\":6497:6515   */\n      0x64\n      dup3\n      add\n        /* \"#utility.yul\":6490:6552   */\n      mstore\n        /* \"#utility.yul\":6589:6607   */\n      0x2066726565206d6f6e6579206865726500000000000000000000000000000000\n        /* \"#utility.yul\":6568:6587   */\n      0x84\n      dup3\n      add\n        /* \"#utility.yul\":6561:6608   */\n      mstore\n        /* \"#utility.yul\":6625:6644   */\n      0xa4\n      add\n        /* \"token-staking(copy)(copy)/contracts/Staking.sol\":13972:14100  require(stakes[msg.sender].tokenAmount == 0, \"You still have a stake locked - please unlock first, don't leave free money here\") */\n      tag_87\n        /* \"#utility.yul\":6340:6650   */\n      jump\n        /* \"token-staking(copy)(copy)/contracts/Staking.sol\":13972:14100  require(stakes[msg.sender].tokenAmount == 0, \"You still have a stake locked - please unlock first, don't leave free money here\") */\n    tag_89:\n        /* \"token-staking(copy)(copy)/contracts/Staking.sol\":14137:14147  msg.sender */\n      caller\n        /* \"token-staking(copy)(copy)/contracts/Staking.sol\":14151:14152  0 */\n      0x00\n        /* \"token-staking(copy)(copy)/contracts/Staking.sol\":14118:14148  rewardPointsEarned[msg.sender] */\n      swap1\n      dup2\n      mstore\n        /* \"token-staking(copy)(copy)/contracts/Staking.sol\":14118:14136  rewardPointsEarned */\n      0x01\n        /* \"token-staking(copy)(copy)/contracts/Staking.sol\":14118:14148  rewardPointsEarned[msg.sender] */\n      0x20\n      mstore\n      0x40\n      swap1\n      keccak256\n      sload\n        /* \"token-staking(copy)(copy)/contracts/Staking.sol\":14110:14188  require(rewardPointsEarned[msg.sender] > 0, \"You don't have any rewardPoints\") */\n      tag_92\n      jumpi\n      mload(0x40)\n      0x08c379a000000000000000000000000000000000000000000000000000000000\n      dup2\n      mstore\n        /* \"#utility.yul\":12358:12360   */\n      0x20\n        /* \"token-staking(copy)(copy)/contracts/Staking.sol\":14110:14188  require(rewardPointsEarned[msg.sender] > 0, \"You don't have any rewardPoints\") */\n      0x04\n      dup3\n      add\n        /* \"#utility.yul\":12340:12361   */\n      mstore\n        /* \"#utility.yul\":12397:12399   */\n      0x1f\n        /* \"#utility.yul\":12377:12395   */\n      0x24\n      dup3\n      add\n        /* \"#utility.yul\":12370:12400   */\n      mstore\n        /* \"#utility.yul\":12436:12469   */\n      0x596f7520646f6e2774206861766520616e7920726577617264506f696e747300\n        /* \"#utility.yul\":12416:12434   */\n      0x44\n      dup3\n      add\n        /* \"#utility.yul\":12409:12470   */\n      mstore\n        /* \"#utility.yul\":12487:12505   */\n      0x64\n      add\n        /* \"token-staking(copy)(copy)/contracts/Staking.sol\":14110:14188  require(rewardPointsEarned[msg.sender] > 0, \"You don't have any rewardPoints\") */\n      tag_87\n        /* \"#utility.yul\":12330:12511   */\n      jump\n        /* \"token-staking(copy)(copy)/contracts/Staking.sol\":14110:14188  require(rewardPointsEarned[msg.sender] > 0, \"You don't have any rewardPoints\") */\n    tag_92:\n        /* \"token-staking(copy)(copy)/contracts/Staking.sol\":14940:14957  totalRewardPoints */\n      sload(0x02)\n        /* \"token-staking(copy)(copy)/contracts/Staking.sol\":14926:14936  msg.sender */\n      caller\n        /* \"token-staking(copy)(copy)/contracts/Staking.sol\":14864:14884  uint256 amountEarned */\n      0x00\n        /* \"token-staking(copy)(copy)/contracts/Staking.sol\":14907:14937  rewardPointsEarned[msg.sender] */\n      swap1\n      dup2\n      mstore\n        /* \"token-staking(copy)(copy)/contracts/Staking.sol\":14907:14925  rewardPointsEarned */\n      0x01\n        /* \"token-staking(copy)(copy)/contracts/Staking.sol\":14907:14937  rewardPointsEarned[msg.sender] */\n      0x20\n      mstore\n      0x40\n      dup2\n      keccak256\n      sload\n        /* \"token-staking(copy)(copy)/contracts/Staking.sol\":14864:14884  uint256 amountEarned */\n      swap1\n      swap2\n        /* \"token-staking(copy)(copy)/contracts/Staking.sol\":14940:14957  totalRewardPoints */\n      swap1\n        /* \"token-staking(copy)(copy)/contracts/Staking.sol\":14887:14937  stakingFundAmount * rewardPointsEarned[msg.sender] */\n      tag_95\n      swap1\n        /* \"token-staking(copy)(copy)/contracts/Staking.sol\":14887:14904  stakingFundAmount */\n      immutable(\"0x8b953cbb84328003779eb1ef176ef07f7dd0ae3d4a8e408de53d15a36466c86e\")\n        /* \"token-staking(copy)(copy)/contracts/Staking.sol\":14887:14937  stakingFundAmount * rewardPointsEarned[msg.sender] */\n      tag_96\n      jump\t// in\n    tag_95:\n        /* \"token-staking(copy)(copy)/contracts/Staking.sol\":14887:14957  stakingFundAmount * rewardPointsEarned[msg.sender] / totalRewardPoints */\n      tag_97\n      swap2\n      swap1\n      tag_98\n      jump\t// in\n    tag_97:\n        /* \"token-staking(copy)(copy)/contracts/Staking.sol\":14986:14996  msg.sender */\n      caller\n        /* \"token-staking(copy)(copy)/contracts/Staking.sol\":15000:15001  0 */\n      0x00\n        /* \"token-staking(copy)(copy)/contracts/Staking.sol\":14967:14997  rewardPointsEarned[msg.sender] */\n      dup2\n      dup2\n      mstore\n        /* \"token-staking(copy)(copy)/contracts/Staking.sol\":14967:14985  rewardPointsEarned */\n      0x01\n        /* \"token-staking(copy)(copy)/contracts/Staking.sol\":14967:14997  rewardPointsEarned[msg.sender] */\n      0x20\n      mstore\n      0x40\n      dup2\n      keccak256\n        /* \"token-staking(copy)(copy)/contracts/Staking.sol\":14967:15001  rewardPointsEarned[msg.sender] = 0 */\n      sstore\n        /* \"token-staking(copy)(copy)/contracts/Staking.sol\":14864:14957  uint256 amountEarned = stakingFundAmount * rewardPointsEarned[msg.sender] / totalRewardPoints */\n      swap1\n      swap2\n      pop\n        /* \"token-staking(copy)(copy)/contracts/Staking.sol\":15095:15133  _grantTokens(msg.sender, amountEarned) */\n      tag_99\n      swap1\n        /* \"token-staking(copy)(copy)/contracts/Staking.sol\":14864:14957  uint256 amountEarned = stakingFundAmount * rewardPointsEarned[msg.sender] / totalRewardPoints */\n      dup3\n        /* \"token-staking(copy)(copy)/contracts/Staking.sol\":15095:15107  _grantTokens */\n      tag_100\n        /* \"token-staking(copy)(copy)/contracts/Staking.sol\":15095:15133  _grantTokens(msg.sender, amountEarned) */\n      jump\t// in\n    tag_99:\n        /* \"token-staking(copy)(copy)/contracts/Staking.sol\":13821:15220  function getRewards() public {... */\n      pop\n      jump\t// out\n        /* \"token-staking(copy)(copy)/contracts/Staking.sol\":9998:11657  function lockTokens(uint72 tokenAmount_, uint24 lockingPeriodInBlocks_) public poolTokenSet {... */\n    tag_39:\n        /* \"token-staking(copy)(copy)/contracts/Staking.sol\":6121:6130  poolToken */\n      sload(0x03)\n        /* \"token-staking(copy)(copy)/contracts/Staking.sol\":6113:6147  address(poolToken) != address(0x0) */\n      0xffffffffffffffffffffffffffffffffffffffff\n        /* \"token-staking(copy)(copy)/contracts/Staking.sol\":6121:6130  poolToken */\n      and\n        /* \"token-staking(copy)(copy)/contracts/Staking.sol\":6105:6169  require(address(poolToken) != address(0x0), \"poolToken not set\") */\n      tag_102\n      jumpi\n      mload(0x40)\n      0x08c379a000000000000000000000000000000000000000000000000000000000\n      dup2\n      mstore\n        /* \"#utility.yul\":10422:10424   */\n      0x20\n        /* \"token-staking(copy)(copy)/contracts/Staking.sol\":6105:6169  require(address(poolToken) != address(0x0), \"poolToken not set\") */\n      0x04\n      dup3\n      add\n        /* \"#utility.yul\":10404:10425   */\n      mstore\n        /* \"#utility.yul\":10461:10463   */\n      0x11\n        /* \"#utility.yul\":10441:10459   */\n      0x24\n      dup3\n      add\n        /* \"#utility.yul\":10434:10464   */\n      mstore\n        /* \"#utility.yul\":10500:10519   */\n      0x706f6f6c546f6b656e206e6f7420736574000000000000000000000000000000\n        /* \"#utility.yul\":10480:10498   */\n      0x44\n      dup3\n      add\n        /* \"#utility.yul\":10473:10520   */\n      mstore\n        /* \"#utility.yul\":10537:10555   */\n      0x64\n      add\n        /* \"token-staking(copy)(copy)/contracts/Staking.sol\":6105:6169  require(address(poolToken) != address(0x0), \"poolToken not set\") */\n      tag_87\n        /* \"#utility.yul\":10394:10561   */\n      jump\n        /* \"token-staking(copy)(copy)/contracts/Staking.sol\":6105:6169  require(address(poolToken) != address(0x0), \"poolToken not set\") */\n    tag_102:\n        /* \"token-staking(copy)(copy)/contracts/Staking.sol\":10264:10312  stakingProgramEndsBlock - lockingPeriodInBlocks_ */\n      tag_106\n      0xffffff\n      dup3\n      and\n        /* \"token-staking(copy)(copy)/contracts/Staking.sol\":10264:10287  stakingProgramEndsBlock */\n      immutable(\"0x7749cc8014201da2069c21d93ba99c584b6f62d393fde534ed47eac227e31561\")\n        /* \"token-staking(copy)(copy)/contracts/Staking.sol\":10264:10312  stakingProgramEndsBlock - lockingPeriodInBlocks_ */\n      tag_107\n      jump\t// in\n    tag_106:\n        /* \"token-staking(copy)(copy)/contracts/Staking.sol\":10248:10260  block.number */\n      number\n        /* \"token-staking(copy)(copy)/contracts/Staking.sol\":10248:10312  block.number <= stakingProgramEndsBlock - lockingPeriodInBlocks_ */\n      gt\n      iszero\n        /* \"token-staking(copy)(copy)/contracts/Staking.sol\":10240:10366  require(block.number <= stakingProgramEndsBlock - lockingPeriodInBlocks_, \"Your lock period exceeds Staking Program duration\") */\n      tag_108\n      jumpi\n      mload(0x40)\n      0x08c379a000000000000000000000000000000000000000000000000000000000\n      dup2\n      mstore\n        /* \"#utility.yul\":7218:7220   */\n      0x20\n        /* \"token-staking(copy)(copy)/contracts/Staking.sol\":10240:10366  require(block.number <= stakingProgramEndsBlock - lockingPeriodInBlocks_, \"Your lock period exceeds Staking Program duration\") */\n      0x04\n      dup3\n      add\n        /* \"#utility.yul\":7200:7221   */\n      mstore\n        /* \"#utility.yul\":7257:7259   */\n      0x31\n        /* \"#utility.yul\":7237:7255   */\n      0x24\n      dup3\n      add\n        /* \"#utility.yul\":7230:7260   */\n      mstore\n        /* \"#utility.yul\":7296:7330   */\n      0x596f7572206c6f636b20706572696f642065786365656473205374616b696e67\n        /* \"#utility.yul\":7276:7294   */\n      0x44\n      dup3\n      add\n        /* \"#utility.yul\":7269:7331   */\n      mstore\n        /* \"#utility.yul\":7367:7386   */\n      0x2050726f6772616d206475726174696f6e000000000000000000000000000000\n        /* \"#utility.yul\":7347:7365   */\n      0x64\n      dup3\n      add\n        /* \"#utility.yul\":7340:7387   */\n      mstore\n        /* \"#utility.yul\":7404:7423   */\n      0x84\n      add\n        /* \"token-staking(copy)(copy)/contracts/Staking.sol\":10240:10366  require(block.number <= stakingProgramEndsBlock - lockingPeriodInBlocks_, \"Your lock period exceeds Staking Program duration\") */\n      tag_87\n        /* \"#utility.yul\":7190:7429   */\n      jump\n        /* \"token-staking(copy)(copy)/contracts/Staking.sol\":10240:10366  require(block.number <= stakingProgramEndsBlock - lockingPeriodInBlocks_, \"Your lock period exceeds Staking Program duration\") */\n    tag_108:\n        /* \"token-staking(copy)(copy)/contracts/Staking.sol\":10391:10401  msg.sender */\n      caller\n        /* \"token-staking(copy)(copy)/contracts/Staking.sol\":10384:10390  stakes */\n      0x00\n        /* \"token-staking(copy)(copy)/contracts/Staking.sol\":10384:10402  stakes[msg.sender] */\n      swap1\n      dup2\n      mstore\n      0x20\n      dup2\n      swap1\n      mstore\n      0x40\n      swap1\n      keccak256\n        /* \"token-staking(copy)(copy)/contracts/Staking.sol\":10384:10414  stakes[msg.sender].tokenAmount */\n      sload\n      0xffffffffffffffffff\n      and\n        /* \"token-staking(copy)(copy)/contracts/Staking.sol\":10384:10419  stakes[msg.sender].tokenAmount == 0 */\n      iszero\n        /* \"token-staking(copy)(copy)/contracts/Staking.sol\":10376:10439  require(stakes[msg.sender].tokenAmount == 0, \"Already staking\") */\n      tag_111\n      jumpi\n      mload(0x40)\n      0x08c379a000000000000000000000000000000000000000000000000000000000\n      dup2\n      mstore\n        /* \"#utility.yul\":7636:7638   */\n      0x20\n        /* \"token-staking(copy)(copy)/contracts/Staking.sol\":10376:10439  require(stakes[msg.sender].tokenAmount == 0, \"Already staking\") */\n      0x04\n      dup3\n      add\n        /* \"#utility.yul\":7618:7639   */\n      mstore\n        /* \"#utility.yul\":7675:7677   */\n      0x0f\n        /* \"#utility.yul\":7655:7673   */\n      0x24\n      dup3\n      add\n        /* \"#utility.yul\":7648:7678   */\n      mstore\n        /* \"#utility.yul\":7714:7731   */\n      0x416c7265616479207374616b696e670000000000000000000000000000000000\n        /* \"#utility.yul\":7694:7712   */\n      0x44\n      dup3\n      add\n        /* \"#utility.yul\":7687:7732   */\n      mstore\n        /* \"#utility.yul\":7749:7767   */\n      0x64\n      add\n        /* \"token-staking(copy)(copy)/contracts/Staking.sol\":10376:10439  require(stakes[msg.sender].tokenAmount == 0, \"Already staking\") */\n      tag_87\n        /* \"#utility.yul\":7608:7773   */\n      jump\n        /* \"token-staking(copy)(copy)/contracts/Staking.sol\":10376:10439  require(stakes[msg.sender].tokenAmount == 0, \"Already staking\") */\n    tag_111:\n        /* \"token-staking(copy)(copy)/contracts/Staking.sol\":10570:10605  uint128 expectedStakingRewardPoints */\n      0x00\n        /* \"token-staking(copy)(copy)/contracts/Staking.sol\":10608:10674  calculateStakingRewardPoints(tokenAmount_, lockingPeriodInBlocks_) */\n      tag_114\n        /* \"token-staking(copy)(copy)/contracts/Staking.sol\":10637:10649  tokenAmount_ */\n      dup4\n        /* \"token-staking(copy)(copy)/contracts/Staking.sol\":10651:10673  lockingPeriodInBlocks_ */\n      dup4\n        /* \"token-staking(copy)(copy)/contracts/Staking.sol\":10608:10636  calculateStakingRewardPoints */\n      tag_49\n        /* \"token-staking(copy)(copy)/contracts/Staking.sol\":10608:10674  calculateStakingRewardPoints(tokenAmount_, lockingPeriodInBlocks_) */\n      jump\t// in\n    tag_114:\n        /* \"token-staking(copy)(copy)/contracts/Staking.sol\":10706:10800  Stake(tokenAmount_, lockingPeriodInBlocks_, uint32(block.number), expectedStakingRewardPoints) */\n      0x40\n      dup1\n      mload\n      0x80\n      dup2\n      add\n      dup3\n      mstore\n      0xffffffffffffffffff\n      dup7\n      dup2\n      and\n      dup3\n      mstore\n      0xffffff\n      dup7\n      dup2\n      and\n      0x20\n      dup1\n      dup6\n      add\n      swap2\n      dup3\n      mstore\n        /* \"token-staking(copy)(copy)/contracts/Staking.sol\":10757:10769  block.number */\n      number\n        /* \"token-staking(copy)(copy)/contracts/Staking.sol\":10706:10800  Stake(tokenAmount_, lockingPeriodInBlocks_, uint32(block.number), expectedStakingRewardPoints) */\n      0xffffffff\n      swap1\n      dup2\n      and\n      dup7\n      dup9\n      add\n      swap1\n      dup2\n      mstore\n      0xffffffffffffffffffffffffffffffff\n      dup10\n      dup2\n      and\n      0x60\n      dup10\n      add\n      dup2\n      dup2\n      mstore\n        /* \"token-staking(copy)(copy)/contracts/Staking.sol\":10817:10827  msg.sender */\n      caller\n      0x00\n        /* \"token-staking(copy)(copy)/contracts/Staking.sol\":10810:10828  stakes[msg.sender] */\n      swap1\n      dup2\n      mstore\n      swap6\n      dup7\n      swap1\n      mstore\n      swap10\n      dup6\n      keccak256\n        /* \"token-staking(copy)(copy)/contracts/Staking.sol\":10810:10836  stakes[msg.sender] = stake */\n      dup10\n      mload\n      dup2\n      sload\n      swap8\n      mload\n      swap5\n      mload\n      swap12\n      mload\n      swap10\n      and\n      0xffffffffffffffffffffffffffffffffffffffff000000000000000000000000\n      swap1\n      swap8\n      and\n      swap7\n      swap1\n      swap7\n      or\n      0x01000000000000000000\n      swap4\n      swap1\n      swap8\n      and\n      swap3\n      swap1\n      swap3\n      mul\n      swap6\n      swap1\n      swap6\n      or\n      0xffffffffffffffffffffffff\n      and\n      0x01000000000000000000000000\n      swap9\n      swap1\n      swap3\n      and\n      swap8\n      swap1\n      swap8\n      mul\n      dup5\n      and\n      or\n      0x0100000000000000000000000000000000\n      swap5\n      swap1\n      swap4\n      and\n      swap4\n      swap1\n      swap4\n      mul\n      swap2\n      swap1\n      swap2\n      or\n      swap1\n      sstore\n        /* \"token-staking(copy)(copy)/contracts/Staking.sol\":11096:11113  totalRewardPoints */\n      0x02\n        /* \"token-staking(copy)(copy)/contracts/Staking.sol\":11096:11144  totalRewardPoints += expectedStakingRewardPoints */\n      dup1\n      sload\n        /* \"token-staking(copy)(copy)/contracts/Staking.sol\":10706:10800  Stake(tokenAmount_, lockingPeriodInBlocks_, uint32(block.number), expectedStakingRewardPoints) */\n      swap5\n      swap6\n      pop\n      swap2\n      swap4\n        /* \"token-staking(copy)(copy)/contracts/Staking.sol\":11096:11144  totalRewardPoints += expectedStakingRewardPoints */\n      tag_115\n      swap1\n        /* \"token-staking(copy)(copy)/contracts/Staking.sol\":10706:10800  Stake(tokenAmount_, lockingPeriodInBlocks_, uint32(block.number), expectedStakingRewardPoints) */\n      dup5\n      swap1\n        /* \"token-staking(copy)(copy)/contracts/Staking.sol\":11096:11144  totalRewardPoints += expectedStakingRewardPoints */\n      tag_116\n      jump\t// in\n    tag_115:\n      swap1\n      swap2\n      sstore\n      pop\n      pop\n        /* \"token-staking(copy)(copy)/contracts/Staking.sol\":11173:11183  msg.sender */\n      caller\n        /* \"token-staking(copy)(copy)/contracts/Staking.sol\":11154:11184  rewardPointsEarned[msg.sender] */\n      0x00\n      swap1\n      dup2\n      mstore\n        /* \"token-staking(copy)(copy)/contracts/Staking.sol\":11154:11172  rewardPointsEarned */\n      0x01\n        /* \"token-staking(copy)(copy)/contracts/Staking.sol\":11154:11184  rewardPointsEarned[msg.sender] */\n      0x20\n      mstore\n      0x40\n      dup2\n      keccak256\n        /* \"token-staking(copy)(copy)/contracts/Staking.sol\":11154:11215  rewardPointsEarned[msg.sender] += expectedStakingRewardPoints */\n      dup1\n      sload\n      0xffffffffffffffffffffffffffffffff\n      dup6\n      and\n      swap3\n        /* \"token-staking(copy)(copy)/contracts/Staking.sol\":11154:11184  rewardPointsEarned[msg.sender] */\n      swap1\n        /* \"token-staking(copy)(copy)/contracts/Staking.sol\":11154:11215  rewardPointsEarned[msg.sender] += expectedStakingRewardPoints */\n      tag_117\n      swap1\n      dup5\n      swap1\n      tag_116\n      jump\t// in\n    tag_117:\n      swap1\n      swap2\n      sstore\n      pop\n      pop\n        /* \"token-staking(copy)(copy)/contracts/Staking.sol\":11443:11452  poolToken */\n      sload(0x03)\n        /* \"token-staking(copy)(copy)/contracts/Staking.sol\":11443:11506  poolToken.transferFrom(msg.sender, address(this), tokenAmount_) */\n      mload(0x40)\n      0x23b872dd00000000000000000000000000000000000000000000000000000000\n      dup2\n      mstore\n        /* \"token-staking(copy)(copy)/contracts/Staking.sol\":11466:11476  msg.sender */\n      caller\n        /* \"token-staking(copy)(copy)/contracts/Staking.sol\":11443:11506  poolToken.transferFrom(msg.sender, address(this), tokenAmount_) */\n      0x04\n      dup3\n      add\n        /* \"#utility.yul\":2911:2945   */\n      mstore\n        /* \"token-staking(copy)(copy)/contracts/Staking.sol\":11486:11490  this */\n      address\n        /* \"#utility.yul\":2961:2979   */\n      0x24\n      dup3\n      add\n        /* \"#utility.yul\":2954:2997   */\n      mstore\n        /* \"#utility.yul\":3045:3065   */\n      0xffffffffffffffffff\n        /* \"#utility.yul\":3033:3066   */\n      dup7\n      and\n        /* \"#utility.yul\":3013:3031   */\n      0x44\n      dup3\n      add\n        /* \"#utility.yul\":3006:3067   */\n      mstore\n        /* \"token-staking(copy)(copy)/contracts/Staking.sol\":11443:11452  poolToken */\n      0xffffffffffffffffffffffffffffffffffffffff\n      swap1\n      swap2\n      and\n      swap1\n        /* \"token-staking(copy)(copy)/contracts/Staking.sol\":11443:11465  poolToken.transferFrom */\n      0x23b872dd\n      swap1\n        /* \"#utility.yul\":2823:2841   */\n      0x64\n      add\n        /* \"token-staking(copy)(copy)/contracts/Staking.sol\":11443:11506  poolToken.transferFrom(msg.sender, address(this), tokenAmount_) */\n      0x20\n      mload(0x40)\n      dup1\n      dup4\n      sub\n      dup2\n      0x00\n      dup8\n      dup1\n      extcodesize\n      iszero\n      dup1\n      iszero\n      tag_120\n      jumpi\n      0x00\n      dup1\n      revert\n    tag_120:\n      pop\n      gas\n      call\n      iszero\n      dup1\n      iszero\n      tag_122\n      jumpi\n      returndatasize\n      0x00\n      dup1\n      returndatacopy\n      revert(0x00, returndatasize)\n    tag_122:\n      pop\n      pop\n      pop\n      pop\n      mload(0x40)\n      returndatasize\n      not(0x1f)\n      0x1f\n      dup3\n      add\n      and\n      dup3\n      add\n      dup1\n      0x40\n      mstore\n      pop\n      dup2\n      add\n      swap1\n      tag_123\n      swap2\n      swap1\n      tag_124\n      jump\t// in\n    tag_123:\n        /* \"token-staking(copy)(copy)/contracts/Staking.sol\":11435:11544  require(poolToken.transferFrom(msg.sender, address(this), tokenAmount_), \"TransferFrom of poolTokens failed\") */\n      tag_125\n      jumpi\n      mload(0x40)\n      0x08c379a000000000000000000000000000000000000000000000000000000000\n      dup2\n      mstore\n        /* \"#utility.yul\":10768:10770   */\n      0x20\n        /* \"token-staking(copy)(copy)/contracts/Staking.sol\":11435:11544  require(poolToken.transferFrom(msg.sender, address(this), tokenAmount_), \"TransferFrom of poolTokens failed\") */\n      0x04\n      dup3\n      add\n        /* \"#utility.yul\":10750:10771   */\n      mstore\n        /* \"#utility.yul\":10807:10809   */\n      0x21\n        /* \"#utility.yul\":10787:10805   */\n      0x24\n      dup3\n      add\n        /* \"#utility.yul\":10780:10810   */\n      mstore\n        /* \"#utility.yul\":10846:10880   */\n      0x5472616e7366657246726f6d206f6620706f6f6c546f6b656e73206661696c65\n        /* \"#utility.yul\":10826:10844   */\n      0x44\n      dup3\n      add\n        /* \"#utility.yul\":10819:10881   */\n      mstore\n        /* \"#utility.yul\":10917:10920   */\n      0x6400000000000000000000000000000000000000000000000000000000000000\n        /* \"#utility.yul\":10897:10915   */\n      0x64\n      dup3\n      add\n        /* \"#utility.yul\":10890:10921   */\n      mstore\n        /* \"#utility.yul\":10938:10957   */\n      0x84\n      add\n        /* \"token-staking(copy)(copy)/contracts/Staking.sol\":11435:11544  require(poolToken.transferFrom(msg.sender, address(this), tokenAmount_), \"TransferFrom of poolTokens failed\") */\n      tag_87\n        /* \"#utility.yul\":10740:10963   */\n      jump\n        /* \"token-staking(copy)(copy)/contracts/Staking.sol\":11435:11544  require(poolToken.transferFrom(msg.sender, address(this), tokenAmount_), \"TransferFrom of poolTokens failed\") */\n    tag_125:\n        /* \"token-staking(copy)(copy)/contracts/Staking.sol\":11560:11650  StakeLocked(msg.sender, tokenAmount_, lockingPeriodInBlocks_, expectedStakingRewardPoints) */\n      0x40\n      dup1\n      mload\n        /* \"token-staking(copy)(copy)/contracts/Staking.sol\":11572:11582  msg.sender */\n      caller\n        /* \"#utility.yul\":3609:3683   */\n      dup2\n      mstore\n        /* \"#utility.yul\":3731:3751   */\n      0xffffffffffffffffff\n        /* \"#utility.yul\":3719:3752   */\n      dup7\n      and\n        /* \"#utility.yul\":3714:3716   */\n      0x20\n        /* \"#utility.yul\":3699:3717   */\n      dup3\n      add\n        /* \"#utility.yul\":3692:3753   */\n      mstore\n        /* \"#utility.yul\":3801:3809   */\n      0xffffff\n        /* \"#utility.yul\":3789:3810   */\n      dup6\n      and\n        /* \"#utility.yul\":3769:3787   */\n      dup2\n      dup4\n      add\n        /* \"#utility.yul\":3762:3811   */\n      mstore\n        /* \"#utility.yul\":3859:3893   */\n      0xffffffffffffffffffffffffffffffff\n        /* \"#utility.yul\":3847:3894   */\n      dup5\n      and\n        /* \"#utility.yul\":3842:3844   */\n      0x60\n        /* \"#utility.yul\":3827:3845   */\n      dup3\n      add\n        /* \"#utility.yul\":3820:3895   */\n      mstore\n        /* \"token-staking(copy)(copy)/contracts/Staking.sol\":11560:11650  StakeLocked(msg.sender, tokenAmount_, lockingPeriodInBlocks_, expectedStakingRewardPoints) */\n      swap1\n      mload\n      0xe7dbea143058f90be7a1644e539342c25ddc5379868fe922bab596de99debf41\n      swap2\n      dup2\n      swap1\n      sub\n        /* \"#utility.yul\":3596:3599   */\n      0x80\n        /* \"token-staking(copy)(copy)/contracts/Staking.sol\":11560:11650  StakeLocked(msg.sender, tokenAmount_, lockingPeriodInBlocks_, expectedStakingRewardPoints) */\n      add\n      swap1\n      log1\n        /* \"token-staking(copy)(copy)/contracts/Staking.sol\":6179:6180  _ */\n      pop\n      pop\n        /* \"token-staking(copy)(copy)/contracts/Staking.sol\":9998:11657  function lockTokens(uint72 tokenAmount_, uint24 lockingPeriodInBlocks_) public poolTokenSet {... */\n      pop\n      pop\n      jump\t// out\n        /* \"token-staking(copy)(copy)/contracts/Staking.sol\":8938:9605  function calculateStakingRewardPoints(uint72 tokenAmount_, uint24 lockingPeriodInBlocks_) public pure returns (uint128) {... */\n    tag_49:\n        /* \"token-staking(copy)(copy)/contracts/Staking.sol\":9049:9056  uint128 */\n      0x00\n      dup1\n        /* \"token-staking(copy)(copy)/contracts/Staking.sol\":9425:9456  uint256(lockingPeriodInBlocks_) */\n      0xffffff\n      dup4\n      and\n        /* \"token-staking(copy)(copy)/contracts/Staking.sol\":9367:9422  uint256(tokenAmount_) * uint256(lockingPeriodInBlocks_) */\n      tag_131\n        /* \"token-staking(copy)(copy)/contracts/Staking.sol\":9425:9456  uint256(lockingPeriodInBlocks_) */\n      dup2\n        /* \"token-staking(copy)(copy)/contracts/Staking.sol\":9367:9388  uint256(tokenAmount_) */\n      0xffffffffffffffffff\n      dup8\n      and\n        /* \"token-staking(copy)(copy)/contracts/Staking.sol\":9367:9422  uint256(tokenAmount_) * uint256(lockingPeriodInBlocks_) */\n      tag_96\n      jump\t// in\n    tag_131:\n        /* \"token-staking(copy)(copy)/contracts/Staking.sol\":9367:9456  uint256(tokenAmount_) * uint256(lockingPeriodInBlocks_) * uint256(lockingPeriodInBlocks_) */\n      tag_132\n      swap2\n      swap1\n      tag_96\n      jump\t// in\n    tag_132:\n        /* \"token-staking(copy)(copy)/contracts/Staking.sol\":9337:9456  uint256 stakingRewardPoints = uint256(tokenAmount_) * uint256(lockingPeriodInBlocks_) * uint256(lockingPeriodInBlocks_) */\n      swap1\n      pop\n        /* \"token-staking(copy)(copy)/contracts/Staking.sol\":9496:9497  0 */\n      0x00\n        /* \"token-staking(copy)(copy)/contracts/Staking.sol\":9474:9493  stakingRewardPoints */\n      dup2\n        /* \"token-staking(copy)(copy)/contracts/Staking.sol\":9474:9497  stakingRewardPoints > 0 */\n      gt\n        /* \"token-staking(copy)(copy)/contracts/Staking.sol\":9466:9553  require(stakingRewardPoints > 0, \"Neither tokenAmount nor lockingPeriod couldn't be 0\") */\n      tag_133\n      jumpi\n      mload(0x40)\n      0x08c379a000000000000000000000000000000000000000000000000000000000\n      dup2\n      mstore\n        /* \"#utility.yul\":8390:8392   */\n      0x20\n        /* \"token-staking(copy)(copy)/contracts/Staking.sol\":9466:9553  require(stakingRewardPoints > 0, \"Neither tokenAmount nor lockingPeriod couldn't be 0\") */\n      0x04\n      dup3\n      add\n        /* \"#utility.yul\":8372:8393   */\n      mstore\n        /* \"#utility.yul\":8429:8431   */\n      0x33\n        /* \"#utility.yul\":8409:8427   */\n      0x24\n      dup3\n      add\n        /* \"#utility.yul\":8402:8432   */\n      mstore\n        /* \"#utility.yul\":8468:8502   */\n      0x4e65697468657220746f6b656e416d6f756e74206e6f72206c6f636b696e6750\n        /* \"#utility.yul\":8448:8466   */\n      0x44\n      dup3\n      add\n        /* \"#utility.yul\":8441:8503   */\n      mstore\n        /* \"#utility.yul\":8539:8560   */\n      0x6572696f6420636f756c646e2774206265203000000000000000000000000000\n        /* \"#utility.yul\":8519:8537   */\n      0x64\n      dup3\n      add\n        /* \"#utility.yul\":8512:8561   */\n      mstore\n        /* \"#utility.yul\":8578:8597   */\n      0x84\n      add\n        /* \"token-staking(copy)(copy)/contracts/Staking.sol\":9466:9553  require(stakingRewardPoints > 0, \"Neither tokenAmount nor lockingPeriod couldn't be 0\") */\n      tag_87\n        /* \"#utility.yul\":8362:8603   */\n      jump\n        /* \"token-staking(copy)(copy)/contracts/Staking.sol\":9466:9553  require(stakingRewardPoints > 0, \"Neither tokenAmount nor lockingPeriod couldn't be 0\") */\n    tag_133:\n        /* \"token-staking(copy)(copy)/contracts/Staking.sol\":9578:9597  stakingRewardPoints */\n      swap4\n        /* \"token-staking(copy)(copy)/contracts/Staking.sol\":8938:9605  function calculateStakingRewardPoints(uint72 tokenAmount_, uint24 lockingPeriodInBlocks_) public pure returns (uint128) {... */\n      swap3\n      pop\n      pop\n      pop\n      jump\t// out\n        /* \"token-staking(copy)(copy)/contracts/Staking.sol\":15941:16312  function release() public {... */\n    tag_57:\n        /* \"token-staking(copy)(copy)/contracts/Staking.sol\":15977:15995  uint256 releasable */\n      0x00\n        /* \"token-staking(copy)(copy)/contracts/Staking.sol\":15998:16027  _releasableAmount(msg.sender) */\n      tag_137\n        /* \"token-staking(copy)(copy)/contracts/Staking.sol\":16016:16026  msg.sender */\n      caller\n        /* \"token-staking(copy)(copy)/contracts/Staking.sol\":15998:16015  _releasableAmount */\n      tag_138\n        /* \"token-staking(copy)(copy)/contracts/Staking.sol\":15998:16027  _releasableAmount(msg.sender) */\n      jump\t// in\n    tag_137:\n        /* \"token-staking(copy)(copy)/contracts/Staking.sol\":15977:16027  uint256 releasable = _releasableAmount(msg.sender) */\n      swap1\n      pop\n        /* \"token-staking(copy)(copy)/contracts/Staking.sol\":16058:16059  0 */\n      0x00\n        /* \"token-staking(copy)(copy)/contracts/Staking.sol\":16045:16055  releasable */\n      dup2\n        /* \"token-staking(copy)(copy)/contracts/Staking.sol\":16045:16059  releasable > 0 */\n      gt\n        /* \"token-staking(copy)(copy)/contracts/Staking.sol\":16037:16098  require(releasable > 0, \"Vesting release: no tokens are due\") */\n      tag_139\n      jumpi\n      mload(0x40)\n      0x08c379a000000000000000000000000000000000000000000000000000000000\n      dup2\n      mstore\n        /* \"#utility.yul\":5196:5198   */\n      0x20\n        /* \"token-staking(copy)(copy)/contracts/Staking.sol\":16037:16098  require(releasable > 0, \"Vesting release: no tokens are due\") */\n      0x04\n      dup3\n      add\n        /* \"#utility.yul\":5178:5199   */\n      mstore\n        /* \"#utility.yul\":5235:5237   */\n      0x22\n        /* \"#utility.yul\":5215:5233   */\n      0x24\n      dup3\n      add\n        /* \"#utility.yul\":5208:5238   */\n      mstore\n        /* \"#utility.yul\":5274:5308   */\n      0x56657374696e672072656c656173653a206e6f20746f6b656e73206172652064\n        /* \"#utility.yul\":5254:5272   */\n      0x44\n      dup3\n      add\n        /* \"#utility.yul\":5247:5309   */\n      mstore\n        /* \"#utility.yul\":5345:5349   */\n      0x7565000000000000000000000000000000000000000000000000000000000000\n        /* \"#utility.yul\":5325:5343   */\n      0x64\n      dup3\n      add\n        /* \"#utility.yul\":5318:5350   */\n      mstore\n        /* \"#utility.yul\":5367:5386   */\n      0x84\n      add\n        /* \"token-staking(copy)(copy)/contracts/Staking.sol\":16037:16098  require(releasable > 0, \"Vesting release: no tokens are due\") */\n      tag_87\n        /* \"#utility.yul\":5168:5392   */\n      jump\n        /* \"token-staking(copy)(copy)/contracts/Staking.sol\":16037:16098  require(releasable > 0, \"Vesting release: no tokens are due\") */\n    tag_139:\n        /* \"token-staking(copy)(copy)/contracts/Staking.sol\":16124:16134  msg.sender */\n      caller\n        /* \"token-staking(copy)(copy)/contracts/Staking.sol\":16109:16135  releasedTokens[msg.sender] */\n      0x00\n      swap1\n      dup2\n      mstore\n        /* \"token-staking(copy)(copy)/contracts/Staking.sol\":16109:16123  releasedTokens */\n      0x05\n        /* \"token-staking(copy)(copy)/contracts/Staking.sol\":16109:16135  releasedTokens[msg.sender] */\n      0x20\n      mstore\n      0x40\n      dup2\n      keccak256\n        /* \"token-staking(copy)(copy)/contracts/Staking.sol\":16109:16149  releasedTokens[msg.sender] += releasable */\n      dup1\n      sload\n        /* \"token-staking(copy)(copy)/contracts/Staking.sol\":16139:16149  releasable */\n      dup4\n      swap3\n        /* \"token-staking(copy)(copy)/contracts/Staking.sol\":16109:16135  releasedTokens[msg.sender] */\n      swap1\n        /* \"token-staking(copy)(copy)/contracts/Staking.sol\":16109:16149  releasedTokens[msg.sender] += releasable */\n      tag_142\n      swap1\n        /* \"token-staking(copy)(copy)/contracts/Staking.sol\":16139:16149  releasable */\n      dup5\n      swap1\n        /* \"token-staking(copy)(copy)/contracts/Staking.sol\":16109:16149  releasedTokens[msg.sender] += releasable */\n      tag_116\n      jump\t// in\n    tag_142:\n      swap1\n      swap2\n      sstore\n      pop\n      pop\n        /* \"token-staking(copy)(copy)/contracts/Staking.sol\":16167:16210  oilerToken.transfer(msg.sender, releasable) */\n      mload(0x40)\n      0xa9059cbb00000000000000000000000000000000000000000000000000000000\n      dup2\n      mstore\n        /* \"token-staking(copy)(copy)/contracts/Staking.sol\":16187:16197  msg.sender */\n      caller\n        /* \"token-staking(copy)(copy)/contracts/Staking.sol\":16167:16210  oilerToken.transfer(msg.sender, releasable) */\n      0x04\n      dup3\n      add\n        /* \"#utility.yul\":3252:3326   */\n      mstore\n        /* \"#utility.yul\":3342:3360   */\n      0x24\n      dup2\n      add\n        /* \"#utility.yul\":3335:3369   */\n      dup3\n      swap1\n      mstore\n        /* \"token-staking(copy)(copy)/contracts/Staking.sol\":16167:16177  oilerToken */\n      immutable(\"0x880de8116b3dfac28e9ff528a9fef1d1e0a51449c1addce011ffec1f302992b6\")\n        /* \"token-staking(copy)(copy)/contracts/Staking.sol\":16167:16186  oilerToken.transfer */\n      0xffffffffffffffffffffffffffffffffffffffff\n      and\n      swap1\n      0xa9059cbb\n      swap1\n        /* \"#utility.yul\":3225:3243   */\n      0x44\n      add\n        /* \"token-staking(copy)(copy)/contracts/Staking.sol\":16167:16210  oilerToken.transfer(msg.sender, releasable) */\n      0x20\n      mload(0x40)\n      dup1\n      dup4\n      sub\n      dup2\n      0x00\n      dup8\n      dup1\n      extcodesize\n      iszero\n      dup1\n      iszero\n      tag_145\n      jumpi\n      0x00\n      dup1\n      revert\n    tag_145:\n      pop\n      gas\n      call\n      iszero\n      dup1\n      iszero\n      tag_147\n      jumpi\n      returndatasize\n      0x00\n      dup1\n      returndatacopy\n      revert(0x00, returndatasize)\n    tag_147:\n      pop\n      pop\n      pop\n      pop\n      mload(0x40)\n      returndatasize\n      not(0x1f)\n      0x1f\n      dup3\n      add\n      and\n      dup3\n      add\n      dup1\n      0x40\n      mstore\n      pop\n      dup2\n      add\n      swap1\n      tag_148\n      swap2\n      swap1\n      tag_124\n      jump\t// in\n    tag_148:\n        /* \"token-staking(copy)(copy)/contracts/Staking.sol\":16159:16244  require(oilerToken.transfer(msg.sender, releasable), \"Reward oilers transfer failed\") */\n      tag_149\n      jumpi\n      mload(0x40)\n      0x08c379a000000000000000000000000000000000000000000000000000000000\n      dup2\n      mstore\n        /* \"#utility.yul\":4838:4840   */\n      0x20\n        /* \"token-staking(copy)(copy)/contracts/Staking.sol\":16159:16244  require(oilerToken.transfer(msg.sender, releasable), \"Reward oilers transfer failed\") */\n      0x04\n      dup3\n      add\n        /* \"#utility.yul\":4820:4841   */\n      mstore\n        /* \"#utility.yul\":4877:4879   */\n      0x1d\n        /* \"#utility.yul\":4857:4875   */\n      0x24\n      dup3\n      add\n        /* \"#utility.yul\":4850:4880   */\n      mstore\n        /* \"#utility.yul\":4916:4947   */\n      0x526577617264206f696c657273207472616e73666572206661696c6564000000\n        /* \"#utility.yul\":4896:4914   */\n      0x44\n      dup3\n      add\n        /* \"#utility.yul\":4889:4948   */\n      mstore\n        /* \"#utility.yul\":4965:4983   */\n      0x64\n      add\n        /* \"token-staking(copy)(copy)/contracts/Staking.sol\":16159:16244  require(oilerToken.transfer(msg.sender, releasable), \"Reward oilers transfer failed\") */\n      tag_87\n        /* \"#utility.yul\":4810:4989   */\n      jump\n        /* \"token-staking(copy)(copy)/contracts/Staking.sol\":16159:16244  require(oilerToken.transfer(msg.sender, releasable), \"Reward oilers transfer failed\") */\n    tag_149:\n        /* \"token-staking(copy)(copy)/contracts/Staking.sol\":16260:16305  grantedTokensReleased(msg.sender, releasable) */\n      0x40\n      dup1\n      mload\n        /* \"token-staking(copy)(copy)/contracts/Staking.sol\":16282:16292  msg.sender */\n      caller\n        /* \"#utility.yul\":3252:3326   */\n      dup2\n      mstore\n        /* \"#utility.yul\":3357:3359   */\n      0x20\n        /* \"#utility.yul\":3342:3360   */\n      dup2\n      add\n        /* \"#utility.yul\":3335:3369   */\n      dup4\n      swap1\n      mstore\n        /* \"token-staking(copy)(copy)/contracts/Staking.sol\":16260:16305  grantedTokensReleased(msg.sender, releasable) */\n      0x769d4212c4fbfaa012a896b49e0f3bb14d32dd0d60ce1a13d357ee6b69db77c2\n      swap2\n        /* \"#utility.yul\":3225:3243   */\n      add\n        /* \"token-staking(copy)(copy)/contracts/Staking.sol\":16260:16305  grantedTokensReleased(msg.sender, releasable) */\n    tag_152:\n      mload(0x40)\n      dup1\n      swap2\n      sub\n      swap1\n      log1\n        /* \"token-staking(copy)(copy)/contracts/Staking.sol\":15941:16312  function release() public {... */\n      pop\n      jump\t// out\n        /* \"token-staking(copy)(copy)/contracts/Staking.sol\":7753:8561  function setPoolToken(address poolToken_, address stakingFundAddress_) public onlyOwner {... */\n    tag_82:\n        /* \"token-staking(copy)(copy)/contracts/Staking.sol\":6360:6370  msg.sender */\n      caller\n        /* \"token-staking(copy)(copy)/contracts/Staking.sol\":6360:6379  msg.sender == owner */\n      0xffffffffffffffffffffffffffffffffffffffff\n        /* \"token-staking(copy)(copy)/contracts/Staking.sol\":6374:6379  owner */\n      immutable(\"0x57014f1e5f1d53e43fa40624186159531d6372d1ab8f40ec7882845ca66de31d\")\n        /* \"token-staking(copy)(copy)/contracts/Staking.sol\":6360:6379  msg.sender == owner */\n      and\n      eq\n        /* \"token-staking(copy)(copy)/contracts/Staking.sol\":6352:6411  require(msg.sender == owner, \"Can only be called by owner\") */\n      tag_154\n      jumpi\n      mload(0x40)\n      0x08c379a000000000000000000000000000000000000000000000000000000000\n      dup2\n      mstore\n        /* \"#utility.yul\":11170:11172   */\n      0x20\n        /* \"token-staking(copy)(copy)/contracts/Staking.sol\":6352:6411  require(msg.sender == owner, \"Can only be called by owner\") */\n      0x04\n      dup3\n      add\n        /* \"#utility.yul\":11152:11173   */\n      mstore\n        /* \"#utility.yul\":11209:11211   */\n      0x1b\n        /* \"#utility.yul\":11189:11207   */\n      0x24\n      dup3\n      add\n        /* \"#utility.yul\":11182:11212   */\n      mstore\n        /* \"#utility.yul\":11248:11277   */\n      0x43616e206f6e6c792062652063616c6c6564206279206f776e65720000000000\n        /* \"#utility.yul\":11228:11246   */\n      0x44\n      dup3\n      add\n        /* \"#utility.yul\":11221:11278   */\n      mstore\n        /* \"#utility.yul\":11295:11313   */\n      0x64\n      add\n        /* \"token-staking(copy)(copy)/contracts/Staking.sol\":6352:6411  require(msg.sender == owner, \"Can only be called by owner\") */\n      tag_87\n        /* \"#utility.yul\":11142:11319   */\n      jump\n        /* \"token-staking(copy)(copy)/contracts/Staking.sol\":6352:6411  require(msg.sender == owner, \"Can only be called by owner\") */\n    tag_154:\n        /* \"token-staking(copy)(copy)/contracts/Staking.sol\":7867:7876  poolToken */\n      sload(0x03)\n        /* \"token-staking(copy)(copy)/contracts/Staking.sol\":7859:7893  address(poolToken) == address(0x0) */\n      0xffffffffffffffffffffffffffffffffffffffff\n        /* \"token-staking(copy)(copy)/contracts/Staking.sol\":7867:7876  poolToken */\n      and\n        /* \"token-staking(copy)(copy)/contracts/Staking.sol\":7859:7893  address(poolToken) == address(0x0) */\n      iszero\n        /* \"token-staking(copy)(copy)/contracts/Staking.sol\":7851:7923  require(address(poolToken) == address(0x0), \"poolToken was already set\") */\n      tag_158\n      jumpi\n      mload(0x40)\n      0x08c379a000000000000000000000000000000000000000000000000000000000\n      dup2\n      mstore\n        /* \"#utility.yul\":12718:12720   */\n      0x20\n        /* \"token-staking(copy)(copy)/contracts/Staking.sol\":7851:7923  require(address(poolToken) == address(0x0), \"poolToken was already set\") */\n      0x04\n      dup3\n      add\n        /* \"#utility.yul\":12700:12721   */\n      mstore\n        /* \"#utility.yul\":12757:12759   */\n      0x19\n        /* \"#utility.yul\":12737:12755   */\n      0x24\n      dup3\n      add\n        /* \"#utility.yul\":12730:12760   */\n      mstore\n        /* \"#utility.yul\":12796:12823   */\n      0x706f6f6c546f6b656e2077617320616c72656164792073657400000000000000\n        /* \"#utility.yul\":12776:12794   */\n      0x44\n      dup3\n      add\n        /* \"#utility.yul\":12769:12824   */\n      mstore\n        /* \"#utility.yul\":12841:12859   */\n      0x64\n      add\n        /* \"token-staking(copy)(copy)/contracts/Staking.sol\":7851:7923  require(address(poolToken) == address(0x0), \"poolToken was already set\") */\n      tag_87\n        /* \"#utility.yul\":12690:12865   */\n      jump\n        /* \"token-staking(copy)(copy)/contracts/Staking.sol\":7851:7923  require(address(poolToken) == address(0x0), \"poolToken was already set\") */\n    tag_158:\n        /* \"token-staking(copy)(copy)/contracts/Staking.sol\":7941:7967  poolToken_ != address(0x0) */\n      0xffffffffffffffffffffffffffffffffffffffff\n      dup3\n      and\n        /* \"token-staking(copy)(copy)/contracts/Staking.sol\":7933:8004  require(poolToken_ != address(0x0), \"poolToken address cannot be zero\") */\n      tag_161\n      jumpi\n      mload(0x40)\n      0x08c379a000000000000000000000000000000000000000000000000000000000\n      dup2\n      mstore\n        /* \"#utility.yul\":9649:9651   */\n      0x20\n        /* \"token-staking(copy)(copy)/contracts/Staking.sol\":7933:8004  require(poolToken_ != address(0x0), \"poolToken address cannot be zero\") */\n      0x04\n      dup3\n      add\n        /* \"#utility.yul\":9631:9652   */\n      dup2\n      swap1\n      mstore\n        /* \"#utility.yul\":9668:9686   */\n      0x24\n      dup3\n      add\n        /* \"#utility.yul\":9661:9691   */\n      mstore\n        /* \"#utility.yul\":9727:9761   */\n      0x706f6f6c546f6b656e20616464726573732063616e6e6f74206265207a65726f\n        /* \"#utility.yul\":9707:9725   */\n      0x44\n      dup3\n      add\n        /* \"#utility.yul\":9700:9762   */\n      mstore\n        /* \"#utility.yul\":9779:9797   */\n      0x64\n      add\n        /* \"token-staking(copy)(copy)/contracts/Staking.sol\":7933:8004  require(poolToken_ != address(0x0), \"poolToken address cannot be zero\") */\n      tag_87\n        /* \"#utility.yul\":9621:9803   */\n      jump\n        /* \"token-staking(copy)(copy)/contracts/Staking.sol\":7933:8004  require(poolToken_ != address(0x0), \"poolToken address cannot be zero\") */\n    tag_161:\n        /* \"token-staking(copy)(copy)/contracts/Staking.sol\":8014:8023  poolToken */\n      0x03\n        /* \"token-staking(copy)(copy)/contracts/Staking.sol\":8014:8044  poolToken = IERC20(poolToken_) */\n      dup1\n      sload\n      0xffffffffffffffffffffffff0000000000000000000000000000000000000000\n      and\n      0xffffffffffffffffffffffffffffffffffffffff\n      dup5\n      dup2\n      and\n      swap2\n      swap1\n      swap2\n      or\n      swap1\n      swap2\n      sstore\n        /* \"token-staking(copy)(copy)/contracts/Staking.sol\":8135:8184  IERC20(oilerToken).balanceOf(stakingFundAddress_) */\n      mload(0x40)\n      0x70a0823100000000000000000000000000000000000000000000000000000000\n      dup2\n      mstore\n        /* \"#utility.yul\":1847:1902   */\n      dup3\n      dup3\n      and\n        /* \"token-staking(copy)(copy)/contracts/Staking.sol\":8135:8184  IERC20(oilerToken).balanceOf(stakingFundAddress_) */\n      0x04\n      dup3\n      add\n        /* \"#utility.yul\":1829:1903   */\n      mstore\n        /* \"token-staking(copy)(copy)/contracts/Staking.sol\":8188:8205  stakingFundAmount */\n      immutable(\"0x8b953cbb84328003779eb1ef176ef07f7dd0ae3d4a8e408de53d15a36466c86e\")\n      swap2\n        /* \"token-staking(copy)(copy)/contracts/Staking.sol\":8142:8152  oilerToken */\n      immutable(\"0x880de8116b3dfac28e9ff528a9fef1d1e0a51449c1addce011ffec1f302992b6\")\n        /* \"token-staking(copy)(copy)/contracts/Staking.sol\":8135:8163  IERC20(oilerToken).balanceOf */\n      and\n      swap1\n      0x70a08231\n      swap1\n        /* \"#utility.yul\":1802:1820   */\n      0x24\n      add\n        /* \"token-staking(copy)(copy)/contracts/Staking.sol\":8135:8184  IERC20(oilerToken).balanceOf(stakingFundAddress_) */\n      0x20\n      mload(0x40)\n      dup1\n      dup4\n      sub\n      dup2\n      dup7\n      dup1\n      extcodesize\n      iszero\n      dup1\n      iszero\n      tag_165\n      jumpi\n      0x00\n      dup1\n      revert\n    tag_165:\n      pop\n      gas\n      staticcall\n      iszero\n      dup1\n      iszero\n      tag_167\n      jumpi\n      returndatasize\n      0x00\n      dup1\n      returndatacopy\n      revert(0x00, returndatasize)\n    tag_167:\n      pop\n      pop\n      pop\n      pop\n      mload(0x40)\n      returndatasize\n      not(0x1f)\n      0x1f\n      dup3\n      add\n      and\n      dup3\n      add\n      dup1\n      0x40\n      mstore\n      pop\n      dup2\n      add\n      swap1\n      tag_168\n      swap2\n      swap1\n      tag_169\n      jump\t// in\n    tag_168:\n        /* \"token-staking(copy)(copy)/contracts/Staking.sol\":8135:8205  IERC20(oilerToken).balanceOf(stakingFundAddress_) >= stakingFundAmount */\n      lt\n      iszero\n        /* \"token-staking(copy)(copy)/contracts/Staking.sol\":8127:8253  require(IERC20(oilerToken).balanceOf(stakingFundAddress_) >= stakingFundAmount, \"StakingFund doesn't have enough OIL balance\") */\n      tag_170\n      jumpi\n      mload(0x40)\n      0x08c379a000000000000000000000000000000000000000000000000000000000\n      dup2\n      mstore\n        /* \"#utility.yul\":10010:10012   */\n      0x20\n        /* \"token-staking(copy)(copy)/contracts/Staking.sol\":8127:8253  require(IERC20(oilerToken).balanceOf(stakingFundAddress_) >= stakingFundAmount, \"StakingFund doesn't have enough OIL balance\") */\n      0x04\n      dup3\n      add\n        /* \"#utility.yul\":9992:10013   */\n      mstore\n        /* \"#utility.yul\":10049:10051   */\n      0x2b\n        /* \"#utility.yul\":10029:10047   */\n      0x24\n      dup3\n      add\n        /* \"#utility.yul\":10022:10052   */\n      mstore\n        /* \"#utility.yul\":10088:10122   */\n      0x5374616b696e6746756e6420646f65736e2774206861766520656e6f75676820\n        /* \"#utility.yul\":10068:10086   */\n      0x44\n      dup3\n      add\n        /* \"#utility.yul\":10061:10123   */\n      mstore\n        /* \"#utility.yul\":10159:10172   */\n      0x4f494c2062616c616e6365000000000000000000000000000000000000000000\n        /* \"#utility.yul\":10139:10157   */\n      0x64\n      dup3\n      add\n        /* \"#utility.yul\":10132:10173   */\n      mstore\n        /* \"#utility.yul\":10190:10209   */\n      0x84\n      add\n        /* \"token-staking(copy)(copy)/contracts/Staking.sol\":8127:8253  require(IERC20(oilerToken).balanceOf(stakingFundAddress_) >= stakingFundAmount, \"StakingFund doesn't have enough OIL balance\") */\n      tag_87\n        /* \"#utility.yul\":9982:10215   */\n      jump\n        /* \"token-staking(copy)(copy)/contracts/Staking.sol\":8127:8253  require(IERC20(oilerToken).balanceOf(stakingFundAddress_) >= stakingFundAmount, \"StakingFund doesn't have enough OIL balance\") */\n    tag_170:\n        /* \"token-staking(copy)(copy)/contracts/Staking.sol\":8271:8335  IERC20(oilerToken).allowance(stakingFundAddress_, address(this)) */\n      mload(0x40)\n      0xdd62ed3e00000000000000000000000000000000000000000000000000000000\n      dup2\n      mstore\n        /* \"token-staking(copy)(copy)/contracts/Staking.sol\":8271:8299  IERC20(oilerToken).allowance */\n      0xffffffffffffffffffffffffffffffffffffffff\n        /* \"#utility.yul\":2167:2182   */\n      dup3\n      dup2\n      and\n        /* \"token-staking(copy)(copy)/contracts/Staking.sol\":8271:8335  IERC20(oilerToken).allowance(stakingFundAddress_, address(this)) */\n      0x04\n      dup4\n      add\n        /* \"#utility.yul\":2149:2183   */\n      mstore\n        /* \"token-staking(copy)(copy)/contracts/Staking.sol\":8329:8333  this */\n      address\n        /* \"#utility.yul\":2199:2217   */\n      0x24\n      dup4\n      add\n        /* \"#utility.yul\":2192:2235   */\n      mstore\n        /* \"token-staking(copy)(copy)/contracts/Staking.sol\":8339:8356  stakingFundAmount */\n      immutable(\"0x8b953cbb84328003779eb1ef176ef07f7dd0ae3d4a8e408de53d15a36466c86e\")\n      swap2\n        /* \"token-staking(copy)(copy)/contracts/Staking.sol\":8278:8288  oilerToken */\n      immutable(\"0x880de8116b3dfac28e9ff528a9fef1d1e0a51449c1addce011ffec1f302992b6\")\n        /* \"token-staking(copy)(copy)/contracts/Staking.sol\":8271:8299  IERC20(oilerToken).allowance */\n      swap1\n      swap2\n      and\n      swap1\n      0xdd62ed3e\n      swap1\n        /* \"#utility.yul\":2061:2079   */\n      0x44\n      add\n        /* \"token-staking(copy)(copy)/contracts/Staking.sol\":8271:8335  IERC20(oilerToken).allowance(stakingFundAddress_, address(this)) */\n      0x20\n      mload(0x40)\n      dup1\n      dup4\n      sub\n      dup2\n      dup7\n      dup1\n      extcodesize\n      iszero\n      dup1\n      iszero\n      tag_175\n      jumpi\n      0x00\n      dup1\n      revert\n    tag_175:\n      pop\n      gas\n      staticcall\n      iszero\n      dup1\n      iszero\n      tag_177\n      jumpi\n      returndatasize\n      0x00\n      dup1\n      returndatacopy\n      revert(0x00, returndatasize)\n    tag_177:\n      pop\n      pop\n      pop\n      pop\n      mload(0x40)\n      returndatasize\n      not(0x1f)\n      0x1f\n      dup3\n      add\n      and\n      dup3\n      add\n      dup1\n      0x40\n      mstore\n      pop\n      dup2\n      add\n      swap1\n      tag_178\n      swap2\n      swap1\n      tag_169\n      jump\t// in\n    tag_178:\n        /* \"token-staking(copy)(copy)/contracts/Staking.sol\":8271:8356  IERC20(oilerToken).allowance(stakingFundAddress_, address(this)) >= stakingFundAmount */\n      lt\n      iszero\n        /* \"token-staking(copy)(copy)/contracts/Staking.sol\":8263:8402  require(IERC20(oilerToken).allowance(stakingFundAddress_, address(this)) >= stakingFundAmount, \"StakingFund doesn't have enough allowance\") */\n      tag_179\n      jumpi\n      mload(0x40)\n      0x08c379a000000000000000000000000000000000000000000000000000000000\n      dup2\n      mstore\n        /* \"#utility.yul\":9239:9241   */\n      0x20\n        /* \"token-staking(copy)(copy)/contracts/Staking.sol\":8263:8402  require(IERC20(oilerToken).allowance(stakingFundAddress_, address(this)) >= stakingFundAmount, \"StakingFund doesn't have enough allowance\") */\n      0x04\n      dup3\n      add\n        /* \"#utility.yul\":9221:9242   */\n      mstore\n        /* \"#utility.yul\":9278:9280   */\n      0x29\n        /* \"#utility.yul\":9258:9276   */\n      0x24\n      dup3\n      add\n        /* \"#utility.yul\":9251:9281   */\n      mstore\n        /* \"#utility.yul\":9317:9351   */\n      0x5374616b696e6746756e6420646f65736e2774206861766520656e6f75676820\n        /* \"#utility.yul\":9297:9315   */\n      0x44\n      dup3\n      add\n        /* \"#utility.yul\":9290:9352   */\n      mstore\n        /* \"#utility.yul\":9388:9399   */\n      0x616c6c6f77616e63650000000000000000000000000000000000000000000000\n        /* \"#utility.yul\":9368:9386   */\n      0x64\n      dup3\n      add\n        /* \"#utility.yul\":9361:9400   */\n      mstore\n        /* \"#utility.yul\":9417:9436   */\n      0x84\n      add\n        /* \"token-staking(copy)(copy)/contracts/Staking.sol\":8263:8402  require(IERC20(oilerToken).allowance(stakingFundAddress_, address(this)) >= stakingFundAmount, \"StakingFund doesn't have enough allowance\") */\n      tag_87\n        /* \"#utility.yul\":9211:9442   */\n      jump\n        /* \"token-staking(copy)(copy)/contracts/Staking.sol\":8263:8402  require(IERC20(oilerToken).allowance(stakingFundAddress_, address(this)) >= stakingFundAmount, \"StakingFund doesn't have enough allowance\") */\n    tag_179:\n        /* \"token-staking(copy)(copy)/contracts/Staking.sol\":8420:8506  IERC20(oilerToken).transferFrom(stakingFundAddress_, address(this), stakingFundAmount) */\n      mload(0x40)\n      0x23b872dd00000000000000000000000000000000000000000000000000000000\n      dup2\n      mstore\n        /* \"token-staking(copy)(copy)/contracts/Staking.sol\":8420:8451  IERC20(oilerToken).transferFrom */\n      0xffffffffffffffffffffffffffffffffffffffff\n        /* \"#utility.yul\":2527:2542   */\n      dup3\n      dup2\n      and\n        /* \"token-staking(copy)(copy)/contracts/Staking.sol\":8420:8506  IERC20(oilerToken).transferFrom(stakingFundAddress_, address(this), stakingFundAmount) */\n      0x04\n      dup4\n      add\n        /* \"#utility.yul\":2509:2543   */\n      mstore\n        /* \"token-staking(copy)(copy)/contracts/Staking.sol\":8481:8485  this */\n      address\n        /* \"#utility.yul\":2559:2577   */\n      0x24\n      dup4\n      add\n        /* \"#utility.yul\":2552:2595   */\n      mstore\n        /* \"token-staking(copy)(copy)/contracts/Staking.sol\":8488:8505  stakingFundAmount */\n      immutable(\"0x8b953cbb84328003779eb1ef176ef07f7dd0ae3d4a8e408de53d15a36466c86e\")\n        /* \"#utility.yul\":2611:2629   */\n      0x44\n      dup4\n      add\n        /* \"#utility.yul\":2604:2638   */\n      mstore\n        /* \"token-staking(copy)(copy)/contracts/Staking.sol\":8427:8437  oilerToken */\n      immutable(\"0x880de8116b3dfac28e9ff528a9fef1d1e0a51449c1addce011ffec1f302992b6\")\n        /* \"token-staking(copy)(copy)/contracts/Staking.sol\":8420:8451  IERC20(oilerToken).transferFrom */\n      and\n      swap1\n      0x23b872dd\n      swap1\n        /* \"#utility.yul\":2421:2439   */\n      0x64\n      add\n        /* \"token-staking(copy)(copy)/contracts/Staking.sol\":8420:8506  IERC20(oilerToken).transferFrom(stakingFundAddress_, address(this), stakingFundAmount) */\n      0x20\n      mload(0x40)\n      dup1\n      dup4\n      sub\n      dup2\n      0x00\n      dup8\n      dup1\n      extcodesize\n      iszero\n      dup1\n      iszero\n      tag_184\n      jumpi\n      0x00\n      dup1\n      revert\n    tag_184:\n      pop\n      gas\n      call\n      iszero\n      dup1\n      iszero\n      tag_186\n      jumpi\n      returndatasize\n      0x00\n      dup1\n      returndatacopy\n      revert(0x00, returndatasize)\n    tag_186:\n      pop\n      pop\n      pop\n      pop\n      mload(0x40)\n      returndatasize\n      not(0x1f)\n      0x1f\n      dup3\n      add\n      and\n      dup3\n      add\n      dup1\n      0x40\n      mstore\n      pop\n      dup2\n      add\n      swap1\n      tag_187\n      swap2\n      swap1\n      tag_124\n      jump\t// in\n    tag_187:\n        /* \"token-staking(copy)(copy)/contracts/Staking.sol\":8412:8554  require(IERC20(oilerToken).transferFrom(stakingFundAddress_, address(this), stakingFundAmount), \"TransferFrom of OIL from StakingFund failed\") */\n      tag_188\n      jumpi\n      mload(0x40)\n      0x08c379a000000000000000000000000000000000000000000000000000000000\n      dup2\n      mstore\n        /* \"#utility.yul\":11946:11948   */\n      0x20\n        /* \"token-staking(copy)(copy)/contracts/Staking.sol\":8412:8554  require(IERC20(oilerToken).transferFrom(stakingFundAddress_, address(this), stakingFundAmount), \"TransferFrom of OIL from StakingFund failed\") */\n      0x04\n      dup3\n      add\n        /* \"#utility.yul\":11928:11949   */\n      mstore\n        /* \"#utility.yul\":11985:11987   */\n      0x2b\n        /* \"#utility.yul\":11965:11983   */\n      0x24\n      dup3\n      add\n        /* \"#utility.yul\":11958:11988   */\n      mstore\n        /* \"#utility.yul\":12024:12058   */\n      0x5472616e7366657246726f6d206f66204f494c2066726f6d205374616b696e67\n        /* \"#utility.yul\":12004:12022   */\n      0x44\n      dup3\n      add\n        /* \"#utility.yul\":11997:12059   */\n      mstore\n        /* \"#utility.yul\":12095:12108   */\n      0x46756e64206661696c6564000000000000000000000000000000000000000000\n        /* \"#utility.yul\":12075:12093   */\n      0x64\n      dup3\n      add\n        /* \"#utility.yul\":12068:12109   */\n      mstore\n        /* \"#utility.yul\":12126:12145   */\n      0x84\n      add\n        /* \"token-staking(copy)(copy)/contracts/Staking.sol\":8412:8554  require(IERC20(oilerToken).transferFrom(stakingFundAddress_, address(this), stakingFundAmount), \"TransferFrom of OIL from StakingFund failed\") */\n      tag_87\n        /* \"#utility.yul\":11918:12151   */\n      jump\n        /* \"token-staking(copy)(copy)/contracts/Staking.sol\":8412:8554  require(IERC20(oilerToken).transferFrom(stakingFundAddress_, address(this), stakingFundAmount), \"TransferFrom of OIL from StakingFund failed\") */\n    tag_188:\n        /* \"token-staking(copy)(copy)/contracts/Staking.sol\":7753:8561  function setPoolToken(address poolToken_, address stakingFundAddress_) public onlyOwner {... */\n      pop\n      pop\n      jump\t// out\n        /* \"token-staking(copy)(copy)/contracts/Staking.sol\":11815:12509  function unlockTokens() public poolTokenSet {... */\n    tag_84:\n        /* \"token-staking(copy)(copy)/contracts/Staking.sol\":6121:6130  poolToken */\n      sload(0x03)\n        /* \"token-staking(copy)(copy)/contracts/Staking.sol\":6113:6147  address(poolToken) != address(0x0) */\n      0xffffffffffffffffffffffffffffffffffffffff\n        /* \"token-staking(copy)(copy)/contracts/Staking.sol\":6121:6130  poolToken */\n      and\n        /* \"token-staking(copy)(copy)/contracts/Staking.sol\":6105:6169  require(address(poolToken) != address(0x0), \"poolToken not set\") */\n      tag_192\n      jumpi\n      mload(0x40)\n      0x08c379a000000000000000000000000000000000000000000000000000000000\n      dup2\n      mstore\n        /* \"#utility.yul\":10422:10424   */\n      0x20\n        /* \"token-staking(copy)(copy)/contracts/Staking.sol\":6105:6169  require(address(poolToken) != address(0x0), \"poolToken not set\") */\n      0x04\n      dup3\n      add\n        /* \"#utility.yul\":10404:10425   */\n      mstore\n        /* \"#utility.yul\":10461:10463   */\n      0x11\n        /* \"#utility.yul\":10441:10459   */\n      0x24\n      dup3\n      add\n        /* \"#utility.yul\":10434:10464   */\n      mstore\n        /* \"#utility.yul\":10500:10519   */\n      0x706f6f6c546f6b656e206e6f7420736574000000000000000000000000000000\n        /* \"#utility.yul\":10480:10498   */\n      0x44\n      dup3\n      add\n        /* \"#utility.yul\":10473:10520   */\n      mstore\n        /* \"#utility.yul\":10537:10555   */\n      0x64\n      add\n        /* \"token-staking(copy)(copy)/contracts/Staking.sol\":6105:6169  require(address(poolToken) != address(0x0), \"poolToken not set\") */\n      tag_87\n        /* \"#utility.yul\":10394:10561   */\n      jump\n        /* \"token-staking(copy)(copy)/contracts/Staking.sol\":6105:6169  require(address(poolToken) != address(0x0), \"poolToken not set\") */\n    tag_192:\n        /* \"token-staking(copy)(copy)/contracts/Staking.sol\":11897:11907  msg.sender */\n      caller\n        /* \"token-staking(copy)(copy)/contracts/Staking.sol\":11869:11887  Stake memory stake */\n      0x00\n        /* \"token-staking(copy)(copy)/contracts/Staking.sol\":11890:11908  stakes[msg.sender] */\n      swap1\n      dup2\n      mstore\n      0x20\n      dup2\n      dup2\n      mstore\n      0x40\n      swap2\n      dup3\n      swap1\n      keccak256\n        /* \"token-staking(copy)(copy)/contracts/Staking.sol\":11869:11908  Stake memory stake = stakes[msg.sender] */\n      dup3\n      mload\n      0x80\n      dup2\n      add\n      dup5\n      mstore\n      swap1\n      sload\n      0xffffffffffffffffff\n      dup2\n      and\n      dup1\n      dup4\n      mstore\n      0x01000000000000000000\n      dup3\n      div\n      0xffffff\n      and\n      swap4\n      dup4\n      add\n      swap4\n      swap1\n      swap4\n      mstore\n      0x01000000000000000000000000\n      dup2\n      div\n      0xffffffff\n      and\n      swap4\n      dup3\n      add\n      swap4\n      swap1\n      swap4\n      mstore\n      0x0100000000000000000000000000000000\n      swap1\n      swap3\n      div\n      0xffffffffffffffffffffffffffffffff\n      and\n      0x60\n      dup4\n      add\n      mstore\n      dup1\n        /* \"token-staking(copy)(copy)/contracts/Staking.sol\":11969:12030  require(stakeAmount != 0, \"You don't have a stake to unlock\") */\n      tag_195\n      jumpi\n      mload(0x40)\n      0x08c379a000000000000000000000000000000000000000000000000000000000\n      dup2\n      mstore\n        /* \"#utility.yul\":6857:6859   */\n      0x20\n        /* \"token-staking(copy)(copy)/contracts/Staking.sol\":11969:12030  require(stakeAmount != 0, \"You don't have a stake to unlock\") */\n      0x04\n      dup3\n      add\n        /* \"#utility.yul\":6839:6860   */\n      dup2\n      swap1\n      mstore\n        /* \"#utility.yul\":6876:6894   */\n      0x24\n      dup3\n      add\n        /* \"#utility.yul\":6869:6899   */\n      mstore\n        /* \"#utility.yul\":6935:6969   */\n      0x596f7520646f6e277420686176652061207374616b6520746f20756e6c6f636b\n        /* \"#utility.yul\":6915:6933   */\n      0x44\n      dup3\n      add\n        /* \"#utility.yul\":6908:6970   */\n      mstore\n        /* \"#utility.yul\":6987:7005   */\n      0x64\n      add\n        /* \"token-staking(copy)(copy)/contracts/Staking.sol\":11969:12030  require(stakeAmount != 0, \"You don't have a stake to unlock\") */\n      tag_87\n        /* \"#utility.yul\":6829:7011   */\n      jump\n        /* \"token-staking(copy)(copy)/contracts/Staking.sol\":11969:12030  require(stakeAmount != 0, \"You don't have a stake to unlock\") */\n    tag_195:\n        /* \"token-staking(copy)(copy)/contracts/Staking.sol\":12064:12069  stake */\n      dup2\n        /* \"token-staking(copy)(copy)/contracts/Staking.sol\":12064:12080  stake.startBlock */\n      0x40\n      add\n      mload\n        /* \"token-staking(copy)(copy)/contracts/Staking.sol\":12049:12080  block.number > stake.startBlock */\n      0xffffffff\n      and\n        /* \"token-staking(copy)(copy)/contracts/Staking.sol\":12049:12061  block.number */\n      number\n        /* \"token-staking(copy)(copy)/contracts/Staking.sol\":12049:12080  block.number > stake.startBlock */\n      gt\n        /* \"token-staking(copy)(copy)/contracts/Staking.sol\":12041:12145  require(block.number > stake.startBlock, \"You can't withdraw the stake in the same block it was locked\") */\n      tag_198\n      jumpi\n      mload(0x40)\n      0x08c379a000000000000000000000000000000000000000000000000000000000\n      dup2\n      mstore\n        /* \"#utility.yul\":8810:8812   */\n      0x20\n        /* \"token-staking(copy)(copy)/contracts/Staking.sol\":12041:12145  require(block.number > stake.startBlock, \"You can't withdraw the stake in the same block it was locked\") */\n      0x04\n      dup3\n      add\n        /* \"#utility.yul\":8792:8813   */\n      mstore\n        /* \"#utility.yul\":8849:8851   */\n      0x3c\n        /* \"#utility.yul\":8829:8847   */\n      0x24\n      dup3\n      add\n        /* \"#utility.yul\":8822:8852   */\n      mstore\n        /* \"#utility.yul\":8888:8922   */\n      0x596f752063616e277420776974686472617720746865207374616b6520696e20\n        /* \"#utility.yul\":8868:8886   */\n      0x44\n      dup3\n      add\n        /* \"#utility.yul\":8861:8923   */\n      mstore\n        /* \"#utility.yul\":8959:8989   */\n      0x7468652073616d6520626c6f636b20697420776173206c6f636b656400000000\n        /* \"#utility.yul\":8939:8957   */\n      0x64\n      dup3\n      add\n        /* \"#utility.yul\":8932:8990   */\n      mstore\n        /* \"#utility.yul\":9007:9026   */\n      0x84\n      add\n        /* \"token-staking(copy)(copy)/contracts/Staking.sol\":12041:12145  require(block.number > stake.startBlock, \"You can't withdraw the stake in the same block it was locked\") */\n      tag_87\n        /* \"#utility.yul\":8782:9032   */\n      jump\n        /* \"token-staking(copy)(copy)/contracts/Staking.sol\":12041:12145  require(block.number > stake.startBlock, \"You can't withdraw the stake in the same block it was locked\") */\n    tag_198:\n        /* \"token-staking(copy)(copy)/contracts/Staking.sol\":12253:12282  _punishEarlyWithdrawal(stake) */\n      tag_201\n        /* \"token-staking(copy)(copy)/contracts/Staking.sol\":12276:12281  stake */\n      dup3\n        /* \"token-staking(copy)(copy)/contracts/Staking.sol\":12253:12275  _punishEarlyWithdrawal */\n      tag_202\n        /* \"token-staking(copy)(copy)/contracts/Staking.sol\":12253:12282  _punishEarlyWithdrawal(stake) */\n      jump\t// in\n    tag_201:\n        /* \"token-staking(copy)(copy)/contracts/Staking.sol\":12398:12408  msg.sender */\n      caller\n        /* \"token-staking(copy)(copy)/contracts/Staking.sol\":12391:12397  stakes */\n      0x00\n        /* \"token-staking(copy)(copy)/contracts/Staking.sol\":12391:12409  stakes[msg.sender] */\n      dup2\n      dup2\n      mstore\n      0x20\n      dup2\n      swap1\n      mstore\n      0x40\n      dup1\n      dup3\n      keccak256\n        /* \"token-staking(copy)(copy)/contracts/Staking.sol\":12384:12409  delete stakes[msg.sender] */\n      swap2\n      swap1\n      swap2\n      sstore\n        /* \"token-staking(copy)(copy)/contracts/Staking.sol\":12428:12437  poolToken */\n      sload(0x03)\n        /* \"token-staking(copy)(copy)/contracts/Staking.sol\":12428:12471  poolToken.transfer(msg.sender, stakeAmount) */\n      swap1\n      mload\n      0xa9059cbb00000000000000000000000000000000000000000000000000000000\n      dup2\n      mstore\n      0x04\n      dup2\n      add\n        /* \"#utility.yul\":3252:3326   */\n      swap3\n      swap1\n      swap3\n      mstore\n        /* \"#utility.yul\":3342:3360   */\n      0x24\n      dup3\n      add\n        /* \"#utility.yul\":3335:3369   */\n      dup4\n      swap1\n      mstore\n        /* \"token-staking(copy)(copy)/contracts/Staking.sol\":12391:12409  stakes[msg.sender] */\n      0xffffffffffffffffffffffffffffffffffffffff\n        /* \"token-staking(copy)(copy)/contracts/Staking.sol\":12428:12437  poolToken */\n      and\n      swap1\n        /* \"token-staking(copy)(copy)/contracts/Staking.sol\":12428:12446  poolToken.transfer */\n      0xa9059cbb\n      swap1\n        /* \"#utility.yul\":3225:3243   */\n      0x44\n      add\n        /* \"token-staking(copy)(copy)/contracts/Staking.sol\":12428:12471  poolToken.transfer(msg.sender, stakeAmount) */\n      0x20\n      mload(0x40)\n      dup1\n      dup4\n      sub\n      dup2\n      0x00\n      dup8\n      dup1\n      extcodesize\n      iszero\n      dup1\n      iszero\n      tag_204\n      jumpi\n      0x00\n      dup1\n      revert\n    tag_204:\n      pop\n      gas\n      call\n      iszero\n      dup1\n      iszero\n      tag_206\n      jumpi\n      returndatasize\n      0x00\n      dup1\n      returndatacopy\n      revert(0x00, returndatasize)\n    tag_206:\n      pop\n      pop\n      pop\n      pop\n      mload(0x40)\n      returndatasize\n      not(0x1f)\n      0x1f\n      dup3\n      add\n      and\n      dup3\n      add\n      dup1\n      0x40\n      mstore\n      pop\n      dup2\n      add\n      swap1\n      tag_207\n      swap2\n      swap1\n      tag_124\n      jump\t// in\n    tag_207:\n        /* \"token-staking(copy)(copy)/contracts/Staking.sol\":12420:12502  require(poolToken.transfer(msg.sender, stakeAmount), \"Pool token transfer failed\") */\n      tag_188\n      jumpi\n      mload(0x40)\n      0x08c379a000000000000000000000000000000000000000000000000000000000\n      dup2\n      mstore\n        /* \"#utility.yul\":6013:6015   */\n      0x20\n        /* \"token-staking(copy)(copy)/contracts/Staking.sol\":12420:12502  require(poolToken.transfer(msg.sender, stakeAmount), \"Pool token transfer failed\") */\n      0x04\n      dup3\n      add\n        /* \"#utility.yul\":5995:6016   */\n      mstore\n        /* \"#utility.yul\":6052:6054   */\n      0x1a\n        /* \"#utility.yul\":6032:6050   */\n      0x24\n      dup3\n      add\n        /* \"#utility.yul\":6025:6055   */\n      mstore\n        /* \"#utility.yul\":6091:6119   */\n      0x506f6f6c20746f6b656e207472616e73666572206661696c6564000000000000\n        /* \"#utility.yul\":6071:6089   */\n      0x44\n      dup3\n      add\n        /* \"#utility.yul\":6064:6120   */\n      mstore\n        /* \"#utility.yul\":6137:6155   */\n      0x64\n      add\n        /* \"token-staking(copy)(copy)/contracts/Staking.sol\":12420:12502  require(poolToken.transfer(msg.sender, stakeAmount), \"Pool token transfer failed\") */\n      tag_87\n        /* \"#utility.yul\":5985:6161   */\n      jump\n        /* \"token-staking(copy)(copy)/contracts/Staking.sol\":15531:15891  function _grantTokens(address recipient_, uint256 amountEarned_) internal {... */\n    tag_100:\n        /* \"token-staking(copy)(copy)/contracts/Staking.sol\":15639:15640  0 */\n      0x00\n        /* \"token-staking(copy)(copy)/contracts/Staking.sol\":15623:15636  amountEarned_ */\n      dup2\n        /* \"token-staking(copy)(copy)/contracts/Staking.sol\":15623:15640  amountEarned_ > 0 */\n      gt\n        /* \"token-staking(copy)(copy)/contracts/Staking.sol\":15615:15686  require(amountEarned_ > 0, \"You didn't earn any integer amount of wei\") */\n      tag_212\n      jumpi\n      mload(0x40)\n      0x08c379a000000000000000000000000000000000000000000000000000000000\n      dup2\n      mstore\n        /* \"#utility.yul\":7980:7982   */\n      0x20\n        /* \"token-staking(copy)(copy)/contracts/Staking.sol\":15615:15686  require(amountEarned_ > 0, \"You didn't earn any integer amount of wei\") */\n      0x04\n      dup3\n      add\n        /* \"#utility.yul\":7962:7983   */\n      mstore\n        /* \"#utility.yul\":8019:8021   */\n      0x29\n        /* \"#utility.yul\":7999:8017   */\n      0x24\n      dup3\n      add\n        /* \"#utility.yul\":7992:8022   */\n      mstore\n        /* \"#utility.yul\":8058:8092   */\n      0x596f75206469646e2774206561726e20616e7920696e746567657220616d6f75\n        /* \"#utility.yul\":8038:8056   */\n      0x44\n      dup3\n      add\n        /* \"#utility.yul\":8031:8093   */\n      mstore\n        /* \"#utility.yul\":8129:8140   */\n      0x6e74206f66207765690000000000000000000000000000000000000000000000\n        /* \"#utility.yul\":8109:8127   */\n      0x64\n      dup3\n      add\n        /* \"#utility.yul\":8102:8141   */\n      mstore\n        /* \"#utility.yul\":8158:8177   */\n      0x84\n      add\n        /* \"token-staking(copy)(copy)/contracts/Staking.sol\":15615:15686  require(amountEarned_ > 0, \"You didn't earn any integer amount of wei\") */\n      tag_87\n        /* \"#utility.yul\":7952:8183   */\n      jump\n        /* \"token-staking(copy)(copy)/contracts/Staking.sol\":15615:15686  require(amountEarned_ > 0, \"You didn't earn any integer amount of wei\") */\n    tag_212:\n        /* \"token-staking(copy)(copy)/contracts/Staking.sol\":15704:15728  recipient_ != address(0) */\n      0xffffffffffffffffffffffffffffffffffffffff\n      dup3\n      and\n        /* \"token-staking(copy)(copy)/contracts/Staking.sol\":15696:15778  require(recipient_ != address(0), \"TokenVesting: beneficiary is the zero address\") */\n      tag_215\n      jumpi\n      mload(0x40)\n      0x08c379a000000000000000000000000000000000000000000000000000000000\n      dup2\n      mstore\n        /* \"#utility.yul\":5599:5601   */\n      0x20\n        /* \"token-staking(copy)(copy)/contracts/Staking.sol\":15696:15778  require(recipient_ != address(0), \"TokenVesting: beneficiary is the zero address\") */\n      0x04\n      dup3\n      add\n        /* \"#utility.yul\":5581:5602   */\n      mstore\n        /* \"#utility.yul\":5638:5640   */\n      0x2d\n        /* \"#utility.yul\":5618:5636   */\n      0x24\n      dup3\n      add\n        /* \"#utility.yul\":5611:5641   */\n      mstore\n        /* \"#utility.yul\":5677:5711   */\n      0x546f6b656e56657374696e673a2062656e656669636961727920697320746865\n        /* \"#utility.yul\":5657:5675   */\n      0x44\n      dup3\n      add\n        /* \"#utility.yul\":5650:5712   */\n      mstore\n        /* \"#utility.yul\":5748:5763   */\n      0x207a65726f206164647265737300000000000000000000000000000000000000\n        /* \"#utility.yul\":5728:5746   */\n      0x64\n      dup3\n      add\n        /* \"#utility.yul\":5721:5764   */\n      mstore\n        /* \"#utility.yul\":5781:5800   */\n      0x84\n      add\n        /* \"token-staking(copy)(copy)/contracts/Staking.sol\":15696:15778  require(recipient_ != address(0), \"TokenVesting: beneficiary is the zero address\") */\n      tag_87\n        /* \"#utility.yul\":5571:5806   */\n      jump\n        /* \"token-staking(copy)(copy)/contracts/Staking.sol\":15696:15778  require(recipient_ != address(0), \"TokenVesting: beneficiary is the zero address\") */\n    tag_215:\n        /* \"token-staking(copy)(copy)/contracts/Staking.sol\":15788:15813  grantedTokens[recipient_] */\n      0xffffffffffffffffffffffffffffffffffffffff\n      dup3\n      and\n      0x00\n      dup2\n      dup2\n      mstore\n        /* \"token-staking(copy)(copy)/contracts/Staking.sol\":15788:15801  grantedTokens */\n      0x04\n        /* \"token-staking(copy)(copy)/contracts/Staking.sol\":15788:15813  grantedTokens[recipient_] */\n      0x20\n      swap1\n      dup2\n      mstore\n      0x40\n      swap2\n      dup3\n      swap1\n      keccak256\n        /* \"token-staking(copy)(copy)/contracts/Staking.sol\":15788:15829  grantedTokens[recipient_] = amountEarned_ */\n      dup5\n      swap1\n      sstore\n        /* \"token-staking(copy)(copy)/contracts/Staking.sol\":15844:15884  RewardGranted(recipient_, amountEarned_) */\n      dup2\n      mload\n        /* \"#utility.yul\":3252:3326   */\n      swap3\n      dup4\n      mstore\n        /* \"#utility.yul\":3342:3360   */\n      dup3\n      add\n        /* \"#utility.yul\":3335:3369   */\n      dup4\n      swap1\n      mstore\n        /* \"token-staking(copy)(copy)/contracts/Staking.sol\":15844:15884  RewardGranted(recipient_, amountEarned_) */\n      0x6e1afd29522b0aaf986597bcc53f5fb4daae2af7cfd41d00c384ab1bdf912b23\n      swap2\n        /* \"#utility.yul\":3225:3243   */\n      add\n        /* \"token-staking(copy)(copy)/contracts/Staking.sol\":15844:15884  RewardGranted(recipient_, amountEarned_) */\n      mload(0x40)\n      dup1\n      swap2\n      sub\n      swap1\n      log1\n        /* \"token-staking(copy)(copy)/contracts/Staking.sol\":15531:15891  function _grantTokens(address recipient_, uint256 amountEarned_) internal {... */\n      pop\n      pop\n      jump\t// out\n        /* \"token-staking(copy)(copy)/contracts/Staking.sol\":16426:16583  function _releasableAmount(address recipient_) internal view returns (uint256) {... */\n    tag_138:\n        /* \"token-staking(copy)(copy)/contracts/Staking.sol\":16550:16576  releasedTokens[recipient_] */\n      0xffffffffffffffffffffffffffffffffffffffff\n      dup2\n      and\n        /* \"token-staking(copy)(copy)/contracts/Staking.sol\":16496:16503  uint256 */\n      0x00\n        /* \"token-staking(copy)(copy)/contracts/Staking.sol\":16550:16576  releasedTokens[recipient_] */\n      swap1\n      dup2\n      mstore\n        /* \"token-staking(copy)(copy)/contracts/Staking.sol\":16550:16564  releasedTokens */\n      0x05\n        /* \"token-staking(copy)(copy)/contracts/Staking.sol\":16550:16576  releasedTokens[recipient_] */\n      0x20\n      mstore\n      0x40\n      dup2\n      keccak256\n      sload\n        /* \"token-staking(copy)(copy)/contracts/Staking.sol\":16522:16547  _vestedAmount(recipient_) */\n      tag_220\n        /* \"token-staking(copy)(copy)/contracts/Staking.sol\":16565:16575  recipient_ */\n      dup4\n        /* \"token-staking(copy)(copy)/contracts/Staking.sol\":16522:16535  _vestedAmount */\n      tag_221\n        /* \"token-staking(copy)(copy)/contracts/Staking.sol\":16522:16547  _vestedAmount(recipient_) */\n      jump\t// in\n    tag_220:\n        /* \"token-staking(copy)(copy)/contracts/Staking.sol\":16522:16576  _vestedAmount(recipient_) - releasedTokens[recipient_] */\n      tag_222\n      swap2\n      swap1\n      tag_107\n      jump\t// in\n    tag_222:\n        /* \"token-staking(copy)(copy)/contracts/Staking.sol\":16515:16576  return _vestedAmount(recipient_) - releasedTokens[recipient_] */\n      swap3\n        /* \"token-staking(copy)(copy)/contracts/Staking.sol\":16426:16583  function _releasableAmount(address recipient_) internal view returns (uint256) {... */\n      swap2\n      pop\n      pop\n      jump\t// out\n        /* \"token-staking(copy)(copy)/contracts/Staking.sol\":12610:13548  function _punishEarlyWithdrawal(Stake memory stake_) internal {... */\n    tag_202:\n        /* \"token-staking(copy)(copy)/contracts/Staking.sol\":12991:12997  stake_ */\n      dup1\n        /* \"token-staking(copy)(copy)/contracts/Staking.sol\":12991:13019  stake_.lockingPeriodInBlocks */\n      0x20\n      add\n      mload\n        /* \"token-staking(copy)(copy)/contracts/Staking.sol\":12971:13019  stake_.startBlock + stake_.lockingPeriodInBlocks */\n      0xffffff\n      and\n        /* \"token-staking(copy)(copy)/contracts/Staking.sol\":12971:12977  stake_ */\n      dup2\n        /* \"token-staking(copy)(copy)/contracts/Staking.sol\":12971:12988  stake_.startBlock */\n      0x40\n      add\n      mload\n        /* \"token-staking(copy)(copy)/contracts/Staking.sol\":12971:13019  stake_.startBlock + stake_.lockingPeriodInBlocks */\n      tag_224\n      swap2\n      swap1\n      tag_225\n      jump\t// in\n    tag_224:\n        /* \"token-staking(copy)(copy)/contracts/Staking.sol\":12955:13020  block.number < (stake_.startBlock + stake_.lockingPeriodInBlocks) */\n      0xffffffff\n      and\n        /* \"token-staking(copy)(copy)/contracts/Staking.sol\":12955:12967  block.number */\n      number\n        /* \"token-staking(copy)(copy)/contracts/Staking.sol\":12955:13020  block.number < (stake_.startBlock + stake_.lockingPeriodInBlocks) */\n      lt\n        /* \"token-staking(copy)(copy)/contracts/Staking.sol\":12951:13542  if (block.number < (stake_.startBlock + stake_.lockingPeriodInBlocks)) { // lt - cause you can only withdraw at or after startBlock + lockPeriod... */\n      iszero\n      tag_226\n      jumpi\n        /* \"token-staking(copy)(copy)/contracts/Staking.sol\":13142:13176  stake_.expectedStakingRewardPoints */\n      0x60\n      dup2\n      add\n      mload\n        /* \"token-staking(copy)(copy)/contracts/Staking.sol\":13127:13137  msg.sender */\n      caller\n        /* \"token-staking(copy)(copy)/contracts/Staking.sol\":13108:13138  rewardPointsEarned[msg.sender] */\n      0x00\n      swap1\n      dup2\n      mstore\n        /* \"token-staking(copy)(copy)/contracts/Staking.sol\":13108:13126  rewardPointsEarned */\n      0x01\n        /* \"token-staking(copy)(copy)/contracts/Staking.sol\":13108:13138  rewardPointsEarned[msg.sender] */\n      0x20\n      mstore\n      0x40\n      dup2\n      keccak256\n        /* \"token-staking(copy)(copy)/contracts/Staking.sol\":13108:13176  rewardPointsEarned[msg.sender] -= stake_.expectedStakingRewardPoints */\n      dup1\n      sload\n      0xffffffffffffffffffffffffffffffff\n      swap1\n      swap4\n      and\n      swap3\n        /* \"token-staking(copy)(copy)/contracts/Staking.sol\":13108:13138  rewardPointsEarned[msg.sender] */\n      swap1\n      swap2\n      swap1\n        /* \"token-staking(copy)(copy)/contracts/Staking.sol\":13108:13176  rewardPointsEarned[msg.sender] -= stake_.expectedStakingRewardPoints */\n      tag_227\n      swap1\n      dup5\n      swap1\n      tag_107\n      jump\t// in\n    tag_227:\n      swap3\n      pop\n      pop\n      dup2\n      swap1\n      sstore\n      pop\n        /* \"token-staking(copy)(copy)/contracts/Staking.sol\":13211:13217  stake_ */\n      dup1\n        /* \"token-staking(copy)(copy)/contracts/Staking.sol\":13211:13245  stake_.expectedStakingRewardPoints */\n      0x60\n      add\n      mload\n        /* \"token-staking(copy)(copy)/contracts/Staking.sol\":13190:13245  totalRewardPoints -= stake_.expectedStakingRewardPoints */\n      0xffffffffffffffffffffffffffffffff\n      and\n        /* \"token-staking(copy)(copy)/contracts/Staking.sol\":13190:13207  totalRewardPoints */\n      0x02\n      0x00\n        /* \"token-staking(copy)(copy)/contracts/Staking.sol\":13190:13245  totalRewardPoints -= stake_.expectedStakingRewardPoints */\n      dup3\n      dup3\n      sload\n      tag_228\n      swap2\n      swap1\n      tag_107\n      jump\t// in\n    tag_228:\n      swap1\n      swap2\n      sstore\n      pop\n      pop\n        /* \"token-staking(copy)(copy)/contracts/Staking.sol\":13301:13319  stake_.tokenAmount */\n      dup1\n      mload\n        /* \"token-staking(copy)(copy)/contracts/Staking.sol\":13321:13349  stake_.lockingPeriodInBlocks */\n      0x20\n      dup3\n      add\n      mload\n        /* \"token-staking(copy)(copy)/contracts/Staking.sol\":13366:13383  stake_.startBlock */\n      0x40\n      dup4\n      add\n      mload\n        /* \"token-staking(copy)(copy)/contracts/Staking.sol\":13264:13384  StakeUnlockedPrematurely(msg.sender, stake_.tokenAmount, stake_.lockingPeriodInBlocks, block.number - stake_.startBlock) */\n      0x6c6f3c7d8c87976393011cc962da12841024bc1d62d2de21716a6306ab314ef3\n      swap3\n        /* \"token-staking(copy)(copy)/contracts/Staking.sol\":13289:13299  msg.sender */\n      caller\n      swap3\n        /* \"token-staking(copy)(copy)/contracts/Staking.sol\":13301:13319  stake_.tokenAmount */\n      swap1\n      swap2\n        /* \"token-staking(copy)(copy)/contracts/Staking.sol\":13351:13383  block.number - stake_.startBlock */\n      tag_229\n      swap1\n      0xffffffff\n      and\n        /* \"token-staking(copy)(copy)/contracts/Staking.sol\":13351:13363  block.number */\n      number\n        /* \"token-staking(copy)(copy)/contracts/Staking.sol\":13351:13383  block.number - stake_.startBlock */\n      tag_107\n      jump\t// in\n    tag_229:\n        /* \"token-staking(copy)(copy)/contracts/Staking.sol\":13264:13384  StakeUnlockedPrematurely(msg.sender, stake_.tokenAmount, stake_.lockingPeriodInBlocks, block.number - stake_.startBlock) */\n      0x40\n      dup1\n      mload\n        /* \"#utility.yul\":4165:4207   */\n      0xffffffffffffffffffffffffffffffffffffffff\n        /* \"#utility.yul\":4153:4208   */\n      swap1\n      swap6\n      and\n        /* \"#utility.yul\":4135:4209   */\n      dup6\n      mstore\n        /* \"#utility.yul\":4257:4277   */\n      0xffffffffffffffffff\n        /* \"#utility.yul\":4245:4278   */\n      swap1\n      swap4\n      and\n        /* \"#utility.yul\":4240:4242   */\n      0x20\n        /* \"#utility.yul\":4225:4243   */\n      dup6\n      add\n        /* \"#utility.yul\":4218:4279   */\n      mstore\n        /* \"#utility.yul\":4327:4335   */\n      0xffffff\n        /* \"#utility.yul\":4315:4336   */\n      swap1\n      swap2\n      and\n        /* \"#utility.yul\":4295:4313   */\n      swap2\n      dup4\n      add\n        /* \"#utility.yul\":4288:4337   */\n      swap2\n      swap1\n      swap2\n      mstore\n        /* \"#utility.yul\":4368:4370   */\n      0x60\n        /* \"#utility.yul\":4353:4371   */\n      dup3\n      add\n        /* \"#utility.yul\":4346:4380   */\n      mstore\n        /* \"#utility.yul\":4122:4125   */\n      0x80\n        /* \"#utility.yul\":4107:4126   */\n      add\n        /* \"token-staking(copy)(copy)/contracts/Staking.sol\":13264:13384  StakeUnlockedPrematurely(msg.sender, stake_.tokenAmount, stake_.lockingPeriodInBlocks, block.number - stake_.startBlock) */\n      tag_152\n        /* \"#utility.yul\":4089:4386   */\n      jump\n        /* \"token-staking(copy)(copy)/contracts/Staking.sol\":12951:13542  if (block.number < (stake_.startBlock + stake_.lockingPeriodInBlocks)) { // lt - cause you can only withdraw at or after startBlock + lockPeriod... */\n    tag_226:\n        /* \"token-staking(copy)(copy)/contracts/Staking.sol\":13446:13464  stake_.tokenAmount */\n      dup1\n      mload\n        /* \"token-staking(copy)(copy)/contracts/Staking.sol\":13466:13494  stake_.lockingPeriodInBlocks */\n      0x20\n      dup1\n      dup4\n      add\n      mload\n        /* \"token-staking(copy)(copy)/contracts/Staking.sol\":13496:13530  stake_.expectedStakingRewardPoints */\n      0x60\n      dup1\n      dup6\n      add\n      mload\n        /* \"token-staking(copy)(copy)/contracts/Staking.sol\":13420:13531  StakeUnlocked(msg.sender, stake_.tokenAmount, stake_.lockingPeriodInBlocks, stake_.expectedStakingRewardPoints) */\n      0x40\n      dup1\n      mload\n        /* \"token-staking(copy)(copy)/contracts/Staking.sol\":13434:13444  msg.sender */\n      caller\n        /* \"#utility.yul\":3609:3683   */\n      dup2\n      mstore\n        /* \"#utility.yul\":3731:3751   */\n      0xffffffffffffffffff\n        /* \"#utility.yul\":3719:3752   */\n      swap1\n      swap7\n      and\n        /* \"#utility.yul\":3699:3717   */\n      swap5\n      dup7\n      add\n        /* \"#utility.yul\":3692:3753   */\n      swap5\n      swap1\n      swap5\n      mstore\n        /* \"#utility.yul\":3801:3809   */\n      0xffffff\n        /* \"#utility.yul\":3789:3810   */\n      swap1\n      swap3\n      and\n        /* \"#utility.yul\":3769:3787   */\n      swap3\n      dup5\n      add\n        /* \"#utility.yul\":3762:3811   */\n      swap3\n      swap1\n      swap3\n      mstore\n        /* \"#utility.yul\":3859:3893   */\n      0xffffffffffffffffffffffffffffffff\n        /* \"#utility.yul\":3847:3894   */\n      and\n        /* \"#utility.yul\":3827:3845   */\n      swap1\n      dup3\n      add\n        /* \"#utility.yul\":3820:3895   */\n      mstore\n        /* \"token-staking(copy)(copy)/contracts/Staking.sol\":13420:13531  StakeUnlocked(msg.sender, stake_.tokenAmount, stake_.lockingPeriodInBlocks, stake_.expectedStakingRewardPoints) */\n      0x391930ab48e95a9040c849cc86e1b2f63c711a1f59d6e324ce775dc9a0051056\n      swap1\n        /* \"#utility.yul\":3596:3599   */\n      0x80\n        /* \"#utility.yul\":3581:3600   */\n      add\n        /* \"token-staking(copy)(copy)/contracts/Staking.sol\":13420:13531  StakeUnlocked(msg.sender, stake_.tokenAmount, stake_.lockingPeriodInBlocks, stake_.expectedStakingRewardPoints) */\n      tag_152\n        /* \"#utility.yul\":3563:3901   */\n      jump\n        /* \"token-staking(copy)(copy)/contracts/Staking.sol\":16807:17293  function _vestedAmount(address recipient_) internal view returns (uint256) {... */\n    tag_221:\n        /* \"token-staking(copy)(copy)/contracts/Staking.sol\":16873:16880  uint256 */\n      0x00\n        /* \"token-staking(copy)(copy)/contracts/Staking.sol\":16912:16953  stakingProgramEndsBlock + vestingDuration */\n      tag_235\n        /* \"token-staking(copy)(copy)/contracts/Staking.sol\":16938:16953  vestingDuration */\n      immutable(\"0xbbd48b257be1b8216d144ef9be5734f8d11697959c9e0f7768bec89db74a63a3\")\n        /* \"token-staking(copy)(copy)/contracts/Staking.sol\":16912:16935  stakingProgramEndsBlock */\n      immutable(\"0x7749cc8014201da2069c21d93ba99c584b6f62d393fde534ed47eac227e31561\")\n        /* \"token-staking(copy)(copy)/contracts/Staking.sol\":16912:16953  stakingProgramEndsBlock + vestingDuration */\n      tag_116\n      jump\t// in\n    tag_235:\n        /* \"token-staking(copy)(copy)/contracts/Staking.sol\":16896:16908  block.number */\n      number\n        /* \"token-staking(copy)(copy)/contracts/Staking.sol\":16896:16953  block.number >= stakingProgramEndsBlock + vestingDuration */\n      lt\n        /* \"token-staking(copy)(copy)/contracts/Staking.sol\":16892:17287  if (block.number >= stakingProgramEndsBlock + vestingDuration) {... */\n      tag_236\n      jumpi\n      pop\n        /* \"token-staking(copy)(copy)/contracts/Staking.sol\":17048:17073  grantedTokens[recipient_] */\n      0xffffffffffffffffffffffffffffffffffffffff\n      and\n      0x00\n      swap1\n      dup2\n      mstore\n        /* \"token-staking(copy)(copy)/contracts/Staking.sol\":17048:17061  grantedTokens */\n      0x04\n        /* \"token-staking(copy)(copy)/contracts/Staking.sol\":17048:17073  grantedTokens[recipient_] */\n      0x20\n      mstore\n      0x40\n      swap1\n      keccak256\n      sload\n      swap1\n        /* \"token-staking(copy)(copy)/contracts/Staking.sol\":16807:17293  function _vestedAmount(address recipient_) internal view returns (uint256) {... */\n      jump\t// out\n        /* \"token-staking(copy)(copy)/contracts/Staking.sol\":16892:17287  if (block.number >= stakingProgramEndsBlock + vestingDuration) {... */\n    tag_236:\n        /* \"token-staking(copy)(copy)/contracts/Staking.sol\":17261:17276  vestingDuration */\n      immutable(\"0xbbd48b257be1b8216d144ef9be5734f8d11697959c9e0f7768bec89db74a63a3\")\n        /* \"token-staking(copy)(copy)/contracts/Staking.sol\":17219:17257  block.number - stakingProgramEndsBlock */\n      tag_238\n        /* \"token-staking(copy)(copy)/contracts/Staking.sol\":17234:17257  stakingProgramEndsBlock */\n      immutable(\"0x7749cc8014201da2069c21d93ba99c584b6f62d393fde534ed47eac227e31561\")\n        /* \"token-staking(copy)(copy)/contracts/Staking.sol\":17219:17231  block.number */\n      number\n        /* \"token-staking(copy)(copy)/contracts/Staking.sol\":17219:17257  block.number - stakingProgramEndsBlock */\n      tag_107\n      jump\t// in\n    tag_238:\n        /* \"token-staking(copy)(copy)/contracts/Staking.sol\":17190:17215  grantedTokens[recipient_] */\n      0xffffffffffffffffffffffffffffffffffffffff\n      dup5\n      and\n      0x00\n      swap1\n      dup2\n      mstore\n        /* \"token-staking(copy)(copy)/contracts/Staking.sol\":17190:17203  grantedTokens */\n      0x04\n        /* \"token-staking(copy)(copy)/contracts/Staking.sol\":17190:17215  grantedTokens[recipient_] */\n      0x20\n      mstore\n      0x40\n      swap1\n      keccak256\n      sload\n        /* \"token-staking(copy)(copy)/contracts/Staking.sol\":17190:17258  grantedTokens[recipient_] * (block.number - stakingProgramEndsBlock) */\n      tag_239\n      swap2\n      swap1\n      tag_96\n      jump\t// in\n    tag_239:\n        /* \"token-staking(copy)(copy)/contracts/Staking.sol\":17190:17276  grantedTokens[recipient_] * (block.number - stakingProgramEndsBlock) / vestingDuration */\n      tag_222\n      swap2\n      swap1\n      tag_98\n      jump\t// in\n        /* \"token-staking(copy)(copy)/contracts/Staking.sol\":16892:17287  if (block.number >= stakingProgramEndsBlock + vestingDuration) {... */\n    tag_237:\n        /* \"token-staking(copy)(copy)/contracts/Staking.sol\":16807:17293  function _vestedAmount(address recipient_) internal view returns (uint256) {... */\n      swap2\n      swap1\n      pop\n      jump\t// out\n        /* \"#utility.yul\":14:210   */\n    tag_242:\n        /* \"#utility.yul\":82:102   */\n      dup1\n      calldataload\n        /* \"#utility.yul\":142:184   */\n      0xffffffffffffffffffffffffffffffffffffffff\n        /* \"#utility.yul\":131:185   */\n      dup2\n      and\n        /* \"#utility.yul\":121:186   */\n      dup2\n      eq\n        /* \"#utility.yul\":111:113   */\n      tag_237\n      jumpi\n        /* \"#utility.yul\":200:201   */\n      0x00\n        /* \"#utility.yul\":197:198   */\n      dup1\n        /* \"#utility.yul\":190:202   */\n      revert\n        /* \"#utility.yul\":215:411   */\n    tag_32:\n        /* \"#utility.yul\":274:280   */\n      0x00\n        /* \"#utility.yul\":327:329   */\n      0x20\n        /* \"#utility.yul\":315:324   */\n      dup3\n        /* \"#utility.yul\":306:313   */\n      dup5\n        /* \"#utility.yul\":302:325   */\n      sub\n        /* \"#utility.yul\":298:330   */\n      slt\n        /* \"#utility.yul\":295:297   */\n      iszero\n      tag_246\n      jumpi\n        /* \"#utility.yul\":348:354   */\n      dup1\n        /* \"#utility.yul\":340:346   */\n      dup2\n        /* \"#utility.yul\":333:355   */\n      revert\n        /* \"#utility.yul\":295:297   */\n    tag_246:\n        /* \"#utility.yul\":376:405   */\n      tag_133\n        /* \"#utility.yul\":395:404   */\n      dup3\n        /* \"#utility.yul\":376:405   */\n      tag_242\n      jump\t// in\n        /* \"#utility.yul\":416:686   */\n    tag_81:\n        /* \"#utility.yul\":484:490   */\n      0x00\n        /* \"#utility.yul\":492:498   */\n      dup1\n        /* \"#utility.yul\":545:547   */\n      0x40\n        /* \"#utility.yul\":533:542   */\n      dup4\n        /* \"#utility.yul\":524:531   */\n      dup6\n        /* \"#utility.yul\":520:543   */\n      sub\n        /* \"#utility.yul\":516:548   */\n      slt\n        /* \"#utility.yul\":513:515   */\n      iszero\n      tag_249\n      jumpi\n        /* \"#utility.yul\":566:572   */\n      dup1\n        /* \"#utility.yul\":558:564   */\n      dup2\n        /* \"#utility.yul\":551:573   */\n      revert\n        /* \"#utility.yul\":513:515   */\n    tag_249:\n        /* \"#utility.yul\":594:623   */\n      tag_250\n        /* \"#utility.yul\":613:622   */\n      dup4\n        /* \"#utility.yul\":594:623   */\n      tag_242\n      jump\t// in\n    tag_250:\n        /* \"#utility.yul\":584:623   */\n      swap2\n      pop\n        /* \"#utility.yul\":642:680   */\n      tag_251\n        /* \"#utility.yul\":676:678   */\n      0x20\n        /* \"#utility.yul\":665:674   */\n      dup5\n        /* \"#utility.yul\":661:679   */\n      add\n        /* \"#utility.yul\":642:680   */\n      tag_242\n      jump\t// in\n    tag_251:\n        /* \"#utility.yul\":632:680   */\n      swap1\n      pop\n        /* \"#utility.yul\":503:686   */\n      swap3\n      pop\n      swap3\n      swap1\n      pop\n      jump\t// out\n        /* \"#utility.yul\":691:988   */\n    tag_124:\n        /* \"#utility.yul\":758:764   */\n      0x00\n        /* \"#utility.yul\":811:813   */\n      0x20\n        /* \"#utility.yul\":799:808   */\n      dup3\n        /* \"#utility.yul\":790:797   */\n      dup5\n        /* \"#utility.yul\":786:809   */\n      sub\n        /* \"#utility.yul\":782:814   */\n      slt\n        /* \"#utility.yul\":779:781   */\n      iszero\n      tag_253\n      jumpi\n        /* \"#utility.yul\":832:838   */\n      dup1\n        /* \"#utility.yul\":824:830   */\n      dup2\n        /* \"#utility.yul\":817:839   */\n      revert\n        /* \"#utility.yul\":779:781   */\n    tag_253:\n        /* \"#utility.yul\":869:878   */\n      dup2\n        /* \"#utility.yul\":863:879   */\n      mload\n        /* \"#utility.yul\":922:927   */\n      dup1\n        /* \"#utility.yul\":915:928   */\n      iszero\n        /* \"#utility.yul\":908:929   */\n      iszero\n        /* \"#utility.yul\":901:906   */\n      dup2\n        /* \"#utility.yul\":898:930   */\n      eq\n        /* \"#utility.yul\":888:890   */\n      tag_133\n      jumpi\n        /* \"#utility.yul\":949:955   */\n      dup2\n        /* \"#utility.yul\":941:947   */\n      dup3\n        /* \"#utility.yul\":934:956   */\n      revert\n        /* \"#utility.yul\":993:1187   */\n    tag_169:\n        /* \"#utility.yul\":1063:1069   */\n      0x00\n        /* \"#utility.yul\":1116:1118   */\n      0x20\n        /* \"#utility.yul\":1104:1113   */\n      dup3\n        /* \"#utility.yul\":1095:1102   */\n      dup5\n        /* \"#utility.yul\":1091:1114   */\n      sub\n        /* \"#utility.yul\":1087:1119   */\n      slt\n        /* \"#utility.yul\":1084:1086   */\n      iszero\n      tag_256\n      jumpi\n        /* \"#utility.yul\":1137:1143   */\n      dup1\n        /* \"#utility.yul\":1129:1135   */\n      dup2\n        /* \"#utility.yul\":1122:1144   */\n      revert\n        /* \"#utility.yul\":1084:1086   */\n    tag_256:\n      pop\n        /* \"#utility.yul\":1165:1181   */\n      mload\n      swap2\n        /* \"#utility.yul\":1074:1187   */\n      swap1\n      pop\n      jump\t// out\n        /* \"#utility.yul\":1192:1678   */\n    tag_38:\n        /* \"#utility.yul\":1258:1264   */\n      0x00\n        /* \"#utility.yul\":1266:1272   */\n      dup1\n        /* \"#utility.yul\":1319:1321   */\n      0x40\n        /* \"#utility.yul\":1307:1316   */\n      dup4\n        /* \"#utility.yul\":1298:1305   */\n      dup6\n        /* \"#utility.yul\":1294:1317   */\n      sub\n        /* \"#utility.yul\":1290:1322   */\n      slt\n        /* \"#utility.yul\":1287:1289   */\n      iszero\n      tag_258\n      jumpi\n        /* \"#utility.yul\":1340:1346   */\n      dup2\n        /* \"#utility.yul\":1332:1338   */\n      dup3\n        /* \"#utility.yul\":1325:1347   */\n      revert\n        /* \"#utility.yul\":1287:1289   */\n    tag_258:\n        /* \"#utility.yul\":1384:1393   */\n      dup3\n        /* \"#utility.yul\":1371:1394   */\n      calldataload\n        /* \"#utility.yul\":1434:1454   */\n      0xffffffffffffffffff\n        /* \"#utility.yul\":1427:1432   */\n      dup2\n        /* \"#utility.yul\":1423:1455   */\n      and\n        /* \"#utility.yul\":1416:1421   */\n      dup2\n        /* \"#utility.yul\":1413:1456   */\n      eq\n        /* \"#utility.yul\":1403:1405   */\n      tag_259\n      jumpi\n        /* \"#utility.yul\":1475:1481   */\n      dup3\n        /* \"#utility.yul\":1467:1473   */\n      dup4\n        /* \"#utility.yul\":1460:1482   */\n      revert\n        /* \"#utility.yul\":1403:1405   */\n    tag_259:\n        /* \"#utility.yul\":1503:1508   */\n      swap2\n      pop\n        /* \"#utility.yul\":1560:1562   */\n      0x20\n        /* \"#utility.yul\":1545:1563   */\n      dup4\n      add\n        /* \"#utility.yul\":1532:1564   */\n      calldataload\n        /* \"#utility.yul\":1608:1616   */\n      0xffffff\n        /* \"#utility.yul\":1595:1617   */\n      dup2\n      and\n        /* \"#utility.yul\":1583:1618   */\n      dup2\n      eq\n        /* \"#utility.yul\":1573:1575   */\n      tag_260\n      jumpi\n        /* \"#utility.yul\":1637:1643   */\n      dup2\n        /* \"#utility.yul\":1629:1635   */\n      dup3\n        /* \"#utility.yul\":1622:1644   */\n      revert\n        /* \"#utility.yul\":1573:1575   */\n    tag_260:\n        /* \"#utility.yul\":1665:1672   */\n      dup1\n        /* \"#utility.yul\":1655:1672   */\n      swap2\n      pop\n      pop\n        /* \"#utility.yul\":1277:1678   */\n      swap3\n      pop\n      swap3\n      swap1\n      pop\n      jump\t// out\n        /* \"#utility.yul\":13765:13893   */\n    tag_116:\n        /* \"#utility.yul\":13805:13808   */\n      0x00\n        /* \"#utility.yul\":13836:13837   */\n      dup3\n        /* \"#utility.yul\":13832:13838   */\n      not\n        /* \"#utility.yul\":13829:13830   */\n      dup3\n        /* \"#utility.yul\":13826:13839   */\n      gt\n        /* \"#utility.yul\":13823:13825   */\n      iszero\n      tag_295\n      jumpi\n        /* \"#utility.yul\":13842:13860   */\n      tag_295\n      tag_296\n      jump\t// in\n    tag_295:\n      pop\n        /* \"#utility.yul\":13878:13887   */\n      add\n      swap1\n        /* \"#utility.yul\":13813:13893   */\n      jump\t// out\n        /* \"#utility.yul\":13898:14126   */\n    tag_225:\n        /* \"#utility.yul\":13937:13940   */\n      0x00\n        /* \"#utility.yul\":13965:13975   */\n      0xffffffff\n        /* \"#utility.yul\":14002:14004   */\n      dup1\n        /* \"#utility.yul\":13999:14000   */\n      dup4\n        /* \"#utility.yul\":13995:14005   */\n      and\n        /* \"#utility.yul\":14032:14034   */\n      dup2\n        /* \"#utility.yul\":14029:14030   */\n      dup6\n        /* \"#utility.yul\":14025:14035   */\n      and\n        /* \"#utility.yul\":14063:14066   */\n      dup1\n        /* \"#utility.yul\":14059:14061   */\n      dup4\n        /* \"#utility.yul\":14055:14067   */\n      sub\n        /* \"#utility.yul\":14050:14053   */\n      dup3\n        /* \"#utility.yul\":14047:14068   */\n      gt\n        /* \"#utility.yul\":14044:14046   */\n      iszero\n      tag_299\n      jumpi\n        /* \"#utility.yul\":14071:14089   */\n      tag_299\n      tag_296\n      jump\t// in\n    tag_299:\n        /* \"#utility.yul\":14107:14120   */\n      add\n      swap5\n        /* \"#utility.yul\":13945:14126   */\n      swap4\n      pop\n      pop\n      pop\n      pop\n      jump\t// out\n        /* \"#utility.yul\":14131:14405   */\n    tag_98:\n        /* \"#utility.yul\":14171:14172   */\n      0x00\n        /* \"#utility.yul\":14197:14198   */\n      dup3\n        /* \"#utility.yul\":14187:14189   */\n      tag_301\n      jumpi\n        /* \"#utility.yul\":14232:14309   */\n      0x4e487b7100000000000000000000000000000000000000000000000000000000\n        /* \"#utility.yul\":14229:14230   */\n      dup2\n        /* \"#utility.yul\":14222:14310   */\n      mstore\n        /* \"#utility.yul\":14333:14337   */\n      0x12\n        /* \"#utility.yul\":14330:14331   */\n      0x04\n        /* \"#utility.yul\":14323:14338   */\n      mstore\n        /* \"#utility.yul\":14361:14365   */\n      0x24\n        /* \"#utility.yul\":14358:14359   */\n      dup2\n        /* \"#utility.yul\":14351:14366   */\n      revert\n        /* \"#utility.yul\":14187:14189   */\n    tag_301:\n      pop\n        /* \"#utility.yul\":14390:14399   */\n      div\n      swap1\n        /* \"#utility.yul\":14177:14405   */\n      jump\t// out\n        /* \"#utility.yul\":14410:14638   */\n    tag_96:\n        /* \"#utility.yul\":14450:14457   */\n      0x00\n        /* \"#utility.yul\":14576:14577   */\n      dup2\n        /* \"#utility.yul\":14508:14574   */\n      0xffffffffffffffffffffffffffffffffffffffffffffffffffffffffffffffff\n        /* \"#utility.yul\":14504:14578   */\n      div\n        /* \"#utility.yul\":14501:14502   */\n      dup4\n        /* \"#utility.yul\":14498:14579   */\n      gt\n        /* \"#utility.yul\":14493:14494   */\n      dup3\n        /* \"#utility.yul\":14486:14495   */\n      iszero\n        /* \"#utility.yul\":14479:14496   */\n      iszero\n        /* \"#utility.yul\":14475:14580   */\n      and\n        /* \"#utility.yul\":14472:14474   */\n      iszero\n      tag_304\n      jumpi\n        /* \"#utility.yul\":14583:14601   */\n      tag_304\n      tag_296\n      jump\t// in\n    tag_304:\n      pop\n        /* \"#utility.yul\":14623:14632   */\n      mul\n      swap1\n        /* \"#utility.yul\":14462:14638   */\n      jump\t// out\n        /* \"#utility.yul\":14643:14768   */\n    tag_107:\n        /* \"#utility.yul\":14683:14687   */\n      0x00\n        /* \"#utility.yul\":14711:14712   */\n      dup3\n        /* \"#utility.yul\":14708:14709   */\n      dup3\n        /* \"#utility.yul\":14705:14713   */\n      lt\n        /* \"#utility.yul\":14702:14704   */\n      iszero\n      tag_307\n      jumpi\n        /* \"#utility.yul\":14716:14734   */\n      tag_307\n      tag_296\n      jump\t// in\n    tag_307:\n      pop\n        /* \"#utility.yul\":14753:14762   */\n      sub\n      swap1\n        /* \"#utility.yul\":14692:14768   */\n      jump\t// out\n        /* \"#utility.yul\":14773:14957   */\n    tag_296:\n        /* \"#utility.yul\":14825:14902   */\n      0x4e487b7100000000000000000000000000000000000000000000000000000000\n        /* \"#utility.yul\":14822:14823   */\n      0x00\n        /* \"#utility.yul\":14815:14903   */\n      mstore\n        /* \"#utility.yul\":14922:14926   */\n      0x11\n        /* \"#utility.yul\":14919:14920   */\n      0x04\n        /* \"#utility.yul\":14912:14927   */\n      mstore\n        /* \"#utility.yul\":14946:14950   */\n      0x24\n        /* \"#utility.yul\":14943:14944   */\n      0x00\n        /* \"#utility.yul\":14936:14951   */\n      revert\n\n    auxdata: 0xa2646970667358221220b213dd3def8354c85124c77cb7c25d47bd8a5643391e9b3c6ac44ce1c6270fe564736f6c63430008040033\n}\n",
				"bytecode": {
					"linkReferences": {},
					"object": "6101206040523480156200001257600080fd5b506040516200206c3803806200206c833981016040819052620000359162000154565b6001600160a01b038116620000915760405162461bcd60e51b815260206004820152601c60248201527f4f776e657220616464726573732063616e6e6f74206265207a65726f0000000060448201526064015b60405180910390fd5b6001600160601b0319606082901b16610100526001600160a01b038516620001065760405162461bcd60e51b815260206004820152602160248201527f6f696c6572546f6b656e20616464726573732063616e6e6f74206265207a65726044820152606f60f81b606482015260840162000088565b6001600160601b0319606086901b1660c052620001248443620001a8565b6080525060e05260a05250620001cd9050565b80516001600160a01b03811681146200014f57600080fd5b919050565b600080600080600060a086880312156200016c578081fd5b620001778662000137565b94506020860151935060408601519250606086015191506200019c6080870162000137565b90509295509295909350565b60008219821115620001c857634e487b7160e01b81526011600452602481fd5b500190565b60805160a05160c05160601c60e0516101005160601c611deb62000281600039600081816103150152610e0401526000818161012f01528181611ac70152611b3d0152600081816102c101528181610cb80152818161101f01528181611194015261130f015260008181610246015281816105f601528181610ffd0152818161117201526112e901526000818161033c015281816103e4015281816106ce01528181611ae80152611b610152611deb6000f3fe608060405234801561001057600080fd5b506004361061011b5760003560e01c806386d1a69f116100b2578063c959360b11610081578063e0e4a72211610066578063e0e4a722146103a7578063f6ffab88146103c7578063f968f493146103da57600080fd5b8063c959360b14610367578063cbdf382c1461038757600080fd5b806386d1a69f146103085780638da5cb5b14610310578063bc0925ae14610337578063c2e8caf61461035e57600080fd5b806352946b04116100ee57806352946b041461024157806370ff852b14610268578063798633b91461028857806381e9207d146102bc57600080fd5b80630572b0cc146101205780631514617e1461012a57806316934fc414610164578063378592c81461022e575b600080fd5b6101286103e2565b005b6101517f000000000000000000000000000000000000000000000000000000000000000081565b6040519081526020015b60405180910390f35b6101e1610172366004611be9565b60006020819052908152604090205468ffffffffffffffffff8116906901000000000000000000810462ffffff16906c01000000000000000000000000810463ffffffff169070010000000000000000000000000000000090046fffffffffffffffffffffffffffffffff1684565b6040805168ffffffffffffffffff909516855262ffffff909316602085015263ffffffff909116918301919091526fffffffffffffffffffffffffffffffff16606082015260800161015b565b61012861023c366004611c6d565b610644565b6101517f000000000000000000000000000000000000000000000000000000000000000081565b610151610276366004611be9565b60056020526000908152604090205481565b61029b610296366004611c6d565b610b01565b6040516fffffffffffffffffffffffffffffffff909116815260200161015b565b6102e37f000000000000000000000000000000000000000000000000000000000000000081565b60405173ffffffffffffffffffffffffffffffffffffffff909116815260200161015b565b610128610bc2565b6102e37f000000000000000000000000000000000000000000000000000000000000000081565b6101517f000000000000000000000000000000000000000000000000000000000000000081565b61015160025481565b610151610375366004611be9565b60016020526000908152604090205481565b6003546102e39073ffffffffffffffffffffffffffffffffffffffff1681565b6101516103b5366004611be9565b60046020526000908152604090205481565b6101286103d5366004611c03565b610dec565b61012861141b565b7f00000000000000000000000000000000000000000000000000000000000000004311610496576040517f08c379a000000000000000000000000000000000000000000000000000000000815260206004820152603360248201527f596f752063616e206f6e6c79206765742052657761726473206166746572205360448201527f74616b696e672050726f6772616d20656e64730000000000000000000000000060648201526084015b60405180910390fd5b3360009081526020819052604090205468ffffffffffffffffff1615610564576040517f08c379a000000000000000000000000000000000000000000000000000000000815260206004820152605060248201527f596f75207374696c6c20686176652061207374616b65206c6f636b6564202d2060448201527f706c6561736520756e6c6f636b2066697273742c20646f6e2774206c6561766560648201527f2066726565206d6f6e6579206865726500000000000000000000000000000000608482015260a40161048d565b336000908152600160205260409020546105da576040517f08c379a000000000000000000000000000000000000000000000000000000000815260206004820152601f60248201527f596f7520646f6e2774206861766520616e7920726577617264506f696e747300604482015260640161048d565b6002543360009081526001602052604081205490919061061a907f0000000000000000000000000000000000000000000000000000000000000000611d32565b6106249190611cf9565b336000818152600160205260408120559091506106419082611752565b50565b60035473ffffffffffffffffffffffffffffffffffffffff166106c3576040517f08c379a000000000000000000000000000000000000000000000000000000000815260206004820152601160248201527f706f6f6c546f6b656e206e6f7420736574000000000000000000000000000000604482015260640161048d565b6106f262ffffff82167f0000000000000000000000000000000000000000000000000000000000000000611d6f565b431115610781576040517f08c379a000000000000000000000000000000000000000000000000000000000815260206004820152603160248201527f596f7572206c6f636b20706572696f642065786365656473205374616b696e6760448201527f2050726f6772616d206475726174696f6e000000000000000000000000000000606482015260840161048d565b3360009081526020819052604090205468ffffffffffffffffff1615610803576040517f08c379a000000000000000000000000000000000000000000000000000000000815260206004820152600f60248201527f416c7265616479207374616b696e670000000000000000000000000000000000604482015260640161048d565b600061080f8383610b01565b6040805160808101825268ffffffffffffffffff868116825262ffffff86811660208085019182524363ffffffff9081168688019081526fffffffffffffffffffffffffffffffff898116606089018181523360009081529586905299852089518154975194519b5199167fffffffffffffffffffffffffffffffffffffffff0000000000000000000000009097169690961769010000000000000000009390971692909202959095176bffffffffffffffffffffffff166c0100000000000000000000000098909216979097028416177001000000000000000000000000000000009490931693909302919091179055600280549495509193610914908490611cb9565b909155505033600090815260016020526040812080546fffffffffffffffffffffffffffffffff8516929061094a908490611cb9565b90915550506003546040517f23b872dd00000000000000000000000000000000000000000000000000000000815233600482015230602482015268ffffffffffffffffff8616604482015273ffffffffffffffffffffffffffffffffffffffff909116906323b872dd90606401602060405180830381600087803b1580156109d157600080fd5b505af11580156109e5573d6000803e3d6000fd5b505050506040513d601f19601f82011682018060405250810190610a099190611c35565b610a95576040517f08c379a000000000000000000000000000000000000000000000000000000000815260206004820152602160248201527f5472616e7366657246726f6d206f6620706f6f6c546f6b656e73206661696c6560448201527f6400000000000000000000000000000000000000000000000000000000000000606482015260840161048d565b6040805133815268ffffffffffffffffff8616602082015262ffffff8516818301526fffffffffffffffffffffffffffffffff8416606082015290517fe7dbea143058f90be7a1644e539342c25ddc5379868fe922bab596de99debf419181900360800190a150505050565b60008062ffffff8316610b1f8168ffffffffffffffffff8716611d32565b610b299190611d32565b905060008111610bbb576040517f08c379a000000000000000000000000000000000000000000000000000000000815260206004820152603360248201527f4e65697468657220746f6b656e416d6f756e74206e6f72206c6f636b696e675060448201527f6572696f6420636f756c646e2774206265203000000000000000000000000000606482015260840161048d565b9392505050565b6000610bcd336118ea565b905060008111610c5f576040517f08c379a000000000000000000000000000000000000000000000000000000000815260206004820152602260248201527f56657374696e672072656c656173653a206e6f20746f6b656e7320617265206460448201527f7565000000000000000000000000000000000000000000000000000000000000606482015260840161048d565b3360009081526005602052604081208054839290610c7e908490611cb9565b90915550506040517fa9059cbb000000000000000000000000000000000000000000000000000000008152336004820152602481018290527f000000000000000000000000000000000000000000000000000000000000000073ffffffffffffffffffffffffffffffffffffffff169063a9059cbb90604401602060405180830381600087803b158015610d1157600080fd5b505af1158015610d25573d6000803e3d6000fd5b505050506040513d601f19601f82011682018060405250810190610d499190611c35565b610daf576040517f08c379a000000000000000000000000000000000000000000000000000000000815260206004820152601d60248201527f526577617264206f696c657273207472616e73666572206661696c6564000000604482015260640161048d565b60408051338152602081018390527f769d4212c4fbfaa012a896b49e0f3bb14d32dd0d60ce1a13d357ee6b69db77c291015b60405180910390a150565b3373ffffffffffffffffffffffffffffffffffffffff7f00000000000000000000000000000000000000000000000000000000000000001614610e8b576040517f08c379a000000000000000000000000000000000000000000000000000000000815260206004820152601b60248201527f43616e206f6e6c792062652063616c6c6564206279206f776e65720000000000604482015260640161048d565b60035473ffffffffffffffffffffffffffffffffffffffff1615610f0b576040517f08c379a000000000000000000000000000000000000000000000000000000000815260206004820152601960248201527f706f6f6c546f6b656e2077617320616c72656164792073657400000000000000604482015260640161048d565b73ffffffffffffffffffffffffffffffffffffffff8216610f88576040517f08c379a000000000000000000000000000000000000000000000000000000000815260206004820181905260248201527f706f6f6c546f6b656e20616464726573732063616e6e6f74206265207a65726f604482015260640161048d565b600380547fffffffffffffffffffffffff00000000000000000000000000000000000000001673ffffffffffffffffffffffffffffffffffffffff848116919091179091556040517f70a0823100000000000000000000000000000000000000000000000000000000815282821660048201527f0000000000000000000000000000000000000000000000000000000000000000917f000000000000000000000000000000000000000000000000000000000000000016906370a082319060240160206040518083038186803b15801561106157600080fd5b505afa158015611075573d6000803e3d6000fd5b505050506040513d601f19601f820116820180604052508101906110999190611c55565b1015611127576040517f08c379a000000000000000000000000000000000000000000000000000000000815260206004820152602b60248201527f5374616b696e6746756e6420646f65736e2774206861766520656e6f7567682060448201527f4f494c2062616c616e6365000000000000000000000000000000000000000000606482015260840161048d565b6040517fdd62ed3e00000000000000000000000000000000000000000000000000000000815273ffffffffffffffffffffffffffffffffffffffff82811660048301523060248301527f0000000000000000000000000000000000000000000000000000000000000000917f00000000000000000000000000000000000000000000000000000000000000009091169063dd62ed3e9060440160206040518083038186803b1580156111d857600080fd5b505afa1580156111ec573d6000803e3d6000fd5b505050506040513d601f19601f820116820180604052508101906112109190611c55565b101561129e576040517f08c379a000000000000000000000000000000000000000000000000000000000815260206004820152602960248201527f5374616b696e6746756e6420646f65736e2774206861766520656e6f7567682060448201527f616c6c6f77616e63650000000000000000000000000000000000000000000000606482015260840161048d565b6040517f23b872dd00000000000000000000000000000000000000000000000000000000815273ffffffffffffffffffffffffffffffffffffffff82811660048301523060248301527f000000000000000000000000000000000000000000000000000000000000000060448301527f000000000000000000000000000000000000000000000000000000000000000016906323b872dd90606401602060405180830381600087803b15801561135357600080fd5b505af1158015611367573d6000803e3d6000fd5b505050506040513d601f19601f8201168201806040525081019061138b9190611c35565b611417576040517f08c379a000000000000000000000000000000000000000000000000000000000815260206004820152602b60248201527f5472616e7366657246726f6d206f66204f494c2066726f6d205374616b696e6760448201527f46756e64206661696c6564000000000000000000000000000000000000000000606482015260840161048d565b5050565b60035473ffffffffffffffffffffffffffffffffffffffff1661149a576040517f08c379a000000000000000000000000000000000000000000000000000000000815260206004820152601160248201527f706f6f6c546f6b656e206e6f7420736574000000000000000000000000000000604482015260640161048d565b33600090815260208181526040918290208251608081018452905468ffffffffffffffffff81168083526901000000000000000000820462ffffff16938301939093526c01000000000000000000000000810463ffffffff16938201939093527001000000000000000000000000000000009092046fffffffffffffffffffffffffffffffff1660608301528061158d576040517f08c379a000000000000000000000000000000000000000000000000000000000815260206004820181905260248201527f596f7520646f6e277420686176652061207374616b6520746f20756e6c6f636b604482015260640161048d565b816040015163ffffffff164311611626576040517f08c379a000000000000000000000000000000000000000000000000000000000815260206004820152603c60248201527f596f752063616e277420776974686472617720746865207374616b6520696e2060448201527f7468652073616d6520626c6f636b20697420776173206c6f636b656400000000606482015260840161048d565b61162f82611929565b336000818152602081905260408082209190915560035490517fa9059cbb00000000000000000000000000000000000000000000000000000000815260048101929092526024820183905273ffffffffffffffffffffffffffffffffffffffff169063a9059cbb90604401602060405180830381600087803b1580156116b457600080fd5b505af11580156116c8573d6000803e3d6000fd5b505050506040513d601f19601f820116820180604052508101906116ec9190611c35565b611417576040517f08c379a000000000000000000000000000000000000000000000000000000000815260206004820152601a60248201527f506f6f6c20746f6b656e207472616e73666572206661696c6564000000000000604482015260640161048d565b600081116117e2576040517f08c379a000000000000000000000000000000000000000000000000000000000815260206004820152602960248201527f596f75206469646e2774206561726e20616e7920696e746567657220616d6f7560448201527f6e74206f66207765690000000000000000000000000000000000000000000000606482015260840161048d565b73ffffffffffffffffffffffffffffffffffffffff8216611885576040517f08c379a000000000000000000000000000000000000000000000000000000000815260206004820152602d60248201527f546f6b656e56657374696e673a2062656e65666963696172792069732074686560448201527f207a65726f206164647265737300000000000000000000000000000000000000606482015260840161048d565b73ffffffffffffffffffffffffffffffffffffffff8216600081815260046020908152604091829020849055815192835282018390527f6e1afd29522b0aaf986597bcc53f5fb4daae2af7cfd41d00c384ab1bdf912b23910160405180910390a15050565b73ffffffffffffffffffffffffffffffffffffffff811660009081526005602052604081205461191983611ac0565b6119239190611d6f565b92915050565b806020015162ffffff1681604001516119429190611cd1565b63ffffffff16431015611a4957606081015133600090815260016020526040812080546fffffffffffffffffffffffffffffffff90931692909190611988908490611d6f565b9250508190555080606001516fffffffffffffffffffffffffffffffff16600260008282546119b79190611d6f565b90915550508051602082015160408301517f6c6f3c7d8c87976393011cc962da12841024bc1d62d2de21716a6306ab314ef392339290916119fe9063ffffffff1643611d6f565b6040805173ffffffffffffffffffffffffffffffffffffffff909516855268ffffffffffffffffff909316602085015262ffffff909116918301919091526060820152608001610de1565b80516020808301516060808501516040805133815268ffffffffffffffffff9096169486019490945262ffffff909216928401929092526fffffffffffffffffffffffffffffffff16908201527f391930ab48e95a9040c849cc86e1b2f63c711a1f59d6e324ce775dc9a005105690608001610de1565b6000611b0c7f00000000000000000000000000000000000000000000000000000000000000007f0000000000000000000000000000000000000000000000000000000000000000611cb9565b4310611b3b575073ffffffffffffffffffffffffffffffffffffffff1660009081526004602052604090205490565b7f0000000000000000000000000000000000000000000000000000000000000000611b867f000000000000000000000000000000000000000000000000000000000000000043611d6f565b73ffffffffffffffffffffffffffffffffffffffff8416600090815260046020526040902054611bb69190611d32565b6119239190611cf9565b919050565b803573ffffffffffffffffffffffffffffffffffffffff81168114611bc057600080fd5b600060208284031215611bfa578081fd5b610bbb82611bc5565b60008060408385031215611c15578081fd5b611c1e83611bc5565b9150611c2c60208401611bc5565b90509250929050565b600060208284031215611c46578081fd5b81518015158114610bbb578182fd5b600060208284031215611c66578081fd5b5051919050565b60008060408385031215611c7f578182fd5b823568ffffffffffffffffff81168114611c97578283fd5b9150602083013562ffffff81168114611cae578182fd5b809150509250929050565b60008219821115611ccc57611ccc611d86565b500190565b600063ffffffff808316818516808303821115611cf057611cf0611d86565b01949350505050565b600082611d2d577f4e487b710000000000000000000000000000000000000000000000000000000081526012600452602481fd5b500490565b6000817fffffffffffffffffffffffffffffffffffffffffffffffffffffffffffffffff0483118215151615611d6a57611d6a611d86565b500290565b600082821015611d8157611d81611d86565b500390565b7f4e487b7100000000000000000000000000000000000000000000000000000000600052601160045260246000fdfea2646970667358221220b213dd3def8354c85124c77cb7c25d47bd8a5643391e9b3c6ac44ce1c6270fe564736f6c63430008040033",
					"opcodes": "PUSH2 0x120 PUSH1 0x40 MSTORE CALLVALUE DUP1 ISZERO PUSH3 0x12 JUMPI PUSH1 0x0 DUP1 REVERT JUMPDEST POP PUSH1 0x40 MLOAD PUSH3 0x206C CODESIZE SUB DUP1 PUSH3 0x206C DUP4 CODECOPY DUP2 ADD PUSH1 0x40 DUP2 SWAP1 MSTORE PUSH3 0x35 SWAP2 PUSH3 0x154 JUMP JUMPDEST PUSH1 0x1 PUSH1 0x1 PUSH1 0xA0 SHL SUB DUP2 AND PUSH3 0x91 JUMPI PUSH1 0x40 MLOAD PUSH3 0x461BCD PUSH1 0xE5 SHL DUP2 MSTORE PUSH1 0x20 PUSH1 0x4 DUP3 ADD MSTORE PUSH1 0x1C PUSH1 0x24 DUP3 ADD MSTORE PUSH32 0x4F776E657220616464726573732063616E6E6F74206265207A65726F00000000 PUSH1 0x44 DUP3 ADD MSTORE PUSH1 0x64 ADD JUMPDEST PUSH1 0x40 MLOAD DUP1 SWAP2 SUB SWAP1 REVERT JUMPDEST PUSH1 0x1 PUSH1 0x1 PUSH1 0x60 SHL SUB NOT PUSH1 0x60 DUP3 SWAP1 SHL AND PUSH2 0x100 MSTORE PUSH1 0x1 PUSH1 0x1 PUSH1 0xA0 SHL SUB DUP6 AND PUSH3 0x106 JUMPI PUSH1 0x40 MLOAD PUSH3 0x461BCD PUSH1 0xE5 SHL DUP2 MSTORE PUSH1 0x20 PUSH1 0x4 DUP3 ADD MSTORE PUSH1 0x21 PUSH1 0x24 DUP3 ADD MSTORE PUSH32 0x6F696C6572546F6B656E20616464726573732063616E6E6F74206265207A6572 PUSH1 0x44 DUP3 ADD MSTORE PUSH1 0x6F PUSH1 0xF8 SHL PUSH1 0x64 DUP3 ADD MSTORE PUSH1 0x84 ADD PUSH3 0x88 JUMP JUMPDEST PUSH1 0x1 PUSH1 0x1 PUSH1 0x60 SHL SUB NOT PUSH1 0x60 DUP7 SWAP1 SHL AND PUSH1 0xC0 MSTORE PUSH3 0x124 DUP5 NUMBER PUSH3 0x1A8 JUMP JUMPDEST PUSH1 0x80 MSTORE POP PUSH1 0xE0 MSTORE PUSH1 0xA0 MSTORE POP PUSH3 0x1CD SWAP1 POP JUMP JUMPDEST DUP1 MLOAD PUSH1 0x1 PUSH1 0x1 PUSH1 0xA0 SHL SUB DUP2 AND DUP2 EQ PUSH3 0x14F JUMPI PUSH1 0x0 DUP1 REVERT JUMPDEST SWAP2 SWAP1 POP JUMP JUMPDEST PUSH1 0x0 DUP1 PUSH1 0x0 DUP1 PUSH1 0x0 PUSH1 0xA0 DUP7 DUP9 SUB SLT ISZERO PUSH3 0x16C JUMPI DUP1 DUP2 REVERT JUMPDEST PUSH3 0x177 DUP7 PUSH3 0x137 JUMP JUMPDEST SWAP5 POP PUSH1 0x20 DUP7 ADD MLOAD SWAP4 POP PUSH1 0x40 DUP7 ADD MLOAD SWAP3 POP PUSH1 0x60 DUP7 ADD MLOAD SWAP2 POP PUSH3 0x19C PUSH1 0x80 DUP8 ADD PUSH3 0x137 JUMP JUMPDEST SWAP1 POP SWAP3 SWAP6 POP SWAP3 SWAP6 SWAP1 SWAP4 POP JUMP JUMPDEST PUSH1 0x0 DUP3 NOT DUP3 GT ISZERO PUSH3 0x1C8 JUMPI PUSH4 0x4E487B71 PUSH1 0xE0 SHL DUP2 MSTORE PUSH1 0x11 PUSH1 0x4 MSTORE PUSH1 0x24 DUP2 REVERT JUMPDEST POP ADD SWAP1 JUMP JUMPDEST PUSH1 0x80 MLOAD PUSH1 0xA0 MLOAD PUSH1 0xC0 MLOAD PUSH1 0x60 SHR PUSH1 0xE0 MLOAD PUSH2 0x100 MLOAD PUSH1 0x60 SHR PUSH2 0x1DEB PUSH3 0x281 PUSH1 0x0 CODECOPY PUSH1 0x0 DUP2 DUP2 PUSH2 0x315 ADD MSTORE PUSH2 0xE04 ADD MSTORE PUSH1 0x0 DUP2 DUP2 PUSH2 0x12F ADD MSTORE DUP2 DUP2 PUSH2 0x1AC7 ADD MSTORE PUSH2 0x1B3D ADD MSTORE PUSH1 0x0 DUP2 DUP2 PUSH2 0x2C1 ADD MSTORE DUP2 DUP2 PUSH2 0xCB8 ADD MSTORE DUP2 DUP2 PUSH2 0x101F ADD MSTORE DUP2 DUP2 PUSH2 0x1194 ADD MSTORE PUSH2 0x130F ADD MSTORE PUSH1 0x0 DUP2 DUP2 PUSH2 0x246 ADD MSTORE DUP2 DUP2 PUSH2 0x5F6 ADD MSTORE DUP2 DUP2 PUSH2 0xFFD ADD MSTORE DUP2 DUP2 PUSH2 0x1172 ADD MSTORE PUSH2 0x12E9 ADD MSTORE PUSH1 0x0 DUP2 DUP2 PUSH2 0x33C ADD MSTORE DUP2 DUP2 PUSH2 0x3E4 ADD MSTORE DUP2 DUP2 PUSH2 0x6CE ADD MSTORE DUP2 DUP2 PUSH2 0x1AE8 ADD MSTORE PUSH2 0x1B61 ADD MSTORE PUSH2 0x1DEB PUSH1 0x0 RETURN INVALID PUSH1 0x80 PUSH1 0x40 MSTORE CALLVALUE DUP1 ISZERO PUSH2 0x10 JUMPI PUSH1 0x0 DUP1 REVERT JUMPDEST POP PUSH1 0x4 CALLDATASIZE LT PUSH2 0x11B JUMPI PUSH1 0x0 CALLDATALOAD PUSH1 0xE0 SHR DUP1 PUSH4 0x86D1A69F GT PUSH2 0xB2 JUMPI DUP1 PUSH4 0xC959360B GT PUSH2 0x81 JUMPI DUP1 PUSH4 0xE0E4A722 GT PUSH2 0x66 JUMPI DUP1 PUSH4 0xE0E4A722 EQ PUSH2 0x3A7 JUMPI DUP1 PUSH4 0xF6FFAB88 EQ PUSH2 0x3C7 JUMPI DUP1 PUSH4 0xF968F493 EQ PUSH2 0x3DA JUMPI PUSH1 0x0 DUP1 REVERT JUMPDEST DUP1 PUSH4 0xC959360B EQ PUSH2 0x367 JUMPI DUP1 PUSH4 0xCBDF382C EQ PUSH2 0x387 JUMPI PUSH1 0x0 DUP1 REVERT JUMPDEST DUP1 PUSH4 0x86D1A69F EQ PUSH2 0x308 JUMPI DUP1 PUSH4 0x8DA5CB5B EQ PUSH2 0x310 JUMPI DUP1 PUSH4 0xBC0925AE EQ PUSH2 0x337 JUMPI DUP1 PUSH4 0xC2E8CAF6 EQ PUSH2 0x35E JUMPI PUSH1 0x0 DUP1 REVERT JUMPDEST DUP1 PUSH4 0x52946B04 GT PUSH2 0xEE JUMPI DUP1 PUSH4 0x52946B04 EQ PUSH2 0x241 JUMPI DUP1 PUSH4 0x70FF852B EQ PUSH2 0x268 JUMPI DUP1 PUSH4 0x798633B9 EQ PUSH2 0x288 JUMPI DUP1 PUSH4 0x81E9207D EQ PUSH2 0x2BC JUMPI PUSH1 0x0 DUP1 REVERT JUMPDEST DUP1 PUSH4 0x572B0CC EQ PUSH2 0x120 JUMPI DUP1 PUSH4 0x1514617E EQ PUSH2 0x12A JUMPI DUP1 PUSH4 0x16934FC4 EQ PUSH2 0x164 JUMPI DUP1 PUSH4 0x378592C8 EQ PUSH2 0x22E JUMPI JUMPDEST PUSH1 0x0 DUP1 REVERT JUMPDEST PUSH2 0x128 PUSH2 0x3E2 JUMP JUMPDEST STOP JUMPDEST PUSH2 0x151 PUSH32 0x0 DUP2 JUMP JUMPDEST PUSH1 0x40 MLOAD SWAP1 DUP2 MSTORE PUSH1 0x20 ADD JUMPDEST PUSH1 0x40 MLOAD DUP1 SWAP2 SUB SWAP1 RETURN JUMPDEST PUSH2 0x1E1 PUSH2 0x172 CALLDATASIZE PUSH1 0x4 PUSH2 0x1BE9 JUMP JUMPDEST PUSH1 0x0 PUSH1 0x20 DUP2 SWAP1 MSTORE SWAP1 DUP2 MSTORE PUSH1 0x40 SWAP1 KECCAK256 SLOAD PUSH9 0xFFFFFFFFFFFFFFFFFF DUP2 AND SWAP1 PUSH10 0x1000000000000000000 DUP2 DIV PUSH3 0xFFFFFF AND SWAP1 PUSH13 0x1000000000000000000000000 DUP2 DIV PUSH4 0xFFFFFFFF AND SWAP1 PUSH17 0x100000000000000000000000000000000 SWAP1 DIV PUSH16 0xFFFFFFFFFFFFFFFFFFFFFFFFFFFFFFFF AND DUP5 JUMP JUMPDEST PUSH1 0x40 DUP1 MLOAD PUSH9 0xFFFFFFFFFFFFFFFFFF SWAP1 SWAP6 AND DUP6 MSTORE PUSH3 0xFFFFFF SWAP1 SWAP4 AND PUSH1 0x20 DUP6 ADD MSTORE PUSH4 0xFFFFFFFF SWAP1 SWAP2 AND SWAP2 DUP4 ADD SWAP2 SWAP1 SWAP2 MSTORE PUSH16 0xFFFFFFFFFFFFFFFFFFFFFFFFFFFFFFFF AND PUSH1 0x60 DUP3 ADD MSTORE PUSH1 0x80 ADD PUSH2 0x15B JUMP JUMPDEST PUSH2 0x128 PUSH2 0x23C CALLDATASIZE PUSH1 0x4 PUSH2 0x1C6D JUMP JUMPDEST PUSH2 0x644 JUMP JUMPDEST PUSH2 0x151 PUSH32 0x0 DUP2 JUMP JUMPDEST PUSH2 0x151 PUSH2 0x276 CALLDATASIZE PUSH1 0x4 PUSH2 0x1BE9 JUMP JUMPDEST PUSH1 0x5 PUSH1 0x20 MSTORE PUSH1 0x0 SWAP1 DUP2 MSTORE PUSH1 0x40 SWAP1 KECCAK256 SLOAD DUP2 JUMP JUMPDEST PUSH2 0x29B PUSH2 0x296 CALLDATASIZE PUSH1 0x4 PUSH2 0x1C6D JUMP JUMPDEST PUSH2 0xB01 JUMP JUMPDEST PUSH1 0x40 MLOAD PUSH16 0xFFFFFFFFFFFFFFFFFFFFFFFFFFFFFFFF SWAP1 SWAP2 AND DUP2 MSTORE PUSH1 0x20 ADD PUSH2 0x15B JUMP JUMPDEST PUSH2 0x2E3 PUSH32 0x0 DUP2 JUMP JUMPDEST PUSH1 0x40 MLOAD PUSH20 0xFFFFFFFFFFFFFFFFFFFFFFFFFFFFFFFFFFFFFFFF SWAP1 SWAP2 AND DUP2 MSTORE PUSH1 0x20 ADD PUSH2 0x15B JUMP JUMPDEST PUSH2 0x128 PUSH2 0xBC2 JUMP JUMPDEST PUSH2 0x2E3 PUSH32 0x0 DUP2 JUMP JUMPDEST PUSH2 0x151 PUSH32 0x0 DUP2 JUMP JUMPDEST PUSH2 0x151 PUSH1 0x2 SLOAD DUP2 JUMP JUMPDEST PUSH2 0x151 PUSH2 0x375 CALLDATASIZE PUSH1 0x4 PUSH2 0x1BE9 JUMP JUMPDEST PUSH1 0x1 PUSH1 0x20 MSTORE PUSH1 0x0 SWAP1 DUP2 MSTORE PUSH1 0x40 SWAP1 KECCAK256 SLOAD DUP2 JUMP JUMPDEST PUSH1 0x3 SLOAD PUSH2 0x2E3 SWAP1 PUSH20 0xFFFFFFFFFFFFFFFFFFFFFFFFFFFFFFFFFFFFFFFF AND DUP2 JUMP JUMPDEST PUSH2 0x151 PUSH2 0x3B5 CALLDATASIZE PUSH1 0x4 PUSH2 0x1BE9 JUMP JUMPDEST PUSH1 0x4 PUSH1 0x20 MSTORE PUSH1 0x0 SWAP1 DUP2 MSTORE PUSH1 0x40 SWAP1 KECCAK256 SLOAD DUP2 JUMP JUMPDEST PUSH2 0x128 PUSH2 0x3D5 CALLDATASIZE PUSH1 0x4 PUSH2 0x1C03 JUMP JUMPDEST PUSH2 0xDEC JUMP JUMPDEST PUSH2 0x128 PUSH2 0x141B JUMP JUMPDEST PUSH32 0x0 NUMBER GT PUSH2 0x496 JUMPI PUSH1 0x40 MLOAD PUSH32 0x8C379A000000000000000000000000000000000000000000000000000000000 DUP2 MSTORE PUSH1 0x20 PUSH1 0x4 DUP3 ADD MSTORE PUSH1 0x33 PUSH1 0x24 DUP3 ADD MSTORE PUSH32 0x596F752063616E206F6E6C792067657420526577617264732061667465722053 PUSH1 0x44 DUP3 ADD MSTORE PUSH32 0x74616B696E672050726F6772616D20656E647300000000000000000000000000 PUSH1 0x64 DUP3 ADD MSTORE PUSH1 0x84 ADD JUMPDEST PUSH1 0x40 MLOAD DUP1 SWAP2 SUB SWAP1 REVERT JUMPDEST CALLER PUSH1 0x0 SWAP1 DUP2 MSTORE PUSH1 0x20 DUP2 SWAP1 MSTORE PUSH1 0x40 SWAP1 KECCAK256 SLOAD PUSH9 0xFFFFFFFFFFFFFFFFFF AND ISZERO PUSH2 0x564 JUMPI PUSH1 0x40 MLOAD PUSH32 0x8C379A000000000000000000000000000000000000000000000000000000000 DUP2 MSTORE PUSH1 0x20 PUSH1 0x4 DUP3 ADD MSTORE PUSH1 0x50 PUSH1 0x24 DUP3 ADD MSTORE PUSH32 0x596F75207374696C6C20686176652061207374616B65206C6F636B6564202D20 PUSH1 0x44 DUP3 ADD MSTORE PUSH32 0x706C6561736520756E6C6F636B2066697273742C20646F6E2774206C65617665 PUSH1 0x64 DUP3 ADD MSTORE PUSH32 0x2066726565206D6F6E6579206865726500000000000000000000000000000000 PUSH1 0x84 DUP3 ADD MSTORE PUSH1 0xA4 ADD PUSH2 0x48D JUMP JUMPDEST CALLER PUSH1 0x0 SWAP1 DUP2 MSTORE PUSH1 0x1 PUSH1 0x20 MSTORE PUSH1 0x40 SWAP1 KECCAK256 SLOAD PUSH2 0x5DA JUMPI PUSH1 0x40 MLOAD PUSH32 0x8C379A000000000000000000000000000000000000000000000000000000000 DUP2 MSTORE PUSH1 0x20 PUSH1 0x4 DUP3 ADD MSTORE PUSH1 0x1F PUSH1 0x24 DUP3 ADD MSTORE PUSH32 0x596F7520646F6E2774206861766520616E7920726577617264506F696E747300 PUSH1 0x44 DUP3 ADD MSTORE PUSH1 0x64 ADD PUSH2 0x48D JUMP JUMPDEST PUSH1 0x2 SLOAD CALLER PUSH1 0x0 SWAP1 DUP2 MSTORE PUSH1 0x1 PUSH1 0x20 MSTORE PUSH1 0x40 DUP2 KECCAK256 SLOAD SWAP1 SWAP2 SWAP1 PUSH2 0x61A SWAP1 PUSH32 0x0 PUSH2 0x1D32 JUMP JUMPDEST PUSH2 0x624 SWAP2 SWAP1 PUSH2 0x1CF9 JUMP JUMPDEST CALLER PUSH1 0x0 DUP2 DUP2 MSTORE PUSH1 0x1 PUSH1 0x20 MSTORE PUSH1 0x40 DUP2 KECCAK256 SSTORE SWAP1 SWAP2 POP PUSH2 0x641 SWAP1 DUP3 PUSH2 0x1752 JUMP JUMPDEST POP JUMP JUMPDEST PUSH1 0x3 SLOAD PUSH20 0xFFFFFFFFFFFFFFFFFFFFFFFFFFFFFFFFFFFFFFFF AND PUSH2 0x6C3 JUMPI PUSH1 0x40 MLOAD PUSH32 0x8C379A000000000000000000000000000000000000000000000000000000000 DUP2 MSTORE PUSH1 0x20 PUSH1 0x4 DUP3 ADD MSTORE PUSH1 0x11 PUSH1 0x24 DUP3 ADD MSTORE PUSH32 0x706F6F6C546F6B656E206E6F7420736574000000000000000000000000000000 PUSH1 0x44 DUP3 ADD MSTORE PUSH1 0x64 ADD PUSH2 0x48D JUMP JUMPDEST PUSH2 0x6F2 PUSH3 0xFFFFFF DUP3 AND PUSH32 0x0 PUSH2 0x1D6F JUMP JUMPDEST NUMBER GT ISZERO PUSH2 0x781 JUMPI PUSH1 0x40 MLOAD PUSH32 0x8C379A000000000000000000000000000000000000000000000000000000000 DUP2 MSTORE PUSH1 0x20 PUSH1 0x4 DUP3 ADD MSTORE PUSH1 0x31 PUSH1 0x24 DUP3 ADD MSTORE PUSH32 0x596F7572206C6F636B20706572696F642065786365656473205374616B696E67 PUSH1 0x44 DUP3 ADD MSTORE PUSH32 0x2050726F6772616D206475726174696F6E000000000000000000000000000000 PUSH1 0x64 DUP3 ADD MSTORE PUSH1 0x84 ADD PUSH2 0x48D JUMP JUMPDEST CALLER PUSH1 0x0 SWAP1 DUP2 MSTORE PUSH1 0x20 DUP2 SWAP1 MSTORE PUSH1 0x40 SWAP1 KECCAK256 SLOAD PUSH9 0xFFFFFFFFFFFFFFFFFF AND ISZERO PUSH2 0x803 JUMPI PUSH1 0x40 MLOAD PUSH32 0x8C379A000000000000000000000000000000000000000000000000000000000 DUP2 MSTORE PUSH1 0x20 PUSH1 0x4 DUP3 ADD MSTORE PUSH1 0xF PUSH1 0x24 DUP3 ADD MSTORE PUSH32 0x416C7265616479207374616B696E670000000000000000000000000000000000 PUSH1 0x44 DUP3 ADD MSTORE PUSH1 0x64 ADD PUSH2 0x48D JUMP JUMPDEST PUSH1 0x0 PUSH2 0x80F DUP4 DUP4 PUSH2 0xB01 JUMP JUMPDEST PUSH1 0x40 DUP1 MLOAD PUSH1 0x80 DUP2 ADD DUP3 MSTORE PUSH9 0xFFFFFFFFFFFFFFFFFF DUP7 DUP2 AND DUP3 MSTORE PUSH3 0xFFFFFF DUP7 DUP2 AND PUSH1 0x20 DUP1 DUP6 ADD SWAP2 DUP3 MSTORE NUMBER PUSH4 0xFFFFFFFF SWAP1 DUP2 AND DUP7 DUP9 ADD SWAP1 DUP2 MSTORE PUSH16 0xFFFFFFFFFFFFFFFFFFFFFFFFFFFFFFFF DUP10 DUP2 AND PUSH1 0x60 DUP10 ADD DUP2 DUP2 MSTORE CALLER PUSH1 0x0 SWAP1 DUP2 MSTORE SWAP6 DUP7 SWAP1 MSTORE SWAP10 DUP6 KECCAK256 DUP10 MLOAD DUP2 SLOAD SWAP8 MLOAD SWAP5 MLOAD SWAP12 MLOAD SWAP10 AND PUSH32 0xFFFFFFFFFFFFFFFFFFFFFFFFFFFFFFFFFFFFFFFF000000000000000000000000 SWAP1 SWAP8 AND SWAP7 SWAP1 SWAP7 OR PUSH10 0x1000000000000000000 SWAP4 SWAP1 SWAP8 AND SWAP3 SWAP1 SWAP3 MUL SWAP6 SWAP1 SWAP6 OR PUSH12 0xFFFFFFFFFFFFFFFFFFFFFFFF AND PUSH13 0x1000000000000000000000000 SWAP9 SWAP1 SWAP3 AND SWAP8 SWAP1 SWAP8 MUL DUP5 AND OR PUSH17 0x100000000000000000000000000000000 SWAP5 SWAP1 SWAP4 AND SWAP4 SWAP1 SWAP4 MUL SWAP2 SWAP1 SWAP2 OR SWAP1 SSTORE PUSH1 0x2 DUP1 SLOAD SWAP5 SWAP6 POP SWAP2 SWAP4 PUSH2 0x914 SWAP1 DUP5 SWAP1 PUSH2 0x1CB9 JUMP JUMPDEST SWAP1 SWAP2 SSTORE POP POP CALLER PUSH1 0x0 SWAP1 DUP2 MSTORE PUSH1 0x1 PUSH1 0x20 MSTORE PUSH1 0x40 DUP2 KECCAK256 DUP1 SLOAD PUSH16 0xFFFFFFFFFFFFFFFFFFFFFFFFFFFFFFFF DUP6 AND SWAP3 SWAP1 PUSH2 0x94A SWAP1 DUP5 SWAP1 PUSH2 0x1CB9 JUMP JUMPDEST SWAP1 SWAP2 SSTORE POP POP PUSH1 0x3 SLOAD PUSH1 0x40 MLOAD PUSH32 0x23B872DD00000000000000000000000000000000000000000000000000000000 DUP2 MSTORE CALLER PUSH1 0x4 DUP3 ADD MSTORE ADDRESS PUSH1 0x24 DUP3 ADD MSTORE PUSH9 0xFFFFFFFFFFFFFFFFFF DUP7 AND PUSH1 0x44 DUP3 ADD MSTORE PUSH20 0xFFFFFFFFFFFFFFFFFFFFFFFFFFFFFFFFFFFFFFFF SWAP1 SWAP2 AND SWAP1 PUSH4 0x23B872DD SWAP1 PUSH1 0x64 ADD PUSH1 0x20 PUSH1 0x40 MLOAD DUP1 DUP4 SUB DUP2 PUSH1 0x0 DUP8 DUP1 EXTCODESIZE ISZERO DUP1 ISZERO PUSH2 0x9D1 JUMPI PUSH1 0x0 DUP1 REVERT JUMPDEST POP GAS CALL ISZERO DUP1 ISZERO PUSH2 0x9E5 JUMPI RETURNDATASIZE PUSH1 0x0 DUP1 RETURNDATACOPY RETURNDATASIZE PUSH1 0x0 REVERT JUMPDEST POP POP POP POP PUSH1 0x40 MLOAD RETURNDATASIZE PUSH1 0x1F NOT PUSH1 0x1F DUP3 ADD AND DUP3 ADD DUP1 PUSH1 0x40 MSTORE POP DUP2 ADD SWAP1 PUSH2 0xA09 SWAP2 SWAP1 PUSH2 0x1C35 JUMP JUMPDEST PUSH2 0xA95 JUMPI PUSH1 0x40 MLOAD PUSH32 0x8C379A000000000000000000000000000000000000000000000000000000000 DUP2 MSTORE PUSH1 0x20 PUSH1 0x4 DUP3 ADD MSTORE PUSH1 0x21 PUSH1 0x24 DUP3 ADD MSTORE PUSH32 0x5472616E7366657246726F6D206F6620706F6F6C546F6B656E73206661696C65 PUSH1 0x44 DUP3 ADD MSTORE PUSH32 0x6400000000000000000000000000000000000000000000000000000000000000 PUSH1 0x64 DUP3 ADD MSTORE PUSH1 0x84 ADD PUSH2 0x48D JUMP JUMPDEST PUSH1 0x40 DUP1 MLOAD CALLER DUP2 MSTORE PUSH9 0xFFFFFFFFFFFFFFFFFF DUP7 AND PUSH1 0x20 DUP3 ADD MSTORE PUSH3 0xFFFFFF DUP6 AND DUP2 DUP4 ADD MSTORE PUSH16 0xFFFFFFFFFFFFFFFFFFFFFFFFFFFFFFFF DUP5 AND PUSH1 0x60 DUP3 ADD MSTORE SWAP1 MLOAD PUSH32 0xE7DBEA143058F90BE7A1644E539342C25DDC5379868FE922BAB596DE99DEBF41 SWAP2 DUP2 SWAP1 SUB PUSH1 0x80 ADD SWAP1 LOG1 POP POP POP POP JUMP JUMPDEST PUSH1 0x0 DUP1 PUSH3 0xFFFFFF DUP4 AND PUSH2 0xB1F DUP2 PUSH9 0xFFFFFFFFFFFFFFFFFF DUP8 AND PUSH2 0x1D32 JUMP JUMPDEST PUSH2 0xB29 SWAP2 SWAP1 PUSH2 0x1D32 JUMP JUMPDEST SWAP1 POP PUSH1 0x0 DUP2 GT PUSH2 0xBBB JUMPI PUSH1 0x40 MLOAD PUSH32 0x8C379A000000000000000000000000000000000000000000000000000000000 DUP2 MSTORE PUSH1 0x20 PUSH1 0x4 DUP3 ADD MSTORE PUSH1 0x33 PUSH1 0x24 DUP3 ADD MSTORE PUSH32 0x4E65697468657220746F6B656E416D6F756E74206E6F72206C6F636B696E6750 PUSH1 0x44 DUP3 ADD MSTORE PUSH32 0x6572696F6420636F756C646E2774206265203000000000000000000000000000 PUSH1 0x64 DUP3 ADD MSTORE PUSH1 0x84 ADD PUSH2 0x48D JUMP JUMPDEST SWAP4 SWAP3 POP POP POP JUMP JUMPDEST PUSH1 0x0 PUSH2 0xBCD CALLER PUSH2 0x18EA JUMP JUMPDEST SWAP1 POP PUSH1 0x0 DUP2 GT PUSH2 0xC5F JUMPI PUSH1 0x40 MLOAD PUSH32 0x8C379A000000000000000000000000000000000000000000000000000000000 DUP2 MSTORE PUSH1 0x20 PUSH1 0x4 DUP3 ADD MSTORE PUSH1 0x22 PUSH1 0x24 DUP3 ADD MSTORE PUSH32 0x56657374696E672072656C656173653A206E6F20746F6B656E73206172652064 PUSH1 0x44 DUP3 ADD MSTORE PUSH32 0x7565000000000000000000000000000000000000000000000000000000000000 PUSH1 0x64 DUP3 ADD MSTORE PUSH1 0x84 ADD PUSH2 0x48D JUMP JUMPDEST CALLER PUSH1 0x0 SWAP1 DUP2 MSTORE PUSH1 0x5 PUSH1 0x20 MSTORE PUSH1 0x40 DUP2 KECCAK256 DUP1 SLOAD DUP4 SWAP3 SWAP1 PUSH2 0xC7E SWAP1 DUP5 SWAP1 PUSH2 0x1CB9 JUMP JUMPDEST SWAP1 SWAP2 SSTORE POP POP PUSH1 0x40 MLOAD PUSH32 0xA9059CBB00000000000000000000000000000000000000000000000000000000 DUP2 MSTORE CALLER PUSH1 0x4 DUP3 ADD MSTORE PUSH1 0x24 DUP2 ADD DUP3 SWAP1 MSTORE PUSH32 0x0 PUSH20 0xFFFFFFFFFFFFFFFFFFFFFFFFFFFFFFFFFFFFFFFF AND SWAP1 PUSH4 0xA9059CBB SWAP1 PUSH1 0x44 ADD PUSH1 0x20 PUSH1 0x40 MLOAD DUP1 DUP4 SUB DUP2 PUSH1 0x0 DUP8 DUP1 EXTCODESIZE ISZERO DUP1 ISZERO PUSH2 0xD11 JUMPI PUSH1 0x0 DUP1 REVERT JUMPDEST POP GAS CALL ISZERO DUP1 ISZERO PUSH2 0xD25 JUMPI RETURNDATASIZE PUSH1 0x0 DUP1 RETURNDATACOPY RETURNDATASIZE PUSH1 0x0 REVERT JUMPDEST POP POP POP POP PUSH1 0x40 MLOAD RETURNDATASIZE PUSH1 0x1F NOT PUSH1 0x1F DUP3 ADD AND DUP3 ADD DUP1 PUSH1 0x40 MSTORE POP DUP2 ADD SWAP1 PUSH2 0xD49 SWAP2 SWAP1 PUSH2 0x1C35 JUMP JUMPDEST PUSH2 0xDAF JUMPI PUSH1 0x40 MLOAD PUSH32 0x8C379A000000000000000000000000000000000000000000000000000000000 DUP2 MSTORE PUSH1 0x20 PUSH1 0x4 DUP3 ADD MSTORE PUSH1 0x1D PUSH1 0x24 DUP3 ADD MSTORE PUSH32 0x526577617264206F696C657273207472616E73666572206661696C6564000000 PUSH1 0x44 DUP3 ADD MSTORE PUSH1 0x64 ADD PUSH2 0x48D JUMP JUMPDEST PUSH1 0x40 DUP1 MLOAD CALLER DUP2 MSTORE PUSH1 0x20 DUP2 ADD DUP4 SWAP1 MSTORE PUSH32 0x769D4212C4FBFAA012A896B49E0F3BB14D32DD0D60CE1A13D357EE6B69DB77C2 SWAP2 ADD JUMPDEST PUSH1 0x40 MLOAD DUP1 SWAP2 SUB SWAP1 LOG1 POP JUMP JUMPDEST CALLER PUSH20 0xFFFFFFFFFFFFFFFFFFFFFFFFFFFFFFFFFFFFFFFF PUSH32 0x0 AND EQ PUSH2 0xE8B JUMPI PUSH1 0x40 MLOAD PUSH32 0x8C379A000000000000000000000000000000000000000000000000000000000 DUP2 MSTORE PUSH1 0x20 PUSH1 0x4 DUP3 ADD MSTORE PUSH1 0x1B PUSH1 0x24 DUP3 ADD MSTORE PUSH32 0x43616E206F6E6C792062652063616C6C6564206279206F776E65720000000000 PUSH1 0x44 DUP3 ADD MSTORE PUSH1 0x64 ADD PUSH2 0x48D JUMP JUMPDEST PUSH1 0x3 SLOAD PUSH20 0xFFFFFFFFFFFFFFFFFFFFFFFFFFFFFFFFFFFFFFFF AND ISZERO PUSH2 0xF0B JUMPI PUSH1 0x40 MLOAD PUSH32 0x8C379A000000000000000000000000000000000000000000000000000000000 DUP2 MSTORE PUSH1 0x20 PUSH1 0x4 DUP3 ADD MSTORE PUSH1 0x19 PUSH1 0x24 DUP3 ADD MSTORE PUSH32 0x706F6F6C546F6B656E2077617320616C72656164792073657400000000000000 PUSH1 0x44 DUP3 ADD MSTORE PUSH1 0x64 ADD PUSH2 0x48D JUMP JUMPDEST PUSH20 0xFFFFFFFFFFFFFFFFFFFFFFFFFFFFFFFFFFFFFFFF DUP3 AND PUSH2 0xF88 JUMPI PUSH1 0x40 MLOAD PUSH32 0x8C379A000000000000000000000000000000000000000000000000000000000 DUP2 MSTORE PUSH1 0x20 PUSH1 0x4 DUP3 ADD DUP2 SWAP1 MSTORE PUSH1 0x24 DUP3 ADD MSTORE PUSH32 0x706F6F6C546F6B656E20616464726573732063616E6E6F74206265207A65726F PUSH1 0x44 DUP3 ADD MSTORE PUSH1 0x64 ADD PUSH2 0x48D JUMP JUMPDEST PUSH1 0x3 DUP1 SLOAD PUSH32 0xFFFFFFFFFFFFFFFFFFFFFFFF0000000000000000000000000000000000000000 AND PUSH20 0xFFFFFFFFFFFFFFFFFFFFFFFFFFFFFFFFFFFFFFFF DUP5 DUP2 AND SWAP2 SWAP1 SWAP2 OR SWAP1 SWAP2 SSTORE PUSH1 0x40 MLOAD PUSH32 0x70A0823100000000000000000000000000000000000000000000000000000000 DUP2 MSTORE DUP3 DUP3 AND PUSH1 0x4 DUP3 ADD MSTORE PUSH32 0x0 SWAP2 PUSH32 0x0 AND SWAP1 PUSH4 0x70A08231 SWAP1 PUSH1 0x24 ADD PUSH1 0x20 PUSH1 0x40 MLOAD DUP1 DUP4 SUB DUP2 DUP7 DUP1 EXTCODESIZE ISZERO DUP1 ISZERO PUSH2 0x1061 JUMPI PUSH1 0x0 DUP1 REVERT JUMPDEST POP GAS STATICCALL ISZERO DUP1 ISZERO PUSH2 0x1075 JUMPI RETURNDATASIZE PUSH1 0x0 DUP1 RETURNDATACOPY RETURNDATASIZE PUSH1 0x0 REVERT JUMPDEST POP POP POP POP PUSH1 0x40 MLOAD RETURNDATASIZE PUSH1 0x1F NOT PUSH1 0x1F DUP3 ADD AND DUP3 ADD DUP1 PUSH1 0x40 MSTORE POP DUP2 ADD SWAP1 PUSH2 0x1099 SWAP2 SWAP1 PUSH2 0x1C55 JUMP JUMPDEST LT ISZERO PUSH2 0x1127 JUMPI PUSH1 0x40 MLOAD PUSH32 0x8C379A000000000000000000000000000000000000000000000000000000000 DUP2 MSTORE PUSH1 0x20 PUSH1 0x4 DUP3 ADD MSTORE PUSH1 0x2B PUSH1 0x24 DUP3 ADD MSTORE PUSH32 0x5374616B696E6746756E6420646F65736E2774206861766520656E6F75676820 PUSH1 0x44 DUP3 ADD MSTORE PUSH32 0x4F494C2062616C616E6365000000000000000000000000000000000000000000 PUSH1 0x64 DUP3 ADD MSTORE PUSH1 0x84 ADD PUSH2 0x48D JUMP JUMPDEST PUSH1 0x40 MLOAD PUSH32 0xDD62ED3E00000000000000000000000000000000000000000000000000000000 DUP2 MSTORE PUSH20 0xFFFFFFFFFFFFFFFFFFFFFFFFFFFFFFFFFFFFFFFF DUP3 DUP2 AND PUSH1 0x4 DUP4 ADD MSTORE ADDRESS PUSH1 0x24 DUP4 ADD MSTORE PUSH32 0x0 SWAP2 PUSH32 0x0 SWAP1 SWAP2 AND SWAP1 PUSH4 0xDD62ED3E SWAP1 PUSH1 0x44 ADD PUSH1 0x20 PUSH1 0x40 MLOAD DUP1 DUP4 SUB DUP2 DUP7 DUP1 EXTCODESIZE ISZERO DUP1 ISZERO PUSH2 0x11D8 JUMPI PUSH1 0x0 DUP1 REVERT JUMPDEST POP GAS STATICCALL ISZERO DUP1 ISZERO PUSH2 0x11EC JUMPI RETURNDATASIZE PUSH1 0x0 DUP1 RETURNDATACOPY RETURNDATASIZE PUSH1 0x0 REVERT JUMPDEST POP POP POP POP PUSH1 0x40 MLOAD RETURNDATASIZE PUSH1 0x1F NOT PUSH1 0x1F DUP3 ADD AND DUP3 ADD DUP1 PUSH1 0x40 MSTORE POP DUP2 ADD SWAP1 PUSH2 0x1210 SWAP2 SWAP1 PUSH2 0x1C55 JUMP JUMPDEST LT ISZERO PUSH2 0x129E JUMPI PUSH1 0x40 MLOAD PUSH32 0x8C379A000000000000000000000000000000000000000000000000000000000 DUP2 MSTORE PUSH1 0x20 PUSH1 0x4 DUP3 ADD MSTORE PUSH1 0x29 PUSH1 0x24 DUP3 ADD MSTORE PUSH32 0x5374616B696E6746756E6420646F65736E2774206861766520656E6F75676820 PUSH1 0x44 DUP3 ADD MSTORE PUSH32 0x616C6C6F77616E63650000000000000000000000000000000000000000000000 PUSH1 0x64 DUP3 ADD MSTORE PUSH1 0x84 ADD PUSH2 0x48D JUMP JUMPDEST PUSH1 0x40 MLOAD PUSH32 0x23B872DD00000000000000000000000000000000000000000000000000000000 DUP2 MSTORE PUSH20 0xFFFFFFFFFFFFFFFFFFFFFFFFFFFFFFFFFFFFFFFF DUP3 DUP2 AND PUSH1 0x4 DUP4 ADD MSTORE ADDRESS PUSH1 0x24 DUP4 ADD MSTORE PUSH32 0x0 PUSH1 0x44 DUP4 ADD MSTORE PUSH32 0x0 AND SWAP1 PUSH4 0x23B872DD SWAP1 PUSH1 0x64 ADD PUSH1 0x20 PUSH1 0x40 MLOAD DUP1 DUP4 SUB DUP2 PUSH1 0x0 DUP8 DUP1 EXTCODESIZE ISZERO DUP1 ISZERO PUSH2 0x1353 JUMPI PUSH1 0x0 DUP1 REVERT JUMPDEST POP GAS CALL ISZERO DUP1 ISZERO PUSH2 0x1367 JUMPI RETURNDATASIZE PUSH1 0x0 DUP1 RETURNDATACOPY RETURNDATASIZE PUSH1 0x0 REVERT JUMPDEST POP POP POP POP PUSH1 0x40 MLOAD RETURNDATASIZE PUSH1 0x1F NOT PUSH1 0x1F DUP3 ADD AND DUP3 ADD DUP1 PUSH1 0x40 MSTORE POP DUP2 ADD SWAP1 PUSH2 0x138B SWAP2 SWAP1 PUSH2 0x1C35 JUMP JUMPDEST PUSH2 0x1417 JUMPI PUSH1 0x40 MLOAD PUSH32 0x8C379A000000000000000000000000000000000000000000000000000000000 DUP2 MSTORE PUSH1 0x20 PUSH1 0x4 DUP3 ADD MSTORE PUSH1 0x2B PUSH1 0x24 DUP3 ADD MSTORE PUSH32 0x5472616E7366657246726F6D206F66204F494C2066726F6D205374616B696E67 PUSH1 0x44 DUP3 ADD MSTORE PUSH32 0x46756E64206661696C6564000000000000000000000000000000000000000000 PUSH1 0x64 DUP3 ADD MSTORE PUSH1 0x84 ADD PUSH2 0x48D JUMP JUMPDEST POP POP JUMP JUMPDEST PUSH1 0x3 SLOAD PUSH20 0xFFFFFFFFFFFFFFFFFFFFFFFFFFFFFFFFFFFFFFFF AND PUSH2 0x149A JUMPI PUSH1 0x40 MLOAD PUSH32 0x8C379A000000000000000000000000000000000000000000000000000000000 DUP2 MSTORE PUSH1 0x20 PUSH1 0x4 DUP3 ADD MSTORE PUSH1 0x11 PUSH1 0x24 DUP3 ADD MSTORE PUSH32 0x706F6F6C546F6B656E206E6F7420736574000000000000000000000000000000 PUSH1 0x44 DUP3 ADD MSTORE PUSH1 0x64 ADD PUSH2 0x48D JUMP JUMPDEST CALLER PUSH1 0x0 SWAP1 DUP2 MSTORE PUSH1 0x20 DUP2 DUP2 MSTORE PUSH1 0x40 SWAP2 DUP3 SWAP1 KECCAK256 DUP3 MLOAD PUSH1 0x80 DUP2 ADD DUP5 MSTORE SWAP1 SLOAD PUSH9 0xFFFFFFFFFFFFFFFFFF DUP2 AND DUP1 DUP4 MSTORE PUSH10 0x1000000000000000000 DUP3 DIV PUSH3 0xFFFFFF AND SWAP4 DUP4 ADD SWAP4 SWAP1 SWAP4 MSTORE PUSH13 0x1000000000000000000000000 DUP2 DIV PUSH4 0xFFFFFFFF AND SWAP4 DUP3 ADD SWAP4 SWAP1 SWAP4 MSTORE PUSH17 0x100000000000000000000000000000000 SWAP1 SWAP3 DIV PUSH16 0xFFFFFFFFFFFFFFFFFFFFFFFFFFFFFFFF AND PUSH1 0x60 DUP4 ADD MSTORE DUP1 PUSH2 0x158D JUMPI PUSH1 0x40 MLOAD PUSH32 0x8C379A000000000000000000000000000000000000000000000000000000000 DUP2 MSTORE PUSH1 0x20 PUSH1 0x4 DUP3 ADD DUP2 SWAP1 MSTORE PUSH1 0x24 DUP3 ADD MSTORE PUSH32 0x596F7520646F6E277420686176652061207374616B6520746F20756E6C6F636B PUSH1 0x44 DUP3 ADD MSTORE PUSH1 0x64 ADD PUSH2 0x48D JUMP JUMPDEST DUP2 PUSH1 0x40 ADD MLOAD PUSH4 0xFFFFFFFF AND NUMBER GT PUSH2 0x1626 JUMPI PUSH1 0x40 MLOAD PUSH32 0x8C379A000000000000000000000000000000000000000000000000000000000 DUP2 MSTORE PUSH1 0x20 PUSH1 0x4 DUP3 ADD MSTORE PUSH1 0x3C PUSH1 0x24 DUP3 ADD MSTORE PUSH32 0x596F752063616E277420776974686472617720746865207374616B6520696E20 PUSH1 0x44 DUP3 ADD MSTORE PUSH32 0x7468652073616D6520626C6F636B20697420776173206C6F636B656400000000 PUSH1 0x64 DUP3 ADD MSTORE PUSH1 0x84 ADD PUSH2 0x48D JUMP JUMPDEST PUSH2 0x162F DUP3 PUSH2 0x1929 JUMP JUMPDEST CALLER PUSH1 0x0 DUP2 DUP2 MSTORE PUSH1 0x20 DUP2 SWAP1 MSTORE PUSH1 0x40 DUP1 DUP3 KECCAK256 SWAP2 SWAP1 SWAP2 SSTORE PUSH1 0x3 SLOAD SWAP1 MLOAD PUSH32 0xA9059CBB00000000000000000000000000000000000000000000000000000000 DUP2 MSTORE PUSH1 0x4 DUP2 ADD SWAP3 SWAP1 SWAP3 MSTORE PUSH1 0x24 DUP3 ADD DUP4 SWAP1 MSTORE PUSH20 0xFFFFFFFFFFFFFFFFFFFFFFFFFFFFFFFFFFFFFFFF AND SWAP1 PUSH4 0xA9059CBB SWAP1 PUSH1 0x44 ADD PUSH1 0x20 PUSH1 0x40 MLOAD DUP1 DUP4 SUB DUP2 PUSH1 0x0 DUP8 DUP1 EXTCODESIZE ISZERO DUP1 ISZERO PUSH2 0x16B4 JUMPI PUSH1 0x0 DUP1 REVERT JUMPDEST POP GAS CALL ISZERO DUP1 ISZERO PUSH2 0x16C8 JUMPI RETURNDATASIZE PUSH1 0x0 DUP1 RETURNDATACOPY RETURNDATASIZE PUSH1 0x0 REVERT JUMPDEST POP POP POP POP PUSH1 0x40 MLOAD RETURNDATASIZE PUSH1 0x1F NOT PUSH1 0x1F DUP3 ADD AND DUP3 ADD DUP1 PUSH1 0x40 MSTORE POP DUP2 ADD SWAP1 PUSH2 0x16EC SWAP2 SWAP1 PUSH2 0x1C35 JUMP JUMPDEST PUSH2 0x1417 JUMPI PUSH1 0x40 MLOAD PUSH32 0x8C379A000000000000000000000000000000000000000000000000000000000 DUP2 MSTORE PUSH1 0x20 PUSH1 0x4 DUP3 ADD MSTORE PUSH1 0x1A PUSH1 0x24 DUP3 ADD MSTORE PUSH32 0x506F6F6C20746F6B656E207472616E73666572206661696C6564000000000000 PUSH1 0x44 DUP3 ADD MSTORE PUSH1 0x64 ADD PUSH2 0x48D JUMP JUMPDEST PUSH1 0x0 DUP2 GT PUSH2 0x17E2 JUMPI PUSH1 0x40 MLOAD PUSH32 0x8C379A000000000000000000000000000000000000000000000000000000000 DUP2 MSTORE PUSH1 0x20 PUSH1 0x4 DUP3 ADD MSTORE PUSH1 0x29 PUSH1 0x24 DUP3 ADD MSTORE PUSH32 0x596F75206469646E2774206561726E20616E7920696E746567657220616D6F75 PUSH1 0x44 DUP3 ADD MSTORE PUSH32 0x6E74206F66207765690000000000000000000000000000000000000000000000 PUSH1 0x64 DUP3 ADD MSTORE PUSH1 0x84 ADD PUSH2 0x48D JUMP JUMPDEST PUSH20 0xFFFFFFFFFFFFFFFFFFFFFFFFFFFFFFFFFFFFFFFF DUP3 AND PUSH2 0x1885 JUMPI PUSH1 0x40 MLOAD PUSH32 0x8C379A000000000000000000000000000000000000000000000000000000000 DUP2 MSTORE PUSH1 0x20 PUSH1 0x4 DUP3 ADD MSTORE PUSH1 0x2D PUSH1 0x24 DUP3 ADD MSTORE PUSH32 0x546F6B656E56657374696E673A2062656E656669636961727920697320746865 PUSH1 0x44 DUP3 ADD MSTORE PUSH32 0x207A65726F206164647265737300000000000000000000000000000000000000 PUSH1 0x64 DUP3 ADD MSTORE PUSH1 0x84 ADD PUSH2 0x48D JUMP JUMPDEST PUSH20 0xFFFFFFFFFFFFFFFFFFFFFFFFFFFFFFFFFFFFFFFF DUP3 AND PUSH1 0x0 DUP2 DUP2 MSTORE PUSH1 0x4 PUSH1 0x20 SWAP1 DUP2 MSTORE PUSH1 0x40 SWAP2 DUP3 SWAP1 KECCAK256 DUP5 SWAP1 SSTORE DUP2 MLOAD SWAP3 DUP4 MSTORE DUP3 ADD DUP4 SWAP1 MSTORE PUSH32 0x6E1AFD29522B0AAF986597BCC53F5FB4DAAE2AF7CFD41D00C384AB1BDF912B23 SWAP2 ADD PUSH1 0x40 MLOAD DUP1 SWAP2 SUB SWAP1 LOG1 POP POP JUMP JUMPDEST PUSH20 0xFFFFFFFFFFFFFFFFFFFFFFFFFFFFFFFFFFFFFFFF DUP2 AND PUSH1 0x0 SWAP1 DUP2 MSTORE PUSH1 0x5 PUSH1 0x20 MSTORE PUSH1 0x40 DUP2 KECCAK256 SLOAD PUSH2 0x1919 DUP4 PUSH2 0x1AC0 JUMP JUMPDEST PUSH2 0x1923 SWAP2 SWAP1 PUSH2 0x1D6F JUMP JUMPDEST SWAP3 SWAP2 POP POP JUMP JUMPDEST DUP1 PUSH1 0x20 ADD MLOAD PUSH3 0xFFFFFF AND DUP2 PUSH1 0x40 ADD MLOAD PUSH2 0x1942 SWAP2 SWAP1 PUSH2 0x1CD1 JUMP JUMPDEST PUSH4 0xFFFFFFFF AND NUMBER LT ISZERO PUSH2 0x1A49 JUMPI PUSH1 0x60 DUP2 ADD MLOAD CALLER PUSH1 0x0 SWAP1 DUP2 MSTORE PUSH1 0x1 PUSH1 0x20 MSTORE PUSH1 0x40 DUP2 KECCAK256 DUP1 SLOAD PUSH16 0xFFFFFFFFFFFFFFFFFFFFFFFFFFFFFFFF SWAP1 SWAP4 AND SWAP3 SWAP1 SWAP2 SWAP1 PUSH2 0x1988 SWAP1 DUP5 SWAP1 PUSH2 0x1D6F JUMP JUMPDEST SWAP3 POP POP DUP2 SWAP1 SSTORE POP DUP1 PUSH1 0x60 ADD MLOAD PUSH16 0xFFFFFFFFFFFFFFFFFFFFFFFFFFFFFFFF AND PUSH1 0x2 PUSH1 0x0 DUP3 DUP3 SLOAD PUSH2 0x19B7 SWAP2 SWAP1 PUSH2 0x1D6F JUMP JUMPDEST SWAP1 SWAP2 SSTORE POP POP DUP1 MLOAD PUSH1 0x20 DUP3 ADD MLOAD PUSH1 0x40 DUP4 ADD MLOAD PUSH32 0x6C6F3C7D8C87976393011CC962DA12841024BC1D62D2DE21716A6306AB314EF3 SWAP3 CALLER SWAP3 SWAP1 SWAP2 PUSH2 0x19FE SWAP1 PUSH4 0xFFFFFFFF AND NUMBER PUSH2 0x1D6F JUMP JUMPDEST PUSH1 0x40 DUP1 MLOAD PUSH20 0xFFFFFFFFFFFFFFFFFFFFFFFFFFFFFFFFFFFFFFFF SWAP1 SWAP6 AND DUP6 MSTORE PUSH9 0xFFFFFFFFFFFFFFFFFF SWAP1 SWAP4 AND PUSH1 0x20 DUP6 ADD MSTORE PUSH3 0xFFFFFF SWAP1 SWAP2 AND SWAP2 DUP4 ADD SWAP2 SWAP1 SWAP2 MSTORE PUSH1 0x60 DUP3 ADD MSTORE PUSH1 0x80 ADD PUSH2 0xDE1 JUMP JUMPDEST DUP1 MLOAD PUSH1 0x20 DUP1 DUP4 ADD MLOAD PUSH1 0x60 DUP1 DUP6 ADD MLOAD PUSH1 0x40 DUP1 MLOAD CALLER DUP2 MSTORE PUSH9 0xFFFFFFFFFFFFFFFFFF SWAP1 SWAP7 AND SWAP5 DUP7 ADD SWAP5 SWAP1 SWAP5 MSTORE PUSH3 0xFFFFFF SWAP1 SWAP3 AND SWAP3 DUP5 ADD SWAP3 SWAP1 SWAP3 MSTORE PUSH16 0xFFFFFFFFFFFFFFFFFFFFFFFFFFFFFFFF AND SWAP1 DUP3 ADD MSTORE PUSH32 0x391930AB48E95A9040C849CC86E1B2F63C711A1F59D6E324CE775DC9A0051056 SWAP1 PUSH1 0x80 ADD PUSH2 0xDE1 JUMP JUMPDEST PUSH1 0x0 PUSH2 0x1B0C PUSH32 0x0 PUSH32 0x0 PUSH2 0x1CB9 JUMP JUMPDEST NUMBER LT PUSH2 0x1B3B JUMPI POP PUSH20 0xFFFFFFFFFFFFFFFFFFFFFFFFFFFFFFFFFFFFFFFF AND PUSH1 0x0 SWAP1 DUP2 MSTORE PUSH1 0x4 PUSH1 0x20 MSTORE PUSH1 0x40 SWAP1 KECCAK256 SLOAD SWAP1 JUMP JUMPDEST PUSH32 0x0 PUSH2 0x1B86 PUSH32 0x0 NUMBER PUSH2 0x1D6F JUMP JUMPDEST PUSH20 0xFFFFFFFFFFFFFFFFFFFFFFFFFFFFFFFFFFFFFFFF DUP5 AND PUSH1 0x0 SWAP1 DUP2 MSTORE PUSH1 0x4 PUSH1 0x20 MSTORE PUSH1 0x40 SWAP1 KECCAK256 SLOAD PUSH2 0x1BB6 SWAP2 SWAP1 PUSH2 0x1D32 JUMP JUMPDEST PUSH2 0x1923 SWAP2 SWAP1 PUSH2 0x1CF9 JUMP JUMPDEST SWAP2 SWAP1 POP JUMP JUMPDEST DUP1 CALLDATALOAD PUSH20 0xFFFFFFFFFFFFFFFFFFFFFFFFFFFFFFFFFFFFFFFF DUP2 AND DUP2 EQ PUSH2 0x1BC0 JUMPI PUSH1 0x0 DUP1 REVERT JUMPDEST PUSH1 0x0 PUSH1 0x20 DUP3 DUP5 SUB SLT ISZERO PUSH2 0x1BFA JUMPI DUP1 DUP2 REVERT JUMPDEST PUSH2 0xBBB DUP3 PUSH2 0x1BC5 JUMP JUMPDEST PUSH1 0x0 DUP1 PUSH1 0x40 DUP4 DUP6 SUB SLT ISZERO PUSH2 0x1C15 JUMPI DUP1 DUP2 REVERT JUMPDEST PUSH2 0x1C1E DUP4 PUSH2 0x1BC5 JUMP JUMPDEST SWAP2 POP PUSH2 0x1C2C PUSH1 0x20 DUP5 ADD PUSH2 0x1BC5 JUMP JUMPDEST SWAP1 POP SWAP3 POP SWAP3 SWAP1 POP JUMP JUMPDEST PUSH1 0x0 PUSH1 0x20 DUP3 DUP5 SUB SLT ISZERO PUSH2 0x1C46 JUMPI DUP1 DUP2 REVERT JUMPDEST DUP2 MLOAD DUP1 ISZERO ISZERO DUP2 EQ PUSH2 0xBBB JUMPI DUP2 DUP3 REVERT JUMPDEST PUSH1 0x0 PUSH1 0x20 DUP3 DUP5 SUB SLT ISZERO PUSH2 0x1C66 JUMPI DUP1 DUP2 REVERT JUMPDEST POP MLOAD SWAP2 SWAP1 POP JUMP JUMPDEST PUSH1 0x0 DUP1 PUSH1 0x40 DUP4 DUP6 SUB SLT ISZERO PUSH2 0x1C7F JUMPI DUP2 DUP3 REVERT JUMPDEST DUP3 CALLDATALOAD PUSH9 0xFFFFFFFFFFFFFFFFFF DUP2 AND DUP2 EQ PUSH2 0x1C97 JUMPI DUP3 DUP4 REVERT JUMPDEST SWAP2 POP PUSH1 0x20 DUP4 ADD CALLDATALOAD PUSH3 0xFFFFFF DUP2 AND DUP2 EQ PUSH2 0x1CAE JUMPI DUP2 DUP3 REVERT JUMPDEST DUP1 SWAP2 POP POP SWAP3 POP SWAP3 SWAP1 POP JUMP JUMPDEST PUSH1 0x0 DUP3 NOT DUP3 GT ISZERO PUSH2 0x1CCC JUMPI PUSH2 0x1CCC PUSH2 0x1D86 JUMP JUMPDEST POP ADD SWAP1 JUMP JUMPDEST PUSH1 0x0 PUSH4 0xFFFFFFFF DUP1 DUP4 AND DUP2 DUP6 AND DUP1 DUP4 SUB DUP3 GT ISZERO PUSH2 0x1CF0 JUMPI PUSH2 0x1CF0 PUSH2 0x1D86 JUMP JUMPDEST ADD SWAP5 SWAP4 POP POP POP POP JUMP JUMPDEST PUSH1 0x0 DUP3 PUSH2 0x1D2D JUMPI PUSH32 0x4E487B7100000000000000000000000000000000000000000000000000000000 DUP2 MSTORE PUSH1 0x12 PUSH1 0x4 MSTORE PUSH1 0x24 DUP2 REVERT JUMPDEST POP DIV SWAP1 JUMP JUMPDEST PUSH1 0x0 DUP2 PUSH32 0xFFFFFFFFFFFFFFFFFFFFFFFFFFFFFFFFFFFFFFFFFFFFFFFFFFFFFFFFFFFFFFFF DIV DUP4 GT DUP3 ISZERO ISZERO AND ISZERO PUSH2 0x1D6A JUMPI PUSH2 0x1D6A PUSH2 0x1D86 JUMP JUMPDEST POP MUL SWAP1 JUMP JUMPDEST PUSH1 0x0 DUP3 DUP3 LT ISZERO PUSH2 0x1D81 JUMPI PUSH2 0x1D81 PUSH2 0x1D86 JUMP JUMPDEST POP SUB SWAP1 JUMP JUMPDEST PUSH32 0x4E487B7100000000000000000000000000000000000000000000000000000000 PUSH1 0x0 MSTORE PUSH1 0x11 PUSH1 0x4 MSTORE PUSH1 0x24 PUSH1 0x0 REVERT INVALID LOG2 PUSH5 0x6970667358 0x22 SLT KECCAK256 0xB2 SGT 0xDD RETURNDATASIZE 0xEF DUP4 SLOAD 0xC8 MLOAD 0x24 0xC7 PUSH29 0xB7C25D47BD8A5643391E9B3C6AC44CE1C6270FE564736F6C6343000804 STOP CALLER "
				},
				"gasEstimates": {
					"creation": {
						"codeDepositCost": "1531800",
						"executionCost": "infinite",
						"totalCost": "infinite"
					},
					"external": {
						"calculateStakingRewardPoints(uint72,uint24)": "infinite",
						"getRewards()": "infinite",
						"grantedTokens(address)": "1240",
						"lockTokens(uint72,uint24)": "infinite",
						"oilerToken()": "infinite",
						"owner()": "infinite",
						"poolToken()": "1080",
						"release()": "infinite",
						"releasedTokens(address)": "1241",
						"rewardPointsEarned(address)": "1241",
						"setPoolToken(address,address)": "infinite",
						"stakes(address)": "1443",
						"stakingFundAmount()": "infinite",
						"stakingProgramEndsBlock()": "infinite",
						"totalRewardPoints()": "1073",
						"unlockTokens()": "infinite",
						"vestingDuration()": "infinite"
					},
					"internal": {
						"_grantTokens(address,uint256)": "infinite",
						"_punishEarlyWithdrawal(struct Staking.Stake memory)": "infinite",
						"_releasableAmount(address)": "infinite",
						"_vestedAmount(address)": "infinite"
					}
				},
				"methodIdentifiers": {
					"calculateStakingRewardPoints(uint72,uint24)": "798633b9",
					"getRewards()": "0572b0cc",
					"grantedTokens(address)": "e0e4a722",
					"lockTokens(uint72,uint24)": "378592c8",
					"oilerToken()": "81e9207d",
					"owner()": "8da5cb5b",
					"poolToken()": "cbdf382c",
					"release()": "86d1a69f",
					"releasedTokens(address)": "70ff852b",
					"rewardPointsEarned(address)": "c959360b",
					"setPoolToken(address,address)": "f6ffab88",
					"stakes(address)": "16934fc4",
					"stakingFundAmount()": "52946b04",
					"stakingProgramEndsBlock()": "bc0925ae",
					"totalRewardPoints()": "c2e8caf6",
					"unlockTokens()": "f968f493",
					"vestingDuration()": "1514617e"
				}
			},
			"storageLayout": {
				"storage": [
					{
						"astId": 18,
						"contract": "token-staking(copy)(copy)/contracts/Staking.sol:Staking",
						"label": "stakes",
						"offset": 0,
						"slot": "0",
						"type": "t_mapping(t_address,t_struct(Stake)12_storage)"
					},
					{
						"astId": 23,
						"contract": "token-staking(copy)(copy)/contracts/Staking.sol:Staking",
						"label": "rewardPointsEarned",
						"offset": 0,
						"slot": "1",
						"type": "t_mapping(t_address,t_uint256)"
					},
					{
						"astId": 26,
						"contract": "token-staking(copy)(copy)/contracts/Staking.sol:Staking",
						"label": "totalRewardPoints",
						"offset": 0,
						"slot": "2",
						"type": "t_uint256"
					},
					{
						"astId": 36,
						"contract": "token-staking(copy)(copy)/contracts/Staking.sol:Staking",
						"label": "poolToken",
						"offset": 0,
						"slot": "3",
						"type": "t_contract(IERC20)786"
					},
					{
						"astId": 45,
						"contract": "token-staking(copy)(copy)/contracts/Staking.sol:Staking",
						"label": "grantedTokens",
						"offset": 0,
						"slot": "4",
						"type": "t_mapping(t_address,t_uint256)"
					},
					{
						"astId": 50,
						"contract": "token-staking(copy)(copy)/contracts/Staking.sol:Staking",
						"label": "releasedTokens",
						"offset": 0,
						"slot": "5",
						"type": "t_mapping(t_address,t_uint256)"
					}
				],
				"types": {
					"t_address": {
						"encoding": "inplace",
						"label": "address",
						"numberOfBytes": "20"
					},
					"t_contract(IERC20)786": {
						"encoding": "inplace",
						"label": "contract IERC20",
						"numberOfBytes": "20"
					},
					"t_mapping(t_address,t_struct(Stake)12_storage)": {
						"encoding": "mapping",
						"key": "t_address",
						"label": "mapping(address => struct Staking.Stake)",
						"numberOfBytes": "32",
						"value": "t_struct(Stake)12_storage"
					},
					"t_mapping(t_address,t_uint256)": {
						"encoding": "mapping",
						"key": "t_address",
						"label": "mapping(address => uint256)",
						"numberOfBytes": "32",
						"value": "t_uint256"
					},
					"t_struct(Stake)12_storage": {
						"encoding": "inplace",
						"label": "struct Staking.Stake",
						"members": [
							{
								"astId": 5,
								"contract": "token-staking(copy)(copy)/contracts/Staking.sol:Staking",
								"label": "tokenAmount",
								"offset": 0,
								"slot": "0",
								"type": "t_uint72"
							},
							{
								"astId": 7,
								"contract": "token-staking(copy)(copy)/contracts/Staking.sol:Staking",
								"label": "lockingPeriodInBlocks",
								"offset": 9,
								"slot": "0",
								"type": "t_uint24"
							},
							{
								"astId": 9,
								"contract": "token-staking(copy)(copy)/contracts/Staking.sol:Staking",
								"label": "startBlock",
								"offset": 12,
								"slot": "0",
								"type": "t_uint32"
							},
							{
								"astId": 11,
								"contract": "token-staking(copy)(copy)/contracts/Staking.sol:Staking",
								"label": "expectedStakingRewardPoints",
								"offset": 16,
								"slot": "0",
								"type": "t_uint128"
							}
						],
						"numberOfBytes": "32"
					},
					"t_uint128": {
						"encoding": "inplace",
						"label": "uint128",
						"numberOfBytes": "16"
					},
					"t_uint24": {
						"encoding": "inplace",
						"label": "uint24",
						"numberOfBytes": "3"
					},
					"t_uint256": {
						"encoding": "inplace",
						"label": "uint256",
						"numberOfBytes": "32"
					},
					"t_uint32": {
						"encoding": "inplace",
						"label": "uint32",
						"numberOfBytes": "4"
					},
					"t_uint72": {
						"encoding": "inplace",
						"label": "uint72",
						"numberOfBytes": "9"
					}
				}
			},
			"userdoc": {
				"kind": "user",
				"methods": {
					"calculateStakingRewardPoints(uint72,uint24)": {
						"notice": "Calculates the RewardPoints user will earn for a given tokenAmount locked for a given period"
					},
					"getRewards()": {
						"notice": "This can only be called after the Staking Program ended"
					},
					"grantedTokens(address)": {
						"notice": "The amount of OIL tokens earned, granted to be released during vesting period "
					},
					"lockTokens(uint72,uint24)": {
						"notice": "Lock the LP tokens for a specified period of Blocks.Can only be called before Staking Program ends.And the locking period can't last longer than the end of Staking Program block."
					},
					"oilerToken()": {
						"notice": "Oiler token that will be given as a reward"
					},
					"poolToken()": {
						"notice": "Uniswap pool that we accept LP tokens from"
					},
					"release()": {
						"notice": "Releases granted tokens"
					},
					"releasedTokens(address)": {
						"notice": "The amount of OIL tokens that were already released during vesting period"
					},
					"rewardPointsEarned(address)": {
						"notice": "\"Reward points\" each user earned (would be relative to totalRewardPoints to get the percentage)"
					},
					"setPoolToken(address,address)": {
						"notice": "Initialize poolToken when OIL<>USDC Uniswap pool is available"
					},
					"stakes(address)": {
						"notice": "Active stakes for each user"
					},
					"stakingFundAmount()": {
						"notice": "Amount of Staking Bonus Fund (500 000 OIL), Oiler funds must be here, approved and ready to be transferredFrom"
					},
					"stakingProgramEndsBlock()": {
						"notice": "Block when Staking Program ends          "
					},
					"totalRewardPoints()": {
						"notice": "Total \"reward points\" all users earned"
					},
					"unlockTokens()": {
						"notice": "Unlock the tokens and get the rewardThis can be called at any time, even after Staking Program end block"
					}
				},
				"notice": "Staking contract assumes there is a Staking Program going on until a specified Staking Program End Date. And there is an amount of Oiler tokens that is gonna be given away to incentivise participation in the Staking Program (called StakingFund).  During this Program - users commit to lock tokens for some period of time, earning RewardPoints (if they don't unlock prematurely). RewardPoints multiplier grows linearly with the locking period length (see the formula in calculateStakingRewardPoints() function)  After the end of the Staking Program - the amount of RewardPoints earned by each user is relatively compared to the total RewardPoints earned by all staking participants - and the OIL tokens from StakingFund are divided among them accordingly, by their RewardPoints proportions.",
				"version": 1
			}
		}
	}
}