{
	"mintable-token(copy)(copy)/mintable-token.sol": {
		"MintableToken": {
			"abi": [
				{
					"inputs": [
						{
							"internalType": "string",
							"name": "name",
							"type": "string"
						},
						{
							"internalType": "string",
							"name": "symbol",
							"type": "string"
						},
						{
							"internalType": "uint256",
							"name": "initialSupply",
							"type": "uint256"
						}
					],
					"stateMutability": "payable",
					"type": "constructor"
				},
				{
					"anonymous": false,
					"inputs": [
						{
							"indexed": true,
							"internalType": "address",
							"name": "owner",
							"type": "address"
						},
						{
							"indexed": true,
							"internalType": "address",
							"name": "spender",
							"type": "address"
						},
						{
							"indexed": false,
							"internalType": "uint256",
							"name": "value",
							"type": "uint256"
						}
					],
					"name": "Approval",
					"type": "event"
				},
				{
					"anonymous": false,
					"inputs": [
						{
							"indexed": true,
							"internalType": "address",
							"name": "previousOwner",
							"type": "address"
						},
						{
							"indexed": true,
							"internalType": "address",
							"name": "newOwner",
							"type": "address"
						}
					],
					"name": "OwnershipTransferred",
					"type": "event"
				},
				{
					"anonymous": false,
					"inputs": [
						{
							"indexed": true,
							"internalType": "address",
							"name": "from",
							"type": "address"
						},
						{
							"indexed": true,
							"internalType": "address",
							"name": "to",
							"type": "address"
						},
						{
							"indexed": false,
							"internalType": "uint256",
							"name": "value",
							"type": "uint256"
						}
					],
					"name": "Transfer",
					"type": "event"
				},
				{
					"inputs": [
						{
							"internalType": "address",
							"name": "owner",
							"type": "address"
						},
						{
							"internalType": "address",
							"name": "spender",
							"type": "address"
						}
					],
					"name": "allowance",
					"outputs": [
						{
							"internalType": "uint256",
							"name": "",
							"type": "uint256"
						}
					],
					"stateMutability": "view",
					"type": "function"
				},
				{
					"inputs": [
						{
							"internalType": "address",
							"name": "spender",
							"type": "address"
						},
						{
							"internalType": "uint256",
							"name": "amount",
							"type": "uint256"
						}
					],
					"name": "approve",
					"outputs": [
						{
							"internalType": "bool",
							"name": "",
							"type": "bool"
						}
					],
					"stateMutability": "nonpayable",
					"type": "function"
				},
				{
					"inputs": [
						{
							"internalType": "address",
							"name": "account",
							"type": "address"
						}
					],
					"name": "balanceOf",
					"outputs": [
						{
							"internalType": "uint256",
							"name": "",
							"type": "uint256"
						}
					],
					"stateMutability": "view",
					"type": "function"
				},
				{
					"inputs": [],
					"name": "decimals",
					"outputs": [
						{
							"internalType": "uint8",
							"name": "",
							"type": "uint8"
						}
					],
					"stateMutability": "view",
					"type": "function"
				},
				{
					"inputs": [
						{
							"internalType": "address",
							"name": "spender",
							"type": "address"
						},
						{
							"internalType": "uint256",
							"name": "subtractedValue",
							"type": "uint256"
						}
					],
					"name": "decreaseAllowance",
					"outputs": [
						{
							"internalType": "bool",
							"name": "",
							"type": "bool"
						}
					],
					"stateMutability": "nonpayable",
					"type": "function"
				},
				{
					"inputs": [
						{
							"internalType": "address",
							"name": "spender",
							"type": "address"
						},
						{
							"internalType": "uint256",
							"name": "addedValue",
							"type": "uint256"
						}
					],
					"name": "increaseAllowance",
					"outputs": [
						{
							"internalType": "bool",
							"name": "",
							"type": "bool"
						}
					],
					"stateMutability": "nonpayable",
					"type": "function"
				},
				{
					"inputs": [
						{
							"internalType": "uint256",
							"name": "amount",
							"type": "uint256"
						},
						{
							"internalType": "address",
							"name": "to",
							"type": "address"
						}
					],
					"name": "mint",
					"outputs": [],
					"stateMutability": "nonpayable",
					"type": "function"
				},
				{
					"inputs": [],
					"name": "name",
					"outputs": [
						{
							"internalType": "string",
							"name": "",
							"type": "string"
						}
					],
					"stateMutability": "view",
					"type": "function"
				},
				{
					"inputs": [],
					"name": "owner",
					"outputs": [
						{
							"internalType": "address",
							"name": "",
							"type": "address"
						}
					],
					"stateMutability": "view",
					"type": "function"
				},
				{
					"inputs": [],
					"name": "renounceOwnership",
					"outputs": [],
					"stateMutability": "nonpayable",
					"type": "function"
				},
				{
					"inputs": [],
					"name": "symbol",
					"outputs": [
						{
							"internalType": "string",
							"name": "",
							"type": "string"
						}
					],
					"stateMutability": "view",
					"type": "function"
				},
				{
					"inputs": [],
					"name": "totalSupply",
					"outputs": [
						{
							"internalType": "uint256",
							"name": "",
							"type": "uint256"
						}
					],
					"stateMutability": "view",
					"type": "function"
				},
				{
					"inputs": [
						{
							"internalType": "address",
							"name": "to",
							"type": "address"
						},
						{
							"internalType": "uint256",
							"name": "amount",
							"type": "uint256"
						}
					],
					"name": "transfer",
					"outputs": [
						{
							"internalType": "bool",
							"name": "",
							"type": "bool"
						}
					],
					"stateMutability": "nonpayable",
					"type": "function"
				},
				{
					"inputs": [
						{
							"internalType": "address",
							"name": "from",
							"type": "address"
						},
						{
							"internalType": "address",
							"name": "to",
							"type": "address"
						},
						{
							"internalType": "uint256",
							"name": "amount",
							"type": "uint256"
						}
					],
					"name": "transferFrom",
					"outputs": [
						{
							"internalType": "bool",
							"name": "",
							"type": "bool"
						}
					],
					"stateMutability": "nonpayable",
					"type": "function"
				},
				{
					"inputs": [
						{
							"internalType": "address",
							"name": "newOwner",
							"type": "address"
						}
					],
					"name": "transferOwnership",
					"outputs": [],
					"stateMutability": "nonpayable",
					"type": "function"
				}
			],
			"devdoc": {
				"author": "Breakthrough Labs Inc.",
				"custom:address": "5",
				"custom:default-precision": "18",
				"custom:simple-description": "Token that allows the owner to mint as many tokens as desired.",
				"custom:version": "1.0.7",
				"details": "ERC20 token with the following features:  - Premint your initial supply.  - Mint as many tokens as you want with no cap.  - Only the contract owner can mint new tokens.",
				"events": {
					"Approval(address,address,uint256)": {
						"details": "Emitted when the allowance of a `spender` for an `owner` is set by a call to {approve}. `value` is the new allowance."
					},
					"Transfer(address,address,uint256)": {
						"details": "Emitted when `value` tokens are moved from one account (`from`) to another (`to`). Note that `value` may be zero."
					}
				},
				"kind": "dev",
				"methods": {
					"allowance(address,address)": {
						"details": "See {IERC20-allowance}."
					},
					"approve(address,uint256)": {
						"details": "See {IERC20-approve}. NOTE: If `amount` is the maximum `uint256`, the allowance is not updated on `transferFrom`. This is semantically equivalent to an infinite approval. Requirements: - `spender` cannot be the zero address."
					},
					"balanceOf(address)": {
						"details": "See {IERC20-balanceOf}."
					},
					"constructor": {
						"params": {
							"initialSupply": "Initial Supply",
							"name": "Token Name",
							"symbol": "Token Symbol"
						}
					},
					"decimals()": {
						"details": "Returns the number of decimals used to get its user representation. For example, if `decimals` equals `2`, a balance of `505` tokens should be displayed to a user as `5.05` (`505 / 10 ** 2`). Tokens usually opt for a value of 18, imitating the relationship between Ether and Wei. This is the value {ERC20} uses, unless this function is overridden; NOTE: This information is only used for _display_ purposes: it in no way affects any of the arithmetic of the contract, including {IERC20-balanceOf} and {IERC20-transfer}."
					},
					"decreaseAllowance(address,uint256)": {
						"details": "Atomically decreases the allowance granted to `spender` by the caller. This is an alternative to {approve} that can be used as a mitigation for problems described in {IERC20-approve}. Emits an {Approval} event indicating the updated allowance. Requirements: - `spender` cannot be the zero address. - `spender` must have allowance for the caller of at least `subtractedValue`."
					},
					"increaseAllowance(address,uint256)": {
						"details": "Atomically increases the allowance granted to `spender` by the caller. This is an alternative to {approve} that can be used as a mitigation for problems described in {IERC20-approve}. Emits an {Approval} event indicating the updated allowance. Requirements: - `spender` cannot be the zero address."
					},
					"mint(uint256,address)": {
						"details": "Creates `amount` tokens and assigns them to `to`, increasing the total supply. Only accessible by the contract owner."
					},
					"name()": {
						"details": "Returns the name of the token."
					},
					"owner()": {
						"details": "Returns the address of the current owner."
					},
					"renounceOwnership()": {
						"details": "Leaves the contract without owner. It will not be possible to call `onlyOwner` functions anymore. Can only be called by the current owner. NOTE: Renouncing ownership will leave the contract without an owner, thereby removing any functionality that is only available to the owner."
					},
					"symbol()": {
						"details": "Returns the symbol of the token, usually a shorter version of the name."
					},
					"totalSupply()": {
						"details": "See {IERC20-totalSupply}."
					},
					"transfer(address,uint256)": {
						"details": "See {IERC20-transfer}. Requirements: - `to` cannot be the zero address. - the caller must have a balance of at least `amount`."
					},
					"transferFrom(address,address,uint256)": {
						"details": "See {IERC20-transferFrom}. Emits an {Approval} event indicating the updated allowance. This is not required by the EIP. See the note at the beginning of {ERC20}. NOTE: Does not update the allowance if the current allowance is the maximum `uint256`. Requirements: - `from` and `to` cannot be the zero address. - `from` must have a balance of at least `amount`. - the caller must have allowance for ``from``'s tokens of at least `amount`."
					},
					"transferOwnership(address)": {
						"details": "Transfers ownership of the contract to a new account (`newOwner`). Can only be called by the current owner."
					}
				},
				"title": "Mintable Token",
				"version": 1
			},
			"evm": {
				"assembly": "    /* \"mintable-token(copy)(copy)/mintable-token.sol\":1946:2556  contract MintableToken is ERC20, Ownable {... */\n  mstore(0x40, 0x80)\n    /* \"mintable-token(copy)(copy)/mintable-token.sol\":2116:2300  constructor(... */\n  mload(0x40)\n  sub(codesize, bytecodeSize)\n  dup1\n  bytecodeSize\n  dup4\n  codecopy\n  dup2\n  add\n  0x40\n  dup2\n  swap1\n  mstore\n  tag_1\n  swap2\n  tag_2\n  jump\t// in\ntag_1:\n    /* \"mintable-token(copy)(copy)/mintable-token.sol\":2237:2241  name */\n  dup3\n    /* \"mintable-token(copy)(copy)/mintable-token.sol\":2243:2249  symbol */\n  dup3\n    /* \"mintable-token/@openzeppelin/contracts/token/ERC20/ERC20.sol\":3319:3324  _name */\n  0x03\n    /* \"mintable-token/@openzeppelin/contracts/token/ERC20/ERC20.sol\":3319:3332  _name = name_ */\n  tag_7\n    /* \"mintable-token(copy)(copy)/mintable-token.sol\":2237:2241  name */\n  dup4\n    /* \"mintable-token/@openzeppelin/contracts/token/ERC20/ERC20.sol\":3319:3324  _name */\n  dup3\n    /* \"mintable-token/@openzeppelin/contracts/token/ERC20/ERC20.sol\":3319:3332  _name = name_ */\n  tag_8\n  jump\t// in\ntag_7:\n  pop\n    /* \"mintable-token/@openzeppelin/contracts/token/ERC20/ERC20.sol\":3342:3349  _symbol */\n  0x04\n    /* \"mintable-token/@openzeppelin/contracts/token/ERC20/ERC20.sol\":3342:3359  _symbol = symbol_ */\n  tag_9\n    /* \"mintable-token/@openzeppelin/contracts/token/ERC20/ERC20.sol\":3352:3359  symbol_ */\n  dup3\n    /* \"mintable-token/@openzeppelin/contracts/token/ERC20/ERC20.sol\":3342:3349  _symbol */\n  dup3\n    /* \"mintable-token/@openzeppelin/contracts/token/ERC20/ERC20.sol\":3342:3359  _symbol = symbol_ */\n  tag_8\n  jump\t// in\ntag_9:\n  pop\n    /* \"mintable-token/@openzeppelin/contracts/token/ERC20/ERC20.sol\":3253:3366  constructor(string memory name_, string memory symbol_) {... */\n  pop\n  pop\n    /* \"mintable-token/@openzeppelin/contracts/access/Ownable.sol\":2211:2243  _transferOwnership(_msgSender()) */\n  tag_11\n    /* \"mintable-token/@openzeppelin/contracts/access/Ownable.sol\":2230:2242  _msgSender() */\n  tag_12\n    /* \"mintable-token/@openzeppelin/contracts/access/Ownable.sol\":2230:2240  _msgSender */\n  shl(0x20, tag_13)\n    /* \"mintable-token/@openzeppelin/contracts/access/Ownable.sol\":2230:2242  _msgSender() */\n  0x20\n  shr\n  jump\t// in\ntag_12:\n    /* \"mintable-token/@openzeppelin/contracts/access/Ownable.sol\":2211:2229  _transferOwnership */\n  tag_14\n    /* \"mintable-token/@openzeppelin/contracts/access/Ownable.sol\":2211:2243  _transferOwnership(_msgSender()) */\n  jump\t// in\ntag_11:\n    /* \"mintable-token(copy)(copy)/mintable-token.sol\":2261:2293  _mint(msg.sender, initialSupply) */\n  tag_16\n    /* \"mintable-token(copy)(copy)/mintable-token.sol\":2267:2277  msg.sender */\n  caller\n    /* \"mintable-token(copy)(copy)/mintable-token.sol\":2279:2292  initialSupply */\n  dup3\n    /* \"mintable-token(copy)(copy)/mintable-token.sol\":2261:2266  _mint */\n  tag_17\n    /* \"mintable-token(copy)(copy)/mintable-token.sol\":2261:2293  _mint(msg.sender, initialSupply) */\n  jump\t// in\ntag_16:\n    /* \"mintable-token(copy)(copy)/mintable-token.sol\":2116:2300  constructor(... */\n  pop\n  pop\n  pop\n    /* \"mintable-token(copy)(copy)/mintable-token.sol\":1946:2556  contract MintableToken is ERC20, Ownable {... */\n  jump(tag_42)\n    /* \"mintable-token/@openzeppelin/contracts/utils/Context.sol\":1915:2011  function _msgSender() internal view virtual returns (address) {... */\ntag_13:\n    /* \"mintable-token/@openzeppelin/contracts/utils/Context.sol\":1994:2004  msg.sender */\n  caller\n  swap1\n    /* \"mintable-token/@openzeppelin/contracts/utils/Context.sol\":1915:2011  function _msgSender() internal view virtual returns (address) {... */\n  jump\t// out\n    /* \"mintable-token/@openzeppelin/contracts/access/Ownable.sol\":3708:3895  function _transferOwnership(address newOwner) internal virtual {... */\ntag_14:\n    /* \"mintable-token/@openzeppelin/contracts/access/Ownable.sol\":3800:3806  _owner */\n  0x05\n  dup1\n  sload\n  sub(shl(0xa0, 0x01), 0x01)\n    /* \"mintable-token/@openzeppelin/contracts/access/Ownable.sol\":3816:3833  _owner = newOwner */\n  dup4\n  dup2\n  and\n  not(sub(shl(0xa0, 0x01), 0x01))\n  dup4\n  and\n  dup2\n  or\n  swap1\n  swap4\n  sstore\n    /* \"mintable-token/@openzeppelin/contracts/access/Ownable.sol\":3848:3888  OwnershipTransferred(oldOwner, newOwner) */\n  mload(0x40)\n    /* \"mintable-token/@openzeppelin/contracts/access/Ownable.sol\":3800:3806  _owner */\n  swap2\n  and\n  swap2\n    /* \"mintable-token/@openzeppelin/contracts/access/Ownable.sol\":3816:3833  _owner = newOwner */\n  swap1\n    /* \"mintable-token/@openzeppelin/contracts/access/Ownable.sol\":3800:3806  _owner */\n  dup3\n  swap1\n    /* \"mintable-token/@openzeppelin/contracts/access/Ownable.sol\":3848:3888  OwnershipTransferred(oldOwner, newOwner) */\n  0x8be0079c531659141344cd1fd0a4f28419497f9722a3daafe3b4186f6b6457e0\n  swap1\n    /* \"mintable-token/@openzeppelin/contracts/access/Ownable.sol\":3781:3797  address oldOwner */\n  0x00\n  swap1\n    /* \"mintable-token/@openzeppelin/contracts/access/Ownable.sol\":3848:3888  OwnershipTransferred(oldOwner, newOwner) */\n  log3\n    /* \"mintable-token/@openzeppelin/contracts/access/Ownable.sol\":3771:3895  {... */\n  pop\n    /* \"mintable-token/@openzeppelin/contracts/access/Ownable.sol\":3708:3895  function _transferOwnership(address newOwner) internal virtual {... */\n  pop\n  jump\t// out\n    /* \"mintable-token/@openzeppelin/contracts/token/ERC20/ERC20.sol\":9677:10066  function _mint(address account, uint256 amount) internal virtual {... */\ntag_17:\n  sub(shl(0xa0, 0x01), 0x01)\n    /* \"mintable-token/@openzeppelin/contracts/token/ERC20/ERC20.sol\":9760:9781  account != address(0) */\n  dup3\n  and\n    /* \"mintable-token/@openzeppelin/contracts/token/ERC20/ERC20.sol\":9752:9817  require(account != address(0), \"ERC20: mint to the zero address\") */\n  tag_22\n  jumpi\n  mload(0x40)\n  shl(0xe5, 0x461bcd)\n  dup2\n  mstore\n    /* \"#utility.yul\":4319:4321   */\n  0x20\n    /* \"mintable-token/@openzeppelin/contracts/token/ERC20/ERC20.sol\":9752:9817  require(account != address(0), \"ERC20: mint to the zero address\") */\n  0x04\n  dup3\n  add\n    /* \"#utility.yul\":4301:4322   */\n  mstore\n    /* \"#utility.yul\":4358:4360   */\n  0x1f\n    /* \"#utility.yul\":4338:4356   */\n  0x24\n  dup3\n  add\n    /* \"#utility.yul\":4331:4361   */\n  mstore\n    /* \"#utility.yul\":4397:4430   */\n  0x45524332303a206d696e7420746f20746865207a65726f206164647265737300\n    /* \"#utility.yul\":4377:4395   */\n  0x44\n  dup3\n  add\n    /* \"#utility.yul\":4370:4431   */\n  mstore\n    /* \"#utility.yul\":4448:4466   */\n  0x64\n  add\n    /* \"mintable-token/@openzeppelin/contracts/token/ERC20/ERC20.sol\":9752:9817  require(account != address(0), \"ERC20: mint to the zero address\") */\n  mload(0x40)\n  dup1\n  swap2\n  sub\n  swap1\n  revert\ntag_22:\n    /* \"mintable-token/@openzeppelin/contracts/token/ERC20/ERC20.sol\":9904:9910  amount */\n  dup1\n    /* \"mintable-token/@openzeppelin/contracts/token/ERC20/ERC20.sol\":9888:9900  _totalSupply */\n  0x02\n  0x00\n    /* \"mintable-token/@openzeppelin/contracts/token/ERC20/ERC20.sol\":9888:9910  _totalSupply += amount */\n  dup3\n  dup3\n  sload\n  tag_27\n  swap2\n  swap1\n  tag_28\n  jump\t// in\ntag_27:\n  swap1\n  swap2\n  sstore\n  pop\n  pop\n  sub(shl(0xa0, 0x01), 0x01)\n    /* \"mintable-token/@openzeppelin/contracts/token/ERC20/ERC20.sol\":9920:9938  _balances[account] */\n  dup3\n  and\n    /* \"mintable-token/@openzeppelin/contracts/token/ERC20/ERC20.sol\":9920:9929  _balances */\n  0x00\n    /* \"mintable-token/@openzeppelin/contracts/token/ERC20/ERC20.sol\":9920:9938  _balances[account] */\n  swap1\n  dup2\n  mstore\n  0x20\n  dup2\n  swap1\n  mstore\n  0x40\n  dup2\n  keccak256\n    /* \"mintable-token/@openzeppelin/contracts/token/ERC20/ERC20.sol\":9920:9948  _balances[account] += amount */\n  dup1\n  sload\n    /* \"mintable-token/@openzeppelin/contracts/token/ERC20/ERC20.sol\":9942:9948  amount */\n  dup4\n  swap3\n    /* \"mintable-token/@openzeppelin/contracts/token/ERC20/ERC20.sol\":9920:9929  _balances */\n  swap1\n    /* \"mintable-token/@openzeppelin/contracts/token/ERC20/ERC20.sol\":9920:9948  _balances[account] += amount */\n  tag_29\n  swap1\n    /* \"mintable-token/@openzeppelin/contracts/token/ERC20/ERC20.sol\":9942:9948  amount */\n  dup5\n  swap1\n    /* \"mintable-token/@openzeppelin/contracts/token/ERC20/ERC20.sol\":9920:9948  _balances[account] += amount */\n  tag_28\n  jump\t// in\ntag_29:\n  swap1\n  swap2\n  sstore\n  pop\n  pop\n    /* \"mintable-token/@openzeppelin/contracts/token/ERC20/ERC20.sol\":9963:10000  Transfer(address(0), account, amount) */\n  mload(0x40)\n    /* \"#utility.yul\":4850:4875   */\n  dup2\n  dup2\n  mstore\n  sub(shl(0xa0, 0x01), 0x01)\n    /* \"mintable-token/@openzeppelin/contracts/token/ERC20/ERC20.sol\":9963:10000  Transfer(address(0), account, amount) */\n  dup4\n  and\n  swap1\n    /* \"mintable-token/@openzeppelin/contracts/token/ERC20/ERC20.sol\":9980:9981  0 */\n  0x00\n  swap1\n    /* \"mintable-token/@openzeppelin/contracts/token/ERC20/ERC20.sol\":9963:10000  Transfer(address(0), account, amount) */\n  0xddf252ad1be2c89b69c2b068fc378daa952ba7f163c4a11628f55a4df523b3ef\n  swap1\n    /* \"#utility.yul\":4838:4840   */\n  0x20\n    /* \"#utility.yul\":4823:4841   */\n  add\n    /* \"mintable-token/@openzeppelin/contracts/token/ERC20/ERC20.sol\":9963:10000  Transfer(address(0), account, amount) */\n  mload(0x40)\n  dup1\n  swap2\n  sub\n  swap1\n  log3\n    /* \"mintable-token/@openzeppelin/contracts/token/ERC20/ERC20.sol\":9677:10066  function _mint(address account, uint256 amount) internal virtual {... */\n  pop\n  pop\n  jump\t// out\n    /* \"mintable-token/@openzeppelin/contracts/token/ERC20/ERC20.sol\":13061:13182  function _beforeTokenTransfer(... */\ntag_26:\n  pop\n  pop\n  pop\n  jump\t// out\n    /* \"#utility.yul\":14:141   */\ntag_36:\n    /* \"#utility.yul\":75:85   */\n  0x4e487b71\n    /* \"#utility.yul\":70:73   */\n  0xe0\n    /* \"#utility.yul\":66:86   */\n  shl\n    /* \"#utility.yul\":63:64   */\n  0x00\n    /* \"#utility.yul\":56:87   */\n  mstore\n    /* \"#utility.yul\":106:110   */\n  0x41\n    /* \"#utility.yul\":103:104   */\n  0x04\n    /* \"#utility.yul\":96:111   */\n  mstore\n    /* \"#utility.yul\":130:134   */\n  0x24\n    /* \"#utility.yul\":127:128   */\n  0x00\n    /* \"#utility.yul\":120:135   */\n  revert\n    /* \"#utility.yul\":146:980   */\ntag_37:\n    /* \"#utility.yul\":200:205   */\n  0x00\n    /* \"#utility.yul\":253:256   */\n  dup3\n    /* \"#utility.yul\":246:250   */\n  0x1f\n    /* \"#utility.yul\":238:244   */\n  dup4\n    /* \"#utility.yul\":234:251   */\n  add\n    /* \"#utility.yul\":230:257   */\n  slt\n    /* \"#utility.yul\":220:275   */\n  tag_45\n  jumpi\n    /* \"#utility.yul\":271:272   */\n  0x00\n    /* \"#utility.yul\":268:269   */\n  dup1\n    /* \"#utility.yul\":261:273   */\n  revert\n    /* \"#utility.yul\":220:275   */\ntag_45:\n    /* \"#utility.yul\":298:311   */\n  dup2\n  mload\n  sub(shl(0x40, 0x01), 0x01)\n    /* \"#utility.yul\":323:353   */\n  dup2\n  gt\n    /* \"#utility.yul\":320:376   */\n  iszero\n  tag_47\n  jumpi\n    /* \"#utility.yul\":356:374   */\n  tag_47\n  tag_36\n  jump\t// in\ntag_47:\n    /* \"#utility.yul\":405:407   */\n  0x40\n    /* \"#utility.yul\":399:408   */\n  mload\n    /* \"#utility.yul\":497:499   */\n  0x1f\n    /* \"#utility.yul\":459:476   */\n  dup3\n  add\n  not(0x1f)\n    /* \"#utility.yul\":455:486   */\n  swap1\n  dup2\n  and\n    /* \"#utility.yul\":488:490   */\n  0x3f\n    /* \"#utility.yul\":451:491   */\n  add\n    /* \"#utility.yul\":447:501   */\n  and\n    /* \"#utility.yul\":435:502   */\n  dup2\n  add\n  sub(shl(0x40, 0x01), 0x01)\n    /* \"#utility.yul\":517:551   */\n  dup2\n  gt\n    /* \"#utility.yul\":553:575   */\n  dup3\n  dup3\n  lt\n    /* \"#utility.yul\":514:576   */\n  or\n    /* \"#utility.yul\":511:599   */\n  iszero\n  tag_49\n  jumpi\n    /* \"#utility.yul\":579:597   */\n  tag_49\n  tag_36\n  jump\t// in\ntag_49:\n    /* \"#utility.yul\":615:617   */\n  0x40\n    /* \"#utility.yul\":608:630   */\n  mstore\n    /* \"#utility.yul\":639:661   */\n  dup2\n  dup2\n  mstore\n    /* \"#utility.yul\":680:699   */\n  dup4\n  dup3\n  add\n    /* \"#utility.yul\":701:705   */\n  0x20\n    /* \"#utility.yul\":676:706   */\n  add\n    /* \"#utility.yul\":673:712   */\n  dup6\n  lt\n    /* \"#utility.yul\":670:729   */\n  iszero\n  tag_50\n  jumpi\n    /* \"#utility.yul\":725:726   */\n  0x00\n    /* \"#utility.yul\":722:723   */\n  dup1\n    /* \"#utility.yul\":715:727   */\n  revert\n    /* \"#utility.yul\":670:729   */\ntag_50:\n    /* \"#utility.yul\":747:748   */\n  0x00\n    /* \"#utility.yul\":757:900   */\ntag_51:\n    /* \"#utility.yul\":771:777   */\n  dup3\n    /* \"#utility.yul\":768:769   */\n  dup2\n    /* \"#utility.yul\":765:778   */\n  lt\n    /* \"#utility.yul\":757:900   */\n  iszero\n  tag_53\n  jumpi\n    /* \"#utility.yul\":883:887   */\n  0x20\n    /* \"#utility.yul\":867:881   */\n  dup2\n  dup7\n  add\n    /* \"#utility.yul\":863:888   */\n  dup2\n  add\n    /* \"#utility.yul\":857:889   */\n  mload\n    /* \"#utility.yul\":834:848   */\n  dup4\n  dup4\n  add\n    /* \"#utility.yul\":830:855   */\n  dup3\n  add\n    /* \"#utility.yul\":823:890   */\n  mstore\n    /* \"#utility.yul\":786:798   */\n  add\n    /* \"#utility.yul\":757:900   */\n  jump(tag_51)\ntag_53:\n  pop\n    /* \"#utility.yul\":948:949   */\n  0x00\n    /* \"#utility.yul\":920:939   */\n  swap2\n  dup2\n  add\n    /* \"#utility.yul\":941:945   */\n  0x20\n    /* \"#utility.yul\":916:946   */\n  add\n    /* \"#utility.yul\":909:950   */\n  swap2\n  swap1\n  swap2\n  mstore\n    /* \"#utility.yul\":924:930   */\n  swap4\n    /* \"#utility.yul\":146:980   */\n  swap3\n  pop\n  pop\n  pop\n  jump\t// out\n    /* \"#utility.yul\":985:1603   */\ntag_2:\n    /* \"#utility.yul\":1093:1099   */\n  0x00\n    /* \"#utility.yul\":1101:1107   */\n  dup1\n    /* \"#utility.yul\":1109:1115   */\n  0x00\n    /* \"#utility.yul\":1162:1164   */\n  0x60\n    /* \"#utility.yul\":1150:1159   */\n  dup5\n    /* \"#utility.yul\":1141:1148   */\n  dup7\n    /* \"#utility.yul\":1137:1160   */\n  sub\n    /* \"#utility.yul\":1133:1165   */\n  slt\n    /* \"#utility.yul\":1130:1182   */\n  iszero\n  tag_55\n  jumpi\n    /* \"#utility.yul\":1178:1179   */\n  0x00\n    /* \"#utility.yul\":1175:1176   */\n  dup1\n    /* \"#utility.yul\":1168:1180   */\n  revert\n    /* \"#utility.yul\":1130:1182   */\ntag_55:\n    /* \"#utility.yul\":1205:1221   */\n  dup4\n  mload\n  sub(shl(0x40, 0x01), 0x01)\n    /* \"#utility.yul\":1233:1263   */\n  dup2\n  gt\n    /* \"#utility.yul\":1230:1280   */\n  iszero\n  tag_56\n  jumpi\n    /* \"#utility.yul\":1276:1277   */\n  0x00\n    /* \"#utility.yul\":1273:1274   */\n  dup1\n    /* \"#utility.yul\":1266:1278   */\n  revert\n    /* \"#utility.yul\":1230:1280   */\ntag_56:\n    /* \"#utility.yul\":1299:1360   */\n  tag_57\n    /* \"#utility.yul\":1352:1359   */\n  dup7\n    /* \"#utility.yul\":1343:1349   */\n  dup3\n    /* \"#utility.yul\":1332:1341   */\n  dup8\n    /* \"#utility.yul\":1328:1350   */\n  add\n    /* \"#utility.yul\":1299:1360   */\n  tag_37\n  jump\t// in\ntag_57:\n    /* \"#utility.yul\":1406:1408   */\n  0x20\n    /* \"#utility.yul\":1391:1409   */\n  dup7\n  add\n    /* \"#utility.yul\":1385:1410   */\n  mload\n    /* \"#utility.yul\":1289:1360   */\n  swap1\n  swap5\n  pop\n    /* \"#utility.yul\":1385:1410   */\n  swap1\n  pop\n  sub(shl(0x40, 0x01), 0x01)\n    /* \"#utility.yul\":1422:1454   */\n  dup2\n  gt\n    /* \"#utility.yul\":1419:1471   */\n  iszero\n  tag_58\n  jumpi\n    /* \"#utility.yul\":1467:1468   */\n  0x00\n    /* \"#utility.yul\":1464:1465   */\n  dup1\n    /* \"#utility.yul\":1457:1469   */\n  revert\n    /* \"#utility.yul\":1419:1471   */\ntag_58:\n    /* \"#utility.yul\":1490:1553   */\n  tag_59\n    /* \"#utility.yul\":1545:1552   */\n  dup7\n    /* \"#utility.yul\":1534:1542   */\n  dup3\n    /* \"#utility.yul\":1523:1532   */\n  dup8\n    /* \"#utility.yul\":1519:1543   */\n  add\n    /* \"#utility.yul\":1490:1553   */\n  tag_37\n  jump\t// in\ntag_59:\n    /* \"#utility.yul\":1480:1553   */\n  swap3\n  pop\n  pop\n    /* \"#utility.yul\":1593:1595   */\n  0x40\n    /* \"#utility.yul\":1582:1591   */\n  dup5\n    /* \"#utility.yul\":1578:1596   */\n  add\n    /* \"#utility.yul\":1572:1597   */\n  mload\n    /* \"#utility.yul\":1562:1597   */\n  swap1\n  pop\n    /* \"#utility.yul\":985:1603   */\n  swap3\n  pop\n  swap3\n  pop\n  swap3\n  jump\t// out\n    /* \"#utility.yul\":1608:1988   */\ntag_38:\n    /* \"#utility.yul\":1687:1688   */\n  0x01\n    /* \"#utility.yul\":1683:1695   */\n  dup2\n  dup2\n  shr\n  swap1\n    /* \"#utility.yul\":1730:1742   */\n  dup3\n  and\n  dup1\n    /* \"#utility.yul\":1751:1812   */\n  tag_61\n  jumpi\n    /* \"#utility.yul\":1805:1809   */\n  0x7f\n    /* \"#utility.yul\":1797:1803   */\n  dup3\n    /* \"#utility.yul\":1793:1810   */\n  and\n    /* \"#utility.yul\":1783:1810   */\n  swap2\n  pop\n    /* \"#utility.yul\":1751:1812   */\ntag_61:\n    /* \"#utility.yul\":1858:1860   */\n  0x20\n    /* \"#utility.yul\":1850:1856   */\n  dup3\n    /* \"#utility.yul\":1847:1861   */\n  lt\n    /* \"#utility.yul\":1827:1845   */\n  dup2\n    /* \"#utility.yul\":1824:1862   */\n  sub\n    /* \"#utility.yul\":1821:1982   */\n  tag_62\n  jumpi\n    /* \"#utility.yul\":1904:1914   */\n  0x4e487b71\n    /* \"#utility.yul\":1899:1902   */\n  0xe0\n    /* \"#utility.yul\":1895:1915   */\n  shl\n    /* \"#utility.yul\":1892:1893   */\n  0x00\n    /* \"#utility.yul\":1885:1916   */\n  mstore\n    /* \"#utility.yul\":1939:1943   */\n  0x22\n    /* \"#utility.yul\":1936:1937   */\n  0x04\n    /* \"#utility.yul\":1929:1944   */\n  mstore\n    /* \"#utility.yul\":1967:1971   */\n  0x24\n    /* \"#utility.yul\":1964:1965   */\n  0x00\n    /* \"#utility.yul\":1957:1972   */\n  revert\n    /* \"#utility.yul\":1821:1982   */\ntag_62:\n  pop\n    /* \"#utility.yul\":1608:1988   */\n  swap2\n  swap1\n  pop\n  jump\t// out\n    /* \"#utility.yul\":2119:2637   */\ntag_40:\n    /* \"#utility.yul\":2221:2223   */\n  0x1f\n    /* \"#utility.yul\":2216:2219   */\n  dup3\n    /* \"#utility.yul\":2213:2224   */\n  gt\n    /* \"#utility.yul\":2210:2631   */\n  iszero\n  tag_26\n  jumpi\n    /* \"#utility.yul\":2257:2262   */\n  dup1\n    /* \"#utility.yul\":2254:2255   */\n  0x00\n    /* \"#utility.yul\":2247:2263   */\n  mstore\n    /* \"#utility.yul\":2301:2305   */\n  0x20\n    /* \"#utility.yul\":2298:2299   */\n  0x00\n    /* \"#utility.yul\":2288:2306   */\n  keccak256\n    /* \"#utility.yul\":2371:2373   */\n  0x1f\n    /* \"#utility.yul\":2359:2369   */\n  dup5\n    /* \"#utility.yul\":2355:2374   */\n  add\n    /* \"#utility.yul\":2352:2353   */\n  0x05\n    /* \"#utility.yul\":2348:2375   */\n  shr\n    /* \"#utility.yul\":2342:2346   */\n  dup2\n    /* \"#utility.yul\":2338:2376   */\n  add\n    /* \"#utility.yul\":2407:2411   */\n  0x20\n    /* \"#utility.yul\":2395:2405   */\n  dup6\n    /* \"#utility.yul\":2392:2412   */\n  lt\n    /* \"#utility.yul\":2389:2436   */\n  iszero\n  tag_66\n  jumpi\n  pop\n    /* \"#utility.yul\":2430:2434   */\n  dup1\n    /* \"#utility.yul\":2389:2436   */\ntag_66:\n    /* \"#utility.yul\":2485:2487   */\n  0x1f\n    /* \"#utility.yul\":2480:2483   */\n  dup5\n    /* \"#utility.yul\":2476:2488   */\n  add\n    /* \"#utility.yul\":2473:2474   */\n  0x05\n    /* \"#utility.yul\":2469:2489   */\n  shr\n    /* \"#utility.yul\":2463:2467   */\n  dup3\n    /* \"#utility.yul\":2459:2490   */\n  add\n    /* \"#utility.yul\":2449:2490   */\n  swap2\n  pop\n    /* \"#utility.yul\":2540:2621   */\ntag_67:\n    /* \"#utility.yul\":2558:2560   */\n  dup2\n    /* \"#utility.yul\":2551:2556   */\n  dup2\n    /* \"#utility.yul\":2548:2561   */\n  lt\n    /* \"#utility.yul\":2540:2621   */\n  iszero\n  tag_69\n  jumpi\n    /* \"#utility.yul\":2617:2618   */\n  0x00\n    /* \"#utility.yul\":2603:2619   */\n  dup2\n  sstore\n    /* \"#utility.yul\":2584:2585   */\n  0x01\n    /* \"#utility.yul\":2573:2586   */\n  add\n    /* \"#utility.yul\":2540:2621   */\n  jump(tag_67)\ntag_69:\n    /* \"#utility.yul\":2544:2547   */\n  pop\n  pop\n    /* \"#utility.yul\":2119:2637   */\n  pop\n  pop\n  pop\n  jump\t// out\n    /* \"#utility.yul\":2813:4112   */\ntag_8:\n    /* \"#utility.yul\":2933:2943   */\n  dup2\n  mload\n  sub(shl(0x40, 0x01), 0x01)\n    /* \"#utility.yul\":2955:2985   */\n  dup2\n  gt\n    /* \"#utility.yul\":2952:3008   */\n  iszero\n  tag_73\n  jumpi\n    /* \"#utility.yul\":2988:3006   */\n  tag_73\n  tag_36\n  jump\t// in\ntag_73:\n    /* \"#utility.yul\":3017:3114   */\n  tag_74\n    /* \"#utility.yul\":3107:3113   */\n  dup2\n    /* \"#utility.yul\":3067:3105   */\n  tag_75\n    /* \"#utility.yul\":3099:3103   */\n  dup5\n    /* \"#utility.yul\":3093:3104   */\n  sload\n    /* \"#utility.yul\":3067:3105   */\n  tag_38\n  jump\t// in\ntag_75:\n    /* \"#utility.yul\":3061:3065   */\n  dup5\n    /* \"#utility.yul\":3017:3114   */\n  tag_40\n  jump\t// in\ntag_74:\n    /* \"#utility.yul\":3163:3167   */\n  0x20\n    /* \"#utility.yul\":3194:3196   */\n  0x1f\n    /* \"#utility.yul\":3183:3197   */\n  dup3\n  gt\n    /* \"#utility.yul\":3211:3212   */\n  0x01\n    /* \"#utility.yul\":3206:3855   */\n  dup2\n  eq\n  tag_77\n  jumpi\n    /* \"#utility.yul\":3899:3900   */\n  0x00\n    /* \"#utility.yul\":3916:3922   */\n  dup4\n    /* \"#utility.yul\":3913:4002   */\n  iszero\n  tag_78\n  jumpi\n  pop\n    /* \"#utility.yul\":3968:3987   */\n  dup5\n  dup3\n  add\n    /* \"#utility.yul\":3962:3988   */\n  mload\n    /* \"#utility.yul\":3913:4002   */\ntag_78:\n  not(0x00)\n    /* \"#utility.yul\":2770:2771   */\n  0x03\n    /* \"#utility.yul\":2766:2777   */\n  dup6\n  swap1\n  shl\n    /* \"#utility.yul\":2762:2786   */\n  shr\n    /* \"#utility.yul\":2758:2787   */\n  not\n    /* \"#utility.yul\":2748:2788   */\n  and\n    /* \"#utility.yul\":2794:2795   */\n  0x01\n    /* \"#utility.yul\":2790:2801   */\n  dup5\n  swap1\n  shl\n    /* \"#utility.yul\":2745:2802   */\n  or\n    /* \"#utility.yul\":4015:4096   */\n  dup5\n  sstore\n    /* \"#utility.yul\":3176:4106   */\n  jump(tag_69)\n    /* \"#utility.yul\":3206:3855   */\ntag_77:\n    /* \"#utility.yul\":2066:2067   */\n  0x00\n    /* \"#utility.yul\":2059:2073   */\n  dup5\n  dup2\n  mstore\n    /* \"#utility.yul\":2103:2107   */\n  0x20\n    /* \"#utility.yul\":2090:2108   */\n  dup2\n  keccak256\n  not(0x1f)\n    /* \"#utility.yul\":3242:3262   */\n  dup6\n  and\n  swap2\n    /* \"#utility.yul\":3360:3582   */\ntag_81:\n    /* \"#utility.yul\":3374:3381   */\n  dup3\n    /* \"#utility.yul\":3371:3372   */\n  dup2\n    /* \"#utility.yul\":3368:3382   */\n  lt\n    /* \"#utility.yul\":3360:3582   */\n  iszero\n  tag_83\n  jumpi\n    /* \"#utility.yul\":3456:3475   */\n  dup8\n  dup6\n  add\n    /* \"#utility.yul\":3450:3476   */\n  mload\n    /* \"#utility.yul\":3435:3477   */\n  dup3\n  sstore\n    /* \"#utility.yul\":3563:3567   */\n  0x20\n    /* \"#utility.yul\":3548:3568   */\n  swap5\n  dup6\n  add\n  swap5\n    /* \"#utility.yul\":3516:3517   */\n  0x01\n    /* \"#utility.yul\":3504:3518   */\n  swap1\n  swap3\n  add\n  swap2\n    /* \"#utility.yul\":3390:3402   */\n  add\n    /* \"#utility.yul\":3360:3582   */\n  jump(tag_81)\ntag_83:\n    /* \"#utility.yul\":3364:3367   */\n  pop\n    /* \"#utility.yul\":3610:3616   */\n  dup5\n    /* \"#utility.yul\":3601:3608   */\n  dup3\n    /* \"#utility.yul\":3598:3617   */\n  lt\n    /* \"#utility.yul\":3595:3796   */\n  iszero\n  tag_84\n  jumpi\n    /* \"#utility.yul\":3671:3690   */\n  dup7\n  dup5\n  add\n    /* \"#utility.yul\":3665:3691   */\n  mload\n  not(0x00)\n    /* \"#utility.yul\":3754:3755   */\n  0x03\n    /* \"#utility.yul\":3750:3764   */\n  dup8\n  swap1\n  shl\n    /* \"#utility.yul\":3766:3769   */\n  0xf8\n    /* \"#utility.yul\":3746:3770   */\n  and\n    /* \"#utility.yul\":3742:3779   */\n  shr\n    /* \"#utility.yul\":3738:3780   */\n  not\n    /* \"#utility.yul\":3723:3781   */\n  and\n    /* \"#utility.yul\":3708:3782   */\n  dup2\n  sstore\n    /* \"#utility.yul\":3595:3796   */\ntag_84:\n  pop\n  pop\n  pop\n  pop\n    /* \"#utility.yul\":3842:3843   */\n  0x01\n    /* \"#utility.yul\":3826:3840   */\n  swap1\n  dup2\n  shl\n    /* \"#utility.yul\":3822:3844   */\n  add\n    /* \"#utility.yul\":3809:3845   */\n  swap1\n  sstore\n  pop\n    /* \"#utility.yul\":2813:4112   */\n  jump\t// out\n    /* \"#utility.yul\":4477:4699   */\ntag_28:\n    /* \"#utility.yul\":4542:4551   */\n  dup1\n  dup3\n  add\n    /* \"#utility.yul\":4563:4573   */\n  dup1\n  dup3\n  gt\n    /* \"#utility.yul\":4560:4693   */\n  iszero\n  tag_87\n  jumpi\n    /* \"#utility.yul\":4615:4625   */\n  0x4e487b71\n    /* \"#utility.yul\":4610:4613   */\n  0xe0\n    /* \"#utility.yul\":4606:4626   */\n  shl\n    /* \"#utility.yul\":4603:4604   */\n  0x00\n    /* \"#utility.yul\":4596:4627   */\n  mstore\n    /* \"#utility.yul\":4650:4654   */\n  0x11\n    /* \"#utility.yul\":4647:4648   */\n  0x04\n    /* \"#utility.yul\":4640:4655   */\n  mstore\n    /* \"#utility.yul\":4678:4682   */\n  0x24\n    /* \"#utility.yul\":4675:4676   */\n  0x00\n    /* \"#utility.yul\":4668:4683   */\n  revert\n    /* \"#utility.yul\":4560:4693   */\ntag_87:\n    /* \"#utility.yul\":4477:4699   */\n  swap3\n  swap2\n  pop\n  pop\n  jump\t// out\n    /* \"#utility.yul\":4704:4881   */\ntag_42:\n    /* \"mintable-token(copy)(copy)/mintable-token.sol\":1946:2556  contract MintableToken is ERC20, Ownable {... */\n  dataSize(sub_0)\n  dup1\n  dataOffset(sub_0)\n  0x00\n  codecopy\n  0x00\n  return\nstop\n\nsub_0: assembly {\n        /* \"mintable-token(copy)(copy)/mintable-token.sol\":1946:2556  contract MintableToken is ERC20, Ownable {... */\n      mstore(0x40, 0x80)\n      callvalue\n      dup1\n      iszero\n      tag_1\n      jumpi\n      0x00\n      dup1\n      revert\n    tag_1:\n      pop\n      jumpi(tag_2, lt(calldatasize, 0x04))\n      shr(0xe0, calldataload(0x00))\n      dup1\n      0x715018a6\n      gt\n      tag_18\n      jumpi\n      dup1\n      0xa457c2d7\n      gt\n      tag_19\n      jumpi\n      dup1\n      0xa457c2d7\n      eq\n      tag_14\n      jumpi\n      dup1\n      0xa9059cbb\n      eq\n      tag_15\n      jumpi\n      dup1\n      0xdd62ed3e\n      eq\n      tag_16\n      jumpi\n      dup1\n      0xf2fde38b\n      eq\n      tag_17\n      jumpi\n      0x00\n      dup1\n      revert\n    tag_19:\n      dup1\n      0x715018a6\n      eq\n      tag_10\n      jumpi\n      dup1\n      0x8da5cb5b\n      eq\n      tag_11\n      jumpi\n      dup1\n      0x94bf804d\n      eq\n      tag_12\n      jumpi\n      dup1\n      0x95d89b41\n      eq\n      tag_13\n      jumpi\n      0x00\n      dup1\n      revert\n    tag_18:\n      dup1\n      0x23b872dd\n      gt\n      tag_20\n      jumpi\n      dup1\n      0x23b872dd\n      eq\n      tag_6\n      jumpi\n      dup1\n      0x313ce567\n      eq\n      tag_7\n      jumpi\n      dup1\n      0x39509351\n      eq\n      tag_8\n      jumpi\n      dup1\n      0x70a08231\n      eq\n      tag_9\n      jumpi\n      0x00\n      dup1\n      revert\n    tag_20:\n      dup1\n      0x06fdde03\n      eq\n      tag_3\n      jumpi\n      dup1\n      0x095ea7b3\n      eq\n      tag_4\n      jumpi\n      dup1\n      0x18160ddd\n      eq\n      tag_5\n      jumpi\n    tag_2:\n      0x00\n      dup1\n      revert\n        /* \"mintable-token/@openzeppelin/contracts/token/ERC20/ERC20.sol\":3431:3529  function name() public view virtual override returns (string memory) {... */\n    tag_3:\n      tag_21\n      tag_22\n      jump\t// in\n    tag_21:\n      mload(0x40)\n      tag_23\n      swap2\n      swap1\n      tag_24\n      jump\t// in\n    tag_23:\n      mload(0x40)\n      dup1\n      swap2\n      sub\n      swap1\n      return\n        /* \"mintable-token/@openzeppelin/contracts/token/ERC20/ERC20.sol\":5708:5905  function approve(address spender, uint256 amount) public virtual override returns (bool) {... */\n    tag_4:\n      tag_25\n      tag_26\n      calldatasize\n      0x04\n      tag_27\n      jump\t// in\n    tag_26:\n      tag_28\n      jump\t// in\n    tag_25:\n      mload(0x40)\n        /* \"#utility.yul\":1276:1290   */\n      swap1\n      iszero\n        /* \"#utility.yul\":1269:1291   */\n      iszero\n        /* \"#utility.yul\":1251:1292   */\n      dup2\n      mstore\n        /* \"#utility.yul\":1239:1241   */\n      0x20\n        /* \"#utility.yul\":1224:1242   */\n      add\n        /* \"mintable-token/@openzeppelin/contracts/token/ERC20/ERC20.sol\":5708:5905  function approve(address spender, uint256 amount) public virtual override returns (bool) {... */\n      tag_23\n        /* \"#utility.yul\":1111:1298   */\n      jump\n        /* \"mintable-token/@openzeppelin/contracts/token/ERC20/ERC20.sol\":4519:4625  function totalSupply() public view virtual override returns (uint256) {... */\n    tag_5:\n        /* \"mintable-token/@openzeppelin/contracts/token/ERC20/ERC20.sol\":4606:4618  _totalSupply */\n      sload(0x02)\n        /* \"mintable-token/@openzeppelin/contracts/token/ERC20/ERC20.sol\":4519:4625  function totalSupply() public view virtual override returns (uint256) {... */\n    tag_31:\n      mload(0x40)\n        /* \"#utility.yul\":1449:1474   */\n      swap1\n      dup2\n      mstore\n        /* \"#utility.yul\":1437:1439   */\n      0x20\n        /* \"#utility.yul\":1422:1440   */\n      add\n        /* \"mintable-token/@openzeppelin/contracts/token/ERC20/ERC20.sol\":4519:4625  function totalSupply() public view virtual override returns (uint256) {... */\n      tag_23\n        /* \"#utility.yul\":1303:1480   */\n      jump\n        /* \"mintable-token/@openzeppelin/contracts/token/ERC20/ERC20.sol\":6467:6753  function transferFrom(... */\n    tag_6:\n      tag_25\n      tag_36\n      calldatasize\n      0x04\n      tag_37\n      jump\t// in\n    tag_36:\n      tag_38\n      jump\t// in\n        /* \"mintable-token/@openzeppelin/contracts/token/ERC20/ERC20.sol\":4368:4459  function decimals() public view virtual override returns (uint8) {... */\n    tag_7:\n      mload(0x40)\n        /* \"mintable-token/@openzeppelin/contracts/token/ERC20/ERC20.sol\":4450:4452  18 */\n      0x12\n        /* \"#utility.yul\":2006:2042   */\n      dup2\n      mstore\n        /* \"#utility.yul\":1994:1996   */\n      0x20\n        /* \"#utility.yul\":1979:1997   */\n      add\n        /* \"mintable-token/@openzeppelin/contracts/token/ERC20/ERC20.sol\":4368:4459  function decimals() public view virtual override returns (uint8) {... */\n      tag_23\n        /* \"#utility.yul\":1864:2048   */\n      jump\n        /* \"mintable-token/@openzeppelin/contracts/token/ERC20/ERC20.sol\":7148:7382  function increaseAllowance(address spender, uint256 addedValue) public virtual returns (bool) {... */\n    tag_8:\n      tag_25\n      tag_45\n      calldatasize\n      0x04\n      tag_27\n      jump\t// in\n    tag_45:\n      tag_46\n      jump\t// in\n        /* \"mintable-token/@openzeppelin/contracts/token/ERC20/ERC20.sol\":4683:4808  function balanceOf(address account) public view virtual override returns (uint256) {... */\n    tag_9:\n      tag_31\n      tag_49\n      calldatasize\n      0x04\n      tag_50\n      jump\t// in\n    tag_49:\n        /* \"mintable-token/@openzeppelin/contracts/token/ERC20/ERC20.sol\":4783:4801  _balances[account] */\n      0xffffffffffffffffffffffffffffffffffffffff\n      and\n        /* \"mintable-token/@openzeppelin/contracts/token/ERC20/ERC20.sol\":4757:4764  uint256 */\n      0x00\n        /* \"mintable-token/@openzeppelin/contracts/token/ERC20/ERC20.sol\":4783:4801  _balances[account] */\n      swap1\n      dup2\n      mstore\n      0x20\n      dup2\n      swap1\n      mstore\n      0x40\n      swap1\n      keccak256\n      sload\n      swap1\n        /* \"mintable-token/@openzeppelin/contracts/token/ERC20/ERC20.sol\":4683:4808  function balanceOf(address account) public view virtual override returns (uint256) {... */\n      jump\n        /* \"mintable-token/@openzeppelin/contracts/access/Ownable.sol\":3106:3207  function renounceOwnership() public virtual onlyOwner {... */\n    tag_10:\n      tag_53\n      tag_54\n      jump\t// in\n    tag_53:\n      stop\n        /* \"mintable-token/@openzeppelin/contracts/access/Ownable.sol\":2476:2561  function owner() public view virtual returns (address) {... */\n    tag_11:\n        /* \"mintable-token/@openzeppelin/contracts/access/Ownable.sol\":2548:2554  _owner */\n      sload(0x05)\n        /* \"mintable-token/@openzeppelin/contracts/access/Ownable.sol\":2476:2561  function owner() public view virtual returns (address) {... */\n      mload(0x40)\n        /* \"mintable-token/@openzeppelin/contracts/access/Ownable.sol\":2548:2554  _owner */\n      0xffffffffffffffffffffffffffffffffffffffff\n      swap1\n      swap2\n      and\n        /* \"#utility.yul\":2390:2464   */\n      dup2\n      mstore\n        /* \"#utility.yul\":2378:2380   */\n      0x20\n        /* \"#utility.yul\":2363:2381   */\n      add\n        /* \"mintable-token/@openzeppelin/contracts/access/Ownable.sol\":2476:2561  function owner() public view virtual returns (address) {... */\n      tag_23\n        /* \"#utility.yul\":2244:2470   */\n      jump\n        /* \"mintable-token(copy)(copy)/mintable-token.sol\":2459:2554  function mint(uint256 amount, address to) external onlyOwner {... */\n    tag_12:\n      tag_53\n      tag_60\n      calldatasize\n      0x04\n      tag_61\n      jump\t// in\n    tag_60:\n      tag_62\n      jump\t// in\n        /* \"mintable-token/@openzeppelin/contracts/token/ERC20/ERC20.sol\":3642:3744  function symbol() public view virtual override returns (string memory) {... */\n    tag_13:\n      tag_21\n      tag_64\n      jump\t// in\n        /* \"mintable-token/@openzeppelin/contracts/token/ERC20/ERC20.sol\":7869:8296  function decreaseAllowance(address spender, uint256 subtractedValue) public virtual returns (bool) {... */\n    tag_14:\n      tag_25\n      tag_67\n      calldatasize\n      0x04\n      tag_27\n      jump\t// in\n    tag_67:\n      tag_68\n      jump\t// in\n        /* \"mintable-token/@openzeppelin/contracts/token/ERC20/ERC20.sol\":5004:5193  function transfer(address to, uint256 amount) public virtual override returns (bool) {... */\n    tag_15:\n      tag_25\n      tag_71\n      calldatasize\n      0x04\n      tag_27\n      jump\t// in\n    tag_71:\n      tag_72\n      jump\t// in\n        /* \"mintable-token/@openzeppelin/contracts/token/ERC20/ERC20.sol\":5251:5400  function allowance(address owner, address spender) public view virtual override returns (uint256) {... */\n    tag_16:\n      tag_31\n      tag_75\n      calldatasize\n      0x04\n      tag_76\n      jump\t// in\n    tag_75:\n        /* \"mintable-token/@openzeppelin/contracts/token/ERC20/ERC20.sol\":5366:5384  _allowances[owner] */\n      0xffffffffffffffffffffffffffffffffffffffff\n      swap2\n      dup3\n      and\n        /* \"mintable-token/@openzeppelin/contracts/token/ERC20/ERC20.sol\":5340:5347  uint256 */\n      0x00\n        /* \"mintable-token/@openzeppelin/contracts/token/ERC20/ERC20.sol\":5366:5384  _allowances[owner] */\n      swap1\n      dup2\n      mstore\n        /* \"mintable-token/@openzeppelin/contracts/token/ERC20/ERC20.sol\":5366:5377  _allowances */\n      0x01\n        /* \"mintable-token/@openzeppelin/contracts/token/ERC20/ERC20.sol\":5366:5384  _allowances[owner] */\n      0x20\n      swap1\n      dup2\n      mstore\n      0x40\n      dup1\n      dup4\n      keccak256\n        /* \"mintable-token/@openzeppelin/contracts/token/ERC20/ERC20.sol\":5366:5393  _allowances[owner][spender] */\n      swap4\n      swap1\n      swap5\n      and\n      dup3\n      mstore\n      swap2\n      swap1\n      swap2\n      mstore\n      keccak256\n      sload\n      swap1\n        /* \"mintable-token/@openzeppelin/contracts/token/ERC20/ERC20.sol\":5251:5400  function allowance(address owner, address spender) public view virtual override returns (uint256) {... */\n      jump\n        /* \"mintable-token/@openzeppelin/contracts/access/Ownable.sol\":3356:3554  function transferOwnership(address newOwner) public virtual onlyOwner {... */\n    tag_17:\n      tag_53\n      tag_80\n      calldatasize\n      0x04\n      tag_50\n      jump\t// in\n    tag_80:\n      tag_81\n      jump\t// in\n        /* \"mintable-token/@openzeppelin/contracts/token/ERC20/ERC20.sol\":3431:3529  function name() public view virtual override returns (string memory) {... */\n    tag_22:\n        /* \"mintable-token/@openzeppelin/contracts/token/ERC20/ERC20.sol\":3485:3498  string memory */\n      0x60\n        /* \"mintable-token/@openzeppelin/contracts/token/ERC20/ERC20.sol\":3517:3522  _name */\n      0x03\n        /* \"mintable-token/@openzeppelin/contracts/token/ERC20/ERC20.sol\":3510:3522  return _name */\n      dup1\n      sload\n      tag_83\n      swap1\n      tag_84\n      jump\t// in\n    tag_83:\n      dup1\n      0x1f\n      add\n      0x20\n      dup1\n      swap2\n      div\n      mul\n      0x20\n      add\n      mload(0x40)\n      swap1\n      dup2\n      add\n      0x40\n      mstore\n      dup1\n      swap3\n      swap2\n      swap1\n      dup2\n      dup2\n      mstore\n      0x20\n      add\n      dup3\n      dup1\n      sload\n      tag_85\n      swap1\n      tag_84\n      jump\t// in\n    tag_85:\n      dup1\n      iszero\n      tag_86\n      jumpi\n      dup1\n      0x1f\n      lt\n      tag_87\n      jumpi\n      0x0100\n      dup1\n      dup4\n      sload\n      div\n      mul\n      dup4\n      mstore\n      swap2\n      0x20\n      add\n      swap2\n      jump(tag_86)\n    tag_87:\n      dup3\n      add\n      swap2\n      swap1\n      0x00\n      mstore\n      keccak256(0x00, 0x20)\n      swap1\n    tag_88:\n      dup2\n      sload\n      dup2\n      mstore\n      swap1\n      0x01\n      add\n      swap1\n      0x20\n      add\n      dup1\n      dup4\n      gt\n      tag_88\n      jumpi\n      dup3\n      swap1\n      sub\n      0x1f\n      and\n      dup3\n      add\n      swap2\n    tag_86:\n      pop\n      pop\n      pop\n      pop\n      pop\n      swap1\n      pop\n        /* \"mintable-token/@openzeppelin/contracts/token/ERC20/ERC20.sol\":3431:3529  function name() public view virtual override returns (string memory) {... */\n      swap1\n      jump\t// out\n        /* \"mintable-token/@openzeppelin/contracts/token/ERC20/ERC20.sol\":5708:5905  function approve(address spender, uint256 amount) public virtual override returns (bool) {... */\n    tag_28:\n        /* \"mintable-token/@openzeppelin/contracts/token/ERC20/ERC20.sol\":5791:5795  bool */\n      0x00\n        /* \"mintable-token/@openzeppelin/contracts/utils/Context.sol\":1994:2004  msg.sender */\n      caller\n        /* \"mintable-token/@openzeppelin/contracts/token/ERC20/ERC20.sol\":5845:5877  _approve(owner, spender, amount) */\n      tag_92\n        /* \"mintable-token/@openzeppelin/contracts/utils/Context.sol\":1994:2004  msg.sender */\n      dup2\n        /* \"mintable-token/@openzeppelin/contracts/token/ERC20/ERC20.sol\":5861:5868  spender */\n      dup6\n        /* \"mintable-token/@openzeppelin/contracts/token/ERC20/ERC20.sol\":5870:5876  amount */\n      dup6\n        /* \"mintable-token/@openzeppelin/contracts/token/ERC20/ERC20.sol\":5845:5853  _approve */\n      tag_93\n        /* \"mintable-token/@openzeppelin/contracts/token/ERC20/ERC20.sol\":5845:5877  _approve(owner, spender, amount) */\n      jump\t// in\n    tag_92:\n        /* \"mintable-token/@openzeppelin/contracts/token/ERC20/ERC20.sol\":5894:5898  true */\n      0x01\n        /* \"mintable-token/@openzeppelin/contracts/token/ERC20/ERC20.sol\":5887:5898  return true */\n      swap2\n      pop\n      pop\n        /* \"mintable-token/@openzeppelin/contracts/token/ERC20/ERC20.sol\":5708:5905  function approve(address spender, uint256 amount) public virtual override returns (bool) {... */\n    tag_89:\n      swap3\n      swap2\n      pop\n      pop\n      jump\t// out\n        /* \"mintable-token/@openzeppelin/contracts/token/ERC20/ERC20.sol\":6467:6753  function transferFrom(... */\n    tag_38:\n        /* \"mintable-token/@openzeppelin/contracts/token/ERC20/ERC20.sol\":6594:6598  bool */\n      0x00\n        /* \"mintable-token/@openzeppelin/contracts/utils/Context.sol\":1994:2004  msg.sender */\n      caller\n        /* \"mintable-token/@openzeppelin/contracts/token/ERC20/ERC20.sol\":6650:6688  _spendAllowance(from, spender, amount) */\n      tag_97\n        /* \"mintable-token/@openzeppelin/contracts/token/ERC20/ERC20.sol\":6666:6670  from */\n      dup6\n        /* \"mintable-token/@openzeppelin/contracts/utils/Context.sol\":1994:2004  msg.sender */\n      dup3\n        /* \"mintable-token/@openzeppelin/contracts/token/ERC20/ERC20.sol\":6681:6687  amount */\n      dup6\n        /* \"mintable-token/@openzeppelin/contracts/token/ERC20/ERC20.sol\":6650:6665  _spendAllowance */\n      tag_98\n        /* \"mintable-token/@openzeppelin/contracts/token/ERC20/ERC20.sol\":6650:6688  _spendAllowance(from, spender, amount) */\n      jump\t// in\n    tag_97:\n        /* \"mintable-token/@openzeppelin/contracts/token/ERC20/ERC20.sol\":6698:6725  _transfer(from, to, amount) */\n      tag_99\n        /* \"mintable-token/@openzeppelin/contracts/token/ERC20/ERC20.sol\":6708:6712  from */\n      dup6\n        /* \"mintable-token/@openzeppelin/contracts/token/ERC20/ERC20.sol\":6714:6716  to */\n      dup6\n        /* \"mintable-token/@openzeppelin/contracts/token/ERC20/ERC20.sol\":6718:6724  amount */\n      dup6\n        /* \"mintable-token/@openzeppelin/contracts/token/ERC20/ERC20.sol\":6698:6707  _transfer */\n      tag_100\n        /* \"mintable-token/@openzeppelin/contracts/token/ERC20/ERC20.sol\":6698:6725  _transfer(from, to, amount) */\n      jump\t// in\n    tag_99:\n      pop\n        /* \"mintable-token/@openzeppelin/contracts/token/ERC20/ERC20.sol\":6742:6746  true */\n      0x01\n      swap5\n        /* \"mintable-token/@openzeppelin/contracts/token/ERC20/ERC20.sol\":6467:6753  function transferFrom(... */\n      swap4\n      pop\n      pop\n      pop\n      pop\n      jump\t// out\n        /* \"mintable-token/@openzeppelin/contracts/token/ERC20/ERC20.sol\":7148:7382  function increaseAllowance(address spender, uint256 addedValue) public virtual returns (bool) {... */\n    tag_46:\n        /* \"mintable-token/@openzeppelin/contracts/utils/Context.sol\":1994:2004  msg.sender */\n      caller\n        /* \"mintable-token/@openzeppelin/contracts/token/ERC20/ERC20.sol\":7236:7240  bool */\n      0x00\n        /* \"mintable-token/@openzeppelin/contracts/token/ERC20/ERC20.sol\":5366:5384  _allowances[owner] */\n      dup2\n      dup2\n      mstore\n        /* \"mintable-token/@openzeppelin/contracts/token/ERC20/ERC20.sol\":5366:5377  _allowances */\n      0x01\n        /* \"mintable-token/@openzeppelin/contracts/token/ERC20/ERC20.sol\":5366:5384  _allowances[owner] */\n      0x20\n      swap1\n      dup2\n      mstore\n      0x40\n      dup1\n      dup4\n      keccak256\n      0xffffffffffffffffffffffffffffffffffffffff\n        /* \"mintable-token/@openzeppelin/contracts/token/ERC20/ERC20.sol\":5366:5393  _allowances[owner][spender] */\n      dup8\n      and\n      dup5\n      mstore\n      swap1\n      swap2\n      mstore\n      dup2\n      keccak256\n      sload\n        /* \"mintable-token/@openzeppelin/contracts/token/ERC20/ERC20.sol\":7236:7240  bool */\n      swap1\n      swap2\n        /* \"mintable-token/@openzeppelin/contracts/utils/Context.sol\":1994:2004  msg.sender */\n      swap1\n        /* \"mintable-token/@openzeppelin/contracts/token/ERC20/ERC20.sol\":7290:7354  _approve(owner, spender, allowance(owner, spender) + addedValue) */\n      tag_92\n      swap1\n        /* \"mintable-token/@openzeppelin/contracts/utils/Context.sol\":1994:2004  msg.sender */\n      dup3\n      swap1\n        /* \"mintable-token/@openzeppelin/contracts/token/ERC20/ERC20.sol\":5366:5393  _allowances[owner][spender] */\n      dup7\n      swap1\n        /* \"mintable-token/@openzeppelin/contracts/token/ERC20/ERC20.sol\":7315:7353  allowance(owner, spender) + addedValue */\n      tag_106\n      swap1\n        /* \"mintable-token/@openzeppelin/contracts/token/ERC20/ERC20.sol\":7343:7353  addedValue */\n      dup8\n      swap1\n        /* \"mintable-token/@openzeppelin/contracts/token/ERC20/ERC20.sol\":7315:7353  allowance(owner, spender) + addedValue */\n      tag_107\n      jump\t// in\n    tag_106:\n        /* \"mintable-token/@openzeppelin/contracts/token/ERC20/ERC20.sol\":7290:7298  _approve */\n      tag_93\n        /* \"mintable-token/@openzeppelin/contracts/token/ERC20/ERC20.sol\":7290:7354  _approve(owner, spender, allowance(owner, spender) + addedValue) */\n      jump\t// in\n        /* \"mintable-token/@openzeppelin/contracts/access/Ownable.sol\":3106:3207  function renounceOwnership() public virtual onlyOwner {... */\n    tag_54:\n        /* \"mintable-token/@openzeppelin/contracts/access/Ownable.sol\":2369:2382  _checkOwner() */\n      tag_110\n        /* \"mintable-token/@openzeppelin/contracts/access/Ownable.sol\":2369:2380  _checkOwner */\n      tag_111\n        /* \"mintable-token/@openzeppelin/contracts/access/Ownable.sol\":2369:2382  _checkOwner() */\n      jump\t// in\n    tag_110:\n        /* \"mintable-token/@openzeppelin/contracts/access/Ownable.sol\":3170:3200  _transferOwnership(address(0)) */\n      tag_113\n        /* \"mintable-token/@openzeppelin/contracts/access/Ownable.sol\":3197:3198  0 */\n      0x00\n        /* \"mintable-token/@openzeppelin/contracts/access/Ownable.sol\":3170:3188  _transferOwnership */\n      tag_114\n        /* \"mintable-token/@openzeppelin/contracts/access/Ownable.sol\":3170:3200  _transferOwnership(address(0)) */\n      jump\t// in\n    tag_113:\n        /* \"mintable-token/@openzeppelin/contracts/access/Ownable.sol\":3106:3207  function renounceOwnership() public virtual onlyOwner {... */\n      jump\t// out\n        /* \"mintable-token(copy)(copy)/mintable-token.sol\":2459:2554  function mint(uint256 amount, address to) external onlyOwner {... */\n    tag_62:\n        /* \"mintable-token/@openzeppelin/contracts/access/Ownable.sol\":2369:2382  _checkOwner() */\n      tag_117\n        /* \"mintable-token/@openzeppelin/contracts/access/Ownable.sol\":2369:2380  _checkOwner */\n      tag_111\n        /* \"mintable-token/@openzeppelin/contracts/access/Ownable.sol\":2369:2382  _checkOwner() */\n      jump\t// in\n    tag_117:\n        /* \"mintable-token(copy)(copy)/mintable-token.sol\":2530:2547  _mint(to, amount) */\n      tag_119\n        /* \"mintable-token(copy)(copy)/mintable-token.sol\":2536:2538  to */\n      dup2\n        /* \"mintable-token(copy)(copy)/mintable-token.sol\":2540:2546  amount */\n      dup4\n        /* \"mintable-token(copy)(copy)/mintable-token.sol\":2530:2535  _mint */\n      tag_120\n        /* \"mintable-token(copy)(copy)/mintable-token.sol\":2530:2547  _mint(to, amount) */\n      jump\t// in\n    tag_119:\n        /* \"mintable-token(copy)(copy)/mintable-token.sol\":2459:2554  function mint(uint256 amount, address to) external onlyOwner {... */\n      pop\n      pop\n      jump\t// out\n        /* \"mintable-token/@openzeppelin/contracts/token/ERC20/ERC20.sol\":3642:3744  function symbol() public view virtual override returns (string memory) {... */\n    tag_64:\n        /* \"mintable-token/@openzeppelin/contracts/token/ERC20/ERC20.sol\":3698:3711  string memory */\n      0x60\n        /* \"mintable-token/@openzeppelin/contracts/token/ERC20/ERC20.sol\":3730:3737  _symbol */\n      0x04\n        /* \"mintable-token/@openzeppelin/contracts/token/ERC20/ERC20.sol\":3723:3737  return _symbol */\n      dup1\n      sload\n      tag_83\n      swap1\n      tag_84\n      jump\t// in\n        /* \"mintable-token/@openzeppelin/contracts/token/ERC20/ERC20.sol\":7869:8296  function decreaseAllowance(address spender, uint256 subtractedValue) public virtual returns (bool) {... */\n    tag_68:\n        /* \"mintable-token/@openzeppelin/contracts/utils/Context.sol\":1994:2004  msg.sender */\n      caller\n        /* \"mintable-token/@openzeppelin/contracts/token/ERC20/ERC20.sol\":7962:7966  bool */\n      0x00\n        /* \"mintable-token/@openzeppelin/contracts/token/ERC20/ERC20.sol\":5366:5384  _allowances[owner] */\n      dup2\n      dup2\n      mstore\n        /* \"mintable-token/@openzeppelin/contracts/token/ERC20/ERC20.sol\":5366:5377  _allowances */\n      0x01\n        /* \"mintable-token/@openzeppelin/contracts/token/ERC20/ERC20.sol\":5366:5384  _allowances[owner] */\n      0x20\n      swap1\n      dup2\n      mstore\n      0x40\n      dup1\n      dup4\n      keccak256\n      0xffffffffffffffffffffffffffffffffffffffff\n        /* \"mintable-token/@openzeppelin/contracts/token/ERC20/ERC20.sol\":5366:5393  _allowances[owner][spender] */\n      dup8\n      and\n      dup5\n      mstore\n      swap1\n      swap2\n      mstore\n      dup2\n      keccak256\n      sload\n        /* \"mintable-token/@openzeppelin/contracts/token/ERC20/ERC20.sol\":7962:7966  bool */\n      swap1\n      swap2\n        /* \"mintable-token/@openzeppelin/contracts/utils/Context.sol\":1994:2004  msg.sender */\n      swap1\n        /* \"mintable-token/@openzeppelin/contracts/token/ERC20/ERC20.sol\":8106:8121  subtractedValue */\n      dup4\n        /* \"mintable-token/@openzeppelin/contracts/token/ERC20/ERC20.sol\":8086:8102  currentAllowance */\n      dup2\n        /* \"mintable-token/@openzeppelin/contracts/token/ERC20/ERC20.sol\":8086:8121  currentAllowance >= subtractedValue */\n      lt\n      iszero\n        /* \"mintable-token/@openzeppelin/contracts/token/ERC20/ERC20.sol\":8078:8163  require(currentAllowance >= subtractedValue, \"ERC20: decreased allowance below zero\") */\n      tag_130\n      jumpi\n      mload(0x40)\n      0x08c379a000000000000000000000000000000000000000000000000000000000\n      dup2\n      mstore\n        /* \"#utility.yul\":3973:3975   */\n      0x20\n        /* \"mintable-token/@openzeppelin/contracts/token/ERC20/ERC20.sol\":8078:8163  require(currentAllowance >= subtractedValue, \"ERC20: decreased allowance below zero\") */\n      0x04\n      dup3\n      add\n        /* \"#utility.yul\":3955:3976   */\n      mstore\n        /* \"#utility.yul\":4012:4014   */\n      0x25\n        /* \"#utility.yul\":3992:4010   */\n      0x24\n      dup3\n      add\n        /* \"#utility.yul\":3985:4015   */\n      mstore\n        /* \"#utility.yul\":4051:4085   */\n      0x45524332303a2064656372656173656420616c6c6f77616e63652062656c6f77\n        /* \"#utility.yul\":4031:4049   */\n      0x44\n      dup3\n      add\n        /* \"#utility.yul\":4024:4086   */\n      mstore\n        /* \"#utility.yul\":4122:4129   */\n      0x207a65726f000000000000000000000000000000000000000000000000000000\n        /* \"#utility.yul\":4102:4120   */\n      0x64\n      dup3\n      add\n        /* \"#utility.yul\":4095:4130   */\n      mstore\n        /* \"#utility.yul\":4147:4166   */\n      0x84\n      add\n        /* \"mintable-token/@openzeppelin/contracts/token/ERC20/ERC20.sol\":8078:8163  require(currentAllowance >= subtractedValue, \"ERC20: decreased allowance below zero\") */\n    tag_131:\n      mload(0x40)\n      dup1\n      swap2\n      sub\n      swap1\n      revert\n    tag_130:\n        /* \"mintable-token/@openzeppelin/contracts/token/ERC20/ERC20.sol\":8197:8257  _approve(owner, spender, currentAllowance - subtractedValue) */\n      tag_99\n        /* \"mintable-token/@openzeppelin/contracts/token/ERC20/ERC20.sol\":8206:8211  owner */\n      dup3\n        /* \"mintable-token/@openzeppelin/contracts/token/ERC20/ERC20.sol\":8213:8220  spender */\n      dup7\n        /* \"mintable-token/@openzeppelin/contracts/token/ERC20/ERC20.sol\":8241:8256  subtractedValue */\n      dup7\n        /* \"mintable-token/@openzeppelin/contracts/token/ERC20/ERC20.sol\":8222:8238  currentAllowance */\n      dup5\n        /* \"mintable-token/@openzeppelin/contracts/token/ERC20/ERC20.sol\":8222:8256  currentAllowance - subtractedValue */\n      sub\n        /* \"mintable-token/@openzeppelin/contracts/token/ERC20/ERC20.sol\":8197:8205  _approve */\n      tag_93\n        /* \"mintable-token/@openzeppelin/contracts/token/ERC20/ERC20.sol\":8197:8257  _approve(owner, spender, currentAllowance - subtractedValue) */\n      jump\t// in\n        /* \"mintable-token/@openzeppelin/contracts/token/ERC20/ERC20.sol\":5004:5193  function transfer(address to, uint256 amount) public virtual override returns (bool) {... */\n    tag_72:\n        /* \"mintable-token/@openzeppelin/contracts/token/ERC20/ERC20.sol\":5083:5087  bool */\n      0x00\n        /* \"mintable-token/@openzeppelin/contracts/utils/Context.sol\":1994:2004  msg.sender */\n      caller\n        /* \"mintable-token/@openzeppelin/contracts/token/ERC20/ERC20.sol\":5137:5165  _transfer(owner, to, amount) */\n      tag_92\n        /* \"mintable-token/@openzeppelin/contracts/utils/Context.sol\":1994:2004  msg.sender */\n      dup2\n        /* \"mintable-token/@openzeppelin/contracts/token/ERC20/ERC20.sol\":5154:5156  to */\n      dup6\n        /* \"mintable-token/@openzeppelin/contracts/token/ERC20/ERC20.sol\":5158:5164  amount */\n      dup6\n        /* \"mintable-token/@openzeppelin/contracts/token/ERC20/ERC20.sol\":5137:5146  _transfer */\n      tag_100\n        /* \"mintable-token/@openzeppelin/contracts/token/ERC20/ERC20.sol\":5137:5165  _transfer(owner, to, amount) */\n      jump\t// in\n        /* \"mintable-token/@openzeppelin/contracts/access/Ownable.sol\":3356:3554  function transferOwnership(address newOwner) public virtual onlyOwner {... */\n    tag_81:\n        /* \"mintable-token/@openzeppelin/contracts/access/Ownable.sol\":2369:2382  _checkOwner() */\n      tag_139\n        /* \"mintable-token/@openzeppelin/contracts/access/Ownable.sol\":2369:2380  _checkOwner */\n      tag_111\n        /* \"mintable-token/@openzeppelin/contracts/access/Ownable.sol\":2369:2382  _checkOwner() */\n      jump\t// in\n    tag_139:\n        /* \"mintable-token/@openzeppelin/contracts/access/Ownable.sol\":3444:3466  newOwner != address(0) */\n      0xffffffffffffffffffffffffffffffffffffffff\n      dup2\n      and\n        /* \"mintable-token/@openzeppelin/contracts/access/Ownable.sol\":3436:3509  require(newOwner != address(0), \"Ownable: new owner is the zero address\") */\n      tag_141\n      jumpi\n      mload(0x40)\n      0x08c379a000000000000000000000000000000000000000000000000000000000\n      dup2\n      mstore\n        /* \"#utility.yul\":4379:4381   */\n      0x20\n        /* \"mintable-token/@openzeppelin/contracts/access/Ownable.sol\":3436:3509  require(newOwner != address(0), \"Ownable: new owner is the zero address\") */\n      0x04\n      dup3\n      add\n        /* \"#utility.yul\":4361:4382   */\n      mstore\n        /* \"#utility.yul\":4418:4420   */\n      0x26\n        /* \"#utility.yul\":4398:4416   */\n      0x24\n      dup3\n      add\n        /* \"#utility.yul\":4391:4421   */\n      mstore\n        /* \"#utility.yul\":4457:4491   */\n      0x4f776e61626c653a206e6577206f776e657220697320746865207a65726f2061\n        /* \"#utility.yul\":4437:4455   */\n      0x44\n      dup3\n      add\n        /* \"#utility.yul\":4430:4492   */\n      mstore\n        /* \"#utility.yul\":4528:4536   */\n      0x6464726573730000000000000000000000000000000000000000000000000000\n        /* \"#utility.yul\":4508:4526   */\n      0x64\n      dup3\n      add\n        /* \"#utility.yul\":4501:4537   */\n      mstore\n        /* \"#utility.yul\":4554:4573   */\n      0x84\n      add\n        /* \"mintable-token/@openzeppelin/contracts/access/Ownable.sol\":3436:3509  require(newOwner != address(0), \"Ownable: new owner is the zero address\") */\n      tag_131\n        /* \"#utility.yul\":4177:4579   */\n      jump\n        /* \"mintable-token/@openzeppelin/contracts/access/Ownable.sol\":3436:3509  require(newOwner != address(0), \"Ownable: new owner is the zero address\") */\n    tag_141:\n        /* \"mintable-token/@openzeppelin/contracts/access/Ownable.sol\":3519:3547  _transferOwnership(newOwner) */\n      tag_144\n        /* \"mintable-token/@openzeppelin/contracts/access/Ownable.sol\":3538:3546  newOwner */\n      dup2\n        /* \"mintable-token/@openzeppelin/contracts/access/Ownable.sol\":3519:3537  _transferOwnership */\n      tag_114\n        /* \"mintable-token/@openzeppelin/contracts/access/Ownable.sol\":3519:3547  _transferOwnership(newOwner) */\n      jump\t// in\n    tag_144:\n        /* \"mintable-token/@openzeppelin/contracts/access/Ownable.sol\":3356:3554  function transferOwnership(address newOwner) public virtual onlyOwner {... */\n      pop\n      jump\t// out\n        /* \"mintable-token/@openzeppelin/contracts/token/ERC20/ERC20.sol\":11385:11755  function _approve(... */\n    tag_93:\n        /* \"mintable-token/@openzeppelin/contracts/token/ERC20/ERC20.sol\":11516:11535  owner != address(0) */\n      0xffffffffffffffffffffffffffffffffffffffff\n      dup4\n      and\n        /* \"mintable-token/@openzeppelin/contracts/token/ERC20/ERC20.sol\":11508:11576  require(owner != address(0), \"ERC20: approve from the zero address\") */\n      tag_147\n      jumpi\n      mload(0x40)\n      0x08c379a000000000000000000000000000000000000000000000000000000000\n      dup2\n      mstore\n        /* \"#utility.yul\":4786:4788   */\n      0x20\n        /* \"mintable-token/@openzeppelin/contracts/token/ERC20/ERC20.sol\":11508:11576  require(owner != address(0), \"ERC20: approve from the zero address\") */\n      0x04\n      dup3\n      add\n        /* \"#utility.yul\":4768:4789   */\n      mstore\n        /* \"#utility.yul\":4825:4827   */\n      0x24\n        /* \"#utility.yul\":4805:4823   */\n      dup1\n      dup3\n      add\n        /* \"#utility.yul\":4798:4828   */\n      mstore\n        /* \"#utility.yul\":4864:4898   */\n      0x45524332303a20617070726f76652066726f6d20746865207a65726f20616464\n        /* \"#utility.yul\":4844:4862   */\n      0x44\n      dup3\n      add\n        /* \"#utility.yul\":4837:4899   */\n      mstore\n        /* \"#utility.yul\":4935:4941   */\n      0x7265737300000000000000000000000000000000000000000000000000000000\n        /* \"#utility.yul\":4915:4933   */\n      0x64\n      dup3\n      add\n        /* \"#utility.yul\":4908:4942   */\n      mstore\n        /* \"#utility.yul\":4959:4978   */\n      0x84\n      add\n        /* \"mintable-token/@openzeppelin/contracts/token/ERC20/ERC20.sol\":11508:11576  require(owner != address(0), \"ERC20: approve from the zero address\") */\n      tag_131\n        /* \"#utility.yul\":4584:4984   */\n      jump\n        /* \"mintable-token/@openzeppelin/contracts/token/ERC20/ERC20.sol\":11508:11576  require(owner != address(0), \"ERC20: approve from the zero address\") */\n    tag_147:\n        /* \"mintable-token/@openzeppelin/contracts/token/ERC20/ERC20.sol\":11594:11615  spender != address(0) */\n      0xffffffffffffffffffffffffffffffffffffffff\n      dup3\n      and\n        /* \"mintable-token/@openzeppelin/contracts/token/ERC20/ERC20.sol\":11586:11654  require(spender != address(0), \"ERC20: approve to the zero address\") */\n      tag_150\n      jumpi\n      mload(0x40)\n      0x08c379a000000000000000000000000000000000000000000000000000000000\n      dup2\n      mstore\n        /* \"#utility.yul\":5191:5193   */\n      0x20\n        /* \"mintable-token/@openzeppelin/contracts/token/ERC20/ERC20.sol\":11586:11654  require(spender != address(0), \"ERC20: approve to the zero address\") */\n      0x04\n      dup3\n      add\n        /* \"#utility.yul\":5173:5194   */\n      mstore\n        /* \"#utility.yul\":5230:5232   */\n      0x22\n        /* \"#utility.yul\":5210:5228   */\n      0x24\n      dup3\n      add\n        /* \"#utility.yul\":5203:5233   */\n      mstore\n        /* \"#utility.yul\":5269:5303   */\n      0x45524332303a20617070726f766520746f20746865207a65726f206164647265\n        /* \"#utility.yul\":5249:5267   */\n      0x44\n      dup3\n      add\n        /* \"#utility.yul\":5242:5304   */\n      mstore\n        /* \"#utility.yul\":5340:5344   */\n      0x7373000000000000000000000000000000000000000000000000000000000000\n        /* \"#utility.yul\":5320:5338   */\n      0x64\n      dup3\n      add\n        /* \"#utility.yul\":5313:5345   */\n      mstore\n        /* \"#utility.yul\":5362:5381   */\n      0x84\n      add\n        /* \"mintable-token/@openzeppelin/contracts/token/ERC20/ERC20.sol\":11586:11654  require(spender != address(0), \"ERC20: approve to the zero address\") */\n      tag_131\n        /* \"#utility.yul\":4989:5387   */\n      jump\n        /* \"mintable-token/@openzeppelin/contracts/token/ERC20/ERC20.sol\":11586:11654  require(spender != address(0), \"ERC20: approve to the zero address\") */\n    tag_150:\n        /* \"mintable-token/@openzeppelin/contracts/token/ERC20/ERC20.sol\":11665:11683  _allowances[owner] */\n      0xffffffffffffffffffffffffffffffffffffffff\n      dup4\n      dup2\n      and\n      0x00\n      dup2\n      dup2\n      mstore\n        /* \"mintable-token/@openzeppelin/contracts/token/ERC20/ERC20.sol\":11665:11676  _allowances */\n      0x01\n        /* \"mintable-token/@openzeppelin/contracts/token/ERC20/ERC20.sol\":11665:11683  _allowances[owner] */\n      0x20\n      swap1\n      dup2\n      mstore\n      0x40\n      dup1\n      dup4\n      keccak256\n        /* \"mintable-token/@openzeppelin/contracts/token/ERC20/ERC20.sol\":11665:11692  _allowances[owner][spender] */\n      swap5\n      dup8\n      and\n      dup1\n      dup5\n      mstore\n      swap5\n      dup3\n      mstore\n      swap2\n      dup3\n      swap1\n      keccak256\n        /* \"mintable-token/@openzeppelin/contracts/token/ERC20/ERC20.sol\":11665:11701  _allowances[owner][spender] = amount */\n      dup6\n      swap1\n      sstore\n        /* \"mintable-token/@openzeppelin/contracts/token/ERC20/ERC20.sol\":11716:11748  Approval(owner, spender, amount) */\n      swap1\n      mload\n        /* \"#utility.yul\":1449:1474   */\n      dup5\n      dup2\n      mstore\n        /* \"mintable-token/@openzeppelin/contracts/token/ERC20/ERC20.sol\":11716:11748  Approval(owner, spender, amount) */\n      0x8c5be1e5ebec7d5bd14f71427d1e84f3dd0314c0f7b2291e5b200ac8c7c3b925\n      swap2\n        /* \"#utility.yul\":1422:1440   */\n      add\n        /* \"mintable-token/@openzeppelin/contracts/token/ERC20/ERC20.sol\":11716:11748  Approval(owner, spender, amount) */\n      mload(0x40)\n      dup1\n      swap2\n      sub\n      swap1\n      log3\n        /* \"mintable-token/@openzeppelin/contracts/token/ERC20/ERC20.sol\":11385:11755  function _approve(... */\n      pop\n      pop\n      pop\n      jump\t// out\n        /* \"mintable-token/@openzeppelin/contracts/token/ERC20/ERC20.sol\":12036:12477  function _spendAllowance(... */\n    tag_98:\n        /* \"mintable-token/@openzeppelin/contracts/token/ERC20/ERC20.sol\":5366:5384  _allowances[owner] */\n      0xffffffffffffffffffffffffffffffffffffffff\n      dup4\n      dup2\n      and\n        /* \"mintable-token/@openzeppelin/contracts/token/ERC20/ERC20.sol\":12166:12190  uint256 currentAllowance */\n      0x00\n        /* \"mintable-token/@openzeppelin/contracts/token/ERC20/ERC20.sol\":5366:5384  _allowances[owner] */\n      swap1\n      dup2\n      mstore\n        /* \"mintable-token/@openzeppelin/contracts/token/ERC20/ERC20.sol\":5366:5377  _allowances */\n      0x01\n        /* \"mintable-token/@openzeppelin/contracts/token/ERC20/ERC20.sol\":5366:5384  _allowances[owner] */\n      0x20\n      swap1\n      dup2\n      mstore\n      0x40\n      dup1\n      dup4\n      keccak256\n        /* \"mintable-token/@openzeppelin/contracts/token/ERC20/ERC20.sol\":5366:5393  _allowances[owner][spender] */\n      swap4\n      dup7\n      and\n      dup4\n      mstore\n      swap3\n      swap1\n      mstore\n      keccak256\n      sload\n        /* \"mintable-token/@openzeppelin/contracts/token/ERC20/ERC20.sol\":12252:12269  type(uint256).max */\n      0xffffffffffffffffffffffffffffffffffffffffffffffffffffffffffffffff\n        /* \"mintable-token/@openzeppelin/contracts/token/ERC20/ERC20.sol\":12232:12269  currentAllowance != type(uint256).max */\n      dup2\n      eq\n        /* \"mintable-token/@openzeppelin/contracts/token/ERC20/ERC20.sol\":12228:12471  if (currentAllowance != type(uint256).max) {... */\n      tag_160\n      jumpi\n        /* \"mintable-token/@openzeppelin/contracts/token/ERC20/ERC20.sol\":12313:12319  amount */\n      dup2\n        /* \"mintable-token/@openzeppelin/contracts/token/ERC20/ERC20.sol\":12293:12309  currentAllowance */\n      dup2\n        /* \"mintable-token/@openzeppelin/contracts/token/ERC20/ERC20.sol\":12293:12319  currentAllowance >= amount */\n      lt\n      iszero\n        /* \"mintable-token/@openzeppelin/contracts/token/ERC20/ERC20.sol\":12285:12353  require(currentAllowance >= amount, \"ERC20: insufficient allowance\") */\n      tag_157\n      jumpi\n      mload(0x40)\n      0x08c379a000000000000000000000000000000000000000000000000000000000\n      dup2\n      mstore\n        /* \"#utility.yul\":5594:5596   */\n      0x20\n        /* \"mintable-token/@openzeppelin/contracts/token/ERC20/ERC20.sol\":12285:12353  require(currentAllowance >= amount, \"ERC20: insufficient allowance\") */\n      0x04\n      dup3\n      add\n        /* \"#utility.yul\":5576:5597   */\n      mstore\n        /* \"#utility.yul\":5633:5635   */\n      0x1d\n        /* \"#utility.yul\":5613:5631   */\n      0x24\n      dup3\n      add\n        /* \"#utility.yul\":5606:5636   */\n      mstore\n        /* \"#utility.yul\":5672:5703   */\n      0x45524332303a20696e73756666696369656e7420616c6c6f77616e6365000000\n        /* \"#utility.yul\":5652:5670   */\n      0x44\n      dup3\n      add\n        /* \"#utility.yul\":5645:5704   */\n      mstore\n        /* \"#utility.yul\":5721:5739   */\n      0x64\n      add\n        /* \"mintable-token/@openzeppelin/contracts/token/ERC20/ERC20.sol\":12285:12353  require(currentAllowance >= amount, \"ERC20: insufficient allowance\") */\n      tag_131\n        /* \"#utility.yul\":5392:5745   */\n      jump\n        /* \"mintable-token/@openzeppelin/contracts/token/ERC20/ERC20.sol\":12285:12353  require(currentAllowance >= amount, \"ERC20: insufficient allowance\") */\n    tag_157:\n        /* \"mintable-token/@openzeppelin/contracts/token/ERC20/ERC20.sol\":12395:12446  _approve(owner, spender, currentAllowance - amount) */\n      tag_160\n        /* \"mintable-token/@openzeppelin/contracts/token/ERC20/ERC20.sol\":12404:12409  owner */\n      dup5\n        /* \"mintable-token/@openzeppelin/contracts/token/ERC20/ERC20.sol\":12411:12418  spender */\n      dup5\n        /* \"mintable-token/@openzeppelin/contracts/token/ERC20/ERC20.sol\":12439:12445  amount */\n      dup5\n        /* \"mintable-token/@openzeppelin/contracts/token/ERC20/ERC20.sol\":12420:12436  currentAllowance */\n      dup5\n        /* \"mintable-token/@openzeppelin/contracts/token/ERC20/ERC20.sol\":12420:12445  currentAllowance - amount */\n      sub\n        /* \"mintable-token/@openzeppelin/contracts/token/ERC20/ERC20.sol\":12395:12403  _approve */\n      tag_93\n        /* \"mintable-token/@openzeppelin/contracts/token/ERC20/ERC20.sol\":12395:12446  _approve(owner, spender, currentAllowance - amount) */\n      jump\t// in\n    tag_160:\n        /* \"mintable-token/@openzeppelin/contracts/token/ERC20/ERC20.sol\":12156:12477  {... */\n      pop\n        /* \"mintable-token/@openzeppelin/contracts/token/ERC20/ERC20.sol\":12036:12477  function _spendAllowance(... */\n      pop\n      pop\n      pop\n      jump\t// out\n        /* \"mintable-token/@openzeppelin/contracts/token/ERC20/ERC20.sol\":8750:9401  function _transfer(... */\n    tag_100:\n        /* \"mintable-token/@openzeppelin/contracts/token/ERC20/ERC20.sol\":8876:8894  from != address(0) */\n      0xffffffffffffffffffffffffffffffffffffffff\n      dup4\n      and\n        /* \"mintable-token/@openzeppelin/contracts/token/ERC20/ERC20.sol\":8868:8936  require(from != address(0), \"ERC20: transfer from the zero address\") */\n      tag_162\n      jumpi\n      mload(0x40)\n      0x08c379a000000000000000000000000000000000000000000000000000000000\n      dup2\n      mstore\n        /* \"#utility.yul\":5952:5954   */\n      0x20\n        /* \"mintable-token/@openzeppelin/contracts/token/ERC20/ERC20.sol\":8868:8936  require(from != address(0), \"ERC20: transfer from the zero address\") */\n      0x04\n      dup3\n      add\n        /* \"#utility.yul\":5934:5955   */\n      mstore\n        /* \"#utility.yul\":5991:5993   */\n      0x25\n        /* \"#utility.yul\":5971:5989   */\n      0x24\n      dup3\n      add\n        /* \"#utility.yul\":5964:5994   */\n      mstore\n        /* \"#utility.yul\":6030:6064   */\n      0x45524332303a207472616e736665722066726f6d20746865207a65726f206164\n        /* \"#utility.yul\":6010:6028   */\n      0x44\n      dup3\n      add\n        /* \"#utility.yul\":6003:6065   */\n      mstore\n        /* \"#utility.yul\":6101:6108   */\n      0x6472657373000000000000000000000000000000000000000000000000000000\n        /* \"#utility.yul\":6081:6099   */\n      0x64\n      dup3\n      add\n        /* \"#utility.yul\":6074:6109   */\n      mstore\n        /* \"#utility.yul\":6126:6145   */\n      0x84\n      add\n        /* \"mintable-token/@openzeppelin/contracts/token/ERC20/ERC20.sol\":8868:8936  require(from != address(0), \"ERC20: transfer from the zero address\") */\n      tag_131\n        /* \"#utility.yul\":5750:6151   */\n      jump\n        /* \"mintable-token/@openzeppelin/contracts/token/ERC20/ERC20.sol\":8868:8936  require(from != address(0), \"ERC20: transfer from the zero address\") */\n    tag_162:\n        /* \"mintable-token/@openzeppelin/contracts/token/ERC20/ERC20.sol\":8954:8970  to != address(0) */\n      0xffffffffffffffffffffffffffffffffffffffff\n      dup3\n      and\n        /* \"mintable-token/@openzeppelin/contracts/token/ERC20/ERC20.sol\":8946:9010  require(to != address(0), \"ERC20: transfer to the zero address\") */\n      tag_165\n      jumpi\n      mload(0x40)\n      0x08c379a000000000000000000000000000000000000000000000000000000000\n      dup2\n      mstore\n        /* \"#utility.yul\":6358:6360   */\n      0x20\n        /* \"mintable-token/@openzeppelin/contracts/token/ERC20/ERC20.sol\":8946:9010  require(to != address(0), \"ERC20: transfer to the zero address\") */\n      0x04\n      dup3\n      add\n        /* \"#utility.yul\":6340:6361   */\n      mstore\n        /* \"#utility.yul\":6397:6399   */\n      0x23\n        /* \"#utility.yul\":6377:6395   */\n      0x24\n      dup3\n      add\n        /* \"#utility.yul\":6370:6400   */\n      mstore\n        /* \"#utility.yul\":6436:6470   */\n      0x45524332303a207472616e7366657220746f20746865207a65726f2061646472\n        /* \"#utility.yul\":6416:6434   */\n      0x44\n      dup3\n      add\n        /* \"#utility.yul\":6409:6471   */\n      mstore\n        /* \"#utility.yul\":6507:6512   */\n      0x6573730000000000000000000000000000000000000000000000000000000000\n        /* \"#utility.yul\":6487:6505   */\n      0x64\n      dup3\n      add\n        /* \"#utility.yul\":6480:6513   */\n      mstore\n        /* \"#utility.yul\":6530:6549   */\n      0x84\n      add\n        /* \"mintable-token/@openzeppelin/contracts/token/ERC20/ERC20.sol\":8946:9010  require(to != address(0), \"ERC20: transfer to the zero address\") */\n      tag_131\n        /* \"#utility.yul\":6156:6555   */\n      jump\n        /* \"mintable-token/@openzeppelin/contracts/token/ERC20/ERC20.sol\":8946:9010  require(to != address(0), \"ERC20: transfer to the zero address\") */\n    tag_165:\n        /* \"mintable-token/@openzeppelin/contracts/token/ERC20/ERC20.sol\":9092:9107  _balances[from] */\n      0xffffffffffffffffffffffffffffffffffffffff\n      dup4\n      and\n        /* \"mintable-token/@openzeppelin/contracts/token/ERC20/ERC20.sol\":9070:9089  uint256 fromBalance */\n      0x00\n        /* \"mintable-token/@openzeppelin/contracts/token/ERC20/ERC20.sol\":9092:9107  _balances[from] */\n      swap1\n      dup2\n      mstore\n      0x20\n      dup2\n      swap1\n      mstore\n      0x40\n      swap1\n      keccak256\n      sload\n        /* \"mintable-token/@openzeppelin/contracts/token/ERC20/ERC20.sol\":9125:9146  fromBalance >= amount */\n      dup2\n      dup2\n      lt\n      iszero\n        /* \"mintable-token/@openzeppelin/contracts/token/ERC20/ERC20.sol\":9117:9189  require(fromBalance >= amount, \"ERC20: transfer amount exceeds balance\") */\n      tag_170\n      jumpi\n      mload(0x40)\n      0x08c379a000000000000000000000000000000000000000000000000000000000\n      dup2\n      mstore\n        /* \"#utility.yul\":6762:6764   */\n      0x20\n        /* \"mintable-token/@openzeppelin/contracts/token/ERC20/ERC20.sol\":9117:9189  require(fromBalance >= amount, \"ERC20: transfer amount exceeds balance\") */\n      0x04\n      dup3\n      add\n        /* \"#utility.yul\":6744:6765   */\n      mstore\n        /* \"#utility.yul\":6801:6803   */\n      0x26\n        /* \"#utility.yul\":6781:6799   */\n      0x24\n      dup3\n      add\n        /* \"#utility.yul\":6774:6804   */\n      mstore\n        /* \"#utility.yul\":6840:6874   */\n      0x45524332303a207472616e7366657220616d6f756e7420657863656564732062\n        /* \"#utility.yul\":6820:6838   */\n      0x44\n      dup3\n      add\n        /* \"#utility.yul\":6813:6875   */\n      mstore\n        /* \"#utility.yul\":6911:6919   */\n      0x616c616e63650000000000000000000000000000000000000000000000000000\n        /* \"#utility.yul\":6891:6909   */\n      0x64\n      dup3\n      add\n        /* \"#utility.yul\":6884:6920   */\n      mstore\n        /* \"#utility.yul\":6937:6956   */\n      0x84\n      add\n        /* \"mintable-token/@openzeppelin/contracts/token/ERC20/ERC20.sol\":9117:9189  require(fromBalance >= amount, \"ERC20: transfer amount exceeds balance\") */\n      tag_131\n        /* \"#utility.yul\":6560:6962   */\n      jump\n        /* \"mintable-token/@openzeppelin/contracts/token/ERC20/ERC20.sol\":9117:9189  require(fromBalance >= amount, \"ERC20: transfer amount exceeds balance\") */\n    tag_170:\n        /* \"mintable-token/@openzeppelin/contracts/token/ERC20/ERC20.sol\":9223:9238  _balances[from] */\n      0xffffffffffffffffffffffffffffffffffffffff\n      dup1\n      dup6\n      and\n        /* \"mintable-token/@openzeppelin/contracts/token/ERC20/ERC20.sol\":9223:9232  _balances */\n      0x00\n        /* \"mintable-token/@openzeppelin/contracts/token/ERC20/ERC20.sol\":9223:9238  _balances[from] */\n      swap1\n      dup2\n      mstore\n      0x20\n      dup2\n      swap1\n      mstore\n      0x40\n      dup1\n      dup3\n      keccak256\n        /* \"mintable-token/@openzeppelin/contracts/token/ERC20/ERC20.sol\":9241:9261  fromBalance - amount */\n      dup6\n      dup6\n      sub\n        /* \"mintable-token/@openzeppelin/contracts/token/ERC20/ERC20.sol\":9223:9261  _balances[from] = fromBalance - amount */\n      swap1\n      sstore\n        /* \"mintable-token/@openzeppelin/contracts/token/ERC20/ERC20.sol\":9281:9294  _balances[to] */\n      swap2\n      dup6\n      and\n      dup2\n      mstore\n      swap1\n      dup2\n      keccak256\n        /* \"mintable-token/@openzeppelin/contracts/token/ERC20/ERC20.sol\":9281:9304  _balances[to] += amount */\n      dup1\n      sload\n        /* \"mintable-token/@openzeppelin/contracts/token/ERC20/ERC20.sol\":9255:9261  amount */\n      dup5\n      swap3\n        /* \"mintable-token/@openzeppelin/contracts/token/ERC20/ERC20.sol\":9223:9232  _balances */\n      swap1\n        /* \"mintable-token/@openzeppelin/contracts/token/ERC20/ERC20.sol\":9281:9304  _balances[to] += amount */\n      tag_173\n      swap1\n        /* \"mintable-token/@openzeppelin/contracts/token/ERC20/ERC20.sol\":9255:9261  amount */\n      dup5\n      swap1\n        /* \"mintable-token/@openzeppelin/contracts/token/ERC20/ERC20.sol\":9281:9304  _balances[to] += amount */\n      tag_107\n      jump\t// in\n    tag_173:\n      swap3\n      pop\n      pop\n      dup2\n      swap1\n      sstore\n      pop\n        /* \"mintable-token/@openzeppelin/contracts/token/ERC20/ERC20.sol\":9335:9337  to */\n      dup3\n        /* \"mintable-token/@openzeppelin/contracts/token/ERC20/ERC20.sol\":9320:9346  Transfer(from, to, amount) */\n      0xffffffffffffffffffffffffffffffffffffffff\n      and\n        /* \"mintable-token/@openzeppelin/contracts/token/ERC20/ERC20.sol\":9329:9333  from */\n      dup5\n        /* \"mintable-token/@openzeppelin/contracts/token/ERC20/ERC20.sol\":9320:9346  Transfer(from, to, amount) */\n      0xffffffffffffffffffffffffffffffffffffffff\n      and\n      0xddf252ad1be2c89b69c2b068fc378daa952ba7f163c4a11628f55a4df523b3ef\n        /* \"mintable-token/@openzeppelin/contracts/token/ERC20/ERC20.sol\":9339:9345  amount */\n      dup5\n        /* \"mintable-token/@openzeppelin/contracts/token/ERC20/ERC20.sol\":9320:9346  Transfer(from, to, amount) */\n      mload(0x40)\n      tag_174\n      swap2\n        /* \"#utility.yul\":1449:1474   */\n      dup2\n      mstore\n        /* \"#utility.yul\":1437:1439   */\n      0x20\n        /* \"#utility.yul\":1422:1440   */\n      add\n      swap1\n        /* \"#utility.yul\":1303:1480   */\n      jump\n        /* \"mintable-token/@openzeppelin/contracts/token/ERC20/ERC20.sol\":9320:9346  Transfer(from, to, amount) */\n    tag_174:\n      mload(0x40)\n      dup1\n      swap2\n      sub\n      swap1\n      log3\n        /* \"mintable-token/@openzeppelin/contracts/token/ERC20/ERC20.sol\":9357:9394  _afterTokenTransfer(from, to, amount) */\n      tag_160\n        /* \"mintable-token/@openzeppelin/contracts/token/ERC20/ERC20.sol\":13061:13182  function _beforeTokenTransfer(... */\n      jump\n        /* \"mintable-token/@openzeppelin/contracts/access/Ownable.sol\":2634:2764  function _checkOwner() internal view virtual {... */\n    tag_111:\n        /* \"mintable-token/@openzeppelin/contracts/access/Ownable.sol\":2548:2554  _owner */\n      sload(0x05)\n        /* \"mintable-token/@openzeppelin/contracts/access/Ownable.sol\":2697:2720  owner() == _msgSender() */\n      0xffffffffffffffffffffffffffffffffffffffff\n        /* \"mintable-token/@openzeppelin/contracts/access/Ownable.sol\":2548:2554  _owner */\n      and\n        /* \"mintable-token/@openzeppelin/contracts/utils/Context.sol\":1994:2004  msg.sender */\n      caller\n        /* \"mintable-token/@openzeppelin/contracts/access/Ownable.sol\":2697:2720  owner() == _msgSender() */\n      eq\n        /* \"mintable-token/@openzeppelin/contracts/access/Ownable.sol\":2689:2757  require(owner() == _msgSender(), \"Ownable: caller is not the owner\") */\n      tag_113\n      jumpi\n      mload(0x40)\n      0x08c379a000000000000000000000000000000000000000000000000000000000\n      dup2\n      mstore\n        /* \"#utility.yul\":7169:7171   */\n      0x20\n        /* \"mintable-token/@openzeppelin/contracts/access/Ownable.sol\":2689:2757  require(owner() == _msgSender(), \"Ownable: caller is not the owner\") */\n      0x04\n      dup3\n      add\n        /* \"#utility.yul\":7151:7172   */\n      dup2\n      swap1\n      mstore\n        /* \"#utility.yul\":7188:7206   */\n      0x24\n      dup3\n      add\n        /* \"#utility.yul\":7181:7211   */\n      mstore\n        /* \"#utility.yul\":7247:7281   */\n      0x4f776e61626c653a2063616c6c6572206973206e6f7420746865206f776e6572\n        /* \"#utility.yul\":7227:7245   */\n      0x44\n      dup3\n      add\n        /* \"#utility.yul\":7220:7282   */\n      mstore\n        /* \"#utility.yul\":7299:7317   */\n      0x64\n      add\n        /* \"mintable-token/@openzeppelin/contracts/access/Ownable.sol\":2689:2757  require(owner() == _msgSender(), \"Ownable: caller is not the owner\") */\n      tag_131\n        /* \"#utility.yul\":6967:7323   */\n      jump\n        /* \"mintable-token/@openzeppelin/contracts/access/Ownable.sol\":3708:3895  function _transferOwnership(address newOwner) internal virtual {... */\n    tag_114:\n        /* \"mintable-token/@openzeppelin/contracts/access/Ownable.sol\":3800:3806  _owner */\n      0x05\n      dup1\n      sload\n      0xffffffffffffffffffffffffffffffffffffffff\n        /* \"mintable-token/@openzeppelin/contracts/access/Ownable.sol\":3816:3833  _owner = newOwner */\n      dup4\n      dup2\n      and\n      0xffffffffffffffffffffffff0000000000000000000000000000000000000000\n      dup4\n      and\n      dup2\n      or\n      swap1\n      swap4\n      sstore\n        /* \"mintable-token/@openzeppelin/contracts/access/Ownable.sol\":3848:3888  OwnershipTransferred(oldOwner, newOwner) */\n      mload(0x40)\n        /* \"mintable-token/@openzeppelin/contracts/access/Ownable.sol\":3800:3806  _owner */\n      swap2\n      and\n      swap2\n        /* \"mintable-token/@openzeppelin/contracts/access/Ownable.sol\":3816:3833  _owner = newOwner */\n      swap1\n        /* \"mintable-token/@openzeppelin/contracts/access/Ownable.sol\":3800:3806  _owner */\n      dup3\n      swap1\n        /* \"mintable-token/@openzeppelin/contracts/access/Ownable.sol\":3848:3888  OwnershipTransferred(oldOwner, newOwner) */\n      0x8be0079c531659141344cd1fd0a4f28419497f9722a3daafe3b4186f6b6457e0\n      swap1\n        /* \"mintable-token/@openzeppelin/contracts/access/Ownable.sol\":3781:3797  address oldOwner */\n      0x00\n      swap1\n        /* \"mintable-token/@openzeppelin/contracts/access/Ownable.sol\":3848:3888  OwnershipTransferred(oldOwner, newOwner) */\n      log3\n        /* \"mintable-token/@openzeppelin/contracts/access/Ownable.sol\":3771:3895  {... */\n      pop\n        /* \"mintable-token/@openzeppelin/contracts/access/Ownable.sol\":3708:3895  function _transferOwnership(address newOwner) internal virtual {... */\n      pop\n      jump\t// out\n        /* \"mintable-token/@openzeppelin/contracts/token/ERC20/ERC20.sol\":9677:10066  function _mint(address account, uint256 amount) internal virtual {... */\n    tag_120:\n        /* \"mintable-token/@openzeppelin/contracts/token/ERC20/ERC20.sol\":9760:9781  account != address(0) */\n      0xffffffffffffffffffffffffffffffffffffffff\n      dup3\n      and\n        /* \"mintable-token/@openzeppelin/contracts/token/ERC20/ERC20.sol\":9752:9817  require(account != address(0), \"ERC20: mint to the zero address\") */\n      tag_185\n      jumpi\n      mload(0x40)\n      0x08c379a000000000000000000000000000000000000000000000000000000000\n      dup2\n      mstore\n        /* \"#utility.yul\":7530:7532   */\n      0x20\n        /* \"mintable-token/@openzeppelin/contracts/token/ERC20/ERC20.sol\":9752:9817  require(account != address(0), \"ERC20: mint to the zero address\") */\n      0x04\n      dup3\n      add\n        /* \"#utility.yul\":7512:7533   */\n      mstore\n        /* \"#utility.yul\":7569:7571   */\n      0x1f\n        /* \"#utility.yul\":7549:7567   */\n      0x24\n      dup3\n      add\n        /* \"#utility.yul\":7542:7572   */\n      mstore\n        /* \"#utility.yul\":7608:7641   */\n      0x45524332303a206d696e7420746f20746865207a65726f206164647265737300\n        /* \"#utility.yul\":7588:7606   */\n      0x44\n      dup3\n      add\n        /* \"#utility.yul\":7581:7642   */\n      mstore\n        /* \"#utility.yul\":7659:7677   */\n      0x64\n      add\n        /* \"mintable-token/@openzeppelin/contracts/token/ERC20/ERC20.sol\":9752:9817  require(account != address(0), \"ERC20: mint to the zero address\") */\n      tag_131\n        /* \"#utility.yul\":7328:7683   */\n      jump\n        /* \"mintable-token/@openzeppelin/contracts/token/ERC20/ERC20.sol\":9752:9817  require(account != address(0), \"ERC20: mint to the zero address\") */\n    tag_185:\n        /* \"mintable-token/@openzeppelin/contracts/token/ERC20/ERC20.sol\":9904:9910  amount */\n      dup1\n        /* \"mintable-token/@openzeppelin/contracts/token/ERC20/ERC20.sol\":9888:9900  _totalSupply */\n      0x02\n      0x00\n        /* \"mintable-token/@openzeppelin/contracts/token/ERC20/ERC20.sol\":9888:9910  _totalSupply += amount */\n      dup3\n      dup3\n      sload\n      tag_189\n      swap2\n      swap1\n      tag_107\n      jump\t// in\n    tag_189:\n      swap1\n      swap2\n      sstore\n      pop\n      pop\n        /* \"mintable-token/@openzeppelin/contracts/token/ERC20/ERC20.sol\":9920:9938  _balances[account] */\n      0xffffffffffffffffffffffffffffffffffffffff\n      dup3\n      and\n        /* \"mintable-token/@openzeppelin/contracts/token/ERC20/ERC20.sol\":9920:9929  _balances */\n      0x00\n        /* \"mintable-token/@openzeppelin/contracts/token/ERC20/ERC20.sol\":9920:9938  _balances[account] */\n      swap1\n      dup2\n      mstore\n      0x20\n      dup2\n      swap1\n      mstore\n      0x40\n      dup2\n      keccak256\n        /* \"mintable-token/@openzeppelin/contracts/token/ERC20/ERC20.sol\":9920:9948  _balances[account] += amount */\n      dup1\n      sload\n        /* \"mintable-token/@openzeppelin/contracts/token/ERC20/ERC20.sol\":9942:9948  amount */\n      dup4\n      swap3\n        /* \"mintable-token/@openzeppelin/contracts/token/ERC20/ERC20.sol\":9920:9929  _balances */\n      swap1\n        /* \"mintable-token/@openzeppelin/contracts/token/ERC20/ERC20.sol\":9920:9948  _balances[account] += amount */\n      tag_190\n      swap1\n        /* \"mintable-token/@openzeppelin/contracts/token/ERC20/ERC20.sol\":9942:9948  amount */\n      dup5\n      swap1\n        /* \"mintable-token/@openzeppelin/contracts/token/ERC20/ERC20.sol\":9920:9948  _balances[account] += amount */\n      tag_107\n      jump\t// in\n    tag_190:\n      swap1\n      swap2\n      sstore\n      pop\n      pop\n        /* \"mintable-token/@openzeppelin/contracts/token/ERC20/ERC20.sol\":9963:10000  Transfer(address(0), account, amount) */\n      mload(0x40)\n        /* \"#utility.yul\":1449:1474   */\n      dup2\n      dup2\n      mstore\n        /* \"mintable-token/@openzeppelin/contracts/token/ERC20/ERC20.sol\":9963:10000  Transfer(address(0), account, amount) */\n      0xffffffffffffffffffffffffffffffffffffffff\n      dup4\n      and\n      swap1\n        /* \"mintable-token/@openzeppelin/contracts/token/ERC20/ERC20.sol\":9980:9981  0 */\n      0x00\n      swap1\n        /* \"mintable-token/@openzeppelin/contracts/token/ERC20/ERC20.sol\":9963:10000  Transfer(address(0), account, amount) */\n      0xddf252ad1be2c89b69c2b068fc378daa952ba7f163c4a11628f55a4df523b3ef\n      swap1\n        /* \"#utility.yul\":1437:1439   */\n      0x20\n        /* \"#utility.yul\":1422:1440   */\n      add\n        /* \"mintable-token/@openzeppelin/contracts/token/ERC20/ERC20.sol\":9963:10000  Transfer(address(0), account, amount) */\n      mload(0x40)\n      dup1\n      swap2\n      sub\n      swap1\n      log3\n        /* \"mintable-token(copy)(copy)/mintable-token.sol\":2459:2554  function mint(uint256 amount, address to) external onlyOwner {... */\n      pop\n      pop\n      jump\t// out\n        /* \"#utility.yul\":14:600   */\n    tag_24:\n        /* \"#utility.yul\":163:165   */\n      0x20\n        /* \"#utility.yul\":152:161   */\n      dup2\n        /* \"#utility.yul\":145:166   */\n      mstore\n        /* \"#utility.yul\":126:130   */\n      0x00\n        /* \"#utility.yul\":195:201   */\n      dup3\n        /* \"#utility.yul\":189:202   */\n      mload\n        /* \"#utility.yul\":238:244   */\n      dup1\n        /* \"#utility.yul\":233:235   */\n      0x20\n        /* \"#utility.yul\":222:231   */\n      dup5\n        /* \"#utility.yul\":218:236   */\n      add\n        /* \"#utility.yul\":211:245   */\n      mstore\n        /* \"#utility.yul\":263:264   */\n      0x00\n        /* \"#utility.yul\":273:413   */\n    tag_198:\n        /* \"#utility.yul\":287:293   */\n      dup2\n        /* \"#utility.yul\":284:285   */\n      dup2\n        /* \"#utility.yul\":281:294   */\n      lt\n        /* \"#utility.yul\":273:413   */\n      iszero\n      tag_200\n      jumpi\n        /* \"#utility.yul\":398:400   */\n      0x20\n        /* \"#utility.yul\":382:396   */\n      dup2\n      dup7\n      add\n        /* \"#utility.yul\":378:401   */\n      dup2\n      add\n        /* \"#utility.yul\":372:402   */\n      mload\n        /* \"#utility.yul\":367:369   */\n      0x40\n        /* \"#utility.yul\":348:365   */\n      dup7\n      dup5\n      add\n        /* \"#utility.yul\":344:370   */\n      add\n        /* \"#utility.yul\":337:403   */\n      mstore\n        /* \"#utility.yul\":302:312   */\n      add\n        /* \"#utility.yul\":273:413   */\n      jump(tag_198)\n    tag_200:\n        /* \"#utility.yul\":277:280   */\n      pop\n        /* \"#utility.yul\":462:463   */\n      0x00\n        /* \"#utility.yul\":457:459   */\n      0x40\n        /* \"#utility.yul\":448:454   */\n      dup3\n        /* \"#utility.yul\":437:446   */\n      dup6\n        /* \"#utility.yul\":433:455   */\n      add\n        /* \"#utility.yul\":429:460   */\n      add\n        /* \"#utility.yul\":422:464   */\n      mstore\n        /* \"#utility.yul\":591:593   */\n      0x40\n        /* \"#utility.yul\":521:587   */\n      0xffffffffffffffffffffffffffffffffffffffffffffffffffffffffffffffe0\n        /* \"#utility.yul\":516:518   */\n      0x1f\n        /* \"#utility.yul\":508:514   */\n      dup4\n        /* \"#utility.yul\":504:519   */\n      add\n        /* \"#utility.yul\":500:588   */\n      and\n        /* \"#utility.yul\":489:498   */\n      dup5\n        /* \"#utility.yul\":485:589   */\n      add\n        /* \"#utility.yul\":481:594   */\n      add\n        /* \"#utility.yul\":473:594   */\n      swap2\n      pop\n      pop\n        /* \"#utility.yul\":14:600   */\n      swap3\n      swap2\n      pop\n      pop\n      jump\t// out\n        /* \"#utility.yul\":605:801   */\n    tag_195:\n        /* \"#utility.yul\":673:693   */\n      dup1\n      calldataload\n        /* \"#utility.yul\":733:775   */\n      0xffffffffffffffffffffffffffffffffffffffff\n        /* \"#utility.yul\":722:776   */\n      dup2\n      and\n        /* \"#utility.yul\":712:777   */\n      dup2\n      eq\n        /* \"#utility.yul\":702:795   */\n      tag_202\n      jumpi\n        /* \"#utility.yul\":791:792   */\n      0x00\n        /* \"#utility.yul\":788:789   */\n      dup1\n        /* \"#utility.yul\":781:793   */\n      revert\n        /* \"#utility.yul\":702:795   */\n    tag_202:\n        /* \"#utility.yul\":605:801   */\n      swap2\n      swap1\n      pop\n      jump\t// out\n        /* \"#utility.yul\":806:1106   */\n    tag_27:\n        /* \"#utility.yul\":874:880   */\n      0x00\n        /* \"#utility.yul\":882:888   */\n      dup1\n        /* \"#utility.yul\":935:937   */\n      0x40\n        /* \"#utility.yul\":923:932   */\n      dup4\n        /* \"#utility.yul\":914:921   */\n      dup6\n        /* \"#utility.yul\":910:933   */\n      sub\n        /* \"#utility.yul\":906:938   */\n      slt\n        /* \"#utility.yul\":903:955   */\n      iszero\n      tag_204\n      jumpi\n        /* \"#utility.yul\":951:952   */\n      0x00\n        /* \"#utility.yul\":948:949   */\n      dup1\n        /* \"#utility.yul\":941:953   */\n      revert\n        /* \"#utility.yul\":903:955   */\n    tag_204:\n        /* \"#utility.yul\":974:1003   */\n      tag_205\n        /* \"#utility.yul\":993:1002   */\n      dup4\n        /* \"#utility.yul\":974:1003   */\n      tag_195\n      jump\t// in\n    tag_205:\n        /* \"#utility.yul\":964:1003   */\n      swap5\n        /* \"#utility.yul\":1072:1074   */\n      0x20\n        /* \"#utility.yul\":1057:1075   */\n      swap4\n      swap1\n      swap4\n      add\n        /* \"#utility.yul\":1044:1076   */\n      calldataload\n      swap4\n      pop\n      pop\n      pop\n        /* \"#utility.yul\":806:1106   */\n      jump\t// out\n        /* \"#utility.yul\":1485:1859   */\n    tag_37:\n        /* \"#utility.yul\":1562:1568   */\n      0x00\n        /* \"#utility.yul\":1570:1576   */\n      dup1\n        /* \"#utility.yul\":1578:1584   */\n      0x00\n        /* \"#utility.yul\":1631:1633   */\n      0x60\n        /* \"#utility.yul\":1619:1628   */\n      dup5\n        /* \"#utility.yul\":1610:1617   */\n      dup7\n        /* \"#utility.yul\":1606:1629   */\n      sub\n        /* \"#utility.yul\":1602:1634   */\n      slt\n        /* \"#utility.yul\":1599:1651   */\n      iszero\n      tag_209\n      jumpi\n        /* \"#utility.yul\":1647:1648   */\n      0x00\n        /* \"#utility.yul\":1644:1645   */\n      dup1\n        /* \"#utility.yul\":1637:1649   */\n      revert\n        /* \"#utility.yul\":1599:1651   */\n    tag_209:\n        /* \"#utility.yul\":1670:1699   */\n      tag_210\n        /* \"#utility.yul\":1689:1698   */\n      dup5\n        /* \"#utility.yul\":1670:1699   */\n      tag_195\n      jump\t// in\n    tag_210:\n        /* \"#utility.yul\":1660:1699   */\n      swap3\n      pop\n        /* \"#utility.yul\":1718:1756   */\n      tag_211\n        /* \"#utility.yul\":1752:1754   */\n      0x20\n        /* \"#utility.yul\":1741:1750   */\n      dup6\n        /* \"#utility.yul\":1737:1755   */\n      add\n        /* \"#utility.yul\":1718:1756   */\n      tag_195\n      jump\t// in\n    tag_211:\n        /* \"#utility.yul\":1485:1859   */\n      swap3\n      swap6\n        /* \"#utility.yul\":1708:1756   */\n      swap3\n      swap5\n      pop\n      pop\n      pop\n        /* \"#utility.yul\":1825:1827   */\n      0x40\n        /* \"#utility.yul\":1810:1828   */\n      swap2\n      swap1\n      swap2\n      add\n        /* \"#utility.yul\":1797:1829   */\n      calldataload\n      swap1\n        /* \"#utility.yul\":1485:1859   */\n      jump\t// out\n        /* \"#utility.yul\":2053:2239   */\n    tag_50:\n        /* \"#utility.yul\":2112:2118   */\n      0x00\n        /* \"#utility.yul\":2165:2167   */\n      0x20\n        /* \"#utility.yul\":2153:2162   */\n      dup3\n        /* \"#utility.yul\":2144:2151   */\n      dup5\n        /* \"#utility.yul\":2140:2163   */\n      sub\n        /* \"#utility.yul\":2136:2168   */\n      slt\n        /* \"#utility.yul\":2133:2185   */\n      iszero\n      tag_214\n      jumpi\n        /* \"#utility.yul\":2181:2182   */\n      0x00\n        /* \"#utility.yul\":2178:2179   */\n      dup1\n        /* \"#utility.yul\":2171:2183   */\n      revert\n        /* \"#utility.yul\":2133:2185   */\n    tag_214:\n        /* \"#utility.yul\":2204:2233   */\n      tag_215\n        /* \"#utility.yul\":2223:2232   */\n      dup3\n        /* \"#utility.yul\":2204:2233   */\n      tag_195\n      jump\t// in\n    tag_215:\n        /* \"#utility.yul\":2194:2233   */\n      swap4\n        /* \"#utility.yul\":2053:2239   */\n      swap3\n      pop\n      pop\n      pop\n      jump\t// out\n        /* \"#utility.yul\":2475:2775   */\n    tag_61:\n        /* \"#utility.yul\":2543:2549   */\n      0x00\n        /* \"#utility.yul\":2551:2557   */\n      dup1\n        /* \"#utility.yul\":2604:2606   */\n      0x40\n        /* \"#utility.yul\":2592:2601   */\n      dup4\n        /* \"#utility.yul\":2583:2590   */\n      dup6\n        /* \"#utility.yul\":2579:2602   */\n      sub\n        /* \"#utility.yul\":2575:2607   */\n      slt\n        /* \"#utility.yul\":2572:2624   */\n      iszero\n      tag_218\n      jumpi\n        /* \"#utility.yul\":2620:2621   */\n      0x00\n        /* \"#utility.yul\":2617:2618   */\n      dup1\n        /* \"#utility.yul\":2610:2622   */\n      revert\n        /* \"#utility.yul\":2572:2624   */\n    tag_218:\n        /* \"#utility.yul\":2665:2688   */\n      dup3\n      calldataload\n      swap2\n      pop\n        /* \"#utility.yul\":2731:2769   */\n      tag_219\n        /* \"#utility.yul\":2765:2767   */\n      0x20\n        /* \"#utility.yul\":2750:2768   */\n      dup5\n      add\n        /* \"#utility.yul\":2731:2769   */\n      tag_195\n      jump\t// in\n    tag_219:\n        /* \"#utility.yul\":2721:2769   */\n      swap1\n      pop\n        /* \"#utility.yul\":2475:2775   */\n      swap3\n      pop\n      swap3\n      swap1\n      pop\n      jump\t// out\n        /* \"#utility.yul\":2780:3040   */\n    tag_76:\n        /* \"#utility.yul\":2848:2854   */\n      0x00\n        /* \"#utility.yul\":2856:2862   */\n      dup1\n        /* \"#utility.yul\":2909:2911   */\n      0x40\n        /* \"#utility.yul\":2897:2906   */\n      dup4\n        /* \"#utility.yul\":2888:2895   */\n      dup6\n        /* \"#utility.yul\":2884:2907   */\n      sub\n        /* \"#utility.yul\":2880:2912   */\n      slt\n        /* \"#utility.yul\":2877:2929   */\n      iszero\n      tag_221\n      jumpi\n        /* \"#utility.yul\":2925:2926   */\n      0x00\n        /* \"#utility.yul\":2922:2923   */\n      dup1\n        /* \"#utility.yul\":2915:2927   */\n      revert\n        /* \"#utility.yul\":2877:2929   */\n    tag_221:\n        /* \"#utility.yul\":2948:2977   */\n      tag_222\n        /* \"#utility.yul\":2967:2976   */\n      dup4\n        /* \"#utility.yul\":2948:2977   */\n      tag_195\n      jump\t// in\n    tag_222:\n        /* \"#utility.yul\":2938:2977   */\n      swap2\n      pop\n        /* \"#utility.yul\":2996:3034   */\n      tag_219\n        /* \"#utility.yul\":3030:3032   */\n      0x20\n        /* \"#utility.yul\":3019:3028   */\n      dup5\n        /* \"#utility.yul\":3015:3033   */\n      add\n        /* \"#utility.yul\":2996:3034   */\n      tag_195\n      jump\t// in\n        /* \"#utility.yul\":3045:3482   */\n    tag_84:\n        /* \"#utility.yul\":3124:3125   */\n      0x01\n        /* \"#utility.yul\":3120:3132   */\n      dup2\n      dup2\n      shr\n      swap1\n        /* \"#utility.yul\":3167:3179   */\n      dup3\n      and\n      dup1\n        /* \"#utility.yul\":3188:3249   */\n      tag_225\n      jumpi\n        /* \"#utility.yul\":3242:3246   */\n      0x7f\n        /* \"#utility.yul\":3234:3240   */\n      dup3\n        /* \"#utility.yul\":3230:3247   */\n      and\n        /* \"#utility.yul\":3220:3247   */\n      swap2\n      pop\n        /* \"#utility.yul\":3188:3249   */\n    tag_225:\n        /* \"#utility.yul\":3295:3297   */\n      0x20\n        /* \"#utility.yul\":3287:3293   */\n      dup3\n        /* \"#utility.yul\":3284:3298   */\n      lt\n        /* \"#utility.yul\":3264:3282   */\n      dup2\n        /* \"#utility.yul\":3261:3299   */\n      sub\n        /* \"#utility.yul\":3258:3476   */\n      tag_226\n      jumpi\n        /* \"#utility.yul\":3332:3409   */\n      0x4e487b7100000000000000000000000000000000000000000000000000000000\n        /* \"#utility.yul\":3329:3330   */\n      0x00\n        /* \"#utility.yul\":3322:3410   */\n      mstore\n        /* \"#utility.yul\":3433:3437   */\n      0x22\n        /* \"#utility.yul\":3430:3431   */\n      0x04\n        /* \"#utility.yul\":3423:3438   */\n      mstore\n        /* \"#utility.yul\":3461:3465   */\n      0x24\n        /* \"#utility.yul\":3458:3459   */\n      0x00\n        /* \"#utility.yul\":3451:3466   */\n      revert\n        /* \"#utility.yul\":3258:3476   */\n    tag_226:\n      pop\n        /* \"#utility.yul\":3045:3482   */\n      swap2\n      swap1\n      pop\n      jump\t// out\n        /* \"#utility.yul\":3487:3766   */\n    tag_107:\n        /* \"#utility.yul\":3552:3561   */\n      dup1\n      dup3\n      add\n        /* \"#utility.yul\":3573:3583   */\n      dup1\n      dup3\n      gt\n        /* \"#utility.yul\":3570:3760   */\n      iszero\n      tag_89\n      jumpi\n        /* \"#utility.yul\":3616:3693   */\n      0x4e487b7100000000000000000000000000000000000000000000000000000000\n        /* \"#utility.yul\":3613:3614   */\n      0x00\n        /* \"#utility.yul\":3606:3694   */\n      mstore\n        /* \"#utility.yul\":3717:3721   */\n      0x11\n        /* \"#utility.yul\":3714:3715   */\n      0x04\n        /* \"#utility.yul\":3707:3722   */\n      mstore\n        /* \"#utility.yul\":3745:3749   */\n      0x24\n        /* \"#utility.yul\":3742:3743   */\n      0x00\n        /* \"#utility.yul\":3735:3750   */\n      revert\n\n    auxdata: 0xa26469706673582212207dcbdb53e8ac3c556a88362276b015fb0ed42716854840cfe5816ff65c57ed1364736f6c634300081b0033\n}\n",
				"bytecode": {
					"linkReferences": {},
					"object": "608060405260405161134d38038061134d8339810160408190526100229161025f565b828260036100308382610359565b50600461003d8282610359565b50505061005661005161006860201b60201c565b61006c565b61006033826100be565b50505061043e565b3390565b600580546001600160a01b038381166001600160a01b0319831681179093556040519116919082907f8be0079c531659141344cd1fd0a4f28419497f9722a3daafe3b4186f6b6457e090600090a35050565b6001600160a01b0382166101185760405162461bcd60e51b815260206004820152601f60248201527f45524332303a206d696e7420746f20746865207a65726f206164647265737300604482015260640160405180910390fd5b806002600082825461012a9190610417565b90915550506001600160a01b03821660009081526020819052604081208054839290610157908490610417565b90915550506040518181526001600160a01b038316906000907fddf252ad1be2c89b69c2b068fc378daa952ba7f163c4a11628f55a4df523b3ef9060200160405180910390a35050565b505050565b634e487b7160e01b600052604160045260246000fd5b600082601f8301126101cd57600080fd5b81516001600160401b038111156101e6576101e66101a6565b604051601f8201601f19908116603f011681016001600160401b0381118282101715610214576102146101a6565b60405281815283820160200185101561022c57600080fd5b60005b8281101561024b5760208186018101518383018201520161022f565b506000918101602001919091529392505050565b60008060006060848603121561027457600080fd5b83516001600160401b0381111561028a57600080fd5b610296868287016101bc565b602086015190945090506001600160401b038111156102b457600080fd5b6102c0868287016101bc565b925050604084015190509250925092565b600181811c908216806102e557607f821691505b60208210810361030557634e487b7160e01b600052602260045260246000fd5b50919050565b601f8211156101a157806000526020600020601f840160051c810160208510156103325750805b601f840160051c820191505b81811015610352576000815560010161033e565b5050505050565b81516001600160401b03811115610372576103726101a6565b6103868161038084546102d1565b8461030b565b6020601f8211600181146103ba57600083156103a25750848201515b600019600385901b1c1916600184901b178455610352565b600084815260208120601f198516915b828110156103ea57878501518255602094850194600190920191016103ca565b50848210156104085786840151600019600387901b60f8161c191681555b50505050600190811b01905550565b8082018082111561043857634e487b7160e01b600052601160045260246000fd5b92915050565b610f008061044d6000396000f3fe608060405234801561001057600080fd5b50600436106100f55760003560e01c8063715018a611610097578063a457c2d711610066578063a457c2d714610205578063a9059cbb14610218578063dd62ed3e1461022b578063f2fde38b1461027157600080fd5b8063715018a6146101b85780638da5cb5b146101c257806394bf804d146101ea57806395d89b41146101fd57600080fd5b806323b872dd116100d357806323b872dd1461014d578063313ce56714610160578063395093511461016f57806370a082311461018257600080fd5b806306fdde03146100fa578063095ea7b31461011857806318160ddd1461013b575b600080fd5b610102610284565b60405161010f9190610cc9565b60405180910390f35b61012b610126366004610d5e565b610316565b604051901515815260200161010f565b6002545b60405190815260200161010f565b61012b61015b366004610d88565b610330565b6040516012815260200161010f565b61012b61017d366004610d5e565b610354565b61013f610190366004610dc5565b73ffffffffffffffffffffffffffffffffffffffff1660009081526020819052604090205490565b6101c06103a0565b005b60055460405173ffffffffffffffffffffffffffffffffffffffff909116815260200161010f565b6101c06101f8366004610de7565b6103b4565b6101026103ca565b61012b610213366004610d5e565b6103d9565b61012b610226366004610d5e565b6104af565b61013f610239366004610e13565b73ffffffffffffffffffffffffffffffffffffffff918216600090815260016020908152604080832093909416825291909152205490565b6101c061027f366004610dc5565b6104bd565b60606003805461029390610e3d565b80601f01602080910402602001604051908101604052809291908181526020018280546102bf90610e3d565b801561030c5780601f106102e15761010080835404028352916020019161030c565b820191906000526020600020905b8154815290600101906020018083116102ef57829003601f168201915b5050505050905090565b600033610324818585610574565b60019150505b92915050565b60003361033e858285610727565b6103498585856107fe565b506001949350505050565b33600081815260016020908152604080832073ffffffffffffffffffffffffffffffffffffffff87168452909152812054909190610324908290869061039b908790610e90565b610574565b6103a8610ab1565b6103b26000610b32565b565b6103bc610ab1565b6103c68183610ba9565b5050565b60606004805461029390610e3d565b33600081815260016020908152604080832073ffffffffffffffffffffffffffffffffffffffff87168452909152812054909190838110156104a2576040517f08c379a000000000000000000000000000000000000000000000000000000000815260206004820152602560248201527f45524332303a2064656372656173656420616c6c6f77616e63652062656c6f7760448201527f207a65726f00000000000000000000000000000000000000000000000000000060648201526084015b60405180910390fd5b6103498286868403610574565b6000336103248185856107fe565b6104c5610ab1565b73ffffffffffffffffffffffffffffffffffffffff8116610568576040517f08c379a000000000000000000000000000000000000000000000000000000000815260206004820152602660248201527f4f776e61626c653a206e6577206f776e657220697320746865207a65726f206160448201527f64647265737300000000000000000000000000000000000000000000000000006064820152608401610499565b61057181610b32565b50565b73ffffffffffffffffffffffffffffffffffffffff8316610616576040517f08c379a0000000000000000000000000000000000000000000000000000000008152602060048201526024808201527f45524332303a20617070726f76652066726f6d20746865207a65726f2061646460448201527f72657373000000000000000000000000000000000000000000000000000000006064820152608401610499565b73ffffffffffffffffffffffffffffffffffffffff82166106b9576040517f08c379a000000000000000000000000000000000000000000000000000000000815260206004820152602260248201527f45524332303a20617070726f766520746f20746865207a65726f20616464726560448201527f73730000000000000000000000000000000000000000000000000000000000006064820152608401610499565b73ffffffffffffffffffffffffffffffffffffffff83811660008181526001602090815260408083209487168084529482529182902085905590518481527f8c5be1e5ebec7d5bd14f71427d1e84f3dd0314c0f7b2291e5b200ac8c7c3b925910160405180910390a3505050565b73ffffffffffffffffffffffffffffffffffffffff8381166000908152600160209081526040808320938616835292905220547fffffffffffffffffffffffffffffffffffffffffffffffffffffffffffffffff81146107f857818110156107eb576040517f08c379a000000000000000000000000000000000000000000000000000000000815260206004820152601d60248201527f45524332303a20696e73756666696369656e7420616c6c6f77616e63650000006044820152606401610499565b6107f88484848403610574565b50505050565b73ffffffffffffffffffffffffffffffffffffffff83166108a1576040517f08c379a000000000000000000000000000000000000000000000000000000000815260206004820152602560248201527f45524332303a207472616e736665722066726f6d20746865207a65726f20616460448201527f64726573730000000000000000000000000000000000000000000000000000006064820152608401610499565b73ffffffffffffffffffffffffffffffffffffffff8216610944576040517f08c379a000000000000000000000000000000000000000000000000000000000815260206004820152602360248201527f45524332303a207472616e7366657220746f20746865207a65726f206164647260448201527f65737300000000000000000000000000000000000000000000000000000000006064820152608401610499565b73ffffffffffffffffffffffffffffffffffffffff8316600090815260208190526040902054818110156109fa576040517f08c379a000000000000000000000000000000000000000000000000000000000815260206004820152602660248201527f45524332303a207472616e7366657220616d6f756e742065786365656473206260448201527f616c616e636500000000000000000000000000000000000000000000000000006064820152608401610499565b73ffffffffffffffffffffffffffffffffffffffff808516600090815260208190526040808220858503905591851681529081208054849290610a3e908490610e90565b925050819055508273ffffffffffffffffffffffffffffffffffffffff168473ffffffffffffffffffffffffffffffffffffffff167fddf252ad1be2c89b69c2b068fc378daa952ba7f163c4a11628f55a4df523b3ef84604051610aa491815260200190565b60405180910390a36107f8565b60055473ffffffffffffffffffffffffffffffffffffffff1633146103b2576040517f08c379a000000000000000000000000000000000000000000000000000000000815260206004820181905260248201527f4f776e61626c653a2063616c6c6572206973206e6f7420746865206f776e65726044820152606401610499565b6005805473ffffffffffffffffffffffffffffffffffffffff8381167fffffffffffffffffffffffff0000000000000000000000000000000000000000831681179093556040519116919082907f8be0079c531659141344cd1fd0a4f28419497f9722a3daafe3b4186f6b6457e090600090a35050565b73ffffffffffffffffffffffffffffffffffffffff8216610c26576040517f08c379a000000000000000000000000000000000000000000000000000000000815260206004820152601f60248201527f45524332303a206d696e7420746f20746865207a65726f2061646472657373006044820152606401610499565b8060026000828254610c389190610e90565b909155505073ffffffffffffffffffffffffffffffffffffffff821660009081526020819052604081208054839290610c72908490610e90565b909155505060405181815273ffffffffffffffffffffffffffffffffffffffff8316906000907fddf252ad1be2c89b69c2b068fc378daa952ba7f163c4a11628f55a4df523b3ef9060200160405180910390a35050565b602081526000825180602084015260005b81811015610cf75760208186018101516040868401015201610cda565b5060006040828501015260407fffffffffffffffffffffffffffffffffffffffffffffffffffffffffffffffe0601f83011684010191505092915050565b803573ffffffffffffffffffffffffffffffffffffffff81168114610d5957600080fd5b919050565b60008060408385031215610d7157600080fd5b610d7a83610d35565b946020939093013593505050565b600080600060608486031215610d9d57600080fd5b610da684610d35565b9250610db460208501610d35565b929592945050506040919091013590565b600060208284031215610dd757600080fd5b610de082610d35565b9392505050565b60008060408385031215610dfa57600080fd5b82359150610e0a60208401610d35565b90509250929050565b60008060408385031215610e2657600080fd5b610e2f83610d35565b9150610e0a60208401610d35565b600181811c90821680610e5157607f821691505b602082108103610e8a577f4e487b7100000000000000000000000000000000000000000000000000000000600052602260045260246000fd5b50919050565b8082018082111561032a577f4e487b7100000000000000000000000000000000000000000000000000000000600052601160045260246000fdfea26469706673582212207dcbdb53e8ac3c556a88362276b015fb0ed42716854840cfe5816ff65c57ed1364736f6c634300081b0033",
					"opcodes": "PUSH1 0x80 PUSH1 0x40 MSTORE PUSH1 0x40 MLOAD PUSH2 0x134D CODESIZE SUB DUP1 PUSH2 0x134D DUP4 CODECOPY DUP2 ADD PUSH1 0x40 DUP2 SWAP1 MSTORE PUSH2 0x22 SWAP2 PUSH2 0x25F JUMP JUMPDEST DUP3 DUP3 PUSH1 0x3 PUSH2 0x30 DUP4 DUP3 PUSH2 0x359 JUMP JUMPDEST POP PUSH1 0x4 PUSH2 0x3D DUP3 DUP3 PUSH2 0x359 JUMP JUMPDEST POP POP POP PUSH2 0x56 PUSH2 0x51 PUSH2 0x68 PUSH1 0x20 SHL PUSH1 0x20 SHR JUMP JUMPDEST PUSH2 0x6C JUMP JUMPDEST PUSH2 0x60 CALLER DUP3 PUSH2 0xBE JUMP JUMPDEST POP POP POP PUSH2 0x43E JUMP JUMPDEST CALLER SWAP1 JUMP JUMPDEST PUSH1 0x5 DUP1 SLOAD PUSH1 0x1 PUSH1 0x1 PUSH1 0xA0 SHL SUB DUP4 DUP2 AND PUSH1 0x1 PUSH1 0x1 PUSH1 0xA0 SHL SUB NOT DUP4 AND DUP2 OR SWAP1 SWAP4 SSTORE PUSH1 0x40 MLOAD SWAP2 AND SWAP2 SWAP1 DUP3 SWAP1 PUSH32 0x8BE0079C531659141344CD1FD0A4F28419497F9722A3DAAFE3B4186F6B6457E0 SWAP1 PUSH1 0x0 SWAP1 LOG3 POP POP JUMP JUMPDEST PUSH1 0x1 PUSH1 0x1 PUSH1 0xA0 SHL SUB DUP3 AND PUSH2 0x118 JUMPI PUSH1 0x40 MLOAD PUSH3 0x461BCD PUSH1 0xE5 SHL DUP2 MSTORE PUSH1 0x20 PUSH1 0x4 DUP3 ADD MSTORE PUSH1 0x1F PUSH1 0x24 DUP3 ADD MSTORE PUSH32 0x45524332303A206D696E7420746F20746865207A65726F206164647265737300 PUSH1 0x44 DUP3 ADD MSTORE PUSH1 0x64 ADD PUSH1 0x40 MLOAD DUP1 SWAP2 SUB SWAP1 REVERT JUMPDEST DUP1 PUSH1 0x2 PUSH1 0x0 DUP3 DUP3 SLOAD PUSH2 0x12A SWAP2 SWAP1 PUSH2 0x417 JUMP JUMPDEST SWAP1 SWAP2 SSTORE POP POP PUSH1 0x1 PUSH1 0x1 PUSH1 0xA0 SHL SUB DUP3 AND PUSH1 0x0 SWAP1 DUP2 MSTORE PUSH1 0x20 DUP2 SWAP1 MSTORE PUSH1 0x40 DUP2 KECCAK256 DUP1 SLOAD DUP4 SWAP3 SWAP1 PUSH2 0x157 SWAP1 DUP5 SWAP1 PUSH2 0x417 JUMP JUMPDEST SWAP1 SWAP2 SSTORE POP POP PUSH1 0x40 MLOAD DUP2 DUP2 MSTORE PUSH1 0x1 PUSH1 0x1 PUSH1 0xA0 SHL SUB DUP4 AND SWAP1 PUSH1 0x0 SWAP1 PUSH32 0xDDF252AD1BE2C89B69C2B068FC378DAA952BA7F163C4A11628F55A4DF523B3EF SWAP1 PUSH1 0x20 ADD PUSH1 0x40 MLOAD DUP1 SWAP2 SUB SWAP1 LOG3 POP POP JUMP JUMPDEST POP POP POP JUMP JUMPDEST PUSH4 0x4E487B71 PUSH1 0xE0 SHL PUSH1 0x0 MSTORE PUSH1 0x41 PUSH1 0x4 MSTORE PUSH1 0x24 PUSH1 0x0 REVERT JUMPDEST PUSH1 0x0 DUP3 PUSH1 0x1F DUP4 ADD SLT PUSH2 0x1CD JUMPI PUSH1 0x0 DUP1 REVERT JUMPDEST DUP2 MLOAD PUSH1 0x1 PUSH1 0x1 PUSH1 0x40 SHL SUB DUP2 GT ISZERO PUSH2 0x1E6 JUMPI PUSH2 0x1E6 PUSH2 0x1A6 JUMP JUMPDEST PUSH1 0x40 MLOAD PUSH1 0x1F DUP3 ADD PUSH1 0x1F NOT SWAP1 DUP2 AND PUSH1 0x3F ADD AND DUP2 ADD PUSH1 0x1 PUSH1 0x1 PUSH1 0x40 SHL SUB DUP2 GT DUP3 DUP3 LT OR ISZERO PUSH2 0x214 JUMPI PUSH2 0x214 PUSH2 0x1A6 JUMP JUMPDEST PUSH1 0x40 MSTORE DUP2 DUP2 MSTORE DUP4 DUP3 ADD PUSH1 0x20 ADD DUP6 LT ISZERO PUSH2 0x22C JUMPI PUSH1 0x0 DUP1 REVERT JUMPDEST PUSH1 0x0 JUMPDEST DUP3 DUP2 LT ISZERO PUSH2 0x24B JUMPI PUSH1 0x20 DUP2 DUP7 ADD DUP2 ADD MLOAD DUP4 DUP4 ADD DUP3 ADD MSTORE ADD PUSH2 0x22F JUMP JUMPDEST POP PUSH1 0x0 SWAP2 DUP2 ADD PUSH1 0x20 ADD SWAP2 SWAP1 SWAP2 MSTORE SWAP4 SWAP3 POP POP POP JUMP JUMPDEST PUSH1 0x0 DUP1 PUSH1 0x0 PUSH1 0x60 DUP5 DUP7 SUB SLT ISZERO PUSH2 0x274 JUMPI PUSH1 0x0 DUP1 REVERT JUMPDEST DUP4 MLOAD PUSH1 0x1 PUSH1 0x1 PUSH1 0x40 SHL SUB DUP2 GT ISZERO PUSH2 0x28A JUMPI PUSH1 0x0 DUP1 REVERT JUMPDEST PUSH2 0x296 DUP7 DUP3 DUP8 ADD PUSH2 0x1BC JUMP JUMPDEST PUSH1 0x20 DUP7 ADD MLOAD SWAP1 SWAP5 POP SWAP1 POP PUSH1 0x1 PUSH1 0x1 PUSH1 0x40 SHL SUB DUP2 GT ISZERO PUSH2 0x2B4 JUMPI PUSH1 0x0 DUP1 REVERT JUMPDEST PUSH2 0x2C0 DUP7 DUP3 DUP8 ADD PUSH2 0x1BC JUMP JUMPDEST SWAP3 POP POP PUSH1 0x40 DUP5 ADD MLOAD SWAP1 POP SWAP3 POP SWAP3 POP SWAP3 JUMP JUMPDEST PUSH1 0x1 DUP2 DUP2 SHR SWAP1 DUP3 AND DUP1 PUSH2 0x2E5 JUMPI PUSH1 0x7F DUP3 AND SWAP2 POP JUMPDEST PUSH1 0x20 DUP3 LT DUP2 SUB PUSH2 0x305 JUMPI PUSH4 0x4E487B71 PUSH1 0xE0 SHL PUSH1 0x0 MSTORE PUSH1 0x22 PUSH1 0x4 MSTORE PUSH1 0x24 PUSH1 0x0 REVERT JUMPDEST POP SWAP2 SWAP1 POP JUMP JUMPDEST PUSH1 0x1F DUP3 GT ISZERO PUSH2 0x1A1 JUMPI DUP1 PUSH1 0x0 MSTORE PUSH1 0x20 PUSH1 0x0 KECCAK256 PUSH1 0x1F DUP5 ADD PUSH1 0x5 SHR DUP2 ADD PUSH1 0x20 DUP6 LT ISZERO PUSH2 0x332 JUMPI POP DUP1 JUMPDEST PUSH1 0x1F DUP5 ADD PUSH1 0x5 SHR DUP3 ADD SWAP2 POP JUMPDEST DUP2 DUP2 LT ISZERO PUSH2 0x352 JUMPI PUSH1 0x0 DUP2 SSTORE PUSH1 0x1 ADD PUSH2 0x33E JUMP JUMPDEST POP POP POP POP POP JUMP JUMPDEST DUP2 MLOAD PUSH1 0x1 PUSH1 0x1 PUSH1 0x40 SHL SUB DUP2 GT ISZERO PUSH2 0x372 JUMPI PUSH2 0x372 PUSH2 0x1A6 JUMP JUMPDEST PUSH2 0x386 DUP2 PUSH2 0x380 DUP5 SLOAD PUSH2 0x2D1 JUMP JUMPDEST DUP5 PUSH2 0x30B JUMP JUMPDEST PUSH1 0x20 PUSH1 0x1F DUP3 GT PUSH1 0x1 DUP2 EQ PUSH2 0x3BA JUMPI PUSH1 0x0 DUP4 ISZERO PUSH2 0x3A2 JUMPI POP DUP5 DUP3 ADD MLOAD JUMPDEST PUSH1 0x0 NOT PUSH1 0x3 DUP6 SWAP1 SHL SHR NOT AND PUSH1 0x1 DUP5 SWAP1 SHL OR DUP5 SSTORE PUSH2 0x352 JUMP JUMPDEST PUSH1 0x0 DUP5 DUP2 MSTORE PUSH1 0x20 DUP2 KECCAK256 PUSH1 0x1F NOT DUP6 AND SWAP2 JUMPDEST DUP3 DUP2 LT ISZERO PUSH2 0x3EA JUMPI DUP8 DUP6 ADD MLOAD DUP3 SSTORE PUSH1 0x20 SWAP5 DUP6 ADD SWAP5 PUSH1 0x1 SWAP1 SWAP3 ADD SWAP2 ADD PUSH2 0x3CA JUMP JUMPDEST POP DUP5 DUP3 LT ISZERO PUSH2 0x408 JUMPI DUP7 DUP5 ADD MLOAD PUSH1 0x0 NOT PUSH1 0x3 DUP8 SWAP1 SHL PUSH1 0xF8 AND SHR NOT AND DUP2 SSTORE JUMPDEST POP POP POP POP PUSH1 0x1 SWAP1 DUP2 SHL ADD SWAP1 SSTORE POP JUMP JUMPDEST DUP1 DUP3 ADD DUP1 DUP3 GT ISZERO PUSH2 0x438 JUMPI PUSH4 0x4E487B71 PUSH1 0xE0 SHL PUSH1 0x0 MSTORE PUSH1 0x11 PUSH1 0x4 MSTORE PUSH1 0x24 PUSH1 0x0 REVERT JUMPDEST SWAP3 SWAP2 POP POP JUMP JUMPDEST PUSH2 0xF00 DUP1 PUSH2 0x44D PUSH1 0x0 CODECOPY PUSH1 0x0 RETURN INVALID PUSH1 0x80 PUSH1 0x40 MSTORE CALLVALUE DUP1 ISZERO PUSH2 0x10 JUMPI PUSH1 0x0 DUP1 REVERT JUMPDEST POP PUSH1 0x4 CALLDATASIZE LT PUSH2 0xF5 JUMPI PUSH1 0x0 CALLDATALOAD PUSH1 0xE0 SHR DUP1 PUSH4 0x715018A6 GT PUSH2 0x97 JUMPI DUP1 PUSH4 0xA457C2D7 GT PUSH2 0x66 JUMPI DUP1 PUSH4 0xA457C2D7 EQ PUSH2 0x205 JUMPI DUP1 PUSH4 0xA9059CBB EQ PUSH2 0x218 JUMPI DUP1 PUSH4 0xDD62ED3E EQ PUSH2 0x22B JUMPI DUP1 PUSH4 0xF2FDE38B EQ PUSH2 0x271 JUMPI PUSH1 0x0 DUP1 REVERT JUMPDEST DUP1 PUSH4 0x715018A6 EQ PUSH2 0x1B8 JUMPI DUP1 PUSH4 0x8DA5CB5B EQ PUSH2 0x1C2 JUMPI DUP1 PUSH4 0x94BF804D EQ PUSH2 0x1EA JUMPI DUP1 PUSH4 0x95D89B41 EQ PUSH2 0x1FD JUMPI PUSH1 0x0 DUP1 REVERT JUMPDEST DUP1 PUSH4 0x23B872DD GT PUSH2 0xD3 JUMPI DUP1 PUSH4 0x23B872DD EQ PUSH2 0x14D JUMPI DUP1 PUSH4 0x313CE567 EQ PUSH2 0x160 JUMPI DUP1 PUSH4 0x39509351 EQ PUSH2 0x16F JUMPI DUP1 PUSH4 0x70A08231 EQ PUSH2 0x182 JUMPI PUSH1 0x0 DUP1 REVERT JUMPDEST DUP1 PUSH4 0x6FDDE03 EQ PUSH2 0xFA JUMPI DUP1 PUSH4 0x95EA7B3 EQ PUSH2 0x118 JUMPI DUP1 PUSH4 0x18160DDD EQ PUSH2 0x13B JUMPI JUMPDEST PUSH1 0x0 DUP1 REVERT JUMPDEST PUSH2 0x102 PUSH2 0x284 JUMP JUMPDEST PUSH1 0x40 MLOAD PUSH2 0x10F SWAP2 SWAP1 PUSH2 0xCC9 JUMP JUMPDEST PUSH1 0x40 MLOAD DUP1 SWAP2 SUB SWAP1 RETURN JUMPDEST PUSH2 0x12B PUSH2 0x126 CALLDATASIZE PUSH1 0x4 PUSH2 0xD5E JUMP JUMPDEST PUSH2 0x316 JUMP JUMPDEST PUSH1 0x40 MLOAD SWAP1 ISZERO ISZERO DUP2 MSTORE PUSH1 0x20 ADD PUSH2 0x10F JUMP JUMPDEST PUSH1 0x2 SLOAD JUMPDEST PUSH1 0x40 MLOAD SWAP1 DUP2 MSTORE PUSH1 0x20 ADD PUSH2 0x10F JUMP JUMPDEST PUSH2 0x12B PUSH2 0x15B CALLDATASIZE PUSH1 0x4 PUSH2 0xD88 JUMP JUMPDEST PUSH2 0x330 JUMP JUMPDEST PUSH1 0x40 MLOAD PUSH1 0x12 DUP2 MSTORE PUSH1 0x20 ADD PUSH2 0x10F JUMP JUMPDEST PUSH2 0x12B PUSH2 0x17D CALLDATASIZE PUSH1 0x4 PUSH2 0xD5E JUMP JUMPDEST PUSH2 0x354 JUMP JUMPDEST PUSH2 0x13F PUSH2 0x190 CALLDATASIZE PUSH1 0x4 PUSH2 0xDC5 JUMP JUMPDEST PUSH20 0xFFFFFFFFFFFFFFFFFFFFFFFFFFFFFFFFFFFFFFFF AND PUSH1 0x0 SWAP1 DUP2 MSTORE PUSH1 0x20 DUP2 SWAP1 MSTORE PUSH1 0x40 SWAP1 KECCAK256 SLOAD SWAP1 JUMP JUMPDEST PUSH2 0x1C0 PUSH2 0x3A0 JUMP JUMPDEST STOP JUMPDEST PUSH1 0x5 SLOAD PUSH1 0x40 MLOAD PUSH20 0xFFFFFFFFFFFFFFFFFFFFFFFFFFFFFFFFFFFFFFFF SWAP1 SWAP2 AND DUP2 MSTORE PUSH1 0x20 ADD PUSH2 0x10F JUMP JUMPDEST PUSH2 0x1C0 PUSH2 0x1F8 CALLDATASIZE PUSH1 0x4 PUSH2 0xDE7 JUMP JUMPDEST PUSH2 0x3B4 JUMP JUMPDEST PUSH2 0x102 PUSH2 0x3CA JUMP JUMPDEST PUSH2 0x12B PUSH2 0x213 CALLDATASIZE PUSH1 0x4 PUSH2 0xD5E JUMP JUMPDEST PUSH2 0x3D9 JUMP JUMPDEST PUSH2 0x12B PUSH2 0x226 CALLDATASIZE PUSH1 0x4 PUSH2 0xD5E JUMP JUMPDEST PUSH2 0x4AF JUMP JUMPDEST PUSH2 0x13F PUSH2 0x239 CALLDATASIZE PUSH1 0x4 PUSH2 0xE13 JUMP JUMPDEST PUSH20 0xFFFFFFFFFFFFFFFFFFFFFFFFFFFFFFFFFFFFFFFF SWAP2 DUP3 AND PUSH1 0x0 SWAP1 DUP2 MSTORE PUSH1 0x1 PUSH1 0x20 SWAP1 DUP2 MSTORE PUSH1 0x40 DUP1 DUP4 KECCAK256 SWAP4 SWAP1 SWAP5 AND DUP3 MSTORE SWAP2 SWAP1 SWAP2 MSTORE KECCAK256 SLOAD SWAP1 JUMP JUMPDEST PUSH2 0x1C0 PUSH2 0x27F CALLDATASIZE PUSH1 0x4 PUSH2 0xDC5 JUMP JUMPDEST PUSH2 0x4BD JUMP JUMPDEST PUSH1 0x60 PUSH1 0x3 DUP1 SLOAD PUSH2 0x293 SWAP1 PUSH2 0xE3D JUMP JUMPDEST DUP1 PUSH1 0x1F ADD PUSH1 0x20 DUP1 SWAP2 DIV MUL PUSH1 0x20 ADD PUSH1 0x40 MLOAD SWAP1 DUP2 ADD PUSH1 0x40 MSTORE DUP1 SWAP3 SWAP2 SWAP1 DUP2 DUP2 MSTORE PUSH1 0x20 ADD DUP3 DUP1 SLOAD PUSH2 0x2BF SWAP1 PUSH2 0xE3D JUMP JUMPDEST DUP1 ISZERO PUSH2 0x30C JUMPI DUP1 PUSH1 0x1F LT PUSH2 0x2E1 JUMPI PUSH2 0x100 DUP1 DUP4 SLOAD DIV MUL DUP4 MSTORE SWAP2 PUSH1 0x20 ADD SWAP2 PUSH2 0x30C JUMP JUMPDEST DUP3 ADD SWAP2 SWAP1 PUSH1 0x0 MSTORE PUSH1 0x20 PUSH1 0x0 KECCAK256 SWAP1 JUMPDEST DUP2 SLOAD DUP2 MSTORE SWAP1 PUSH1 0x1 ADD SWAP1 PUSH1 0x20 ADD DUP1 DUP4 GT PUSH2 0x2EF JUMPI DUP3 SWAP1 SUB PUSH1 0x1F AND DUP3 ADD SWAP2 JUMPDEST POP POP POP POP POP SWAP1 POP SWAP1 JUMP JUMPDEST PUSH1 0x0 CALLER PUSH2 0x324 DUP2 DUP6 DUP6 PUSH2 0x574 JUMP JUMPDEST PUSH1 0x1 SWAP2 POP POP JUMPDEST SWAP3 SWAP2 POP POP JUMP JUMPDEST PUSH1 0x0 CALLER PUSH2 0x33E DUP6 DUP3 DUP6 PUSH2 0x727 JUMP JUMPDEST PUSH2 0x349 DUP6 DUP6 DUP6 PUSH2 0x7FE JUMP JUMPDEST POP PUSH1 0x1 SWAP5 SWAP4 POP POP POP POP JUMP JUMPDEST CALLER PUSH1 0x0 DUP2 DUP2 MSTORE PUSH1 0x1 PUSH1 0x20 SWAP1 DUP2 MSTORE PUSH1 0x40 DUP1 DUP4 KECCAK256 PUSH20 0xFFFFFFFFFFFFFFFFFFFFFFFFFFFFFFFFFFFFFFFF DUP8 AND DUP5 MSTORE SWAP1 SWAP2 MSTORE DUP2 KECCAK256 SLOAD SWAP1 SWAP2 SWAP1 PUSH2 0x324 SWAP1 DUP3 SWAP1 DUP7 SWAP1 PUSH2 0x39B SWAP1 DUP8 SWAP1 PUSH2 0xE90 JUMP JUMPDEST PUSH2 0x574 JUMP JUMPDEST PUSH2 0x3A8 PUSH2 0xAB1 JUMP JUMPDEST PUSH2 0x3B2 PUSH1 0x0 PUSH2 0xB32 JUMP JUMPDEST JUMP JUMPDEST PUSH2 0x3BC PUSH2 0xAB1 JUMP JUMPDEST PUSH2 0x3C6 DUP2 DUP4 PUSH2 0xBA9 JUMP JUMPDEST POP POP JUMP JUMPDEST PUSH1 0x60 PUSH1 0x4 DUP1 SLOAD PUSH2 0x293 SWAP1 PUSH2 0xE3D JUMP JUMPDEST CALLER PUSH1 0x0 DUP2 DUP2 MSTORE PUSH1 0x1 PUSH1 0x20 SWAP1 DUP2 MSTORE PUSH1 0x40 DUP1 DUP4 KECCAK256 PUSH20 0xFFFFFFFFFFFFFFFFFFFFFFFFFFFFFFFFFFFFFFFF DUP8 AND DUP5 MSTORE SWAP1 SWAP2 MSTORE DUP2 KECCAK256 SLOAD SWAP1 SWAP2 SWAP1 DUP4 DUP2 LT ISZERO PUSH2 0x4A2 JUMPI PUSH1 0x40 MLOAD PUSH32 0x8C379A000000000000000000000000000000000000000000000000000000000 DUP2 MSTORE PUSH1 0x20 PUSH1 0x4 DUP3 ADD MSTORE PUSH1 0x25 PUSH1 0x24 DUP3 ADD MSTORE PUSH32 0x45524332303A2064656372656173656420616C6C6F77616E63652062656C6F77 PUSH1 0x44 DUP3 ADD MSTORE PUSH32 0x207A65726F000000000000000000000000000000000000000000000000000000 PUSH1 0x64 DUP3 ADD MSTORE PUSH1 0x84 ADD JUMPDEST PUSH1 0x40 MLOAD DUP1 SWAP2 SUB SWAP1 REVERT JUMPDEST PUSH2 0x349 DUP3 DUP7 DUP7 DUP5 SUB PUSH2 0x574 JUMP JUMPDEST PUSH1 0x0 CALLER PUSH2 0x324 DUP2 DUP6 DUP6 PUSH2 0x7FE JUMP JUMPDEST PUSH2 0x4C5 PUSH2 0xAB1 JUMP JUMPDEST PUSH20 0xFFFFFFFFFFFFFFFFFFFFFFFFFFFFFFFFFFFFFFFF DUP2 AND PUSH2 0x568 JUMPI PUSH1 0x40 MLOAD PUSH32 0x8C379A000000000000000000000000000000000000000000000000000000000 DUP2 MSTORE PUSH1 0x20 PUSH1 0x4 DUP3 ADD MSTORE PUSH1 0x26 PUSH1 0x24 DUP3 ADD MSTORE PUSH32 0x4F776E61626C653A206E6577206F776E657220697320746865207A65726F2061 PUSH1 0x44 DUP3 ADD MSTORE PUSH32 0x6464726573730000000000000000000000000000000000000000000000000000 PUSH1 0x64 DUP3 ADD MSTORE PUSH1 0x84 ADD PUSH2 0x499 JUMP JUMPDEST PUSH2 0x571 DUP2 PUSH2 0xB32 JUMP JUMPDEST POP JUMP JUMPDEST PUSH20 0xFFFFFFFFFFFFFFFFFFFFFFFFFFFFFFFFFFFFFFFF DUP4 AND PUSH2 0x616 JUMPI PUSH1 0x40 MLOAD PUSH32 0x8C379A000000000000000000000000000000000000000000000000000000000 DUP2 MSTORE PUSH1 0x20 PUSH1 0x4 DUP3 ADD MSTORE PUSH1 0x24 DUP1 DUP3 ADD MSTORE PUSH32 0x45524332303A20617070726F76652066726F6D20746865207A65726F20616464 PUSH1 0x44 DUP3 ADD MSTORE PUSH32 0x7265737300000000000000000000000000000000000000000000000000000000 PUSH1 0x64 DUP3 ADD MSTORE PUSH1 0x84 ADD PUSH2 0x499 JUMP JUMPDEST PUSH20 0xFFFFFFFFFFFFFFFFFFFFFFFFFFFFFFFFFFFFFFFF DUP3 AND PUSH2 0x6B9 JUMPI PUSH1 0x40 MLOAD PUSH32 0x8C379A000000000000000000000000000000000000000000000000000000000 DUP2 MSTORE PUSH1 0x20 PUSH1 0x4 DUP3 ADD MSTORE PUSH1 0x22 PUSH1 0x24 DUP3 ADD MSTORE PUSH32 0x45524332303A20617070726F766520746F20746865207A65726F206164647265 PUSH1 0x44 DUP3 ADD MSTORE PUSH32 0x7373000000000000000000000000000000000000000000000000000000000000 PUSH1 0x64 DUP3 ADD MSTORE PUSH1 0x84 ADD PUSH2 0x499 JUMP JUMPDEST PUSH20 0xFFFFFFFFFFFFFFFFFFFFFFFFFFFFFFFFFFFFFFFF DUP4 DUP2 AND PUSH1 0x0 DUP2 DUP2 MSTORE PUSH1 0x1 PUSH1 0x20 SWAP1 DUP2 MSTORE PUSH1 0x40 DUP1 DUP4 KECCAK256 SWAP5 DUP8 AND DUP1 DUP5 MSTORE SWAP5 DUP3 MSTORE SWAP2 DUP3 SWAP1 KECCAK256 DUP6 SWAP1 SSTORE SWAP1 MLOAD DUP5 DUP2 MSTORE PUSH32 0x8C5BE1E5EBEC7D5BD14F71427D1E84F3DD0314C0F7B2291E5B200AC8C7C3B925 SWAP2 ADD PUSH1 0x40 MLOAD DUP1 SWAP2 SUB SWAP1 LOG3 POP POP POP JUMP JUMPDEST PUSH20 0xFFFFFFFFFFFFFFFFFFFFFFFFFFFFFFFFFFFFFFFF DUP4 DUP2 AND PUSH1 0x0 SWAP1 DUP2 MSTORE PUSH1 0x1 PUSH1 0x20 SWAP1 DUP2 MSTORE PUSH1 0x40 DUP1 DUP4 KECCAK256 SWAP4 DUP7 AND DUP4 MSTORE SWAP3 SWAP1 MSTORE KECCAK256 SLOAD PUSH32 0xFFFFFFFFFFFFFFFFFFFFFFFFFFFFFFFFFFFFFFFFFFFFFFFFFFFFFFFFFFFFFFFF DUP2 EQ PUSH2 0x7F8 JUMPI DUP2 DUP2 LT ISZERO PUSH2 0x7EB JUMPI PUSH1 0x40 MLOAD PUSH32 0x8C379A000000000000000000000000000000000000000000000000000000000 DUP2 MSTORE PUSH1 0x20 PUSH1 0x4 DUP3 ADD MSTORE PUSH1 0x1D PUSH1 0x24 DUP3 ADD MSTORE PUSH32 0x45524332303A20696E73756666696369656E7420616C6C6F77616E6365000000 PUSH1 0x44 DUP3 ADD MSTORE PUSH1 0x64 ADD PUSH2 0x499 JUMP JUMPDEST PUSH2 0x7F8 DUP5 DUP5 DUP5 DUP5 SUB PUSH2 0x574 JUMP JUMPDEST POP POP POP POP JUMP JUMPDEST PUSH20 0xFFFFFFFFFFFFFFFFFFFFFFFFFFFFFFFFFFFFFFFF DUP4 AND PUSH2 0x8A1 JUMPI PUSH1 0x40 MLOAD PUSH32 0x8C379A000000000000000000000000000000000000000000000000000000000 DUP2 MSTORE PUSH1 0x20 PUSH1 0x4 DUP3 ADD MSTORE PUSH1 0x25 PUSH1 0x24 DUP3 ADD MSTORE PUSH32 0x45524332303A207472616E736665722066726F6D20746865207A65726F206164 PUSH1 0x44 DUP3 ADD MSTORE PUSH32 0x6472657373000000000000000000000000000000000000000000000000000000 PUSH1 0x64 DUP3 ADD MSTORE PUSH1 0x84 ADD PUSH2 0x499 JUMP JUMPDEST PUSH20 0xFFFFFFFFFFFFFFFFFFFFFFFFFFFFFFFFFFFFFFFF DUP3 AND PUSH2 0x944 JUMPI PUSH1 0x40 MLOAD PUSH32 0x8C379A000000000000000000000000000000000000000000000000000000000 DUP2 MSTORE PUSH1 0x20 PUSH1 0x4 DUP3 ADD MSTORE PUSH1 0x23 PUSH1 0x24 DUP3 ADD MSTORE PUSH32 0x45524332303A207472616E7366657220746F20746865207A65726F2061646472 PUSH1 0x44 DUP3 ADD MSTORE PUSH32 0x6573730000000000000000000000000000000000000000000000000000000000 PUSH1 0x64 DUP3 ADD MSTORE PUSH1 0x84 ADD PUSH2 0x499 JUMP JUMPDEST PUSH20 0xFFFFFFFFFFFFFFFFFFFFFFFFFFFFFFFFFFFFFFFF DUP4 AND PUSH1 0x0 SWAP1 DUP2 MSTORE PUSH1 0x20 DUP2 SWAP1 MSTORE PUSH1 0x40 SWAP1 KECCAK256 SLOAD DUP2 DUP2 LT ISZERO PUSH2 0x9FA JUMPI PUSH1 0x40 MLOAD PUSH32 0x8C379A000000000000000000000000000000000000000000000000000000000 DUP2 MSTORE PUSH1 0x20 PUSH1 0x4 DUP3 ADD MSTORE PUSH1 0x26 PUSH1 0x24 DUP3 ADD MSTORE PUSH32 0x45524332303A207472616E7366657220616D6F756E7420657863656564732062 PUSH1 0x44 DUP3 ADD MSTORE PUSH32 0x616C616E63650000000000000000000000000000000000000000000000000000 PUSH1 0x64 DUP3 ADD MSTORE PUSH1 0x84 ADD PUSH2 0x499 JUMP JUMPDEST PUSH20 0xFFFFFFFFFFFFFFFFFFFFFFFFFFFFFFFFFFFFFFFF DUP1 DUP6 AND PUSH1 0x0 SWAP1 DUP2 MSTORE PUSH1 0x20 DUP2 SWAP1 MSTORE PUSH1 0x40 DUP1 DUP3 KECCAK256 DUP6 DUP6 SUB SWAP1 SSTORE SWAP2 DUP6 AND DUP2 MSTORE SWAP1 DUP2 KECCAK256 DUP1 SLOAD DUP5 SWAP3 SWAP1 PUSH2 0xA3E SWAP1 DUP5 SWAP1 PUSH2 0xE90 JUMP JUMPDEST SWAP3 POP POP DUP2 SWAP1 SSTORE POP DUP3 PUSH20 0xFFFFFFFFFFFFFFFFFFFFFFFFFFFFFFFFFFFFFFFF AND DUP5 PUSH20 0xFFFFFFFFFFFFFFFFFFFFFFFFFFFFFFFFFFFFFFFF AND PUSH32 0xDDF252AD1BE2C89B69C2B068FC378DAA952BA7F163C4A11628F55A4DF523B3EF DUP5 PUSH1 0x40 MLOAD PUSH2 0xAA4 SWAP2 DUP2 MSTORE PUSH1 0x20 ADD SWAP1 JUMP JUMPDEST PUSH1 0x40 MLOAD DUP1 SWAP2 SUB SWAP1 LOG3 PUSH2 0x7F8 JUMP JUMPDEST PUSH1 0x5 SLOAD PUSH20 0xFFFFFFFFFFFFFFFFFFFFFFFFFFFFFFFFFFFFFFFF AND CALLER EQ PUSH2 0x3B2 JUMPI PUSH1 0x40 MLOAD PUSH32 0x8C379A000000000000000000000000000000000000000000000000000000000 DUP2 MSTORE PUSH1 0x20 PUSH1 0x4 DUP3 ADD DUP2 SWAP1 MSTORE PUSH1 0x24 DUP3 ADD MSTORE PUSH32 0x4F776E61626C653A2063616C6C6572206973206E6F7420746865206F776E6572 PUSH1 0x44 DUP3 ADD MSTORE PUSH1 0x64 ADD PUSH2 0x499 JUMP JUMPDEST PUSH1 0x5 DUP1 SLOAD PUSH20 0xFFFFFFFFFFFFFFFFFFFFFFFFFFFFFFFFFFFFFFFF DUP4 DUP2 AND PUSH32 0xFFFFFFFFFFFFFFFFFFFFFFFF0000000000000000000000000000000000000000 DUP4 AND DUP2 OR SWAP1 SWAP4 SSTORE PUSH1 0x40 MLOAD SWAP2 AND SWAP2 SWAP1 DUP3 SWAP1 PUSH32 0x8BE0079C531659141344CD1FD0A4F28419497F9722A3DAAFE3B4186F6B6457E0 SWAP1 PUSH1 0x0 SWAP1 LOG3 POP POP JUMP JUMPDEST PUSH20 0xFFFFFFFFFFFFFFFFFFFFFFFFFFFFFFFFFFFFFFFF DUP3 AND PUSH2 0xC26 JUMPI PUSH1 0x40 MLOAD PUSH32 0x8C379A000000000000000000000000000000000000000000000000000000000 DUP2 MSTORE PUSH1 0x20 PUSH1 0x4 DUP3 ADD MSTORE PUSH1 0x1F PUSH1 0x24 DUP3 ADD MSTORE PUSH32 0x45524332303A206D696E7420746F20746865207A65726F206164647265737300 PUSH1 0x44 DUP3 ADD MSTORE PUSH1 0x64 ADD PUSH2 0x499 JUMP JUMPDEST DUP1 PUSH1 0x2 PUSH1 0x0 DUP3 DUP3 SLOAD PUSH2 0xC38 SWAP2 SWAP1 PUSH2 0xE90 JUMP JUMPDEST SWAP1 SWAP2 SSTORE POP POP PUSH20 0xFFFFFFFFFFFFFFFFFFFFFFFFFFFFFFFFFFFFFFFF DUP3 AND PUSH1 0x0 SWAP1 DUP2 MSTORE PUSH1 0x20 DUP2 SWAP1 MSTORE PUSH1 0x40 DUP2 KECCAK256 DUP1 SLOAD DUP4 SWAP3 SWAP1 PUSH2 0xC72 SWAP1 DUP5 SWAP1 PUSH2 0xE90 JUMP JUMPDEST SWAP1 SWAP2 SSTORE POP POP PUSH1 0x40 MLOAD DUP2 DUP2 MSTORE PUSH20 0xFFFFFFFFFFFFFFFFFFFFFFFFFFFFFFFFFFFFFFFF DUP4 AND SWAP1 PUSH1 0x0 SWAP1 PUSH32 0xDDF252AD1BE2C89B69C2B068FC378DAA952BA7F163C4A11628F55A4DF523B3EF SWAP1 PUSH1 0x20 ADD PUSH1 0x40 MLOAD DUP1 SWAP2 SUB SWAP1 LOG3 POP POP JUMP JUMPDEST PUSH1 0x20 DUP2 MSTORE PUSH1 0x0 DUP3 MLOAD DUP1 PUSH1 0x20 DUP5 ADD MSTORE PUSH1 0x0 JUMPDEST DUP2 DUP2 LT ISZERO PUSH2 0xCF7 JUMPI PUSH1 0x20 DUP2 DUP7 ADD DUP2 ADD MLOAD PUSH1 0x40 DUP7 DUP5 ADD ADD MSTORE ADD PUSH2 0xCDA JUMP JUMPDEST POP PUSH1 0x0 PUSH1 0x40 DUP3 DUP6 ADD ADD MSTORE PUSH1 0x40 PUSH32 0xFFFFFFFFFFFFFFFFFFFFFFFFFFFFFFFFFFFFFFFFFFFFFFFFFFFFFFFFFFFFFFE0 PUSH1 0x1F DUP4 ADD AND DUP5 ADD ADD SWAP2 POP POP SWAP3 SWAP2 POP POP JUMP JUMPDEST DUP1 CALLDATALOAD PUSH20 0xFFFFFFFFFFFFFFFFFFFFFFFFFFFFFFFFFFFFFFFF DUP2 AND DUP2 EQ PUSH2 0xD59 JUMPI PUSH1 0x0 DUP1 REVERT JUMPDEST SWAP2 SWAP1 POP JUMP JUMPDEST PUSH1 0x0 DUP1 PUSH1 0x40 DUP4 DUP6 SUB SLT ISZERO PUSH2 0xD71 JUMPI PUSH1 0x0 DUP1 REVERT JUMPDEST PUSH2 0xD7A DUP4 PUSH2 0xD35 JUMP JUMPDEST SWAP5 PUSH1 0x20 SWAP4 SWAP1 SWAP4 ADD CALLDATALOAD SWAP4 POP POP POP JUMP JUMPDEST PUSH1 0x0 DUP1 PUSH1 0x0 PUSH1 0x60 DUP5 DUP7 SUB SLT ISZERO PUSH2 0xD9D JUMPI PUSH1 0x0 DUP1 REVERT JUMPDEST PUSH2 0xDA6 DUP5 PUSH2 0xD35 JUMP JUMPDEST SWAP3 POP PUSH2 0xDB4 PUSH1 0x20 DUP6 ADD PUSH2 0xD35 JUMP JUMPDEST SWAP3 SWAP6 SWAP3 SWAP5 POP POP POP PUSH1 0x40 SWAP2 SWAP1 SWAP2 ADD CALLDATALOAD SWAP1 JUMP JUMPDEST PUSH1 0x0 PUSH1 0x20 DUP3 DUP5 SUB SLT ISZERO PUSH2 0xDD7 JUMPI PUSH1 0x0 DUP1 REVERT JUMPDEST PUSH2 0xDE0 DUP3 PUSH2 0xD35 JUMP JUMPDEST SWAP4 SWAP3 POP POP POP JUMP JUMPDEST PUSH1 0x0 DUP1 PUSH1 0x40 DUP4 DUP6 SUB SLT ISZERO PUSH2 0xDFA JUMPI PUSH1 0x0 DUP1 REVERT JUMPDEST DUP3 CALLDATALOAD SWAP2 POP PUSH2 0xE0A PUSH1 0x20 DUP5 ADD PUSH2 0xD35 JUMP JUMPDEST SWAP1 POP SWAP3 POP SWAP3 SWAP1 POP JUMP JUMPDEST PUSH1 0x0 DUP1 PUSH1 0x40 DUP4 DUP6 SUB SLT ISZERO PUSH2 0xE26 JUMPI PUSH1 0x0 DUP1 REVERT JUMPDEST PUSH2 0xE2F DUP4 PUSH2 0xD35 JUMP JUMPDEST SWAP2 POP PUSH2 0xE0A PUSH1 0x20 DUP5 ADD PUSH2 0xD35 JUMP JUMPDEST PUSH1 0x1 DUP2 DUP2 SHR SWAP1 DUP3 AND DUP1 PUSH2 0xE51 JUMPI PUSH1 0x7F DUP3 AND SWAP2 POP JUMPDEST PUSH1 0x20 DUP3 LT DUP2 SUB PUSH2 0xE8A JUMPI PUSH32 0x4E487B7100000000000000000000000000000000000000000000000000000000 PUSH1 0x0 MSTORE PUSH1 0x22 PUSH1 0x4 MSTORE PUSH1 0x24 PUSH1 0x0 REVERT JUMPDEST POP SWAP2 SWAP1 POP JUMP JUMPDEST DUP1 DUP3 ADD DUP1 DUP3 GT ISZERO PUSH2 0x32A JUMPI PUSH32 0x4E487B7100000000000000000000000000000000000000000000000000000000 PUSH1 0x0 MSTORE PUSH1 0x11 PUSH1 0x4 MSTORE PUSH1 0x24 PUSH1 0x0 REVERT INVALID LOG2 PUSH5 0x6970667358 0x22 SLT KECCAK256 PUSH30 0xCBDB53E8AC3C556A88362276B015FB0ED42716854840CFE5816FF65C57ED SGT PUSH5 0x736F6C6343 STOP ADDMOD SHL STOP CALLER "
				},
				"gasEstimates": {
					"creation": {
						"codeDepositCost": "768000",
						"executionCost": "infinite",
						"totalCost": "infinite"
					},
					"external": {
						"allowance(address,address)": "infinite",
						"approve(address,uint256)": "22503",
						"balanceOf(address)": "1305",
						"decimals()": "222",
						"decreaseAllowance(address,uint256)": "23462",
						"increaseAllowance(address,uint256)": "infinite",
						"mint(uint256,address)": "infinite",
						"name()": "infinite",
						"owner()": "1034",
						"renounceOwnership()": "infinite",
						"symbol()": "infinite",
						"totalSupply()": "1049",
						"transfer(address,uint256)": "infinite",
						"transferFrom(address,address,uint256)": "infinite",
						"transferOwnership(address)": "23661"
					}
				},
				"methodIdentifiers": {
					"allowance(address,address)": "dd62ed3e",
					"approve(address,uint256)": "095ea7b3",
					"balanceOf(address)": "70a08231",
					"decimals()": "313ce567",
					"decreaseAllowance(address,uint256)": "a457c2d7",
					"increaseAllowance(address,uint256)": "39509351",
					"mint(uint256,address)": "94bf804d",
					"name()": "06fdde03",
					"owner()": "8da5cb5b",
					"renounceOwnership()": "715018a6",
					"symbol()": "95d89b41",
					"totalSupply()": "18160ddd",
					"transfer(address,uint256)": "a9059cbb",
					"transferFrom(address,address,uint256)": "23b872dd",
					"transferOwnership(address)": "f2fde38b"
				}
			},
			"storageLayout": {
				"storage": [
					{
						"astId": 175,
						"contract": "mintable-token(copy)(copy)/mintable-token.sol:MintableToken",
						"label": "_balances",
						"offset": 0,
						"slot": "0",
						"type": "t_mapping(t_address,t_uint256)"
					},
					{
						"astId": 181,
						"contract": "mintable-token(copy)(copy)/mintable-token.sol:MintableToken",
						"label": "_allowances",
						"offset": 0,
						"slot": "1",
						"type": "t_mapping(t_address,t_mapping(t_address,t_uint256))"
					},
					{
						"astId": 183,
						"contract": "mintable-token(copy)(copy)/mintable-token.sol:MintableToken",
						"label": "_totalSupply",
						"offset": 0,
						"slot": "2",
						"type": "t_uint256"
					},
					{
						"astId": 185,
						"contract": "mintable-token(copy)(copy)/mintable-token.sol:MintableToken",
						"label": "_name",
						"offset": 0,
						"slot": "3",
						"type": "t_string_storage"
					},
					{
						"astId": 187,
						"contract": "mintable-token(copy)(copy)/mintable-token.sol:MintableToken",
						"label": "_symbol",
						"offset": 0,
						"slot": "4",
						"type": "t_string_storage"
					},
					{
						"astId": 54,
						"contract": "mintable-token(copy)(copy)/mintable-token.sol:MintableToken",
						"label": "_owner",
						"offset": 0,
						"slot": "5",
						"type": "t_address"
					}
				],
				"types": {
					"t_address": {
						"encoding": "inplace",
						"label": "address",
						"numberOfBytes": "20"
					},
					"t_mapping(t_address,t_mapping(t_address,t_uint256))": {
						"encoding": "mapping",
						"key": "t_address",
						"label": "mapping(address => mapping(address => uint256))",
						"numberOfBytes": "32",
						"value": "t_mapping(t_address,t_uint256)"
					},
					"t_mapping(t_address,t_uint256)": {
						"encoding": "mapping",
						"key": "t_address",
						"label": "mapping(address => uint256)",
						"numberOfBytes": "32",
						"value": "t_uint256"
					},
					"t_string_storage": {
						"encoding": "bytes",
						"label": "string",
						"numberOfBytes": "32"
					},
					"t_uint256": {
						"encoding": "inplace",
						"label": "uint256",
						"numberOfBytes": "32"
					}
				}
			},
			"userdoc": {
				"kind": "user",
				"methods": {},
				"notice": "Token, ERC20, Mintable",
				"version": 1
			}
		}
	}
}