{
	"data": {
		"bytecode": {
			"linkReferences": {},
			"object": "6101c06040523480156200001257600080fd5b506040516200645538038062006455833981016040819052620000359162000245565b808080808080808080806200004962000119565b610120526101005260e05260c081905260a0828152466101408190526040805160009485526020879052948152606091825230608090815292842085825293909152939052610160526001600160a01b038316610180819052630a96ad3960e01b825282519092630a96ad3992600480820193918290030181865afa158015620000d7573d6000803e3d6000fd5b505050506040513d601f19601f82011682018060405250810190620000fd919062000277565b506101a0525050600160005550620002fb975050505050505050565b600080808080806200014560408051808201909152600781526614d9585c1bdc9d60ca1b602082015290565b80519060200120955060405180604001604052806003815260200162312e3560e81b81525080519060200120945060006040518060a00160405280606a8152602001620063eb606a9139905060006040518060c001604052806084815260200162006241608491399050600060405180610100016040528060d481526020016200631760d491399050604051806080016040528060528152602001620062c560529139805190602001209650828051906020012095508180519060200120945060008183856040516020016200021e93929190620002ce565b60405160208183030381529060405290508080519060200120945050505050909192939495565b6000602082840312156200025857600080fd5b81516001600160a01b03811681146200027057600080fd5b9392505050565b600080604083850312156200028b57600080fd5b505080516020909101519092909150565b6000815160005b81811015620002bf5760208185018101518683015201620002a3565b50600093019283525090919050565b6000620002f2620002eb620002e484886200029c565b866200029c565b846200029c565b95945050505050565b60805160a05160c05160e05161010051610120516101405161016051610180516101a051615eae620003936000396000612ed40152600081816112b90152612e9201526000612d7801526000612cbf015260008181610c1a01526116ae015260008181610b6c01526114c2015260008181610ae7015261161a01526000612cef01526000612d3901526000612d150152615eae6000f3fe60806040526004361061010d5760003560e01c8063a900866b116100a5578063f07ec37311610074578063f47b774011610059578063f47b77401461034c578063fb0f3ee114610121578063fd9f1e101461037057600080fd5b8063f07ec37314610319578063f2d12b121461033957600080fd5b8063a900866b1461029d578063b3a34c4c146102e0578063e7acab24146102f3578063ed98a5741461030657600080fd5b806379df72bd116100e157806379df72bd1461021c57806387201b411461023c578063881477321461025d578063a81744041461027d57600080fd5b801561012157806306fdde031461014957806346423aa71461016b5780635b34b966146101f957600080fd5b3661011c5761011a610390565b005b600080fd5b61013461012f3660046152db565b6103a5565b60405190151581526020015b60405180910390f35b34801561015557600080fd5b5061015e6103b6565b604051610140919061537b565b34801561017757600080fd5b506101d761018636600461538e565b60009081526002602052604090205460ff808216926101008304909116916effffffffffffffffffffffffffffff620100008204811692710100000000000000000000000000000000009092041690565b6040805194151585529215156020850152918301526060820152608001610140565b34801561020557600080fd5b5061020e6103c5565b604051908152602001610140565b34801561022857600080fd5b5061020e6102373660046153a7565b6103cf565b61024f61024a36600461545c565b610407565b604051610140929190615645565b34801561026957600080fd5b50610134610278366004615694565b610480565b61029061028b3660046156d6565b61049f565b6040516101409190615742565b3480156102a957600080fd5b5061020e6102b8366004615755565b73ffffffffffffffffffffffffffffffffffffffff1660009081526003602052604090205490565b6101346102ee366004615772565b61053e565b6101346103013660046157bc565b6105bc565b61024f61031436600461584c565b6105fb565b34801561032557600080fd5b5061020e610334366004615755565b6106a2565b6102906103473660046158f5565b6106cd565b34801561035857600080fd5b50610361610716565b604051610140939291906159a3565b34801561037c57600080fd5b5061013461038b366004615694565b61072e565b6003600054146103a3576103a33461073a565b565b60006103b08261074c565b92915050565b60606103c06109a9565b905090565b60006103c06109c1565b6000806103dc6004610a3f565b90506104006103f182610a505b63ffffffff16565b610140830135610acf565b3590565b9392505050565b60608061046c61042261041a6004610a3f565b610c706103e9565b61043961043160046020610cda565b610cf96103e9565b61045061044860046040610cda565b610d536103e9565b61045f61044860046060610cda565b89338a15028a0189610dad565b915091509b509b9950505050505050505050565b600061040061049a6104926004610a3f565b610de66103e9565b610e40565b60606105336104b96104b16004610a3f565b610f846103e9565b6040805160008082526020820190925290610515565b6105026040805160a081019091526000808252602082019081526020016000815260200160008152602001606081525090565b8152602001906001900390816104cf5790505b5061052d61052560046020610cda565b610fde6103e9565b33611038565b90505b949350505050565b60006104006105586105506004610a3f565b6110666103e9565b60408051600080825260208201909252906105b4565b6105a16040805160a081019091526000808252602082019081526020016000815260200160008152602001606081525090565b81526020019060019003908161056e5790505b5084336110dd565b60006105f16105d66105ce6004610a3f565b6112476103e9565b6105e561043160046020610cda565b853386150286016110dd565b9695505050505050565b60608061069161060e6104b16004610a3f565b604080516000808252602082019092529061066a565b6106576040805160a081019091526000808252602082019081526020016000815260200160008152602001606081525090565b8152602001906001900390816106245790505b5061067a61044860046020610cda565b61068961044860046040610cda565b883389610dad565b915091509850989650505050505050565b73ffffffffffffffffffffffffffffffffffffffff81166000908152600160205260408120546103b0565b60606107086106df61041a6004610a3f565b6106ee61043160046020610cda565b6106fd61052560046040610cda565b338615028601611038565b90505b979650505050505050565b60606000806107236112a4565b925092509250909192565b600061040083836112f5565b63a61be9f0600052806020526024601cfd5b600061012435600281901c9060031660018211833415821480610772576107723461073a565b506003841160a0810260240135907f0203020301010000000000000000000000000000000000000000000000000000861a907d010102030000000000000000000000000000000000000000000000000000871a6107d38a8883898888611461565b9450506101c4600582901b013560008660058111156107f4576107f4615545565b0361082a57604435602435171561081357636ab37ce76000526004601cfd5b61081d8382611779565b61082561184b565b610984565b604080516020808252818301909252600091602082018180368337019050509050600289600581111561085f5761085f615545565b0361089e5761089961087760c08d0160a08e01615755565b61088760808e0160608f01615755565b338e60c001358f60e0013587876118cc565b61096f565b60038960058111156108b2576108b2615545565b036108ec576108996108ca60c08d0160a08e01615755565b6108da60808e0160608f01615755565b338e60c001358f60e001358787611917565b600489600581111561090057610900615545565b0361093a5761089961091560208d018d615755565b338d60600160208101906109299190615755565b8e602001358f6040013587876118cc565b61096f61094a60208d018d615755565b338d606001602081019061095e9190615755565b8e602001358f604001358787611917565b610979838261194d565b61098281611a0b565b505b61098f85888c611a34565b6109996001600055565b5060019998505050505050505050565b6060602080526707536561706f727460475260606020f35b60006109cb611a9b565b600143034060801c336000526001602052604060002080548201925082815550503373ffffffffffffffffffffffffffffffffffffffff167f721c20121297512b72821b97f5326877ea8ecf4bb9948fea5bfcb6453074d37f82604051610a3491815260200190565b60405180910390a290565b6000813563ffffffff1682016103b0565b6000610a6461016060408051918201905290565b9050610a738282610140611aad565b610a90610a89610a84846040610cda565b611ab6565b6040830152565b6000610aa5610aa0846060610cda565b611b0a565b9050610ab2816060840152565b610ac5610abd825190565b610140840152565b50919050565b0190565b610140820151604080519084015180516000939284927f000000000000000000000000000000000000000000000000000000000000000092602090910190845b81811015610b5a5782517fffffffffffffffffffffffffffffffffffffffffffffffffffffffffffffffe001805186825260c082208652905260209384019390920191600101610b0f565b508060051b60405120945050505060007f00000000000000000000000000000000000000000000000000000000000000009150604051602060608901510160005b86811015610be65781517fffffffffffffffffffffffffffffffffffffffffffffffffffffffffffffffe001805186825260e082208552905260209283019290910190600101610b9b565b505060408051600587901b90207fffffffffffffffffffffffffffffffffffffffffffffffffffffffffffffffe08a0180517f00000000000000000000000000000000000000000000000000000000000000008252928b01805197815260608c018051938152610140909c019a8b5261018082209390915295909552939097525050925250919050565b60008063ffffffff8335169050600581901b610c956020820160408051918201905290565b8281529250602083810190850160005b83811015610cd057610cc8610cc2610cbd8484610cda565b611247565b82850152565b602001610ca5565b5050505050919050565b600061040063ffffffff610cf36103fc8686610acb8516565b16840190565b60008063ffffffff8335169050600581901b610d1e6020820160408051918201905290565b8281529250602083810190850160005b83811015610cd057610d4b610cc2610d468484610cda565b611b4e565b602001610d2e565b60008063ffffffff8335169050600581901b610d786020820160408051918201905290565b8281529250602083810190850160005b83811015610cd057610da5610cc2610da08484610cda565b611b91565b602001610d88565b606080600080610dc18b8b6000888a611bd5565b91509150610dd48b8a8a8a8a8787611f05565b93509350505097509795505050505050565b60008063ffffffff8335169050600581901b610e0b6020820160408051918201905290565b8281529250602083810190850160005b83811015610cd057610e38610cc2610e338484610cda565b61210b565b602001610e1b565b6000610e4a611a9b565b6000806000808551905060005b81811015610f77576000878281518110610e7357610e73615a11565b60209081029190910101518051909150600481608001516004811115610e9b57610e9b615545565b03610ea7575050610f6f565b80519450610eb48161214f565b60008181526002602052604081209850909650610ed690879089906001612197565b50865460ff16610f6c5780610140015181606001515114610ef957610ef9612246565b610f0885878460200151612254565b86547fffffffffffffffffffffffffffffffffffffffffffffffffffffffffffffff001660011787556040517ff280791efe782edcf06ce15c8f4dff17601db3b88eb3805a0db7d77faf757f0490610f639088908490615b4b565b60405180910390a15b50505b600101610e57565b5060019695505050505050565b60008063ffffffff8335169050600581901b610fa96020820160408051918201905290565b8281529250602083810190850160005b83811015610cd057610fd6610cc2610fd18484610cda565b611066565b602001610fb9565b60008063ffffffff8335169050600581901b6110036020820160408051918201905290565b8281529250602083810190850160005b83811015610cd057611030610cc261102b8484610cda565b612347565b602001611013565b606060008061104c878760018a5188611bd5565b915091506110598261237b565b61070b87868487856123ba565b600061107a61020060408051918201905290565b60a0810180825290915061109661109084610a3f565b82612521565b6110a260016020840152565b6110ae60016040840152565b6110cb6110c46110bf856020610cda565b612557565b6060840152565b610ac56110d661257f565b6080840152565b6000611101600486516080015160048111156110fb576110fb615545565b1461259b565b60008060006111118860016125ab565b604080516001808252818301909252939650919450925060009190816020015b611139615210565b815260200190600190039081611131579050509050888160008151811061116257611162615a11565b602002602001018190525061117781896127f9565b60008160008151811061118c5761118c615a11565b60200260200101516000015190506111a78185858b8b6129eb565b6040805160018082528183019092526000916020808301908036833701905050905085816000815181106111dd576111dd615a11565b60200260200101818152505061120e836000815181106111ff576111ff615a11565b60200260200101518288612b8f565b61122c86836000015184602001518b86604001518760600151612c3c565b6112366001600055565b5060019a9950505050505050505050565b600061125b61020060408051918201905290565b905061126f60208381019083016040611aad565b60a0810180825261128261109084610a3f565b6112936110c46110bf856060610cda565b610ac56110d66110bf856080610cda565b606060008060006112b3612cbb565b905060007f00000000000000000000000000000000000000000000000000000000000000009050606060005281602052806040526303312e3560635260a06000f35b60006112ff611a9b565b60008083815b81811015611446573687878381811061132057611320615a11565b90506020028101906113329190615c66565b905060006113436020830183615755565b905060006113576040840160208501615755565b9050600061136b60a0850160808601615ca4565b9050813314833314171560048214178717965060006113a061139561138d8790565b610a506103e9565b866101400135610acf565b6000818152600260205260409081902080547fffffffffffffffffffffffffffffffffffffffffffffffffffffffffffff0000166101001781559051909a5090915073ffffffffffffffffffffffffffffffffffffffff80851691908616907f6bacc01dbe442496068f7d234edd811f1a5f833243e0aec824f86ab861f3c90d9061142e9085815260200190565b60405180910390a38560010195505050505050611305565b5050801561145657611456612d9a565b506001949350505050565b600061146d600061259b565b611475612da8565b4261016435111542610144351117156114a4576321ccfeb760005261014435602052610164356040526044601cfd5b610204356102643510156114c05763466aa6166000526004601cfd5b7f0000000000000000000000000000000000000000000000000000000000000000608081905260a08690526060602460c037604060646101203760e060802061016052610264358060051b6102a0016001820181526020810190508781526080602460208301376101608760a0528660c052600060e052600061020435935060005b84811015611596578060400261028401602081610100376040816101203760208101358317925060208401935060e0608020845260a0850194508a8552896020860152604081606087013750600101611542565b6001850160051b610160206060526102643594505b848110156115e6578060400261028401925060a0840193508984528860208501526040836060860137602083013591909117906001016115ab565b5073ffffffffffffffffffffffffffffffffffffffff811115611611576339f3e3fd6000526004601cfd5b505050505060007f00000000000000000000000000000000000000000000000000000000000000009050806080528260a052606060c460c03760206101046101203760c0608020600052602060002060e0526102643560051b6102000160018152836020820152606060c46040830137505060843573ffffffffffffffffffffffffffffffffffffffff81166000908152600160205260408120547f000000000000000000000000000000000000000000000000000000000000000060808190529091506040608460a03760605161010052886101205260a061014461014037816101e05261018060802093505050506102643560051b6101800181815233602082015260806040820152610120606082015260a061026435026101e00160a4356084357f9d9af8e38d66c62e2c12f0225249fd9d721c54b83f48d9352c97c6cacdcb6f318385a36000606052016040526105f1816117746102208a018a615cc5565b612e07565b60c43560843560e4356101043584156117fb57600060405190507f4ce34aa200000000000000000000000000000000000000000000000000000000815260206004820152600160248201528660448201528460648201528360848201523360a48201528260c48201528160e48201526117f58682610104612e8c565b50611843565b600286600581111561180f5761180f615545565b0361183657806001146118255761182581612f98565b61183184843385612faa565b611843565b6118438484338585613080565b505050505050565b346064356084356102643560061b600080805b8381101561189d5761028481013592506102a481013591508683111561188657611886613179565b82870396506118958284613187565b60400161185e565b50858511156118ae576118ae613179565b6118b88486613187565b848611156118435761184333868803613187565b6118d681836131c1565b816118fd57826001146118ec576118ec83612f98565b6118f887878787612faa565b61190e565b61190e828260028a8a8a8a8a6131e0565b50505050505050565b61192083613279565b61192a81836131c1565b8161193c576118f88787878787613080565b61190e828260038a8a8a8a8a6131e0565b6000806000806000861561197557505060843592503391505060c4356101043560e43561198a565b50339350506084359150506024356064356044355b80156119985761199861328c565b50600586901b6101e403356102643560061b600080805b838110156119f05761028481013592506102a481013591508a156119da576119d78387615d59565b95505b6119e8878a8486898f61329a565b6040016119af565b506119ff86898988888e61329a565b50505050505050505050565b6040815114611a175750565b6000611a24826020015190565b9050611a3081836132d0565b5050565b611a5c82611a4860a0840160808501615755565b331415600182116004909210919091161690565b15611a9657600080611a6e85846132f4565b9092509050611a93611a8660a0850160808601615755565b86848463fb5014fc6133d4565b50505b505050565b6001600054146103a3576103a3613441565b80838337505050565b600063ffffffff8235166040519150808252602082018160051b81018060a084026020870183378293505b81841015611afa5780845260209093019260a001611ae1565b60405250919392505050565b9052565b600063ffffffff8235166040519150808252602082018160051b81018060c084026020870183378293505b81841015611afa5780845260209093019260c001611b35565b6000611b6160a060408051918201905290565b9050611b6f82826080611aad565b611b8c611b85611b80846080610cda565b61344f565b6080830152565b919050565b600063ffffffff8235166040519150808252602082018160051b8101808360061b6020870183378293505b81841015611afa57808452602090930192604001611bbc565b60606000611be3600161259b565b7c400000000000000000000000000000000000000000000000000000000060003516611c0d615210565b88516000908067ffffffffffffffff811115611c2b57611c2b6159e2565b604051908082528060200260200182016040528015611c54578160200160208202803683370190505b50955060010160051b905060608060205b83811015611e6d57808d0151945089600003611c875760006020860152611e65565b6000806000611c96888f6125ab565b92509250925081600003611cb35750506000602087015250611e65565b82848c01528c600190039c506000886000015160a0015190506000896000015160c001519050896000015160400151975060008851905060008b60000151608001519050600481108060005250600181118e179d505060005b81811015611dad5760008a8281518110611d2857611d28615a11565b602002602001015190506000518151108e179d506000611d4d88888460800151613487565b90508160800151826060015103611d6a5760608201819052611d7f565b611d7988888460600151613487565b60608301525b6000611d93836060015183898960006134c6565b606084018190526080909301929092525050600101611d0c565b508a5160600151805190985060005b81811015611e5c5760008a8281518110611dd857611dd8615a11565b602002602001015190506000611df389898460800151613487565b90508160800151826060015103611e105760608201819052611e25565b611e1f89898460600151613487565b60608301525b6000611e398360600151838a8a60016134c6565b6060840181905260a0840180516080909501949094529092525050600101611dbc565b50505050505050505b602001611c65565b5050507c40000000000000000000000000000000000000000000000000000000018303611e9c57611e9c61351b565b611ea68a8a6127f9565b600060205b82811015611ef6578681015191508115611eee57808c01519350600084600001519050611eec83826000015183602001518c85604001518660600151612c3c565b505b602001611eab565b50505050509550959350505050565b855185516060918291611f188183615d6c565b67ffffffffffffffff811115611f3057611f306159e2565b604051908082528060200260200182016040528015611fbc57816020015b60408051610100810182526000606082018181526080830182905260a0830182905260c0830182905260e08301829052825260208083018290529282015282527fffffffffffffffffffffffffffffffffffffffffffffffffffffffffffffffff909201910181611f4e5790505b5092506000805b83811015612045576000611ff48e60008f8581518110611fe557611fe5615a11565b60200260200101518e8e613529565b80518051602083015160809092015192935015159114161561201b5782600101925061203c565b80868484038151811061203057612030615a11565b60200260200101819052505b50600101611fc3565b5060005b828110156120ce57600061207b8e60018e858151811061206b5761206b615a11565b60200260200101518e6000613529565b8051805160208301516080909201519293501515911416156120a2578260010192506120c5565b80868487850103815181106120b9576120b9615a11565b60200260200101819052505b50600101612049565b5080156120dc578084510384525b5082516000036120ee576120ee613604565b6120fb8b84888a89613612565b9350505097509795505050505050565b600061211d6040808051918201905290565b905061213761213361212e84610a3f565b61392e565b8252565b611b8c6121486110bf846020610cda565b6020830152565b600061216582606001515183610140015161394e565b815173ffffffffffffffffffffffffffffffffffffffff166000908152600160205260409020546103b0908390610acf565b8254600090610100900460ff16156121c05781156121b8576121b88561395e565b506000610536565b83546201000090046effffffffffffffffffffffffffffff16801561223a5783156121f3576121ee86613970565b61223a565b84547101000000000000000000000000000000000090046effffffffffffffffffffffffffffff16811061223a5782156122305761223086613982565b6000915050610536565b50600195945050505050565b632165628a6000526004601cfd5b33831480156122635750505050565b600061226d612cbb565b7f190100000000000000000000000000000000000000000000000000000000000060009081526002828152602287815260428320908390528651939450929190601f601d840116106102e27fffffffffffffffffffffffffffffffffffffffffffffffffffffffffffffff9d840110161561232d576122ec8688613994565b7f1901000000000000000000000000000000000000000000000000000000000000600090815260028690526022828152604282209190529097509050612330565b50815b61233d888285858a613a30565b5050505050505050565b60006123596040808051918201905290565b905061236a612133610da084610a3f565b611b8c612148610da0846020610cda565b80518060051b6040019050602082038051602082527f4b9f2d36e1b4c93de62cc077b00b1a91d84b6c31b4a14e012718dcca230689e78383a190525050565b83516060908067ffffffffffffffff8111156123d8576123d86159e2565b60405190808252806020026020018201604052801561246457816020015b60408051610100810182526000606082018181526080830182905260a0830182905260c0830182905260e08301829052825260208083018290529282015282527fffffffffffffffffffffffffffffffffffffffffffffffffffffffffffffffff9092019101816123f65790505b5091506000805b828110156124f957600088828151811061248757612487615a11565b6020026020010151905060006124a78b8360000151846020015186613bf1565b8051805160208301516080909201519293501515911416156124ce578360010193506124ef565b8086858503815181106124e3576124e3615a11565b60200260200101819052505b505060010161246b565b508015612507578083510383525b506125158783878787613612565b50505b95945050505050565b61252e8282610160611aad565b61253f610a89610a84846040610cda565b611a30612550610aa0846060610cda565b6060830152565b6040518135601f0163ffffffe01660200180838337913563ffffffff16815290810160405290565b6000612592602060408051918201905290565b60008152905090565b6125a3611a9b565b600201600055565b600080600080856000015190506125cb8160a001518260c0015187613e8c565b6125df5750600092508291508190506127f2565b602086015160408701516effffffffffffffffffffffffffffff9182169450169150600060048260800151600481111561261b5761261b615545565b03612652576001838502189050801561263657612636613eaf565b61264582886080015188613ebd565b94509450945050506127f2565b50818311831517801561266757612667613eaf565b6080820151600116158484111615612681576126816140e7565b61268a8261214f565b60008181526002602052604081209196506126a990879083908a612197565b6126bd5750600093508392506127f2915050565b805460ff166126d9576126d98360000151878a60600151612254565b8080548060881c806126ed578791506127dd565b6effffffffffffffffffffffffffffff8260101c1691506001870361271a579081039650945084806127dd565b808703612738579087018681038782110297889003979003906127dd565b80870297810291909602810187810388821102918290039796919003906effffffffffffffffffffffffffffff80831190881117156127dd5761278a565b60005b8215610ac557908290069190612779565b61279d6127978884612776565b89612776565b80150197889004979687900496909104906effffffffffffffffffffffffffffff80831190881117156127dd57634e487b7160005260116020526024601cfd5b508560881b8160101b17600117825550505050505b9250925092565b8051825160005b828110156128f957600084828151811061281c5761281c615a11565b602002602001015190506000816000015190508381106128435761284382602001516140f5565b600087828151811061285757612857615a11565b6020026020010151905080602001516effffffffffffffffffffffffffffff16600003612886575050506128f1565b80516040808201519085015163bfb3f8ce6000876020015160018111156128af576128af615545565b146128cc5760006128c1856060614107565b9350636088d7de9150505b825182106128de57806000526004601cfd5b6128e9838389614113565b505050505050505b600101612800565b5060005b81811015611a9357600085828151811061291957612919615a11565b6020026020010151905080602001516effffffffffffffffffffffffffffff1660000361294657506129e3565b805160608101515160005b8181101561299b576129848360600151828151811061297257612972615a11565b60200260200101516000015160031090565b156129935761299385826141c9565b600101612951565b505060408101515160005b818110156129de576129c78360400151828151811061297257612972615a11565b156129d6576129d685826141df565b6001016129a6565b505050505b6001016128fd565b60a085015160c08601516040805160208082528183019092526000916020820181803683375050506040890151519091506000805b82811015612aa15760008b604001518281518110612a4057612a40615a11565b60200260200101519050600081600001519050801584179350506000612a74826060015183608001518e8e8c8c60006141f5565b606083015250608081018890528b516101208d0151612a98918391886142316103e9565b50600101612a20565b5060808a01516004811082168015612abb57612abb61351b565b50505060608901515160009150815b81811015612b675760008b606001518281518110612aea57612aea615a11565b602002602001015190506000612b0e826060015183608001518e8e8c8c60016141f5565b6060830181905260a083015160808401529050600082516005811115612b3657612b36615545565b03612b4e5747945084811115612b4e57612b4e613179565b612b5d82338c896142316103e9565b5050600101612aca565b5050612b7282611a0b565b50478015612b8457612b843382613187565b505050505050505050565b825160808101516020820151600092839283928392916004811060019091111633909114151615612be257612bca86828a608001518a614334565b60208301519194509250945063fb5014fc9350612c2f565b600481608001516004811115612bfa57612bfa615545565b0361233d578051945060008560601b9050612c1c87838b608001518b8561445b565b639397928596509094509250612c2f9050565b61233d85878585886133d4565b606082905060608290508573ffffffffffffffffffffffffffffffffffffffff168773ffffffffffffffffffffffffffffffffffffffff167f9d9af8e38d66c62e2c12f0225249fd9d721c54b83f48d9352c97c6cacdcb6f318a888686604051612ca99493929190615db9565b60405180910390a35050505050505050565b60007f00000000000000000000000000000000000000000000000000000000000000004614612d75575060408051608080517f000000000000000000000000000000000000000000000000000000000000000060009081527f00000000000000000000000000000000000000000000000000000000000000006020527f0000000000000000000000000000000000000000000000000000000000000000855246606090815230845260a08220949095529093529190915290565b507f000000000000000000000000000000000000000000000000000000000000000090565b63fed398fc6000526004601cfd5b600435602014610224356102401416610244356102606102643560061b011416601861012435107401000000000000000000000000000000000000000060843560a4351760c435602435171710161680612e0457612e0461452d565b50565b600083815260026020526040902060843590612e268582600180612197565b50805460ff16612e7157612e71828686868080601f01602080910402602001604051908101604052809392919081815260200183838082843760009201919091525061225492505050565b71010000000000000000000000000000010001905550505050565b604080517f000000000000000000000000000000000000000000000000000000000000000074ff000000000000000000000000000000000000000017600090815260208690527f000000000000000000000000000000000000000000000000000000000000000083526055600b209190925273ffffffffffffffffffffffffffffffffffffffff169050600080600080526020600085876000875af19150600051905081612f4557612f3c61453b565b612f4583614582565b7fffffffff0000000000000000000000000000000000000000000000000000000081167f4ce34aa20000000000000000000000000000000000000000000000000000000014611843576118438684614594565b6369f95827600052806020526024601cfd5b833b612fc257635f15d672600052836020526024601cfd5b6040517f23b872dd000000000000000000000000000000000000000000000000000000006000528360045282602452816044526000806064600080895af180613071573d1561304e57601f3d0160051c8260051c8160030281831115613035578183036003028280028480020360091c01015b5a60208201101561304a573d6000803e3d6000fd5b5050505b63f486bc8760005285602052846040528360605282608052600160a05260a4601cfd5b50604052505060006060525050565b843b61309857635f15d672600052846020526024601cfd5b60405160805160a05160c0517ff242432a000000000000000000000000000000000000000000000000000000006000528760045286602452856044528460645260a0608452600060a45260008060c46000808d5af18061315d573d1561313b57601f3d0160051c8560051c8160030281831115613122578183036003028280028480020360091c01015b5a602082011015613137573d6000803e3d6000fd5b5050505b63f486bc87600052896020528860405287606052866080528560a05260a4601cfd5b5060809290925260a05260c05260405250506000606052505050565b638ffff9806000526004601cfd5b61319081613279565b600080600080600085875af1905080611a96576131ab61453b565b63bc806b9660005282602052816040526044601cfd5b60006131ce836020015190565b9050818114611a9657611a9683611a0b565b600060208851036132345750604080885260208089018a90527f4ce34aa200000000000000000000000000000000000000000000000000000000918901919091526044880152600160648801819052613243565b50606487018051600101908190525b603c60c082028901038781528660208201528560408201528460608201528360808201528260a082015250505050505050505050565b80612e04576391b3e5146000526004601cfd5b636ab37ce76000526004601cfd5b6132a383613279565b6132ad81836131c1565b816132be57611831868686866145aa565b6118438282600189898960008a6131e0565b6064810151604082019060c0026044016132eb848383612e8c565b50506020905250565b6000806132ff6146c2565b6317b1f942815260208082015260408101858152336060830152601c9091019250613333610a896080860160608701615755565b61334461014460e083016060611aad565b610140613352816060840152565b61336060a082016080840152565b61026435602081026102000160a082026101600161338182858701836146cd565b92909201915061339490508160a0840152565b61339f600082840152565b6020016133ad8160c0840152565b6133b8600182840152565b6133c58682840160200152565b80606401925050509250929050565b6000807fffffffff000000000000000000000000000000000000000000000000000000008551166000805260206000868860008c5af16000519093501490508161342e5761342061453b565b82600052856020526024601cfd5b8061190e5782600052856020526024601cfd5b637fa8a9876000526004601cfd5b60008063ffffffff83351690506001810160051b6134738160408051918201905290565b9250613480848483611aad565b5050919050565b6000828403613497575080610400565b82848309156134ae5763c63cf0896000526004601cfd5b60006134ba8584615e61565b93909304949350505050565b6000848614613511578383034285900380820360006134e5838a615e61565b6134ef838c615e61565b6134f99190615d6c565b90508584878303040181151502945050505050612518565b5092949350505050565b6312d3f5a36000526004601cfd5b60408051610100810182526000606082018181526080830182905260a0830182905260c0830182905260e0830182905282526020820181905291810191909152835160000361357b5761357b856146e4565b8051600086600181111561359157613591615545565b036135c25773ffffffffffffffffffffffffffffffffffffffff831660808201526135bd8786846146f6565b6135db565b6135cd878684614861565b336020830152604082018490525b80606001516000036135fa576000602083018190526080820152600181525b5095945050505050565b63d5da9a1b6000526004601cfd5b845160609060008167ffffffffffffffff811115613632576136326159e2565b60405190808252806020026020018201604052801561365b578160200160208202803683370190505b5060408051602080825281830190925291925060009190602082018180368337019050508851909150600090815b818110156137045760008b82815181106136a5576136a5615a11565b602090810291909101015180519091506000815160058111156136ca576136ca615545565b036136e65747945084816060015111156136e6576136e6613179565b6136fa818360200151846040015189614231565b5050600101613689565b50505060005b838110156138845760008a828151811061372657613726615a11565b6020026020010151905080602001516effffffffffffffffffffffffffffff1660000361377757600084838151811061376157613761615a11565b911515602092830291909101909101525061387c565b600184838151811061378b5761378b615a11565b9115156020928302919091019091015280516040810151805160005b818110156138135760008382815181106137c3576137c3615a11565b60200260200101519050806060015160001461380057608081018051908e905285516101208701516137fa9184918c6142316103e9565b60808201525b60808101516060909101526001016137a7565b5050506060810151805160005b8181101561387657600083828151811061383c5761383c615a11565b602002602001015190506000816060015190508060001461386257613862888483614982565b5060a0810151606090910152600101613820565b50505050505b60010161370a565b5061388e81611a0b565b47801561389f5761389f3382613187565b85156139165760005b84811015613914578381815181106138c2576138c2615a11565b60200260200101511561390c5761390c8b82815181106138e4576138e4615a11565b60200260200101518a8b84815181106138ff576138ff615a11565b6020026020010151612b8f565b6001016138a8565b505b6139206001600055565b509098975050505050505050565b600061394261016060408051918201905290565b9050611b8c8282612521565b80821015611a3057611a3061499c565b631a515574600052806020526024601cfd5b63ee9e0e63600052806020526024601cfd5b6310fda3e1600052806020526024601cfd5b600080600084516001811660410380820360051c9250808752806020018701915050805160e81c6003820191506001811660051b868152825160208218525060015b83811015613a0357604060002082821c60051b6020908116918252938401805191909418526001016139d6565b505050604060002091506000613a18826149aa565b60009081526020939093525050604090209392505050565b600080600052815160208303805182604103600060018211613ab2576040870151606088015160001a8315613a9157601b8260ff1c0190507f7fffffffffffffffffffffffffffffffffffffffffffffffffffffffffffffff821660408a01525b88528a85526020600060808760015afa508385528588526040880152506000515b8a148a1515169450849050613bd3578585526040825260448503805160408703517f1626ba7e0000000000000000000000000000000000000000000000000000000083528960408903526020600060648b01858f5afa96508615613ba9577f1626ba7e0000000000000000000000000000000000000000000000000000000060005114613ba9578b3b15613b4e57634f7fb80d6000526004601cfd5b6001866041031115613b6857638baa579f6000526004601cfd5b640101000000606089015160001a1a15604187141615613b9b57631f003d0a600052606088015160001a6020526024601cfd5b63815e1d646000526004601cfd5b83855291527fffffffffffffffffffffffffffffffffffffffffffffffffffffffffffffffc08601525b5050508061184357613be361453b565b634f7fb80d6000526004601cfd5b60408051610100810182526000606082018181526080830182905260a0830182905260c0830182905260e083018290528252602082018190529181019190915283511580613c3e57508251155b15613c4b57613c4b614dbb565b60408051610100810182526000606082018181526080830182905260a0830182905260c0830182905260e0830182905282526020820181905291810191909152613c96868583614861565b80516060810151600003613cc157506000602082018190528151608001528051600190529050610536565b613ccc8787856146f6565b80604001518360000151604001511881602001518460000151602001511882600001516005811115613d0057613d00615545565b8551516005811115613d1457613d14615545565b1860ff161773ffffffffffffffffffffffffffffffffffffffff1617600014613d4057613d4084614dc9565b82600001516060015181606001511115613dd357600085600081518110613d6957613d69615a11565b6020026020010151905083600001516060015182606001510388826000015181518110613d9857613d98615a11565b60200260200101516000015160600151826020015181518110613dbd57613dbd615a11565b6020026020010151606001818152505050613e60565b600086600081518110613de857613de8615a11565b6020026020010151905081606001518460000151606001510388826000015181518110613e1757613e17615a11565b60200260200101516000015160400151826020015181518110613e3c57613e3c615a11565b60200260200101516060018181525050816060015184600001516060018181525050505b608090810151835173ffffffffffffffffffffffffffffffffffffffff90911691015250949350505050565b428084111590831116818015613ea0575080155b15610400576104008484614ddb565b635a052b326000526004601cfd5b600080600085610140015186606001515114613edb57613edb612246565b855160008080613eeb8a8a614df1565b9150915060008082846000885af173ffffffffffffffffffffffffffffffffffffffff85166000908152600360205260409020805460018101909155606086901b189750925082613f4f57613f408888614ea1565b965096509650505050506140de565b505050506000806000613f646103e9614ec390565b92509250925082600014613f7b57613f7b86615007565b604089015151825180821115613f9457613f9488615007565b60005b82811015614015576000613fc58d604001518381518110613fba57613fba615a11565b602002602001015190565b90506000613fde878481518110613fba57613fba615a11565b9050613fea8282615019565b614005613ff8606084015190565b60608501511190565b1190565b1797909717965050600101613f97565b505050604089018290526060890151815181518111156140385761403888615007565b60005b818110156140ba57600061405a848381518110613fba57613fba615a11565b90506000614073868481518110613fba57613fba615a11565b905061409161408360a084015190565b60a083015181159114171590565b61409b8383615019565b6140a9613ff8606086015190565b17179790971796505060010161403b565b5050506060890181905282156140d3576140d386615007565b506001935083925050505b93509350939050565b63a11b63ff6000526004601cfd5b63133c37c6600052806020526024601cfd5b60006104008284015190565b600083838151811061412757614127615a11565b602002602001015190506000816000015190506141448160031090565b61415057614150615076565b604082015180156141735761416e8460600151828660800151615084565b614186565b60808401515115614186576141866150d2565b60048214600303838160058111156141a0576141a0615545565b908160058111156141b3576141b3615545565b9052505050606090920151604090910152505050565b63a8930e9a60005281602052806040526044601cfd5b63d692933260005281602052806040526044601cfd5b600086880361421057614209868689613487565b905061070b565b61070861421e87878b613487565b61422988888b613487565b8686866134c6565b60008451600581111561424657614246615545565b03614290576040840151602085015173ffffffffffffffffffffffffffffffffffffffff1617156142795761427961328c565b61428b84608001518560600151613187565b61432e565b6001845160058111156142a5576142a5615545565b036142d6576040840151156142bc576142bc61328c565b61428b84602001518486608001518760600151868661329a565b6002845160058111156142eb576142eb615545565b0361430f5761428b84602001518486608001518760400151886060015187876118cc565b61432e8460200151848660800151876040015188606001518787611917565b50505050565b60008061433f6146c2565b6317b1f942815260208082015260408101878152336060830152601c9091019250855160408201528561437d61437660a083015190565b60e0840152565b61439361438b60c083015190565b610100840152565b6143a96143a160e083015190565b610120840152565b6101406143b7816060850152565b60006143c4604084015190565b905060006143d4828487016150e0565b9283019290506143e5836080870152565b60006143f2606086015190565b9050600061440282868901615147565b9485019490506144138560a0890152565b60006144218c878a016151b5565b9586019590506144328660c08a0152565b60006144408c888b016151d5565b9a9f96909a016024019d50949b505050505050505050505050565b6000806144666146c2565b63f4dd92ce815287841860a0820152601c8101925060200160a0808252876000614491604083015190565b905060006144a1828587016150e0565b9384019390506144b2846020870152565b60006144bf606085015190565b905060006144cf82878901615147565b9586019590506144e0866040890152565b60006144ee8d888a016151b5565b9687019690506144ff8760608a0152565b600061450d8d898b016151d5565b905080880197508760040199505050505050505050509550959350505050565b6339f3e3fd6000526004601cfd5b3d156103a357601f3d0160051c60405160051c816003028183111561456d578183036003028280028480020360091c01015b5a602082011015611a96573d6000803e3d6000fd5b63d13d53d4600052806020526024601cfd5b631cf99b2660005281602052806040526044601cfd5b6040517f23b872dd00000000000000000000000000000000000000000000000000000000600052836004528260245281604452602060006064600080895af1803d15601f3d116001600051141617163d151581166146b25780873b1515166146b257806146a05781614682573d1561465f57601f3d0160051c8360051c8160030281831115614646578183036003028280028480020360091c01015b5a60208201101561465b573d6000803e3d6000fd5b5050505b63f486bc8760005286602052856040528460605260006080528360a05260a4601cfd5b6398891923600052866020528560405284606052836080526084601cfd5b635f15d672600052866020526024601cfd5b5050604052505060006060525050565b60006103c060405190565b8082828560045afa80153d15171561432e57600080fd5b63375c24c1600052806020526024601cfd5b600080600084855160051b86015b80821015614812576020820191508151518851811061472557614725614840565b8060051b60208a01015190508051602084510151600060408301516020850151158151841015171561475b575050505050614704565b8260051b60208201015191505060608101935083518901915083511589831060011b178817975081985060008452895193508615600181146147c55760608220881860408c01516101208601511860208d01518651181717156147c0576147c0614840565b614808565b815185526020820151602086015260408201516040860152835160208c015261012084015160408c015260608520975060208c0192508683181561480857865183525b5050505050614704565b505050816060845101528015611a935760018103614838576391b3e5146000526004601cfd5b611a9361484e565b637fda72796000526004601cfd5b634e487b7160005260116020526024601cfd5b600080600084855160051b86015b8082101561495b576020820191508151518851811061489057614890614840565b8060051b60208a01015190506020835101516000606083510151602084015115815184101517156148c4575050505061486f565b8260051b60208201015191505060608101925082518801915082511588831060011b178717965081975060008352885192508515600181146149175760a08220871461491257614912614840565b614952565b8151845260208201516020850152604082015160408501526080820151608085015260a08220965060208b0192508583181561495257855183525b5050505061486f565b50508351606001839052508015611a935760018103614838576391b3e5146000526004601cfd5b63a5f542086000528260205281604052806060526064601cfd5b63466aa6166000526004601cfd5b6000614db2565b60006009821015614b0b576005821015614a68576003821015614a1b577f832c58a5b611aadcfa6a082ac9d04bace53d8278387f10040347b7e98eb5b30260018314027fbf8e29b89f29ed9b529c154a63038ffca562f8d7cd1e2545dda53a1b582dde30186103b0565b7ff3e8417a785f980bdaf134fa0274a6bf891eeb8195cd94b09d2aa651046e28bc60038314027fa02eb7ff164c884e5e2c336dc85f81c6a93329d8e9adf214b32729b894de2af1186103b0565b6007821015614abe577f25d02425402d882d211a7ab774c0ed6eca048c4d03d9af40132475744753b2a360058314027f1c19f71958cdd8f081b4c31f7caf5c010b29d12950be2fa1c95070dc47e30b55186103b0565b7fb58d772fb09b426b9dece637f61ca9065f2b994f1464b51e9207f55f7c8f594860078314027f7ff98d9d4e55d876c5cfac10b43c04039522f3ddfb0ea9bfe70c68cfb5c7cc14186103b0565b6011821015614c6357600d821015614bc057600b821015614b73577f6f0ec38c21f6f583ab7f3c5413c773ffd5344c34fde1d390958e438bf667448f60098314027fd1d97d1ef5eaa37a4ee5fbf234e6f6d64eb511eb562221cd7edfbdde0848da05186103b0565b7f32f4e7485d6485f9f6c255929b9905c62ba919758bbe231f231eaeecf33d810c600b8314027fbb98d87cc12922b83759626c5f07d72266da9702d19ffad6a514c73a89002f5f186103b0565b600f821015614c16577f8df51df98847160517f5b1186b4bc3f418d98b8a7f17f1292f392d79d600d79e600d8314027f6b5b04cbae4fcb1a9d78e7b2dfc51a36933d023cf6e347e03d517b472a852590186103b0565b7fcc4886e37eedd9aacd6c1c2c9247197a621a71282e87a7cbc673f3736d9aa141600f8314027f1da3eed3ecef6ebaa6e5023c057ec2c75150693fd0dac5c90f4a142f9879fde8186103b0565b6015821015614d0f576013821015614cc2577f2d7a3ed6dab270fdb8e054b2ad525f0ce2a8b89cc76c17f0965434740f673a5560118314027fc3939feff011e53ab8c35ca3370aad54c5df1fc2938cd62543174fa6e7d85877186103b0565b7f54b3212a178782f104e0d514b41a9a5c4ca9c980bf6597c3cecbf280917e202a60138314027f5a4f867d3d458dabecad65f6201ceeaba0096df2d0c491cc32e6ea4e64350017186103b0565b6017821015614d65577fbb40bf8cea3a5a716e2b6eb08bbdac8ec159f82f380783db3c56904f15a43d0460158314027f3bd8cff538aba49a9c374c806d277181e9651624b3e31111bc0624574f8bca1d186103b0565b7f403be09941a31d05cfc2f896505811353d45d38743288b016630cce39435476a60178314027f1d51df90cba8de7637ca3e8fe1e3511d1dc2f23487d05dbdecb781860c21ac1c186103b0565b6103b0826149b1565b6398e9db6e6000526004601cfd5b63bced929d600052806020526024601cfd5b6321ccfeb760005281602052806040526044601cfd5b60008083614dfd6146c2565b639891976581523360208201908152608060408301819052601c9092019450906000614e2a604085015190565b90506000614e3a828486016150e0565b928301929050614e4b836040860152565b6000614e58606087015190565b90506000614e68828688016150e0565b948501949050614e79856060880152565b896000614e88828989016151b5565b9a9d96909a016004019b50949950505050505050505050565b60008060008415614eb557614eb584615007565b509193600093508392509050565b60803d106000808080808086614f255760406000803e6000516020513d81113d8311179850909450925086614f255760208460003e600051915060208360203e506020516000805261ffff828217113d608060a08402600786901b0101111796505b86614f4957614f378260208601614f52565b9550614f468160208501614fb1565b94505b50505050909192565b6000604051905060c08302602001810160405282815260208360010160051b8083015b81831015614fa8578083850152608085823e6060810151608082015260808501945060a081019050602083019250614f75565b50505092915050565b6000604051905060e08302602001810160405282815260208360010160051b8083015b81831015614fa8578083850152608085823e604060608601608083013e60a094909401936020929092019160c001614fd4565b6393979285600052806020526024601cfd5b600082516040840151801560038311161561503f57600482146003039150604084015190505b6060850151606085015150608086015181146040860151831416855184146020870151602089015114161615935050505092915050565b6394eb6af66000526004601cfd5b600083600052602060002060208301835160051b81015b808210156150c357815180841160051b9384526020938418526040600020929091019061509b565b5050831490508061432e5761432e5b6309bde3396000526004601cfd5b6000825180835260208401602084018260051b82015b8083101561513457825180518352602081015160208401526040810151604084015260608101516060840152506020830192506080820191506150f6565b5050508060071b60200191505092915050565b600080615152845190565b8084529050602084810190600583901b860181019085015b6151748383614001565b156151a257600061518484615206565b9050615192818360a06146cd565b506020929092019160a00161516a565b60a0840260200194505050505092915050565b600063ffffffe0603f6151c6855190565b011690506103b08383836146cd565b6000806151e0845190565b8084529050600581901b6151fb6020868101908601836146cd565b602001949350505050565b60006103b0825190565b6040518060a00160405280615223615244565b81526000602082018190526040820152606080820181905260809091015290565b604051806101600160405280600073ffffffffffffffffffffffffffffffffffffffff168152602001600073ffffffffffffffffffffffffffffffffffffffff1681526020016060815260200160608152602001600060048111156152ab576152ab615545565b815260006020820181905260408201819052606082018190526080820181905260a0820181905260c09091015290565b6000602082840312156152ed57600080fd5b813567ffffffffffffffff81111561530457600080fd5b8201610240818503121561040057600080fd5b6000815180845260005b8181101561533d57602081850181015186830182015201615321565b5060006020828601015260207fffffffffffffffffffffffffffffffffffffffffffffffffffffffffffffffe0601f83011685010191505092915050565b6020815260006104006020830184615317565b6000602082840312156153a057600080fd5b5035919050565b6000602082840312156153b957600080fd5b813567ffffffffffffffff8111156153d057600080fd5b8201610160818503121561040057600080fd5b60008083601f8401126153f557600080fd5b50813567ffffffffffffffff81111561540d57600080fd5b6020830191508360208260051b850101111561542857600080fd5b9250929050565b73ffffffffffffffffffffffffffffffffffffffff81168114612e0457600080fd5b8035611b8c8161542f565b600080600080600080600080600080600060e08c8e03121561547d57600080fd5b67ffffffffffffffff808d35111561549457600080fd5b6154a18e8e358f016153e3565b909c509a5060208d01358110156154b757600080fd5b6154c78e60208f01358f016153e3565b909a50985060408d01358110156154dd57600080fd5b6154ed8e60408f01358f016153e3565b909850965060608d013581101561550357600080fd5b506155148d60608e01358e016153e3565b909550935060808c0135925061552c60a08d01615451565b915060c08c013590509295989b509295989b9093969950565b7f4e487b7100000000000000000000000000000000000000000000000000000000600052602160045260246000fd5b60068110611b0657611b06615545565b61558f828251615574565b602081015173ffffffffffffffffffffffffffffffffffffffff8082166020850152604083015160408501526060830151606085015280608084015116608085015250505050565b600081518084526020808501945080840160005b8381101561563a578151615600888251615584565b8084015173ffffffffffffffffffffffffffffffffffffffff1660a08901526040015160c088015260e090960195908201906001016155eb565b509495945050505050565b604080825283519082018190526000906020906060840190828701845b82811015615680578151151584529284019290840190600101615662565b505050838103828501526105f181866155d7565b600080602083850312156156a757600080fd5b823567ffffffffffffffff8111156156be57600080fd5b6156ca858286016153e3565b90969095509350505050565b600080600080604085870312156156ec57600080fd5b843567ffffffffffffffff8082111561570457600080fd5b615710888389016153e3565b9096509450602087013591508082111561572957600080fd5b50615736878288016153e3565b95989497509550505050565b60208152600061040060208301846155d7565b60006020828403121561576757600080fd5b81356104008161542f565b6000806040838503121561578557600080fd5b823567ffffffffffffffff81111561579c57600080fd5b8301604081860312156157ae57600080fd5b946020939093013593505050565b6000806000806000608086880312156157d457600080fd5b853567ffffffffffffffff808211156157ec57600080fd5b9087019060a0828a03121561580057600080fd5b9095506020870135908082111561581657600080fd5b50615823888289016153e3565b90955093505060408601359150606086013561583e8161542f565b809150509295509295909350565b60008060008060008060008060a0898b03121561586857600080fd5b883567ffffffffffffffff8082111561588057600080fd5b61588c8c838d016153e3565b909a50985060208b01359150808211156158a557600080fd5b6158b18c838d016153e3565b909850965060408b01359150808211156158ca57600080fd5b506158d78b828c016153e3565b999c989b509699959896976060870135966080013595509350505050565b60008060008060008060006080888a03121561591057600080fd5b873567ffffffffffffffff8082111561592857600080fd5b6159348b838c016153e3565b909950975060208a013591508082111561594d57600080fd5b6159598b838c016153e3565b909750955060408a013591508082111561597257600080fd5b5061597f8a828b016153e3565b90945092505060608801356159938161542f565b8091505092959891949750929550565b6060815260006159b66060830186615317565b905083602083015273ffffffffffffffffffffffffffffffffffffffff83166040830152949350505050565b7f4e487b7100000000000000000000000000000000000000000000000000000000600052604160045260246000fd5b7f4e487b7100000000000000000000000000000000000000000000000000000000600052603260045260246000fd5b600081518084526020808501945080840160005b8381101561563a578151615a69888251615574565b8084015173ffffffffffffffffffffffffffffffffffffffff168885015260408082015190890152606080820151908901526080908101519088015260a09096019590820190600101615a54565b600081518084526020808501945080840160005b8381101561563a578151615ae0888251615574565b8084015173ffffffffffffffffffffffffffffffffffffffff90811689860152604080830151908a0152606080830151908a0152608080830151908a015260a091820151169088015260c09096019590820190600101615acb565b60058110611b0657611b06615545565b82815260406020820152615b7860408201835173ffffffffffffffffffffffffffffffffffffffff169052565b60006020830151615ba1606084018273ffffffffffffffffffffffffffffffffffffffff169052565b506040830151610160806080850152615bbe6101a0850183615a40565b915060608501517fffffffffffffffffffffffffffffffffffffffffffffffffffffffffffffffc08584030160a0860152615bf98382615ab7565b9250506080850151615c0e60c0860182615b3b565b5060a085015160e085015260c0850151610100818187015260e0870151915061012082818801528188015192506101409150828288015280880151848801525080870151610180870152505050809150509392505050565b600082357ffffffffffffffffffffffffffffffffffffffffffffffffffffffffffffffea1833603018112615c9a57600080fd5b9190910192915050565b600060208284031215615cb657600080fd5b81356005811061040057600080fd5b60008083357fffffffffffffffffffffffffffffffffffffffffffffffffffffffffffffffe1843603018112615cfa57600080fd5b83018035915067ffffffffffffffff821115615d1557600080fd5b60200191503681900382131561542857600080fd5b7f4e487b7100000000000000000000000000000000000000000000000000000000600052601160045260246000fd5b818103818111156103b0576103b0615d2a565b808201808211156103b0576103b0615d2a565b600081518084526020808501945080840160005b8381101561563a57615da6878351615584565b60a0969096019590820190600101615d93565b60006080808301878452602073ffffffffffffffffffffffffffffffffffffffff808916828701526040848188015283895180865260a089019150848b01955060005b81811015615e3d578651615e11848251615574565b808701518616848801528481015185850152606090810151908401529585019591870191600101615dfc565b50508781036060890152615e51818a615d7f565b9c9b505050505050505050505050565b80820281158282048414176103b0576103b0615d2a56fea2646970667358221220b0aa771a70d47335a348ae797bdc1b3515a6d80873534f660f52939709351ce264736f6c63430008110033436f6e73696465726174696f6e4974656d2875696e7438206974656d547970652c6164647265737320746f6b656e2c75696e74323536206964656e7469666965724f7243726974657269612c75696e74323536207374617274416d6f756e742c75696e7432353620656e64416d6f756e742c6164647265737320726563697069656e7429454950373132446f6d61696e28737472696e67206e616d652c737472696e672076657273696f6e2c75696e7432353620636861696e49642c6164647265737320766572696679696e67436f6e7472616374294f72646572436f6d706f6e656e74732861646472657373206f6666657265722c61646472657373207a6f6e652c4f666665724974656d5b5d206f666665722c436f6e73696465726174696f6e4974656d5b5d20636f6e73696465726174696f6e2c75696e7438206f72646572547970652c75696e7432353620737461727454696d652c75696e7432353620656e6454696d652c62797465733332207a6f6e65486173682c75696e743235362073616c742c6279746573333220636f6e647569744b65792c75696e7432353620636f756e746572294f666665724974656d2875696e7438206974656d547970652c6164647265737320746f6b656e2c75696e74323536206964656e7469666965724f7243726974657269612c75696e74323536207374617274416d6f756e742c75696e7432353620656e64416d6f756e7429",
			"opcodes": "PUSH2 0x1C0 PUSH1 0x40 MSTORE CALLVALUE DUP1 ISZERO PUSH3 0x12 JUMPI PUSH1 0x0 DUP1 REVERT JUMPDEST POP PUSH1 0x40 MLOAD PUSH3 0x6455 CODESIZE SUB DUP1 PUSH3 0x6455 DUP4 CODECOPY DUP2 ADD PUSH1 0x40 DUP2 SWAP1 MSTORE PUSH3 0x35 SWAP2 PUSH3 0x245 JUMP JUMPDEST DUP1 DUP1 DUP1 DUP1 DUP1 DUP1 DUP1 DUP1 DUP1 DUP1 PUSH3 0x49 PUSH3 0x119 JUMP JUMPDEST PUSH2 0x120 MSTORE PUSH2 0x100 MSTORE PUSH1 0xE0 MSTORE PUSH1 0xC0 DUP2 SWAP1 MSTORE PUSH1 0xA0 DUP3 DUP2 MSTORE CHAINID PUSH2 0x140 DUP2 SWAP1 MSTORE PUSH1 0x40 DUP1 MLOAD PUSH1 0x0 SWAP5 DUP6 MSTORE PUSH1 0x20 DUP8 SWAP1 MSTORE SWAP5 DUP2 MSTORE PUSH1 0x60 SWAP2 DUP3 MSTORE ADDRESS PUSH1 0x80 SWAP1 DUP2 MSTORE SWAP3 DUP5 KECCAK256 DUP6 DUP3 MSTORE SWAP4 SWAP1 SWAP2 MSTORE SWAP4 SWAP1 MSTORE PUSH2 0x160 MSTORE PUSH1 0x1 PUSH1 0x1 PUSH1 0xA0 SHL SUB DUP4 AND PUSH2 0x180 DUP2 SWAP1 MSTORE PUSH4 0xA96AD39 PUSH1 0xE0 SHL DUP3 MSTORE DUP3 MLOAD SWAP1 SWAP3 PUSH4 0xA96AD39 SWAP3 PUSH1 0x4 DUP1 DUP3 ADD SWAP4 SWAP2 DUP3 SWAP1 SUB ADD DUP2 DUP7 GAS STATICCALL ISZERO DUP1 ISZERO PUSH3 0xD7 JUMPI RETURNDATASIZE PUSH1 0x0 DUP1 RETURNDATACOPY RETURNDATASIZE PUSH1 0x0 REVERT JUMPDEST POP POP POP POP PUSH1 0x40 MLOAD RETURNDATASIZE PUSH1 0x1F NOT PUSH1 0x1F DUP3 ADD AND DUP3 ADD DUP1 PUSH1 0x40 MSTORE POP DUP2 ADD SWAP1 PUSH3 0xFD SWAP2 SWAP1 PUSH3 0x277 JUMP JUMPDEST POP PUSH2 0x1A0 MSTORE POP POP PUSH1 0x1 PUSH1 0x0 SSTORE POP PUSH3 0x2FB SWAP8 POP POP POP POP POP POP POP POP JUMP JUMPDEST PUSH1 0x0 DUP1 DUP1 DUP1 DUP1 DUP1 PUSH3 0x145 PUSH1 0x40 DUP1 MLOAD DUP1 DUP3 ADD SWAP1 SWAP2 MSTORE PUSH1 0x7 DUP2 MSTORE PUSH7 0x14D9585C1BDC9D PUSH1 0xCA SHL PUSH1 0x20 DUP3 ADD MSTORE SWAP1 JUMP JUMPDEST DUP1 MLOAD SWAP1 PUSH1 0x20 ADD KECCAK256 SWAP6 POP PUSH1 0x40 MLOAD DUP1 PUSH1 0x40 ADD PUSH1 0x40 MSTORE DUP1 PUSH1 0x3 DUP2 MSTORE PUSH1 0x20 ADD PUSH3 0x312E35 PUSH1 0xE8 SHL DUP2 MSTORE POP DUP1 MLOAD SWAP1 PUSH1 0x20 ADD KECCAK256 SWAP5 POP PUSH1 0x0 PUSH1 0x40 MLOAD DUP1 PUSH1 0xA0 ADD PUSH1 0x40 MSTORE DUP1 PUSH1 0x6A DUP2 MSTORE PUSH1 0x20 ADD PUSH3 0x63EB PUSH1 0x6A SWAP2 CODECOPY SWAP1 POP PUSH1 0x0 PUSH1 0x40 MLOAD DUP1 PUSH1 0xC0 ADD PUSH1 0x40 MSTORE DUP1 PUSH1 0x84 DUP2 MSTORE PUSH1 0x20 ADD PUSH3 0x6241 PUSH1 0x84 SWAP2 CODECOPY SWAP1 POP PUSH1 0x0 PUSH1 0x40 MLOAD DUP1 PUSH2 0x100 ADD PUSH1 0x40 MSTORE DUP1 PUSH1 0xD4 DUP2 MSTORE PUSH1 0x20 ADD PUSH3 0x6317 PUSH1 0xD4 SWAP2 CODECOPY SWAP1 POP PUSH1 0x40 MLOAD DUP1 PUSH1 0x80 ADD PUSH1 0x40 MSTORE DUP1 PUSH1 0x52 DUP2 MSTORE PUSH1 0x20 ADD PUSH3 0x62C5 PUSH1 0x52 SWAP2 CODECOPY DUP1 MLOAD SWAP1 PUSH1 0x20 ADD KECCAK256 SWAP7 POP DUP3 DUP1 MLOAD SWAP1 PUSH1 0x20 ADD KECCAK256 SWAP6 POP DUP2 DUP1 MLOAD SWAP1 PUSH1 0x20 ADD KECCAK256 SWAP5 POP PUSH1 0x0 DUP2 DUP4 DUP6 PUSH1 0x40 MLOAD PUSH1 0x20 ADD PUSH3 0x21E SWAP4 SWAP3 SWAP2 SWAP1 PUSH3 0x2CE JUMP JUMPDEST PUSH1 0x40 MLOAD PUSH1 0x20 DUP2 DUP4 SUB SUB DUP2 MSTORE SWAP1 PUSH1 0x40 MSTORE SWAP1 POP DUP1 DUP1 MLOAD SWAP1 PUSH1 0x20 ADD KECCAK256 SWAP5 POP POP POP POP POP SWAP1 SWAP2 SWAP3 SWAP4 SWAP5 SWAP6 JUMP JUMPDEST PUSH1 0x0 PUSH1 0x20 DUP3 DUP5 SUB SLT ISZERO PUSH3 0x258 JUMPI PUSH1 0x0 DUP1 REVERT JUMPDEST DUP2 MLOAD PUSH1 0x1 PUSH1 0x1 PUSH1 0xA0 SHL SUB DUP2 AND DUP2 EQ PUSH3 0x270 JUMPI PUSH1 0x0 DUP1 REVERT JUMPDEST SWAP4 SWAP3 POP POP POP JUMP JUMPDEST PUSH1 0x0 DUP1 PUSH1 0x40 DUP4 DUP6 SUB SLT ISZERO PUSH3 0x28B JUMPI PUSH1 0x0 DUP1 REVERT JUMPDEST POP POP DUP1 MLOAD PUSH1 0x20 SWAP1 SWAP2 ADD MLOAD SWAP1 SWAP3 SWAP1 SWAP2 POP JUMP JUMPDEST PUSH1 0x0 DUP2 MLOAD PUSH1 0x0 JUMPDEST DUP2 DUP2 LT ISZERO PUSH3 0x2BF JUMPI PUSH1 0x20 DUP2 DUP6 ADD DUP2 ADD MLOAD DUP7 DUP4 ADD MSTORE ADD PUSH3 0x2A3 JUMP JUMPDEST POP PUSH1 0x0 SWAP4 ADD SWAP3 DUP4 MSTORE POP SWAP1 SWAP2 SWAP1 POP JUMP JUMPDEST PUSH1 0x0 PUSH3 0x2F2 PUSH3 0x2EB PUSH3 0x2E4 DUP5 DUP9 PUSH3 0x29C JUMP JUMPDEST DUP7 PUSH3 0x29C JUMP JUMPDEST DUP5 PUSH3 0x29C JUMP JUMPDEST SWAP6 SWAP5 POP POP POP POP POP JUMP JUMPDEST PUSH1 0x80 MLOAD PUSH1 0xA0 MLOAD PUSH1 0xC0 MLOAD PUSH1 0xE0 MLOAD PUSH2 0x100 MLOAD PUSH2 0x120 MLOAD PUSH2 0x140 MLOAD PUSH2 0x160 MLOAD PUSH2 0x180 MLOAD PUSH2 0x1A0 MLOAD PUSH2 0x5EAE PUSH3 0x393 PUSH1 0x0 CODECOPY PUSH1 0x0 PUSH2 0x2ED4 ADD MSTORE PUSH1 0x0 DUP2 DUP2 PUSH2 0x12B9 ADD MSTORE PUSH2 0x2E92 ADD MSTORE PUSH1 0x0 PUSH2 0x2D78 ADD MSTORE PUSH1 0x0 PUSH2 0x2CBF ADD MSTORE PUSH1 0x0 DUP2 DUP2 PUSH2 0xC1A ADD MSTORE PUSH2 0x16AE ADD MSTORE PUSH1 0x0 DUP2 DUP2 PUSH2 0xB6C ADD MSTORE PUSH2 0x14C2 ADD MSTORE PUSH1 0x0 DUP2 DUP2 PUSH2 0xAE7 ADD MSTORE PUSH2 0x161A ADD MSTORE PUSH1 0x0 PUSH2 0x2CEF ADD MSTORE PUSH1 0x0 PUSH2 0x2D39 ADD MSTORE PUSH1 0x0 PUSH2 0x2D15 ADD MSTORE PUSH2 0x5EAE PUSH1 0x0 RETURN INVALID PUSH1 0x80 PUSH1 0x40 MSTORE PUSH1 0x4 CALLDATASIZE LT PUSH2 0x10D JUMPI PUSH1 0x0 CALLDATALOAD PUSH1 0xE0 SHR DUP1 PUSH4 0xA900866B GT PUSH2 0xA5 JUMPI DUP1 PUSH4 0xF07EC373 GT PUSH2 0x74 JUMPI DUP1 PUSH4 0xF47B7740 GT PUSH2 0x59 JUMPI DUP1 PUSH4 0xF47B7740 EQ PUSH2 0x34C JUMPI DUP1 PUSH4 0xFB0F3EE1 EQ PUSH2 0x121 JUMPI DUP1 PUSH4 0xFD9F1E10 EQ PUSH2 0x370 JUMPI PUSH1 0x0 DUP1 REVERT JUMPDEST DUP1 PUSH4 0xF07EC373 EQ PUSH2 0x319 JUMPI DUP1 PUSH4 0xF2D12B12 EQ PUSH2 0x339 JUMPI PUSH1 0x0 DUP1 REVERT JUMPDEST DUP1 PUSH4 0xA900866B EQ PUSH2 0x29D JUMPI DUP1 PUSH4 0xB3A34C4C EQ PUSH2 0x2E0 JUMPI DUP1 PUSH4 0xE7ACAB24 EQ PUSH2 0x2F3 JUMPI DUP1 PUSH4 0xED98A574 EQ PUSH2 0x306 JUMPI PUSH1 0x0 DUP1 REVERT JUMPDEST DUP1 PUSH4 0x79DF72BD GT PUSH2 0xE1 JUMPI DUP1 PUSH4 0x79DF72BD EQ PUSH2 0x21C JUMPI DUP1 PUSH4 0x87201B41 EQ PUSH2 0x23C JUMPI DUP1 PUSH4 0x88147732 EQ PUSH2 0x25D JUMPI DUP1 PUSH4 0xA8174404 EQ PUSH2 0x27D JUMPI PUSH1 0x0 DUP1 REVERT JUMPDEST DUP1 ISZERO PUSH2 0x121 JUMPI DUP1 PUSH4 0x6FDDE03 EQ PUSH2 0x149 JUMPI DUP1 PUSH4 0x46423AA7 EQ PUSH2 0x16B JUMPI DUP1 PUSH4 0x5B34B966 EQ PUSH2 0x1F9 JUMPI PUSH1 0x0 DUP1 REVERT JUMPDEST CALLDATASIZE PUSH2 0x11C JUMPI PUSH2 0x11A PUSH2 0x390 JUMP JUMPDEST STOP JUMPDEST PUSH1 0x0 DUP1 REVERT JUMPDEST PUSH2 0x134 PUSH2 0x12F CALLDATASIZE PUSH1 0x4 PUSH2 0x52DB JUMP JUMPDEST PUSH2 0x3A5 JUMP JUMPDEST PUSH1 0x40 MLOAD SWAP1 ISZERO ISZERO DUP2 MSTORE PUSH1 0x20 ADD JUMPDEST PUSH1 0x40 MLOAD DUP1 SWAP2 SUB SWAP1 RETURN JUMPDEST CALLVALUE DUP1 ISZERO PUSH2 0x155 JUMPI PUSH1 0x0 DUP1 REVERT JUMPDEST POP PUSH2 0x15E PUSH2 0x3B6 JUMP JUMPDEST PUSH1 0x40 MLOAD PUSH2 0x140 SWAP2 SWAP1 PUSH2 0x537B JUMP JUMPDEST CALLVALUE DUP1 ISZERO PUSH2 0x177 JUMPI PUSH1 0x0 DUP1 REVERT JUMPDEST POP PUSH2 0x1D7 PUSH2 0x186 CALLDATASIZE PUSH1 0x4 PUSH2 0x538E JUMP JUMPDEST PUSH1 0x0 SWAP1 DUP2 MSTORE PUSH1 0x2 PUSH1 0x20 MSTORE PUSH1 0x40 SWAP1 KECCAK256 SLOAD PUSH1 0xFF DUP1 DUP3 AND SWAP3 PUSH2 0x100 DUP4 DIV SWAP1 SWAP2 AND SWAP2 PUSH15 0xFFFFFFFFFFFFFFFFFFFFFFFFFFFFFF PUSH3 0x10000 DUP3 DIV DUP2 AND SWAP3 PUSH18 0x10000000000000000000000000000000000 SWAP1 SWAP3 DIV AND SWAP1 JUMP JUMPDEST PUSH1 0x40 DUP1 MLOAD SWAP5 ISZERO ISZERO DUP6 MSTORE SWAP3 ISZERO ISZERO PUSH1 0x20 DUP6 ADD MSTORE SWAP2 DUP4 ADD MSTORE PUSH1 0x60 DUP3 ADD MSTORE PUSH1 0x80 ADD PUSH2 0x140 JUMP JUMPDEST CALLVALUE DUP1 ISZERO PUSH2 0x205 JUMPI PUSH1 0x0 DUP1 REVERT JUMPDEST POP PUSH2 0x20E PUSH2 0x3C5 JUMP JUMPDEST PUSH1 0x40 MLOAD SWAP1 DUP2 MSTORE PUSH1 0x20 ADD PUSH2 0x140 JUMP JUMPDEST CALLVALUE DUP1 ISZERO PUSH2 0x228 JUMPI PUSH1 0x0 DUP1 REVERT JUMPDEST POP PUSH2 0x20E PUSH2 0x237 CALLDATASIZE PUSH1 0x4 PUSH2 0x53A7 JUMP JUMPDEST PUSH2 0x3CF JUMP JUMPDEST PUSH2 0x24F PUSH2 0x24A CALLDATASIZE PUSH1 0x4 PUSH2 0x545C JUMP JUMPDEST PUSH2 0x407 JUMP JUMPDEST PUSH1 0x40 MLOAD PUSH2 0x140 SWAP3 SWAP2 SWAP1 PUSH2 0x5645 JUMP JUMPDEST CALLVALUE DUP1 ISZERO PUSH2 0x269 JUMPI PUSH1 0x0 DUP1 REVERT JUMPDEST POP PUSH2 0x134 PUSH2 0x278 CALLDATASIZE PUSH1 0x4 PUSH2 0x5694 JUMP JUMPDEST PUSH2 0x480 JUMP JUMPDEST PUSH2 0x290 PUSH2 0x28B CALLDATASIZE PUSH1 0x4 PUSH2 0x56D6 JUMP JUMPDEST PUSH2 0x49F JUMP JUMPDEST PUSH1 0x40 MLOAD PUSH2 0x140 SWAP2 SWAP1 PUSH2 0x5742 JUMP JUMPDEST CALLVALUE DUP1 ISZERO PUSH2 0x2A9 JUMPI PUSH1 0x0 DUP1 REVERT JUMPDEST POP PUSH2 0x20E PUSH2 0x2B8 CALLDATASIZE PUSH1 0x4 PUSH2 0x5755 JUMP JUMPDEST PUSH20 0xFFFFFFFFFFFFFFFFFFFFFFFFFFFFFFFFFFFFFFFF AND PUSH1 0x0 SWAP1 DUP2 MSTORE PUSH1 0x3 PUSH1 0x20 MSTORE PUSH1 0x40 SWAP1 KECCAK256 SLOAD SWAP1 JUMP JUMPDEST PUSH2 0x134 PUSH2 0x2EE CALLDATASIZE PUSH1 0x4 PUSH2 0x5772 JUMP JUMPDEST PUSH2 0x53E JUMP JUMPDEST PUSH2 0x134 PUSH2 0x301 CALLDATASIZE PUSH1 0x4 PUSH2 0x57BC JUMP JUMPDEST PUSH2 0x5BC JUMP JUMPDEST PUSH2 0x24F PUSH2 0x314 CALLDATASIZE PUSH1 0x4 PUSH2 0x584C JUMP JUMPDEST PUSH2 0x5FB JUMP JUMPDEST CALLVALUE DUP1 ISZERO PUSH2 0x325 JUMPI PUSH1 0x0 DUP1 REVERT JUMPDEST POP PUSH2 0x20E PUSH2 0x334 CALLDATASIZE PUSH1 0x4 PUSH2 0x5755 JUMP JUMPDEST PUSH2 0x6A2 JUMP JUMPDEST PUSH2 0x290 PUSH2 0x347 CALLDATASIZE PUSH1 0x4 PUSH2 0x58F5 JUMP JUMPDEST PUSH2 0x6CD JUMP JUMPDEST CALLVALUE DUP1 ISZERO PUSH2 0x358 JUMPI PUSH1 0x0 DUP1 REVERT JUMPDEST POP PUSH2 0x361 PUSH2 0x716 JUMP JUMPDEST PUSH1 0x40 MLOAD PUSH2 0x140 SWAP4 SWAP3 SWAP2 SWAP1 PUSH2 0x59A3 JUMP JUMPDEST CALLVALUE DUP1 ISZERO PUSH2 0x37C JUMPI PUSH1 0x0 DUP1 REVERT JUMPDEST POP PUSH2 0x134 PUSH2 0x38B CALLDATASIZE PUSH1 0x4 PUSH2 0x5694 JUMP JUMPDEST PUSH2 0x72E JUMP JUMPDEST PUSH1 0x3 PUSH1 0x0 SLOAD EQ PUSH2 0x3A3 JUMPI PUSH2 0x3A3 CALLVALUE PUSH2 0x73A JUMP JUMPDEST JUMP JUMPDEST PUSH1 0x0 PUSH2 0x3B0 DUP3 PUSH2 0x74C JUMP JUMPDEST SWAP3 SWAP2 POP POP JUMP JUMPDEST PUSH1 0x60 PUSH2 0x3C0 PUSH2 0x9A9 JUMP JUMPDEST SWAP1 POP SWAP1 JUMP JUMPDEST PUSH1 0x0 PUSH2 0x3C0 PUSH2 0x9C1 JUMP JUMPDEST PUSH1 0x0 DUP1 PUSH2 0x3DC PUSH1 0x4 PUSH2 0xA3F JUMP JUMPDEST SWAP1 POP PUSH2 0x400 PUSH2 0x3F1 DUP3 PUSH2 0xA50 JUMPDEST PUSH4 0xFFFFFFFF AND JUMP JUMPDEST PUSH2 0x140 DUP4 ADD CALLDATALOAD PUSH2 0xACF JUMP JUMPDEST CALLDATALOAD SWAP1 JUMP JUMPDEST SWAP4 SWAP3 POP POP POP JUMP JUMPDEST PUSH1 0x60 DUP1 PUSH2 0x46C PUSH2 0x422 PUSH2 0x41A PUSH1 0x4 PUSH2 0xA3F JUMP JUMPDEST PUSH2 0xC70 PUSH2 0x3E9 JUMP JUMPDEST PUSH2 0x439 PUSH2 0x431 PUSH1 0x4 PUSH1 0x20 PUSH2 0xCDA JUMP JUMPDEST PUSH2 0xCF9 PUSH2 0x3E9 JUMP JUMPDEST PUSH2 0x450 PUSH2 0x448 PUSH1 0x4 PUSH1 0x40 PUSH2 0xCDA JUMP JUMPDEST PUSH2 0xD53 PUSH2 0x3E9 JUMP JUMPDEST PUSH2 0x45F PUSH2 0x448 PUSH1 0x4 PUSH1 0x60 PUSH2 0xCDA JUMP JUMPDEST DUP10 CALLER DUP11 ISZERO MUL DUP11 ADD DUP10 PUSH2 0xDAD JUMP JUMPDEST SWAP2 POP SWAP2 POP SWAP12 POP SWAP12 SWAP10 POP POP POP POP POP POP POP POP POP POP JUMP JUMPDEST PUSH1 0x0 PUSH2 0x400 PUSH2 0x49A PUSH2 0x492 PUSH1 0x4 PUSH2 0xA3F JUMP JUMPDEST PUSH2 0xDE6 PUSH2 0x3E9 JUMP JUMPDEST PUSH2 0xE40 JUMP JUMPDEST PUSH1 0x60 PUSH2 0x533 PUSH2 0x4B9 PUSH2 0x4B1 PUSH1 0x4 PUSH2 0xA3F JUMP JUMPDEST PUSH2 0xF84 PUSH2 0x3E9 JUMP JUMPDEST PUSH1 0x40 DUP1 MLOAD PUSH1 0x0 DUP1 DUP3 MSTORE PUSH1 0x20 DUP3 ADD SWAP1 SWAP3 MSTORE SWAP1 PUSH2 0x515 JUMP JUMPDEST PUSH2 0x502 PUSH1 0x40 DUP1 MLOAD PUSH1 0xA0 DUP2 ADD SWAP1 SWAP2 MSTORE PUSH1 0x0 DUP1 DUP3 MSTORE PUSH1 0x20 DUP3 ADD SWAP1 DUP2 MSTORE PUSH1 0x20 ADD PUSH1 0x0 DUP2 MSTORE PUSH1 0x20 ADD PUSH1 0x0 DUP2 MSTORE PUSH1 0x20 ADD PUSH1 0x60 DUP2 MSTORE POP SWAP1 JUMP JUMPDEST DUP2 MSTORE PUSH1 0x20 ADD SWAP1 PUSH1 0x1 SWAP1 SUB SWAP1 DUP2 PUSH2 0x4CF JUMPI SWAP1 POP JUMPDEST POP PUSH2 0x52D PUSH2 0x525 PUSH1 0x4 PUSH1 0x20 PUSH2 0xCDA JUMP JUMPDEST PUSH2 0xFDE PUSH2 0x3E9 JUMP JUMPDEST CALLER PUSH2 0x1038 JUMP JUMPDEST SWAP1 POP JUMPDEST SWAP5 SWAP4 POP POP POP POP JUMP JUMPDEST PUSH1 0x0 PUSH2 0x400 PUSH2 0x558 PUSH2 0x550 PUSH1 0x4 PUSH2 0xA3F JUMP JUMPDEST PUSH2 0x1066 PUSH2 0x3E9 JUMP JUMPDEST PUSH1 0x40 DUP1 MLOAD PUSH1 0x0 DUP1 DUP3 MSTORE PUSH1 0x20 DUP3 ADD SWAP1 SWAP3 MSTORE SWAP1 PUSH2 0x5B4 JUMP JUMPDEST PUSH2 0x5A1 PUSH1 0x40 DUP1 MLOAD PUSH1 0xA0 DUP2 ADD SWAP1 SWAP2 MSTORE PUSH1 0x0 DUP1 DUP3 MSTORE PUSH1 0x20 DUP3 ADD SWAP1 DUP2 MSTORE PUSH1 0x20 ADD PUSH1 0x0 DUP2 MSTORE PUSH1 0x20 ADD PUSH1 0x0 DUP2 MSTORE PUSH1 0x20 ADD PUSH1 0x60 DUP2 MSTORE POP SWAP1 JUMP JUMPDEST DUP2 MSTORE PUSH1 0x20 ADD SWAP1 PUSH1 0x1 SWAP1 SUB SWAP1 DUP2 PUSH2 0x56E JUMPI SWAP1 POP JUMPDEST POP DUP5 CALLER PUSH2 0x10DD JUMP JUMPDEST PUSH1 0x0 PUSH2 0x5F1 PUSH2 0x5D6 PUSH2 0x5CE PUSH1 0x4 PUSH2 0xA3F JUMP JUMPDEST PUSH2 0x1247 PUSH2 0x3E9 JUMP JUMPDEST PUSH2 0x5E5 PUSH2 0x431 PUSH1 0x4 PUSH1 0x20 PUSH2 0xCDA JUMP JUMPDEST DUP6 CALLER DUP7 ISZERO MUL DUP7 ADD PUSH2 0x10DD JUMP JUMPDEST SWAP7 SWAP6 POP POP POP POP POP POP JUMP JUMPDEST PUSH1 0x60 DUP1 PUSH2 0x691 PUSH2 0x60E PUSH2 0x4B1 PUSH1 0x4 PUSH2 0xA3F JUMP JUMPDEST PUSH1 0x40 DUP1 MLOAD PUSH1 0x0 DUP1 DUP3 MSTORE PUSH1 0x20 DUP3 ADD SWAP1 SWAP3 MSTORE SWAP1 PUSH2 0x66A JUMP JUMPDEST PUSH2 0x657 PUSH1 0x40 DUP1 MLOAD PUSH1 0xA0 DUP2 ADD SWAP1 SWAP2 MSTORE PUSH1 0x0 DUP1 DUP3 MSTORE PUSH1 0x20 DUP3 ADD SWAP1 DUP2 MSTORE PUSH1 0x20 ADD PUSH1 0x0 DUP2 MSTORE PUSH1 0x20 ADD PUSH1 0x0 DUP2 MSTORE PUSH1 0x20 ADD PUSH1 0x60 DUP2 MSTORE POP SWAP1 JUMP JUMPDEST DUP2 MSTORE PUSH1 0x20 ADD SWAP1 PUSH1 0x1 SWAP1 SUB SWAP1 DUP2 PUSH2 0x624 JUMPI SWAP1 POP JUMPDEST POP PUSH2 0x67A PUSH2 0x448 PUSH1 0x4 PUSH1 0x20 PUSH2 0xCDA JUMP JUMPDEST PUSH2 0x689 PUSH2 0x448 PUSH1 0x4 PUSH1 0x40 PUSH2 0xCDA JUMP JUMPDEST DUP9 CALLER DUP10 PUSH2 0xDAD JUMP JUMPDEST SWAP2 POP SWAP2 POP SWAP9 POP SWAP9 SWAP7 POP POP POP POP POP POP POP JUMP JUMPDEST PUSH20 0xFFFFFFFFFFFFFFFFFFFFFFFFFFFFFFFFFFFFFFFF DUP2 AND PUSH1 0x0 SWAP1 DUP2 MSTORE PUSH1 0x1 PUSH1 0x20 MSTORE PUSH1 0x40 DUP2 KECCAK256 SLOAD PUSH2 0x3B0 JUMP JUMPDEST PUSH1 0x60 PUSH2 0x708 PUSH2 0x6DF PUSH2 0x41A PUSH1 0x4 PUSH2 0xA3F JUMP JUMPDEST PUSH2 0x6EE PUSH2 0x431 PUSH1 0x4 PUSH1 0x20 PUSH2 0xCDA JUMP JUMPDEST PUSH2 0x6FD PUSH2 0x525 PUSH1 0x4 PUSH1 0x40 PUSH2 0xCDA JUMP JUMPDEST CALLER DUP7 ISZERO MUL DUP7 ADD PUSH2 0x1038 JUMP JUMPDEST SWAP1 POP JUMPDEST SWAP8 SWAP7 POP POP POP POP POP POP POP JUMP JUMPDEST PUSH1 0x60 PUSH1 0x0 DUP1 PUSH2 0x723 PUSH2 0x12A4 JUMP JUMPDEST SWAP3 POP SWAP3 POP SWAP3 POP SWAP1 SWAP2 SWAP3 JUMP JUMPDEST PUSH1 0x0 PUSH2 0x400 DUP4 DUP4 PUSH2 0x12F5 JUMP JUMPDEST PUSH4 0xA61BE9F0 PUSH1 0x0 MSTORE DUP1 PUSH1 0x20 MSTORE PUSH1 0x24 PUSH1 0x1C REVERT JUMPDEST PUSH1 0x0 PUSH2 0x124 CALLDATALOAD PUSH1 0x2 DUP2 SWAP1 SHR SWAP1 PUSH1 0x3 AND PUSH1 0x1 DUP3 GT DUP4 CALLVALUE ISZERO DUP3 EQ DUP1 PUSH2 0x772 JUMPI PUSH2 0x772 CALLVALUE PUSH2 0x73A JUMP JUMPDEST POP PUSH1 0x3 DUP5 GT PUSH1 0xA0 DUP2 MUL PUSH1 0x24 ADD CALLDATALOAD SWAP1 PUSH32 0x203020301010000000000000000000000000000000000000000000000000000 DUP7 BYTE SWAP1 PUSH30 0x10102030000000000000000000000000000000000000000000000000000 DUP8 BYTE PUSH2 0x7D3 DUP11 DUP9 DUP4 DUP10 DUP9 DUP9 PUSH2 0x1461 JUMP JUMPDEST SWAP5 POP POP PUSH2 0x1C4 PUSH1 0x5 DUP3 SWAP1 SHL ADD CALLDATALOAD PUSH1 0x0 DUP7 PUSH1 0x5 DUP2 GT ISZERO PUSH2 0x7F4 JUMPI PUSH2 0x7F4 PUSH2 0x5545 JUMP JUMPDEST SUB PUSH2 0x82A JUMPI PUSH1 0x44 CALLDATALOAD PUSH1 0x24 CALLDATALOAD OR ISZERO PUSH2 0x813 JUMPI PUSH4 0x6AB37CE7 PUSH1 0x0 MSTORE PUSH1 0x4 PUSH1 0x1C REVERT JUMPDEST PUSH2 0x81D DUP4 DUP3 PUSH2 0x1779 JUMP JUMPDEST PUSH2 0x825 PUSH2 0x184B JUMP JUMPDEST PUSH2 0x984 JUMP JUMPDEST PUSH1 0x40 DUP1 MLOAD PUSH1 0x20 DUP1 DUP3 MSTORE DUP2 DUP4 ADD SWAP1 SWAP3 MSTORE PUSH1 0x0 SWAP2 PUSH1 0x20 DUP3 ADD DUP2 DUP1 CALLDATASIZE DUP4 CALLDATACOPY ADD SWAP1 POP POP SWAP1 POP PUSH1 0x2 DUP10 PUSH1 0x5 DUP2 GT ISZERO PUSH2 0x85F JUMPI PUSH2 0x85F PUSH2 0x5545 JUMP JUMPDEST SUB PUSH2 0x89E JUMPI PUSH2 0x899 PUSH2 0x877 PUSH1 0xC0 DUP14 ADD PUSH1 0xA0 DUP15 ADD PUSH2 0x5755 JUMP JUMPDEST PUSH2 0x887 PUSH1 0x80 DUP15 ADD PUSH1 0x60 DUP16 ADD PUSH2 0x5755 JUMP JUMPDEST CALLER DUP15 PUSH1 0xC0 ADD CALLDATALOAD DUP16 PUSH1 0xE0 ADD CALLDATALOAD DUP8 DUP8 PUSH2 0x18CC JUMP JUMPDEST PUSH2 0x96F JUMP JUMPDEST PUSH1 0x3 DUP10 PUSH1 0x5 DUP2 GT ISZERO PUSH2 0x8B2 JUMPI PUSH2 0x8B2 PUSH2 0x5545 JUMP JUMPDEST SUB PUSH2 0x8EC JUMPI PUSH2 0x899 PUSH2 0x8CA PUSH1 0xC0 DUP14 ADD PUSH1 0xA0 DUP15 ADD PUSH2 0x5755 JUMP JUMPDEST PUSH2 0x8DA PUSH1 0x80 DUP15 ADD PUSH1 0x60 DUP16 ADD PUSH2 0x5755 JUMP JUMPDEST CALLER DUP15 PUSH1 0xC0 ADD CALLDATALOAD DUP16 PUSH1 0xE0 ADD CALLDATALOAD DUP8 DUP8 PUSH2 0x1917 JUMP JUMPDEST PUSH1 0x4 DUP10 PUSH1 0x5 DUP2 GT ISZERO PUSH2 0x900 JUMPI PUSH2 0x900 PUSH2 0x5545 JUMP JUMPDEST SUB PUSH2 0x93A JUMPI PUSH2 0x899 PUSH2 0x915 PUSH1 0x20 DUP14 ADD DUP14 PUSH2 0x5755 JUMP JUMPDEST CALLER DUP14 PUSH1 0x60 ADD PUSH1 0x20 DUP2 ADD SWAP1 PUSH2 0x929 SWAP2 SWAP1 PUSH2 0x5755 JUMP JUMPDEST DUP15 PUSH1 0x20 ADD CALLDATALOAD DUP16 PUSH1 0x40 ADD CALLDATALOAD DUP8 DUP8 PUSH2 0x18CC JUMP JUMPDEST PUSH2 0x96F PUSH2 0x94A PUSH1 0x20 DUP14 ADD DUP14 PUSH2 0x5755 JUMP JUMPDEST CALLER DUP14 PUSH1 0x60 ADD PUSH1 0x20 DUP2 ADD SWAP1 PUSH2 0x95E SWAP2 SWAP1 PUSH2 0x5755 JUMP JUMPDEST DUP15 PUSH1 0x20 ADD CALLDATALOAD DUP16 PUSH1 0x40 ADD CALLDATALOAD DUP8 DUP8 PUSH2 0x1917 JUMP JUMPDEST PUSH2 0x979 DUP4 DUP3 PUSH2 0x194D JUMP JUMPDEST PUSH2 0x982 DUP2 PUSH2 0x1A0B JUMP JUMPDEST POP JUMPDEST PUSH2 0x98F DUP6 DUP9 DUP13 PUSH2 0x1A34 JUMP JUMPDEST PUSH2 0x999 PUSH1 0x1 PUSH1 0x0 SSTORE JUMP JUMPDEST POP PUSH1 0x1 SWAP10 SWAP9 POP POP POP POP POP POP POP POP POP JUMP JUMPDEST PUSH1 0x60 PUSH1 0x20 DUP1 MSTORE PUSH8 0x7536561706F7274 PUSH1 0x47 MSTORE PUSH1 0x60 PUSH1 0x20 RETURN JUMPDEST PUSH1 0x0 PUSH2 0x9CB PUSH2 0x1A9B JUMP JUMPDEST PUSH1 0x1 NUMBER SUB BLOCKHASH PUSH1 0x80 SHR CALLER PUSH1 0x0 MSTORE PUSH1 0x1 PUSH1 0x20 MSTORE PUSH1 0x40 PUSH1 0x0 KECCAK256 DUP1 SLOAD DUP3 ADD SWAP3 POP DUP3 DUP2 SSTORE POP POP CALLER PUSH20 0xFFFFFFFFFFFFFFFFFFFFFFFFFFFFFFFFFFFFFFFF AND PUSH32 0x721C20121297512B72821B97F5326877EA8ECF4BB9948FEA5BFCB6453074D37F DUP3 PUSH1 0x40 MLOAD PUSH2 0xA34 SWAP2 DUP2 MSTORE PUSH1 0x20 ADD SWAP1 JUMP JUMPDEST PUSH1 0x40 MLOAD DUP1 SWAP2 SUB SWAP1 LOG2 SWAP1 JUMP JUMPDEST PUSH1 0x0 DUP2 CALLDATALOAD PUSH4 0xFFFFFFFF AND DUP3 ADD PUSH2 0x3B0 JUMP JUMPDEST PUSH1 0x0 PUSH2 0xA64 PUSH2 0x160 PUSH1 0x40 DUP1 MLOAD SWAP2 DUP3 ADD SWAP1 MSTORE SWAP1 JUMP JUMPDEST SWAP1 POP PUSH2 0xA73 DUP3 DUP3 PUSH2 0x140 PUSH2 0x1AAD JUMP JUMPDEST PUSH2 0xA90 PUSH2 0xA89 PUSH2 0xA84 DUP5 PUSH1 0x40 PUSH2 0xCDA JUMP JUMPDEST PUSH2 0x1AB6 JUMP JUMPDEST PUSH1 0x40 DUP4 ADD MSTORE JUMP JUMPDEST PUSH1 0x0 PUSH2 0xAA5 PUSH2 0xAA0 DUP5 PUSH1 0x60 PUSH2 0xCDA JUMP JUMPDEST PUSH2 0x1B0A JUMP JUMPDEST SWAP1 POP PUSH2 0xAB2 DUP2 PUSH1 0x60 DUP5 ADD MSTORE JUMP JUMPDEST PUSH2 0xAC5 PUSH2 0xABD DUP3 MLOAD SWAP1 JUMP JUMPDEST PUSH2 0x140 DUP5 ADD MSTORE JUMP JUMPDEST POP SWAP2 SWAP1 POP JUMP JUMPDEST ADD SWAP1 JUMP JUMPDEST PUSH2 0x140 DUP3 ADD MLOAD PUSH1 0x40 DUP1 MLOAD SWAP1 DUP5 ADD MLOAD DUP1 MLOAD PUSH1 0x0 SWAP4 SWAP3 DUP5 SWAP3 PUSH32 0x0 SWAP3 PUSH1 0x20 SWAP1 SWAP2 ADD SWAP1 DUP5 JUMPDEST DUP2 DUP2 LT ISZERO PUSH2 0xB5A JUMPI DUP3 MLOAD PUSH32 0xFFFFFFFFFFFFFFFFFFFFFFFFFFFFFFFFFFFFFFFFFFFFFFFFFFFFFFFFFFFFFFE0 ADD DUP1 MLOAD DUP7 DUP3 MSTORE PUSH1 0xC0 DUP3 KECCAK256 DUP7 MSTORE SWAP1 MSTORE PUSH1 0x20 SWAP4 DUP5 ADD SWAP4 SWAP1 SWAP3 ADD SWAP2 PUSH1 0x1 ADD PUSH2 0xB0F JUMP JUMPDEST POP DUP1 PUSH1 0x5 SHL PUSH1 0x40 MLOAD KECCAK256 SWAP5 POP POP POP POP PUSH1 0x0 PUSH32 0x0 SWAP2 POP PUSH1 0x40 MLOAD PUSH1 0x20 PUSH1 0x60 DUP10 ADD MLOAD ADD PUSH1 0x0 JUMPDEST DUP7 DUP2 LT ISZERO PUSH2 0xBE6 JUMPI DUP2 MLOAD PUSH32 0xFFFFFFFFFFFFFFFFFFFFFFFFFFFFFFFFFFFFFFFFFFFFFFFFFFFFFFFFFFFFFFE0 ADD DUP1 MLOAD DUP7 DUP3 MSTORE PUSH1 0xE0 DUP3 KECCAK256 DUP6 MSTORE SWAP1 MSTORE PUSH1 0x20 SWAP3 DUP4 ADD SWAP3 SWAP1 SWAP2 ADD SWAP1 PUSH1 0x1 ADD PUSH2 0xB9B JUMP JUMPDEST POP POP PUSH1 0x40 DUP1 MLOAD PUSH1 0x5 DUP8 SWAP1 SHL SWAP1 KECCAK256 PUSH32 0xFFFFFFFFFFFFFFFFFFFFFFFFFFFFFFFFFFFFFFFFFFFFFFFFFFFFFFFFFFFFFFE0 DUP11 ADD DUP1 MLOAD PUSH32 0x0 DUP3 MSTORE SWAP3 DUP12 ADD DUP1 MLOAD SWAP8 DUP2 MSTORE PUSH1 0x60 DUP13 ADD DUP1 MLOAD SWAP4 DUP2 MSTORE PUSH2 0x140 SWAP1 SWAP13 ADD SWAP11 DUP12 MSTORE PUSH2 0x180 DUP3 KECCAK256 SWAP4 SWAP1 SWAP2 MSTORE SWAP6 SWAP1 SWAP6 MSTORE SWAP4 SWAP1 SWAP8 MSTORE POP POP SWAP3 MSTORE POP SWAP2 SWAP1 POP JUMP JUMPDEST PUSH1 0x0 DUP1 PUSH4 0xFFFFFFFF DUP4 CALLDATALOAD AND SWAP1 POP PUSH1 0x5 DUP2 SWAP1 SHL PUSH2 0xC95 PUSH1 0x20 DUP3 ADD PUSH1 0x40 DUP1 MLOAD SWAP2 DUP3 ADD SWAP1 MSTORE SWAP1 JUMP JUMPDEST DUP3 DUP2 MSTORE SWAP3 POP PUSH1 0x20 DUP4 DUP2 ADD SWAP1 DUP6 ADD PUSH1 0x0 JUMPDEST DUP4 DUP2 LT ISZERO PUSH2 0xCD0 JUMPI PUSH2 0xCC8 PUSH2 0xCC2 PUSH2 0xCBD DUP5 DUP5 PUSH2 0xCDA JUMP JUMPDEST PUSH2 0x1247 JUMP JUMPDEST DUP3 DUP6 ADD MSTORE JUMP JUMPDEST PUSH1 0x20 ADD PUSH2 0xCA5 JUMP JUMPDEST POP POP POP POP POP SWAP2 SWAP1 POP JUMP JUMPDEST PUSH1 0x0 PUSH2 0x400 PUSH4 0xFFFFFFFF PUSH2 0xCF3 PUSH2 0x3FC DUP7 DUP7 PUSH2 0xACB DUP6 AND JUMP JUMPDEST AND DUP5 ADD SWAP1 JUMP JUMPDEST PUSH1 0x0 DUP1 PUSH4 0xFFFFFFFF DUP4 CALLDATALOAD AND SWAP1 POP PUSH1 0x5 DUP2 SWAP1 SHL PUSH2 0xD1E PUSH1 0x20 DUP3 ADD PUSH1 0x40 DUP1 MLOAD SWAP2 DUP3 ADD SWAP1 MSTORE SWAP1 JUMP JUMPDEST DUP3 DUP2 MSTORE SWAP3 POP PUSH1 0x20 DUP4 DUP2 ADD SWAP1 DUP6 ADD PUSH1 0x0 JUMPDEST DUP4 DUP2 LT ISZERO PUSH2 0xCD0 JUMPI PUSH2 0xD4B PUSH2 0xCC2 PUSH2 0xD46 DUP5 DUP5 PUSH2 0xCDA JUMP JUMPDEST PUSH2 0x1B4E JUMP JUMPDEST PUSH1 0x20 ADD PUSH2 0xD2E JUMP JUMPDEST PUSH1 0x0 DUP1 PUSH4 0xFFFFFFFF DUP4 CALLDATALOAD AND SWAP1 POP PUSH1 0x5 DUP2 SWAP1 SHL PUSH2 0xD78 PUSH1 0x20 DUP3 ADD PUSH1 0x40 DUP1 MLOAD SWAP2 DUP3 ADD SWAP1 MSTORE SWAP1 JUMP JUMPDEST DUP3 DUP2 MSTORE SWAP3 POP PUSH1 0x20 DUP4 DUP2 ADD SWAP1 DUP6 ADD PUSH1 0x0 JUMPDEST DUP4 DUP2 LT ISZERO PUSH2 0xCD0 JUMPI PUSH2 0xDA5 PUSH2 0xCC2 PUSH2 0xDA0 DUP5 DUP5 PUSH2 0xCDA JUMP JUMPDEST PUSH2 0x1B91 JUMP JUMPDEST PUSH1 0x20 ADD PUSH2 0xD88 JUMP JUMPDEST PUSH1 0x60 DUP1 PUSH1 0x0 DUP1 PUSH2 0xDC1 DUP12 DUP12 PUSH1 0x0 DUP9 DUP11 PUSH2 0x1BD5 JUMP JUMPDEST SWAP2 POP SWAP2 POP PUSH2 0xDD4 DUP12 DUP11 DUP11 DUP11 DUP11 DUP8 DUP8 PUSH2 0x1F05 JUMP JUMPDEST SWAP4 POP SWAP4 POP POP POP SWAP8 POP SWAP8 SWAP6 POP POP POP POP POP POP JUMP JUMPDEST PUSH1 0x0 DUP1 PUSH4 0xFFFFFFFF DUP4 CALLDATALOAD AND SWAP1 POP PUSH1 0x5 DUP2 SWAP1 SHL PUSH2 0xE0B PUSH1 0x20 DUP3 ADD PUSH1 0x40 DUP1 MLOAD SWAP2 DUP3 ADD SWAP1 MSTORE SWAP1 JUMP JUMPDEST DUP3 DUP2 MSTORE SWAP3 POP PUSH1 0x20 DUP4 DUP2 ADD SWAP1 DUP6 ADD PUSH1 0x0 JUMPDEST DUP4 DUP2 LT ISZERO PUSH2 0xCD0 JUMPI PUSH2 0xE38 PUSH2 0xCC2 PUSH2 0xE33 DUP5 DUP5 PUSH2 0xCDA JUMP JUMPDEST PUSH2 0x210B JUMP JUMPDEST PUSH1 0x20 ADD PUSH2 0xE1B JUMP JUMPDEST PUSH1 0x0 PUSH2 0xE4A PUSH2 0x1A9B JUMP JUMPDEST PUSH1 0x0 DUP1 PUSH1 0x0 DUP1 DUP6 MLOAD SWAP1 POP PUSH1 0x0 JUMPDEST DUP2 DUP2 LT ISZERO PUSH2 0xF77 JUMPI PUSH1 0x0 DUP8 DUP3 DUP2 MLOAD DUP2 LT PUSH2 0xE73 JUMPI PUSH2 0xE73 PUSH2 0x5A11 JUMP JUMPDEST PUSH1 0x20 SWAP1 DUP2 MUL SWAP2 SWAP1 SWAP2 ADD ADD MLOAD DUP1 MLOAD SWAP1 SWAP2 POP PUSH1 0x4 DUP2 PUSH1 0x80 ADD MLOAD PUSH1 0x4 DUP2 GT ISZERO PUSH2 0xE9B JUMPI PUSH2 0xE9B PUSH2 0x5545 JUMP JUMPDEST SUB PUSH2 0xEA7 JUMPI POP POP PUSH2 0xF6F JUMP JUMPDEST DUP1 MLOAD SWAP5 POP PUSH2 0xEB4 DUP2 PUSH2 0x214F JUMP JUMPDEST PUSH1 0x0 DUP2 DUP2 MSTORE PUSH1 0x2 PUSH1 0x20 MSTORE PUSH1 0x40 DUP2 KECCAK256 SWAP9 POP SWAP1 SWAP7 POP PUSH2 0xED6 SWAP1 DUP8 SWAP1 DUP10 SWAP1 PUSH1 0x1 PUSH2 0x2197 JUMP JUMPDEST POP DUP7 SLOAD PUSH1 0xFF AND PUSH2 0xF6C JUMPI DUP1 PUSH2 0x140 ADD MLOAD DUP2 PUSH1 0x60 ADD MLOAD MLOAD EQ PUSH2 0xEF9 JUMPI PUSH2 0xEF9 PUSH2 0x2246 JUMP JUMPDEST PUSH2 0xF08 DUP6 DUP8 DUP5 PUSH1 0x20 ADD MLOAD PUSH2 0x2254 JUMP JUMPDEST DUP7 SLOAD PUSH32 0xFFFFFFFFFFFFFFFFFFFFFFFFFFFFFFFFFFFFFFFFFFFFFFFFFFFFFFFFFFFFFF00 AND PUSH1 0x1 OR DUP8 SSTORE PUSH1 0x40 MLOAD PUSH32 0xF280791EFE782EDCF06CE15C8F4DFF17601DB3B88EB3805A0DB7D77FAF757F04 SWAP1 PUSH2 0xF63 SWAP1 DUP9 SWAP1 DUP5 SWAP1 PUSH2 0x5B4B JUMP JUMPDEST PUSH1 0x40 MLOAD DUP1 SWAP2 SUB SWAP1 LOG1 JUMPDEST POP POP JUMPDEST PUSH1 0x1 ADD PUSH2 0xE57 JUMP JUMPDEST POP PUSH1 0x1 SWAP7 SWAP6 POP POP POP POP POP POP JUMP JUMPDEST PUSH1 0x0 DUP1 PUSH4 0xFFFFFFFF DUP4 CALLDATALOAD AND SWAP1 POP PUSH1 0x5 DUP2 SWAP1 SHL PUSH2 0xFA9 PUSH1 0x20 DUP3 ADD PUSH1 0x40 DUP1 MLOAD SWAP2 DUP3 ADD SWAP1 MSTORE SWAP1 JUMP JUMPDEST DUP3 DUP2 MSTORE SWAP3 POP PUSH1 0x20 DUP4 DUP2 ADD SWAP1 DUP6 ADD PUSH1 0x0 JUMPDEST DUP4 DUP2 LT ISZERO PUSH2 0xCD0 JUMPI PUSH2 0xFD6 PUSH2 0xCC2 PUSH2 0xFD1 DUP5 DUP5 PUSH2 0xCDA JUMP JUMPDEST PUSH2 0x1066 JUMP JUMPDEST PUSH1 0x20 ADD PUSH2 0xFB9 JUMP JUMPDEST PUSH1 0x0 DUP1 PUSH4 0xFFFFFFFF DUP4 CALLDATALOAD AND SWAP1 POP PUSH1 0x5 DUP2 SWAP1 SHL PUSH2 0x1003 PUSH1 0x20 DUP3 ADD PUSH1 0x40 DUP1 MLOAD SWAP2 DUP3 ADD SWAP1 MSTORE SWAP1 JUMP JUMPDEST DUP3 DUP2 MSTORE SWAP3 POP PUSH1 0x20 DUP4 DUP2 ADD SWAP1 DUP6 ADD PUSH1 0x0 JUMPDEST DUP4 DUP2 LT ISZERO PUSH2 0xCD0 JUMPI PUSH2 0x1030 PUSH2 0xCC2 PUSH2 0x102B DUP5 DUP5 PUSH2 0xCDA JUMP JUMPDEST PUSH2 0x2347 JUMP JUMPDEST PUSH1 0x20 ADD PUSH2 0x1013 JUMP JUMPDEST PUSH1 0x60 PUSH1 0x0 DUP1 PUSH2 0x104C DUP8 DUP8 PUSH1 0x1 DUP11 MLOAD DUP9 PUSH2 0x1BD5 JUMP JUMPDEST SWAP2 POP SWAP2 POP PUSH2 0x1059 DUP3 PUSH2 0x237B JUMP JUMPDEST PUSH2 0x70B DUP8 DUP7 DUP5 DUP8 DUP6 PUSH2 0x23BA JUMP JUMPDEST PUSH1 0x0 PUSH2 0x107A PUSH2 0x200 PUSH1 0x40 DUP1 MLOAD SWAP2 DUP3 ADD SWAP1 MSTORE SWAP1 JUMP JUMPDEST PUSH1 0xA0 DUP2 ADD DUP1 DUP3 MSTORE SWAP1 SWAP2 POP PUSH2 0x1096 PUSH2 0x1090 DUP5 PUSH2 0xA3F JUMP JUMPDEST DUP3 PUSH2 0x2521 JUMP JUMPDEST PUSH2 0x10A2 PUSH1 0x1 PUSH1 0x20 DUP5 ADD MSTORE JUMP JUMPDEST PUSH2 0x10AE PUSH1 0x1 PUSH1 0x40 DUP5 ADD MSTORE JUMP JUMPDEST PUSH2 0x10CB PUSH2 0x10C4 PUSH2 0x10BF DUP6 PUSH1 0x20 PUSH2 0xCDA JUMP JUMPDEST PUSH2 0x2557 JUMP JUMPDEST PUSH1 0x60 DUP5 ADD MSTORE JUMP JUMPDEST PUSH2 0xAC5 PUSH2 0x10D6 PUSH2 0x257F JUMP JUMPDEST PUSH1 0x80 DUP5 ADD MSTORE JUMP JUMPDEST PUSH1 0x0 PUSH2 0x1101 PUSH1 0x4 DUP7 MLOAD PUSH1 0x80 ADD MLOAD PUSH1 0x4 DUP2 GT ISZERO PUSH2 0x10FB JUMPI PUSH2 0x10FB PUSH2 0x5545 JUMP JUMPDEST EQ PUSH2 0x259B JUMP JUMPDEST PUSH1 0x0 DUP1 PUSH1 0x0 PUSH2 0x1111 DUP9 PUSH1 0x1 PUSH2 0x25AB JUMP JUMPDEST PUSH1 0x40 DUP1 MLOAD PUSH1 0x1 DUP1 DUP3 MSTORE DUP2 DUP4 ADD SWAP1 SWAP3 MSTORE SWAP4 SWAP7 POP SWAP2 SWAP5 POP SWAP3 POP PUSH1 0x0 SWAP2 SWAP1 DUP2 PUSH1 0x20 ADD JUMPDEST PUSH2 0x1139 PUSH2 0x5210 JUMP JUMPDEST DUP2 MSTORE PUSH1 0x20 ADD SWAP1 PUSH1 0x1 SWAP1 SUB SWAP1 DUP2 PUSH2 0x1131 JUMPI SWAP1 POP POP SWAP1 POP DUP9 DUP2 PUSH1 0x0 DUP2 MLOAD DUP2 LT PUSH2 0x1162 JUMPI PUSH2 0x1162 PUSH2 0x5A11 JUMP JUMPDEST PUSH1 0x20 MUL PUSH1 0x20 ADD ADD DUP2 SWAP1 MSTORE POP PUSH2 0x1177 DUP2 DUP10 PUSH2 0x27F9 JUMP JUMPDEST PUSH1 0x0 DUP2 PUSH1 0x0 DUP2 MLOAD DUP2 LT PUSH2 0x118C JUMPI PUSH2 0x118C PUSH2 0x5A11 JUMP JUMPDEST PUSH1 0x20 MUL PUSH1 0x20 ADD ADD MLOAD PUSH1 0x0 ADD MLOAD SWAP1 POP PUSH2 0x11A7 DUP2 DUP6 DUP6 DUP12 DUP12 PUSH2 0x29EB JUMP JUMPDEST PUSH1 0x40 DUP1 MLOAD PUSH1 0x1 DUP1 DUP3 MSTORE DUP2 DUP4 ADD SWAP1 SWAP3 MSTORE PUSH1 0x0 SWAP2 PUSH1 0x20 DUP1 DUP4 ADD SWAP1 DUP1 CALLDATASIZE DUP4 CALLDATACOPY ADD SWAP1 POP POP SWAP1 POP DUP6 DUP2 PUSH1 0x0 DUP2 MLOAD DUP2 LT PUSH2 0x11DD JUMPI PUSH2 0x11DD PUSH2 0x5A11 JUMP JUMPDEST PUSH1 0x20 MUL PUSH1 0x20 ADD ADD DUP2 DUP2 MSTORE POP POP PUSH2 0x120E DUP4 PUSH1 0x0 DUP2 MLOAD DUP2 LT PUSH2 0x11FF JUMPI PUSH2 0x11FF PUSH2 0x5A11 JUMP JUMPDEST PUSH1 0x20 MUL PUSH1 0x20 ADD ADD MLOAD DUP3 DUP9 PUSH2 0x2B8F JUMP JUMPDEST PUSH2 0x122C DUP7 DUP4 PUSH1 0x0 ADD MLOAD DUP5 PUSH1 0x20 ADD MLOAD DUP12 DUP7 PUSH1 0x40 ADD MLOAD DUP8 PUSH1 0x60 ADD MLOAD PUSH2 0x2C3C JUMP JUMPDEST PUSH2 0x1236 PUSH1 0x1 PUSH1 0x0 SSTORE JUMP JUMPDEST POP PUSH1 0x1 SWAP11 SWAP10 POP POP POP POP POP POP POP POP POP POP JUMP JUMPDEST PUSH1 0x0 PUSH2 0x125B PUSH2 0x200 PUSH1 0x40 DUP1 MLOAD SWAP2 DUP3 ADD SWAP1 MSTORE SWAP1 JUMP JUMPDEST SWAP1 POP PUSH2 0x126F PUSH1 0x20 DUP4 DUP2 ADD SWAP1 DUP4 ADD PUSH1 0x40 PUSH2 0x1AAD JUMP JUMPDEST PUSH1 0xA0 DUP2 ADD DUP1 DUP3 MSTORE PUSH2 0x1282 PUSH2 0x1090 DUP5 PUSH2 0xA3F JUMP JUMPDEST PUSH2 0x1293 PUSH2 0x10C4 PUSH2 0x10BF DUP6 PUSH1 0x60 PUSH2 0xCDA JUMP JUMPDEST PUSH2 0xAC5 PUSH2 0x10D6 PUSH2 0x10BF DUP6 PUSH1 0x80 PUSH2 0xCDA JUMP JUMPDEST PUSH1 0x60 PUSH1 0x0 DUP1 PUSH1 0x0 PUSH2 0x12B3 PUSH2 0x2CBB JUMP JUMPDEST SWAP1 POP PUSH1 0x0 PUSH32 0x0 SWAP1 POP PUSH1 0x60 PUSH1 0x0 MSTORE DUP2 PUSH1 0x20 MSTORE DUP1 PUSH1 0x40 MSTORE PUSH4 0x3312E35 PUSH1 0x63 MSTORE PUSH1 0xA0 PUSH1 0x0 RETURN JUMPDEST PUSH1 0x0 PUSH2 0x12FF PUSH2 0x1A9B JUMP JUMPDEST PUSH1 0x0 DUP1 DUP4 DUP2 JUMPDEST DUP2 DUP2 LT ISZERO PUSH2 0x1446 JUMPI CALLDATASIZE DUP8 DUP8 DUP4 DUP2 DUP2 LT PUSH2 0x1320 JUMPI PUSH2 0x1320 PUSH2 0x5A11 JUMP JUMPDEST SWAP1 POP PUSH1 0x20 MUL DUP2 ADD SWAP1 PUSH2 0x1332 SWAP2 SWAP1 PUSH2 0x5C66 JUMP JUMPDEST SWAP1 POP PUSH1 0x0 PUSH2 0x1343 PUSH1 0x20 DUP4 ADD DUP4 PUSH2 0x5755 JUMP JUMPDEST SWAP1 POP PUSH1 0x0 PUSH2 0x1357 PUSH1 0x40 DUP5 ADD PUSH1 0x20 DUP6 ADD PUSH2 0x5755 JUMP JUMPDEST SWAP1 POP PUSH1 0x0 PUSH2 0x136B PUSH1 0xA0 DUP6 ADD PUSH1 0x80 DUP7 ADD PUSH2 0x5CA4 JUMP JUMPDEST SWAP1 POP DUP2 CALLER EQ DUP4 CALLER EQ OR ISZERO PUSH1 0x4 DUP3 EQ OR DUP8 OR SWAP7 POP PUSH1 0x0 PUSH2 0x13A0 PUSH2 0x1395 PUSH2 0x138D DUP8 SWAP1 JUMP JUMPDEST PUSH2 0xA50 PUSH2 0x3E9 JUMP JUMPDEST DUP7 PUSH2 0x140 ADD CALLDATALOAD PUSH2 0xACF JUMP JUMPDEST PUSH1 0x0 DUP2 DUP2 MSTORE PUSH1 0x2 PUSH1 0x20 MSTORE PUSH1 0x40 SWAP1 DUP2 SWAP1 KECCAK256 DUP1 SLOAD PUSH32 0xFFFFFFFFFFFFFFFFFFFFFFFFFFFFFFFFFFFFFFFFFFFFFFFFFFFFFFFFFFFF0000 AND PUSH2 0x100 OR DUP2 SSTORE SWAP1 MLOAD SWAP1 SWAP11 POP SWAP1 SWAP2 POP PUSH20 0xFFFFFFFFFFFFFFFFFFFFFFFFFFFFFFFFFFFFFFFF DUP1 DUP6 AND SWAP2 SWAP1 DUP7 AND SWAP1 PUSH32 0x6BACC01DBE442496068F7D234EDD811F1A5F833243E0AEC824F86AB861F3C90D SWAP1 PUSH2 0x142E SWAP1 DUP6 DUP2 MSTORE PUSH1 0x20 ADD SWAP1 JUMP JUMPDEST PUSH1 0x40 MLOAD DUP1 SWAP2 SUB SWAP1 LOG3 DUP6 PUSH1 0x1 ADD SWAP6 POP POP POP POP POP POP PUSH2 0x1305 JUMP JUMPDEST POP POP DUP1 ISZERO PUSH2 0x1456 JUMPI PUSH2 0x1456 PUSH2 0x2D9A JUMP JUMPDEST POP PUSH1 0x1 SWAP5 SWAP4 POP POP POP POP JUMP JUMPDEST PUSH1 0x0 PUSH2 0x146D PUSH1 0x0 PUSH2 0x259B JUMP JUMPDEST PUSH2 0x1475 PUSH2 0x2DA8 JUMP JUMPDEST TIMESTAMP PUSH2 0x164 CALLDATALOAD GT ISZERO TIMESTAMP PUSH2 0x144 CALLDATALOAD GT OR ISZERO PUSH2 0x14A4 JUMPI PUSH4 0x21CCFEB7 PUSH1 0x0 MSTORE PUSH2 0x144 CALLDATALOAD PUSH1 0x20 MSTORE PUSH2 0x164 CALLDATALOAD PUSH1 0x40 MSTORE PUSH1 0x44 PUSH1 0x1C REVERT JUMPDEST PUSH2 0x204 CALLDATALOAD PUSH2 0x264 CALLDATALOAD LT ISZERO PUSH2 0x14C0 JUMPI PUSH4 0x466AA616 PUSH1 0x0 MSTORE PUSH1 0x4 PUSH1 0x1C REVERT JUMPDEST PUSH32 0x0 PUSH1 0x80 DUP2 SWAP1 MSTORE PUSH1 0xA0 DUP7 SWAP1 MSTORE PUSH1 0x60 PUSH1 0x24 PUSH1 0xC0 CALLDATACOPY PUSH1 0x40 PUSH1 0x64 PUSH2 0x120 CALLDATACOPY PUSH1 0xE0 PUSH1 0x80 KECCAK256 PUSH2 0x160 MSTORE PUSH2 0x264 CALLDATALOAD DUP1 PUSH1 0x5 SHL PUSH2 0x2A0 ADD PUSH1 0x1 DUP3 ADD DUP2 MSTORE PUSH1 0x20 DUP2 ADD SWAP1 POP DUP8 DUP2 MSTORE PUSH1 0x80 PUSH1 0x24 PUSH1 0x20 DUP4 ADD CALLDATACOPY PUSH2 0x160 DUP8 PUSH1 0xA0 MSTORE DUP7 PUSH1 0xC0 MSTORE PUSH1 0x0 PUSH1 0xE0 MSTORE PUSH1 0x0 PUSH2 0x204 CALLDATALOAD SWAP4 POP PUSH1 0x0 JUMPDEST DUP5 DUP2 LT ISZERO PUSH2 0x1596 JUMPI DUP1 PUSH1 0x40 MUL PUSH2 0x284 ADD PUSH1 0x20 DUP2 PUSH2 0x100 CALLDATACOPY PUSH1 0x40 DUP2 PUSH2 0x120 CALLDATACOPY PUSH1 0x20 DUP2 ADD CALLDATALOAD DUP4 OR SWAP3 POP PUSH1 0x20 DUP5 ADD SWAP4 POP PUSH1 0xE0 PUSH1 0x80 KECCAK256 DUP5 MSTORE PUSH1 0xA0 DUP6 ADD SWAP5 POP DUP11 DUP6 MSTORE DUP10 PUSH1 0x20 DUP7 ADD MSTORE PUSH1 0x40 DUP2 PUSH1 0x60 DUP8 ADD CALLDATACOPY POP PUSH1 0x1 ADD PUSH2 0x1542 JUMP JUMPDEST PUSH1 0x1 DUP6 ADD PUSH1 0x5 SHL PUSH2 0x160 KECCAK256 PUSH1 0x60 MSTORE PUSH2 0x264 CALLDATALOAD SWAP5 POP JUMPDEST DUP5 DUP2 LT ISZERO PUSH2 0x15E6 JUMPI DUP1 PUSH1 0x40 MUL PUSH2 0x284 ADD SWAP3 POP PUSH1 0xA0 DUP5 ADD SWAP4 POP DUP10 DUP5 MSTORE DUP9 PUSH1 0x20 DUP6 ADD MSTORE PUSH1 0x40 DUP4 PUSH1 0x60 DUP7 ADD CALLDATACOPY PUSH1 0x20 DUP4 ADD CALLDATALOAD SWAP2 SWAP1 SWAP2 OR SWAP1 PUSH1 0x1 ADD PUSH2 0x15AB JUMP JUMPDEST POP PUSH20 0xFFFFFFFFFFFFFFFFFFFFFFFFFFFFFFFFFFFFFFFF DUP2 GT ISZERO PUSH2 0x1611 JUMPI PUSH4 0x39F3E3FD PUSH1 0x0 MSTORE PUSH1 0x4 PUSH1 0x1C REVERT JUMPDEST POP POP POP POP POP PUSH1 0x0 PUSH32 0x0 SWAP1 POP DUP1 PUSH1 0x80 MSTORE DUP3 PUSH1 0xA0 MSTORE PUSH1 0x60 PUSH1 0xC4 PUSH1 0xC0 CALLDATACOPY PUSH1 0x20 PUSH2 0x104 PUSH2 0x120 CALLDATACOPY PUSH1 0xC0 PUSH1 0x80 KECCAK256 PUSH1 0x0 MSTORE PUSH1 0x20 PUSH1 0x0 KECCAK256 PUSH1 0xE0 MSTORE PUSH2 0x264 CALLDATALOAD PUSH1 0x5 SHL PUSH2 0x200 ADD PUSH1 0x1 DUP2 MSTORE DUP4 PUSH1 0x20 DUP3 ADD MSTORE PUSH1 0x60 PUSH1 0xC4 PUSH1 0x40 DUP4 ADD CALLDATACOPY POP POP PUSH1 0x84 CALLDATALOAD PUSH20 0xFFFFFFFFFFFFFFFFFFFFFFFFFFFFFFFFFFFFFFFF DUP2 AND PUSH1 0x0 SWAP1 DUP2 MSTORE PUSH1 0x1 PUSH1 0x20 MSTORE PUSH1 0x40 DUP2 KECCAK256 SLOAD PUSH32 0x0 PUSH1 0x80 DUP2 SWAP1 MSTORE SWAP1 SWAP2 POP PUSH1 0x40 PUSH1 0x84 PUSH1 0xA0 CALLDATACOPY PUSH1 0x60 MLOAD PUSH2 0x100 MSTORE DUP9 PUSH2 0x120 MSTORE PUSH1 0xA0 PUSH2 0x144 PUSH2 0x140 CALLDATACOPY DUP2 PUSH2 0x1E0 MSTORE PUSH2 0x180 PUSH1 0x80 KECCAK256 SWAP4 POP POP POP POP PUSH2 0x264 CALLDATALOAD PUSH1 0x5 SHL PUSH2 0x180 ADD DUP2 DUP2 MSTORE CALLER PUSH1 0x20 DUP3 ADD MSTORE PUSH1 0x80 PUSH1 0x40 DUP3 ADD MSTORE PUSH2 0x120 PUSH1 0x60 DUP3 ADD MSTORE PUSH1 0xA0 PUSH2 0x264 CALLDATALOAD MUL PUSH2 0x1E0 ADD PUSH1 0xA4 CALLDATALOAD PUSH1 0x84 CALLDATALOAD PUSH32 0x9D9AF8E38D66C62E2C12F0225249FD9D721C54B83F48D9352C97C6CACDCB6F31 DUP4 DUP6 LOG3 PUSH1 0x0 PUSH1 0x60 MSTORE ADD PUSH1 0x40 MSTORE PUSH2 0x5F1 DUP2 PUSH2 0x1774 PUSH2 0x220 DUP11 ADD DUP11 PUSH2 0x5CC5 JUMP JUMPDEST PUSH2 0x2E07 JUMP JUMPDEST PUSH1 0xC4 CALLDATALOAD PUSH1 0x84 CALLDATALOAD PUSH1 0xE4 CALLDATALOAD PUSH2 0x104 CALLDATALOAD DUP5 ISZERO PUSH2 0x17FB JUMPI PUSH1 0x0 PUSH1 0x40 MLOAD SWAP1 POP PUSH32 0x4CE34AA200000000000000000000000000000000000000000000000000000000 DUP2 MSTORE PUSH1 0x20 PUSH1 0x4 DUP3 ADD MSTORE PUSH1 0x1 PUSH1 0x24 DUP3 ADD MSTORE DUP7 PUSH1 0x44 DUP3 ADD MSTORE DUP5 PUSH1 0x64 DUP3 ADD MSTORE DUP4 PUSH1 0x84 DUP3 ADD MSTORE CALLER PUSH1 0xA4 DUP3 ADD MSTORE DUP3 PUSH1 0xC4 DUP3 ADD MSTORE DUP2 PUSH1 0xE4 DUP3 ADD MSTORE PUSH2 0x17F5 DUP7 DUP3 PUSH2 0x104 PUSH2 0x2E8C JUMP JUMPDEST POP PUSH2 0x1843 JUMP JUMPDEST PUSH1 0x2 DUP7 PUSH1 0x5 DUP2 GT ISZERO PUSH2 0x180F JUMPI PUSH2 0x180F PUSH2 0x5545 JUMP JUMPDEST SUB PUSH2 0x1836 JUMPI DUP1 PUSH1 0x1 EQ PUSH2 0x1825 JUMPI PUSH2 0x1825 DUP2 PUSH2 0x2F98 JUMP JUMPDEST PUSH2 0x1831 DUP5 DUP5 CALLER DUP6 PUSH2 0x2FAA JUMP JUMPDEST PUSH2 0x1843 JUMP JUMPDEST PUSH2 0x1843 DUP5 DUP5 CALLER DUP6 DUP6 PUSH2 0x3080 JUMP JUMPDEST POP POP POP POP POP POP JUMP JUMPDEST CALLVALUE PUSH1 0x64 CALLDATALOAD PUSH1 0x84 CALLDATALOAD PUSH2 0x264 CALLDATALOAD PUSH1 0x6 SHL PUSH1 0x0 DUP1 DUP1 JUMPDEST DUP4 DUP2 LT ISZERO PUSH2 0x189D JUMPI PUSH2 0x284 DUP2 ADD CALLDATALOAD SWAP3 POP PUSH2 0x2A4 DUP2 ADD CALLDATALOAD SWAP2 POP DUP7 DUP4 GT ISZERO PUSH2 0x1886 JUMPI PUSH2 0x1886 PUSH2 0x3179 JUMP JUMPDEST DUP3 DUP8 SUB SWAP7 POP PUSH2 0x1895 DUP3 DUP5 PUSH2 0x3187 JUMP JUMPDEST PUSH1 0x40 ADD PUSH2 0x185E JUMP JUMPDEST POP DUP6 DUP6 GT ISZERO PUSH2 0x18AE JUMPI PUSH2 0x18AE PUSH2 0x3179 JUMP JUMPDEST PUSH2 0x18B8 DUP5 DUP7 PUSH2 0x3187 JUMP JUMPDEST DUP5 DUP7 GT ISZERO PUSH2 0x1843 JUMPI PUSH2 0x1843 CALLER DUP7 DUP9 SUB PUSH2 0x3187 JUMP JUMPDEST PUSH2 0x18D6 DUP2 DUP4 PUSH2 0x31C1 JUMP JUMPDEST DUP2 PUSH2 0x18FD JUMPI DUP3 PUSH1 0x1 EQ PUSH2 0x18EC JUMPI PUSH2 0x18EC DUP4 PUSH2 0x2F98 JUMP JUMPDEST PUSH2 0x18F8 DUP8 DUP8 DUP8 DUP8 PUSH2 0x2FAA JUMP JUMPDEST PUSH2 0x190E JUMP JUMPDEST PUSH2 0x190E DUP3 DUP3 PUSH1 0x2 DUP11 DUP11 DUP11 DUP11 DUP11 PUSH2 0x31E0 JUMP JUMPDEST POP POP POP POP POP POP POP JUMP JUMPDEST PUSH2 0x1920 DUP4 PUSH2 0x3279 JUMP JUMPDEST PUSH2 0x192A DUP2 DUP4 PUSH2 0x31C1 JUMP JUMPDEST DUP2 PUSH2 0x193C JUMPI PUSH2 0x18F8 DUP8 DUP8 DUP8 DUP8 DUP8 PUSH2 0x3080 JUMP JUMPDEST PUSH2 0x190E DUP3 DUP3 PUSH1 0x3 DUP11 DUP11 DUP11 DUP11 DUP11 PUSH2 0x31E0 JUMP JUMPDEST PUSH1 0x0 DUP1 PUSH1 0x0 DUP1 PUSH1 0x0 DUP7 ISZERO PUSH2 0x1975 JUMPI POP POP PUSH1 0x84 CALLDATALOAD SWAP3 POP CALLER SWAP2 POP POP PUSH1 0xC4 CALLDATALOAD PUSH2 0x104 CALLDATALOAD PUSH1 0xE4 CALLDATALOAD PUSH2 0x198A JUMP JUMPDEST POP CALLER SWAP4 POP POP PUSH1 0x84 CALLDATALOAD SWAP2 POP POP PUSH1 0x24 CALLDATALOAD PUSH1 0x64 CALLDATALOAD PUSH1 0x44 CALLDATALOAD JUMPDEST DUP1 ISZERO PUSH2 0x1998 JUMPI PUSH2 0x1998 PUSH2 0x328C JUMP JUMPDEST POP PUSH1 0x5 DUP7 SWAP1 SHL PUSH2 0x1E4 SUB CALLDATALOAD PUSH2 0x264 CALLDATALOAD PUSH1 0x6 SHL PUSH1 0x0 DUP1 DUP1 JUMPDEST DUP4 DUP2 LT ISZERO PUSH2 0x19F0 JUMPI PUSH2 0x284 DUP2 ADD CALLDATALOAD SWAP3 POP PUSH2 0x2A4 DUP2 ADD CALLDATALOAD SWAP2 POP DUP11 ISZERO PUSH2 0x19DA JUMPI PUSH2 0x19D7 DUP4 DUP8 PUSH2 0x5D59 JUMP JUMPDEST SWAP6 POP JUMPDEST PUSH2 0x19E8 DUP8 DUP11 DUP5 DUP7 DUP10 DUP16 PUSH2 0x329A JUMP JUMPDEST PUSH1 0x40 ADD PUSH2 0x19AF JUMP JUMPDEST POP PUSH2 0x19FF DUP7 DUP10 DUP10 DUP9 DUP9 DUP15 PUSH2 0x329A JUMP JUMPDEST POP POP POP POP POP POP POP POP POP POP JUMP JUMPDEST PUSH1 0x40 DUP2 MLOAD EQ PUSH2 0x1A17 JUMPI POP JUMP JUMPDEST PUSH1 0x0 PUSH2 0x1A24 DUP3 PUSH1 0x20 ADD MLOAD SWAP1 JUMP JUMPDEST SWAP1 POP PUSH2 0x1A30 DUP2 DUP4 PUSH2 0x32D0 JUMP JUMPDEST POP POP JUMP JUMPDEST PUSH2 0x1A5C DUP3 PUSH2 0x1A48 PUSH1 0xA0 DUP5 ADD PUSH1 0x80 DUP6 ADD PUSH2 0x5755 JUMP JUMPDEST CALLER EQ ISZERO PUSH1 0x1 DUP3 GT PUSH1 0x4 SWAP1 SWAP3 LT SWAP2 SWAP1 SWAP2 AND AND SWAP1 JUMP JUMPDEST ISZERO PUSH2 0x1A96 JUMPI PUSH1 0x0 DUP1 PUSH2 0x1A6E DUP6 DUP5 PUSH2 0x32F4 JUMP JUMPDEST SWAP1 SWAP3 POP SWAP1 POP PUSH2 0x1A93 PUSH2 0x1A86 PUSH1 0xA0 DUP6 ADD PUSH1 0x80 DUP7 ADD PUSH2 0x5755 JUMP JUMPDEST DUP7 DUP5 DUP5 PUSH4 0xFB5014FC PUSH2 0x33D4 JUMP JUMPDEST POP POP JUMPDEST POP POP POP JUMP JUMPDEST PUSH1 0x1 PUSH1 0x0 SLOAD EQ PUSH2 0x3A3 JUMPI PUSH2 0x3A3 PUSH2 0x3441 JUMP JUMPDEST DUP1 DUP4 DUP4 CALLDATACOPY POP POP POP JUMP JUMPDEST PUSH1 0x0 PUSH4 0xFFFFFFFF DUP3 CALLDATALOAD AND PUSH1 0x40 MLOAD SWAP2 POP DUP1 DUP3 MSTORE PUSH1 0x20 DUP3 ADD DUP2 PUSH1 0x5 SHL DUP2 ADD DUP1 PUSH1 0xA0 DUP5 MUL PUSH1 0x20 DUP8 ADD DUP4 CALLDATACOPY DUP3 SWAP4 POP JUMPDEST DUP2 DUP5 LT ISZERO PUSH2 0x1AFA JUMPI DUP1 DUP5 MSTORE PUSH1 0x20 SWAP1 SWAP4 ADD SWAP3 PUSH1 0xA0 ADD PUSH2 0x1AE1 JUMP JUMPDEST PUSH1 0x40 MSTORE POP SWAP2 SWAP4 SWAP3 POP POP POP JUMP JUMPDEST SWAP1 MSTORE JUMP JUMPDEST PUSH1 0x0 PUSH4 0xFFFFFFFF DUP3 CALLDATALOAD AND PUSH1 0x40 MLOAD SWAP2 POP DUP1 DUP3 MSTORE PUSH1 0x20 DUP3 ADD DUP2 PUSH1 0x5 SHL DUP2 ADD DUP1 PUSH1 0xC0 DUP5 MUL PUSH1 0x20 DUP8 ADD DUP4 CALLDATACOPY DUP3 SWAP4 POP JUMPDEST DUP2 DUP5 LT ISZERO PUSH2 0x1AFA JUMPI DUP1 DUP5 MSTORE PUSH1 0x20 SWAP1 SWAP4 ADD SWAP3 PUSH1 0xC0 ADD PUSH2 0x1B35 JUMP JUMPDEST PUSH1 0x0 PUSH2 0x1B61 PUSH1 0xA0 PUSH1 0x40 DUP1 MLOAD SWAP2 DUP3 ADD SWAP1 MSTORE SWAP1 JUMP JUMPDEST SWAP1 POP PUSH2 0x1B6F DUP3 DUP3 PUSH1 0x80 PUSH2 0x1AAD JUMP JUMPDEST PUSH2 0x1B8C PUSH2 0x1B85 PUSH2 0x1B80 DUP5 PUSH1 0x80 PUSH2 0xCDA JUMP JUMPDEST PUSH2 0x344F JUMP JUMPDEST PUSH1 0x80 DUP4 ADD MSTORE JUMP JUMPDEST SWAP2 SWAP1 POP JUMP JUMPDEST PUSH1 0x0 PUSH4 0xFFFFFFFF DUP3 CALLDATALOAD AND PUSH1 0x40 MLOAD SWAP2 POP DUP1 DUP3 MSTORE PUSH1 0x20 DUP3 ADD DUP2 PUSH1 0x5 SHL DUP2 ADD DUP1 DUP4 PUSH1 0x6 SHL PUSH1 0x20 DUP8 ADD DUP4 CALLDATACOPY DUP3 SWAP4 POP JUMPDEST DUP2 DUP5 LT ISZERO PUSH2 0x1AFA JUMPI DUP1 DUP5 MSTORE PUSH1 0x20 SWAP1 SWAP4 ADD SWAP3 PUSH1 0x40 ADD PUSH2 0x1BBC JUMP JUMPDEST PUSH1 0x60 PUSH1 0x0 PUSH2 0x1BE3 PUSH1 0x1 PUSH2 0x259B JUMP JUMPDEST PUSH29 0x4000000000000000000000000000000000000000000000000000000000 PUSH1 0x0 CALLDATALOAD AND PUSH2 0x1C0D PUSH2 0x5210 JUMP JUMPDEST DUP9 MLOAD PUSH1 0x0 SWAP1 DUP1 PUSH8 0xFFFFFFFFFFFFFFFF DUP2 GT ISZERO PUSH2 0x1C2B JUMPI PUSH2 0x1C2B PUSH2 0x59E2 JUMP JUMPDEST PUSH1 0x40 MLOAD SWAP1 DUP1 DUP3 MSTORE DUP1 PUSH1 0x20 MUL PUSH1 0x20 ADD DUP3 ADD PUSH1 0x40 MSTORE DUP1 ISZERO PUSH2 0x1C54 JUMPI DUP2 PUSH1 0x20 ADD PUSH1 0x20 DUP3 MUL DUP1 CALLDATASIZE DUP4 CALLDATACOPY ADD SWAP1 POP JUMPDEST POP SWAP6 POP PUSH1 0x1 ADD PUSH1 0x5 SHL SWAP1 POP PUSH1 0x60 DUP1 PUSH1 0x20 JUMPDEST DUP4 DUP2 LT ISZERO PUSH2 0x1E6D JUMPI DUP1 DUP14 ADD MLOAD SWAP5 POP DUP10 PUSH1 0x0 SUB PUSH2 0x1C87 JUMPI PUSH1 0x0 PUSH1 0x20 DUP7 ADD MSTORE PUSH2 0x1E65 JUMP JUMPDEST PUSH1 0x0 DUP1 PUSH1 0x0 PUSH2 0x1C96 DUP9 DUP16 PUSH2 0x25AB JUMP JUMPDEST SWAP3 POP SWAP3 POP SWAP3 POP DUP2 PUSH1 0x0 SUB PUSH2 0x1CB3 JUMPI POP POP PUSH1 0x0 PUSH1 0x20 DUP8 ADD MSTORE POP PUSH2 0x1E65 JUMP JUMPDEST DUP3 DUP5 DUP13 ADD MSTORE DUP13 PUSH1 0x1 SWAP1 SUB SWAP13 POP PUSH1 0x0 DUP9 PUSH1 0x0 ADD MLOAD PUSH1 0xA0 ADD MLOAD SWAP1 POP PUSH1 0x0 DUP10 PUSH1 0x0 ADD MLOAD PUSH1 0xC0 ADD MLOAD SWAP1 POP DUP10 PUSH1 0x0 ADD MLOAD PUSH1 0x40 ADD MLOAD SWAP8 POP PUSH1 0x0 DUP9 MLOAD SWAP1 POP PUSH1 0x0 DUP12 PUSH1 0x0 ADD MLOAD PUSH1 0x80 ADD MLOAD SWAP1 POP PUSH1 0x4 DUP2 LT DUP1 PUSH1 0x0 MSTORE POP PUSH1 0x1 DUP2 GT DUP15 OR SWAP14 POP POP PUSH1 0x0 JUMPDEST DUP2 DUP2 LT ISZERO PUSH2 0x1DAD JUMPI PUSH1 0x0 DUP11 DUP3 DUP2 MLOAD DUP2 LT PUSH2 0x1D28 JUMPI PUSH2 0x1D28 PUSH2 0x5A11 JUMP JUMPDEST PUSH1 0x20 MUL PUSH1 0x20 ADD ADD MLOAD SWAP1 POP PUSH1 0x0 MLOAD DUP2 MLOAD LT DUP15 OR SWAP14 POP PUSH1 0x0 PUSH2 0x1D4D DUP9 DUP9 DUP5 PUSH1 0x80 ADD MLOAD PUSH2 0x3487 JUMP JUMPDEST SWAP1 POP DUP2 PUSH1 0x80 ADD MLOAD DUP3 PUSH1 0x60 ADD MLOAD SUB PUSH2 0x1D6A JUMPI PUSH1 0x60 DUP3 ADD DUP2 SWAP1 MSTORE PUSH2 0x1D7F JUMP JUMPDEST PUSH2 0x1D79 DUP9 DUP9 DUP5 PUSH1 0x60 ADD MLOAD PUSH2 0x3487 JUMP JUMPDEST PUSH1 0x60 DUP4 ADD MSTORE JUMPDEST PUSH1 0x0 PUSH2 0x1D93 DUP4 PUSH1 0x60 ADD MLOAD DUP4 DUP10 DUP10 PUSH1 0x0 PUSH2 0x34C6 JUMP JUMPDEST PUSH1 0x60 DUP5 ADD DUP2 SWAP1 MSTORE PUSH1 0x80 SWAP1 SWAP4 ADD SWAP3 SWAP1 SWAP3 MSTORE POP POP PUSH1 0x1 ADD PUSH2 0x1D0C JUMP JUMPDEST POP DUP11 MLOAD PUSH1 0x60 ADD MLOAD DUP1 MLOAD SWAP1 SWAP9 POP PUSH1 0x0 JUMPDEST DUP2 DUP2 LT ISZERO PUSH2 0x1E5C JUMPI PUSH1 0x0 DUP11 DUP3 DUP2 MLOAD DUP2 LT PUSH2 0x1DD8 JUMPI PUSH2 0x1DD8 PUSH2 0x5A11 JUMP JUMPDEST PUSH1 0x20 MUL PUSH1 0x20 ADD ADD MLOAD SWAP1 POP PUSH1 0x0 PUSH2 0x1DF3 DUP10 DUP10 DUP5 PUSH1 0x80 ADD MLOAD PUSH2 0x3487 JUMP JUMPDEST SWAP1 POP DUP2 PUSH1 0x80 ADD MLOAD DUP3 PUSH1 0x60 ADD MLOAD SUB PUSH2 0x1E10 JUMPI PUSH1 0x60 DUP3 ADD DUP2 SWAP1 MSTORE PUSH2 0x1E25 JUMP JUMPDEST PUSH2 0x1E1F DUP10 DUP10 DUP5 PUSH1 0x60 ADD MLOAD PUSH2 0x3487 JUMP JUMPDEST PUSH1 0x60 DUP4 ADD MSTORE JUMPDEST PUSH1 0x0 PUSH2 0x1E39 DUP4 PUSH1 0x60 ADD MLOAD DUP4 DUP11 DUP11 PUSH1 0x1 PUSH2 0x34C6 JUMP JUMPDEST PUSH1 0x60 DUP5 ADD DUP2 SWAP1 MSTORE PUSH1 0xA0 DUP5 ADD DUP1 MLOAD PUSH1 0x80 SWAP1 SWAP6 ADD SWAP5 SWAP1 SWAP5 MSTORE SWAP1 SWAP3 MSTORE POP POP PUSH1 0x1 ADD PUSH2 0x1DBC JUMP JUMPDEST POP POP POP POP POP POP POP POP JUMPDEST PUSH1 0x20 ADD PUSH2 0x1C65 JUMP JUMPDEST POP POP POP PUSH29 0x4000000000000000000000000000000000000000000000000000000001 DUP4 SUB PUSH2 0x1E9C JUMPI PUSH2 0x1E9C PUSH2 0x351B JUMP JUMPDEST PUSH2 0x1EA6 DUP11 DUP11 PUSH2 0x27F9 JUMP JUMPDEST PUSH1 0x0 PUSH1 0x20 JUMPDEST DUP3 DUP2 LT ISZERO PUSH2 0x1EF6 JUMPI DUP7 DUP2 ADD MLOAD SWAP2 POP DUP2 ISZERO PUSH2 0x1EEE JUMPI DUP1 DUP13 ADD MLOAD SWAP4 POP PUSH1 0x0 DUP5 PUSH1 0x0 ADD MLOAD SWAP1 POP PUSH2 0x1EEC DUP4 DUP3 PUSH1 0x0 ADD MLOAD DUP4 PUSH1 0x20 ADD MLOAD DUP13 DUP6 PUSH1 0x40 ADD MLOAD DUP7 PUSH1 0x60 ADD MLOAD PUSH2 0x2C3C JUMP JUMPDEST POP JUMPDEST PUSH1 0x20 ADD PUSH2 0x1EAB JUMP JUMPDEST POP POP POP POP POP SWAP6 POP SWAP6 SWAP4 POP POP POP POP JUMP JUMPDEST DUP6 MLOAD DUP6 MLOAD PUSH1 0x60 SWAP2 DUP3 SWAP2 PUSH2 0x1F18 DUP2 DUP4 PUSH2 0x5D6C JUMP JUMPDEST PUSH8 0xFFFFFFFFFFFFFFFF DUP2 GT ISZERO PUSH2 0x1F30 JUMPI PUSH2 0x1F30 PUSH2 0x59E2 JUMP JUMPDEST PUSH1 0x40 MLOAD SWAP1 DUP1 DUP3 MSTORE DUP1 PUSH1 0x20 MUL PUSH1 0x20 ADD DUP3 ADD PUSH1 0x40 MSTORE DUP1 ISZERO PUSH2 0x1FBC JUMPI DUP2 PUSH1 0x20 ADD JUMPDEST PUSH1 0x40 DUP1 MLOAD PUSH2 0x100 DUP2 ADD DUP3 MSTORE PUSH1 0x0 PUSH1 0x60 DUP3 ADD DUP2 DUP2 MSTORE PUSH1 0x80 DUP4 ADD DUP3 SWAP1 MSTORE PUSH1 0xA0 DUP4 ADD DUP3 SWAP1 MSTORE PUSH1 0xC0 DUP4 ADD DUP3 SWAP1 MSTORE PUSH1 0xE0 DUP4 ADD DUP3 SWAP1 MSTORE DUP3 MSTORE PUSH1 0x20 DUP1 DUP4 ADD DUP3 SWAP1 MSTORE SWAP3 DUP3 ADD MSTORE DUP3 MSTORE PUSH32 0xFFFFFFFFFFFFFFFFFFFFFFFFFFFFFFFFFFFFFFFFFFFFFFFFFFFFFFFFFFFFFFFF SWAP1 SWAP3 ADD SWAP2 ADD DUP2 PUSH2 0x1F4E JUMPI SWAP1 POP JUMPDEST POP SWAP3 POP PUSH1 0x0 DUP1 JUMPDEST DUP4 DUP2 LT ISZERO PUSH2 0x2045 JUMPI PUSH1 0x0 PUSH2 0x1FF4 DUP15 PUSH1 0x0 DUP16 DUP6 DUP2 MLOAD DUP2 LT PUSH2 0x1FE5 JUMPI PUSH2 0x1FE5 PUSH2 0x5A11 JUMP JUMPDEST PUSH1 0x20 MUL PUSH1 0x20 ADD ADD MLOAD DUP15 DUP15 PUSH2 0x3529 JUMP JUMPDEST DUP1 MLOAD DUP1 MLOAD PUSH1 0x20 DUP4 ADD MLOAD PUSH1 0x80 SWAP1 SWAP3 ADD MLOAD SWAP3 SWAP4 POP ISZERO ISZERO SWAP2 EQ AND ISZERO PUSH2 0x201B JUMPI DUP3 PUSH1 0x1 ADD SWAP3 POP PUSH2 0x203C JUMP JUMPDEST DUP1 DUP7 DUP5 DUP5 SUB DUP2 MLOAD DUP2 LT PUSH2 0x2030 JUMPI PUSH2 0x2030 PUSH2 0x5A11 JUMP JUMPDEST PUSH1 0x20 MUL PUSH1 0x20 ADD ADD DUP2 SWAP1 MSTORE POP JUMPDEST POP PUSH1 0x1 ADD PUSH2 0x1FC3 JUMP JUMPDEST POP PUSH1 0x0 JUMPDEST DUP3 DUP2 LT ISZERO PUSH2 0x20CE JUMPI PUSH1 0x0 PUSH2 0x207B DUP15 PUSH1 0x1 DUP15 DUP6 DUP2 MLOAD DUP2 LT PUSH2 0x206B JUMPI PUSH2 0x206B PUSH2 0x5A11 JUMP JUMPDEST PUSH1 0x20 MUL PUSH1 0x20 ADD ADD MLOAD DUP15 PUSH1 0x0 PUSH2 0x3529 JUMP JUMPDEST DUP1 MLOAD DUP1 MLOAD PUSH1 0x20 DUP4 ADD MLOAD PUSH1 0x80 SWAP1 SWAP3 ADD MLOAD SWAP3 SWAP4 POP ISZERO ISZERO SWAP2 EQ AND ISZERO PUSH2 0x20A2 JUMPI DUP3 PUSH1 0x1 ADD SWAP3 POP PUSH2 0x20C5 JUMP JUMPDEST DUP1 DUP7 DUP5 DUP8 DUP6 ADD SUB DUP2 MLOAD DUP2 LT PUSH2 0x20B9 JUMPI PUSH2 0x20B9 PUSH2 0x5A11 JUMP JUMPDEST PUSH1 0x20 MUL PUSH1 0x20 ADD ADD DUP2 SWAP1 MSTORE POP JUMPDEST POP PUSH1 0x1 ADD PUSH2 0x2049 JUMP JUMPDEST POP DUP1 ISZERO PUSH2 0x20DC JUMPI DUP1 DUP5 MLOAD SUB DUP5 MSTORE JUMPDEST POP DUP3 MLOAD PUSH1 0x0 SUB PUSH2 0x20EE JUMPI PUSH2 0x20EE PUSH2 0x3604 JUMP JUMPDEST PUSH2 0x20FB DUP12 DUP5 DUP9 DUP11 DUP10 PUSH2 0x3612 JUMP JUMPDEST SWAP4 POP POP POP SWAP8 POP SWAP8 SWAP6 POP POP POP POP POP POP JUMP JUMPDEST PUSH1 0x0 PUSH2 0x211D PUSH1 0x40 DUP1 DUP1 MLOAD SWAP2 DUP3 ADD SWAP1 MSTORE SWAP1 JUMP JUMPDEST SWAP1 POP PUSH2 0x2137 PUSH2 0x2133 PUSH2 0x212E DUP5 PUSH2 0xA3F JUMP JUMPDEST PUSH2 0x392E JUMP JUMPDEST DUP3 MSTORE JUMP JUMPDEST PUSH2 0x1B8C PUSH2 0x2148 PUSH2 0x10BF DUP5 PUSH1 0x20 PUSH2 0xCDA JUMP JUMPDEST PUSH1 0x20 DUP4 ADD MSTORE JUMP JUMPDEST PUSH1 0x0 PUSH2 0x2165 DUP3 PUSH1 0x60 ADD MLOAD MLOAD DUP4 PUSH2 0x140 ADD MLOAD PUSH2 0x394E JUMP JUMPDEST DUP2 MLOAD PUSH20 0xFFFFFFFFFFFFFFFFFFFFFFFFFFFFFFFFFFFFFFFF AND PUSH1 0x0 SWAP1 DUP2 MSTORE PUSH1 0x1 PUSH1 0x20 MSTORE PUSH1 0x40 SWAP1 KECCAK256 SLOAD PUSH2 0x3B0 SWAP1 DUP4 SWAP1 PUSH2 0xACF JUMP JUMPDEST DUP3 SLOAD PUSH1 0x0 SWAP1 PUSH2 0x100 SWAP1 DIV PUSH1 0xFF AND ISZERO PUSH2 0x21C0 JUMPI DUP2 ISZERO PUSH2 0x21B8 JUMPI PUSH2 0x21B8 DUP6 PUSH2 0x395E JUMP JUMPDEST POP PUSH1 0x0 PUSH2 0x536 JUMP JUMPDEST DUP4 SLOAD PUSH3 0x10000 SWAP1 DIV PUSH15 0xFFFFFFFFFFFFFFFFFFFFFFFFFFFFFF AND DUP1 ISZERO PUSH2 0x223A JUMPI DUP4 ISZERO PUSH2 0x21F3 JUMPI PUSH2 0x21EE DUP7 PUSH2 0x3970 JUMP JUMPDEST PUSH2 0x223A JUMP JUMPDEST DUP5 SLOAD PUSH18 0x10000000000000000000000000000000000 SWAP1 DIV PUSH15 0xFFFFFFFFFFFFFFFFFFFFFFFFFFFFFF AND DUP2 LT PUSH2 0x223A JUMPI DUP3 ISZERO PUSH2 0x2230 JUMPI PUSH2 0x2230 DUP7 PUSH2 0x3982 JUMP JUMPDEST PUSH1 0x0 SWAP2 POP POP PUSH2 0x536 JUMP JUMPDEST POP PUSH1 0x1 SWAP6 SWAP5 POP POP POP POP POP JUMP JUMPDEST PUSH4 0x2165628A PUSH1 0x0 MSTORE PUSH1 0x4 PUSH1 0x1C REVERT JUMPDEST CALLER DUP4 EQ DUP1 ISZERO PUSH2 0x2263 JUMPI POP POP POP POP JUMP JUMPDEST PUSH1 0x0 PUSH2 0x226D PUSH2 0x2CBB JUMP JUMPDEST PUSH32 0x1901000000000000000000000000000000000000000000000000000000000000 PUSH1 0x0 SWAP1 DUP2 MSTORE PUSH1 0x2 DUP3 DUP2 MSTORE PUSH1 0x22 DUP8 DUP2 MSTORE PUSH1 0x42 DUP4 KECCAK256 SWAP1 DUP4 SWAP1 MSTORE DUP7 MLOAD SWAP4 SWAP5 POP SWAP3 SWAP2 SWAP1 PUSH1 0x1F PUSH1 0x1D DUP5 ADD AND LT PUSH2 0x2E2 PUSH32 0xFFFFFFFFFFFFFFFFFFFFFFFFFFFFFFFFFFFFFFFFFFFFFFFFFFFFFFFFFFFFFF9D DUP5 ADD LT AND ISZERO PUSH2 0x232D JUMPI PUSH2 0x22EC DUP7 DUP9 PUSH2 0x3994 JUMP JUMPDEST PUSH32 0x1901000000000000000000000000000000000000000000000000000000000000 PUSH1 0x0 SWAP1 DUP2 MSTORE PUSH1 0x2 DUP7 SWAP1 MSTORE PUSH1 0x22 DUP3 DUP2 MSTORE PUSH1 0x42 DUP3 KECCAK256 SWAP2 SWAP1 MSTORE SWAP1 SWAP8 POP SWAP1 POP PUSH2 0x2330 JUMP JUMPDEST POP DUP2 JUMPDEST PUSH2 0x233D DUP9 DUP3 DUP6 DUP6 DUP11 PUSH2 0x3A30 JUMP JUMPDEST POP POP POP POP POP POP POP POP JUMP JUMPDEST PUSH1 0x0 PUSH2 0x2359 PUSH1 0x40 DUP1 DUP1 MLOAD SWAP2 DUP3 ADD SWAP1 MSTORE SWAP1 JUMP JUMPDEST SWAP1 POP PUSH2 0x236A PUSH2 0x2133 PUSH2 0xDA0 DUP5 PUSH2 0xA3F JUMP JUMPDEST PUSH2 0x1B8C PUSH2 0x2148 PUSH2 0xDA0 DUP5 PUSH1 0x20 PUSH2 0xCDA JUMP JUMPDEST DUP1 MLOAD DUP1 PUSH1 0x5 SHL PUSH1 0x40 ADD SWAP1 POP PUSH1 0x20 DUP3 SUB DUP1 MLOAD PUSH1 0x20 DUP3 MSTORE PUSH32 0x4B9F2D36E1B4C93DE62CC077B00B1A91D84B6C31B4A14E012718DCCA230689E7 DUP4 DUP4 LOG1 SWAP1 MSTORE POP POP JUMP JUMPDEST DUP4 MLOAD PUSH1 0x60 SWAP1 DUP1 PUSH8 0xFFFFFFFFFFFFFFFF DUP2 GT ISZERO PUSH2 0x23D8 JUMPI PUSH2 0x23D8 PUSH2 0x59E2 JUMP JUMPDEST PUSH1 0x40 MLOAD SWAP1 DUP1 DUP3 MSTORE DUP1 PUSH1 0x20 MUL PUSH1 0x20 ADD DUP3 ADD PUSH1 0x40 MSTORE DUP1 ISZERO PUSH2 0x2464 JUMPI DUP2 PUSH1 0x20 ADD JUMPDEST PUSH1 0x40 DUP1 MLOAD PUSH2 0x100 DUP2 ADD DUP3 MSTORE PUSH1 0x0 PUSH1 0x60 DUP3 ADD DUP2 DUP2 MSTORE PUSH1 0x80 DUP4 ADD DUP3 SWAP1 MSTORE PUSH1 0xA0 DUP4 ADD DUP3 SWAP1 MSTORE PUSH1 0xC0 DUP4 ADD DUP3 SWAP1 MSTORE PUSH1 0xE0 DUP4 ADD DUP3 SWAP1 MSTORE DUP3 MSTORE PUSH1 0x20 DUP1 DUP4 ADD DUP3 SWAP1 MSTORE SWAP3 DUP3 ADD MSTORE DUP3 MSTORE PUSH32 0xFFFFFFFFFFFFFFFFFFFFFFFFFFFFFFFFFFFFFFFFFFFFFFFFFFFFFFFFFFFFFFFF SWAP1 SWAP3 ADD SWAP2 ADD DUP2 PUSH2 0x23F6 JUMPI SWAP1 POP JUMPDEST POP SWAP2 POP PUSH1 0x0 DUP1 JUMPDEST DUP3 DUP2 LT ISZERO PUSH2 0x24F9 JUMPI PUSH1 0x0 DUP9 DUP3 DUP2 MLOAD DUP2 LT PUSH2 0x2487 JUMPI PUSH2 0x2487 PUSH2 0x5A11 JUMP JUMPDEST PUSH1 0x20 MUL PUSH1 0x20 ADD ADD MLOAD SWAP1 POP PUSH1 0x0 PUSH2 0x24A7 DUP12 DUP4 PUSH1 0x0 ADD MLOAD DUP5 PUSH1 0x20 ADD MLOAD DUP7 PUSH2 0x3BF1 JUMP JUMPDEST DUP1 MLOAD DUP1 MLOAD PUSH1 0x20 DUP4 ADD MLOAD PUSH1 0x80 SWAP1 SWAP3 ADD MLOAD SWAP3 SWAP4 POP ISZERO ISZERO SWAP2 EQ AND ISZERO PUSH2 0x24CE JUMPI DUP4 PUSH1 0x1 ADD SWAP4 POP PUSH2 0x24EF JUMP JUMPDEST DUP1 DUP7 DUP6 DUP6 SUB DUP2 MLOAD DUP2 LT PUSH2 0x24E3 JUMPI PUSH2 0x24E3 PUSH2 0x5A11 JUMP JUMPDEST PUSH1 0x20 MUL PUSH1 0x20 ADD ADD DUP2 SWAP1 MSTORE POP JUMPDEST POP POP PUSH1 0x1 ADD PUSH2 0x246B JUMP JUMPDEST POP DUP1 ISZERO PUSH2 0x2507 JUMPI DUP1 DUP4 MLOAD SUB DUP4 MSTORE JUMPDEST POP PUSH2 0x2515 DUP8 DUP4 DUP8 DUP8 DUP8 PUSH2 0x3612 JUMP JUMPDEST POP POP JUMPDEST SWAP6 SWAP5 POP POP POP POP POP JUMP JUMPDEST PUSH2 0x252E DUP3 DUP3 PUSH2 0x160 PUSH2 0x1AAD JUMP JUMPDEST PUSH2 0x253F PUSH2 0xA89 PUSH2 0xA84 DUP5 PUSH1 0x40 PUSH2 0xCDA JUMP JUMPDEST PUSH2 0x1A30 PUSH2 0x2550 PUSH2 0xAA0 DUP5 PUSH1 0x60 PUSH2 0xCDA JUMP JUMPDEST PUSH1 0x60 DUP4 ADD MSTORE JUMP JUMPDEST PUSH1 0x40 MLOAD DUP2 CALLDATALOAD PUSH1 0x1F ADD PUSH4 0xFFFFFFE0 AND PUSH1 0x20 ADD DUP1 DUP4 DUP4 CALLDATACOPY SWAP2 CALLDATALOAD PUSH4 0xFFFFFFFF AND DUP2 MSTORE SWAP1 DUP2 ADD PUSH1 0x40 MSTORE SWAP1 JUMP JUMPDEST PUSH1 0x0 PUSH2 0x2592 PUSH1 0x20 PUSH1 0x40 DUP1 MLOAD SWAP2 DUP3 ADD SWAP1 MSTORE SWAP1 JUMP JUMPDEST PUSH1 0x0 DUP2 MSTORE SWAP1 POP SWAP1 JUMP JUMPDEST PUSH2 0x25A3 PUSH2 0x1A9B JUMP JUMPDEST PUSH1 0x2 ADD PUSH1 0x0 SSTORE JUMP JUMPDEST PUSH1 0x0 DUP1 PUSH1 0x0 DUP1 DUP6 PUSH1 0x0 ADD MLOAD SWAP1 POP PUSH2 0x25CB DUP2 PUSH1 0xA0 ADD MLOAD DUP3 PUSH1 0xC0 ADD MLOAD DUP8 PUSH2 0x3E8C JUMP JUMPDEST PUSH2 0x25DF JUMPI POP PUSH1 0x0 SWAP3 POP DUP3 SWAP2 POP DUP2 SWAP1 POP PUSH2 0x27F2 JUMP JUMPDEST PUSH1 0x20 DUP7 ADD MLOAD PUSH1 0x40 DUP8 ADD MLOAD PUSH15 0xFFFFFFFFFFFFFFFFFFFFFFFFFFFFFF SWAP2 DUP3 AND SWAP5 POP AND SWAP2 POP PUSH1 0x0 PUSH1 0x4 DUP3 PUSH1 0x80 ADD MLOAD PUSH1 0x4 DUP2 GT ISZERO PUSH2 0x261B JUMPI PUSH2 0x261B PUSH2 0x5545 JUMP JUMPDEST SUB PUSH2 0x2652 JUMPI PUSH1 0x1 DUP4 DUP6 MUL XOR SWAP1 POP DUP1 ISZERO PUSH2 0x2636 JUMPI PUSH2 0x2636 PUSH2 0x3EAF JUMP JUMPDEST PUSH2 0x2645 DUP3 DUP9 PUSH1 0x80 ADD MLOAD DUP9 PUSH2 0x3EBD JUMP JUMPDEST SWAP5 POP SWAP5 POP SWAP5 POP POP POP PUSH2 0x27F2 JUMP JUMPDEST POP DUP2 DUP4 GT DUP4 ISZERO OR DUP1 ISZERO PUSH2 0x2667 JUMPI PUSH2 0x2667 PUSH2 0x3EAF JUMP JUMPDEST PUSH1 0x80 DUP3 ADD MLOAD PUSH1 0x1 AND ISZERO DUP5 DUP5 GT AND ISZERO PUSH2 0x2681 JUMPI PUSH2 0x2681 PUSH2 0x40E7 JUMP JUMPDEST PUSH2 0x268A DUP3 PUSH2 0x214F JUMP JUMPDEST PUSH1 0x0 DUP2 DUP2 MSTORE PUSH1 0x2 PUSH1 0x20 MSTORE PUSH1 0x40 DUP2 KECCAK256 SWAP2 SWAP7 POP PUSH2 0x26A9 SWAP1 DUP8 SWAP1 DUP4 SWAP1 DUP11 PUSH2 0x2197 JUMP JUMPDEST PUSH2 0x26BD JUMPI POP PUSH1 0x0 SWAP4 POP DUP4 SWAP3 POP PUSH2 0x27F2 SWAP2 POP POP JUMP JUMPDEST DUP1 SLOAD PUSH1 0xFF AND PUSH2 0x26D9 JUMPI PUSH2 0x26D9 DUP4 PUSH1 0x0 ADD MLOAD DUP8 DUP11 PUSH1 0x60 ADD MLOAD PUSH2 0x2254 JUMP JUMPDEST DUP1 DUP1 SLOAD DUP1 PUSH1 0x88 SHR DUP1 PUSH2 0x26ED JUMPI DUP8 SWAP2 POP PUSH2 0x27DD JUMP JUMPDEST PUSH15 0xFFFFFFFFFFFFFFFFFFFFFFFFFFFFFF DUP3 PUSH1 0x10 SHR AND SWAP2 POP PUSH1 0x1 DUP8 SUB PUSH2 0x271A JUMPI SWAP1 DUP2 SUB SWAP7 POP SWAP5 POP DUP5 DUP1 PUSH2 0x27DD JUMP JUMPDEST DUP1 DUP8 SUB PUSH2 0x2738 JUMPI SWAP1 DUP8 ADD DUP7 DUP2 SUB DUP8 DUP3 GT MUL SWAP8 DUP9 SWAP1 SUB SWAP8 SWAP1 SUB SWAP1 PUSH2 0x27DD JUMP JUMPDEST DUP1 DUP8 MUL SWAP8 DUP2 MUL SWAP2 SWAP1 SWAP7 MUL DUP2 ADD DUP8 DUP2 SUB DUP9 DUP3 GT MUL SWAP2 DUP3 SWAP1 SUB SWAP8 SWAP7 SWAP2 SWAP1 SUB SWAP1 PUSH15 0xFFFFFFFFFFFFFFFFFFFFFFFFFFFFFF DUP1 DUP4 GT SWAP1 DUP9 GT OR ISZERO PUSH2 0x27DD JUMPI PUSH2 0x278A JUMP JUMPDEST PUSH1 0x0 JUMPDEST DUP3 ISZERO PUSH2 0xAC5 JUMPI SWAP1 DUP3 SWAP1 MOD SWAP2 SWAP1 PUSH2 0x2779 JUMP JUMPDEST PUSH2 0x279D PUSH2 0x2797 DUP9 DUP5 PUSH2 0x2776 JUMP JUMPDEST DUP10 PUSH2 0x2776 JUMP JUMPDEST DUP1 ISZERO ADD SWAP8 DUP9 SWAP1 DIV SWAP8 SWAP7 DUP8 SWAP1 DIV SWAP7 SWAP1 SWAP2 DIV SWAP1 PUSH15 0xFFFFFFFFFFFFFFFFFFFFFFFFFFFFFF DUP1 DUP4 GT SWAP1 DUP9 GT OR ISZERO PUSH2 0x27DD JUMPI PUSH4 0x4E487B71 PUSH1 0x0 MSTORE PUSH1 0x11 PUSH1 0x20 MSTORE PUSH1 0x24 PUSH1 0x1C REVERT JUMPDEST POP DUP6 PUSH1 0x88 SHL DUP2 PUSH1 0x10 SHL OR PUSH1 0x1 OR DUP3 SSTORE POP POP POP POP POP JUMPDEST SWAP3 POP SWAP3 POP SWAP3 JUMP JUMPDEST DUP1 MLOAD DUP3 MLOAD PUSH1 0x0 JUMPDEST DUP3 DUP2 LT ISZERO PUSH2 0x28F9 JUMPI PUSH1 0x0 DUP5 DUP3 DUP2 MLOAD DUP2 LT PUSH2 0x281C JUMPI PUSH2 0x281C PUSH2 0x5A11 JUMP JUMPDEST PUSH1 0x20 MUL PUSH1 0x20 ADD ADD MLOAD SWAP1 POP PUSH1 0x0 DUP2 PUSH1 0x0 ADD MLOAD SWAP1 POP DUP4 DUP2 LT PUSH2 0x2843 JUMPI PUSH2 0x2843 DUP3 PUSH1 0x20 ADD MLOAD PUSH2 0x40F5 JUMP JUMPDEST PUSH1 0x0 DUP8 DUP3 DUP2 MLOAD DUP2 LT PUSH2 0x2857 JUMPI PUSH2 0x2857 PUSH2 0x5A11 JUMP JUMPDEST PUSH1 0x20 MUL PUSH1 0x20 ADD ADD MLOAD SWAP1 POP DUP1 PUSH1 0x20 ADD MLOAD PUSH15 0xFFFFFFFFFFFFFFFFFFFFFFFFFFFFFF AND PUSH1 0x0 SUB PUSH2 0x2886 JUMPI POP POP POP PUSH2 0x28F1 JUMP JUMPDEST DUP1 MLOAD PUSH1 0x40 DUP1 DUP3 ADD MLOAD SWAP1 DUP6 ADD MLOAD PUSH4 0xBFB3F8CE PUSH1 0x0 DUP8 PUSH1 0x20 ADD MLOAD PUSH1 0x1 DUP2 GT ISZERO PUSH2 0x28AF JUMPI PUSH2 0x28AF PUSH2 0x5545 JUMP JUMPDEST EQ PUSH2 0x28CC JUMPI PUSH1 0x0 PUSH2 0x28C1 DUP6 PUSH1 0x60 PUSH2 0x4107 JUMP JUMPDEST SWAP4 POP PUSH4 0x6088D7DE SWAP2 POP POP JUMPDEST DUP3 MLOAD DUP3 LT PUSH2 0x28DE JUMPI DUP1 PUSH1 0x0 MSTORE PUSH1 0x4 PUSH1 0x1C REVERT JUMPDEST PUSH2 0x28E9 DUP4 DUP4 DUP10 PUSH2 0x4113 JUMP JUMPDEST POP POP POP POP POP POP POP JUMPDEST PUSH1 0x1 ADD PUSH2 0x2800 JUMP JUMPDEST POP PUSH1 0x0 JUMPDEST DUP2 DUP2 LT ISZERO PUSH2 0x1A93 JUMPI PUSH1 0x0 DUP6 DUP3 DUP2 MLOAD DUP2 LT PUSH2 0x2919 JUMPI PUSH2 0x2919 PUSH2 0x5A11 JUMP JUMPDEST PUSH1 0x20 MUL PUSH1 0x20 ADD ADD MLOAD SWAP1 POP DUP1 PUSH1 0x20 ADD MLOAD PUSH15 0xFFFFFFFFFFFFFFFFFFFFFFFFFFFFFF AND PUSH1 0x0 SUB PUSH2 0x2946 JUMPI POP PUSH2 0x29E3 JUMP JUMPDEST DUP1 MLOAD PUSH1 0x60 DUP2 ADD MLOAD MLOAD PUSH1 0x0 JUMPDEST DUP2 DUP2 LT ISZERO PUSH2 0x299B JUMPI PUSH2 0x2984 DUP4 PUSH1 0x60 ADD MLOAD DUP3 DUP2 MLOAD DUP2 LT PUSH2 0x2972 JUMPI PUSH2 0x2972 PUSH2 0x5A11 JUMP JUMPDEST PUSH1 0x20 MUL PUSH1 0x20 ADD ADD MLOAD PUSH1 0x0 ADD MLOAD PUSH1 0x3 LT SWAP1 JUMP JUMPDEST ISZERO PUSH2 0x2993 JUMPI PUSH2 0x2993 DUP6 DUP3 PUSH2 0x41C9 JUMP JUMPDEST PUSH1 0x1 ADD PUSH2 0x2951 JUMP JUMPDEST POP POP PUSH1 0x40 DUP2 ADD MLOAD MLOAD PUSH1 0x0 JUMPDEST DUP2 DUP2 LT ISZERO PUSH2 0x29DE JUMPI PUSH2 0x29C7 DUP4 PUSH1 0x40 ADD MLOAD DUP3 DUP2 MLOAD DUP2 LT PUSH2 0x2972 JUMPI PUSH2 0x2972 PUSH2 0x5A11 JUMP JUMPDEST ISZERO PUSH2 0x29D6 JUMPI PUSH2 0x29D6 DUP6 DUP3 PUSH2 0x41DF JUMP JUMPDEST PUSH1 0x1 ADD PUSH2 0x29A6 JUMP JUMPDEST POP POP POP POP JUMPDEST PUSH1 0x1 ADD PUSH2 0x28FD JUMP JUMPDEST PUSH1 0xA0 DUP6 ADD MLOAD PUSH1 0xC0 DUP7 ADD MLOAD PUSH1 0x40 DUP1 MLOAD PUSH1 0x20 DUP1 DUP3 MSTORE DUP2 DUP4 ADD SWAP1 SWAP3 MSTORE PUSH1 0x0 SWAP2 PUSH1 0x20 DUP3 ADD DUP2 DUP1 CALLDATASIZE DUP4 CALLDATACOPY POP POP POP PUSH1 0x40 DUP10 ADD MLOAD MLOAD SWAP1 SWAP2 POP PUSH1 0x0 DUP1 JUMPDEST DUP3 DUP2 LT ISZERO PUSH2 0x2AA1 JUMPI PUSH1 0x0 DUP12 PUSH1 0x40 ADD MLOAD DUP3 DUP2 MLOAD DUP2 LT PUSH2 0x2A40 JUMPI PUSH2 0x2A40 PUSH2 0x5A11 JUMP JUMPDEST PUSH1 0x20 MUL PUSH1 0x20 ADD ADD MLOAD SWAP1 POP PUSH1 0x0 DUP2 PUSH1 0x0 ADD MLOAD SWAP1 POP DUP1 ISZERO DUP5 OR SWAP4 POP POP PUSH1 0x0 PUSH2 0x2A74 DUP3 PUSH1 0x60 ADD MLOAD DUP4 PUSH1 0x80 ADD MLOAD DUP15 DUP15 DUP13 DUP13 PUSH1 0x0 PUSH2 0x41F5 JUMP JUMPDEST PUSH1 0x60 DUP4 ADD MSTORE POP PUSH1 0x80 DUP2 ADD DUP9 SWAP1 MSTORE DUP12 MLOAD PUSH2 0x120 DUP14 ADD MLOAD PUSH2 0x2A98 SWAP2 DUP4 SWAP2 DUP9 PUSH2 0x4231 PUSH2 0x3E9 JUMP JUMPDEST POP PUSH1 0x1 ADD PUSH2 0x2A20 JUMP JUMPDEST POP PUSH1 0x80 DUP11 ADD MLOAD PUSH1 0x4 DUP2 LT DUP3 AND DUP1 ISZERO PUSH2 0x2ABB JUMPI PUSH2 0x2ABB PUSH2 0x351B JUMP JUMPDEST POP POP POP PUSH1 0x60 DUP10 ADD MLOAD MLOAD PUSH1 0x0 SWAP2 POP DUP2 JUMPDEST DUP2 DUP2 LT ISZERO PUSH2 0x2B67 JUMPI PUSH1 0x0 DUP12 PUSH1 0x60 ADD MLOAD DUP3 DUP2 MLOAD DUP2 LT PUSH2 0x2AEA JUMPI PUSH2 0x2AEA PUSH2 0x5A11 JUMP JUMPDEST PUSH1 0x20 MUL PUSH1 0x20 ADD ADD MLOAD SWAP1 POP PUSH1 0x0 PUSH2 0x2B0E DUP3 PUSH1 0x60 ADD MLOAD DUP4 PUSH1 0x80 ADD MLOAD DUP15 DUP15 DUP13 DUP13 PUSH1 0x1 PUSH2 0x41F5 JUMP JUMPDEST PUSH1 0x60 DUP4 ADD DUP2 SWAP1 MSTORE PUSH1 0xA0 DUP4 ADD MLOAD PUSH1 0x80 DUP5 ADD MSTORE SWAP1 POP PUSH1 0x0 DUP3 MLOAD PUSH1 0x5 DUP2 GT ISZERO PUSH2 0x2B36 JUMPI PUSH2 0x2B36 PUSH2 0x5545 JUMP JUMPDEST SUB PUSH2 0x2B4E JUMPI SELFBALANCE SWAP5 POP DUP5 DUP2 GT ISZERO PUSH2 0x2B4E JUMPI PUSH2 0x2B4E PUSH2 0x3179 JUMP JUMPDEST PUSH2 0x2B5D DUP3 CALLER DUP13 DUP10 PUSH2 0x4231 PUSH2 0x3E9 JUMP JUMPDEST POP POP PUSH1 0x1 ADD PUSH2 0x2ACA JUMP JUMPDEST POP POP PUSH2 0x2B72 DUP3 PUSH2 0x1A0B JUMP JUMPDEST POP SELFBALANCE DUP1 ISZERO PUSH2 0x2B84 JUMPI PUSH2 0x2B84 CALLER DUP3 PUSH2 0x3187 JUMP JUMPDEST POP POP POP POP POP POP POP POP POP JUMP JUMPDEST DUP3 MLOAD PUSH1 0x80 DUP2 ADD MLOAD PUSH1 0x20 DUP3 ADD MLOAD PUSH1 0x0 SWAP3 DUP4 SWAP3 DUP4 SWAP3 DUP4 SWAP3 SWAP2 PUSH1 0x4 DUP2 LT PUSH1 0x1 SWAP1 SWAP2 GT AND CALLER SWAP1 SWAP2 EQ ISZERO AND ISZERO PUSH2 0x2BE2 JUMPI PUSH2 0x2BCA DUP7 DUP3 DUP11 PUSH1 0x80 ADD MLOAD DUP11 PUSH2 0x4334 JUMP JUMPDEST PUSH1 0x20 DUP4 ADD MLOAD SWAP2 SWAP5 POP SWAP3 POP SWAP5 POP PUSH4 0xFB5014FC SWAP4 POP PUSH2 0x2C2F JUMP JUMPDEST PUSH1 0x4 DUP2 PUSH1 0x80 ADD MLOAD PUSH1 0x4 DUP2 GT ISZERO PUSH2 0x2BFA JUMPI PUSH2 0x2BFA PUSH2 0x5545 JUMP JUMPDEST SUB PUSH2 0x233D JUMPI DUP1 MLOAD SWAP5 POP PUSH1 0x0 DUP6 PUSH1 0x60 SHL SWAP1 POP PUSH2 0x2C1C DUP8 DUP4 DUP12 PUSH1 0x80 ADD MLOAD DUP12 DUP6 PUSH2 0x445B JUMP JUMPDEST PUSH4 0x93979285 SWAP7 POP SWAP1 SWAP5 POP SWAP3 POP PUSH2 0x2C2F SWAP1 POP JUMP JUMPDEST PUSH2 0x233D DUP6 DUP8 DUP6 DUP6 DUP9 PUSH2 0x33D4 JUMP JUMPDEST PUSH1 0x60 DUP3 SWAP1 POP PUSH1 0x60 DUP3 SWAP1 POP DUP6 PUSH20 0xFFFFFFFFFFFFFFFFFFFFFFFFFFFFFFFFFFFFFFFF AND DUP8 PUSH20 0xFFFFFFFFFFFFFFFFFFFFFFFFFFFFFFFFFFFFFFFF AND PUSH32 0x9D9AF8E38D66C62E2C12F0225249FD9D721C54B83F48D9352C97C6CACDCB6F31 DUP11 DUP9 DUP7 DUP7 PUSH1 0x40 MLOAD PUSH2 0x2CA9 SWAP5 SWAP4 SWAP3 SWAP2 SWAP1 PUSH2 0x5DB9 JUMP JUMPDEST PUSH1 0x40 MLOAD DUP1 SWAP2 SUB SWAP1 LOG3 POP POP POP POP POP POP POP POP JUMP JUMPDEST PUSH1 0x0 PUSH32 0x0 CHAINID EQ PUSH2 0x2D75 JUMPI POP PUSH1 0x40 DUP1 MLOAD PUSH1 0x80 DUP1 MLOAD PUSH32 0x0 PUSH1 0x0 SWAP1 DUP2 MSTORE PUSH32 0x0 PUSH1 0x20 MSTORE PUSH32 0x0 DUP6 MSTORE CHAINID PUSH1 0x60 SWAP1 DUP2 MSTORE ADDRESS DUP5 MSTORE PUSH1 0xA0 DUP3 KECCAK256 SWAP5 SWAP1 SWAP6 MSTORE SWAP1 SWAP4 MSTORE SWAP2 SWAP1 SWAP2 MSTORE SWAP1 JUMP JUMPDEST POP PUSH32 0x0 SWAP1 JUMP JUMPDEST PUSH4 0xFED398FC PUSH1 0x0 MSTORE PUSH1 0x4 PUSH1 0x1C REVERT JUMPDEST PUSH1 0x4 CALLDATALOAD PUSH1 0x20 EQ PUSH2 0x224 CALLDATALOAD PUSH2 0x240 EQ AND PUSH2 0x244 CALLDATALOAD PUSH2 0x260 PUSH2 0x264 CALLDATALOAD PUSH1 0x6 SHL ADD EQ AND PUSH1 0x18 PUSH2 0x124 CALLDATALOAD LT PUSH21 0x10000000000000000000000000000000000000000 PUSH1 0x84 CALLDATALOAD PUSH1 0xA4 CALLDATALOAD OR PUSH1 0xC4 CALLDATALOAD PUSH1 0x24 CALLDATALOAD OR OR LT AND AND DUP1 PUSH2 0x2E04 JUMPI PUSH2 0x2E04 PUSH2 0x452D JUMP JUMPDEST POP JUMP JUMPDEST PUSH1 0x0 DUP4 DUP2 MSTORE PUSH1 0x2 PUSH1 0x20 MSTORE PUSH1 0x40 SWAP1 KECCAK256 PUSH1 0x84 CALLDATALOAD SWAP1 PUSH2 0x2E26 DUP6 DUP3 PUSH1 0x1 DUP1 PUSH2 0x2197 JUMP JUMPDEST POP DUP1 SLOAD PUSH1 0xFF AND PUSH2 0x2E71 JUMPI PUSH2 0x2E71 DUP3 DUP7 DUP7 DUP7 DUP1 DUP1 PUSH1 0x1F ADD PUSH1 0x20 DUP1 SWAP2 DIV MUL PUSH1 0x20 ADD PUSH1 0x40 MLOAD SWAP1 DUP2 ADD PUSH1 0x40 MSTORE DUP1 SWAP4 SWAP3 SWAP2 SWAP1 DUP2 DUP2 MSTORE PUSH1 0x20 ADD DUP4 DUP4 DUP1 DUP3 DUP5 CALLDATACOPY PUSH1 0x0 SWAP3 ADD SWAP2 SWAP1 SWAP2 MSTORE POP PUSH2 0x2254 SWAP3 POP POP POP JUMP JUMPDEST PUSH18 0x10000000000000000000000000000010001 SWAP1 SSTORE POP POP POP POP JUMP JUMPDEST PUSH1 0x40 DUP1 MLOAD PUSH32 0x0 PUSH21 0xFF0000000000000000000000000000000000000000 OR PUSH1 0x0 SWAP1 DUP2 MSTORE PUSH1 0x20 DUP7 SWAP1 MSTORE PUSH32 0x0 DUP4 MSTORE PUSH1 0x55 PUSH1 0xB KECCAK256 SWAP2 SWAP1 SWAP3 MSTORE PUSH20 0xFFFFFFFFFFFFFFFFFFFFFFFFFFFFFFFFFFFFFFFF AND SWAP1 POP PUSH1 0x0 DUP1 PUSH1 0x0 DUP1 MSTORE PUSH1 0x20 PUSH1 0x0 DUP6 DUP8 PUSH1 0x0 DUP8 GAS CALL SWAP2 POP PUSH1 0x0 MLOAD SWAP1 POP DUP2 PUSH2 0x2F45 JUMPI PUSH2 0x2F3C PUSH2 0x453B JUMP JUMPDEST PUSH2 0x2F45 DUP4 PUSH2 0x4582 JUMP JUMPDEST PUSH32 0xFFFFFFFF00000000000000000000000000000000000000000000000000000000 DUP2 AND PUSH32 0x4CE34AA200000000000000000000000000000000000000000000000000000000 EQ PUSH2 0x1843 JUMPI PUSH2 0x1843 DUP7 DUP5 PUSH2 0x4594 JUMP JUMPDEST PUSH4 0x69F95827 PUSH1 0x0 MSTORE DUP1 PUSH1 0x20 MSTORE PUSH1 0x24 PUSH1 0x1C REVERT JUMPDEST DUP4 EXTCODESIZE PUSH2 0x2FC2 JUMPI PUSH4 0x5F15D672 PUSH1 0x0 MSTORE DUP4 PUSH1 0x20 MSTORE PUSH1 0x24 PUSH1 0x1C REVERT JUMPDEST PUSH1 0x40 MLOAD PUSH32 0x23B872DD00000000000000000000000000000000000000000000000000000000 PUSH1 0x0 MSTORE DUP4 PUSH1 0x4 MSTORE DUP3 PUSH1 0x24 MSTORE DUP2 PUSH1 0x44 MSTORE PUSH1 0x0 DUP1 PUSH1 0x64 PUSH1 0x0 DUP1 DUP10 GAS CALL DUP1 PUSH2 0x3071 JUMPI RETURNDATASIZE ISZERO PUSH2 0x304E JUMPI PUSH1 0x1F RETURNDATASIZE ADD PUSH1 0x5 SHR DUP3 PUSH1 0x5 SHR DUP2 PUSH1 0x3 MUL DUP2 DUP4 GT ISZERO PUSH2 0x3035 JUMPI DUP2 DUP4 SUB PUSH1 0x3 MUL DUP3 DUP1 MUL DUP5 DUP1 MUL SUB PUSH1 0x9 SHR ADD ADD JUMPDEST GAS PUSH1 0x20 DUP3 ADD LT ISZERO PUSH2 0x304A JUMPI RETURNDATASIZE PUSH1 0x0 DUP1 RETURNDATACOPY RETURNDATASIZE PUSH1 0x0 REVERT JUMPDEST POP POP POP JUMPDEST PUSH4 0xF486BC87 PUSH1 0x0 MSTORE DUP6 PUSH1 0x20 MSTORE DUP5 PUSH1 0x40 MSTORE DUP4 PUSH1 0x60 MSTORE DUP3 PUSH1 0x80 MSTORE PUSH1 0x1 PUSH1 0xA0 MSTORE PUSH1 0xA4 PUSH1 0x1C REVERT JUMPDEST POP PUSH1 0x40 MSTORE POP POP PUSH1 0x0 PUSH1 0x60 MSTORE POP POP JUMP JUMPDEST DUP5 EXTCODESIZE PUSH2 0x3098 JUMPI PUSH4 0x5F15D672 PUSH1 0x0 MSTORE DUP5 PUSH1 0x20 MSTORE PUSH1 0x24 PUSH1 0x1C REVERT JUMPDEST PUSH1 0x40 MLOAD PUSH1 0x80 MLOAD PUSH1 0xA0 MLOAD PUSH1 0xC0 MLOAD PUSH32 0xF242432A00000000000000000000000000000000000000000000000000000000 PUSH1 0x0 MSTORE DUP8 PUSH1 0x4 MSTORE DUP7 PUSH1 0x24 MSTORE DUP6 PUSH1 0x44 MSTORE DUP5 PUSH1 0x64 MSTORE PUSH1 0xA0 PUSH1 0x84 MSTORE PUSH1 0x0 PUSH1 0xA4 MSTORE PUSH1 0x0 DUP1 PUSH1 0xC4 PUSH1 0x0 DUP1 DUP14 GAS CALL DUP1 PUSH2 0x315D JUMPI RETURNDATASIZE ISZERO PUSH2 0x313B JUMPI PUSH1 0x1F RETURNDATASIZE ADD PUSH1 0x5 SHR DUP6 PUSH1 0x5 SHR DUP2 PUSH1 0x3 MUL DUP2 DUP4 GT ISZERO PUSH2 0x3122 JUMPI DUP2 DUP4 SUB PUSH1 0x3 MUL DUP3 DUP1 MUL DUP5 DUP1 MUL SUB PUSH1 0x9 SHR ADD ADD JUMPDEST GAS PUSH1 0x20 DUP3 ADD LT ISZERO PUSH2 0x3137 JUMPI RETURNDATASIZE PUSH1 0x0 DUP1 RETURNDATACOPY RETURNDATASIZE PUSH1 0x0 REVERT JUMPDEST POP POP POP JUMPDEST PUSH4 0xF486BC87 PUSH1 0x0 MSTORE DUP10 PUSH1 0x20 MSTORE DUP9 PUSH1 0x40 MSTORE DUP8 PUSH1 0x60 MSTORE DUP7 PUSH1 0x80 MSTORE DUP6 PUSH1 0xA0 MSTORE PUSH1 0xA4 PUSH1 0x1C REVERT JUMPDEST POP PUSH1 0x80 SWAP3 SWAP1 SWAP3 MSTORE PUSH1 0xA0 MSTORE PUSH1 0xC0 MSTORE PUSH1 0x40 MSTORE POP POP PUSH1 0x0 PUSH1 0x60 MSTORE POP POP POP JUMP JUMPDEST PUSH4 0x8FFFF980 PUSH1 0x0 MSTORE PUSH1 0x4 PUSH1 0x1C REVERT JUMPDEST PUSH2 0x3190 DUP2 PUSH2 0x3279 JUMP JUMPDEST PUSH1 0x0 DUP1 PUSH1 0x0 DUP1 PUSH1 0x0 DUP6 DUP8 GAS CALL SWAP1 POP DUP1 PUSH2 0x1A96 JUMPI PUSH2 0x31AB PUSH2 0x453B JUMP JUMPDEST PUSH4 0xBC806B96 PUSH1 0x0 MSTORE DUP3 PUSH1 0x20 MSTORE DUP2 PUSH1 0x40 MSTORE PUSH1 0x44 PUSH1 0x1C REVERT JUMPDEST PUSH1 0x0 PUSH2 0x31CE DUP4 PUSH1 0x20 ADD MLOAD SWAP1 JUMP JUMPDEST SWAP1 POP DUP2 DUP2 EQ PUSH2 0x1A96 JUMPI PUSH2 0x1A96 DUP4 PUSH2 0x1A0B JUMP JUMPDEST PUSH1 0x0 PUSH1 0x20 DUP9 MLOAD SUB PUSH2 0x3234 JUMPI POP PUSH1 0x40 DUP1 DUP9 MSTORE PUSH1 0x20 DUP1 DUP10 ADD DUP11 SWAP1 MSTORE PUSH32 0x4CE34AA200000000000000000000000000000000000000000000000000000000 SWAP2 DUP10 ADD SWAP2 SWAP1 SWAP2 MSTORE PUSH1 0x44 DUP9 ADD MSTORE PUSH1 0x1 PUSH1 0x64 DUP9 ADD DUP2 SWAP1 MSTORE PUSH2 0x3243 JUMP JUMPDEST POP PUSH1 0x64 DUP8 ADD DUP1 MLOAD PUSH1 0x1 ADD SWAP1 DUP2 SWAP1 MSTORE JUMPDEST PUSH1 0x3C PUSH1 0xC0 DUP3 MUL DUP10 ADD SUB DUP8 DUP2 MSTORE DUP7 PUSH1 0x20 DUP3 ADD MSTORE DUP6 PUSH1 0x40 DUP3 ADD MSTORE DUP5 PUSH1 0x60 DUP3 ADD MSTORE DUP4 PUSH1 0x80 DUP3 ADD MSTORE DUP3 PUSH1 0xA0 DUP3 ADD MSTORE POP POP POP POP POP POP POP POP POP POP JUMP JUMPDEST DUP1 PUSH2 0x2E04 JUMPI PUSH4 0x91B3E514 PUSH1 0x0 MSTORE PUSH1 0x4 PUSH1 0x1C REVERT JUMPDEST PUSH4 0x6AB37CE7 PUSH1 0x0 MSTORE PUSH1 0x4 PUSH1 0x1C REVERT JUMPDEST PUSH2 0x32A3 DUP4 PUSH2 0x3279 JUMP JUMPDEST PUSH2 0x32AD DUP2 DUP4 PUSH2 0x31C1 JUMP JUMPDEST DUP2 PUSH2 0x32BE JUMPI PUSH2 0x1831 DUP7 DUP7 DUP7 DUP7 PUSH2 0x45AA JUMP JUMPDEST PUSH2 0x1843 DUP3 DUP3 PUSH1 0x1 DUP10 DUP10 DUP10 PUSH1 0x0 DUP11 PUSH2 0x31E0 JUMP JUMPDEST PUSH1 0x64 DUP2 ADD MLOAD PUSH1 0x40 DUP3 ADD SWAP1 PUSH1 0xC0 MUL PUSH1 0x44 ADD PUSH2 0x32EB DUP5 DUP4 DUP4 PUSH2 0x2E8C JUMP JUMPDEST POP POP PUSH1 0x20 SWAP1 MSTORE POP JUMP JUMPDEST PUSH1 0x0 DUP1 PUSH2 0x32FF PUSH2 0x46C2 JUMP JUMPDEST PUSH4 0x17B1F942 DUP2 MSTORE PUSH1 0x20 DUP1 DUP3 ADD MSTORE PUSH1 0x40 DUP2 ADD DUP6 DUP2 MSTORE CALLER PUSH1 0x60 DUP4 ADD MSTORE PUSH1 0x1C SWAP1 SWAP2 ADD SWAP3 POP PUSH2 0x3333 PUSH2 0xA89 PUSH1 0x80 DUP7 ADD PUSH1 0x60 DUP8 ADD PUSH2 0x5755 JUMP JUMPDEST PUSH2 0x3344 PUSH2 0x144 PUSH1 0xE0 DUP4 ADD PUSH1 0x60 PUSH2 0x1AAD JUMP JUMPDEST PUSH2 0x140 PUSH2 0x3352 DUP2 PUSH1 0x60 DUP5 ADD MSTORE JUMP JUMPDEST PUSH2 0x3360 PUSH1 0xA0 DUP3 ADD PUSH1 0x80 DUP5 ADD MSTORE JUMP JUMPDEST PUSH2 0x264 CALLDATALOAD PUSH1 0x20 DUP2 MUL PUSH2 0x200 ADD PUSH1 0xA0 DUP3 MUL PUSH2 0x160 ADD PUSH2 0x3381 DUP3 DUP6 DUP8 ADD DUP4 PUSH2 0x46CD JUMP JUMPDEST SWAP3 SWAP1 SWAP3 ADD SWAP2 POP PUSH2 0x3394 SWAP1 POP DUP2 PUSH1 0xA0 DUP5 ADD MSTORE JUMP JUMPDEST PUSH2 0x339F PUSH1 0x0 DUP3 DUP5 ADD MSTORE JUMP JUMPDEST PUSH1 0x20 ADD PUSH2 0x33AD DUP2 PUSH1 0xC0 DUP5 ADD MSTORE JUMP JUMPDEST PUSH2 0x33B8 PUSH1 0x1 DUP3 DUP5 ADD MSTORE JUMP JUMPDEST PUSH2 0x33C5 DUP7 DUP3 DUP5 ADD PUSH1 0x20 ADD MSTORE JUMP JUMPDEST DUP1 PUSH1 0x64 ADD SWAP3 POP POP POP SWAP3 POP SWAP3 SWAP1 POP JUMP JUMPDEST PUSH1 0x0 DUP1 PUSH32 0xFFFFFFFF00000000000000000000000000000000000000000000000000000000 DUP6 MLOAD AND PUSH1 0x0 DUP1 MSTORE PUSH1 0x20 PUSH1 0x0 DUP7 DUP9 PUSH1 0x0 DUP13 GAS CALL PUSH1 0x0 MLOAD SWAP1 SWAP4 POP EQ SWAP1 POP DUP2 PUSH2 0x342E JUMPI PUSH2 0x3420 PUSH2 0x453B JUMP JUMPDEST DUP3 PUSH1 0x0 MSTORE DUP6 PUSH1 0x20 MSTORE PUSH1 0x24 PUSH1 0x1C REVERT JUMPDEST DUP1 PUSH2 0x190E JUMPI DUP3 PUSH1 0x0 MSTORE DUP6 PUSH1 0x20 MSTORE PUSH1 0x24 PUSH1 0x1C REVERT JUMPDEST PUSH4 0x7FA8A987 PUSH1 0x0 MSTORE PUSH1 0x4 PUSH1 0x1C REVERT JUMPDEST PUSH1 0x0 DUP1 PUSH4 0xFFFFFFFF DUP4 CALLDATALOAD AND SWAP1 POP PUSH1 0x1 DUP2 ADD PUSH1 0x5 SHL PUSH2 0x3473 DUP2 PUSH1 0x40 DUP1 MLOAD SWAP2 DUP3 ADD SWAP1 MSTORE SWAP1 JUMP JUMPDEST SWAP3 POP PUSH2 0x3480 DUP5 DUP5 DUP4 PUSH2 0x1AAD JUMP JUMPDEST POP POP SWAP2 SWAP1 POP JUMP JUMPDEST PUSH1 0x0 DUP3 DUP5 SUB PUSH2 0x3497 JUMPI POP DUP1 PUSH2 0x400 JUMP JUMPDEST DUP3 DUP5 DUP4 MULMOD ISZERO PUSH2 0x34AE JUMPI PUSH4 0xC63CF089 PUSH1 0x0 MSTORE PUSH1 0x4 PUSH1 0x1C REVERT JUMPDEST PUSH1 0x0 PUSH2 0x34BA DUP6 DUP5 PUSH2 0x5E61 JUMP JUMPDEST SWAP4 SWAP1 SWAP4 DIV SWAP5 SWAP4 POP POP POP POP JUMP JUMPDEST PUSH1 0x0 DUP5 DUP7 EQ PUSH2 0x3511 JUMPI DUP4 DUP4 SUB TIMESTAMP DUP6 SWAP1 SUB DUP1 DUP3 SUB PUSH1 0x0 PUSH2 0x34E5 DUP4 DUP11 PUSH2 0x5E61 JUMP JUMPDEST PUSH2 0x34EF DUP4 DUP13 PUSH2 0x5E61 JUMP JUMPDEST PUSH2 0x34F9 SWAP2 SWAP1 PUSH2 0x5D6C JUMP JUMPDEST SWAP1 POP DUP6 DUP5 DUP8 DUP4 SUB DIV ADD DUP2 ISZERO ISZERO MUL SWAP5 POP POP POP POP POP PUSH2 0x2518 JUMP JUMPDEST POP SWAP3 SWAP5 SWAP4 POP POP POP POP JUMP JUMPDEST PUSH4 0x12D3F5A3 PUSH1 0x0 MSTORE PUSH1 0x4 PUSH1 0x1C REVERT JUMPDEST PUSH1 0x40 DUP1 MLOAD PUSH2 0x100 DUP2 ADD DUP3 MSTORE PUSH1 0x0 PUSH1 0x60 DUP3 ADD DUP2 DUP2 MSTORE PUSH1 0x80 DUP4 ADD DUP3 SWAP1 MSTORE PUSH1 0xA0 DUP4 ADD DUP3 SWAP1 MSTORE PUSH1 0xC0 DUP4 ADD DUP3 SWAP1 MSTORE PUSH1 0xE0 DUP4 ADD DUP3 SWAP1 MSTORE DUP3 MSTORE PUSH1 0x20 DUP3 ADD DUP2 SWAP1 MSTORE SWAP2 DUP2 ADD SWAP2 SWAP1 SWAP2 MSTORE DUP4 MLOAD PUSH1 0x0 SUB PUSH2 0x357B JUMPI PUSH2 0x357B DUP6 PUSH2 0x46E4 JUMP JUMPDEST DUP1 MLOAD PUSH1 0x0 DUP7 PUSH1 0x1 DUP2 GT ISZERO PUSH2 0x3591 JUMPI PUSH2 0x3591 PUSH2 0x5545 JUMP JUMPDEST SUB PUSH2 0x35C2 JUMPI PUSH20 0xFFFFFFFFFFFFFFFFFFFFFFFFFFFFFFFFFFFFFFFF DUP4 AND PUSH1 0x80 DUP3 ADD MSTORE PUSH2 0x35BD DUP8 DUP7 DUP5 PUSH2 0x46F6 JUMP JUMPDEST PUSH2 0x35DB JUMP JUMPDEST PUSH2 0x35CD DUP8 DUP7 DUP5 PUSH2 0x4861 JUMP JUMPDEST CALLER PUSH1 0x20 DUP4 ADD MSTORE PUSH1 0x40 DUP3 ADD DUP5 SWAP1 MSTORE JUMPDEST DUP1 PUSH1 0x60 ADD MLOAD PUSH1 0x0 SUB PUSH2 0x35FA JUMPI PUSH1 0x0 PUSH1 0x20 DUP4 ADD DUP2 SWAP1 MSTORE PUSH1 0x80 DUP3 ADD MSTORE PUSH1 0x1 DUP2 MSTORE JUMPDEST POP SWAP6 SWAP5 POP POP POP POP POP JUMP JUMPDEST PUSH4 0xD5DA9A1B PUSH1 0x0 MSTORE PUSH1 0x4 PUSH1 0x1C REVERT JUMPDEST DUP5 MLOAD PUSH1 0x60 SWAP1 PUSH1 0x0 DUP2 PUSH8 0xFFFFFFFFFFFFFFFF DUP2 GT ISZERO PUSH2 0x3632 JUMPI PUSH2 0x3632 PUSH2 0x59E2 JUMP JUMPDEST PUSH1 0x40 MLOAD SWAP1 DUP1 DUP3 MSTORE DUP1 PUSH1 0x20 MUL PUSH1 0x20 ADD DUP3 ADD PUSH1 0x40 MSTORE DUP1 ISZERO PUSH2 0x365B JUMPI DUP2 PUSH1 0x20 ADD PUSH1 0x20 DUP3 MUL DUP1 CALLDATASIZE DUP4 CALLDATACOPY ADD SWAP1 POP JUMPDEST POP PUSH1 0x40 DUP1 MLOAD PUSH1 0x20 DUP1 DUP3 MSTORE DUP2 DUP4 ADD SWAP1 SWAP3 MSTORE SWAP2 SWAP3 POP PUSH1 0x0 SWAP2 SWAP1 PUSH1 0x20 DUP3 ADD DUP2 DUP1 CALLDATASIZE DUP4 CALLDATACOPY ADD SWAP1 POP POP DUP9 MLOAD SWAP1 SWAP2 POP PUSH1 0x0 SWAP1 DUP2 JUMPDEST DUP2 DUP2 LT ISZERO PUSH2 0x3704 JUMPI PUSH1 0x0 DUP12 DUP3 DUP2 MLOAD DUP2 LT PUSH2 0x36A5 JUMPI PUSH2 0x36A5 PUSH2 0x5A11 JUMP JUMPDEST PUSH1 0x20 SWAP1 DUP2 MUL SWAP2 SWAP1 SWAP2 ADD ADD MLOAD DUP1 MLOAD SWAP1 SWAP2 POP PUSH1 0x0 DUP2 MLOAD PUSH1 0x5 DUP2 GT ISZERO PUSH2 0x36CA JUMPI PUSH2 0x36CA PUSH2 0x5545 JUMP JUMPDEST SUB PUSH2 0x36E6 JUMPI SELFBALANCE SWAP5 POP DUP5 DUP2 PUSH1 0x60 ADD MLOAD GT ISZERO PUSH2 0x36E6 JUMPI PUSH2 0x36E6 PUSH2 0x3179 JUMP JUMPDEST PUSH2 0x36FA DUP2 DUP4 PUSH1 0x20 ADD MLOAD DUP5 PUSH1 0x40 ADD MLOAD DUP10 PUSH2 0x4231 JUMP JUMPDEST POP POP PUSH1 0x1 ADD PUSH2 0x3689 JUMP JUMPDEST POP POP POP PUSH1 0x0 JUMPDEST DUP4 DUP2 LT ISZERO PUSH2 0x3884 JUMPI PUSH1 0x0 DUP11 DUP3 DUP2 MLOAD DUP2 LT PUSH2 0x3726 JUMPI PUSH2 0x3726 PUSH2 0x5A11 JUMP JUMPDEST PUSH1 0x20 MUL PUSH1 0x20 ADD ADD MLOAD SWAP1 POP DUP1 PUSH1 0x20 ADD MLOAD PUSH15 0xFFFFFFFFFFFFFFFFFFFFFFFFFFFFFF AND PUSH1 0x0 SUB PUSH2 0x3777 JUMPI PUSH1 0x0 DUP5 DUP4 DUP2 MLOAD DUP2 LT PUSH2 0x3761 JUMPI PUSH2 0x3761 PUSH2 0x5A11 JUMP JUMPDEST SWAP2 ISZERO ISZERO PUSH1 0x20 SWAP3 DUP4 MUL SWAP2 SWAP1 SWAP2 ADD SWAP1 SWAP2 ADD MSTORE POP PUSH2 0x387C JUMP JUMPDEST PUSH1 0x1 DUP5 DUP4 DUP2 MLOAD DUP2 LT PUSH2 0x378B JUMPI PUSH2 0x378B PUSH2 0x5A11 JUMP JUMPDEST SWAP2 ISZERO ISZERO PUSH1 0x20 SWAP3 DUP4 MUL SWAP2 SWAP1 SWAP2 ADD SWAP1 SWAP2 ADD MSTORE DUP1 MLOAD PUSH1 0x40 DUP2 ADD MLOAD DUP1 MLOAD PUSH1 0x0 JUMPDEST DUP2 DUP2 LT ISZERO PUSH2 0x3813 JUMPI PUSH1 0x0 DUP4 DUP3 DUP2 MLOAD DUP2 LT PUSH2 0x37C3 JUMPI PUSH2 0x37C3 PUSH2 0x5A11 JUMP JUMPDEST PUSH1 0x20 MUL PUSH1 0x20 ADD ADD MLOAD SWAP1 POP DUP1 PUSH1 0x60 ADD MLOAD PUSH1 0x0 EQ PUSH2 0x3800 JUMPI PUSH1 0x80 DUP2 ADD DUP1 MLOAD SWAP1 DUP15 SWAP1 MSTORE DUP6 MLOAD PUSH2 0x120 DUP8 ADD MLOAD PUSH2 0x37FA SWAP2 DUP5 SWAP2 DUP13 PUSH2 0x4231 PUSH2 0x3E9 JUMP JUMPDEST PUSH1 0x80 DUP3 ADD MSTORE JUMPDEST PUSH1 0x80 DUP2 ADD MLOAD PUSH1 0x60 SWAP1 SWAP2 ADD MSTORE PUSH1 0x1 ADD PUSH2 0x37A7 JUMP JUMPDEST POP POP POP PUSH1 0x60 DUP2 ADD MLOAD DUP1 MLOAD PUSH1 0x0 JUMPDEST DUP2 DUP2 LT ISZERO PUSH2 0x3876 JUMPI PUSH1 0x0 DUP4 DUP3 DUP2 MLOAD DUP2 LT PUSH2 0x383C JUMPI PUSH2 0x383C PUSH2 0x5A11 JUMP JUMPDEST PUSH1 0x20 MUL PUSH1 0x20 ADD ADD MLOAD SWAP1 POP PUSH1 0x0 DUP2 PUSH1 0x60 ADD MLOAD SWAP1 POP DUP1 PUSH1 0x0 EQ PUSH2 0x3862 JUMPI PUSH2 0x3862 DUP9 DUP5 DUP4 PUSH2 0x4982 JUMP JUMPDEST POP PUSH1 0xA0 DUP2 ADD MLOAD PUSH1 0x60 SWAP1 SWAP2 ADD MSTORE PUSH1 0x1 ADD PUSH2 0x3820 JUMP JUMPDEST POP POP POP POP POP JUMPDEST PUSH1 0x1 ADD PUSH2 0x370A JUMP JUMPDEST POP PUSH2 0x388E DUP2 PUSH2 0x1A0B JUMP JUMPDEST SELFBALANCE DUP1 ISZERO PUSH2 0x389F JUMPI PUSH2 0x389F CALLER DUP3 PUSH2 0x3187 JUMP JUMPDEST DUP6 ISZERO PUSH2 0x3916 JUMPI PUSH1 0x0 JUMPDEST DUP5 DUP2 LT ISZERO PUSH2 0x3914 JUMPI DUP4 DUP2 DUP2 MLOAD DUP2 LT PUSH2 0x38C2 JUMPI PUSH2 0x38C2 PUSH2 0x5A11 JUMP JUMPDEST PUSH1 0x20 MUL PUSH1 0x20 ADD ADD MLOAD ISZERO PUSH2 0x390C JUMPI PUSH2 0x390C DUP12 DUP3 DUP2 MLOAD DUP2 LT PUSH2 0x38E4 JUMPI PUSH2 0x38E4 PUSH2 0x5A11 JUMP JUMPDEST PUSH1 0x20 MUL PUSH1 0x20 ADD ADD MLOAD DUP11 DUP12 DUP5 DUP2 MLOAD DUP2 LT PUSH2 0x38FF JUMPI PUSH2 0x38FF PUSH2 0x5A11 JUMP JUMPDEST PUSH1 0x20 MUL PUSH1 0x20 ADD ADD MLOAD PUSH2 0x2B8F JUMP JUMPDEST PUSH1 0x1 ADD PUSH2 0x38A8 JUMP JUMPDEST POP JUMPDEST PUSH2 0x3920 PUSH1 0x1 PUSH1 0x0 SSTORE JUMP JUMPDEST POP SWAP1 SWAP9 SWAP8 POP POP POP POP POP POP POP POP JUMP JUMPDEST PUSH1 0x0 PUSH2 0x3942 PUSH2 0x160 PUSH1 0x40 DUP1 MLOAD SWAP2 DUP3 ADD SWAP1 MSTORE SWAP1 JUMP JUMPDEST SWAP1 POP PUSH2 0x1B8C DUP3 DUP3 PUSH2 0x2521 JUMP JUMPDEST DUP1 DUP3 LT ISZERO PUSH2 0x1A30 JUMPI PUSH2 0x1A30 PUSH2 0x499C JUMP JUMPDEST PUSH4 0x1A515574 PUSH1 0x0 MSTORE DUP1 PUSH1 0x20 MSTORE PUSH1 0x24 PUSH1 0x1C REVERT JUMPDEST PUSH4 0xEE9E0E63 PUSH1 0x0 MSTORE DUP1 PUSH1 0x20 MSTORE PUSH1 0x24 PUSH1 0x1C REVERT JUMPDEST PUSH4 0x10FDA3E1 PUSH1 0x0 MSTORE DUP1 PUSH1 0x20 MSTORE PUSH1 0x24 PUSH1 0x1C REVERT JUMPDEST PUSH1 0x0 DUP1 PUSH1 0x0 DUP5 MLOAD PUSH1 0x1 DUP2 AND PUSH1 0x41 SUB DUP1 DUP3 SUB PUSH1 0x5 SHR SWAP3 POP DUP1 DUP8 MSTORE DUP1 PUSH1 0x20 ADD DUP8 ADD SWAP2 POP POP DUP1 MLOAD PUSH1 0xE8 SHR PUSH1 0x3 DUP3 ADD SWAP2 POP PUSH1 0x1 DUP2 AND PUSH1 0x5 SHL DUP7 DUP2 MSTORE DUP3 MLOAD PUSH1 0x20 DUP3 XOR MSTORE POP PUSH1 0x1 JUMPDEST DUP4 DUP2 LT ISZERO PUSH2 0x3A03 JUMPI PUSH1 0x40 PUSH1 0x0 KECCAK256 DUP3 DUP3 SHR PUSH1 0x5 SHL PUSH1 0x20 SWAP1 DUP2 AND SWAP2 DUP3 MSTORE SWAP4 DUP5 ADD DUP1 MLOAD SWAP2 SWAP1 SWAP5 XOR MSTORE PUSH1 0x1 ADD PUSH2 0x39D6 JUMP JUMPDEST POP POP POP PUSH1 0x40 PUSH1 0x0 KECCAK256 SWAP2 POP PUSH1 0x0 PUSH2 0x3A18 DUP3 PUSH2 0x49AA JUMP JUMPDEST PUSH1 0x0 SWAP1 DUP2 MSTORE PUSH1 0x20 SWAP4 SWAP1 SWAP4 MSTORE POP POP PUSH1 0x40 SWAP1 KECCAK256 SWAP4 SWAP3 POP POP POP JUMP JUMPDEST PUSH1 0x0 DUP1 PUSH1 0x0 MSTORE DUP2 MLOAD PUSH1 0x20 DUP4 SUB DUP1 MLOAD DUP3 PUSH1 0x41 SUB PUSH1 0x0 PUSH1 0x1 DUP3 GT PUSH2 0x3AB2 JUMPI PUSH1 0x40 DUP8 ADD MLOAD PUSH1 0x60 DUP9 ADD MLOAD PUSH1 0x0 BYTE DUP4 ISZERO PUSH2 0x3A91 JUMPI PUSH1 0x1B DUP3 PUSH1 0xFF SHR ADD SWAP1 POP PUSH32 0x7FFFFFFFFFFFFFFFFFFFFFFFFFFFFFFFFFFFFFFFFFFFFFFFFFFFFFFFFFFFFFFF DUP3 AND PUSH1 0x40 DUP11 ADD MSTORE JUMPDEST DUP9 MSTORE DUP11 DUP6 MSTORE PUSH1 0x20 PUSH1 0x0 PUSH1 0x80 DUP8 PUSH1 0x1 GAS STATICCALL POP DUP4 DUP6 MSTORE DUP6 DUP9 MSTORE PUSH1 0x40 DUP9 ADD MSTORE POP PUSH1 0x0 MLOAD JUMPDEST DUP11 EQ DUP11 ISZERO ISZERO AND SWAP5 POP DUP5 SWAP1 POP PUSH2 0x3BD3 JUMPI DUP6 DUP6 MSTORE PUSH1 0x40 DUP3 MSTORE PUSH1 0x44 DUP6 SUB DUP1 MLOAD PUSH1 0x40 DUP8 SUB MLOAD PUSH32 0x1626BA7E00000000000000000000000000000000000000000000000000000000 DUP4 MSTORE DUP10 PUSH1 0x40 DUP10 SUB MSTORE PUSH1 0x20 PUSH1 0x0 PUSH1 0x64 DUP12 ADD DUP6 DUP16 GAS STATICCALL SWAP7 POP DUP7 ISZERO PUSH2 0x3BA9 JUMPI PUSH32 0x1626BA7E00000000000000000000000000000000000000000000000000000000 PUSH1 0x0 MLOAD EQ PUSH2 0x3BA9 JUMPI DUP12 EXTCODESIZE ISZERO PUSH2 0x3B4E JUMPI PUSH4 0x4F7FB80D PUSH1 0x0 MSTORE PUSH1 0x4 PUSH1 0x1C REVERT JUMPDEST PUSH1 0x1 DUP7 PUSH1 0x41 SUB GT ISZERO PUSH2 0x3B68 JUMPI PUSH4 0x8BAA579F PUSH1 0x0 MSTORE PUSH1 0x4 PUSH1 0x1C REVERT JUMPDEST PUSH5 0x101000000 PUSH1 0x60 DUP10 ADD MLOAD PUSH1 0x0 BYTE BYTE ISZERO PUSH1 0x41 DUP8 EQ AND ISZERO PUSH2 0x3B9B JUMPI PUSH4 0x1F003D0A PUSH1 0x0 MSTORE PUSH1 0x60 DUP9 ADD MLOAD PUSH1 0x0 BYTE PUSH1 0x20 MSTORE PUSH1 0x24 PUSH1 0x1C REVERT JUMPDEST PUSH4 0x815E1D64 PUSH1 0x0 MSTORE PUSH1 0x4 PUSH1 0x1C REVERT JUMPDEST DUP4 DUP6 MSTORE SWAP2 MSTORE PUSH32 0xFFFFFFFFFFFFFFFFFFFFFFFFFFFFFFFFFFFFFFFFFFFFFFFFFFFFFFFFFFFFFFC0 DUP7 ADD MSTORE JUMPDEST POP POP POP DUP1 PUSH2 0x1843 JUMPI PUSH2 0x3BE3 PUSH2 0x453B JUMP JUMPDEST PUSH4 0x4F7FB80D PUSH1 0x0 MSTORE PUSH1 0x4 PUSH1 0x1C REVERT JUMPDEST PUSH1 0x40 DUP1 MLOAD PUSH2 0x100 DUP2 ADD DUP3 MSTORE PUSH1 0x0 PUSH1 0x60 DUP3 ADD DUP2 DUP2 MSTORE PUSH1 0x80 DUP4 ADD DUP3 SWAP1 MSTORE PUSH1 0xA0 DUP4 ADD DUP3 SWAP1 MSTORE PUSH1 0xC0 DUP4 ADD DUP3 SWAP1 MSTORE PUSH1 0xE0 DUP4 ADD DUP3 SWAP1 MSTORE DUP3 MSTORE PUSH1 0x20 DUP3 ADD DUP2 SWAP1 MSTORE SWAP2 DUP2 ADD SWAP2 SWAP1 SWAP2 MSTORE DUP4 MLOAD ISZERO DUP1 PUSH2 0x3C3E JUMPI POP DUP3 MLOAD ISZERO JUMPDEST ISZERO PUSH2 0x3C4B JUMPI PUSH2 0x3C4B PUSH2 0x4DBB JUMP JUMPDEST PUSH1 0x40 DUP1 MLOAD PUSH2 0x100 DUP2 ADD DUP3 MSTORE PUSH1 0x0 PUSH1 0x60 DUP3 ADD DUP2 DUP2 MSTORE PUSH1 0x80 DUP4 ADD DUP3 SWAP1 MSTORE PUSH1 0xA0 DUP4 ADD DUP3 SWAP1 MSTORE PUSH1 0xC0 DUP4 ADD DUP3 SWAP1 MSTORE PUSH1 0xE0 DUP4 ADD DUP3 SWAP1 MSTORE DUP3 MSTORE PUSH1 0x20 DUP3 ADD DUP2 SWAP1 MSTORE SWAP2 DUP2 ADD SWAP2 SWAP1 SWAP2 MSTORE PUSH2 0x3C96 DUP7 DUP6 DUP4 PUSH2 0x4861 JUMP JUMPDEST DUP1 MLOAD PUSH1 0x60 DUP2 ADD MLOAD PUSH1 0x0 SUB PUSH2 0x3CC1 JUMPI POP PUSH1 0x0 PUSH1 0x20 DUP3 ADD DUP2 SWAP1 MSTORE DUP2 MLOAD PUSH1 0x80 ADD MSTORE DUP1 MLOAD PUSH1 0x1 SWAP1 MSTORE SWAP1 POP PUSH2 0x536 JUMP JUMPDEST PUSH2 0x3CCC DUP8 DUP8 DUP6 PUSH2 0x46F6 JUMP JUMPDEST DUP1 PUSH1 0x40 ADD MLOAD DUP4 PUSH1 0x0 ADD MLOAD PUSH1 0x40 ADD MLOAD XOR DUP2 PUSH1 0x20 ADD MLOAD DUP5 PUSH1 0x0 ADD MLOAD PUSH1 0x20 ADD MLOAD XOR DUP3 PUSH1 0x0 ADD MLOAD PUSH1 0x5 DUP2 GT ISZERO PUSH2 0x3D00 JUMPI PUSH2 0x3D00 PUSH2 0x5545 JUMP JUMPDEST DUP6 MLOAD MLOAD PUSH1 0x5 DUP2 GT ISZERO PUSH2 0x3D14 JUMPI PUSH2 0x3D14 PUSH2 0x5545 JUMP JUMPDEST XOR PUSH1 0xFF AND OR PUSH20 0xFFFFFFFFFFFFFFFFFFFFFFFFFFFFFFFFFFFFFFFF AND OR PUSH1 0x0 EQ PUSH2 0x3D40 JUMPI PUSH2 0x3D40 DUP5 PUSH2 0x4DC9 JUMP JUMPDEST DUP3 PUSH1 0x0 ADD MLOAD PUSH1 0x60 ADD MLOAD DUP2 PUSH1 0x60 ADD MLOAD GT ISZERO PUSH2 0x3DD3 JUMPI PUSH1 0x0 DUP6 PUSH1 0x0 DUP2 MLOAD DUP2 LT PUSH2 0x3D69 JUMPI PUSH2 0x3D69 PUSH2 0x5A11 JUMP JUMPDEST PUSH1 0x20 MUL PUSH1 0x20 ADD ADD MLOAD SWAP1 POP DUP4 PUSH1 0x0 ADD MLOAD PUSH1 0x60 ADD MLOAD DUP3 PUSH1 0x60 ADD MLOAD SUB DUP9 DUP3 PUSH1 0x0 ADD MLOAD DUP2 MLOAD DUP2 LT PUSH2 0x3D98 JUMPI PUSH2 0x3D98 PUSH2 0x5A11 JUMP JUMPDEST PUSH1 0x20 MUL PUSH1 0x20 ADD ADD MLOAD PUSH1 0x0 ADD MLOAD PUSH1 0x60 ADD MLOAD DUP3 PUSH1 0x20 ADD MLOAD DUP2 MLOAD DUP2 LT PUSH2 0x3DBD JUMPI PUSH2 0x3DBD PUSH2 0x5A11 JUMP JUMPDEST PUSH1 0x20 MUL PUSH1 0x20 ADD ADD MLOAD PUSH1 0x60 ADD DUP2 DUP2 MSTORE POP POP POP PUSH2 0x3E60 JUMP JUMPDEST PUSH1 0x0 DUP7 PUSH1 0x0 DUP2 MLOAD DUP2 LT PUSH2 0x3DE8 JUMPI PUSH2 0x3DE8 PUSH2 0x5A11 JUMP JUMPDEST PUSH1 0x20 MUL PUSH1 0x20 ADD ADD MLOAD SWAP1 POP DUP2 PUSH1 0x60 ADD MLOAD DUP5 PUSH1 0x0 ADD MLOAD PUSH1 0x60 ADD MLOAD SUB DUP9 DUP3 PUSH1 0x0 ADD MLOAD DUP2 MLOAD DUP2 LT PUSH2 0x3E17 JUMPI PUSH2 0x3E17 PUSH2 0x5A11 JUMP JUMPDEST PUSH1 0x20 MUL PUSH1 0x20 ADD ADD MLOAD PUSH1 0x0 ADD MLOAD PUSH1 0x40 ADD MLOAD DUP3 PUSH1 0x20 ADD MLOAD DUP2 MLOAD DUP2 LT PUSH2 0x3E3C JUMPI PUSH2 0x3E3C PUSH2 0x5A11 JUMP JUMPDEST PUSH1 0x20 MUL PUSH1 0x20 ADD ADD MLOAD PUSH1 0x60 ADD DUP2 DUP2 MSTORE POP POP DUP2 PUSH1 0x60 ADD MLOAD DUP5 PUSH1 0x0 ADD MLOAD PUSH1 0x60 ADD DUP2 DUP2 MSTORE POP POP POP JUMPDEST PUSH1 0x80 SWAP1 DUP2 ADD MLOAD DUP4 MLOAD PUSH20 0xFFFFFFFFFFFFFFFFFFFFFFFFFFFFFFFFFFFFFFFF SWAP1 SWAP2 AND SWAP2 ADD MSTORE POP SWAP5 SWAP4 POP POP POP POP JUMP JUMPDEST TIMESTAMP DUP1 DUP5 GT ISZERO SWAP1 DUP4 GT AND DUP2 DUP1 ISZERO PUSH2 0x3EA0 JUMPI POP DUP1 ISZERO JUMPDEST ISZERO PUSH2 0x400 JUMPI PUSH2 0x400 DUP5 DUP5 PUSH2 0x4DDB JUMP JUMPDEST PUSH4 0x5A052B32 PUSH1 0x0 MSTORE PUSH1 0x4 PUSH1 0x1C REVERT JUMPDEST PUSH1 0x0 DUP1 PUSH1 0x0 DUP6 PUSH2 0x140 ADD MLOAD DUP7 PUSH1 0x60 ADD MLOAD MLOAD EQ PUSH2 0x3EDB JUMPI PUSH2 0x3EDB PUSH2 0x2246 JUMP JUMPDEST DUP6 MLOAD PUSH1 0x0 DUP1 DUP1 PUSH2 0x3EEB DUP11 DUP11 PUSH2 0x4DF1 JUMP JUMPDEST SWAP2 POP SWAP2 POP PUSH1 0x0 DUP1 DUP3 DUP5 PUSH1 0x0 DUP9 GAS CALL PUSH20 0xFFFFFFFFFFFFFFFFFFFFFFFFFFFFFFFFFFFFFFFF DUP6 AND PUSH1 0x0 SWAP1 DUP2 MSTORE PUSH1 0x3 PUSH1 0x20 MSTORE PUSH1 0x40 SWAP1 KECCAK256 DUP1 SLOAD PUSH1 0x1 DUP2 ADD SWAP1 SWAP2 SSTORE PUSH1 0x60 DUP7 SWAP1 SHL XOR SWAP8 POP SWAP3 POP DUP3 PUSH2 0x3F4F JUMPI PUSH2 0x3F40 DUP9 DUP9 PUSH2 0x4EA1 JUMP JUMPDEST SWAP7 POP SWAP7 POP SWAP7 POP POP POP POP POP PUSH2 0x40DE JUMP JUMPDEST POP POP POP POP PUSH1 0x0 DUP1 PUSH1 0x0 PUSH2 0x3F64 PUSH2 0x3E9 PUSH2 0x4EC3 SWAP1 JUMP JUMPDEST SWAP3 POP SWAP3 POP SWAP3 POP DUP3 PUSH1 0x0 EQ PUSH2 0x3F7B JUMPI PUSH2 0x3F7B DUP7 PUSH2 0x5007 JUMP JUMPDEST PUSH1 0x40 DUP10 ADD MLOAD MLOAD DUP3 MLOAD DUP1 DUP3 GT ISZERO PUSH2 0x3F94 JUMPI PUSH2 0x3F94 DUP9 PUSH2 0x5007 JUMP JUMPDEST PUSH1 0x0 JUMPDEST DUP3 DUP2 LT ISZERO PUSH2 0x4015 JUMPI PUSH1 0x0 PUSH2 0x3FC5 DUP14 PUSH1 0x40 ADD MLOAD DUP4 DUP2 MLOAD DUP2 LT PUSH2 0x3FBA JUMPI PUSH2 0x3FBA PUSH2 0x5A11 JUMP JUMPDEST PUSH1 0x20 MUL PUSH1 0x20 ADD ADD MLOAD SWAP1 JUMP JUMPDEST SWAP1 POP PUSH1 0x0 PUSH2 0x3FDE DUP8 DUP5 DUP2 MLOAD DUP2 LT PUSH2 0x3FBA JUMPI PUSH2 0x3FBA PUSH2 0x5A11 JUMP JUMPDEST SWAP1 POP PUSH2 0x3FEA DUP3 DUP3 PUSH2 0x5019 JUMP JUMPDEST PUSH2 0x4005 PUSH2 0x3FF8 PUSH1 0x60 DUP5 ADD MLOAD SWAP1 JUMP JUMPDEST PUSH1 0x60 DUP6 ADD MLOAD GT SWAP1 JUMP JUMPDEST GT SWAP1 JUMP JUMPDEST OR SWAP8 SWAP1 SWAP8 OR SWAP7 POP POP PUSH1 0x1 ADD PUSH2 0x3F97 JUMP JUMPDEST POP POP POP PUSH1 0x40 DUP10 ADD DUP3 SWAP1 MSTORE PUSH1 0x60 DUP10 ADD MLOAD DUP2 MLOAD DUP2 MLOAD DUP2 GT ISZERO PUSH2 0x4038 JUMPI PUSH2 0x4038 DUP9 PUSH2 0x5007 JUMP JUMPDEST PUSH1 0x0 JUMPDEST DUP2 DUP2 LT ISZERO PUSH2 0x40BA JUMPI PUSH1 0x0 PUSH2 0x405A DUP5 DUP4 DUP2 MLOAD DUP2 LT PUSH2 0x3FBA JUMPI PUSH2 0x3FBA PUSH2 0x5A11 JUMP JUMPDEST SWAP1 POP PUSH1 0x0 PUSH2 0x4073 DUP7 DUP5 DUP2 MLOAD DUP2 LT PUSH2 0x3FBA JUMPI PUSH2 0x3FBA PUSH2 0x5A11 JUMP JUMPDEST SWAP1 POP PUSH2 0x4091 PUSH2 0x4083 PUSH1 0xA0 DUP5 ADD MLOAD SWAP1 JUMP JUMPDEST PUSH1 0xA0 DUP4 ADD MLOAD DUP2 ISZERO SWAP2 EQ OR ISZERO SWAP1 JUMP JUMPDEST PUSH2 0x409B DUP4 DUP4 PUSH2 0x5019 JUMP JUMPDEST PUSH2 0x40A9 PUSH2 0x3FF8 PUSH1 0x60 DUP7 ADD MLOAD SWAP1 JUMP JUMPDEST OR OR SWAP8 SWAP1 SWAP8 OR SWAP7 POP POP PUSH1 0x1 ADD PUSH2 0x403B JUMP JUMPDEST POP POP POP PUSH1 0x60 DUP10 ADD DUP2 SWAP1 MSTORE DUP3 ISZERO PUSH2 0x40D3 JUMPI PUSH2 0x40D3 DUP7 PUSH2 0x5007 JUMP JUMPDEST POP PUSH1 0x1 SWAP4 POP DUP4 SWAP3 POP POP POP JUMPDEST SWAP4 POP SWAP4 POP SWAP4 SWAP1 POP JUMP JUMPDEST PUSH4 0xA11B63FF PUSH1 0x0 MSTORE PUSH1 0x4 PUSH1 0x1C REVERT JUMPDEST PUSH4 0x133C37C6 PUSH1 0x0 MSTORE DUP1 PUSH1 0x20 MSTORE PUSH1 0x24 PUSH1 0x1C REVERT JUMPDEST PUSH1 0x0 PUSH2 0x400 DUP3 DUP5 ADD MLOAD SWAP1 JUMP JUMPDEST PUSH1 0x0 DUP4 DUP4 DUP2 MLOAD DUP2 LT PUSH2 0x4127 JUMPI PUSH2 0x4127 PUSH2 0x5A11 JUMP JUMPDEST PUSH1 0x20 MUL PUSH1 0x20 ADD ADD MLOAD SWAP1 POP PUSH1 0x0 DUP2 PUSH1 0x0 ADD MLOAD SWAP1 POP PUSH2 0x4144 DUP2 PUSH1 0x3 LT SWAP1 JUMP JUMPDEST PUSH2 0x4150 JUMPI PUSH2 0x4150 PUSH2 0x5076 JUMP JUMPDEST PUSH1 0x40 DUP3 ADD MLOAD DUP1 ISZERO PUSH2 0x4173 JUMPI PUSH2 0x416E DUP5 PUSH1 0x60 ADD MLOAD DUP3 DUP7 PUSH1 0x80 ADD MLOAD PUSH2 0x5084 JUMP JUMPDEST PUSH2 0x4186 JUMP JUMPDEST PUSH1 0x80 DUP5 ADD MLOAD MLOAD ISZERO PUSH2 0x4186 JUMPI PUSH2 0x4186 PUSH2 0x50D2 JUMP JUMPDEST PUSH1 0x4 DUP3 EQ PUSH1 0x3 SUB DUP4 DUP2 PUSH1 0x5 DUP2 GT ISZERO PUSH2 0x41A0 JUMPI PUSH2 0x41A0 PUSH2 0x5545 JUMP JUMPDEST SWAP1 DUP2 PUSH1 0x5 DUP2 GT ISZERO PUSH2 0x41B3 JUMPI PUSH2 0x41B3 PUSH2 0x5545 JUMP JUMPDEST SWAP1 MSTORE POP POP POP PUSH1 0x60 SWAP1 SWAP3 ADD MLOAD PUSH1 0x40 SWAP1 SWAP2 ADD MSTORE POP POP POP JUMP JUMPDEST PUSH4 0xA8930E9A PUSH1 0x0 MSTORE DUP2 PUSH1 0x20 MSTORE DUP1 PUSH1 0x40 MSTORE PUSH1 0x44 PUSH1 0x1C REVERT JUMPDEST PUSH4 0xD6929332 PUSH1 0x0 MSTORE DUP2 PUSH1 0x20 MSTORE DUP1 PUSH1 0x40 MSTORE PUSH1 0x44 PUSH1 0x1C REVERT JUMPDEST PUSH1 0x0 DUP7 DUP9 SUB PUSH2 0x4210 JUMPI PUSH2 0x4209 DUP7 DUP7 DUP10 PUSH2 0x3487 JUMP JUMPDEST SWAP1 POP PUSH2 0x70B JUMP JUMPDEST PUSH2 0x708 PUSH2 0x421E DUP8 DUP8 DUP12 PUSH2 0x3487 JUMP JUMPDEST PUSH2 0x4229 DUP9 DUP9 DUP12 PUSH2 0x3487 JUMP JUMPDEST DUP7 DUP7 DUP7 PUSH2 0x34C6 JUMP JUMPDEST PUSH1 0x0 DUP5 MLOAD PUSH1 0x5 DUP2 GT ISZERO PUSH2 0x4246 JUMPI PUSH2 0x4246 PUSH2 0x5545 JUMP JUMPDEST SUB PUSH2 0x4290 JUMPI PUSH1 0x40 DUP5 ADD MLOAD PUSH1 0x20 DUP6 ADD MLOAD PUSH20 0xFFFFFFFFFFFFFFFFFFFFFFFFFFFFFFFFFFFFFFFF AND OR ISZERO PUSH2 0x4279 JUMPI PUSH2 0x4279 PUSH2 0x328C JUMP JUMPDEST PUSH2 0x428B DUP5 PUSH1 0x80 ADD MLOAD DUP6 PUSH1 0x60 ADD MLOAD PUSH2 0x3187 JUMP JUMPDEST PUSH2 0x432E JUMP JUMPDEST PUSH1 0x1 DUP5 MLOAD PUSH1 0x5 DUP2 GT ISZERO PUSH2 0x42A5 JUMPI PUSH2 0x42A5 PUSH2 0x5545 JUMP JUMPDEST SUB PUSH2 0x42D6 JUMPI PUSH1 0x40 DUP5 ADD MLOAD ISZERO PUSH2 0x42BC JUMPI PUSH2 0x42BC PUSH2 0x328C JUMP JUMPDEST PUSH2 0x428B DUP5 PUSH1 0x20 ADD MLOAD DUP5 DUP7 PUSH1 0x80 ADD MLOAD DUP8 PUSH1 0x60 ADD MLOAD DUP7 DUP7 PUSH2 0x329A JUMP JUMPDEST PUSH1 0x2 DUP5 MLOAD PUSH1 0x5 DUP2 GT ISZERO PUSH2 0x42EB JUMPI PUSH2 0x42EB PUSH2 0x5545 JUMP JUMPDEST SUB PUSH2 0x430F JUMPI PUSH2 0x428B DUP5 PUSH1 0x20 ADD MLOAD DUP5 DUP7 PUSH1 0x80 ADD MLOAD DUP8 PUSH1 0x40 ADD MLOAD DUP9 PUSH1 0x60 ADD MLOAD DUP8 DUP8 PUSH2 0x18CC JUMP JUMPDEST PUSH2 0x432E DUP5 PUSH1 0x20 ADD MLOAD DUP5 DUP7 PUSH1 0x80 ADD MLOAD DUP8 PUSH1 0x40 ADD MLOAD DUP9 PUSH1 0x60 ADD MLOAD DUP8 DUP8 PUSH2 0x1917 JUMP JUMPDEST POP POP POP POP JUMP JUMPDEST PUSH1 0x0 DUP1 PUSH2 0x433F PUSH2 0x46C2 JUMP JUMPDEST PUSH4 0x17B1F942 DUP2 MSTORE PUSH1 0x20 DUP1 DUP3 ADD MSTORE PUSH1 0x40 DUP2 ADD DUP8 DUP2 MSTORE CALLER PUSH1 0x60 DUP4 ADD MSTORE PUSH1 0x1C SWAP1 SWAP2 ADD SWAP3 POP DUP6 MLOAD PUSH1 0x40 DUP3 ADD MSTORE DUP6 PUSH2 0x437D PUSH2 0x4376 PUSH1 0xA0 DUP4 ADD MLOAD SWAP1 JUMP JUMPDEST PUSH1 0xE0 DUP5 ADD MSTORE JUMP JUMPDEST PUSH2 0x4393 PUSH2 0x438B PUSH1 0xC0 DUP4 ADD MLOAD SWAP1 JUMP JUMPDEST PUSH2 0x100 DUP5 ADD MSTORE JUMP JUMPDEST PUSH2 0x43A9 PUSH2 0x43A1 PUSH1 0xE0 DUP4 ADD MLOAD SWAP1 JUMP JUMPDEST PUSH2 0x120 DUP5 ADD MSTORE JUMP JUMPDEST PUSH2 0x140 PUSH2 0x43B7 DUP2 PUSH1 0x60 DUP6 ADD MSTORE JUMP JUMPDEST PUSH1 0x0 PUSH2 0x43C4 PUSH1 0x40 DUP5 ADD MLOAD SWAP1 JUMP JUMPDEST SWAP1 POP PUSH1 0x0 PUSH2 0x43D4 DUP3 DUP5 DUP8 ADD PUSH2 0x50E0 JUMP JUMPDEST SWAP3 DUP4 ADD SWAP3 SWAP1 POP PUSH2 0x43E5 DUP4 PUSH1 0x80 DUP8 ADD MSTORE JUMP JUMPDEST PUSH1 0x0 PUSH2 0x43F2 PUSH1 0x60 DUP7 ADD MLOAD SWAP1 JUMP JUMPDEST SWAP1 POP PUSH1 0x0 PUSH2 0x4402 DUP3 DUP7 DUP10 ADD PUSH2 0x5147 JUMP JUMPDEST SWAP5 DUP6 ADD SWAP5 SWAP1 POP PUSH2 0x4413 DUP6 PUSH1 0xA0 DUP10 ADD MSTORE JUMP JUMPDEST PUSH1 0x0 PUSH2 0x4421 DUP13 DUP8 DUP11 ADD PUSH2 0x51B5 JUMP JUMPDEST SWAP6 DUP7 ADD SWAP6 SWAP1 POP PUSH2 0x4432 DUP7 PUSH1 0xC0 DUP11 ADD MSTORE JUMP JUMPDEST PUSH1 0x0 PUSH2 0x4440 DUP13 DUP9 DUP12 ADD PUSH2 0x51D5 JUMP JUMPDEST SWAP11 SWAP16 SWAP7 SWAP1 SWAP11 ADD PUSH1 0x24 ADD SWAP14 POP SWAP5 SWAP12 POP POP POP POP POP POP POP POP POP POP POP POP JUMP JUMPDEST PUSH1 0x0 DUP1 PUSH2 0x4466 PUSH2 0x46C2 JUMP JUMPDEST PUSH4 0xF4DD92CE DUP2 MSTORE DUP8 DUP5 XOR PUSH1 0xA0 DUP3 ADD MSTORE PUSH1 0x1C DUP2 ADD SWAP3 POP PUSH1 0x20 ADD PUSH1 0xA0 DUP1 DUP3 MSTORE DUP8 PUSH1 0x0 PUSH2 0x4491 PUSH1 0x40 DUP4 ADD MLOAD SWAP1 JUMP JUMPDEST SWAP1 POP PUSH1 0x0 PUSH2 0x44A1 DUP3 DUP6 DUP8 ADD PUSH2 0x50E0 JUMP JUMPDEST SWAP4 DUP5 ADD SWAP4 SWAP1 POP PUSH2 0x44B2 DUP5 PUSH1 0x20 DUP8 ADD MSTORE JUMP JUMPDEST PUSH1 0x0 PUSH2 0x44BF PUSH1 0x60 DUP6 ADD MLOAD SWAP1 JUMP JUMPDEST SWAP1 POP PUSH1 0x0 PUSH2 0x44CF DUP3 DUP8 DUP10 ADD PUSH2 0x5147 JUMP JUMPDEST SWAP6 DUP7 ADD SWAP6 SWAP1 POP PUSH2 0x44E0 DUP7 PUSH1 0x40 DUP10 ADD MSTORE JUMP JUMPDEST PUSH1 0x0 PUSH2 0x44EE DUP14 DUP9 DUP11 ADD PUSH2 0x51B5 JUMP JUMPDEST SWAP7 DUP8 ADD SWAP7 SWAP1 POP PUSH2 0x44FF DUP8 PUSH1 0x60 DUP11 ADD MSTORE JUMP JUMPDEST PUSH1 0x0 PUSH2 0x450D DUP14 DUP10 DUP12 ADD PUSH2 0x51D5 JUMP JUMPDEST SWAP1 POP DUP1 DUP9 ADD SWAP8 POP DUP8 PUSH1 0x4 ADD SWAP10 POP POP POP POP POP POP POP POP POP POP SWAP6 POP SWAP6 SWAP4 POP POP POP POP JUMP JUMPDEST PUSH4 0x39F3E3FD PUSH1 0x0 MSTORE PUSH1 0x4 PUSH1 0x1C REVERT JUMPDEST RETURNDATASIZE ISZERO PUSH2 0x3A3 JUMPI PUSH1 0x1F RETURNDATASIZE ADD PUSH1 0x5 SHR PUSH1 0x40 MLOAD PUSH1 0x5 SHR DUP2 PUSH1 0x3 MUL DUP2 DUP4 GT ISZERO PUSH2 0x456D JUMPI DUP2 DUP4 SUB PUSH1 0x3 MUL DUP3 DUP1 MUL DUP5 DUP1 MUL SUB PUSH1 0x9 SHR ADD ADD JUMPDEST GAS PUSH1 0x20 DUP3 ADD LT ISZERO PUSH2 0x1A96 JUMPI RETURNDATASIZE PUSH1 0x0 DUP1 RETURNDATACOPY RETURNDATASIZE PUSH1 0x0 REVERT JUMPDEST PUSH4 0xD13D53D4 PUSH1 0x0 MSTORE DUP1 PUSH1 0x20 MSTORE PUSH1 0x24 PUSH1 0x1C REVERT JUMPDEST PUSH4 0x1CF99B26 PUSH1 0x0 MSTORE DUP2 PUSH1 0x20 MSTORE DUP1 PUSH1 0x40 MSTORE PUSH1 0x44 PUSH1 0x1C REVERT JUMPDEST PUSH1 0x40 MLOAD PUSH32 0x23B872DD00000000000000000000000000000000000000000000000000000000 PUSH1 0x0 MSTORE DUP4 PUSH1 0x4 MSTORE DUP3 PUSH1 0x24 MSTORE DUP2 PUSH1 0x44 MSTORE PUSH1 0x20 PUSH1 0x0 PUSH1 0x64 PUSH1 0x0 DUP1 DUP10 GAS CALL DUP1 RETURNDATASIZE ISZERO PUSH1 0x1F RETURNDATASIZE GT PUSH1 0x1 PUSH1 0x0 MLOAD EQ AND OR AND RETURNDATASIZE ISZERO ISZERO DUP2 AND PUSH2 0x46B2 JUMPI DUP1 DUP8 EXTCODESIZE ISZERO ISZERO AND PUSH2 0x46B2 JUMPI DUP1 PUSH2 0x46A0 JUMPI DUP2 PUSH2 0x4682 JUMPI RETURNDATASIZE ISZERO PUSH2 0x465F JUMPI PUSH1 0x1F RETURNDATASIZE ADD PUSH1 0x5 SHR DUP4 PUSH1 0x5 SHR DUP2 PUSH1 0x3 MUL DUP2 DUP4 GT ISZERO PUSH2 0x4646 JUMPI DUP2 DUP4 SUB PUSH1 0x3 MUL DUP3 DUP1 MUL DUP5 DUP1 MUL SUB PUSH1 0x9 SHR ADD ADD JUMPDEST GAS PUSH1 0x20 DUP3 ADD LT ISZERO PUSH2 0x465B JUMPI RETURNDATASIZE PUSH1 0x0 DUP1 RETURNDATACOPY RETURNDATASIZE PUSH1 0x0 REVERT JUMPDEST POP POP POP JUMPDEST PUSH4 0xF486BC87 PUSH1 0x0 MSTORE DUP7 PUSH1 0x20 MSTORE DUP6 PUSH1 0x40 MSTORE DUP5 PUSH1 0x60 MSTORE PUSH1 0x0 PUSH1 0x80 MSTORE DUP4 PUSH1 0xA0 MSTORE PUSH1 0xA4 PUSH1 0x1C REVERT JUMPDEST PUSH4 0x98891923 PUSH1 0x0 MSTORE DUP7 PUSH1 0x20 MSTORE DUP6 PUSH1 0x40 MSTORE DUP5 PUSH1 0x60 MSTORE DUP4 PUSH1 0x80 MSTORE PUSH1 0x84 PUSH1 0x1C REVERT JUMPDEST PUSH4 0x5F15D672 PUSH1 0x0 MSTORE DUP7 PUSH1 0x20 MSTORE PUSH1 0x24 PUSH1 0x1C REVERT JUMPDEST POP POP PUSH1 0x40 MSTORE POP POP PUSH1 0x0 PUSH1 0x60 MSTORE POP POP JUMP JUMPDEST PUSH1 0x0 PUSH2 0x3C0 PUSH1 0x40 MLOAD SWAP1 JUMP JUMPDEST DUP1 DUP3 DUP3 DUP6 PUSH1 0x4 GAS STATICCALL DUP1 ISZERO RETURNDATASIZE ISZERO OR ISZERO PUSH2 0x432E JUMPI PUSH1 0x0 DUP1 REVERT JUMPDEST PUSH4 0x375C24C1 PUSH1 0x0 MSTORE DUP1 PUSH1 0x20 MSTORE PUSH1 0x24 PUSH1 0x1C REVERT JUMPDEST PUSH1 0x0 DUP1 PUSH1 0x0 DUP5 DUP6 MLOAD PUSH1 0x5 SHL DUP7 ADD JUMPDEST DUP1 DUP3 LT ISZERO PUSH2 0x4812 JUMPI PUSH1 0x20 DUP3 ADD SWAP2 POP DUP2 MLOAD MLOAD DUP9 MLOAD DUP2 LT PUSH2 0x4725 JUMPI PUSH2 0x4725 PUSH2 0x4840 JUMP JUMPDEST DUP1 PUSH1 0x5 SHL PUSH1 0x20 DUP11 ADD ADD MLOAD SWAP1 POP DUP1 MLOAD PUSH1 0x20 DUP5 MLOAD ADD MLOAD PUSH1 0x0 PUSH1 0x40 DUP4 ADD MLOAD PUSH1 0x20 DUP6 ADD MLOAD ISZERO DUP2 MLOAD DUP5 LT ISZERO OR ISZERO PUSH2 0x475B JUMPI POP POP POP POP POP PUSH2 0x4704 JUMP JUMPDEST DUP3 PUSH1 0x5 SHL PUSH1 0x20 DUP3 ADD ADD MLOAD SWAP2 POP POP PUSH1 0x60 DUP2 ADD SWAP4 POP DUP4 MLOAD DUP10 ADD SWAP2 POP DUP4 MLOAD ISZERO DUP10 DUP4 LT PUSH1 0x1 SHL OR DUP9 OR SWAP8 POP DUP2 SWAP9 POP PUSH1 0x0 DUP5 MSTORE DUP10 MLOAD SWAP4 POP DUP7 ISZERO PUSH1 0x1 DUP2 EQ PUSH2 0x47C5 JUMPI PUSH1 0x60 DUP3 KECCAK256 DUP9 XOR PUSH1 0x40 DUP13 ADD MLOAD PUSH2 0x120 DUP7 ADD MLOAD XOR PUSH1 0x20 DUP14 ADD MLOAD DUP7 MLOAD XOR OR OR ISZERO PUSH2 0x47C0 JUMPI PUSH2 0x47C0 PUSH2 0x4840 JUMP JUMPDEST PUSH2 0x4808 JUMP JUMPDEST DUP2 MLOAD DUP6 MSTORE PUSH1 0x20 DUP3 ADD MLOAD PUSH1 0x20 DUP7 ADD MSTORE PUSH1 0x40 DUP3 ADD MLOAD PUSH1 0x40 DUP7 ADD MSTORE DUP4 MLOAD PUSH1 0x20 DUP13 ADD MSTORE PUSH2 0x120 DUP5 ADD MLOAD PUSH1 0x40 DUP13 ADD MSTORE PUSH1 0x60 DUP6 KECCAK256 SWAP8 POP PUSH1 0x20 DUP13 ADD SWAP3 POP DUP7 DUP4 XOR ISZERO PUSH2 0x4808 JUMPI DUP7 MLOAD DUP4 MSTORE JUMPDEST POP POP POP POP POP PUSH2 0x4704 JUMP JUMPDEST POP POP POP DUP2 PUSH1 0x60 DUP5 MLOAD ADD MSTORE DUP1 ISZERO PUSH2 0x1A93 JUMPI PUSH1 0x1 DUP2 SUB PUSH2 0x4838 JUMPI PUSH4 0x91B3E514 PUSH1 0x0 MSTORE PUSH1 0x4 PUSH1 0x1C REVERT JUMPDEST PUSH2 0x1A93 PUSH2 0x484E JUMP JUMPDEST PUSH4 0x7FDA7279 PUSH1 0x0 MSTORE PUSH1 0x4 PUSH1 0x1C REVERT JUMPDEST PUSH4 0x4E487B71 PUSH1 0x0 MSTORE PUSH1 0x11 PUSH1 0x20 MSTORE PUSH1 0x24 PUSH1 0x1C REVERT JUMPDEST PUSH1 0x0 DUP1 PUSH1 0x0 DUP5 DUP6 MLOAD PUSH1 0x5 SHL DUP7 ADD JUMPDEST DUP1 DUP3 LT ISZERO PUSH2 0x495B JUMPI PUSH1 0x20 DUP3 ADD SWAP2 POP DUP2 MLOAD MLOAD DUP9 MLOAD DUP2 LT PUSH2 0x4890 JUMPI PUSH2 0x4890 PUSH2 0x4840 JUMP JUMPDEST DUP1 PUSH1 0x5 SHL PUSH1 0x20 DUP11 ADD ADD MLOAD SWAP1 POP PUSH1 0x20 DUP4 MLOAD ADD MLOAD PUSH1 0x0 PUSH1 0x60 DUP4 MLOAD ADD MLOAD PUSH1 0x20 DUP5 ADD MLOAD ISZERO DUP2 MLOAD DUP5 LT ISZERO OR ISZERO PUSH2 0x48C4 JUMPI POP POP POP POP PUSH2 0x486F JUMP JUMPDEST DUP3 PUSH1 0x5 SHL PUSH1 0x20 DUP3 ADD ADD MLOAD SWAP2 POP POP PUSH1 0x60 DUP2 ADD SWAP3 POP DUP3 MLOAD DUP9 ADD SWAP2 POP DUP3 MLOAD ISZERO DUP9 DUP4 LT PUSH1 0x1 SHL OR DUP8 OR SWAP7 POP DUP2 SWAP8 POP PUSH1 0x0 DUP4 MSTORE DUP9 MLOAD SWAP3 POP DUP6 ISZERO PUSH1 0x1 DUP2 EQ PUSH2 0x4917 JUMPI PUSH1 0xA0 DUP3 KECCAK256 DUP8 EQ PUSH2 0x4912 JUMPI PUSH2 0x4912 PUSH2 0x4840 JUMP JUMPDEST PUSH2 0x4952 JUMP JUMPDEST DUP2 MLOAD DUP5 MSTORE PUSH1 0x20 DUP3 ADD MLOAD PUSH1 0x20 DUP6 ADD MSTORE PUSH1 0x40 DUP3 ADD MLOAD PUSH1 0x40 DUP6 ADD MSTORE PUSH1 0x80 DUP3 ADD MLOAD PUSH1 0x80 DUP6 ADD MSTORE PUSH1 0xA0 DUP3 KECCAK256 SWAP7 POP PUSH1 0x20 DUP12 ADD SWAP3 POP DUP6 DUP4 XOR ISZERO PUSH2 0x4952 JUMPI DUP6 MLOAD DUP4 MSTORE JUMPDEST POP POP POP POP PUSH2 0x486F JUMP JUMPDEST POP POP DUP4 MLOAD PUSH1 0x60 ADD DUP4 SWAP1 MSTORE POP DUP1 ISZERO PUSH2 0x1A93 JUMPI PUSH1 0x1 DUP2 SUB PUSH2 0x4838 JUMPI PUSH4 0x91B3E514 PUSH1 0x0 MSTORE PUSH1 0x4 PUSH1 0x1C REVERT JUMPDEST PUSH4 0xA5F54208 PUSH1 0x0 MSTORE DUP3 PUSH1 0x20 MSTORE DUP2 PUSH1 0x40 MSTORE DUP1 PUSH1 0x60 MSTORE PUSH1 0x64 PUSH1 0x1C REVERT JUMPDEST PUSH4 0x466AA616 PUSH1 0x0 MSTORE PUSH1 0x4 PUSH1 0x1C REVERT JUMPDEST PUSH1 0x0 PUSH2 0x4DB2 JUMP JUMPDEST PUSH1 0x0 PUSH1 0x9 DUP3 LT ISZERO PUSH2 0x4B0B JUMPI PUSH1 0x5 DUP3 LT ISZERO PUSH2 0x4A68 JUMPI PUSH1 0x3 DUP3 LT ISZERO PUSH2 0x4A1B JUMPI PUSH32 0x832C58A5B611AADCFA6A082AC9D04BACE53D8278387F10040347B7E98EB5B302 PUSH1 0x1 DUP4 EQ MUL PUSH32 0xBF8E29B89F29ED9B529C154A63038FFCA562F8D7CD1E2545DDA53A1B582DDE30 XOR PUSH2 0x3B0 JUMP JUMPDEST PUSH32 0xF3E8417A785F980BDAF134FA0274A6BF891EEB8195CD94B09D2AA651046E28BC PUSH1 0x3 DUP4 EQ MUL PUSH32 0xA02EB7FF164C884E5E2C336DC85F81C6A93329D8E9ADF214B32729B894DE2AF1 XOR PUSH2 0x3B0 JUMP JUMPDEST PUSH1 0x7 DUP3 LT ISZERO PUSH2 0x4ABE JUMPI PUSH32 0x25D02425402D882D211A7AB774C0ED6ECA048C4D03D9AF40132475744753B2A3 PUSH1 0x5 DUP4 EQ MUL PUSH32 0x1C19F71958CDD8F081B4C31F7CAF5C010B29D12950BE2FA1C95070DC47E30B55 XOR PUSH2 0x3B0 JUMP JUMPDEST PUSH32 0xB58D772FB09B426B9DECE637F61CA9065F2B994F1464B51E9207F55F7C8F5948 PUSH1 0x7 DUP4 EQ MUL PUSH32 0x7FF98D9D4E55D876C5CFAC10B43C04039522F3DDFB0EA9BFE70C68CFB5C7CC14 XOR PUSH2 0x3B0 JUMP JUMPDEST PUSH1 0x11 DUP3 LT ISZERO PUSH2 0x4C63 JUMPI PUSH1 0xD DUP3 LT ISZERO PUSH2 0x4BC0 JUMPI PUSH1 0xB DUP3 LT ISZERO PUSH2 0x4B73 JUMPI PUSH32 0x6F0EC38C21F6F583AB7F3C5413C773FFD5344C34FDE1D390958E438BF667448F PUSH1 0x9 DUP4 EQ MUL PUSH32 0xD1D97D1EF5EAA37A4EE5FBF234E6F6D64EB511EB562221CD7EDFBDDE0848DA05 XOR PUSH2 0x3B0 JUMP JUMPDEST PUSH32 0x32F4E7485D6485F9F6C255929B9905C62BA919758BBE231F231EAEECF33D810C PUSH1 0xB DUP4 EQ MUL PUSH32 0xBB98D87CC12922B83759626C5F07D72266DA9702D19FFAD6A514C73A89002F5F XOR PUSH2 0x3B0 JUMP JUMPDEST PUSH1 0xF DUP3 LT ISZERO PUSH2 0x4C16 JUMPI PUSH32 0x8DF51DF98847160517F5B1186B4BC3F418D98B8A7F17F1292F392D79D600D79E PUSH1 0xD DUP4 EQ MUL PUSH32 0x6B5B04CBAE4FCB1A9D78E7B2DFC51A36933D023CF6E347E03D517B472A852590 XOR PUSH2 0x3B0 JUMP JUMPDEST PUSH32 0xCC4886E37EEDD9AACD6C1C2C9247197A621A71282E87A7CBC673F3736D9AA141 PUSH1 0xF DUP4 EQ MUL PUSH32 0x1DA3EED3ECEF6EBAA6E5023C057EC2C75150693FD0DAC5C90F4A142F9879FDE8 XOR PUSH2 0x3B0 JUMP JUMPDEST PUSH1 0x15 DUP3 LT ISZERO PUSH2 0x4D0F JUMPI PUSH1 0x13 DUP3 LT ISZERO PUSH2 0x4CC2 JUMPI PUSH32 0x2D7A3ED6DAB270FDB8E054B2AD525F0CE2A8B89CC76C17F0965434740F673A55 PUSH1 0x11 DUP4 EQ MUL PUSH32 0xC3939FEFF011E53AB8C35CA3370AAD54C5DF1FC2938CD62543174FA6E7D85877 XOR PUSH2 0x3B0 JUMP JUMPDEST PUSH32 0x54B3212A178782F104E0D514B41A9A5C4CA9C980BF6597C3CECBF280917E202A PUSH1 0x13 DUP4 EQ MUL PUSH32 0x5A4F867D3D458DABECAD65F6201CEEABA0096DF2D0C491CC32E6EA4E64350017 XOR PUSH2 0x3B0 JUMP JUMPDEST PUSH1 0x17 DUP3 LT ISZERO PUSH2 0x4D65 JUMPI PUSH32 0xBB40BF8CEA3A5A716E2B6EB08BBDAC8EC159F82F380783DB3C56904F15A43D04 PUSH1 0x15 DUP4 EQ MUL PUSH32 0x3BD8CFF538ABA49A9C374C806D277181E9651624B3E31111BC0624574F8BCA1D XOR PUSH2 0x3B0 JUMP JUMPDEST PUSH32 0x403BE09941A31D05CFC2F896505811353D45D38743288B016630CCE39435476A PUSH1 0x17 DUP4 EQ MUL PUSH32 0x1D51DF90CBA8DE7637CA3E8FE1E3511D1DC2F23487D05DBDECB781860C21AC1C XOR PUSH2 0x3B0 JUMP JUMPDEST PUSH2 0x3B0 DUP3 PUSH2 0x49B1 JUMP JUMPDEST PUSH4 0x98E9DB6E PUSH1 0x0 MSTORE PUSH1 0x4 PUSH1 0x1C REVERT JUMPDEST PUSH4 0xBCED929D PUSH1 0x0 MSTORE DUP1 PUSH1 0x20 MSTORE PUSH1 0x24 PUSH1 0x1C REVERT JUMPDEST PUSH4 0x21CCFEB7 PUSH1 0x0 MSTORE DUP2 PUSH1 0x20 MSTORE DUP1 PUSH1 0x40 MSTORE PUSH1 0x44 PUSH1 0x1C REVERT JUMPDEST PUSH1 0x0 DUP1 DUP4 PUSH2 0x4DFD PUSH2 0x46C2 JUMP JUMPDEST PUSH4 0x98919765 DUP2 MSTORE CALLER PUSH1 0x20 DUP3 ADD SWAP1 DUP2 MSTORE PUSH1 0x80 PUSH1 0x40 DUP4 ADD DUP2 SWAP1 MSTORE PUSH1 0x1C SWAP1 SWAP3 ADD SWAP5 POP SWAP1 PUSH1 0x0 PUSH2 0x4E2A PUSH1 0x40 DUP6 ADD MLOAD SWAP1 JUMP JUMPDEST SWAP1 POP PUSH1 0x0 PUSH2 0x4E3A DUP3 DUP5 DUP7 ADD PUSH2 0x50E0 JUMP JUMPDEST SWAP3 DUP4 ADD SWAP3 SWAP1 POP PUSH2 0x4E4B DUP4 PUSH1 0x40 DUP7 ADD MSTORE JUMP JUMPDEST PUSH1 0x0 PUSH2 0x4E58 PUSH1 0x60 DUP8 ADD MLOAD SWAP1 JUMP JUMPDEST SWAP1 POP PUSH1 0x0 PUSH2 0x4E68 DUP3 DUP7 DUP9 ADD PUSH2 0x50E0 JUMP JUMPDEST SWAP5 DUP6 ADD SWAP5 SWAP1 POP PUSH2 0x4E79 DUP6 PUSH1 0x60 DUP9 ADD MSTORE JUMP JUMPDEST DUP10 PUSH1 0x0 PUSH2 0x4E88 DUP3 DUP10 DUP10 ADD PUSH2 0x51B5 JUMP JUMPDEST SWAP11 SWAP14 SWAP7 SWAP1 SWAP11 ADD PUSH1 0x4 ADD SWAP12 POP SWAP5 SWAP10 POP POP POP POP POP POP POP POP POP POP JUMP JUMPDEST PUSH1 0x0 DUP1 PUSH1 0x0 DUP5 ISZERO PUSH2 0x4EB5 JUMPI PUSH2 0x4EB5 DUP5 PUSH2 0x5007 JUMP JUMPDEST POP SWAP2 SWAP4 PUSH1 0x0 SWAP4 POP DUP4 SWAP3 POP SWAP1 POP JUMP JUMPDEST PUSH1 0x80 RETURNDATASIZE LT PUSH1 0x0 DUP1 DUP1 DUP1 DUP1 DUP1 DUP7 PUSH2 0x4F25 JUMPI PUSH1 0x40 PUSH1 0x0 DUP1 RETURNDATACOPY PUSH1 0x0 MLOAD PUSH1 0x20 MLOAD RETURNDATASIZE DUP2 GT RETURNDATASIZE DUP4 GT OR SWAP9 POP SWAP1 SWAP5 POP SWAP3 POP DUP7 PUSH2 0x4F25 JUMPI PUSH1 0x20 DUP5 PUSH1 0x0 RETURNDATACOPY PUSH1 0x0 MLOAD SWAP2 POP PUSH1 0x20 DUP4 PUSH1 0x20 RETURNDATACOPY POP PUSH1 0x20 MLOAD PUSH1 0x0 DUP1 MSTORE PUSH2 0xFFFF DUP3 DUP3 OR GT RETURNDATASIZE PUSH1 0x80 PUSH1 0xA0 DUP5 MUL PUSH1 0x7 DUP7 SWAP1 SHL ADD ADD GT OR SWAP7 POP JUMPDEST DUP7 PUSH2 0x4F49 JUMPI PUSH2 0x4F37 DUP3 PUSH1 0x20 DUP7 ADD PUSH2 0x4F52 JUMP JUMPDEST SWAP6 POP PUSH2 0x4F46 DUP2 PUSH1 0x20 DUP6 ADD PUSH2 0x4FB1 JUMP JUMPDEST SWAP5 POP JUMPDEST POP POP POP POP SWAP1 SWAP2 SWAP3 JUMP JUMPDEST PUSH1 0x0 PUSH1 0x40 MLOAD SWAP1 POP PUSH1 0xC0 DUP4 MUL PUSH1 0x20 ADD DUP2 ADD PUSH1 0x40 MSTORE DUP3 DUP2 MSTORE PUSH1 0x20 DUP4 PUSH1 0x1 ADD PUSH1 0x5 SHL DUP1 DUP4 ADD JUMPDEST DUP2 DUP4 LT ISZERO PUSH2 0x4FA8 JUMPI DUP1 DUP4 DUP6 ADD MSTORE PUSH1 0x80 DUP6 DUP3 RETURNDATACOPY PUSH1 0x60 DUP2 ADD MLOAD PUSH1 0x80 DUP3 ADD MSTORE PUSH1 0x80 DUP6 ADD SWAP5 POP PUSH1 0xA0 DUP2 ADD SWAP1 POP PUSH1 0x20 DUP4 ADD SWAP3 POP PUSH2 0x4F75 JUMP JUMPDEST POP POP POP SWAP3 SWAP2 POP POP JUMP JUMPDEST PUSH1 0x0 PUSH1 0x40 MLOAD SWAP1 POP PUSH1 0xE0 DUP4 MUL PUSH1 0x20 ADD DUP2 ADD PUSH1 0x40 MSTORE DUP3 DUP2 MSTORE PUSH1 0x20 DUP4 PUSH1 0x1 ADD PUSH1 0x5 SHL DUP1 DUP4 ADD JUMPDEST DUP2 DUP4 LT ISZERO PUSH2 0x4FA8 JUMPI DUP1 DUP4 DUP6 ADD MSTORE PUSH1 0x80 DUP6 DUP3 RETURNDATACOPY PUSH1 0x40 PUSH1 0x60 DUP7 ADD PUSH1 0x80 DUP4 ADD RETURNDATACOPY PUSH1 0xA0 SWAP5 SWAP1 SWAP5 ADD SWAP4 PUSH1 0x20 SWAP3 SWAP1 SWAP3 ADD SWAP2 PUSH1 0xC0 ADD PUSH2 0x4FD4 JUMP JUMPDEST PUSH4 0x93979285 PUSH1 0x0 MSTORE DUP1 PUSH1 0x20 MSTORE PUSH1 0x24 PUSH1 0x1C REVERT JUMPDEST PUSH1 0x0 DUP3 MLOAD PUSH1 0x40 DUP5 ADD MLOAD DUP1 ISZERO PUSH1 0x3 DUP4 GT AND ISZERO PUSH2 0x503F JUMPI PUSH1 0x4 DUP3 EQ PUSH1 0x3 SUB SWAP2 POP PUSH1 0x40 DUP5 ADD MLOAD SWAP1 POP JUMPDEST PUSH1 0x60 DUP6 ADD MLOAD PUSH1 0x60 DUP6 ADD MLOAD POP PUSH1 0x80 DUP7 ADD MLOAD DUP2 EQ PUSH1 0x40 DUP7 ADD MLOAD DUP4 EQ AND DUP6 MLOAD DUP5 EQ PUSH1 0x20 DUP8 ADD MLOAD PUSH1 0x20 DUP10 ADD MLOAD EQ AND AND ISZERO SWAP4 POP POP POP POP SWAP3 SWAP2 POP POP JUMP JUMPDEST PUSH4 0x94EB6AF6 PUSH1 0x0 MSTORE PUSH1 0x4 PUSH1 0x1C REVERT JUMPDEST PUSH1 0x0 DUP4 PUSH1 0x0 MSTORE PUSH1 0x20 PUSH1 0x0 KECCAK256 PUSH1 0x20 DUP4 ADD DUP4 MLOAD PUSH1 0x5 SHL DUP2 ADD JUMPDEST DUP1 DUP3 LT ISZERO PUSH2 0x50C3 JUMPI DUP2 MLOAD DUP1 DUP5 GT PUSH1 0x5 SHL SWAP4 DUP5 MSTORE PUSH1 0x20 SWAP4 DUP5 XOR MSTORE PUSH1 0x40 PUSH1 0x0 KECCAK256 SWAP3 SWAP1 SWAP2 ADD SWAP1 PUSH2 0x509B JUMP JUMPDEST POP POP DUP4 EQ SWAP1 POP DUP1 PUSH2 0x432E JUMPI PUSH2 0x432E JUMPDEST PUSH4 0x9BDE339 PUSH1 0x0 MSTORE PUSH1 0x4 PUSH1 0x1C REVERT JUMPDEST PUSH1 0x0 DUP3 MLOAD DUP1 DUP4 MSTORE PUSH1 0x20 DUP5 ADD PUSH1 0x20 DUP5 ADD DUP3 PUSH1 0x5 SHL DUP3 ADD JUMPDEST DUP1 DUP4 LT ISZERO PUSH2 0x5134 JUMPI DUP3 MLOAD DUP1 MLOAD DUP4 MSTORE PUSH1 0x20 DUP2 ADD MLOAD PUSH1 0x20 DUP5 ADD MSTORE PUSH1 0x40 DUP2 ADD MLOAD PUSH1 0x40 DUP5 ADD MSTORE PUSH1 0x60 DUP2 ADD MLOAD PUSH1 0x60 DUP5 ADD MSTORE POP PUSH1 0x20 DUP4 ADD SWAP3 POP PUSH1 0x80 DUP3 ADD SWAP2 POP PUSH2 0x50F6 JUMP JUMPDEST POP POP POP DUP1 PUSH1 0x7 SHL PUSH1 0x20 ADD SWAP2 POP POP SWAP3 SWAP2 POP POP JUMP JUMPDEST PUSH1 0x0 DUP1 PUSH2 0x5152 DUP5 MLOAD SWAP1 JUMP JUMPDEST DUP1 DUP5 MSTORE SWAP1 POP PUSH1 0x20 DUP5 DUP2 ADD SWAP1 PUSH1 0x5 DUP4 SWAP1 SHL DUP7 ADD DUP2 ADD SWAP1 DUP6 ADD JUMPDEST PUSH2 0x5174 DUP4 DUP4 PUSH2 0x4001 JUMP JUMPDEST ISZERO PUSH2 0x51A2 JUMPI PUSH1 0x0 PUSH2 0x5184 DUP5 PUSH2 0x5206 JUMP JUMPDEST SWAP1 POP PUSH2 0x5192 DUP2 DUP4 PUSH1 0xA0 PUSH2 0x46CD JUMP JUMPDEST POP PUSH1 0x20 SWAP3 SWAP1 SWAP3 ADD SWAP2 PUSH1 0xA0 ADD PUSH2 0x516A JUMP JUMPDEST PUSH1 0xA0 DUP5 MUL PUSH1 0x20 ADD SWAP5 POP POP POP POP POP SWAP3 SWAP2 POP POP JUMP JUMPDEST PUSH1 0x0 PUSH4 0xFFFFFFE0 PUSH1 0x3F PUSH2 0x51C6 DUP6 MLOAD SWAP1 JUMP JUMPDEST ADD AND SWAP1 POP PUSH2 0x3B0 DUP4 DUP4 DUP4 PUSH2 0x46CD JUMP JUMPDEST PUSH1 0x0 DUP1 PUSH2 0x51E0 DUP5 MLOAD SWAP1 JUMP JUMPDEST DUP1 DUP5 MSTORE SWAP1 POP PUSH1 0x5 DUP2 SWAP1 SHL PUSH2 0x51FB PUSH1 0x20 DUP7 DUP2 ADD SWAP1 DUP7 ADD DUP4 PUSH2 0x46CD JUMP JUMPDEST PUSH1 0x20 ADD SWAP5 SWAP4 POP POP POP POP JUMP JUMPDEST PUSH1 0x0 PUSH2 0x3B0 DUP3 MLOAD SWAP1 JUMP JUMPDEST PUSH1 0x40 MLOAD DUP1 PUSH1 0xA0 ADD PUSH1 0x40 MSTORE DUP1 PUSH2 0x5223 PUSH2 0x5244 JUMP JUMPDEST DUP2 MSTORE PUSH1 0x0 PUSH1 0x20 DUP3 ADD DUP2 SWAP1 MSTORE PUSH1 0x40 DUP3 ADD MSTORE PUSH1 0x60 DUP1 DUP3 ADD DUP2 SWAP1 MSTORE PUSH1 0x80 SWAP1 SWAP2 ADD MSTORE SWAP1 JUMP JUMPDEST PUSH1 0x40 MLOAD DUP1 PUSH2 0x160 ADD PUSH1 0x40 MSTORE DUP1 PUSH1 0x0 PUSH20 0xFFFFFFFFFFFFFFFFFFFFFFFFFFFFFFFFFFFFFFFF AND DUP2 MSTORE PUSH1 0x20 ADD PUSH1 0x0 PUSH20 0xFFFFFFFFFFFFFFFFFFFFFFFFFFFFFFFFFFFFFFFF AND DUP2 MSTORE PUSH1 0x20 ADD PUSH1 0x60 DUP2 MSTORE PUSH1 0x20 ADD PUSH1 0x60 DUP2 MSTORE PUSH1 0x20 ADD PUSH1 0x0 PUSH1 0x4 DUP2 GT ISZERO PUSH2 0x52AB JUMPI PUSH2 0x52AB PUSH2 0x5545 JUMP JUMPDEST DUP2 MSTORE PUSH1 0x0 PUSH1 0x20 DUP3 ADD DUP2 SWAP1 MSTORE PUSH1 0x40 DUP3 ADD DUP2 SWAP1 MSTORE PUSH1 0x60 DUP3 ADD DUP2 SWAP1 MSTORE PUSH1 0x80 DUP3 ADD DUP2 SWAP1 MSTORE PUSH1 0xA0 DUP3 ADD DUP2 SWAP1 MSTORE PUSH1 0xC0 SWAP1 SWAP2 ADD MSTORE SWAP1 JUMP JUMPDEST PUSH1 0x0 PUSH1 0x20 DUP3 DUP5 SUB SLT ISZERO PUSH2 0x52ED JUMPI PUSH1 0x0 DUP1 REVERT JUMPDEST DUP2 CALLDATALOAD PUSH8 0xFFFFFFFFFFFFFFFF DUP2 GT ISZERO PUSH2 0x5304 JUMPI PUSH1 0x0 DUP1 REVERT JUMPDEST DUP3 ADD PUSH2 0x240 DUP2 DUP6 SUB SLT ISZERO PUSH2 0x400 JUMPI PUSH1 0x0 DUP1 REVERT JUMPDEST PUSH1 0x0 DUP2 MLOAD DUP1 DUP5 MSTORE PUSH1 0x0 JUMPDEST DUP2 DUP2 LT ISZERO PUSH2 0x533D JUMPI PUSH1 0x20 DUP2 DUP6 ADD DUP2 ADD MLOAD DUP7 DUP4 ADD DUP3 ADD MSTORE ADD PUSH2 0x5321 JUMP JUMPDEST POP PUSH1 0x0 PUSH1 0x20 DUP3 DUP7 ADD ADD MSTORE PUSH1 0x20 PUSH32 0xFFFFFFFFFFFFFFFFFFFFFFFFFFFFFFFFFFFFFFFFFFFFFFFFFFFFFFFFFFFFFFE0 PUSH1 0x1F DUP4 ADD AND DUP6 ADD ADD SWAP2 POP POP SWAP3 SWAP2 POP POP JUMP JUMPDEST PUSH1 0x20 DUP2 MSTORE PUSH1 0x0 PUSH2 0x400 PUSH1 0x20 DUP4 ADD DUP5 PUSH2 0x5317 JUMP JUMPDEST PUSH1 0x0 PUSH1 0x20 DUP3 DUP5 SUB SLT ISZERO PUSH2 0x53A0 JUMPI PUSH1 0x0 DUP1 REVERT JUMPDEST POP CALLDATALOAD SWAP2 SWAP1 POP JUMP JUMPDEST PUSH1 0x0 PUSH1 0x20 DUP3 DUP5 SUB SLT ISZERO PUSH2 0x53B9 JUMPI PUSH1 0x0 DUP1 REVERT JUMPDEST DUP2 CALLDATALOAD PUSH8 0xFFFFFFFFFFFFFFFF DUP2 GT ISZERO PUSH2 0x53D0 JUMPI PUSH1 0x0 DUP1 REVERT JUMPDEST DUP3 ADD PUSH2 0x160 DUP2 DUP6 SUB SLT ISZERO PUSH2 0x400 JUMPI PUSH1 0x0 DUP1 REVERT JUMPDEST PUSH1 0x0 DUP1 DUP4 PUSH1 0x1F DUP5 ADD SLT PUSH2 0x53F5 JUMPI PUSH1 0x0 DUP1 REVERT JUMPDEST POP DUP2 CALLDATALOAD PUSH8 0xFFFFFFFFFFFFFFFF DUP2 GT ISZERO PUSH2 0x540D JUMPI PUSH1 0x0 DUP1 REVERT JUMPDEST PUSH1 0x20 DUP4 ADD SWAP2 POP DUP4 PUSH1 0x20 DUP3 PUSH1 0x5 SHL DUP6 ADD ADD GT ISZERO PUSH2 0x5428 JUMPI PUSH1 0x0 DUP1 REVERT JUMPDEST SWAP3 POP SWAP3 SWAP1 POP JUMP JUMPDEST PUSH20 0xFFFFFFFFFFFFFFFFFFFFFFFFFFFFFFFFFFFFFFFF DUP2 AND DUP2 EQ PUSH2 0x2E04 JUMPI PUSH1 0x0 DUP1 REVERT JUMPDEST DUP1 CALLDATALOAD PUSH2 0x1B8C DUP2 PUSH2 0x542F JUMP JUMPDEST PUSH1 0x0 DUP1 PUSH1 0x0 DUP1 PUSH1 0x0 DUP1 PUSH1 0x0 DUP1 PUSH1 0x0 DUP1 PUSH1 0x0 PUSH1 0xE0 DUP13 DUP15 SUB SLT ISZERO PUSH2 0x547D JUMPI PUSH1 0x0 DUP1 REVERT JUMPDEST PUSH8 0xFFFFFFFFFFFFFFFF DUP1 DUP14 CALLDATALOAD GT ISZERO PUSH2 0x5494 JUMPI PUSH1 0x0 DUP1 REVERT JUMPDEST PUSH2 0x54A1 DUP15 DUP15 CALLDATALOAD DUP16 ADD PUSH2 0x53E3 JUMP JUMPDEST SWAP1 SWAP13 POP SWAP11 POP PUSH1 0x20 DUP14 ADD CALLDATALOAD DUP2 LT ISZERO PUSH2 0x54B7 JUMPI PUSH1 0x0 DUP1 REVERT JUMPDEST PUSH2 0x54C7 DUP15 PUSH1 0x20 DUP16 ADD CALLDATALOAD DUP16 ADD PUSH2 0x53E3 JUMP JUMPDEST SWAP1 SWAP11 POP SWAP9 POP PUSH1 0x40 DUP14 ADD CALLDATALOAD DUP2 LT ISZERO PUSH2 0x54DD JUMPI PUSH1 0x0 DUP1 REVERT JUMPDEST PUSH2 0x54ED DUP15 PUSH1 0x40 DUP16 ADD CALLDATALOAD DUP16 ADD PUSH2 0x53E3 JUMP JUMPDEST SWAP1 SWAP9 POP SWAP7 POP PUSH1 0x60 DUP14 ADD CALLDATALOAD DUP2 LT ISZERO PUSH2 0x5503 JUMPI PUSH1 0x0 DUP1 REVERT JUMPDEST POP PUSH2 0x5514 DUP14 PUSH1 0x60 DUP15 ADD CALLDATALOAD DUP15 ADD PUSH2 0x53E3 JUMP JUMPDEST SWAP1 SWAP6 POP SWAP4 POP PUSH1 0x80 DUP13 ADD CALLDATALOAD SWAP3 POP PUSH2 0x552C PUSH1 0xA0 DUP14 ADD PUSH2 0x5451 JUMP JUMPDEST SWAP2 POP PUSH1 0xC0 DUP13 ADD CALLDATALOAD SWAP1 POP SWAP3 SWAP6 SWAP9 SWAP12 POP SWAP3 SWAP6 SWAP9 SWAP12 SWAP1 SWAP4 SWAP7 SWAP10 POP JUMP JUMPDEST PUSH32 0x4E487B7100000000000000000000000000000000000000000000000000000000 PUSH1 0x0 MSTORE PUSH1 0x21 PUSH1 0x4 MSTORE PUSH1 0x24 PUSH1 0x0 REVERT JUMPDEST PUSH1 0x6 DUP2 LT PUSH2 0x1B06 JUMPI PUSH2 0x1B06 PUSH2 0x5545 JUMP JUMPDEST PUSH2 0x558F DUP3 DUP3 MLOAD PUSH2 0x5574 JUMP JUMPDEST PUSH1 0x20 DUP2 ADD MLOAD PUSH20 0xFFFFFFFFFFFFFFFFFFFFFFFFFFFFFFFFFFFFFFFF DUP1 DUP3 AND PUSH1 0x20 DUP6 ADD MSTORE PUSH1 0x40 DUP4 ADD MLOAD PUSH1 0x40 DUP6 ADD MSTORE PUSH1 0x60 DUP4 ADD MLOAD PUSH1 0x60 DUP6 ADD MSTORE DUP1 PUSH1 0x80 DUP5 ADD MLOAD AND PUSH1 0x80 DUP6 ADD MSTORE POP POP POP POP JUMP JUMPDEST PUSH1 0x0 DUP2 MLOAD DUP1 DUP5 MSTORE PUSH1 0x20 DUP1 DUP6 ADD SWAP5 POP DUP1 DUP5 ADD PUSH1 0x0 JUMPDEST DUP4 DUP2 LT ISZERO PUSH2 0x563A JUMPI DUP2 MLOAD PUSH2 0x5600 DUP9 DUP3 MLOAD PUSH2 0x5584 JUMP JUMPDEST DUP1 DUP5 ADD MLOAD PUSH20 0xFFFFFFFFFFFFFFFFFFFFFFFFFFFFFFFFFFFFFFFF AND PUSH1 0xA0 DUP10 ADD MSTORE PUSH1 0x40 ADD MLOAD PUSH1 0xC0 DUP9 ADD MSTORE PUSH1 0xE0 SWAP1 SWAP7 ADD SWAP6 SWAP1 DUP3 ADD SWAP1 PUSH1 0x1 ADD PUSH2 0x55EB JUMP JUMPDEST POP SWAP5 SWAP6 SWAP5 POP POP POP POP POP JUMP JUMPDEST PUSH1 0x40 DUP1 DUP3 MSTORE DUP4 MLOAD SWAP1 DUP3 ADD DUP2 SWAP1 MSTORE PUSH1 0x0 SWAP1 PUSH1 0x20 SWAP1 PUSH1 0x60 DUP5 ADD SWAP1 DUP3 DUP8 ADD DUP5 JUMPDEST DUP3 DUP2 LT ISZERO PUSH2 0x5680 JUMPI DUP2 MLOAD ISZERO ISZERO DUP5 MSTORE SWAP3 DUP5 ADD SWAP3 SWAP1 DUP5 ADD SWAP1 PUSH1 0x1 ADD PUSH2 0x5662 JUMP JUMPDEST POP POP POP DUP4 DUP2 SUB DUP3 DUP6 ADD MSTORE PUSH2 0x5F1 DUP2 DUP7 PUSH2 0x55D7 JUMP JUMPDEST PUSH1 0x0 DUP1 PUSH1 0x20 DUP4 DUP6 SUB SLT ISZERO PUSH2 0x56A7 JUMPI PUSH1 0x0 DUP1 REVERT JUMPDEST DUP3 CALLDATALOAD PUSH8 0xFFFFFFFFFFFFFFFF DUP2 GT ISZERO PUSH2 0x56BE JUMPI PUSH1 0x0 DUP1 REVERT JUMPDEST PUSH2 0x56CA DUP6 DUP3 DUP7 ADD PUSH2 0x53E3 JUMP JUMPDEST SWAP1 SWAP7 SWAP1 SWAP6 POP SWAP4 POP POP POP POP JUMP JUMPDEST PUSH1 0x0 DUP1 PUSH1 0x0 DUP1 PUSH1 0x40 DUP6 DUP8 SUB SLT ISZERO PUSH2 0x56EC JUMPI PUSH1 0x0 DUP1 REVERT JUMPDEST DUP5 CALLDATALOAD PUSH8 0xFFFFFFFFFFFFFFFF DUP1 DUP3 GT ISZERO PUSH2 0x5704 JUMPI PUSH1 0x0 DUP1 REVERT JUMPDEST PUSH2 0x5710 DUP9 DUP4 DUP10 ADD PUSH2 0x53E3 JUMP JUMPDEST SWAP1 SWAP7 POP SWAP5 POP PUSH1 0x20 DUP8 ADD CALLDATALOAD SWAP2 POP DUP1 DUP3 GT ISZERO PUSH2 0x5729 JUMPI PUSH1 0x0 DUP1 REVERT JUMPDEST POP PUSH2 0x5736 DUP8 DUP3 DUP9 ADD PUSH2 0x53E3 JUMP JUMPDEST SWAP6 SWAP9 SWAP5 SWAP8 POP SWAP6 POP POP POP POP JUMP JUMPDEST PUSH1 0x20 DUP2 MSTORE PUSH1 0x0 PUSH2 0x400 PUSH1 0x20 DUP4 ADD DUP5 PUSH2 0x55D7 JUMP JUMPDEST PUSH1 0x0 PUSH1 0x20 DUP3 DUP5 SUB SLT ISZERO PUSH2 0x5767 JUMPI PUSH1 0x0 DUP1 REVERT JUMPDEST DUP2 CALLDATALOAD PUSH2 0x400 DUP2 PUSH2 0x542F JUMP JUMPDEST PUSH1 0x0 DUP1 PUSH1 0x40 DUP4 DUP6 SUB SLT ISZERO PUSH2 0x5785 JUMPI PUSH1 0x0 DUP1 REVERT JUMPDEST DUP3 CALLDATALOAD PUSH8 0xFFFFFFFFFFFFFFFF DUP2 GT ISZERO PUSH2 0x579C JUMPI PUSH1 0x0 DUP1 REVERT JUMPDEST DUP4 ADD PUSH1 0x40 DUP2 DUP7 SUB SLT ISZERO PUSH2 0x57AE JUMPI PUSH1 0x0 DUP1 REVERT JUMPDEST SWAP5 PUSH1 0x20 SWAP4 SWAP1 SWAP4 ADD CALLDATALOAD SWAP4 POP POP POP JUMP JUMPDEST PUSH1 0x0 DUP1 PUSH1 0x0 DUP1 PUSH1 0x0 PUSH1 0x80 DUP7 DUP9 SUB SLT ISZERO PUSH2 0x57D4 JUMPI PUSH1 0x0 DUP1 REVERT JUMPDEST DUP6 CALLDATALOAD PUSH8 0xFFFFFFFFFFFFFFFF DUP1 DUP3 GT ISZERO PUSH2 0x57EC JUMPI PUSH1 0x0 DUP1 REVERT JUMPDEST SWAP1 DUP8 ADD SWAP1 PUSH1 0xA0 DUP3 DUP11 SUB SLT ISZERO PUSH2 0x5800 JUMPI PUSH1 0x0 DUP1 REVERT JUMPDEST SWAP1 SWAP6 POP PUSH1 0x20 DUP8 ADD CALLDATALOAD SWAP1 DUP1 DUP3 GT ISZERO PUSH2 0x5816 JUMPI PUSH1 0x0 DUP1 REVERT JUMPDEST POP PUSH2 0x5823 DUP9 DUP3 DUP10 ADD PUSH2 0x53E3 JUMP JUMPDEST SWAP1 SWAP6 POP SWAP4 POP POP PUSH1 0x40 DUP7 ADD CALLDATALOAD SWAP2 POP PUSH1 0x60 DUP7 ADD CALLDATALOAD PUSH2 0x583E DUP2 PUSH2 0x542F JUMP JUMPDEST DUP1 SWAP2 POP POP SWAP3 SWAP6 POP SWAP3 SWAP6 SWAP1 SWAP4 POP JUMP JUMPDEST PUSH1 0x0 DUP1 PUSH1 0x0 DUP1 PUSH1 0x0 DUP1 PUSH1 0x0 DUP1 PUSH1 0xA0 DUP10 DUP12 SUB SLT ISZERO PUSH2 0x5868 JUMPI PUSH1 0x0 DUP1 REVERT JUMPDEST DUP9 CALLDATALOAD PUSH8 0xFFFFFFFFFFFFFFFF DUP1 DUP3 GT ISZERO PUSH2 0x5880 JUMPI PUSH1 0x0 DUP1 REVERT JUMPDEST PUSH2 0x588C DUP13 DUP4 DUP14 ADD PUSH2 0x53E3 JUMP JUMPDEST SWAP1 SWAP11 POP SWAP9 POP PUSH1 0x20 DUP12 ADD CALLDATALOAD SWAP2 POP DUP1 DUP3 GT ISZERO PUSH2 0x58A5 JUMPI PUSH1 0x0 DUP1 REVERT JUMPDEST PUSH2 0x58B1 DUP13 DUP4 DUP14 ADD PUSH2 0x53E3 JUMP JUMPDEST SWAP1 SWAP9 POP SWAP7 POP PUSH1 0x40 DUP12 ADD CALLDATALOAD SWAP2 POP DUP1 DUP3 GT ISZERO PUSH2 0x58CA JUMPI PUSH1 0x0 DUP1 REVERT JUMPDEST POP PUSH2 0x58D7 DUP12 DUP3 DUP13 ADD PUSH2 0x53E3 JUMP JUMPDEST SWAP10 SWAP13 SWAP9 SWAP12 POP SWAP7 SWAP10 SWAP6 SWAP9 SWAP7 SWAP8 PUSH1 0x60 DUP8 ADD CALLDATALOAD SWAP7 PUSH1 0x80 ADD CALLDATALOAD SWAP6 POP SWAP4 POP POP POP POP JUMP JUMPDEST PUSH1 0x0 DUP1 PUSH1 0x0 DUP1 PUSH1 0x0 DUP1 PUSH1 0x0 PUSH1 0x80 DUP9 DUP11 SUB SLT ISZERO PUSH2 0x5910 JUMPI PUSH1 0x0 DUP1 REVERT JUMPDEST DUP8 CALLDATALOAD PUSH8 0xFFFFFFFFFFFFFFFF DUP1 DUP3 GT ISZERO PUSH2 0x5928 JUMPI PUSH1 0x0 DUP1 REVERT JUMPDEST PUSH2 0x5934 DUP12 DUP4 DUP13 ADD PUSH2 0x53E3 JUMP JUMPDEST SWAP1 SWAP10 POP SWAP8 POP PUSH1 0x20 DUP11 ADD CALLDATALOAD SWAP2 POP DUP1 DUP3 GT ISZERO PUSH2 0x594D JUMPI PUSH1 0x0 DUP1 REVERT JUMPDEST PUSH2 0x5959 DUP12 DUP4 DUP13 ADD PUSH2 0x53E3 JUMP JUMPDEST SWAP1 SWAP8 POP SWAP6 POP PUSH1 0x40 DUP11 ADD CALLDATALOAD SWAP2 POP DUP1 DUP3 GT ISZERO PUSH2 0x5972 JUMPI PUSH1 0x0 DUP1 REVERT JUMPDEST POP PUSH2 0x597F DUP11 DUP3 DUP12 ADD PUSH2 0x53E3 JUMP JUMPDEST SWAP1 SWAP5 POP SWAP3 POP POP PUSH1 0x60 DUP9 ADD CALLDATALOAD PUSH2 0x5993 DUP2 PUSH2 0x542F JUMP JUMPDEST DUP1 SWAP2 POP POP SWAP3 SWAP6 SWAP9 SWAP2 SWAP5 SWAP8 POP SWAP3 SWAP6 POP JUMP JUMPDEST PUSH1 0x60 DUP2 MSTORE PUSH1 0x0 PUSH2 0x59B6 PUSH1 0x60 DUP4 ADD DUP7 PUSH2 0x5317 JUMP JUMPDEST SWAP1 POP DUP4 PUSH1 0x20 DUP4 ADD MSTORE PUSH20 0xFFFFFFFFFFFFFFFFFFFFFFFFFFFFFFFFFFFFFFFF DUP4 AND PUSH1 0x40 DUP4 ADD MSTORE SWAP5 SWAP4 POP POP POP POP JUMP JUMPDEST PUSH32 0x4E487B7100000000000000000000000000000000000000000000000000000000 PUSH1 0x0 MSTORE PUSH1 0x41 PUSH1 0x4 MSTORE PUSH1 0x24 PUSH1 0x0 REVERT JUMPDEST PUSH32 0x4E487B7100000000000000000000000000000000000000000000000000000000 PUSH1 0x0 MSTORE PUSH1 0x32 PUSH1 0x4 MSTORE PUSH1 0x24 PUSH1 0x0 REVERT JUMPDEST PUSH1 0x0 DUP2 MLOAD DUP1 DUP5 MSTORE PUSH1 0x20 DUP1 DUP6 ADD SWAP5 POP DUP1 DUP5 ADD PUSH1 0x0 JUMPDEST DUP4 DUP2 LT ISZERO PUSH2 0x563A JUMPI DUP2 MLOAD PUSH2 0x5A69 DUP9 DUP3 MLOAD PUSH2 0x5574 JUMP JUMPDEST DUP1 DUP5 ADD MLOAD PUSH20 0xFFFFFFFFFFFFFFFFFFFFFFFFFFFFFFFFFFFFFFFF AND DUP9 DUP6 ADD MSTORE PUSH1 0x40 DUP1 DUP3 ADD MLOAD SWAP1 DUP10 ADD MSTORE PUSH1 0x60 DUP1 DUP3 ADD MLOAD SWAP1 DUP10 ADD MSTORE PUSH1 0x80 SWAP1 DUP2 ADD MLOAD SWAP1 DUP9 ADD MSTORE PUSH1 0xA0 SWAP1 SWAP7 ADD SWAP6 SWAP1 DUP3 ADD SWAP1 PUSH1 0x1 ADD PUSH2 0x5A54 JUMP JUMPDEST PUSH1 0x0 DUP2 MLOAD DUP1 DUP5 MSTORE PUSH1 0x20 DUP1 DUP6 ADD SWAP5 POP DUP1 DUP5 ADD PUSH1 0x0 JUMPDEST DUP4 DUP2 LT ISZERO PUSH2 0x563A JUMPI DUP2 MLOAD PUSH2 0x5AE0 DUP9 DUP3 MLOAD PUSH2 0x5574 JUMP JUMPDEST DUP1 DUP5 ADD MLOAD PUSH20 0xFFFFFFFFFFFFFFFFFFFFFFFFFFFFFFFFFFFFFFFF SWAP1 DUP2 AND DUP10 DUP7 ADD MSTORE PUSH1 0x40 DUP1 DUP4 ADD MLOAD SWAP1 DUP11 ADD MSTORE PUSH1 0x60 DUP1 DUP4 ADD MLOAD SWAP1 DUP11 ADD MSTORE PUSH1 0x80 DUP1 DUP4 ADD MLOAD SWAP1 DUP11 ADD MSTORE PUSH1 0xA0 SWAP2 DUP3 ADD MLOAD AND SWAP1 DUP9 ADD MSTORE PUSH1 0xC0 SWAP1 SWAP7 ADD SWAP6 SWAP1 DUP3 ADD SWAP1 PUSH1 0x1 ADD PUSH2 0x5ACB JUMP JUMPDEST PUSH1 0x5 DUP2 LT PUSH2 0x1B06 JUMPI PUSH2 0x1B06 PUSH2 0x5545 JUMP JUMPDEST DUP3 DUP2 MSTORE PUSH1 0x40 PUSH1 0x20 DUP3 ADD MSTORE PUSH2 0x5B78 PUSH1 0x40 DUP3 ADD DUP4 MLOAD PUSH20 0xFFFFFFFFFFFFFFFFFFFFFFFFFFFFFFFFFFFFFFFF AND SWAP1 MSTORE JUMP JUMPDEST PUSH1 0x0 PUSH1 0x20 DUP4 ADD MLOAD PUSH2 0x5BA1 PUSH1 0x60 DUP5 ADD DUP3 PUSH20 0xFFFFFFFFFFFFFFFFFFFFFFFFFFFFFFFFFFFFFFFF AND SWAP1 MSTORE JUMP JUMPDEST POP PUSH1 0x40 DUP4 ADD MLOAD PUSH2 0x160 DUP1 PUSH1 0x80 DUP6 ADD MSTORE PUSH2 0x5BBE PUSH2 0x1A0 DUP6 ADD DUP4 PUSH2 0x5A40 JUMP JUMPDEST SWAP2 POP PUSH1 0x60 DUP6 ADD MLOAD PUSH32 0xFFFFFFFFFFFFFFFFFFFFFFFFFFFFFFFFFFFFFFFFFFFFFFFFFFFFFFFFFFFFFFC0 DUP6 DUP5 SUB ADD PUSH1 0xA0 DUP7 ADD MSTORE PUSH2 0x5BF9 DUP4 DUP3 PUSH2 0x5AB7 JUMP JUMPDEST SWAP3 POP POP PUSH1 0x80 DUP6 ADD MLOAD PUSH2 0x5C0E PUSH1 0xC0 DUP7 ADD DUP3 PUSH2 0x5B3B JUMP JUMPDEST POP PUSH1 0xA0 DUP6 ADD MLOAD PUSH1 0xE0 DUP6 ADD MSTORE PUSH1 0xC0 DUP6 ADD MLOAD PUSH2 0x100 DUP2 DUP2 DUP8 ADD MSTORE PUSH1 0xE0 DUP8 ADD MLOAD SWAP2 POP PUSH2 0x120 DUP3 DUP2 DUP9 ADD MSTORE DUP2 DUP9 ADD MLOAD SWAP3 POP PUSH2 0x140 SWAP2 POP DUP3 DUP3 DUP9 ADD MSTORE DUP1 DUP9 ADD MLOAD DUP5 DUP9 ADD MSTORE POP DUP1 DUP8 ADD MLOAD PUSH2 0x180 DUP8 ADD MSTORE POP POP POP DUP1 SWAP2 POP POP SWAP4 SWAP3 POP POP POP JUMP JUMPDEST PUSH1 0x0 DUP3 CALLDATALOAD PUSH32 0xFFFFFFFFFFFFFFFFFFFFFFFFFFFFFFFFFFFFFFFFFFFFFFFFFFFFFFFFFFFFFEA1 DUP4 CALLDATASIZE SUB ADD DUP2 SLT PUSH2 0x5C9A JUMPI PUSH1 0x0 DUP1 REVERT JUMPDEST SWAP2 SWAP1 SWAP2 ADD SWAP3 SWAP2 POP POP JUMP JUMPDEST PUSH1 0x0 PUSH1 0x20 DUP3 DUP5 SUB SLT ISZERO PUSH2 0x5CB6 JUMPI PUSH1 0x0 DUP1 REVERT JUMPDEST DUP2 CALLDATALOAD PUSH1 0x5 DUP2 LT PUSH2 0x400 JUMPI PUSH1 0x0 DUP1 REVERT JUMPDEST PUSH1 0x0 DUP1 DUP4 CALLDATALOAD PUSH32 0xFFFFFFFFFFFFFFFFFFFFFFFFFFFFFFFFFFFFFFFFFFFFFFFFFFFFFFFFFFFFFFE1 DUP5 CALLDATASIZE SUB ADD DUP2 SLT PUSH2 0x5CFA JUMPI PUSH1 0x0 DUP1 REVERT JUMPDEST DUP4 ADD DUP1 CALLDATALOAD SWAP2 POP PUSH8 0xFFFFFFFFFFFFFFFF DUP3 GT ISZERO PUSH2 0x5D15 JUMPI PUSH1 0x0 DUP1 REVERT JUMPDEST PUSH1 0x20 ADD SWAP2 POP CALLDATASIZE DUP2 SWAP1 SUB DUP3 SGT ISZERO PUSH2 0x5428 JUMPI PUSH1 0x0 DUP1 REVERT JUMPDEST PUSH32 0x4E487B7100000000000000000000000000000000000000000000000000000000 PUSH1 0x0 MSTORE PUSH1 0x11 PUSH1 0x4 MSTORE PUSH1 0x24 PUSH1 0x0 REVERT JUMPDEST DUP2 DUP2 SUB DUP2 DUP2 GT ISZERO PUSH2 0x3B0 JUMPI PUSH2 0x3B0 PUSH2 0x5D2A JUMP JUMPDEST DUP1 DUP3 ADD DUP1 DUP3 GT ISZERO PUSH2 0x3B0 JUMPI PUSH2 0x3B0 PUSH2 0x5D2A JUMP JUMPDEST PUSH1 0x0 DUP2 MLOAD DUP1 DUP5 MSTORE PUSH1 0x20 DUP1 DUP6 ADD SWAP5 POP DUP1 DUP5 ADD PUSH1 0x0 JUMPDEST DUP4 DUP2 LT ISZERO PUSH2 0x563A JUMPI PUSH2 0x5DA6 DUP8 DUP4 MLOAD PUSH2 0x5584 JUMP JUMPDEST PUSH1 0xA0 SWAP7 SWAP1 SWAP7 ADD SWAP6 SWAP1 DUP3 ADD SWAP1 PUSH1 0x1 ADD PUSH2 0x5D93 JUMP JUMPDEST PUSH1 0x0 PUSH1 0x80 DUP1 DUP4 ADD DUP8 DUP5 MSTORE PUSH1 0x20 PUSH20 0xFFFFFFFFFFFFFFFFFFFFFFFFFFFFFFFFFFFFFFFF DUP1 DUP10 AND DUP3 DUP8 ADD MSTORE PUSH1 0x40 DUP5 DUP2 DUP9 ADD MSTORE DUP4 DUP10 MLOAD DUP1 DUP7 MSTORE PUSH1 0xA0 DUP10 ADD SWAP2 POP DUP5 DUP12 ADD SWAP6 POP PUSH1 0x0 JUMPDEST DUP2 DUP2 LT ISZERO PUSH2 0x5E3D JUMPI DUP7 MLOAD PUSH2 0x5E11 DUP5 DUP3 MLOAD PUSH2 0x5574 JUMP JUMPDEST DUP1 DUP8 ADD MLOAD DUP7 AND DUP5 DUP9 ADD MSTORE DUP5 DUP2 ADD MLOAD DUP6 DUP6 ADD MSTORE PUSH1 0x60 SWAP1 DUP2 ADD MLOAD SWAP1 DUP5 ADD MSTORE SWAP6 DUP6 ADD SWAP6 SWAP2 DUP8 ADD SWAP2 PUSH1 0x1 ADD PUSH2 0x5DFC JUMP JUMPDEST POP POP DUP8 DUP2 SUB PUSH1 0x60 DUP10 ADD MSTORE PUSH2 0x5E51 DUP2 DUP11 PUSH2 0x5D7F JUMP JUMPDEST SWAP13 SWAP12 POP POP POP POP POP POP POP POP POP POP POP POP JUMP JUMPDEST DUP1 DUP3 MUL DUP2 ISZERO DUP3 DUP3 DIV DUP5 EQ OR PUSH2 0x3B0 JUMPI PUSH2 0x3B0 PUSH2 0x5D2A JUMP INVALID LOG2 PUSH5 0x6970667358 0x22 SLT KECCAK256 0xB0 0xAA PUSH24 0x1A70D47335A348AE797BDC1B3515A6D80873534F660F5293 SWAP8 MULMOD CALLDATALOAD SHR 0xE2 PUSH5 0x736F6C6343 STOP ADDMOD GT STOP CALLER NUMBER PUSH16 0x6E73696465726174696F6E4974656D28 PUSH22 0x696E7438206974656D547970652C6164647265737320 PUSH21 0x6F6B656E2C75696E74323536206964656E74696669 PUSH6 0x724F72437269 PUSH21 0x657269612C75696E74323536207374617274416D6F PUSH22 0x6E742C75696E7432353620656E64416D6F756E742C61 PUSH5 0x6472657373 KECCAK256 PUSH19 0x6563697069656E7429454950373132446F6D61 PUSH10 0x6E28737472696E67206E PUSH2 0x6D65 0x2C PUSH20 0x7472696E672076657273696F6E2C75696E743235 CALLDATASIZE KECCAK256 PUSH4 0x6861696E 0x49 PUSH5 0x2C61646472 PUSH6 0x737320766572 PUSH10 0x6679696E67436F6E7472 PUSH2 0x6374 0x29 0x4F PUSH19 0x646572436F6D706F6E656E7473286164647265 PUSH20 0x73206F6666657265722C61646472657373207A6F PUSH15 0x652C4F666665724974656D5B5D206F PUSH7 0x6665722C436F6E PUSH20 0x696465726174696F6E4974656D5B5D20636F6E73 PUSH10 0x6465726174696F6E2C75 PUSH10 0x6E7438206F7264657254 PUSH26 0x70652C75696E7432353620737461727454696D652C75696E7432 CALLDATALOAD CALLDATASIZE KECCAK256 PUSH6 0x6E6454696D65 0x2C PUSH3 0x797465 PUSH20 0x3332207A6F6E65486173682C75696E7432353620 PUSH20 0x616C742C6279746573333220636F6E647569744B PUSH6 0x792C75696E74 ORIGIN CALLDATALOAD CALLDATASIZE KECCAK256 PUSH4 0x6F756E74 PUSH6 0x72294F666665 PUSH19 0x4974656D2875696E7438206974656D54797065 0x2C PUSH2 0x6464 PUSH19 0x65737320746F6B656E2C75696E743235362069 PUSH5 0x656E746966 PUSH10 0x65724F72437269746572 PUSH10 0x612C75696E7432353620 PUSH20 0x74617274416D6F756E742C75696E743235362065 PUSH15 0x64416D6F756E742900000000000000 "
		},
		"gasEstimates": {
			"creation": {
				"codeDepositCost": "4847600",
				"executionCost": "infinite",
				"totalCost": "infinite"
			},
			"external": {
				"cancel((address,address,(uint8,address,uint256,uint256,uint256)[],(uint8,address,uint256,uint256,uint256,address)[],uint8,uint256,uint256,bytes32,uint256,bytes32,uint256)[])": "infinite",
				"fulfillAdvancedOrder(((address,address,(uint8,address,uint256,uint256,uint256)[],(uint8,address,uint256,uint256,uint256,address)[],uint8,uint256,uint256,bytes32,uint256,bytes32,uint256),uint120,uint120,bytes,bytes),(uint256,uint8,uint256,uint256,bytes32[])[],bytes32,address)": "infinite",
				"fulfillAvailableAdvancedOrders(((address,address,(uint8,address,uint256,uint256,uint256)[],(uint8,address,uint256,uint256,uint256,address)[],uint8,uint256,uint256,bytes32,uint256,bytes32,uint256),uint120,uint120,bytes,bytes)[],(uint256,uint8,uint256,uint256,bytes32[])[],(uint256,uint256)[][],(uint256,uint256)[][],bytes32,address,uint256)": "infinite",
				"fulfillAvailableOrders(((address,address,(uint8,address,uint256,uint256,uint256)[],(uint8,address,uint256,uint256,uint256,address)[],uint8,uint256,uint256,bytes32,uint256,bytes32,uint256),bytes)[],(uint256,uint256)[][],(uint256,uint256)[][],bytes32,uint256)": "infinite",
				"fulfillBasicOrder((address,uint256,uint256,address,address,address,uint256,uint256,uint8,uint256,uint256,bytes32,uint256,bytes32,bytes32,uint256,(uint256,address)[],bytes))": "infinite",
				"fulfillBasicOrder_efficient_6GL6yc((address,uint256,uint256,address,address,address,uint256,uint256,uint8,uint256,uint256,bytes32,uint256,bytes32,bytes32,uint256,(uint256,address)[],bytes))": "infinite",
				"fulfillOrder(((address,address,(uint8,address,uint256,uint256,uint256)[],(uint8,address,uint256,uint256,uint256,address)[],uint8,uint256,uint256,bytes32,uint256,bytes32,uint256),bytes),bytes32)": "infinite",
				"getContractOffererNonce(address)": "1230",
				"getCounter(address)": "1286",
				"getOrderHash((address,address,(uint8,address,uint256,uint256,uint256)[],(uint8,address,uint256,uint256,uint256,address)[],uint8,uint256,uint256,bytes32,uint256,bytes32,uint256))": "infinite",
				"getOrderStatus(bytes32)": "1344",
				"incrementCounter()": "23548",
				"information()": "infinite",
				"matchAdvancedOrders(((address,address,(uint8,address,uint256,uint256,uint256)[],(uint8,address,uint256,uint256,uint256,address)[],uint8,uint256,uint256,bytes32,uint256,bytes32,uint256),uint120,uint120,bytes,bytes)[],(uint256,uint8,uint256,uint256,bytes32[])[],((uint256,uint256)[],(uint256,uint256)[])[],address)": "infinite",
				"matchOrders(((address,address,(uint8,address,uint256,uint256,uint256)[],(uint8,address,uint256,uint256,uint256,address)[],uint8,uint256,uint256,bytes32,uint256,bytes32,uint256),bytes)[],((uint256,uint256)[],(uint256,uint256)[])[])": "infinite",
				"name()": "226",
				"validate(((address,address,(uint8,address,uint256,uint256,uint256)[],(uint8,address,uint256,uint256,uint256,address)[],uint8,uint256,uint256,bytes32,uint256,bytes32,uint256),bytes)[])": "infinite"
			},
			"internal": {
				"_name()": "40",
				"_nameString()": "infinite"
			}
		},
		"methodIdentifiers": {
			"cancel((address,address,(uint8,address,uint256,uint256,uint256)[],(uint8,address,uint256,uint256,uint256,address)[],uint8,uint256,uint256,bytes32,uint256,bytes32,uint256)[])": "fd9f1e10",
			"fulfillAdvancedOrder(((address,address,(uint8,address,uint256,uint256,uint256)[],(uint8,address,uint256,uint256,uint256,address)[],uint8,uint256,uint256,bytes32,uint256,bytes32,uint256),uint120,uint120,bytes,bytes),(uint256,uint8,uint256,uint256,bytes32[])[],bytes32,address)": "e7acab24",
			"fulfillAvailableAdvancedOrders(((address,address,(uint8,address,uint256,uint256,uint256)[],(uint8,address,uint256,uint256,uint256,address)[],uint8,uint256,uint256,bytes32,uint256,bytes32,uint256),uint120,uint120,bytes,bytes)[],(uint256,uint8,uint256,uint256,bytes32[])[],(uint256,uint256)[][],(uint256,uint256)[][],bytes32,address,uint256)": "87201b41",
			"fulfillAvailableOrders(((address,address,(uint8,address,uint256,uint256,uint256)[],(uint8,address,uint256,uint256,uint256,address)[],uint8,uint256,uint256,bytes32,uint256,bytes32,uint256),bytes)[],(uint256,uint256)[][],(uint256,uint256)[][],bytes32,uint256)": "ed98a574",
			"fulfillBasicOrder((address,uint256,uint256,address,address,address,uint256,uint256,uint8,uint256,uint256,bytes32,uint256,bytes32,bytes32,uint256,(uint256,address)[],bytes))": "fb0f3ee1",
			"fulfillBasicOrder_efficient_6GL6yc((address,uint256,uint256,address,address,address,uint256,uint256,uint8,uint256,uint256,bytes32,uint256,bytes32,bytes32,uint256,(uint256,address)[],bytes))": "00000000",
			"fulfillOrder(((address,address,(uint8,address,uint256,uint256,uint256)[],(uint8,address,uint256,uint256,uint256,address)[],uint8,uint256,uint256,bytes32,uint256,bytes32,uint256),bytes),bytes32)": "b3a34c4c",
			"getContractOffererNonce(address)": "a900866b",
			"getCounter(address)": "f07ec373",
			"getOrderHash((address,address,(uint8,address,uint256,uint256,uint256)[],(uint8,address,uint256,uint256,uint256,address)[],uint8,uint256,uint256,bytes32,uint256,bytes32,uint256))": "79df72bd",
			"getOrderStatus(bytes32)": "46423aa7",
			"incrementCounter()": "5b34b966",
			"information()": "f47b7740",
			"matchAdvancedOrders(((address,address,(uint8,address,uint256,uint256,uint256)[],(uint8,address,uint256,uint256,uint256,address)[],uint8,uint256,uint256,bytes32,uint256,bytes32,uint256),uint120,uint120,bytes,bytes)[],(uint256,uint8,uint256,uint256,bytes32[])[],((uint256,uint256)[],(uint256,uint256)[])[],address)": "f2d12b12",
			"matchOrders(((address,address,(uint8,address,uint256,uint256,uint256)[],(uint8,address,uint256,uint256,uint256,address)[],uint8,uint256,uint256,bytes32,uint256,bytes32,uint256),bytes)[],((uint256,uint256)[],(uint256,uint256)[])[])": "a8174404",
			"name()": "06fdde03",
			"validate(((address,address,(uint8,address,uint256,uint256,uint256)[],(uint8,address,uint256,uint256,uint256,address)[],uint8,uint256,uint256,bytes32,uint256,bytes32,uint256),bytes)[])": "88147732"
		}
	},
	"abi": [
		{
			"inputs": [
				{
					"internalType": "address",
					"name": "conduitController",
					"type": "address"
				}
			],
			"stateMutability": "nonpayable",
			"type": "constructor"
		},
		{
			"inputs": [],
			"name": "BadContractSignature",
			"type": "error"
		},
		{
			"inputs": [],
			"name": "BadFraction",
			"type": "error"
		},
		{
			"inputs": [
				{
					"internalType": "address",
					"name": "token",
					"type": "address"
				},
				{
					"internalType": "address",
					"name": "from",
					"type": "address"
				},
				{
					"internalType": "address",
					"name": "to",
					"type": "address"
				},
				{
					"internalType": "uint256",
					"name": "amount",
					"type": "uint256"
				}
			],
			"name": "BadReturnValueFromERC20OnTransfer",
			"type": "error"
		},
		{
			"inputs": [
				{
					"internalType": "uint8",
					"name": "v",
					"type": "uint8"
				}
			],
			"name": "BadSignatureV",
			"type": "error"
		},
		{
			"inputs": [],
			"name": "CannotCancelOrder",
			"type": "error"
		},
		{
			"inputs": [],
			"name": "ConsiderationCriteriaResolverOutOfRange",
			"type": "error"
		},
		{
			"inputs": [],
			"name": "ConsiderationLengthNotEqualToTotalOriginal",
			"type": "error"
		},
		{
			"inputs": [
				{
					"internalType": "uint256",
					"name": "orderIndex",
					"type": "uint256"
				},
				{
					"internalType": "uint256",
					"name": "considerationIndex",
					"type": "uint256"
				},
				{
					"internalType": "uint256",
					"name": "shortfallAmount",
					"type": "uint256"
				}
			],
			"name": "ConsiderationNotMet",
			"type": "error"
		},
		{
			"inputs": [],
			"name": "CriteriaNotEnabledForItem",
			"type": "error"
		},
		{
			"inputs": [
				{
					"internalType": "address",
					"name": "token",
					"type": "address"
				},
				{
					"internalType": "address",
					"name": "from",
					"type": "address"
				},
				{
					"internalType": "address",
					"name": "to",
					"type": "address"
				},
				{
					"internalType": "uint256[]",
					"name": "identifiers",
					"type": "uint256[]"
				},
				{
					"internalType": "uint256[]",
					"name": "amounts",
					"type": "uint256[]"
				}
			],
			"name": "ERC1155BatchTransferGenericFailure",
			"type": "error"
		},
		{
			"inputs": [],
			"name": "InexactFraction",
			"type": "error"
		},
		{
			"inputs": [],
			"name": "InsufficientNativeTokensSupplied",
			"type": "error"
		},
		{
			"inputs": [],
			"name": "Invalid1155BatchTransferEncoding",
			"type": "error"
		},
		{
			"inputs": [],
			"name": "InvalidBasicOrderParameterEncoding",
			"type": "error"
		},
		{
			"inputs": [
				{
					"internalType": "address",
					"name": "conduit",
					"type": "address"
				}
			],
			"name": "InvalidCallToConduit",
			"type": "error"
		},
		{
			"inputs": [
				{
					"internalType": "bytes32",
					"name": "conduitKey",
					"type": "bytes32"
				},
				{
					"internalType": "address",
					"name": "conduit",
					"type": "address"
				}
			],
			"name": "InvalidConduit",
			"type": "error"
		},
		{
			"inputs": [
				{
					"internalType": "bytes32",
					"name": "orderHash",
					"type": "bytes32"
				}
			],
			"name": "InvalidContractOrder",
			"type": "error"
		},
		{
			"inputs": [
				{
					"internalType": "uint256",
					"name": "amount",
					"type": "uint256"
				}
			],
			"name": "InvalidERC721TransferAmount",
			"type": "error"
		},
		{
			"inputs": [],
			"name": "InvalidFulfillmentComponentData",
			"type": "error"
		},
		{
			"inputs": [
				{
					"internalType": "uint256",
					"name": "value",
					"type": "uint256"
				}
			],
			"name": "InvalidMsgValue",
			"type": "error"
		},
		{
			"inputs": [],
			"name": "InvalidNativeOfferItem",
			"type": "error"
		},
		{
			"inputs": [],
			"name": "InvalidProof",
			"type": "error"
		},
		{
			"inputs": [
				{
					"internalType": "bytes32",
					"name": "orderHash",
					"type": "bytes32"
				}
			],
			"name": "InvalidRestrictedOrder",
			"type": "error"
		},
		{
			"inputs": [],
			"name": "InvalidSignature",
			"type": "error"
		},
		{
			"inputs": [],
			"name": "InvalidSigner",
			"type": "error"
		},
		{
			"inputs": [
				{
					"internalType": "uint256",
					"name": "startTime",
					"type": "uint256"
				},
				{
					"internalType": "uint256",
					"name": "endTime",
					"type": "uint256"
				}
			],
			"name": "InvalidTime",
			"type": "error"
		},
		{
			"inputs": [
				{
					"internalType": "uint256",
					"name": "fulfillmentIndex",
					"type": "uint256"
				}
			],
			"name": "MismatchedFulfillmentOfferAndConsiderationComponents",
			"type": "error"
		},
		{
			"inputs": [
				{
					"internalType": "enum Side",
					"name": "side",
					"type": "uint8"
				}
			],
			"name": "MissingFulfillmentComponentOnAggregation",
			"type": "error"
		},
		{
			"inputs": [],
			"name": "MissingItemAmount",
			"type": "error"
		},
		{
			"inputs": [],
			"name": "MissingOriginalConsiderationItems",
			"type": "error"
		},
		{
			"inputs": [
				{
					"internalType": "address",
					"name": "account",
					"type": "address"
				},
				{
					"internalType": "uint256",
					"name": "amount",
					"type": "uint256"
				}
			],
			"name": "NativeTokenTransferGenericFailure",
			"type": "error"
		},
		{
			"inputs": [
				{
					"internalType": "address",
					"name": "account",
					"type": "address"
				}
			],
			"name": "NoContract",
			"type": "error"
		},
		{
			"inputs": [],
			"name": "NoReentrantCalls",
			"type": "error"
		},
		{
			"inputs": [],
			"name": "NoSpecifiedOrdersAvailable",
			"type": "error"
		},
		{
			"inputs": [],
			"name": "OfferAndConsiderationRequiredOnFulfillment",
			"type": "error"
		},
		{
			"inputs": [],
			"name": "OfferCriteriaResolverOutOfRange",
			"type": "error"
		},
		{
			"inputs": [
				{
					"internalType": "bytes32",
					"name": "orderHash",
					"type": "bytes32"
				}
			],
			"name": "OrderAlreadyFilled",
			"type": "error"
		},
		{
			"inputs": [
				{
					"internalType": "enum Side",
					"name": "side",
					"type": "uint8"
				}
			],
			"name": "OrderCriteriaResolverOutOfRange",
			"type": "error"
		},
		{
			"inputs": [
				{
					"internalType": "bytes32",
					"name": "orderHash",
					"type": "bytes32"
				}
			],
			"name": "OrderIsCancelled",
			"type": "error"
		},
		{
			"inputs": [
				{
					"internalType": "bytes32",
					"name": "orderHash",
					"type": "bytes32"
				}
			],
			"name": "OrderPartiallyFilled",
			"type": "error"
		},
		{
			"inputs": [],
			"name": "PartialFillsNotEnabledForOrder",
			"type": "error"
		},
		{
			"inputs": [
				{
					"internalType": "address",
					"name": "token",
					"type": "address"
				},
				{
					"internalType": "address",
					"name": "from",
					"type": "address"
				},
				{
					"internalType": "address",
					"name": "to",
					"type": "address"
				},
				{
					"internalType": "uint256",
					"name": "identifier",
					"type": "uint256"
				},
				{
					"internalType": "uint256",
					"name": "amount",
					"type": "uint256"
				}
			],
			"name": "TokenTransferGenericFailure",
			"type": "error"
		},
		{
			"inputs": [
				{
					"internalType": "uint256",
					"name": "orderIndex",
					"type": "uint256"
				},
				{
					"internalType": "uint256",
					"name": "considerationIndex",
					"type": "uint256"
				}
			],
			"name": "UnresolvedConsiderationCriteria",
			"type": "error"
		},
		{
			"inputs": [
				{
					"internalType": "uint256",
					"name": "orderIndex",
					"type": "uint256"
				},
				{
					"internalType": "uint256",
					"name": "offerIndex",
					"type": "uint256"
				}
			],
			"name": "UnresolvedOfferCriteria",
			"type": "error"
		},
		{
			"inputs": [],
			"name": "UnusedItemParameters",
			"type": "error"
		},
		{
			"anonymous": false,
			"inputs": [
				{
					"indexed": false,
					"internalType": "uint256",
					"name": "newCounter",
					"type": "uint256"
				},
				{
					"indexed": true,
					"internalType": "address",
					"name": "offerer",
					"type": "address"
				}
			],
			"name": "CounterIncremented",
			"type": "event"
		},
		{
			"anonymous": false,
			"inputs": [
				{
					"indexed": false,
					"internalType": "bytes32",
					"name": "orderHash",
					"type": "bytes32"
				},
				{
					"indexed": true,
					"internalType": "address",
					"name": "offerer",
					"type": "address"
				},
				{
					"indexed": true,
					"internalType": "address",
					"name": "zone",
					"type": "address"
				}
			],
			"name": "OrderCancelled",
			"type": "event"
		},
		{
			"anonymous": false,
			"inputs": [
				{
					"indexed": false,
					"internalType": "bytes32",
					"name": "orderHash",
					"type": "bytes32"
				},
				{
					"indexed": true,
					"internalType": "address",
					"name": "offerer",
					"type": "address"
				},
				{
					"indexed": true,
					"internalType": "address",
					"name": "zone",
					"type": "address"
				},
				{
					"indexed": false,
					"internalType": "address",
					"name": "recipient",
					"type": "address"
				},
				{
					"components": [
						{
							"internalType": "enum ItemType",
							"name": "itemType",
							"type": "uint8"
						},
						{
							"internalType": "address",
							"name": "token",
							"type": "address"
						},
						{
							"internalType": "uint256",
							"name": "identifier",
							"type": "uint256"
						},
						{
							"internalType": "uint256",
							"name": "amount",
							"type": "uint256"
						}
					],
					"indexed": false,
					"internalType": "struct SpentItem[]",
					"name": "offer",
					"type": "tuple[]"
				},
				{
					"components": [
						{
							"internalType": "enum ItemType",
							"name": "itemType",
							"type": "uint8"
						},
						{
							"internalType": "address",
							"name": "token",
							"type": "address"
						},
						{
							"internalType": "uint256",
							"name": "identifier",
							"type": "uint256"
						},
						{
							"internalType": "uint256",
							"name": "amount",
							"type": "uint256"
						},
						{
							"internalType": "address payable",
							"name": "recipient",
							"type": "address"
						}
					],
					"indexed": false,
					"internalType": "struct ReceivedItem[]",
					"name": "consideration",
					"type": "tuple[]"
				}
			],
			"name": "OrderFulfilled",
			"type": "event"
		},
		{
			"anonymous": false,
			"inputs": [
				{
					"indexed": false,
					"internalType": "bytes32",
					"name": "orderHash",
					"type": "bytes32"
				},
				{
					"components": [
						{
							"internalType": "address",
							"name": "offerer",
							"type": "address"
						},
						{
							"internalType": "address",
							"name": "zone",
							"type": "address"
						},
						{
							"components": [
								{
									"internalType": "enum ItemType",
									"name": "itemType",
									"type": "uint8"
								},
								{
									"internalType": "address",
									"name": "token",
									"type": "address"
								},
								{
									"internalType": "uint256",
									"name": "identifierOrCriteria",
									"type": "uint256"
								},
								{
									"internalType": "uint256",
									"name": "startAmount",
									"type": "uint256"
								},
								{
									"internalType": "uint256",
									"name": "endAmount",
									"type": "uint256"
								}
							],
							"internalType": "struct OfferItem[]",
							"name": "offer",
							"type": "tuple[]"
						},
						{
							"components": [
								{
									"internalType": "enum ItemType",
									"name": "itemType",
									"type": "uint8"
								},
								{
									"internalType": "address",
									"name": "token",
									"type": "address"
								},
								{
									"internalType": "uint256",
									"name": "identifierOrCriteria",
									"type": "uint256"
								},
								{
									"internalType": "uint256",
									"name": "startAmount",
									"type": "uint256"
								},
								{
									"internalType": "uint256",
									"name": "endAmount",
									"type": "uint256"
								},
								{
									"internalType": "address payable",
									"name": "recipient",
									"type": "address"
								}
							],
							"internalType": "struct ConsiderationItem[]",
							"name": "consideration",
							"type": "tuple[]"
						},
						{
							"internalType": "enum OrderType",
							"name": "orderType",
							"type": "uint8"
						},
						{
							"internalType": "uint256",
							"name": "startTime",
							"type": "uint256"
						},
						{
							"internalType": "uint256",
							"name": "endTime",
							"type": "uint256"
						},
						{
							"internalType": "bytes32",
							"name": "zoneHash",
							"type": "bytes32"
						},
						{
							"internalType": "uint256",
							"name": "salt",
							"type": "uint256"
						},
						{
							"internalType": "bytes32",
							"name": "conduitKey",
							"type": "bytes32"
						},
						{
							"internalType": "uint256",
							"name": "totalOriginalConsiderationItems",
							"type": "uint256"
						}
					],
					"indexed": false,
					"internalType": "struct OrderParameters",
					"name": "orderParameters",
					"type": "tuple"
				}
			],
			"name": "OrderValidated",
			"type": "event"
		},
		{
			"anonymous": false,
			"inputs": [
				{
					"indexed": false,
					"internalType": "bytes32[]",
					"name": "orderHashes",
					"type": "bytes32[]"
				}
			],
			"name": "OrdersMatched",
			"type": "event"
		},
		{
			"inputs": [
				{
					"components": [
						{
							"internalType": "address",
							"name": "offerer",
							"type": "address"
						},
						{
							"internalType": "address",
							"name": "zone",
							"type": "address"
						},
						{
							"components": [
								{
									"internalType": "enum ItemType",
									"name": "itemType",
									"type": "uint8"
								},
								{
									"internalType": "address",
									"name": "token",
									"type": "address"
								},
								{
									"internalType": "uint256",
									"name": "identifierOrCriteria",
									"type": "uint256"
								},
								{
									"internalType": "uint256",
									"name": "startAmount",
									"type": "uint256"
								},
								{
									"internalType": "uint256",
									"name": "endAmount",
									"type": "uint256"
								}
							],
							"internalType": "struct OfferItem[]",
							"name": "offer",
							"type": "tuple[]"
						},
						{
							"components": [
								{
									"internalType": "enum ItemType",
									"name": "itemType",
									"type": "uint8"
								},
								{
									"internalType": "address",
									"name": "token",
									"type": "address"
								},
								{
									"internalType": "uint256",
									"name": "identifierOrCriteria",
									"type": "uint256"
								},
								{
									"internalType": "uint256",
									"name": "startAmount",
									"type": "uint256"
								},
								{
									"internalType": "uint256",
									"name": "endAmount",
									"type": "uint256"
								},
								{
									"internalType": "address payable",
									"name": "recipient",
									"type": "address"
								}
							],
							"internalType": "struct ConsiderationItem[]",
							"name": "consideration",
							"type": "tuple[]"
						},
						{
							"internalType": "enum OrderType",
							"name": "orderType",
							"type": "uint8"
						},
						{
							"internalType": "uint256",
							"name": "startTime",
							"type": "uint256"
						},
						{
							"internalType": "uint256",
							"name": "endTime",
							"type": "uint256"
						},
						{
							"internalType": "bytes32",
							"name": "zoneHash",
							"type": "bytes32"
						},
						{
							"internalType": "uint256",
							"name": "salt",
							"type": "uint256"
						},
						{
							"internalType": "bytes32",
							"name": "conduitKey",
							"type": "bytes32"
						},
						{
							"internalType": "uint256",
							"name": "counter",
							"type": "uint256"
						}
					],
					"internalType": "struct OrderComponents[]",
					"name": "orders",
					"type": "tuple[]"
				}
			],
			"name": "cancel",
			"outputs": [
				{
					"internalType": "bool",
					"name": "cancelled",
					"type": "bool"
				}
			],
			"stateMutability": "nonpayable",
			"type": "function"
		},
		{
			"inputs": [
				{
					"components": [
						{
							"components": [
								{
									"internalType": "address",
									"name": "offerer",
									"type": "address"
								},
								{
									"internalType": "address",
									"name": "zone",
									"type": "address"
								},
								{
									"components": [
										{
											"internalType": "enum ItemType",
											"name": "itemType",
											"type": "uint8"
										},
										{
											"internalType": "address",
											"name": "token",
											"type": "address"
										},
										{
											"internalType": "uint256",
											"name": "identifierOrCriteria",
											"type": "uint256"
										},
										{
											"internalType": "uint256",
											"name": "startAmount",
											"type": "uint256"
										},
										{
											"internalType": "uint256",
											"name": "endAmount",
											"type": "uint256"
										}
									],
									"internalType": "struct OfferItem[]",
									"name": "offer",
									"type": "tuple[]"
								},
								{
									"components": [
										{
											"internalType": "enum ItemType",
											"name": "itemType",
											"type": "uint8"
										},
										{
											"internalType": "address",
											"name": "token",
											"type": "address"
										},
										{
											"internalType": "uint256",
											"name": "identifierOrCriteria",
											"type": "uint256"
										},
										{
											"internalType": "uint256",
											"name": "startAmount",
											"type": "uint256"
										},
										{
											"internalType": "uint256",
											"name": "endAmount",
											"type": "uint256"
										},
										{
											"internalType": "address payable",
											"name": "recipient",
											"type": "address"
										}
									],
									"internalType": "struct ConsiderationItem[]",
									"name": "consideration",
									"type": "tuple[]"
								},
								{
									"internalType": "enum OrderType",
									"name": "orderType",
									"type": "uint8"
								},
								{
									"internalType": "uint256",
									"name": "startTime",
									"type": "uint256"
								},
								{
									"internalType": "uint256",
									"name": "endTime",
									"type": "uint256"
								},
								{
									"internalType": "bytes32",
									"name": "zoneHash",
									"type": "bytes32"
								},
								{
									"internalType": "uint256",
									"name": "salt",
									"type": "uint256"
								},
								{
									"internalType": "bytes32",
									"name": "conduitKey",
									"type": "bytes32"
								},
								{
									"internalType": "uint256",
									"name": "totalOriginalConsiderationItems",
									"type": "uint256"
								}
							],
							"internalType": "struct OrderParameters",
							"name": "parameters",
							"type": "tuple"
						},
						{
							"internalType": "uint120",
							"name": "numerator",
							"type": "uint120"
						},
						{
							"internalType": "uint120",
							"name": "denominator",
							"type": "uint120"
						},
						{
							"internalType": "bytes",
							"name": "signature",
							"type": "bytes"
						},
						{
							"internalType": "bytes",
							"name": "extraData",
							"type": "bytes"
						}
					],
					"internalType": "struct AdvancedOrder",
					"name": "",
					"type": "tuple"
				},
				{
					"components": [
						{
							"internalType": "uint256",
							"name": "orderIndex",
							"type": "uint256"
						},
						{
							"internalType": "enum Side",
							"name": "side",
							"type": "uint8"
						},
						{
							"internalType": "uint256",
							"name": "index",
							"type": "uint256"
						},
						{
							"internalType": "uint256",
							"name": "identifier",
							"type": "uint256"
						},
						{
							"internalType": "bytes32[]",
							"name": "criteriaProof",
							"type": "bytes32[]"
						}
					],
					"internalType": "struct CriteriaResolver[]",
					"name": "",
					"type": "tuple[]"
				},
				{
					"internalType": "bytes32",
					"name": "fulfillerConduitKey",
					"type": "bytes32"
				},
				{
					"internalType": "address",
					"name": "recipient",
					"type": "address"
				}
			],
			"name": "fulfillAdvancedOrder",
			"outputs": [
				{
					"internalType": "bool",
					"name": "fulfilled",
					"type": "bool"
				}
			],
			"stateMutability": "payable",
			"type": "function"
		},
		{
			"inputs": [
				{
					"components": [
						{
							"components": [
								{
									"internalType": "address",
									"name": "offerer",
									"type": "address"
								},
								{
									"internalType": "address",
									"name": "zone",
									"type": "address"
								},
								{
									"components": [
										{
											"internalType": "enum ItemType",
											"name": "itemType",
											"type": "uint8"
										},
										{
											"internalType": "address",
											"name": "token",
											"type": "address"
										},
										{
											"internalType": "uint256",
											"name": "identifierOrCriteria",
											"type": "uint256"
										},
										{
											"internalType": "uint256",
											"name": "startAmount",
											"type": "uint256"
										},
										{
											"internalType": "uint256",
											"name": "endAmount",
											"type": "uint256"
										}
									],
									"internalType": "struct OfferItem[]",
									"name": "offer",
									"type": "tuple[]"
								},
								{
									"components": [
										{
											"internalType": "enum ItemType",
											"name": "itemType",
											"type": "uint8"
										},
										{
											"internalType": "address",
											"name": "token",
											"type": "address"
										},
										{
											"internalType": "uint256",
											"name": "identifierOrCriteria",
											"type": "uint256"
										},
										{
											"internalType": "uint256",
											"name": "startAmount",
											"type": "uint256"
										},
										{
											"internalType": "uint256",
											"name": "endAmount",
											"type": "uint256"
										},
										{
											"internalType": "address payable",
											"name": "recipient",
											"type": "address"
										}
									],
									"internalType": "struct ConsiderationItem[]",
									"name": "consideration",
									"type": "tuple[]"
								},
								{
									"internalType": "enum OrderType",
									"name": "orderType",
									"type": "uint8"
								},
								{
									"internalType": "uint256",
									"name": "startTime",
									"type": "uint256"
								},
								{
									"internalType": "uint256",
									"name": "endTime",
									"type": "uint256"
								},
								{
									"internalType": "bytes32",
									"name": "zoneHash",
									"type": "bytes32"
								},
								{
									"internalType": "uint256",
									"name": "salt",
									"type": "uint256"
								},
								{
									"internalType": "bytes32",
									"name": "conduitKey",
									"type": "bytes32"
								},
								{
									"internalType": "uint256",
									"name": "totalOriginalConsiderationItems",
									"type": "uint256"
								}
							],
							"internalType": "struct OrderParameters",
							"name": "parameters",
							"type": "tuple"
						},
						{
							"internalType": "uint120",
							"name": "numerator",
							"type": "uint120"
						},
						{
							"internalType": "uint120",
							"name": "denominator",
							"type": "uint120"
						},
						{
							"internalType": "bytes",
							"name": "signature",
							"type": "bytes"
						},
						{
							"internalType": "bytes",
							"name": "extraData",
							"type": "bytes"
						}
					],
					"internalType": "struct AdvancedOrder[]",
					"name": "",
					"type": "tuple[]"
				},
				{
					"components": [
						{
							"internalType": "uint256",
							"name": "orderIndex",
							"type": "uint256"
						},
						{
							"internalType": "enum Side",
							"name": "side",
							"type": "uint8"
						},
						{
							"internalType": "uint256",
							"name": "index",
							"type": "uint256"
						},
						{
							"internalType": "uint256",
							"name": "identifier",
							"type": "uint256"
						},
						{
							"internalType": "bytes32[]",
							"name": "criteriaProof",
							"type": "bytes32[]"
						}
					],
					"internalType": "struct CriteriaResolver[]",
					"name": "",
					"type": "tuple[]"
				},
				{
					"components": [
						{
							"internalType": "uint256",
							"name": "orderIndex",
							"type": "uint256"
						},
						{
							"internalType": "uint256",
							"name": "itemIndex",
							"type": "uint256"
						}
					],
					"internalType": "struct FulfillmentComponent[][]",
					"name": "",
					"type": "tuple[][]"
				},
				{
					"components": [
						{
							"internalType": "uint256",
							"name": "orderIndex",
							"type": "uint256"
						},
						{
							"internalType": "uint256",
							"name": "itemIndex",
							"type": "uint256"
						}
					],
					"internalType": "struct FulfillmentComponent[][]",
					"name": "",
					"type": "tuple[][]"
				},
				{
					"internalType": "bytes32",
					"name": "fulfillerConduitKey",
					"type": "bytes32"
				},
				{
					"internalType": "address",
					"name": "recipient",
					"type": "address"
				},
				{
					"internalType": "uint256",
					"name": "maximumFulfilled",
					"type": "uint256"
				}
			],
			"name": "fulfillAvailableAdvancedOrders",
			"outputs": [
				{
					"internalType": "bool[]",
					"name": "",
					"type": "bool[]"
				},
				{
					"components": [
						{
							"components": [
								{
									"internalType": "enum ItemType",
									"name": "itemType",
									"type": "uint8"
								},
								{
									"internalType": "address",
									"name": "token",
									"type": "address"
								},
								{
									"internalType": "uint256",
									"name": "identifier",
									"type": "uint256"
								},
								{
									"internalType": "uint256",
									"name": "amount",
									"type": "uint256"
								},
								{
									"internalType": "address payable",
									"name": "recipient",
									"type": "address"
								}
							],
							"internalType": "struct ReceivedItem",
							"name": "item",
							"type": "tuple"
						},
						{
							"internalType": "address",
							"name": "offerer",
							"type": "address"
						},
						{
							"internalType": "bytes32",
							"name": "conduitKey",
							"type": "bytes32"
						}
					],
					"internalType": "struct Execution[]",
					"name": "",
					"type": "tuple[]"
				}
			],
			"stateMutability": "payable",
			"type": "function"
		},
		{
			"inputs": [
				{
					"components": [
						{
							"components": [
								{
									"internalType": "address",
									"name": "offerer",
									"type": "address"
								},
								{
									"internalType": "address",
									"name": "zone",
									"type": "address"
								},
								{
									"components": [
										{
											"internalType": "enum ItemType",
											"name": "itemType",
											"type": "uint8"
										},
										{
											"internalType": "address",
											"name": "token",
											"type": "address"
										},
										{
											"internalType": "uint256",
											"name": "identifierOrCriteria",
											"type": "uint256"
										},
										{
											"internalType": "uint256",
											"name": "startAmount",
											"type": "uint256"
										},
										{
											"internalType": "uint256",
											"name": "endAmount",
											"type": "uint256"
										}
									],
									"internalType": "struct OfferItem[]",
									"name": "offer",
									"type": "tuple[]"
								},
								{
									"components": [
										{
											"internalType": "enum ItemType",
											"name": "itemType",
											"type": "uint8"
										},
										{
											"internalType": "address",
											"name": "token",
											"type": "address"
										},
										{
											"internalType": "uint256",
											"name": "identifierOrCriteria",
											"type": "uint256"
										},
										{
											"internalType": "uint256",
											"name": "startAmount",
											"type": "uint256"
										},
										{
											"internalType": "uint256",
											"name": "endAmount",
											"type": "uint256"
										},
										{
											"internalType": "address payable",
											"name": "recipient",
											"type": "address"
										}
									],
									"internalType": "struct ConsiderationItem[]",
									"name": "consideration",
									"type": "tuple[]"
								},
								{
									"internalType": "enum OrderType",
									"name": "orderType",
									"type": "uint8"
								},
								{
									"internalType": "uint256",
									"name": "startTime",
									"type": "uint256"
								},
								{
									"internalType": "uint256",
									"name": "endTime",
									"type": "uint256"
								},
								{
									"internalType": "bytes32",
									"name": "zoneHash",
									"type": "bytes32"
								},
								{
									"internalType": "uint256",
									"name": "salt",
									"type": "uint256"
								},
								{
									"internalType": "bytes32",
									"name": "conduitKey",
									"type": "bytes32"
								},
								{
									"internalType": "uint256",
									"name": "totalOriginalConsiderationItems",
									"type": "uint256"
								}
							],
							"internalType": "struct OrderParameters",
							"name": "parameters",
							"type": "tuple"
						},
						{
							"internalType": "bytes",
							"name": "signature",
							"type": "bytes"
						}
					],
					"internalType": "struct Order[]",
					"name": "",
					"type": "tuple[]"
				},
				{
					"components": [
						{
							"internalType": "uint256",
							"name": "orderIndex",
							"type": "uint256"
						},
						{
							"internalType": "uint256",
							"name": "itemIndex",
							"type": "uint256"
						}
					],
					"internalType": "struct FulfillmentComponent[][]",
					"name": "",
					"type": "tuple[][]"
				},
				{
					"components": [
						{
							"internalType": "uint256",
							"name": "orderIndex",
							"type": "uint256"
						},
						{
							"internalType": "uint256",
							"name": "itemIndex",
							"type": "uint256"
						}
					],
					"internalType": "struct FulfillmentComponent[][]",
					"name": "",
					"type": "tuple[][]"
				},
				{
					"internalType": "bytes32",
					"name": "fulfillerConduitKey",
					"type": "bytes32"
				},
				{
					"internalType": "uint256",
					"name": "maximumFulfilled",
					"type": "uint256"
				}
			],
			"name": "fulfillAvailableOrders",
			"outputs": [
				{
					"internalType": "bool[]",
					"name": "",
					"type": "bool[]"
				},
				{
					"components": [
						{
							"components": [
								{
									"internalType": "enum ItemType",
									"name": "itemType",
									"type": "uint8"
								},
								{
									"internalType": "address",
									"name": "token",
									"type": "address"
								},
								{
									"internalType": "uint256",
									"name": "identifier",
									"type": "uint256"
								},
								{
									"internalType": "uint256",
									"name": "amount",
									"type": "uint256"
								},
								{
									"internalType": "address payable",
									"name": "recipient",
									"type": "address"
								}
							],
							"internalType": "struct ReceivedItem",
							"name": "item",
							"type": "tuple"
						},
						{
							"internalType": "address",
							"name": "offerer",
							"type": "address"
						},
						{
							"internalType": "bytes32",
							"name": "conduitKey",
							"type": "bytes32"
						}
					],
					"internalType": "struct Execution[]",
					"name": "",
					"type": "tuple[]"
				}
			],
			"stateMutability": "payable",
			"type": "function"
		},
		{
			"inputs": [
				{
					"components": [
						{
							"internalType": "address",
							"name": "considerationToken",
							"type": "address"
						},
						{
							"internalType": "uint256",
							"name": "considerationIdentifier",
							"type": "uint256"
						},
						{
							"internalType": "uint256",
							"name": "considerationAmount",
							"type": "uint256"
						},
						{
							"internalType": "address payable",
							"name": "offerer",
							"type": "address"
						},
						{
							"internalType": "address",
							"name": "zone",
							"type": "address"
						},
						{
							"internalType": "address",
							"name": "offerToken",
							"type": "address"
						},
						{
							"internalType": "uint256",
							"name": "offerIdentifier",
							"type": "uint256"
						},
						{
							"internalType": "uint256",
							"name": "offerAmount",
							"type": "uint256"
						},
						{
							"internalType": "enum BasicOrderType",
							"name": "basicOrderType",
							"type": "uint8"
						},
						{
							"internalType": "uint256",
							"name": "startTime",
							"type": "uint256"
						},
						{
							"internalType": "uint256",
							"name": "endTime",
							"type": "uint256"
						},
						{
							"internalType": "bytes32",
							"name": "zoneHash",
							"type": "bytes32"
						},
						{
							"internalType": "uint256",
							"name": "salt",
							"type": "uint256"
						},
						{
							"internalType": "bytes32",
							"name": "offererConduitKey",
							"type": "bytes32"
						},
						{
							"internalType": "bytes32",
							"name": "fulfillerConduitKey",
							"type": "bytes32"
						},
						{
							"internalType": "uint256",
							"name": "totalOriginalAdditionalRecipients",
							"type": "uint256"
						},
						{
							"components": [
								{
									"internalType": "uint256",
									"name": "amount",
									"type": "uint256"
								},
								{
									"internalType": "address payable",
									"name": "recipient",
									"type": "address"
								}
							],
							"internalType": "struct AdditionalRecipient[]",
							"name": "additionalRecipients",
							"type": "tuple[]"
						},
						{
							"internalType": "bytes",
							"name": "signature",
							"type": "bytes"
						}
					],
					"internalType": "struct BasicOrderParameters",
					"name": "parameters",
					"type": "tuple"
				}
			],
			"name": "fulfillBasicOrder",
			"outputs": [
				{
					"internalType": "bool",
					"name": "fulfilled",
					"type": "bool"
				}
			],
			"stateMutability": "payable",
			"type": "function"
		},
		{
			"inputs": [
				{
					"components": [
						{
							"internalType": "address",
							"name": "considerationToken",
							"type": "address"
						},
						{
							"internalType": "uint256",
							"name": "considerationIdentifier",
							"type": "uint256"
						},
						{
							"internalType": "uint256",
							"name": "considerationAmount",
							"type": "uint256"
						},
						{
							"internalType": "address payable",
							"name": "offerer",
							"type": "address"
						},
						{
							"internalType": "address",
							"name": "zone",
							"type": "address"
						},
						{
							"internalType": "address",
							"name": "offerToken",
							"type": "address"
						},
						{
							"internalType": "uint256",
							"name": "offerIdentifier",
							"type": "uint256"
						},
						{
							"internalType": "uint256",
							"name": "offerAmount",
							"type": "uint256"
						},
						{
							"internalType": "enum BasicOrderType",
							"name": "basicOrderType",
							"type": "uint8"
						},
						{
							"internalType": "uint256",
							"name": "startTime",
							"type": "uint256"
						},
						{
							"internalType": "uint256",
							"name": "endTime",
							"type": "uint256"
						},
						{
							"internalType": "bytes32",
							"name": "zoneHash",
							"type": "bytes32"
						},
						{
							"internalType": "uint256",
							"name": "salt",
							"type": "uint256"
						},
						{
							"internalType": "bytes32",
							"name": "offererConduitKey",
							"type": "bytes32"
						},
						{
							"internalType": "bytes32",
							"name": "fulfillerConduitKey",
							"type": "bytes32"
						},
						{
							"internalType": "uint256",
							"name": "totalOriginalAdditionalRecipients",
							"type": "uint256"
						},
						{
							"components": [
								{
									"internalType": "uint256",
									"name": "amount",
									"type": "uint256"
								},
								{
									"internalType": "address payable",
									"name": "recipient",
									"type": "address"
								}
							],
							"internalType": "struct AdditionalRecipient[]",
							"name": "additionalRecipients",
							"type": "tuple[]"
						},
						{
							"internalType": "bytes",
							"name": "signature",
							"type": "bytes"
						}
					],
					"internalType": "struct BasicOrderParameters",
					"name": "parameters",
					"type": "tuple"
				}
			],
			"name": "fulfillBasicOrder_efficient_6GL6yc",
			"outputs": [
				{
					"internalType": "bool",
					"name": "fulfilled",
					"type": "bool"
				}
			],
			"stateMutability": "payable",
			"type": "function"
		},
		{
			"inputs": [
				{
					"components": [
						{
							"components": [
								{
									"internalType": "address",
									"name": "offerer",
									"type": "address"
								},
								{
									"internalType": "address",
									"name": "zone",
									"type": "address"
								},
								{
									"components": [
										{
											"internalType": "enum ItemType",
											"name": "itemType",
											"type": "uint8"
										},
										{
											"internalType": "address",
											"name": "token",
											"type": "address"
										},
										{
											"internalType": "uint256",
											"name": "identifierOrCriteria",
											"type": "uint256"
										},
										{
											"internalType": "uint256",
											"name": "startAmount",
											"type": "uint256"
										},
										{
											"internalType": "uint256",
											"name": "endAmount",
											"type": "uint256"
										}
									],
									"internalType": "struct OfferItem[]",
									"name": "offer",
									"type": "tuple[]"
								},
								{
									"components": [
										{
											"internalType": "enum ItemType",
											"name": "itemType",
											"type": "uint8"
										},
										{
											"internalType": "address",
											"name": "token",
											"type": "address"
										},
										{
											"internalType": "uint256",
											"name": "identifierOrCriteria",
											"type": "uint256"
										},
										{
											"internalType": "uint256",
											"name": "startAmount",
											"type": "uint256"
										},
										{
											"internalType": "uint256",
											"name": "endAmount",
											"type": "uint256"
										},
										{
											"internalType": "address payable",
											"name": "recipient",
											"type": "address"
										}
									],
									"internalType": "struct ConsiderationItem[]",
									"name": "consideration",
									"type": "tuple[]"
								},
								{
									"internalType": "enum OrderType",
									"name": "orderType",
									"type": "uint8"
								},
								{
									"internalType": "uint256",
									"name": "startTime",
									"type": "uint256"
								},
								{
									"internalType": "uint256",
									"name": "endTime",
									"type": "uint256"
								},
								{
									"internalType": "bytes32",
									"name": "zoneHash",
									"type": "bytes32"
								},
								{
									"internalType": "uint256",
									"name": "salt",
									"type": "uint256"
								},
								{
									"internalType": "bytes32",
									"name": "conduitKey",
									"type": "bytes32"
								},
								{
									"internalType": "uint256",
									"name": "totalOriginalConsiderationItems",
									"type": "uint256"
								}
							],
							"internalType": "struct OrderParameters",
							"name": "parameters",
							"type": "tuple"
						},
						{
							"internalType": "bytes",
							"name": "signature",
							"type": "bytes"
						}
					],
					"internalType": "struct Order",
					"name": "",
					"type": "tuple"
				},
				{
					"internalType": "bytes32",
					"name": "fulfillerConduitKey",
					"type": "bytes32"
				}
			],
			"name": "fulfillOrder",
			"outputs": [
				{
					"internalType": "bool",
					"name": "fulfilled",
					"type": "bool"
				}
			],
			"stateMutability": "payable",
			"type": "function"
		},
		{
			"inputs": [
				{
					"internalType": "address",
					"name": "contractOfferer",
					"type": "address"
				}
			],
			"name": "getContractOffererNonce",
			"outputs": [
				{
					"internalType": "uint256",
					"name": "nonce",
					"type": "uint256"
				}
			],
			"stateMutability": "view",
			"type": "function"
		},
		{
			"inputs": [
				{
					"internalType": "address",
					"name": "offerer",
					"type": "address"
				}
			],
			"name": "getCounter",
			"outputs": [
				{
					"internalType": "uint256",
					"name": "counter",
					"type": "uint256"
				}
			],
			"stateMutability": "view",
			"type": "function"
		},
		{
			"inputs": [
				{
					"components": [
						{
							"internalType": "address",
							"name": "offerer",
							"type": "address"
						},
						{
							"internalType": "address",
							"name": "zone",
							"type": "address"
						},
						{
							"components": [
								{
									"internalType": "enum ItemType",
									"name": "itemType",
									"type": "uint8"
								},
								{
									"internalType": "address",
									"name": "token",
									"type": "address"
								},
								{
									"internalType": "uint256",
									"name": "identifierOrCriteria",
									"type": "uint256"
								},
								{
									"internalType": "uint256",
									"name": "startAmount",
									"type": "uint256"
								},
								{
									"internalType": "uint256",
									"name": "endAmount",
									"type": "uint256"
								}
							],
							"internalType": "struct OfferItem[]",
							"name": "offer",
							"type": "tuple[]"
						},
						{
							"components": [
								{
									"internalType": "enum ItemType",
									"name": "itemType",
									"type": "uint8"
								},
								{
									"internalType": "address",
									"name": "token",
									"type": "address"
								},
								{
									"internalType": "uint256",
									"name": "identifierOrCriteria",
									"type": "uint256"
								},
								{
									"internalType": "uint256",
									"name": "startAmount",
									"type": "uint256"
								},
								{
									"internalType": "uint256",
									"name": "endAmount",
									"type": "uint256"
								},
								{
									"internalType": "address payable",
									"name": "recipient",
									"type": "address"
								}
							],
							"internalType": "struct ConsiderationItem[]",
							"name": "consideration",
							"type": "tuple[]"
						},
						{
							"internalType": "enum OrderType",
							"name": "orderType",
							"type": "uint8"
						},
						{
							"internalType": "uint256",
							"name": "startTime",
							"type": "uint256"
						},
						{
							"internalType": "uint256",
							"name": "endTime",
							"type": "uint256"
						},
						{
							"internalType": "bytes32",
							"name": "zoneHash",
							"type": "bytes32"
						},
						{
							"internalType": "uint256",
							"name": "salt",
							"type": "uint256"
						},
						{
							"internalType": "bytes32",
							"name": "conduitKey",
							"type": "bytes32"
						},
						{
							"internalType": "uint256",
							"name": "counter",
							"type": "uint256"
						}
					],
					"internalType": "struct OrderComponents",
					"name": "",
					"type": "tuple"
				}
			],
			"name": "getOrderHash",
			"outputs": [
				{
					"internalType": "bytes32",
					"name": "orderHash",
					"type": "bytes32"
				}
			],
			"stateMutability": "view",
			"type": "function"
		},
		{
			"inputs": [
				{
					"internalType": "bytes32",
					"name": "orderHash",
					"type": "bytes32"
				}
			],
			"name": "getOrderStatus",
			"outputs": [
				{
					"internalType": "bool",
					"name": "isValidated",
					"type": "bool"
				},
				{
					"internalType": "bool",
					"name": "isCancelled",
					"type": "bool"
				},
				{
					"internalType": "uint256",
					"name": "totalFilled",
					"type": "uint256"
				},
				{
					"internalType": "uint256",
					"name": "totalSize",
					"type": "uint256"
				}
			],
			"stateMutability": "view",
			"type": "function"
		},
		{
			"inputs": [],
			"name": "incrementCounter",
			"outputs": [
				{
					"internalType": "uint256",
					"name": "newCounter",
					"type": "uint256"
				}
			],
			"stateMutability": "nonpayable",
			"type": "function"
		},
		{
			"inputs": [],
			"name": "information",
			"outputs": [
				{
					"internalType": "string",
					"name": "version",
					"type": "string"
				},
				{
					"internalType": "bytes32",
					"name": "domainSeparator",
					"type": "bytes32"
				},
				{
					"internalType": "address",
					"name": "conduitController",
					"type": "address"
				}
			],
			"stateMutability": "view",
			"type": "function"
		},
		{
			"inputs": [
				{
					"components": [
						{
							"components": [
								{
									"internalType": "address",
									"name": "offerer",
									"type": "address"
								},
								{
									"internalType": "address",
									"name": "zone",
									"type": "address"
								},
								{
									"components": [
										{
											"internalType": "enum ItemType",
											"name": "itemType",
											"type": "uint8"
										},
										{
											"internalType": "address",
											"name": "token",
											"type": "address"
										},
										{
											"internalType": "uint256",
											"name": "identifierOrCriteria",
											"type": "uint256"
										},
										{
											"internalType": "uint256",
											"name": "startAmount",
											"type": "uint256"
										},
										{
											"internalType": "uint256",
											"name": "endAmount",
											"type": "uint256"
										}
									],
									"internalType": "struct OfferItem[]",
									"name": "offer",
									"type": "tuple[]"
								},
								{
									"components": [
										{
											"internalType": "enum ItemType",
											"name": "itemType",
											"type": "uint8"
										},
										{
											"internalType": "address",
											"name": "token",
											"type": "address"
										},
										{
											"internalType": "uint256",
											"name": "identifierOrCriteria",
											"type": "uint256"
										},
										{
											"internalType": "uint256",
											"name": "startAmount",
											"type": "uint256"
										},
										{
											"internalType": "uint256",
											"name": "endAmount",
											"type": "uint256"
										},
										{
											"internalType": "address payable",
											"name": "recipient",
											"type": "address"
										}
									],
									"internalType": "struct ConsiderationItem[]",
									"name": "consideration",
									"type": "tuple[]"
								},
								{
									"internalType": "enum OrderType",
									"name": "orderType",
									"type": "uint8"
								},
								{
									"internalType": "uint256",
									"name": "startTime",
									"type": "uint256"
								},
								{
									"internalType": "uint256",
									"name": "endTime",
									"type": "uint256"
								},
								{
									"internalType": "bytes32",
									"name": "zoneHash",
									"type": "bytes32"
								},
								{
									"internalType": "uint256",
									"name": "salt",
									"type": "uint256"
								},
								{
									"internalType": "bytes32",
									"name": "conduitKey",
									"type": "bytes32"
								},
								{
									"internalType": "uint256",
									"name": "totalOriginalConsiderationItems",
									"type": "uint256"
								}
							],
							"internalType": "struct OrderParameters",
							"name": "parameters",
							"type": "tuple"
						},
						{
							"internalType": "uint120",
							"name": "numerator",
							"type": "uint120"
						},
						{
							"internalType": "uint120",
							"name": "denominator",
							"type": "uint120"
						},
						{
							"internalType": "bytes",
							"name": "signature",
							"type": "bytes"
						},
						{
							"internalType": "bytes",
							"name": "extraData",
							"type": "bytes"
						}
					],
					"internalType": "struct AdvancedOrder[]",
					"name": "",
					"type": "tuple[]"
				},
				{
					"components": [
						{
							"internalType": "uint256",
							"name": "orderIndex",
							"type": "uint256"
						},
						{
							"internalType": "enum Side",
							"name": "side",
							"type": "uint8"
						},
						{
							"internalType": "uint256",
							"name": "index",
							"type": "uint256"
						},
						{
							"internalType": "uint256",
							"name": "identifier",
							"type": "uint256"
						},
						{
							"internalType": "bytes32[]",
							"name": "criteriaProof",
							"type": "bytes32[]"
						}
					],
					"internalType": "struct CriteriaResolver[]",
					"name": "",
					"type": "tuple[]"
				},
				{
					"components": [
						{
							"components": [
								{
									"internalType": "uint256",
									"name": "orderIndex",
									"type": "uint256"
								},
								{
									"internalType": "uint256",
									"name": "itemIndex",
									"type": "uint256"
								}
							],
							"internalType": "struct FulfillmentComponent[]",
							"name": "offerComponents",
							"type": "tuple[]"
						},
						{
							"components": [
								{
									"internalType": "uint256",
									"name": "orderIndex",
									"type": "uint256"
								},
								{
									"internalType": "uint256",
									"name": "itemIndex",
									"type": "uint256"
								}
							],
							"internalType": "struct FulfillmentComponent[]",
							"name": "considerationComponents",
							"type": "tuple[]"
						}
					],
					"internalType": "struct Fulfillment[]",
					"name": "",
					"type": "tuple[]"
				},
				{
					"internalType": "address",
					"name": "recipient",
					"type": "address"
				}
			],
			"name": "matchAdvancedOrders",
			"outputs": [
				{
					"components": [
						{
							"components": [
								{
									"internalType": "enum ItemType",
									"name": "itemType",
									"type": "uint8"
								},
								{
									"internalType": "address",
									"name": "token",
									"type": "address"
								},
								{
									"internalType": "uint256",
									"name": "identifier",
									"type": "uint256"
								},
								{
									"internalType": "uint256",
									"name": "amount",
									"type": "uint256"
								},
								{
									"internalType": "address payable",
									"name": "recipient",
									"type": "address"
								}
							],
							"internalType": "struct ReceivedItem",
							"name": "item",
							"type": "tuple"
						},
						{
							"internalType": "address",
							"name": "offerer",
							"type": "address"
						},
						{
							"internalType": "bytes32",
							"name": "conduitKey",
							"type": "bytes32"
						}
					],
					"internalType": "struct Execution[]",
					"name": "",
					"type": "tuple[]"
				}
			],
			"stateMutability": "payable",
			"type": "function"
		},
		{
			"inputs": [
				{
					"components": [
						{
							"components": [
								{
									"internalType": "address",
									"name": "offerer",
									"type": "address"
								},
								{
									"internalType": "address",
									"name": "zone",
									"type": "address"
								},
								{
									"components": [
										{
											"internalType": "enum ItemType",
											"name": "itemType",
											"type": "uint8"
										},
										{
											"internalType": "address",
											"name": "token",
											"type": "address"
										},
										{
											"internalType": "uint256",
											"name": "identifierOrCriteria",
											"type": "uint256"
										},
										{
											"internalType": "uint256",
											"name": "startAmount",
											"type": "uint256"
										},
										{
											"internalType": "uint256",
											"name": "endAmount",
											"type": "uint256"
										}
									],
									"internalType": "struct OfferItem[]",
									"name": "offer",
									"type": "tuple[]"
								},
								{
									"components": [
										{
											"internalType": "enum ItemType",
											"name": "itemType",
											"type": "uint8"
										},
										{
											"internalType": "address",
											"name": "token",
											"type": "address"
										},
										{
											"internalType": "uint256",
											"name": "identifierOrCriteria",
											"type": "uint256"
										},
										{
											"internalType": "uint256",
											"name": "startAmount",
											"type": "uint256"
										},
										{
											"internalType": "uint256",
											"name": "endAmount",
											"type": "uint256"
										},
										{
											"internalType": "address payable",
											"name": "recipient",
											"type": "address"
										}
									],
									"internalType": "struct ConsiderationItem[]",
									"name": "consideration",
									"type": "tuple[]"
								},
								{
									"internalType": "enum OrderType",
									"name": "orderType",
									"type": "uint8"
								},
								{
									"internalType": "uint256",
									"name": "startTime",
									"type": "uint256"
								},
								{
									"internalType": "uint256",
									"name": "endTime",
									"type": "uint256"
								},
								{
									"internalType": "bytes32",
									"name": "zoneHash",
									"type": "bytes32"
								},
								{
									"internalType": "uint256",
									"name": "salt",
									"type": "uint256"
								},
								{
									"internalType": "bytes32",
									"name": "conduitKey",
									"type": "bytes32"
								},
								{
									"internalType": "uint256",
									"name": "totalOriginalConsiderationItems",
									"type": "uint256"
								}
							],
							"internalType": "struct OrderParameters",
							"name": "parameters",
							"type": "tuple"
						},
						{
							"internalType": "bytes",
							"name": "signature",
							"type": "bytes"
						}
					],
					"internalType": "struct Order[]",
					"name": "",
					"type": "tuple[]"
				},
				{
					"components": [
						{
							"components": [
								{
									"internalType": "uint256",
									"name": "orderIndex",
									"type": "uint256"
								},
								{
									"internalType": "uint256",
									"name": "itemIndex",
									"type": "uint256"
								}
							],
							"internalType": "struct FulfillmentComponent[]",
							"name": "offerComponents",
							"type": "tuple[]"
						},
						{
							"components": [
								{
									"internalType": "uint256",
									"name": "orderIndex",
									"type": "uint256"
								},
								{
									"internalType": "uint256",
									"name": "itemIndex",
									"type": "uint256"
								}
							],
							"internalType": "struct FulfillmentComponent[]",
							"name": "considerationComponents",
							"type": "tuple[]"
						}
					],
					"internalType": "struct Fulfillment[]",
					"name": "",
					"type": "tuple[]"
				}
			],
			"name": "matchOrders",
			"outputs": [
				{
					"components": [
						{
							"components": [
								{
									"internalType": "enum ItemType",
									"name": "itemType",
									"type": "uint8"
								},
								{
									"internalType": "address",
									"name": "token",
									"type": "address"
								},
								{
									"internalType": "uint256",
									"name": "identifier",
									"type": "uint256"
								},
								{
									"internalType": "uint256",
									"name": "amount",
									"type": "uint256"
								},
								{
									"internalType": "address payable",
									"name": "recipient",
									"type": "address"
								}
							],
							"internalType": "struct ReceivedItem",
							"name": "item",
							"type": "tuple"
						},
						{
							"internalType": "address",
							"name": "offerer",
							"type": "address"
						},
						{
							"internalType": "bytes32",
							"name": "conduitKey",
							"type": "bytes32"
						}
					],
					"internalType": "struct Execution[]",
					"name": "",
					"type": "tuple[]"
				}
			],
			"stateMutability": "payable",
			"type": "function"
		},
		{
			"inputs": [],
			"name": "name",
			"outputs": [
				{
					"internalType": "string",
					"name": "",
					"type": "string"
				}
			],
			"stateMutability": "pure",
			"type": "function"
		},
		{
			"inputs": [
				{
					"components": [
						{
							"components": [
								{
									"internalType": "address",
									"name": "offerer",
									"type": "address"
								},
								{
									"internalType": "address",
									"name": "zone",
									"type": "address"
								},
								{
									"components": [
										{
											"internalType": "enum ItemType",
											"name": "itemType",
											"type": "uint8"
										},
										{
											"internalType": "address",
											"name": "token",
											"type": "address"
										},
										{
											"internalType": "uint256",
											"name": "identifierOrCriteria",
											"type": "uint256"
										},
										{
											"internalType": "uint256",
											"name": "startAmount",
											"type": "uint256"
										},
										{
											"internalType": "uint256",
											"name": "endAmount",
											"type": "uint256"
										}
									],
									"internalType": "struct OfferItem[]",
									"name": "offer",
									"type": "tuple[]"
								},
								{
									"components": [
										{
											"internalType": "enum ItemType",
											"name": "itemType",
											"type": "uint8"
										},
										{
											"internalType": "address",
											"name": "token",
											"type": "address"
										},
										{
											"internalType": "uint256",
											"name": "identifierOrCriteria",
											"type": "uint256"
										},
										{
											"internalType": "uint256",
											"name": "startAmount",
											"type": "uint256"
										},
										{
											"internalType": "uint256",
											"name": "endAmount",
											"type": "uint256"
										},
										{
											"internalType": "address payable",
											"name": "recipient",
											"type": "address"
										}
									],
									"internalType": "struct ConsiderationItem[]",
									"name": "consideration",
									"type": "tuple[]"
								},
								{
									"internalType": "enum OrderType",
									"name": "orderType",
									"type": "uint8"
								},
								{
									"internalType": "uint256",
									"name": "startTime",
									"type": "uint256"
								},
								{
									"internalType": "uint256",
									"name": "endTime",
									"type": "uint256"
								},
								{
									"internalType": "bytes32",
									"name": "zoneHash",
									"type": "bytes32"
								},
								{
									"internalType": "uint256",
									"name": "salt",
									"type": "uint256"
								},
								{
									"internalType": "bytes32",
									"name": "conduitKey",
									"type": "bytes32"
								},
								{
									"internalType": "uint256",
									"name": "totalOriginalConsiderationItems",
									"type": "uint256"
								}
							],
							"internalType": "struct OrderParameters",
							"name": "parameters",
							"type": "tuple"
						},
						{
							"internalType": "bytes",
							"name": "signature",
							"type": "bytes"
						}
					],
					"internalType": "struct Order[]",
					"name": "",
					"type": "tuple[]"
				}
			],
			"name": "validate",
			"outputs": [
				{
					"internalType": "bool",
					"name": "",
					"type": "bool"
				}
			],
			"stateMutability": "nonpayable",
			"type": "function"
		},
		{
			"stateMutability": "payable",
			"type": "receive"
		}
	]
}