{
	"data": {
		"bytecode": {
			"linkReferences": {},
			"object": "60a06040526001600860146101000a81548160ff0219169083151502179055506040516137ef3803806137ef8339818101604052810190610040919061030d565b8484816002908161005191906105df565b50806003908161006191906105df565b506100706100bc60201b60201c565b5f8190555050506100936100886100c360201b60201c565b6100ca60201b60201c565b82600990816100a291906105df565b5081600a81905550806080818152505050505050506106ae565b5f5f905090565b5f33905090565b5f60085f9054906101000a900473ffffffffffffffffffffffffffffffffffffffff1690508160085f6101000a81548173ffffffffffffffffffffffffffffffffffffffff021916908373ffffffffffffffffffffffffffffffffffffffff1602179055508173ffffffffffffffffffffffffffffffffffffffff168173ffffffffffffffffffffffffffffffffffffffff167f8be0079c531659141344cd1fd0a4f28419497f9722a3daafe3b4186f6b6457e060405160405180910390a35050565b5f604051905090565b5f5ffd5b5f5ffd5b5f5ffd5b5f5ffd5b5f601f19601f8301169050919050565b7f4e487b71000000000000000000000000000000000000000000000000000000005f52604160045260245ffd5b6101ec826101a6565b810181811067ffffffffffffffff8211171561020b5761020a6101b6565b5b80604052505050565b5f61021d61018d565b905061022982826101e3565b919050565b5f67ffffffffffffffff821115610248576102476101b6565b5b610251826101a6565b9050602081019050919050565b8281835e5f83830152505050565b5f61027e6102798461022e565b610214565b90508281526020810184848401111561029a576102996101a2565b5b6102a584828561025e565b509392505050565b5f82601f8301126102c1576102c061019e565b5b81516102d184826020860161026c565b91505092915050565b5f819050919050565b6102ec816102da565b81146102f6575f5ffd5b50565b5f81519050610307816102e3565b92915050565b5f5f5f5f5f60a0868803121561032657610325610196565b5b5f86015167ffffffffffffffff8111156103435761034261019a565b5b61034f888289016102ad565b955050602086015167ffffffffffffffff8111156103705761036f61019a565b5b61037c888289016102ad565b945050604086015167ffffffffffffffff81111561039d5761039c61019a565b5b6103a9888289016102ad565b93505060606103ba888289016102f9565b92505060806103cb888289016102f9565b9150509295509295909350565b5f81519050919050565b7f4e487b71000000000000000000000000000000000000000000000000000000005f52602260045260245ffd5b5f600282049050600182168061042657607f821691505b602082108103610439576104386103e2565b5b50919050565b5f819050815f5260205f209050919050565b5f6020601f8301049050919050565b5f82821b905092915050565b5f6008830261049b7fffffffffffffffffffffffffffffffffffffffffffffffffffffffffffffffff82610460565b6104a58683610460565b95508019841693508086168417925050509392505050565b5f819050919050565b5f6104e06104db6104d6846102da565b6104bd565b6102da565b9050919050565b5f819050919050565b6104f9836104c6565b61050d610505826104e7565b84845461046c565b825550505050565b5f5f905090565b610524610515565b61052f8184846104f0565b505050565b5b81811015610552576105475f8261051c565b600181019050610535565b5050565b601f821115610597576105688161043f565b61057184610451565b81016020851015610580578190505b61059461058c85610451565b830182610534565b50505b505050565b5f82821c905092915050565b5f6105b75f198460080261059c565b1980831691505092915050565b5f6105cf83836105a8565b9150826002028217905092915050565b6105e8826103d8565b67ffffffffffffffff811115610601576106006101b6565b5b61060b825461040f565b610616828285610556565b5f60209050601f831160018114610647575f8415610635578287015190505b61063f85826105c4565b8655506106a6565b601f1984166106558661043f565b5f5b8281101561067c57848901518255600182019150602085019450602081019050610657565b868310156106995784890151610695601f8916826105a8565b8355505b6001600288020188555050505b505050505050565b60805161311b6106d45f395f818161097f01528181610c3f0152610fa6015261311b5ff3fe60806040526004361061019b575f3560e01c80636352211e116100eb578063a22cb46511610089578063cc47a40b11610063578063cc47a40b14610579578063e985e9c5146105a1578063eb8d2444146105dd578063f2fde38b146106075761019b565b8063a22cb465146104ed578063b88d4fde14610515578063c87b56dd1461053d5761019b565b80638da5cb5b116100c55780638da5cb5b1461045357806395d89b411461047d5780639d1b464a146104a7578063a0712d68146104d15761019b565b80636352211e146103c557806370a0823114610401578063715018a61461043d5761019b565b806318b20071116101585780633c8463a1116101325780633c8463a1146103355780633ccfd60b1461035f57806342842e0e1461037557806355f804b31461039d5761019b565b806318b20071146102bb57806323b872dd146102e357806332cb6b0c1461030b5761019b565b806301ffc9a71461019f57806302c88989146101db57806306fdde0314610203578063081812fc1461022d578063095ea7b31461026957806318160ddd14610291575b5f5ffd5b3480156101aa575f5ffd5b506101c560048036038101906101c091906123ae565b61062f565b6040516101d291906123f3565b60405180910390f35b3480156101e6575f5ffd5b5061020160048036038101906101fc9190612436565b610710565b005b34801561020e575f5ffd5b50610217610735565b60405161022491906124d1565b60405180910390f35b348015610238575f5ffd5b50610253600480360381019061024e9190612524565b6107c5565b604051610260919061258e565b60405180910390f35b348015610274575f5ffd5b5061028f600480360381019061028a91906125d1565b61083d565b005b34801561029c575f5ffd5b506102a5610946565b6040516102b2919061261e565b60405180910390f35b3480156102c6575f5ffd5b506102e160048036038101906102dc9190612524565b61095b565b005b3480156102ee575f5ffd5b5061030960048036038101906103049190612637565b61096d565b005b348015610316575f5ffd5b5061031f61097d565b60405161032c919061261e565b60405180910390f35b348015610340575f5ffd5b506103496109a1565b604051610356919061261e565b60405180910390f35b34801561036a575f5ffd5b506103736109a7565b005b348015610380575f5ffd5b5061039b60048036038101906103969190612637565b6109fa565b005b3480156103a8575f5ffd5b506103c360048036038101906103be91906127b3565b610a19565b005b3480156103d0575f5ffd5b506103eb60048036038101906103e69190612524565b610a34565b6040516103f8919061258e565b60405180910390f35b34801561040c575f5ffd5b50610427600480360381019061042291906127fa565b610a48565b604051610434919061261e565b60405180910390f35b348015610448575f5ffd5b50610451610b12565b005b34801561045e575f5ffd5b50610467610b25565b604051610474919061258e565b60405180910390f35b348015610488575f5ffd5b50610491610b4d565b60405161049e91906124d1565b60405180910390f35b3480156104b2575f5ffd5b506104bb610bdd565b6040516104c8919061261e565b60405180910390f35b6104eb60048036038101906104e69190612524565b610be3565b005b3480156104f8575f5ffd5b50610513600480360381019061050e9190612825565b610d08565b005b348015610520575f5ffd5b5061053b60048036038101906105369190612901565b610e7a565b005b348015610548575f5ffd5b50610563600480360381019061055e9190612524565b610ef6565b60405161057091906124d1565b60405180910390f35b348015610584575f5ffd5b5061059f600480360381019061059a91906125d1565b610f91565b005b3480156105ac575f5ffd5b506105c760048036038101906105c29190612981565b611021565b6040516105d491906123f3565b60405180910390f35b3480156105e8575f5ffd5b506105f16110af565b6040516105fe91906123f3565b60405180910390f35b348015610612575f5ffd5b5061062d600480360381019061062891906127fa565b6110c2565b005b5f7f80ac58cd000000000000000000000000000000000000000000000000000000007bffffffffffffffffffffffffffffffffffffffffffffffffffffffff1916827bffffffffffffffffffffffffffffffffffffffffffffffffffffffff191614806106f957507f5b5e139f000000000000000000000000000000000000000000000000000000007bffffffffffffffffffffffffffffffffffffffffffffffffffffffff1916827bffffffffffffffffffffffffffffffffffffffffffffffffffffffff1916145b80610709575061070882611144565b5b9050919050565b6107186111ad565b80600860146101000a81548160ff02191690831515021790555050565b606060028054610744906129ec565b80601f0160208091040260200160405190810160405280929190818152602001828054610770906129ec565b80156107bb5780601f10610792576101008083540402835291602001916107bb565b820191905f5260205f20905b81548152906001019060200180831161079e57829003601f168201915b5050505050905090565b5f6107cf8261122b565b610805576040517fcf4700e400000000000000000000000000000000000000000000000000000000815260040160405180910390fd5b60065f8381526020019081526020015f205f9054906101000a900473ffffffffffffffffffffffffffffffffffffffff169050919050565b5f61084782610a34565b90508073ffffffffffffffffffffffffffffffffffffffff168373ffffffffffffffffffffffffffffffffffffffff16036108ae576040517f943f7b8c00000000000000000000000000000000000000000000000000000000815260040160405180910390fd5b8073ffffffffffffffffffffffffffffffffffffffff166108cd611274565b73ffffffffffffffffffffffffffffffffffffffff16141580156108ff57506108fd816108f8611274565b611021565b155b15610936576040517fcfb3b94200000000000000000000000000000000000000000000000000000000815260040160405180910390fd5b61094183838361127b565b505050565b5f61094f61132a565b6001545f540303905090565b6109636111ad565b80600a8190555050565b610978838383611331565b505050565b7f000000000000000000000000000000000000000000000000000000000000000081565b600b5481565b6109af6111ad565b5f4790503373ffffffffffffffffffffffffffffffffffffffff166108fc8290811502906040515f60405180830381858888f193505050501580156109f6573d5f5f3e3d5ffd5b5050565b610a1483838360405180602001604052805f815250610e7a565b505050565b610a216111ad565b8060099081610a309190612bbc565b5050565b5f610a3e826117c7565b5f01519050919050565b5f5f73ffffffffffffffffffffffffffffffffffffffff168273ffffffffffffffffffffffffffffffffffffffff1603610aae576040517f8f4eb60400000000000000000000000000000000000000000000000000000000815260040160405180910390fd5b60055f8373ffffffffffffffffffffffffffffffffffffffff1673ffffffffffffffffffffffffffffffffffffffff1681526020019081526020015f205f015f9054906101000a900467ffffffffffffffff1667ffffffffffffffff169050919050565b610b1a6111ad565b610b235f611a43565b565b5f60085f9054906101000a900473ffffffffffffffffffffffffffffffffffffffff16905090565b606060038054610b5c906129ec565b80601f0160208091040260200160405190810160405280929190818152602001828054610b88906129ec565b8015610bd35780601f10610baa57610100808354040283529160200191610bd3565b820191905f5260205f20905b815481529060010190602001808311610bb657829003601f168201915b5050505050905090565b600a5481565b5f610bec610946565b9050600860149054906101000a900460ff16610c3d576040517f08c379a0000000000000000000000000000000000000000000000000000000008152600401610c3490612cfb565b60405180910390fd5b7f00000000000000000000000000000000000000000000000000000000000000008282610c6a9190612d46565b1115610cab576040517f08c379a0000000000000000000000000000000000000000000000000000000008152600401610ca290612dc3565b60405180910390fd5b3482600a54610cba9190612de1565b14610cfa576040517f08c379a0000000000000000000000000000000000000000000000000000000008152600401610cf190612e6c565b60405180910390fd5b610d043383611b06565b5050565b610d10611274565b73ffffffffffffffffffffffffffffffffffffffff168273ffffffffffffffffffffffffffffffffffffffff1603610d74576040517fb06307db00000000000000000000000000000000000000000000000000000000815260040160405180910390fd5b8060075f610d80611274565b73ffffffffffffffffffffffffffffffffffffffff1673ffffffffffffffffffffffffffffffffffffffff1681526020019081526020015f205f8473ffffffffffffffffffffffffffffffffffffffff1673ffffffffffffffffffffffffffffffffffffffff1681526020019081526020015f205f6101000a81548160ff0219169083151502179055508173ffffffffffffffffffffffffffffffffffffffff16610e29611274565b73ffffffffffffffffffffffffffffffffffffffff167f17307eab39ab6107e8899845ad3d59bd9653f200f220920489ca2b5937696c3183604051610e6e91906123f3565b60405180910390a35050565b610e85848484611331565b610ea48373ffffffffffffffffffffffffffffffffffffffff16611b23565b8015610eb95750610eb784848484611b45565b155b15610ef0576040517fd1a57ed600000000000000000000000000000000000000000000000000000000815260040160405180910390fd5b50505050565b6060610f018261122b565b610f37576040517fa14c4b5000000000000000000000000000000000000000000000000000000000815260040160405180910390fd5b5f610f40611c90565b90505f815103610f5e5760405180602001604052805f815250610f89565b80610f6884611d20565b604051602001610f79929190612ec4565b6040516020818303038152906040525b915050919050565b610f996111ad565b5f610fa2610946565b90507f00000000000000000000000000000000000000000000000000000000000000008282610fd19190612d46565b1115611012576040517f08c379a000000000000000000000000000000000000000000000000000000000815260040161100990612dc3565b60405180910390fd5b61101c8383611b06565b505050565b5f60075f8473ffffffffffffffffffffffffffffffffffffffff1673ffffffffffffffffffffffffffffffffffffffff1681526020019081526020015f205f8373ffffffffffffffffffffffffffffffffffffffff1673ffffffffffffffffffffffffffffffffffffffff1681526020019081526020015f205f9054906101000a900460ff16905092915050565b600860149054906101000a900460ff1681565b6110ca6111ad565b5f73ffffffffffffffffffffffffffffffffffffffff168173ffffffffffffffffffffffffffffffffffffffff1603611138576040517f08c379a000000000000000000000000000000000000000000000000000000000815260040161112f90612f57565b60405180910390fd5b61114181611a43565b50565b5f7f01ffc9a7000000000000000000000000000000000000000000000000000000007bffffffffffffffffffffffffffffffffffffffffffffffffffffffff1916827bffffffffffffffffffffffffffffffffffffffffffffffffffffffff1916149050919050565b6111b5611274565b73ffffffffffffffffffffffffffffffffffffffff166111d3610b25565b73ffffffffffffffffffffffffffffffffffffffff1614611229576040517f08c379a000000000000000000000000000000000000000000000000000000000815260040161122090612fbf565b60405180910390fd5b565b5f8161123561132a565b1115801561124357505f5482105b801561126d575060045f8381526020019081526020015f205f01601c9054906101000a900460ff16155b9050919050565b5f33905090565b8260065f8481526020019081526020015f205f6101000a81548173ffffffffffffffffffffffffffffffffffffffff021916908373ffffffffffffffffffffffffffffffffffffffff160217905550818373ffffffffffffffffffffffffffffffffffffffff168273ffffffffffffffffffffffffffffffffffffffff167f8c5be1e5ebec7d5bd14f71427d1e84f3dd0314c0f7b2291e5b200ac8c7c3b92560405160405180910390a4505050565b5f5f905090565b5f61133b826117c7565b90508373ffffffffffffffffffffffffffffffffffffffff16815f015173ffffffffffffffffffffffffffffffffffffffff16146113a5576040517fa114810000000000000000000000000000000000000000000000000000000000815260040160405180910390fd5b5f8473ffffffffffffffffffffffffffffffffffffffff166113c5611274565b73ffffffffffffffffffffffffffffffffffffffff1614806113f457506113f3856113ee611274565b611021565b5b806114395750611402611274565b73ffffffffffffffffffffffffffffffffffffffff16611421846107c5565b73ffffffffffffffffffffffffffffffffffffffff16145b905080611472576040517f59c896be00000000000000000000000000000000000000000000000000000000815260040160405180910390fd5b5f73ffffffffffffffffffffffffffffffffffffffff168473ffffffffffffffffffffffffffffffffffffffff16036114d7576040517fea553b3400000000000000000000000000000000000000000000000000000000815260040160405180910390fd5b6114e48585856001611dea565b6114ef5f848761127b565b600160055f8773ffffffffffffffffffffffffffffffffffffffff1673ffffffffffffffffffffffffffffffffffffffff1681526020019081526020015f205f015f8282829054906101000a900467ffffffffffffffff160392506101000a81548167ffffffffffffffff021916908367ffffffffffffffff160217905550600160055f8673ffffffffffffffffffffffffffffffffffffffff1673ffffffffffffffffffffffffffffffffffffffff1681526020019081526020015f205f015f8282829054906101000a900467ffffffffffffffff160192506101000a81548167ffffffffffffffff021916908367ffffffffffffffff1602179055505f60045f8581526020019081526020015f20905084815f015f6101000a81548173ffffffffffffffffffffffffffffffffffffffff021916908373ffffffffffffffffffffffffffffffffffffffff16021790555042815f0160146101000a81548167ffffffffffffffff021916908367ffffffffffffffff1602179055505f6001850190505f60045f8381526020019081526020015f2090505f73ffffffffffffffffffffffffffffffffffffffff16815f015f9054906101000a900473ffffffffffffffffffffffffffffffffffffffff1673ffffffffffffffffffffffffffffffffffffffff1603611755575f5482146117545787815f015f6101000a81548173ffffffffffffffffffffffffffffffffffffffff021916908373ffffffffffffffffffffffffffffffffffffffff1602179055508460200151815f0160146101000a81548167ffffffffffffffff021916908367ffffffffffffffff1602179055505b5b505050828473ffffffffffffffffffffffffffffffffffffffff168673ffffffffffffffffffffffffffffffffffffffff167fddf252ad1be2c89b69c2b068fc378daa952ba7f163c4a11628f55a4df523b3ef60405160405180910390a46117c08585856001611df0565b5050505050565b6117cf612308565b5f829050806117dc61132a565b111580156117ea57505f5481105b15611a0c575f60045f8381526020019081526020015f206040518060600160405290815f82015f9054906101000a900473ffffffffffffffffffffffffffffffffffffffff1673ffffffffffffffffffffffffffffffffffffffff1673ffffffffffffffffffffffffffffffffffffffff1681526020015f820160149054906101000a900467ffffffffffffffff1667ffffffffffffffff1667ffffffffffffffff1681526020015f8201601c9054906101000a900460ff16151515158152505090508060400151611a0a575f73ffffffffffffffffffffffffffffffffffffffff16815f015173ffffffffffffffffffffffffffffffffffffffff16146118f6578092505050611a3e565b5b600115611a095781806001900392505060045f8381526020019081526020015f206040518060600160405290815f82015f9054906101000a900473ffffffffffffffffffffffffffffffffffffffff1673ffffffffffffffffffffffffffffffffffffffff1673ffffffffffffffffffffffffffffffffffffffff1681526020015f820160149054906101000a900467ffffffffffffffff1667ffffffffffffffff1667ffffffffffffffff1681526020015f8201601c9054906101000a900460ff16151515158152505090505f73ffffffffffffffffffffffffffffffffffffffff16815f015173ffffffffffffffffffffffffffffffffffffffff1614611a04578092505050611a3e565b6118f7565b5b505b6040517fdf2d9b4200000000000000000000000000000000000000000000000000000000815260040160405180910390fd5b919050565b5f60085f9054906101000a900473ffffffffffffffffffffffffffffffffffffffff1690508160085f6101000a81548173ffffffffffffffffffffffffffffffffffffffff021916908373ffffffffffffffffffffffffffffffffffffffff1602179055508173ffffffffffffffffffffffffffffffffffffffff168173ffffffffffffffffffffffffffffffffffffffff167f8be0079c531659141344cd1fd0a4f28419497f9722a3daafe3b4186f6b6457e060405160405180910390a35050565b611b1f828260405180602001604052805f815250611df6565b5050565b5f5f8273ffffffffffffffffffffffffffffffffffffffff163b119050919050565b5f8373ffffffffffffffffffffffffffffffffffffffff1663150b7a02611b6a611274565b8786866040518563ffffffff1660e01b8152600401611b8c949392919061302f565b6020604051808303815f875af1925050508015611bc757506040513d601f19601f82011682018060405250810190611bc4919061308d565b60015b611c3d573d805f8114611bf5576040519150601f19603f3d011682016040523d82523d5f602084013e611bfa565b606091505b505f815103611c35576040517fd1a57ed600000000000000000000000000000000000000000000000000000000815260040160405180910390fd5b805181602001fd5b63150b7a0260e01b7bffffffffffffffffffffffffffffffffffffffffffffffffffffffff1916817bffffffffffffffffffffffffffffffffffffffffffffffffffffffff191614915050949350505050565b606060098054611c9f906129ec565b80601f0160208091040260200160405190810160405280929190818152602001828054611ccb906129ec565b8015611d165780601f10611ced57610100808354040283529160200191611d16565b820191905f5260205f20905b815481529060010190602001808311611cf957829003601f168201915b5050505050905090565b60605f6001611d2e84611e08565b0190505f8167ffffffffffffffff811115611d4c57611d4b61268f565b5b6040519080825280601f01601f191660200182016040528015611d7e5781602001600182028036833780820191505090505b5090505f82602001820190505b600115611ddf578080600190039150507f3031323334353637383961626364656600000000000000000000000000000000600a86061a8153600a8581611dd457611dd36130b8565b5b0494505f8503611d8b575b819350505050919050565b50505050565b50505050565b611e038383836001611f59565b505050565b5f5f5f90507a184f03e93ff9f4daa797ed6e38ed64bf6a1f0100000000000000008310611e64577a184f03e93ff9f4daa797ed6e38ed64bf6a1f0100000000000000008381611e5a57611e596130b8565b5b0492506040810190505b6d04ee2d6d415b85acef81000000008310611ea1576d04ee2d6d415b85acef81000000008381611e9757611e966130b8565b5b0492506020810190505b662386f26fc100008310611ed057662386f26fc100008381611ec657611ec56130b8565b5b0492506010810190505b6305f5e1008310611ef9576305f5e1008381611eef57611eee6130b8565b5b0492506008810190505b6127108310611f1e576127108381611f1457611f136130b8565b5b0492506004810190505b60648310611f415760648381611f3757611f366130b8565b5b0492506002810190505b600a8310611f50576001810190505b80915050919050565b5f5f5490505f73ffffffffffffffffffffffffffffffffffffffff168573ffffffffffffffffffffffffffffffffffffffff1603611fc3576040517f2e07630000000000000000000000000000000000000000000000000000000000815260040160405180910390fd5b5f8403611ffc576040517fb562e8dd00000000000000000000000000000000000000000000000000000000815260040160405180910390fd5b6120085f868387611dea565b8360055f8773ffffffffffffffffffffffffffffffffffffffff1673ffffffffffffffffffffffffffffffffffffffff1681526020019081526020015f205f015f8282829054906101000a900467ffffffffffffffff160192506101000a81548167ffffffffffffffff021916908367ffffffffffffffff1602179055508360055f8773ffffffffffffffffffffffffffffffffffffffff1673ffffffffffffffffffffffffffffffffffffffff1681526020019081526020015f205f0160088282829054906101000a900467ffffffffffffffff160192506101000a81548167ffffffffffffffff021916908367ffffffffffffffff1602179055508460045f8381526020019081526020015f205f015f6101000a81548173ffffffffffffffffffffffffffffffffffffffff021916908373ffffffffffffffffffffffffffffffffffffffff1602179055504260045f8381526020019081526020015f205f0160146101000a81548167ffffffffffffffff021916908367ffffffffffffffff1602179055505f8190505f85820190508380156121c257506121c18773ffffffffffffffffffffffffffffffffffffffff16611b23565b5b15612283575b818773ffffffffffffffffffffffffffffffffffffffff165f73ffffffffffffffffffffffffffffffffffffffff167fddf252ad1be2c89b69c2b068fc378daa952ba7f163c4a11628f55a4df523b3ef60405160405180910390a46122355f888480600101955088611b45565b61226b576040517fd1a57ed600000000000000000000000000000000000000000000000000000000815260040160405180910390fd5b8082036121c857825f541461227e575f5ffd5b6122ed565b5b818060010192508773ffffffffffffffffffffffffffffffffffffffff165f73ffffffffffffffffffffffffffffffffffffffff167fddf252ad1be2c89b69c2b068fc378daa952ba7f163c4a11628f55a4df523b3ef60405160405180910390a4808203612284575b815f8190555050506123015f868387611df0565b5050505050565b60405180606001604052805f73ffffffffffffffffffffffffffffffffffffffff1681526020015f67ffffffffffffffff1681526020015f151581525090565b5f604051905090565b5f5ffd5b5f5ffd5b5f7fffffffff0000000000000000000000000000000000000000000000000000000082169050919050565b61238d81612359565b8114612397575f5ffd5b50565b5f813590506123a881612384565b92915050565b5f602082840312156123c3576123c2612351565b5b5f6123d08482850161239a565b91505092915050565b5f8115159050919050565b6123ed816123d9565b82525050565b5f6020820190506124065f8301846123e4565b92915050565b612415816123d9565b811461241f575f5ffd5b50565b5f813590506124308161240c565b92915050565b5f6020828403121561244b5761244a612351565b5b5f61245884828501612422565b91505092915050565b5f81519050919050565b5f82825260208201905092915050565b8281835e5f83830152505050565b5f601f19601f8301169050919050565b5f6124a382612461565b6124ad818561246b565b93506124bd81856020860161247b565b6124c681612489565b840191505092915050565b5f6020820190508181035f8301526124e98184612499565b905092915050565b5f819050919050565b612503816124f1565b811461250d575f5ffd5b50565b5f8135905061251e816124fa565b92915050565b5f6020828403121561253957612538612351565b5b5f61254684828501612510565b91505092915050565b5f73ffffffffffffffffffffffffffffffffffffffff82169050919050565b5f6125788261254f565b9050919050565b6125888161256e565b82525050565b5f6020820190506125a15f83018461257f565b92915050565b6125b08161256e565b81146125ba575f5ffd5b50565b5f813590506125cb816125a7565b92915050565b5f5f604083850312156125e7576125e6612351565b5b5f6125f4858286016125bd565b925050602061260585828601612510565b9150509250929050565b612618816124f1565b82525050565b5f6020820190506126315f83018461260f565b92915050565b5f5f5f6060848603121561264e5761264d612351565b5b5f61265b868287016125bd565b935050602061266c868287016125bd565b925050604061267d86828701612510565b9150509250925092565b5f5ffd5b5f5ffd5b7f4e487b71000000000000000000000000000000000000000000000000000000005f52604160045260245ffd5b6126c582612489565b810181811067ffffffffffffffff821117156126e4576126e361268f565b5b80604052505050565b5f6126f6612348565b905061270282826126bc565b919050565b5f67ffffffffffffffff8211156127215761272061268f565b5b61272a82612489565b9050602081019050919050565b828183375f83830152505050565b5f61275761275284612707565b6126ed565b9050828152602081018484840111156127735761277261268b565b5b61277e848285612737565b509392505050565b5f82601f83011261279a57612799612687565b5b81356127aa848260208601612745565b91505092915050565b5f602082840312156127c8576127c7612351565b5b5f82013567ffffffffffffffff8111156127e5576127e4612355565b5b6127f184828501612786565b91505092915050565b5f6020828403121561280f5761280e612351565b5b5f61281c848285016125bd565b91505092915050565b5f5f6040838503121561283b5761283a612351565b5b5f612848858286016125bd565b925050602061285985828601612422565b9150509250929050565b5f67ffffffffffffffff82111561287d5761287c61268f565b5b61288682612489565b9050602081019050919050565b5f6128a56128a084612863565b6126ed565b9050828152602081018484840111156128c1576128c061268b565b5b6128cc848285612737565b509392505050565b5f82601f8301126128e8576128e7612687565b5b81356128f8848260208601612893565b91505092915050565b5f5f5f5f6080858703121561291957612918612351565b5b5f612926878288016125bd565b9450506020612937878288016125bd565b935050604061294887828801612510565b925050606085013567ffffffffffffffff81111561296957612968612355565b5b612975878288016128d4565b91505092959194509250565b5f5f6040838503121561299757612996612351565b5b5f6129a4858286016125bd565b92505060206129b5858286016125bd565b9150509250929050565b7f4e487b71000000000000000000000000000000000000000000000000000000005f52602260045260245ffd5b5f6002820490506001821680612a0357607f821691505b602082108103612a1657612a156129bf565b5b50919050565b5f819050815f5260205f209050919050565b5f6020601f8301049050919050565b5f82821b905092915050565b5f60088302612a787fffffffffffffffffffffffffffffffffffffffffffffffffffffffffffffffff82612a3d565b612a828683612a3d565b95508019841693508086168417925050509392505050565b5f819050919050565b5f612abd612ab8612ab3846124f1565b612a9a565b6124f1565b9050919050565b5f819050919050565b612ad683612aa3565b612aea612ae282612ac4565b848454612a49565b825550505050565b5f5f905090565b612b01612af2565b612b0c818484612acd565b505050565b5b81811015612b2f57612b245f82612af9565b600181019050612b12565b5050565b601f821115612b7457612b4581612a1c565b612b4e84612a2e565b81016020851015612b5d578190505b612b71612b6985612a2e565b830182612b11565b50505b505050565b5f82821c905092915050565b5f612b945f1984600802612b79565b1980831691505092915050565b5f612bac8383612b85565b9150826002028217905092915050565b612bc582612461565b67ffffffffffffffff811115612bde57612bdd61268f565b5b612be882546129ec565b612bf3828285612b33565b5f60209050601f831160018114612c24575f8415612c12578287015190505b612c1c8582612ba1565b865550612c83565b601f198416612c3286612a1c565b5f5b82811015612c5957848901518255600182019150602085019450602081019050612c34565b86831015612c765784890151612c72601f891682612b85565b8355505b6001600288020188555050505b505050505050565b7f53616c65206d7573742062652061637469766520746f206d696e7420746f6b655f8201527f6e73000000000000000000000000000000000000000000000000000000000000602082015250565b5f612ce560228361246b565b9150612cf082612c8b565b604082019050919050565b5f6020820190508181035f830152612d1281612cd9565b9050919050565b7f4e487b71000000000000000000000000000000000000000000000000000000005f52601160045260245ffd5b5f612d50826124f1565b9150612d5b836124f1565b9250828201905080821115612d7357612d72612d19565b5b92915050565b7f507572636861736520776f756c6420657863656564206d617820746f6b656e735f82015250565b5f612dad60208361246b565b9150612db882612d79565b602082019050919050565b5f6020820190508181035f830152612dda81612da1565b9050919050565b5f612deb826124f1565b9150612df6836124f1565b9250828202612e04816124f1565b91508282048414831517612e1b57612e1a612d19565b5b5092915050565b7f56616c75652073656e74206973206e6f7420636f7272656374000000000000005f82015250565b5f612e5660198361246b565b9150612e6182612e22565b602082019050919050565b5f6020820190508181035f830152612e8381612e4a565b9050919050565b5f81905092915050565b5f612e9e82612461565b612ea88185612e8a565b9350612eb881856020860161247b565b80840191505092915050565b5f612ecf8285612e94565b9150612edb8284612e94565b91508190509392505050565b7f4f776e61626c653a206e6577206f776e657220697320746865207a65726f20615f8201527f6464726573730000000000000000000000000000000000000000000000000000602082015250565b5f612f4160268361246b565b9150612f4c82612ee7565b604082019050919050565b5f6020820190508181035f830152612f6e81612f35565b9050919050565b7f4f776e61626c653a2063616c6c6572206973206e6f7420746865206f776e65725f82015250565b5f612fa960208361246b565b9150612fb482612f75565b602082019050919050565b5f6020820190508181035f830152612fd681612f9d565b9050919050565b5f81519050919050565b5f82825260208201905092915050565b5f61300182612fdd565b61300b8185612fe7565b935061301b81856020860161247b565b61302481612489565b840191505092915050565b5f6080820190506130425f83018761257f565b61304f602083018661257f565b61305c604083018561260f565b818103606083015261306e8184612ff7565b905095945050505050565b5f8151905061308781612384565b92915050565b5f602082840312156130a2576130a1612351565b5b5f6130af84828501613079565b91505092915050565b7f4e487b71000000000000000000000000000000000000000000000000000000005f52601260045260245ffdfea2646970667358221220389e60540f7918feb84698dee584a06de719b363d9f26866855ffc6d07c0018364736f6c634300081b0033",
			"opcodes": "PUSH1 0xA0 PUSH1 0x40 MSTORE PUSH1 0x1 PUSH1 0x8 PUSH1 0x14 PUSH2 0x100 EXP DUP2 SLOAD DUP2 PUSH1 0xFF MUL NOT AND SWAP1 DUP4 ISZERO ISZERO MUL OR SWAP1 SSTORE POP PUSH1 0x40 MLOAD PUSH2 0x37EF CODESIZE SUB DUP1 PUSH2 0x37EF DUP4 CODECOPY DUP2 DUP2 ADD PUSH1 0x40 MSTORE DUP2 ADD SWAP1 PUSH2 0x40 SWAP2 SWAP1 PUSH2 0x30D JUMP JUMPDEST DUP5 DUP5 DUP2 PUSH1 0x2 SWAP1 DUP2 PUSH2 0x51 SWAP2 SWAP1 PUSH2 0x5DF JUMP JUMPDEST POP DUP1 PUSH1 0x3 SWAP1 DUP2 PUSH2 0x61 SWAP2 SWAP1 PUSH2 0x5DF JUMP JUMPDEST POP PUSH2 0x70 PUSH2 0xBC PUSH1 0x20 SHL PUSH1 0x20 SHR JUMP JUMPDEST PUSH0 DUP2 SWAP1 SSTORE POP POP POP PUSH2 0x93 PUSH2 0x88 PUSH2 0xC3 PUSH1 0x20 SHL PUSH1 0x20 SHR JUMP JUMPDEST PUSH2 0xCA PUSH1 0x20 SHL PUSH1 0x20 SHR JUMP JUMPDEST DUP3 PUSH1 0x9 SWAP1 DUP2 PUSH2 0xA2 SWAP2 SWAP1 PUSH2 0x5DF JUMP JUMPDEST POP DUP2 PUSH1 0xA DUP2 SWAP1 SSTORE POP DUP1 PUSH1 0x80 DUP2 DUP2 MSTORE POP POP POP POP POP POP POP PUSH2 0x6AE JUMP JUMPDEST PUSH0 PUSH0 SWAP1 POP SWAP1 JUMP JUMPDEST PUSH0 CALLER SWAP1 POP SWAP1 JUMP JUMPDEST PUSH0 PUSH1 0x8 PUSH0 SWAP1 SLOAD SWAP1 PUSH2 0x100 EXP SWAP1 DIV PUSH20 0xFFFFFFFFFFFFFFFFFFFFFFFFFFFFFFFFFFFFFFFF AND SWAP1 POP DUP2 PUSH1 0x8 PUSH0 PUSH2 0x100 EXP DUP2 SLOAD DUP2 PUSH20 0xFFFFFFFFFFFFFFFFFFFFFFFFFFFFFFFFFFFFFFFF MUL NOT AND SWAP1 DUP4 PUSH20 0xFFFFFFFFFFFFFFFFFFFFFFFFFFFFFFFFFFFFFFFF AND MUL OR SWAP1 SSTORE POP DUP2 PUSH20 0xFFFFFFFFFFFFFFFFFFFFFFFFFFFFFFFFFFFFFFFF AND DUP2 PUSH20 0xFFFFFFFFFFFFFFFFFFFFFFFFFFFFFFFFFFFFFFFF AND PUSH32 0x8BE0079C531659141344CD1FD0A4F28419497F9722A3DAAFE3B4186F6B6457E0 PUSH1 0x40 MLOAD PUSH1 0x40 MLOAD DUP1 SWAP2 SUB SWAP1 LOG3 POP POP JUMP JUMPDEST PUSH0 PUSH1 0x40 MLOAD SWAP1 POP SWAP1 JUMP JUMPDEST PUSH0 PUSH0 REVERT JUMPDEST PUSH0 PUSH0 REVERT JUMPDEST PUSH0 PUSH0 REVERT JUMPDEST PUSH0 PUSH0 REVERT JUMPDEST PUSH0 PUSH1 0x1F NOT PUSH1 0x1F DUP4 ADD AND SWAP1 POP SWAP2 SWAP1 POP JUMP JUMPDEST PUSH32 0x4E487B7100000000000000000000000000000000000000000000000000000000 PUSH0 MSTORE PUSH1 0x41 PUSH1 0x4 MSTORE PUSH1 0x24 PUSH0 REVERT JUMPDEST PUSH2 0x1EC DUP3 PUSH2 0x1A6 JUMP JUMPDEST DUP2 ADD DUP2 DUP2 LT PUSH8 0xFFFFFFFFFFFFFFFF DUP3 GT OR ISZERO PUSH2 0x20B JUMPI PUSH2 0x20A PUSH2 0x1B6 JUMP JUMPDEST JUMPDEST DUP1 PUSH1 0x40 MSTORE POP POP POP JUMP JUMPDEST PUSH0 PUSH2 0x21D PUSH2 0x18D JUMP JUMPDEST SWAP1 POP PUSH2 0x229 DUP3 DUP3 PUSH2 0x1E3 JUMP JUMPDEST SWAP2 SWAP1 POP JUMP JUMPDEST PUSH0 PUSH8 0xFFFFFFFFFFFFFFFF DUP3 GT ISZERO PUSH2 0x248 JUMPI PUSH2 0x247 PUSH2 0x1B6 JUMP JUMPDEST JUMPDEST PUSH2 0x251 DUP3 PUSH2 0x1A6 JUMP JUMPDEST SWAP1 POP PUSH1 0x20 DUP2 ADD SWAP1 POP SWAP2 SWAP1 POP JUMP JUMPDEST DUP3 DUP2 DUP4 MCOPY PUSH0 DUP4 DUP4 ADD MSTORE POP POP POP JUMP JUMPDEST PUSH0 PUSH2 0x27E PUSH2 0x279 DUP5 PUSH2 0x22E JUMP JUMPDEST PUSH2 0x214 JUMP JUMPDEST SWAP1 POP DUP3 DUP2 MSTORE PUSH1 0x20 DUP2 ADD DUP5 DUP5 DUP5 ADD GT ISZERO PUSH2 0x29A JUMPI PUSH2 0x299 PUSH2 0x1A2 JUMP JUMPDEST JUMPDEST PUSH2 0x2A5 DUP5 DUP3 DUP6 PUSH2 0x25E JUMP JUMPDEST POP SWAP4 SWAP3 POP POP POP JUMP JUMPDEST PUSH0 DUP3 PUSH1 0x1F DUP4 ADD SLT PUSH2 0x2C1 JUMPI PUSH2 0x2C0 PUSH2 0x19E JUMP JUMPDEST JUMPDEST DUP2 MLOAD PUSH2 0x2D1 DUP5 DUP3 PUSH1 0x20 DUP7 ADD PUSH2 0x26C JUMP JUMPDEST SWAP2 POP POP SWAP3 SWAP2 POP POP JUMP JUMPDEST PUSH0 DUP2 SWAP1 POP SWAP2 SWAP1 POP JUMP JUMPDEST PUSH2 0x2EC DUP2 PUSH2 0x2DA JUMP JUMPDEST DUP2 EQ PUSH2 0x2F6 JUMPI PUSH0 PUSH0 REVERT JUMPDEST POP JUMP JUMPDEST PUSH0 DUP2 MLOAD SWAP1 POP PUSH2 0x307 DUP2 PUSH2 0x2E3 JUMP JUMPDEST SWAP3 SWAP2 POP POP JUMP JUMPDEST PUSH0 PUSH0 PUSH0 PUSH0 PUSH0 PUSH1 0xA0 DUP7 DUP9 SUB SLT ISZERO PUSH2 0x326 JUMPI PUSH2 0x325 PUSH2 0x196 JUMP JUMPDEST JUMPDEST PUSH0 DUP7 ADD MLOAD PUSH8 0xFFFFFFFFFFFFFFFF DUP2 GT ISZERO PUSH2 0x343 JUMPI PUSH2 0x342 PUSH2 0x19A JUMP JUMPDEST JUMPDEST PUSH2 0x34F DUP9 DUP3 DUP10 ADD PUSH2 0x2AD JUMP JUMPDEST SWAP6 POP POP PUSH1 0x20 DUP7 ADD MLOAD PUSH8 0xFFFFFFFFFFFFFFFF DUP2 GT ISZERO PUSH2 0x370 JUMPI PUSH2 0x36F PUSH2 0x19A JUMP JUMPDEST JUMPDEST PUSH2 0x37C DUP9 DUP3 DUP10 ADD PUSH2 0x2AD JUMP JUMPDEST SWAP5 POP POP PUSH1 0x40 DUP7 ADD MLOAD PUSH8 0xFFFFFFFFFFFFFFFF DUP2 GT ISZERO PUSH2 0x39D JUMPI PUSH2 0x39C PUSH2 0x19A JUMP JUMPDEST JUMPDEST PUSH2 0x3A9 DUP9 DUP3 DUP10 ADD PUSH2 0x2AD JUMP JUMPDEST SWAP4 POP POP PUSH1 0x60 PUSH2 0x3BA DUP9 DUP3 DUP10 ADD PUSH2 0x2F9 JUMP JUMPDEST SWAP3 POP POP PUSH1 0x80 PUSH2 0x3CB DUP9 DUP3 DUP10 ADD PUSH2 0x2F9 JUMP JUMPDEST SWAP2 POP POP SWAP3 SWAP6 POP SWAP3 SWAP6 SWAP1 SWAP4 POP JUMP JUMPDEST PUSH0 DUP2 MLOAD SWAP1 POP SWAP2 SWAP1 POP JUMP JUMPDEST PUSH32 0x4E487B7100000000000000000000000000000000000000000000000000000000 PUSH0 MSTORE PUSH1 0x22 PUSH1 0x4 MSTORE PUSH1 0x24 PUSH0 REVERT JUMPDEST PUSH0 PUSH1 0x2 DUP3 DIV SWAP1 POP PUSH1 0x1 DUP3 AND DUP1 PUSH2 0x426 JUMPI PUSH1 0x7F DUP3 AND SWAP2 POP JUMPDEST PUSH1 0x20 DUP3 LT DUP2 SUB PUSH2 0x439 JUMPI PUSH2 0x438 PUSH2 0x3E2 JUMP JUMPDEST JUMPDEST POP SWAP2 SWAP1 POP JUMP JUMPDEST PUSH0 DUP2 SWAP1 POP DUP2 PUSH0 MSTORE PUSH1 0x20 PUSH0 KECCAK256 SWAP1 POP SWAP2 SWAP1 POP JUMP JUMPDEST PUSH0 PUSH1 0x20 PUSH1 0x1F DUP4 ADD DIV SWAP1 POP SWAP2 SWAP1 POP JUMP JUMPDEST PUSH0 DUP3 DUP3 SHL SWAP1 POP SWAP3 SWAP2 POP POP JUMP JUMPDEST PUSH0 PUSH1 0x8 DUP4 MUL PUSH2 0x49B PUSH32 0xFFFFFFFFFFFFFFFFFFFFFFFFFFFFFFFFFFFFFFFFFFFFFFFFFFFFFFFFFFFFFFFF DUP3 PUSH2 0x460 JUMP JUMPDEST PUSH2 0x4A5 DUP7 DUP4 PUSH2 0x460 JUMP JUMPDEST SWAP6 POP DUP1 NOT DUP5 AND SWAP4 POP DUP1 DUP7 AND DUP5 OR SWAP3 POP POP POP SWAP4 SWAP3 POP POP POP JUMP JUMPDEST PUSH0 DUP2 SWAP1 POP SWAP2 SWAP1 POP JUMP JUMPDEST PUSH0 PUSH2 0x4E0 PUSH2 0x4DB PUSH2 0x4D6 DUP5 PUSH2 0x2DA JUMP JUMPDEST PUSH2 0x4BD JUMP JUMPDEST PUSH2 0x2DA JUMP JUMPDEST SWAP1 POP SWAP2 SWAP1 POP JUMP JUMPDEST PUSH0 DUP2 SWAP1 POP SWAP2 SWAP1 POP JUMP JUMPDEST PUSH2 0x4F9 DUP4 PUSH2 0x4C6 JUMP JUMPDEST PUSH2 0x50D PUSH2 0x505 DUP3 PUSH2 0x4E7 JUMP JUMPDEST DUP5 DUP5 SLOAD PUSH2 0x46C JUMP JUMPDEST DUP3 SSTORE POP POP POP POP JUMP JUMPDEST PUSH0 PUSH0 SWAP1 POP SWAP1 JUMP JUMPDEST PUSH2 0x524 PUSH2 0x515 JUMP JUMPDEST PUSH2 0x52F DUP2 DUP5 DUP5 PUSH2 0x4F0 JUMP JUMPDEST POP POP POP JUMP JUMPDEST JUMPDEST DUP2 DUP2 LT ISZERO PUSH2 0x552 JUMPI PUSH2 0x547 PUSH0 DUP3 PUSH2 0x51C JUMP JUMPDEST PUSH1 0x1 DUP2 ADD SWAP1 POP PUSH2 0x535 JUMP JUMPDEST POP POP JUMP JUMPDEST PUSH1 0x1F DUP3 GT ISZERO PUSH2 0x597 JUMPI PUSH2 0x568 DUP2 PUSH2 0x43F JUMP JUMPDEST PUSH2 0x571 DUP5 PUSH2 0x451 JUMP JUMPDEST DUP2 ADD PUSH1 0x20 DUP6 LT ISZERO PUSH2 0x580 JUMPI DUP2 SWAP1 POP JUMPDEST PUSH2 0x594 PUSH2 0x58C DUP6 PUSH2 0x451 JUMP JUMPDEST DUP4 ADD DUP3 PUSH2 0x534 JUMP JUMPDEST POP POP JUMPDEST POP POP POP JUMP JUMPDEST PUSH0 DUP3 DUP3 SHR SWAP1 POP SWAP3 SWAP2 POP POP JUMP JUMPDEST PUSH0 PUSH2 0x5B7 PUSH0 NOT DUP5 PUSH1 0x8 MUL PUSH2 0x59C JUMP JUMPDEST NOT DUP1 DUP4 AND SWAP2 POP POP SWAP3 SWAP2 POP POP JUMP JUMPDEST PUSH0 PUSH2 0x5CF DUP4 DUP4 PUSH2 0x5A8 JUMP JUMPDEST SWAP2 POP DUP3 PUSH1 0x2 MUL DUP3 OR SWAP1 POP SWAP3 SWAP2 POP POP JUMP JUMPDEST PUSH2 0x5E8 DUP3 PUSH2 0x3D8 JUMP JUMPDEST PUSH8 0xFFFFFFFFFFFFFFFF DUP2 GT ISZERO PUSH2 0x601 JUMPI PUSH2 0x600 PUSH2 0x1B6 JUMP JUMPDEST JUMPDEST PUSH2 0x60B DUP3 SLOAD PUSH2 0x40F JUMP JUMPDEST PUSH2 0x616 DUP3 DUP3 DUP6 PUSH2 0x556 JUMP JUMPDEST PUSH0 PUSH1 0x20 SWAP1 POP PUSH1 0x1F DUP4 GT PUSH1 0x1 DUP2 EQ PUSH2 0x647 JUMPI PUSH0 DUP5 ISZERO PUSH2 0x635 JUMPI DUP3 DUP8 ADD MLOAD SWAP1 POP JUMPDEST PUSH2 0x63F DUP6 DUP3 PUSH2 0x5C4 JUMP JUMPDEST DUP7 SSTORE POP PUSH2 0x6A6 JUMP JUMPDEST PUSH1 0x1F NOT DUP5 AND PUSH2 0x655 DUP7 PUSH2 0x43F JUMP JUMPDEST PUSH0 JUMPDEST DUP3 DUP2 LT ISZERO PUSH2 0x67C JUMPI DUP5 DUP10 ADD MLOAD DUP3 SSTORE PUSH1 0x1 DUP3 ADD SWAP2 POP PUSH1 0x20 DUP6 ADD SWAP5 POP PUSH1 0x20 DUP2 ADD SWAP1 POP PUSH2 0x657 JUMP JUMPDEST DUP7 DUP4 LT ISZERO PUSH2 0x699 JUMPI DUP5 DUP10 ADD MLOAD PUSH2 0x695 PUSH1 0x1F DUP10 AND DUP3 PUSH2 0x5A8 JUMP JUMPDEST DUP4 SSTORE POP JUMPDEST PUSH1 0x1 PUSH1 0x2 DUP9 MUL ADD DUP9 SSTORE POP POP POP JUMPDEST POP POP POP POP POP POP JUMP JUMPDEST PUSH1 0x80 MLOAD PUSH2 0x311B PUSH2 0x6D4 PUSH0 CODECOPY PUSH0 DUP2 DUP2 PUSH2 0x97F ADD MSTORE DUP2 DUP2 PUSH2 0xC3F ADD MSTORE PUSH2 0xFA6 ADD MSTORE PUSH2 0x311B PUSH0 RETURN INVALID PUSH1 0x80 PUSH1 0x40 MSTORE PUSH1 0x4 CALLDATASIZE LT PUSH2 0x19B JUMPI PUSH0 CALLDATALOAD PUSH1 0xE0 SHR DUP1 PUSH4 0x6352211E GT PUSH2 0xEB JUMPI DUP1 PUSH4 0xA22CB465 GT PUSH2 0x89 JUMPI DUP1 PUSH4 0xCC47A40B GT PUSH2 0x63 JUMPI DUP1 PUSH4 0xCC47A40B EQ PUSH2 0x579 JUMPI DUP1 PUSH4 0xE985E9C5 EQ PUSH2 0x5A1 JUMPI DUP1 PUSH4 0xEB8D2444 EQ PUSH2 0x5DD JUMPI DUP1 PUSH4 0xF2FDE38B EQ PUSH2 0x607 JUMPI PUSH2 0x19B JUMP JUMPDEST DUP1 PUSH4 0xA22CB465 EQ PUSH2 0x4ED JUMPI DUP1 PUSH4 0xB88D4FDE EQ PUSH2 0x515 JUMPI DUP1 PUSH4 0xC87B56DD EQ PUSH2 0x53D JUMPI PUSH2 0x19B JUMP JUMPDEST DUP1 PUSH4 0x8DA5CB5B GT PUSH2 0xC5 JUMPI DUP1 PUSH4 0x8DA5CB5B EQ PUSH2 0x453 JUMPI DUP1 PUSH4 0x95D89B41 EQ PUSH2 0x47D JUMPI DUP1 PUSH4 0x9D1B464A EQ PUSH2 0x4A7 JUMPI DUP1 PUSH4 0xA0712D68 EQ PUSH2 0x4D1 JUMPI PUSH2 0x19B JUMP JUMPDEST DUP1 PUSH4 0x6352211E EQ PUSH2 0x3C5 JUMPI DUP1 PUSH4 0x70A08231 EQ PUSH2 0x401 JUMPI DUP1 PUSH4 0x715018A6 EQ PUSH2 0x43D JUMPI PUSH2 0x19B JUMP JUMPDEST DUP1 PUSH4 0x18B20071 GT PUSH2 0x158 JUMPI DUP1 PUSH4 0x3C8463A1 GT PUSH2 0x132 JUMPI DUP1 PUSH4 0x3C8463A1 EQ PUSH2 0x335 JUMPI DUP1 PUSH4 0x3CCFD60B EQ PUSH2 0x35F JUMPI DUP1 PUSH4 0x42842E0E EQ PUSH2 0x375 JUMPI DUP1 PUSH4 0x55F804B3 EQ PUSH2 0x39D JUMPI PUSH2 0x19B JUMP JUMPDEST DUP1 PUSH4 0x18B20071 EQ PUSH2 0x2BB JUMPI DUP1 PUSH4 0x23B872DD EQ PUSH2 0x2E3 JUMPI DUP1 PUSH4 0x32CB6B0C EQ PUSH2 0x30B JUMPI PUSH2 0x19B JUMP JUMPDEST DUP1 PUSH4 0x1FFC9A7 EQ PUSH2 0x19F JUMPI DUP1 PUSH4 0x2C88989 EQ PUSH2 0x1DB JUMPI DUP1 PUSH4 0x6FDDE03 EQ PUSH2 0x203 JUMPI DUP1 PUSH4 0x81812FC EQ PUSH2 0x22D JUMPI DUP1 PUSH4 0x95EA7B3 EQ PUSH2 0x269 JUMPI DUP1 PUSH4 0x18160DDD EQ PUSH2 0x291 JUMPI JUMPDEST PUSH0 PUSH0 REVERT JUMPDEST CALLVALUE DUP1 ISZERO PUSH2 0x1AA JUMPI PUSH0 PUSH0 REVERT JUMPDEST POP PUSH2 0x1C5 PUSH1 0x4 DUP1 CALLDATASIZE SUB DUP2 ADD SWAP1 PUSH2 0x1C0 SWAP2 SWAP1 PUSH2 0x23AE JUMP JUMPDEST PUSH2 0x62F JUMP JUMPDEST PUSH1 0x40 MLOAD PUSH2 0x1D2 SWAP2 SWAP1 PUSH2 0x23F3 JUMP JUMPDEST PUSH1 0x40 MLOAD DUP1 SWAP2 SUB SWAP1 RETURN JUMPDEST CALLVALUE DUP1 ISZERO PUSH2 0x1E6 JUMPI PUSH0 PUSH0 REVERT JUMPDEST POP PUSH2 0x201 PUSH1 0x4 DUP1 CALLDATASIZE SUB DUP2 ADD SWAP1 PUSH2 0x1FC SWAP2 SWAP1 PUSH2 0x2436 JUMP JUMPDEST PUSH2 0x710 JUMP JUMPDEST STOP JUMPDEST CALLVALUE DUP1 ISZERO PUSH2 0x20E JUMPI PUSH0 PUSH0 REVERT JUMPDEST POP PUSH2 0x217 PUSH2 0x735 JUMP JUMPDEST PUSH1 0x40 MLOAD PUSH2 0x224 SWAP2 SWAP1 PUSH2 0x24D1 JUMP JUMPDEST PUSH1 0x40 MLOAD DUP1 SWAP2 SUB SWAP1 RETURN JUMPDEST CALLVALUE DUP1 ISZERO PUSH2 0x238 JUMPI PUSH0 PUSH0 REVERT JUMPDEST POP PUSH2 0x253 PUSH1 0x4 DUP1 CALLDATASIZE SUB DUP2 ADD SWAP1 PUSH2 0x24E SWAP2 SWAP1 PUSH2 0x2524 JUMP JUMPDEST PUSH2 0x7C5 JUMP JUMPDEST PUSH1 0x40 MLOAD PUSH2 0x260 SWAP2 SWAP1 PUSH2 0x258E JUMP JUMPDEST PUSH1 0x40 MLOAD DUP1 SWAP2 SUB SWAP1 RETURN JUMPDEST CALLVALUE DUP1 ISZERO PUSH2 0x274 JUMPI PUSH0 PUSH0 REVERT JUMPDEST POP PUSH2 0x28F PUSH1 0x4 DUP1 CALLDATASIZE SUB DUP2 ADD SWAP1 PUSH2 0x28A SWAP2 SWAP1 PUSH2 0x25D1 JUMP JUMPDEST PUSH2 0x83D JUMP JUMPDEST STOP JUMPDEST CALLVALUE DUP1 ISZERO PUSH2 0x29C JUMPI PUSH0 PUSH0 REVERT JUMPDEST POP PUSH2 0x2A5 PUSH2 0x946 JUMP JUMPDEST PUSH1 0x40 MLOAD PUSH2 0x2B2 SWAP2 SWAP1 PUSH2 0x261E JUMP JUMPDEST PUSH1 0x40 MLOAD DUP1 SWAP2 SUB SWAP1 RETURN JUMPDEST CALLVALUE DUP1 ISZERO PUSH2 0x2C6 JUMPI PUSH0 PUSH0 REVERT JUMPDEST POP PUSH2 0x2E1 PUSH1 0x4 DUP1 CALLDATASIZE SUB DUP2 ADD SWAP1 PUSH2 0x2DC SWAP2 SWAP1 PUSH2 0x2524 JUMP JUMPDEST PUSH2 0x95B JUMP JUMPDEST STOP JUMPDEST CALLVALUE DUP1 ISZERO PUSH2 0x2EE JUMPI PUSH0 PUSH0 REVERT JUMPDEST POP PUSH2 0x309 PUSH1 0x4 DUP1 CALLDATASIZE SUB DUP2 ADD SWAP1 PUSH2 0x304 SWAP2 SWAP1 PUSH2 0x2637 JUMP JUMPDEST PUSH2 0x96D JUMP JUMPDEST STOP JUMPDEST CALLVALUE DUP1 ISZERO PUSH2 0x316 JUMPI PUSH0 PUSH0 REVERT JUMPDEST POP PUSH2 0x31F PUSH2 0x97D JUMP JUMPDEST PUSH1 0x40 MLOAD PUSH2 0x32C SWAP2 SWAP1 PUSH2 0x261E JUMP JUMPDEST PUSH1 0x40 MLOAD DUP1 SWAP2 SUB SWAP1 RETURN JUMPDEST CALLVALUE DUP1 ISZERO PUSH2 0x340 JUMPI PUSH0 PUSH0 REVERT JUMPDEST POP PUSH2 0x349 PUSH2 0x9A1 JUMP JUMPDEST PUSH1 0x40 MLOAD PUSH2 0x356 SWAP2 SWAP1 PUSH2 0x261E JUMP JUMPDEST PUSH1 0x40 MLOAD DUP1 SWAP2 SUB SWAP1 RETURN JUMPDEST CALLVALUE DUP1 ISZERO PUSH2 0x36A JUMPI PUSH0 PUSH0 REVERT JUMPDEST POP PUSH2 0x373 PUSH2 0x9A7 JUMP JUMPDEST STOP JUMPDEST CALLVALUE DUP1 ISZERO PUSH2 0x380 JUMPI PUSH0 PUSH0 REVERT JUMPDEST POP PUSH2 0x39B PUSH1 0x4 DUP1 CALLDATASIZE SUB DUP2 ADD SWAP1 PUSH2 0x396 SWAP2 SWAP1 PUSH2 0x2637 JUMP JUMPDEST PUSH2 0x9FA JUMP JUMPDEST STOP JUMPDEST CALLVALUE DUP1 ISZERO PUSH2 0x3A8 JUMPI PUSH0 PUSH0 REVERT JUMPDEST POP PUSH2 0x3C3 PUSH1 0x4 DUP1 CALLDATASIZE SUB DUP2 ADD SWAP1 PUSH2 0x3BE SWAP2 SWAP1 PUSH2 0x27B3 JUMP JUMPDEST PUSH2 0xA19 JUMP JUMPDEST STOP JUMPDEST CALLVALUE DUP1 ISZERO PUSH2 0x3D0 JUMPI PUSH0 PUSH0 REVERT JUMPDEST POP PUSH2 0x3EB PUSH1 0x4 DUP1 CALLDATASIZE SUB DUP2 ADD SWAP1 PUSH2 0x3E6 SWAP2 SWAP1 PUSH2 0x2524 JUMP JUMPDEST PUSH2 0xA34 JUMP JUMPDEST PUSH1 0x40 MLOAD PUSH2 0x3F8 SWAP2 SWAP1 PUSH2 0x258E JUMP JUMPDEST PUSH1 0x40 MLOAD DUP1 SWAP2 SUB SWAP1 RETURN JUMPDEST CALLVALUE DUP1 ISZERO PUSH2 0x40C JUMPI PUSH0 PUSH0 REVERT JUMPDEST POP PUSH2 0x427 PUSH1 0x4 DUP1 CALLDATASIZE SUB DUP2 ADD SWAP1 PUSH2 0x422 SWAP2 SWAP1 PUSH2 0x27FA JUMP JUMPDEST PUSH2 0xA48 JUMP JUMPDEST PUSH1 0x40 MLOAD PUSH2 0x434 SWAP2 SWAP1 PUSH2 0x261E JUMP JUMPDEST PUSH1 0x40 MLOAD DUP1 SWAP2 SUB SWAP1 RETURN JUMPDEST CALLVALUE DUP1 ISZERO PUSH2 0x448 JUMPI PUSH0 PUSH0 REVERT JUMPDEST POP PUSH2 0x451 PUSH2 0xB12 JUMP JUMPDEST STOP JUMPDEST CALLVALUE DUP1 ISZERO PUSH2 0x45E JUMPI PUSH0 PUSH0 REVERT JUMPDEST POP PUSH2 0x467 PUSH2 0xB25 JUMP JUMPDEST PUSH1 0x40 MLOAD PUSH2 0x474 SWAP2 SWAP1 PUSH2 0x258E JUMP JUMPDEST PUSH1 0x40 MLOAD DUP1 SWAP2 SUB SWAP1 RETURN JUMPDEST CALLVALUE DUP1 ISZERO PUSH2 0x488 JUMPI PUSH0 PUSH0 REVERT JUMPDEST POP PUSH2 0x491 PUSH2 0xB4D JUMP JUMPDEST PUSH1 0x40 MLOAD PUSH2 0x49E SWAP2 SWAP1 PUSH2 0x24D1 JUMP JUMPDEST PUSH1 0x40 MLOAD DUP1 SWAP2 SUB SWAP1 RETURN JUMPDEST CALLVALUE DUP1 ISZERO PUSH2 0x4B2 JUMPI PUSH0 PUSH0 REVERT JUMPDEST POP PUSH2 0x4BB PUSH2 0xBDD JUMP JUMPDEST PUSH1 0x40 MLOAD PUSH2 0x4C8 SWAP2 SWAP1 PUSH2 0x261E JUMP JUMPDEST PUSH1 0x40 MLOAD DUP1 SWAP2 SUB SWAP1 RETURN JUMPDEST PUSH2 0x4EB PUSH1 0x4 DUP1 CALLDATASIZE SUB DUP2 ADD SWAP1 PUSH2 0x4E6 SWAP2 SWAP1 PUSH2 0x2524 JUMP JUMPDEST PUSH2 0xBE3 JUMP JUMPDEST STOP JUMPDEST CALLVALUE DUP1 ISZERO PUSH2 0x4F8 JUMPI PUSH0 PUSH0 REVERT JUMPDEST POP PUSH2 0x513 PUSH1 0x4 DUP1 CALLDATASIZE SUB DUP2 ADD SWAP1 PUSH2 0x50E SWAP2 SWAP1 PUSH2 0x2825 JUMP JUMPDEST PUSH2 0xD08 JUMP JUMPDEST STOP JUMPDEST CALLVALUE DUP1 ISZERO PUSH2 0x520 JUMPI PUSH0 PUSH0 REVERT JUMPDEST POP PUSH2 0x53B PUSH1 0x4 DUP1 CALLDATASIZE SUB DUP2 ADD SWAP1 PUSH2 0x536 SWAP2 SWAP1 PUSH2 0x2901 JUMP JUMPDEST PUSH2 0xE7A JUMP JUMPDEST STOP JUMPDEST CALLVALUE DUP1 ISZERO PUSH2 0x548 JUMPI PUSH0 PUSH0 REVERT JUMPDEST POP PUSH2 0x563 PUSH1 0x4 DUP1 CALLDATASIZE SUB DUP2 ADD SWAP1 PUSH2 0x55E SWAP2 SWAP1 PUSH2 0x2524 JUMP JUMPDEST PUSH2 0xEF6 JUMP JUMPDEST PUSH1 0x40 MLOAD PUSH2 0x570 SWAP2 SWAP1 PUSH2 0x24D1 JUMP JUMPDEST PUSH1 0x40 MLOAD DUP1 SWAP2 SUB SWAP1 RETURN JUMPDEST CALLVALUE DUP1 ISZERO PUSH2 0x584 JUMPI PUSH0 PUSH0 REVERT JUMPDEST POP PUSH2 0x59F PUSH1 0x4 DUP1 CALLDATASIZE SUB DUP2 ADD SWAP1 PUSH2 0x59A SWAP2 SWAP1 PUSH2 0x25D1 JUMP JUMPDEST PUSH2 0xF91 JUMP JUMPDEST STOP JUMPDEST CALLVALUE DUP1 ISZERO PUSH2 0x5AC JUMPI PUSH0 PUSH0 REVERT JUMPDEST POP PUSH2 0x5C7 PUSH1 0x4 DUP1 CALLDATASIZE SUB DUP2 ADD SWAP1 PUSH2 0x5C2 SWAP2 SWAP1 PUSH2 0x2981 JUMP JUMPDEST PUSH2 0x1021 JUMP JUMPDEST PUSH1 0x40 MLOAD PUSH2 0x5D4 SWAP2 SWAP1 PUSH2 0x23F3 JUMP JUMPDEST PUSH1 0x40 MLOAD DUP1 SWAP2 SUB SWAP1 RETURN JUMPDEST CALLVALUE DUP1 ISZERO PUSH2 0x5E8 JUMPI PUSH0 PUSH0 REVERT JUMPDEST POP PUSH2 0x5F1 PUSH2 0x10AF JUMP JUMPDEST PUSH1 0x40 MLOAD PUSH2 0x5FE SWAP2 SWAP1 PUSH2 0x23F3 JUMP JUMPDEST PUSH1 0x40 MLOAD DUP1 SWAP2 SUB SWAP1 RETURN JUMPDEST CALLVALUE DUP1 ISZERO PUSH2 0x612 JUMPI PUSH0 PUSH0 REVERT JUMPDEST POP PUSH2 0x62D PUSH1 0x4 DUP1 CALLDATASIZE SUB DUP2 ADD SWAP1 PUSH2 0x628 SWAP2 SWAP1 PUSH2 0x27FA JUMP JUMPDEST PUSH2 0x10C2 JUMP JUMPDEST STOP JUMPDEST PUSH0 PUSH32 0x80AC58CD00000000000000000000000000000000000000000000000000000000 PUSH28 0xFFFFFFFFFFFFFFFFFFFFFFFFFFFFFFFFFFFFFFFFFFFFFFFFFFFFFFFF NOT AND DUP3 PUSH28 0xFFFFFFFFFFFFFFFFFFFFFFFFFFFFFFFFFFFFFFFFFFFFFFFFFFFFFFFF NOT AND EQ DUP1 PUSH2 0x6F9 JUMPI POP PUSH32 0x5B5E139F00000000000000000000000000000000000000000000000000000000 PUSH28 0xFFFFFFFFFFFFFFFFFFFFFFFFFFFFFFFFFFFFFFFFFFFFFFFFFFFFFFFF NOT AND DUP3 PUSH28 0xFFFFFFFFFFFFFFFFFFFFFFFFFFFFFFFFFFFFFFFFFFFFFFFFFFFFFFFF NOT AND EQ JUMPDEST DUP1 PUSH2 0x709 JUMPI POP PUSH2 0x708 DUP3 PUSH2 0x1144 JUMP JUMPDEST JUMPDEST SWAP1 POP SWAP2 SWAP1 POP JUMP JUMPDEST PUSH2 0x718 PUSH2 0x11AD JUMP JUMPDEST DUP1 PUSH1 0x8 PUSH1 0x14 PUSH2 0x100 EXP DUP2 SLOAD DUP2 PUSH1 0xFF MUL NOT AND SWAP1 DUP4 ISZERO ISZERO MUL OR SWAP1 SSTORE POP POP JUMP JUMPDEST PUSH1 0x60 PUSH1 0x2 DUP1 SLOAD PUSH2 0x744 SWAP1 PUSH2 0x29EC JUMP JUMPDEST DUP1 PUSH1 0x1F ADD PUSH1 0x20 DUP1 SWAP2 DIV MUL PUSH1 0x20 ADD PUSH1 0x40 MLOAD SWAP1 DUP2 ADD PUSH1 0x40 MSTORE DUP1 SWAP3 SWAP2 SWAP1 DUP2 DUP2 MSTORE PUSH1 0x20 ADD DUP3 DUP1 SLOAD PUSH2 0x770 SWAP1 PUSH2 0x29EC JUMP JUMPDEST DUP1 ISZERO PUSH2 0x7BB JUMPI DUP1 PUSH1 0x1F LT PUSH2 0x792 JUMPI PUSH2 0x100 DUP1 DUP4 SLOAD DIV MUL DUP4 MSTORE SWAP2 PUSH1 0x20 ADD SWAP2 PUSH2 0x7BB JUMP JUMPDEST DUP3 ADD SWAP2 SWAP1 PUSH0 MSTORE PUSH1 0x20 PUSH0 KECCAK256 SWAP1 JUMPDEST DUP2 SLOAD DUP2 MSTORE SWAP1 PUSH1 0x1 ADD SWAP1 PUSH1 0x20 ADD DUP1 DUP4 GT PUSH2 0x79E JUMPI DUP3 SWAP1 SUB PUSH1 0x1F AND DUP3 ADD SWAP2 JUMPDEST POP POP POP POP POP SWAP1 POP SWAP1 JUMP JUMPDEST PUSH0 PUSH2 0x7CF DUP3 PUSH2 0x122B JUMP JUMPDEST PUSH2 0x805 JUMPI PUSH1 0x40 MLOAD PUSH32 0xCF4700E400000000000000000000000000000000000000000000000000000000 DUP2 MSTORE PUSH1 0x4 ADD PUSH1 0x40 MLOAD DUP1 SWAP2 SUB SWAP1 REVERT JUMPDEST PUSH1 0x6 PUSH0 DUP4 DUP2 MSTORE PUSH1 0x20 ADD SWAP1 DUP2 MSTORE PUSH1 0x20 ADD PUSH0 KECCAK256 PUSH0 SWAP1 SLOAD SWAP1 PUSH2 0x100 EXP SWAP1 DIV PUSH20 0xFFFFFFFFFFFFFFFFFFFFFFFFFFFFFFFFFFFFFFFF AND SWAP1 POP SWAP2 SWAP1 POP JUMP JUMPDEST PUSH0 PUSH2 0x847 DUP3 PUSH2 0xA34 JUMP JUMPDEST SWAP1 POP DUP1 PUSH20 0xFFFFFFFFFFFFFFFFFFFFFFFFFFFFFFFFFFFFFFFF AND DUP4 PUSH20 0xFFFFFFFFFFFFFFFFFFFFFFFFFFFFFFFFFFFFFFFF AND SUB PUSH2 0x8AE JUMPI PUSH1 0x40 MLOAD PUSH32 0x943F7B8C00000000000000000000000000000000000000000000000000000000 DUP2 MSTORE PUSH1 0x4 ADD PUSH1 0x40 MLOAD DUP1 SWAP2 SUB SWAP1 REVERT JUMPDEST DUP1 PUSH20 0xFFFFFFFFFFFFFFFFFFFFFFFFFFFFFFFFFFFFFFFF AND PUSH2 0x8CD PUSH2 0x1274 JUMP JUMPDEST PUSH20 0xFFFFFFFFFFFFFFFFFFFFFFFFFFFFFFFFFFFFFFFF AND EQ ISZERO DUP1 ISZERO PUSH2 0x8FF JUMPI POP PUSH2 0x8FD DUP2 PUSH2 0x8F8 PUSH2 0x1274 JUMP JUMPDEST PUSH2 0x1021 JUMP JUMPDEST ISZERO JUMPDEST ISZERO PUSH2 0x936 JUMPI PUSH1 0x40 MLOAD PUSH32 0xCFB3B94200000000000000000000000000000000000000000000000000000000 DUP2 MSTORE PUSH1 0x4 ADD PUSH1 0x40 MLOAD DUP1 SWAP2 SUB SWAP1 REVERT JUMPDEST PUSH2 0x941 DUP4 DUP4 DUP4 PUSH2 0x127B JUMP JUMPDEST POP POP POP JUMP JUMPDEST PUSH0 PUSH2 0x94F PUSH2 0x132A JUMP JUMPDEST PUSH1 0x1 SLOAD PUSH0 SLOAD SUB SUB SWAP1 POP SWAP1 JUMP JUMPDEST PUSH2 0x963 PUSH2 0x11AD JUMP JUMPDEST DUP1 PUSH1 0xA DUP2 SWAP1 SSTORE POP POP JUMP JUMPDEST PUSH2 0x978 DUP4 DUP4 DUP4 PUSH2 0x1331 JUMP JUMPDEST POP POP POP JUMP JUMPDEST PUSH32 0x0 DUP2 JUMP JUMPDEST PUSH1 0xB SLOAD DUP2 JUMP JUMPDEST PUSH2 0x9AF PUSH2 0x11AD JUMP JUMPDEST PUSH0 SELFBALANCE SWAP1 POP CALLER PUSH20 0xFFFFFFFFFFFFFFFFFFFFFFFFFFFFFFFFFFFFFFFF AND PUSH2 0x8FC DUP3 SWAP1 DUP2 ISZERO MUL SWAP1 PUSH1 0x40 MLOAD PUSH0 PUSH1 0x40 MLOAD DUP1 DUP4 SUB DUP2 DUP6 DUP9 DUP9 CALL SWAP4 POP POP POP POP ISZERO DUP1 ISZERO PUSH2 0x9F6 JUMPI RETURNDATASIZE PUSH0 PUSH0 RETURNDATACOPY RETURNDATASIZE PUSH0 REVERT JUMPDEST POP POP JUMP JUMPDEST PUSH2 0xA14 DUP4 DUP4 DUP4 PUSH1 0x40 MLOAD DUP1 PUSH1 0x20 ADD PUSH1 0x40 MSTORE DUP1 PUSH0 DUP2 MSTORE POP PUSH2 0xE7A JUMP JUMPDEST POP POP POP JUMP JUMPDEST PUSH2 0xA21 PUSH2 0x11AD JUMP JUMPDEST DUP1 PUSH1 0x9 SWAP1 DUP2 PUSH2 0xA30 SWAP2 SWAP1 PUSH2 0x2BBC JUMP JUMPDEST POP POP JUMP JUMPDEST PUSH0 PUSH2 0xA3E DUP3 PUSH2 0x17C7 JUMP JUMPDEST PUSH0 ADD MLOAD SWAP1 POP SWAP2 SWAP1 POP JUMP JUMPDEST PUSH0 PUSH0 PUSH20 0xFFFFFFFFFFFFFFFFFFFFFFFFFFFFFFFFFFFFFFFF AND DUP3 PUSH20 0xFFFFFFFFFFFFFFFFFFFFFFFFFFFFFFFFFFFFFFFF AND SUB PUSH2 0xAAE JUMPI PUSH1 0x40 MLOAD PUSH32 0x8F4EB60400000000000000000000000000000000000000000000000000000000 DUP2 MSTORE PUSH1 0x4 ADD PUSH1 0x40 MLOAD DUP1 SWAP2 SUB SWAP1 REVERT JUMPDEST PUSH1 0x5 PUSH0 DUP4 PUSH20 0xFFFFFFFFFFFFFFFFFFFFFFFFFFFFFFFFFFFFFFFF AND PUSH20 0xFFFFFFFFFFFFFFFFFFFFFFFFFFFFFFFFFFFFFFFF AND DUP2 MSTORE PUSH1 0x20 ADD SWAP1 DUP2 MSTORE PUSH1 0x20 ADD PUSH0 KECCAK256 PUSH0 ADD PUSH0 SWAP1 SLOAD SWAP1 PUSH2 0x100 EXP SWAP1 DIV PUSH8 0xFFFFFFFFFFFFFFFF AND PUSH8 0xFFFFFFFFFFFFFFFF AND SWAP1 POP SWAP2 SWAP1 POP JUMP JUMPDEST PUSH2 0xB1A PUSH2 0x11AD JUMP JUMPDEST PUSH2 0xB23 PUSH0 PUSH2 0x1A43 JUMP JUMPDEST JUMP JUMPDEST PUSH0 PUSH1 0x8 PUSH0 SWAP1 SLOAD SWAP1 PUSH2 0x100 EXP SWAP1 DIV PUSH20 0xFFFFFFFFFFFFFFFFFFFFFFFFFFFFFFFFFFFFFFFF AND SWAP1 POP SWAP1 JUMP JUMPDEST PUSH1 0x60 PUSH1 0x3 DUP1 SLOAD PUSH2 0xB5C SWAP1 PUSH2 0x29EC JUMP JUMPDEST DUP1 PUSH1 0x1F ADD PUSH1 0x20 DUP1 SWAP2 DIV MUL PUSH1 0x20 ADD PUSH1 0x40 MLOAD SWAP1 DUP2 ADD PUSH1 0x40 MSTORE DUP1 SWAP3 SWAP2 SWAP1 DUP2 DUP2 MSTORE PUSH1 0x20 ADD DUP3 DUP1 SLOAD PUSH2 0xB88 SWAP1 PUSH2 0x29EC JUMP JUMPDEST DUP1 ISZERO PUSH2 0xBD3 JUMPI DUP1 PUSH1 0x1F LT PUSH2 0xBAA JUMPI PUSH2 0x100 DUP1 DUP4 SLOAD DIV MUL DUP4 MSTORE SWAP2 PUSH1 0x20 ADD SWAP2 PUSH2 0xBD3 JUMP JUMPDEST DUP3 ADD SWAP2 SWAP1 PUSH0 MSTORE PUSH1 0x20 PUSH0 KECCAK256 SWAP1 JUMPDEST DUP2 SLOAD DUP2 MSTORE SWAP1 PUSH1 0x1 ADD SWAP1 PUSH1 0x20 ADD DUP1 DUP4 GT PUSH2 0xBB6 JUMPI DUP3 SWAP1 SUB PUSH1 0x1F AND DUP3 ADD SWAP2 JUMPDEST POP POP POP POP POP SWAP1 POP SWAP1 JUMP JUMPDEST PUSH1 0xA SLOAD DUP2 JUMP JUMPDEST PUSH0 PUSH2 0xBEC PUSH2 0x946 JUMP JUMPDEST SWAP1 POP PUSH1 0x8 PUSH1 0x14 SWAP1 SLOAD SWAP1 PUSH2 0x100 EXP SWAP1 DIV PUSH1 0xFF AND PUSH2 0xC3D JUMPI PUSH1 0x40 MLOAD PUSH32 0x8C379A000000000000000000000000000000000000000000000000000000000 DUP2 MSTORE PUSH1 0x4 ADD PUSH2 0xC34 SWAP1 PUSH2 0x2CFB JUMP JUMPDEST PUSH1 0x40 MLOAD DUP1 SWAP2 SUB SWAP1 REVERT JUMPDEST PUSH32 0x0 DUP3 DUP3 PUSH2 0xC6A SWAP2 SWAP1 PUSH2 0x2D46 JUMP JUMPDEST GT ISZERO PUSH2 0xCAB JUMPI PUSH1 0x40 MLOAD PUSH32 0x8C379A000000000000000000000000000000000000000000000000000000000 DUP2 MSTORE PUSH1 0x4 ADD PUSH2 0xCA2 SWAP1 PUSH2 0x2DC3 JUMP JUMPDEST PUSH1 0x40 MLOAD DUP1 SWAP2 SUB SWAP1 REVERT JUMPDEST CALLVALUE DUP3 PUSH1 0xA SLOAD PUSH2 0xCBA SWAP2 SWAP1 PUSH2 0x2DE1 JUMP JUMPDEST EQ PUSH2 0xCFA JUMPI PUSH1 0x40 MLOAD PUSH32 0x8C379A000000000000000000000000000000000000000000000000000000000 DUP2 MSTORE PUSH1 0x4 ADD PUSH2 0xCF1 SWAP1 PUSH2 0x2E6C JUMP JUMPDEST PUSH1 0x40 MLOAD DUP1 SWAP2 SUB SWAP1 REVERT JUMPDEST PUSH2 0xD04 CALLER DUP4 PUSH2 0x1B06 JUMP JUMPDEST POP POP JUMP JUMPDEST PUSH2 0xD10 PUSH2 0x1274 JUMP JUMPDEST PUSH20 0xFFFFFFFFFFFFFFFFFFFFFFFFFFFFFFFFFFFFFFFF AND DUP3 PUSH20 0xFFFFFFFFFFFFFFFFFFFFFFFFFFFFFFFFFFFFFFFF AND SUB PUSH2 0xD74 JUMPI PUSH1 0x40 MLOAD PUSH32 0xB06307DB00000000000000000000000000000000000000000000000000000000 DUP2 MSTORE PUSH1 0x4 ADD PUSH1 0x40 MLOAD DUP1 SWAP2 SUB SWAP1 REVERT JUMPDEST DUP1 PUSH1 0x7 PUSH0 PUSH2 0xD80 PUSH2 0x1274 JUMP JUMPDEST PUSH20 0xFFFFFFFFFFFFFFFFFFFFFFFFFFFFFFFFFFFFFFFF AND PUSH20 0xFFFFFFFFFFFFFFFFFFFFFFFFFFFFFFFFFFFFFFFF AND DUP2 MSTORE PUSH1 0x20 ADD SWAP1 DUP2 MSTORE PUSH1 0x20 ADD PUSH0 KECCAK256 PUSH0 DUP5 PUSH20 0xFFFFFFFFFFFFFFFFFFFFFFFFFFFFFFFFFFFFFFFF AND PUSH20 0xFFFFFFFFFFFFFFFFFFFFFFFFFFFFFFFFFFFFFFFF AND DUP2 MSTORE PUSH1 0x20 ADD SWAP1 DUP2 MSTORE PUSH1 0x20 ADD PUSH0 KECCAK256 PUSH0 PUSH2 0x100 EXP DUP2 SLOAD DUP2 PUSH1 0xFF MUL NOT AND SWAP1 DUP4 ISZERO ISZERO MUL OR SWAP1 SSTORE POP DUP2 PUSH20 0xFFFFFFFFFFFFFFFFFFFFFFFFFFFFFFFFFFFFFFFF AND PUSH2 0xE29 PUSH2 0x1274 JUMP JUMPDEST PUSH20 0xFFFFFFFFFFFFFFFFFFFFFFFFFFFFFFFFFFFFFFFF AND PUSH32 0x17307EAB39AB6107E8899845AD3D59BD9653F200F220920489CA2B5937696C31 DUP4 PUSH1 0x40 MLOAD PUSH2 0xE6E SWAP2 SWAP1 PUSH2 0x23F3 JUMP JUMPDEST PUSH1 0x40 MLOAD DUP1 SWAP2 SUB SWAP1 LOG3 POP POP JUMP JUMPDEST PUSH2 0xE85 DUP5 DUP5 DUP5 PUSH2 0x1331 JUMP JUMPDEST PUSH2 0xEA4 DUP4 PUSH20 0xFFFFFFFFFFFFFFFFFFFFFFFFFFFFFFFFFFFFFFFF AND PUSH2 0x1B23 JUMP JUMPDEST DUP1 ISZERO PUSH2 0xEB9 JUMPI POP PUSH2 0xEB7 DUP5 DUP5 DUP5 DUP5 PUSH2 0x1B45 JUMP JUMPDEST ISZERO JUMPDEST ISZERO PUSH2 0xEF0 JUMPI PUSH1 0x40 MLOAD PUSH32 0xD1A57ED600000000000000000000000000000000000000000000000000000000 DUP2 MSTORE PUSH1 0x4 ADD PUSH1 0x40 MLOAD DUP1 SWAP2 SUB SWAP1 REVERT JUMPDEST POP POP POP POP JUMP JUMPDEST PUSH1 0x60 PUSH2 0xF01 DUP3 PUSH2 0x122B JUMP JUMPDEST PUSH2 0xF37 JUMPI PUSH1 0x40 MLOAD PUSH32 0xA14C4B5000000000000000000000000000000000000000000000000000000000 DUP2 MSTORE PUSH1 0x4 ADD PUSH1 0x40 MLOAD DUP1 SWAP2 SUB SWAP1 REVERT JUMPDEST PUSH0 PUSH2 0xF40 PUSH2 0x1C90 JUMP JUMPDEST SWAP1 POP PUSH0 DUP2 MLOAD SUB PUSH2 0xF5E JUMPI PUSH1 0x40 MLOAD DUP1 PUSH1 0x20 ADD PUSH1 0x40 MSTORE DUP1 PUSH0 DUP2 MSTORE POP PUSH2 0xF89 JUMP JUMPDEST DUP1 PUSH2 0xF68 DUP5 PUSH2 0x1D20 JUMP JUMPDEST PUSH1 0x40 MLOAD PUSH1 0x20 ADD PUSH2 0xF79 SWAP3 SWAP2 SWAP1 PUSH2 0x2EC4 JUMP JUMPDEST PUSH1 0x40 MLOAD PUSH1 0x20 DUP2 DUP4 SUB SUB DUP2 MSTORE SWAP1 PUSH1 0x40 MSTORE JUMPDEST SWAP2 POP POP SWAP2 SWAP1 POP JUMP JUMPDEST PUSH2 0xF99 PUSH2 0x11AD JUMP JUMPDEST PUSH0 PUSH2 0xFA2 PUSH2 0x946 JUMP JUMPDEST SWAP1 POP PUSH32 0x0 DUP3 DUP3 PUSH2 0xFD1 SWAP2 SWAP1 PUSH2 0x2D46 JUMP JUMPDEST GT ISZERO PUSH2 0x1012 JUMPI PUSH1 0x40 MLOAD PUSH32 0x8C379A000000000000000000000000000000000000000000000000000000000 DUP2 MSTORE PUSH1 0x4 ADD PUSH2 0x1009 SWAP1 PUSH2 0x2DC3 JUMP JUMPDEST PUSH1 0x40 MLOAD DUP1 SWAP2 SUB SWAP1 REVERT JUMPDEST PUSH2 0x101C DUP4 DUP4 PUSH2 0x1B06 JUMP JUMPDEST POP POP POP JUMP JUMPDEST PUSH0 PUSH1 0x7 PUSH0 DUP5 PUSH20 0xFFFFFFFFFFFFFFFFFFFFFFFFFFFFFFFFFFFFFFFF AND PUSH20 0xFFFFFFFFFFFFFFFFFFFFFFFFFFFFFFFFFFFFFFFF AND DUP2 MSTORE PUSH1 0x20 ADD SWAP1 DUP2 MSTORE PUSH1 0x20 ADD PUSH0 KECCAK256 PUSH0 DUP4 PUSH20 0xFFFFFFFFFFFFFFFFFFFFFFFFFFFFFFFFFFFFFFFF AND PUSH20 0xFFFFFFFFFFFFFFFFFFFFFFFFFFFFFFFFFFFFFFFF AND DUP2 MSTORE PUSH1 0x20 ADD SWAP1 DUP2 MSTORE PUSH1 0x20 ADD PUSH0 KECCAK256 PUSH0 SWAP1 SLOAD SWAP1 PUSH2 0x100 EXP SWAP1 DIV PUSH1 0xFF AND SWAP1 POP SWAP3 SWAP2 POP POP JUMP JUMPDEST PUSH1 0x8 PUSH1 0x14 SWAP1 SLOAD SWAP1 PUSH2 0x100 EXP SWAP1 DIV PUSH1 0xFF AND DUP2 JUMP JUMPDEST PUSH2 0x10CA PUSH2 0x11AD JUMP JUMPDEST PUSH0 PUSH20 0xFFFFFFFFFFFFFFFFFFFFFFFFFFFFFFFFFFFFFFFF AND DUP2 PUSH20 0xFFFFFFFFFFFFFFFFFFFFFFFFFFFFFFFFFFFFFFFF AND SUB PUSH2 0x1138 JUMPI PUSH1 0x40 MLOAD PUSH32 0x8C379A000000000000000000000000000000000000000000000000000000000 DUP2 MSTORE PUSH1 0x4 ADD PUSH2 0x112F SWAP1 PUSH2 0x2F57 JUMP JUMPDEST PUSH1 0x40 MLOAD DUP1 SWAP2 SUB SWAP1 REVERT JUMPDEST PUSH2 0x1141 DUP2 PUSH2 0x1A43 JUMP JUMPDEST POP JUMP JUMPDEST PUSH0 PUSH32 0x1FFC9A700000000000000000000000000000000000000000000000000000000 PUSH28 0xFFFFFFFFFFFFFFFFFFFFFFFFFFFFFFFFFFFFFFFFFFFFFFFFFFFFFFFF NOT AND DUP3 PUSH28 0xFFFFFFFFFFFFFFFFFFFFFFFFFFFFFFFFFFFFFFFFFFFFFFFFFFFFFFFF NOT AND EQ SWAP1 POP SWAP2 SWAP1 POP JUMP JUMPDEST PUSH2 0x11B5 PUSH2 0x1274 JUMP JUMPDEST PUSH20 0xFFFFFFFFFFFFFFFFFFFFFFFFFFFFFFFFFFFFFFFF AND PUSH2 0x11D3 PUSH2 0xB25 JUMP JUMPDEST PUSH20 0xFFFFFFFFFFFFFFFFFFFFFFFFFFFFFFFFFFFFFFFF AND EQ PUSH2 0x1229 JUMPI PUSH1 0x40 MLOAD PUSH32 0x8C379A000000000000000000000000000000000000000000000000000000000 DUP2 MSTORE PUSH1 0x4 ADD PUSH2 0x1220 SWAP1 PUSH2 0x2FBF JUMP JUMPDEST PUSH1 0x40 MLOAD DUP1 SWAP2 SUB SWAP1 REVERT JUMPDEST JUMP JUMPDEST PUSH0 DUP2 PUSH2 0x1235 PUSH2 0x132A JUMP JUMPDEST GT ISZERO DUP1 ISZERO PUSH2 0x1243 JUMPI POP PUSH0 SLOAD DUP3 LT JUMPDEST DUP1 ISZERO PUSH2 0x126D JUMPI POP PUSH1 0x4 PUSH0 DUP4 DUP2 MSTORE PUSH1 0x20 ADD SWAP1 DUP2 MSTORE PUSH1 0x20 ADD PUSH0 KECCAK256 PUSH0 ADD PUSH1 0x1C SWAP1 SLOAD SWAP1 PUSH2 0x100 EXP SWAP1 DIV PUSH1 0xFF AND ISZERO JUMPDEST SWAP1 POP SWAP2 SWAP1 POP JUMP JUMPDEST PUSH0 CALLER SWAP1 POP SWAP1 JUMP JUMPDEST DUP3 PUSH1 0x6 PUSH0 DUP5 DUP2 MSTORE PUSH1 0x20 ADD SWAP1 DUP2 MSTORE PUSH1 0x20 ADD PUSH0 KECCAK256 PUSH0 PUSH2 0x100 EXP DUP2 SLOAD DUP2 PUSH20 0xFFFFFFFFFFFFFFFFFFFFFFFFFFFFFFFFFFFFFFFF MUL NOT AND SWAP1 DUP4 PUSH20 0xFFFFFFFFFFFFFFFFFFFFFFFFFFFFFFFFFFFFFFFF AND MUL OR SWAP1 SSTORE POP DUP2 DUP4 PUSH20 0xFFFFFFFFFFFFFFFFFFFFFFFFFFFFFFFFFFFFFFFF AND DUP3 PUSH20 0xFFFFFFFFFFFFFFFFFFFFFFFFFFFFFFFFFFFFFFFF AND PUSH32 0x8C5BE1E5EBEC7D5BD14F71427D1E84F3DD0314C0F7B2291E5B200AC8C7C3B925 PUSH1 0x40 MLOAD PUSH1 0x40 MLOAD DUP1 SWAP2 SUB SWAP1 LOG4 POP POP POP JUMP JUMPDEST PUSH0 PUSH0 SWAP1 POP SWAP1 JUMP JUMPDEST PUSH0 PUSH2 0x133B DUP3 PUSH2 0x17C7 JUMP JUMPDEST SWAP1 POP DUP4 PUSH20 0xFFFFFFFFFFFFFFFFFFFFFFFFFFFFFFFFFFFFFFFF AND DUP2 PUSH0 ADD MLOAD PUSH20 0xFFFFFFFFFFFFFFFFFFFFFFFFFFFFFFFFFFFFFFFF AND EQ PUSH2 0x13A5 JUMPI PUSH1 0x40 MLOAD PUSH32 0xA114810000000000000000000000000000000000000000000000000000000000 DUP2 MSTORE PUSH1 0x4 ADD PUSH1 0x40 MLOAD DUP1 SWAP2 SUB SWAP1 REVERT JUMPDEST PUSH0 DUP5 PUSH20 0xFFFFFFFFFFFFFFFFFFFFFFFFFFFFFFFFFFFFFFFF AND PUSH2 0x13C5 PUSH2 0x1274 JUMP JUMPDEST PUSH20 0xFFFFFFFFFFFFFFFFFFFFFFFFFFFFFFFFFFFFFFFF AND EQ DUP1 PUSH2 0x13F4 JUMPI POP PUSH2 0x13F3 DUP6 PUSH2 0x13EE PUSH2 0x1274 JUMP JUMPDEST PUSH2 0x1021 JUMP JUMPDEST JUMPDEST DUP1 PUSH2 0x1439 JUMPI POP PUSH2 0x1402 PUSH2 0x1274 JUMP JUMPDEST PUSH20 0xFFFFFFFFFFFFFFFFFFFFFFFFFFFFFFFFFFFFFFFF AND PUSH2 0x1421 DUP5 PUSH2 0x7C5 JUMP JUMPDEST PUSH20 0xFFFFFFFFFFFFFFFFFFFFFFFFFFFFFFFFFFFFFFFF AND EQ JUMPDEST SWAP1 POP DUP1 PUSH2 0x1472 JUMPI PUSH1 0x40 MLOAD PUSH32 0x59C896BE00000000000000000000000000000000000000000000000000000000 DUP2 MSTORE PUSH1 0x4 ADD PUSH1 0x40 MLOAD DUP1 SWAP2 SUB SWAP1 REVERT JUMPDEST PUSH0 PUSH20 0xFFFFFFFFFFFFFFFFFFFFFFFFFFFFFFFFFFFFFFFF AND DUP5 PUSH20 0xFFFFFFFFFFFFFFFFFFFFFFFFFFFFFFFFFFFFFFFF AND SUB PUSH2 0x14D7 JUMPI PUSH1 0x40 MLOAD PUSH32 0xEA553B3400000000000000000000000000000000000000000000000000000000 DUP2 MSTORE PUSH1 0x4 ADD PUSH1 0x40 MLOAD DUP1 SWAP2 SUB SWAP1 REVERT JUMPDEST PUSH2 0x14E4 DUP6 DUP6 DUP6 PUSH1 0x1 PUSH2 0x1DEA JUMP JUMPDEST PUSH2 0x14EF PUSH0 DUP5 DUP8 PUSH2 0x127B JUMP JUMPDEST PUSH1 0x1 PUSH1 0x5 PUSH0 DUP8 PUSH20 0xFFFFFFFFFFFFFFFFFFFFFFFFFFFFFFFFFFFFFFFF AND PUSH20 0xFFFFFFFFFFFFFFFFFFFFFFFFFFFFFFFFFFFFFFFF AND DUP2 MSTORE PUSH1 0x20 ADD SWAP1 DUP2 MSTORE PUSH1 0x20 ADD PUSH0 KECCAK256 PUSH0 ADD PUSH0 DUP3 DUP3 DUP3 SWAP1 SLOAD SWAP1 PUSH2 0x100 EXP SWAP1 DIV PUSH8 0xFFFFFFFFFFFFFFFF AND SUB SWAP3 POP PUSH2 0x100 EXP DUP2 SLOAD DUP2 PUSH8 0xFFFFFFFFFFFFFFFF MUL NOT AND SWAP1 DUP4 PUSH8 0xFFFFFFFFFFFFFFFF AND MUL OR SWAP1 SSTORE POP PUSH1 0x1 PUSH1 0x5 PUSH0 DUP7 PUSH20 0xFFFFFFFFFFFFFFFFFFFFFFFFFFFFFFFFFFFFFFFF AND PUSH20 0xFFFFFFFFFFFFFFFFFFFFFFFFFFFFFFFFFFFFFFFF AND DUP2 MSTORE PUSH1 0x20 ADD SWAP1 DUP2 MSTORE PUSH1 0x20 ADD PUSH0 KECCAK256 PUSH0 ADD PUSH0 DUP3 DUP3 DUP3 SWAP1 SLOAD SWAP1 PUSH2 0x100 EXP SWAP1 DIV PUSH8 0xFFFFFFFFFFFFFFFF AND ADD SWAP3 POP PUSH2 0x100 EXP DUP2 SLOAD DUP2 PUSH8 0xFFFFFFFFFFFFFFFF MUL NOT AND SWAP1 DUP4 PUSH8 0xFFFFFFFFFFFFFFFF AND MUL OR SWAP1 SSTORE POP PUSH0 PUSH1 0x4 PUSH0 DUP6 DUP2 MSTORE PUSH1 0x20 ADD SWAP1 DUP2 MSTORE PUSH1 0x20 ADD PUSH0 KECCAK256 SWAP1 POP DUP5 DUP2 PUSH0 ADD PUSH0 PUSH2 0x100 EXP DUP2 SLOAD DUP2 PUSH20 0xFFFFFFFFFFFFFFFFFFFFFFFFFFFFFFFFFFFFFFFF MUL NOT AND SWAP1 DUP4 PUSH20 0xFFFFFFFFFFFFFFFFFFFFFFFFFFFFFFFFFFFFFFFF AND MUL OR SWAP1 SSTORE POP TIMESTAMP DUP2 PUSH0 ADD PUSH1 0x14 PUSH2 0x100 EXP DUP2 SLOAD DUP2 PUSH8 0xFFFFFFFFFFFFFFFF MUL NOT AND SWAP1 DUP4 PUSH8 0xFFFFFFFFFFFFFFFF AND MUL OR SWAP1 SSTORE POP PUSH0 PUSH1 0x1 DUP6 ADD SWAP1 POP PUSH0 PUSH1 0x4 PUSH0 DUP4 DUP2 MSTORE PUSH1 0x20 ADD SWAP1 DUP2 MSTORE PUSH1 0x20 ADD PUSH0 KECCAK256 SWAP1 POP PUSH0 PUSH20 0xFFFFFFFFFFFFFFFFFFFFFFFFFFFFFFFFFFFFFFFF AND DUP2 PUSH0 ADD PUSH0 SWAP1 SLOAD SWAP1 PUSH2 0x100 EXP SWAP1 DIV PUSH20 0xFFFFFFFFFFFFFFFFFFFFFFFFFFFFFFFFFFFFFFFF AND PUSH20 0xFFFFFFFFFFFFFFFFFFFFFFFFFFFFFFFFFFFFFFFF AND SUB PUSH2 0x1755 JUMPI PUSH0 SLOAD DUP3 EQ PUSH2 0x1754 JUMPI DUP8 DUP2 PUSH0 ADD PUSH0 PUSH2 0x100 EXP DUP2 SLOAD DUP2 PUSH20 0xFFFFFFFFFFFFFFFFFFFFFFFFFFFFFFFFFFFFFFFF MUL NOT AND SWAP1 DUP4 PUSH20 0xFFFFFFFFFFFFFFFFFFFFFFFFFFFFFFFFFFFFFFFF AND MUL OR SWAP1 SSTORE POP DUP5 PUSH1 0x20 ADD MLOAD DUP2 PUSH0 ADD PUSH1 0x14 PUSH2 0x100 EXP DUP2 SLOAD DUP2 PUSH8 0xFFFFFFFFFFFFFFFF MUL NOT AND SWAP1 DUP4 PUSH8 0xFFFFFFFFFFFFFFFF AND MUL OR SWAP1 SSTORE POP JUMPDEST JUMPDEST POP POP POP DUP3 DUP5 PUSH20 0xFFFFFFFFFFFFFFFFFFFFFFFFFFFFFFFFFFFFFFFF AND DUP7 PUSH20 0xFFFFFFFFFFFFFFFFFFFFFFFFFFFFFFFFFFFFFFFF AND PUSH32 0xDDF252AD1BE2C89B69C2B068FC378DAA952BA7F163C4A11628F55A4DF523B3EF PUSH1 0x40 MLOAD PUSH1 0x40 MLOAD DUP1 SWAP2 SUB SWAP1 LOG4 PUSH2 0x17C0 DUP6 DUP6 DUP6 PUSH1 0x1 PUSH2 0x1DF0 JUMP JUMPDEST POP POP POP POP POP JUMP JUMPDEST PUSH2 0x17CF PUSH2 0x2308 JUMP JUMPDEST PUSH0 DUP3 SWAP1 POP DUP1 PUSH2 0x17DC PUSH2 0x132A JUMP JUMPDEST GT ISZERO DUP1 ISZERO PUSH2 0x17EA JUMPI POP PUSH0 SLOAD DUP2 LT JUMPDEST ISZERO PUSH2 0x1A0C JUMPI PUSH0 PUSH1 0x4 PUSH0 DUP4 DUP2 MSTORE PUSH1 0x20 ADD SWAP1 DUP2 MSTORE PUSH1 0x20 ADD PUSH0 KECCAK256 PUSH1 0x40 MLOAD DUP1 PUSH1 0x60 ADD PUSH1 0x40 MSTORE SWAP1 DUP2 PUSH0 DUP3 ADD PUSH0 SWAP1 SLOAD SWAP1 PUSH2 0x100 EXP SWAP1 DIV PUSH20 0xFFFFFFFFFFFFFFFFFFFFFFFFFFFFFFFFFFFFFFFF AND PUSH20 0xFFFFFFFFFFFFFFFFFFFFFFFFFFFFFFFFFFFFFFFF AND PUSH20 0xFFFFFFFFFFFFFFFFFFFFFFFFFFFFFFFFFFFFFFFF AND DUP2 MSTORE PUSH1 0x20 ADD PUSH0 DUP3 ADD PUSH1 0x14 SWAP1 SLOAD SWAP1 PUSH2 0x100 EXP SWAP1 DIV PUSH8 0xFFFFFFFFFFFFFFFF AND PUSH8 0xFFFFFFFFFFFFFFFF AND PUSH8 0xFFFFFFFFFFFFFFFF AND DUP2 MSTORE PUSH1 0x20 ADD PUSH0 DUP3 ADD PUSH1 0x1C SWAP1 SLOAD SWAP1 PUSH2 0x100 EXP SWAP1 DIV PUSH1 0xFF AND ISZERO ISZERO ISZERO ISZERO DUP2 MSTORE POP POP SWAP1 POP DUP1 PUSH1 0x40 ADD MLOAD PUSH2 0x1A0A JUMPI PUSH0 PUSH20 0xFFFFFFFFFFFFFFFFFFFFFFFFFFFFFFFFFFFFFFFF AND DUP2 PUSH0 ADD MLOAD PUSH20 0xFFFFFFFFFFFFFFFFFFFFFFFFFFFFFFFFFFFFFFFF AND EQ PUSH2 0x18F6 JUMPI DUP1 SWAP3 POP POP POP PUSH2 0x1A3E JUMP JUMPDEST JUMPDEST PUSH1 0x1 ISZERO PUSH2 0x1A09 JUMPI DUP2 DUP1 PUSH1 0x1 SWAP1 SUB SWAP3 POP POP PUSH1 0x4 PUSH0 DUP4 DUP2 MSTORE PUSH1 0x20 ADD SWAP1 DUP2 MSTORE PUSH1 0x20 ADD PUSH0 KECCAK256 PUSH1 0x40 MLOAD DUP1 PUSH1 0x60 ADD PUSH1 0x40 MSTORE SWAP1 DUP2 PUSH0 DUP3 ADD PUSH0 SWAP1 SLOAD SWAP1 PUSH2 0x100 EXP SWAP1 DIV PUSH20 0xFFFFFFFFFFFFFFFFFFFFFFFFFFFFFFFFFFFFFFFF AND PUSH20 0xFFFFFFFFFFFFFFFFFFFFFFFFFFFFFFFFFFFFFFFF AND PUSH20 0xFFFFFFFFFFFFFFFFFFFFFFFFFFFFFFFFFFFFFFFF AND DUP2 MSTORE PUSH1 0x20 ADD PUSH0 DUP3 ADD PUSH1 0x14 SWAP1 SLOAD SWAP1 PUSH2 0x100 EXP SWAP1 DIV PUSH8 0xFFFFFFFFFFFFFFFF AND PUSH8 0xFFFFFFFFFFFFFFFF AND PUSH8 0xFFFFFFFFFFFFFFFF AND DUP2 MSTORE PUSH1 0x20 ADD PUSH0 DUP3 ADD PUSH1 0x1C SWAP1 SLOAD SWAP1 PUSH2 0x100 EXP SWAP1 DIV PUSH1 0xFF AND ISZERO ISZERO ISZERO ISZERO DUP2 MSTORE POP POP SWAP1 POP PUSH0 PUSH20 0xFFFFFFFFFFFFFFFFFFFFFFFFFFFFFFFFFFFFFFFF AND DUP2 PUSH0 ADD MLOAD PUSH20 0xFFFFFFFFFFFFFFFFFFFFFFFFFFFFFFFFFFFFFFFF AND EQ PUSH2 0x1A04 JUMPI DUP1 SWAP3 POP POP POP PUSH2 0x1A3E JUMP JUMPDEST PUSH2 0x18F7 JUMP JUMPDEST JUMPDEST POP JUMPDEST PUSH1 0x40 MLOAD PUSH32 0xDF2D9B4200000000000000000000000000000000000000000000000000000000 DUP2 MSTORE PUSH1 0x4 ADD PUSH1 0x40 MLOAD DUP1 SWAP2 SUB SWAP1 REVERT JUMPDEST SWAP2 SWAP1 POP JUMP JUMPDEST PUSH0 PUSH1 0x8 PUSH0 SWAP1 SLOAD SWAP1 PUSH2 0x100 EXP SWAP1 DIV PUSH20 0xFFFFFFFFFFFFFFFFFFFFFFFFFFFFFFFFFFFFFFFF AND SWAP1 POP DUP2 PUSH1 0x8 PUSH0 PUSH2 0x100 EXP DUP2 SLOAD DUP2 PUSH20 0xFFFFFFFFFFFFFFFFFFFFFFFFFFFFFFFFFFFFFFFF MUL NOT AND SWAP1 DUP4 PUSH20 0xFFFFFFFFFFFFFFFFFFFFFFFFFFFFFFFFFFFFFFFF AND MUL OR SWAP1 SSTORE POP DUP2 PUSH20 0xFFFFFFFFFFFFFFFFFFFFFFFFFFFFFFFFFFFFFFFF AND DUP2 PUSH20 0xFFFFFFFFFFFFFFFFFFFFFFFFFFFFFFFFFFFFFFFF AND PUSH32 0x8BE0079C531659141344CD1FD0A4F28419497F9722A3DAAFE3B4186F6B6457E0 PUSH1 0x40 MLOAD PUSH1 0x40 MLOAD DUP1 SWAP2 SUB SWAP1 LOG3 POP POP JUMP JUMPDEST PUSH2 0x1B1F DUP3 DUP3 PUSH1 0x40 MLOAD DUP1 PUSH1 0x20 ADD PUSH1 0x40 MSTORE DUP1 PUSH0 DUP2 MSTORE POP PUSH2 0x1DF6 JUMP JUMPDEST POP POP JUMP JUMPDEST PUSH0 PUSH0 DUP3 PUSH20 0xFFFFFFFFFFFFFFFFFFFFFFFFFFFFFFFFFFFFFFFF AND EXTCODESIZE GT SWAP1 POP SWAP2 SWAP1 POP JUMP JUMPDEST PUSH0 DUP4 PUSH20 0xFFFFFFFFFFFFFFFFFFFFFFFFFFFFFFFFFFFFFFFF AND PUSH4 0x150B7A02 PUSH2 0x1B6A PUSH2 0x1274 JUMP JUMPDEST DUP8 DUP7 DUP7 PUSH1 0x40 MLOAD DUP6 PUSH4 0xFFFFFFFF AND PUSH1 0xE0 SHL DUP2 MSTORE PUSH1 0x4 ADD PUSH2 0x1B8C SWAP5 SWAP4 SWAP3 SWAP2 SWAP1 PUSH2 0x302F JUMP JUMPDEST PUSH1 0x20 PUSH1 0x40 MLOAD DUP1 DUP4 SUB DUP2 PUSH0 DUP8 GAS CALL SWAP3 POP POP POP DUP1 ISZERO PUSH2 0x1BC7 JUMPI POP PUSH1 0x40 MLOAD RETURNDATASIZE PUSH1 0x1F NOT PUSH1 0x1F DUP3 ADD AND DUP3 ADD DUP1 PUSH1 0x40 MSTORE POP DUP2 ADD SWAP1 PUSH2 0x1BC4 SWAP2 SWAP1 PUSH2 0x308D JUMP JUMPDEST PUSH1 0x1 JUMPDEST PUSH2 0x1C3D JUMPI RETURNDATASIZE DUP1 PUSH0 DUP2 EQ PUSH2 0x1BF5 JUMPI PUSH1 0x40 MLOAD SWAP2 POP PUSH1 0x1F NOT PUSH1 0x3F RETURNDATASIZE ADD AND DUP3 ADD PUSH1 0x40 MSTORE RETURNDATASIZE DUP3 MSTORE RETURNDATASIZE PUSH0 PUSH1 0x20 DUP5 ADD RETURNDATACOPY PUSH2 0x1BFA JUMP JUMPDEST PUSH1 0x60 SWAP2 POP JUMPDEST POP PUSH0 DUP2 MLOAD SUB PUSH2 0x1C35 JUMPI PUSH1 0x40 MLOAD PUSH32 0xD1A57ED600000000000000000000000000000000000000000000000000000000 DUP2 MSTORE PUSH1 0x4 ADD PUSH1 0x40 MLOAD DUP1 SWAP2 SUB SWAP1 REVERT JUMPDEST DUP1 MLOAD DUP2 PUSH1 0x20 ADD REVERT JUMPDEST PUSH4 0x150B7A02 PUSH1 0xE0 SHL PUSH28 0xFFFFFFFFFFFFFFFFFFFFFFFFFFFFFFFFFFFFFFFFFFFFFFFFFFFFFFFF NOT AND DUP2 PUSH28 0xFFFFFFFFFFFFFFFFFFFFFFFFFFFFFFFFFFFFFFFFFFFFFFFFFFFFFFFF NOT AND EQ SWAP2 POP POP SWAP5 SWAP4 POP POP POP POP JUMP JUMPDEST PUSH1 0x60 PUSH1 0x9 DUP1 SLOAD PUSH2 0x1C9F SWAP1 PUSH2 0x29EC JUMP JUMPDEST DUP1 PUSH1 0x1F ADD PUSH1 0x20 DUP1 SWAP2 DIV MUL PUSH1 0x20 ADD PUSH1 0x40 MLOAD SWAP1 DUP2 ADD PUSH1 0x40 MSTORE DUP1 SWAP3 SWAP2 SWAP1 DUP2 DUP2 MSTORE PUSH1 0x20 ADD DUP3 DUP1 SLOAD PUSH2 0x1CCB SWAP1 PUSH2 0x29EC JUMP JUMPDEST DUP1 ISZERO PUSH2 0x1D16 JUMPI DUP1 PUSH1 0x1F LT PUSH2 0x1CED JUMPI PUSH2 0x100 DUP1 DUP4 SLOAD DIV MUL DUP4 MSTORE SWAP2 PUSH1 0x20 ADD SWAP2 PUSH2 0x1D16 JUMP JUMPDEST DUP3 ADD SWAP2 SWAP1 PUSH0 MSTORE PUSH1 0x20 PUSH0 KECCAK256 SWAP1 JUMPDEST DUP2 SLOAD DUP2 MSTORE SWAP1 PUSH1 0x1 ADD SWAP1 PUSH1 0x20 ADD DUP1 DUP4 GT PUSH2 0x1CF9 JUMPI DUP3 SWAP1 SUB PUSH1 0x1F AND DUP3 ADD SWAP2 JUMPDEST POP POP POP POP POP SWAP1 POP SWAP1 JUMP JUMPDEST PUSH1 0x60 PUSH0 PUSH1 0x1 PUSH2 0x1D2E DUP5 PUSH2 0x1E08 JUMP JUMPDEST ADD SWAP1 POP PUSH0 DUP2 PUSH8 0xFFFFFFFFFFFFFFFF DUP2 GT ISZERO PUSH2 0x1D4C JUMPI PUSH2 0x1D4B PUSH2 0x268F JUMP JUMPDEST JUMPDEST PUSH1 0x40 MLOAD SWAP1 DUP1 DUP3 MSTORE DUP1 PUSH1 0x1F ADD PUSH1 0x1F NOT AND PUSH1 0x20 ADD DUP3 ADD PUSH1 0x40 MSTORE DUP1 ISZERO PUSH2 0x1D7E JUMPI DUP2 PUSH1 0x20 ADD PUSH1 0x1 DUP3 MUL DUP1 CALLDATASIZE DUP4 CALLDATACOPY DUP1 DUP3 ADD SWAP2 POP POP SWAP1 POP JUMPDEST POP SWAP1 POP PUSH0 DUP3 PUSH1 0x20 ADD DUP3 ADD SWAP1 POP JUMPDEST PUSH1 0x1 ISZERO PUSH2 0x1DDF JUMPI DUP1 DUP1 PUSH1 0x1 SWAP1 SUB SWAP2 POP POP PUSH32 0x3031323334353637383961626364656600000000000000000000000000000000 PUSH1 0xA DUP7 MOD BYTE DUP2 MSTORE8 PUSH1 0xA DUP6 DUP2 PUSH2 0x1DD4 JUMPI PUSH2 0x1DD3 PUSH2 0x30B8 JUMP JUMPDEST JUMPDEST DIV SWAP5 POP PUSH0 DUP6 SUB PUSH2 0x1D8B JUMPI JUMPDEST DUP2 SWAP4 POP POP POP POP SWAP2 SWAP1 POP JUMP JUMPDEST POP POP POP POP JUMP JUMPDEST POP POP POP POP JUMP JUMPDEST PUSH2 0x1E03 DUP4 DUP4 DUP4 PUSH1 0x1 PUSH2 0x1F59 JUMP JUMPDEST POP POP POP JUMP JUMPDEST PUSH0 PUSH0 PUSH0 SWAP1 POP PUSH27 0x184F03E93FF9F4DAA797ED6E38ED64BF6A1F010000000000000000 DUP4 LT PUSH2 0x1E64 JUMPI PUSH27 0x184F03E93FF9F4DAA797ED6E38ED64BF6A1F010000000000000000 DUP4 DUP2 PUSH2 0x1E5A JUMPI PUSH2 0x1E59 PUSH2 0x30B8 JUMP JUMPDEST JUMPDEST DIV SWAP3 POP PUSH1 0x40 DUP2 ADD SWAP1 POP JUMPDEST PUSH14 0x4EE2D6D415B85ACEF8100000000 DUP4 LT PUSH2 0x1EA1 JUMPI PUSH14 0x4EE2D6D415B85ACEF8100000000 DUP4 DUP2 PUSH2 0x1E97 JUMPI PUSH2 0x1E96 PUSH2 0x30B8 JUMP JUMPDEST JUMPDEST DIV SWAP3 POP PUSH1 0x20 DUP2 ADD SWAP1 POP JUMPDEST PUSH7 0x2386F26FC10000 DUP4 LT PUSH2 0x1ED0 JUMPI PUSH7 0x2386F26FC10000 DUP4 DUP2 PUSH2 0x1EC6 JUMPI PUSH2 0x1EC5 PUSH2 0x30B8 JUMP JUMPDEST JUMPDEST DIV SWAP3 POP PUSH1 0x10 DUP2 ADD SWAP1 POP JUMPDEST PUSH4 0x5F5E100 DUP4 LT PUSH2 0x1EF9 JUMPI PUSH4 0x5F5E100 DUP4 DUP2 PUSH2 0x1EEF JUMPI PUSH2 0x1EEE PUSH2 0x30B8 JUMP JUMPDEST JUMPDEST DIV SWAP3 POP PUSH1 0x8 DUP2 ADD SWAP1 POP JUMPDEST PUSH2 0x2710 DUP4 LT PUSH2 0x1F1E JUMPI PUSH2 0x2710 DUP4 DUP2 PUSH2 0x1F14 JUMPI PUSH2 0x1F13 PUSH2 0x30B8 JUMP JUMPDEST JUMPDEST DIV SWAP3 POP PUSH1 0x4 DUP2 ADD SWAP1 POP JUMPDEST PUSH1 0x64 DUP4 LT PUSH2 0x1F41 JUMPI PUSH1 0x64 DUP4 DUP2 PUSH2 0x1F37 JUMPI PUSH2 0x1F36 PUSH2 0x30B8 JUMP JUMPDEST JUMPDEST DIV SWAP3 POP PUSH1 0x2 DUP2 ADD SWAP1 POP JUMPDEST PUSH1 0xA DUP4 LT PUSH2 0x1F50 JUMPI PUSH1 0x1 DUP2 ADD SWAP1 POP JUMPDEST DUP1 SWAP2 POP POP SWAP2 SWAP1 POP JUMP JUMPDEST PUSH0 PUSH0 SLOAD SWAP1 POP PUSH0 PUSH20 0xFFFFFFFFFFFFFFFFFFFFFFFFFFFFFFFFFFFFFFFF AND DUP6 PUSH20 0xFFFFFFFFFFFFFFFFFFFFFFFFFFFFFFFFFFFFFFFF AND SUB PUSH2 0x1FC3 JUMPI PUSH1 0x40 MLOAD PUSH32 0x2E07630000000000000000000000000000000000000000000000000000000000 DUP2 MSTORE PUSH1 0x4 ADD PUSH1 0x40 MLOAD DUP1 SWAP2 SUB SWAP1 REVERT JUMPDEST PUSH0 DUP5 SUB PUSH2 0x1FFC JUMPI PUSH1 0x40 MLOAD PUSH32 0xB562E8DD00000000000000000000000000000000000000000000000000000000 DUP2 MSTORE PUSH1 0x4 ADD PUSH1 0x40 MLOAD DUP1 SWAP2 SUB SWAP1 REVERT JUMPDEST PUSH2 0x2008 PUSH0 DUP7 DUP4 DUP8 PUSH2 0x1DEA JUMP JUMPDEST DUP4 PUSH1 0x5 PUSH0 DUP8 PUSH20 0xFFFFFFFFFFFFFFFFFFFFFFFFFFFFFFFFFFFFFFFF AND PUSH20 0xFFFFFFFFFFFFFFFFFFFFFFFFFFFFFFFFFFFFFFFF AND DUP2 MSTORE PUSH1 0x20 ADD SWAP1 DUP2 MSTORE PUSH1 0x20 ADD PUSH0 KECCAK256 PUSH0 ADD PUSH0 DUP3 DUP3 DUP3 SWAP1 SLOAD SWAP1 PUSH2 0x100 EXP SWAP1 DIV PUSH8 0xFFFFFFFFFFFFFFFF AND ADD SWAP3 POP PUSH2 0x100 EXP DUP2 SLOAD DUP2 PUSH8 0xFFFFFFFFFFFFFFFF MUL NOT AND SWAP1 DUP4 PUSH8 0xFFFFFFFFFFFFFFFF AND MUL OR SWAP1 SSTORE POP DUP4 PUSH1 0x5 PUSH0 DUP8 PUSH20 0xFFFFFFFFFFFFFFFFFFFFFFFFFFFFFFFFFFFFFFFF AND PUSH20 0xFFFFFFFFFFFFFFFFFFFFFFFFFFFFFFFFFFFFFFFF AND DUP2 MSTORE PUSH1 0x20 ADD SWAP1 DUP2 MSTORE PUSH1 0x20 ADD PUSH0 KECCAK256 PUSH0 ADD PUSH1 0x8 DUP3 DUP3 DUP3 SWAP1 SLOAD SWAP1 PUSH2 0x100 EXP SWAP1 DIV PUSH8 0xFFFFFFFFFFFFFFFF AND ADD SWAP3 POP PUSH2 0x100 EXP DUP2 SLOAD DUP2 PUSH8 0xFFFFFFFFFFFFFFFF MUL NOT AND SWAP1 DUP4 PUSH8 0xFFFFFFFFFFFFFFFF AND MUL OR SWAP1 SSTORE POP DUP5 PUSH1 0x4 PUSH0 DUP4 DUP2 MSTORE PUSH1 0x20 ADD SWAP1 DUP2 MSTORE PUSH1 0x20 ADD PUSH0 KECCAK256 PUSH0 ADD PUSH0 PUSH2 0x100 EXP DUP2 SLOAD DUP2 PUSH20 0xFFFFFFFFFFFFFFFFFFFFFFFFFFFFFFFFFFFFFFFF MUL NOT AND SWAP1 DUP4 PUSH20 0xFFFFFFFFFFFFFFFFFFFFFFFFFFFFFFFFFFFFFFFF AND MUL OR SWAP1 SSTORE POP TIMESTAMP PUSH1 0x4 PUSH0 DUP4 DUP2 MSTORE PUSH1 0x20 ADD SWAP1 DUP2 MSTORE PUSH1 0x20 ADD PUSH0 KECCAK256 PUSH0 ADD PUSH1 0x14 PUSH2 0x100 EXP DUP2 SLOAD DUP2 PUSH8 0xFFFFFFFFFFFFFFFF MUL NOT AND SWAP1 DUP4 PUSH8 0xFFFFFFFFFFFFFFFF AND MUL OR SWAP1 SSTORE POP PUSH0 DUP2 SWAP1 POP PUSH0 DUP6 DUP3 ADD SWAP1 POP DUP4 DUP1 ISZERO PUSH2 0x21C2 JUMPI POP PUSH2 0x21C1 DUP8 PUSH20 0xFFFFFFFFFFFFFFFFFFFFFFFFFFFFFFFFFFFFFFFF AND PUSH2 0x1B23 JUMP JUMPDEST JUMPDEST ISZERO PUSH2 0x2283 JUMPI JUMPDEST DUP2 DUP8 PUSH20 0xFFFFFFFFFFFFFFFFFFFFFFFFFFFFFFFFFFFFFFFF AND PUSH0 PUSH20 0xFFFFFFFFFFFFFFFFFFFFFFFFFFFFFFFFFFFFFFFF AND PUSH32 0xDDF252AD1BE2C89B69C2B068FC378DAA952BA7F163C4A11628F55A4DF523B3EF PUSH1 0x40 MLOAD PUSH1 0x40 MLOAD DUP1 SWAP2 SUB SWAP1 LOG4 PUSH2 0x2235 PUSH0 DUP9 DUP5 DUP1 PUSH1 0x1 ADD SWAP6 POP DUP9 PUSH2 0x1B45 JUMP JUMPDEST PUSH2 0x226B JUMPI PUSH1 0x40 MLOAD PUSH32 0xD1A57ED600000000000000000000000000000000000000000000000000000000 DUP2 MSTORE PUSH1 0x4 ADD PUSH1 0x40 MLOAD DUP1 SWAP2 SUB SWAP1 REVERT JUMPDEST DUP1 DUP3 SUB PUSH2 0x21C8 JUMPI DUP3 PUSH0 SLOAD EQ PUSH2 0x227E JUMPI PUSH0 PUSH0 REVERT JUMPDEST PUSH2 0x22ED JUMP JUMPDEST JUMPDEST DUP2 DUP1 PUSH1 0x1 ADD SWAP3 POP DUP8 PUSH20 0xFFFFFFFFFFFFFFFFFFFFFFFFFFFFFFFFFFFFFFFF AND PUSH0 PUSH20 0xFFFFFFFFFFFFFFFFFFFFFFFFFFFFFFFFFFFFFFFF AND PUSH32 0xDDF252AD1BE2C89B69C2B068FC378DAA952BA7F163C4A11628F55A4DF523B3EF PUSH1 0x40 MLOAD PUSH1 0x40 MLOAD DUP1 SWAP2 SUB SWAP1 LOG4 DUP1 DUP3 SUB PUSH2 0x2284 JUMPI JUMPDEST DUP2 PUSH0 DUP2 SWAP1 SSTORE POP POP POP PUSH2 0x2301 PUSH0 DUP7 DUP4 DUP8 PUSH2 0x1DF0 JUMP JUMPDEST POP POP POP POP POP JUMP JUMPDEST PUSH1 0x40 MLOAD DUP1 PUSH1 0x60 ADD PUSH1 0x40 MSTORE DUP1 PUSH0 PUSH20 0xFFFFFFFFFFFFFFFFFFFFFFFFFFFFFFFFFFFFFFFF AND DUP2 MSTORE PUSH1 0x20 ADD PUSH0 PUSH8 0xFFFFFFFFFFFFFFFF AND DUP2 MSTORE PUSH1 0x20 ADD PUSH0 ISZERO ISZERO DUP2 MSTORE POP SWAP1 JUMP JUMPDEST PUSH0 PUSH1 0x40 MLOAD SWAP1 POP SWAP1 JUMP JUMPDEST PUSH0 PUSH0 REVERT JUMPDEST PUSH0 PUSH0 REVERT JUMPDEST PUSH0 PUSH32 0xFFFFFFFF00000000000000000000000000000000000000000000000000000000 DUP3 AND SWAP1 POP SWAP2 SWAP1 POP JUMP JUMPDEST PUSH2 0x238D DUP2 PUSH2 0x2359 JUMP JUMPDEST DUP2 EQ PUSH2 0x2397 JUMPI PUSH0 PUSH0 REVERT JUMPDEST POP JUMP JUMPDEST PUSH0 DUP2 CALLDATALOAD SWAP1 POP PUSH2 0x23A8 DUP2 PUSH2 0x2384 JUMP JUMPDEST SWAP3 SWAP2 POP POP JUMP JUMPDEST PUSH0 PUSH1 0x20 DUP3 DUP5 SUB SLT ISZERO PUSH2 0x23C3 JUMPI PUSH2 0x23C2 PUSH2 0x2351 JUMP JUMPDEST JUMPDEST PUSH0 PUSH2 0x23D0 DUP5 DUP3 DUP6 ADD PUSH2 0x239A JUMP JUMPDEST SWAP2 POP POP SWAP3 SWAP2 POP POP JUMP JUMPDEST PUSH0 DUP2 ISZERO ISZERO SWAP1 POP SWAP2 SWAP1 POP JUMP JUMPDEST PUSH2 0x23ED DUP2 PUSH2 0x23D9 JUMP JUMPDEST DUP3 MSTORE POP POP JUMP JUMPDEST PUSH0 PUSH1 0x20 DUP3 ADD SWAP1 POP PUSH2 0x2406 PUSH0 DUP4 ADD DUP5 PUSH2 0x23E4 JUMP JUMPDEST SWAP3 SWAP2 POP POP JUMP JUMPDEST PUSH2 0x2415 DUP2 PUSH2 0x23D9 JUMP JUMPDEST DUP2 EQ PUSH2 0x241F JUMPI PUSH0 PUSH0 REVERT JUMPDEST POP JUMP JUMPDEST PUSH0 DUP2 CALLDATALOAD SWAP1 POP PUSH2 0x2430 DUP2 PUSH2 0x240C JUMP JUMPDEST SWAP3 SWAP2 POP POP JUMP JUMPDEST PUSH0 PUSH1 0x20 DUP3 DUP5 SUB SLT ISZERO PUSH2 0x244B JUMPI PUSH2 0x244A PUSH2 0x2351 JUMP JUMPDEST JUMPDEST PUSH0 PUSH2 0x2458 DUP5 DUP3 DUP6 ADD PUSH2 0x2422 JUMP JUMPDEST SWAP2 POP POP SWAP3 SWAP2 POP POP JUMP JUMPDEST PUSH0 DUP2 MLOAD SWAP1 POP SWAP2 SWAP1 POP JUMP JUMPDEST PUSH0 DUP3 DUP3 MSTORE PUSH1 0x20 DUP3 ADD SWAP1 POP SWAP3 SWAP2 POP POP JUMP JUMPDEST DUP3 DUP2 DUP4 MCOPY PUSH0 DUP4 DUP4 ADD MSTORE POP POP POP JUMP JUMPDEST PUSH0 PUSH1 0x1F NOT PUSH1 0x1F DUP4 ADD AND SWAP1 POP SWAP2 SWAP1 POP JUMP JUMPDEST PUSH0 PUSH2 0x24A3 DUP3 PUSH2 0x2461 JUMP JUMPDEST PUSH2 0x24AD DUP2 DUP6 PUSH2 0x246B JUMP JUMPDEST SWAP4 POP PUSH2 0x24BD DUP2 DUP6 PUSH1 0x20 DUP7 ADD PUSH2 0x247B JUMP JUMPDEST PUSH2 0x24C6 DUP2 PUSH2 0x2489 JUMP JUMPDEST DUP5 ADD SWAP2 POP POP SWAP3 SWAP2 POP POP JUMP JUMPDEST PUSH0 PUSH1 0x20 DUP3 ADD SWAP1 POP DUP2 DUP2 SUB PUSH0 DUP4 ADD MSTORE PUSH2 0x24E9 DUP2 DUP5 PUSH2 0x2499 JUMP JUMPDEST SWAP1 POP SWAP3 SWAP2 POP POP JUMP JUMPDEST PUSH0 DUP2 SWAP1 POP SWAP2 SWAP1 POP JUMP JUMPDEST PUSH2 0x2503 DUP2 PUSH2 0x24F1 JUMP JUMPDEST DUP2 EQ PUSH2 0x250D JUMPI PUSH0 PUSH0 REVERT JUMPDEST POP JUMP JUMPDEST PUSH0 DUP2 CALLDATALOAD SWAP1 POP PUSH2 0x251E DUP2 PUSH2 0x24FA JUMP JUMPDEST SWAP3 SWAP2 POP POP JUMP JUMPDEST PUSH0 PUSH1 0x20 DUP3 DUP5 SUB SLT ISZERO PUSH2 0x2539 JUMPI PUSH2 0x2538 PUSH2 0x2351 JUMP JUMPDEST JUMPDEST PUSH0 PUSH2 0x2546 DUP5 DUP3 DUP6 ADD PUSH2 0x2510 JUMP JUMPDEST SWAP2 POP POP SWAP3 SWAP2 POP POP JUMP JUMPDEST PUSH0 PUSH20 0xFFFFFFFFFFFFFFFFFFFFFFFFFFFFFFFFFFFFFFFF DUP3 AND SWAP1 POP SWAP2 SWAP1 POP JUMP JUMPDEST PUSH0 PUSH2 0x2578 DUP3 PUSH2 0x254F JUMP JUMPDEST SWAP1 POP SWAP2 SWAP1 POP JUMP JUMPDEST PUSH2 0x2588 DUP2 PUSH2 0x256E JUMP JUMPDEST DUP3 MSTORE POP POP JUMP JUMPDEST PUSH0 PUSH1 0x20 DUP3 ADD SWAP1 POP PUSH2 0x25A1 PUSH0 DUP4 ADD DUP5 PUSH2 0x257F JUMP JUMPDEST SWAP3 SWAP2 POP POP JUMP JUMPDEST PUSH2 0x25B0 DUP2 PUSH2 0x256E JUMP JUMPDEST DUP2 EQ PUSH2 0x25BA JUMPI PUSH0 PUSH0 REVERT JUMPDEST POP JUMP JUMPDEST PUSH0 DUP2 CALLDATALOAD SWAP1 POP PUSH2 0x25CB DUP2 PUSH2 0x25A7 JUMP JUMPDEST SWAP3 SWAP2 POP POP JUMP JUMPDEST PUSH0 PUSH0 PUSH1 0x40 DUP4 DUP6 SUB SLT ISZERO PUSH2 0x25E7 JUMPI PUSH2 0x25E6 PUSH2 0x2351 JUMP JUMPDEST JUMPDEST PUSH0 PUSH2 0x25F4 DUP6 DUP3 DUP7 ADD PUSH2 0x25BD JUMP JUMPDEST SWAP3 POP POP PUSH1 0x20 PUSH2 0x2605 DUP6 DUP3 DUP7 ADD PUSH2 0x2510 JUMP JUMPDEST SWAP2 POP POP SWAP3 POP SWAP3 SWAP1 POP JUMP JUMPDEST PUSH2 0x2618 DUP2 PUSH2 0x24F1 JUMP JUMPDEST DUP3 MSTORE POP POP JUMP JUMPDEST PUSH0 PUSH1 0x20 DUP3 ADD SWAP1 POP PUSH2 0x2631 PUSH0 DUP4 ADD DUP5 PUSH2 0x260F JUMP JUMPDEST SWAP3 SWAP2 POP POP JUMP JUMPDEST PUSH0 PUSH0 PUSH0 PUSH1 0x60 DUP5 DUP7 SUB SLT ISZERO PUSH2 0x264E JUMPI PUSH2 0x264D PUSH2 0x2351 JUMP JUMPDEST JUMPDEST PUSH0 PUSH2 0x265B DUP7 DUP3 DUP8 ADD PUSH2 0x25BD JUMP JUMPDEST SWAP4 POP POP PUSH1 0x20 PUSH2 0x266C DUP7 DUP3 DUP8 ADD PUSH2 0x25BD JUMP JUMPDEST SWAP3 POP POP PUSH1 0x40 PUSH2 0x267D DUP7 DUP3 DUP8 ADD PUSH2 0x2510 JUMP JUMPDEST SWAP2 POP POP SWAP3 POP SWAP3 POP SWAP3 JUMP JUMPDEST PUSH0 PUSH0 REVERT JUMPDEST PUSH0 PUSH0 REVERT JUMPDEST PUSH32 0x4E487B7100000000000000000000000000000000000000000000000000000000 PUSH0 MSTORE PUSH1 0x41 PUSH1 0x4 MSTORE PUSH1 0x24 PUSH0 REVERT JUMPDEST PUSH2 0x26C5 DUP3 PUSH2 0x2489 JUMP JUMPDEST DUP2 ADD DUP2 DUP2 LT PUSH8 0xFFFFFFFFFFFFFFFF DUP3 GT OR ISZERO PUSH2 0x26E4 JUMPI PUSH2 0x26E3 PUSH2 0x268F JUMP JUMPDEST JUMPDEST DUP1 PUSH1 0x40 MSTORE POP POP POP JUMP JUMPDEST PUSH0 PUSH2 0x26F6 PUSH2 0x2348 JUMP JUMPDEST SWAP1 POP PUSH2 0x2702 DUP3 DUP3 PUSH2 0x26BC JUMP JUMPDEST SWAP2 SWAP1 POP JUMP JUMPDEST PUSH0 PUSH8 0xFFFFFFFFFFFFFFFF DUP3 GT ISZERO PUSH2 0x2721 JUMPI PUSH2 0x2720 PUSH2 0x268F JUMP JUMPDEST JUMPDEST PUSH2 0x272A DUP3 PUSH2 0x2489 JUMP JUMPDEST SWAP1 POP PUSH1 0x20 DUP2 ADD SWAP1 POP SWAP2 SWAP1 POP JUMP JUMPDEST DUP3 DUP2 DUP4 CALLDATACOPY PUSH0 DUP4 DUP4 ADD MSTORE POP POP POP JUMP JUMPDEST PUSH0 PUSH2 0x2757 PUSH2 0x2752 DUP5 PUSH2 0x2707 JUMP JUMPDEST PUSH2 0x26ED JUMP JUMPDEST SWAP1 POP DUP3 DUP2 MSTORE PUSH1 0x20 DUP2 ADD DUP5 DUP5 DUP5 ADD GT ISZERO PUSH2 0x2773 JUMPI PUSH2 0x2772 PUSH2 0x268B JUMP JUMPDEST JUMPDEST PUSH2 0x277E DUP5 DUP3 DUP6 PUSH2 0x2737 JUMP JUMPDEST POP SWAP4 SWAP3 POP POP POP JUMP JUMPDEST PUSH0 DUP3 PUSH1 0x1F DUP4 ADD SLT PUSH2 0x279A JUMPI PUSH2 0x2799 PUSH2 0x2687 JUMP JUMPDEST JUMPDEST DUP2 CALLDATALOAD PUSH2 0x27AA DUP5 DUP3 PUSH1 0x20 DUP7 ADD PUSH2 0x2745 JUMP JUMPDEST SWAP2 POP POP SWAP3 SWAP2 POP POP JUMP JUMPDEST PUSH0 PUSH1 0x20 DUP3 DUP5 SUB SLT ISZERO PUSH2 0x27C8 JUMPI PUSH2 0x27C7 PUSH2 0x2351 JUMP JUMPDEST JUMPDEST PUSH0 DUP3 ADD CALLDATALOAD PUSH8 0xFFFFFFFFFFFFFFFF DUP2 GT ISZERO PUSH2 0x27E5 JUMPI PUSH2 0x27E4 PUSH2 0x2355 JUMP JUMPDEST JUMPDEST PUSH2 0x27F1 DUP5 DUP3 DUP6 ADD PUSH2 0x2786 JUMP JUMPDEST SWAP2 POP POP SWAP3 SWAP2 POP POP JUMP JUMPDEST PUSH0 PUSH1 0x20 DUP3 DUP5 SUB SLT ISZERO PUSH2 0x280F JUMPI PUSH2 0x280E PUSH2 0x2351 JUMP JUMPDEST JUMPDEST PUSH0 PUSH2 0x281C DUP5 DUP3 DUP6 ADD PUSH2 0x25BD JUMP JUMPDEST SWAP2 POP POP SWAP3 SWAP2 POP POP JUMP JUMPDEST PUSH0 PUSH0 PUSH1 0x40 DUP4 DUP6 SUB SLT ISZERO PUSH2 0x283B JUMPI PUSH2 0x283A PUSH2 0x2351 JUMP JUMPDEST JUMPDEST PUSH0 PUSH2 0x2848 DUP6 DUP3 DUP7 ADD PUSH2 0x25BD JUMP JUMPDEST SWAP3 POP POP PUSH1 0x20 PUSH2 0x2859 DUP6 DUP3 DUP7 ADD PUSH2 0x2422 JUMP JUMPDEST SWAP2 POP POP SWAP3 POP SWAP3 SWAP1 POP JUMP JUMPDEST PUSH0 PUSH8 0xFFFFFFFFFFFFFFFF DUP3 GT ISZERO PUSH2 0x287D JUMPI PUSH2 0x287C PUSH2 0x268F JUMP JUMPDEST JUMPDEST PUSH2 0x2886 DUP3 PUSH2 0x2489 JUMP JUMPDEST SWAP1 POP PUSH1 0x20 DUP2 ADD SWAP1 POP SWAP2 SWAP1 POP JUMP JUMPDEST PUSH0 PUSH2 0x28A5 PUSH2 0x28A0 DUP5 PUSH2 0x2863 JUMP JUMPDEST PUSH2 0x26ED JUMP JUMPDEST SWAP1 POP DUP3 DUP2 MSTORE PUSH1 0x20 DUP2 ADD DUP5 DUP5 DUP5 ADD GT ISZERO PUSH2 0x28C1 JUMPI PUSH2 0x28C0 PUSH2 0x268B JUMP JUMPDEST JUMPDEST PUSH2 0x28CC DUP5 DUP3 DUP6 PUSH2 0x2737 JUMP JUMPDEST POP SWAP4 SWAP3 POP POP POP JUMP JUMPDEST PUSH0 DUP3 PUSH1 0x1F DUP4 ADD SLT PUSH2 0x28E8 JUMPI PUSH2 0x28E7 PUSH2 0x2687 JUMP JUMPDEST JUMPDEST DUP2 CALLDATALOAD PUSH2 0x28F8 DUP5 DUP3 PUSH1 0x20 DUP7 ADD PUSH2 0x2893 JUMP JUMPDEST SWAP2 POP POP SWAP3 SWAP2 POP POP JUMP JUMPDEST PUSH0 PUSH0 PUSH0 PUSH0 PUSH1 0x80 DUP6 DUP8 SUB SLT ISZERO PUSH2 0x2919 JUMPI PUSH2 0x2918 PUSH2 0x2351 JUMP JUMPDEST JUMPDEST PUSH0 PUSH2 0x2926 DUP8 DUP3 DUP9 ADD PUSH2 0x25BD JUMP JUMPDEST SWAP5 POP POP PUSH1 0x20 PUSH2 0x2937 DUP8 DUP3 DUP9 ADD PUSH2 0x25BD JUMP JUMPDEST SWAP4 POP POP PUSH1 0x40 PUSH2 0x2948 DUP8 DUP3 DUP9 ADD PUSH2 0x2510 JUMP JUMPDEST SWAP3 POP POP PUSH1 0x60 DUP6 ADD CALLDATALOAD PUSH8 0xFFFFFFFFFFFFFFFF DUP2 GT ISZERO PUSH2 0x2969 JUMPI PUSH2 0x2968 PUSH2 0x2355 JUMP JUMPDEST JUMPDEST PUSH2 0x2975 DUP8 DUP3 DUP9 ADD PUSH2 0x28D4 JUMP JUMPDEST SWAP2 POP POP SWAP3 SWAP6 SWAP2 SWAP5 POP SWAP3 POP JUMP JUMPDEST PUSH0 PUSH0 PUSH1 0x40 DUP4 DUP6 SUB SLT ISZERO PUSH2 0x2997 JUMPI PUSH2 0x2996 PUSH2 0x2351 JUMP JUMPDEST JUMPDEST PUSH0 PUSH2 0x29A4 DUP6 DUP3 DUP7 ADD PUSH2 0x25BD JUMP JUMPDEST SWAP3 POP POP PUSH1 0x20 PUSH2 0x29B5 DUP6 DUP3 DUP7 ADD PUSH2 0x25BD JUMP JUMPDEST SWAP2 POP POP SWAP3 POP SWAP3 SWAP1 POP JUMP JUMPDEST PUSH32 0x4E487B7100000000000000000000000000000000000000000000000000000000 PUSH0 MSTORE PUSH1 0x22 PUSH1 0x4 MSTORE PUSH1 0x24 PUSH0 REVERT JUMPDEST PUSH0 PUSH1 0x2 DUP3 DIV SWAP1 POP PUSH1 0x1 DUP3 AND DUP1 PUSH2 0x2A03 JUMPI PUSH1 0x7F DUP3 AND SWAP2 POP JUMPDEST PUSH1 0x20 DUP3 LT DUP2 SUB PUSH2 0x2A16 JUMPI PUSH2 0x2A15 PUSH2 0x29BF JUMP JUMPDEST JUMPDEST POP SWAP2 SWAP1 POP JUMP JUMPDEST PUSH0 DUP2 SWAP1 POP DUP2 PUSH0 MSTORE PUSH1 0x20 PUSH0 KECCAK256 SWAP1 POP SWAP2 SWAP1 POP JUMP JUMPDEST PUSH0 PUSH1 0x20 PUSH1 0x1F DUP4 ADD DIV SWAP1 POP SWAP2 SWAP1 POP JUMP JUMPDEST PUSH0 DUP3 DUP3 SHL SWAP1 POP SWAP3 SWAP2 POP POP JUMP JUMPDEST PUSH0 PUSH1 0x8 DUP4 MUL PUSH2 0x2A78 PUSH32 0xFFFFFFFFFFFFFFFFFFFFFFFFFFFFFFFFFFFFFFFFFFFFFFFFFFFFFFFFFFFFFFFF DUP3 PUSH2 0x2A3D JUMP JUMPDEST PUSH2 0x2A82 DUP7 DUP4 PUSH2 0x2A3D JUMP JUMPDEST SWAP6 POP DUP1 NOT DUP5 AND SWAP4 POP DUP1 DUP7 AND DUP5 OR SWAP3 POP POP POP SWAP4 SWAP3 POP POP POP JUMP JUMPDEST PUSH0 DUP2 SWAP1 POP SWAP2 SWAP1 POP JUMP JUMPDEST PUSH0 PUSH2 0x2ABD PUSH2 0x2AB8 PUSH2 0x2AB3 DUP5 PUSH2 0x24F1 JUMP JUMPDEST PUSH2 0x2A9A JUMP JUMPDEST PUSH2 0x24F1 JUMP JUMPDEST SWAP1 POP SWAP2 SWAP1 POP JUMP JUMPDEST PUSH0 DUP2 SWAP1 POP SWAP2 SWAP1 POP JUMP JUMPDEST PUSH2 0x2AD6 DUP4 PUSH2 0x2AA3 JUMP JUMPDEST PUSH2 0x2AEA PUSH2 0x2AE2 DUP3 PUSH2 0x2AC4 JUMP JUMPDEST DUP5 DUP5 SLOAD PUSH2 0x2A49 JUMP JUMPDEST DUP3 SSTORE POP POP POP POP JUMP JUMPDEST PUSH0 PUSH0 SWAP1 POP SWAP1 JUMP JUMPDEST PUSH2 0x2B01 PUSH2 0x2AF2 JUMP JUMPDEST PUSH2 0x2B0C DUP2 DUP5 DUP5 PUSH2 0x2ACD JUMP JUMPDEST POP POP POP JUMP JUMPDEST JUMPDEST DUP2 DUP2 LT ISZERO PUSH2 0x2B2F JUMPI PUSH2 0x2B24 PUSH0 DUP3 PUSH2 0x2AF9 JUMP JUMPDEST PUSH1 0x1 DUP2 ADD SWAP1 POP PUSH2 0x2B12 JUMP JUMPDEST POP POP JUMP JUMPDEST PUSH1 0x1F DUP3 GT ISZERO PUSH2 0x2B74 JUMPI PUSH2 0x2B45 DUP2 PUSH2 0x2A1C JUMP JUMPDEST PUSH2 0x2B4E DUP5 PUSH2 0x2A2E JUMP JUMPDEST DUP2 ADD PUSH1 0x20 DUP6 LT ISZERO PUSH2 0x2B5D JUMPI DUP2 SWAP1 POP JUMPDEST PUSH2 0x2B71 PUSH2 0x2B69 DUP6 PUSH2 0x2A2E JUMP JUMPDEST DUP4 ADD DUP3 PUSH2 0x2B11 JUMP JUMPDEST POP POP JUMPDEST POP POP POP JUMP JUMPDEST PUSH0 DUP3 DUP3 SHR SWAP1 POP SWAP3 SWAP2 POP POP JUMP JUMPDEST PUSH0 PUSH2 0x2B94 PUSH0 NOT DUP5 PUSH1 0x8 MUL PUSH2 0x2B79 JUMP JUMPDEST NOT DUP1 DUP4 AND SWAP2 POP POP SWAP3 SWAP2 POP POP JUMP JUMPDEST PUSH0 PUSH2 0x2BAC DUP4 DUP4 PUSH2 0x2B85 JUMP JUMPDEST SWAP2 POP DUP3 PUSH1 0x2 MUL DUP3 OR SWAP1 POP SWAP3 SWAP2 POP POP JUMP JUMPDEST PUSH2 0x2BC5 DUP3 PUSH2 0x2461 JUMP JUMPDEST PUSH8 0xFFFFFFFFFFFFFFFF DUP2 GT ISZERO PUSH2 0x2BDE JUMPI PUSH2 0x2BDD PUSH2 0x268F JUMP JUMPDEST JUMPDEST PUSH2 0x2BE8 DUP3 SLOAD PUSH2 0x29EC JUMP JUMPDEST PUSH2 0x2BF3 DUP3 DUP3 DUP6 PUSH2 0x2B33 JUMP JUMPDEST PUSH0 PUSH1 0x20 SWAP1 POP PUSH1 0x1F DUP4 GT PUSH1 0x1 DUP2 EQ PUSH2 0x2C24 JUMPI PUSH0 DUP5 ISZERO PUSH2 0x2C12 JUMPI DUP3 DUP8 ADD MLOAD SWAP1 POP JUMPDEST PUSH2 0x2C1C DUP6 DUP3 PUSH2 0x2BA1 JUMP JUMPDEST DUP7 SSTORE POP PUSH2 0x2C83 JUMP JUMPDEST PUSH1 0x1F NOT DUP5 AND PUSH2 0x2C32 DUP7 PUSH2 0x2A1C JUMP JUMPDEST PUSH0 JUMPDEST DUP3 DUP2 LT ISZERO PUSH2 0x2C59 JUMPI DUP5 DUP10 ADD MLOAD DUP3 SSTORE PUSH1 0x1 DUP3 ADD SWAP2 POP PUSH1 0x20 DUP6 ADD SWAP5 POP PUSH1 0x20 DUP2 ADD SWAP1 POP PUSH2 0x2C34 JUMP JUMPDEST DUP7 DUP4 LT ISZERO PUSH2 0x2C76 JUMPI DUP5 DUP10 ADD MLOAD PUSH2 0x2C72 PUSH1 0x1F DUP10 AND DUP3 PUSH2 0x2B85 JUMP JUMPDEST DUP4 SSTORE POP JUMPDEST PUSH1 0x1 PUSH1 0x2 DUP9 MUL ADD DUP9 SSTORE POP POP POP JUMPDEST POP POP POP POP POP POP JUMP JUMPDEST PUSH32 0x53616C65206D7573742062652061637469766520746F206D696E7420746F6B65 PUSH0 DUP3 ADD MSTORE PUSH32 0x6E73000000000000000000000000000000000000000000000000000000000000 PUSH1 0x20 DUP3 ADD MSTORE POP JUMP JUMPDEST PUSH0 PUSH2 0x2CE5 PUSH1 0x22 DUP4 PUSH2 0x246B JUMP JUMPDEST SWAP2 POP PUSH2 0x2CF0 DUP3 PUSH2 0x2C8B JUMP JUMPDEST PUSH1 0x40 DUP3 ADD SWAP1 POP SWAP2 SWAP1 POP JUMP JUMPDEST PUSH0 PUSH1 0x20 DUP3 ADD SWAP1 POP DUP2 DUP2 SUB PUSH0 DUP4 ADD MSTORE PUSH2 0x2D12 DUP2 PUSH2 0x2CD9 JUMP JUMPDEST SWAP1 POP SWAP2 SWAP1 POP JUMP JUMPDEST PUSH32 0x4E487B7100000000000000000000000000000000000000000000000000000000 PUSH0 MSTORE PUSH1 0x11 PUSH1 0x4 MSTORE PUSH1 0x24 PUSH0 REVERT JUMPDEST PUSH0 PUSH2 0x2D50 DUP3 PUSH2 0x24F1 JUMP JUMPDEST SWAP2 POP PUSH2 0x2D5B DUP4 PUSH2 0x24F1 JUMP JUMPDEST SWAP3 POP DUP3 DUP3 ADD SWAP1 POP DUP1 DUP3 GT ISZERO PUSH2 0x2D73 JUMPI PUSH2 0x2D72 PUSH2 0x2D19 JUMP JUMPDEST JUMPDEST SWAP3 SWAP2 POP POP JUMP JUMPDEST PUSH32 0x507572636861736520776F756C6420657863656564206D617820746F6B656E73 PUSH0 DUP3 ADD MSTORE POP JUMP JUMPDEST PUSH0 PUSH2 0x2DAD PUSH1 0x20 DUP4 PUSH2 0x246B JUMP JUMPDEST SWAP2 POP PUSH2 0x2DB8 DUP3 PUSH2 0x2D79 JUMP JUMPDEST PUSH1 0x20 DUP3 ADD SWAP1 POP SWAP2 SWAP1 POP JUMP JUMPDEST PUSH0 PUSH1 0x20 DUP3 ADD SWAP1 POP DUP2 DUP2 SUB PUSH0 DUP4 ADD MSTORE PUSH2 0x2DDA DUP2 PUSH2 0x2DA1 JUMP JUMPDEST SWAP1 POP SWAP2 SWAP1 POP JUMP JUMPDEST PUSH0 PUSH2 0x2DEB DUP3 PUSH2 0x24F1 JUMP JUMPDEST SWAP2 POP PUSH2 0x2DF6 DUP4 PUSH2 0x24F1 JUMP JUMPDEST SWAP3 POP DUP3 DUP3 MUL PUSH2 0x2E04 DUP2 PUSH2 0x24F1 JUMP JUMPDEST SWAP2 POP DUP3 DUP3 DIV DUP5 EQ DUP4 ISZERO OR PUSH2 0x2E1B JUMPI PUSH2 0x2E1A PUSH2 0x2D19 JUMP JUMPDEST JUMPDEST POP SWAP3 SWAP2 POP POP JUMP JUMPDEST PUSH32 0x56616C75652073656E74206973206E6F7420636F727265637400000000000000 PUSH0 DUP3 ADD MSTORE POP JUMP JUMPDEST PUSH0 PUSH2 0x2E56 PUSH1 0x19 DUP4 PUSH2 0x246B JUMP JUMPDEST SWAP2 POP PUSH2 0x2E61 DUP3 PUSH2 0x2E22 JUMP JUMPDEST PUSH1 0x20 DUP3 ADD SWAP1 POP SWAP2 SWAP1 POP JUMP JUMPDEST PUSH0 PUSH1 0x20 DUP3 ADD SWAP1 POP DUP2 DUP2 SUB PUSH0 DUP4 ADD MSTORE PUSH2 0x2E83 DUP2 PUSH2 0x2E4A JUMP JUMPDEST SWAP1 POP SWAP2 SWAP1 POP JUMP JUMPDEST PUSH0 DUP2 SWAP1 POP SWAP3 SWAP2 POP POP JUMP JUMPDEST PUSH0 PUSH2 0x2E9E DUP3 PUSH2 0x2461 JUMP JUMPDEST PUSH2 0x2EA8 DUP2 DUP6 PUSH2 0x2E8A JUMP JUMPDEST SWAP4 POP PUSH2 0x2EB8 DUP2 DUP6 PUSH1 0x20 DUP7 ADD PUSH2 0x247B JUMP JUMPDEST DUP1 DUP5 ADD SWAP2 POP POP SWAP3 SWAP2 POP POP JUMP JUMPDEST PUSH0 PUSH2 0x2ECF DUP3 DUP6 PUSH2 0x2E94 JUMP JUMPDEST SWAP2 POP PUSH2 0x2EDB DUP3 DUP5 PUSH2 0x2E94 JUMP JUMPDEST SWAP2 POP DUP2 SWAP1 POP SWAP4 SWAP3 POP POP POP JUMP JUMPDEST PUSH32 0x4F776E61626C653A206E6577206F776E657220697320746865207A65726F2061 PUSH0 DUP3 ADD MSTORE PUSH32 0x6464726573730000000000000000000000000000000000000000000000000000 PUSH1 0x20 DUP3 ADD MSTORE POP JUMP JUMPDEST PUSH0 PUSH2 0x2F41 PUSH1 0x26 DUP4 PUSH2 0x246B JUMP JUMPDEST SWAP2 POP PUSH2 0x2F4C DUP3 PUSH2 0x2EE7 JUMP JUMPDEST PUSH1 0x40 DUP3 ADD SWAP1 POP SWAP2 SWAP1 POP JUMP JUMPDEST PUSH0 PUSH1 0x20 DUP3 ADD SWAP1 POP DUP2 DUP2 SUB PUSH0 DUP4 ADD MSTORE PUSH2 0x2F6E DUP2 PUSH2 0x2F35 JUMP JUMPDEST SWAP1 POP SWAP2 SWAP1 POP JUMP JUMPDEST PUSH32 0x4F776E61626C653A2063616C6C6572206973206E6F7420746865206F776E6572 PUSH0 DUP3 ADD MSTORE POP JUMP JUMPDEST PUSH0 PUSH2 0x2FA9 PUSH1 0x20 DUP4 PUSH2 0x246B JUMP JUMPDEST SWAP2 POP PUSH2 0x2FB4 DUP3 PUSH2 0x2F75 JUMP JUMPDEST PUSH1 0x20 DUP3 ADD SWAP1 POP SWAP2 SWAP1 POP JUMP JUMPDEST PUSH0 PUSH1 0x20 DUP3 ADD SWAP1 POP DUP2 DUP2 SUB PUSH0 DUP4 ADD MSTORE PUSH2 0x2FD6 DUP2 PUSH2 0x2F9D JUMP JUMPDEST SWAP1 POP SWAP2 SWAP1 POP JUMP JUMPDEST PUSH0 DUP2 MLOAD SWAP1 POP SWAP2 SWAP1 POP JUMP JUMPDEST PUSH0 DUP3 DUP3 MSTORE PUSH1 0x20 DUP3 ADD SWAP1 POP SWAP3 SWAP2 POP POP JUMP JUMPDEST PUSH0 PUSH2 0x3001 DUP3 PUSH2 0x2FDD JUMP JUMPDEST PUSH2 0x300B DUP2 DUP6 PUSH2 0x2FE7 JUMP JUMPDEST SWAP4 POP PUSH2 0x301B DUP2 DUP6 PUSH1 0x20 DUP7 ADD PUSH2 0x247B JUMP JUMPDEST PUSH2 0x3024 DUP2 PUSH2 0x2489 JUMP JUMPDEST DUP5 ADD SWAP2 POP POP SWAP3 SWAP2 POP POP JUMP JUMPDEST PUSH0 PUSH1 0x80 DUP3 ADD SWAP1 POP PUSH2 0x3042 PUSH0 DUP4 ADD DUP8 PUSH2 0x257F JUMP JUMPDEST PUSH2 0x304F PUSH1 0x20 DUP4 ADD DUP7 PUSH2 0x257F JUMP JUMPDEST PUSH2 0x305C PUSH1 0x40 DUP4 ADD DUP6 PUSH2 0x260F JUMP JUMPDEST DUP2 DUP2 SUB PUSH1 0x60 DUP4 ADD MSTORE PUSH2 0x306E DUP2 DUP5 PUSH2 0x2FF7 JUMP JUMPDEST SWAP1 POP SWAP6 SWAP5 POP POP POP POP POP JUMP JUMPDEST PUSH0 DUP2 MLOAD SWAP1 POP PUSH2 0x3087 DUP2 PUSH2 0x2384 JUMP JUMPDEST SWAP3 SWAP2 POP POP JUMP JUMPDEST PUSH0 PUSH1 0x20 DUP3 DUP5 SUB SLT ISZERO PUSH2 0x30A2 JUMPI PUSH2 0x30A1 PUSH2 0x2351 JUMP JUMPDEST JUMPDEST PUSH0 PUSH2 0x30AF DUP5 DUP3 DUP6 ADD PUSH2 0x3079 JUMP JUMPDEST SWAP2 POP POP SWAP3 SWAP2 POP POP JUMP JUMPDEST PUSH32 0x4E487B7100000000000000000000000000000000000000000000000000000000 PUSH0 MSTORE PUSH1 0x12 PUSH1 0x4 MSTORE PUSH1 0x24 PUSH0 REVERT INVALID LOG2 PUSH5 0x6970667358 0x22 SLT KECCAK256 CODESIZE SWAP15 PUSH1 0x54 0xF PUSH26 0x18FEB84698DEE584A06DE719B363D9F26866855FFC6D07C00183 PUSH5 0x736F6C6343 STOP ADDMOD SHL STOP CALLER "
		},
		"gasEstimates": {
			"creation": {
				"codeDepositCost": "2514200",
				"executionCost": "infinite",
				"totalCost": "infinite"
			},
			"external": {
				"MAX_SUPPLY()": "infinite",
				"approve(address,uint256)": "infinite",
				"balanceOf(address)": "2977",
				"currentPrice()": "2514",
				"getApproved(uint256)": "7468",
				"isApprovedForAll(address,address)": "infinite",
				"mint(uint256)": "infinite",
				"name()": "infinite",
				"owner()": "2560",
				"ownerOf(uint256)": "infinite",
				"renounceOwnership()": "30480",
				"reserve(address,uint256)": "infinite",
				"safeTransferFrom(address,address,uint256)": "infinite",
				"safeTransferFrom(address,address,uint256,bytes)": "infinite",
				"saleIsActive()": "2605",
				"setApprovalForAll(address,bool)": "infinite",
				"setBaseURI(string)": "infinite",
				"setCurrentPrice(uint256)": "24822",
				"setSaleIsActive(bool)": "27031",
				"supportsInterface(bytes4)": "787",
				"symbol()": "infinite",
				"tokenURI(uint256)": "infinite",
				"totalSupply()": "4710",
				"transferFrom(address,address,uint256)": "infinite",
				"transferOwnership(address)": "30841",
				"walletLimit()": "2470",
				"withdraw()": "infinite"
			},
			"internal": {
				"_baseURI()": "infinite"
			}
		},
		"methodIdentifiers": {
			"MAX_SUPPLY()": "32cb6b0c",
			"approve(address,uint256)": "095ea7b3",
			"balanceOf(address)": "70a08231",
			"currentPrice()": "9d1b464a",
			"getApproved(uint256)": "081812fc",
			"isApprovedForAll(address,address)": "e985e9c5",
			"mint(uint256)": "a0712d68",
			"name()": "06fdde03",
			"owner()": "8da5cb5b",
			"ownerOf(uint256)": "6352211e",
			"renounceOwnership()": "715018a6",
			"reserve(address,uint256)": "cc47a40b",
			"safeTransferFrom(address,address,uint256)": "42842e0e",
			"safeTransferFrom(address,address,uint256,bytes)": "b88d4fde",
			"saleIsActive()": "eb8d2444",
			"setApprovalForAll(address,bool)": "a22cb465",
			"setBaseURI(string)": "55f804b3",
			"setCurrentPrice(uint256)": "18b20071",
			"setSaleIsActive(bool)": "02c88989",
			"supportsInterface(bytes4)": "01ffc9a7",
			"symbol()": "95d89b41",
			"tokenURI(uint256)": "c87b56dd",
			"totalSupply()": "18160ddd",
			"transferFrom(address,address,uint256)": "23b872dd",
			"transferOwnership(address)": "f2fde38b",
			"walletLimit()": "3c8463a1",
			"withdraw()": "3ccfd60b"
		}
	},
	"abi": [
		{
			"inputs": [
				{
					"internalType": "string",
					"name": "_name",
					"type": "string"
				},
				{
					"internalType": "string",
					"name": "_symbol",
					"type": "string"
				},
				{
					"internalType": "string",
					"name": "_uri",
					"type": "string"
				},
				{
					"internalType": "uint256",
					"name": "price",
					"type": "uint256"
				},
				{
					"internalType": "uint256",
					"name": "maxSupply",
					"type": "uint256"
				}
			],
			"stateMutability": "payable",
			"type": "constructor"
		},
		{
			"inputs": [],
			"name": "ApprovalCallerNotOwnerNorApproved",
			"type": "error"
		},
		{
			"inputs": [],
			"name": "ApprovalQueryForNonexistentToken",
			"type": "error"
		},
		{
			"inputs": [],
			"name": "ApprovalToCurrentOwner",
			"type": "error"
		},
		{
			"inputs": [],
			"name": "ApproveToCaller",
			"type": "error"
		},
		{
			"inputs": [],
			"name": "BalanceQueryForZeroAddress",
			"type": "error"
		},
		{
			"inputs": [],
			"name": "MintToZeroAddress",
			"type": "error"
		},
		{
			"inputs": [],
			"name": "MintZeroQuantity",
			"type": "error"
		},
		{
			"inputs": [],
			"name": "OwnerQueryForNonexistentToken",
			"type": "error"
		},
		{
			"inputs": [],
			"name": "TransferCallerNotOwnerNorApproved",
			"type": "error"
		},
		{
			"inputs": [],
			"name": "TransferFromIncorrectOwner",
			"type": "error"
		},
		{
			"inputs": [],
			"name": "TransferToNonERC721ReceiverImplementer",
			"type": "error"
		},
		{
			"inputs": [],
			"name": "TransferToZeroAddress",
			"type": "error"
		},
		{
			"inputs": [],
			"name": "URIQueryForNonexistentToken",
			"type": "error"
		},
		{
			"anonymous": false,
			"inputs": [
				{
					"indexed": true,
					"internalType": "address",
					"name": "owner",
					"type": "address"
				},
				{
					"indexed": true,
					"internalType": "address",
					"name": "approved",
					"type": "address"
				},
				{
					"indexed": true,
					"internalType": "uint256",
					"name": "tokenId",
					"type": "uint256"
				}
			],
			"name": "Approval",
			"type": "event"
		},
		{
			"anonymous": false,
			"inputs": [
				{
					"indexed": true,
					"internalType": "address",
					"name": "owner",
					"type": "address"
				},
				{
					"indexed": true,
					"internalType": "address",
					"name": "operator",
					"type": "address"
				},
				{
					"indexed": false,
					"internalType": "bool",
					"name": "approved",
					"type": "bool"
				}
			],
			"name": "ApprovalForAll",
			"type": "event"
		},
		{
			"anonymous": false,
			"inputs": [
				{
					"indexed": true,
					"internalType": "address",
					"name": "previousOwner",
					"type": "address"
				},
				{
					"indexed": true,
					"internalType": "address",
					"name": "newOwner",
					"type": "address"
				}
			],
			"name": "OwnershipTransferred",
			"type": "event"
		},
		{
			"anonymous": false,
			"inputs": [
				{
					"indexed": true,
					"internalType": "address",
					"name": "from",
					"type": "address"
				},
				{
					"indexed": true,
					"internalType": "address",
					"name": "to",
					"type": "address"
				},
				{
					"indexed": true,
					"internalType": "uint256",
					"name": "tokenId",
					"type": "uint256"
				}
			],
			"name": "Transfer",
			"type": "event"
		},
		{
			"inputs": [],
			"name": "MAX_SUPPLY",
			"outputs": [
				{
					"internalType": "uint256",
					"name": "",
					"type": "uint256"
				}
			],
			"stateMutability": "view",
			"type": "function"
		},
		{
			"inputs": [
				{
					"internalType": "address",
					"name": "to",
					"type": "address"
				},
				{
					"internalType": "uint256",
					"name": "tokenId",
					"type": "uint256"
				}
			],
			"name": "approve",
			"outputs": [],
			"stateMutability": "nonpayable",
			"type": "function"
		},
		{
			"inputs": [
				{
					"internalType": "address",
					"name": "owner",
					"type": "address"
				}
			],
			"name": "balanceOf",
			"outputs": [
				{
					"internalType": "uint256",
					"name": "",
					"type": "uint256"
				}
			],
			"stateMutability": "view",
			"type": "function"
		},
		{
			"inputs": [],
			"name": "currentPrice",
			"outputs": [
				{
					"internalType": "uint256",
					"name": "",
					"type": "uint256"
				}
			],
			"stateMutability": "view",
			"type": "function"
		},
		{
			"inputs": [
				{
					"internalType": "uint256",
					"name": "tokenId",
					"type": "uint256"
				}
			],
			"name": "getApproved",
			"outputs": [
				{
					"internalType": "address",
					"name": "",
					"type": "address"
				}
			],
			"stateMutability": "view",
			"type": "function"
		},
		{
			"inputs": [
				{
					"internalType": "address",
					"name": "owner",
					"type": "address"
				},
				{
					"internalType": "address",
					"name": "operator",
					"type": "address"
				}
			],
			"name": "isApprovedForAll",
			"outputs": [
				{
					"internalType": "bool",
					"name": "",
					"type": "bool"
				}
			],
			"stateMutability": "view",
			"type": "function"
		},
		{
			"inputs": [
				{
					"internalType": "uint256",
					"name": "amount",
					"type": "uint256"
				}
			],
			"name": "mint",
			"outputs": [],
			"stateMutability": "payable",
			"type": "function"
		},
		{
			"inputs": [],
			"name": "name",
			"outputs": [
				{
					"internalType": "string",
					"name": "",
					"type": "string"
				}
			],
			"stateMutability": "view",
			"type": "function"
		},
		{
			"inputs": [],
			"name": "owner",
			"outputs": [
				{
					"internalType": "address",
					"name": "",
					"type": "address"
				}
			],
			"stateMutability": "view",
			"type": "function"
		},
		{
			"inputs": [
				{
					"internalType": "uint256",
					"name": "tokenId",
					"type": "uint256"
				}
			],
			"name": "ownerOf",
			"outputs": [
				{
					"internalType": "address",
					"name": "",
					"type": "address"
				}
			],
			"stateMutability": "view",
			"type": "function"
		},
		{
			"inputs": [],
			"name": "renounceOwnership",
			"outputs": [],
			"stateMutability": "nonpayable",
			"type": "function"
		},
		{
			"inputs": [
				{
					"internalType": "address",
					"name": "to",
					"type": "address"
				},
				{
					"internalType": "uint256",
					"name": "amount",
					"type": "uint256"
				}
			],
			"name": "reserve",
			"outputs": [],
			"stateMutability": "nonpayable",
			"type": "function"
		},
		{
			"inputs": [
				{
					"internalType": "address",
					"name": "from",
					"type": "address"
				},
				{
					"internalType": "address",
					"name": "to",
					"type": "address"
				},
				{
					"internalType": "uint256",
					"name": "tokenId",
					"type": "uint256"
				}
			],
			"name": "safeTransferFrom",
			"outputs": [],
			"stateMutability": "nonpayable",
			"type": "function"
		},
		{
			"inputs": [
				{
					"internalType": "address",
					"name": "from",
					"type": "address"
				},
				{
					"internalType": "address",
					"name": "to",
					"type": "address"
				},
				{
					"internalType": "uint256",
					"name": "tokenId",
					"type": "uint256"
				},
				{
					"internalType": "bytes",
					"name": "_data",
					"type": "bytes"
				}
			],
			"name": "safeTransferFrom",
			"outputs": [],
			"stateMutability": "nonpayable",
			"type": "function"
		},
		{
			"inputs": [],
			"name": "saleIsActive",
			"outputs": [
				{
					"internalType": "bool",
					"name": "",
					"type": "bool"
				}
			],
			"stateMutability": "view",
			"type": "function"
		},
		{
			"inputs": [
				{
					"internalType": "address",
					"name": "operator",
					"type": "address"
				},
				{
					"internalType": "bool",
					"name": "approved",
					"type": "bool"
				}
			],
			"name": "setApprovalForAll",
			"outputs": [],
			"stateMutability": "nonpayable",
			"type": "function"
		},
		{
			"inputs": [
				{
					"internalType": "string",
					"name": "baseURI_",
					"type": "string"
				}
			],
			"name": "setBaseURI",
			"outputs": [],
			"stateMutability": "nonpayable",
			"type": "function"
		},
		{
			"inputs": [
				{
					"internalType": "uint256",
					"name": "price",
					"type": "uint256"
				}
			],
			"name": "setCurrentPrice",
			"outputs": [],
			"stateMutability": "nonpayable",
			"type": "function"
		},
		{
			"inputs": [
				{
					"internalType": "bool",
					"name": "isActive",
					"type": "bool"
				}
			],
			"name": "setSaleIsActive",
			"outputs": [],
			"stateMutability": "nonpayable",
			"type": "function"
		},
		{
			"inputs": [
				{
					"internalType": "bytes4",
					"name": "interfaceId",
					"type": "bytes4"
				}
			],
			"name": "supportsInterface",
			"outputs": [
				{
					"internalType": "bool",
					"name": "",
					"type": "bool"
				}
			],
			"stateMutability": "view",
			"type": "function"
		},
		{
			"inputs": [],
			"name": "symbol",
			"outputs": [
				{
					"internalType": "string",
					"name": "",
					"type": "string"
				}
			],
			"stateMutability": "view",
			"type": "function"
		},
		{
			"inputs": [
				{
					"internalType": "uint256",
					"name": "tokenId",
					"type": "uint256"
				}
			],
			"name": "tokenURI",
			"outputs": [
				{
					"internalType": "string",
					"name": "",
					"type": "string"
				}
			],
			"stateMutability": "view",
			"type": "function"
		},
		{
			"inputs": [],
			"name": "totalSupply",
			"outputs": [
				{
					"internalType": "uint256",
					"name": "",
					"type": "uint256"
				}
			],
			"stateMutability": "view",
			"type": "function"
		},
		{
			"inputs": [
				{
					"internalType": "address",
					"name": "from",
					"type": "address"
				},
				{
					"internalType": "address",
					"name": "to",
					"type": "address"
				},
				{
					"internalType": "uint256",
					"name": "tokenId",
					"type": "uint256"
				}
			],
			"name": "transferFrom",
			"outputs": [],
			"stateMutability": "nonpayable",
			"type": "function"
		},
		{
			"inputs": [
				{
					"internalType": "address",
					"name": "newOwner",
					"type": "address"
				}
			],
			"name": "transferOwnership",
			"outputs": [],
			"stateMutability": "nonpayable",
			"type": "function"
		},
		{
			"inputs": [],
			"name": "walletLimit",
			"outputs": [
				{
					"internalType": "uint256",
					"name": "",
					"type": "uint256"
				}
			],
			"stateMutability": "view",
			"type": "function"
		},
		{
			"inputs": [],
			"name": "withdraw",
			"outputs": [],
			"stateMutability": "nonpayable",
			"type": "function"
		}
	]
}