{
	"Azuki-ERC721A-ERC721ABurnableMock(copy)(copy)//mocks/ERC721ABurnableMock.sol": {
		"ERC721ABurnableMock": {
			"abi": [
				{
					"inputs": [
						{
							"internalType": "string",
							"name": "name_",
							"type": "string"
						},
						{
							"internalType": "string",
							"name": "symbol_",
							"type": "string"
						}
					],
					"stateMutability": "nonpayable",
					"type": "constructor"
				},
				{
					"inputs": [],
					"name": "ApprovalCallerNotOwnerNorApproved",
					"type": "error"
				},
				{
					"inputs": [],
					"name": "ApprovalQueryForNonexistentToken",
					"type": "error"
				},
				{
					"inputs": [],
					"name": "BalanceQueryForZeroAddress",
					"type": "error"
				},
				{
					"inputs": [],
					"name": "MintERC2309QuantityExceedsLimit",
					"type": "error"
				},
				{
					"inputs": [],
					"name": "MintToZeroAddress",
					"type": "error"
				},
				{
					"inputs": [],
					"name": "MintZeroQuantity",
					"type": "error"
				},
				{
					"inputs": [],
					"name": "OwnerQueryForNonexistentToken",
					"type": "error"
				},
				{
					"inputs": [],
					"name": "OwnershipNotInitializedForExtraData",
					"type": "error"
				},
				{
					"inputs": [],
					"name": "TransferCallerNotOwnerNorApproved",
					"type": "error"
				},
				{
					"inputs": [],
					"name": "TransferFromIncorrectOwner",
					"type": "error"
				},
				{
					"inputs": [],
					"name": "TransferToNonERC721ReceiverImplementer",
					"type": "error"
				},
				{
					"inputs": [],
					"name": "TransferToZeroAddress",
					"type": "error"
				},
				{
					"inputs": [],
					"name": "URIQueryForNonexistentToken",
					"type": "error"
				},
				{
					"anonymous": false,
					"inputs": [
						{
							"indexed": true,
							"internalType": "address",
							"name": "owner",
							"type": "address"
						},
						{
							"indexed": true,
							"internalType": "address",
							"name": "approved",
							"type": "address"
						},
						{
							"indexed": true,
							"internalType": "uint256",
							"name": "tokenId",
							"type": "uint256"
						}
					],
					"name": "Approval",
					"type": "event"
				},
				{
					"anonymous": false,
					"inputs": [
						{
							"indexed": true,
							"internalType": "address",
							"name": "owner",
							"type": "address"
						},
						{
							"indexed": true,
							"internalType": "address",
							"name": "operator",
							"type": "address"
						},
						{
							"indexed": false,
							"internalType": "bool",
							"name": "approved",
							"type": "bool"
						}
					],
					"name": "ApprovalForAll",
					"type": "event"
				},
				{
					"anonymous": false,
					"inputs": [
						{
							"indexed": true,
							"internalType": "uint256",
							"name": "fromTokenId",
							"type": "uint256"
						},
						{
							"indexed": false,
							"internalType": "uint256",
							"name": "toTokenId",
							"type": "uint256"
						},
						{
							"indexed": true,
							"internalType": "address",
							"name": "from",
							"type": "address"
						},
						{
							"indexed": true,
							"internalType": "address",
							"name": "to",
							"type": "address"
						}
					],
					"name": "ConsecutiveTransfer",
					"type": "event"
				},
				{
					"anonymous": false,
					"inputs": [
						{
							"indexed": true,
							"internalType": "address",
							"name": "from",
							"type": "address"
						},
						{
							"indexed": true,
							"internalType": "address",
							"name": "to",
							"type": "address"
						},
						{
							"indexed": true,
							"internalType": "uint256",
							"name": "tokenId",
							"type": "uint256"
						}
					],
					"name": "Transfer",
					"type": "event"
				},
				{
					"inputs": [
						{
							"internalType": "address",
							"name": "to",
							"type": "address"
						},
						{
							"internalType": "uint256",
							"name": "tokenId",
							"type": "uint256"
						}
					],
					"name": "approve",
					"outputs": [],
					"stateMutability": "payable",
					"type": "function"
				},
				{
					"inputs": [
						{
							"internalType": "address",
							"name": "owner",
							"type": "address"
						}
					],
					"name": "balanceOf",
					"outputs": [
						{
							"internalType": "uint256",
							"name": "",
							"type": "uint256"
						}
					],
					"stateMutability": "view",
					"type": "function"
				},
				{
					"inputs": [
						{
							"internalType": "uint256",
							"name": "tokenId",
							"type": "uint256"
						}
					],
					"name": "burn",
					"outputs": [],
					"stateMutability": "nonpayable",
					"type": "function"
				},
				{
					"inputs": [
						{
							"internalType": "uint256",
							"name": "tokenId",
							"type": "uint256"
						}
					],
					"name": "exists",
					"outputs": [
						{
							"internalType": "bool",
							"name": "",
							"type": "bool"
						}
					],
					"stateMutability": "view",
					"type": "function"
				},
				{
					"inputs": [
						{
							"internalType": "uint256",
							"name": "tokenId",
							"type": "uint256"
						}
					],
					"name": "getApproved",
					"outputs": [
						{
							"internalType": "address",
							"name": "",
							"type": "address"
						}
					],
					"stateMutability": "view",
					"type": "function"
				},
				{
					"inputs": [
						{
							"internalType": "uint256",
							"name": "index",
							"type": "uint256"
						}
					],
					"name": "getOwnershipAt",
					"outputs": [
						{
							"components": [
								{
									"internalType": "address",
									"name": "addr",
									"type": "address"
								},
								{
									"internalType": "uint64",
									"name": "startTimestamp",
									"type": "uint64"
								},
								{
									"internalType": "bool",
									"name": "burned",
									"type": "bool"
								},
								{
									"internalType": "uint24",
									"name": "extraData",
									"type": "uint24"
								}
							],
							"internalType": "struct IERC721A.TokenOwnership",
							"name": "",
							"type": "tuple"
						}
					],
					"stateMutability": "view",
					"type": "function"
				},
				{
					"inputs": [
						{
							"internalType": "address",
							"name": "owner",
							"type": "address"
						},
						{
							"internalType": "address",
							"name": "operator",
							"type": "address"
						}
					],
					"name": "isApprovedForAll",
					"outputs": [
						{
							"internalType": "bool",
							"name": "",
							"type": "bool"
						}
					],
					"stateMutability": "view",
					"type": "function"
				},
				{
					"inputs": [],
					"name": "name",
					"outputs": [
						{
							"internalType": "string",
							"name": "",
							"type": "string"
						}
					],
					"stateMutability": "view",
					"type": "function"
				},
				{
					"inputs": [
						{
							"internalType": "address",
							"name": "owner",
							"type": "address"
						}
					],
					"name": "numberBurned",
					"outputs": [
						{
							"internalType": "uint256",
							"name": "",
							"type": "uint256"
						}
					],
					"stateMutability": "view",
					"type": "function"
				},
				{
					"inputs": [
						{
							"internalType": "uint256",
							"name": "tokenId",
							"type": "uint256"
						}
					],
					"name": "ownerOf",
					"outputs": [
						{
							"internalType": "address",
							"name": "",
							"type": "address"
						}
					],
					"stateMutability": "view",
					"type": "function"
				},
				{
					"inputs": [
						{
							"internalType": "address",
							"name": "to",
							"type": "address"
						},
						{
							"internalType": "uint256",
							"name": "quantity",
							"type": "uint256"
						}
					],
					"name": "safeMint",
					"outputs": [],
					"stateMutability": "nonpayable",
					"type": "function"
				},
				{
					"inputs": [
						{
							"internalType": "address",
							"name": "from",
							"type": "address"
						},
						{
							"internalType": "address",
							"name": "to",
							"type": "address"
						},
						{
							"internalType": "uint256",
							"name": "tokenId",
							"type": "uint256"
						}
					],
					"name": "safeTransferFrom",
					"outputs": [],
					"stateMutability": "payable",
					"type": "function"
				},
				{
					"inputs": [
						{
							"internalType": "address",
							"name": "from",
							"type": "address"
						},
						{
							"internalType": "address",
							"name": "to",
							"type": "address"
						},
						{
							"internalType": "uint256",
							"name": "tokenId",
							"type": "uint256"
						},
						{
							"internalType": "bytes",
							"name": "_data",
							"type": "bytes"
						}
					],
					"name": "safeTransferFrom",
					"outputs": [],
					"stateMutability": "payable",
					"type": "function"
				},
				{
					"inputs": [
						{
							"internalType": "address",
							"name": "operator",
							"type": "address"
						},
						{
							"internalType": "bool",
							"name": "approved",
							"type": "bool"
						}
					],
					"name": "setApprovalForAll",
					"outputs": [],
					"stateMutability": "nonpayable",
					"type": "function"
				},
				{
					"inputs": [
						{
							"internalType": "bytes4",
							"name": "interfaceId",
							"type": "bytes4"
						}
					],
					"name": "supportsInterface",
					"outputs": [
						{
							"internalType": "bool",
							"name": "",
							"type": "bool"
						}
					],
					"stateMutability": "view",
					"type": "function"
				},
				{
					"inputs": [],
					"name": "symbol",
					"outputs": [
						{
							"internalType": "string",
							"name": "",
							"type": "string"
						}
					],
					"stateMutability": "view",
					"type": "function"
				},
				{
					"inputs": [
						{
							"internalType": "uint256",
							"name": "tokenId",
							"type": "uint256"
						}
					],
					"name": "tokenURI",
					"outputs": [
						{
							"internalType": "string",
							"name": "",
							"type": "string"
						}
					],
					"stateMutability": "view",
					"type": "function"
				},
				{
					"inputs": [],
					"name": "totalBurned",
					"outputs": [
						{
							"internalType": "uint256",
							"name": "",
							"type": "uint256"
						}
					],
					"stateMutability": "view",
					"type": "function"
				},
				{
					"inputs": [],
					"name": "totalMinted",
					"outputs": [
						{
							"internalType": "uint256",
							"name": "",
							"type": "uint256"
						}
					],
					"stateMutability": "view",
					"type": "function"
				},
				{
					"inputs": [],
					"name": "totalSupply",
					"outputs": [
						{
							"internalType": "uint256",
							"name": "",
							"type": "uint256"
						}
					],
					"stateMutability": "view",
					"type": "function"
				},
				{
					"inputs": [
						{
							"internalType": "address",
							"name": "from",
							"type": "address"
						},
						{
							"internalType": "address",
							"name": "to",
							"type": "address"
						},
						{
							"internalType": "uint256",
							"name": "tokenId",
							"type": "uint256"
						}
					],
					"name": "transferFrom",
					"outputs": [],
					"stateMutability": "payable",
					"type": "function"
				}
			],
			"devdoc": {
				"events": {
					"Approval(address,address,uint256)": {
						"details": "Emitted when `owner` enables `approved` to manage the `tokenId` token."
					},
					"ApprovalForAll(address,address,bool)": {
						"details": "Emitted when `owner` enables or disables (`approved`) `operator` to manage all of its assets."
					},
					"ConsecutiveTransfer(uint256,uint256,address,address)": {
						"details": "Emitted when tokens in `fromTokenId` to `toTokenId` (inclusive) is transferred from `from` to `to`, as defined in the [ERC2309](https://eips.ethereum.org/EIPS/eip-2309) standard. See {_mintERC2309} for more details."
					},
					"Transfer(address,address,uint256)": {
						"details": "Emitted when `tokenId` token is transferred from `from` to `to`."
					}
				},
				"kind": "dev",
				"methods": {
					"approve(address,uint256)": {
						"details": "Gives permission to `to` to transfer `tokenId` token to another account. See {ERC721A-_approve}. Requirements: - The caller must own the token or be an approved operator."
					},
					"balanceOf(address)": {
						"details": "Returns the number of tokens in `owner`'s account."
					},
					"burn(uint256)": {
						"details": "Burns `tokenId`. See {ERC721A-_burn}. Requirements: - The caller must own `tokenId` or be an approved operator."
					},
					"getApproved(uint256)": {
						"details": "Returns the account approved for `tokenId` token. Requirements: - `tokenId` must exist."
					},
					"isApprovedForAll(address,address)": {
						"details": "Returns if the `operator` is allowed to manage all of the assets of `owner`. See {setApprovalForAll}."
					},
					"name()": {
						"details": "Returns the token collection name."
					},
					"ownerOf(uint256)": {
						"details": "Returns the owner of the `tokenId` token. Requirements: - `tokenId` must exist."
					},
					"safeTransferFrom(address,address,uint256)": {
						"details": "Equivalent to `safeTransferFrom(from, to, tokenId, '')`."
					},
					"safeTransferFrom(address,address,uint256,bytes)": {
						"details": "Safely transfers `tokenId` token from `from` to `to`. Requirements: - `from` cannot be the zero address. - `to` cannot be the zero address. - `tokenId` token must exist and be owned by `from`. - If the caller is not `from`, it must be approved to move this token by either {approve} or {setApprovalForAll}. - If `to` refers to a smart contract, it must implement {IERC721Receiver-onERC721Received}, which is called upon a safe transfer. Emits a {Transfer} event."
					},
					"setApprovalForAll(address,bool)": {
						"details": "Approve or remove `operator` as an operator for the caller. Operators can call {transferFrom} or {safeTransferFrom} for any token owned by the caller. Requirements: - The `operator` cannot be the caller. Emits an {ApprovalForAll} event."
					},
					"supportsInterface(bytes4)": {
						"details": "Returns true if this contract implements the interface defined by `interfaceId`. See the corresponding [EIP section](https://eips.ethereum.org/EIPS/eip-165#how-interfaces-are-identified) to learn more about how these ids are created. This function call must use less than 30000 gas."
					},
					"symbol()": {
						"details": "Returns the token collection symbol."
					},
					"tokenURI(uint256)": {
						"details": "Returns the Uniform Resource Identifier (URI) for `tokenId` token."
					},
					"totalSupply()": {
						"details": "Returns the total number of tokens in existence. Burned tokens will reduce the count. To get the total number of tokens minted, please see {_totalMinted}."
					},
					"transferFrom(address,address,uint256)": {
						"details": "Transfers `tokenId` from `from` to `to`. Requirements: - `from` cannot be the zero address. - `to` cannot be the zero address. - `tokenId` token must be owned by `from`. - If the caller is not `from`, it must be approved to move this token by either {approve} or {setApprovalForAll}. Emits a {Transfer} event."
					}
				},
				"version": 1
			},
			"evm": {
				"assembly": "    /* \"Azuki-ERC721A-ERC721ABurnableMock(copy)(copy)//mocks/ERC721ABurnableMock.sol\":1449:2246  contract ERC721ABurnableMock is ERC721A, ERC721ABurnable {... */\n  mstore(0x40, 0x80)\n    /* \"Azuki-ERC721A-ERC721ABurnableMock(copy)(copy)//mocks/ERC721ABurnableMock.sol\":1512:1594  constructor(string memory name_, string memory symbol_) ERC721A(name_, symbol_) {} */\n  callvalue\n  dup1\n  iszero\n  tag_1\n  jumpi\n  0x00\n  dup1\n  revert\ntag_1:\n  pop\n  mload(0x40)\n  sub(codesize, bytecodeSize)\n  dup1\n  bytecodeSize\n  dup4\n  codecopy\n  dup2\n  add\n  0x40\n  dup2\n  swap1\n  mstore\n  tag_2\n  swap2\n  tag_3\n  jump\t// in\ntag_2:\n    /* \"Azuki-ERC721A-ERC721ABurnableMock(copy)(copy)//mocks/ERC721ABurnableMock.sol\":1576:1581  name_ */\n  dup2\n    /* \"Azuki-ERC721A-ERC721ABurnableMock(copy)(copy)//mocks/ERC721ABurnableMock.sol\":1583:1590  symbol_ */\n  dup2\n    /* \"Azuki-ERC721A-ERC721ABurnableMock(copy)(copy)/ERC721A.sol\":6306:6311  _name */\n  0x02\n    /* \"Azuki-ERC721A-ERC721ABurnableMock(copy)(copy)/ERC721A.sol\":6306:6319  _name = name_ */\n  tag_7\n    /* \"Azuki-ERC721A-ERC721ABurnableMock(copy)(copy)//mocks/ERC721ABurnableMock.sol\":1576:1581  name_ */\n  dup4\n    /* \"Azuki-ERC721A-ERC721ABurnableMock(copy)(copy)/ERC721A.sol\":6306:6311  _name */\n  dup3\n    /* \"Azuki-ERC721A-ERC721ABurnableMock(copy)(copy)/ERC721A.sol\":6306:6319  _name = name_ */\n  tag_8\n  jump\t// in\ntag_7:\n  pop\n    /* \"Azuki-ERC721A-ERC721ABurnableMock(copy)(copy)/ERC721A.sol\":6329:6336  _symbol */\n  0x03\n    /* \"Azuki-ERC721A-ERC721ABurnableMock(copy)(copy)/ERC721A.sol\":6329:6346  _symbol = symbol_ */\n  tag_9\n    /* \"Azuki-ERC721A-ERC721ABurnableMock(copy)(copy)/ERC721A.sol\":6339:6346  symbol_ */\n  dup3\n    /* \"Azuki-ERC721A-ERC721ABurnableMock(copy)(copy)/ERC721A.sol\":6329:6336  _symbol */\n  dup3\n    /* \"Azuki-ERC721A-ERC721ABurnableMock(copy)(copy)/ERC721A.sol\":6329:6346  _symbol = symbol_ */\n  tag_8\n  jump\t// in\ntag_9:\n  pop\n    /* \"Azuki-ERC721A-ERC721ABurnableMock(copy)(copy)/ERC721A.sol\":6776:6783  uint256 */\n  0x00\n    /* \"Azuki-ERC721A-ERC721ABurnableMock(copy)(copy)/ERC721A.sol\":6356:6369  _currentIndex */\n  dup1\n    /* \"Azuki-ERC721A-ERC721ABurnableMock(copy)(copy)/ERC721A.sol\":6356:6387  _currentIndex = _startTokenId() */\n  sstore\n  pop\n    /* \"Azuki-ERC721A-ERC721ABurnableMock(copy)(copy)//mocks/ERC721ABurnableMock.sol\":1449:2246  contract ERC721ABurnableMock is ERC721A, ERC721ABurnable {... */\n  tag_21\n  swap3\n  pop\n  pop\n  pop\n  jump\n    /* \"#utility.yul\":14:141   */\ntag_15:\n    /* \"#utility.yul\":75:85   */\n  0x4e487b71\n    /* \"#utility.yul\":70:73   */\n  0xe0\n    /* \"#utility.yul\":66:86   */\n  shl\n    /* \"#utility.yul\":63:64   */\n  0x00\n    /* \"#utility.yul\":56:87   */\n  mstore\n    /* \"#utility.yul\":106:110   */\n  0x41\n    /* \"#utility.yul\":103:104   */\n  0x04\n    /* \"#utility.yul\":96:111   */\n  mstore\n    /* \"#utility.yul\":130:134   */\n  0x24\n    /* \"#utility.yul\":127:128   */\n  0x00\n    /* \"#utility.yul\":120:135   */\n  revert\n    /* \"#utility.yul\":146:980   */\ntag_16:\n    /* \"#utility.yul\":200:205   */\n  0x00\n    /* \"#utility.yul\":253:256   */\n  dup3\n    /* \"#utility.yul\":246:250   */\n  0x1f\n    /* \"#utility.yul\":238:244   */\n  dup4\n    /* \"#utility.yul\":234:251   */\n  add\n    /* \"#utility.yul\":230:257   */\n  slt\n    /* \"#utility.yul\":220:275   */\n  tag_24\n  jumpi\n    /* \"#utility.yul\":271:272   */\n  0x00\n    /* \"#utility.yul\":268:269   */\n  dup1\n    /* \"#utility.yul\":261:273   */\n  revert\n    /* \"#utility.yul\":220:275   */\ntag_24:\n    /* \"#utility.yul\":298:311   */\n  dup2\n  mload\n  sub(shl(0x40, 0x01), 0x01)\n    /* \"#utility.yul\":323:353   */\n  dup2\n  gt\n    /* \"#utility.yul\":320:376   */\n  iszero\n  tag_26\n  jumpi\n    /* \"#utility.yul\":356:374   */\n  tag_26\n  tag_15\n  jump\t// in\ntag_26:\n    /* \"#utility.yul\":405:407   */\n  0x40\n    /* \"#utility.yul\":399:408   */\n  mload\n    /* \"#utility.yul\":497:499   */\n  0x1f\n    /* \"#utility.yul\":459:476   */\n  dup3\n  add\n  not(0x1f)\n    /* \"#utility.yul\":455:486   */\n  swap1\n  dup2\n  and\n    /* \"#utility.yul\":488:490   */\n  0x3f\n    /* \"#utility.yul\":451:491   */\n  add\n    /* \"#utility.yul\":447:501   */\n  and\n    /* \"#utility.yul\":435:502   */\n  dup2\n  add\n  sub(shl(0x40, 0x01), 0x01)\n    /* \"#utility.yul\":517:551   */\n  dup2\n  gt\n    /* \"#utility.yul\":553:575   */\n  dup3\n  dup3\n  lt\n    /* \"#utility.yul\":514:576   */\n  or\n    /* \"#utility.yul\":511:599   */\n  iszero\n  tag_28\n  jumpi\n    /* \"#utility.yul\":579:597   */\n  tag_28\n  tag_15\n  jump\t// in\ntag_28:\n    /* \"#utility.yul\":615:617   */\n  0x40\n    /* \"#utility.yul\":608:630   */\n  mstore\n    /* \"#utility.yul\":639:661   */\n  dup2\n  dup2\n  mstore\n    /* \"#utility.yul\":680:699   */\n  dup4\n  dup3\n  add\n    /* \"#utility.yul\":701:705   */\n  0x20\n    /* \"#utility.yul\":676:706   */\n  add\n    /* \"#utility.yul\":673:712   */\n  dup6\n  lt\n    /* \"#utility.yul\":670:729   */\n  iszero\n  tag_29\n  jumpi\n    /* \"#utility.yul\":725:726   */\n  0x00\n    /* \"#utility.yul\":722:723   */\n  dup1\n    /* \"#utility.yul\":715:727   */\n  revert\n    /* \"#utility.yul\":670:729   */\ntag_29:\n    /* \"#utility.yul\":747:748   */\n  0x00\n    /* \"#utility.yul\":757:900   */\ntag_30:\n    /* \"#utility.yul\":771:777   */\n  dup3\n    /* \"#utility.yul\":768:769   */\n  dup2\n    /* \"#utility.yul\":765:778   */\n  lt\n    /* \"#utility.yul\":757:900   */\n  iszero\n  tag_32\n  jumpi\n    /* \"#utility.yul\":883:887   */\n  0x20\n    /* \"#utility.yul\":867:881   */\n  dup2\n  dup7\n  add\n    /* \"#utility.yul\":863:888   */\n  dup2\n  add\n    /* \"#utility.yul\":857:889   */\n  mload\n    /* \"#utility.yul\":834:848   */\n  dup4\n  dup4\n  add\n    /* \"#utility.yul\":830:855   */\n  dup3\n  add\n    /* \"#utility.yul\":823:890   */\n  mstore\n    /* \"#utility.yul\":786:798   */\n  add\n    /* \"#utility.yul\":757:900   */\n  jump(tag_30)\ntag_32:\n  pop\n    /* \"#utility.yul\":948:949   */\n  0x00\n    /* \"#utility.yul\":920:939   */\n  swap2\n  dup2\n  add\n    /* \"#utility.yul\":941:945   */\n  0x20\n    /* \"#utility.yul\":916:946   */\n  add\n    /* \"#utility.yul\":909:950   */\n  swap2\n  swap1\n  swap2\n  mstore\n    /* \"#utility.yul\":924:930   */\n  swap4\n    /* \"#utility.yul\":146:980   */\n  swap3\n  pop\n  pop\n  pop\n  jump\t// out\n    /* \"#utility.yul\":985:1542   */\ntag_3:\n    /* \"#utility.yul\":1084:1090   */\n  0x00\n    /* \"#utility.yul\":1092:1098   */\n  dup1\n    /* \"#utility.yul\":1145:1147   */\n  0x40\n    /* \"#utility.yul\":1133:1142   */\n  dup4\n    /* \"#utility.yul\":1124:1131   */\n  dup6\n    /* \"#utility.yul\":1120:1143   */\n  sub\n    /* \"#utility.yul\":1116:1148   */\n  slt\n    /* \"#utility.yul\":1113:1165   */\n  iszero\n  tag_34\n  jumpi\n    /* \"#utility.yul\":1161:1162   */\n  0x00\n    /* \"#utility.yul\":1158:1159   */\n  dup1\n    /* \"#utility.yul\":1151:1163   */\n  revert\n    /* \"#utility.yul\":1113:1165   */\ntag_34:\n    /* \"#utility.yul\":1188:1204   */\n  dup3\n  mload\n  sub(shl(0x40, 0x01), 0x01)\n    /* \"#utility.yul\":1216:1246   */\n  dup2\n  gt\n    /* \"#utility.yul\":1213:1263   */\n  iszero\n  tag_35\n  jumpi\n    /* \"#utility.yul\":1259:1260   */\n  0x00\n    /* \"#utility.yul\":1256:1257   */\n  dup1\n    /* \"#utility.yul\":1249:1261   */\n  revert\n    /* \"#utility.yul\":1213:1263   */\ntag_35:\n    /* \"#utility.yul\":1282:1343   */\n  tag_36\n    /* \"#utility.yul\":1335:1342   */\n  dup6\n    /* \"#utility.yul\":1326:1332   */\n  dup3\n    /* \"#utility.yul\":1315:1324   */\n  dup7\n    /* \"#utility.yul\":1311:1333   */\n  add\n    /* \"#utility.yul\":1282:1343   */\n  tag_16\n  jump\t// in\ntag_36:\n    /* \"#utility.yul\":1389:1391   */\n  0x20\n    /* \"#utility.yul\":1374:1392   */\n  dup6\n  add\n    /* \"#utility.yul\":1368:1393   */\n  mload\n    /* \"#utility.yul\":1272:1343   */\n  swap1\n  swap4\n  pop\n    /* \"#utility.yul\":1368:1393   */\n  swap1\n  pop\n  sub(shl(0x40, 0x01), 0x01)\n    /* \"#utility.yul\":1405:1437   */\n  dup2\n  gt\n    /* \"#utility.yul\":1402:1454   */\n  iszero\n  tag_37\n  jumpi\n    /* \"#utility.yul\":1450:1451   */\n  0x00\n    /* \"#utility.yul\":1447:1448   */\n  dup1\n    /* \"#utility.yul\":1440:1452   */\n  revert\n    /* \"#utility.yul\":1402:1454   */\ntag_37:\n    /* \"#utility.yul\":1473:1536   */\n  tag_38\n    /* \"#utility.yul\":1528:1535   */\n  dup6\n    /* \"#utility.yul\":1517:1525   */\n  dup3\n    /* \"#utility.yul\":1506:1515   */\n  dup7\n    /* \"#utility.yul\":1502:1526   */\n  add\n    /* \"#utility.yul\":1473:1536   */\n  tag_16\n  jump\t// in\ntag_38:\n    /* \"#utility.yul\":1463:1536   */\n  swap2\n  pop\n  pop\n    /* \"#utility.yul\":985:1542   */\n  swap3\n  pop\n  swap3\n  swap1\n  pop\n  jump\t// out\n    /* \"#utility.yul\":1547:1927   */\ntag_17:\n    /* \"#utility.yul\":1626:1627   */\n  0x01\n    /* \"#utility.yul\":1622:1634   */\n  dup2\n  dup2\n  shr\n  swap1\n    /* \"#utility.yul\":1669:1681   */\n  dup3\n  and\n  dup1\n    /* \"#utility.yul\":1690:1751   */\n  tag_40\n  jumpi\n    /* \"#utility.yul\":1744:1748   */\n  0x7f\n    /* \"#utility.yul\":1736:1742   */\n  dup3\n    /* \"#utility.yul\":1732:1749   */\n  and\n    /* \"#utility.yul\":1722:1749   */\n  swap2\n  pop\n    /* \"#utility.yul\":1690:1751   */\ntag_40:\n    /* \"#utility.yul\":1797:1799   */\n  0x20\n    /* \"#utility.yul\":1789:1795   */\n  dup3\n    /* \"#utility.yul\":1786:1800   */\n  lt\n    /* \"#utility.yul\":1766:1784   */\n  dup2\n    /* \"#utility.yul\":1763:1801   */\n  sub\n    /* \"#utility.yul\":1760:1921   */\n  tag_41\n  jumpi\n    /* \"#utility.yul\":1843:1853   */\n  0x4e487b71\n    /* \"#utility.yul\":1838:1841   */\n  0xe0\n    /* \"#utility.yul\":1834:1854   */\n  shl\n    /* \"#utility.yul\":1831:1832   */\n  0x00\n    /* \"#utility.yul\":1824:1855   */\n  mstore\n    /* \"#utility.yul\":1878:1882   */\n  0x22\n    /* \"#utility.yul\":1875:1876   */\n  0x04\n    /* \"#utility.yul\":1868:1883   */\n  mstore\n    /* \"#utility.yul\":1906:1910   */\n  0x24\n    /* \"#utility.yul\":1903:1904   */\n  0x00\n    /* \"#utility.yul\":1896:1911   */\n  revert\n    /* \"#utility.yul\":1760:1921   */\ntag_41:\n  pop\n    /* \"#utility.yul\":1547:1927   */\n  swap2\n  swap1\n  pop\n  jump\t// out\n    /* \"#utility.yul\":2058:2576   */\ntag_19:\n    /* \"#utility.yul\":2160:2162   */\n  0x1f\n    /* \"#utility.yul\":2155:2158   */\n  dup3\n    /* \"#utility.yul\":2152:2163   */\n  gt\n    /* \"#utility.yul\":2149:2570   */\n  iszero\n  tag_44\n  jumpi\n    /* \"#utility.yul\":2196:2201   */\n  dup1\n    /* \"#utility.yul\":2193:2194   */\n  0x00\n    /* \"#utility.yul\":2186:2202   */\n  mstore\n    /* \"#utility.yul\":2240:2244   */\n  0x20\n    /* \"#utility.yul\":2237:2238   */\n  0x00\n    /* \"#utility.yul\":2227:2245   */\n  keccak256\n    /* \"#utility.yul\":2310:2312   */\n  0x1f\n    /* \"#utility.yul\":2298:2308   */\n  dup5\n    /* \"#utility.yul\":2294:2313   */\n  add\n    /* \"#utility.yul\":2291:2292   */\n  0x05\n    /* \"#utility.yul\":2287:2314   */\n  shr\n    /* \"#utility.yul\":2281:2285   */\n  dup2\n    /* \"#utility.yul\":2277:2315   */\n  add\n    /* \"#utility.yul\":2346:2350   */\n  0x20\n    /* \"#utility.yul\":2334:2344   */\n  dup6\n    /* \"#utility.yul\":2331:2351   */\n  lt\n    /* \"#utility.yul\":2328:2375   */\n  iszero\n  tag_45\n  jumpi\n  pop\n    /* \"#utility.yul\":2369:2373   */\n  dup1\n    /* \"#utility.yul\":2328:2375   */\ntag_45:\n    /* \"#utility.yul\":2424:2426   */\n  0x1f\n    /* \"#utility.yul\":2419:2422   */\n  dup5\n    /* \"#utility.yul\":2415:2427   */\n  add\n    /* \"#utility.yul\":2412:2413   */\n  0x05\n    /* \"#utility.yul\":2408:2428   */\n  shr\n    /* \"#utility.yul\":2402:2406   */\n  dup3\n    /* \"#utility.yul\":2398:2429   */\n  add\n    /* \"#utility.yul\":2388:2429   */\n  swap2\n  pop\n    /* \"#utility.yul\":2479:2560   */\ntag_46:\n    /* \"#utility.yul\":2497:2499   */\n  dup2\n    /* \"#utility.yul\":2490:2495   */\n  dup2\n    /* \"#utility.yul\":2487:2500   */\n  lt\n    /* \"#utility.yul\":2479:2560   */\n  iszero\n  tag_48\n  jumpi\n    /* \"#utility.yul\":2556:2557   */\n  0x00\n    /* \"#utility.yul\":2542:2558   */\n  dup2\n  sstore\n    /* \"#utility.yul\":2523:2524   */\n  0x01\n    /* \"#utility.yul\":2512:2525   */\n  add\n    /* \"#utility.yul\":2479:2560   */\n  jump(tag_46)\ntag_48:\n    /* \"#utility.yul\":2483:2486   */\n  pop\n  pop\n    /* \"#utility.yul\":2149:2570   */\ntag_44:\n    /* \"#utility.yul\":2058:2576   */\n  pop\n  pop\n  pop\n  jump\t// out\n    /* \"#utility.yul\":2752:4051   */\ntag_8:\n    /* \"#utility.yul\":2872:2882   */\n  dup2\n  mload\n  sub(shl(0x40, 0x01), 0x01)\n    /* \"#utility.yul\":2894:2924   */\n  dup2\n  gt\n    /* \"#utility.yul\":2891:2947   */\n  iszero\n  tag_52\n  jumpi\n    /* \"#utility.yul\":2927:2945   */\n  tag_52\n  tag_15\n  jump\t// in\ntag_52:\n    /* \"#utility.yul\":2956:3053   */\n  tag_53\n    /* \"#utility.yul\":3046:3052   */\n  dup2\n    /* \"#utility.yul\":3006:3044   */\n  tag_54\n    /* \"#utility.yul\":3038:3042   */\n  dup5\n    /* \"#utility.yul\":3032:3043   */\n  sload\n    /* \"#utility.yul\":3006:3044   */\n  tag_17\n  jump\t// in\ntag_54:\n    /* \"#utility.yul\":3000:3004   */\n  dup5\n    /* \"#utility.yul\":2956:3053   */\n  tag_19\n  jump\t// in\ntag_53:\n    /* \"#utility.yul\":3102:3106   */\n  0x20\n    /* \"#utility.yul\":3133:3135   */\n  0x1f\n    /* \"#utility.yul\":3122:3136   */\n  dup3\n  gt\n    /* \"#utility.yul\":3150:3151   */\n  0x01\n    /* \"#utility.yul\":3145:3794   */\n  dup2\n  eq\n  tag_56\n  jumpi\n    /* \"#utility.yul\":3838:3839   */\n  0x00\n    /* \"#utility.yul\":3855:3861   */\n  dup4\n    /* \"#utility.yul\":3852:3941   */\n  iszero\n  tag_57\n  jumpi\n  pop\n    /* \"#utility.yul\":3907:3926   */\n  dup5\n  dup3\n  add\n    /* \"#utility.yul\":3901:3927   */\n  mload\n    /* \"#utility.yul\":3852:3941   */\ntag_57:\n  not(0x00)\n    /* \"#utility.yul\":2709:2710   */\n  0x03\n    /* \"#utility.yul\":2705:2716   */\n  dup6\n  swap1\n  shl\n    /* \"#utility.yul\":2701:2725   */\n  shr\n    /* \"#utility.yul\":2697:2726   */\n  not\n    /* \"#utility.yul\":2687:2727   */\n  and\n    /* \"#utility.yul\":2733:2734   */\n  0x01\n    /* \"#utility.yul\":2729:2740   */\n  dup5\n  swap1\n  shl\n    /* \"#utility.yul\":2684:2741   */\n  or\n    /* \"#utility.yul\":3954:4035   */\n  dup5\n  sstore\n    /* \"#utility.yul\":3115:4045   */\n  jump(tag_48)\n    /* \"#utility.yul\":3145:3794   */\ntag_56:\n    /* \"#utility.yul\":2005:2006   */\n  0x00\n    /* \"#utility.yul\":1998:2012   */\n  dup5\n  dup2\n  mstore\n    /* \"#utility.yul\":2042:2046   */\n  0x20\n    /* \"#utility.yul\":2029:2047   */\n  dup2\n  keccak256\n  not(0x1f)\n    /* \"#utility.yul\":3181:3201   */\n  dup6\n  and\n  swap2\n    /* \"#utility.yul\":3299:3521   */\ntag_60:\n    /* \"#utility.yul\":3313:3320   */\n  dup3\n    /* \"#utility.yul\":3310:3311   */\n  dup2\n    /* \"#utility.yul\":3307:3321   */\n  lt\n    /* \"#utility.yul\":3299:3521   */\n  iszero\n  tag_62\n  jumpi\n    /* \"#utility.yul\":3395:3414   */\n  dup8\n  dup6\n  add\n    /* \"#utility.yul\":3389:3415   */\n  mload\n    /* \"#utility.yul\":3374:3416   */\n  dup3\n  sstore\n    /* \"#utility.yul\":3502:3506   */\n  0x20\n    /* \"#utility.yul\":3487:3507   */\n  swap5\n  dup6\n  add\n  swap5\n    /* \"#utility.yul\":3455:3456   */\n  0x01\n    /* \"#utility.yul\":3443:3457   */\n  swap1\n  swap3\n  add\n  swap2\n    /* \"#utility.yul\":3329:3341   */\n  add\n    /* \"#utility.yul\":3299:3521   */\n  jump(tag_60)\ntag_62:\n    /* \"#utility.yul\":3303:3306   */\n  pop\n    /* \"#utility.yul\":3549:3555   */\n  dup5\n    /* \"#utility.yul\":3540:3547   */\n  dup3\n    /* \"#utility.yul\":3537:3556   */\n  lt\n    /* \"#utility.yul\":3534:3735   */\n  iszero\n  tag_63\n  jumpi\n    /* \"#utility.yul\":3610:3629   */\n  dup7\n  dup5\n  add\n    /* \"#utility.yul\":3604:3630   */\n  mload\n  not(0x00)\n    /* \"#utility.yul\":3693:3694   */\n  0x03\n    /* \"#utility.yul\":3689:3703   */\n  dup8\n  swap1\n  shl\n    /* \"#utility.yul\":3705:3708   */\n  0xf8\n    /* \"#utility.yul\":3685:3709   */\n  and\n    /* \"#utility.yul\":3681:3718   */\n  shr\n    /* \"#utility.yul\":3677:3719   */\n  not\n    /* \"#utility.yul\":3662:3720   */\n  and\n    /* \"#utility.yul\":3647:3721   */\n  dup2\n  sstore\n    /* \"#utility.yul\":3534:3735   */\ntag_63:\n  pop\n  pop\n  pop\n  pop\n    /* \"#utility.yul\":3781:3782   */\n  0x01\n    /* \"#utility.yul\":3765:3779   */\n  swap1\n  dup2\n  shl\n    /* \"#utility.yul\":3761:3783   */\n  add\n    /* \"#utility.yul\":3748:3784   */\n  swap1\n  sstore\n  pop\n    /* \"#utility.yul\":2752:4051   */\n  jump\t// out\ntag_21:\n    /* \"Azuki-ERC721A-ERC721ABurnableMock(copy)(copy)//mocks/ERC721ABurnableMock.sol\":1449:2246  contract ERC721ABurnableMock is ERC721A, ERC721ABurnable {... */\n  dataSize(sub_0)\n  dup1\n  dataOffset(sub_0)\n  0x00\n  codecopy\n  0x00\n  return\nstop\n\nsub_0: assembly {\n        /* \"Azuki-ERC721A-ERC721ABurnableMock(copy)(copy)//mocks/ERC721ABurnableMock.sol\":1449:2246  contract ERC721ABurnableMock is ERC721A, ERC721ABurnable {... */\n      mstore(0x40, 0x80)\n      jumpi(tag_1, lt(calldatasize, 0x04))\n      shr(0xe0, calldataload(0x00))\n      dup1\n      0x6352211e\n      gt\n      tag_23\n      jumpi\n      dup1\n      0xa2309ff8\n      gt\n      tag_24\n      jumpi\n      dup1\n      0xd89135cd\n      gt\n      tag_25\n      jumpi\n      dup1\n      0xd89135cd\n      eq\n      tag_20\n      jumpi\n      dup1\n      0xe985e9c5\n      eq\n      tag_21\n      jumpi\n      dup1\n      0xf2523633\n      eq\n      tag_22\n      jumpi\n      0x00\n      dup1\n      revert\n    tag_25:\n      dup1\n      0xa2309ff8\n      eq\n      tag_17\n      jumpi\n      dup1\n      0xb88d4fde\n      eq\n      tag_18\n      jumpi\n      dup1\n      0xc87b56dd\n      eq\n      tag_19\n      jumpi\n      0x00\n      dup1\n      revert\n    tag_24:\n      dup1\n      0x95d89b41\n      gt\n      tag_26\n      jumpi\n      dup1\n      0x95d89b41\n      eq\n      tag_14\n      jumpi\n      dup1\n      0xa1448194\n      eq\n      tag_15\n      jumpi\n      dup1\n      0xa22cb465\n      eq\n      tag_16\n      jumpi\n      0x00\n      dup1\n      revert\n    tag_26:\n      dup1\n      0x6352211e\n      eq\n      tag_12\n      jumpi\n      dup1\n      0x70a08231\n      eq\n      tag_13\n      jumpi\n      0x00\n      dup1\n      revert\n    tag_23:\n      dup1\n      0x23b872dd\n      gt\n      tag_27\n      jumpi\n      dup1\n      0x42842e0e\n      gt\n      tag_28\n      jumpi\n      dup1\n      0x42842e0e\n      eq\n      tag_9\n      jumpi\n      dup1\n      0x42966c68\n      eq\n      tag_10\n      jumpi\n      dup1\n      0x4f558e79\n      eq\n      tag_11\n      jumpi\n      0x00\n      dup1\n      revert\n    tag_28:\n      dup1\n      0x23b872dd\n      eq\n      tag_7\n      jumpi\n      dup1\n      0x2478d639\n      eq\n      tag_8\n      jumpi\n      0x00\n      dup1\n      revert\n    tag_27:\n      dup1\n      0x081812fc\n      gt\n      tag_29\n      jumpi\n      dup1\n      0x081812fc\n      eq\n      tag_4\n      jumpi\n      dup1\n      0x095ea7b3\n      eq\n      tag_5\n      jumpi\n      dup1\n      0x18160ddd\n      eq\n      tag_6\n      jumpi\n      0x00\n      dup1\n      revert\n    tag_29:\n      dup1\n      0x01ffc9a7\n      eq\n      tag_2\n      jumpi\n      dup1\n      0x06fdde03\n      eq\n      tag_3\n      jumpi\n    tag_1:\n      0x00\n      dup1\n      revert\n        /* \"Azuki-ERC721A-ERC721ABurnableMock(copy)(copy)/ERC721A.sol\":10458:11088  function supportsInterface(bytes4 interfaceId) public view virtual override returns (bool) {... */\n    tag_2:\n      callvalue\n      dup1\n      iszero\n      tag_30\n      jumpi\n      0x00\n      dup1\n      revert\n    tag_30:\n      pop\n      tag_31\n      tag_32\n      calldatasize\n      0x04\n      tag_33\n      jump\t// in\n    tag_32:\n      tag_34\n      jump\t// in\n    tag_31:\n      mload(0x40)\n        /* \"#utility.yul\":611:625   */\n      swap1\n      iszero\n        /* \"#utility.yul\":604:626   */\n      iszero\n        /* \"#utility.yul\":586:627   */\n      dup2\n      mstore\n        /* \"#utility.yul\":574:576   */\n      0x20\n        /* \"#utility.yul\":559:577   */\n      add\n        /* \"Azuki-ERC721A-ERC721ABurnableMock(copy)(copy)/ERC721A.sol\":10458:11088  function supportsInterface(bytes4 interfaceId) public view virtual override returns (bool) {... */\n    tag_35:\n      mload(0x40)\n      dup1\n      swap2\n      sub\n      swap1\n      return\n        /* \"Azuki-ERC721A-ERC721ABurnableMock(copy)(copy)/ERC721A.sol\":11342:11440  function name() public view virtual override returns (string memory) {... */\n    tag_3:\n      callvalue\n      dup1\n      iszero\n      tag_37\n      jumpi\n      0x00\n      dup1\n      revert\n    tag_37:\n      pop\n      tag_38\n      tag_39\n      jump\t// in\n    tag_38:\n      mload(0x40)\n      tag_35\n      swap2\n      swap1\n      tag_41\n      jump\t// in\n        /* \"Azuki-ERC721A-ERC721ABurnableMock(copy)(copy)/ERC721A.sol\":18205:18428  function getApproved(uint256 tokenId) public view virtual override returns (address) {... */\n    tag_4:\n      callvalue\n      dup1\n      iszero\n      tag_42\n      jumpi\n      0x00\n      dup1\n      revert\n    tag_42:\n      pop\n      tag_43\n      tag_44\n      calldatasize\n      0x04\n      tag_45\n      jump\t// in\n    tag_44:\n      tag_46\n      jump\t// in\n    tag_43:\n      mload(0x40)\n        /* \"#utility.yul\":1860:1902   */\n      0xffffffffffffffffffffffffffffffffffffffff\n        /* \"#utility.yul\":1848:1903   */\n      swap1\n      swap2\n      and\n        /* \"#utility.yul\":1830:1904   */\n      dup2\n      mstore\n        /* \"#utility.yul\":1818:1820   */\n      0x20\n        /* \"#utility.yul\":1803:1821   */\n      add\n        /* \"Azuki-ERC721A-ERC721ABurnableMock(copy)(copy)/ERC721A.sol\":18205:18428  function getApproved(uint256 tokenId) public view virtual override returns (address) {... */\n      tag_35\n        /* \"#utility.yul\":1684:1910   */\n      jump\n        /* \"Azuki-ERC721A-ERC721ABurnableMock(copy)(copy)/ERC721A.sol\":17933:18055  function approve(address to, uint256 tokenId) public payable virtual override {... */\n    tag_5:\n      tag_49\n      tag_50\n      calldatasize\n      0x04\n      tag_51\n      jump\t// in\n    tag_50:\n      tag_52\n      jump\t// in\n    tag_49:\n      stop\n        /* \"Azuki-ERC721A-ERC721ABurnableMock(copy)(copy)/ERC721A.sol\":7188:7505  function totalSupply() public view virtual override returns (uint256) {... */\n    tag_6:\n      callvalue\n      dup1\n      iszero\n      tag_53\n      jumpi\n      0x00\n      dup1\n      revert\n    tag_53:\n      pop\n        /* \"Azuki-ERC721A-ERC721ABurnableMock(copy)(copy)/ERC721A.sol\":7458:7470  _burnCounter */\n      sload(0x01)\n        /* \"Azuki-ERC721A-ERC721ABurnableMock(copy)(copy)/ERC721A.sol\":7249:7256  uint256 */\n      0x00\n        /* \"Azuki-ERC721A-ERC721ABurnableMock(copy)(copy)/ERC721A.sol\":7442:7455  _currentIndex */\n      sload\n        /* \"Azuki-ERC721A-ERC721ABurnableMock(copy)(copy)/ERC721A.sol\":7442:7470  _currentIndex - _burnCounter */\n      sub\n        /* \"Azuki-ERC721A-ERC721ABurnableMock(copy)(copy)/ERC721A.sol\":7188:7505  function totalSupply() public view virtual override returns (uint256) {... */\n    tag_54:\n      mload(0x40)\n        /* \"#utility.yul\":2567:2592   */\n      swap1\n      dup2\n      mstore\n        /* \"#utility.yul\":2555:2557   */\n      0x20\n        /* \"#utility.yul\":2540:2558   */\n      add\n        /* \"Azuki-ERC721A-ERC721ABurnableMock(copy)(copy)/ERC721A.sol\":7188:7505  function totalSupply() public view virtual override returns (uint256) {... */\n      tag_35\n        /* \"#utility.yul\":2421:2598   */\n      jump\n        /* \"Azuki-ERC721A-ERC721ABurnableMock(copy)(copy)/ERC721A.sol\":21840:25287  function transferFrom(... */\n    tag_7:\n      tag_49\n      tag_59\n      calldatasize\n      0x04\n      tag_60\n      jump\t// in\n    tag_59:\n      tag_61\n      jump\t// in\n        /* \"Azuki-ERC721A-ERC721ABurnableMock(copy)(copy)//mocks/ERC721ABurnableMock.sol\":2133:2244  function numberBurned(address owner) public view returns (uint256) {... */\n    tag_8:\n      callvalue\n      dup1\n      iszero\n      tag_62\n      jumpi\n      0x00\n      dup1\n      revert\n    tag_62:\n      pop\n      tag_54\n      tag_64\n      calldatasize\n      0x04\n      tag_65\n      jump\t// in\n    tag_64:\n      tag_66\n      jump\t// in\n        /* \"Azuki-ERC721A-ERC721ABurnableMock(copy)(copy)/ERC721A.sol\":25378:25565  function safeTransferFrom(... */\n    tag_9:\n      tag_49\n      tag_69\n      calldatasize\n      0x04\n      tag_60\n      jump\t// in\n    tag_69:\n      tag_70\n      jump\t// in\n        /* \"Azuki-ERC721A-ERC721ABurnableMock(copy)(copy)/extensions/ERC721ABurnable.sol\":1804:1896  function burn(uint256 tokenId) public virtual override {... */\n    tag_10:\n      callvalue\n      dup1\n      iszero\n      tag_71\n      jumpi\n      0x00\n      dup1\n      revert\n    tag_71:\n      pop\n      tag_49\n      tag_73\n      calldatasize\n      0x04\n      tag_45\n      jump\t// in\n    tag_73:\n      tag_74\n      jump\t// in\n        /* \"Azuki-ERC721A-ERC721ABurnableMock(copy)(copy)//mocks/ERC721ABurnableMock.sol\":1600:1700  function exists(uint256 tokenId) public view returns (bool) {... */\n    tag_11:\n      callvalue\n      dup1\n      iszero\n      tag_75\n      jumpi\n      0x00\n      dup1\n      revert\n    tag_75:\n      pop\n      tag_31\n      tag_77\n      calldatasize\n      0x04\n      tag_45\n      jump\t// in\n    tag_77:\n      tag_78\n      jump\t// in\n        /* \"Azuki-ERC721A-ERC721ABurnableMock(copy)(copy)/ERC721A.sol\":12703:12853  function ownerOf(uint256 tokenId) public view virtual override returns (address) {... */\n    tag_12:\n      callvalue\n      dup1\n      iszero\n      tag_80\n      jumpi\n      0x00\n      dup1\n      revert\n    tag_80:\n      pop\n      tag_43\n      tag_82\n      calldatasize\n      0x04\n      tag_45\n      jump\t// in\n    tag_82:\n      tag_83\n      jump\t// in\n        /* \"Azuki-ERC721A-ERC721ABurnableMock(copy)(copy)/ERC721A.sol\":8339:8578  function balanceOf(address owner) public view virtual override returns (uint256) {... */\n    tag_13:\n      callvalue\n      dup1\n      iszero\n      tag_85\n      jumpi\n      0x00\n      dup1\n      revert\n    tag_85:\n      pop\n      tag_54\n      tag_87\n      calldatasize\n      0x04\n      tag_65\n      jump\t// in\n    tag_87:\n      tag_88\n      jump\t// in\n        /* \"Azuki-ERC721A-ERC721ABurnableMock(copy)(copy)/ERC721A.sol\":11511:11613  function symbol() public view virtual override returns (string memory) {... */\n    tag_14:\n      callvalue\n      dup1\n      iszero\n      tag_90\n      jumpi\n      0x00\n      dup1\n      revert\n    tag_90:\n      pop\n      tag_38\n      tag_92\n      jump\t// in\n        /* \"Azuki-ERC721A-ERC721ABurnableMock(copy)(copy)//mocks/ERC721ABurnableMock.sol\":1706:1801  function safeMint(address to, uint256 quantity) public {... */\n    tag_15:\n      callvalue\n      dup1\n      iszero\n      tag_94\n      jumpi\n      0x00\n      dup1\n      revert\n    tag_94:\n      pop\n      tag_49\n      tag_96\n      calldatasize\n      0x04\n      tag_51\n      jump\t// in\n    tag_96:\n      tag_97\n      jump\t// in\n        /* \"Azuki-ERC721A-ERC721ABurnableMock(copy)(copy)/ERC721A.sol\":18755:18986  function setApprovalForAll(address operator, bool approved) public virtual override {... */\n    tag_16:\n      callvalue\n      dup1\n      iszero\n      tag_98\n      jumpi\n      0x00\n      dup1\n      revert\n    tag_98:\n      pop\n      tag_49\n      tag_100\n      calldatasize\n      0x04\n      tag_101\n      jump\t// in\n    tag_100:\n      tag_102\n      jump\t// in\n        /* \"Azuki-ERC721A-ERC721ABurnableMock(copy)(copy)//mocks/ERC721ABurnableMock.sol\":1939:2030  function totalMinted() public view returns (uint256) {... */\n    tag_17:\n      callvalue\n      dup1\n      iszero\n      tag_103\n      jumpi\n      0x00\n      dup1\n      revert\n    tag_103:\n      pop\n        /* \"Azuki-ERC721A-ERC721ABurnableMock(copy)(copy)//mocks/ERC721ABurnableMock.sol\":1983:1990  uint256 */\n      0x00\n        /* \"Azuki-ERC721A-ERC721ABurnableMock(copy)(copy)/ERC721A.sol\":7840:7853  _currentIndex */\n      sload\n        /* \"Azuki-ERC721A-ERC721ABurnableMock(copy)(copy)//mocks/ERC721ABurnableMock.sol\":1939:2030  function totalMinted() public view returns (uint256) {... */\n      jump(tag_54)\n        /* \"Azuki-ERC721A-ERC721ABurnableMock(copy)(copy)/ERC721A.sol\":26146:26551  function safeTransferFrom(... */\n    tag_18:\n      tag_49\n      tag_108\n      calldatasize\n      0x04\n      tag_109\n      jump\t// in\n    tag_108:\n      tag_110\n      jump\t// in\n        /* \"Azuki-ERC721A-ERC721ABurnableMock(copy)(copy)/ERC721A.sol\":11714:12036  function tokenURI(uint256 tokenId) public view virtual override returns (string memory) {... */\n    tag_19:\n      callvalue\n      dup1\n      iszero\n      tag_111\n      jumpi\n      0x00\n      dup1\n      revert\n    tag_111:\n      pop\n      tag_38\n      tag_113\n      calldatasize\n      0x04\n      tag_45\n      jump\t// in\n    tag_113:\n      tag_114\n      jump\t// in\n        /* \"Azuki-ERC721A-ERC721ABurnableMock(copy)(copy)//mocks/ERC721ABurnableMock.sol\":2036:2127  function totalBurned() public view returns (uint256) {... */\n    tag_20:\n      callvalue\n      dup1\n      iszero\n      tag_116\n      jumpi\n      0x00\n      dup1\n      revert\n    tag_116:\n      pop\n      tag_54\n      tag_118\n      jump\t// in\n        /* \"Azuki-ERC721A-ERC721ABurnableMock(copy)(copy)/ERC721A.sol\":19136:19298  function isApprovedForAll(address owner, address operator) public view virtual override returns (bool) {... */\n    tag_21:\n      callvalue\n      dup1\n      iszero\n      tag_120\n      jumpi\n      0x00\n      dup1\n      revert\n    tag_120:\n      pop\n      tag_31\n      tag_122\n      calldatasize\n      0x04\n      tag_123\n      jump\t// in\n    tag_122:\n        /* \"Azuki-ERC721A-ERC721ABurnableMock(copy)(copy)/ERC721A.sol\":19256:19281  _operatorApprovals[owner] */\n      0xffffffffffffffffffffffffffffffffffffffff\n      swap2\n      dup3\n      and\n        /* \"Azuki-ERC721A-ERC721ABurnableMock(copy)(copy)/ERC721A.sol\":19233:19237  bool */\n      0x00\n        /* \"Azuki-ERC721A-ERC721ABurnableMock(copy)(copy)/ERC721A.sol\":19256:19281  _operatorApprovals[owner] */\n      swap1\n      dup2\n      mstore\n        /* \"Azuki-ERC721A-ERC721ABurnableMock(copy)(copy)/ERC721A.sol\":19256:19274  _operatorApprovals */\n      0x07\n        /* \"Azuki-ERC721A-ERC721ABurnableMock(copy)(copy)/ERC721A.sol\":19256:19281  _operatorApprovals[owner] */\n      0x20\n      swap1\n      dup2\n      mstore\n      0x40\n      dup1\n      dup4\n      keccak256\n        /* \"Azuki-ERC721A-ERC721ABurnableMock(copy)(copy)/ERC721A.sol\":19256:19291  _operatorApprovals[owner][operator] */\n      swap4\n      swap1\n      swap5\n      and\n      dup3\n      mstore\n      swap2\n      swap1\n      swap2\n      mstore\n      keccak256\n      sload\n      0xff\n      and\n      swap1\n        /* \"Azuki-ERC721A-ERC721ABurnableMock(copy)(copy)/ERC721A.sol\":19136:19298  function isApprovedForAll(address owner, address operator) public view virtual override returns (bool) {... */\n      jump\n        /* \"Azuki-ERC721A-ERC721ABurnableMock(copy)(copy)//mocks/ERC721ABurnableMock.sol\":1807:1933  function getOwnershipAt(uint256 index) public view returns (TokenOwnership memory) {... */\n    tag_22:\n      callvalue\n      dup1\n      iszero\n      tag_126\n      jumpi\n      0x00\n      dup1\n      revert\n    tag_126:\n      pop\n      tag_127\n      tag_128\n      calldatasize\n      0x04\n      tag_45\n      jump\t// in\n    tag_128:\n      tag_129\n      jump\t// in\n    tag_127:\n      mload(0x40)\n      tag_35\n      swap2\n      swap1\n        /* \"#utility.yul\":5542:5555   */\n      dup2\n      mload\n        /* \"#utility.yul\":5557:5599   */\n      0xffffffffffffffffffffffffffffffffffffffff\n        /* \"#utility.yul\":5538:5600   */\n      and\n        /* \"#utility.yul\":5520:5601   */\n      dup2\n      mstore\n        /* \"#utility.yul\":5661:5665   */\n      0x20\n        /* \"#utility.yul\":5649:5666   */\n      dup1\n      dup4\n      add\n        /* \"#utility.yul\":5643:5667   */\n      mload\n        /* \"#utility.yul\":5669:5687   */\n      0xffffffffffffffff\n        /* \"#utility.yul\":5639:5688   */\n      and\n        /* \"#utility.yul\":5617:5637   */\n      swap1\n      dup3\n      add\n        /* \"#utility.yul\":5610:5689   */\n      mstore\n        /* \"#utility.yul\":5759:5763   */\n      0x40\n        /* \"#utility.yul\":5747:5764   */\n      dup1\n      dup4\n      add\n        /* \"#utility.yul\":5741:5765   */\n      mload\n        /* \"#utility.yul\":5734:5766   */\n      iszero\n        /* \"#utility.yul\":5727:5767   */\n      iszero\n        /* \"#utility.yul\":5705:5725   */\n      swap1\n      dup3\n      add\n        /* \"#utility.yul\":5698:5768   */\n      mstore\n        /* \"#utility.yul\":5828:5832   */\n      0x60\n        /* \"#utility.yul\":5816:5833   */\n      swap2\n      dup3\n      add\n        /* \"#utility.yul\":5810:5834   */\n      mload\n        /* \"#utility.yul\":5836:5844   */\n      0xffffff\n        /* \"#utility.yul\":5806:5845   */\n      and\n        /* \"#utility.yul\":5784:5804   */\n      swap2\n      dup2\n      add\n        /* \"#utility.yul\":5777:5846   */\n      swap2\n      swap1\n      swap2\n      mstore\n        /* \"#utility.yul\":5507:5510   */\n      0x80\n        /* \"#utility.yul\":5492:5511   */\n      add\n      swap1\n        /* \"#utility.yul\":5309:5852   */\n      jump\n        /* \"Azuki-ERC721A-ERC721ABurnableMock(copy)(copy)/ERC721A.sol\":10458:11088  function supportsInterface(bytes4 interfaceId) public view virtual override returns (bool) {... */\n    tag_34:\n        /* \"Azuki-ERC721A-ERC721ABurnableMock(copy)(copy)/ERC721A.sol\":10543:10547  bool */\n      0x00\n        /* \"Azuki-ERC721A-ERC721ABurnableMock(copy)(copy)/ERC721A.sol\":10861:10886  interfaceId == 0x01ffc9a7 */\n      0x01ffc9a700000000000000000000000000000000000000000000000000000000\n      0xffffffff00000000000000000000000000000000000000000000000000000000\n      dup4\n      and\n      eq\n      dup1\n        /* \"Azuki-ERC721A-ERC721ABurnableMock(copy)(copy)/ERC721A.sol\":10861:10962  interfaceId == 0x01ffc9a7 || // ERC165 interface ID for ERC165.... */\n      tag_133\n      jumpi\n      pop\n        /* \"Azuki-ERC721A-ERC721ABurnableMock(copy)(copy)/ERC721A.sol\":10937:10962  interfaceId == 0x80ac58cd */\n      0x80ac58cd00000000000000000000000000000000000000000000000000000000\n      0xffffffff00000000000000000000000000000000000000000000000000000000\n      dup4\n      and\n      eq\n        /* \"Azuki-ERC721A-ERC721ABurnableMock(copy)(copy)/ERC721A.sol\":10861:10962  interfaceId == 0x01ffc9a7 || // ERC165 interface ID for ERC165.... */\n    tag_133:\n        /* \"Azuki-ERC721A-ERC721ABurnableMock(copy)(copy)/ERC721A.sol\":10861:11038  interfaceId == 0x01ffc9a7 || // ERC165 interface ID for ERC165.... */\n      dup1\n      tag_134\n      jumpi\n      pop\n        /* \"Azuki-ERC721A-ERC721ABurnableMock(copy)(copy)/ERC721A.sol\":11013:11038  interfaceId == 0x5b5e139f */\n      0x5b5e139f00000000000000000000000000000000000000000000000000000000\n      0xffffffff00000000000000000000000000000000000000000000000000000000\n      dup4\n      and\n      eq\n        /* \"Azuki-ERC721A-ERC721ABurnableMock(copy)(copy)/ERC721A.sol\":10861:11038  interfaceId == 0x01ffc9a7 || // ERC165 interface ID for ERC165.... */\n    tag_134:\n        /* \"Azuki-ERC721A-ERC721ABurnableMock(copy)(copy)/ERC721A.sol\":10842:11038  return... */\n      swap3\n        /* \"Azuki-ERC721A-ERC721ABurnableMock(copy)(copy)/ERC721A.sol\":10458:11088  function supportsInterface(bytes4 interfaceId) public view virtual override returns (bool) {... */\n      swap2\n      pop\n      pop\n      jump\t// out\n        /* \"Azuki-ERC721A-ERC721ABurnableMock(copy)(copy)/ERC721A.sol\":11342:11440  function name() public view virtual override returns (string memory) {... */\n    tag_39:\n        /* \"Azuki-ERC721A-ERC721ABurnableMock(copy)(copy)/ERC721A.sol\":11396:11409  string memory */\n      0x60\n        /* \"Azuki-ERC721A-ERC721ABurnableMock(copy)(copy)/ERC721A.sol\":11428:11433  _name */\n      0x02\n        /* \"Azuki-ERC721A-ERC721ABurnableMock(copy)(copy)/ERC721A.sol\":11421:11433  return _name */\n      dup1\n      sload\n      tag_136\n      swap1\n      tag_137\n      jump\t// in\n    tag_136:\n      dup1\n      0x1f\n      add\n      0x20\n      dup1\n      swap2\n      div\n      mul\n      0x20\n      add\n      mload(0x40)\n      swap1\n      dup2\n      add\n      0x40\n      mstore\n      dup1\n      swap3\n      swap2\n      swap1\n      dup2\n      dup2\n      mstore\n      0x20\n      add\n      dup3\n      dup1\n      sload\n      tag_138\n      swap1\n      tag_137\n      jump\t// in\n    tag_138:\n      dup1\n      iszero\n      tag_139\n      jumpi\n      dup1\n      0x1f\n      lt\n      tag_140\n      jumpi\n      0x0100\n      dup1\n      dup4\n      sload\n      div\n      mul\n      dup4\n      mstore\n      swap2\n      0x20\n      add\n      swap2\n      jump(tag_139)\n    tag_140:\n      dup3\n      add\n      swap2\n      swap1\n      0x00\n      mstore\n      keccak256(0x00, 0x20)\n      swap1\n    tag_141:\n      dup2\n      sload\n      dup2\n      mstore\n      swap1\n      0x01\n      add\n      swap1\n      0x20\n      add\n      dup1\n      dup4\n      gt\n      tag_141\n      jumpi\n      dup3\n      swap1\n      sub\n      0x1f\n      and\n      dup3\n      add\n      swap2\n    tag_139:\n      pop\n      pop\n      pop\n      pop\n      pop\n      swap1\n      pop\n        /* \"Azuki-ERC721A-ERC721ABurnableMock(copy)(copy)/ERC721A.sol\":11342:11440  function name() public view virtual override returns (string memory) {... */\n      swap1\n      jump\t// out\n        /* \"Azuki-ERC721A-ERC721ABurnableMock(copy)(copy)/ERC721A.sol\":18205:18428  function getApproved(uint256 tokenId) public view virtual override returns (address) {... */\n    tag_46:\n        /* \"Azuki-ERC721A-ERC721ABurnableMock(copy)(copy)/ERC721A.sol\":18281:18288  address */\n      0x00\n        /* \"Azuki-ERC721A-ERC721ABurnableMock(copy)(copy)/ERC721A.sol\":18305:18321  _exists(tokenId) */\n      tag_143\n        /* \"Azuki-ERC721A-ERC721ABurnableMock(copy)(copy)/ERC721A.sol\":18313:18320  tokenId */\n      dup3\n        /* \"Azuki-ERC721A-ERC721ABurnableMock(copy)(copy)/ERC721A.sol\":18305:18312  _exists */\n      tag_144\n        /* \"Azuki-ERC721A-ERC721ABurnableMock(copy)(copy)/ERC721A.sol\":18305:18321  _exists(tokenId) */\n      jump\t// in\n    tag_143:\n        /* \"Azuki-ERC721A-ERC721ABurnableMock(copy)(copy)/ERC721A.sol\":18300:18373  if (!_exists(tokenId)) _revert(ApprovalQueryForNonexistentToken.selector) */\n      tag_146\n      jumpi\n        /* \"Azuki-ERC721A-ERC721ABurnableMock(copy)(copy)/ERC721A.sol\":18323:18373  _revert(ApprovalQueryForNonexistentToken.selector) */\n      tag_146\n        /* \"Azuki-ERC721A-ERC721ABurnableMock(copy)(copy)/ERC721A.sol\":18331:18372  ApprovalQueryForNonexistentToken.selector */\n      0xcf4700e400000000000000000000000000000000000000000000000000000000\n        /* \"Azuki-ERC721A-ERC721ABurnableMock(copy)(copy)/ERC721A.sol\":18323:18330  _revert */\n      tag_147\n        /* \"Azuki-ERC721A-ERC721ABurnableMock(copy)(copy)/ERC721A.sol\":18323:18373  _revert(ApprovalQueryForNonexistentToken.selector) */\n      jump\t// in\n    tag_146:\n      pop\n        /* \"Azuki-ERC721A-ERC721ABurnableMock(copy)(copy)/ERC721A.sol\":18391:18415  _tokenApprovals[tokenId] */\n      0x00\n      swap1\n      dup2\n      mstore\n        /* \"Azuki-ERC721A-ERC721ABurnableMock(copy)(copy)/ERC721A.sol\":18391:18406  _tokenApprovals */\n      0x06\n        /* \"Azuki-ERC721A-ERC721ABurnableMock(copy)(copy)/ERC721A.sol\":18391:18415  _tokenApprovals[tokenId] */\n      0x20\n      mstore\n      0x40\n      swap1\n      keccak256\n        /* \"Azuki-ERC721A-ERC721ABurnableMock(copy)(copy)/ERC721A.sol\":18391:18421  _tokenApprovals[tokenId].value */\n      sload\n      0xffffffffffffffffffffffffffffffffffffffff\n      and\n      swap1\n        /* \"Azuki-ERC721A-ERC721ABurnableMock(copy)(copy)/ERC721A.sol\":18205:18428  function getApproved(uint256 tokenId) public view virtual override returns (address) {... */\n      jump\t// out\n        /* \"Azuki-ERC721A-ERC721ABurnableMock(copy)(copy)/ERC721A.sol\":17933:18055  function approve(address to, uint256 tokenId) public payable virtual override {... */\n    tag_52:\n        /* \"Azuki-ERC721A-ERC721ABurnableMock(copy)(copy)/ERC721A.sol\":18021:18048  _approve(to, tokenId, true) */\n      tag_149\n        /* \"Azuki-ERC721A-ERC721ABurnableMock(copy)(copy)/ERC721A.sol\":18030:18032  to */\n      dup3\n        /* \"Azuki-ERC721A-ERC721ABurnableMock(copy)(copy)/ERC721A.sol\":18034:18041  tokenId */\n      dup3\n        /* \"Azuki-ERC721A-ERC721ABurnableMock(copy)(copy)/ERC721A.sol\":18043:18047  true */\n      0x01\n        /* \"Azuki-ERC721A-ERC721ABurnableMock(copy)(copy)/ERC721A.sol\":18021:18029  _approve */\n      tag_150\n        /* \"Azuki-ERC721A-ERC721ABurnableMock(copy)(copy)/ERC721A.sol\":18021:18048  _approve(to, tokenId, true) */\n      jump\t// in\n    tag_149:\n        /* \"Azuki-ERC721A-ERC721ABurnableMock(copy)(copy)/ERC721A.sol\":17933:18055  function approve(address to, uint256 tokenId) public payable virtual override {... */\n      pop\n      pop\n      jump\t// out\n        /* \"Azuki-ERC721A-ERC721ABurnableMock(copy)(copy)/ERC721A.sol\":21840:25287  function transferFrom(... */\n    tag_61:\n        /* \"Azuki-ERC721A-ERC721ABurnableMock(copy)(copy)/ERC721A.sol\":21977:22004  uint256 prevOwnershipPacked */\n      0x00\n        /* \"Azuki-ERC721A-ERC721ABurnableMock(copy)(copy)/ERC721A.sol\":22007:22034  _packedOwnershipOf(tokenId) */\n      tag_155\n        /* \"Azuki-ERC721A-ERC721ABurnableMock(copy)(copy)/ERC721A.sol\":22026:22033  tokenId */\n      dup3\n        /* \"Azuki-ERC721A-ERC721ABurnableMock(copy)(copy)/ERC721A.sol\":22007:22025  _packedOwnershipOf */\n      tag_156\n        /* \"Azuki-ERC721A-ERC721ABurnableMock(copy)(copy)/ERC721A.sol\":22007:22034  _packedOwnershipOf(tokenId) */\n      jump\t// in\n    tag_155:\n        /* \"Azuki-ERC721A-ERC721ABurnableMock(copy)(copy)/ERC721A.sol\":4079:4093  (1 << 160) - 1 */\n      0xffffffffffffffffffffffffffffffffffffffff\n        /* \"Azuki-ERC721A-ERC721ABurnableMock(copy)(copy)/ERC721A.sol\":22159:22181  uint256(uint160(from)) */\n      swap5\n      dup6\n      and\n      swap5\n        /* \"Azuki-ERC721A-ERC721ABurnableMock(copy)(copy)/ERC721A.sol\":21977:22034  uint256 prevOwnershipPacked = _packedOwnershipOf(tokenId) */\n      swap1\n      swap2\n      pop\n        /* \"Azuki-ERC721A-ERC721ABurnableMock(copy)(copy)/ERC721A.sol\":22217:22262  address(uint160(prevOwnershipPacked)) != from */\n      dup2\n      and\n      dup5\n      eq\n        /* \"Azuki-ERC721A-ERC721ABurnableMock(copy)(copy)/ERC721A.sol\":22213:22308  if (address(uint160(prevOwnershipPacked)) != from) _revert(TransferFromIncorrectOwner.selector) */\n      tag_158\n      jumpi\n        /* \"Azuki-ERC721A-ERC721ABurnableMock(copy)(copy)/ERC721A.sol\":22264:22308  _revert(TransferFromIncorrectOwner.selector) */\n      tag_158\n        /* \"Azuki-ERC721A-ERC721ABurnableMock(copy)(copy)/ERC721A.sol\":22272:22307  TransferFromIncorrectOwner.selector */\n      0xa114810000000000000000000000000000000000000000000000000000000000\n        /* \"Azuki-ERC721A-ERC721ABurnableMock(copy)(copy)/ERC721A.sol\":22264:22271  _revert */\n      tag_147\n        /* \"Azuki-ERC721A-ERC721ABurnableMock(copy)(copy)/ERC721A.sol\":22264:22308  _revert(TransferFromIncorrectOwner.selector) */\n      jump\t// in\n    tag_158:\n        /* \"Azuki-ERC721A-ERC721ABurnableMock(copy)(copy)/ERC721A.sol\":22320:22347  uint256 approvedAddressSlot */\n      0x00\n        /* \"Azuki-ERC721A-ERC721ABurnableMock(copy)(copy)/ERC721A.sol\":20973:20997  _tokenApprovals[tokenId] */\n      dup3\n      dup2\n      mstore\n        /* \"Azuki-ERC721A-ERC721ABurnableMock(copy)(copy)/ERC721A.sol\":20973:20988  _tokenApprovals */\n      0x06\n        /* \"Azuki-ERC721A-ERC721ABurnableMock(copy)(copy)/ERC721A.sol\":20973:20997  _tokenApprovals[tokenId] */\n      0x20\n      mstore\n      0x40\n      swap1\n      keccak256\n        /* \"Azuki-ERC721A-ERC721ABurnableMock(copy)(copy)/ERC721A.sol\":21197:21223  sload(approvedAddressSlot) */\n      dup1\n      sload\n        /* \"Azuki-ERC721A-ERC721ABurnableMock(copy)(copy)/ERC721A.sol\":22508:22576  _isSenderApprovedOrOwner(approvedAddress, from, _msgSenderERC721A()) */\n      tag_161\n        /* \"Azuki-ERC721A-ERC721ABurnableMock(copy)(copy)/ERC721A.sol\":21197:21223  sload(approvedAddressSlot) */\n      dup2\n        /* \"Azuki-ERC721A-ERC721ABurnableMock(copy)(copy)/ERC721A.sol\":22550:22554  from */\n      dup8\n        /* \"Azuki-ERC721A-ERC721ABurnableMock(copy)(copy)/ERC721A.sol\":42781:42791  msg.sender */\n      caller\n        /* \"Azuki-ERC721A-ERC721ABurnableMock(copy)(copy)/ERC721A.sol\":22556:22575  _msgSenderERC721A() */\n    tag_162:\n        /* \"Azuki-ERC721A-ERC721ABurnableMock(copy)(copy)/ERC721A.sol\":20318:20334  _BITMASK_ADDRESS */\n      0xffffffffffffffffffffffffffffffffffffffff\n        /* \"Azuki-ERC721A-ERC721ABurnableMock(copy)(copy)/ERC721A.sol\":20461:20493  and(msgSender, _BITMASK_ADDRESS) */\n      swap1\n      dup2\n      and\n        /* \"Azuki-ERC721A-ERC721ABurnableMock(copy)(copy)/ERC721A.sol\":20307:20335  and(owner, _BITMASK_ADDRESS) */\n      swap2\n      and\n        /* \"Azuki-ERC721A-ERC721ABurnableMock(copy)(copy)/ERC721A.sol\":20588:20608  eq(msgSender, owner) */\n      dup2\n      eq\n        /* \"Azuki-ERC721A-ERC721ABurnableMock(copy)(copy)/ERC721A.sol\":20610:20640  eq(msgSender, approvedAddress) */\n      swap2\n      eq\n        /* \"Azuki-ERC721A-ERC721ABurnableMock(copy)(copy)/ERC721A.sol\":20585:20641  or(eq(msgSender, owner), eq(msgSender, approvedAddress)) */\n      or\n      swap1\n        /* \"Azuki-ERC721A-ERC721ABurnableMock(copy)(copy)/ERC721A.sol\":20011:20657  function _isSenderApprovedOrOwner(... */\n      jump\n        /* \"Azuki-ERC721A-ERC721ABurnableMock(copy)(copy)/ERC721A.sol\":22508:22576  _isSenderApprovedOrOwner(approvedAddress, from, _msgSenderERC721A()) */\n    tag_161:\n        /* \"Azuki-ERC721A-ERC721ABurnableMock(copy)(copy)/ERC721A.sol\":22503:22691  if (!_isSenderApprovedOrOwner(approvedAddress, from, _msgSenderERC721A()))... */\n      tag_169\n      jumpi\n        /* \"Azuki-ERC721A-ERC721ABurnableMock(copy)(copy)/ERC721A.sol\":22595:22638  isApprovedForAll(from, _msgSenderERC721A()) */\n      tag_166\n        /* \"Azuki-ERC721A-ERC721ABurnableMock(copy)(copy)/ERC721A.sol\":22612:22616  from */\n      dup7\n        /* \"Azuki-ERC721A-ERC721ABurnableMock(copy)(copy)/ERC721A.sol\":42781:42791  msg.sender */\n      caller\n        /* \"Azuki-ERC721A-ERC721ABurnableMock(copy)(copy)/ERC721A.sol\":19136:19298  function isApprovedForAll(address owner, address operator) public view virtual override returns (bool) {... */\n      tag_122\n      jump\t// in\n        /* \"Azuki-ERC721A-ERC721ABurnableMock(copy)(copy)/ERC721A.sol\":22595:22638  isApprovedForAll(from, _msgSenderERC721A()) */\n    tag_166:\n        /* \"Azuki-ERC721A-ERC721ABurnableMock(copy)(copy)/ERC721A.sol\":22590:22691  if (!isApprovedForAll(from, _msgSenderERC721A())) _revert(TransferCallerNotOwnerNorApproved.selector) */\n      tag_169\n      jumpi\n        /* \"Azuki-ERC721A-ERC721ABurnableMock(copy)(copy)/ERC721A.sol\":22640:22691  _revert(TransferCallerNotOwnerNorApproved.selector) */\n      tag_169\n        /* \"Azuki-ERC721A-ERC721ABurnableMock(copy)(copy)/ERC721A.sol\":22648:22690  TransferCallerNotOwnerNorApproved.selector */\n      0x59c896be00000000000000000000000000000000000000000000000000000000\n        /* \"Azuki-ERC721A-ERC721ABurnableMock(copy)(copy)/ERC721A.sol\":22640:22647  _revert */\n      tag_147\n        /* \"Azuki-ERC721A-ERC721ABurnableMock(copy)(copy)/ERC721A.sol\":22640:22691  _revert(TransferCallerNotOwnerNorApproved.selector) */\n      jump\t// in\n    tag_169:\n        /* \"Azuki-ERC721A-ERC721ABurnableMock(copy)(copy)/ERC721A.sol\":22834:22849  approvedAddress */\n      dup1\n        /* \"Azuki-ERC721A-ERC721ABurnableMock(copy)(copy)/ERC721A.sol\":22831:22988  if approvedAddress {... */\n      iszero\n      tag_172\n      jumpi\n        /* \"Azuki-ERC721A-ERC721ABurnableMock(copy)(copy)/ERC721A.sol\":22972:22973  0 */\n      0x00\n        /* \"Azuki-ERC721A-ERC721ABurnableMock(copy)(copy)/ERC721A.sol\":22951:22970  approvedAddressSlot */\n      dup3\n        /* \"Azuki-ERC721A-ERC721ABurnableMock(copy)(copy)/ERC721A.sol\":22944:22974  sstore(approvedAddressSlot, 0) */\n      sstore\n        /* \"Azuki-ERC721A-ERC721ABurnableMock(copy)(copy)/ERC721A.sol\":22831:22988  if approvedAddress {... */\n    tag_172:\n        /* \"Azuki-ERC721A-ERC721ABurnableMock(copy)(copy)/ERC721A.sol\":23360:23384  _packedAddressData[from] */\n      0xffffffffffffffffffffffffffffffffffffffff\n      dup7\n      dup2\n      and\n      0x00\n      swap1\n      dup2\n      mstore\n        /* \"Azuki-ERC721A-ERC721ABurnableMock(copy)(copy)/ERC721A.sol\":23360:23378  _packedAddressData */\n      0x05\n        /* \"Azuki-ERC721A-ERC721ABurnableMock(copy)(copy)/ERC721A.sol\":23360:23384  _packedAddressData[from] */\n      0x20\n      mstore\n      0x40\n      dup1\n      dup3\n      keccak256\n        /* \"Azuki-ERC721A-ERC721ABurnableMock(copy)(copy)/ERC721A.sol\":23358:23384  --_packedAddressData[from] */\n      dup1\n      sload\n      0xffffffffffffffffffffffffffffffffffffffffffffffffffffffffffffffff\n      add\n      swap1\n      sstore\n        /* \"Azuki-ERC721A-ERC721ABurnableMock(copy)(copy)/ERC721A.sol\":23428:23450  _packedAddressData[to] */\n      swap2\n      dup8\n      and\n      dup1\n      dup3\n      mstore\n      swap2\n      swap1\n      keccak256\n        /* \"Azuki-ERC721A-ERC721ABurnableMock(copy)(copy)/ERC721A.sol\":23426:23450  ++_packedAddressData[to] */\n      dup1\n      sload\n      0x01\n      add\n      swap1\n      sstore\n        /* \"Azuki-ERC721A-ERC721ABurnableMock(copy)(copy)/ERC721A.sol\":17061:17072  timestamp() */\n      timestamp\n        /* \"Azuki-ERC721A-ERC721ABurnableMock(copy)(copy)/ERC721A.sol\":17036:17059  _BITPOS_START_TIMESTAMP */\n      0xa0\n        /* \"Azuki-ERC721A-ERC721ABurnableMock(copy)(copy)/ERC721A.sol\":17032:17073  shl(_BITPOS_START_TIMESTAMP, timestamp()) */\n      shl\n        /* \"Azuki-ERC721A-ERC721ABurnableMock(copy)(copy)/ERC721A.sol\":17019:17082  or(owner, or(shl(_BITPOS_START_TIMESTAMP, timestamp()), flags)) */\n      or\n        /* \"Azuki-ERC721A-ERC721ABurnableMock(copy)(copy)/ERC721A.sol\":3686:3694  1 << 225 */\n      0x0200000000000000000000000000000000000000000000000000000000\n        /* \"Azuki-ERC721A-ERC721ABurnableMock(copy)(copy)/ERC721A.sol\":17019:17082  or(owner, or(shl(_BITPOS_START_TIMESTAMP, timestamp()), flags)) */\n      or\n        /* \"Azuki-ERC721A-ERC721ABurnableMock(copy)(copy)/ERC721A.sol\":23714:23740  _packedOwnerships[tokenId] */\n      0x00\n      dup6\n      dup2\n      mstore\n        /* \"Azuki-ERC721A-ERC721ABurnableMock(copy)(copy)/ERC721A.sol\":23714:23731  _packedOwnerships */\n      0x04\n        /* \"Azuki-ERC721A-ERC721ABurnableMock(copy)(copy)/ERC721A.sol\":23714:23740  _packedOwnerships[tokenId] */\n      0x20\n      mstore\n      0x40\n      dup2\n      keccak256\n        /* \"Azuki-ERC721A-ERC721ABurnableMock(copy)(copy)/ERC721A.sol\":23714:23886  _packedOwnerships[tokenId] = _packOwnershipData(... */\n      swap2\n      swap1\n      swap2\n      sstore\n        /* \"Azuki-ERC721A-ERC721ABurnableMock(copy)(copy)/ERC721A.sol\":3686:3694  1 << 225 */\n      0x0200000000000000000000000000000000000000000000000000000000\n        /* \"Azuki-ERC721A-ERC721ABurnableMock(copy)(copy)/ERC721A.sol\":24003:24050  prevOwnershipPacked & _BITMASK_NEXT_INITIALIZED */\n      dup5\n      and\n        /* \"Azuki-ERC721A-ERC721ABurnableMock(copy)(copy)/ERC721A.sol\":24003:24055  prevOwnershipPacked & _BITMASK_NEXT_INITIALIZED == 0 */\n      swap1\n      sub\n        /* \"Azuki-ERC721A-ERC721ABurnableMock(copy)(copy)/ERC721A.sol\":23999:24616  if (prevOwnershipPacked & _BITMASK_NEXT_INITIALIZED == 0) {... */\n      tag_177\n      jumpi\n        /* \"Azuki-ERC721A-ERC721ABurnableMock(copy)(copy)/ERC721A.sol\":24107:24108  1 */\n      0x01\n        /* \"Azuki-ERC721A-ERC721ABurnableMock(copy)(copy)/ERC721A.sol\":24097:24108  tokenId + 1 */\n      dup5\n      add\n        /* \"Azuki-ERC721A-ERC721ABurnableMock(copy)(copy)/ERC721A.sol\":24075:24094  uint256 nextTokenId */\n      0x00\n        /* \"Azuki-ERC721A-ERC721ABurnableMock(copy)(copy)/ERC721A.sol\":24228:24258  _packedOwnerships[nextTokenId] */\n      dup2\n      dup2\n      mstore\n        /* \"Azuki-ERC721A-ERC721ABurnableMock(copy)(copy)/ERC721A.sol\":24228:24245  _packedOwnerships */\n      0x04\n        /* \"Azuki-ERC721A-ERC721ABurnableMock(copy)(copy)/ERC721A.sol\":24228:24258  _packedOwnerships[nextTokenId] */\n      0x20\n      mstore\n      0x40\n      dup2\n      keccak256\n      sload\n        /* \"Azuki-ERC721A-ERC721ABurnableMock(copy)(copy)/ERC721A.sol\":24228:24263  _packedOwnerships[nextTokenId] == 0 */\n      swap1\n      sub\n        /* \"Azuki-ERC721A-ERC721ABurnableMock(copy)(copy)/ERC721A.sol\":24224:24602  if (_packedOwnerships[nextTokenId] == 0) {... */\n      tag_179\n      jumpi\n        /* \"Azuki-ERC721A-ERC721ABurnableMock(copy)(copy)/ERC721A.sol\":24364:24377  _currentIndex */\n      sload(0x00)\n        /* \"Azuki-ERC721A-ERC721ABurnableMock(copy)(copy)/ERC721A.sol\":24349:24360  nextTokenId */\n      dup2\n        /* \"Azuki-ERC721A-ERC721ABurnableMock(copy)(copy)/ERC721A.sol\":24349:24377  nextTokenId != _currentIndex */\n      eq\n        /* \"Azuki-ERC721A-ERC721ABurnableMock(copy)(copy)/ERC721A.sol\":24345:24584  if (nextTokenId != _currentIndex) {... */\n      tag_179\n      jumpi\n        /* \"Azuki-ERC721A-ERC721ABurnableMock(copy)(copy)/ERC721A.sol\":24509:24539  _packedOwnerships[nextTokenId] */\n      0x00\n      dup2\n      dup2\n      mstore\n        /* \"Azuki-ERC721A-ERC721ABurnableMock(copy)(copy)/ERC721A.sol\":24509:24526  _packedOwnerships */\n      0x04\n        /* \"Azuki-ERC721A-ERC721ABurnableMock(copy)(copy)/ERC721A.sol\":24509:24539  _packedOwnerships[nextTokenId] */\n      0x20\n      mstore\n      0x40\n      swap1\n      keccak256\n        /* \"Azuki-ERC721A-ERC721ABurnableMock(copy)(copy)/ERC721A.sol\":24509:24561  _packedOwnerships[nextTokenId] = prevOwnershipPacked */\n      dup5\n      swap1\n      sstore\n        /* \"Azuki-ERC721A-ERC721ABurnableMock(copy)(copy)/ERC721A.sol\":24345:24584  if (nextTokenId != _currentIndex) {... */\n    tag_179:\n        /* \"Azuki-ERC721A-ERC721ABurnableMock(copy)(copy)/ERC721A.sol\":24057:24616  {... */\n      pop\n        /* \"Azuki-ERC721A-ERC721ABurnableMock(copy)(copy)/ERC721A.sol\":23999:24616  if (prevOwnershipPacked & _BITMASK_NEXT_INITIALIZED == 0) {... */\n    tag_177:\n        /* \"Azuki-ERC721A-ERC721ABurnableMock(copy)(copy)/ERC721A.sol\":4079:4093  (1 << 160) - 1 */\n      0xffffffffffffffffffffffffffffffffffffffff\n        /* \"Azuki-ERC721A-ERC721ABurnableMock(copy)(copy)/ERC721A.sol\":24744:24764  uint256(uint160(to)) */\n      dup6\n      and\n        /* \"Azuki-ERC721A-ERC721ABurnableMock(copy)(copy)/ERC721A.sol\":25115:25122  tokenId */\n      dup5\n        /* \"Azuki-ERC721A-ERC721ABurnableMock(copy)(copy)/ERC721A.sol\":24744:24764  uint256(uint160(to)) */\n      dup2\n        /* \"Azuki-ERC721A-ERC721ABurnableMock(copy)(copy)/ERC721A.sol\":25047:25051  from */\n      dup9\n        /* \"Azuki-ERC721A-ERC721ABurnableMock(copy)(copy)/ERC721A.sol\":24990:25015  _TRANSFER_EVENT_SIGNATURE */\n      0xddf252ad1be2c89b69c2b068fc378daa952ba7f163c4a11628f55a4df523b3ef\n        /* \"Azuki-ERC721A-ERC721ABurnableMock(copy)(copy)/ERC721A.sol\":24725:24741  uint256 toMasked */\n      0x00\n      dup1\n        /* \"Azuki-ERC721A-ERC721ABurnableMock(copy)(copy)/ERC721A.sol\":24858:25150  log4(... */\n      log4\n        /* \"Azuki-ERC721A-ERC721ABurnableMock(copy)(copy)/ERC721A.sol\":25173:25181  toMasked */\n      dup1\n        /* \"Azuki-ERC721A-ERC721ABurnableMock(copy)(copy)/ERC721A.sol\":25185:25186  0 */\n      0x00\n        /* \"Azuki-ERC721A-ERC721ABurnableMock(copy)(copy)/ERC721A.sol\":25173:25186  toMasked == 0 */\n      sub\n        /* \"Azuki-ERC721A-ERC721ABurnableMock(copy)(copy)/ERC721A.sol\":25169:25227  if (toMasked == 0) _revert(TransferToZeroAddress.selector) */\n      tag_181\n      jumpi\n        /* \"Azuki-ERC721A-ERC721ABurnableMock(copy)(copy)/ERC721A.sol\":25188:25227  _revert(TransferToZeroAddress.selector) */\n      tag_181\n        /* \"Azuki-ERC721A-ERC721ABurnableMock(copy)(copy)/ERC721A.sol\":25196:25226  TransferToZeroAddress.selector */\n      0xea553b3400000000000000000000000000000000000000000000000000000000\n        /* \"Azuki-ERC721A-ERC721ABurnableMock(copy)(copy)/ERC721A.sol\":25188:25195  _revert */\n      tag_147\n        /* \"Azuki-ERC721A-ERC721ABurnableMock(copy)(copy)/ERC721A.sol\":25188:25227  _revert(TransferToZeroAddress.selector) */\n      jump\t// in\n    tag_181:\n        /* \"Azuki-ERC721A-ERC721ABurnableMock(copy)(copy)/ERC721A.sol\":21967:25287  {... */\n      pop\n      pop\n      pop\n      pop\n        /* \"Azuki-ERC721A-ERC721ABurnableMock(copy)(copy)/ERC721A.sol\":21840:25287  function transferFrom(... */\n      pop\n      pop\n      pop\n      jump\t// out\n        /* \"Azuki-ERC721A-ERC721ABurnableMock(copy)(copy)//mocks/ERC721ABurnableMock.sol\":2133:2244  function numberBurned(address owner) public view returns (uint256) {... */\n    tag_66:\n        /* \"Azuki-ERC721A-ERC721ABurnableMock(copy)(copy)//mocks/ERC721ABurnableMock.sol\":2191:2198  uint256 */\n      0x00\n        /* \"Azuki-ERC721A-ERC721ABurnableMock(copy)(copy)//mocks/ERC721ABurnableMock.sol\":2217:2237  _numberBurned(owner) */\n      tag_134\n        /* \"Azuki-ERC721A-ERC721ABurnableMock(copy)(copy)//mocks/ERC721ABurnableMock.sol\":2231:2236  owner */\n      dup3\n        /* \"Azuki-ERC721A-ERC721ABurnableMock(copy)(copy)/ERC721A.sol\":9012:9037  _packedAddressData[owner] */\n      0xffffffffffffffffffffffffffffffffffffffff\n      and\n        /* \"Azuki-ERC721A-ERC721ABurnableMock(copy)(copy)/ERC721A.sol\":8985:8992  uint256 */\n      0x00\n        /* \"Azuki-ERC721A-ERC721ABurnableMock(copy)(copy)/ERC721A.sol\":9012:9037  _packedAddressData[owner] */\n      swap1\n      dup2\n      mstore\n        /* \"Azuki-ERC721A-ERC721ABurnableMock(copy)(copy)/ERC721A.sol\":9012:9030  _packedAddressData */\n      0x05\n        /* \"Azuki-ERC721A-ERC721ABurnableMock(copy)(copy)/ERC721A.sol\":9012:9037  _packedAddressData[owner] */\n      0x20\n      mstore\n      0x40\n      swap1\n      keccak256\n      sload\n        /* \"Azuki-ERC721A-ERC721ABurnableMock(copy)(copy)/ERC721A.sol\":2913:2916  128 */\n      0x80\n        /* \"Azuki-ERC721A-ERC721ABurnableMock(copy)(copy)/ERC721A.sol\":9012:9062  _packedAddressData[owner] >> _BITPOS_NUMBER_BURNED */\n      shr\n        /* \"Azuki-ERC721A-ERC721ABurnableMock(copy)(copy)/ERC721A.sol\":2654:2667  (1 << 64) - 1 */\n      0xffffffffffffffff\n        /* \"Azuki-ERC721A-ERC721ABurnableMock(copy)(copy)/ERC721A.sol\":9011:9093  (_packedAddressData[owner] >> _BITPOS_NUMBER_BURNED) & _BITMASK_ADDRESS_DATA_ENTRY */\n      and\n      swap1\n        /* \"Azuki-ERC721A-ERC721ABurnableMock(copy)(copy)/ERC721A.sol\":8924:9100  function _numberBurned(address owner) internal view returns (uint256) {... */\n      jump\n        /* \"Azuki-ERC721A-ERC721ABurnableMock(copy)(copy)/ERC721A.sol\":25378:25565  function safeTransferFrom(... */\n    tag_70:\n        /* \"Azuki-ERC721A-ERC721ABurnableMock(copy)(copy)/ERC721A.sol\":25519:25558  safeTransferFrom(from, to, tokenId, '') */\n      tag_188\n        /* \"Azuki-ERC721A-ERC721ABurnableMock(copy)(copy)/ERC721A.sol\":25536:25540  from */\n      dup4\n        /* \"Azuki-ERC721A-ERC721ABurnableMock(copy)(copy)/ERC721A.sol\":25542:25544  to */\n      dup4\n        /* \"Azuki-ERC721A-ERC721ABurnableMock(copy)(copy)/ERC721A.sol\":25546:25553  tokenId */\n      dup4\n        /* \"Azuki-ERC721A-ERC721ABurnableMock(copy)(copy)/ERC721A.sol\":25519:25558  safeTransferFrom(from, to, tokenId, '') */\n      mload(0x40)\n      dup1\n      0x20\n      add\n      0x40\n      mstore\n      dup1\n      0x00\n      dup2\n      mstore\n      pop\n        /* \"Azuki-ERC721A-ERC721ABurnableMock(copy)(copy)/ERC721A.sol\":25519:25535  safeTransferFrom */\n      tag_110\n        /* \"Azuki-ERC721A-ERC721ABurnableMock(copy)(copy)/ERC721A.sol\":25519:25558  safeTransferFrom(from, to, tokenId, '') */\n      jump\t// in\n    tag_188:\n        /* \"Azuki-ERC721A-ERC721ABurnableMock(copy)(copy)/ERC721A.sol\":25378:25565  function safeTransferFrom(... */\n      pop\n      pop\n      pop\n      jump\t// out\n        /* \"Azuki-ERC721A-ERC721ABurnableMock(copy)(copy)/extensions/ERC721ABurnable.sol\":1804:1896  function burn(uint256 tokenId) public virtual override {... */\n    tag_74:\n        /* \"Azuki-ERC721A-ERC721ABurnableMock(copy)(copy)/extensions/ERC721ABurnable.sol\":1869:1889  _burn(tokenId, true) */\n      tag_190\n        /* \"Azuki-ERC721A-ERC721ABurnableMock(copy)(copy)/extensions/ERC721ABurnable.sol\":1875:1882  tokenId */\n      dup2\n        /* \"Azuki-ERC721A-ERC721ABurnableMock(copy)(copy)/extensions/ERC721ABurnable.sol\":1884:1888  true */\n      0x01\n        /* \"Azuki-ERC721A-ERC721ABurnableMock(copy)(copy)/extensions/ERC721ABurnable.sol\":1869:1874  _burn */\n      tag_191\n        /* \"Azuki-ERC721A-ERC721ABurnableMock(copy)(copy)/extensions/ERC721ABurnable.sol\":1869:1889  _burn(tokenId, true) */\n      jump\t// in\n    tag_190:\n        /* \"Azuki-ERC721A-ERC721ABurnableMock(copy)(copy)/extensions/ERC721ABurnable.sol\":1804:1896  function burn(uint256 tokenId) public virtual override {... */\n      pop\n      jump\t// out\n        /* \"Azuki-ERC721A-ERC721ABurnableMock(copy)(copy)//mocks/ERC721ABurnableMock.sol\":1600:1700  function exists(uint256 tokenId) public view returns (bool) {... */\n    tag_78:\n        /* \"Azuki-ERC721A-ERC721ABurnableMock(copy)(copy)//mocks/ERC721ABurnableMock.sol\":1654:1658  bool */\n      0x00\n        /* \"Azuki-ERC721A-ERC721ABurnableMock(copy)(copy)//mocks/ERC721ABurnableMock.sol\":1677:1693  _exists(tokenId) */\n      tag_134\n        /* \"Azuki-ERC721A-ERC721ABurnableMock(copy)(copy)//mocks/ERC721ABurnableMock.sol\":1685:1692  tokenId */\n      dup3\n        /* \"Azuki-ERC721A-ERC721ABurnableMock(copy)(copy)//mocks/ERC721ABurnableMock.sol\":1677:1684  _exists */\n      tag_144\n        /* \"Azuki-ERC721A-ERC721ABurnableMock(copy)(copy)//mocks/ERC721ABurnableMock.sol\":1677:1693  _exists(tokenId) */\n      jump\t// in\n        /* \"Azuki-ERC721A-ERC721ABurnableMock(copy)(copy)/ERC721A.sol\":12703:12853  function ownerOf(uint256 tokenId) public view virtual override returns (address) {... */\n    tag_83:\n        /* \"Azuki-ERC721A-ERC721ABurnableMock(copy)(copy)/ERC721A.sol\":12775:12782  address */\n      0x00\n        /* \"Azuki-ERC721A-ERC721ABurnableMock(copy)(copy)/ERC721A.sol\":12817:12844  _packedOwnershipOf(tokenId) */\n      tag_134\n        /* \"Azuki-ERC721A-ERC721ABurnableMock(copy)(copy)/ERC721A.sol\":12836:12843  tokenId */\n      dup3\n        /* \"Azuki-ERC721A-ERC721ABurnableMock(copy)(copy)/ERC721A.sol\":12817:12835  _packedOwnershipOf */\n      tag_156\n        /* \"Azuki-ERC721A-ERC721ABurnableMock(copy)(copy)/ERC721A.sol\":12817:12844  _packedOwnershipOf(tokenId) */\n      jump\t// in\n        /* \"Azuki-ERC721A-ERC721ABurnableMock(copy)(copy)/ERC721A.sol\":8339:8578  function balanceOf(address owner) public view virtual override returns (uint256) {... */\n    tag_88:\n        /* \"Azuki-ERC721A-ERC721ABurnableMock(copy)(copy)/ERC721A.sol\":8411:8418  uint256 */\n      0x00\n        /* \"Azuki-ERC721A-ERC721ABurnableMock(copy)(copy)/ERC721A.sol\":8434:8453  owner == address(0) */\n      0xffffffffffffffffffffffffffffffffffffffff\n      dup3\n      and\n        /* \"Azuki-ERC721A-ERC721ABurnableMock(copy)(copy)/ERC721A.sol\":8430:8499  if (owner == address(0)) _revert(BalanceQueryForZeroAddress.selector) */\n      tag_198\n      jumpi\n        /* \"Azuki-ERC721A-ERC721ABurnableMock(copy)(copy)/ERC721A.sol\":8455:8499  _revert(BalanceQueryForZeroAddress.selector) */\n      tag_198\n        /* \"Azuki-ERC721A-ERC721ABurnableMock(copy)(copy)/ERC721A.sol\":8463:8498  BalanceQueryForZeroAddress.selector */\n      0x8f4eb60400000000000000000000000000000000000000000000000000000000\n        /* \"Azuki-ERC721A-ERC721ABurnableMock(copy)(copy)/ERC721A.sol\":8455:8462  _revert */\n      tag_147\n        /* \"Azuki-ERC721A-ERC721ABurnableMock(copy)(copy)/ERC721A.sol\":8455:8499  _revert(BalanceQueryForZeroAddress.selector) */\n      jump\t// in\n    tag_198:\n      pop\n        /* \"Azuki-ERC721A-ERC721ABurnableMock(copy)(copy)/ERC721A.sol\":8516:8541  _packedAddressData[owner] */\n      0xffffffffffffffffffffffffffffffffffffffff\n      and\n      0x00\n      swap1\n      dup2\n      mstore\n        /* \"Azuki-ERC721A-ERC721ABurnableMock(copy)(copy)/ERC721A.sol\":8516:8534  _packedAddressData */\n      0x05\n        /* \"Azuki-ERC721A-ERC721ABurnableMock(copy)(copy)/ERC721A.sol\":8516:8541  _packedAddressData[owner] */\n      0x20\n      mstore\n      0x40\n      swap1\n      keccak256\n      sload\n        /* \"Azuki-ERC721A-ERC721ABurnableMock(copy)(copy)/ERC721A.sol\":2654:2667  (1 << 64) - 1 */\n      0xffffffffffffffff\n        /* \"Azuki-ERC721A-ERC721ABurnableMock(copy)(copy)/ERC721A.sol\":8516:8571  _packedAddressData[owner] & _BITMASK_ADDRESS_DATA_ENTRY */\n      and\n      swap1\n        /* \"Azuki-ERC721A-ERC721ABurnableMock(copy)(copy)/ERC721A.sol\":8339:8578  function balanceOf(address owner) public view virtual override returns (uint256) {... */\n      jump\t// out\n        /* \"Azuki-ERC721A-ERC721ABurnableMock(copy)(copy)/ERC721A.sol\":11511:11613  function symbol() public view virtual override returns (string memory) {... */\n    tag_92:\n        /* \"Azuki-ERC721A-ERC721ABurnableMock(copy)(copy)/ERC721A.sol\":11567:11580  string memory */\n      0x60\n        /* \"Azuki-ERC721A-ERC721ABurnableMock(copy)(copy)/ERC721A.sol\":11599:11606  _symbol */\n      0x03\n        /* \"Azuki-ERC721A-ERC721ABurnableMock(copy)(copy)/ERC721A.sol\":11592:11606  return _symbol */\n      dup1\n      sload\n      tag_136\n      swap1\n      tag_137\n      jump\t// in\n        /* \"Azuki-ERC721A-ERC721ABurnableMock(copy)(copy)//mocks/ERC721ABurnableMock.sol\":1706:1801  function safeMint(address to, uint256 quantity) public {... */\n    tag_97:\n        /* \"Azuki-ERC721A-ERC721ABurnableMock(copy)(copy)//mocks/ERC721ABurnableMock.sol\":1771:1794  _safeMint(to, quantity) */\n      tag_149\n        /* \"Azuki-ERC721A-ERC721ABurnableMock(copy)(copy)//mocks/ERC721ABurnableMock.sol\":1781:1783  to */\n      dup3\n        /* \"Azuki-ERC721A-ERC721ABurnableMock(copy)(copy)//mocks/ERC721ABurnableMock.sol\":1785:1793  quantity */\n      dup3\n        /* \"Azuki-ERC721A-ERC721ABurnableMock(copy)(copy)//mocks/ERC721ABurnableMock.sol\":1771:1780  _safeMint */\n      tag_207\n        /* \"Azuki-ERC721A-ERC721ABurnableMock(copy)(copy)//mocks/ERC721ABurnableMock.sol\":1771:1794  _safeMint(to, quantity) */\n      jump\t// in\n        /* \"Azuki-ERC721A-ERC721ABurnableMock(copy)(copy)/ERC721A.sol\":18755:18986  function setApprovalForAll(address operator, bool approved) public virtual override {... */\n    tag_102:\n        /* \"Azuki-ERC721A-ERC721ABurnableMock(copy)(copy)/ERC721A.sol\":42781:42791  msg.sender */\n      caller\n        /* \"Azuki-ERC721A-ERC721ABurnableMock(copy)(copy)/ERC721A.sol\":18849:18888  _operatorApprovals[_msgSenderERC721A()] */\n      0x00\n      dup2\n      dup2\n      mstore\n        /* \"Azuki-ERC721A-ERC721ABurnableMock(copy)(copy)/ERC721A.sol\":18849:18867  _operatorApprovals */\n      0x07\n        /* \"Azuki-ERC721A-ERC721ABurnableMock(copy)(copy)/ERC721A.sol\":18849:18888  _operatorApprovals[_msgSenderERC721A()] */\n      0x20\n      swap1\n      dup2\n      mstore\n      0x40\n      dup1\n      dup4\n      keccak256\n      0xffffffffffffffffffffffffffffffffffffffff\n        /* \"Azuki-ERC721A-ERC721ABurnableMock(copy)(copy)/ERC721A.sol\":18849:18898  _operatorApprovals[_msgSenderERC721A()][operator] */\n      dup8\n      and\n      dup1\n      dup6\n      mstore\n      swap1\n      dup4\n      mstore\n      swap3\n      dup2\n      swap1\n      keccak256\n        /* \"Azuki-ERC721A-ERC721ABurnableMock(copy)(copy)/ERC721A.sol\":18849:18909  _operatorApprovals[_msgSenderERC721A()][operator] = approved */\n      dup1\n      sload\n      0xffffffffffffffffffffffffffffffffffffffffffffffffffffffffffffff00\n      and\n      dup7\n      iszero\n      iszero\n      swap1\n      dup2\n      or\n      swap1\n      swap2\n      sstore\n        /* \"Azuki-ERC721A-ERC721ABurnableMock(copy)(copy)/ERC721A.sol\":18924:18979  ApprovalForAll(_msgSenderERC721A(), operator, approved) */\n      swap1\n      mload\n        /* \"#utility.yul\":586:627   */\n      swap1\n      dup2\n      mstore\n        /* \"Azuki-ERC721A-ERC721ABurnableMock(copy)(copy)/ERC721A.sol\":18849:18898  _operatorApprovals[_msgSenderERC721A()][operator] */\n      swap2\n      swap3\n        /* \"Azuki-ERC721A-ERC721ABurnableMock(copy)(copy)/ERC721A.sol\":42781:42791  msg.sender */\n      swap2\n        /* \"Azuki-ERC721A-ERC721ABurnableMock(copy)(copy)/ERC721A.sol\":18924:18979  ApprovalForAll(_msgSenderERC721A(), operator, approved) */\n      0x17307eab39ab6107e8899845ad3d59bd9653f200f220920489ca2b5937696c31\n      swap2\n        /* \"#utility.yul\":559:577   */\n      add\n        /* \"Azuki-ERC721A-ERC721ABurnableMock(copy)(copy)/ERC721A.sol\":18924:18979  ApprovalForAll(_msgSenderERC721A(), operator, approved) */\n      mload(0x40)\n      dup1\n      swap2\n      sub\n      swap1\n      log3\n        /* \"Azuki-ERC721A-ERC721ABurnableMock(copy)(copy)/ERC721A.sol\":18755:18986  function setApprovalForAll(address operator, bool approved) public virtual override {... */\n      pop\n      pop\n      jump\t// out\n        /* \"Azuki-ERC721A-ERC721ABurnableMock(copy)(copy)//mocks/ERC721ABurnableMock.sol\":2009:2023  _totalMinted() */\n    tag_213:\n        /* \"Azuki-ERC721A-ERC721ABurnableMock(copy)(copy)//mocks/ERC721ABurnableMock.sol\":2002:2023  return _totalMinted() */\n      swap1\n      pop\n        /* \"Azuki-ERC721A-ERC721ABurnableMock(copy)(copy)//mocks/ERC721ABurnableMock.sol\":1939:2030  function totalMinted() public view returns (uint256) {... */\n      swap1\n      jump\t// out\n        /* \"Azuki-ERC721A-ERC721ABurnableMock(copy)(copy)/ERC721A.sol\":26146:26551  function safeTransferFrom(... */\n    tag_110:\n        /* \"Azuki-ERC721A-ERC721ABurnableMock(copy)(copy)/ERC721A.sol\":26315:26346  transferFrom(from, to, tokenId) */\n      tag_216\n        /* \"Azuki-ERC721A-ERC721ABurnableMock(copy)(copy)/ERC721A.sol\":26328:26332  from */\n      dup5\n        /* \"Azuki-ERC721A-ERC721ABurnableMock(copy)(copy)/ERC721A.sol\":26334:26336  to */\n      dup5\n        /* \"Azuki-ERC721A-ERC721ABurnableMock(copy)(copy)/ERC721A.sol\":26338:26345  tokenId */\n      dup5\n        /* \"Azuki-ERC721A-ERC721ABurnableMock(copy)(copy)/ERC721A.sol\":26315:26327  transferFrom */\n      tag_61\n        /* \"Azuki-ERC721A-ERC721ABurnableMock(copy)(copy)/ERC721A.sol\":26315:26346  transferFrom(from, to, tokenId) */\n      jump\t// in\n    tag_216:\n        /* \"Azuki-ERC721A-ERC721ABurnableMock(copy)(copy)/ERC721A.sol\":26360:26374  to.code.length */\n      0xffffffffffffffffffffffffffffffffffffffff\n      dup4\n      and\n      extcodesize\n        /* \"Azuki-ERC721A-ERC721ABurnableMock(copy)(copy)/ERC721A.sol\":26360:26379  to.code.length != 0 */\n      iszero\n        /* \"Azuki-ERC721A-ERC721ABurnableMock(copy)(copy)/ERC721A.sol\":26356:26545  if (to.code.length != 0)... */\n      tag_221\n      jumpi\n        /* \"Azuki-ERC721A-ERC721ABurnableMock(copy)(copy)/ERC721A.sol\":26398:26454  _checkContractOnERC721Received(from, to, tokenId, _data) */\n      tag_218\n        /* \"Azuki-ERC721A-ERC721ABurnableMock(copy)(copy)/ERC721A.sol\":26429:26433  from */\n      dup5\n        /* \"Azuki-ERC721A-ERC721ABurnableMock(copy)(copy)/ERC721A.sol\":26435:26437  to */\n      dup5\n        /* \"Azuki-ERC721A-ERC721ABurnableMock(copy)(copy)/ERC721A.sol\":26439:26446  tokenId */\n      dup5\n        /* \"Azuki-ERC721A-ERC721ABurnableMock(copy)(copy)/ERC721A.sol\":26448:26453  _data */\n      dup5\n        /* \"Azuki-ERC721A-ERC721ABurnableMock(copy)(copy)/ERC721A.sol\":26398:26428  _checkContractOnERC721Received */\n      tag_219\n        /* \"Azuki-ERC721A-ERC721ABurnableMock(copy)(copy)/ERC721A.sol\":26398:26454  _checkContractOnERC721Received(from, to, tokenId, _data) */\n      jump\t// in\n    tag_218:\n        /* \"Azuki-ERC721A-ERC721ABurnableMock(copy)(copy)/ERC721A.sol\":26393:26545  if (!_checkContractOnERC721Received(from, to, tokenId, _data)) {... */\n      tag_221\n      jumpi\n        /* \"Azuki-ERC721A-ERC721ABurnableMock(copy)(copy)/ERC721A.sol\":26474:26530  _revert(TransferToNonERC721ReceiverImplementer.selector) */\n      tag_221\n        /* \"Azuki-ERC721A-ERC721ABurnableMock(copy)(copy)/ERC721A.sol\":26482:26529  TransferToNonERC721ReceiverImplementer.selector */\n      0xd1a57ed600000000000000000000000000000000000000000000000000000000\n        /* \"Azuki-ERC721A-ERC721ABurnableMock(copy)(copy)/ERC721A.sol\":26474:26481  _revert */\n      tag_147\n        /* \"Azuki-ERC721A-ERC721ABurnableMock(copy)(copy)/ERC721A.sol\":26474:26530  _revert(TransferToNonERC721ReceiverImplementer.selector) */\n      jump\t// in\n    tag_221:\n        /* \"Azuki-ERC721A-ERC721ABurnableMock(copy)(copy)/ERC721A.sol\":26146:26551  function safeTransferFrom(... */\n      pop\n      pop\n      pop\n      pop\n      jump\t// out\n        /* \"Azuki-ERC721A-ERC721ABurnableMock(copy)(copy)/ERC721A.sol\":11714:12036  function tokenURI(uint256 tokenId) public view virtual override returns (string memory) {... */\n    tag_114:\n        /* \"Azuki-ERC721A-ERC721ABurnableMock(copy)(copy)/ERC721A.sol\":11787:11800  string memory */\n      0x60\n        /* \"Azuki-ERC721A-ERC721ABurnableMock(copy)(copy)/ERC721A.sol\":11817:11833  _exists(tokenId) */\n      tag_223\n        /* \"Azuki-ERC721A-ERC721ABurnableMock(copy)(copy)/ERC721A.sol\":11825:11832  tokenId */\n      dup3\n        /* \"Azuki-ERC721A-ERC721ABurnableMock(copy)(copy)/ERC721A.sol\":11817:11824  _exists */\n      tag_144\n        /* \"Azuki-ERC721A-ERC721ABurnableMock(copy)(copy)/ERC721A.sol\":11817:11833  _exists(tokenId) */\n      jump\t// in\n    tag_223:\n        /* \"Azuki-ERC721A-ERC721ABurnableMock(copy)(copy)/ERC721A.sol\":11812:11880  if (!_exists(tokenId)) _revert(URIQueryForNonexistentToken.selector) */\n      tag_225\n      jumpi\n        /* \"Azuki-ERC721A-ERC721ABurnableMock(copy)(copy)/ERC721A.sol\":11835:11880  _revert(URIQueryForNonexistentToken.selector) */\n      tag_225\n        /* \"Azuki-ERC721A-ERC721ABurnableMock(copy)(copy)/ERC721A.sol\":11843:11879  URIQueryForNonexistentToken.selector */\n      0xa14c4b5000000000000000000000000000000000000000000000000000000000\n        /* \"Azuki-ERC721A-ERC721ABurnableMock(copy)(copy)/ERC721A.sol\":11835:11842  _revert */\n      tag_147\n        /* \"Azuki-ERC721A-ERC721ABurnableMock(copy)(copy)/ERC721A.sol\":11835:11880  _revert(URIQueryForNonexistentToken.selector) */\n      jump\t// in\n    tag_225:\n        /* \"Azuki-ERC721A-ERC721ABurnableMock(copy)(copy)/ERC721A.sol\":11891:11912  string memory baseURI */\n      0x00\n        /* \"Azuki-ERC721A-ERC721ABurnableMock(copy)(copy)/ERC721A.sol\":11915:11925  _baseURI() */\n      tag_226\n        /* \"Azuki-ERC721A-ERC721ABurnableMock(copy)(copy)/ERC721A.sol\":12357:12366  return '' */\n      0x40\n      dup1\n      mload\n      0x20\n      dup2\n      add\n      swap1\n      swap2\n      mstore\n      0x00\n      dup2\n      mstore\n      swap1\n        /* \"Azuki-ERC721A-ERC721ABurnableMock(copy)(copy)/ERC721A.sol\":12281:12373  function _baseURI() internal view virtual returns (string memory) {... */\n      jump\n        /* \"Azuki-ERC721A-ERC721ABurnableMock(copy)(copy)/ERC721A.sol\":11915:11925  _baseURI() */\n    tag_226:\n        /* \"Azuki-ERC721A-ERC721ABurnableMock(copy)(copy)/ERC721A.sol\":11891:11925  string memory baseURI = _baseURI() */\n      swap1\n      pop\n        /* \"Azuki-ERC721A-ERC721ABurnableMock(copy)(copy)/ERC721A.sol\":11948:11955  baseURI */\n      dup1\n        /* \"Azuki-ERC721A-ERC721ABurnableMock(copy)(copy)/ERC721A.sol\":11942:11963  bytes(baseURI).length */\n      mload\n        /* \"Azuki-ERC721A-ERC721ABurnableMock(copy)(copy)/ERC721A.sol\":11967:11968  0 */\n      0x00\n        /* \"Azuki-ERC721A-ERC721ABurnableMock(copy)(copy)/ERC721A.sol\":11942:11968  bytes(baseURI).length != 0 */\n      sub\n        /* \"Azuki-ERC721A-ERC721ABurnableMock(copy)(copy)/ERC721A.sol\":11942:12029  bytes(baseURI).length != 0 ? string(abi.encodePacked(baseURI, _toString(tokenId))) : '' */\n      tag_228\n      jumpi\n      mload(0x40)\n      dup1\n      0x20\n      add\n      0x40\n      mstore\n      dup1\n      0x00\n      dup2\n      mstore\n      pop\n      jump(tag_229)\n    tag_228:\n        /* \"Azuki-ERC721A-ERC721ABurnableMock(copy)(copy)/ERC721A.sol\":11995:12002  baseURI */\n      dup1\n        /* \"Azuki-ERC721A-ERC721ABurnableMock(copy)(copy)/ERC721A.sol\":12004:12022  _toString(tokenId) */\n      tag_230\n        /* \"Azuki-ERC721A-ERC721ABurnableMock(copy)(copy)/ERC721A.sol\":12014:12021  tokenId */\n      dup5\n        /* \"Azuki-ERC721A-ERC721ABurnableMock(copy)(copy)/ERC721A.sol\":12004:12013  _toString */\n      tag_231\n        /* \"Azuki-ERC721A-ERC721ABurnableMock(copy)(copy)/ERC721A.sol\":12004:12022  _toString(tokenId) */\n      jump\t// in\n    tag_230:\n        /* \"Azuki-ERC721A-ERC721ABurnableMock(copy)(copy)/ERC721A.sol\":11978:12023  abi.encodePacked(baseURI, _toString(tokenId)) */\n      add(0x20, mload(0x40))\n      tag_232\n      swap3\n      swap2\n      swap1\n      tag_233\n      jump\t// in\n    tag_232:\n      mload(0x40)\n      0x20\n      dup2\n      dup4\n      sub\n      sub\n      dup2\n      mstore\n      swap1\n      0x40\n      mstore\n        /* \"Azuki-ERC721A-ERC721ABurnableMock(copy)(copy)/ERC721A.sol\":11942:12029  bytes(baseURI).length != 0 ? string(abi.encodePacked(baseURI, _toString(tokenId))) : '' */\n    tag_229:\n        /* \"Azuki-ERC721A-ERC721ABurnableMock(copy)(copy)/ERC721A.sol\":11935:12029  return bytes(baseURI).length != 0 ? string(abi.encodePacked(baseURI, _toString(tokenId))) : '' */\n      swap4\n        /* \"Azuki-ERC721A-ERC721ABurnableMock(copy)(copy)/ERC721A.sol\":11714:12036  function tokenURI(uint256 tokenId) public view virtual override returns (string memory) {... */\n      swap3\n      pop\n      pop\n      pop\n      jump\t// out\n        /* \"Azuki-ERC721A-ERC721ABurnableMock(copy)(copy)//mocks/ERC721ABurnableMock.sol\":2036:2127  function totalBurned() public view returns (uint256) {... */\n    tag_118:\n        /* \"Azuki-ERC721A-ERC721ABurnableMock(copy)(copy)//mocks/ERC721ABurnableMock.sol\":2080:2087  uint256 */\n      0x00\n        /* \"Azuki-ERC721A-ERC721ABurnableMock(copy)(copy)//mocks/ERC721ABurnableMock.sol\":2106:2120  _totalBurned() */\n      tag_213\n        /* \"Azuki-ERC721A-ERC721ABurnableMock(copy)(copy)/ERC721A.sol\":8046:8058  _burnCounter */\n      sload(0x01)\n      swap1\n        /* \"Azuki-ERC721A-ERC721ABurnableMock(copy)(copy)/ERC721A.sol\":7965:8065  function _totalBurned() internal view virtual returns (uint256) {... */\n      jump\n        /* \"Azuki-ERC721A-ERC721ABurnableMock(copy)(copy)//mocks/ERC721ABurnableMock.sol\":1807:1933  function getOwnershipAt(uint256 index) public view returns (TokenOwnership memory) {... */\n    tag_129:\n      0x40\n      dup1\n      mload\n      0x80\n      dup2\n      add\n      dup3\n      mstore\n      0x00\n      dup1\n      dup3\n      mstore\n      0x20\n      dup3\n      add\n      dup2\n      swap1\n      mstore\n      swap2\n      dup2\n      add\n      dup3\n      swap1\n      mstore\n      0x60\n      dup2\n      add\n      swap2\n      swap1\n      swap2\n      mstore\n        /* \"Azuki-ERC721A-ERC721ABurnableMock(copy)(copy)//mocks/ERC721ABurnableMock.sol\":1907:1926  _ownershipAt(index) */\n      tag_134\n        /* \"Azuki-ERC721A-ERC721ABurnableMock(copy)(copy)//mocks/ERC721ABurnableMock.sol\":1920:1925  index */\n      dup3\n        /* \"Azuki-ERC721A-ERC721ABurnableMock(copy)(copy)//mocks/ERC721ABurnableMock.sol\":1907:1919  _ownershipAt */\n      tag_242\n        /* \"Azuki-ERC721A-ERC721ABurnableMock(copy)(copy)//mocks/ERC721ABurnableMock.sol\":1907:1926  _ownershipAt(index) */\n      jump\t// in\n        /* \"Azuki-ERC721A-ERC721ABurnableMock(copy)(copy)/ERC721A.sol\":19547:19907  function _exists(uint256 tokenId) internal view virtual returns (bool result) {... */\n    tag_144:\n        /* \"Azuki-ERC721A-ERC721ABurnableMock(copy)(copy)/ERC721A.sol\":19612:19623  bool result */\n      0x00\n        /* \"Azuki-ERC721A-ERC721ABurnableMock(copy)(copy)/ERC721A.sol\":19695:19708  _currentIndex */\n      dup1\n      sload\n        /* \"Azuki-ERC721A-ERC721ABurnableMock(copy)(copy)/ERC721A.sol\":19685:19692  tokenId */\n      dup3\n        /* \"Azuki-ERC721A-ERC721ABurnableMock(copy)(copy)/ERC721A.sol\":19685:19708  tokenId < _currentIndex */\n      lt\n        /* \"Azuki-ERC721A-ERC721ABurnableMock(copy)(copy)/ERC721A.sol\":19681:19891  if (tokenId < _currentIndex) {... */\n      iszero\n      tag_246\n      jumpi\n        /* \"Azuki-ERC721A-ERC721ABurnableMock(copy)(copy)/ERC721A.sol\":19728:19742  uint256 packed */\n      0x00\n        /* \"Azuki-ERC721A-ERC721ABurnableMock(copy)(copy)/ERC721A.sol\":19760:19820  while ((packed = _packedOwnerships[tokenId]) == 0) --tokenId */\n    tag_247:\n      pop\n        /* \"Azuki-ERC721A-ERC721ABurnableMock(copy)(copy)/ERC721A.sol\":19777:19803  _packedOwnerships[tokenId] */\n      0x00\n      dup3\n      dup2\n      mstore\n        /* \"Azuki-ERC721A-ERC721ABurnableMock(copy)(copy)/ERC721A.sol\":19777:19794  _packedOwnerships */\n      0x04\n        /* \"Azuki-ERC721A-ERC721ABurnableMock(copy)(copy)/ERC721A.sol\":19777:19803  _packedOwnerships[tokenId] */\n      0x20\n      mstore\n      0x40\n      dup2\n      keccak256\n      sload\n      swap1\n        /* \"Azuki-ERC721A-ERC721ABurnableMock(copy)(copy)/ERC721A.sol\":19767:19809  (packed = _packedOwnerships[tokenId]) == 0 */\n      dup2\n      swap1\n      sub\n        /* \"Azuki-ERC721A-ERC721ABurnableMock(copy)(copy)/ERC721A.sol\":19760:19820  while ((packed = _packedOwnerships[tokenId]) == 0) --tokenId */\n      tag_248\n      jumpi\n        /* \"Azuki-ERC721A-ERC721ABurnableMock(copy)(copy)/ERC721A.sol\":19811:19820  --tokenId */\n      tag_249\n      dup4\n      tag_250\n      jump\t// in\n    tag_249:\n      swap3\n      pop\n        /* \"Azuki-ERC721A-ERC721ABurnableMock(copy)(copy)/ERC721A.sol\":19760:19820  while ((packed = _packedOwnerships[tokenId]) == 0) --tokenId */\n      jump(tag_247)\n    tag_248:\n        /* \"Azuki-ERC721A-ERC721ABurnableMock(copy)(copy)/ERC721A.sol\":3412:3420  1 << 224 */\n      0x0100000000000000000000000000000000000000000000000000000000\n        /* \"Azuki-ERC721A-ERC721ABurnableMock(copy)(copy)/ERC721A.sol\":19847:19871  packed & _BITMASK_BURNED */\n      and\n        /* \"Azuki-ERC721A-ERC721ABurnableMock(copy)(copy)/ERC721A.sol\":19847:19876  packed & _BITMASK_BURNED == 0 */\n      iszero\n      swap1\n      pop\n        /* \"Azuki-ERC721A-ERC721ABurnableMock(copy)(copy)/ERC721A.sol\":19681:19891  if (tokenId < _currentIndex) {... */\n    tag_246:\n        /* \"Azuki-ERC721A-ERC721ABurnableMock(copy)(copy)/ERC721A.sol\":19547:19907  function _exists(uint256 tokenId) internal view virtual returns (bool result) {... */\n      swap2\n      swap1\n      pop\n      jump\t// out\n        /* \"Azuki-ERC721A-ERC721ABurnableMock(copy)(copy)/ERC721A.sol\":44665:44825  function _revert(bytes4 errorSelector) internal pure {... */\n    tag_147:\n        /* \"Azuki-ERC721A-ERC721ABurnableMock(copy)(copy)/ERC721A.sol\":44764:44777  errorSelector */\n      dup1\n        /* \"Azuki-ERC721A-ERC721ABurnableMock(copy)(copy)/ERC721A.sol\":44758:44762  0x00 */\n      0x00\n        /* \"Azuki-ERC721A-ERC721ABurnableMock(copy)(copy)/ERC721A.sol\":44751:44778  mstore(0x00, errorSelector) */\n      mstore\n        /* \"Azuki-ERC721A-ERC721ABurnableMock(copy)(copy)/ERC721A.sol\":44804:44808  0x04 */\n      0x04\n        /* \"Azuki-ERC721A-ERC721ABurnableMock(copy)(copy)/ERC721A.sol\":44798:44802  0x00 */\n      0x00\n        /* \"Azuki-ERC721A-ERC721ABurnableMock(copy)(copy)/ERC721A.sol\":44791:44809  revert(0x00, 0x04) */\n      revert\n        /* \"Azuki-ERC721A-ERC721ABurnableMock(copy)(copy)/ERC721A.sol\":36313:36773  function _approve(... */\n    tag_150:\n        /* \"Azuki-ERC721A-ERC721ABurnableMock(copy)(copy)/ERC721A.sol\":36437:36450  address owner */\n      0x00\n        /* \"Azuki-ERC721A-ERC721ABurnableMock(copy)(copy)/ERC721A.sol\":36453:36469  ownerOf(tokenId) */\n      tag_253\n        /* \"Azuki-ERC721A-ERC721ABurnableMock(copy)(copy)/ERC721A.sol\":36461:36468  tokenId */\n      dup4\n        /* \"Azuki-ERC721A-ERC721ABurnableMock(copy)(copy)/ERC721A.sol\":36453:36460  ownerOf */\n      tag_83\n        /* \"Azuki-ERC721A-ERC721ABurnableMock(copy)(copy)/ERC721A.sol\":36453:36469  ownerOf(tokenId) */\n      jump\t// in\n    tag_253:\n        /* \"Azuki-ERC721A-ERC721ABurnableMock(copy)(copy)/ERC721A.sol\":36437:36469  address owner = ownerOf(tokenId) */\n      swap1\n      pop\n        /* \"Azuki-ERC721A-ERC721ABurnableMock(copy)(copy)/ERC721A.sol\":36484:36497  approvalCheck */\n      dup2\n        /* \"Azuki-ERC721A-ERC721ABurnableMock(copy)(copy)/ERC721A.sol\":36484:36529  approvalCheck && _msgSenderERC721A() != owner */\n      dup1\n      iszero\n      tag_254\n      jumpi\n      pop\n        /* \"Azuki-ERC721A-ERC721ABurnableMock(copy)(copy)/ERC721A.sol\":42781:42791  msg.sender */\n      caller\n        /* \"Azuki-ERC721A-ERC721ABurnableMock(copy)(copy)/ERC721A.sol\":36501:36529  _msgSenderERC721A() != owner */\n      0xffffffffffffffffffffffffffffffffffffffff\n      dup3\n      and\n      eq\n      iszero\n        /* \"Azuki-ERC721A-ERC721ABurnableMock(copy)(copy)/ERC721A.sol\":36484:36529  approvalCheck && _msgSenderERC721A() != owner */\n    tag_254:\n        /* \"Azuki-ERC721A-ERC721ABurnableMock(copy)(copy)/ERC721A.sol\":36480:36678  if (approvalCheck && _msgSenderERC721A() != owner)... */\n      iszero\n      tag_260\n      jumpi\n        /* \"Azuki-ERC721A-ERC721ABurnableMock(copy)(copy)/ERC721A.sol\":36548:36592  isApprovedForAll(owner, _msgSenderERC721A()) */\n      tag_257\n        /* \"Azuki-ERC721A-ERC721ABurnableMock(copy)(copy)/ERC721A.sol\":36565:36570  owner */\n      dup2\n        /* \"Azuki-ERC721A-ERC721ABurnableMock(copy)(copy)/ERC721A.sol\":42781:42791  msg.sender */\n      caller\n        /* \"Azuki-ERC721A-ERC721ABurnableMock(copy)(copy)/ERC721A.sol\":19136:19298  function isApprovedForAll(address owner, address operator) public view virtual override returns (bool) {... */\n      tag_122\n      jump\t// in\n        /* \"Azuki-ERC721A-ERC721ABurnableMock(copy)(copy)/ERC721A.sol\":36548:36592  isApprovedForAll(owner, _msgSenderERC721A()) */\n    tag_257:\n        /* \"Azuki-ERC721A-ERC721ABurnableMock(copy)(copy)/ERC721A.sol\":36543:36678  if (!isApprovedForAll(owner, _msgSenderERC721A())) {... */\n      tag_260\n      jumpi\n        /* \"Azuki-ERC721A-ERC721ABurnableMock(copy)(copy)/ERC721A.sol\":36612:36663  _revert(ApprovalCallerNotOwnerNorApproved.selector) */\n      tag_260\n        /* \"Azuki-ERC721A-ERC721ABurnableMock(copy)(copy)/ERC721A.sol\":36620:36662  ApprovalCallerNotOwnerNorApproved.selector */\n      0xcfb3b94200000000000000000000000000000000000000000000000000000000\n        /* \"Azuki-ERC721A-ERC721ABurnableMock(copy)(copy)/ERC721A.sol\":36612:36619  _revert */\n      tag_147\n        /* \"Azuki-ERC721A-ERC721ABurnableMock(copy)(copy)/ERC721A.sol\":36612:36663  _revert(ApprovalCallerNotOwnerNorApproved.selector) */\n      jump\t// in\n    tag_260:\n        /* \"Azuki-ERC721A-ERC721ABurnableMock(copy)(copy)/ERC721A.sol\":36688:36712  _tokenApprovals[tokenId] */\n      0x00\n      dup4\n      dup2\n      mstore\n        /* \"Azuki-ERC721A-ERC721ABurnableMock(copy)(copy)/ERC721A.sol\":36688:36703  _tokenApprovals */\n      0x06\n        /* \"Azuki-ERC721A-ERC721ABurnableMock(copy)(copy)/ERC721A.sol\":36688:36712  _tokenApprovals[tokenId] */\n      0x20\n      mstore\n      0x40\n      dup1\n      dup3\n      keccak256\n        /* \"Azuki-ERC721A-ERC721ABurnableMock(copy)(copy)/ERC721A.sol\":36688:36723  _tokenApprovals[tokenId].value = to */\n      dup1\n      sload\n      0xffffffffffffffffffffffff0000000000000000000000000000000000000000\n      and\n      0xffffffffffffffffffffffffffffffffffffffff\n      dup9\n      dup2\n      and\n      swap2\n      dup3\n      or\n      swap1\n      swap3\n      sstore\n        /* \"Azuki-ERC721A-ERC721ABurnableMock(copy)(copy)/ERC721A.sol\":36738:36766  Approval(owner, to, tokenId) */\n      swap2\n      mload\n        /* \"Azuki-ERC721A-ERC721ABurnableMock(copy)(copy)/ERC721A.sol\":36688:36712  _tokenApprovals[tokenId] */\n      dup7\n      swap4\n        /* \"Azuki-ERC721A-ERC721ABurnableMock(copy)(copy)/ERC721A.sol\":36738:36766  Approval(owner, to, tokenId) */\n      swap2\n      dup6\n      and\n      swap2\n      0x8c5be1e5ebec7d5bd14f71427d1e84f3dd0314c0f7b2291e5b200ac8c7c3b925\n      swap2\n      log4\n        /* \"Azuki-ERC721A-ERC721ABurnableMock(copy)(copy)/ERC721A.sol\":36427:36773  {... */\n      pop\n        /* \"Azuki-ERC721A-ERC721ABurnableMock(copy)(copy)/ERC721A.sol\":36313:36773  function _approve(... */\n      pop\n      pop\n      pop\n      jump\t// out\n        /* \"Azuki-ERC721A-ERC721ABurnableMock(copy)(copy)/ERC721A.sol\":14144:16122  function _packedOwnershipOf(uint256 tokenId) private view returns (uint256 packed) {... */\n    tag_156:\n        /* \"Azuki-ERC721A-ERC721ABurnableMock(copy)(copy)/ERC721A.sol\":14292:14318  _packedOwnerships[tokenId] */\n      0x00\n      dup2\n      dup2\n      mstore\n        /* \"Azuki-ERC721A-ERC721ABurnableMock(copy)(copy)/ERC721A.sol\":14292:14309  _packedOwnerships */\n      0x04\n        /* \"Azuki-ERC721A-ERC721ABurnableMock(copy)(copy)/ERC721A.sol\":14292:14318  _packedOwnerships[tokenId] */\n      0x20\n      mstore\n      0x40\n      dup2\n      keccak256\n      sload\n      swap1\n        /* \"Azuki-ERC721A-ERC721ABurnableMock(copy)(copy)/ERC721A.sol\":14416:14427  packed == 0 */\n      dup2\n      swap1\n      sub\n        /* \"Azuki-ERC721A-ERC721ABurnableMock(copy)(copy)/ERC721A.sol\":14412:15682  if (packed == 0) {... */\n      tag_265\n      jumpi\n        /* \"Azuki-ERC721A-ERC721ABurnableMock(copy)(copy)/ERC721A.sol\":14462:14475  _currentIndex */\n      sload(0x00)\n        /* \"Azuki-ERC721A-ERC721ABurnableMock(copy)(copy)/ERC721A.sol\":14451:14458  tokenId */\n      dup3\n        /* \"Azuki-ERC721A-ERC721ABurnableMock(copy)(copy)/ERC721A.sol\":14451:14475  tokenId >= _currentIndex */\n      lt\n        /* \"Azuki-ERC721A-ERC721ABurnableMock(copy)(copy)/ERC721A.sol\":14447:14524  if (tokenId >= _currentIndex) _revert(OwnerQueryForNonexistentToken.selector) */\n      tag_267\n      jumpi\n        /* \"Azuki-ERC721A-ERC721ABurnableMock(copy)(copy)/ERC721A.sol\":14477:14524  _revert(OwnerQueryForNonexistentToken.selector) */\n      tag_267\n        /* \"Azuki-ERC721A-ERC721ABurnableMock(copy)(copy)/ERC721A.sol\":14485:14523  OwnerQueryForNonexistentToken.selector */\n      0xdf2d9b4200000000000000000000000000000000000000000000000000000000\n        /* \"Azuki-ERC721A-ERC721ABurnableMock(copy)(copy)/ERC721A.sol\":14477:14484  _revert */\n      tag_147\n        /* \"Azuki-ERC721A-ERC721ABurnableMock(copy)(copy)/ERC721A.sol\":14477:14524  _revert(OwnerQueryForNonexistentToken.selector) */\n      jump\t// in\n    tag_267:\n        /* \"Azuki-ERC721A-ERC721ABurnableMock(copy)(copy)/ERC721A.sol\":15071:15668  for (;;) {... */\n    tag_268:\n      pop\n        /* \"Azuki-ERC721A-ERC721ABurnableMock(copy)(copy)/ERC721A.sol\":15165:15174  --tokenId */\n      0xffffffffffffffffffffffffffffffffffffffffffffffffffffffffffffffff\n      add\n        /* \"Azuki-ERC721A-ERC721ABurnableMock(copy)(copy)/ERC721A.sol\":15147:15175  _packedOwnerships[--tokenId] */\n      0x00\n      dup2\n      dup2\n      mstore\n        /* \"Azuki-ERC721A-ERC721ABurnableMock(copy)(copy)/ERC721A.sol\":15147:15164  _packedOwnerships */\n      0x04\n        /* \"Azuki-ERC721A-ERC721ABurnableMock(copy)(copy)/ERC721A.sol\":15147:15175  _packedOwnerships[--tokenId] */\n      0x20\n      mstore\n      0x40\n      swap1\n      keccak256\n      sload\n        /* \"Azuki-ERC721A-ERC721ABurnableMock(copy)(copy)/ERC721A.sol\":15219:15244  if (packed == 0) continue */\n      dup1\n      iszero\n        /* \"Azuki-ERC721A-ERC721ABurnableMock(copy)(copy)/ERC721A.sol\":15071:15668  for (;;) {... */\n      tag_268\n        /* \"Azuki-ERC721A-ERC721ABurnableMock(copy)(copy)/ERC721A.sol\":15219:15244  if (packed == 0) continue */\n      jumpi\n        /* \"Azuki-ERC721A-ERC721ABurnableMock(copy)(copy)/ERC721A.sol\":3412:3420  1 << 224 */\n      0x0100000000000000000000000000000000000000000000000000000000\n        /* \"Azuki-ERC721A-ERC721ABurnableMock(copy)(copy)/ERC721A.sol\":15270:15276  packed */\n      dup2\n        /* \"Azuki-ERC721A-ERC721ABurnableMock(copy)(copy)/ERC721A.sol\":15270:15294  packed & _BITMASK_BURNED */\n      and\n        /* \"Azuki-ERC721A-ERC721ABurnableMock(copy)(copy)/ERC721A.sol\":15298:15299  0 */\n      0x00\n        /* \"Azuki-ERC721A-ERC721ABurnableMock(copy)(copy)/ERC721A.sol\":15270:15299  packed & _BITMASK_BURNED == 0 */\n      sub\n        /* \"Azuki-ERC721A-ERC721ABurnableMock(copy)(copy)/ERC721A.sol\":15266:15314  if (packed & _BITMASK_BURNED == 0) return packed */\n      tag_272\n      jumpi\n        /* \"Azuki-ERC721A-ERC721ABurnableMock(copy)(copy)/ERC721A.sol\":14144:16122  function _packedOwnershipOf(uint256 tokenId) private view returns (uint256 packed) {... */\n      swap2\n      swap1\n      pop\n      jump\t// out\n        /* \"Azuki-ERC721A-ERC721ABurnableMock(copy)(copy)/ERC721A.sol\":15266:15314  if (packed & _BITMASK_BURNED == 0) return packed */\n    tag_272:\n        /* \"Azuki-ERC721A-ERC721ABurnableMock(copy)(copy)/ERC721A.sol\":15602:15649  _revert(OwnerQueryForNonexistentToken.selector) */\n      tag_273\n        /* \"Azuki-ERC721A-ERC721ABurnableMock(copy)(copy)/ERC721A.sol\":15610:15648  OwnerQueryForNonexistentToken.selector */\n      0xdf2d9b4200000000000000000000000000000000000000000000000000000000\n        /* \"Azuki-ERC721A-ERC721ABurnableMock(copy)(copy)/ERC721A.sol\":15602:15609  _revert */\n      tag_147\n        /* \"Azuki-ERC721A-ERC721ABurnableMock(copy)(copy)/ERC721A.sol\":15602:15649  _revert(OwnerQueryForNonexistentToken.selector) */\n      jump\t// in\n    tag_273:\n        /* \"Azuki-ERC721A-ERC721ABurnableMock(copy)(copy)/ERC721A.sol\":15071:15668  for (;;) {... */\n      jump(tag_268)\n        /* \"Azuki-ERC721A-ERC721ABurnableMock(copy)(copy)/ERC721A.sol\":14412:15682  if (packed == 0) {... */\n    tag_265:\n        /* \"Azuki-ERC721A-ERC721ABurnableMock(copy)(copy)/ERC721A.sol\":3412:3420  1 << 224 */\n      0x0100000000000000000000000000000000000000000000000000000000\n        /* \"Azuki-ERC721A-ERC721ABurnableMock(copy)(copy)/ERC721A.sol\":16004:16010  packed */\n      dup2\n        /* \"Azuki-ERC721A-ERC721ABurnableMock(copy)(copy)/ERC721A.sol\":16004:16028  packed & _BITMASK_BURNED */\n      and\n        /* \"Azuki-ERC721A-ERC721ABurnableMock(copy)(copy)/ERC721A.sol\":16032:16033  0 */\n      0x00\n        /* \"Azuki-ERC721A-ERC721ABurnableMock(copy)(copy)/ERC721A.sol\":16004:16033  packed & _BITMASK_BURNED == 0 */\n      sub\n        /* \"Azuki-ERC721A-ERC721ABurnableMock(copy)(copy)/ERC721A.sol\":16000:16048  if (packed & _BITMASK_BURNED == 0) return packed */\n      tag_274\n      jumpi\n        /* \"Azuki-ERC721A-ERC721ABurnableMock(copy)(copy)/ERC721A.sol\":14144:16122  function _packedOwnershipOf(uint256 tokenId) private view returns (uint256 packed) {... */\n      swap2\n      swap1\n      pop\n      jump\t// out\n        /* \"Azuki-ERC721A-ERC721ABurnableMock(copy)(copy)/ERC721A.sol\":16000:16048  if (packed & _BITMASK_BURNED == 0) return packed */\n    tag_274:\n        /* \"Azuki-ERC721A-ERC721ABurnableMock(copy)(copy)/ERC721A.sol\":16068:16115  _revert(OwnerQueryForNonexistentToken.selector) */\n      tag_246\n        /* \"Azuki-ERC721A-ERC721ABurnableMock(copy)(copy)/ERC721A.sol\":16076:16114  OwnerQueryForNonexistentToken.selector */\n      0xdf2d9b4200000000000000000000000000000000000000000000000000000000\n        /* \"Azuki-ERC721A-ERC721ABurnableMock(copy)(copy)/ERC721A.sol\":16068:16075  _revert */\n      tag_147\n        /* \"Azuki-ERC721A-ERC721ABurnableMock(copy)(copy)/ERC721A.sol\":16068:16115  _revert(OwnerQueryForNonexistentToken.selector) */\n      jump\t// in\n        /* \"Azuki-ERC721A-ERC721ABurnableMock(copy)(copy)/ERC721A.sol\":37335:40359  function _burn(uint256 tokenId, bool approvalCheck) internal virtual {... */\n    tag_191:\n        /* \"Azuki-ERC721A-ERC721ABurnableMock(copy)(copy)/ERC721A.sol\":37414:37441  uint256 prevOwnershipPacked */\n      0x00\n        /* \"Azuki-ERC721A-ERC721ABurnableMock(copy)(copy)/ERC721A.sol\":37444:37471  _packedOwnershipOf(tokenId) */\n      tag_287\n        /* \"Azuki-ERC721A-ERC721ABurnableMock(copy)(copy)/ERC721A.sol\":37463:37470  tokenId */\n      dup4\n        /* \"Azuki-ERC721A-ERC721ABurnableMock(copy)(copy)/ERC721A.sol\":37444:37462  _packedOwnershipOf */\n      tag_156\n        /* \"Azuki-ERC721A-ERC721ABurnableMock(copy)(copy)/ERC721A.sol\":37444:37471  _packedOwnershipOf(tokenId) */\n      jump\t// in\n    tag_287:\n        /* \"Azuki-ERC721A-ERC721ABurnableMock(copy)(copy)/ERC721A.sol\":37414:37471  uint256 prevOwnershipPacked = _packedOwnershipOf(tokenId) */\n      swap1\n      pop\n      dup1\n        /* \"Azuki-ERC721A-ERC721ABurnableMock(copy)(copy)/ERC721A.sol\":37482:37494  address from */\n      0x00\n      dup1\n        /* \"Azuki-ERC721A-ERC721ABurnableMock(copy)(copy)/ERC721A.sol\":37602:37637  _getApprovedSlotAndAddress(tokenId) */\n      tag_288\n        /* \"Azuki-ERC721A-ERC721ABurnableMock(copy)(copy)/ERC721A.sol\":37629:37636  tokenId */\n      dup7\n        /* \"Azuki-ERC721A-ERC721ABurnableMock(copy)(copy)/ERC721A.sol\":20864:20891  uint256 approvedAddressSlot */\n      0x00\n        /* \"Azuki-ERC721A-ERC721ABurnableMock(copy)(copy)/ERC721A.sol\":20973:20997  _tokenApprovals[tokenId] */\n      swap1\n      dup2\n      mstore\n        /* \"Azuki-ERC721A-ERC721ABurnableMock(copy)(copy)/ERC721A.sol\":20973:20988  _tokenApprovals */\n      0x06\n        /* \"Azuki-ERC721A-ERC721ABurnableMock(copy)(copy)/ERC721A.sol\":20973:20997  _tokenApprovals[tokenId] */\n      0x20\n      mstore\n      0x40\n      swap1\n      keccak256\n        /* \"Azuki-ERC721A-ERC721ABurnableMock(copy)(copy)/ERC721A.sol\":21197:21223  sload(approvedAddressSlot) */\n      dup1\n      sload\n        /* \"Azuki-ERC721A-ERC721ABurnableMock(copy)(copy)/ERC721A.sol\":20973:20997  _tokenApprovals[tokenId] */\n      swap1\n      swap2\n        /* \"Azuki-ERC721A-ERC721ABurnableMock(copy)(copy)/ERC721A.sol\":20765:21239  function _getApprovedSlotAndAddress(uint256 tokenId)... */\n      jump\n        /* \"Azuki-ERC721A-ERC721ABurnableMock(copy)(copy)/ERC721A.sol\":37602:37637  _getApprovedSlotAndAddress(tokenId) */\n    tag_288:\n        /* \"Azuki-ERC721A-ERC721ABurnableMock(copy)(copy)/ERC721A.sol\":37545:37637  (uint256 approvedAddressSlot, address approvedAddress) = _getApprovedSlotAndAddress(tokenId) */\n      swap2\n      pop\n      swap2\n      pop\n        /* \"Azuki-ERC721A-ERC721ABurnableMock(copy)(copy)/ERC721A.sol\":37652:37665  approvalCheck */\n      dup5\n        /* \"Azuki-ERC721A-ERC721ABurnableMock(copy)(copy)/ERC721A.sol\":37648:37969  if (approvalCheck) {... */\n      iszero\n      tag_296\n      jumpi\n        /* \"Azuki-ERC721A-ERC721ABurnableMock(copy)(copy)/ERC721A.sol\":37771:37839  _isSenderApprovedOrOwner(approvedAddress, from, _msgSenderERC721A()) */\n      tag_290\n        /* \"Azuki-ERC721A-ERC721ABurnableMock(copy)(copy)/ERC721A.sol\":37796:37811  approvedAddress */\n      dup2\n        /* \"Azuki-ERC721A-ERC721ABurnableMock(copy)(copy)/ERC721A.sol\":37813:37817  from */\n      dup5\n        /* \"Azuki-ERC721A-ERC721ABurnableMock(copy)(copy)/ERC721A.sol\":42781:42791  msg.sender */\n      caller\n        /* \"Azuki-ERC721A-ERC721ABurnableMock(copy)(copy)/ERC721A.sol\":37819:37838  _msgSenderERC721A() */\n      tag_162\n        /* \"Azuki-ERC721A-ERC721ABurnableMock(copy)(copy)/ERC721A.sol\":42695:42798  function _msgSenderERC721A() internal view virtual returns (address) {... */\n      jump\n        /* \"Azuki-ERC721A-ERC721ABurnableMock(copy)(copy)/ERC721A.sol\":37771:37839  _isSenderApprovedOrOwner(approvedAddress, from, _msgSenderERC721A()) */\n    tag_290:\n        /* \"Azuki-ERC721A-ERC721ABurnableMock(copy)(copy)/ERC721A.sol\":37766:37958  if (!_isSenderApprovedOrOwner(approvedAddress, from, _msgSenderERC721A()))... */\n      tag_296\n      jumpi\n        /* \"Azuki-ERC721A-ERC721ABurnableMock(copy)(copy)/ERC721A.sol\":37862:37905  isApprovedForAll(from, _msgSenderERC721A()) */\n      tag_293\n        /* \"Azuki-ERC721A-ERC721ABurnableMock(copy)(copy)/ERC721A.sol\":37879:37883  from */\n      dup4\n        /* \"Azuki-ERC721A-ERC721ABurnableMock(copy)(copy)/ERC721A.sol\":42781:42791  msg.sender */\n      caller\n        /* \"Azuki-ERC721A-ERC721ABurnableMock(copy)(copy)/ERC721A.sol\":19136:19298  function isApprovedForAll(address owner, address operator) public view virtual override returns (bool) {... */\n      tag_122\n      jump\t// in\n        /* \"Azuki-ERC721A-ERC721ABurnableMock(copy)(copy)/ERC721A.sol\":37862:37905  isApprovedForAll(from, _msgSenderERC721A()) */\n    tag_293:\n        /* \"Azuki-ERC721A-ERC721ABurnableMock(copy)(copy)/ERC721A.sol\":37857:37958  if (!isApprovedForAll(from, _msgSenderERC721A())) _revert(TransferCallerNotOwnerNorApproved.selector) */\n      tag_296\n      jumpi\n        /* \"Azuki-ERC721A-ERC721ABurnableMock(copy)(copy)/ERC721A.sol\":37907:37958  _revert(TransferCallerNotOwnerNorApproved.selector) */\n      tag_296\n        /* \"Azuki-ERC721A-ERC721ABurnableMock(copy)(copy)/ERC721A.sol\":37915:37957  TransferCallerNotOwnerNorApproved.selector */\n      0x59c896be00000000000000000000000000000000000000000000000000000000\n        /* \"Azuki-ERC721A-ERC721ABurnableMock(copy)(copy)/ERC721A.sol\":37907:37914  _revert */\n      tag_147\n        /* \"Azuki-ERC721A-ERC721ABurnableMock(copy)(copy)/ERC721A.sol\":37907:37958  _revert(TransferCallerNotOwnerNorApproved.selector) */\n      jump\t// in\n    tag_296:\n        /* \"Azuki-ERC721A-ERC721ABurnableMock(copy)(copy)/ERC721A.sol\":38119:38134  approvedAddress */\n      dup1\n        /* \"Azuki-ERC721A-ERC721ABurnableMock(copy)(copy)/ERC721A.sol\":38116:38273  if approvedAddress {... */\n      iszero\n      tag_298\n      jumpi\n        /* \"Azuki-ERC721A-ERC721ABurnableMock(copy)(copy)/ERC721A.sol\":38257:38258  0 */\n      0x00\n        /* \"Azuki-ERC721A-ERC721ABurnableMock(copy)(copy)/ERC721A.sol\":38236:38255  approvedAddressSlot */\n      dup3\n        /* \"Azuki-ERC721A-ERC721ABurnableMock(copy)(copy)/ERC721A.sol\":38229:38259  sstore(approvedAddressSlot, 0) */\n      sstore\n        /* \"Azuki-ERC721A-ERC721ABurnableMock(copy)(copy)/ERC721A.sol\":38116:38273  if approvedAddress {... */\n    tag_298:\n        /* \"Azuki-ERC721A-ERC721ABurnableMock(copy)(copy)/ERC721A.sol\":38862:38886  _packedAddressData[from] */\n      0xffffffffffffffffffffffffffffffffffffffff\n      dup4\n      and\n      0x00\n      dup2\n      dup2\n      mstore\n        /* \"Azuki-ERC721A-ERC721ABurnableMock(copy)(copy)/ERC721A.sol\":38862:38880  _packedAddressData */\n      0x05\n        /* \"Azuki-ERC721A-ERC721ABurnableMock(copy)(copy)/ERC721A.sol\":38862:38886  _packedAddressData[from] */\n      0x20\n      mstore\n      0x40\n      swap1\n      keccak256\n        /* \"Azuki-ERC721A-ERC721ABurnableMock(copy)(copy)/ERC721A.sol\":38862:38922  _packedAddressData[from] += (1 << _BITPOS_NUMBER_BURNED) - 1 */\n      dup1\n      sload\n        /* \"Azuki-ERC721A-ERC721ABurnableMock(copy)(copy)/ERC721A.sol\":38890:38922  (1 << _BITPOS_NUMBER_BURNED) - 1 */\n      0xffffffffffffffffffffffffffffffff\n        /* \"Azuki-ERC721A-ERC721ABurnableMock(copy)(copy)/ERC721A.sol\":38862:38922  _packedAddressData[from] += (1 << _BITPOS_NUMBER_BURNED) - 1 */\n      add\n      swap1\n      sstore\n        /* \"Azuki-ERC721A-ERC721ABurnableMock(copy)(copy)/ERC721A.sol\":17061:17072  timestamp() */\n      timestamp\n        /* \"Azuki-ERC721A-ERC721ABurnableMock(copy)(copy)/ERC721A.sol\":17036:17059  _BITPOS_START_TIMESTAMP */\n      0xa0\n        /* \"Azuki-ERC721A-ERC721ABurnableMock(copy)(copy)/ERC721A.sol\":17032:17073  shl(_BITPOS_START_TIMESTAMP, timestamp()) */\n      shl\n        /* \"Azuki-ERC721A-ERC721ABurnableMock(copy)(copy)/ERC721A.sol\":17019:17082  or(owner, or(shl(_BITPOS_START_TIMESTAMP, timestamp()), flags)) */\n      or\n        /* \"Azuki-ERC721A-ERC721ABurnableMock(copy)(copy)/ERC721A.sol\":39241:39284  _BITMASK_BURNED | _BITMASK_NEXT_INITIALIZED */\n      0x0300000000000000000000000000000000000000000000000000000000\n        /* \"Azuki-ERC721A-ERC721ABurnableMock(copy)(copy)/ERC721A.sol\":17019:17082  or(owner, or(shl(_BITPOS_START_TIMESTAMP, timestamp()), flags)) */\n      or\n        /* \"Azuki-ERC721A-ERC721ABurnableMock(copy)(copy)/ERC721A.sol\":39153:39179  _packedOwnerships[tokenId] */\n      0x00\n      dup8\n      dup2\n      mstore\n        /* \"Azuki-ERC721A-ERC721ABurnableMock(copy)(copy)/ERC721A.sol\":39153:39170  _packedOwnerships */\n      0x04\n        /* \"Azuki-ERC721A-ERC721ABurnableMock(copy)(copy)/ERC721A.sol\":39153:39179  _packedOwnerships[tokenId] */\n      0x20\n      mstore\n      0x40\n      dup2\n      keccak256\n        /* \"Azuki-ERC721A-ERC721ABurnableMock(copy)(copy)/ERC721A.sol\":39153:39355  _packedOwnerships[tokenId] = _packOwnershipData(... */\n      swap2\n      swap1\n      swap2\n      sstore\n        /* \"Azuki-ERC721A-ERC721ABurnableMock(copy)(copy)/ERC721A.sol\":3686:3694  1 << 225 */\n      0x0200000000000000000000000000000000000000000000000000000000\n        /* \"Azuki-ERC721A-ERC721ABurnableMock(copy)(copy)/ERC721A.sol\":39472:39519  prevOwnershipPacked & _BITMASK_NEXT_INITIALIZED */\n      dup6\n      and\n        /* \"Azuki-ERC721A-ERC721ABurnableMock(copy)(copy)/ERC721A.sol\":39472:39524  prevOwnershipPacked & _BITMASK_NEXT_INITIALIZED == 0 */\n      swap1\n      sub\n        /* \"Azuki-ERC721A-ERC721ABurnableMock(copy)(copy)/ERC721A.sol\":39468:40085  if (prevOwnershipPacked & _BITMASK_NEXT_INITIALIZED == 0) {... */\n      tag_301\n      jumpi\n        /* \"Azuki-ERC721A-ERC721ABurnableMock(copy)(copy)/ERC721A.sol\":39576:39577  1 */\n      0x01\n        /* \"Azuki-ERC721A-ERC721ABurnableMock(copy)(copy)/ERC721A.sol\":39566:39577  tokenId + 1 */\n      dup7\n      add\n        /* \"Azuki-ERC721A-ERC721ABurnableMock(copy)(copy)/ERC721A.sol\":39544:39563  uint256 nextTokenId */\n      0x00\n        /* \"Azuki-ERC721A-ERC721ABurnableMock(copy)(copy)/ERC721A.sol\":39697:39727  _packedOwnerships[nextTokenId] */\n      dup2\n      dup2\n      mstore\n        /* \"Azuki-ERC721A-ERC721ABurnableMock(copy)(copy)/ERC721A.sol\":39697:39714  _packedOwnerships */\n      0x04\n        /* \"Azuki-ERC721A-ERC721ABurnableMock(copy)(copy)/ERC721A.sol\":39697:39727  _packedOwnerships[nextTokenId] */\n      0x20\n      mstore\n      0x40\n      dup2\n      keccak256\n      sload\n        /* \"Azuki-ERC721A-ERC721ABurnableMock(copy)(copy)/ERC721A.sol\":39697:39732  _packedOwnerships[nextTokenId] == 0 */\n      swap1\n      sub\n        /* \"Azuki-ERC721A-ERC721ABurnableMock(copy)(copy)/ERC721A.sol\":39693:40071  if (_packedOwnerships[nextTokenId] == 0) {... */\n      tag_303\n      jumpi\n        /* \"Azuki-ERC721A-ERC721ABurnableMock(copy)(copy)/ERC721A.sol\":39833:39846  _currentIndex */\n      sload(0x00)\n        /* \"Azuki-ERC721A-ERC721ABurnableMock(copy)(copy)/ERC721A.sol\":39818:39829  nextTokenId */\n      dup2\n        /* \"Azuki-ERC721A-ERC721ABurnableMock(copy)(copy)/ERC721A.sol\":39818:39846  nextTokenId != _currentIndex */\n      eq\n        /* \"Azuki-ERC721A-ERC721ABurnableMock(copy)(copy)/ERC721A.sol\":39814:40053  if (nextTokenId != _currentIndex) {... */\n      tag_303\n      jumpi\n        /* \"Azuki-ERC721A-ERC721ABurnableMock(copy)(copy)/ERC721A.sol\":39978:40008  _packedOwnerships[nextTokenId] */\n      0x00\n      dup2\n      dup2\n      mstore\n        /* \"Azuki-ERC721A-ERC721ABurnableMock(copy)(copy)/ERC721A.sol\":39978:39995  _packedOwnerships */\n      0x04\n        /* \"Azuki-ERC721A-ERC721ABurnableMock(copy)(copy)/ERC721A.sol\":39978:40008  _packedOwnerships[nextTokenId] */\n      0x20\n      mstore\n      0x40\n      swap1\n      keccak256\n        /* \"Azuki-ERC721A-ERC721ABurnableMock(copy)(copy)/ERC721A.sol\":39978:40030  _packedOwnerships[nextTokenId] = prevOwnershipPacked */\n      dup6\n      swap1\n      sstore\n        /* \"Azuki-ERC721A-ERC721ABurnableMock(copy)(copy)/ERC721A.sol\":39814:40053  if (nextTokenId != _currentIndex) {... */\n    tag_303:\n        /* \"Azuki-ERC721A-ERC721ABurnableMock(copy)(copy)/ERC721A.sol\":39526:40085  {... */\n      pop\n        /* \"Azuki-ERC721A-ERC721ABurnableMock(copy)(copy)/ERC721A.sol\":39468:40085  if (prevOwnershipPacked & _BITMASK_NEXT_INITIALIZED == 0) {... */\n    tag_301:\n        /* \"Azuki-ERC721A-ERC721ABurnableMock(copy)(copy)/ERC721A.sol\":40110:40145  Transfer(from, address(0), tokenId) */\n      mload(0x40)\n        /* \"Azuki-ERC721A-ERC721ABurnableMock(copy)(copy)/ERC721A.sol\":40137:40144  tokenId */\n      dup7\n      swap1\n        /* \"Azuki-ERC721A-ERC721ABurnableMock(copy)(copy)/ERC721A.sol\":40133:40134  0 */\n      0x00\n      swap1\n        /* \"Azuki-ERC721A-ERC721ABurnableMock(copy)(copy)/ERC721A.sol\":40110:40145  Transfer(from, address(0), tokenId) */\n      0xffffffffffffffffffffffffffffffffffffffff\n      dup7\n      and\n      swap1\n      0xddf252ad1be2c89b69c2b068fc378daa952ba7f163c4a11628f55a4df523b3ef\n      swap1\n        /* \"Azuki-ERC721A-ERC721ABurnableMock(copy)(copy)/ERC721A.sol\":40133:40134  0 */\n      dup4\n      swap1\n        /* \"Azuki-ERC721A-ERC721ABurnableMock(copy)(copy)/ERC721A.sol\":40110:40145  Transfer(from, address(0), tokenId) */\n      log4\n      pop\n      pop\n        /* \"Azuki-ERC721A-ERC721ABurnableMock(copy)(copy)/ERC721A.sol\":40328:40340  _burnCounter */\n      0x01\n        /* \"Azuki-ERC721A-ERC721ABurnableMock(copy)(copy)/ERC721A.sol\":40328:40342  _burnCounter++ */\n      dup1\n      sload\n      dup2\n      add\n      swap1\n      sstore\n      pop\n      pop\n      pop\n      pop\n        /* \"Azuki-ERC721A-ERC721ABurnableMock(copy)(copy)/ERC721A.sol\":37335:40359  function _burn(uint256 tokenId, bool approvalCheck) internal virtual {... */\n      jump\t// out\n        /* \"Azuki-ERC721A-ERC721ABurnableMock(copy)(copy)/ERC721A.sol\":35423:35533  function _safeMint(address to, uint256 quantity) internal virtual {... */\n    tag_207:\n        /* \"Azuki-ERC721A-ERC721ABurnableMock(copy)(copy)/ERC721A.sol\":35499:35526  _safeMint(to, quantity, '') */\n      tag_149\n        /* \"Azuki-ERC721A-ERC721ABurnableMock(copy)(copy)/ERC721A.sol\":35509:35511  to */\n      dup3\n        /* \"Azuki-ERC721A-ERC721ABurnableMock(copy)(copy)/ERC721A.sol\":35513:35521  quantity */\n      dup3\n        /* \"Azuki-ERC721A-ERC721ABurnableMock(copy)(copy)/ERC721A.sol\":35499:35526  _safeMint(to, quantity, '') */\n      mload(0x40)\n      dup1\n      0x20\n      add\n      0x40\n      mstore\n      dup1\n      0x00\n      dup2\n      mstore\n      pop\n        /* \"Azuki-ERC721A-ERC721ABurnableMock(copy)(copy)/ERC721A.sol\":35499:35508  _safeMint */\n      tag_307\n        /* \"Azuki-ERC721A-ERC721ABurnableMock(copy)(copy)/ERC721A.sol\":35499:35526  _safeMint(to, quantity, '') */\n      jump\t// in\n        /* \"Azuki-ERC721A-ERC721ABurnableMock(copy)(copy)/ERC721A.sol\":28577:29250  function _checkContractOnERC721Received(... */\n    tag_219:\n        /* \"Azuki-ERC721A-ERC721ABurnableMock(copy)(copy)/ERC721A.sol\":28755:28843  ERC721A__IERC721Receiver(to).onERC721Received(_msgSenderERC721A(), from, tokenId, _data) */\n      mload(0x40)\n      0x150b7a0200000000000000000000000000000000000000000000000000000000\n      dup2\n      mstore\n        /* \"Azuki-ERC721A-ERC721ABurnableMock(copy)(copy)/ERC721A.sol\":28735:28739  bool */\n      0x00\n      swap1\n        /* \"Azuki-ERC721A-ERC721ABurnableMock(copy)(copy)/ERC721A.sol\":28755:28800  ERC721A__IERC721Receiver(to).onERC721Received */\n      0xffffffffffffffffffffffffffffffffffffffff\n      dup6\n      and\n      swap1\n      0x150b7a02\n      swap1\n        /* \"Azuki-ERC721A-ERC721ABurnableMock(copy)(copy)/ERC721A.sol\":28755:28843  ERC721A__IERC721Receiver(to).onERC721Received(_msgSenderERC721A(), from, tokenId, _data) */\n      tag_312\n      swap1\n        /* \"Azuki-ERC721A-ERC721ABurnableMock(copy)(copy)/ERC721A.sol\":42781:42791  msg.sender */\n      caller\n      swap1\n        /* \"Azuki-ERC721A-ERC721ABurnableMock(copy)(copy)/ERC721A.sol\":28822:28826  from */\n      dup10\n      swap1\n        /* \"Azuki-ERC721A-ERC721ABurnableMock(copy)(copy)/ERC721A.sol\":28828:28835  tokenId */\n      dup9\n      swap1\n        /* \"Azuki-ERC721A-ERC721ABurnableMock(copy)(copy)/ERC721A.sol\":28837:28842  _data */\n      dup9\n      swap1\n        /* \"Azuki-ERC721A-ERC721ABurnableMock(copy)(copy)/ERC721A.sol\":28755:28843  ERC721A__IERC721Receiver(to).onERC721Received(_msgSenderERC721A(), from, tokenId, _data) */\n      0x04\n      add\n      tag_313\n      jump\t// in\n    tag_312:\n      0x20\n      mload(0x40)\n      dup1\n      dup4\n      sub\n      dup2\n      0x00\n      dup8\n      gas\n      call\n      swap3\n      pop\n      pop\n      pop\n      dup1\n      iszero\n      tag_314\n      jumpi\n      pop\n      0x40\n      dup1\n      mload\n      0x1f\n      returndatasize\n      swap1\n      dup2\n      add\n      0xffffffffffffffffffffffffffffffffffffffffffffffffffffffffffffffe0\n      and\n      dup3\n      add\n      swap1\n      swap3\n      mstore\n      tag_315\n      swap2\n      dup2\n      add\n      swap1\n      tag_316\n      jump\t// in\n    tag_315:\n      0x01\n    tag_314:\n        /* \"Azuki-ERC721A-ERC721ABurnableMock(copy)(copy)/ERC721A.sol\":28751:29244  try ERC721A__IERC721Receiver(to).onERC721Received(_msgSenderERC721A(), from, tokenId, _data) returns (... */\n      tag_317\n      jumpi\n      returndatasize\n      dup1\n      dup1\n      iszero\n      tag_322\n      jumpi\n      mload(0x40)\n      swap2\n      pop\n      and(add(returndatasize, 0x3f), not(0x1f))\n      dup3\n      add\n      0x40\n      mstore\n      returndatasize\n      dup3\n      mstore\n      returndatasize\n      0x00\n      0x20\n      dup5\n      add\n      returndatacopy\n      jump(tag_321)\n    tag_322:\n      0x60\n      swap2\n      pop\n    tag_321:\n      pop\n        /* \"Azuki-ERC721A-ERC721ABurnableMock(copy)(copy)/ERC721A.sol\":29033:29039  reason */\n      dup1\n        /* \"Azuki-ERC721A-ERC721ABurnableMock(copy)(copy)/ERC721A.sol\":29033:29046  reason.length */\n      mload\n        /* \"Azuki-ERC721A-ERC721ABurnableMock(copy)(copy)/ERC721A.sol\":29050:29051  0 */\n      0x00\n        /* \"Azuki-ERC721A-ERC721ABurnableMock(copy)(copy)/ERC721A.sol\":29033:29051  reason.length == 0 */\n      sub\n        /* \"Azuki-ERC721A-ERC721ABurnableMock(copy)(copy)/ERC721A.sol\":29029:29142  if (reason.length == 0) {... */\n      tag_324\n      jumpi\n        /* \"Azuki-ERC721A-ERC721ABurnableMock(copy)(copy)/ERC721A.sol\":29071:29127  _revert(TransferToNonERC721ReceiverImplementer.selector) */\n      tag_324\n        /* \"Azuki-ERC721A-ERC721ABurnableMock(copy)(copy)/ERC721A.sol\":29079:29126  TransferToNonERC721ReceiverImplementer.selector */\n      0xd1a57ed600000000000000000000000000000000000000000000000000000000\n        /* \"Azuki-ERC721A-ERC721ABurnableMock(copy)(copy)/ERC721A.sol\":29071:29078  _revert */\n      tag_147\n        /* \"Azuki-ERC721A-ERC721ABurnableMock(copy)(copy)/ERC721A.sol\":29071:29127  _revert(TransferToNonERC721ReceiverImplementer.selector) */\n      jump\t// in\n    tag_324:\n        /* \"Azuki-ERC721A-ERC721ABurnableMock(copy)(copy)/ERC721A.sol\":29212:29218  reason */\n      dup1\n        /* \"Azuki-ERC721A-ERC721ABurnableMock(copy)(copy)/ERC721A.sol\":29206:29219  mload(reason) */\n      mload\n        /* \"Azuki-ERC721A-ERC721ABurnableMock(copy)(copy)/ERC721A.sol\":29197:29203  reason */\n      dup2\n        /* \"Azuki-ERC721A-ERC721ABurnableMock(copy)(copy)/ERC721A.sol\":29193:29195  32 */\n      0x20\n        /* \"Azuki-ERC721A-ERC721ABurnableMock(copy)(copy)/ERC721A.sol\":29189:29204  add(32, reason) */\n      add\n        /* \"Azuki-ERC721A-ERC721ABurnableMock(copy)(copy)/ERC721A.sol\":29182:29220  revert(add(32, reason), mload(reason)) */\n      revert\n        /* \"Azuki-ERC721A-ERC721ABurnableMock(copy)(copy)/ERC721A.sol\":28751:29244  try ERC721A__IERC721Receiver(to).onERC721Received(_msgSenderERC721A(), from, tokenId, _data) returns (... */\n    tag_317:\n        /* \"Azuki-ERC721A-ERC721ABurnableMock(copy)(copy)/ERC721A.sol\":28911:28975  retval == ERC721A__IERC721Receiver(to).onERC721Received.selector */\n      0xffffffff00000000000000000000000000000000000000000000000000000000\n      and\n        /* \"Azuki-ERC721A-ERC721ABurnableMock(copy)(copy)/ERC721A.sol\":28921:28975  ERC721A__IERC721Receiver(to).onERC721Received.selector */\n      0x150b7a0200000000000000000000000000000000000000000000000000000000\n        /* \"Azuki-ERC721A-ERC721ABurnableMock(copy)(copy)/ERC721A.sol\":28911:28975  retval == ERC721A__IERC721Receiver(to).onERC721Received.selector */\n      eq\n      swap1\n      pop\n        /* \"Azuki-ERC721A-ERC721ABurnableMock(copy)(copy)/ERC721A.sol\":28577:29250  function _checkContractOnERC721Received(... */\n      swap5\n      swap4\n      pop\n      pop\n      pop\n      pop\n      jump\t// out\n        /* \"Azuki-ERC721A-ERC721ABurnableMock(copy)(copy)/ERC721A.sol\":42895:44603  function _toString(uint256 value) internal pure virtual returns (string memory str) {... */\n    tag_231:\n        /* \"Azuki-ERC721A-ERC721ABurnableMock(copy)(copy)/ERC721A.sol\":42960:42977  string memory str */\n      0x60\n        /* \"Azuki-ERC721A-ERC721ABurnableMock(copy)(copy)/ERC721A.sol\":43388:43392  0xa0 */\n      0xa0\n        /* \"Azuki-ERC721A-ERC721ABurnableMock(copy)(copy)/ERC721A.sol\":43381:43385  0x40 */\n      0x40\n        /* \"Azuki-ERC721A-ERC721ABurnableMock(copy)(copy)/ERC721A.sol\":43375:43386  mload(0x40) */\n      mload\n        /* \"Azuki-ERC721A-ERC721ABurnableMock(copy)(copy)/ERC721A.sol\":43371:43393  add(mload(0x40), 0xa0) */\n      add\n        /* \"Azuki-ERC721A-ERC721ABurnableMock(copy)(copy)/ERC721A.sol\":43478:43479  m */\n      dup1\n        /* \"Azuki-ERC721A-ERC721ABurnableMock(copy)(copy)/ERC721A.sol\":43472:43476  0x40 */\n      0x40\n        /* \"Azuki-ERC721A-ERC721ABurnableMock(copy)(copy)/ERC721A.sol\":43465:43480  mstore(0x40, m) */\n      mstore\n        /* \"Azuki-ERC721A-ERC721ABurnableMock(copy)(copy)/ERC721A.sol\":43551:43555  0x20 */\n      0x20\n        /* \"Azuki-ERC721A-ERC721ABurnableMock(copy)(copy)/ERC721A.sol\":43548:43549  m */\n      dup2\n        /* \"Azuki-ERC721A-ERC721ABurnableMock(copy)(copy)/ERC721A.sol\":43544:43556  sub(m, 0x20) */\n      sub\n        /* \"Azuki-ERC721A-ERC721ABurnableMock(copy)(copy)/ERC721A.sol\":43537:43556  str := sub(m, 0x20) */\n      swap2\n      pop\n      pop\n        /* \"Azuki-ERC721A-ERC721ABurnableMock(copy)(copy)/ERC721A.sol\":43631:43632  0 */\n      0x00\n        /* \"Azuki-ERC721A-ERC721ABurnableMock(copy)(copy)/ERC721A.sol\":43626:43629  str */\n      dup2\n        /* \"Azuki-ERC721A-ERC721ABurnableMock(copy)(copy)/ERC721A.sol\":43619:43633  mstore(str, 0) */\n      mstore\n        /* \"Azuki-ERC721A-ERC721ABurnableMock(copy)(copy)/ERC721A.sol\":43732:43735  str */\n      dup1\n        /* \"Azuki-ERC721A-ERC721ABurnableMock(copy)(copy)/ERC721A.sol\":43966:43971  value */\n      dup3\n        /* \"Azuki-ERC721A-ERC721ABurnableMock(copy)(copy)/ERC721A.sol\":43948:44367  for { let temp := value } 1 {} {... */\n    tag_328:\n        /* \"Azuki-ERC721A-ERC721ABurnableMock(copy)(copy)/ERC721A.sol\":44013:44014  1 */\n      0x01\n        /* \"Azuki-ERC721A-ERC721ABurnableMock(copy)(copy)/ERC721A.sol\":44008:44011  str */\n      dup4\n        /* \"Azuki-ERC721A-ERC721ABurnableMock(copy)(copy)/ERC721A.sol\":44004:44015  sub(str, 1) */\n      sub\n        /* \"Azuki-ERC721A-ERC721ABurnableMock(copy)(copy)/ERC721A.sol\":43997:44015  str := sub(str, 1) */\n      swap3\n      pop\n        /* \"Azuki-ERC721A-ERC721ABurnableMock(copy)(copy)/ERC721A.sol\":44181:44183  10 */\n      0x0a\n        /* \"Azuki-ERC721A-ERC721ABurnableMock(copy)(copy)/ERC721A.sol\":44175:44179  temp */\n      dup2\n        /* \"Azuki-ERC721A-ERC721ABurnableMock(copy)(copy)/ERC721A.sol\":44171:44184  mod(temp, 10) */\n      mod\n        /* \"Azuki-ERC721A-ERC721ABurnableMock(copy)(copy)/ERC721A.sol\":44167:44169  48 */\n      0x30\n        /* \"Azuki-ERC721A-ERC721ABurnableMock(copy)(copy)/ERC721A.sol\":44163:44185  add(48, mod(temp, 10)) */\n      add\n        /* \"Azuki-ERC721A-ERC721ABurnableMock(copy)(copy)/ERC721A.sol\":44158:44161  str */\n      dup4\n        /* \"Azuki-ERC721A-ERC721ABurnableMock(copy)(copy)/ERC721A.sol\":44150:44186  mstore8(str, add(48, mod(temp, 10))) */\n      mstore8\n        /* \"Azuki-ERC721A-ERC721ABurnableMock(copy)(copy)/ERC721A.sol\":44273:44275  10 */\n      0x0a\n        /* \"Azuki-ERC721A-ERC721ABurnableMock(copy)(copy)/ERC721A.sol\":44263:44276  div(temp, 10) */\n      swap1\n      div\n        /* \"Azuki-ERC721A-ERC721ABurnableMock(copy)(copy)/ERC721A.sol\":44328:44353  if iszero(temp) { break } */\n      dup1\n        /* \"Azuki-ERC721A-ERC721ABurnableMock(copy)(copy)/ERC721A.sol\":43948:44367  for { let temp := value } 1 {} {... */\n      tag_328\n        /* \"Azuki-ERC721A-ERC721ABurnableMock(copy)(copy)/ERC721A.sol\":44328:44353  if iszero(temp) { break } */\n      jumpi\n      pop\n        /* \"Azuki-ERC721A-ERC721ABurnableMock(copy)(copy)/ERC721A.sol\":44395:44408  sub(end, str) */\n      dup2\n      swap1\n      sub\n        /* \"Azuki-ERC721A-ERC721ABurnableMock(copy)(copy)/ERC721A.sol\":44508:44522  sub(str, 0x20) */\n      0xffffffffffffffffffffffffffffffffffffffffffffffffffffffffffffffe0\n      swap1\n      swap2\n      add\n        /* \"Azuki-ERC721A-ERC721ABurnableMock(copy)(copy)/ERC721A.sol\":44568:44587  mstore(str, length) */\n      swap1\n      dup2\n      mstore\n        /* \"Azuki-ERC721A-ERC721ABurnableMock(copy)(copy)/ERC721A.sol\":44508:44522  sub(str, 0x20) */\n      swap2\n        /* \"Azuki-ERC721A-ERC721ABurnableMock(copy)(copy)/ERC721A.sol\":42895:44603  function _toString(uint256 value) internal pure virtual returns (string memory str) {... */\n      swap1\n      pop\n      jump\t// out\n        /* \"Azuki-ERC721A-ERC721ABurnableMock(copy)(copy)/ERC721A.sol\":13291:13450  function _ownershipAt(uint256 index) internal view virtual returns (TokenOwnership memory) {... */\n    tag_242:\n      0x40\n      dup1\n      mload\n      0x80\n      dup2\n      add\n      dup3\n      mstore\n      0x00\n      dup1\n      dup3\n      mstore\n      0x20\n      dup3\n      add\n      dup2\n      swap1\n      mstore\n      swap2\n      dup2\n      add\n      dup3\n      swap1\n      mstore\n      0x60\n      dup2\n      add\n      swap2\n      swap1\n      swap2\n      mstore\n        /* \"Azuki-ERC721A-ERC721ABurnableMock(copy)(copy)/ERC721A.sol\":13418:13442  _packedOwnerships[index] */\n      0x00\n      dup3\n      dup2\n      mstore\n        /* \"Azuki-ERC721A-ERC721ABurnableMock(copy)(copy)/ERC721A.sol\":13418:13435  _packedOwnerships */\n      0x04\n        /* \"Azuki-ERC721A-ERC721ABurnableMock(copy)(copy)/ERC721A.sol\":13418:13442  _packedOwnerships[index] */\n      0x20\n      mstore\n      0x40\n      swap1\n      keccak256\n      sload\n        /* \"Azuki-ERC721A-ERC721ABurnableMock(copy)(copy)/ERC721A.sol\":13399:13443  _unpackedOwnership(_packedOwnerships[index]) */\n      tag_134\n      swap1\n      0x40\n      dup1\n      mload\n      0x80\n      dup2\n      add\n      dup3\n      mstore\n        /* \"Azuki-ERC721A-ERC721ABurnableMock(copy)(copy)/ERC721A.sol\":16325:16366  ownership.addr = address(uint160(packed)) */\n      0xffffffffffffffffffffffffffffffffffffffff\n      dup4\n      and\n      dup2\n      mstore\n        /* \"Azuki-ERC721A-ERC721ABurnableMock(copy)(copy)/ERC721A.sol\":3298:3301  160 */\n      0xa0\n        /* \"Azuki-ERC721A-ERC721ABurnableMock(copy)(copy)/ERC721A.sol\":16410:16443  packed >> _BITPOS_START_TIMESTAMP */\n      dup4\n      swap1\n      shr\n        /* \"Azuki-ERC721A-ERC721ABurnableMock(copy)(copy)/ERC721A.sol\":16376:16444  ownership.startTimestamp = uint64(packed >> _BITPOS_START_TIMESTAMP) */\n      0xffffffffffffffff\n      and\n      0x20\n      dup3\n      add\n      mstore\n        /* \"Azuki-ERC721A-ERC721ABurnableMock(copy)(copy)/ERC721A.sol\":3412:3420  1 << 224 */\n      0x0100000000000000000000000000000000000000000000000000000000\n        /* \"Azuki-ERC721A-ERC721ABurnableMock(copy)(copy)/ERC721A.sol\":16473:16497  packed & _BITMASK_BURNED */\n      dup4\n      and\n        /* \"Azuki-ERC721A-ERC721ABurnableMock(copy)(copy)/ERC721A.sol\":16473:16502  packed & _BITMASK_BURNED != 0 */\n      iszero\n      iszero\n      swap2\n      dup2\n      add\n        /* \"Azuki-ERC721A-ERC721ABurnableMock(copy)(copy)/ERC721A.sol\":16454:16502  ownership.burned = packed & _BITMASK_BURNED != 0 */\n      swap2\n      swap1\n      swap2\n      mstore\n        /* \"Azuki-ERC721A-ERC721ABurnableMock(copy)(copy)/ERC721A.sol\":3807:3810  232 */\n      0xe8\n        /* \"Azuki-ERC721A-ERC721ABurnableMock(copy)(copy)/ERC721A.sol\":16541:16569  packed >> _BITPOS_EXTRA_DATA */\n      swap2\n      swap1\n      swap2\n      shr\n      0x60\n      dup3\n      add\n        /* \"Azuki-ERC721A-ERC721ABurnableMock(copy)(copy)/ERC721A.sol\":16512:16570  ownership.extraData = uint24(packed >> _BITPOS_EXTRA_DATA) */\n      mstore\n      swap1\n        /* \"Azuki-ERC721A-ERC721ABurnableMock(copy)(copy)/ERC721A.sol\":16216:16577  function _unpackedOwnership(uint256 packed) private pure returns (TokenOwnership memory ownership) {... */\n      jump\n        /* \"Azuki-ERC721A-ERC721ABurnableMock(copy)(copy)/ERC721A.sol\":34656:35344  function _safeMint(... */\n    tag_307:\n        /* \"Azuki-ERC721A-ERC721ABurnableMock(copy)(copy)/ERC721A.sol\":34782:34801  _mint(to, quantity) */\n      tag_339\n        /* \"Azuki-ERC721A-ERC721ABurnableMock(copy)(copy)/ERC721A.sol\":34788:34790  to */\n      dup4\n        /* \"Azuki-ERC721A-ERC721ABurnableMock(copy)(copy)/ERC721A.sol\":34792:34800  quantity */\n      dup4\n        /* \"Azuki-ERC721A-ERC721ABurnableMock(copy)(copy)/ERC721A.sol\":34782:34787  _mint */\n      tag_340\n        /* \"Azuki-ERC721A-ERC721ABurnableMock(copy)(copy)/ERC721A.sol\":34782:34801  _mint(to, quantity) */\n      jump\t// in\n    tag_339:\n        /* \"Azuki-ERC721A-ERC721ABurnableMock(copy)(copy)/ERC721A.sol\":34840:34854  to.code.length */\n      0xffffffffffffffffffffffffffffffffffffffff\n      dup4\n      and\n      extcodesize\n        /* \"Azuki-ERC721A-ERC721ABurnableMock(copy)(copy)/ERC721A.sol\":34840:34859  to.code.length != 0 */\n      iszero\n        /* \"Azuki-ERC721A-ERC721ABurnableMock(copy)(copy)/ERC721A.sol\":34836:35328  if (to.code.length != 0) {... */\n      tag_188\n      jumpi\n        /* \"Azuki-ERC721A-ERC721ABurnableMock(copy)(copy)/ERC721A.sol\":34879:34890  uint256 end */\n      0x00\n        /* \"Azuki-ERC721A-ERC721ABurnableMock(copy)(copy)/ERC721A.sol\":34893:34906  _currentIndex */\n      sload\n        /* \"Azuki-ERC721A-ERC721ABurnableMock(copy)(copy)/ERC721A.sol\":34940:34954  end - quantity */\n      dup3\n      dup2\n      sub\n        /* \"Azuki-ERC721A-ERC721ABurnableMock(copy)(copy)/ERC721A.sol\":34972:35210  do {... */\n    tag_342:\n        /* \"Azuki-ERC721A-ERC721ABurnableMock(copy)(copy)/ERC721A.sol\":35002:35064  _checkContractOnERC721Received(address(0), to, index++, _data) */\n      tag_345\n        /* \"Azuki-ERC721A-ERC721ABurnableMock(copy)(copy)/ERC721A.sol\":35041:35042  0 */\n      0x00\n        /* \"Azuki-ERC721A-ERC721ABurnableMock(copy)(copy)/ERC721A.sol\":35045:35047  to */\n      dup7\n        /* \"Azuki-ERC721A-ERC721ABurnableMock(copy)(copy)/ERC721A.sol\":35049:35056  index++ */\n      dup4\n      dup1\n      0x01\n      add\n      swap5\n      pop\n        /* \"Azuki-ERC721A-ERC721ABurnableMock(copy)(copy)/ERC721A.sol\":35058:35063  _data */\n      dup7\n        /* \"Azuki-ERC721A-ERC721ABurnableMock(copy)(copy)/ERC721A.sol\":35002:35032  _checkContractOnERC721Received */\n      tag_219\n        /* \"Azuki-ERC721A-ERC721ABurnableMock(copy)(copy)/ERC721A.sol\":35002:35064  _checkContractOnERC721Received(address(0), to, index++, _data) */\n      jump\t// in\n    tag_345:\n        /* \"Azuki-ERC721A-ERC721ABurnableMock(copy)(copy)/ERC721A.sol\":34997:35171  if (!_checkContractOnERC721Received(address(0), to, index++, _data)) {... */\n      tag_347\n      jumpi\n        /* \"Azuki-ERC721A-ERC721ABurnableMock(copy)(copy)/ERC721A.sol\":35092:35148  _revert(TransferToNonERC721ReceiverImplementer.selector) */\n      tag_347\n        /* \"Azuki-ERC721A-ERC721ABurnableMock(copy)(copy)/ERC721A.sol\":35100:35147  TransferToNonERC721ReceiverImplementer.selector */\n      0xd1a57ed600000000000000000000000000000000000000000000000000000000\n        /* \"Azuki-ERC721A-ERC721ABurnableMock(copy)(copy)/ERC721A.sol\":35092:35099  _revert */\n      tag_147\n        /* \"Azuki-ERC721A-ERC721ABurnableMock(copy)(copy)/ERC721A.sol\":35092:35148  _revert(TransferToNonERC721ReceiverImplementer.selector) */\n      jump\t// in\n    tag_347:\n        /* \"Azuki-ERC721A-ERC721ABurnableMock(copy)(copy)/ERC721A.sol\":35205:35208  end */\n      dup2\n        /* \"Azuki-ERC721A-ERC721ABurnableMock(copy)(copy)/ERC721A.sol\":35197:35202  index */\n      dup2\n        /* \"Azuki-ERC721A-ERC721ABurnableMock(copy)(copy)/ERC721A.sol\":35197:35208  index < end */\n      lt\n        /* \"Azuki-ERC721A-ERC721ABurnableMock(copy)(copy)/ERC721A.sol\":34972:35210  do {... */\n      tag_342\n      jumpi\n        /* \"Azuki-ERC721A-ERC721ABurnableMock(copy)(copy)/ERC721A.sol\":35290:35293  end */\n      dup2\n        /* \"Azuki-ERC721A-ERC721ABurnableMock(copy)(copy)/ERC721A.sol\":35273:35286  _currentIndex */\n      sload(0x00)\n        /* \"Azuki-ERC721A-ERC721ABurnableMock(copy)(copy)/ERC721A.sol\":35273:35293  _currentIndex != end */\n      eq\n        /* \"Azuki-ERC721A-ERC721ABurnableMock(copy)(copy)/ERC721A.sol\":35269:35313  if (_currentIndex != end) _revert(bytes4(0)) */\n      tag_349\n      jumpi\n        /* \"Azuki-ERC721A-ERC721ABurnableMock(copy)(copy)/ERC721A.sol\":35295:35313  _revert(bytes4(0)) */\n      tag_349\n        /* \"Azuki-ERC721A-ERC721ABurnableMock(copy)(copy)/ERC721A.sol\":35310:35311  0 */\n      0x00\n        /* \"Azuki-ERC721A-ERC721ABurnableMock(copy)(copy)/ERC721A.sol\":35295:35302  _revert */\n      tag_147\n        /* \"Azuki-ERC721A-ERC721ABurnableMock(copy)(copy)/ERC721A.sol\":35295:35313  _revert(bytes4(0)) */\n      jump\t// in\n    tag_349:\n        /* \"Azuki-ERC721A-ERC721ABurnableMock(copy)(copy)/ERC721A.sol\":34861:35328  {... */\n      pop\n      pop\n        /* \"Azuki-ERC721A-ERC721ABurnableMock(copy)(copy)/ERC721A.sol\":34656:35344  function _safeMint(... */\n      pop\n      pop\n      pop\n      jump\t// out\n        /* \"Azuki-ERC721A-ERC721ABurnableMock(copy)(copy)/ERC721A.sol\":29696:31947  function _mint(address to, uint256 quantity) internal virtual {... */\n    tag_340:\n        /* \"Azuki-ERC721A-ERC721ABurnableMock(copy)(copy)/ERC721A.sol\":29768:29788  uint256 startTokenId */\n      0x00\n        /* \"Azuki-ERC721A-ERC721ABurnableMock(copy)(copy)/ERC721A.sol\":29791:29804  _currentIndex */\n      dup1\n      sload\n      swap1\n        /* \"Azuki-ERC721A-ERC721ABurnableMock(copy)(copy)/ERC721A.sol\":29818:29831  quantity == 0 */\n      dup3\n      swap1\n      sub\n        /* \"Azuki-ERC721A-ERC721ABurnableMock(copy)(copy)/ERC721A.sol\":29814:29867  if (quantity == 0) _revert(MintZeroQuantity.selector) */\n      tag_354\n      jumpi\n        /* \"Azuki-ERC721A-ERC721ABurnableMock(copy)(copy)/ERC721A.sol\":29833:29867  _revert(MintZeroQuantity.selector) */\n      tag_354\n        /* \"Azuki-ERC721A-ERC721ABurnableMock(copy)(copy)/ERC721A.sol\":29841:29866  MintZeroQuantity.selector */\n      0xb562e8dd00000000000000000000000000000000000000000000000000000000\n        /* \"Azuki-ERC721A-ERC721ABurnableMock(copy)(copy)/ERC721A.sol\":29833:29840  _revert */\n      tag_147\n        /* \"Azuki-ERC721A-ERC721ABurnableMock(copy)(copy)/ERC721A.sol\":29833:29867  _revert(MintZeroQuantity.selector) */\n      jump\t// in\n    tag_354:\n        /* \"Azuki-ERC721A-ERC721ABurnableMock(copy)(copy)/ERC721A.sol\":30367:30398  _packedOwnerships[startTokenId] */\n      0x00\n      dup2\n      dup2\n      mstore\n        /* \"Azuki-ERC721A-ERC721ABurnableMock(copy)(copy)/ERC721A.sol\":30367:30384  _packedOwnerships */\n      0x04\n        /* \"Azuki-ERC721A-ERC721ABurnableMock(copy)(copy)/ERC721A.sol\":30367:30398  _packedOwnerships[startTokenId] */\n      0x20\n      swap1\n      dup2\n      mstore\n      0x40\n      dup1\n      dup4\n      keccak256\n        /* \"Azuki-ERC721A-ERC721ABurnableMock(copy)(copy)/ERC721A.sol\":16900:16916  _BITMASK_ADDRESS */\n      0xffffffffffffffffffffffffffffffffffffffff\n        /* \"Azuki-ERC721A-ERC721ABurnableMock(copy)(copy)/ERC721A.sol\":16889:16917  and(owner, _BITMASK_ADDRESS) */\n      dup8\n      and\n        /* \"Azuki-ERC721A-ERC721ABurnableMock(copy)(copy)/ERC721A.sol\":17061:17072  timestamp() */\n      timestamp\n        /* \"Azuki-ERC721A-ERC721ABurnableMock(copy)(copy)/ERC721A.sol\":17036:17059  _BITPOS_START_TIMESTAMP */\n      0xa0\n        /* \"Azuki-ERC721A-ERC721ABurnableMock(copy)(copy)/ERC721A.sol\":17032:17073  shl(_BITPOS_START_TIMESTAMP, timestamp()) */\n      shl\n        /* \"Azuki-ERC721A-ERC721ABurnableMock(copy)(copy)/ERC721A.sol\":17494:17495  1 */\n      0x01\n        /* \"Azuki-ERC721A-ERC721ABurnableMock(copy)(copy)/ERC721A.sol\":17481:17496  eq(quantity, 1) */\n      dup9\n      eq\n        /* \"Azuki-ERC721A-ERC721ABurnableMock(copy)(copy)/ERC721A.sol\":17455:17479  _BITPOS_NEXT_INITIALIZED */\n      0xe1\n        /* \"Azuki-ERC721A-ERC721ABurnableMock(copy)(copy)/ERC721A.sol\":17451:17497  shl(_BITPOS_NEXT_INITIALIZED, eq(quantity, 1)) */\n      shl\n        /* \"Azuki-ERC721A-ERC721ABurnableMock(copy)(copy)/ERC721A.sol\":17029:17081  or(shl(_BITPOS_START_TIMESTAMP, timestamp()), flags) */\n      or\n        /* \"Azuki-ERC721A-ERC721ABurnableMock(copy)(copy)/ERC721A.sol\":17019:17082  or(owner, or(shl(_BITPOS_START_TIMESTAMP, timestamp()), flags)) */\n      dup2\n      or\n        /* \"Azuki-ERC721A-ERC721ABurnableMock(copy)(copy)/ERC721A.sol\":30367:30537  _packedOwnerships[startTokenId] = _packOwnershipData(... */\n      swap1\n      swap2\n      sstore\n        /* \"Azuki-ERC721A-ERC721ABurnableMock(copy)(copy)/ERC721A.sol\":30748:30770  _packedAddressData[to] */\n      dup1\n      dup5\n      mstore\n        /* \"Azuki-ERC721A-ERC721ABurnableMock(copy)(copy)/ERC721A.sol\":30748:30766  _packedAddressData */\n      0x05\n        /* \"Azuki-ERC721A-ERC721ABurnableMock(copy)(copy)/ERC721A.sol\":30748:30770  _packedAddressData[to] */\n      swap1\n      swap3\n      mstore\n      dup3\n      keccak256\n        /* \"Azuki-ERC721A-ERC721ABurnableMock(copy)(copy)/ERC721A.sol\":30748:30819  _packedAddressData[to] += quantity * ((1 << _BITPOS_NUMBER_MINTED) | 1) */\n      dup1\n      sload\n        /* \"Azuki-ERC721A-ERC721ABurnableMock(copy)(copy)/ERC721A.sol\":30786:30818  (1 << _BITPOS_NUMBER_MINTED) | 1 */\n      0x010000000000000001\n        /* \"Azuki-ERC721A-ERC721ABurnableMock(copy)(copy)/ERC721A.sol\":30774:30819  quantity * ((1 << _BITPOS_NUMBER_MINTED) | 1) */\n      dup7\n      mul\n        /* \"Azuki-ERC721A-ERC721ABurnableMock(copy)(copy)/ERC721A.sol\":30748:30819  _packedAddressData[to] += quantity * ((1 << _BITPOS_NUMBER_MINTED) | 1) */\n      add\n      swap1\n      sstore\n        /* \"Azuki-ERC721A-ERC721ABurnableMock(copy)(copy)/ERC721A.sol\":16889:16917  and(owner, _BITMASK_ADDRESS) */\n      swap1\n        /* \"Azuki-ERC721A-ERC721ABurnableMock(copy)(copy)/ERC721A.sol\":31004:31017  toMasked == 0 */\n      dup2\n      swap1\n      sub\n        /* \"Azuki-ERC721A-ERC721ABurnableMock(copy)(copy)/ERC721A.sol\":31000:31054  if (toMasked == 0) _revert(MintToZeroAddress.selector) */\n      tag_361\n      jumpi\n        /* \"Azuki-ERC721A-ERC721ABurnableMock(copy)(copy)/ERC721A.sol\":31019:31054  _revert(MintToZeroAddress.selector) */\n      tag_361\n        /* \"Azuki-ERC721A-ERC721ABurnableMock(copy)(copy)/ERC721A.sol\":31027:31053  MintToZeroAddress.selector */\n      0x2e07630000000000000000000000000000000000000000000000000000000000\n        /* \"Azuki-ERC721A-ERC721ABurnableMock(copy)(copy)/ERC721A.sol\":31019:31026  _revert */\n      tag_147\n        /* \"Azuki-ERC721A-ERC721ABurnableMock(copy)(copy)/ERC721A.sol\":31019:31054  _revert(MintToZeroAddress.selector) */\n      jump\t// in\n    tag_361:\n        /* \"Azuki-ERC721A-ERC721ABurnableMock(copy)(copy)/ERC721A.sol\":31083:31106  startTokenId + quantity */\n      dup2\n      dup4\n      add\n        /* \"Azuki-ERC721A-ERC721ABurnableMock(copy)(copy)/ERC721A.sol\":31083:31095  startTokenId */\n      dup3\n        /* \"Azuki-ERC721A-ERC721ABurnableMock(copy)(copy)/ERC721A.sol\":31165:31827  do {... */\n    tag_362:\n        /* \"Azuki-ERC721A-ERC721ABurnableMock(copy)(copy)/ERC721A.sol\":31575:31582  tokenId */\n      dup1\n        /* \"Azuki-ERC721A-ERC721ABurnableMock(copy)(copy)/ERC721A.sol\":31532:31540  toMasked */\n      dup4\n        /* \"Azuki-ERC721A-ERC721ABurnableMock(copy)(copy)/ERC721A.sol\":31488:31489  0 */\n      0x00\n        /* \"Azuki-ERC721A-ERC721ABurnableMock(copy)(copy)/ERC721A.sol\":31423:31448  _TRANSFER_EVENT_SIGNATURE */\n      0xddf252ad1be2c89b69c2b068fc378daa952ba7f163c4a11628f55a4df523b3ef\n        /* \"Azuki-ERC721A-ERC721ABurnableMock(copy)(copy)/ERC721A.sol\":31361:31362  0 */\n      0x00\n        /* \"Azuki-ERC721A-ERC721ABurnableMock(copy)(copy)/ERC721A.sol\":31297:31298  0 */\n      dup1\n        /* \"Azuki-ERC721A-ERC721ABurnableMock(copy)(copy)/ERC721A.sol\":31267:31618  log4(... */\n      log4\n        /* \"Azuki-ERC721A-ERC721ABurnableMock(copy)(copy)/ERC721A.sol\":31822:31825  end */\n      dup2\n        /* \"Azuki-ERC721A-ERC721ABurnableMock(copy)(copy)/ERC721A.sol\":31809:31818  ++tokenId */\n      dup2\n      0x01\n      add\n      swap2\n      pop\n      dup2\n        /* \"Azuki-ERC721A-ERC721ABurnableMock(copy)(copy)/ERC721A.sol\":31809:31825  ++tokenId != end */\n      sub\n        /* \"Azuki-ERC721A-ERC721ABurnableMock(copy)(copy)/ERC721A.sol\":31165:31827  do {... */\n      tag_362\n      jumpi\n      pop\n        /* \"Azuki-ERC721A-ERC721ABurnableMock(copy)(copy)/ERC721A.sol\":31841:31854  _currentIndex */\n      0x00\n        /* \"Azuki-ERC721A-ERC721ABurnableMock(copy)(copy)/ERC721A.sol\":31841:31860  _currentIndex = end */\n      sstore\n      pop\n        /* \"Azuki-ERC721A-ERC721ABurnableMock(copy)(copy)/ERC721A.sol\":25378:25565  function safeTransferFrom(... */\n      pop\n      pop\n      pop\n      jump\t// out\n        /* \"#utility.yul\":14:191   */\n    tag_367:\n        /* \"#utility.yul\":99:165   */\n      0xffffffff00000000000000000000000000000000000000000000000000000000\n        /* \"#utility.yul\":92:97   */\n      dup2\n        /* \"#utility.yul\":88:166   */\n      and\n        /* \"#utility.yul\":81:86   */\n      dup2\n        /* \"#utility.yul\":78:167   */\n      eq\n        /* \"#utility.yul\":68:185   */\n      tag_190\n      jumpi\n        /* \"#utility.yul\":181:182   */\n      0x00\n        /* \"#utility.yul\":178:179   */\n      dup1\n        /* \"#utility.yul\":171:183   */\n      revert\n        /* \"#utility.yul\":196:441   */\n    tag_33:\n        /* \"#utility.yul\":254:260   */\n      0x00\n        /* \"#utility.yul\":307:309   */\n      0x20\n        /* \"#utility.yul\":295:304   */\n      dup3\n        /* \"#utility.yul\":286:293   */\n      dup5\n        /* \"#utility.yul\":282:305   */\n      sub\n        /* \"#utility.yul\":278:310   */\n      slt\n        /* \"#utility.yul\":275:327   */\n      iszero\n      tag_376\n      jumpi\n        /* \"#utility.yul\":323:324   */\n      0x00\n        /* \"#utility.yul\":320:321   */\n      dup1\n        /* \"#utility.yul\":313:325   */\n      revert\n        /* \"#utility.yul\":275:327   */\n    tag_376:\n        /* \"#utility.yul\":362:371   */\n      dup2\n        /* \"#utility.yul\":349:372   */\n      calldataload\n        /* \"#utility.yul\":381:411   */\n      tag_229\n        /* \"#utility.yul\":405:410   */\n      dup2\n        /* \"#utility.yul\":381:411   */\n      tag_367\n      jump\t// in\n        /* \"#utility.yul\":638:888   */\n    tag_368:\n        /* \"#utility.yul\":723:724   */\n      0x00\n        /* \"#utility.yul\":733:846   */\n    tag_380:\n        /* \"#utility.yul\":747:753   */\n      dup4\n        /* \"#utility.yul\":744:745   */\n      dup2\n        /* \"#utility.yul\":741:754   */\n      lt\n        /* \"#utility.yul\":733:846   */\n      iszero\n      tag_382\n      jumpi\n        /* \"#utility.yul\":823:834   */\n      dup2\n      dup2\n      add\n        /* \"#utility.yul\":817:835   */\n      mload\n        /* \"#utility.yul\":804:815   */\n      dup4\n      dup3\n      add\n        /* \"#utility.yul\":797:836   */\n      mstore\n        /* \"#utility.yul\":769:771   */\n      0x20\n        /* \"#utility.yul\":762:772   */\n      add\n        /* \"#utility.yul\":733:846   */\n      jump(tag_380)\n    tag_382:\n      pop\n      pop\n        /* \"#utility.yul\":880:881   */\n      0x00\n        /* \"#utility.yul\":862:878   */\n      swap2\n      add\n        /* \"#utility.yul\":855:882   */\n      mstore\n        /* \"#utility.yul\":638:888   */\n      jump\t// out\n        /* \"#utility.yul\":893:1223   */\n    tag_369:\n        /* \"#utility.yul\":935:938   */\n      0x00\n        /* \"#utility.yul\":973:978   */\n      dup2\n        /* \"#utility.yul\":967:979   */\n      mload\n        /* \"#utility.yul\":1000:1006   */\n      dup1\n        /* \"#utility.yul\":995:998   */\n      dup5\n        /* \"#utility.yul\":988:1007   */\n      mstore\n        /* \"#utility.yul\":1016:1092   */\n      tag_384\n        /* \"#utility.yul\":1085:1091   */\n      dup2\n        /* \"#utility.yul\":1078:1082   */\n      0x20\n        /* \"#utility.yul\":1073:1076   */\n      dup7\n        /* \"#utility.yul\":1069:1083   */\n      add\n        /* \"#utility.yul\":1062:1066   */\n      0x20\n        /* \"#utility.yul\":1055:1060   */\n      dup7\n        /* \"#utility.yul\":1051:1067   */\n      add\n        /* \"#utility.yul\":1016:1092   */\n      tag_368\n      jump\t// in\n    tag_384:\n        /* \"#utility.yul\":1137:1139   */\n      0x1f\n        /* \"#utility.yul\":1125:1140   */\n      add\n        /* \"#utility.yul\":1142:1208   */\n      0xffffffffffffffffffffffffffffffffffffffffffffffffffffffffffffffe0\n        /* \"#utility.yul\":1121:1209   */\n      and\n        /* \"#utility.yul\":1112:1210   */\n      swap3\n      swap1\n      swap3\n      add\n        /* \"#utility.yul\":1212:1216   */\n      0x20\n        /* \"#utility.yul\":1108:1217   */\n      add\n      swap3\n        /* \"#utility.yul\":893:1223   */\n      swap2\n      pop\n      pop\n      jump\t// out\n        /* \"#utility.yul\":1228:1448   */\n    tag_41:\n        /* \"#utility.yul\":1377:1379   */\n      0x20\n        /* \"#utility.yul\":1366:1375   */\n      dup2\n        /* \"#utility.yul\":1359:1380   */\n      mstore\n        /* \"#utility.yul\":1340:1344   */\n      0x00\n        /* \"#utility.yul\":1397:1442   */\n      tag_229\n        /* \"#utility.yul\":1438:1440   */\n      0x20\n        /* \"#utility.yul\":1427:1436   */\n      dup4\n        /* \"#utility.yul\":1423:1441   */\n      add\n        /* \"#utility.yul\":1415:1421   */\n      dup5\n        /* \"#utility.yul\":1397:1442   */\n      tag_369\n      jump\t// in\n        /* \"#utility.yul\":1453:1679   */\n    tag_45:\n        /* \"#utility.yul\":1512:1518   */\n      0x00\n        /* \"#utility.yul\":1565:1567   */\n      0x20\n        /* \"#utility.yul\":1553:1562   */\n      dup3\n        /* \"#utility.yul\":1544:1551   */\n      dup5\n        /* \"#utility.yul\":1540:1563   */\n      sub\n        /* \"#utility.yul\":1536:1568   */\n      slt\n        /* \"#utility.yul\":1533:1585   */\n      iszero\n      tag_388\n      jumpi\n        /* \"#utility.yul\":1581:1582   */\n      0x00\n        /* \"#utility.yul\":1578:1579   */\n      dup1\n        /* \"#utility.yul\":1571:1583   */\n      revert\n        /* \"#utility.yul\":1533:1585   */\n    tag_388:\n      pop\n        /* \"#utility.yul\":1626:1649   */\n      calldataload\n      swap2\n        /* \"#utility.yul\":1453:1679   */\n      swap1\n      pop\n      jump\t// out\n        /* \"#utility.yul\":1915:2111   */\n    tag_370:\n        /* \"#utility.yul\":1983:2003   */\n      dup1\n      calldataload\n        /* \"#utility.yul\":2043:2085   */\n      0xffffffffffffffffffffffffffffffffffffffff\n        /* \"#utility.yul\":2032:2086   */\n      dup2\n      and\n        /* \"#utility.yul\":2022:2087   */\n      dup2\n      eq\n        /* \"#utility.yul\":2012:2105   */\n      tag_246\n      jumpi\n        /* \"#utility.yul\":2101:2102   */\n      0x00\n        /* \"#utility.yul\":2098:2099   */\n      dup1\n        /* \"#utility.yul\":2091:2103   */\n      revert\n        /* \"#utility.yul\":2116:2416   */\n    tag_51:\n        /* \"#utility.yul\":2184:2190   */\n      0x00\n        /* \"#utility.yul\":2192:2198   */\n      dup1\n        /* \"#utility.yul\":2245:2247   */\n      0x40\n        /* \"#utility.yul\":2233:2242   */\n      dup4\n        /* \"#utility.yul\":2224:2231   */\n      dup6\n        /* \"#utility.yul\":2220:2243   */\n      sub\n        /* \"#utility.yul\":2216:2248   */\n      slt\n        /* \"#utility.yul\":2213:2265   */\n      iszero\n      tag_393\n      jumpi\n        /* \"#utility.yul\":2261:2262   */\n      0x00\n        /* \"#utility.yul\":2258:2259   */\n      dup1\n        /* \"#utility.yul\":2251:2263   */\n      revert\n        /* \"#utility.yul\":2213:2265   */\n    tag_393:\n        /* \"#utility.yul\":2284:2313   */\n      tag_394\n        /* \"#utility.yul\":2303:2312   */\n      dup4\n        /* \"#utility.yul\":2284:2313   */\n      tag_370\n      jump\t// in\n    tag_394:\n        /* \"#utility.yul\":2274:2313   */\n      swap5\n        /* \"#utility.yul\":2382:2384   */\n      0x20\n        /* \"#utility.yul\":2367:2385   */\n      swap4\n      swap1\n      swap4\n      add\n        /* \"#utility.yul\":2354:2386   */\n      calldataload\n      swap4\n      pop\n      pop\n      pop\n        /* \"#utility.yul\":2116:2416   */\n      jump\t// out\n        /* \"#utility.yul\":2603:2977   */\n    tag_60:\n        /* \"#utility.yul\":2680:2686   */\n      0x00\n        /* \"#utility.yul\":2688:2694   */\n      dup1\n        /* \"#utility.yul\":2696:2702   */\n      0x00\n        /* \"#utility.yul\":2749:2751   */\n      0x60\n        /* \"#utility.yul\":2737:2746   */\n      dup5\n        /* \"#utility.yul\":2728:2735   */\n      dup7\n        /* \"#utility.yul\":2724:2747   */\n      sub\n        /* \"#utility.yul\":2720:2752   */\n      slt\n        /* \"#utility.yul\":2717:2769   */\n      iszero\n      tag_397\n      jumpi\n        /* \"#utility.yul\":2765:2766   */\n      0x00\n        /* \"#utility.yul\":2762:2763   */\n      dup1\n        /* \"#utility.yul\":2755:2767   */\n      revert\n        /* \"#utility.yul\":2717:2769   */\n    tag_397:\n        /* \"#utility.yul\":2788:2817   */\n      tag_398\n        /* \"#utility.yul\":2807:2816   */\n      dup5\n        /* \"#utility.yul\":2788:2817   */\n      tag_370\n      jump\t// in\n    tag_398:\n        /* \"#utility.yul\":2778:2817   */\n      swap3\n      pop\n        /* \"#utility.yul\":2836:2874   */\n      tag_399\n        /* \"#utility.yul\":2870:2872   */\n      0x20\n        /* \"#utility.yul\":2859:2868   */\n      dup6\n        /* \"#utility.yul\":2855:2873   */\n      add\n        /* \"#utility.yul\":2836:2874   */\n      tag_370\n      jump\t// in\n    tag_399:\n        /* \"#utility.yul\":2603:2977   */\n      swap3\n      swap6\n        /* \"#utility.yul\":2826:2874   */\n      swap3\n      swap5\n      pop\n      pop\n      pop\n        /* \"#utility.yul\":2943:2945   */\n      0x40\n        /* \"#utility.yul\":2928:2946   */\n      swap2\n      swap1\n      swap2\n      add\n        /* \"#utility.yul\":2915:2947   */\n      calldataload\n      swap1\n        /* \"#utility.yul\":2603:2977   */\n      jump\t// out\n        /* \"#utility.yul\":2982:3168   */\n    tag_65:\n        /* \"#utility.yul\":3041:3047   */\n      0x00\n        /* \"#utility.yul\":3094:3096   */\n      0x20\n        /* \"#utility.yul\":3082:3091   */\n      dup3\n        /* \"#utility.yul\":3073:3080   */\n      dup5\n        /* \"#utility.yul\":3069:3092   */\n      sub\n        /* \"#utility.yul\":3065:3097   */\n      slt\n        /* \"#utility.yul\":3062:3114   */\n      iszero\n      tag_401\n      jumpi\n        /* \"#utility.yul\":3110:3111   */\n      0x00\n        /* \"#utility.yul\":3107:3108   */\n      dup1\n        /* \"#utility.yul\":3100:3112   */\n      revert\n        /* \"#utility.yul\":3062:3114   */\n    tag_401:\n        /* \"#utility.yul\":3133:3162   */\n      tag_229\n        /* \"#utility.yul\":3152:3161   */\n      dup3\n        /* \"#utility.yul\":3133:3162   */\n      tag_370\n      jump\t// in\n        /* \"#utility.yul\":3173:3520   */\n    tag_101:\n        /* \"#utility.yul\":3238:3244   */\n      0x00\n        /* \"#utility.yul\":3246:3252   */\n      dup1\n        /* \"#utility.yul\":3299:3301   */\n      0x40\n        /* \"#utility.yul\":3287:3296   */\n      dup4\n        /* \"#utility.yul\":3278:3285   */\n      dup6\n        /* \"#utility.yul\":3274:3297   */\n      sub\n        /* \"#utility.yul\":3270:3302   */\n      slt\n        /* \"#utility.yul\":3267:3319   */\n      iszero\n      tag_404\n      jumpi\n        /* \"#utility.yul\":3315:3316   */\n      0x00\n        /* \"#utility.yul\":3312:3313   */\n      dup1\n        /* \"#utility.yul\":3305:3317   */\n      revert\n        /* \"#utility.yul\":3267:3319   */\n    tag_404:\n        /* \"#utility.yul\":3338:3367   */\n      tag_405\n        /* \"#utility.yul\":3357:3366   */\n      dup4\n        /* \"#utility.yul\":3338:3367   */\n      tag_370\n      jump\t// in\n    tag_405:\n        /* \"#utility.yul\":3328:3367   */\n      swap2\n      pop\n        /* \"#utility.yul\":3417:3419   */\n      0x20\n        /* \"#utility.yul\":3406:3415   */\n      dup4\n        /* \"#utility.yul\":3402:3420   */\n      add\n        /* \"#utility.yul\":3389:3421   */\n      calldataload\n        /* \"#utility.yul\":3464:3469   */\n      dup1\n        /* \"#utility.yul\":3457:3470   */\n      iszero\n        /* \"#utility.yul\":3450:3471   */\n      iszero\n        /* \"#utility.yul\":3443:3448   */\n      dup2\n        /* \"#utility.yul\":3440:3472   */\n      eq\n        /* \"#utility.yul\":3430:3490   */\n      tag_406\n      jumpi\n        /* \"#utility.yul\":3486:3487   */\n      0x00\n        /* \"#utility.yul\":3483:3484   */\n      dup1\n        /* \"#utility.yul\":3476:3488   */\n      revert\n        /* \"#utility.yul\":3430:3490   */\n    tag_406:\n        /* \"#utility.yul\":3509:3514   */\n      dup1\n        /* \"#utility.yul\":3499:3514   */\n      swap2\n      pop\n      pop\n        /* \"#utility.yul\":3173:3520   */\n      swap3\n      pop\n      swap3\n      swap1\n      pop\n      jump\t// out\n        /* \"#utility.yul\":3525:3709   */\n    tag_371:\n        /* \"#utility.yul\":3577:3654   */\n      0x4e487b7100000000000000000000000000000000000000000000000000000000\n        /* \"#utility.yul\":3574:3575   */\n      0x00\n        /* \"#utility.yul\":3567:3655   */\n      mstore\n        /* \"#utility.yul\":3674:3678   */\n      0x41\n        /* \"#utility.yul\":3671:3672   */\n      0x04\n        /* \"#utility.yul\":3664:3679   */\n      mstore\n        /* \"#utility.yul\":3698:3702   */\n      0x24\n        /* \"#utility.yul\":3695:3696   */\n      0x00\n        /* \"#utility.yul\":3688:3703   */\n      revert\n        /* \"#utility.yul\":3714:5039   */\n    tag_109:\n        /* \"#utility.yul\":3809:3815   */\n      0x00\n        /* \"#utility.yul\":3817:3823   */\n      dup1\n        /* \"#utility.yul\":3825:3831   */\n      0x00\n        /* \"#utility.yul\":3833:3839   */\n      dup1\n        /* \"#utility.yul\":3886:3889   */\n      0x80\n        /* \"#utility.yul\":3874:3883   */\n      dup6\n        /* \"#utility.yul\":3865:3872   */\n      dup8\n        /* \"#utility.yul\":3861:3884   */\n      sub\n        /* \"#utility.yul\":3857:3890   */\n      slt\n        /* \"#utility.yul\":3854:3907   */\n      iszero\n      tag_409\n      jumpi\n        /* \"#utility.yul\":3903:3904   */\n      0x00\n        /* \"#utility.yul\":3900:3901   */\n      dup1\n        /* \"#utility.yul\":3893:3905   */\n      revert\n        /* \"#utility.yul\":3854:3907   */\n    tag_409:\n        /* \"#utility.yul\":3926:3955   */\n      tag_410\n        /* \"#utility.yul\":3945:3954   */\n      dup6\n        /* \"#utility.yul\":3926:3955   */\n      tag_370\n      jump\t// in\n    tag_410:\n        /* \"#utility.yul\":3916:3955   */\n      swap4\n      pop\n        /* \"#utility.yul\":3974:4012   */\n      tag_411\n        /* \"#utility.yul\":4008:4010   */\n      0x20\n        /* \"#utility.yul\":3997:4006   */\n      dup7\n        /* \"#utility.yul\":3993:4011   */\n      add\n        /* \"#utility.yul\":3974:4012   */\n      tag_370\n      jump\t// in\n    tag_411:\n        /* \"#utility.yul\":3964:4012   */\n      swap3\n      pop\n        /* \"#utility.yul\":4081:4083   */\n      0x40\n        /* \"#utility.yul\":4066:4084   */\n      dup6\n      add\n        /* \"#utility.yul\":4053:4085   */\n      calldataload\n      swap2\n      pop\n        /* \"#utility.yul\":4160:4162   */\n      0x60\n        /* \"#utility.yul\":4145:4163   */\n      dup6\n      add\n        /* \"#utility.yul\":4132:4164   */\n      calldataload\n        /* \"#utility.yul\":4187:4205   */\n      0xffffffffffffffff\n        /* \"#utility.yul\":4176:4206   */\n      dup2\n      gt\n        /* \"#utility.yul\":4173:4223   */\n      iszero\n      tag_412\n      jumpi\n        /* \"#utility.yul\":4219:4220   */\n      0x00\n        /* \"#utility.yul\":4216:4217   */\n      dup1\n        /* \"#utility.yul\":4209:4221   */\n      revert\n        /* \"#utility.yul\":4173:4223   */\n    tag_412:\n        /* \"#utility.yul\":4242:4264   */\n      dup6\n      add\n        /* \"#utility.yul\":4295:4299   */\n      0x1f\n        /* \"#utility.yul\":4287:4300   */\n      dup2\n      add\n        /* \"#utility.yul\":4283:4310   */\n      dup8\n      sgt\n        /* \"#utility.yul\":4273:4328   */\n      tag_413\n      jumpi\n        /* \"#utility.yul\":4324:4325   */\n      0x00\n        /* \"#utility.yul\":4321:4322   */\n      dup1\n        /* \"#utility.yul\":4314:4326   */\n      revert\n        /* \"#utility.yul\":4273:4328   */\n    tag_413:\n        /* \"#utility.yul\":4364:4366   */\n      dup1\n        /* \"#utility.yul\":4351:4367   */\n      calldataload\n        /* \"#utility.yul\":4390:4408   */\n      0xffffffffffffffff\n        /* \"#utility.yul\":4382:4388   */\n      dup2\n        /* \"#utility.yul\":4379:4409   */\n      gt\n        /* \"#utility.yul\":4376:4432   */\n      iszero\n      tag_415\n      jumpi\n        /* \"#utility.yul\":4412:4430   */\n      tag_415\n      tag_371\n      jump\t// in\n    tag_415:\n        /* \"#utility.yul\":4461:4463   */\n      0x40\n        /* \"#utility.yul\":4455:4464   */\n      mload\n        /* \"#utility.yul\":4608:4674   */\n      0xffffffffffffffffffffffffffffffffffffffffffffffffffffffffffffffe0\n        /* \"#utility.yul\":4603:4605   */\n      0x3f\n        /* \"#utility.yul\":4534:4600   */\n      0xffffffffffffffffffffffffffffffffffffffffffffffffffffffffffffffe0\n        /* \"#utility.yul\":4527:4531   */\n      0x1f\n        /* \"#utility.yul\":4519:4525   */\n      dup6\n        /* \"#utility.yul\":4515:4532   */\n      add\n        /* \"#utility.yul\":4511:4601   */\n      and\n        /* \"#utility.yul\":4507:4606   */\n      add\n        /* \"#utility.yul\":4503:4675   */\n      and\n        /* \"#utility.yul\":4495:4501   */\n      dup2\n        /* \"#utility.yul\":4491:4676   */\n      add\n        /* \"#utility.yul\":4742:4748   */\n      dup2\n        /* \"#utility.yul\":4730:4740   */\n      dup2\n        /* \"#utility.yul\":4727:4749   */\n      lt\n        /* \"#utility.yul\":4706:4724   */\n      0xffffffffffffffff\n        /* \"#utility.yul\":4694:4704   */\n      dup3\n        /* \"#utility.yul\":4691:4725   */\n      gt\n        /* \"#utility.yul\":4688:4750   */\n      or\n        /* \"#utility.yul\":4685:4773   */\n      iszero\n      tag_417\n      jumpi\n        /* \"#utility.yul\":4753:4771   */\n      tag_417\n      tag_371\n      jump\t// in\n    tag_417:\n        /* \"#utility.yul\":4789:4791   */\n      0x40\n        /* \"#utility.yul\":4782:4804   */\n      mstore\n        /* \"#utility.yul\":4813:4835   */\n      dup2\n      dup2\n      mstore\n        /* \"#utility.yul\":4854:4869   */\n      dup3\n      dup3\n      add\n        /* \"#utility.yul\":4871:4873   */\n      0x20\n        /* \"#utility.yul\":4850:4874   */\n      add\n        /* \"#utility.yul\":4847:4884   */\n      dup10\n      lt\n        /* \"#utility.yul\":4844:4901   */\n      iszero\n      tag_418\n      jumpi\n        /* \"#utility.yul\":4897:4898   */\n      0x00\n        /* \"#utility.yul\":4894:4895   */\n      dup1\n        /* \"#utility.yul\":4887:4899   */\n      revert\n        /* \"#utility.yul\":4844:4901   */\n    tag_418:\n        /* \"#utility.yul\":4953:4959   */\n      dup2\n        /* \"#utility.yul\":4948:4950   */\n      0x20\n        /* \"#utility.yul\":4944:4946   */\n      dup5\n        /* \"#utility.yul\":4940:4951   */\n      add\n        /* \"#utility.yul\":4935:4937   */\n      0x20\n        /* \"#utility.yul\":4927:4933   */\n      dup4\n        /* \"#utility.yul\":4923:4938   */\n      add\n        /* \"#utility.yul\":4910:4960   */\n      calldatacopy\n        /* \"#utility.yul\":5006:5007   */\n      0x00\n        /* \"#utility.yul\":5001:5003   */\n      0x20\n        /* \"#utility.yul\":4992:4998   */\n      dup4\n        /* \"#utility.yul\":4984:4990   */\n      dup4\n        /* \"#utility.yul\":4980:4999   */\n      add\n        /* \"#utility.yul\":4976:5004   */\n      add\n        /* \"#utility.yul\":4969:5008   */\n      mstore\n        /* \"#utility.yul\":5027:5033   */\n      dup1\n        /* \"#utility.yul\":5017:5033   */\n      swap4\n      pop\n      pop\n      pop\n      pop\n        /* \"#utility.yul\":3714:5039   */\n      swap3\n      swap6\n      swap2\n      swap5\n      pop\n      swap3\n      pop\n      jump\t// out\n        /* \"#utility.yul\":5044:5304   */\n    tag_123:\n        /* \"#utility.yul\":5112:5118   */\n      0x00\n        /* \"#utility.yul\":5120:5126   */\n      dup1\n        /* \"#utility.yul\":5173:5175   */\n      0x40\n        /* \"#utility.yul\":5161:5170   */\n      dup4\n        /* \"#utility.yul\":5152:5159   */\n      dup6\n        /* \"#utility.yul\":5148:5171   */\n      sub\n        /* \"#utility.yul\":5144:5176   */\n      slt\n        /* \"#utility.yul\":5141:5193   */\n      iszero\n      tag_420\n      jumpi\n        /* \"#utility.yul\":5189:5190   */\n      0x00\n        /* \"#utility.yul\":5186:5187   */\n      dup1\n        /* \"#utility.yul\":5179:5191   */\n      revert\n        /* \"#utility.yul\":5141:5193   */\n    tag_420:\n        /* \"#utility.yul\":5212:5241   */\n      tag_421\n        /* \"#utility.yul\":5231:5240   */\n      dup4\n        /* \"#utility.yul\":5212:5241   */\n      tag_370\n      jump\t// in\n    tag_421:\n        /* \"#utility.yul\":5202:5241   */\n      swap2\n      pop\n        /* \"#utility.yul\":5260:5298   */\n      tag_422\n        /* \"#utility.yul\":5294:5296   */\n      0x20\n        /* \"#utility.yul\":5283:5292   */\n      dup5\n        /* \"#utility.yul\":5279:5297   */\n      add\n        /* \"#utility.yul\":5260:5298   */\n      tag_370\n      jump\t// in\n    tag_422:\n        /* \"#utility.yul\":5250:5298   */\n      swap1\n      pop\n        /* \"#utility.yul\":5044:5304   */\n      swap3\n      pop\n      swap3\n      swap1\n      pop\n      jump\t// out\n        /* \"#utility.yul\":5857:6294   */\n    tag_137:\n        /* \"#utility.yul\":5936:5937   */\n      0x01\n        /* \"#utility.yul\":5932:5944   */\n      dup2\n      dup2\n      shr\n      swap1\n        /* \"#utility.yul\":5979:5991   */\n      dup3\n      and\n      dup1\n        /* \"#utility.yul\":6000:6061   */\n      tag_425\n      jumpi\n        /* \"#utility.yul\":6054:6058   */\n      0x7f\n        /* \"#utility.yul\":6046:6052   */\n      dup3\n        /* \"#utility.yul\":6042:6059   */\n      and\n        /* \"#utility.yul\":6032:6059   */\n      swap2\n      pop\n        /* \"#utility.yul\":6000:6061   */\n    tag_425:\n        /* \"#utility.yul\":6107:6109   */\n      0x20\n        /* \"#utility.yul\":6099:6105   */\n      dup3\n        /* \"#utility.yul\":6096:6110   */\n      lt\n        /* \"#utility.yul\":6076:6094   */\n      dup2\n        /* \"#utility.yul\":6073:6111   */\n      sub\n        /* \"#utility.yul\":6070:6288   */\n      tag_426\n      jumpi\n        /* \"#utility.yul\":6144:6221   */\n      0x4e487b7100000000000000000000000000000000000000000000000000000000\n        /* \"#utility.yul\":6141:6142   */\n      0x00\n        /* \"#utility.yul\":6134:6222   */\n      mstore\n        /* \"#utility.yul\":6245:6249   */\n      0x22\n        /* \"#utility.yul\":6242:6243   */\n      0x04\n        /* \"#utility.yul\":6235:6250   */\n      mstore\n        /* \"#utility.yul\":6273:6277   */\n      0x24\n        /* \"#utility.yul\":6270:6271   */\n      0x00\n        /* \"#utility.yul\":6263:6278   */\n      revert\n        /* \"#utility.yul\":6070:6288   */\n    tag_426:\n      pop\n        /* \"#utility.yul\":5857:6294   */\n      swap2\n      swap1\n      pop\n      jump\t// out\n        /* \"#utility.yul\":6299:6795   */\n    tag_233:\n        /* \"#utility.yul\":6478:6481   */\n      0x00\n        /* \"#utility.yul\":6516:6522   */\n      dup4\n        /* \"#utility.yul\":6510:6523   */\n      mload\n        /* \"#utility.yul\":6532:6598   */\n      tag_428\n        /* \"#utility.yul\":6591:6597   */\n      dup2\n        /* \"#utility.yul\":6586:6589   */\n      dup5\n        /* \"#utility.yul\":6579:6583   */\n      0x20\n        /* \"#utility.yul\":6571:6577   */\n      dup9\n        /* \"#utility.yul\":6567:6584   */\n      add\n        /* \"#utility.yul\":6532:6598   */\n      tag_368\n      jump\t// in\n    tag_428:\n        /* \"#utility.yul\":6661:6674   */\n      dup4\n      mload\n        /* \"#utility.yul\":6620:6636   */\n      swap1\n      dup4\n      add\n      swap1\n        /* \"#utility.yul\":6683:6753   */\n      tag_429\n        /* \"#utility.yul\":6661:6674   */\n      dup2\n        /* \"#utility.yul\":6620:6636   */\n      dup4\n        /* \"#utility.yul\":6730:6734   */\n      0x20\n        /* \"#utility.yul\":6718:6735   */\n      dup9\n      add\n        /* \"#utility.yul\":6683:6753   */\n      tag_368\n      jump\t// in\n    tag_429:\n        /* \"#utility.yul\":6769:6789   */\n      add\n      swap5\n        /* \"#utility.yul\":6299:6795   */\n      swap4\n      pop\n      pop\n      pop\n      pop\n      jump\t// out\n        /* \"#utility.yul\":6800:7150   */\n    tag_250:\n        /* \"#utility.yul\":6839:6842   */\n      0x00\n        /* \"#utility.yul\":6867:6872   */\n      dup2\n        /* \"#utility.yul\":6857:7050   */\n      tag_431\n      jumpi\n        /* \"#utility.yul\":6906:6983   */\n      0x4e487b7100000000000000000000000000000000000000000000000000000000\n        /* \"#utility.yul\":6903:6904   */\n      0x00\n        /* \"#utility.yul\":6896:6984   */\n      mstore\n        /* \"#utility.yul\":7007:7011   */\n      0x11\n        /* \"#utility.yul\":7004:7005   */\n      0x04\n        /* \"#utility.yul\":6997:7012   */\n      mstore\n        /* \"#utility.yul\":7035:7039   */\n      0x24\n        /* \"#utility.yul\":7032:7033   */\n      0x00\n        /* \"#utility.yul\":7025:7040   */\n      revert\n        /* \"#utility.yul\":6857:7050   */\n    tag_431:\n      pop\n        /* \"#utility.yul\":7077:7143   */\n      0xffffffffffffffffffffffffffffffffffffffffffffffffffffffffffffffff\n        /* \"#utility.yul\":7066:7144   */\n      add\n      swap1\n        /* \"#utility.yul\":6800:7150   */\n      jump\t// out\n        /* \"#utility.yul\":7155:7686   */\n    tag_313:\n        /* \"#utility.yul\":7398:7440   */\n      0xffffffffffffffffffffffffffffffffffffffff\n        /* \"#utility.yul\":7390:7396   */\n      dup6\n        /* \"#utility.yul\":7386:7441   */\n      and\n        /* \"#utility.yul\":7375:7384   */\n      dup2\n        /* \"#utility.yul\":7368:7442   */\n      mstore\n        /* \"#utility.yul\":7490:7532   */\n      0xffffffffffffffffffffffffffffffffffffffff\n        /* \"#utility.yul\":7482:7488   */\n      dup5\n        /* \"#utility.yul\":7478:7533   */\n      and\n        /* \"#utility.yul\":7473:7475   */\n      0x20\n        /* \"#utility.yul\":7462:7471   */\n      dup3\n        /* \"#utility.yul\":7458:7476   */\n      add\n        /* \"#utility.yul\":7451:7534   */\n      mstore\n        /* \"#utility.yul\":7570:7576   */\n      dup3\n        /* \"#utility.yul\":7565:7567   */\n      0x40\n        /* \"#utility.yul\":7554:7563   */\n      dup3\n        /* \"#utility.yul\":7550:7568   */\n      add\n        /* \"#utility.yul\":7543:7577   */\n      mstore\n        /* \"#utility.yul\":7613:7616   */\n      0x80\n        /* \"#utility.yul\":7608:7610   */\n      0x60\n        /* \"#utility.yul\":7597:7606   */\n      dup3\n        /* \"#utility.yul\":7593:7611   */\n      add\n        /* \"#utility.yul\":7586:7617   */\n      mstore\n        /* \"#utility.yul\":7349:7353   */\n      0x00\n        /* \"#utility.yul\":7634:7680   */\n      tag_433\n        /* \"#utility.yul\":7675:7678   */\n      0x80\n        /* \"#utility.yul\":7664:7673   */\n      dup4\n        /* \"#utility.yul\":7660:7679   */\n      add\n        /* \"#utility.yul\":7652:7658   */\n      dup5\n        /* \"#utility.yul\":7634:7680   */\n      tag_369\n      jump\t// in\n    tag_433:\n        /* \"#utility.yul\":7626:7680   */\n      swap7\n        /* \"#utility.yul\":7155:7686   */\n      swap6\n      pop\n      pop\n      pop\n      pop\n      pop\n      pop\n      jump\t// out\n        /* \"#utility.yul\":7691:7940   */\n    tag_316:\n        /* \"#utility.yul\":7760:7766   */\n      0x00\n        /* \"#utility.yul\":7813:7815   */\n      0x20\n        /* \"#utility.yul\":7801:7810   */\n      dup3\n        /* \"#utility.yul\":7792:7799   */\n      dup5\n        /* \"#utility.yul\":7788:7811   */\n      sub\n        /* \"#utility.yul\":7784:7816   */\n      slt\n        /* \"#utility.yul\":7781:7833   */\n      iszero\n      tag_435\n      jumpi\n        /* \"#utility.yul\":7829:7830   */\n      0x00\n        /* \"#utility.yul\":7826:7827   */\n      dup1\n        /* \"#utility.yul\":7819:7831   */\n      revert\n        /* \"#utility.yul\":7781:7833   */\n    tag_435:\n        /* \"#utility.yul\":7861:7870   */\n      dup2\n        /* \"#utility.yul\":7855:7871   */\n      mload\n        /* \"#utility.yul\":7880:7910   */\n      tag_229\n        /* \"#utility.yul\":7904:7909   */\n      dup2\n        /* \"#utility.yul\":7880:7910   */\n      tag_367\n      jump\t// in\n\n    auxdata: 0xa2646970667358221220221959a2f4c8296ff1e8e373a93622e8879ae1b5f1e34e4ddb9141831d8a2bda64736f6c634300081b0033\n}\n",
				"bytecode": {
					"linkReferences": {},
					"object": "608060405234801561001057600080fd5b50604051611b92380380611b9283398101604081905261002f91610112565b8181600261003d8382610204565b50600361004a8282610204565b5060008055506102c292505050565b634e487b7160e01b600052604160045260246000fd5b600082601f83011261008057600080fd5b81516001600160401b0381111561009957610099610059565b604051601f8201601f19908116603f011681016001600160401b03811182821017156100c7576100c7610059565b6040528181528382016020018510156100df57600080fd5b60005b828110156100fe576020818601810151838301820152016100e2565b506000918101602001919091529392505050565b6000806040838503121561012557600080fd5b82516001600160401b0381111561013b57600080fd5b6101478582860161006f565b602085015190935090506001600160401b0381111561016557600080fd5b6101718582860161006f565b9150509250929050565b600181811c9082168061018f57607f821691505b6020821081036101af57634e487b7160e01b600052602260045260246000fd5b50919050565b601f8211156101ff57806000526020600020601f840160051c810160208510156101dc5750805b601f840160051c820191505b818110156101fc57600081556001016101e8565b50505b505050565b81516001600160401b0381111561021d5761021d610059565b6102318161022b845461017b565b846101b5565b6020601f821160018114610265576000831561024d5750848201515b600019600385901b1c1916600184901b1784556101fc565b600084815260208120601f198516915b828110156102955787850151825560209485019460019092019101610275565b50848210156102b35786840151600019600387901b60f8161c191681555b50505050600190811b01905550565b6118c1806102d16000396000f3fe60806040526004361061016a5760003560e01c80636352211e116100cb578063a2309ff81161007f578063d89135cd11610059578063d89135cd146103a6578063e985e9c5146103bb578063f25236331461041157600080fd5b8063a2309ff81461035e578063b88d4fde14610373578063c87b56dd1461038657600080fd5b806395d89b41116100b057806395d89b4114610309578063a14481941461031e578063a22cb4651461033e57600080fd5b80636352211e146102c957806370a08231146102e957600080fd5b806323b872dd1161012257806342842e0e1161010757806342842e0e1461027657806342966c68146102895780634f558e79146102a957600080fd5b806323b872dd146102435780632478d6391461025657600080fd5b8063081812fc11610153578063081812fc146101c6578063095ea7b31461020b57806318160ddd1461022057600080fd5b806301ffc9a71461016f57806306fdde03146101a4575b600080fd5b34801561017b57600080fd5b5061018f61018a366004611419565b61048b565b60405190151581526020015b60405180910390f35b3480156101b057600080fd5b506101b9610570565b60405161019b91906114a4565b3480156101d257600080fd5b506101e66101e13660046114b7565b610602565b60405173ffffffffffffffffffffffffffffffffffffffff909116815260200161019b565b61021e6102193660046114f4565b610663565b005b34801561022c57600080fd5b50600154600054035b60405190815260200161019b565b61021e61025136600461151e565b610673565b34801561026257600080fd5b5061023561027136600461155b565b6108b2565b61021e61028436600461151e565b6108ed565b34801561029557600080fd5b5061021e6102a43660046114b7565b61090d565b3480156102b557600080fd5b5061018f6102c43660046114b7565b61091b565b3480156102d557600080fd5b506101e66102e43660046114b7565b610926565b3480156102f557600080fd5b5061023561030436600461155b565b610931565b34801561031557600080fd5b506101b96109aa565b34801561032a57600080fd5b5061021e6103393660046114f4565b6109b9565b34801561034a57600080fd5b5061021e610359366004611576565b6109c3565b34801561036a57600080fd5b50600054610235565b61021e6103813660046115e1565b610a5f565b34801561039257600080fd5b506101b96103a13660046114b7565b610ac6565b3480156103b257600080fd5b50610235610b67565b3480156103c757600080fd5b5061018f6103d6366004611702565b73ffffffffffffffffffffffffffffffffffffffff918216600090815260076020908152604080832093909416825291909152205460ff1690565b34801561041d57600080fd5b5061043161042c3660046114b7565b610b72565b60405161019b9190815173ffffffffffffffffffffffffffffffffffffffff16815260208083015167ffffffffffffffff169082015260408083015115159082015260609182015162ffffff169181019190915260800190565b60007f01ffc9a7000000000000000000000000000000000000000000000000000000007fffffffff000000000000000000000000000000000000000000000000000000008316148061051e57507f80ac58cd000000000000000000000000000000000000000000000000000000007fffffffff000000000000000000000000000000000000000000000000000000008316145b8061056a57507f5b5e139f000000000000000000000000000000000000000000000000000000007fffffffff000000000000000000000000000000000000000000000000000000008316145b92915050565b60606002805461057f90611735565b80601f01602080910402602001604051908101604052809291908181526020018280546105ab90611735565b80156105f85780601f106105cd576101008083540402835291602001916105f8565b820191906000526020600020905b8154815290600101906020018083116105db57829003601f168201915b5050505050905090565b600061060d82610b9f565b61063a5761063a7fcf4700e400000000000000000000000000000000000000000000000000000000610bfd565b5060009081526006602052604090205473ffffffffffffffffffffffffffffffffffffffff1690565b61066f82826001610c07565b5050565b600061067e82610cf5565b73ffffffffffffffffffffffffffffffffffffffff94851694909150811684146106cb576106cb7fa114810000000000000000000000000000000000000000000000000000000000610bfd565b600082815260066020526040902080546107048187335b73ffffffffffffffffffffffffffffffffffffffff9081169116811491141790565b61073f5761071286336103d6565b61073f5761073f7f59c896be00000000000000000000000000000000000000000000000000000000610bfd565b801561074a57600082555b73ffffffffffffffffffffffffffffffffffffffff86811660009081526005602052604080822080547fffffffffffffffffffffffffffffffffffffffffffffffffffffffffffffffff019055918716808252919020805460010190554260a01b177c0200000000000000000000000000000000000000000000000000000000176000858152600460205260408120919091557c020000000000000000000000000000000000000000000000000000000084169003610839576001840160008181526004602052604081205490036108375760005481146108375760008181526004602052604090208490555b505b73ffffffffffffffffffffffffffffffffffffffff85168481887fddf252ad1be2c89b69c2b068fc378daa952ba7f163c4a11628f55a4df523b3ef600080a4806000036108a9576108a97fea553b3400000000000000000000000000000000000000000000000000000000610bfd565b50505050505050565b600061056a8273ffffffffffffffffffffffffffffffffffffffff1660009081526005602052604090205460801c67ffffffffffffffff1690565b61090883838360405180602001604052806000815250610a5f565b505050565b610918816001610e26565b50565b600061056a82610b9f565b600061056a82610cf5565b600073ffffffffffffffffffffffffffffffffffffffff8216610977576109777f8f4eb60400000000000000000000000000000000000000000000000000000000610bfd565b5073ffffffffffffffffffffffffffffffffffffffff1660009081526005602052604090205467ffffffffffffffff1690565b60606003805461057f90611735565b61066f8282610fcc565b33600081815260076020908152604080832073ffffffffffffffffffffffffffffffffffffffff87168085529083529281902080547fffffffffffffffffffffffffffffffffffffffffffffffffffffffffffffff001686151590811790915590519081529192917f17307eab39ab6107e8899845ad3d59bd9653f200f220920489ca2b5937696c31910160405180910390a35050565b905090565b610a6a848484610673565b73ffffffffffffffffffffffffffffffffffffffff83163b15610ac057610a9384848484610fe6565b610ac057610ac07fd1a57ed600000000000000000000000000000000000000000000000000000000610bfd565b50505050565b6060610ad182610b9f565b610afe57610afe7fa14c4b5000000000000000000000000000000000000000000000000000000000610bfd565b6000610b1560408051602081019091526000815290565b90508051600003610b355760405180602001604052806000815250610b60565b80610b3f84611156565b604051602001610b50929190611788565b6040516020818303038152906040525b9392505050565b6000610a5a60015490565b60408051608081018252600080825260208201819052918101829052606081019190915261056a826111b8565b60008054821015610bf85760005b5060008281526004602052604081205490819003610bd557610bce836117b7565b9250610bad565b7c0100000000000000000000000000000000000000000000000000000000161590505b919050565b8060005260046000fd5b6000610c1283610926565b9050818015610c3757503373ffffffffffffffffffffffffffffffffffffffff821614155b15610c7357610c4681336103d6565b610c7357610c737fcfb3b94200000000000000000000000000000000000000000000000000000000610bfd565b60008381526006602052604080822080547fffffffffffffffffffffffff00000000000000000000000000000000000000001673ffffffffffffffffffffffffffffffffffffffff88811691821790925591518693918516917f8c5be1e5ebec7d5bd14f71427d1e84f3dd0314c0f7b2291e5b200ac8c7c3b92591a450505050565b60008181526004602052604081205490819003610dd1576000548210610d3e57610d3e7fdf2d9b4200000000000000000000000000000000000000000000000000000000610bfd565b5b507fffffffffffffffffffffffffffffffffffffffffffffffffffffffffffffffff016000818152600460205260409020548015610d3f577c01000000000000000000000000000000000000000000000000000000008116600003610da357919050565b610dcc7fdf2d9b4200000000000000000000000000000000000000000000000000000000610bfd565b610d3f565b7c01000000000000000000000000000000000000000000000000000000008116600003610dfd57919050565b610bf87fdf2d9b4200000000000000000000000000000000000000000000000000000000610bfd565b6000610e3183610cf5565b905080600080610e4f86600090815260066020526040902080549091565b915091508415610e9f57610e648184336106e2565b610e9f57610e7283336103d6565b610e9f57610e9f7f59c896be00000000000000000000000000000000000000000000000000000000610bfd565b8015610eaa57600082555b73ffffffffffffffffffffffffffffffffffffffff8316600081815260056020526040902080546fffffffffffffffffffffffffffffffff0190554260a01b177c0300000000000000000000000000000000000000000000000000000000176000878152600460205260408120919091557c020000000000000000000000000000000000000000000000000000000085169003610f7757600186016000818152600460205260408120549003610f75576000548114610f755760008181526004602052604090208590555b505b604051869060009073ffffffffffffffffffffffffffffffffffffffff8616907fddf252ad1be2c89b69c2b068fc378daa952ba7f163c4a11628f55a4df523b3ef908390a45050600180548101905550505050565b61066f82826040518060200160405280600081525061125d565b6040517f150b7a0200000000000000000000000000000000000000000000000000000000815260009073ffffffffffffffffffffffffffffffffffffffff85169063150b7a0290611041903390899088908890600401611813565b6020604051808303816000875af192505050801561109a575060408051601f3d9081017fffffffffffffffffffffffffffffffffffffffffffffffffffffffffffffffe01682019092526110979181019061186e565b60015b611108573d8080156110c8576040519150601f19603f3d011682016040523d82523d6000602084013e6110cd565b606091505b508051600003611100576111007fd1a57ed600000000000000000000000000000000000000000000000000000000610bfd565b805181602001fd5b7fffffffff00000000000000000000000000000000000000000000000000000000167f150b7a0200000000000000000000000000000000000000000000000000000000149050949350505050565b606060a06040510180604052602081039150506000815280825b600183039250600a81066030018353600a90048061117057508190037fffffffffffffffffffffffffffffffffffffffffffffffffffffffffffffffe0909101908152919050565b60408051608081018252600080825260208201819052918101829052606081019190915260008281526004602052604090205461056a906040805160808101825273ffffffffffffffffffffffffffffffffffffffff8316815260a083901c67ffffffffffffffff1660208201527c0100000000000000000000000000000000000000000000000000000000831615159181019190915260e89190911c606082015290565b61126783836112ec565b73ffffffffffffffffffffffffffffffffffffffff83163b15610908576000548281035b61129e6000868380600101945086610fe6565b6112cb576112cb7fd1a57ed600000000000000000000000000000000000000000000000000000000610bfd565b81811061128b5781600054146112e5576112e56000610bfd565b5050505050565b6000805490829003611321576113217fb562e8dd00000000000000000000000000000000000000000000000000000000610bfd565b600081815260046020908152604080832073ffffffffffffffffffffffffffffffffffffffff87164260a01b6001881460e11b178117909155808452600590925282208054680100000000000000018602019055908190036113a6576113a67f2e07630000000000000000000000000000000000000000000000000000000000610bfd565b818301825b808360007fddf252ad1be2c89b69c2b068fc378daa952ba7f163c4a11628f55a4df523b3ef600080a48181600101915081036113ab575060005550505050565b7fffffffff000000000000000000000000000000000000000000000000000000008116811461091857600080fd5b60006020828403121561142b57600080fd5b8135610b60816113eb565b60005b83811015611451578181015183820152602001611439565b50506000910152565b60008151808452611472816020860160208601611436565b601f017fffffffffffffffffffffffffffffffffffffffffffffffffffffffffffffffe0169290920160200192915050565b602081526000610b60602083018461145a565b6000602082840312156114c957600080fd5b5035919050565b803573ffffffffffffffffffffffffffffffffffffffff81168114610bf857600080fd5b6000806040838503121561150757600080fd5b611510836114d0565b946020939093013593505050565b60008060006060848603121561153357600080fd5b61153c846114d0565b925061154a602085016114d0565b929592945050506040919091013590565b60006020828403121561156d57600080fd5b610b60826114d0565b6000806040838503121561158957600080fd5b611592836114d0565b9150602083013580151581146115a757600080fd5b809150509250929050565b7f4e487b7100000000000000000000000000000000000000000000000000000000600052604160045260246000fd5b600080600080608085870312156115f757600080fd5b611600856114d0565b935061160e602086016114d0565b925060408501359150606085013567ffffffffffffffff81111561163157600080fd5b8501601f8101871361164257600080fd5b803567ffffffffffffffff81111561165c5761165c6115b2565b6040517fffffffffffffffffffffffffffffffffffffffffffffffffffffffffffffffe0603f7fffffffffffffffffffffffffffffffffffffffffffffffffffffffffffffffe0601f8501160116810181811067ffffffffffffffff821117156116c8576116c86115b2565b6040528181528282016020018910156116e057600080fd5b8160208401602083013760006020838301015280935050505092959194509250565b6000806040838503121561171557600080fd5b61171e836114d0565b915061172c602084016114d0565b90509250929050565b600181811c9082168061174957607f821691505b602082108103611782577f4e487b7100000000000000000000000000000000000000000000000000000000600052602260045260246000fd5b50919050565b6000835161179a818460208801611436565b8351908301906117ae818360208801611436565b01949350505050565b6000816117ed577f4e487b7100000000000000000000000000000000000000000000000000000000600052601160045260246000fd5b507fffffffffffffffffffffffffffffffffffffffffffffffffffffffffffffffff0190565b73ffffffffffffffffffffffffffffffffffffffff8516815273ffffffffffffffffffffffffffffffffffffffff84166020820152826040820152608060608201526000611864608083018461145a565b9695505050505050565b60006020828403121561188057600080fd5b8151610b60816113eb56fea2646970667358221220221959a2f4c8296ff1e8e373a93622e8879ae1b5f1e34e4ddb9141831d8a2bda64736f6c634300081b0033",
					"opcodes": "PUSH1 0x80 PUSH1 0x40 MSTORE CALLVALUE DUP1 ISZERO PUSH2 0x10 JUMPI PUSH1 0x0 DUP1 REVERT JUMPDEST POP PUSH1 0x40 MLOAD PUSH2 0x1B92 CODESIZE SUB DUP1 PUSH2 0x1B92 DUP4 CODECOPY DUP2 ADD PUSH1 0x40 DUP2 SWAP1 MSTORE PUSH2 0x2F SWAP2 PUSH2 0x112 JUMP JUMPDEST DUP2 DUP2 PUSH1 0x2 PUSH2 0x3D DUP4 DUP3 PUSH2 0x204 JUMP JUMPDEST POP PUSH1 0x3 PUSH2 0x4A DUP3 DUP3 PUSH2 0x204 JUMP JUMPDEST POP PUSH1 0x0 DUP1 SSTORE POP PUSH2 0x2C2 SWAP3 POP POP POP JUMP JUMPDEST PUSH4 0x4E487B71 PUSH1 0xE0 SHL PUSH1 0x0 MSTORE PUSH1 0x41 PUSH1 0x4 MSTORE PUSH1 0x24 PUSH1 0x0 REVERT JUMPDEST PUSH1 0x0 DUP3 PUSH1 0x1F DUP4 ADD SLT PUSH2 0x80 JUMPI PUSH1 0x0 DUP1 REVERT JUMPDEST DUP2 MLOAD PUSH1 0x1 PUSH1 0x1 PUSH1 0x40 SHL SUB DUP2 GT ISZERO PUSH2 0x99 JUMPI PUSH2 0x99 PUSH2 0x59 JUMP JUMPDEST PUSH1 0x40 MLOAD PUSH1 0x1F DUP3 ADD PUSH1 0x1F NOT SWAP1 DUP2 AND PUSH1 0x3F ADD AND DUP2 ADD PUSH1 0x1 PUSH1 0x1 PUSH1 0x40 SHL SUB DUP2 GT DUP3 DUP3 LT OR ISZERO PUSH2 0xC7 JUMPI PUSH2 0xC7 PUSH2 0x59 JUMP JUMPDEST PUSH1 0x40 MSTORE DUP2 DUP2 MSTORE DUP4 DUP3 ADD PUSH1 0x20 ADD DUP6 LT ISZERO PUSH2 0xDF JUMPI PUSH1 0x0 DUP1 REVERT JUMPDEST PUSH1 0x0 JUMPDEST DUP3 DUP2 LT ISZERO PUSH2 0xFE JUMPI PUSH1 0x20 DUP2 DUP7 ADD DUP2 ADD MLOAD DUP4 DUP4 ADD DUP3 ADD MSTORE ADD PUSH2 0xE2 JUMP JUMPDEST POP PUSH1 0x0 SWAP2 DUP2 ADD PUSH1 0x20 ADD SWAP2 SWAP1 SWAP2 MSTORE SWAP4 SWAP3 POP POP POP JUMP JUMPDEST PUSH1 0x0 DUP1 PUSH1 0x40 DUP4 DUP6 SUB SLT ISZERO PUSH2 0x125 JUMPI PUSH1 0x0 DUP1 REVERT JUMPDEST DUP3 MLOAD PUSH1 0x1 PUSH1 0x1 PUSH1 0x40 SHL SUB DUP2 GT ISZERO PUSH2 0x13B JUMPI PUSH1 0x0 DUP1 REVERT JUMPDEST PUSH2 0x147 DUP6 DUP3 DUP7 ADD PUSH2 0x6F JUMP JUMPDEST PUSH1 0x20 DUP6 ADD MLOAD SWAP1 SWAP4 POP SWAP1 POP PUSH1 0x1 PUSH1 0x1 PUSH1 0x40 SHL SUB DUP2 GT ISZERO PUSH2 0x165 JUMPI PUSH1 0x0 DUP1 REVERT JUMPDEST PUSH2 0x171 DUP6 DUP3 DUP7 ADD PUSH2 0x6F JUMP JUMPDEST SWAP2 POP POP SWAP3 POP SWAP3 SWAP1 POP JUMP JUMPDEST PUSH1 0x1 DUP2 DUP2 SHR SWAP1 DUP3 AND DUP1 PUSH2 0x18F JUMPI PUSH1 0x7F DUP3 AND SWAP2 POP JUMPDEST PUSH1 0x20 DUP3 LT DUP2 SUB PUSH2 0x1AF JUMPI PUSH4 0x4E487B71 PUSH1 0xE0 SHL PUSH1 0x0 MSTORE PUSH1 0x22 PUSH1 0x4 MSTORE PUSH1 0x24 PUSH1 0x0 REVERT JUMPDEST POP SWAP2 SWAP1 POP JUMP JUMPDEST PUSH1 0x1F DUP3 GT ISZERO PUSH2 0x1FF JUMPI DUP1 PUSH1 0x0 MSTORE PUSH1 0x20 PUSH1 0x0 KECCAK256 PUSH1 0x1F DUP5 ADD PUSH1 0x5 SHR DUP2 ADD PUSH1 0x20 DUP6 LT ISZERO PUSH2 0x1DC JUMPI POP DUP1 JUMPDEST PUSH1 0x1F DUP5 ADD PUSH1 0x5 SHR DUP3 ADD SWAP2 POP JUMPDEST DUP2 DUP2 LT ISZERO PUSH2 0x1FC JUMPI PUSH1 0x0 DUP2 SSTORE PUSH1 0x1 ADD PUSH2 0x1E8 JUMP JUMPDEST POP POP JUMPDEST POP POP POP JUMP JUMPDEST DUP2 MLOAD PUSH1 0x1 PUSH1 0x1 PUSH1 0x40 SHL SUB DUP2 GT ISZERO PUSH2 0x21D JUMPI PUSH2 0x21D PUSH2 0x59 JUMP JUMPDEST PUSH2 0x231 DUP2 PUSH2 0x22B DUP5 SLOAD PUSH2 0x17B JUMP JUMPDEST DUP5 PUSH2 0x1B5 JUMP JUMPDEST PUSH1 0x20 PUSH1 0x1F DUP3 GT PUSH1 0x1 DUP2 EQ PUSH2 0x265 JUMPI PUSH1 0x0 DUP4 ISZERO PUSH2 0x24D JUMPI POP DUP5 DUP3 ADD MLOAD JUMPDEST PUSH1 0x0 NOT PUSH1 0x3 DUP6 SWAP1 SHL SHR NOT AND PUSH1 0x1 DUP5 SWAP1 SHL OR DUP5 SSTORE PUSH2 0x1FC JUMP JUMPDEST PUSH1 0x0 DUP5 DUP2 MSTORE PUSH1 0x20 DUP2 KECCAK256 PUSH1 0x1F NOT DUP6 AND SWAP2 JUMPDEST DUP3 DUP2 LT ISZERO PUSH2 0x295 JUMPI DUP8 DUP6 ADD MLOAD DUP3 SSTORE PUSH1 0x20 SWAP5 DUP6 ADD SWAP5 PUSH1 0x1 SWAP1 SWAP3 ADD SWAP2 ADD PUSH2 0x275 JUMP JUMPDEST POP DUP5 DUP3 LT ISZERO PUSH2 0x2B3 JUMPI DUP7 DUP5 ADD MLOAD PUSH1 0x0 NOT PUSH1 0x3 DUP8 SWAP1 SHL PUSH1 0xF8 AND SHR NOT AND DUP2 SSTORE JUMPDEST POP POP POP POP PUSH1 0x1 SWAP1 DUP2 SHL ADD SWAP1 SSTORE POP JUMP JUMPDEST PUSH2 0x18C1 DUP1 PUSH2 0x2D1 PUSH1 0x0 CODECOPY PUSH1 0x0 RETURN INVALID PUSH1 0x80 PUSH1 0x40 MSTORE PUSH1 0x4 CALLDATASIZE LT PUSH2 0x16A JUMPI PUSH1 0x0 CALLDATALOAD PUSH1 0xE0 SHR DUP1 PUSH4 0x6352211E GT PUSH2 0xCB JUMPI DUP1 PUSH4 0xA2309FF8 GT PUSH2 0x7F JUMPI DUP1 PUSH4 0xD89135CD GT PUSH2 0x59 JUMPI DUP1 PUSH4 0xD89135CD EQ PUSH2 0x3A6 JUMPI DUP1 PUSH4 0xE985E9C5 EQ PUSH2 0x3BB JUMPI DUP1 PUSH4 0xF2523633 EQ PUSH2 0x411 JUMPI PUSH1 0x0 DUP1 REVERT JUMPDEST DUP1 PUSH4 0xA2309FF8 EQ PUSH2 0x35E JUMPI DUP1 PUSH4 0xB88D4FDE EQ PUSH2 0x373 JUMPI DUP1 PUSH4 0xC87B56DD EQ PUSH2 0x386 JUMPI PUSH1 0x0 DUP1 REVERT JUMPDEST DUP1 PUSH4 0x95D89B41 GT PUSH2 0xB0 JUMPI DUP1 PUSH4 0x95D89B41 EQ PUSH2 0x309 JUMPI DUP1 PUSH4 0xA1448194 EQ PUSH2 0x31E JUMPI DUP1 PUSH4 0xA22CB465 EQ PUSH2 0x33E JUMPI PUSH1 0x0 DUP1 REVERT JUMPDEST DUP1 PUSH4 0x6352211E EQ PUSH2 0x2C9 JUMPI DUP1 PUSH4 0x70A08231 EQ PUSH2 0x2E9 JUMPI PUSH1 0x0 DUP1 REVERT JUMPDEST DUP1 PUSH4 0x23B872DD GT PUSH2 0x122 JUMPI DUP1 PUSH4 0x42842E0E GT PUSH2 0x107 JUMPI DUP1 PUSH4 0x42842E0E EQ PUSH2 0x276 JUMPI DUP1 PUSH4 0x42966C68 EQ PUSH2 0x289 JUMPI DUP1 PUSH4 0x4F558E79 EQ PUSH2 0x2A9 JUMPI PUSH1 0x0 DUP1 REVERT JUMPDEST DUP1 PUSH4 0x23B872DD EQ PUSH2 0x243 JUMPI DUP1 PUSH4 0x2478D639 EQ PUSH2 0x256 JUMPI PUSH1 0x0 DUP1 REVERT JUMPDEST DUP1 PUSH4 0x81812FC GT PUSH2 0x153 JUMPI DUP1 PUSH4 0x81812FC EQ PUSH2 0x1C6 JUMPI DUP1 PUSH4 0x95EA7B3 EQ PUSH2 0x20B JUMPI DUP1 PUSH4 0x18160DDD EQ PUSH2 0x220 JUMPI PUSH1 0x0 DUP1 REVERT JUMPDEST DUP1 PUSH4 0x1FFC9A7 EQ PUSH2 0x16F JUMPI DUP1 PUSH4 0x6FDDE03 EQ PUSH2 0x1A4 JUMPI JUMPDEST PUSH1 0x0 DUP1 REVERT JUMPDEST CALLVALUE DUP1 ISZERO PUSH2 0x17B JUMPI PUSH1 0x0 DUP1 REVERT JUMPDEST POP PUSH2 0x18F PUSH2 0x18A CALLDATASIZE PUSH1 0x4 PUSH2 0x1419 JUMP JUMPDEST PUSH2 0x48B JUMP JUMPDEST PUSH1 0x40 MLOAD SWAP1 ISZERO ISZERO DUP2 MSTORE PUSH1 0x20 ADD JUMPDEST PUSH1 0x40 MLOAD DUP1 SWAP2 SUB SWAP1 RETURN JUMPDEST CALLVALUE DUP1 ISZERO PUSH2 0x1B0 JUMPI PUSH1 0x0 DUP1 REVERT JUMPDEST POP PUSH2 0x1B9 PUSH2 0x570 JUMP JUMPDEST PUSH1 0x40 MLOAD PUSH2 0x19B SWAP2 SWAP1 PUSH2 0x14A4 JUMP JUMPDEST CALLVALUE DUP1 ISZERO PUSH2 0x1D2 JUMPI PUSH1 0x0 DUP1 REVERT JUMPDEST POP PUSH2 0x1E6 PUSH2 0x1E1 CALLDATASIZE PUSH1 0x4 PUSH2 0x14B7 JUMP JUMPDEST PUSH2 0x602 JUMP JUMPDEST PUSH1 0x40 MLOAD PUSH20 0xFFFFFFFFFFFFFFFFFFFFFFFFFFFFFFFFFFFFFFFF SWAP1 SWAP2 AND DUP2 MSTORE PUSH1 0x20 ADD PUSH2 0x19B JUMP JUMPDEST PUSH2 0x21E PUSH2 0x219 CALLDATASIZE PUSH1 0x4 PUSH2 0x14F4 JUMP JUMPDEST PUSH2 0x663 JUMP JUMPDEST STOP JUMPDEST CALLVALUE DUP1 ISZERO PUSH2 0x22C JUMPI PUSH1 0x0 DUP1 REVERT JUMPDEST POP PUSH1 0x1 SLOAD PUSH1 0x0 SLOAD SUB JUMPDEST PUSH1 0x40 MLOAD SWAP1 DUP2 MSTORE PUSH1 0x20 ADD PUSH2 0x19B JUMP JUMPDEST PUSH2 0x21E PUSH2 0x251 CALLDATASIZE PUSH1 0x4 PUSH2 0x151E JUMP JUMPDEST PUSH2 0x673 JUMP JUMPDEST CALLVALUE DUP1 ISZERO PUSH2 0x262 JUMPI PUSH1 0x0 DUP1 REVERT JUMPDEST POP PUSH2 0x235 PUSH2 0x271 CALLDATASIZE PUSH1 0x4 PUSH2 0x155B JUMP JUMPDEST PUSH2 0x8B2 JUMP JUMPDEST PUSH2 0x21E PUSH2 0x284 CALLDATASIZE PUSH1 0x4 PUSH2 0x151E JUMP JUMPDEST PUSH2 0x8ED JUMP JUMPDEST CALLVALUE DUP1 ISZERO PUSH2 0x295 JUMPI PUSH1 0x0 DUP1 REVERT JUMPDEST POP PUSH2 0x21E PUSH2 0x2A4 CALLDATASIZE PUSH1 0x4 PUSH2 0x14B7 JUMP JUMPDEST PUSH2 0x90D JUMP JUMPDEST CALLVALUE DUP1 ISZERO PUSH2 0x2B5 JUMPI PUSH1 0x0 DUP1 REVERT JUMPDEST POP PUSH2 0x18F PUSH2 0x2C4 CALLDATASIZE PUSH1 0x4 PUSH2 0x14B7 JUMP JUMPDEST PUSH2 0x91B JUMP JUMPDEST CALLVALUE DUP1 ISZERO PUSH2 0x2D5 JUMPI PUSH1 0x0 DUP1 REVERT JUMPDEST POP PUSH2 0x1E6 PUSH2 0x2E4 CALLDATASIZE PUSH1 0x4 PUSH2 0x14B7 JUMP JUMPDEST PUSH2 0x926 JUMP JUMPDEST CALLVALUE DUP1 ISZERO PUSH2 0x2F5 JUMPI PUSH1 0x0 DUP1 REVERT JUMPDEST POP PUSH2 0x235 PUSH2 0x304 CALLDATASIZE PUSH1 0x4 PUSH2 0x155B JUMP JUMPDEST PUSH2 0x931 JUMP JUMPDEST CALLVALUE DUP1 ISZERO PUSH2 0x315 JUMPI PUSH1 0x0 DUP1 REVERT JUMPDEST POP PUSH2 0x1B9 PUSH2 0x9AA JUMP JUMPDEST CALLVALUE DUP1 ISZERO PUSH2 0x32A JUMPI PUSH1 0x0 DUP1 REVERT JUMPDEST POP PUSH2 0x21E PUSH2 0x339 CALLDATASIZE PUSH1 0x4 PUSH2 0x14F4 JUMP JUMPDEST PUSH2 0x9B9 JUMP JUMPDEST CALLVALUE DUP1 ISZERO PUSH2 0x34A JUMPI PUSH1 0x0 DUP1 REVERT JUMPDEST POP PUSH2 0x21E PUSH2 0x359 CALLDATASIZE PUSH1 0x4 PUSH2 0x1576 JUMP JUMPDEST PUSH2 0x9C3 JUMP JUMPDEST CALLVALUE DUP1 ISZERO PUSH2 0x36A JUMPI PUSH1 0x0 DUP1 REVERT JUMPDEST POP PUSH1 0x0 SLOAD PUSH2 0x235 JUMP JUMPDEST PUSH2 0x21E PUSH2 0x381 CALLDATASIZE PUSH1 0x4 PUSH2 0x15E1 JUMP JUMPDEST PUSH2 0xA5F JUMP JUMPDEST CALLVALUE DUP1 ISZERO PUSH2 0x392 JUMPI PUSH1 0x0 DUP1 REVERT JUMPDEST POP PUSH2 0x1B9 PUSH2 0x3A1 CALLDATASIZE PUSH1 0x4 PUSH2 0x14B7 JUMP JUMPDEST PUSH2 0xAC6 JUMP JUMPDEST CALLVALUE DUP1 ISZERO PUSH2 0x3B2 JUMPI PUSH1 0x0 DUP1 REVERT JUMPDEST POP PUSH2 0x235 PUSH2 0xB67 JUMP JUMPDEST CALLVALUE DUP1 ISZERO PUSH2 0x3C7 JUMPI PUSH1 0x0 DUP1 REVERT JUMPDEST POP PUSH2 0x18F PUSH2 0x3D6 CALLDATASIZE PUSH1 0x4 PUSH2 0x1702 JUMP JUMPDEST PUSH20 0xFFFFFFFFFFFFFFFFFFFFFFFFFFFFFFFFFFFFFFFF SWAP2 DUP3 AND PUSH1 0x0 SWAP1 DUP2 MSTORE PUSH1 0x7 PUSH1 0x20 SWAP1 DUP2 MSTORE PUSH1 0x40 DUP1 DUP4 KECCAK256 SWAP4 SWAP1 SWAP5 AND DUP3 MSTORE SWAP2 SWAP1 SWAP2 MSTORE KECCAK256 SLOAD PUSH1 0xFF AND SWAP1 JUMP JUMPDEST CALLVALUE DUP1 ISZERO PUSH2 0x41D JUMPI PUSH1 0x0 DUP1 REVERT JUMPDEST POP PUSH2 0x431 PUSH2 0x42C CALLDATASIZE PUSH1 0x4 PUSH2 0x14B7 JUMP JUMPDEST PUSH2 0xB72 JUMP JUMPDEST PUSH1 0x40 MLOAD PUSH2 0x19B SWAP2 SWAP1 DUP2 MLOAD PUSH20 0xFFFFFFFFFFFFFFFFFFFFFFFFFFFFFFFFFFFFFFFF AND DUP2 MSTORE PUSH1 0x20 DUP1 DUP4 ADD MLOAD PUSH8 0xFFFFFFFFFFFFFFFF AND SWAP1 DUP3 ADD MSTORE PUSH1 0x40 DUP1 DUP4 ADD MLOAD ISZERO ISZERO SWAP1 DUP3 ADD MSTORE PUSH1 0x60 SWAP2 DUP3 ADD MLOAD PUSH3 0xFFFFFF AND SWAP2 DUP2 ADD SWAP2 SWAP1 SWAP2 MSTORE PUSH1 0x80 ADD SWAP1 JUMP JUMPDEST PUSH1 0x0 PUSH32 0x1FFC9A700000000000000000000000000000000000000000000000000000000 PUSH32 0xFFFFFFFF00000000000000000000000000000000000000000000000000000000 DUP4 AND EQ DUP1 PUSH2 0x51E JUMPI POP PUSH32 0x80AC58CD00000000000000000000000000000000000000000000000000000000 PUSH32 0xFFFFFFFF00000000000000000000000000000000000000000000000000000000 DUP4 AND EQ JUMPDEST DUP1 PUSH2 0x56A JUMPI POP PUSH32 0x5B5E139F00000000000000000000000000000000000000000000000000000000 PUSH32 0xFFFFFFFF00000000000000000000000000000000000000000000000000000000 DUP4 AND EQ JUMPDEST SWAP3 SWAP2 POP POP JUMP JUMPDEST PUSH1 0x60 PUSH1 0x2 DUP1 SLOAD PUSH2 0x57F SWAP1 PUSH2 0x1735 JUMP JUMPDEST DUP1 PUSH1 0x1F ADD PUSH1 0x20 DUP1 SWAP2 DIV MUL PUSH1 0x20 ADD PUSH1 0x40 MLOAD SWAP1 DUP2 ADD PUSH1 0x40 MSTORE DUP1 SWAP3 SWAP2 SWAP1 DUP2 DUP2 MSTORE PUSH1 0x20 ADD DUP3 DUP1 SLOAD PUSH2 0x5AB SWAP1 PUSH2 0x1735 JUMP JUMPDEST DUP1 ISZERO PUSH2 0x5F8 JUMPI DUP1 PUSH1 0x1F LT PUSH2 0x5CD JUMPI PUSH2 0x100 DUP1 DUP4 SLOAD DIV MUL DUP4 MSTORE SWAP2 PUSH1 0x20 ADD SWAP2 PUSH2 0x5F8 JUMP JUMPDEST DUP3 ADD SWAP2 SWAP1 PUSH1 0x0 MSTORE PUSH1 0x20 PUSH1 0x0 KECCAK256 SWAP1 JUMPDEST DUP2 SLOAD DUP2 MSTORE SWAP1 PUSH1 0x1 ADD SWAP1 PUSH1 0x20 ADD DUP1 DUP4 GT PUSH2 0x5DB JUMPI DUP3 SWAP1 SUB PUSH1 0x1F AND DUP3 ADD SWAP2 JUMPDEST POP POP POP POP POP SWAP1 POP SWAP1 JUMP JUMPDEST PUSH1 0x0 PUSH2 0x60D DUP3 PUSH2 0xB9F JUMP JUMPDEST PUSH2 0x63A JUMPI PUSH2 0x63A PUSH32 0xCF4700E400000000000000000000000000000000000000000000000000000000 PUSH2 0xBFD JUMP JUMPDEST POP PUSH1 0x0 SWAP1 DUP2 MSTORE PUSH1 0x6 PUSH1 0x20 MSTORE PUSH1 0x40 SWAP1 KECCAK256 SLOAD PUSH20 0xFFFFFFFFFFFFFFFFFFFFFFFFFFFFFFFFFFFFFFFF AND SWAP1 JUMP JUMPDEST PUSH2 0x66F DUP3 DUP3 PUSH1 0x1 PUSH2 0xC07 JUMP JUMPDEST POP POP JUMP JUMPDEST PUSH1 0x0 PUSH2 0x67E DUP3 PUSH2 0xCF5 JUMP JUMPDEST PUSH20 0xFFFFFFFFFFFFFFFFFFFFFFFFFFFFFFFFFFFFFFFF SWAP5 DUP6 AND SWAP5 SWAP1 SWAP2 POP DUP2 AND DUP5 EQ PUSH2 0x6CB JUMPI PUSH2 0x6CB PUSH32 0xA114810000000000000000000000000000000000000000000000000000000000 PUSH2 0xBFD JUMP JUMPDEST PUSH1 0x0 DUP3 DUP2 MSTORE PUSH1 0x6 PUSH1 0x20 MSTORE PUSH1 0x40 SWAP1 KECCAK256 DUP1 SLOAD PUSH2 0x704 DUP2 DUP8 CALLER JUMPDEST PUSH20 0xFFFFFFFFFFFFFFFFFFFFFFFFFFFFFFFFFFFFFFFF SWAP1 DUP2 AND SWAP2 AND DUP2 EQ SWAP2 EQ OR SWAP1 JUMP JUMPDEST PUSH2 0x73F JUMPI PUSH2 0x712 DUP7 CALLER PUSH2 0x3D6 JUMP JUMPDEST PUSH2 0x73F JUMPI PUSH2 0x73F PUSH32 0x59C896BE00000000000000000000000000000000000000000000000000000000 PUSH2 0xBFD JUMP JUMPDEST DUP1 ISZERO PUSH2 0x74A JUMPI PUSH1 0x0 DUP3 SSTORE JUMPDEST PUSH20 0xFFFFFFFFFFFFFFFFFFFFFFFFFFFFFFFFFFFFFFFF DUP7 DUP2 AND PUSH1 0x0 SWAP1 DUP2 MSTORE PUSH1 0x5 PUSH1 0x20 MSTORE PUSH1 0x40 DUP1 DUP3 KECCAK256 DUP1 SLOAD PUSH32 0xFFFFFFFFFFFFFFFFFFFFFFFFFFFFFFFFFFFFFFFFFFFFFFFFFFFFFFFFFFFFFFFF ADD SWAP1 SSTORE SWAP2 DUP8 AND DUP1 DUP3 MSTORE SWAP2 SWAP1 KECCAK256 DUP1 SLOAD PUSH1 0x1 ADD SWAP1 SSTORE TIMESTAMP PUSH1 0xA0 SHL OR PUSH29 0x200000000000000000000000000000000000000000000000000000000 OR PUSH1 0x0 DUP6 DUP2 MSTORE PUSH1 0x4 PUSH1 0x20 MSTORE PUSH1 0x40 DUP2 KECCAK256 SWAP2 SWAP1 SWAP2 SSTORE PUSH29 0x200000000000000000000000000000000000000000000000000000000 DUP5 AND SWAP1 SUB PUSH2 0x839 JUMPI PUSH1 0x1 DUP5 ADD PUSH1 0x0 DUP2 DUP2 MSTORE PUSH1 0x4 PUSH1 0x20 MSTORE PUSH1 0x40 DUP2 KECCAK256 SLOAD SWAP1 SUB PUSH2 0x837 JUMPI PUSH1 0x0 SLOAD DUP2 EQ PUSH2 0x837 JUMPI PUSH1 0x0 DUP2 DUP2 MSTORE PUSH1 0x4 PUSH1 0x20 MSTORE PUSH1 0x40 SWAP1 KECCAK256 DUP5 SWAP1 SSTORE JUMPDEST POP JUMPDEST PUSH20 0xFFFFFFFFFFFFFFFFFFFFFFFFFFFFFFFFFFFFFFFF DUP6 AND DUP5 DUP2 DUP9 PUSH32 0xDDF252AD1BE2C89B69C2B068FC378DAA952BA7F163C4A11628F55A4DF523B3EF PUSH1 0x0 DUP1 LOG4 DUP1 PUSH1 0x0 SUB PUSH2 0x8A9 JUMPI PUSH2 0x8A9 PUSH32 0xEA553B3400000000000000000000000000000000000000000000000000000000 PUSH2 0xBFD JUMP JUMPDEST POP POP POP POP POP POP POP JUMP JUMPDEST PUSH1 0x0 PUSH2 0x56A DUP3 PUSH20 0xFFFFFFFFFFFFFFFFFFFFFFFFFFFFFFFFFFFFFFFF AND PUSH1 0x0 SWAP1 DUP2 MSTORE PUSH1 0x5 PUSH1 0x20 MSTORE PUSH1 0x40 SWAP1 KECCAK256 SLOAD PUSH1 0x80 SHR PUSH8 0xFFFFFFFFFFFFFFFF AND SWAP1 JUMP JUMPDEST PUSH2 0x908 DUP4 DUP4 DUP4 PUSH1 0x40 MLOAD DUP1 PUSH1 0x20 ADD PUSH1 0x40 MSTORE DUP1 PUSH1 0x0 DUP2 MSTORE POP PUSH2 0xA5F JUMP JUMPDEST POP POP POP JUMP JUMPDEST PUSH2 0x918 DUP2 PUSH1 0x1 PUSH2 0xE26 JUMP JUMPDEST POP JUMP JUMPDEST PUSH1 0x0 PUSH2 0x56A DUP3 PUSH2 0xB9F JUMP JUMPDEST PUSH1 0x0 PUSH2 0x56A DUP3 PUSH2 0xCF5 JUMP JUMPDEST PUSH1 0x0 PUSH20 0xFFFFFFFFFFFFFFFFFFFFFFFFFFFFFFFFFFFFFFFF DUP3 AND PUSH2 0x977 JUMPI PUSH2 0x977 PUSH32 0x8F4EB60400000000000000000000000000000000000000000000000000000000 PUSH2 0xBFD JUMP JUMPDEST POP PUSH20 0xFFFFFFFFFFFFFFFFFFFFFFFFFFFFFFFFFFFFFFFF AND PUSH1 0x0 SWAP1 DUP2 MSTORE PUSH1 0x5 PUSH1 0x20 MSTORE PUSH1 0x40 SWAP1 KECCAK256 SLOAD PUSH8 0xFFFFFFFFFFFFFFFF AND SWAP1 JUMP JUMPDEST PUSH1 0x60 PUSH1 0x3 DUP1 SLOAD PUSH2 0x57F SWAP1 PUSH2 0x1735 JUMP JUMPDEST PUSH2 0x66F DUP3 DUP3 PUSH2 0xFCC JUMP JUMPDEST CALLER PUSH1 0x0 DUP2 DUP2 MSTORE PUSH1 0x7 PUSH1 0x20 SWAP1 DUP2 MSTORE PUSH1 0x40 DUP1 DUP4 KECCAK256 PUSH20 0xFFFFFFFFFFFFFFFFFFFFFFFFFFFFFFFFFFFFFFFF DUP8 AND DUP1 DUP6 MSTORE SWAP1 DUP4 MSTORE SWAP3 DUP2 SWAP1 KECCAK256 DUP1 SLOAD PUSH32 0xFFFFFFFFFFFFFFFFFFFFFFFFFFFFFFFFFFFFFFFFFFFFFFFFFFFFFFFFFFFFFF00 AND DUP7 ISZERO ISZERO SWAP1 DUP2 OR SWAP1 SWAP2 SSTORE SWAP1 MLOAD SWAP1 DUP2 MSTORE SWAP2 SWAP3 SWAP2 PUSH32 0x17307EAB39AB6107E8899845AD3D59BD9653F200F220920489CA2B5937696C31 SWAP2 ADD PUSH1 0x40 MLOAD DUP1 SWAP2 SUB SWAP1 LOG3 POP POP JUMP JUMPDEST SWAP1 POP SWAP1 JUMP JUMPDEST PUSH2 0xA6A DUP5 DUP5 DUP5 PUSH2 0x673 JUMP JUMPDEST PUSH20 0xFFFFFFFFFFFFFFFFFFFFFFFFFFFFFFFFFFFFFFFF DUP4 AND EXTCODESIZE ISZERO PUSH2 0xAC0 JUMPI PUSH2 0xA93 DUP5 DUP5 DUP5 DUP5 PUSH2 0xFE6 JUMP JUMPDEST PUSH2 0xAC0 JUMPI PUSH2 0xAC0 PUSH32 0xD1A57ED600000000000000000000000000000000000000000000000000000000 PUSH2 0xBFD JUMP JUMPDEST POP POP POP POP JUMP JUMPDEST PUSH1 0x60 PUSH2 0xAD1 DUP3 PUSH2 0xB9F JUMP JUMPDEST PUSH2 0xAFE JUMPI PUSH2 0xAFE PUSH32 0xA14C4B5000000000000000000000000000000000000000000000000000000000 PUSH2 0xBFD JUMP JUMPDEST PUSH1 0x0 PUSH2 0xB15 PUSH1 0x40 DUP1 MLOAD PUSH1 0x20 DUP2 ADD SWAP1 SWAP2 MSTORE PUSH1 0x0 DUP2 MSTORE SWAP1 JUMP JUMPDEST SWAP1 POP DUP1 MLOAD PUSH1 0x0 SUB PUSH2 0xB35 JUMPI PUSH1 0x40 MLOAD DUP1 PUSH1 0x20 ADD PUSH1 0x40 MSTORE DUP1 PUSH1 0x0 DUP2 MSTORE POP PUSH2 0xB60 JUMP JUMPDEST DUP1 PUSH2 0xB3F DUP5 PUSH2 0x1156 JUMP JUMPDEST PUSH1 0x40 MLOAD PUSH1 0x20 ADD PUSH2 0xB50 SWAP3 SWAP2 SWAP1 PUSH2 0x1788 JUMP JUMPDEST PUSH1 0x40 MLOAD PUSH1 0x20 DUP2 DUP4 SUB SUB DUP2 MSTORE SWAP1 PUSH1 0x40 MSTORE JUMPDEST SWAP4 SWAP3 POP POP POP JUMP JUMPDEST PUSH1 0x0 PUSH2 0xA5A PUSH1 0x1 SLOAD SWAP1 JUMP JUMPDEST PUSH1 0x40 DUP1 MLOAD PUSH1 0x80 DUP2 ADD DUP3 MSTORE PUSH1 0x0 DUP1 DUP3 MSTORE PUSH1 0x20 DUP3 ADD DUP2 SWAP1 MSTORE SWAP2 DUP2 ADD DUP3 SWAP1 MSTORE PUSH1 0x60 DUP2 ADD SWAP2 SWAP1 SWAP2 MSTORE PUSH2 0x56A DUP3 PUSH2 0x11B8 JUMP JUMPDEST PUSH1 0x0 DUP1 SLOAD DUP3 LT ISZERO PUSH2 0xBF8 JUMPI PUSH1 0x0 JUMPDEST POP PUSH1 0x0 DUP3 DUP2 MSTORE PUSH1 0x4 PUSH1 0x20 MSTORE PUSH1 0x40 DUP2 KECCAK256 SLOAD SWAP1 DUP2 SWAP1 SUB PUSH2 0xBD5 JUMPI PUSH2 0xBCE DUP4 PUSH2 0x17B7 JUMP JUMPDEST SWAP3 POP PUSH2 0xBAD JUMP JUMPDEST PUSH29 0x100000000000000000000000000000000000000000000000000000000 AND ISZERO SWAP1 POP JUMPDEST SWAP2 SWAP1 POP JUMP JUMPDEST DUP1 PUSH1 0x0 MSTORE PUSH1 0x4 PUSH1 0x0 REVERT JUMPDEST PUSH1 0x0 PUSH2 0xC12 DUP4 PUSH2 0x926 JUMP JUMPDEST SWAP1 POP DUP2 DUP1 ISZERO PUSH2 0xC37 JUMPI POP CALLER PUSH20 0xFFFFFFFFFFFFFFFFFFFFFFFFFFFFFFFFFFFFFFFF DUP3 AND EQ ISZERO JUMPDEST ISZERO PUSH2 0xC73 JUMPI PUSH2 0xC46 DUP2 CALLER PUSH2 0x3D6 JUMP JUMPDEST PUSH2 0xC73 JUMPI PUSH2 0xC73 PUSH32 0xCFB3B94200000000000000000000000000000000000000000000000000000000 PUSH2 0xBFD JUMP JUMPDEST PUSH1 0x0 DUP4 DUP2 MSTORE PUSH1 0x6 PUSH1 0x20 MSTORE PUSH1 0x40 DUP1 DUP3 KECCAK256 DUP1 SLOAD PUSH32 0xFFFFFFFFFFFFFFFFFFFFFFFF0000000000000000000000000000000000000000 AND PUSH20 0xFFFFFFFFFFFFFFFFFFFFFFFFFFFFFFFFFFFFFFFF DUP9 DUP2 AND SWAP2 DUP3 OR SWAP1 SWAP3 SSTORE SWAP2 MLOAD DUP7 SWAP4 SWAP2 DUP6 AND SWAP2 PUSH32 0x8C5BE1E5EBEC7D5BD14F71427D1E84F3DD0314C0F7B2291E5B200AC8C7C3B925 SWAP2 LOG4 POP POP POP POP JUMP JUMPDEST PUSH1 0x0 DUP2 DUP2 MSTORE PUSH1 0x4 PUSH1 0x20 MSTORE PUSH1 0x40 DUP2 KECCAK256 SLOAD SWAP1 DUP2 SWAP1 SUB PUSH2 0xDD1 JUMPI PUSH1 0x0 SLOAD DUP3 LT PUSH2 0xD3E JUMPI PUSH2 0xD3E PUSH32 0xDF2D9B4200000000000000000000000000000000000000000000000000000000 PUSH2 0xBFD JUMP JUMPDEST JUMPDEST POP PUSH32 0xFFFFFFFFFFFFFFFFFFFFFFFFFFFFFFFFFFFFFFFFFFFFFFFFFFFFFFFFFFFFFFFF ADD PUSH1 0x0 DUP2 DUP2 MSTORE PUSH1 0x4 PUSH1 0x20 MSTORE PUSH1 0x40 SWAP1 KECCAK256 SLOAD DUP1 ISZERO PUSH2 0xD3F JUMPI PUSH29 0x100000000000000000000000000000000000000000000000000000000 DUP2 AND PUSH1 0x0 SUB PUSH2 0xDA3 JUMPI SWAP2 SWAP1 POP JUMP JUMPDEST PUSH2 0xDCC PUSH32 0xDF2D9B4200000000000000000000000000000000000000000000000000000000 PUSH2 0xBFD JUMP JUMPDEST PUSH2 0xD3F JUMP JUMPDEST PUSH29 0x100000000000000000000000000000000000000000000000000000000 DUP2 AND PUSH1 0x0 SUB PUSH2 0xDFD JUMPI SWAP2 SWAP1 POP JUMP JUMPDEST PUSH2 0xBF8 PUSH32 0xDF2D9B4200000000000000000000000000000000000000000000000000000000 PUSH2 0xBFD JUMP JUMPDEST PUSH1 0x0 PUSH2 0xE31 DUP4 PUSH2 0xCF5 JUMP JUMPDEST SWAP1 POP DUP1 PUSH1 0x0 DUP1 PUSH2 0xE4F DUP7 PUSH1 0x0 SWAP1 DUP2 MSTORE PUSH1 0x6 PUSH1 0x20 MSTORE PUSH1 0x40 SWAP1 KECCAK256 DUP1 SLOAD SWAP1 SWAP2 JUMP JUMPDEST SWAP2 POP SWAP2 POP DUP5 ISZERO PUSH2 0xE9F JUMPI PUSH2 0xE64 DUP2 DUP5 CALLER PUSH2 0x6E2 JUMP JUMPDEST PUSH2 0xE9F JUMPI PUSH2 0xE72 DUP4 CALLER PUSH2 0x3D6 JUMP JUMPDEST PUSH2 0xE9F JUMPI PUSH2 0xE9F PUSH32 0x59C896BE00000000000000000000000000000000000000000000000000000000 PUSH2 0xBFD JUMP JUMPDEST DUP1 ISZERO PUSH2 0xEAA JUMPI PUSH1 0x0 DUP3 SSTORE JUMPDEST PUSH20 0xFFFFFFFFFFFFFFFFFFFFFFFFFFFFFFFFFFFFFFFF DUP4 AND PUSH1 0x0 DUP2 DUP2 MSTORE PUSH1 0x5 PUSH1 0x20 MSTORE PUSH1 0x40 SWAP1 KECCAK256 DUP1 SLOAD PUSH16 0xFFFFFFFFFFFFFFFFFFFFFFFFFFFFFFFF ADD SWAP1 SSTORE TIMESTAMP PUSH1 0xA0 SHL OR PUSH29 0x300000000000000000000000000000000000000000000000000000000 OR PUSH1 0x0 DUP8 DUP2 MSTORE PUSH1 0x4 PUSH1 0x20 MSTORE PUSH1 0x40 DUP2 KECCAK256 SWAP2 SWAP1 SWAP2 SSTORE PUSH29 0x200000000000000000000000000000000000000000000000000000000 DUP6 AND SWAP1 SUB PUSH2 0xF77 JUMPI PUSH1 0x1 DUP7 ADD PUSH1 0x0 DUP2 DUP2 MSTORE PUSH1 0x4 PUSH1 0x20 MSTORE PUSH1 0x40 DUP2 KECCAK256 SLOAD SWAP1 SUB PUSH2 0xF75 JUMPI PUSH1 0x0 SLOAD DUP2 EQ PUSH2 0xF75 JUMPI PUSH1 0x0 DUP2 DUP2 MSTORE PUSH1 0x4 PUSH1 0x20 MSTORE PUSH1 0x40 SWAP1 KECCAK256 DUP6 SWAP1 SSTORE JUMPDEST POP JUMPDEST PUSH1 0x40 MLOAD DUP7 SWAP1 PUSH1 0x0 SWAP1 PUSH20 0xFFFFFFFFFFFFFFFFFFFFFFFFFFFFFFFFFFFFFFFF DUP7 AND SWAP1 PUSH32 0xDDF252AD1BE2C89B69C2B068FC378DAA952BA7F163C4A11628F55A4DF523B3EF SWAP1 DUP4 SWAP1 LOG4 POP POP PUSH1 0x1 DUP1 SLOAD DUP2 ADD SWAP1 SSTORE POP POP POP POP JUMP JUMPDEST PUSH2 0x66F DUP3 DUP3 PUSH1 0x40 MLOAD DUP1 PUSH1 0x20 ADD PUSH1 0x40 MSTORE DUP1 PUSH1 0x0 DUP2 MSTORE POP PUSH2 0x125D JUMP JUMPDEST PUSH1 0x40 MLOAD PUSH32 0x150B7A0200000000000000000000000000000000000000000000000000000000 DUP2 MSTORE PUSH1 0x0 SWAP1 PUSH20 0xFFFFFFFFFFFFFFFFFFFFFFFFFFFFFFFFFFFFFFFF DUP6 AND SWAP1 PUSH4 0x150B7A02 SWAP1 PUSH2 0x1041 SWAP1 CALLER SWAP1 DUP10 SWAP1 DUP9 SWAP1 DUP9 SWAP1 PUSH1 0x4 ADD PUSH2 0x1813 JUMP JUMPDEST PUSH1 0x20 PUSH1 0x40 MLOAD DUP1 DUP4 SUB DUP2 PUSH1 0x0 DUP8 GAS CALL SWAP3 POP POP POP DUP1 ISZERO PUSH2 0x109A JUMPI POP PUSH1 0x40 DUP1 MLOAD PUSH1 0x1F RETURNDATASIZE SWAP1 DUP2 ADD PUSH32 0xFFFFFFFFFFFFFFFFFFFFFFFFFFFFFFFFFFFFFFFFFFFFFFFFFFFFFFFFFFFFFFE0 AND DUP3 ADD SWAP1 SWAP3 MSTORE PUSH2 0x1097 SWAP2 DUP2 ADD SWAP1 PUSH2 0x186E JUMP JUMPDEST PUSH1 0x1 JUMPDEST PUSH2 0x1108 JUMPI RETURNDATASIZE DUP1 DUP1 ISZERO PUSH2 0x10C8 JUMPI PUSH1 0x40 MLOAD SWAP2 POP PUSH1 0x1F NOT PUSH1 0x3F RETURNDATASIZE ADD AND DUP3 ADD PUSH1 0x40 MSTORE RETURNDATASIZE DUP3 MSTORE RETURNDATASIZE PUSH1 0x0 PUSH1 0x20 DUP5 ADD RETURNDATACOPY PUSH2 0x10CD JUMP JUMPDEST PUSH1 0x60 SWAP2 POP JUMPDEST POP DUP1 MLOAD PUSH1 0x0 SUB PUSH2 0x1100 JUMPI PUSH2 0x1100 PUSH32 0xD1A57ED600000000000000000000000000000000000000000000000000000000 PUSH2 0xBFD JUMP JUMPDEST DUP1 MLOAD DUP2 PUSH1 0x20 ADD REVERT JUMPDEST PUSH32 0xFFFFFFFF00000000000000000000000000000000000000000000000000000000 AND PUSH32 0x150B7A0200000000000000000000000000000000000000000000000000000000 EQ SWAP1 POP SWAP5 SWAP4 POP POP POP POP JUMP JUMPDEST PUSH1 0x60 PUSH1 0xA0 PUSH1 0x40 MLOAD ADD DUP1 PUSH1 0x40 MSTORE PUSH1 0x20 DUP2 SUB SWAP2 POP POP PUSH1 0x0 DUP2 MSTORE DUP1 DUP3 JUMPDEST PUSH1 0x1 DUP4 SUB SWAP3 POP PUSH1 0xA DUP2 MOD PUSH1 0x30 ADD DUP4 MSTORE8 PUSH1 0xA SWAP1 DIV DUP1 PUSH2 0x1170 JUMPI POP DUP2 SWAP1 SUB PUSH32 0xFFFFFFFFFFFFFFFFFFFFFFFFFFFFFFFFFFFFFFFFFFFFFFFFFFFFFFFFFFFFFFE0 SWAP1 SWAP2 ADD SWAP1 DUP2 MSTORE SWAP2 SWAP1 POP JUMP JUMPDEST PUSH1 0x40 DUP1 MLOAD PUSH1 0x80 DUP2 ADD DUP3 MSTORE PUSH1 0x0 DUP1 DUP3 MSTORE PUSH1 0x20 DUP3 ADD DUP2 SWAP1 MSTORE SWAP2 DUP2 ADD DUP3 SWAP1 MSTORE PUSH1 0x60 DUP2 ADD SWAP2 SWAP1 SWAP2 MSTORE PUSH1 0x0 DUP3 DUP2 MSTORE PUSH1 0x4 PUSH1 0x20 MSTORE PUSH1 0x40 SWAP1 KECCAK256 SLOAD PUSH2 0x56A SWAP1 PUSH1 0x40 DUP1 MLOAD PUSH1 0x80 DUP2 ADD DUP3 MSTORE PUSH20 0xFFFFFFFFFFFFFFFFFFFFFFFFFFFFFFFFFFFFFFFF DUP4 AND DUP2 MSTORE PUSH1 0xA0 DUP4 SWAP1 SHR PUSH8 0xFFFFFFFFFFFFFFFF AND PUSH1 0x20 DUP3 ADD MSTORE PUSH29 0x100000000000000000000000000000000000000000000000000000000 DUP4 AND ISZERO ISZERO SWAP2 DUP2 ADD SWAP2 SWAP1 SWAP2 MSTORE PUSH1 0xE8 SWAP2 SWAP1 SWAP2 SHR PUSH1 0x60 DUP3 ADD MSTORE SWAP1 JUMP JUMPDEST PUSH2 0x1267 DUP4 DUP4 PUSH2 0x12EC JUMP JUMPDEST PUSH20 0xFFFFFFFFFFFFFFFFFFFFFFFFFFFFFFFFFFFFFFFF DUP4 AND EXTCODESIZE ISZERO PUSH2 0x908 JUMPI PUSH1 0x0 SLOAD DUP3 DUP2 SUB JUMPDEST PUSH2 0x129E PUSH1 0x0 DUP7 DUP4 DUP1 PUSH1 0x1 ADD SWAP5 POP DUP7 PUSH2 0xFE6 JUMP JUMPDEST PUSH2 0x12CB JUMPI PUSH2 0x12CB PUSH32 0xD1A57ED600000000000000000000000000000000000000000000000000000000 PUSH2 0xBFD JUMP JUMPDEST DUP2 DUP2 LT PUSH2 0x128B JUMPI DUP2 PUSH1 0x0 SLOAD EQ PUSH2 0x12E5 JUMPI PUSH2 0x12E5 PUSH1 0x0 PUSH2 0xBFD JUMP JUMPDEST POP POP POP POP POP JUMP JUMPDEST PUSH1 0x0 DUP1 SLOAD SWAP1 DUP3 SWAP1 SUB PUSH2 0x1321 JUMPI PUSH2 0x1321 PUSH32 0xB562E8DD00000000000000000000000000000000000000000000000000000000 PUSH2 0xBFD JUMP JUMPDEST PUSH1 0x0 DUP2 DUP2 MSTORE PUSH1 0x4 PUSH1 0x20 SWAP1 DUP2 MSTORE PUSH1 0x40 DUP1 DUP4 KECCAK256 PUSH20 0xFFFFFFFFFFFFFFFFFFFFFFFFFFFFFFFFFFFFFFFF DUP8 AND TIMESTAMP PUSH1 0xA0 SHL PUSH1 0x1 DUP9 EQ PUSH1 0xE1 SHL OR DUP2 OR SWAP1 SWAP2 SSTORE DUP1 DUP5 MSTORE PUSH1 0x5 SWAP1 SWAP3 MSTORE DUP3 KECCAK256 DUP1 SLOAD PUSH9 0x10000000000000001 DUP7 MUL ADD SWAP1 SSTORE SWAP1 DUP2 SWAP1 SUB PUSH2 0x13A6 JUMPI PUSH2 0x13A6 PUSH32 0x2E07630000000000000000000000000000000000000000000000000000000000 PUSH2 0xBFD JUMP JUMPDEST DUP2 DUP4 ADD DUP3 JUMPDEST DUP1 DUP4 PUSH1 0x0 PUSH32 0xDDF252AD1BE2C89B69C2B068FC378DAA952BA7F163C4A11628F55A4DF523B3EF PUSH1 0x0 DUP1 LOG4 DUP2 DUP2 PUSH1 0x1 ADD SWAP2 POP DUP2 SUB PUSH2 0x13AB JUMPI POP PUSH1 0x0 SSTORE POP POP POP POP JUMP JUMPDEST PUSH32 0xFFFFFFFF00000000000000000000000000000000000000000000000000000000 DUP2 AND DUP2 EQ PUSH2 0x918 JUMPI PUSH1 0x0 DUP1 REVERT JUMPDEST PUSH1 0x0 PUSH1 0x20 DUP3 DUP5 SUB SLT ISZERO PUSH2 0x142B JUMPI PUSH1 0x0 DUP1 REVERT JUMPDEST DUP2 CALLDATALOAD PUSH2 0xB60 DUP2 PUSH2 0x13EB JUMP JUMPDEST PUSH1 0x0 JUMPDEST DUP4 DUP2 LT ISZERO PUSH2 0x1451 JUMPI DUP2 DUP2 ADD MLOAD DUP4 DUP3 ADD MSTORE PUSH1 0x20 ADD PUSH2 0x1439 JUMP JUMPDEST POP POP PUSH1 0x0 SWAP2 ADD MSTORE JUMP JUMPDEST PUSH1 0x0 DUP2 MLOAD DUP1 DUP5 MSTORE PUSH2 0x1472 DUP2 PUSH1 0x20 DUP7 ADD PUSH1 0x20 DUP7 ADD PUSH2 0x1436 JUMP JUMPDEST PUSH1 0x1F ADD PUSH32 0xFFFFFFFFFFFFFFFFFFFFFFFFFFFFFFFFFFFFFFFFFFFFFFFFFFFFFFFFFFFFFFE0 AND SWAP3 SWAP1 SWAP3 ADD PUSH1 0x20 ADD SWAP3 SWAP2 POP POP JUMP JUMPDEST PUSH1 0x20 DUP2 MSTORE PUSH1 0x0 PUSH2 0xB60 PUSH1 0x20 DUP4 ADD DUP5 PUSH2 0x145A JUMP JUMPDEST PUSH1 0x0 PUSH1 0x20 DUP3 DUP5 SUB SLT ISZERO PUSH2 0x14C9 JUMPI PUSH1 0x0 DUP1 REVERT JUMPDEST POP CALLDATALOAD SWAP2 SWAP1 POP JUMP JUMPDEST DUP1 CALLDATALOAD PUSH20 0xFFFFFFFFFFFFFFFFFFFFFFFFFFFFFFFFFFFFFFFF DUP2 AND DUP2 EQ PUSH2 0xBF8 JUMPI PUSH1 0x0 DUP1 REVERT JUMPDEST PUSH1 0x0 DUP1 PUSH1 0x40 DUP4 DUP6 SUB SLT ISZERO PUSH2 0x1507 JUMPI PUSH1 0x0 DUP1 REVERT JUMPDEST PUSH2 0x1510 DUP4 PUSH2 0x14D0 JUMP JUMPDEST SWAP5 PUSH1 0x20 SWAP4 SWAP1 SWAP4 ADD CALLDATALOAD SWAP4 POP POP POP JUMP JUMPDEST PUSH1 0x0 DUP1 PUSH1 0x0 PUSH1 0x60 DUP5 DUP7 SUB SLT ISZERO PUSH2 0x1533 JUMPI PUSH1 0x0 DUP1 REVERT JUMPDEST PUSH2 0x153C DUP5 PUSH2 0x14D0 JUMP JUMPDEST SWAP3 POP PUSH2 0x154A PUSH1 0x20 DUP6 ADD PUSH2 0x14D0 JUMP JUMPDEST SWAP3 SWAP6 SWAP3 SWAP5 POP POP POP PUSH1 0x40 SWAP2 SWAP1 SWAP2 ADD CALLDATALOAD SWAP1 JUMP JUMPDEST PUSH1 0x0 PUSH1 0x20 DUP3 DUP5 SUB SLT ISZERO PUSH2 0x156D JUMPI PUSH1 0x0 DUP1 REVERT JUMPDEST PUSH2 0xB60 DUP3 PUSH2 0x14D0 JUMP JUMPDEST PUSH1 0x0 DUP1 PUSH1 0x40 DUP4 DUP6 SUB SLT ISZERO PUSH2 0x1589 JUMPI PUSH1 0x0 DUP1 REVERT JUMPDEST PUSH2 0x1592 DUP4 PUSH2 0x14D0 JUMP JUMPDEST SWAP2 POP PUSH1 0x20 DUP4 ADD CALLDATALOAD DUP1 ISZERO ISZERO DUP2 EQ PUSH2 0x15A7 JUMPI PUSH1 0x0 DUP1 REVERT JUMPDEST DUP1 SWAP2 POP POP SWAP3 POP SWAP3 SWAP1 POP JUMP JUMPDEST PUSH32 0x4E487B7100000000000000000000000000000000000000000000000000000000 PUSH1 0x0 MSTORE PUSH1 0x41 PUSH1 0x4 MSTORE PUSH1 0x24 PUSH1 0x0 REVERT JUMPDEST PUSH1 0x0 DUP1 PUSH1 0x0 DUP1 PUSH1 0x80 DUP6 DUP8 SUB SLT ISZERO PUSH2 0x15F7 JUMPI PUSH1 0x0 DUP1 REVERT JUMPDEST PUSH2 0x1600 DUP6 PUSH2 0x14D0 JUMP JUMPDEST SWAP4 POP PUSH2 0x160E PUSH1 0x20 DUP7 ADD PUSH2 0x14D0 JUMP JUMPDEST SWAP3 POP PUSH1 0x40 DUP6 ADD CALLDATALOAD SWAP2 POP PUSH1 0x60 DUP6 ADD CALLDATALOAD PUSH8 0xFFFFFFFFFFFFFFFF DUP2 GT ISZERO PUSH2 0x1631 JUMPI PUSH1 0x0 DUP1 REVERT JUMPDEST DUP6 ADD PUSH1 0x1F DUP2 ADD DUP8 SGT PUSH2 0x1642 JUMPI PUSH1 0x0 DUP1 REVERT JUMPDEST DUP1 CALLDATALOAD PUSH8 0xFFFFFFFFFFFFFFFF DUP2 GT ISZERO PUSH2 0x165C JUMPI PUSH2 0x165C PUSH2 0x15B2 JUMP JUMPDEST PUSH1 0x40 MLOAD PUSH32 0xFFFFFFFFFFFFFFFFFFFFFFFFFFFFFFFFFFFFFFFFFFFFFFFFFFFFFFFFFFFFFFE0 PUSH1 0x3F PUSH32 0xFFFFFFFFFFFFFFFFFFFFFFFFFFFFFFFFFFFFFFFFFFFFFFFFFFFFFFFFFFFFFFE0 PUSH1 0x1F DUP6 ADD AND ADD AND DUP2 ADD DUP2 DUP2 LT PUSH8 0xFFFFFFFFFFFFFFFF DUP3 GT OR ISZERO PUSH2 0x16C8 JUMPI PUSH2 0x16C8 PUSH2 0x15B2 JUMP JUMPDEST PUSH1 0x40 MSTORE DUP2 DUP2 MSTORE DUP3 DUP3 ADD PUSH1 0x20 ADD DUP10 LT ISZERO PUSH2 0x16E0 JUMPI PUSH1 0x0 DUP1 REVERT JUMPDEST DUP2 PUSH1 0x20 DUP5 ADD PUSH1 0x20 DUP4 ADD CALLDATACOPY PUSH1 0x0 PUSH1 0x20 DUP4 DUP4 ADD ADD MSTORE DUP1 SWAP4 POP POP POP POP SWAP3 SWAP6 SWAP2 SWAP5 POP SWAP3 POP JUMP JUMPDEST PUSH1 0x0 DUP1 PUSH1 0x40 DUP4 DUP6 SUB SLT ISZERO PUSH2 0x1715 JUMPI PUSH1 0x0 DUP1 REVERT JUMPDEST PUSH2 0x171E DUP4 PUSH2 0x14D0 JUMP JUMPDEST SWAP2 POP PUSH2 0x172C PUSH1 0x20 DUP5 ADD PUSH2 0x14D0 JUMP JUMPDEST SWAP1 POP SWAP3 POP SWAP3 SWAP1 POP JUMP JUMPDEST PUSH1 0x1 DUP2 DUP2 SHR SWAP1 DUP3 AND DUP1 PUSH2 0x1749 JUMPI PUSH1 0x7F DUP3 AND SWAP2 POP JUMPDEST PUSH1 0x20 DUP3 LT DUP2 SUB PUSH2 0x1782 JUMPI PUSH32 0x4E487B7100000000000000000000000000000000000000000000000000000000 PUSH1 0x0 MSTORE PUSH1 0x22 PUSH1 0x4 MSTORE PUSH1 0x24 PUSH1 0x0 REVERT JUMPDEST POP SWAP2 SWAP1 POP JUMP JUMPDEST PUSH1 0x0 DUP4 MLOAD PUSH2 0x179A DUP2 DUP5 PUSH1 0x20 DUP9 ADD PUSH2 0x1436 JUMP JUMPDEST DUP4 MLOAD SWAP1 DUP4 ADD SWAP1 PUSH2 0x17AE DUP2 DUP4 PUSH1 0x20 DUP9 ADD PUSH2 0x1436 JUMP JUMPDEST ADD SWAP5 SWAP4 POP POP POP POP JUMP JUMPDEST PUSH1 0x0 DUP2 PUSH2 0x17ED JUMPI PUSH32 0x4E487B7100000000000000000000000000000000000000000000000000000000 PUSH1 0x0 MSTORE PUSH1 0x11 PUSH1 0x4 MSTORE PUSH1 0x24 PUSH1 0x0 REVERT JUMPDEST POP PUSH32 0xFFFFFFFFFFFFFFFFFFFFFFFFFFFFFFFFFFFFFFFFFFFFFFFFFFFFFFFFFFFFFFFF ADD SWAP1 JUMP JUMPDEST PUSH20 0xFFFFFFFFFFFFFFFFFFFFFFFFFFFFFFFFFFFFFFFF DUP6 AND DUP2 MSTORE PUSH20 0xFFFFFFFFFFFFFFFFFFFFFFFFFFFFFFFFFFFFFFFF DUP5 AND PUSH1 0x20 DUP3 ADD MSTORE DUP3 PUSH1 0x40 DUP3 ADD MSTORE PUSH1 0x80 PUSH1 0x60 DUP3 ADD MSTORE PUSH1 0x0 PUSH2 0x1864 PUSH1 0x80 DUP4 ADD DUP5 PUSH2 0x145A JUMP JUMPDEST SWAP7 SWAP6 POP POP POP POP POP POP JUMP JUMPDEST PUSH1 0x0 PUSH1 0x20 DUP3 DUP5 SUB SLT ISZERO PUSH2 0x1880 JUMPI PUSH1 0x0 DUP1 REVERT JUMPDEST DUP2 MLOAD PUSH2 0xB60 DUP2 PUSH2 0x13EB JUMP INVALID LOG2 PUSH5 0x6970667358 0x22 SLT KECCAK256 0x22 NOT MSIZE LOG2 DELEGATECALL 0xC8 0x29 PUSH16 0xF1E8E373A93622E8879AE1B5F1E34E4D 0xDB SWAP2 COINBASE DUP4 SAR DUP11 0x2B 0xDA PUSH5 0x736F6C6343 STOP ADDMOD SHL STOP CALLER "
				},
				"gasEstimates": {
					"creation": {
						"codeDepositCost": "1267400",
						"executionCost": "infinite",
						"totalCost": "infinite"
					},
					"external": {
						"approve(address,uint256)": "infinite",
						"balanceOf(address)": "1327",
						"burn(uint256)": "infinite",
						"exists(uint256)": "infinite",
						"getApproved(uint256)": "infinite",
						"getOwnershipAt(uint256)": "infinite",
						"isApprovedForAll(address,address)": "infinite",
						"name()": "infinite",
						"numberBurned(address)": "1333",
						"ownerOf(uint256)": "infinite",
						"safeMint(address,uint256)": "infinite",
						"safeTransferFrom(address,address,uint256)": "infinite",
						"safeTransferFrom(address,address,uint256,bytes)": "infinite",
						"setApprovalForAll(address,bool)": "23247",
						"supportsInterface(bytes4)": "479",
						"symbol()": "infinite",
						"tokenURI(uint256)": "infinite",
						"totalBurned()": "1074",
						"totalMinted()": "1037",
						"totalSupply()": "1877",
						"transferFrom(address,address,uint256)": "infinite"
					}
				},
				"methodIdentifiers": {
					"approve(address,uint256)": "095ea7b3",
					"balanceOf(address)": "70a08231",
					"burn(uint256)": "42966c68",
					"exists(uint256)": "4f558e79",
					"getApproved(uint256)": "081812fc",
					"getOwnershipAt(uint256)": "f2523633",
					"isApprovedForAll(address,address)": "e985e9c5",
					"name()": "06fdde03",
					"numberBurned(address)": "2478d639",
					"ownerOf(uint256)": "6352211e",
					"safeMint(address,uint256)": "a1448194",
					"safeTransferFrom(address,address,uint256)": "42842e0e",
					"safeTransferFrom(address,address,uint256,bytes)": "b88d4fde",
					"setApprovalForAll(address,bool)": "a22cb465",
					"supportsInterface(bytes4)": "01ffc9a7",
					"symbol()": "95d89b41",
					"tokenURI(uint256)": "c87b56dd",
					"totalBurned()": "d89135cd",
					"totalMinted()": "a2309ff8",
					"totalSupply()": "18160ddd",
					"transferFrom(address,address,uint256)": "23b872dd"
				}
			},
			"storageLayout": {
				"storage": [
					{
						"astId": 179,
						"contract": "Azuki-ERC721A-ERC721ABurnableMock(copy)(copy)//mocks/ERC721ABurnableMock.sol:ERC721ABurnableMock",
						"label": "_currentIndex",
						"offset": 0,
						"slot": "0",
						"type": "t_uint256"
					},
					{
						"astId": 181,
						"contract": "Azuki-ERC721A-ERC721ABurnableMock(copy)(copy)//mocks/ERC721ABurnableMock.sol:ERC721ABurnableMock",
						"label": "_burnCounter",
						"offset": 0,
						"slot": "1",
						"type": "t_uint256"
					},
					{
						"astId": 183,
						"contract": "Azuki-ERC721A-ERC721ABurnableMock(copy)(copy)//mocks/ERC721ABurnableMock.sol:ERC721ABurnableMock",
						"label": "_name",
						"offset": 0,
						"slot": "2",
						"type": "t_string_storage"
					},
					{
						"astId": 185,
						"contract": "Azuki-ERC721A-ERC721ABurnableMock(copy)(copy)//mocks/ERC721ABurnableMock.sol:ERC721ABurnableMock",
						"label": "_symbol",
						"offset": 0,
						"slot": "3",
						"type": "t_string_storage"
					},
					{
						"astId": 189,
						"contract": "Azuki-ERC721A-ERC721ABurnableMock(copy)(copy)//mocks/ERC721ABurnableMock.sol:ERC721ABurnableMock",
						"label": "_packedOwnerships",
						"offset": 0,
						"slot": "4",
						"type": "t_mapping(t_uint256,t_uint256)"
					},
					{
						"astId": 193,
						"contract": "Azuki-ERC721A-ERC721ABurnableMock(copy)(copy)//mocks/ERC721ABurnableMock.sol:ERC721ABurnableMock",
						"label": "_packedAddressData",
						"offset": 0,
						"slot": "5",
						"type": "t_mapping(t_address,t_uint256)"
					},
					{
						"astId": 198,
						"contract": "Azuki-ERC721A-ERC721ABurnableMock(copy)(copy)//mocks/ERC721ABurnableMock.sol:ERC721ABurnableMock",
						"label": "_tokenApprovals",
						"offset": 0,
						"slot": "6",
						"type": "t_mapping(t_uint256,t_struct(TokenApprovalRef)111_storage)"
					},
					{
						"astId": 204,
						"contract": "Azuki-ERC721A-ERC721ABurnableMock(copy)(copy)//mocks/ERC721ABurnableMock.sol:ERC721ABurnableMock",
						"label": "_operatorApprovals",
						"offset": 0,
						"slot": "7",
						"type": "t_mapping(t_address,t_mapping(t_address,t_bool))"
					}
				],
				"types": {
					"t_address": {
						"encoding": "inplace",
						"label": "address",
						"numberOfBytes": "20"
					},
					"t_bool": {
						"encoding": "inplace",
						"label": "bool",
						"numberOfBytes": "1"
					},
					"t_mapping(t_address,t_bool)": {
						"encoding": "mapping",
						"key": "t_address",
						"label": "mapping(address => bool)",
						"numberOfBytes": "32",
						"value": "t_bool"
					},
					"t_mapping(t_address,t_mapping(t_address,t_bool))": {
						"encoding": "mapping",
						"key": "t_address",
						"label": "mapping(address => mapping(address => bool))",
						"numberOfBytes": "32",
						"value": "t_mapping(t_address,t_bool)"
					},
					"t_mapping(t_address,t_uint256)": {
						"encoding": "mapping",
						"key": "t_address",
						"label": "mapping(address => uint256)",
						"numberOfBytes": "32",
						"value": "t_uint256"
					},
					"t_mapping(t_uint256,t_struct(TokenApprovalRef)111_storage)": {
						"encoding": "mapping",
						"key": "t_uint256",
						"label": "mapping(uint256 => struct ERC721A.TokenApprovalRef)",
						"numberOfBytes": "32",
						"value": "t_struct(TokenApprovalRef)111_storage"
					},
					"t_mapping(t_uint256,t_uint256)": {
						"encoding": "mapping",
						"key": "t_uint256",
						"label": "mapping(uint256 => uint256)",
						"numberOfBytes": "32",
						"value": "t_uint256"
					},
					"t_string_storage": {
						"encoding": "bytes",
						"label": "string",
						"numberOfBytes": "32"
					},
					"t_struct(TokenApprovalRef)111_storage": {
						"encoding": "inplace",
						"label": "struct ERC721A.TokenApprovalRef",
						"members": [
							{
								"astId": 110,
								"contract": "Azuki-ERC721A-ERC721ABurnableMock(copy)(copy)//mocks/ERC721ABurnableMock.sol:ERC721ABurnableMock",
								"label": "value",
								"offset": 0,
								"slot": "0",
								"type": "t_address"
							}
						],
						"numberOfBytes": "32"
					},
					"t_uint256": {
						"encoding": "inplace",
						"label": "uint256",
						"numberOfBytes": "32"
					}
				}
			},
			"userdoc": {
				"errors": {
					"ApprovalCallerNotOwnerNorApproved()": [
						{
							"notice": "The caller must own the token or be an approved operator."
						}
					],
					"ApprovalQueryForNonexistentToken()": [
						{
							"notice": "The token does not exist."
						}
					],
					"BalanceQueryForZeroAddress()": [
						{
							"notice": "Cannot query the balance for the zero address."
						}
					],
					"MintERC2309QuantityExceedsLimit()": [
						{
							"notice": "The `quantity` minted with ERC2309 exceeds the safety limit."
						}
					],
					"MintToZeroAddress()": [
						{
							"notice": "Cannot mint to the zero address."
						}
					],
					"MintZeroQuantity()": [
						{
							"notice": "The quantity of tokens minted must be more than zero."
						}
					],
					"OwnerQueryForNonexistentToken()": [
						{
							"notice": "The token does not exist."
						}
					],
					"OwnershipNotInitializedForExtraData()": [
						{
							"notice": "The `extraData` cannot be set on an unintialized ownership slot."
						}
					],
					"TransferCallerNotOwnerNorApproved()": [
						{
							"notice": "The caller must own the token or be an approved operator."
						}
					],
					"TransferFromIncorrectOwner()": [
						{
							"notice": "The token must be owned by `from`."
						}
					],
					"TransferToNonERC721ReceiverImplementer()": [
						{
							"notice": "Cannot safely transfer to a contract that does not implement the ERC721Receiver interface."
						}
					],
					"TransferToZeroAddress()": [
						{
							"notice": "Cannot transfer to the zero address."
						}
					],
					"URIQueryForNonexistentToken()": [
						{
							"notice": "The token does not exist."
						}
					]
				},
				"kind": "user",
				"methods": {},
				"version": 1
			}
		}
	}
}