{
	"data": {
		"bytecode": {
			"linkReferences": {},
			"object": "608060405234801561001057600080fd5b5061042f806100206000396000f3fe608060405234801561001057600080fd5b50600436106100365760003560e01c8063579073de1461003b57806372a853b114610117575b600080fd5b610115600480360360e081101561005157600080fd5b8135916001600160a01b036020820135811692604083013582169260608101358316926080820135169160a0820135919081019060e0810160c08201356401000000008111156100a057600080fd5b8201836020820111156100b257600080fd5b803590602001918460018302840111640100000000831117156100d457600080fd5b91908080601f0160208091040260200160405190810160405280939291908181526020018383808284376000920191909152509295506101e5945050505050565b005b61011f610294565b60405180888152602001876001600160a01b03168152602001866001600160a01b03168152602001856001600160a01b03168152602001846001600160a01b0316815260200183815260200180602001828103825283818151815260200191508051906020019080838360005b838110156101a457818101518382015260200161018c565b50505050905090810190601f1680156101d15780820380516001836020036101000a031916815260200191505b509850505050505050505060405180910390f35b6040805160e0810182528881526001600160a01b038089166020808401829052898316948401859052888316606085018190529288166080850181905260a0850188905260c0850187905260008d8155600180546001600160a01b03199081169095179055600280548516909717909655600380548416909417909355600480549092169092179055600585905583519192916102889160069190860190610358565b50505050505050505050565b600080546001805460028054600354600454600554600680546040805160206101009b8416159b909b026000190190921697909704601f81018a90048a0282018a0190975286815298996001600160a01b03978816999588169894881697909316959194929390919083018282801561034e5780601f106103235761010080835404028352916020019161034e565b820191906000526020600020905b81548152906001019060200180831161033157829003601f168201915b5050505050905087565b828054600181600116156101000203166002900490600052602060002090601f01602090048101928261038e57600085556103d4565b82601f106103a757805160ff19168380011785556103d4565b828001600101855582156103d4579182015b828111156103d45782518255916020019190600101906103b9565b506103e09291506103e4565b5090565b5b808211156103e057600081556001016103e556fea26469706673582212200705b5f7f0fe34b5aed91be36226036e79a00be69fe685fd3de8f3015e55e6b164736f6c63430007060033",
			"opcodes": "PUSH1 0x80 PUSH1 0x40 MSTORE CALLVALUE DUP1 ISZERO PUSH2 0x10 JUMPI PUSH1 0x0 DUP1 REVERT JUMPDEST POP PUSH2 0x42F DUP1 PUSH2 0x20 PUSH1 0x0 CODECOPY PUSH1 0x0 RETURN INVALID PUSH1 0x80 PUSH1 0x40 MSTORE CALLVALUE DUP1 ISZERO PUSH2 0x10 JUMPI PUSH1 0x0 DUP1 REVERT JUMPDEST POP PUSH1 0x4 CALLDATASIZE LT PUSH2 0x36 JUMPI PUSH1 0x0 CALLDATALOAD PUSH1 0xE0 SHR DUP1 PUSH4 0x579073DE EQ PUSH2 0x3B JUMPI DUP1 PUSH4 0x72A853B1 EQ PUSH2 0x117 JUMPI JUMPDEST PUSH1 0x0 DUP1 REVERT JUMPDEST PUSH2 0x115 PUSH1 0x4 DUP1 CALLDATASIZE SUB PUSH1 0xE0 DUP2 LT ISZERO PUSH2 0x51 JUMPI PUSH1 0x0 DUP1 REVERT JUMPDEST DUP2 CALLDATALOAD SWAP2 PUSH1 0x1 PUSH1 0x1 PUSH1 0xA0 SHL SUB PUSH1 0x20 DUP3 ADD CALLDATALOAD DUP2 AND SWAP3 PUSH1 0x40 DUP4 ADD CALLDATALOAD DUP3 AND SWAP3 PUSH1 0x60 DUP2 ADD CALLDATALOAD DUP4 AND SWAP3 PUSH1 0x80 DUP3 ADD CALLDATALOAD AND SWAP2 PUSH1 0xA0 DUP3 ADD CALLDATALOAD SWAP2 SWAP1 DUP2 ADD SWAP1 PUSH1 0xE0 DUP2 ADD PUSH1 0xC0 DUP3 ADD CALLDATALOAD PUSH5 0x100000000 DUP2 GT ISZERO PUSH2 0xA0 JUMPI PUSH1 0x0 DUP1 REVERT JUMPDEST DUP3 ADD DUP4 PUSH1 0x20 DUP3 ADD GT ISZERO PUSH2 0xB2 JUMPI PUSH1 0x0 DUP1 REVERT JUMPDEST DUP1 CALLDATALOAD SWAP1 PUSH1 0x20 ADD SWAP2 DUP5 PUSH1 0x1 DUP4 MUL DUP5 ADD GT PUSH5 0x100000000 DUP4 GT OR ISZERO PUSH2 0xD4 JUMPI PUSH1 0x0 DUP1 REVERT JUMPDEST SWAP2 SWAP1 DUP1 DUP1 PUSH1 0x1F ADD PUSH1 0x20 DUP1 SWAP2 DIV MUL PUSH1 0x20 ADD PUSH1 0x40 MLOAD SWAP1 DUP2 ADD PUSH1 0x40 MSTORE DUP1 SWAP4 SWAP3 SWAP2 SWAP1 DUP2 DUP2 MSTORE PUSH1 0x20 ADD DUP4 DUP4 DUP1 DUP3 DUP5 CALLDATACOPY PUSH1 0x0 SWAP3 ADD SWAP2 SWAP1 SWAP2 MSTORE POP SWAP3 SWAP6 POP PUSH2 0x1E5 SWAP5 POP POP POP POP POP JUMP JUMPDEST STOP JUMPDEST PUSH2 0x11F PUSH2 0x294 JUMP JUMPDEST PUSH1 0x40 MLOAD DUP1 DUP9 DUP2 MSTORE PUSH1 0x20 ADD DUP8 PUSH1 0x1 PUSH1 0x1 PUSH1 0xA0 SHL SUB AND DUP2 MSTORE PUSH1 0x20 ADD DUP7 PUSH1 0x1 PUSH1 0x1 PUSH1 0xA0 SHL SUB AND DUP2 MSTORE PUSH1 0x20 ADD DUP6 PUSH1 0x1 PUSH1 0x1 PUSH1 0xA0 SHL SUB AND DUP2 MSTORE PUSH1 0x20 ADD DUP5 PUSH1 0x1 PUSH1 0x1 PUSH1 0xA0 SHL SUB AND DUP2 MSTORE PUSH1 0x20 ADD DUP4 DUP2 MSTORE PUSH1 0x20 ADD DUP1 PUSH1 0x20 ADD DUP3 DUP2 SUB DUP3 MSTORE DUP4 DUP2 DUP2 MLOAD DUP2 MSTORE PUSH1 0x20 ADD SWAP2 POP DUP1 MLOAD SWAP1 PUSH1 0x20 ADD SWAP1 DUP1 DUP4 DUP4 PUSH1 0x0 JUMPDEST DUP4 DUP2 LT ISZERO PUSH2 0x1A4 JUMPI DUP2 DUP2 ADD MLOAD DUP4 DUP3 ADD MSTORE PUSH1 0x20 ADD PUSH2 0x18C JUMP JUMPDEST POP POP POP POP SWAP1 POP SWAP1 DUP2 ADD SWAP1 PUSH1 0x1F AND DUP1 ISZERO PUSH2 0x1D1 JUMPI DUP1 DUP3 SUB DUP1 MLOAD PUSH1 0x1 DUP4 PUSH1 0x20 SUB PUSH2 0x100 EXP SUB NOT AND DUP2 MSTORE PUSH1 0x20 ADD SWAP2 POP JUMPDEST POP SWAP9 POP POP POP POP POP POP POP POP POP PUSH1 0x40 MLOAD DUP1 SWAP2 SUB SWAP1 RETURN JUMPDEST PUSH1 0x40 DUP1 MLOAD PUSH1 0xE0 DUP2 ADD DUP3 MSTORE DUP9 DUP2 MSTORE PUSH1 0x1 PUSH1 0x1 PUSH1 0xA0 SHL SUB DUP1 DUP10 AND PUSH1 0x20 DUP1 DUP5 ADD DUP3 SWAP1 MSTORE DUP10 DUP4 AND SWAP5 DUP5 ADD DUP6 SWAP1 MSTORE DUP9 DUP4 AND PUSH1 0x60 DUP6 ADD DUP2 SWAP1 MSTORE SWAP3 DUP9 AND PUSH1 0x80 DUP6 ADD DUP2 SWAP1 MSTORE PUSH1 0xA0 DUP6 ADD DUP9 SWAP1 MSTORE PUSH1 0xC0 DUP6 ADD DUP8 SWAP1 MSTORE PUSH1 0x0 DUP14 DUP2 SSTORE PUSH1 0x1 DUP1 SLOAD PUSH1 0x1 PUSH1 0x1 PUSH1 0xA0 SHL SUB NOT SWAP1 DUP2 AND SWAP1 SWAP6 OR SWAP1 SSTORE PUSH1 0x2 DUP1 SLOAD DUP6 AND SWAP1 SWAP8 OR SWAP1 SWAP7 SSTORE PUSH1 0x3 DUP1 SLOAD DUP5 AND SWAP1 SWAP5 OR SWAP1 SWAP4 SSTORE PUSH1 0x4 DUP1 SLOAD SWAP1 SWAP3 AND SWAP1 SWAP3 OR SWAP1 SSTORE PUSH1 0x5 DUP6 SWAP1 SSTORE DUP4 MLOAD SWAP2 SWAP3 SWAP2 PUSH2 0x288 SWAP2 PUSH1 0x6 SWAP2 SWAP1 DUP7 ADD SWAP1 PUSH2 0x358 JUMP JUMPDEST POP POP POP POP POP POP POP POP POP POP JUMP JUMPDEST PUSH1 0x0 DUP1 SLOAD PUSH1 0x1 DUP1 SLOAD PUSH1 0x2 DUP1 SLOAD PUSH1 0x3 SLOAD PUSH1 0x4 SLOAD PUSH1 0x5 SLOAD PUSH1 0x6 DUP1 SLOAD PUSH1 0x40 DUP1 MLOAD PUSH1 0x20 PUSH2 0x100 SWAP12 DUP5 AND ISZERO SWAP12 SWAP1 SWAP12 MUL PUSH1 0x0 NOT ADD SWAP1 SWAP3 AND SWAP8 SWAP1 SWAP8 DIV PUSH1 0x1F DUP2 ADD DUP11 SWAP1 DIV DUP11 MUL DUP3 ADD DUP11 ADD SWAP1 SWAP8 MSTORE DUP7 DUP2 MSTORE SWAP9 SWAP10 PUSH1 0x1 PUSH1 0x1 PUSH1 0xA0 SHL SUB SWAP8 DUP9 AND SWAP10 SWAP6 DUP9 AND SWAP9 SWAP5 DUP9 AND SWAP8 SWAP1 SWAP4 AND SWAP6 SWAP2 SWAP5 SWAP3 SWAP4 SWAP1 SWAP2 SWAP1 DUP4 ADD DUP3 DUP3 DUP1 ISZERO PUSH2 0x34E JUMPI DUP1 PUSH1 0x1F LT PUSH2 0x323 JUMPI PUSH2 0x100 DUP1 DUP4 SLOAD DIV MUL DUP4 MSTORE SWAP2 PUSH1 0x20 ADD SWAP2 PUSH2 0x34E JUMP JUMPDEST DUP3 ADD SWAP2 SWAP1 PUSH1 0x0 MSTORE PUSH1 0x20 PUSH1 0x0 KECCAK256 SWAP1 JUMPDEST DUP2 SLOAD DUP2 MSTORE SWAP1 PUSH1 0x1 ADD SWAP1 PUSH1 0x20 ADD DUP1 DUP4 GT PUSH2 0x331 JUMPI DUP3 SWAP1 SUB PUSH1 0x1F AND DUP3 ADD SWAP2 JUMPDEST POP POP POP POP POP SWAP1 POP DUP8 JUMP JUMPDEST DUP3 DUP1 SLOAD PUSH1 0x1 DUP2 PUSH1 0x1 AND ISZERO PUSH2 0x100 MUL SUB AND PUSH1 0x2 SWAP1 DIV SWAP1 PUSH1 0x0 MSTORE PUSH1 0x20 PUSH1 0x0 KECCAK256 SWAP1 PUSH1 0x1F ADD PUSH1 0x20 SWAP1 DIV DUP2 ADD SWAP3 DUP3 PUSH2 0x38E JUMPI PUSH1 0x0 DUP6 SSTORE PUSH2 0x3D4 JUMP JUMPDEST DUP3 PUSH1 0x1F LT PUSH2 0x3A7 JUMPI DUP1 MLOAD PUSH1 0xFF NOT AND DUP4 DUP1 ADD OR DUP6 SSTORE PUSH2 0x3D4 JUMP JUMPDEST DUP3 DUP1 ADD PUSH1 0x1 ADD DUP6 SSTORE DUP3 ISZERO PUSH2 0x3D4 JUMPI SWAP2 DUP3 ADD JUMPDEST DUP3 DUP2 GT ISZERO PUSH2 0x3D4 JUMPI DUP3 MLOAD DUP3 SSTORE SWAP2 PUSH1 0x20 ADD SWAP2 SWAP1 PUSH1 0x1 ADD SWAP1 PUSH2 0x3B9 JUMP JUMPDEST POP PUSH2 0x3E0 SWAP3 SWAP2 POP PUSH2 0x3E4 JUMP JUMPDEST POP SWAP1 JUMP JUMPDEST JUMPDEST DUP1 DUP3 GT ISZERO PUSH2 0x3E0 JUMPI PUSH1 0x0 DUP2 SSTORE PUSH1 0x1 ADD PUSH2 0x3E5 JUMP INVALID LOG2 PUSH5 0x6970667358 0x22 SLT KECCAK256 SMOD SDIV 0xB5 0xF7 CREATE INVALID CALLVALUE 0xB5 0xAE 0xD9 SHL 0xE3 PUSH3 0x26036E PUSH26 0xA00BE69FE685FD3DE8F3015E55E6B164736F6C63430007060033 "
		},
		"gasEstimates": {
			"creation": {
				"codeDepositCost": "214200",
				"executionCost": "257",
				"totalCost": "214457"
			},
			"external": {
				"lastCallData()": "infinite",
				"tokensWithdrawn(uint256,address,address,address,address,uint256,bytes)": "infinite"
			}
		},
		"methodIdentifiers": {
			"lastCallData()": "72a853b1",
			"tokensWithdrawn(uint256,address,address,address,address,uint256,bytes)": "579073de"
		}
	},
	"abi": [
		{
			"inputs": [],
			"name": "lastCallData",
			"outputs": [
				{
					"internalType": "uint256",
					"name": "amount",
					"type": "uint256"
				},
				{
					"internalType": "address",
					"name": "stealthAddr",
					"type": "address"
				},
				{
					"internalType": "address",
					"name": "acceptor",
					"type": "address"
				},
				{
					"internalType": "address",
					"name": "tokenAddr",
					"type": "address"
				},
				{
					"internalType": "address",
					"name": "sponsor",
					"type": "address"
				},
				{
					"internalType": "uint256",
					"name": "sponsorFee",
					"type": "uint256"
				},
				{
					"internalType": "bytes",
					"name": "data",
					"type": "bytes"
				}
			],
			"stateMutability": "view",
			"type": "function"
		},
		{
			"inputs": [
				{
					"internalType": "uint256",
					"name": "_amount",
					"type": "uint256"
				},
				{
					"internalType": "address",
					"name": "_stealthAddr",
					"type": "address"
				},
				{
					"internalType": "address",
					"name": "_acceptor",
					"type": "address"
				},
				{
					"internalType": "address",
					"name": "_tokenAddr",
					"type": "address"
				},
				{
					"internalType": "address",
					"name": "_sponsor",
					"type": "address"
				},
				{
					"internalType": "uint256",
					"name": "_sponsorFee",
					"type": "uint256"
				},
				{
					"internalType": "bytes",
					"name": "_data",
					"type": "bytes"
				}
			],
			"name": "tokensWithdrawn",
			"outputs": [],
			"stateMutability": "nonpayable",
			"type": "function"
		}
	]
}