{
	"data": {
		"bytecode": {
			"linkReferences": {},
			"object": "60a060405234801561000f575f5ffd5b50604080518082018252601a81527f556d62726120537465616c7468204b65792052656769737472790000000000006020918201528151808301835260018152603160f81b9082015281517f8b73c3c69bb8fe3d512ecc4cf759cc79239f7b179b0ffacaa9a75d522b39400f918101919091527f4baf469995623d4e8baaebc31ddb114fbc90e91c717e133da2fb936309b41eb9918101919091527fc89efdaa54c0f20c7adf612882df0950f5a951637e0307cdcb4c672f298b8bc660608201524660808201523060a082015260c00160408051601f19818403018152919052805160209091012060805260805161066f6101185f395f818160730152610185015261066f5ff3fe608060405234801561000f575f5ffd5b5060043610610055575f3560e01c8063100dcc53146100595780633644e5151461006e57806367eaa7ac146100a8578063bb8f257b146100cf578063cec2a787146100e2575b5f5ffd5b61006c610067366004610556565b610115565b005b6100957f000000000000000000000000000000000000000000000000000000000000000081565b6040519081526020015b60405180910390f35b6100957fab73c83a21fb894c20095a8f28177984b02f6284c760e4c1ac2f82c3d34b79c181565b61006c6100dd3660046105c5565b6102b6565b6100f56100f03660046105f4565b6102c9565b60408051948552602085019390935291830152606082015260800161009f565b604080517fab73c83a21fb894c20095a8f28177984b02f6284c760e4c1ac2f82c3d34b79c16020808301919091528183018a9052606082018990526080820188905260a08083018890528351808403909101815260c08301909352825192019190912061190160f01b60e08301527f000000000000000000000000000000000000000000000000000000000000000060e28301526101028201525f906101220160408051601f1981840301815282825280516020918201205f80855291840180845281905260ff88169284019290925260608301869052608083018590529092509060019060a0016020604051602081039080840390855afa15801561021d573d5f5f3e3d5ffd5b505050602060405103519050896001600160a01b0316816001600160a01b03161461029d5760405162461bcd60e51b815260206004820152602560248201527f537465616c74684b657952656769737472793a20496e76616c6964205369676e604482015264617475726560d81b60648201526084015b60405180910390fd5b6102aa8a8a8a8a8a6103c8565b50505050505050505050565b6102c333858585856103c8565b50505050565b6001600160a01b0381165f9081526020818152604080832083805290915281205481908190819015610321576001600160a01b0385165f9081526020818152604080832083805290915290205460029450925061034a565b6001600160a01b0385165f90815260208181526040808320600184529091529020546003945092505b6001600160a01b0385165f90815260208181526040808320600284529091529020541561039b5750506001600160a01b0383165f9081526020818152604080832060028085529252909120546103c1565b50506001600160a01b0383165f9081526020818152604080832060038085529252909120545b9193509193565b83600214806103d75750836003145b80156103ed575081600214806103ed5750816003145b6104445760405162461bcd60e51b815260206004820152602260248201527f537465616c74684b657952656769737472793a20496e76616c696420507265666044820152610d2f60f31b6064820152608401610294565b6040805185815260208101859052908101839052606081018290526001600160a01b038616907fe879dede910dd3b22239a11044df83c95adcd4b54003516f42866cc1fe4f0a199060800160405180910390a26104a2600285610614565b6001600160a01b0386165f9081526020819052604081209195506104c7866001610614565b815260208082019290925260409081015f9081208190556001600160a01b0388168152918290528120906104fc846005610614565b815260208082019290925260409081015f9081208190556001600160a01b03979097168752868252808720958752949052838520929092558352912055565b80356001600160a01b0381168114610551575f5ffd5b919050565b5f5f5f5f5f5f5f5f610100898b03121561056e575f5ffd5b6105778961053b565b97506020890135965060408901359550606089013594506080890135935060a089013560ff811681146105a8575f5ffd5b979a969950949793969295929450505060c08201359160e0013590565b5f5f5f5f608085870312156105d8575f5ffd5b5050823594602084013594506040840135936060013592509050565b5f60208284031215610604575f5ffd5b61060d8261053b565b9392505050565b8181038181111561063357634e487b7160e01b5f52601160045260245ffd5b9291505056fea26469706673582212206278dc42b08a82b85235b4e1395241015fa4a66f99f8a07fa274af0081a39c3a64736f6c634300081b0033",
			"opcodes": "PUSH1 0xA0 PUSH1 0x40 MSTORE CALLVALUE DUP1 ISZERO PUSH2 0xF JUMPI PUSH0 PUSH0 REVERT JUMPDEST POP PUSH1 0x40 DUP1 MLOAD DUP1 DUP3 ADD DUP3 MSTORE PUSH1 0x1A DUP2 MSTORE PUSH32 0x556D62726120537465616C7468204B6579205265676973747279000000000000 PUSH1 0x20 SWAP2 DUP3 ADD MSTORE DUP2 MLOAD DUP1 DUP4 ADD DUP4 MSTORE PUSH1 0x1 DUP2 MSTORE PUSH1 0x31 PUSH1 0xF8 SHL SWAP1 DUP3 ADD MSTORE DUP2 MLOAD PUSH32 0x8B73C3C69BB8FE3D512ECC4CF759CC79239F7B179B0FFACAA9A75D522B39400F SWAP2 DUP2 ADD SWAP2 SWAP1 SWAP2 MSTORE PUSH32 0x4BAF469995623D4E8BAAEBC31DDB114FBC90E91C717E133DA2FB936309B41EB9 SWAP2 DUP2 ADD SWAP2 SWAP1 SWAP2 MSTORE PUSH32 0xC89EFDAA54C0F20C7ADF612882DF0950F5A951637E0307CDCB4C672F298B8BC6 PUSH1 0x60 DUP3 ADD MSTORE CHAINID PUSH1 0x80 DUP3 ADD MSTORE ADDRESS PUSH1 0xA0 DUP3 ADD MSTORE PUSH1 0xC0 ADD PUSH1 0x40 DUP1 MLOAD PUSH1 0x1F NOT DUP2 DUP5 SUB ADD DUP2 MSTORE SWAP2 SWAP1 MSTORE DUP1 MLOAD PUSH1 0x20 SWAP1 SWAP2 ADD KECCAK256 PUSH1 0x80 MSTORE PUSH1 0x80 MLOAD PUSH2 0x66F PUSH2 0x118 PUSH0 CODECOPY PUSH0 DUP2 DUP2 PUSH1 0x73 ADD MSTORE PUSH2 0x185 ADD MSTORE PUSH2 0x66F PUSH0 RETURN INVALID PUSH1 0x80 PUSH1 0x40 MSTORE CALLVALUE DUP1 ISZERO PUSH2 0xF JUMPI PUSH0 PUSH0 REVERT JUMPDEST POP PUSH1 0x4 CALLDATASIZE LT PUSH2 0x55 JUMPI PUSH0 CALLDATALOAD PUSH1 0xE0 SHR DUP1 PUSH4 0x100DCC53 EQ PUSH2 0x59 JUMPI DUP1 PUSH4 0x3644E515 EQ PUSH2 0x6E JUMPI DUP1 PUSH4 0x67EAA7AC EQ PUSH2 0xA8 JUMPI DUP1 PUSH4 0xBB8F257B EQ PUSH2 0xCF JUMPI DUP1 PUSH4 0xCEC2A787 EQ PUSH2 0xE2 JUMPI JUMPDEST PUSH0 PUSH0 REVERT JUMPDEST PUSH2 0x6C PUSH2 0x67 CALLDATASIZE PUSH1 0x4 PUSH2 0x556 JUMP JUMPDEST PUSH2 0x115 JUMP JUMPDEST STOP JUMPDEST PUSH2 0x95 PUSH32 0x0 DUP2 JUMP JUMPDEST PUSH1 0x40 MLOAD SWAP1 DUP2 MSTORE PUSH1 0x20 ADD JUMPDEST PUSH1 0x40 MLOAD DUP1 SWAP2 SUB SWAP1 RETURN JUMPDEST PUSH2 0x95 PUSH32 0xAB73C83A21FB894C20095A8F28177984B02F6284C760E4C1AC2F82C3D34B79C1 DUP2 JUMP JUMPDEST PUSH2 0x6C PUSH2 0xDD CALLDATASIZE PUSH1 0x4 PUSH2 0x5C5 JUMP JUMPDEST PUSH2 0x2B6 JUMP JUMPDEST PUSH2 0xF5 PUSH2 0xF0 CALLDATASIZE PUSH1 0x4 PUSH2 0x5F4 JUMP JUMPDEST PUSH2 0x2C9 JUMP JUMPDEST PUSH1 0x40 DUP1 MLOAD SWAP5 DUP6 MSTORE PUSH1 0x20 DUP6 ADD SWAP4 SWAP1 SWAP4 MSTORE SWAP2 DUP4 ADD MSTORE PUSH1 0x60 DUP3 ADD MSTORE PUSH1 0x80 ADD PUSH2 0x9F JUMP JUMPDEST PUSH1 0x40 DUP1 MLOAD PUSH32 0xAB73C83A21FB894C20095A8F28177984B02F6284C760E4C1AC2F82C3D34B79C1 PUSH1 0x20 DUP1 DUP4 ADD SWAP2 SWAP1 SWAP2 MSTORE DUP2 DUP4 ADD DUP11 SWAP1 MSTORE PUSH1 0x60 DUP3 ADD DUP10 SWAP1 MSTORE PUSH1 0x80 DUP3 ADD DUP9 SWAP1 MSTORE PUSH1 0xA0 DUP1 DUP4 ADD DUP9 SWAP1 MSTORE DUP4 MLOAD DUP1 DUP5 SUB SWAP1 SWAP2 ADD DUP2 MSTORE PUSH1 0xC0 DUP4 ADD SWAP1 SWAP4 MSTORE DUP3 MLOAD SWAP3 ADD SWAP2 SWAP1 SWAP2 KECCAK256 PUSH2 0x1901 PUSH1 0xF0 SHL PUSH1 0xE0 DUP4 ADD MSTORE PUSH32 0x0 PUSH1 0xE2 DUP4 ADD MSTORE PUSH2 0x102 DUP3 ADD MSTORE PUSH0 SWAP1 PUSH2 0x122 ADD PUSH1 0x40 DUP1 MLOAD PUSH1 0x1F NOT DUP2 DUP5 SUB ADD DUP2 MSTORE DUP3 DUP3 MSTORE DUP1 MLOAD PUSH1 0x20 SWAP2 DUP3 ADD KECCAK256 PUSH0 DUP1 DUP6 MSTORE SWAP2 DUP5 ADD DUP1 DUP5 MSTORE DUP2 SWAP1 MSTORE PUSH1 0xFF DUP9 AND SWAP3 DUP5 ADD SWAP3 SWAP1 SWAP3 MSTORE PUSH1 0x60 DUP4 ADD DUP7 SWAP1 MSTORE PUSH1 0x80 DUP4 ADD DUP6 SWAP1 MSTORE SWAP1 SWAP3 POP SWAP1 PUSH1 0x1 SWAP1 PUSH1 0xA0 ADD PUSH1 0x20 PUSH1 0x40 MLOAD PUSH1 0x20 DUP2 SUB SWAP1 DUP1 DUP5 SUB SWAP1 DUP6 GAS STATICCALL ISZERO DUP1 ISZERO PUSH2 0x21D JUMPI RETURNDATASIZE PUSH0 PUSH0 RETURNDATACOPY RETURNDATASIZE PUSH0 REVERT JUMPDEST POP POP POP PUSH1 0x20 PUSH1 0x40 MLOAD SUB MLOAD SWAP1 POP DUP10 PUSH1 0x1 PUSH1 0x1 PUSH1 0xA0 SHL SUB AND DUP2 PUSH1 0x1 PUSH1 0x1 PUSH1 0xA0 SHL SUB AND EQ PUSH2 0x29D JUMPI PUSH1 0x40 MLOAD PUSH3 0x461BCD PUSH1 0xE5 SHL DUP2 MSTORE PUSH1 0x20 PUSH1 0x4 DUP3 ADD MSTORE PUSH1 0x25 PUSH1 0x24 DUP3 ADD MSTORE PUSH32 0x537465616C74684B657952656769737472793A20496E76616C6964205369676E PUSH1 0x44 DUP3 ADD MSTORE PUSH5 0x6174757265 PUSH1 0xD8 SHL PUSH1 0x64 DUP3 ADD MSTORE PUSH1 0x84 ADD JUMPDEST PUSH1 0x40 MLOAD DUP1 SWAP2 SUB SWAP1 REVERT JUMPDEST PUSH2 0x2AA DUP11 DUP11 DUP11 DUP11 DUP11 PUSH2 0x3C8 JUMP JUMPDEST POP POP POP POP POP POP POP POP POP POP JUMP JUMPDEST PUSH2 0x2C3 CALLER DUP6 DUP6 DUP6 DUP6 PUSH2 0x3C8 JUMP JUMPDEST POP POP POP POP JUMP JUMPDEST PUSH1 0x1 PUSH1 0x1 PUSH1 0xA0 SHL SUB DUP2 AND PUSH0 SWAP1 DUP2 MSTORE PUSH1 0x20 DUP2 DUP2 MSTORE PUSH1 0x40 DUP1 DUP4 KECCAK256 DUP4 DUP1 MSTORE SWAP1 SWAP2 MSTORE DUP2 KECCAK256 SLOAD DUP2 SWAP1 DUP2 SWAP1 DUP2 SWAP1 ISZERO PUSH2 0x321 JUMPI PUSH1 0x1 PUSH1 0x1 PUSH1 0xA0 SHL SUB DUP6 AND PUSH0 SWAP1 DUP2 MSTORE PUSH1 0x20 DUP2 DUP2 MSTORE PUSH1 0x40 DUP1 DUP4 KECCAK256 DUP4 DUP1 MSTORE SWAP1 SWAP2 MSTORE SWAP1 KECCAK256 SLOAD PUSH1 0x2 SWAP5 POP SWAP3 POP PUSH2 0x34A JUMP JUMPDEST PUSH1 0x1 PUSH1 0x1 PUSH1 0xA0 SHL SUB DUP6 AND PUSH0 SWAP1 DUP2 MSTORE PUSH1 0x20 DUP2 DUP2 MSTORE PUSH1 0x40 DUP1 DUP4 KECCAK256 PUSH1 0x1 DUP5 MSTORE SWAP1 SWAP2 MSTORE SWAP1 KECCAK256 SLOAD PUSH1 0x3 SWAP5 POP SWAP3 POP JUMPDEST PUSH1 0x1 PUSH1 0x1 PUSH1 0xA0 SHL SUB DUP6 AND PUSH0 SWAP1 DUP2 MSTORE PUSH1 0x20 DUP2 DUP2 MSTORE PUSH1 0x40 DUP1 DUP4 KECCAK256 PUSH1 0x2 DUP5 MSTORE SWAP1 SWAP2 MSTORE SWAP1 KECCAK256 SLOAD ISZERO PUSH2 0x39B JUMPI POP POP PUSH1 0x1 PUSH1 0x1 PUSH1 0xA0 SHL SUB DUP4 AND PUSH0 SWAP1 DUP2 MSTORE PUSH1 0x20 DUP2 DUP2 MSTORE PUSH1 0x40 DUP1 DUP4 KECCAK256 PUSH1 0x2 DUP1 DUP6 MSTORE SWAP3 MSTORE SWAP1 SWAP2 KECCAK256 SLOAD PUSH2 0x3C1 JUMP JUMPDEST POP POP PUSH1 0x1 PUSH1 0x1 PUSH1 0xA0 SHL SUB DUP4 AND PUSH0 SWAP1 DUP2 MSTORE PUSH1 0x20 DUP2 DUP2 MSTORE PUSH1 0x40 DUP1 DUP4 KECCAK256 PUSH1 0x3 DUP1 DUP6 MSTORE SWAP3 MSTORE SWAP1 SWAP2 KECCAK256 SLOAD JUMPDEST SWAP2 SWAP4 POP SWAP2 SWAP4 JUMP JUMPDEST DUP4 PUSH1 0x2 EQ DUP1 PUSH2 0x3D7 JUMPI POP DUP4 PUSH1 0x3 EQ JUMPDEST DUP1 ISZERO PUSH2 0x3ED JUMPI POP DUP2 PUSH1 0x2 EQ DUP1 PUSH2 0x3ED JUMPI POP DUP2 PUSH1 0x3 EQ JUMPDEST PUSH2 0x444 JUMPI PUSH1 0x40 MLOAD PUSH3 0x461BCD PUSH1 0xE5 SHL DUP2 MSTORE PUSH1 0x20 PUSH1 0x4 DUP3 ADD MSTORE PUSH1 0x22 PUSH1 0x24 DUP3 ADD MSTORE PUSH32 0x537465616C74684B657952656769737472793A20496E76616C69642050726566 PUSH1 0x44 DUP3 ADD MSTORE PUSH2 0xD2F PUSH1 0xF3 SHL PUSH1 0x64 DUP3 ADD MSTORE PUSH1 0x84 ADD PUSH2 0x294 JUMP JUMPDEST PUSH1 0x40 DUP1 MLOAD DUP6 DUP2 MSTORE PUSH1 0x20 DUP2 ADD DUP6 SWAP1 MSTORE SWAP1 DUP2 ADD DUP4 SWAP1 MSTORE PUSH1 0x60 DUP2 ADD DUP3 SWAP1 MSTORE PUSH1 0x1 PUSH1 0x1 PUSH1 0xA0 SHL SUB DUP7 AND SWAP1 PUSH32 0xE879DEDE910DD3B22239A11044DF83C95ADCD4B54003516F42866CC1FE4F0A19 SWAP1 PUSH1 0x80 ADD PUSH1 0x40 MLOAD DUP1 SWAP2 SUB SWAP1 LOG2 PUSH2 0x4A2 PUSH1 0x2 DUP6 PUSH2 0x614 JUMP JUMPDEST PUSH1 0x1 PUSH1 0x1 PUSH1 0xA0 SHL SUB DUP7 AND PUSH0 SWAP1 DUP2 MSTORE PUSH1 0x20 DUP2 SWAP1 MSTORE PUSH1 0x40 DUP2 KECCAK256 SWAP2 SWAP6 POP PUSH2 0x4C7 DUP7 PUSH1 0x1 PUSH2 0x614 JUMP JUMPDEST DUP2 MSTORE PUSH1 0x20 DUP1 DUP3 ADD SWAP3 SWAP1 SWAP3 MSTORE PUSH1 0x40 SWAP1 DUP2 ADD PUSH0 SWAP1 DUP2 KECCAK256 DUP2 SWAP1 SSTORE PUSH1 0x1 PUSH1 0x1 PUSH1 0xA0 SHL SUB DUP9 AND DUP2 MSTORE SWAP2 DUP3 SWAP1 MSTORE DUP2 KECCAK256 SWAP1 PUSH2 0x4FC DUP5 PUSH1 0x5 PUSH2 0x614 JUMP JUMPDEST DUP2 MSTORE PUSH1 0x20 DUP1 DUP3 ADD SWAP3 SWAP1 SWAP3 MSTORE PUSH1 0x40 SWAP1 DUP2 ADD PUSH0 SWAP1 DUP2 KECCAK256 DUP2 SWAP1 SSTORE PUSH1 0x1 PUSH1 0x1 PUSH1 0xA0 SHL SUB SWAP8 SWAP1 SWAP8 AND DUP8 MSTORE DUP7 DUP3 MSTORE DUP1 DUP8 KECCAK256 SWAP6 DUP8 MSTORE SWAP5 SWAP1 MSTORE DUP4 DUP6 KECCAK256 SWAP3 SWAP1 SWAP3 SSTORE DUP4 MSTORE SWAP2 KECCAK256 SSTORE JUMP JUMPDEST DUP1 CALLDATALOAD PUSH1 0x1 PUSH1 0x1 PUSH1 0xA0 SHL SUB DUP2 AND DUP2 EQ PUSH2 0x551 JUMPI PUSH0 PUSH0 REVERT JUMPDEST SWAP2 SWAP1 POP JUMP JUMPDEST PUSH0 PUSH0 PUSH0 PUSH0 PUSH0 PUSH0 PUSH0 PUSH0 PUSH2 0x100 DUP10 DUP12 SUB SLT ISZERO PUSH2 0x56E JUMPI PUSH0 PUSH0 REVERT JUMPDEST PUSH2 0x577 DUP10 PUSH2 0x53B JUMP JUMPDEST SWAP8 POP PUSH1 0x20 DUP10 ADD CALLDATALOAD SWAP7 POP PUSH1 0x40 DUP10 ADD CALLDATALOAD SWAP6 POP PUSH1 0x60 DUP10 ADD CALLDATALOAD SWAP5 POP PUSH1 0x80 DUP10 ADD CALLDATALOAD SWAP4 POP PUSH1 0xA0 DUP10 ADD CALLDATALOAD PUSH1 0xFF DUP2 AND DUP2 EQ PUSH2 0x5A8 JUMPI PUSH0 PUSH0 REVERT JUMPDEST SWAP8 SWAP11 SWAP7 SWAP10 POP SWAP5 SWAP8 SWAP4 SWAP7 SWAP3 SWAP6 SWAP3 SWAP5 POP POP POP PUSH1 0xC0 DUP3 ADD CALLDATALOAD SWAP2 PUSH1 0xE0 ADD CALLDATALOAD SWAP1 JUMP JUMPDEST PUSH0 PUSH0 PUSH0 PUSH0 PUSH1 0x80 DUP6 DUP8 SUB SLT ISZERO PUSH2 0x5D8 JUMPI PUSH0 PUSH0 REVERT JUMPDEST POP POP DUP3 CALLDATALOAD SWAP5 PUSH1 0x20 DUP5 ADD CALLDATALOAD SWAP5 POP PUSH1 0x40 DUP5 ADD CALLDATALOAD SWAP4 PUSH1 0x60 ADD CALLDATALOAD SWAP3 POP SWAP1 POP JUMP JUMPDEST PUSH0 PUSH1 0x20 DUP3 DUP5 SUB SLT ISZERO PUSH2 0x604 JUMPI PUSH0 PUSH0 REVERT JUMPDEST PUSH2 0x60D DUP3 PUSH2 0x53B JUMP JUMPDEST SWAP4 SWAP3 POP POP POP JUMP JUMPDEST DUP2 DUP2 SUB DUP2 DUP2 GT ISZERO PUSH2 0x633 JUMPI PUSH4 0x4E487B71 PUSH1 0xE0 SHL PUSH0 MSTORE PUSH1 0x11 PUSH1 0x4 MSTORE PUSH1 0x24 PUSH0 REVERT JUMPDEST SWAP3 SWAP2 POP POP JUMP INVALID LOG2 PUSH5 0x6970667358 0x22 SLT KECCAK256 PUSH3 0x78DC42 0xB0 DUP11 DUP3 0xB8 MSTORE CALLDATALOAD 0xB4 0xE1 CODECOPY MSTORE COINBASE ADD PUSH0 LOG4 0xA6 PUSH16 0x99F8A07FA274AF0081A39C3A64736F6C PUSH4 0x4300081B STOP CALLER "
		},
		"gasEstimates": {
			"creation": {
				"codeDepositCost": "329400",
				"executionCost": "infinite",
				"totalCost": "infinite"
			},
			"external": {
				"DOMAIN_SEPARATOR()": "infinite",
				"STEALTHKEYS_TYPEHASH()": "205",
				"setStealthKeys(uint256,uint256,uint256,uint256)": "infinite",
				"setStealthKeysOnBehalf(address,uint256,uint256,uint256,uint256,uint8,bytes32,bytes32)": "infinite",
				"stealthKeys(address)": "9620"
			},
			"internal": {
				"_setStealthKeys(address,uint256,uint256,uint256,uint256)": "infinite"
			}
		},
		"methodIdentifiers": {
			"DOMAIN_SEPARATOR()": "3644e515",
			"STEALTHKEYS_TYPEHASH()": "67eaa7ac",
			"setStealthKeys(uint256,uint256,uint256,uint256)": "bb8f257b",
			"setStealthKeysOnBehalf(address,uint256,uint256,uint256,uint256,uint8,bytes32,bytes32)": "100dcc53",
			"stealthKeys(address)": "cec2a787"
		}
	},
	"abi": [
		{
			"inputs": [],
			"stateMutability": "nonpayable",
			"type": "constructor"
		},
		{
			"anonymous": false,
			"inputs": [
				{
					"indexed": true,
					"internalType": "address",
					"name": "registrant",
					"type": "address"
				},
				{
					"indexed": false,
					"internalType": "uint256",
					"name": "spendingPubKeyPrefix",
					"type": "uint256"
				},
				{
					"indexed": false,
					"internalType": "uint256",
					"name": "spendingPubKey",
					"type": "uint256"
				},
				{
					"indexed": false,
					"internalType": "uint256",
					"name": "viewingPubKeyPrefix",
					"type": "uint256"
				},
				{
					"indexed": false,
					"internalType": "uint256",
					"name": "viewingPubKey",
					"type": "uint256"
				}
			],
			"name": "StealthKeyChanged",
			"type": "event"
		},
		{
			"inputs": [],
			"name": "DOMAIN_SEPARATOR",
			"outputs": [
				{
					"internalType": "bytes32",
					"name": "",
					"type": "bytes32"
				}
			],
			"stateMutability": "view",
			"type": "function"
		},
		{
			"inputs": [],
			"name": "STEALTHKEYS_TYPEHASH",
			"outputs": [
				{
					"internalType": "bytes32",
					"name": "",
					"type": "bytes32"
				}
			],
			"stateMutability": "view",
			"type": "function"
		},
		{
			"inputs": [
				{
					"internalType": "uint256",
					"name": "_spendingPubKeyPrefix",
					"type": "uint256"
				},
				{
					"internalType": "uint256",
					"name": "_spendingPubKey",
					"type": "uint256"
				},
				{
					"internalType": "uint256",
					"name": "_viewingPubKeyPrefix",
					"type": "uint256"
				},
				{
					"internalType": "uint256",
					"name": "_viewingPubKey",
					"type": "uint256"
				}
			],
			"name": "setStealthKeys",
			"outputs": [],
			"stateMutability": "nonpayable",
			"type": "function"
		},
		{
			"inputs": [
				{
					"internalType": "address",
					"name": "_registrant",
					"type": "address"
				},
				{
					"internalType": "uint256",
					"name": "_spendingPubKeyPrefix",
					"type": "uint256"
				},
				{
					"internalType": "uint256",
					"name": "_spendingPubKey",
					"type": "uint256"
				},
				{
					"internalType": "uint256",
					"name": "_viewingPubKeyPrefix",
					"type": "uint256"
				},
				{
					"internalType": "uint256",
					"name": "_viewingPubKey",
					"type": "uint256"
				},
				{
					"internalType": "uint8",
					"name": "_v",
					"type": "uint8"
				},
				{
					"internalType": "bytes32",
					"name": "_r",
					"type": "bytes32"
				},
				{
					"internalType": "bytes32",
					"name": "_s",
					"type": "bytes32"
				}
			],
			"name": "setStealthKeysOnBehalf",
			"outputs": [],
			"stateMutability": "nonpayable",
			"type": "function"
		},
		{
			"inputs": [
				{
					"internalType": "address",
					"name": "_registrant",
					"type": "address"
				}
			],
			"name": "stealthKeys",
			"outputs": [
				{
					"internalType": "uint256",
					"name": "spendingPubKeyPrefix",
					"type": "uint256"
				},
				{
					"internalType": "uint256",
					"name": "spendingPubKey",
					"type": "uint256"
				},
				{
					"internalType": "uint256",
					"name": "viewingPubKeyPrefix",
					"type": "uint256"
				},
				{
					"internalType": "uint256",
					"name": "viewingPubKey",
					"type": "uint256"
				}
			],
			"stateMutability": "view",
			"type": "function"
		}
	]
}