{
	"data": {
		"bytecode": {
			"linkReferences": {},
			"object": "60806040525f600455348015610013575f5ffd5b506040516112a33803806112a38339818101604052810190610035919061017e565b3360075f6101000a81548173ffffffffffffffffffffffffffffffffffffffff021916908373ffffffffffffffffffffffffffffffffffffffff160217905550815f60146101000a81548167ffffffffffffffff021916908367ffffffffffffffff160217905550805f5f6101000a81548173ffffffffffffffffffffffffffffffffffffffff021916908373ffffffffffffffffffffffffffffffffffffffff16021790555050506101bc565b5f5ffd5b5f67ffffffffffffffff82169050919050565b610103816100e7565b811461010d575f5ffd5b50565b5f8151905061011e816100fa565b92915050565b5f73ffffffffffffffffffffffffffffffffffffffff82169050919050565b5f61014d82610124565b9050919050565b61015d81610143565b8114610167575f5ffd5b50565b5f8151905061017881610154565b92915050565b5f5f60408385031215610194576101936100e3565b5b5f6101a185828601610110565b92505060206101b28582860161016a565b9150509250929050565b6110da806101c95f395ff3fe6080604052600436106100e7575f3560e01c80638da5cb5b11610089578063ab6c21ae11610058578063ab6c21ae146102a3578063e97dcb62146102cb578063f2fde38b146102d5578063f71d96cb146102fd576100e7565b80638da5cb5b146101fd5780639b89470314610227578063a4619a0514610251578063a5c0449f1461027b576100e7565b806352d6804d116100c557806352d6804d146101695780635d495aea1461019357806361203265146101a957806389c5f37f146101d3576100e7565b806306ef53e0146100eb578063316cadfa1461011557806347535d7b1461013f575b5f5ffd5b3480156100f6575f5ffd5b506100ff610339565b60405161010c9190610acf565b60405180910390f35b348015610120575f5ffd5b5061012961035e565b6040516101369190610b0a565b60405180910390f35b34801561014a575f5ffd5b50610153610377565b6040516101609190610b3d565b60405180910390f35b348015610174575f5ffd5b5061017d61038a565b60405161018a9190610b6e565b60405180910390f35b34801561019e575f5ffd5b506101a7610390565b005b3480156101b4575f5ffd5b506101bd61054a565b6040516101ca9190610acf565b60405180910390f35b3480156101de575f5ffd5b506101e761056f565b6040516101f49190610acf565b60405180910390f35b348015610208575f5ffd5b50610211610593565b60405161021e9190610acf565b60405180910390f35b348015610232575f5ffd5b5061023b6105bb565b6040516102489190610b6e565b60405180910390f35b34801561025c575f5ffd5b506102656105c1565b6040516102729190610b6e565b60405180910390f35b348015610286575f5ffd5b506102a1600480360381019061029c9190610bb5565b6105c7565b005b3480156102ae575f5ffd5b506102c960048036038101906102c49190610be0565b610765565b005b6102d361085c565b005b3480156102e0575f5ffd5b506102fb60048036038101906102f69190610c48565b61099d565b005b348015610308575f5ffd5b50610323600480360381019061031e9190610bb5565b610a55565b6040516103309190610acf565b60405180910390f35b60035f9054906101000a900473ffffffffffffffffffffffffffffffffffffffff1681565b5f60149054906101000a900467ffffffffffffffff1681565b600360149054906101000a900460ff1681565b60045481565b3373ffffffffffffffffffffffffffffffffffffffff166103af610593565b73ffffffffffffffffffffffffffffffffffffffff1614610405576040517f08c379a00000000000000000000000000000000000000000000000000000000081526004016103fc90610cf3565b60405180910390fd5b60011515600360149054906101000a900460ff1615151461045b576040517f08c379a000000000000000000000000000000000000000000000000000000000815260040161045290610d5b565b60405180910390fd5b5f600160028054905061046e9190610da6565b600454604051602001610482929190610df9565b60405160208183030381529060405290505f5f5f9054906101000a900473ffffffffffffffffffffffffffffffffffffffff1673ffffffffffffffffffffffffffffffffffffffff1663a2fb6d6f5f60149054906101000a900467ffffffffffffffff16846040518363ffffffff1660e01b8152600401610504929190610e94565b6020604051808303815f875af1158015610520573d5f5f3e3d5ffd5b505050506040513d601f19601f820116820180604052508101906105449190610eec565b90505050565b60015f9054906101000a900473ffffffffffffffffffffffffffffffffffffffff1681565b5f5f9054906101000a900473ffffffffffffffffffffffffffffffffffffffff1681565b5f60075f9054906101000a900473ffffffffffffffffffffffffffffffffffffffff16905090565b60065481565b60055481565b73c0ffee4a3a2d488b138d090b8112875b90b5e6d973ffffffffffffffffffffffffffffffffffffffff163273ffffffffffffffffffffffffffffffffffffffff1614610649576040517f08c379a000000000000000000000000000000000000000000000000000000000815260040161064090610f61565b60405180910390fd5b5f8190506002818154811061066157610660610f7f565b5b905f5260205f20015f9054906101000a900473ffffffffffffffffffffffffffffffffffffffff1673ffffffffffffffffffffffffffffffffffffffff166108fc4790811502906040515f60405180830381858888f193505050501580156106cb573d5f5f3e3d5ffd5b50600281815481106106e0576106df610f7f565b5b905f5260205f20015f9054906101000a900473ffffffffffffffffffffffffffffffffffffffff1660035f6101000a81548173ffffffffffffffffffffffffffffffffffffffff021916908373ffffffffffffffffffffffffffffffffffffffff1602179055505f600360146101000a81548160ff0219169083151502179055505050565b3373ffffffffffffffffffffffffffffffffffffffff16610784610593565b73ffffffffffffffffffffffffffffffffffffffff16146107da576040517f08c379a00000000000000000000000000000000000000000000000000000000081526004016107d190610cf3565b60405180910390fd5b5f1515600360149054906101000a900460ff1615151461082f576040517f08c379a000000000000000000000000000000000000000000000000000000000815260040161082690610d5b565b60405180910390fd5b81600681905550806005819055506001600360146101000a81548160ff0219169083151502179055505050565b6005543410156108a1576040517f08c379a000000000000000000000000000000000000000000000000000000000815260040161089890610ff6565b60405180910390fd5b600360149054906101000a900460ff166108f0576040517f08c379a00000000000000000000000000000000000000000000000000000000081526004016108e790610d5b565b60405180910390fd5b5f600554346108ff9190611041565b9050600654816002805490506109159190611071565b111561091f575f5ffd5b5f5f90505b8181101561099957600233908060018154018082558091505060019003905f5260205f20015f9091909190916101000a81548173ffffffffffffffffffffffffffffffffffffffff021916908373ffffffffffffffffffffffffffffffffffffffff1602179055508080600101915050610924565b5050565b3373ffffffffffffffffffffffffffffffffffffffff166109bc610593565b73ffffffffffffffffffffffffffffffffffffffff1614610a12576040517f08c379a0000000000000000000000000000000000000000000000000000000008152600401610a0990610cf3565b60405180910390fd5b8060075f6101000a81548173ffffffffffffffffffffffffffffffffffffffff021916908373ffffffffffffffffffffffffffffffffffffffff16021790555050565b60028181548110610a64575f80fd5b905f5260205f20015f915054906101000a900473ffffffffffffffffffffffffffffffffffffffff1681565b5f73ffffffffffffffffffffffffffffffffffffffff82169050919050565b5f610ab982610a90565b9050919050565b610ac981610aaf565b82525050565b5f602082019050610ae25f830184610ac0565b92915050565b5f67ffffffffffffffff82169050919050565b610b0481610ae8565b82525050565b5f602082019050610b1d5f830184610afb565b92915050565b5f8115159050919050565b610b3781610b23565b82525050565b5f602082019050610b505f830184610b2e565b92915050565b5f819050919050565b610b6881610b56565b82525050565b5f602082019050610b815f830184610b5f565b92915050565b5f5ffd5b610b9481610b56565b8114610b9e575f5ffd5b50565b5f81359050610baf81610b8b565b92915050565b5f60208284031215610bca57610bc9610b87565b5b5f610bd784828501610ba1565b91505092915050565b5f5f60408385031215610bf657610bf5610b87565b5b5f610c0385828601610ba1565b9250506020610c1485828601610ba1565b9150509250929050565b610c2781610aaf565b8114610c31575f5ffd5b50565b5f81359050610c4281610c1e565b92915050565b5f60208284031215610c5d57610c5c610b87565b5b5f610c6a84828501610c34565b91505092915050565b5f82825260208201905092915050565b7f4f776e65727368697020417373657274696f6e3a2043616c6c6572206f6620745f8201527f68652066756e6374696f6e206973206e6f7420746865206f776e65722e000000602082015250565b5f610cdd603d83610c73565b9150610ce882610c83565b604082019050919050565b5f6020820190508181035f830152610d0a81610cd1565b9050919050565b7f746865206c6f747465727920686173206e6f74207374617274656420796574005f82015250565b5f610d45601f83610c73565b9150610d5082610d11565b602082019050919050565b5f6020820190508181035f830152610d7281610d39565b9050919050565b7f4e487b71000000000000000000000000000000000000000000000000000000005f52601160045260245ffd5b5f610db082610b56565b9150610dbb83610b56565b9250828203905081811115610dd357610dd2610d79565b5b92915050565b5f819050919050565b610df3610dee82610b56565b610dd9565b82525050565b5f610e048285610de2565b602082019150610e148284610de2565b6020820191508190509392505050565b5f81519050919050565b5f82825260208201905092915050565b8281835e5f83830152505050565b5f601f19601f8301169050919050565b5f610e6682610e24565b610e708185610e2e565b9350610e80818560208601610e3e565b610e8981610e4c565b840191505092915050565b5f604082019050610ea75f830185610afb565b8181036020830152610eb98184610e5c565b90509392505050565b610ecb81610ae8565b8114610ed5575f5ffd5b50565b5f81519050610ee681610ec2565b92915050565b5f60208284031215610f0157610f00610b87565b5b5f610f0e84828501610ed8565b91505092915050565b7f496e76616c69642063616c6c6261636b206164647265737300000000000000005f82015250565b5f610f4b601883610c73565b9150610f5682610f17565b602082019050919050565b5f6020820190508181035f830152610f7881610f3f565b9050919050565b7f4e487b71000000000000000000000000000000000000000000000000000000005f52603260045260245ffd5b7f646964206e6f742070617920656e6f75676800000000000000000000000000005f82015250565b5f610fe0601283610c73565b9150610feb82610fac565b602082019050919050565b5f6020820190508181035f83015261100d81610fd4565b9050919050565b7f4e487b71000000000000000000000000000000000000000000000000000000005f52601260045260245ffd5b5f61104b82610b56565b915061105683610b56565b92508261106657611065611014565b5b828204905092915050565b5f61107b82610b56565b915061108683610b56565b925082820190508082111561109e5761109d610d79565b5b9291505056fea2646970667358221220bd44de18b7e0744d1b05c4d326af829d6a2eae5af900e3fc4a696105fe0b894464736f6c634300081b0033",
			"opcodes": "PUSH1 0x80 PUSH1 0x40 MSTORE PUSH0 PUSH1 0x4 SSTORE CALLVALUE DUP1 ISZERO PUSH2 0x13 JUMPI PUSH0 PUSH0 REVERT JUMPDEST POP PUSH1 0x40 MLOAD PUSH2 0x12A3 CODESIZE SUB DUP1 PUSH2 0x12A3 DUP4 CODECOPY DUP2 DUP2 ADD PUSH1 0x40 MSTORE DUP2 ADD SWAP1 PUSH2 0x35 SWAP2 SWAP1 PUSH2 0x17E JUMP JUMPDEST CALLER PUSH1 0x7 PUSH0 PUSH2 0x100 EXP DUP2 SLOAD DUP2 PUSH20 0xFFFFFFFFFFFFFFFFFFFFFFFFFFFFFFFFFFFFFFFF MUL NOT AND SWAP1 DUP4 PUSH20 0xFFFFFFFFFFFFFFFFFFFFFFFFFFFFFFFFFFFFFFFF AND MUL OR SWAP1 SSTORE POP DUP2 PUSH0 PUSH1 0x14 PUSH2 0x100 EXP DUP2 SLOAD DUP2 PUSH8 0xFFFFFFFFFFFFFFFF MUL NOT AND SWAP1 DUP4 PUSH8 0xFFFFFFFFFFFFFFFF AND MUL OR SWAP1 SSTORE POP DUP1 PUSH0 PUSH0 PUSH2 0x100 EXP DUP2 SLOAD DUP2 PUSH20 0xFFFFFFFFFFFFFFFFFFFFFFFFFFFFFFFFFFFFFFFF MUL NOT AND SWAP1 DUP4 PUSH20 0xFFFFFFFFFFFFFFFFFFFFFFFFFFFFFFFFFFFFFFFF AND MUL OR SWAP1 SSTORE POP POP POP PUSH2 0x1BC JUMP JUMPDEST PUSH0 PUSH0 REVERT JUMPDEST PUSH0 PUSH8 0xFFFFFFFFFFFFFFFF DUP3 AND SWAP1 POP SWAP2 SWAP1 POP JUMP JUMPDEST PUSH2 0x103 DUP2 PUSH2 0xE7 JUMP JUMPDEST DUP2 EQ PUSH2 0x10D JUMPI PUSH0 PUSH0 REVERT JUMPDEST POP JUMP JUMPDEST PUSH0 DUP2 MLOAD SWAP1 POP PUSH2 0x11E DUP2 PUSH2 0xFA JUMP JUMPDEST SWAP3 SWAP2 POP POP JUMP JUMPDEST PUSH0 PUSH20 0xFFFFFFFFFFFFFFFFFFFFFFFFFFFFFFFFFFFFFFFF DUP3 AND SWAP1 POP SWAP2 SWAP1 POP JUMP JUMPDEST PUSH0 PUSH2 0x14D DUP3 PUSH2 0x124 JUMP JUMPDEST SWAP1 POP SWAP2 SWAP1 POP JUMP JUMPDEST PUSH2 0x15D DUP2 PUSH2 0x143 JUMP JUMPDEST DUP2 EQ PUSH2 0x167 JUMPI PUSH0 PUSH0 REVERT JUMPDEST POP JUMP JUMPDEST PUSH0 DUP2 MLOAD SWAP1 POP PUSH2 0x178 DUP2 PUSH2 0x154 JUMP JUMPDEST SWAP3 SWAP2 POP POP JUMP JUMPDEST PUSH0 PUSH0 PUSH1 0x40 DUP4 DUP6 SUB SLT ISZERO PUSH2 0x194 JUMPI PUSH2 0x193 PUSH2 0xE3 JUMP JUMPDEST JUMPDEST PUSH0 PUSH2 0x1A1 DUP6 DUP3 DUP7 ADD PUSH2 0x110 JUMP JUMPDEST SWAP3 POP POP PUSH1 0x20 PUSH2 0x1B2 DUP6 DUP3 DUP7 ADD PUSH2 0x16A JUMP JUMPDEST SWAP2 POP POP SWAP3 POP SWAP3 SWAP1 POP JUMP JUMPDEST PUSH2 0x10DA DUP1 PUSH2 0x1C9 PUSH0 CODECOPY PUSH0 RETURN INVALID PUSH1 0x80 PUSH1 0x40 MSTORE PUSH1 0x4 CALLDATASIZE LT PUSH2 0xE7 JUMPI PUSH0 CALLDATALOAD PUSH1 0xE0 SHR DUP1 PUSH4 0x8DA5CB5B GT PUSH2 0x89 JUMPI DUP1 PUSH4 0xAB6C21AE GT PUSH2 0x58 JUMPI DUP1 PUSH4 0xAB6C21AE EQ PUSH2 0x2A3 JUMPI DUP1 PUSH4 0xE97DCB62 EQ PUSH2 0x2CB JUMPI DUP1 PUSH4 0xF2FDE38B EQ PUSH2 0x2D5 JUMPI DUP1 PUSH4 0xF71D96CB EQ PUSH2 0x2FD JUMPI PUSH2 0xE7 JUMP JUMPDEST DUP1 PUSH4 0x8DA5CB5B EQ PUSH2 0x1FD JUMPI DUP1 PUSH4 0x9B894703 EQ PUSH2 0x227 JUMPI DUP1 PUSH4 0xA4619A05 EQ PUSH2 0x251 JUMPI DUP1 PUSH4 0xA5C0449F EQ PUSH2 0x27B JUMPI PUSH2 0xE7 JUMP JUMPDEST DUP1 PUSH4 0x52D6804D GT PUSH2 0xC5 JUMPI DUP1 PUSH4 0x52D6804D EQ PUSH2 0x169 JUMPI DUP1 PUSH4 0x5D495AEA EQ PUSH2 0x193 JUMPI DUP1 PUSH4 0x61203265 EQ PUSH2 0x1A9 JUMPI DUP1 PUSH4 0x89C5F37F EQ PUSH2 0x1D3 JUMPI PUSH2 0xE7 JUMP JUMPDEST DUP1 PUSH4 0x6EF53E0 EQ PUSH2 0xEB JUMPI DUP1 PUSH4 0x316CADFA EQ PUSH2 0x115 JUMPI DUP1 PUSH4 0x47535D7B EQ PUSH2 0x13F JUMPI JUMPDEST PUSH0 PUSH0 REVERT JUMPDEST CALLVALUE DUP1 ISZERO PUSH2 0xF6 JUMPI PUSH0 PUSH0 REVERT JUMPDEST POP PUSH2 0xFF PUSH2 0x339 JUMP JUMPDEST PUSH1 0x40 MLOAD PUSH2 0x10C SWAP2 SWAP1 PUSH2 0xACF JUMP JUMPDEST PUSH1 0x40 MLOAD DUP1 SWAP2 SUB SWAP1 RETURN JUMPDEST CALLVALUE DUP1 ISZERO PUSH2 0x120 JUMPI PUSH0 PUSH0 REVERT JUMPDEST POP PUSH2 0x129 PUSH2 0x35E JUMP JUMPDEST PUSH1 0x40 MLOAD PUSH2 0x136 SWAP2 SWAP1 PUSH2 0xB0A JUMP JUMPDEST PUSH1 0x40 MLOAD DUP1 SWAP2 SUB SWAP1 RETURN JUMPDEST CALLVALUE DUP1 ISZERO PUSH2 0x14A JUMPI PUSH0 PUSH0 REVERT JUMPDEST POP PUSH2 0x153 PUSH2 0x377 JUMP JUMPDEST PUSH1 0x40 MLOAD PUSH2 0x160 SWAP2 SWAP1 PUSH2 0xB3D JUMP JUMPDEST PUSH1 0x40 MLOAD DUP1 SWAP2 SUB SWAP1 RETURN JUMPDEST CALLVALUE DUP1 ISZERO PUSH2 0x174 JUMPI PUSH0 PUSH0 REVERT JUMPDEST POP PUSH2 0x17D PUSH2 0x38A JUMP JUMPDEST PUSH1 0x40 MLOAD PUSH2 0x18A SWAP2 SWAP1 PUSH2 0xB6E JUMP JUMPDEST PUSH1 0x40 MLOAD DUP1 SWAP2 SUB SWAP1 RETURN JUMPDEST CALLVALUE DUP1 ISZERO PUSH2 0x19E JUMPI PUSH0 PUSH0 REVERT JUMPDEST POP PUSH2 0x1A7 PUSH2 0x390 JUMP JUMPDEST STOP JUMPDEST CALLVALUE DUP1 ISZERO PUSH2 0x1B4 JUMPI PUSH0 PUSH0 REVERT JUMPDEST POP PUSH2 0x1BD PUSH2 0x54A JUMP JUMPDEST PUSH1 0x40 MLOAD PUSH2 0x1CA SWAP2 SWAP1 PUSH2 0xACF JUMP JUMPDEST PUSH1 0x40 MLOAD DUP1 SWAP2 SUB SWAP1 RETURN JUMPDEST CALLVALUE DUP1 ISZERO PUSH2 0x1DE JUMPI PUSH0 PUSH0 REVERT JUMPDEST POP PUSH2 0x1E7 PUSH2 0x56F JUMP JUMPDEST PUSH1 0x40 MLOAD PUSH2 0x1F4 SWAP2 SWAP1 PUSH2 0xACF JUMP JUMPDEST PUSH1 0x40 MLOAD DUP1 SWAP2 SUB SWAP1 RETURN JUMPDEST CALLVALUE DUP1 ISZERO PUSH2 0x208 JUMPI PUSH0 PUSH0 REVERT JUMPDEST POP PUSH2 0x211 PUSH2 0x593 JUMP JUMPDEST PUSH1 0x40 MLOAD PUSH2 0x21E SWAP2 SWAP1 PUSH2 0xACF JUMP JUMPDEST PUSH1 0x40 MLOAD DUP1 SWAP2 SUB SWAP1 RETURN JUMPDEST CALLVALUE DUP1 ISZERO PUSH2 0x232 JUMPI PUSH0 PUSH0 REVERT JUMPDEST POP PUSH2 0x23B PUSH2 0x5BB JUMP JUMPDEST PUSH1 0x40 MLOAD PUSH2 0x248 SWAP2 SWAP1 PUSH2 0xB6E JUMP JUMPDEST PUSH1 0x40 MLOAD DUP1 SWAP2 SUB SWAP1 RETURN JUMPDEST CALLVALUE DUP1 ISZERO PUSH2 0x25C JUMPI PUSH0 PUSH0 REVERT JUMPDEST POP PUSH2 0x265 PUSH2 0x5C1 JUMP JUMPDEST PUSH1 0x40 MLOAD PUSH2 0x272 SWAP2 SWAP1 PUSH2 0xB6E JUMP JUMPDEST PUSH1 0x40 MLOAD DUP1 SWAP2 SUB SWAP1 RETURN JUMPDEST CALLVALUE DUP1 ISZERO PUSH2 0x286 JUMPI PUSH0 PUSH0 REVERT JUMPDEST POP PUSH2 0x2A1 PUSH1 0x4 DUP1 CALLDATASIZE SUB DUP2 ADD SWAP1 PUSH2 0x29C SWAP2 SWAP1 PUSH2 0xBB5 JUMP JUMPDEST PUSH2 0x5C7 JUMP JUMPDEST STOP JUMPDEST CALLVALUE DUP1 ISZERO PUSH2 0x2AE JUMPI PUSH0 PUSH0 REVERT JUMPDEST POP PUSH2 0x2C9 PUSH1 0x4 DUP1 CALLDATASIZE SUB DUP2 ADD SWAP1 PUSH2 0x2C4 SWAP2 SWAP1 PUSH2 0xBE0 JUMP JUMPDEST PUSH2 0x765 JUMP JUMPDEST STOP JUMPDEST PUSH2 0x2D3 PUSH2 0x85C JUMP JUMPDEST STOP JUMPDEST CALLVALUE DUP1 ISZERO PUSH2 0x2E0 JUMPI PUSH0 PUSH0 REVERT JUMPDEST POP PUSH2 0x2FB PUSH1 0x4 DUP1 CALLDATASIZE SUB DUP2 ADD SWAP1 PUSH2 0x2F6 SWAP2 SWAP1 PUSH2 0xC48 JUMP JUMPDEST PUSH2 0x99D JUMP JUMPDEST STOP JUMPDEST CALLVALUE DUP1 ISZERO PUSH2 0x308 JUMPI PUSH0 PUSH0 REVERT JUMPDEST POP PUSH2 0x323 PUSH1 0x4 DUP1 CALLDATASIZE SUB DUP2 ADD SWAP1 PUSH2 0x31E SWAP2 SWAP1 PUSH2 0xBB5 JUMP JUMPDEST PUSH2 0xA55 JUMP JUMPDEST PUSH1 0x40 MLOAD PUSH2 0x330 SWAP2 SWAP1 PUSH2 0xACF JUMP JUMPDEST PUSH1 0x40 MLOAD DUP1 SWAP2 SUB SWAP1 RETURN JUMPDEST PUSH1 0x3 PUSH0 SWAP1 SLOAD SWAP1 PUSH2 0x100 EXP SWAP1 DIV PUSH20 0xFFFFFFFFFFFFFFFFFFFFFFFFFFFFFFFFFFFFFFFF AND DUP2 JUMP JUMPDEST PUSH0 PUSH1 0x14 SWAP1 SLOAD SWAP1 PUSH2 0x100 EXP SWAP1 DIV PUSH8 0xFFFFFFFFFFFFFFFF AND DUP2 JUMP JUMPDEST PUSH1 0x3 PUSH1 0x14 SWAP1 SLOAD SWAP1 PUSH2 0x100 EXP SWAP1 DIV PUSH1 0xFF AND DUP2 JUMP JUMPDEST PUSH1 0x4 SLOAD DUP2 JUMP JUMPDEST CALLER PUSH20 0xFFFFFFFFFFFFFFFFFFFFFFFFFFFFFFFFFFFFFFFF AND PUSH2 0x3AF PUSH2 0x593 JUMP JUMPDEST PUSH20 0xFFFFFFFFFFFFFFFFFFFFFFFFFFFFFFFFFFFFFFFF AND EQ PUSH2 0x405 JUMPI PUSH1 0x40 MLOAD PUSH32 0x8C379A000000000000000000000000000000000000000000000000000000000 DUP2 MSTORE PUSH1 0x4 ADD PUSH2 0x3FC SWAP1 PUSH2 0xCF3 JUMP JUMPDEST PUSH1 0x40 MLOAD DUP1 SWAP2 SUB SWAP1 REVERT JUMPDEST PUSH1 0x1 ISZERO ISZERO PUSH1 0x3 PUSH1 0x14 SWAP1 SLOAD SWAP1 PUSH2 0x100 EXP SWAP1 DIV PUSH1 0xFF AND ISZERO ISZERO EQ PUSH2 0x45B JUMPI PUSH1 0x40 MLOAD PUSH32 0x8C379A000000000000000000000000000000000000000000000000000000000 DUP2 MSTORE PUSH1 0x4 ADD PUSH2 0x452 SWAP1 PUSH2 0xD5B JUMP JUMPDEST PUSH1 0x40 MLOAD DUP1 SWAP2 SUB SWAP1 REVERT JUMPDEST PUSH0 PUSH1 0x1 PUSH1 0x2 DUP1 SLOAD SWAP1 POP PUSH2 0x46E SWAP2 SWAP1 PUSH2 0xDA6 JUMP JUMPDEST PUSH1 0x4 SLOAD PUSH1 0x40 MLOAD PUSH1 0x20 ADD PUSH2 0x482 SWAP3 SWAP2 SWAP1 PUSH2 0xDF9 JUMP JUMPDEST PUSH1 0x40 MLOAD PUSH1 0x20 DUP2 DUP4 SUB SUB DUP2 MSTORE SWAP1 PUSH1 0x40 MSTORE SWAP1 POP PUSH0 PUSH0 PUSH0 SWAP1 SLOAD SWAP1 PUSH2 0x100 EXP SWAP1 DIV PUSH20 0xFFFFFFFFFFFFFFFFFFFFFFFFFFFFFFFFFFFFFFFF AND PUSH20 0xFFFFFFFFFFFFFFFFFFFFFFFFFFFFFFFFFFFFFFFF AND PUSH4 0xA2FB6D6F PUSH0 PUSH1 0x14 SWAP1 SLOAD SWAP1 PUSH2 0x100 EXP SWAP1 DIV PUSH8 0xFFFFFFFFFFFFFFFF AND DUP5 PUSH1 0x40 MLOAD DUP4 PUSH4 0xFFFFFFFF AND PUSH1 0xE0 SHL DUP2 MSTORE PUSH1 0x4 ADD PUSH2 0x504 SWAP3 SWAP2 SWAP1 PUSH2 0xE94 JUMP JUMPDEST PUSH1 0x20 PUSH1 0x40 MLOAD DUP1 DUP4 SUB DUP2 PUSH0 DUP8 GAS CALL ISZERO DUP1 ISZERO PUSH2 0x520 JUMPI RETURNDATASIZE PUSH0 PUSH0 RETURNDATACOPY RETURNDATASIZE PUSH0 REVERT JUMPDEST POP POP POP POP PUSH1 0x40 MLOAD RETURNDATASIZE PUSH1 0x1F NOT PUSH1 0x1F DUP3 ADD AND DUP3 ADD DUP1 PUSH1 0x40 MSTORE POP DUP2 ADD SWAP1 PUSH2 0x544 SWAP2 SWAP1 PUSH2 0xEEC JUMP JUMPDEST SWAP1 POP POP POP JUMP JUMPDEST PUSH1 0x1 PUSH0 SWAP1 SLOAD SWAP1 PUSH2 0x100 EXP SWAP1 DIV PUSH20 0xFFFFFFFFFFFFFFFFFFFFFFFFFFFFFFFFFFFFFFFF AND DUP2 JUMP JUMPDEST PUSH0 PUSH0 SWAP1 SLOAD SWAP1 PUSH2 0x100 EXP SWAP1 DIV PUSH20 0xFFFFFFFFFFFFFFFFFFFFFFFFFFFFFFFFFFFFFFFF AND DUP2 JUMP JUMPDEST PUSH0 PUSH1 0x7 PUSH0 SWAP1 SLOAD SWAP1 PUSH2 0x100 EXP SWAP1 DIV PUSH20 0xFFFFFFFFFFFFFFFFFFFFFFFFFFFFFFFFFFFFFFFF AND SWAP1 POP SWAP1 JUMP JUMPDEST PUSH1 0x6 SLOAD DUP2 JUMP JUMPDEST PUSH1 0x5 SLOAD DUP2 JUMP JUMPDEST PUSH20 0xC0FFEE4A3A2D488B138D090B8112875B90B5E6D9 PUSH20 0xFFFFFFFFFFFFFFFFFFFFFFFFFFFFFFFFFFFFFFFF AND ORIGIN PUSH20 0xFFFFFFFFFFFFFFFFFFFFFFFFFFFFFFFFFFFFFFFF AND EQ PUSH2 0x649 JUMPI PUSH1 0x40 MLOAD PUSH32 0x8C379A000000000000000000000000000000000000000000000000000000000 DUP2 MSTORE PUSH1 0x4 ADD PUSH2 0x640 SWAP1 PUSH2 0xF61 JUMP JUMPDEST PUSH1 0x40 MLOAD DUP1 SWAP2 SUB SWAP1 REVERT JUMPDEST PUSH0 DUP2 SWAP1 POP PUSH1 0x2 DUP2 DUP2 SLOAD DUP2 LT PUSH2 0x661 JUMPI PUSH2 0x660 PUSH2 0xF7F JUMP JUMPDEST JUMPDEST SWAP1 PUSH0 MSTORE PUSH1 0x20 PUSH0 KECCAK256 ADD PUSH0 SWAP1 SLOAD SWAP1 PUSH2 0x100 EXP SWAP1 DIV PUSH20 0xFFFFFFFFFFFFFFFFFFFFFFFFFFFFFFFFFFFFFFFF AND PUSH20 0xFFFFFFFFFFFFFFFFFFFFFFFFFFFFFFFFFFFFFFFF AND PUSH2 0x8FC SELFBALANCE SWAP1 DUP2 ISZERO MUL SWAP1 PUSH1 0x40 MLOAD PUSH0 PUSH1 0x40 MLOAD DUP1 DUP4 SUB DUP2 DUP6 DUP9 DUP9 CALL SWAP4 POP POP POP POP ISZERO DUP1 ISZERO PUSH2 0x6CB JUMPI RETURNDATASIZE PUSH0 PUSH0 RETURNDATACOPY RETURNDATASIZE PUSH0 REVERT JUMPDEST POP PUSH1 0x2 DUP2 DUP2 SLOAD DUP2 LT PUSH2 0x6E0 JUMPI PUSH2 0x6DF PUSH2 0xF7F JUMP JUMPDEST JUMPDEST SWAP1 PUSH0 MSTORE PUSH1 0x20 PUSH0 KECCAK256 ADD PUSH0 SWAP1 SLOAD SWAP1 PUSH2 0x100 EXP SWAP1 DIV PUSH20 0xFFFFFFFFFFFFFFFFFFFFFFFFFFFFFFFFFFFFFFFF AND PUSH1 0x3 PUSH0 PUSH2 0x100 EXP DUP2 SLOAD DUP2 PUSH20 0xFFFFFFFFFFFFFFFFFFFFFFFFFFFFFFFFFFFFFFFF MUL NOT AND SWAP1 DUP4 PUSH20 0xFFFFFFFFFFFFFFFFFFFFFFFFFFFFFFFFFFFFFFFF AND MUL OR SWAP1 SSTORE POP PUSH0 PUSH1 0x3 PUSH1 0x14 PUSH2 0x100 EXP DUP2 SLOAD DUP2 PUSH1 0xFF MUL NOT AND SWAP1 DUP4 ISZERO ISZERO MUL OR SWAP1 SSTORE POP POP POP JUMP JUMPDEST CALLER PUSH20 0xFFFFFFFFFFFFFFFFFFFFFFFFFFFFFFFFFFFFFFFF AND PUSH2 0x784 PUSH2 0x593 JUMP JUMPDEST PUSH20 0xFFFFFFFFFFFFFFFFFFFFFFFFFFFFFFFFFFFFFFFF AND EQ PUSH2 0x7DA JUMPI PUSH1 0x40 MLOAD PUSH32 0x8C379A000000000000000000000000000000000000000000000000000000000 DUP2 MSTORE PUSH1 0x4 ADD PUSH2 0x7D1 SWAP1 PUSH2 0xCF3 JUMP JUMPDEST PUSH1 0x40 MLOAD DUP1 SWAP2 SUB SWAP1 REVERT JUMPDEST PUSH0 ISZERO ISZERO PUSH1 0x3 PUSH1 0x14 SWAP1 SLOAD SWAP1 PUSH2 0x100 EXP SWAP1 DIV PUSH1 0xFF AND ISZERO ISZERO EQ PUSH2 0x82F JUMPI PUSH1 0x40 MLOAD PUSH32 0x8C379A000000000000000000000000000000000000000000000000000000000 DUP2 MSTORE PUSH1 0x4 ADD PUSH2 0x826 SWAP1 PUSH2 0xD5B JUMP JUMPDEST PUSH1 0x40 MLOAD DUP1 SWAP2 SUB SWAP1 REVERT JUMPDEST DUP2 PUSH1 0x6 DUP2 SWAP1 SSTORE POP DUP1 PUSH1 0x5 DUP2 SWAP1 SSTORE POP PUSH1 0x1 PUSH1 0x3 PUSH1 0x14 PUSH2 0x100 EXP DUP2 SLOAD DUP2 PUSH1 0xFF MUL NOT AND SWAP1 DUP4 ISZERO ISZERO MUL OR SWAP1 SSTORE POP POP POP JUMP JUMPDEST PUSH1 0x5 SLOAD CALLVALUE LT ISZERO PUSH2 0x8A1 JUMPI PUSH1 0x40 MLOAD PUSH32 0x8C379A000000000000000000000000000000000000000000000000000000000 DUP2 MSTORE PUSH1 0x4 ADD PUSH2 0x898 SWAP1 PUSH2 0xFF6 JUMP JUMPDEST PUSH1 0x40 MLOAD DUP1 SWAP2 SUB SWAP1 REVERT JUMPDEST PUSH1 0x3 PUSH1 0x14 SWAP1 SLOAD SWAP1 PUSH2 0x100 EXP SWAP1 DIV PUSH1 0xFF AND PUSH2 0x8F0 JUMPI PUSH1 0x40 MLOAD PUSH32 0x8C379A000000000000000000000000000000000000000000000000000000000 DUP2 MSTORE PUSH1 0x4 ADD PUSH2 0x8E7 SWAP1 PUSH2 0xD5B JUMP JUMPDEST PUSH1 0x40 MLOAD DUP1 SWAP2 SUB SWAP1 REVERT JUMPDEST PUSH0 PUSH1 0x5 SLOAD CALLVALUE PUSH2 0x8FF SWAP2 SWAP1 PUSH2 0x1041 JUMP JUMPDEST SWAP1 POP PUSH1 0x6 SLOAD DUP2 PUSH1 0x2 DUP1 SLOAD SWAP1 POP PUSH2 0x915 SWAP2 SWAP1 PUSH2 0x1071 JUMP JUMPDEST GT ISZERO PUSH2 0x91F JUMPI PUSH0 PUSH0 REVERT JUMPDEST PUSH0 PUSH0 SWAP1 POP JUMPDEST DUP2 DUP2 LT ISZERO PUSH2 0x999 JUMPI PUSH1 0x2 CALLER SWAP1 DUP1 PUSH1 0x1 DUP2 SLOAD ADD DUP1 DUP3 SSTORE DUP1 SWAP2 POP POP PUSH1 0x1 SWAP1 SUB SWAP1 PUSH0 MSTORE PUSH1 0x20 PUSH0 KECCAK256 ADD PUSH0 SWAP1 SWAP2 SWAP1 SWAP2 SWAP1 SWAP2 PUSH2 0x100 EXP DUP2 SLOAD DUP2 PUSH20 0xFFFFFFFFFFFFFFFFFFFFFFFFFFFFFFFFFFFFFFFF MUL NOT AND SWAP1 DUP4 PUSH20 0xFFFFFFFFFFFFFFFFFFFFFFFFFFFFFFFFFFFFFFFF AND MUL OR SWAP1 SSTORE POP DUP1 DUP1 PUSH1 0x1 ADD SWAP2 POP POP PUSH2 0x924 JUMP JUMPDEST POP POP JUMP JUMPDEST CALLER PUSH20 0xFFFFFFFFFFFFFFFFFFFFFFFFFFFFFFFFFFFFFFFF AND PUSH2 0x9BC PUSH2 0x593 JUMP JUMPDEST PUSH20 0xFFFFFFFFFFFFFFFFFFFFFFFFFFFFFFFFFFFFFFFF AND EQ PUSH2 0xA12 JUMPI PUSH1 0x40 MLOAD PUSH32 0x8C379A000000000000000000000000000000000000000000000000000000000 DUP2 MSTORE PUSH1 0x4 ADD PUSH2 0xA09 SWAP1 PUSH2 0xCF3 JUMP JUMPDEST PUSH1 0x40 MLOAD DUP1 SWAP2 SUB SWAP1 REVERT JUMPDEST DUP1 PUSH1 0x7 PUSH0 PUSH2 0x100 EXP DUP2 SLOAD DUP2 PUSH20 0xFFFFFFFFFFFFFFFFFFFFFFFFFFFFFFFFFFFFFFFF MUL NOT AND SWAP1 DUP4 PUSH20 0xFFFFFFFFFFFFFFFFFFFFFFFFFFFFFFFFFFFFFFFF AND MUL OR SWAP1 SSTORE POP POP JUMP JUMPDEST PUSH1 0x2 DUP2 DUP2 SLOAD DUP2 LT PUSH2 0xA64 JUMPI PUSH0 DUP1 REVERT JUMPDEST SWAP1 PUSH0 MSTORE PUSH1 0x20 PUSH0 KECCAK256 ADD PUSH0 SWAP2 POP SLOAD SWAP1 PUSH2 0x100 EXP SWAP1 DIV PUSH20 0xFFFFFFFFFFFFFFFFFFFFFFFFFFFFFFFFFFFFFFFF AND DUP2 JUMP JUMPDEST PUSH0 PUSH20 0xFFFFFFFFFFFFFFFFFFFFFFFFFFFFFFFFFFFFFFFF DUP3 AND SWAP1 POP SWAP2 SWAP1 POP JUMP JUMPDEST PUSH0 PUSH2 0xAB9 DUP3 PUSH2 0xA90 JUMP JUMPDEST SWAP1 POP SWAP2 SWAP1 POP JUMP JUMPDEST PUSH2 0xAC9 DUP2 PUSH2 0xAAF JUMP JUMPDEST DUP3 MSTORE POP POP JUMP JUMPDEST PUSH0 PUSH1 0x20 DUP3 ADD SWAP1 POP PUSH2 0xAE2 PUSH0 DUP4 ADD DUP5 PUSH2 0xAC0 JUMP JUMPDEST SWAP3 SWAP2 POP POP JUMP JUMPDEST PUSH0 PUSH8 0xFFFFFFFFFFFFFFFF DUP3 AND SWAP1 POP SWAP2 SWAP1 POP JUMP JUMPDEST PUSH2 0xB04 DUP2 PUSH2 0xAE8 JUMP JUMPDEST DUP3 MSTORE POP POP JUMP JUMPDEST PUSH0 PUSH1 0x20 DUP3 ADD SWAP1 POP PUSH2 0xB1D PUSH0 DUP4 ADD DUP5 PUSH2 0xAFB JUMP JUMPDEST SWAP3 SWAP2 POP POP JUMP JUMPDEST PUSH0 DUP2 ISZERO ISZERO SWAP1 POP SWAP2 SWAP1 POP JUMP JUMPDEST PUSH2 0xB37 DUP2 PUSH2 0xB23 JUMP JUMPDEST DUP3 MSTORE POP POP JUMP JUMPDEST PUSH0 PUSH1 0x20 DUP3 ADD SWAP1 POP PUSH2 0xB50 PUSH0 DUP4 ADD DUP5 PUSH2 0xB2E JUMP JUMPDEST SWAP3 SWAP2 POP POP JUMP JUMPDEST PUSH0 DUP2 SWAP1 POP SWAP2 SWAP1 POP JUMP JUMPDEST PUSH2 0xB68 DUP2 PUSH2 0xB56 JUMP JUMPDEST DUP3 MSTORE POP POP JUMP JUMPDEST PUSH0 PUSH1 0x20 DUP3 ADD SWAP1 POP PUSH2 0xB81 PUSH0 DUP4 ADD DUP5 PUSH2 0xB5F JUMP JUMPDEST SWAP3 SWAP2 POP POP JUMP JUMPDEST PUSH0 PUSH0 REVERT JUMPDEST PUSH2 0xB94 DUP2 PUSH2 0xB56 JUMP JUMPDEST DUP2 EQ PUSH2 0xB9E JUMPI PUSH0 PUSH0 REVERT JUMPDEST POP JUMP JUMPDEST PUSH0 DUP2 CALLDATALOAD SWAP1 POP PUSH2 0xBAF DUP2 PUSH2 0xB8B JUMP JUMPDEST SWAP3 SWAP2 POP POP JUMP JUMPDEST PUSH0 PUSH1 0x20 DUP3 DUP5 SUB SLT ISZERO PUSH2 0xBCA JUMPI PUSH2 0xBC9 PUSH2 0xB87 JUMP JUMPDEST JUMPDEST PUSH0 PUSH2 0xBD7 DUP5 DUP3 DUP6 ADD PUSH2 0xBA1 JUMP JUMPDEST SWAP2 POP POP SWAP3 SWAP2 POP POP JUMP JUMPDEST PUSH0 PUSH0 PUSH1 0x40 DUP4 DUP6 SUB SLT ISZERO PUSH2 0xBF6 JUMPI PUSH2 0xBF5 PUSH2 0xB87 JUMP JUMPDEST JUMPDEST PUSH0 PUSH2 0xC03 DUP6 DUP3 DUP7 ADD PUSH2 0xBA1 JUMP JUMPDEST SWAP3 POP POP PUSH1 0x20 PUSH2 0xC14 DUP6 DUP3 DUP7 ADD PUSH2 0xBA1 JUMP JUMPDEST SWAP2 POP POP SWAP3 POP SWAP3 SWAP1 POP JUMP JUMPDEST PUSH2 0xC27 DUP2 PUSH2 0xAAF JUMP JUMPDEST DUP2 EQ PUSH2 0xC31 JUMPI PUSH0 PUSH0 REVERT JUMPDEST POP JUMP JUMPDEST PUSH0 DUP2 CALLDATALOAD SWAP1 POP PUSH2 0xC42 DUP2 PUSH2 0xC1E JUMP JUMPDEST SWAP3 SWAP2 POP POP JUMP JUMPDEST PUSH0 PUSH1 0x20 DUP3 DUP5 SUB SLT ISZERO PUSH2 0xC5D JUMPI PUSH2 0xC5C PUSH2 0xB87 JUMP JUMPDEST JUMPDEST PUSH0 PUSH2 0xC6A DUP5 DUP3 DUP6 ADD PUSH2 0xC34 JUMP JUMPDEST SWAP2 POP POP SWAP3 SWAP2 POP POP JUMP JUMPDEST PUSH0 DUP3 DUP3 MSTORE PUSH1 0x20 DUP3 ADD SWAP1 POP SWAP3 SWAP2 POP POP JUMP JUMPDEST PUSH32 0x4F776E65727368697020417373657274696F6E3A2043616C6C6572206F662074 PUSH0 DUP3 ADD MSTORE PUSH32 0x68652066756E6374696F6E206973206E6F7420746865206F776E65722E000000 PUSH1 0x20 DUP3 ADD MSTORE POP JUMP JUMPDEST PUSH0 PUSH2 0xCDD PUSH1 0x3D DUP4 PUSH2 0xC73 JUMP JUMPDEST SWAP2 POP PUSH2 0xCE8 DUP3 PUSH2 0xC83 JUMP JUMPDEST PUSH1 0x40 DUP3 ADD SWAP1 POP SWAP2 SWAP1 POP JUMP JUMPDEST PUSH0 PUSH1 0x20 DUP3 ADD SWAP1 POP DUP2 DUP2 SUB PUSH0 DUP4 ADD MSTORE PUSH2 0xD0A DUP2 PUSH2 0xCD1 JUMP JUMPDEST SWAP1 POP SWAP2 SWAP1 POP JUMP JUMPDEST PUSH32 0x746865206C6F747465727920686173206E6F7420737461727465642079657400 PUSH0 DUP3 ADD MSTORE POP JUMP JUMPDEST PUSH0 PUSH2 0xD45 PUSH1 0x1F DUP4 PUSH2 0xC73 JUMP JUMPDEST SWAP2 POP PUSH2 0xD50 DUP3 PUSH2 0xD11 JUMP JUMPDEST PUSH1 0x20 DUP3 ADD SWAP1 POP SWAP2 SWAP1 POP JUMP JUMPDEST PUSH0 PUSH1 0x20 DUP3 ADD SWAP1 POP DUP2 DUP2 SUB PUSH0 DUP4 ADD MSTORE PUSH2 0xD72 DUP2 PUSH2 0xD39 JUMP JUMPDEST SWAP1 POP SWAP2 SWAP1 POP JUMP JUMPDEST PUSH32 0x4E487B7100000000000000000000000000000000000000000000000000000000 PUSH0 MSTORE PUSH1 0x11 PUSH1 0x4 MSTORE PUSH1 0x24 PUSH0 REVERT JUMPDEST PUSH0 PUSH2 0xDB0 DUP3 PUSH2 0xB56 JUMP JUMPDEST SWAP2 POP PUSH2 0xDBB DUP4 PUSH2 0xB56 JUMP JUMPDEST SWAP3 POP DUP3 DUP3 SUB SWAP1 POP DUP2 DUP2 GT ISZERO PUSH2 0xDD3 JUMPI PUSH2 0xDD2 PUSH2 0xD79 JUMP JUMPDEST JUMPDEST SWAP3 SWAP2 POP POP JUMP JUMPDEST PUSH0 DUP2 SWAP1 POP SWAP2 SWAP1 POP JUMP JUMPDEST PUSH2 0xDF3 PUSH2 0xDEE DUP3 PUSH2 0xB56 JUMP JUMPDEST PUSH2 0xDD9 JUMP JUMPDEST DUP3 MSTORE POP POP JUMP JUMPDEST PUSH0 PUSH2 0xE04 DUP3 DUP6 PUSH2 0xDE2 JUMP JUMPDEST PUSH1 0x20 DUP3 ADD SWAP2 POP PUSH2 0xE14 DUP3 DUP5 PUSH2 0xDE2 JUMP JUMPDEST PUSH1 0x20 DUP3 ADD SWAP2 POP DUP2 SWAP1 POP SWAP4 SWAP3 POP POP POP JUMP JUMPDEST PUSH0 DUP2 MLOAD SWAP1 POP SWAP2 SWAP1 POP JUMP JUMPDEST PUSH0 DUP3 DUP3 MSTORE PUSH1 0x20 DUP3 ADD SWAP1 POP SWAP3 SWAP2 POP POP JUMP JUMPDEST DUP3 DUP2 DUP4 MCOPY PUSH0 DUP4 DUP4 ADD MSTORE POP POP POP JUMP JUMPDEST PUSH0 PUSH1 0x1F NOT PUSH1 0x1F DUP4 ADD AND SWAP1 POP SWAP2 SWAP1 POP JUMP JUMPDEST PUSH0 PUSH2 0xE66 DUP3 PUSH2 0xE24 JUMP JUMPDEST PUSH2 0xE70 DUP2 DUP6 PUSH2 0xE2E JUMP JUMPDEST SWAP4 POP PUSH2 0xE80 DUP2 DUP6 PUSH1 0x20 DUP7 ADD PUSH2 0xE3E JUMP JUMPDEST PUSH2 0xE89 DUP2 PUSH2 0xE4C JUMP JUMPDEST DUP5 ADD SWAP2 POP POP SWAP3 SWAP2 POP POP JUMP JUMPDEST PUSH0 PUSH1 0x40 DUP3 ADD SWAP1 POP PUSH2 0xEA7 PUSH0 DUP4 ADD DUP6 PUSH2 0xAFB JUMP JUMPDEST DUP2 DUP2 SUB PUSH1 0x20 DUP4 ADD MSTORE PUSH2 0xEB9 DUP2 DUP5 PUSH2 0xE5C JUMP JUMPDEST SWAP1 POP SWAP4 SWAP3 POP POP POP JUMP JUMPDEST PUSH2 0xECB DUP2 PUSH2 0xAE8 JUMP JUMPDEST DUP2 EQ PUSH2 0xED5 JUMPI PUSH0 PUSH0 REVERT JUMPDEST POP JUMP JUMPDEST PUSH0 DUP2 MLOAD SWAP1 POP PUSH2 0xEE6 DUP2 PUSH2 0xEC2 JUMP JUMPDEST SWAP3 SWAP2 POP POP JUMP JUMPDEST PUSH0 PUSH1 0x20 DUP3 DUP5 SUB SLT ISZERO PUSH2 0xF01 JUMPI PUSH2 0xF00 PUSH2 0xB87 JUMP JUMPDEST JUMPDEST PUSH0 PUSH2 0xF0E DUP5 DUP3 DUP6 ADD PUSH2 0xED8 JUMP JUMPDEST SWAP2 POP POP SWAP3 SWAP2 POP POP JUMP JUMPDEST PUSH32 0x496E76616C69642063616C6C6261636B20616464726573730000000000000000 PUSH0 DUP3 ADD MSTORE POP JUMP JUMPDEST PUSH0 PUSH2 0xF4B PUSH1 0x18 DUP4 PUSH2 0xC73 JUMP JUMPDEST SWAP2 POP PUSH2 0xF56 DUP3 PUSH2 0xF17 JUMP JUMPDEST PUSH1 0x20 DUP3 ADD SWAP1 POP SWAP2 SWAP1 POP JUMP JUMPDEST PUSH0 PUSH1 0x20 DUP3 ADD SWAP1 POP DUP2 DUP2 SUB PUSH0 DUP4 ADD MSTORE PUSH2 0xF78 DUP2 PUSH2 0xF3F JUMP JUMPDEST SWAP1 POP SWAP2 SWAP1 POP JUMP JUMPDEST PUSH32 0x4E487B7100000000000000000000000000000000000000000000000000000000 PUSH0 MSTORE PUSH1 0x32 PUSH1 0x4 MSTORE PUSH1 0x24 PUSH0 REVERT JUMPDEST PUSH32 0x646964206E6F742070617920656E6F7567680000000000000000000000000000 PUSH0 DUP3 ADD MSTORE POP JUMP JUMPDEST PUSH0 PUSH2 0xFE0 PUSH1 0x12 DUP4 PUSH2 0xC73 JUMP JUMPDEST SWAP2 POP PUSH2 0xFEB DUP3 PUSH2 0xFAC JUMP JUMPDEST PUSH1 0x20 DUP3 ADD SWAP1 POP SWAP2 SWAP1 POP JUMP JUMPDEST PUSH0 PUSH1 0x20 DUP3 ADD SWAP1 POP DUP2 DUP2 SUB PUSH0 DUP4 ADD MSTORE PUSH2 0x100D DUP2 PUSH2 0xFD4 JUMP JUMPDEST SWAP1 POP SWAP2 SWAP1 POP JUMP JUMPDEST PUSH32 0x4E487B7100000000000000000000000000000000000000000000000000000000 PUSH0 MSTORE PUSH1 0x12 PUSH1 0x4 MSTORE PUSH1 0x24 PUSH0 REVERT JUMPDEST PUSH0 PUSH2 0x104B DUP3 PUSH2 0xB56 JUMP JUMPDEST SWAP2 POP PUSH2 0x1056 DUP4 PUSH2 0xB56 JUMP JUMPDEST SWAP3 POP DUP3 PUSH2 0x1066 JUMPI PUSH2 0x1065 PUSH2 0x1014 JUMP JUMPDEST JUMPDEST DUP3 DUP3 DIV SWAP1 POP SWAP3 SWAP2 POP POP JUMP JUMPDEST PUSH0 PUSH2 0x107B DUP3 PUSH2 0xB56 JUMP JUMPDEST SWAP2 POP PUSH2 0x1086 DUP4 PUSH2 0xB56 JUMP JUMPDEST SWAP3 POP DUP3 DUP3 ADD SWAP1 POP DUP1 DUP3 GT ISZERO PUSH2 0x109E JUMPI PUSH2 0x109D PUSH2 0xD79 JUMP JUMPDEST JUMPDEST SWAP3 SWAP2 POP POP JUMP INVALID LOG2 PUSH5 0x6970667358 0x22 SLT KECCAK256 0xBD PREVRANDAO 0xDE XOR 0xB7 0xE0 PUSH21 0x4D1B05C4D326AF829D6A2EAE5AF900E3FC4A696105 INVALID SIGNEXTEND DUP10 PREVRANDAO PUSH5 0x736F6C6343 STOP ADDMOD SHL STOP CALLER "
		},
		"gasEstimates": {
			"creation": {
				"codeDepositCost": "862800",
				"executionCost": "infinite",
				"totalCost": "infinite"
			},
			"external": {
				"enter()": "infinite",
				"isOpen()": "2585",
				"latestWinner()": "2532",
				"maxTickets()": "2470",
				"midpointID()": "2562",
				"minimum()": "2448",
				"organizer()": "2575",
				"owner()": "2538",
				"payWinner(uint256)": "infinite",
				"pickWinner()": "infinite",
				"players(uint256)": "5032",
				"startLottery(uint256,uint256)": "infinite",
				"startpointAddress()": "2596",
				"ticketpricewei()": "2492",
				"transferOwnership(address)": "26984"
			}
		},
		"methodIdentifiers": {
			"enter()": "e97dcb62",
			"isOpen()": "47535d7b",
			"latestWinner()": "06ef53e0",
			"maxTickets()": "9b894703",
			"midpointID()": "316cadfa",
			"minimum()": "52d6804d",
			"organizer()": "61203265",
			"owner()": "8da5cb5b",
			"payWinner(uint256)": "a5c0449f",
			"pickWinner()": "5d495aea",
			"players(uint256)": "f71d96cb",
			"startLottery(uint256,uint256)": "ab6c21ae",
			"startpointAddress()": "89c5f37f",
			"ticketpricewei()": "a4619a05",
			"transferOwnership(address)": "f2fde38b"
		}
	},
	"abi": [
		{
			"inputs": [
				{
					"internalType": "uint64",
					"name": "_midpointID",
					"type": "uint64"
				},
				{
					"internalType": "address",
					"name": "_startpointAddress",
					"type": "address"
				}
			],
			"stateMutability": "nonpayable",
			"type": "constructor"
		},
		{
			"anonymous": false,
			"inputs": [
				{
					"indexed": false,
					"internalType": "int256",
					"name": "max",
					"type": "int256"
				},
				{
					"indexed": false,
					"internalType": "int256",
					"name": "min",
					"type": "int256"
				}
			],
			"name": "RequestMade",
			"type": "event"
		},
		{
			"anonymous": false,
			"inputs": [
				{
					"indexed": false,
					"internalType": "int256",
					"name": "random",
					"type": "int256"
				}
			],
			"name": "ResponseReceived",
			"type": "event"
		},
		{
			"inputs": [],
			"name": "enter",
			"outputs": [],
			"stateMutability": "payable",
			"type": "function"
		},
		{
			"inputs": [],
			"name": "isOpen",
			"outputs": [
				{
					"internalType": "bool",
					"name": "",
					"type": "bool"
				}
			],
			"stateMutability": "view",
			"type": "function"
		},
		{
			"inputs": [],
			"name": "latestWinner",
			"outputs": [
				{
					"internalType": "address",
					"name": "",
					"type": "address"
				}
			],
			"stateMutability": "view",
			"type": "function"
		},
		{
			"inputs": [],
			"name": "maxTickets",
			"outputs": [
				{
					"internalType": "uint256",
					"name": "",
					"type": "uint256"
				}
			],
			"stateMutability": "view",
			"type": "function"
		},
		{
			"inputs": [],
			"name": "midpointID",
			"outputs": [
				{
					"internalType": "uint64",
					"name": "",
					"type": "uint64"
				}
			],
			"stateMutability": "view",
			"type": "function"
		},
		{
			"inputs": [],
			"name": "minimum",
			"outputs": [
				{
					"internalType": "uint256",
					"name": "",
					"type": "uint256"
				}
			],
			"stateMutability": "view",
			"type": "function"
		},
		{
			"inputs": [],
			"name": "organizer",
			"outputs": [
				{
					"internalType": "address",
					"name": "",
					"type": "address"
				}
			],
			"stateMutability": "view",
			"type": "function"
		},
		{
			"inputs": [],
			"name": "owner",
			"outputs": [
				{
					"internalType": "address",
					"name": "",
					"type": "address"
				}
			],
			"stateMutability": "view",
			"type": "function"
		},
		{
			"inputs": [
				{
					"internalType": "uint256",
					"name": "random",
					"type": "uint256"
				}
			],
			"name": "payWinner",
			"outputs": [],
			"stateMutability": "nonpayable",
			"type": "function"
		},
		{
			"inputs": [],
			"name": "pickWinner",
			"outputs": [],
			"stateMutability": "nonpayable",
			"type": "function"
		},
		{
			"inputs": [
				{
					"internalType": "uint256",
					"name": "",
					"type": "uint256"
				}
			],
			"name": "players",
			"outputs": [
				{
					"internalType": "address",
					"name": "",
					"type": "address"
				}
			],
			"stateMutability": "view",
			"type": "function"
		},
		{
			"inputs": [
				{
					"internalType": "uint256",
					"name": "_maxTickets",
					"type": "uint256"
				},
				{
					"internalType": "uint256",
					"name": "_weival",
					"type": "uint256"
				}
			],
			"name": "startLottery",
			"outputs": [],
			"stateMutability": "nonpayable",
			"type": "function"
		},
		{
			"inputs": [],
			"name": "startpointAddress",
			"outputs": [
				{
					"internalType": "address",
					"name": "",
					"type": "address"
				}
			],
			"stateMutability": "view",
			"type": "function"
		},
		{
			"inputs": [],
			"name": "ticketpricewei",
			"outputs": [
				{
					"internalType": "uint256",
					"name": "",
					"type": "uint256"
				}
			],
			"stateMutability": "view",
			"type": "function"
		},
		{
			"inputs": [
				{
					"internalType": "address",
					"name": "newOwner",
					"type": "address"
				}
			],
			"name": "transferOwnership",
			"outputs": [],
			"stateMutability": "nonpayable",
			"type": "function"
		}
	]
}