{
	"data": {
		"bytecode": {
			"linkReferences": {},
			"object": "608060405234801561000f575f5ffd5b50604051612581380380612581833981810160405281019061003191906101c3565b818181600290816100429190610449565b5080600390816100529190610449565b5061006161006f60201b60201c565b5f8190555050505050610518565b5f5f905090565b5f604051905090565b5f5ffd5b5f5ffd5b5f5ffd5b5f5ffd5b5f601f19601f8301169050919050565b7f4e487b71000000000000000000000000000000000000000000000000000000005f52604160045260245ffd5b6100d58261008f565b810181811067ffffffffffffffff821117156100f4576100f361009f565b5b80604052505050565b5f610106610076565b905061011282826100cc565b919050565b5f67ffffffffffffffff8211156101315761013061009f565b5b61013a8261008f565b9050602081019050919050565b8281835e5f83830152505050565b5f61016761016284610117565b6100fd565b9050828152602081018484840111156101835761018261008b565b5b61018e848285610147565b509392505050565b5f82601f8301126101aa576101a9610087565b5b81516101ba848260208601610155565b91505092915050565b5f5f604083850312156101d9576101d861007f565b5b5f83015167ffffffffffffffff8111156101f6576101f5610083565b5b61020285828601610196565b925050602083015167ffffffffffffffff81111561022357610222610083565b5b61022f85828601610196565b9150509250929050565b5f81519050919050565b7f4e487b71000000000000000000000000000000000000000000000000000000005f52602260045260245ffd5b5f600282049050600182168061028757607f821691505b60208210810361029a57610299610243565b5b50919050565b5f819050815f5260205f209050919050565b5f6020601f8301049050919050565b5f82821b905092915050565b5f600883026102fc7fffffffffffffffffffffffffffffffffffffffffffffffffffffffffffffffff826102c1565b61030686836102c1565b95508019841693508086168417925050509392505050565b5f819050919050565b5f819050919050565b5f61034a6103456103408461031e565b610327565b61031e565b9050919050565b5f819050919050565b61036383610330565b61037761036f82610351565b8484546102cd565b825550505050565b5f5f905090565b61038e61037f565b61039981848461035a565b505050565b5b818110156103bc576103b15f82610386565b60018101905061039f565b5050565b601f821115610401576103d2816102a0565b6103db846102b2565b810160208510156103ea578190505b6103fe6103f6856102b2565b83018261039e565b50505b505050565b5f82821c905092915050565b5f6104215f1984600802610406565b1980831691505092915050565b5f6104398383610412565b9150826002028217905092915050565b61045282610239565b67ffffffffffffffff81111561046b5761046a61009f565b5b6104758254610270565b6104808282856103c0565b5f60209050601f8311600181146104b1575f841561049f578287015190505b6104a9858261042e565b865550610510565b601f1984166104bf866102a0565b5f5b828110156104e6578489015182556001820191506020850194506020810190506104c1565b8683101561050357848901516104ff601f891682610412565b8355505b6001600288020188555050505b505050505050565b61205c806105255f395ff3fe608060405260043610610129575f3560e01c80636352211e116100aa578063a2309ff81161006e578063a2309ff8146103df578063b88d4fde14610409578063c87b56dd14610425578063d89135cd14610461578063e985e9c51461048b578063f2523633146104c757610129565b80636352211e146102ed57806370a082311461032957806395d89b4114610365578063a14481941461038f578063a22cb465146103b757610129565b806323b872dd116100f157806323b872dd146102155780632478d6391461023157806342842e0e1461026d57806342966c68146102895780634f558e79146102b157610129565b806301ffc9a71461012d57806306fdde0314610169578063081812fc14610193578063095ea7b3146101cf57806318160ddd146101eb575b5f5ffd5b348015610138575f5ffd5b50610153600480360381019061014e9190611873565b610503565b60405161016091906118b8565b60405180910390f35b348015610174575f5ffd5b5061017d610594565b60405161018a9190611941565b60405180910390f35b34801561019e575f5ffd5b506101b960048036038101906101b49190611994565b610624565b6040516101c691906119fe565b60405180910390f35b6101e960048036038101906101e49190611a41565b61067d565b005b3480156101f6575f5ffd5b506101ff61068d565b60405161020c9190611a8e565b60405180910390f35b61022f600480360381019061022a9190611aa7565b6106a2565b005b34801561023c575f5ffd5b5061025760048036038101906102529190611af7565b61094d565b6040516102649190611a8e565b60405180910390f35b61028760048036038101906102829190611aa7565b61095e565b005b348015610294575f5ffd5b506102af60048036038101906102aa9190611994565b61097d565b005b3480156102bc575f5ffd5b506102d760048036038101906102d29190611994565b61098b565b6040516102e491906118b8565b60405180910390f35b3480156102f8575f5ffd5b50610313600480360381019061030e9190611994565b61099c565b60405161032091906119fe565b60405180910390f35b348015610334575f5ffd5b5061034f600480360381019061034a9190611af7565b6109ad565b60405161035c9190611a8e565b60405180910390f35b348015610370575f5ffd5b50610379610a41565b6040516103869190611941565b60405180910390f35b34801561039a575f5ffd5b506103b560048036038101906103b09190611a41565b610ad1565b005b3480156103c2575f5ffd5b506103dd60048036038101906103d89190611b4c565b610adf565b005b3480156103ea575f5ffd5b506103f3610be5565b6040516104009190611a8e565b60405180910390f35b610423600480360381019061041e9190611cb6565b610bf3565b005b348015610430575f5ffd5b5061044b60048036038101906104469190611994565b610c44565b6040516104589190611941565b60405180910390f35b34801561046c575f5ffd5b50610475610cbe565b6040516104829190611a8e565b60405180910390f35b348015610496575f5ffd5b506104b160048036038101906104ac9190611d36565b610ccc565b6040516104be91906118b8565b60405180910390f35b3480156104d2575f5ffd5b506104ed60048036038101906104e89190611994565b610d5a565b6040516104fa9190611e24565b60405180910390f35b5f6301ffc9a760e01b827bffffffffffffffffffffffffffffffffffffffffffffffffffffffff1916148061055d57506380ac58cd60e01b827bffffffffffffffffffffffffffffffffffffffffffffffffffffffff1916145b8061058d5750635b5e139f60e01b827bffffffffffffffffffffffffffffffffffffffffffffffffffffffff1916145b9050919050565b6060600280546105a390611e6a565b80601f01602080910402602001604051908101604052809291908181526020018280546105cf90611e6a565b801561061a5780601f106105f15761010080835404028352916020019161061a565b820191905f5260205f20905b8154815290600101906020018083116105fd57829003601f168201915b5050505050905090565b5f61062e82610d72565b6106435761064263cf4700e460e01b610de4565b5b60065f8381526020019081526020015f205f015f9054906101000a900473ffffffffffffffffffffffffffffffffffffffff169050919050565b61068982826001610dec565b5050565b5f610696610f16565b6001545f540303905090565b5f6106ac82610f1d565b905073ffffffffffffffffffffffffffffffffffffffff8473ffffffffffffffffffffffffffffffffffffffff161693508373ffffffffffffffffffffffffffffffffffffffff168173ffffffffffffffffffffffffffffffffffffffff16146107215761072063a114810060e01b610de4565b5b5f5f61072c84610fff565b91509150610742818761073d611022565b611029565b61076d5761075786610752611022565b610ccc565b61076c5761076b6359c896be60e01b610de4565b5b5b61077a868686600161106c565b8015610784575f82555b60055f8773ffffffffffffffffffffffffffffffffffffffff1673ffffffffffffffffffffffffffffffffffffffff1681526020019081526020015f205f8154600190039190508190555060055f8673ffffffffffffffffffffffffffffffffffffffff1673ffffffffffffffffffffffffffffffffffffffff1681526020019081526020015f205f81546001019190508190555061084c85610828888887611072565b7c020000000000000000000000000000000000000000000000000000000017611099565b60045f8681526020019081526020015f20819055505f7c02000000000000000000000000000000000000000000000000000000008416036108c8575f6001850190505f60045f8381526020019081526020015f2054036108c6575f5481146108c5578360045f8381526020019081526020015f20819055505b5b505b5f73ffffffffffffffffffffffffffffffffffffffff8673ffffffffffffffffffffffffffffffffffffffff161690508481887fddf252ad1be2c89b69c2b068fc378daa952ba7f163c4a11628f55a4df523b3ef5f5fa45f81036109375761093663ea553b3460e01b610de4565b5b61094487878760016110c3565b50505050505050565b5f610957826110c9565b9050919050565b61097883838360405180602001604052805f815250610bf3565b505050565b61098881600161111d565b50565b5f61099582610d72565b9050919050565b5f6109a682610f1d565b9050919050565b5f5f73ffffffffffffffffffffffffffffffffffffffff168273ffffffffffffffffffffffffffffffffffffffff16036109f2576109f1638f4eb60460e01b610de4565b5b67ffffffffffffffff60055f8473ffffffffffffffffffffffffffffffffffffffff1673ffffffffffffffffffffffffffffffffffffffff1681526020019081526020015f2054169050919050565b606060038054610a5090611e6a565b80601f0160208091040260200160405190810160405280929190818152602001828054610a7c90611e6a565b8015610ac75780601f10610a9e57610100808354040283529160200191610ac7565b820191905f5260205f20905b815481529060010190602001808311610aaa57829003601f168201915b5050505050905090565b610adb8282611338565b5050565b8060075f610aeb611022565b73ffffffffffffffffffffffffffffffffffffffff1673ffffffffffffffffffffffffffffffffffffffff1681526020019081526020015f205f8473ffffffffffffffffffffffffffffffffffffffff1673ffffffffffffffffffffffffffffffffffffffff1681526020019081526020015f205f6101000a81548160ff0219169083151502179055508173ffffffffffffffffffffffffffffffffffffffff16610b94611022565b73ffffffffffffffffffffffffffffffffffffffff167f17307eab39ab6107e8899845ad3d59bd9653f200f220920489ca2b5937696c3183604051610bd991906118b8565b60405180910390a35050565b5f610bee611355565b905090565b610bfe8484846106a2565b5f8373ffffffffffffffffffffffffffffffffffffffff163b14610c3e57610c2884848484611366565b610c3d57610c3c63d1a57ed660e01b610de4565b5b5b50505050565b6060610c4f82610d72565b610c6457610c6363a14c4b5060e01b610de4565b5b5f610c6d611490565b90505f815103610c8b5760405180602001604052805f815250610cb6565b80610c95846114a6565b604051602001610ca6929190611ed4565b6040516020818303038152906040525b915050919050565b5f610cc76114f5565b905090565b5f60075f8473ffffffffffffffffffffffffffffffffffffffff1673ffffffffffffffffffffffffffffffffffffffff1681526020019081526020015f205f8373ffffffffffffffffffffffffffffffffffffffff1673ffffffffffffffffffffffffffffffffffffffff1681526020019081526020015f205f9054906101000a900460ff16905092915050565b610d626117c2565b610d6b826114fe565b9050919050565b5f81610d7c610f16565b11610ddf575f54821015610dde575f5b5f60045f8581526020019081526020015f205491508103610db85782610db190611f24565b9250610d8c565b5f7c01000000000000000000000000000000000000000000000000000000008216149150505b5b919050565b805f5260045ffd5b5f610df68361099c565b9050818015610e3857508073ffffffffffffffffffffffffffffffffffffffff16610e1f611022565b73ffffffffffffffffffffffffffffffffffffffff1614155b15610e6457610e4e81610e49611022565b610ccc565b610e6357610e6263cfb3b94260e01b610de4565b5b5b8360065f8581526020019081526020015f205f015f6101000a81548173ffffffffffffffffffffffffffffffffffffffff021916908373ffffffffffffffffffffffffffffffffffffffff160217905550828473ffffffffffffffffffffffffffffffffffffffff168273ffffffffffffffffffffffffffffffffffffffff167f8c5be1e5ebec7d5bd14f71427d1e84f3dd0314c0f7b2291e5b200ac8c7c3b92560405160405180910390a450505050565b5f5f905090565b5f81610f27610f16565b11610fe95760045f8381526020019081526020015f205490505f8103610fc1575f548210610f6057610f5f63df2d9b4260e01b610de4565b5b5b60045f836001900393508381526020019081526020015f205490505f810315610fbc575f7c010000000000000000000000000000000000000000000000000000000082160315610ffa57610fbb63df2d9b4260e01b610de4565b5b610f61565b5f7c010000000000000000000000000000000000000000000000000000000082160315610ffa575b610ff963df2d9b4260e01b610de4565b5b919050565b5f5f5f60065f8581526020019081526020015f2090508092508254915050915091565b5f33905090565b5f73ffffffffffffffffffffffffffffffffffffffff8316925073ffffffffffffffffffffffffffffffffffffffff821691508382148383141790509392505050565b50505050565b5f5f60e883901c905060e8611088868684611527565b62ffffff16901b9150509392505050565b5f73ffffffffffffffffffffffffffffffffffffffff83169250814260a01b178317905092915050565b50505050565b5f67ffffffffffffffff608060055f8573ffffffffffffffffffffffffffffffffffffffff1673ffffffffffffffffffffffffffffffffffffffff1681526020019081526020015f2054901c169050919050565b5f61112783610f1d565b90505f8190505f5f61113886610fff565b91509150841561118057611154818461114f611022565b611029565b61117f5761116983611164611022565b610ccc565b61117e5761117d6359c896be60e01b610de4565b5b5b5b61118d835f88600161106c565b8015611197575f82555b600160806001901b0360055f8573ffffffffffffffffffffffffffffffffffffffff1673ffffffffffffffffffffffffffffffffffffffff1681526020019081526020015f205f828254019250508190555061123b836111f8855f88611072565b7c02000000000000000000000000000000000000000000000000000000007c01000000000000000000000000000000000000000000000000000000001717611099565b60045f8881526020019081526020015f20819055505f7c02000000000000000000000000000000000000000000000000000000008516036112b7575f6001870190505f60045f8381526020019081526020015f2054036112b5575f5481146112b4578460045f8381526020019081526020015f20819055505b5b505b855f73ffffffffffffffffffffffffffffffffffffffff168473ffffffffffffffffffffffffffffffffffffffff167fddf252ad1be2c89b69c2b068fc378daa952ba7f163c4a11628f55a4df523b3ef60405160405180910390a461131f835f8860016110c3565b60015f8154809291906001019190505550505050505050565b611351828260405180602001604052805f81525061152f565b5050565b5f61135e610f16565b5f5403905090565b5f8373ffffffffffffffffffffffffffffffffffffffff1663150b7a0261138b611022565b8786866040518563ffffffff1660e01b81526004016113ad9493929190611f9d565b6020604051808303815f875af19250505080156113e857506040513d601f19601f820116820180604052508101906113e59190611ffb565b60015b61143d573d805f8114611416576040519150601f19603f3d011682016040523d82523d5f602084013e61141b565b606091505b505f8151036114355761143463d1a57ed660e01b610de4565b5b805181602001fd5b63150b7a0260e01b7bffffffffffffffffffffffffffffffffffffffffffffffffffffffff1916817bffffffffffffffffffffffffffffffffffffffffffffffffffffffff191614915050949350505050565b606060405180602001604052805f815250905090565b606060a060405101806040526020810391505f825281835b6001156114e057600184039350600a81066030018453600a81049050806114be575b50828103602084039350808452505050919050565b5f600154905090565b6115066117c2565b61152060045f8481526020019081526020015f20546115ae565b9050919050565b5f9392505050565b6115398383611662565b5f8373ffffffffffffffffffffffffffffffffffffffff163b146115a9575f5f5490505f83820390505b6115755f868380600101945086611366565b61158a5761158963d1a57ed660e01b610de4565b5b81811061156357815f54146115a6576115a55f60e01b610de4565b5b50505b505050565b6115b66117c2565b81815f019073ffffffffffffffffffffffffffffffffffffffff16908173ffffffffffffffffffffffffffffffffffffffff168152505060a082901c816020019067ffffffffffffffff16908167ffffffffffffffff16815250505f7c01000000000000000000000000000000000000000000000000000000008316141581604001901515908115158152505060e882901c816060019062ffffff16908162ffffff1681525050919050565b5f5f5490505f820361167f5761167e63b562e8dd60e01b610de4565b5b61168b5f84838561106c565b6116a98361169a5f865f611072565b6116a3856117b3565b17611099565b60045f8381526020019081526020015f2081905550600160406001901b17820260055f8573ffffffffffffffffffffffffffffffffffffffff1673ffffffffffffffffffffffffffffffffffffffff1681526020019081526020015f205f82825401925050819055505f73ffffffffffffffffffffffffffffffffffffffff8473ffffffffffffffffffffffffffffffffffffffff161690505f810361175a57611759632e07630060e01b610de4565b5b5f83830190505f8390505b80835f7fddf252ad1be2c89b69c2b068fc378daa952ba7f163c4a11628f55a4df523b3ef5f5fa481816001019150810361176557815f819055505050506117ae5f8483856110c3565b505050565b5f6001821460e11b9050919050565b60405180608001604052805f73ffffffffffffffffffffffffffffffffffffffff1681526020015f67ffffffffffffffff1681526020015f151581526020015f62ffffff1681525090565b5f604051905090565b5f5ffd5b5f5ffd5b5f7fffffffff0000000000000000000000000000000000000000000000000000000082169050919050565b6118528161181e565b811461185c575f5ffd5b50565b5f8135905061186d81611849565b92915050565b5f6020828403121561188857611887611816565b5b5f6118958482850161185f565b91505092915050565b5f8115159050919050565b6118b28161189e565b82525050565b5f6020820190506118cb5f8301846118a9565b92915050565b5f81519050919050565b5f82825260208201905092915050565b8281835e5f83830152505050565b5f601f19601f8301169050919050565b5f611913826118d1565b61191d81856118db565b935061192d8185602086016118eb565b611936816118f9565b840191505092915050565b5f6020820190508181035f8301526119598184611909565b905092915050565b5f819050919050565b61197381611961565b811461197d575f5ffd5b50565b5f8135905061198e8161196a565b92915050565b5f602082840312156119a9576119a8611816565b5b5f6119b684828501611980565b91505092915050565b5f73ffffffffffffffffffffffffffffffffffffffff82169050919050565b5f6119e8826119bf565b9050919050565b6119f8816119de565b82525050565b5f602082019050611a115f8301846119ef565b92915050565b611a20816119de565b8114611a2a575f5ffd5b50565b5f81359050611a3b81611a17565b92915050565b5f5f60408385031215611a5757611a56611816565b5b5f611a6485828601611a2d565b9250506020611a7585828601611980565b9150509250929050565b611a8881611961565b82525050565b5f602082019050611aa15f830184611a7f565b92915050565b5f5f5f60608486031215611abe57611abd611816565b5b5f611acb86828701611a2d565b9350506020611adc86828701611a2d565b9250506040611aed86828701611980565b9150509250925092565b5f60208284031215611b0c57611b0b611816565b5b5f611b1984828501611a2d565b91505092915050565b611b2b8161189e565b8114611b35575f5ffd5b50565b5f81359050611b4681611b22565b92915050565b5f5f60408385031215611b6257611b61611816565b5b5f611b6f85828601611a2d565b9250506020611b8085828601611b38565b9150509250929050565b5f5ffd5b5f5ffd5b7f4e487b71000000000000000000000000000000000000000000000000000000005f52604160045260245ffd5b611bc8826118f9565b810181811067ffffffffffffffff82111715611be757611be6611b92565b5b80604052505050565b5f611bf961180d565b9050611c058282611bbf565b919050565b5f67ffffffffffffffff821115611c2457611c23611b92565b5b611c2d826118f9565b9050602081019050919050565b828183375f83830152505050565b5f611c5a611c5584611c0a565b611bf0565b905082815260208101848484011115611c7657611c75611b8e565b5b611c81848285611c3a565b509392505050565b5f82601f830112611c9d57611c9c611b8a565b5b8135611cad848260208601611c48565b91505092915050565b5f5f5f5f60808587031215611cce57611ccd611816565b5b5f611cdb87828801611a2d565b9450506020611cec87828801611a2d565b9350506040611cfd87828801611980565b925050606085013567ffffffffffffffff811115611d1e57611d1d61181a565b5b611d2a87828801611c89565b91505092959194509250565b5f5f60408385031215611d4c57611d4b611816565b5b5f611d5985828601611a2d565b9250506020611d6a85828601611a2d565b9150509250929050565b611d7d816119de565b82525050565b5f67ffffffffffffffff82169050919050565b611d9f81611d83565b82525050565b611dae8161189e565b82525050565b5f62ffffff82169050919050565b611dcb81611db4565b82525050565b608082015f820151611de55f850182611d74565b506020820151611df86020850182611d96565b506040820151611e0b6040850182611da5565b506060820151611e1e6060850182611dc2565b50505050565b5f608082019050611e375f830184611dd1565b92915050565b7f4e487b71000000000000000000000000000000000000000000000000000000005f52602260045260245ffd5b5f6002820490506001821680611e8157607f821691505b602082108103611e9457611e93611e3d565b5b50919050565b5f81905092915050565b5f611eae826118d1565b611eb88185611e9a565b9350611ec88185602086016118eb565b80840191505092915050565b5f611edf8285611ea4565b9150611eeb8284611ea4565b91508190509392505050565b7f4e487b71000000000000000000000000000000000000000000000000000000005f52601160045260245ffd5b5f611f2e82611961565b91505f8203611f4057611f3f611ef7565b5b600182039050919050565b5f81519050919050565b5f82825260208201905092915050565b5f611f6f82611f4b565b611f798185611f55565b9350611f898185602086016118eb565b611f92816118f9565b840191505092915050565b5f608082019050611fb05f8301876119ef565b611fbd60208301866119ef565b611fca6040830185611a7f565b8181036060830152611fdc8184611f65565b905095945050505050565b5f81519050611ff581611849565b92915050565b5f602082840312156120105761200f611816565b5b5f61201d84828501611fe7565b9150509291505056fea26469706673582212209aed538364640d606661a04c9f9baaa53979305e1c320963613bc9a7f830127a64736f6c634300081b0033",
			"opcodes": "PUSH1 0x80 PUSH1 0x40 MSTORE CALLVALUE DUP1 ISZERO PUSH2 0xF JUMPI PUSH0 PUSH0 REVERT JUMPDEST POP PUSH1 0x40 MLOAD PUSH2 0x2581 CODESIZE SUB DUP1 PUSH2 0x2581 DUP4 CODECOPY DUP2 DUP2 ADD PUSH1 0x40 MSTORE DUP2 ADD SWAP1 PUSH2 0x31 SWAP2 SWAP1 PUSH2 0x1C3 JUMP JUMPDEST DUP2 DUP2 DUP2 PUSH1 0x2 SWAP1 DUP2 PUSH2 0x42 SWAP2 SWAP1 PUSH2 0x449 JUMP JUMPDEST POP DUP1 PUSH1 0x3 SWAP1 DUP2 PUSH2 0x52 SWAP2 SWAP1 PUSH2 0x449 JUMP JUMPDEST POP PUSH2 0x61 PUSH2 0x6F PUSH1 0x20 SHL PUSH1 0x20 SHR JUMP JUMPDEST PUSH0 DUP2 SWAP1 SSTORE POP POP POP POP POP PUSH2 0x518 JUMP JUMPDEST PUSH0 PUSH0 SWAP1 POP SWAP1 JUMP JUMPDEST PUSH0 PUSH1 0x40 MLOAD SWAP1 POP SWAP1 JUMP JUMPDEST PUSH0 PUSH0 REVERT JUMPDEST PUSH0 PUSH0 REVERT JUMPDEST PUSH0 PUSH0 REVERT JUMPDEST PUSH0 PUSH0 REVERT JUMPDEST PUSH0 PUSH1 0x1F NOT PUSH1 0x1F DUP4 ADD AND SWAP1 POP SWAP2 SWAP1 POP JUMP JUMPDEST PUSH32 0x4E487B7100000000000000000000000000000000000000000000000000000000 PUSH0 MSTORE PUSH1 0x41 PUSH1 0x4 MSTORE PUSH1 0x24 PUSH0 REVERT JUMPDEST PUSH2 0xD5 DUP3 PUSH2 0x8F JUMP JUMPDEST DUP2 ADD DUP2 DUP2 LT PUSH8 0xFFFFFFFFFFFFFFFF DUP3 GT OR ISZERO PUSH2 0xF4 JUMPI PUSH2 0xF3 PUSH2 0x9F JUMP JUMPDEST JUMPDEST DUP1 PUSH1 0x40 MSTORE POP POP POP JUMP JUMPDEST PUSH0 PUSH2 0x106 PUSH2 0x76 JUMP JUMPDEST SWAP1 POP PUSH2 0x112 DUP3 DUP3 PUSH2 0xCC JUMP JUMPDEST SWAP2 SWAP1 POP JUMP JUMPDEST PUSH0 PUSH8 0xFFFFFFFFFFFFFFFF DUP3 GT ISZERO PUSH2 0x131 JUMPI PUSH2 0x130 PUSH2 0x9F JUMP JUMPDEST JUMPDEST PUSH2 0x13A DUP3 PUSH2 0x8F JUMP JUMPDEST SWAP1 POP PUSH1 0x20 DUP2 ADD SWAP1 POP SWAP2 SWAP1 POP JUMP JUMPDEST DUP3 DUP2 DUP4 MCOPY PUSH0 DUP4 DUP4 ADD MSTORE POP POP POP JUMP JUMPDEST PUSH0 PUSH2 0x167 PUSH2 0x162 DUP5 PUSH2 0x117 JUMP JUMPDEST PUSH2 0xFD JUMP JUMPDEST SWAP1 POP DUP3 DUP2 MSTORE PUSH1 0x20 DUP2 ADD DUP5 DUP5 DUP5 ADD GT ISZERO PUSH2 0x183 JUMPI PUSH2 0x182 PUSH2 0x8B JUMP JUMPDEST JUMPDEST PUSH2 0x18E DUP5 DUP3 DUP6 PUSH2 0x147 JUMP JUMPDEST POP SWAP4 SWAP3 POP POP POP JUMP JUMPDEST PUSH0 DUP3 PUSH1 0x1F DUP4 ADD SLT PUSH2 0x1AA JUMPI PUSH2 0x1A9 PUSH2 0x87 JUMP JUMPDEST JUMPDEST DUP2 MLOAD PUSH2 0x1BA DUP5 DUP3 PUSH1 0x20 DUP7 ADD PUSH2 0x155 JUMP JUMPDEST SWAP2 POP POP SWAP3 SWAP2 POP POP JUMP JUMPDEST PUSH0 PUSH0 PUSH1 0x40 DUP4 DUP6 SUB SLT ISZERO PUSH2 0x1D9 JUMPI PUSH2 0x1D8 PUSH2 0x7F JUMP JUMPDEST JUMPDEST PUSH0 DUP4 ADD MLOAD PUSH8 0xFFFFFFFFFFFFFFFF DUP2 GT ISZERO PUSH2 0x1F6 JUMPI PUSH2 0x1F5 PUSH2 0x83 JUMP JUMPDEST JUMPDEST PUSH2 0x202 DUP6 DUP3 DUP7 ADD PUSH2 0x196 JUMP JUMPDEST SWAP3 POP POP PUSH1 0x20 DUP4 ADD MLOAD PUSH8 0xFFFFFFFFFFFFFFFF DUP2 GT ISZERO PUSH2 0x223 JUMPI PUSH2 0x222 PUSH2 0x83 JUMP JUMPDEST JUMPDEST PUSH2 0x22F DUP6 DUP3 DUP7 ADD PUSH2 0x196 JUMP JUMPDEST SWAP2 POP POP SWAP3 POP SWAP3 SWAP1 POP JUMP JUMPDEST PUSH0 DUP2 MLOAD SWAP1 POP SWAP2 SWAP1 POP JUMP JUMPDEST PUSH32 0x4E487B7100000000000000000000000000000000000000000000000000000000 PUSH0 MSTORE PUSH1 0x22 PUSH1 0x4 MSTORE PUSH1 0x24 PUSH0 REVERT JUMPDEST PUSH0 PUSH1 0x2 DUP3 DIV SWAP1 POP PUSH1 0x1 DUP3 AND DUP1 PUSH2 0x287 JUMPI PUSH1 0x7F DUP3 AND SWAP2 POP JUMPDEST PUSH1 0x20 DUP3 LT DUP2 SUB PUSH2 0x29A JUMPI PUSH2 0x299 PUSH2 0x243 JUMP JUMPDEST JUMPDEST POP SWAP2 SWAP1 POP JUMP JUMPDEST PUSH0 DUP2 SWAP1 POP DUP2 PUSH0 MSTORE PUSH1 0x20 PUSH0 KECCAK256 SWAP1 POP SWAP2 SWAP1 POP JUMP JUMPDEST PUSH0 PUSH1 0x20 PUSH1 0x1F DUP4 ADD DIV SWAP1 POP SWAP2 SWAP1 POP JUMP JUMPDEST PUSH0 DUP3 DUP3 SHL SWAP1 POP SWAP3 SWAP2 POP POP JUMP JUMPDEST PUSH0 PUSH1 0x8 DUP4 MUL PUSH2 0x2FC PUSH32 0xFFFFFFFFFFFFFFFFFFFFFFFFFFFFFFFFFFFFFFFFFFFFFFFFFFFFFFFFFFFFFFFF DUP3 PUSH2 0x2C1 JUMP JUMPDEST PUSH2 0x306 DUP7 DUP4 PUSH2 0x2C1 JUMP JUMPDEST SWAP6 POP DUP1 NOT DUP5 AND SWAP4 POP DUP1 DUP7 AND DUP5 OR SWAP3 POP POP POP SWAP4 SWAP3 POP POP POP JUMP JUMPDEST PUSH0 DUP2 SWAP1 POP SWAP2 SWAP1 POP JUMP JUMPDEST PUSH0 DUP2 SWAP1 POP SWAP2 SWAP1 POP JUMP JUMPDEST PUSH0 PUSH2 0x34A PUSH2 0x345 PUSH2 0x340 DUP5 PUSH2 0x31E JUMP JUMPDEST PUSH2 0x327 JUMP JUMPDEST PUSH2 0x31E JUMP JUMPDEST SWAP1 POP SWAP2 SWAP1 POP JUMP JUMPDEST PUSH0 DUP2 SWAP1 POP SWAP2 SWAP1 POP JUMP JUMPDEST PUSH2 0x363 DUP4 PUSH2 0x330 JUMP JUMPDEST PUSH2 0x377 PUSH2 0x36F DUP3 PUSH2 0x351 JUMP JUMPDEST DUP5 DUP5 SLOAD PUSH2 0x2CD JUMP JUMPDEST DUP3 SSTORE POP POP POP POP JUMP JUMPDEST PUSH0 PUSH0 SWAP1 POP SWAP1 JUMP JUMPDEST PUSH2 0x38E PUSH2 0x37F JUMP JUMPDEST PUSH2 0x399 DUP2 DUP5 DUP5 PUSH2 0x35A JUMP JUMPDEST POP POP POP JUMP JUMPDEST JUMPDEST DUP2 DUP2 LT ISZERO PUSH2 0x3BC JUMPI PUSH2 0x3B1 PUSH0 DUP3 PUSH2 0x386 JUMP JUMPDEST PUSH1 0x1 DUP2 ADD SWAP1 POP PUSH2 0x39F JUMP JUMPDEST POP POP JUMP JUMPDEST PUSH1 0x1F DUP3 GT ISZERO PUSH2 0x401 JUMPI PUSH2 0x3D2 DUP2 PUSH2 0x2A0 JUMP JUMPDEST PUSH2 0x3DB DUP5 PUSH2 0x2B2 JUMP JUMPDEST DUP2 ADD PUSH1 0x20 DUP6 LT ISZERO PUSH2 0x3EA JUMPI DUP2 SWAP1 POP JUMPDEST PUSH2 0x3FE PUSH2 0x3F6 DUP6 PUSH2 0x2B2 JUMP JUMPDEST DUP4 ADD DUP3 PUSH2 0x39E JUMP JUMPDEST POP POP JUMPDEST POP POP POP JUMP JUMPDEST PUSH0 DUP3 DUP3 SHR SWAP1 POP SWAP3 SWAP2 POP POP JUMP JUMPDEST PUSH0 PUSH2 0x421 PUSH0 NOT DUP5 PUSH1 0x8 MUL PUSH2 0x406 JUMP JUMPDEST NOT DUP1 DUP4 AND SWAP2 POP POP SWAP3 SWAP2 POP POP JUMP JUMPDEST PUSH0 PUSH2 0x439 DUP4 DUP4 PUSH2 0x412 JUMP JUMPDEST SWAP2 POP DUP3 PUSH1 0x2 MUL DUP3 OR SWAP1 POP SWAP3 SWAP2 POP POP JUMP JUMPDEST PUSH2 0x452 DUP3 PUSH2 0x239 JUMP JUMPDEST PUSH8 0xFFFFFFFFFFFFFFFF DUP2 GT ISZERO PUSH2 0x46B JUMPI PUSH2 0x46A PUSH2 0x9F JUMP JUMPDEST JUMPDEST PUSH2 0x475 DUP3 SLOAD PUSH2 0x270 JUMP JUMPDEST PUSH2 0x480 DUP3 DUP3 DUP6 PUSH2 0x3C0 JUMP JUMPDEST PUSH0 PUSH1 0x20 SWAP1 POP PUSH1 0x1F DUP4 GT PUSH1 0x1 DUP2 EQ PUSH2 0x4B1 JUMPI PUSH0 DUP5 ISZERO PUSH2 0x49F JUMPI DUP3 DUP8 ADD MLOAD SWAP1 POP JUMPDEST PUSH2 0x4A9 DUP6 DUP3 PUSH2 0x42E JUMP JUMPDEST DUP7 SSTORE POP PUSH2 0x510 JUMP JUMPDEST PUSH1 0x1F NOT DUP5 AND PUSH2 0x4BF DUP7 PUSH2 0x2A0 JUMP JUMPDEST PUSH0 JUMPDEST DUP3 DUP2 LT ISZERO PUSH2 0x4E6 JUMPI DUP5 DUP10 ADD MLOAD DUP3 SSTORE PUSH1 0x1 DUP3 ADD SWAP2 POP PUSH1 0x20 DUP6 ADD SWAP5 POP PUSH1 0x20 DUP2 ADD SWAP1 POP PUSH2 0x4C1 JUMP JUMPDEST DUP7 DUP4 LT ISZERO PUSH2 0x503 JUMPI DUP5 DUP10 ADD MLOAD PUSH2 0x4FF PUSH1 0x1F DUP10 AND DUP3 PUSH2 0x412 JUMP JUMPDEST DUP4 SSTORE POP JUMPDEST PUSH1 0x1 PUSH1 0x2 DUP9 MUL ADD DUP9 SSTORE POP POP POP JUMPDEST POP POP POP POP POP POP JUMP JUMPDEST PUSH2 0x205C DUP1 PUSH2 0x525 PUSH0 CODECOPY PUSH0 RETURN INVALID PUSH1 0x80 PUSH1 0x40 MSTORE PUSH1 0x4 CALLDATASIZE LT PUSH2 0x129 JUMPI PUSH0 CALLDATALOAD PUSH1 0xE0 SHR DUP1 PUSH4 0x6352211E GT PUSH2 0xAA JUMPI DUP1 PUSH4 0xA2309FF8 GT PUSH2 0x6E JUMPI DUP1 PUSH4 0xA2309FF8 EQ PUSH2 0x3DF JUMPI DUP1 PUSH4 0xB88D4FDE EQ PUSH2 0x409 JUMPI DUP1 PUSH4 0xC87B56DD EQ PUSH2 0x425 JUMPI DUP1 PUSH4 0xD89135CD EQ PUSH2 0x461 JUMPI DUP1 PUSH4 0xE985E9C5 EQ PUSH2 0x48B JUMPI DUP1 PUSH4 0xF2523633 EQ PUSH2 0x4C7 JUMPI PUSH2 0x129 JUMP JUMPDEST DUP1 PUSH4 0x6352211E EQ PUSH2 0x2ED JUMPI DUP1 PUSH4 0x70A08231 EQ PUSH2 0x329 JUMPI DUP1 PUSH4 0x95D89B41 EQ PUSH2 0x365 JUMPI DUP1 PUSH4 0xA1448194 EQ PUSH2 0x38F JUMPI DUP1 PUSH4 0xA22CB465 EQ PUSH2 0x3B7 JUMPI PUSH2 0x129 JUMP JUMPDEST DUP1 PUSH4 0x23B872DD GT PUSH2 0xF1 JUMPI DUP1 PUSH4 0x23B872DD EQ PUSH2 0x215 JUMPI DUP1 PUSH4 0x2478D639 EQ PUSH2 0x231 JUMPI DUP1 PUSH4 0x42842E0E EQ PUSH2 0x26D JUMPI DUP1 PUSH4 0x42966C68 EQ PUSH2 0x289 JUMPI DUP1 PUSH4 0x4F558E79 EQ PUSH2 0x2B1 JUMPI PUSH2 0x129 JUMP JUMPDEST DUP1 PUSH4 0x1FFC9A7 EQ PUSH2 0x12D JUMPI DUP1 PUSH4 0x6FDDE03 EQ PUSH2 0x169 JUMPI DUP1 PUSH4 0x81812FC EQ PUSH2 0x193 JUMPI DUP1 PUSH4 0x95EA7B3 EQ PUSH2 0x1CF JUMPI DUP1 PUSH4 0x18160DDD EQ PUSH2 0x1EB JUMPI JUMPDEST PUSH0 PUSH0 REVERT JUMPDEST CALLVALUE DUP1 ISZERO PUSH2 0x138 JUMPI PUSH0 PUSH0 REVERT JUMPDEST POP PUSH2 0x153 PUSH1 0x4 DUP1 CALLDATASIZE SUB DUP2 ADD SWAP1 PUSH2 0x14E SWAP2 SWAP1 PUSH2 0x1873 JUMP JUMPDEST PUSH2 0x503 JUMP JUMPDEST PUSH1 0x40 MLOAD PUSH2 0x160 SWAP2 SWAP1 PUSH2 0x18B8 JUMP JUMPDEST PUSH1 0x40 MLOAD DUP1 SWAP2 SUB SWAP1 RETURN JUMPDEST CALLVALUE DUP1 ISZERO PUSH2 0x174 JUMPI PUSH0 PUSH0 REVERT JUMPDEST POP PUSH2 0x17D PUSH2 0x594 JUMP JUMPDEST PUSH1 0x40 MLOAD PUSH2 0x18A SWAP2 SWAP1 PUSH2 0x1941 JUMP JUMPDEST PUSH1 0x40 MLOAD DUP1 SWAP2 SUB SWAP1 RETURN JUMPDEST CALLVALUE DUP1 ISZERO PUSH2 0x19E JUMPI PUSH0 PUSH0 REVERT JUMPDEST POP PUSH2 0x1B9 PUSH1 0x4 DUP1 CALLDATASIZE SUB DUP2 ADD SWAP1 PUSH2 0x1B4 SWAP2 SWAP1 PUSH2 0x1994 JUMP JUMPDEST PUSH2 0x624 JUMP JUMPDEST PUSH1 0x40 MLOAD PUSH2 0x1C6 SWAP2 SWAP1 PUSH2 0x19FE JUMP JUMPDEST PUSH1 0x40 MLOAD DUP1 SWAP2 SUB SWAP1 RETURN JUMPDEST PUSH2 0x1E9 PUSH1 0x4 DUP1 CALLDATASIZE SUB DUP2 ADD SWAP1 PUSH2 0x1E4 SWAP2 SWAP1 PUSH2 0x1A41 JUMP JUMPDEST PUSH2 0x67D JUMP JUMPDEST STOP JUMPDEST CALLVALUE DUP1 ISZERO PUSH2 0x1F6 JUMPI PUSH0 PUSH0 REVERT JUMPDEST POP PUSH2 0x1FF PUSH2 0x68D JUMP JUMPDEST PUSH1 0x40 MLOAD PUSH2 0x20C SWAP2 SWAP1 PUSH2 0x1A8E JUMP JUMPDEST PUSH1 0x40 MLOAD DUP1 SWAP2 SUB SWAP1 RETURN JUMPDEST PUSH2 0x22F PUSH1 0x4 DUP1 CALLDATASIZE SUB DUP2 ADD SWAP1 PUSH2 0x22A SWAP2 SWAP1 PUSH2 0x1AA7 JUMP JUMPDEST PUSH2 0x6A2 JUMP JUMPDEST STOP JUMPDEST CALLVALUE DUP1 ISZERO PUSH2 0x23C JUMPI PUSH0 PUSH0 REVERT JUMPDEST POP PUSH2 0x257 PUSH1 0x4 DUP1 CALLDATASIZE SUB DUP2 ADD SWAP1 PUSH2 0x252 SWAP2 SWAP1 PUSH2 0x1AF7 JUMP JUMPDEST PUSH2 0x94D JUMP JUMPDEST PUSH1 0x40 MLOAD PUSH2 0x264 SWAP2 SWAP1 PUSH2 0x1A8E JUMP JUMPDEST PUSH1 0x40 MLOAD DUP1 SWAP2 SUB SWAP1 RETURN JUMPDEST PUSH2 0x287 PUSH1 0x4 DUP1 CALLDATASIZE SUB DUP2 ADD SWAP1 PUSH2 0x282 SWAP2 SWAP1 PUSH2 0x1AA7 JUMP JUMPDEST PUSH2 0x95E JUMP JUMPDEST STOP JUMPDEST CALLVALUE DUP1 ISZERO PUSH2 0x294 JUMPI PUSH0 PUSH0 REVERT JUMPDEST POP PUSH2 0x2AF PUSH1 0x4 DUP1 CALLDATASIZE SUB DUP2 ADD SWAP1 PUSH2 0x2AA SWAP2 SWAP1 PUSH2 0x1994 JUMP JUMPDEST PUSH2 0x97D JUMP JUMPDEST STOP JUMPDEST CALLVALUE DUP1 ISZERO PUSH2 0x2BC JUMPI PUSH0 PUSH0 REVERT JUMPDEST POP PUSH2 0x2D7 PUSH1 0x4 DUP1 CALLDATASIZE SUB DUP2 ADD SWAP1 PUSH2 0x2D2 SWAP2 SWAP1 PUSH2 0x1994 JUMP JUMPDEST PUSH2 0x98B JUMP JUMPDEST PUSH1 0x40 MLOAD PUSH2 0x2E4 SWAP2 SWAP1 PUSH2 0x18B8 JUMP JUMPDEST PUSH1 0x40 MLOAD DUP1 SWAP2 SUB SWAP1 RETURN JUMPDEST CALLVALUE DUP1 ISZERO PUSH2 0x2F8 JUMPI PUSH0 PUSH0 REVERT JUMPDEST POP PUSH2 0x313 PUSH1 0x4 DUP1 CALLDATASIZE SUB DUP2 ADD SWAP1 PUSH2 0x30E SWAP2 SWAP1 PUSH2 0x1994 JUMP JUMPDEST PUSH2 0x99C JUMP JUMPDEST PUSH1 0x40 MLOAD PUSH2 0x320 SWAP2 SWAP1 PUSH2 0x19FE JUMP JUMPDEST PUSH1 0x40 MLOAD DUP1 SWAP2 SUB SWAP1 RETURN JUMPDEST CALLVALUE DUP1 ISZERO PUSH2 0x334 JUMPI PUSH0 PUSH0 REVERT JUMPDEST POP PUSH2 0x34F PUSH1 0x4 DUP1 CALLDATASIZE SUB DUP2 ADD SWAP1 PUSH2 0x34A SWAP2 SWAP1 PUSH2 0x1AF7 JUMP JUMPDEST PUSH2 0x9AD JUMP JUMPDEST PUSH1 0x40 MLOAD PUSH2 0x35C SWAP2 SWAP1 PUSH2 0x1A8E JUMP JUMPDEST PUSH1 0x40 MLOAD DUP1 SWAP2 SUB SWAP1 RETURN JUMPDEST CALLVALUE DUP1 ISZERO PUSH2 0x370 JUMPI PUSH0 PUSH0 REVERT JUMPDEST POP PUSH2 0x379 PUSH2 0xA41 JUMP JUMPDEST PUSH1 0x40 MLOAD PUSH2 0x386 SWAP2 SWAP1 PUSH2 0x1941 JUMP JUMPDEST PUSH1 0x40 MLOAD DUP1 SWAP2 SUB SWAP1 RETURN JUMPDEST CALLVALUE DUP1 ISZERO PUSH2 0x39A JUMPI PUSH0 PUSH0 REVERT JUMPDEST POP PUSH2 0x3B5 PUSH1 0x4 DUP1 CALLDATASIZE SUB DUP2 ADD SWAP1 PUSH2 0x3B0 SWAP2 SWAP1 PUSH2 0x1A41 JUMP JUMPDEST PUSH2 0xAD1 JUMP JUMPDEST STOP JUMPDEST CALLVALUE DUP1 ISZERO PUSH2 0x3C2 JUMPI PUSH0 PUSH0 REVERT JUMPDEST POP PUSH2 0x3DD PUSH1 0x4 DUP1 CALLDATASIZE SUB DUP2 ADD SWAP1 PUSH2 0x3D8 SWAP2 SWAP1 PUSH2 0x1B4C JUMP JUMPDEST PUSH2 0xADF JUMP JUMPDEST STOP JUMPDEST CALLVALUE DUP1 ISZERO PUSH2 0x3EA JUMPI PUSH0 PUSH0 REVERT JUMPDEST POP PUSH2 0x3F3 PUSH2 0xBE5 JUMP JUMPDEST PUSH1 0x40 MLOAD PUSH2 0x400 SWAP2 SWAP1 PUSH2 0x1A8E JUMP JUMPDEST PUSH1 0x40 MLOAD DUP1 SWAP2 SUB SWAP1 RETURN JUMPDEST PUSH2 0x423 PUSH1 0x4 DUP1 CALLDATASIZE SUB DUP2 ADD SWAP1 PUSH2 0x41E SWAP2 SWAP1 PUSH2 0x1CB6 JUMP JUMPDEST PUSH2 0xBF3 JUMP JUMPDEST STOP JUMPDEST CALLVALUE DUP1 ISZERO PUSH2 0x430 JUMPI PUSH0 PUSH0 REVERT JUMPDEST POP PUSH2 0x44B PUSH1 0x4 DUP1 CALLDATASIZE SUB DUP2 ADD SWAP1 PUSH2 0x446 SWAP2 SWAP1 PUSH2 0x1994 JUMP JUMPDEST PUSH2 0xC44 JUMP JUMPDEST PUSH1 0x40 MLOAD PUSH2 0x458 SWAP2 SWAP1 PUSH2 0x1941 JUMP JUMPDEST PUSH1 0x40 MLOAD DUP1 SWAP2 SUB SWAP1 RETURN JUMPDEST CALLVALUE DUP1 ISZERO PUSH2 0x46C JUMPI PUSH0 PUSH0 REVERT JUMPDEST POP PUSH2 0x475 PUSH2 0xCBE JUMP JUMPDEST PUSH1 0x40 MLOAD PUSH2 0x482 SWAP2 SWAP1 PUSH2 0x1A8E JUMP JUMPDEST PUSH1 0x40 MLOAD DUP1 SWAP2 SUB SWAP1 RETURN JUMPDEST CALLVALUE DUP1 ISZERO PUSH2 0x496 JUMPI PUSH0 PUSH0 REVERT JUMPDEST POP PUSH2 0x4B1 PUSH1 0x4 DUP1 CALLDATASIZE SUB DUP2 ADD SWAP1 PUSH2 0x4AC SWAP2 SWAP1 PUSH2 0x1D36 JUMP JUMPDEST PUSH2 0xCCC JUMP JUMPDEST PUSH1 0x40 MLOAD PUSH2 0x4BE SWAP2 SWAP1 PUSH2 0x18B8 JUMP JUMPDEST PUSH1 0x40 MLOAD DUP1 SWAP2 SUB SWAP1 RETURN JUMPDEST CALLVALUE DUP1 ISZERO PUSH2 0x4D2 JUMPI PUSH0 PUSH0 REVERT JUMPDEST POP PUSH2 0x4ED PUSH1 0x4 DUP1 CALLDATASIZE SUB DUP2 ADD SWAP1 PUSH2 0x4E8 SWAP2 SWAP1 PUSH2 0x1994 JUMP JUMPDEST PUSH2 0xD5A JUMP JUMPDEST PUSH1 0x40 MLOAD PUSH2 0x4FA SWAP2 SWAP1 PUSH2 0x1E24 JUMP JUMPDEST PUSH1 0x40 MLOAD DUP1 SWAP2 SUB SWAP1 RETURN JUMPDEST PUSH0 PUSH4 0x1FFC9A7 PUSH1 0xE0 SHL DUP3 PUSH28 0xFFFFFFFFFFFFFFFFFFFFFFFFFFFFFFFFFFFFFFFFFFFFFFFFFFFFFFFF NOT AND EQ DUP1 PUSH2 0x55D JUMPI POP PUSH4 0x80AC58CD PUSH1 0xE0 SHL DUP3 PUSH28 0xFFFFFFFFFFFFFFFFFFFFFFFFFFFFFFFFFFFFFFFFFFFFFFFFFFFFFFFF NOT AND EQ JUMPDEST DUP1 PUSH2 0x58D JUMPI POP PUSH4 0x5B5E139F PUSH1 0xE0 SHL DUP3 PUSH28 0xFFFFFFFFFFFFFFFFFFFFFFFFFFFFFFFFFFFFFFFFFFFFFFFFFFFFFFFF NOT AND EQ JUMPDEST SWAP1 POP SWAP2 SWAP1 POP JUMP JUMPDEST PUSH1 0x60 PUSH1 0x2 DUP1 SLOAD PUSH2 0x5A3 SWAP1 PUSH2 0x1E6A JUMP JUMPDEST DUP1 PUSH1 0x1F ADD PUSH1 0x20 DUP1 SWAP2 DIV MUL PUSH1 0x20 ADD PUSH1 0x40 MLOAD SWAP1 DUP2 ADD PUSH1 0x40 MSTORE DUP1 SWAP3 SWAP2 SWAP1 DUP2 DUP2 MSTORE PUSH1 0x20 ADD DUP3 DUP1 SLOAD PUSH2 0x5CF SWAP1 PUSH2 0x1E6A JUMP JUMPDEST DUP1 ISZERO PUSH2 0x61A JUMPI DUP1 PUSH1 0x1F LT PUSH2 0x5F1 JUMPI PUSH2 0x100 DUP1 DUP4 SLOAD DIV MUL DUP4 MSTORE SWAP2 PUSH1 0x20 ADD SWAP2 PUSH2 0x61A JUMP JUMPDEST DUP3 ADD SWAP2 SWAP1 PUSH0 MSTORE PUSH1 0x20 PUSH0 KECCAK256 SWAP1 JUMPDEST DUP2 SLOAD DUP2 MSTORE SWAP1 PUSH1 0x1 ADD SWAP1 PUSH1 0x20 ADD DUP1 DUP4 GT PUSH2 0x5FD JUMPI DUP3 SWAP1 SUB PUSH1 0x1F AND DUP3 ADD SWAP2 JUMPDEST POP POP POP POP POP SWAP1 POP SWAP1 JUMP JUMPDEST PUSH0 PUSH2 0x62E DUP3 PUSH2 0xD72 JUMP JUMPDEST PUSH2 0x643 JUMPI PUSH2 0x642 PUSH4 0xCF4700E4 PUSH1 0xE0 SHL PUSH2 0xDE4 JUMP JUMPDEST JUMPDEST PUSH1 0x6 PUSH0 DUP4 DUP2 MSTORE PUSH1 0x20 ADD SWAP1 DUP2 MSTORE PUSH1 0x20 ADD PUSH0 KECCAK256 PUSH0 ADD PUSH0 SWAP1 SLOAD SWAP1 PUSH2 0x100 EXP SWAP1 DIV PUSH20 0xFFFFFFFFFFFFFFFFFFFFFFFFFFFFFFFFFFFFFFFF AND SWAP1 POP SWAP2 SWAP1 POP JUMP JUMPDEST PUSH2 0x689 DUP3 DUP3 PUSH1 0x1 PUSH2 0xDEC JUMP JUMPDEST POP POP JUMP JUMPDEST PUSH0 PUSH2 0x696 PUSH2 0xF16 JUMP JUMPDEST PUSH1 0x1 SLOAD PUSH0 SLOAD SUB SUB SWAP1 POP SWAP1 JUMP JUMPDEST PUSH0 PUSH2 0x6AC DUP3 PUSH2 0xF1D JUMP JUMPDEST SWAP1 POP PUSH20 0xFFFFFFFFFFFFFFFFFFFFFFFFFFFFFFFFFFFFFFFF DUP5 PUSH20 0xFFFFFFFFFFFFFFFFFFFFFFFFFFFFFFFFFFFFFFFF AND AND SWAP4 POP DUP4 PUSH20 0xFFFFFFFFFFFFFFFFFFFFFFFFFFFFFFFFFFFFFFFF AND DUP2 PUSH20 0xFFFFFFFFFFFFFFFFFFFFFFFFFFFFFFFFFFFFFFFF AND EQ PUSH2 0x721 JUMPI PUSH2 0x720 PUSH4 0xA1148100 PUSH1 0xE0 SHL PUSH2 0xDE4 JUMP JUMPDEST JUMPDEST PUSH0 PUSH0 PUSH2 0x72C DUP5 PUSH2 0xFFF JUMP JUMPDEST SWAP2 POP SWAP2 POP PUSH2 0x742 DUP2 DUP8 PUSH2 0x73D PUSH2 0x1022 JUMP JUMPDEST PUSH2 0x1029 JUMP JUMPDEST PUSH2 0x76D JUMPI PUSH2 0x757 DUP7 PUSH2 0x752 PUSH2 0x1022 JUMP JUMPDEST PUSH2 0xCCC JUMP JUMPDEST PUSH2 0x76C JUMPI PUSH2 0x76B PUSH4 0x59C896BE PUSH1 0xE0 SHL PUSH2 0xDE4 JUMP JUMPDEST JUMPDEST JUMPDEST PUSH2 0x77A DUP7 DUP7 DUP7 PUSH1 0x1 PUSH2 0x106C JUMP JUMPDEST DUP1 ISZERO PUSH2 0x784 JUMPI PUSH0 DUP3 SSTORE JUMPDEST PUSH1 0x5 PUSH0 DUP8 PUSH20 0xFFFFFFFFFFFFFFFFFFFFFFFFFFFFFFFFFFFFFFFF AND PUSH20 0xFFFFFFFFFFFFFFFFFFFFFFFFFFFFFFFFFFFFFFFF AND DUP2 MSTORE PUSH1 0x20 ADD SWAP1 DUP2 MSTORE PUSH1 0x20 ADD PUSH0 KECCAK256 PUSH0 DUP2 SLOAD PUSH1 0x1 SWAP1 SUB SWAP2 SWAP1 POP DUP2 SWAP1 SSTORE POP PUSH1 0x5 PUSH0 DUP7 PUSH20 0xFFFFFFFFFFFFFFFFFFFFFFFFFFFFFFFFFFFFFFFF AND PUSH20 0xFFFFFFFFFFFFFFFFFFFFFFFFFFFFFFFFFFFFFFFF AND DUP2 MSTORE PUSH1 0x20 ADD SWAP1 DUP2 MSTORE PUSH1 0x20 ADD PUSH0 KECCAK256 PUSH0 DUP2 SLOAD PUSH1 0x1 ADD SWAP2 SWAP1 POP DUP2 SWAP1 SSTORE POP PUSH2 0x84C DUP6 PUSH2 0x828 DUP9 DUP9 DUP8 PUSH2 0x1072 JUMP JUMPDEST PUSH29 0x200000000000000000000000000000000000000000000000000000000 OR PUSH2 0x1099 JUMP JUMPDEST PUSH1 0x4 PUSH0 DUP7 DUP2 MSTORE PUSH1 0x20 ADD SWAP1 DUP2 MSTORE PUSH1 0x20 ADD PUSH0 KECCAK256 DUP2 SWAP1 SSTORE POP PUSH0 PUSH29 0x200000000000000000000000000000000000000000000000000000000 DUP5 AND SUB PUSH2 0x8C8 JUMPI PUSH0 PUSH1 0x1 DUP6 ADD SWAP1 POP PUSH0 PUSH1 0x4 PUSH0 DUP4 DUP2 MSTORE PUSH1 0x20 ADD SWAP1 DUP2 MSTORE PUSH1 0x20 ADD PUSH0 KECCAK256 SLOAD SUB PUSH2 0x8C6 JUMPI PUSH0 SLOAD DUP2 EQ PUSH2 0x8C5 JUMPI DUP4 PUSH1 0x4 PUSH0 DUP4 DUP2 MSTORE PUSH1 0x20 ADD SWAP1 DUP2 MSTORE PUSH1 0x20 ADD PUSH0 KECCAK256 DUP2 SWAP1 SSTORE POP JUMPDEST JUMPDEST POP JUMPDEST PUSH0 PUSH20 0xFFFFFFFFFFFFFFFFFFFFFFFFFFFFFFFFFFFFFFFF DUP7 PUSH20 0xFFFFFFFFFFFFFFFFFFFFFFFFFFFFFFFFFFFFFFFF AND AND SWAP1 POP DUP5 DUP2 DUP9 PUSH32 0xDDF252AD1BE2C89B69C2B068FC378DAA952BA7F163C4A11628F55A4DF523B3EF PUSH0 PUSH0 LOG4 PUSH0 DUP2 SUB PUSH2 0x937 JUMPI PUSH2 0x936 PUSH4 0xEA553B34 PUSH1 0xE0 SHL PUSH2 0xDE4 JUMP JUMPDEST JUMPDEST PUSH2 0x944 DUP8 DUP8 DUP8 PUSH1 0x1 PUSH2 0x10C3 JUMP JUMPDEST POP POP POP POP POP POP POP JUMP JUMPDEST PUSH0 PUSH2 0x957 DUP3 PUSH2 0x10C9 JUMP JUMPDEST SWAP1 POP SWAP2 SWAP1 POP JUMP JUMPDEST PUSH2 0x978 DUP4 DUP4 DUP4 PUSH1 0x40 MLOAD DUP1 PUSH1 0x20 ADD PUSH1 0x40 MSTORE DUP1 PUSH0 DUP2 MSTORE POP PUSH2 0xBF3 JUMP JUMPDEST POP POP POP JUMP JUMPDEST PUSH2 0x988 DUP2 PUSH1 0x1 PUSH2 0x111D JUMP JUMPDEST POP JUMP JUMPDEST PUSH0 PUSH2 0x995 DUP3 PUSH2 0xD72 JUMP JUMPDEST SWAP1 POP SWAP2 SWAP1 POP JUMP JUMPDEST PUSH0 PUSH2 0x9A6 DUP3 PUSH2 0xF1D JUMP JUMPDEST SWAP1 POP SWAP2 SWAP1 POP JUMP JUMPDEST PUSH0 PUSH0 PUSH20 0xFFFFFFFFFFFFFFFFFFFFFFFFFFFFFFFFFFFFFFFF AND DUP3 PUSH20 0xFFFFFFFFFFFFFFFFFFFFFFFFFFFFFFFFFFFFFFFF AND SUB PUSH2 0x9F2 JUMPI PUSH2 0x9F1 PUSH4 0x8F4EB604 PUSH1 0xE0 SHL PUSH2 0xDE4 JUMP JUMPDEST JUMPDEST PUSH8 0xFFFFFFFFFFFFFFFF PUSH1 0x5 PUSH0 DUP5 PUSH20 0xFFFFFFFFFFFFFFFFFFFFFFFFFFFFFFFFFFFFFFFF AND PUSH20 0xFFFFFFFFFFFFFFFFFFFFFFFFFFFFFFFFFFFFFFFF AND DUP2 MSTORE PUSH1 0x20 ADD SWAP1 DUP2 MSTORE PUSH1 0x20 ADD PUSH0 KECCAK256 SLOAD AND SWAP1 POP SWAP2 SWAP1 POP JUMP JUMPDEST PUSH1 0x60 PUSH1 0x3 DUP1 SLOAD PUSH2 0xA50 SWAP1 PUSH2 0x1E6A JUMP JUMPDEST DUP1 PUSH1 0x1F ADD PUSH1 0x20 DUP1 SWAP2 DIV MUL PUSH1 0x20 ADD PUSH1 0x40 MLOAD SWAP1 DUP2 ADD PUSH1 0x40 MSTORE DUP1 SWAP3 SWAP2 SWAP1 DUP2 DUP2 MSTORE PUSH1 0x20 ADD DUP3 DUP1 SLOAD PUSH2 0xA7C SWAP1 PUSH2 0x1E6A JUMP JUMPDEST DUP1 ISZERO PUSH2 0xAC7 JUMPI DUP1 PUSH1 0x1F LT PUSH2 0xA9E JUMPI PUSH2 0x100 DUP1 DUP4 SLOAD DIV MUL DUP4 MSTORE SWAP2 PUSH1 0x20 ADD SWAP2 PUSH2 0xAC7 JUMP JUMPDEST DUP3 ADD SWAP2 SWAP1 PUSH0 MSTORE PUSH1 0x20 PUSH0 KECCAK256 SWAP1 JUMPDEST DUP2 SLOAD DUP2 MSTORE SWAP1 PUSH1 0x1 ADD SWAP1 PUSH1 0x20 ADD DUP1 DUP4 GT PUSH2 0xAAA JUMPI DUP3 SWAP1 SUB PUSH1 0x1F AND DUP3 ADD SWAP2 JUMPDEST POP POP POP POP POP SWAP1 POP SWAP1 JUMP JUMPDEST PUSH2 0xADB DUP3 DUP3 PUSH2 0x1338 JUMP JUMPDEST POP POP JUMP JUMPDEST DUP1 PUSH1 0x7 PUSH0 PUSH2 0xAEB PUSH2 0x1022 JUMP JUMPDEST PUSH20 0xFFFFFFFFFFFFFFFFFFFFFFFFFFFFFFFFFFFFFFFF AND PUSH20 0xFFFFFFFFFFFFFFFFFFFFFFFFFFFFFFFFFFFFFFFF AND DUP2 MSTORE PUSH1 0x20 ADD SWAP1 DUP2 MSTORE PUSH1 0x20 ADD PUSH0 KECCAK256 PUSH0 DUP5 PUSH20 0xFFFFFFFFFFFFFFFFFFFFFFFFFFFFFFFFFFFFFFFF AND PUSH20 0xFFFFFFFFFFFFFFFFFFFFFFFFFFFFFFFFFFFFFFFF AND DUP2 MSTORE PUSH1 0x20 ADD SWAP1 DUP2 MSTORE PUSH1 0x20 ADD PUSH0 KECCAK256 PUSH0 PUSH2 0x100 EXP DUP2 SLOAD DUP2 PUSH1 0xFF MUL NOT AND SWAP1 DUP4 ISZERO ISZERO MUL OR SWAP1 SSTORE POP DUP2 PUSH20 0xFFFFFFFFFFFFFFFFFFFFFFFFFFFFFFFFFFFFFFFF AND PUSH2 0xB94 PUSH2 0x1022 JUMP JUMPDEST PUSH20 0xFFFFFFFFFFFFFFFFFFFFFFFFFFFFFFFFFFFFFFFF AND PUSH32 0x17307EAB39AB6107E8899845AD3D59BD9653F200F220920489CA2B5937696C31 DUP4 PUSH1 0x40 MLOAD PUSH2 0xBD9 SWAP2 SWAP1 PUSH2 0x18B8 JUMP JUMPDEST PUSH1 0x40 MLOAD DUP1 SWAP2 SUB SWAP1 LOG3 POP POP JUMP JUMPDEST PUSH0 PUSH2 0xBEE PUSH2 0x1355 JUMP JUMPDEST SWAP1 POP SWAP1 JUMP JUMPDEST PUSH2 0xBFE DUP5 DUP5 DUP5 PUSH2 0x6A2 JUMP JUMPDEST PUSH0 DUP4 PUSH20 0xFFFFFFFFFFFFFFFFFFFFFFFFFFFFFFFFFFFFFFFF AND EXTCODESIZE EQ PUSH2 0xC3E JUMPI PUSH2 0xC28 DUP5 DUP5 DUP5 DUP5 PUSH2 0x1366 JUMP JUMPDEST PUSH2 0xC3D JUMPI PUSH2 0xC3C PUSH4 0xD1A57ED6 PUSH1 0xE0 SHL PUSH2 0xDE4 JUMP JUMPDEST JUMPDEST JUMPDEST POP POP POP POP JUMP JUMPDEST PUSH1 0x60 PUSH2 0xC4F DUP3 PUSH2 0xD72 JUMP JUMPDEST PUSH2 0xC64 JUMPI PUSH2 0xC63 PUSH4 0xA14C4B50 PUSH1 0xE0 SHL PUSH2 0xDE4 JUMP JUMPDEST JUMPDEST PUSH0 PUSH2 0xC6D PUSH2 0x1490 JUMP JUMPDEST SWAP1 POP PUSH0 DUP2 MLOAD SUB PUSH2 0xC8B JUMPI PUSH1 0x40 MLOAD DUP1 PUSH1 0x20 ADD PUSH1 0x40 MSTORE DUP1 PUSH0 DUP2 MSTORE POP PUSH2 0xCB6 JUMP JUMPDEST DUP1 PUSH2 0xC95 DUP5 PUSH2 0x14A6 JUMP JUMPDEST PUSH1 0x40 MLOAD PUSH1 0x20 ADD PUSH2 0xCA6 SWAP3 SWAP2 SWAP1 PUSH2 0x1ED4 JUMP JUMPDEST PUSH1 0x40 MLOAD PUSH1 0x20 DUP2 DUP4 SUB SUB DUP2 MSTORE SWAP1 PUSH1 0x40 MSTORE JUMPDEST SWAP2 POP POP SWAP2 SWAP1 POP JUMP JUMPDEST PUSH0 PUSH2 0xCC7 PUSH2 0x14F5 JUMP JUMPDEST SWAP1 POP SWAP1 JUMP JUMPDEST PUSH0 PUSH1 0x7 PUSH0 DUP5 PUSH20 0xFFFFFFFFFFFFFFFFFFFFFFFFFFFFFFFFFFFFFFFF AND PUSH20 0xFFFFFFFFFFFFFFFFFFFFFFFFFFFFFFFFFFFFFFFF AND DUP2 MSTORE PUSH1 0x20 ADD SWAP1 DUP2 MSTORE PUSH1 0x20 ADD PUSH0 KECCAK256 PUSH0 DUP4 PUSH20 0xFFFFFFFFFFFFFFFFFFFFFFFFFFFFFFFFFFFFFFFF AND PUSH20 0xFFFFFFFFFFFFFFFFFFFFFFFFFFFFFFFFFFFFFFFF AND DUP2 MSTORE PUSH1 0x20 ADD SWAP1 DUP2 MSTORE PUSH1 0x20 ADD PUSH0 KECCAK256 PUSH0 SWAP1 SLOAD SWAP1 PUSH2 0x100 EXP SWAP1 DIV PUSH1 0xFF AND SWAP1 POP SWAP3 SWAP2 POP POP JUMP JUMPDEST PUSH2 0xD62 PUSH2 0x17C2 JUMP JUMPDEST PUSH2 0xD6B DUP3 PUSH2 0x14FE JUMP JUMPDEST SWAP1 POP SWAP2 SWAP1 POP JUMP JUMPDEST PUSH0 DUP2 PUSH2 0xD7C PUSH2 0xF16 JUMP JUMPDEST GT PUSH2 0xDDF JUMPI PUSH0 SLOAD DUP3 LT ISZERO PUSH2 0xDDE JUMPI PUSH0 JUMPDEST PUSH0 PUSH1 0x4 PUSH0 DUP6 DUP2 MSTORE PUSH1 0x20 ADD SWAP1 DUP2 MSTORE PUSH1 0x20 ADD PUSH0 KECCAK256 SLOAD SWAP2 POP DUP2 SUB PUSH2 0xDB8 JUMPI DUP3 PUSH2 0xDB1 SWAP1 PUSH2 0x1F24 JUMP JUMPDEST SWAP3 POP PUSH2 0xD8C JUMP JUMPDEST PUSH0 PUSH29 0x100000000000000000000000000000000000000000000000000000000 DUP3 AND EQ SWAP2 POP POP JUMPDEST JUMPDEST SWAP2 SWAP1 POP JUMP JUMPDEST DUP1 PUSH0 MSTORE PUSH1 0x4 PUSH0 REVERT JUMPDEST PUSH0 PUSH2 0xDF6 DUP4 PUSH2 0x99C JUMP JUMPDEST SWAP1 POP DUP2 DUP1 ISZERO PUSH2 0xE38 JUMPI POP DUP1 PUSH20 0xFFFFFFFFFFFFFFFFFFFFFFFFFFFFFFFFFFFFFFFF AND PUSH2 0xE1F PUSH2 0x1022 JUMP JUMPDEST PUSH20 0xFFFFFFFFFFFFFFFFFFFFFFFFFFFFFFFFFFFFFFFF AND EQ ISZERO JUMPDEST ISZERO PUSH2 0xE64 JUMPI PUSH2 0xE4E DUP2 PUSH2 0xE49 PUSH2 0x1022 JUMP JUMPDEST PUSH2 0xCCC JUMP JUMPDEST PUSH2 0xE63 JUMPI PUSH2 0xE62 PUSH4 0xCFB3B942 PUSH1 0xE0 SHL PUSH2 0xDE4 JUMP JUMPDEST JUMPDEST JUMPDEST DUP4 PUSH1 0x6 PUSH0 DUP6 DUP2 MSTORE PUSH1 0x20 ADD SWAP1 DUP2 MSTORE PUSH1 0x20 ADD PUSH0 KECCAK256 PUSH0 ADD PUSH0 PUSH2 0x100 EXP DUP2 SLOAD DUP2 PUSH20 0xFFFFFFFFFFFFFFFFFFFFFFFFFFFFFFFFFFFFFFFF MUL NOT AND SWAP1 DUP4 PUSH20 0xFFFFFFFFFFFFFFFFFFFFFFFFFFFFFFFFFFFFFFFF AND MUL OR SWAP1 SSTORE POP DUP3 DUP5 PUSH20 0xFFFFFFFFFFFFFFFFFFFFFFFFFFFFFFFFFFFFFFFF AND DUP3 PUSH20 0xFFFFFFFFFFFFFFFFFFFFFFFFFFFFFFFFFFFFFFFF AND PUSH32 0x8C5BE1E5EBEC7D5BD14F71427D1E84F3DD0314C0F7B2291E5B200AC8C7C3B925 PUSH1 0x40 MLOAD PUSH1 0x40 MLOAD DUP1 SWAP2 SUB SWAP1 LOG4 POP POP POP POP JUMP JUMPDEST PUSH0 PUSH0 SWAP1 POP SWAP1 JUMP JUMPDEST PUSH0 DUP2 PUSH2 0xF27 PUSH2 0xF16 JUMP JUMPDEST GT PUSH2 0xFE9 JUMPI PUSH1 0x4 PUSH0 DUP4 DUP2 MSTORE PUSH1 0x20 ADD SWAP1 DUP2 MSTORE PUSH1 0x20 ADD PUSH0 KECCAK256 SLOAD SWAP1 POP PUSH0 DUP2 SUB PUSH2 0xFC1 JUMPI PUSH0 SLOAD DUP3 LT PUSH2 0xF60 JUMPI PUSH2 0xF5F PUSH4 0xDF2D9B42 PUSH1 0xE0 SHL PUSH2 0xDE4 JUMP JUMPDEST JUMPDEST JUMPDEST PUSH1 0x4 PUSH0 DUP4 PUSH1 0x1 SWAP1 SUB SWAP4 POP DUP4 DUP2 MSTORE PUSH1 0x20 ADD SWAP1 DUP2 MSTORE PUSH1 0x20 ADD PUSH0 KECCAK256 SLOAD SWAP1 POP PUSH0 DUP2 SUB ISZERO PUSH2 0xFBC JUMPI PUSH0 PUSH29 0x100000000000000000000000000000000000000000000000000000000 DUP3 AND SUB ISZERO PUSH2 0xFFA JUMPI PUSH2 0xFBB PUSH4 0xDF2D9B42 PUSH1 0xE0 SHL PUSH2 0xDE4 JUMP JUMPDEST JUMPDEST PUSH2 0xF61 JUMP JUMPDEST PUSH0 PUSH29 0x100000000000000000000000000000000000000000000000000000000 DUP3 AND SUB ISZERO PUSH2 0xFFA JUMPI JUMPDEST PUSH2 0xFF9 PUSH4 0xDF2D9B42 PUSH1 0xE0 SHL PUSH2 0xDE4 JUMP JUMPDEST JUMPDEST SWAP2 SWAP1 POP JUMP JUMPDEST PUSH0 PUSH0 PUSH0 PUSH1 0x6 PUSH0 DUP6 DUP2 MSTORE PUSH1 0x20 ADD SWAP1 DUP2 MSTORE PUSH1 0x20 ADD PUSH0 KECCAK256 SWAP1 POP DUP1 SWAP3 POP DUP3 SLOAD SWAP2 POP POP SWAP2 POP SWAP2 JUMP JUMPDEST PUSH0 CALLER SWAP1 POP SWAP1 JUMP JUMPDEST PUSH0 PUSH20 0xFFFFFFFFFFFFFFFFFFFFFFFFFFFFFFFFFFFFFFFF DUP4 AND SWAP3 POP PUSH20 0xFFFFFFFFFFFFFFFFFFFFFFFFFFFFFFFFFFFFFFFF DUP3 AND SWAP2 POP DUP4 DUP3 EQ DUP4 DUP4 EQ OR SWAP1 POP SWAP4 SWAP3 POP POP POP JUMP JUMPDEST POP POP POP POP JUMP JUMPDEST PUSH0 PUSH0 PUSH1 0xE8 DUP4 SWAP1 SHR SWAP1 POP PUSH1 0xE8 PUSH2 0x1088 DUP7 DUP7 DUP5 PUSH2 0x1527 JUMP JUMPDEST PUSH3 0xFFFFFF AND SWAP1 SHL SWAP2 POP POP SWAP4 SWAP3 POP POP POP JUMP JUMPDEST PUSH0 PUSH20 0xFFFFFFFFFFFFFFFFFFFFFFFFFFFFFFFFFFFFFFFF DUP4 AND SWAP3 POP DUP2 TIMESTAMP PUSH1 0xA0 SHL OR DUP4 OR SWAP1 POP SWAP3 SWAP2 POP POP JUMP JUMPDEST POP POP POP POP JUMP JUMPDEST PUSH0 PUSH8 0xFFFFFFFFFFFFFFFF PUSH1 0x80 PUSH1 0x5 PUSH0 DUP6 PUSH20 0xFFFFFFFFFFFFFFFFFFFFFFFFFFFFFFFFFFFFFFFF AND PUSH20 0xFFFFFFFFFFFFFFFFFFFFFFFFFFFFFFFFFFFFFFFF AND DUP2 MSTORE PUSH1 0x20 ADD SWAP1 DUP2 MSTORE PUSH1 0x20 ADD PUSH0 KECCAK256 SLOAD SWAP1 SHR AND SWAP1 POP SWAP2 SWAP1 POP JUMP JUMPDEST PUSH0 PUSH2 0x1127 DUP4 PUSH2 0xF1D JUMP JUMPDEST SWAP1 POP PUSH0 DUP2 SWAP1 POP PUSH0 PUSH0 PUSH2 0x1138 DUP7 PUSH2 0xFFF JUMP JUMPDEST SWAP2 POP SWAP2 POP DUP5 ISZERO PUSH2 0x1180 JUMPI PUSH2 0x1154 DUP2 DUP5 PUSH2 0x114F PUSH2 0x1022 JUMP JUMPDEST PUSH2 0x1029 JUMP JUMPDEST PUSH2 0x117F JUMPI PUSH2 0x1169 DUP4 PUSH2 0x1164 PUSH2 0x1022 JUMP JUMPDEST PUSH2 0xCCC JUMP JUMPDEST PUSH2 0x117E JUMPI PUSH2 0x117D PUSH4 0x59C896BE PUSH1 0xE0 SHL PUSH2 0xDE4 JUMP JUMPDEST JUMPDEST JUMPDEST JUMPDEST PUSH2 0x118D DUP4 PUSH0 DUP9 PUSH1 0x1 PUSH2 0x106C JUMP JUMPDEST DUP1 ISZERO PUSH2 0x1197 JUMPI PUSH0 DUP3 SSTORE JUMPDEST PUSH1 0x1 PUSH1 0x80 PUSH1 0x1 SWAP1 SHL SUB PUSH1 0x5 PUSH0 DUP6 PUSH20 0xFFFFFFFFFFFFFFFFFFFFFFFFFFFFFFFFFFFFFFFF AND PUSH20 0xFFFFFFFFFFFFFFFFFFFFFFFFFFFFFFFFFFFFFFFF AND DUP2 MSTORE PUSH1 0x20 ADD SWAP1 DUP2 MSTORE PUSH1 0x20 ADD PUSH0 KECCAK256 PUSH0 DUP3 DUP3 SLOAD ADD SWAP3 POP POP DUP2 SWAP1 SSTORE POP PUSH2 0x123B DUP4 PUSH2 0x11F8 DUP6 PUSH0 DUP9 PUSH2 0x1072 JUMP JUMPDEST PUSH29 0x200000000000000000000000000000000000000000000000000000000 PUSH29 0x100000000000000000000000000000000000000000000000000000000 OR OR PUSH2 0x1099 JUMP JUMPDEST PUSH1 0x4 PUSH0 DUP9 DUP2 MSTORE PUSH1 0x20 ADD SWAP1 DUP2 MSTORE PUSH1 0x20 ADD PUSH0 KECCAK256 DUP2 SWAP1 SSTORE POP PUSH0 PUSH29 0x200000000000000000000000000000000000000000000000000000000 DUP6 AND SUB PUSH2 0x12B7 JUMPI PUSH0 PUSH1 0x1 DUP8 ADD SWAP1 POP PUSH0 PUSH1 0x4 PUSH0 DUP4 DUP2 MSTORE PUSH1 0x20 ADD SWAP1 DUP2 MSTORE PUSH1 0x20 ADD PUSH0 KECCAK256 SLOAD SUB PUSH2 0x12B5 JUMPI PUSH0 SLOAD DUP2 EQ PUSH2 0x12B4 JUMPI DUP5 PUSH1 0x4 PUSH0 DUP4 DUP2 MSTORE PUSH1 0x20 ADD SWAP1 DUP2 MSTORE PUSH1 0x20 ADD PUSH0 KECCAK256 DUP2 SWAP1 SSTORE POP JUMPDEST JUMPDEST POP JUMPDEST DUP6 PUSH0 PUSH20 0xFFFFFFFFFFFFFFFFFFFFFFFFFFFFFFFFFFFFFFFF AND DUP5 PUSH20 0xFFFFFFFFFFFFFFFFFFFFFFFFFFFFFFFFFFFFFFFF AND PUSH32 0xDDF252AD1BE2C89B69C2B068FC378DAA952BA7F163C4A11628F55A4DF523B3EF PUSH1 0x40 MLOAD PUSH1 0x40 MLOAD DUP1 SWAP2 SUB SWAP1 LOG4 PUSH2 0x131F DUP4 PUSH0 DUP9 PUSH1 0x1 PUSH2 0x10C3 JUMP JUMPDEST PUSH1 0x1 PUSH0 DUP2 SLOAD DUP1 SWAP3 SWAP2 SWAP1 PUSH1 0x1 ADD SWAP2 SWAP1 POP SSTORE POP POP POP POP POP POP POP JUMP JUMPDEST PUSH2 0x1351 DUP3 DUP3 PUSH1 0x40 MLOAD DUP1 PUSH1 0x20 ADD PUSH1 0x40 MSTORE DUP1 PUSH0 DUP2 MSTORE POP PUSH2 0x152F JUMP JUMPDEST POP POP JUMP JUMPDEST PUSH0 PUSH2 0x135E PUSH2 0xF16 JUMP JUMPDEST PUSH0 SLOAD SUB SWAP1 POP SWAP1 JUMP JUMPDEST PUSH0 DUP4 PUSH20 0xFFFFFFFFFFFFFFFFFFFFFFFFFFFFFFFFFFFFFFFF AND PUSH4 0x150B7A02 PUSH2 0x138B PUSH2 0x1022 JUMP JUMPDEST DUP8 DUP7 DUP7 PUSH1 0x40 MLOAD DUP6 PUSH4 0xFFFFFFFF AND PUSH1 0xE0 SHL DUP2 MSTORE PUSH1 0x4 ADD PUSH2 0x13AD SWAP5 SWAP4 SWAP3 SWAP2 SWAP1 PUSH2 0x1F9D JUMP JUMPDEST PUSH1 0x20 PUSH1 0x40 MLOAD DUP1 DUP4 SUB DUP2 PUSH0 DUP8 GAS CALL SWAP3 POP POP POP DUP1 ISZERO PUSH2 0x13E8 JUMPI POP PUSH1 0x40 MLOAD RETURNDATASIZE PUSH1 0x1F NOT PUSH1 0x1F DUP3 ADD AND DUP3 ADD DUP1 PUSH1 0x40 MSTORE POP DUP2 ADD SWAP1 PUSH2 0x13E5 SWAP2 SWAP1 PUSH2 0x1FFB JUMP JUMPDEST PUSH1 0x1 JUMPDEST PUSH2 0x143D JUMPI RETURNDATASIZE DUP1 PUSH0 DUP2 EQ PUSH2 0x1416 JUMPI PUSH1 0x40 MLOAD SWAP2 POP PUSH1 0x1F NOT PUSH1 0x3F RETURNDATASIZE ADD AND DUP3 ADD PUSH1 0x40 MSTORE RETURNDATASIZE DUP3 MSTORE RETURNDATASIZE PUSH0 PUSH1 0x20 DUP5 ADD RETURNDATACOPY PUSH2 0x141B JUMP JUMPDEST PUSH1 0x60 SWAP2 POP JUMPDEST POP PUSH0 DUP2 MLOAD SUB PUSH2 0x1435 JUMPI PUSH2 0x1434 PUSH4 0xD1A57ED6 PUSH1 0xE0 SHL PUSH2 0xDE4 JUMP JUMPDEST JUMPDEST DUP1 MLOAD DUP2 PUSH1 0x20 ADD REVERT JUMPDEST PUSH4 0x150B7A02 PUSH1 0xE0 SHL PUSH28 0xFFFFFFFFFFFFFFFFFFFFFFFFFFFFFFFFFFFFFFFFFFFFFFFFFFFFFFFF NOT AND DUP2 PUSH28 0xFFFFFFFFFFFFFFFFFFFFFFFFFFFFFFFFFFFFFFFFFFFFFFFFFFFFFFFF NOT AND EQ SWAP2 POP POP SWAP5 SWAP4 POP POP POP POP JUMP JUMPDEST PUSH1 0x60 PUSH1 0x40 MLOAD DUP1 PUSH1 0x20 ADD PUSH1 0x40 MSTORE DUP1 PUSH0 DUP2 MSTORE POP SWAP1 POP SWAP1 JUMP JUMPDEST PUSH1 0x60 PUSH1 0xA0 PUSH1 0x40 MLOAD ADD DUP1 PUSH1 0x40 MSTORE PUSH1 0x20 DUP2 SUB SWAP2 POP PUSH0 DUP3 MSTORE DUP2 DUP4 JUMPDEST PUSH1 0x1 ISZERO PUSH2 0x14E0 JUMPI PUSH1 0x1 DUP5 SUB SWAP4 POP PUSH1 0xA DUP2 MOD PUSH1 0x30 ADD DUP5 MSTORE8 PUSH1 0xA DUP2 DIV SWAP1 POP DUP1 PUSH2 0x14BE JUMPI JUMPDEST POP DUP3 DUP2 SUB PUSH1 0x20 DUP5 SUB SWAP4 POP DUP1 DUP5 MSTORE POP POP POP SWAP2 SWAP1 POP JUMP JUMPDEST PUSH0 PUSH1 0x1 SLOAD SWAP1 POP SWAP1 JUMP JUMPDEST PUSH2 0x1506 PUSH2 0x17C2 JUMP JUMPDEST PUSH2 0x1520 PUSH1 0x4 PUSH0 DUP5 DUP2 MSTORE PUSH1 0x20 ADD SWAP1 DUP2 MSTORE PUSH1 0x20 ADD PUSH0 KECCAK256 SLOAD PUSH2 0x15AE JUMP JUMPDEST SWAP1 POP SWAP2 SWAP1 POP JUMP JUMPDEST PUSH0 SWAP4 SWAP3 POP POP POP JUMP JUMPDEST PUSH2 0x1539 DUP4 DUP4 PUSH2 0x1662 JUMP JUMPDEST PUSH0 DUP4 PUSH20 0xFFFFFFFFFFFFFFFFFFFFFFFFFFFFFFFFFFFFFFFF AND EXTCODESIZE EQ PUSH2 0x15A9 JUMPI PUSH0 PUSH0 SLOAD SWAP1 POP PUSH0 DUP4 DUP3 SUB SWAP1 POP JUMPDEST PUSH2 0x1575 PUSH0 DUP7 DUP4 DUP1 PUSH1 0x1 ADD SWAP5 POP DUP7 PUSH2 0x1366 JUMP JUMPDEST PUSH2 0x158A JUMPI PUSH2 0x1589 PUSH4 0xD1A57ED6 PUSH1 0xE0 SHL PUSH2 0xDE4 JUMP JUMPDEST JUMPDEST DUP2 DUP2 LT PUSH2 0x1563 JUMPI DUP2 PUSH0 SLOAD EQ PUSH2 0x15A6 JUMPI PUSH2 0x15A5 PUSH0 PUSH1 0xE0 SHL PUSH2 0xDE4 JUMP JUMPDEST JUMPDEST POP POP JUMPDEST POP POP POP JUMP JUMPDEST PUSH2 0x15B6 PUSH2 0x17C2 JUMP JUMPDEST DUP2 DUP2 PUSH0 ADD SWAP1 PUSH20 0xFFFFFFFFFFFFFFFFFFFFFFFFFFFFFFFFFFFFFFFF AND SWAP1 DUP2 PUSH20 0xFFFFFFFFFFFFFFFFFFFFFFFFFFFFFFFFFFFFFFFF AND DUP2 MSTORE POP POP PUSH1 0xA0 DUP3 SWAP1 SHR DUP2 PUSH1 0x20 ADD SWAP1 PUSH8 0xFFFFFFFFFFFFFFFF AND SWAP1 DUP2 PUSH8 0xFFFFFFFFFFFFFFFF AND DUP2 MSTORE POP POP PUSH0 PUSH29 0x100000000000000000000000000000000000000000000000000000000 DUP4 AND EQ ISZERO DUP2 PUSH1 0x40 ADD SWAP1 ISZERO ISZERO SWAP1 DUP2 ISZERO ISZERO DUP2 MSTORE POP POP PUSH1 0xE8 DUP3 SWAP1 SHR DUP2 PUSH1 0x60 ADD SWAP1 PUSH3 0xFFFFFF AND SWAP1 DUP2 PUSH3 0xFFFFFF AND DUP2 MSTORE POP POP SWAP2 SWAP1 POP JUMP JUMPDEST PUSH0 PUSH0 SLOAD SWAP1 POP PUSH0 DUP3 SUB PUSH2 0x167F JUMPI PUSH2 0x167E PUSH4 0xB562E8DD PUSH1 0xE0 SHL PUSH2 0xDE4 JUMP JUMPDEST JUMPDEST PUSH2 0x168B PUSH0 DUP5 DUP4 DUP6 PUSH2 0x106C JUMP JUMPDEST PUSH2 0x16A9 DUP4 PUSH2 0x169A PUSH0 DUP7 PUSH0 PUSH2 0x1072 JUMP JUMPDEST PUSH2 0x16A3 DUP6 PUSH2 0x17B3 JUMP JUMPDEST OR PUSH2 0x1099 JUMP JUMPDEST PUSH1 0x4 PUSH0 DUP4 DUP2 MSTORE PUSH1 0x20 ADD SWAP1 DUP2 MSTORE PUSH1 0x20 ADD PUSH0 KECCAK256 DUP2 SWAP1 SSTORE POP PUSH1 0x1 PUSH1 0x40 PUSH1 0x1 SWAP1 SHL OR DUP3 MUL PUSH1 0x5 PUSH0 DUP6 PUSH20 0xFFFFFFFFFFFFFFFFFFFFFFFFFFFFFFFFFFFFFFFF AND PUSH20 0xFFFFFFFFFFFFFFFFFFFFFFFFFFFFFFFFFFFFFFFF AND DUP2 MSTORE PUSH1 0x20 ADD SWAP1 DUP2 MSTORE PUSH1 0x20 ADD PUSH0 KECCAK256 PUSH0 DUP3 DUP3 SLOAD ADD SWAP3 POP POP DUP2 SWAP1 SSTORE POP PUSH0 PUSH20 0xFFFFFFFFFFFFFFFFFFFFFFFFFFFFFFFFFFFFFFFF DUP5 PUSH20 0xFFFFFFFFFFFFFFFFFFFFFFFFFFFFFFFFFFFFFFFF AND AND SWAP1 POP PUSH0 DUP2 SUB PUSH2 0x175A JUMPI PUSH2 0x1759 PUSH4 0x2E076300 PUSH1 0xE0 SHL PUSH2 0xDE4 JUMP JUMPDEST JUMPDEST PUSH0 DUP4 DUP4 ADD SWAP1 POP PUSH0 DUP4 SWAP1 POP JUMPDEST DUP1 DUP4 PUSH0 PUSH32 0xDDF252AD1BE2C89B69C2B068FC378DAA952BA7F163C4A11628F55A4DF523B3EF PUSH0 PUSH0 LOG4 DUP2 DUP2 PUSH1 0x1 ADD SWAP2 POP DUP2 SUB PUSH2 0x1765 JUMPI DUP2 PUSH0 DUP2 SWAP1 SSTORE POP POP POP POP PUSH2 0x17AE PUSH0 DUP5 DUP4 DUP6 PUSH2 0x10C3 JUMP JUMPDEST POP POP POP JUMP JUMPDEST PUSH0 PUSH1 0x1 DUP3 EQ PUSH1 0xE1 SHL SWAP1 POP SWAP2 SWAP1 POP JUMP JUMPDEST PUSH1 0x40 MLOAD DUP1 PUSH1 0x80 ADD PUSH1 0x40 MSTORE DUP1 PUSH0 PUSH20 0xFFFFFFFFFFFFFFFFFFFFFFFFFFFFFFFFFFFFFFFF AND DUP2 MSTORE PUSH1 0x20 ADD PUSH0 PUSH8 0xFFFFFFFFFFFFFFFF AND DUP2 MSTORE PUSH1 0x20 ADD PUSH0 ISZERO ISZERO DUP2 MSTORE PUSH1 0x20 ADD PUSH0 PUSH3 0xFFFFFF AND DUP2 MSTORE POP SWAP1 JUMP JUMPDEST PUSH0 PUSH1 0x40 MLOAD SWAP1 POP SWAP1 JUMP JUMPDEST PUSH0 PUSH0 REVERT JUMPDEST PUSH0 PUSH0 REVERT JUMPDEST PUSH0 PUSH32 0xFFFFFFFF00000000000000000000000000000000000000000000000000000000 DUP3 AND SWAP1 POP SWAP2 SWAP1 POP JUMP JUMPDEST PUSH2 0x1852 DUP2 PUSH2 0x181E JUMP JUMPDEST DUP2 EQ PUSH2 0x185C JUMPI PUSH0 PUSH0 REVERT JUMPDEST POP JUMP JUMPDEST PUSH0 DUP2 CALLDATALOAD SWAP1 POP PUSH2 0x186D DUP2 PUSH2 0x1849 JUMP JUMPDEST SWAP3 SWAP2 POP POP JUMP JUMPDEST PUSH0 PUSH1 0x20 DUP3 DUP5 SUB SLT ISZERO PUSH2 0x1888 JUMPI PUSH2 0x1887 PUSH2 0x1816 JUMP JUMPDEST JUMPDEST PUSH0 PUSH2 0x1895 DUP5 DUP3 DUP6 ADD PUSH2 0x185F JUMP JUMPDEST SWAP2 POP POP SWAP3 SWAP2 POP POP JUMP JUMPDEST PUSH0 DUP2 ISZERO ISZERO SWAP1 POP SWAP2 SWAP1 POP JUMP JUMPDEST PUSH2 0x18B2 DUP2 PUSH2 0x189E JUMP JUMPDEST DUP3 MSTORE POP POP JUMP JUMPDEST PUSH0 PUSH1 0x20 DUP3 ADD SWAP1 POP PUSH2 0x18CB PUSH0 DUP4 ADD DUP5 PUSH2 0x18A9 JUMP JUMPDEST SWAP3 SWAP2 POP POP JUMP JUMPDEST PUSH0 DUP2 MLOAD SWAP1 POP SWAP2 SWAP1 POP JUMP JUMPDEST PUSH0 DUP3 DUP3 MSTORE PUSH1 0x20 DUP3 ADD SWAP1 POP SWAP3 SWAP2 POP POP JUMP JUMPDEST DUP3 DUP2 DUP4 MCOPY PUSH0 DUP4 DUP4 ADD MSTORE POP POP POP JUMP JUMPDEST PUSH0 PUSH1 0x1F NOT PUSH1 0x1F DUP4 ADD AND SWAP1 POP SWAP2 SWAP1 POP JUMP JUMPDEST PUSH0 PUSH2 0x1913 DUP3 PUSH2 0x18D1 JUMP JUMPDEST PUSH2 0x191D DUP2 DUP6 PUSH2 0x18DB JUMP JUMPDEST SWAP4 POP PUSH2 0x192D DUP2 DUP6 PUSH1 0x20 DUP7 ADD PUSH2 0x18EB JUMP JUMPDEST PUSH2 0x1936 DUP2 PUSH2 0x18F9 JUMP JUMPDEST DUP5 ADD SWAP2 POP POP SWAP3 SWAP2 POP POP JUMP JUMPDEST PUSH0 PUSH1 0x20 DUP3 ADD SWAP1 POP DUP2 DUP2 SUB PUSH0 DUP4 ADD MSTORE PUSH2 0x1959 DUP2 DUP5 PUSH2 0x1909 JUMP JUMPDEST SWAP1 POP SWAP3 SWAP2 POP POP JUMP JUMPDEST PUSH0 DUP2 SWAP1 POP SWAP2 SWAP1 POP JUMP JUMPDEST PUSH2 0x1973 DUP2 PUSH2 0x1961 JUMP JUMPDEST DUP2 EQ PUSH2 0x197D JUMPI PUSH0 PUSH0 REVERT JUMPDEST POP JUMP JUMPDEST PUSH0 DUP2 CALLDATALOAD SWAP1 POP PUSH2 0x198E DUP2 PUSH2 0x196A JUMP JUMPDEST SWAP3 SWAP2 POP POP JUMP JUMPDEST PUSH0 PUSH1 0x20 DUP3 DUP5 SUB SLT ISZERO PUSH2 0x19A9 JUMPI PUSH2 0x19A8 PUSH2 0x1816 JUMP JUMPDEST JUMPDEST PUSH0 PUSH2 0x19B6 DUP5 DUP3 DUP6 ADD PUSH2 0x1980 JUMP JUMPDEST SWAP2 POP POP SWAP3 SWAP2 POP POP JUMP JUMPDEST PUSH0 PUSH20 0xFFFFFFFFFFFFFFFFFFFFFFFFFFFFFFFFFFFFFFFF DUP3 AND SWAP1 POP SWAP2 SWAP1 POP JUMP JUMPDEST PUSH0 PUSH2 0x19E8 DUP3 PUSH2 0x19BF JUMP JUMPDEST SWAP1 POP SWAP2 SWAP1 POP JUMP JUMPDEST PUSH2 0x19F8 DUP2 PUSH2 0x19DE JUMP JUMPDEST DUP3 MSTORE POP POP JUMP JUMPDEST PUSH0 PUSH1 0x20 DUP3 ADD SWAP1 POP PUSH2 0x1A11 PUSH0 DUP4 ADD DUP5 PUSH2 0x19EF JUMP JUMPDEST SWAP3 SWAP2 POP POP JUMP JUMPDEST PUSH2 0x1A20 DUP2 PUSH2 0x19DE JUMP JUMPDEST DUP2 EQ PUSH2 0x1A2A JUMPI PUSH0 PUSH0 REVERT JUMPDEST POP JUMP JUMPDEST PUSH0 DUP2 CALLDATALOAD SWAP1 POP PUSH2 0x1A3B DUP2 PUSH2 0x1A17 JUMP JUMPDEST SWAP3 SWAP2 POP POP JUMP JUMPDEST PUSH0 PUSH0 PUSH1 0x40 DUP4 DUP6 SUB SLT ISZERO PUSH2 0x1A57 JUMPI PUSH2 0x1A56 PUSH2 0x1816 JUMP JUMPDEST JUMPDEST PUSH0 PUSH2 0x1A64 DUP6 DUP3 DUP7 ADD PUSH2 0x1A2D JUMP JUMPDEST SWAP3 POP POP PUSH1 0x20 PUSH2 0x1A75 DUP6 DUP3 DUP7 ADD PUSH2 0x1980 JUMP JUMPDEST SWAP2 POP POP SWAP3 POP SWAP3 SWAP1 POP JUMP JUMPDEST PUSH2 0x1A88 DUP2 PUSH2 0x1961 JUMP JUMPDEST DUP3 MSTORE POP POP JUMP JUMPDEST PUSH0 PUSH1 0x20 DUP3 ADD SWAP1 POP PUSH2 0x1AA1 PUSH0 DUP4 ADD DUP5 PUSH2 0x1A7F JUMP JUMPDEST SWAP3 SWAP2 POP POP JUMP JUMPDEST PUSH0 PUSH0 PUSH0 PUSH1 0x60 DUP5 DUP7 SUB SLT ISZERO PUSH2 0x1ABE JUMPI PUSH2 0x1ABD PUSH2 0x1816 JUMP JUMPDEST JUMPDEST PUSH0 PUSH2 0x1ACB DUP7 DUP3 DUP8 ADD PUSH2 0x1A2D JUMP JUMPDEST SWAP4 POP POP PUSH1 0x20 PUSH2 0x1ADC DUP7 DUP3 DUP8 ADD PUSH2 0x1A2D JUMP JUMPDEST SWAP3 POP POP PUSH1 0x40 PUSH2 0x1AED DUP7 DUP3 DUP8 ADD PUSH2 0x1980 JUMP JUMPDEST SWAP2 POP POP SWAP3 POP SWAP3 POP SWAP3 JUMP JUMPDEST PUSH0 PUSH1 0x20 DUP3 DUP5 SUB SLT ISZERO PUSH2 0x1B0C JUMPI PUSH2 0x1B0B PUSH2 0x1816 JUMP JUMPDEST JUMPDEST PUSH0 PUSH2 0x1B19 DUP5 DUP3 DUP6 ADD PUSH2 0x1A2D JUMP JUMPDEST SWAP2 POP POP SWAP3 SWAP2 POP POP JUMP JUMPDEST PUSH2 0x1B2B DUP2 PUSH2 0x189E JUMP JUMPDEST DUP2 EQ PUSH2 0x1B35 JUMPI PUSH0 PUSH0 REVERT JUMPDEST POP JUMP JUMPDEST PUSH0 DUP2 CALLDATALOAD SWAP1 POP PUSH2 0x1B46 DUP2 PUSH2 0x1B22 JUMP JUMPDEST SWAP3 SWAP2 POP POP JUMP JUMPDEST PUSH0 PUSH0 PUSH1 0x40 DUP4 DUP6 SUB SLT ISZERO PUSH2 0x1B62 JUMPI PUSH2 0x1B61 PUSH2 0x1816 JUMP JUMPDEST JUMPDEST PUSH0 PUSH2 0x1B6F DUP6 DUP3 DUP7 ADD PUSH2 0x1A2D JUMP JUMPDEST SWAP3 POP POP PUSH1 0x20 PUSH2 0x1B80 DUP6 DUP3 DUP7 ADD PUSH2 0x1B38 JUMP JUMPDEST SWAP2 POP POP SWAP3 POP SWAP3 SWAP1 POP JUMP JUMPDEST PUSH0 PUSH0 REVERT JUMPDEST PUSH0 PUSH0 REVERT JUMPDEST PUSH32 0x4E487B7100000000000000000000000000000000000000000000000000000000 PUSH0 MSTORE PUSH1 0x41 PUSH1 0x4 MSTORE PUSH1 0x24 PUSH0 REVERT JUMPDEST PUSH2 0x1BC8 DUP3 PUSH2 0x18F9 JUMP JUMPDEST DUP2 ADD DUP2 DUP2 LT PUSH8 0xFFFFFFFFFFFFFFFF DUP3 GT OR ISZERO PUSH2 0x1BE7 JUMPI PUSH2 0x1BE6 PUSH2 0x1B92 JUMP JUMPDEST JUMPDEST DUP1 PUSH1 0x40 MSTORE POP POP POP JUMP JUMPDEST PUSH0 PUSH2 0x1BF9 PUSH2 0x180D JUMP JUMPDEST SWAP1 POP PUSH2 0x1C05 DUP3 DUP3 PUSH2 0x1BBF JUMP JUMPDEST SWAP2 SWAP1 POP JUMP JUMPDEST PUSH0 PUSH8 0xFFFFFFFFFFFFFFFF DUP3 GT ISZERO PUSH2 0x1C24 JUMPI PUSH2 0x1C23 PUSH2 0x1B92 JUMP JUMPDEST JUMPDEST PUSH2 0x1C2D DUP3 PUSH2 0x18F9 JUMP JUMPDEST SWAP1 POP PUSH1 0x20 DUP2 ADD SWAP1 POP SWAP2 SWAP1 POP JUMP JUMPDEST DUP3 DUP2 DUP4 CALLDATACOPY PUSH0 DUP4 DUP4 ADD MSTORE POP POP POP JUMP JUMPDEST PUSH0 PUSH2 0x1C5A PUSH2 0x1C55 DUP5 PUSH2 0x1C0A JUMP JUMPDEST PUSH2 0x1BF0 JUMP JUMPDEST SWAP1 POP DUP3 DUP2 MSTORE PUSH1 0x20 DUP2 ADD DUP5 DUP5 DUP5 ADD GT ISZERO PUSH2 0x1C76 JUMPI PUSH2 0x1C75 PUSH2 0x1B8E JUMP JUMPDEST JUMPDEST PUSH2 0x1C81 DUP5 DUP3 DUP6 PUSH2 0x1C3A JUMP JUMPDEST POP SWAP4 SWAP3 POP POP POP JUMP JUMPDEST PUSH0 DUP3 PUSH1 0x1F DUP4 ADD SLT PUSH2 0x1C9D JUMPI PUSH2 0x1C9C PUSH2 0x1B8A JUMP JUMPDEST JUMPDEST DUP2 CALLDATALOAD PUSH2 0x1CAD DUP5 DUP3 PUSH1 0x20 DUP7 ADD PUSH2 0x1C48 JUMP JUMPDEST SWAP2 POP POP SWAP3 SWAP2 POP POP JUMP JUMPDEST PUSH0 PUSH0 PUSH0 PUSH0 PUSH1 0x80 DUP6 DUP8 SUB SLT ISZERO PUSH2 0x1CCE JUMPI PUSH2 0x1CCD PUSH2 0x1816 JUMP JUMPDEST JUMPDEST PUSH0 PUSH2 0x1CDB DUP8 DUP3 DUP9 ADD PUSH2 0x1A2D JUMP JUMPDEST SWAP5 POP POP PUSH1 0x20 PUSH2 0x1CEC DUP8 DUP3 DUP9 ADD PUSH2 0x1A2D JUMP JUMPDEST SWAP4 POP POP PUSH1 0x40 PUSH2 0x1CFD DUP8 DUP3 DUP9 ADD PUSH2 0x1980 JUMP JUMPDEST SWAP3 POP POP PUSH1 0x60 DUP6 ADD CALLDATALOAD PUSH8 0xFFFFFFFFFFFFFFFF DUP2 GT ISZERO PUSH2 0x1D1E JUMPI PUSH2 0x1D1D PUSH2 0x181A JUMP JUMPDEST JUMPDEST PUSH2 0x1D2A DUP8 DUP3 DUP9 ADD PUSH2 0x1C89 JUMP JUMPDEST SWAP2 POP POP SWAP3 SWAP6 SWAP2 SWAP5 POP SWAP3 POP JUMP JUMPDEST PUSH0 PUSH0 PUSH1 0x40 DUP4 DUP6 SUB SLT ISZERO PUSH2 0x1D4C JUMPI PUSH2 0x1D4B PUSH2 0x1816 JUMP JUMPDEST JUMPDEST PUSH0 PUSH2 0x1D59 DUP6 DUP3 DUP7 ADD PUSH2 0x1A2D JUMP JUMPDEST SWAP3 POP POP PUSH1 0x20 PUSH2 0x1D6A DUP6 DUP3 DUP7 ADD PUSH2 0x1A2D JUMP JUMPDEST SWAP2 POP POP SWAP3 POP SWAP3 SWAP1 POP JUMP JUMPDEST PUSH2 0x1D7D DUP2 PUSH2 0x19DE JUMP JUMPDEST DUP3 MSTORE POP POP JUMP JUMPDEST PUSH0 PUSH8 0xFFFFFFFFFFFFFFFF DUP3 AND SWAP1 POP SWAP2 SWAP1 POP JUMP JUMPDEST PUSH2 0x1D9F DUP2 PUSH2 0x1D83 JUMP JUMPDEST DUP3 MSTORE POP POP JUMP JUMPDEST PUSH2 0x1DAE DUP2 PUSH2 0x189E JUMP JUMPDEST DUP3 MSTORE POP POP JUMP JUMPDEST PUSH0 PUSH3 0xFFFFFF DUP3 AND SWAP1 POP SWAP2 SWAP1 POP JUMP JUMPDEST PUSH2 0x1DCB DUP2 PUSH2 0x1DB4 JUMP JUMPDEST DUP3 MSTORE POP POP JUMP JUMPDEST PUSH1 0x80 DUP3 ADD PUSH0 DUP3 ADD MLOAD PUSH2 0x1DE5 PUSH0 DUP6 ADD DUP3 PUSH2 0x1D74 JUMP JUMPDEST POP PUSH1 0x20 DUP3 ADD MLOAD PUSH2 0x1DF8 PUSH1 0x20 DUP6 ADD DUP3 PUSH2 0x1D96 JUMP JUMPDEST POP PUSH1 0x40 DUP3 ADD MLOAD PUSH2 0x1E0B PUSH1 0x40 DUP6 ADD DUP3 PUSH2 0x1DA5 JUMP JUMPDEST POP PUSH1 0x60 DUP3 ADD MLOAD PUSH2 0x1E1E PUSH1 0x60 DUP6 ADD DUP3 PUSH2 0x1DC2 JUMP JUMPDEST POP POP POP POP JUMP JUMPDEST PUSH0 PUSH1 0x80 DUP3 ADD SWAP1 POP PUSH2 0x1E37 PUSH0 DUP4 ADD DUP5 PUSH2 0x1DD1 JUMP JUMPDEST SWAP3 SWAP2 POP POP JUMP JUMPDEST PUSH32 0x4E487B7100000000000000000000000000000000000000000000000000000000 PUSH0 MSTORE PUSH1 0x22 PUSH1 0x4 MSTORE PUSH1 0x24 PUSH0 REVERT JUMPDEST PUSH0 PUSH1 0x2 DUP3 DIV SWAP1 POP PUSH1 0x1 DUP3 AND DUP1 PUSH2 0x1E81 JUMPI PUSH1 0x7F DUP3 AND SWAP2 POP JUMPDEST PUSH1 0x20 DUP3 LT DUP2 SUB PUSH2 0x1E94 JUMPI PUSH2 0x1E93 PUSH2 0x1E3D JUMP JUMPDEST JUMPDEST POP SWAP2 SWAP1 POP JUMP JUMPDEST PUSH0 DUP2 SWAP1 POP SWAP3 SWAP2 POP POP JUMP JUMPDEST PUSH0 PUSH2 0x1EAE DUP3 PUSH2 0x18D1 JUMP JUMPDEST PUSH2 0x1EB8 DUP2 DUP6 PUSH2 0x1E9A JUMP JUMPDEST SWAP4 POP PUSH2 0x1EC8 DUP2 DUP6 PUSH1 0x20 DUP7 ADD PUSH2 0x18EB JUMP JUMPDEST DUP1 DUP5 ADD SWAP2 POP POP SWAP3 SWAP2 POP POP JUMP JUMPDEST PUSH0 PUSH2 0x1EDF DUP3 DUP6 PUSH2 0x1EA4 JUMP JUMPDEST SWAP2 POP PUSH2 0x1EEB DUP3 DUP5 PUSH2 0x1EA4 JUMP JUMPDEST SWAP2 POP DUP2 SWAP1 POP SWAP4 SWAP3 POP POP POP JUMP JUMPDEST PUSH32 0x4E487B7100000000000000000000000000000000000000000000000000000000 PUSH0 MSTORE PUSH1 0x11 PUSH1 0x4 MSTORE PUSH1 0x24 PUSH0 REVERT JUMPDEST PUSH0 PUSH2 0x1F2E DUP3 PUSH2 0x1961 JUMP JUMPDEST SWAP2 POP PUSH0 DUP3 SUB PUSH2 0x1F40 JUMPI PUSH2 0x1F3F PUSH2 0x1EF7 JUMP JUMPDEST JUMPDEST PUSH1 0x1 DUP3 SUB SWAP1 POP SWAP2 SWAP1 POP JUMP JUMPDEST PUSH0 DUP2 MLOAD SWAP1 POP SWAP2 SWAP1 POP JUMP JUMPDEST PUSH0 DUP3 DUP3 MSTORE PUSH1 0x20 DUP3 ADD SWAP1 POP SWAP3 SWAP2 POP POP JUMP JUMPDEST PUSH0 PUSH2 0x1F6F DUP3 PUSH2 0x1F4B JUMP JUMPDEST PUSH2 0x1F79 DUP2 DUP6 PUSH2 0x1F55 JUMP JUMPDEST SWAP4 POP PUSH2 0x1F89 DUP2 DUP6 PUSH1 0x20 DUP7 ADD PUSH2 0x18EB JUMP JUMPDEST PUSH2 0x1F92 DUP2 PUSH2 0x18F9 JUMP JUMPDEST DUP5 ADD SWAP2 POP POP SWAP3 SWAP2 POP POP JUMP JUMPDEST PUSH0 PUSH1 0x80 DUP3 ADD SWAP1 POP PUSH2 0x1FB0 PUSH0 DUP4 ADD DUP8 PUSH2 0x19EF JUMP JUMPDEST PUSH2 0x1FBD PUSH1 0x20 DUP4 ADD DUP7 PUSH2 0x19EF JUMP JUMPDEST PUSH2 0x1FCA PUSH1 0x40 DUP4 ADD DUP6 PUSH2 0x1A7F JUMP JUMPDEST DUP2 DUP2 SUB PUSH1 0x60 DUP4 ADD MSTORE PUSH2 0x1FDC DUP2 DUP5 PUSH2 0x1F65 JUMP JUMPDEST SWAP1 POP SWAP6 SWAP5 POP POP POP POP POP JUMP JUMPDEST PUSH0 DUP2 MLOAD SWAP1 POP PUSH2 0x1FF5 DUP2 PUSH2 0x1849 JUMP JUMPDEST SWAP3 SWAP2 POP POP JUMP JUMPDEST PUSH0 PUSH1 0x20 DUP3 DUP5 SUB SLT ISZERO PUSH2 0x2010 JUMPI PUSH2 0x200F PUSH2 0x1816 JUMP JUMPDEST JUMPDEST PUSH0 PUSH2 0x201D DUP5 DUP3 DUP6 ADD PUSH2 0x1FE7 JUMP JUMPDEST SWAP2 POP POP SWAP3 SWAP2 POP POP JUMP INVALID LOG2 PUSH5 0x6970667358 0x22 SLT KECCAK256 SWAP11 0xED MSTORE8 DUP4 PUSH5 0x640D606661 LOG0 0x4C SWAP16 SWAP12 0xAA 0xA5 CODECOPY PUSH26 0x305E1C320963613BC9A7F830127A64736F6C634300081B003300 "
		},
		"gasEstimates": {
			"creation": {
				"codeDepositCost": "1656800",
				"executionCost": "infinite",
				"totalCost": "infinite"
			},
			"external": {
				"approve(address,uint256)": "infinite",
				"balanceOf(address)": "2914",
				"burn(uint256)": "infinite",
				"exists(uint256)": "infinite",
				"getApproved(uint256)": "infinite",
				"getOwnershipAt(uint256)": "infinite",
				"isApprovedForAll(address,address)": "infinite",
				"name()": "infinite",
				"numberBurned(address)": "2931",
				"ownerOf(uint256)": "infinite",
				"safeMint(address,uint256)": "infinite",
				"safeTransferFrom(address,address,uint256)": "infinite",
				"safeTransferFrom(address,address,uint256,bytes)": "infinite",
				"setApprovalForAll(address,bool)": "infinite",
				"supportsInterface(bytes4)": "736",
				"symbol()": "infinite",
				"tokenURI(uint256)": "infinite",
				"totalBurned()": "2554",
				"totalMinted()": "2526",
				"totalSupply()": "4688",
				"transferFrom(address,address,uint256)": "infinite"
			}
		},
		"methodIdentifiers": {
			"approve(address,uint256)": "095ea7b3",
			"balanceOf(address)": "70a08231",
			"burn(uint256)": "42966c68",
			"exists(uint256)": "4f558e79",
			"getApproved(uint256)": "081812fc",
			"getOwnershipAt(uint256)": "f2523633",
			"isApprovedForAll(address,address)": "e985e9c5",
			"name()": "06fdde03",
			"numberBurned(address)": "2478d639",
			"ownerOf(uint256)": "6352211e",
			"safeMint(address,uint256)": "a1448194",
			"safeTransferFrom(address,address,uint256)": "42842e0e",
			"safeTransferFrom(address,address,uint256,bytes)": "b88d4fde",
			"setApprovalForAll(address,bool)": "a22cb465",
			"supportsInterface(bytes4)": "01ffc9a7",
			"symbol()": "95d89b41",
			"tokenURI(uint256)": "c87b56dd",
			"totalBurned()": "d89135cd",
			"totalMinted()": "a2309ff8",
			"totalSupply()": "18160ddd",
			"transferFrom(address,address,uint256)": "23b872dd"
		}
	},
	"abi": [
		{
			"inputs": [
				{
					"internalType": "string",
					"name": "name_",
					"type": "string"
				},
				{
					"internalType": "string",
					"name": "symbol_",
					"type": "string"
				}
			],
			"stateMutability": "nonpayable",
			"type": "constructor"
		},
		{
			"inputs": [],
			"name": "ApprovalCallerNotOwnerNorApproved",
			"type": "error"
		},
		{
			"inputs": [],
			"name": "ApprovalQueryForNonexistentToken",
			"type": "error"
		},
		{
			"inputs": [],
			"name": "BalanceQueryForZeroAddress",
			"type": "error"
		},
		{
			"inputs": [],
			"name": "MintERC2309QuantityExceedsLimit",
			"type": "error"
		},
		{
			"inputs": [],
			"name": "MintToZeroAddress",
			"type": "error"
		},
		{
			"inputs": [],
			"name": "MintZeroQuantity",
			"type": "error"
		},
		{
			"inputs": [],
			"name": "OwnerQueryForNonexistentToken",
			"type": "error"
		},
		{
			"inputs": [],
			"name": "OwnershipNotInitializedForExtraData",
			"type": "error"
		},
		{
			"inputs": [],
			"name": "TransferCallerNotOwnerNorApproved",
			"type": "error"
		},
		{
			"inputs": [],
			"name": "TransferFromIncorrectOwner",
			"type": "error"
		},
		{
			"inputs": [],
			"name": "TransferToNonERC721ReceiverImplementer",
			"type": "error"
		},
		{
			"inputs": [],
			"name": "TransferToZeroAddress",
			"type": "error"
		},
		{
			"inputs": [],
			"name": "URIQueryForNonexistentToken",
			"type": "error"
		},
		{
			"anonymous": false,
			"inputs": [
				{
					"indexed": true,
					"internalType": "address",
					"name": "owner",
					"type": "address"
				},
				{
					"indexed": true,
					"internalType": "address",
					"name": "approved",
					"type": "address"
				},
				{
					"indexed": true,
					"internalType": "uint256",
					"name": "tokenId",
					"type": "uint256"
				}
			],
			"name": "Approval",
			"type": "event"
		},
		{
			"anonymous": false,
			"inputs": [
				{
					"indexed": true,
					"internalType": "address",
					"name": "owner",
					"type": "address"
				},
				{
					"indexed": true,
					"internalType": "address",
					"name": "operator",
					"type": "address"
				},
				{
					"indexed": false,
					"internalType": "bool",
					"name": "approved",
					"type": "bool"
				}
			],
			"name": "ApprovalForAll",
			"type": "event"
		},
		{
			"anonymous": false,
			"inputs": [
				{
					"indexed": true,
					"internalType": "uint256",
					"name": "fromTokenId",
					"type": "uint256"
				},
				{
					"indexed": false,
					"internalType": "uint256",
					"name": "toTokenId",
					"type": "uint256"
				},
				{
					"indexed": true,
					"internalType": "address",
					"name": "from",
					"type": "address"
				},
				{
					"indexed": true,
					"internalType": "address",
					"name": "to",
					"type": "address"
				}
			],
			"name": "ConsecutiveTransfer",
			"type": "event"
		},
		{
			"anonymous": false,
			"inputs": [
				{
					"indexed": true,
					"internalType": "address",
					"name": "from",
					"type": "address"
				},
				{
					"indexed": true,
					"internalType": "address",
					"name": "to",
					"type": "address"
				},
				{
					"indexed": true,
					"internalType": "uint256",
					"name": "tokenId",
					"type": "uint256"
				}
			],
			"name": "Transfer",
			"type": "event"
		},
		{
			"inputs": [
				{
					"internalType": "address",
					"name": "to",
					"type": "address"
				},
				{
					"internalType": "uint256",
					"name": "tokenId",
					"type": "uint256"
				}
			],
			"name": "approve",
			"outputs": [],
			"stateMutability": "payable",
			"type": "function"
		},
		{
			"inputs": [
				{
					"internalType": "address",
					"name": "owner",
					"type": "address"
				}
			],
			"name": "balanceOf",
			"outputs": [
				{
					"internalType": "uint256",
					"name": "",
					"type": "uint256"
				}
			],
			"stateMutability": "view",
			"type": "function"
		},
		{
			"inputs": [
				{
					"internalType": "uint256",
					"name": "tokenId",
					"type": "uint256"
				}
			],
			"name": "burn",
			"outputs": [],
			"stateMutability": "nonpayable",
			"type": "function"
		},
		{
			"inputs": [
				{
					"internalType": "uint256",
					"name": "tokenId",
					"type": "uint256"
				}
			],
			"name": "exists",
			"outputs": [
				{
					"internalType": "bool",
					"name": "",
					"type": "bool"
				}
			],
			"stateMutability": "view",
			"type": "function"
		},
		{
			"inputs": [
				{
					"internalType": "uint256",
					"name": "tokenId",
					"type": "uint256"
				}
			],
			"name": "getApproved",
			"outputs": [
				{
					"internalType": "address",
					"name": "",
					"type": "address"
				}
			],
			"stateMutability": "view",
			"type": "function"
		},
		{
			"inputs": [
				{
					"internalType": "uint256",
					"name": "index",
					"type": "uint256"
				}
			],
			"name": "getOwnershipAt",
			"outputs": [
				{
					"components": [
						{
							"internalType": "address",
							"name": "addr",
							"type": "address"
						},
						{
							"internalType": "uint64",
							"name": "startTimestamp",
							"type": "uint64"
						},
						{
							"internalType": "bool",
							"name": "burned",
							"type": "bool"
						},
						{
							"internalType": "uint24",
							"name": "extraData",
							"type": "uint24"
						}
					],
					"internalType": "struct IERC721A.TokenOwnership",
					"name": "",
					"type": "tuple"
				}
			],
			"stateMutability": "view",
			"type": "function"
		},
		{
			"inputs": [
				{
					"internalType": "address",
					"name": "owner",
					"type": "address"
				},
				{
					"internalType": "address",
					"name": "operator",
					"type": "address"
				}
			],
			"name": "isApprovedForAll",
			"outputs": [
				{
					"internalType": "bool",
					"name": "",
					"type": "bool"
				}
			],
			"stateMutability": "view",
			"type": "function"
		},
		{
			"inputs": [],
			"name": "name",
			"outputs": [
				{
					"internalType": "string",
					"name": "",
					"type": "string"
				}
			],
			"stateMutability": "view",
			"type": "function"
		},
		{
			"inputs": [
				{
					"internalType": "address",
					"name": "owner",
					"type": "address"
				}
			],
			"name": "numberBurned",
			"outputs": [
				{
					"internalType": "uint256",
					"name": "",
					"type": "uint256"
				}
			],
			"stateMutability": "view",
			"type": "function"
		},
		{
			"inputs": [
				{
					"internalType": "uint256",
					"name": "tokenId",
					"type": "uint256"
				}
			],
			"name": "ownerOf",
			"outputs": [
				{
					"internalType": "address",
					"name": "",
					"type": "address"
				}
			],
			"stateMutability": "view",
			"type": "function"
		},
		{
			"inputs": [
				{
					"internalType": "address",
					"name": "to",
					"type": "address"
				},
				{
					"internalType": "uint256",
					"name": "quantity",
					"type": "uint256"
				}
			],
			"name": "safeMint",
			"outputs": [],
			"stateMutability": "nonpayable",
			"type": "function"
		},
		{
			"inputs": [
				{
					"internalType": "address",
					"name": "from",
					"type": "address"
				},
				{
					"internalType": "address",
					"name": "to",
					"type": "address"
				},
				{
					"internalType": "uint256",
					"name": "tokenId",
					"type": "uint256"
				}
			],
			"name": "safeTransferFrom",
			"outputs": [],
			"stateMutability": "payable",
			"type": "function"
		},
		{
			"inputs": [
				{
					"internalType": "address",
					"name": "from",
					"type": "address"
				},
				{
					"internalType": "address",
					"name": "to",
					"type": "address"
				},
				{
					"internalType": "uint256",
					"name": "tokenId",
					"type": "uint256"
				},
				{
					"internalType": "bytes",
					"name": "_data",
					"type": "bytes"
				}
			],
			"name": "safeTransferFrom",
			"outputs": [],
			"stateMutability": "payable",
			"type": "function"
		},
		{
			"inputs": [
				{
					"internalType": "address",
					"name": "operator",
					"type": "address"
				},
				{
					"internalType": "bool",
					"name": "approved",
					"type": "bool"
				}
			],
			"name": "setApprovalForAll",
			"outputs": [],
			"stateMutability": "nonpayable",
			"type": "function"
		},
		{
			"inputs": [
				{
					"internalType": "bytes4",
					"name": "interfaceId",
					"type": "bytes4"
				}
			],
			"name": "supportsInterface",
			"outputs": [
				{
					"internalType": "bool",
					"name": "",
					"type": "bool"
				}
			],
			"stateMutability": "view",
			"type": "function"
		},
		{
			"inputs": [],
			"name": "symbol",
			"outputs": [
				{
					"internalType": "string",
					"name": "",
					"type": "string"
				}
			],
			"stateMutability": "view",
			"type": "function"
		},
		{
			"inputs": [
				{
					"internalType": "uint256",
					"name": "tokenId",
					"type": "uint256"
				}
			],
			"name": "tokenURI",
			"outputs": [
				{
					"internalType": "string",
					"name": "",
					"type": "string"
				}
			],
			"stateMutability": "view",
			"type": "function"
		},
		{
			"inputs": [],
			"name": "totalBurned",
			"outputs": [
				{
					"internalType": "uint256",
					"name": "",
					"type": "uint256"
				}
			],
			"stateMutability": "view",
			"type": "function"
		},
		{
			"inputs": [],
			"name": "totalMinted",
			"outputs": [
				{
					"internalType": "uint256",
					"name": "",
					"type": "uint256"
				}
			],
			"stateMutability": "view",
			"type": "function"
		},
		{
			"inputs": [],
			"name": "totalSupply",
			"outputs": [
				{
					"internalType": "uint256",
					"name": "",
					"type": "uint256"
				}
			],
			"stateMutability": "view",
			"type": "function"
		},
		{
			"inputs": [
				{
					"internalType": "address",
					"name": "from",
					"type": "address"
				},
				{
					"internalType": "address",
					"name": "to",
					"type": "address"
				},
				{
					"internalType": "uint256",
					"name": "tokenId",
					"type": "uint256"
				}
			],
			"name": "transferFrom",
			"outputs": [],
			"stateMutability": "payable",
			"type": "function"
		}
	]
}