{
	"data": {
		"bytecode": {
			"linkReferences": {},
			"object": "6101206040523480156200001257600080fd5b506040516200206c3803806200206c833981016040819052620000359162000154565b6001600160a01b038116620000915760405162461bcd60e51b815260206004820152601c60248201527f4f776e657220616464726573732063616e6e6f74206265207a65726f0000000060448201526064015b60405180910390fd5b6001600160601b0319606082901b16610100526001600160a01b038516620001065760405162461bcd60e51b815260206004820152602160248201527f6f696c6572546f6b656e20616464726573732063616e6e6f74206265207a65726044820152606f60f81b606482015260840162000088565b6001600160601b0319606086901b1660c052620001248443620001a8565b6080525060e05260a05250620001cd9050565b80516001600160a01b03811681146200014f57600080fd5b919050565b600080600080600060a086880312156200016c578081fd5b620001778662000137565b94506020860151935060408601519250606086015191506200019c6080870162000137565b90509295509295909350565b60008219821115620001c857634e487b7160e01b81526011600452602481fd5b500190565b60805160a05160c05160601c60e0516101005160601c611deb62000281600039600081816103150152610e0401526000818161012f01528181611ac70152611b3d0152600081816102c101528181610cb80152818161101f01528181611194015261130f015260008181610246015281816105f601528181610ffd0152818161117201526112e901526000818161033c015281816103e4015281816106ce01528181611ae80152611b610152611deb6000f3fe608060405234801561001057600080fd5b506004361061011b5760003560e01c806386d1a69f116100b2578063c959360b11610081578063e0e4a72211610066578063e0e4a722146103a7578063f6ffab88146103c7578063f968f493146103da57600080fd5b8063c959360b14610367578063cbdf382c1461038757600080fd5b806386d1a69f146103085780638da5cb5b14610310578063bc0925ae14610337578063c2e8caf61461035e57600080fd5b806352946b04116100ee57806352946b041461024157806370ff852b14610268578063798633b91461028857806381e9207d146102bc57600080fd5b80630572b0cc146101205780631514617e1461012a57806316934fc414610164578063378592c81461022e575b600080fd5b6101286103e2565b005b6101517f000000000000000000000000000000000000000000000000000000000000000081565b6040519081526020015b60405180910390f35b6101e1610172366004611be9565b60006020819052908152604090205468ffffffffffffffffff8116906901000000000000000000810462ffffff16906c01000000000000000000000000810463ffffffff169070010000000000000000000000000000000090046fffffffffffffffffffffffffffffffff1684565b6040805168ffffffffffffffffff909516855262ffffff909316602085015263ffffffff909116918301919091526fffffffffffffffffffffffffffffffff16606082015260800161015b565b61012861023c366004611c6d565b610644565b6101517f000000000000000000000000000000000000000000000000000000000000000081565b610151610276366004611be9565b60056020526000908152604090205481565b61029b610296366004611c6d565b610b01565b6040516fffffffffffffffffffffffffffffffff909116815260200161015b565b6102e37f000000000000000000000000000000000000000000000000000000000000000081565b60405173ffffffffffffffffffffffffffffffffffffffff909116815260200161015b565b610128610bc2565b6102e37f000000000000000000000000000000000000000000000000000000000000000081565b6101517f000000000000000000000000000000000000000000000000000000000000000081565b61015160025481565b610151610375366004611be9565b60016020526000908152604090205481565b6003546102e39073ffffffffffffffffffffffffffffffffffffffff1681565b6101516103b5366004611be9565b60046020526000908152604090205481565b6101286103d5366004611c03565b610dec565b61012861141b565b7f00000000000000000000000000000000000000000000000000000000000000004311610496576040517f08c379a000000000000000000000000000000000000000000000000000000000815260206004820152603360248201527f596f752063616e206f6e6c79206765742052657761726473206166746572205360448201527f74616b696e672050726f6772616d20656e64730000000000000000000000000060648201526084015b60405180910390fd5b3360009081526020819052604090205468ffffffffffffffffff1615610564576040517f08c379a000000000000000000000000000000000000000000000000000000000815260206004820152605060248201527f596f75207374696c6c20686176652061207374616b65206c6f636b6564202d2060448201527f706c6561736520756e6c6f636b2066697273742c20646f6e2774206c6561766560648201527f2066726565206d6f6e6579206865726500000000000000000000000000000000608482015260a40161048d565b336000908152600160205260409020546105da576040517f08c379a000000000000000000000000000000000000000000000000000000000815260206004820152601f60248201527f596f7520646f6e2774206861766520616e7920726577617264506f696e747300604482015260640161048d565b6002543360009081526001602052604081205490919061061a907f0000000000000000000000000000000000000000000000000000000000000000611d32565b6106249190611cf9565b336000818152600160205260408120559091506106419082611752565b50565b60035473ffffffffffffffffffffffffffffffffffffffff166106c3576040517f08c379a000000000000000000000000000000000000000000000000000000000815260206004820152601160248201527f706f6f6c546f6b656e206e6f7420736574000000000000000000000000000000604482015260640161048d565b6106f262ffffff82167f0000000000000000000000000000000000000000000000000000000000000000611d6f565b431115610781576040517f08c379a000000000000000000000000000000000000000000000000000000000815260206004820152603160248201527f596f7572206c6f636b20706572696f642065786365656473205374616b696e6760448201527f2050726f6772616d206475726174696f6e000000000000000000000000000000606482015260840161048d565b3360009081526020819052604090205468ffffffffffffffffff1615610803576040517f08c379a000000000000000000000000000000000000000000000000000000000815260206004820152600f60248201527f416c7265616479207374616b696e670000000000000000000000000000000000604482015260640161048d565b600061080f8383610b01565b6040805160808101825268ffffffffffffffffff868116825262ffffff86811660208085019182524363ffffffff9081168688019081526fffffffffffffffffffffffffffffffff898116606089018181523360009081529586905299852089518154975194519b5199167fffffffffffffffffffffffffffffffffffffffff0000000000000000000000009097169690961769010000000000000000009390971692909202959095176bffffffffffffffffffffffff166c0100000000000000000000000098909216979097028416177001000000000000000000000000000000009490931693909302919091179055600280549495509193610914908490611cb9565b909155505033600090815260016020526040812080546fffffffffffffffffffffffffffffffff8516929061094a908490611cb9565b90915550506003546040517f23b872dd00000000000000000000000000000000000000000000000000000000815233600482015230602482015268ffffffffffffffffff8616604482015273ffffffffffffffffffffffffffffffffffffffff909116906323b872dd90606401602060405180830381600087803b1580156109d157600080fd5b505af11580156109e5573d6000803e3d6000fd5b505050506040513d601f19601f82011682018060405250810190610a099190611c35565b610a95576040517f08c379a000000000000000000000000000000000000000000000000000000000815260206004820152602160248201527f5472616e7366657246726f6d206f6620706f6f6c546f6b656e73206661696c6560448201527f6400000000000000000000000000000000000000000000000000000000000000606482015260840161048d565b6040805133815268ffffffffffffffffff8616602082015262ffffff8516818301526fffffffffffffffffffffffffffffffff8416606082015290517fe7dbea143058f90be7a1644e539342c25ddc5379868fe922bab596de99debf419181900360800190a150505050565b60008062ffffff8316610b1f8168ffffffffffffffffff8716611d32565b610b299190611d32565b905060008111610bbb576040517f08c379a000000000000000000000000000000000000000000000000000000000815260206004820152603360248201527f4e65697468657220746f6b656e416d6f756e74206e6f72206c6f636b696e675060448201527f6572696f6420636f756c646e2774206265203000000000000000000000000000606482015260840161048d565b9392505050565b6000610bcd336118ea565b905060008111610c5f576040517f08c379a000000000000000000000000000000000000000000000000000000000815260206004820152602260248201527f56657374696e672072656c656173653a206e6f20746f6b656e7320617265206460448201527f7565000000000000000000000000000000000000000000000000000000000000606482015260840161048d565b3360009081526005602052604081208054839290610c7e908490611cb9565b90915550506040517fa9059cbb000000000000000000000000000000000000000000000000000000008152336004820152602481018290527f000000000000000000000000000000000000000000000000000000000000000073ffffffffffffffffffffffffffffffffffffffff169063a9059cbb90604401602060405180830381600087803b158015610d1157600080fd5b505af1158015610d25573d6000803e3d6000fd5b505050506040513d601f19601f82011682018060405250810190610d499190611c35565b610daf576040517f08c379a000000000000000000000000000000000000000000000000000000000815260206004820152601d60248201527f526577617264206f696c657273207472616e73666572206661696c6564000000604482015260640161048d565b60408051338152602081018390527f769d4212c4fbfaa012a896b49e0f3bb14d32dd0d60ce1a13d357ee6b69db77c291015b60405180910390a150565b3373ffffffffffffffffffffffffffffffffffffffff7f00000000000000000000000000000000000000000000000000000000000000001614610e8b576040517f08c379a000000000000000000000000000000000000000000000000000000000815260206004820152601b60248201527f43616e206f6e6c792062652063616c6c6564206279206f776e65720000000000604482015260640161048d565b60035473ffffffffffffffffffffffffffffffffffffffff1615610f0b576040517f08c379a000000000000000000000000000000000000000000000000000000000815260206004820152601960248201527f706f6f6c546f6b656e2077617320616c72656164792073657400000000000000604482015260640161048d565b73ffffffffffffffffffffffffffffffffffffffff8216610f88576040517f08c379a000000000000000000000000000000000000000000000000000000000815260206004820181905260248201527f706f6f6c546f6b656e20616464726573732063616e6e6f74206265207a65726f604482015260640161048d565b600380547fffffffffffffffffffffffff00000000000000000000000000000000000000001673ffffffffffffffffffffffffffffffffffffffff848116919091179091556040517f70a0823100000000000000000000000000000000000000000000000000000000815282821660048201527f0000000000000000000000000000000000000000000000000000000000000000917f000000000000000000000000000000000000000000000000000000000000000016906370a082319060240160206040518083038186803b15801561106157600080fd5b505afa158015611075573d6000803e3d6000fd5b505050506040513d601f19601f820116820180604052508101906110999190611c55565b1015611127576040517f08c379a000000000000000000000000000000000000000000000000000000000815260206004820152602b60248201527f5374616b696e6746756e6420646f65736e2774206861766520656e6f7567682060448201527f4f494c2062616c616e6365000000000000000000000000000000000000000000606482015260840161048d565b6040517fdd62ed3e00000000000000000000000000000000000000000000000000000000815273ffffffffffffffffffffffffffffffffffffffff82811660048301523060248301527f0000000000000000000000000000000000000000000000000000000000000000917f00000000000000000000000000000000000000000000000000000000000000009091169063dd62ed3e9060440160206040518083038186803b1580156111d857600080fd5b505afa1580156111ec573d6000803e3d6000fd5b505050506040513d601f19601f820116820180604052508101906112109190611c55565b101561129e576040517f08c379a000000000000000000000000000000000000000000000000000000000815260206004820152602960248201527f5374616b696e6746756e6420646f65736e2774206861766520656e6f7567682060448201527f616c6c6f77616e63650000000000000000000000000000000000000000000000606482015260840161048d565b6040517f23b872dd00000000000000000000000000000000000000000000000000000000815273ffffffffffffffffffffffffffffffffffffffff82811660048301523060248301527f000000000000000000000000000000000000000000000000000000000000000060448301527f000000000000000000000000000000000000000000000000000000000000000016906323b872dd90606401602060405180830381600087803b15801561135357600080fd5b505af1158015611367573d6000803e3d6000fd5b505050506040513d601f19601f8201168201806040525081019061138b9190611c35565b611417576040517f08c379a000000000000000000000000000000000000000000000000000000000815260206004820152602b60248201527f5472616e7366657246726f6d206f66204f494c2066726f6d205374616b696e6760448201527f46756e64206661696c6564000000000000000000000000000000000000000000606482015260840161048d565b5050565b60035473ffffffffffffffffffffffffffffffffffffffff1661149a576040517f08c379a000000000000000000000000000000000000000000000000000000000815260206004820152601160248201527f706f6f6c546f6b656e206e6f7420736574000000000000000000000000000000604482015260640161048d565b33600090815260208181526040918290208251608081018452905468ffffffffffffffffff81168083526901000000000000000000820462ffffff16938301939093526c01000000000000000000000000810463ffffffff16938201939093527001000000000000000000000000000000009092046fffffffffffffffffffffffffffffffff1660608301528061158d576040517f08c379a000000000000000000000000000000000000000000000000000000000815260206004820181905260248201527f596f7520646f6e277420686176652061207374616b6520746f20756e6c6f636b604482015260640161048d565b816040015163ffffffff164311611626576040517f08c379a000000000000000000000000000000000000000000000000000000000815260206004820152603c60248201527f596f752063616e277420776974686472617720746865207374616b6520696e2060448201527f7468652073616d6520626c6f636b20697420776173206c6f636b656400000000606482015260840161048d565b61162f82611929565b336000818152602081905260408082209190915560035490517fa9059cbb00000000000000000000000000000000000000000000000000000000815260048101929092526024820183905273ffffffffffffffffffffffffffffffffffffffff169063a9059cbb90604401602060405180830381600087803b1580156116b457600080fd5b505af11580156116c8573d6000803e3d6000fd5b505050506040513d601f19601f820116820180604052508101906116ec9190611c35565b611417576040517f08c379a000000000000000000000000000000000000000000000000000000000815260206004820152601a60248201527f506f6f6c20746f6b656e207472616e73666572206661696c6564000000000000604482015260640161048d565b600081116117e2576040517f08c379a000000000000000000000000000000000000000000000000000000000815260206004820152602960248201527f596f75206469646e2774206561726e20616e7920696e746567657220616d6f7560448201527f6e74206f66207765690000000000000000000000000000000000000000000000606482015260840161048d565b73ffffffffffffffffffffffffffffffffffffffff8216611885576040517f08c379a000000000000000000000000000000000000000000000000000000000815260206004820152602d60248201527f546f6b656e56657374696e673a2062656e65666963696172792069732074686560448201527f207a65726f206164647265737300000000000000000000000000000000000000606482015260840161048d565b73ffffffffffffffffffffffffffffffffffffffff8216600081815260046020908152604091829020849055815192835282018390527f6e1afd29522b0aaf986597bcc53f5fb4daae2af7cfd41d00c384ab1bdf912b23910160405180910390a15050565b73ffffffffffffffffffffffffffffffffffffffff811660009081526005602052604081205461191983611ac0565b6119239190611d6f565b92915050565b806020015162ffffff1681604001516119429190611cd1565b63ffffffff16431015611a4957606081015133600090815260016020526040812080546fffffffffffffffffffffffffffffffff90931692909190611988908490611d6f565b9250508190555080606001516fffffffffffffffffffffffffffffffff16600260008282546119b79190611d6f565b90915550508051602082015160408301517f6c6f3c7d8c87976393011cc962da12841024bc1d62d2de21716a6306ab314ef392339290916119fe9063ffffffff1643611d6f565b6040805173ffffffffffffffffffffffffffffffffffffffff909516855268ffffffffffffffffff909316602085015262ffffff909116918301919091526060820152608001610de1565b80516020808301516060808501516040805133815268ffffffffffffffffff9096169486019490945262ffffff909216928401929092526fffffffffffffffffffffffffffffffff16908201527f391930ab48e95a9040c849cc86e1b2f63c711a1f59d6e324ce775dc9a005105690608001610de1565b6000611b0c7f00000000000000000000000000000000000000000000000000000000000000007f0000000000000000000000000000000000000000000000000000000000000000611cb9565b4310611b3b575073ffffffffffffffffffffffffffffffffffffffff1660009081526004602052604090205490565b7f0000000000000000000000000000000000000000000000000000000000000000611b867f000000000000000000000000000000000000000000000000000000000000000043611d6f565b73ffffffffffffffffffffffffffffffffffffffff8416600090815260046020526040902054611bb69190611d32565b6119239190611cf9565b919050565b803573ffffffffffffffffffffffffffffffffffffffff81168114611bc057600080fd5b600060208284031215611bfa578081fd5b610bbb82611bc5565b60008060408385031215611c15578081fd5b611c1e83611bc5565b9150611c2c60208401611bc5565b90509250929050565b600060208284031215611c46578081fd5b81518015158114610bbb578182fd5b600060208284031215611c66578081fd5b5051919050565b60008060408385031215611c7f578182fd5b823568ffffffffffffffffff81168114611c97578283fd5b9150602083013562ffffff81168114611cae578182fd5b809150509250929050565b60008219821115611ccc57611ccc611d86565b500190565b600063ffffffff808316818516808303821115611cf057611cf0611d86565b01949350505050565b600082611d2d577f4e487b710000000000000000000000000000000000000000000000000000000081526012600452602481fd5b500490565b6000817fffffffffffffffffffffffffffffffffffffffffffffffffffffffffffffffff0483118215151615611d6a57611d6a611d86565b500290565b600082821015611d8157611d81611d86565b500390565b7f4e487b7100000000000000000000000000000000000000000000000000000000600052601160045260246000fdfea2646970667358221220b213dd3def8354c85124c77cb7c25d47bd8a5643391e9b3c6ac44ce1c6270fe564736f6c63430008040033",
			"opcodes": "PUSH2 0x120 PUSH1 0x40 MSTORE CALLVALUE DUP1 ISZERO PUSH3 0x12 JUMPI PUSH1 0x0 DUP1 REVERT JUMPDEST POP PUSH1 0x40 MLOAD PUSH3 0x206C CODESIZE SUB DUP1 PUSH3 0x206C DUP4 CODECOPY DUP2 ADD PUSH1 0x40 DUP2 SWAP1 MSTORE PUSH3 0x35 SWAP2 PUSH3 0x154 JUMP JUMPDEST PUSH1 0x1 PUSH1 0x1 PUSH1 0xA0 SHL SUB DUP2 AND PUSH3 0x91 JUMPI PUSH1 0x40 MLOAD PUSH3 0x461BCD PUSH1 0xE5 SHL DUP2 MSTORE PUSH1 0x20 PUSH1 0x4 DUP3 ADD MSTORE PUSH1 0x1C PUSH1 0x24 DUP3 ADD MSTORE PUSH32 0x4F776E657220616464726573732063616E6E6F74206265207A65726F00000000 PUSH1 0x44 DUP3 ADD MSTORE PUSH1 0x64 ADD JUMPDEST PUSH1 0x40 MLOAD DUP1 SWAP2 SUB SWAP1 REVERT JUMPDEST PUSH1 0x1 PUSH1 0x1 PUSH1 0x60 SHL SUB NOT PUSH1 0x60 DUP3 SWAP1 SHL AND PUSH2 0x100 MSTORE PUSH1 0x1 PUSH1 0x1 PUSH1 0xA0 SHL SUB DUP6 AND PUSH3 0x106 JUMPI PUSH1 0x40 MLOAD PUSH3 0x461BCD PUSH1 0xE5 SHL DUP2 MSTORE PUSH1 0x20 PUSH1 0x4 DUP3 ADD MSTORE PUSH1 0x21 PUSH1 0x24 DUP3 ADD MSTORE PUSH32 0x6F696C6572546F6B656E20616464726573732063616E6E6F74206265207A6572 PUSH1 0x44 DUP3 ADD MSTORE PUSH1 0x6F PUSH1 0xF8 SHL PUSH1 0x64 DUP3 ADD MSTORE PUSH1 0x84 ADD PUSH3 0x88 JUMP JUMPDEST PUSH1 0x1 PUSH1 0x1 PUSH1 0x60 SHL SUB NOT PUSH1 0x60 DUP7 SWAP1 SHL AND PUSH1 0xC0 MSTORE PUSH3 0x124 DUP5 NUMBER PUSH3 0x1A8 JUMP JUMPDEST PUSH1 0x80 MSTORE POP PUSH1 0xE0 MSTORE PUSH1 0xA0 MSTORE POP PUSH3 0x1CD SWAP1 POP JUMP JUMPDEST DUP1 MLOAD PUSH1 0x1 PUSH1 0x1 PUSH1 0xA0 SHL SUB DUP2 AND DUP2 EQ PUSH3 0x14F JUMPI PUSH1 0x0 DUP1 REVERT JUMPDEST SWAP2 SWAP1 POP JUMP JUMPDEST PUSH1 0x0 DUP1 PUSH1 0x0 DUP1 PUSH1 0x0 PUSH1 0xA0 DUP7 DUP9 SUB SLT ISZERO PUSH3 0x16C JUMPI DUP1 DUP2 REVERT JUMPDEST PUSH3 0x177 DUP7 PUSH3 0x137 JUMP JUMPDEST SWAP5 POP PUSH1 0x20 DUP7 ADD MLOAD SWAP4 POP PUSH1 0x40 DUP7 ADD MLOAD SWAP3 POP PUSH1 0x60 DUP7 ADD MLOAD SWAP2 POP PUSH3 0x19C PUSH1 0x80 DUP8 ADD PUSH3 0x137 JUMP JUMPDEST SWAP1 POP SWAP3 SWAP6 POP SWAP3 SWAP6 SWAP1 SWAP4 POP JUMP JUMPDEST PUSH1 0x0 DUP3 NOT DUP3 GT ISZERO PUSH3 0x1C8 JUMPI PUSH4 0x4E487B71 PUSH1 0xE0 SHL DUP2 MSTORE PUSH1 0x11 PUSH1 0x4 MSTORE PUSH1 0x24 DUP2 REVERT JUMPDEST POP ADD SWAP1 JUMP JUMPDEST PUSH1 0x80 MLOAD PUSH1 0xA0 MLOAD PUSH1 0xC0 MLOAD PUSH1 0x60 SHR PUSH1 0xE0 MLOAD PUSH2 0x100 MLOAD PUSH1 0x60 SHR PUSH2 0x1DEB PUSH3 0x281 PUSH1 0x0 CODECOPY PUSH1 0x0 DUP2 DUP2 PUSH2 0x315 ADD MSTORE PUSH2 0xE04 ADD MSTORE PUSH1 0x0 DUP2 DUP2 PUSH2 0x12F ADD MSTORE DUP2 DUP2 PUSH2 0x1AC7 ADD MSTORE PUSH2 0x1B3D ADD MSTORE PUSH1 0x0 DUP2 DUP2 PUSH2 0x2C1 ADD MSTORE DUP2 DUP2 PUSH2 0xCB8 ADD MSTORE DUP2 DUP2 PUSH2 0x101F ADD MSTORE DUP2 DUP2 PUSH2 0x1194 ADD MSTORE PUSH2 0x130F ADD MSTORE PUSH1 0x0 DUP2 DUP2 PUSH2 0x246 ADD MSTORE DUP2 DUP2 PUSH2 0x5F6 ADD MSTORE DUP2 DUP2 PUSH2 0xFFD ADD MSTORE DUP2 DUP2 PUSH2 0x1172 ADD MSTORE PUSH2 0x12E9 ADD MSTORE PUSH1 0x0 DUP2 DUP2 PUSH2 0x33C ADD MSTORE DUP2 DUP2 PUSH2 0x3E4 ADD MSTORE DUP2 DUP2 PUSH2 0x6CE ADD MSTORE DUP2 DUP2 PUSH2 0x1AE8 ADD MSTORE PUSH2 0x1B61 ADD MSTORE PUSH2 0x1DEB PUSH1 0x0 RETURN INVALID PUSH1 0x80 PUSH1 0x40 MSTORE CALLVALUE DUP1 ISZERO PUSH2 0x10 JUMPI PUSH1 0x0 DUP1 REVERT JUMPDEST POP PUSH1 0x4 CALLDATASIZE LT PUSH2 0x11B JUMPI PUSH1 0x0 CALLDATALOAD PUSH1 0xE0 SHR DUP1 PUSH4 0x86D1A69F GT PUSH2 0xB2 JUMPI DUP1 PUSH4 0xC959360B GT PUSH2 0x81 JUMPI DUP1 PUSH4 0xE0E4A722 GT PUSH2 0x66 JUMPI DUP1 PUSH4 0xE0E4A722 EQ PUSH2 0x3A7 JUMPI DUP1 PUSH4 0xF6FFAB88 EQ PUSH2 0x3C7 JUMPI DUP1 PUSH4 0xF968F493 EQ PUSH2 0x3DA JUMPI PUSH1 0x0 DUP1 REVERT JUMPDEST DUP1 PUSH4 0xC959360B EQ PUSH2 0x367 JUMPI DUP1 PUSH4 0xCBDF382C EQ PUSH2 0x387 JUMPI PUSH1 0x0 DUP1 REVERT JUMPDEST DUP1 PUSH4 0x86D1A69F EQ PUSH2 0x308 JUMPI DUP1 PUSH4 0x8DA5CB5B EQ PUSH2 0x310 JUMPI DUP1 PUSH4 0xBC0925AE EQ PUSH2 0x337 JUMPI DUP1 PUSH4 0xC2E8CAF6 EQ PUSH2 0x35E JUMPI PUSH1 0x0 DUP1 REVERT JUMPDEST DUP1 PUSH4 0x52946B04 GT PUSH2 0xEE JUMPI DUP1 PUSH4 0x52946B04 EQ PUSH2 0x241 JUMPI DUP1 PUSH4 0x70FF852B EQ PUSH2 0x268 JUMPI DUP1 PUSH4 0x798633B9 EQ PUSH2 0x288 JUMPI DUP1 PUSH4 0x81E9207D EQ PUSH2 0x2BC JUMPI PUSH1 0x0 DUP1 REVERT JUMPDEST DUP1 PUSH4 0x572B0CC EQ PUSH2 0x120 JUMPI DUP1 PUSH4 0x1514617E EQ PUSH2 0x12A JUMPI DUP1 PUSH4 0x16934FC4 EQ PUSH2 0x164 JUMPI DUP1 PUSH4 0x378592C8 EQ PUSH2 0x22E JUMPI JUMPDEST PUSH1 0x0 DUP1 REVERT JUMPDEST PUSH2 0x128 PUSH2 0x3E2 JUMP JUMPDEST STOP JUMPDEST PUSH2 0x151 PUSH32 0x0 DUP2 JUMP JUMPDEST PUSH1 0x40 MLOAD SWAP1 DUP2 MSTORE PUSH1 0x20 ADD JUMPDEST PUSH1 0x40 MLOAD DUP1 SWAP2 SUB SWAP1 RETURN JUMPDEST PUSH2 0x1E1 PUSH2 0x172 CALLDATASIZE PUSH1 0x4 PUSH2 0x1BE9 JUMP JUMPDEST PUSH1 0x0 PUSH1 0x20 DUP2 SWAP1 MSTORE SWAP1 DUP2 MSTORE PUSH1 0x40 SWAP1 KECCAK256 SLOAD PUSH9 0xFFFFFFFFFFFFFFFFFF DUP2 AND SWAP1 PUSH10 0x1000000000000000000 DUP2 DIV PUSH3 0xFFFFFF AND SWAP1 PUSH13 0x1000000000000000000000000 DUP2 DIV PUSH4 0xFFFFFFFF AND SWAP1 PUSH17 0x100000000000000000000000000000000 SWAP1 DIV PUSH16 0xFFFFFFFFFFFFFFFFFFFFFFFFFFFFFFFF AND DUP5 JUMP JUMPDEST PUSH1 0x40 DUP1 MLOAD PUSH9 0xFFFFFFFFFFFFFFFFFF SWAP1 SWAP6 AND DUP6 MSTORE PUSH3 0xFFFFFF SWAP1 SWAP4 AND PUSH1 0x20 DUP6 ADD MSTORE PUSH4 0xFFFFFFFF SWAP1 SWAP2 AND SWAP2 DUP4 ADD SWAP2 SWAP1 SWAP2 MSTORE PUSH16 0xFFFFFFFFFFFFFFFFFFFFFFFFFFFFFFFF AND PUSH1 0x60 DUP3 ADD MSTORE PUSH1 0x80 ADD PUSH2 0x15B JUMP JUMPDEST PUSH2 0x128 PUSH2 0x23C CALLDATASIZE PUSH1 0x4 PUSH2 0x1C6D JUMP JUMPDEST PUSH2 0x644 JUMP JUMPDEST PUSH2 0x151 PUSH32 0x0 DUP2 JUMP JUMPDEST PUSH2 0x151 PUSH2 0x276 CALLDATASIZE PUSH1 0x4 PUSH2 0x1BE9 JUMP JUMPDEST PUSH1 0x5 PUSH1 0x20 MSTORE PUSH1 0x0 SWAP1 DUP2 MSTORE PUSH1 0x40 SWAP1 KECCAK256 SLOAD DUP2 JUMP JUMPDEST PUSH2 0x29B PUSH2 0x296 CALLDATASIZE PUSH1 0x4 PUSH2 0x1C6D JUMP JUMPDEST PUSH2 0xB01 JUMP JUMPDEST PUSH1 0x40 MLOAD PUSH16 0xFFFFFFFFFFFFFFFFFFFFFFFFFFFFFFFF SWAP1 SWAP2 AND DUP2 MSTORE PUSH1 0x20 ADD PUSH2 0x15B JUMP JUMPDEST PUSH2 0x2E3 PUSH32 0x0 DUP2 JUMP JUMPDEST PUSH1 0x40 MLOAD PUSH20 0xFFFFFFFFFFFFFFFFFFFFFFFFFFFFFFFFFFFFFFFF SWAP1 SWAP2 AND DUP2 MSTORE PUSH1 0x20 ADD PUSH2 0x15B JUMP JUMPDEST PUSH2 0x128 PUSH2 0xBC2 JUMP JUMPDEST PUSH2 0x2E3 PUSH32 0x0 DUP2 JUMP JUMPDEST PUSH2 0x151 PUSH32 0x0 DUP2 JUMP JUMPDEST PUSH2 0x151 PUSH1 0x2 SLOAD DUP2 JUMP JUMPDEST PUSH2 0x151 PUSH2 0x375 CALLDATASIZE PUSH1 0x4 PUSH2 0x1BE9 JUMP JUMPDEST PUSH1 0x1 PUSH1 0x20 MSTORE PUSH1 0x0 SWAP1 DUP2 MSTORE PUSH1 0x40 SWAP1 KECCAK256 SLOAD DUP2 JUMP JUMPDEST PUSH1 0x3 SLOAD PUSH2 0x2E3 SWAP1 PUSH20 0xFFFFFFFFFFFFFFFFFFFFFFFFFFFFFFFFFFFFFFFF AND DUP2 JUMP JUMPDEST PUSH2 0x151 PUSH2 0x3B5 CALLDATASIZE PUSH1 0x4 PUSH2 0x1BE9 JUMP JUMPDEST PUSH1 0x4 PUSH1 0x20 MSTORE PUSH1 0x0 SWAP1 DUP2 MSTORE PUSH1 0x40 SWAP1 KECCAK256 SLOAD DUP2 JUMP JUMPDEST PUSH2 0x128 PUSH2 0x3D5 CALLDATASIZE PUSH1 0x4 PUSH2 0x1C03 JUMP JUMPDEST PUSH2 0xDEC JUMP JUMPDEST PUSH2 0x128 PUSH2 0x141B JUMP JUMPDEST PUSH32 0x0 NUMBER GT PUSH2 0x496 JUMPI PUSH1 0x40 MLOAD PUSH32 0x8C379A000000000000000000000000000000000000000000000000000000000 DUP2 MSTORE PUSH1 0x20 PUSH1 0x4 DUP3 ADD MSTORE PUSH1 0x33 PUSH1 0x24 DUP3 ADD MSTORE PUSH32 0x596F752063616E206F6E6C792067657420526577617264732061667465722053 PUSH1 0x44 DUP3 ADD MSTORE PUSH32 0x74616B696E672050726F6772616D20656E647300000000000000000000000000 PUSH1 0x64 DUP3 ADD MSTORE PUSH1 0x84 ADD JUMPDEST PUSH1 0x40 MLOAD DUP1 SWAP2 SUB SWAP1 REVERT JUMPDEST CALLER PUSH1 0x0 SWAP1 DUP2 MSTORE PUSH1 0x20 DUP2 SWAP1 MSTORE PUSH1 0x40 SWAP1 KECCAK256 SLOAD PUSH9 0xFFFFFFFFFFFFFFFFFF AND ISZERO PUSH2 0x564 JUMPI PUSH1 0x40 MLOAD PUSH32 0x8C379A000000000000000000000000000000000000000000000000000000000 DUP2 MSTORE PUSH1 0x20 PUSH1 0x4 DUP3 ADD MSTORE PUSH1 0x50 PUSH1 0x24 DUP3 ADD MSTORE PUSH32 0x596F75207374696C6C20686176652061207374616B65206C6F636B6564202D20 PUSH1 0x44 DUP3 ADD MSTORE PUSH32 0x706C6561736520756E6C6F636B2066697273742C20646F6E2774206C65617665 PUSH1 0x64 DUP3 ADD MSTORE PUSH32 0x2066726565206D6F6E6579206865726500000000000000000000000000000000 PUSH1 0x84 DUP3 ADD MSTORE PUSH1 0xA4 ADD PUSH2 0x48D JUMP JUMPDEST CALLER PUSH1 0x0 SWAP1 DUP2 MSTORE PUSH1 0x1 PUSH1 0x20 MSTORE PUSH1 0x40 SWAP1 KECCAK256 SLOAD PUSH2 0x5DA JUMPI PUSH1 0x40 MLOAD PUSH32 0x8C379A000000000000000000000000000000000000000000000000000000000 DUP2 MSTORE PUSH1 0x20 PUSH1 0x4 DUP3 ADD MSTORE PUSH1 0x1F PUSH1 0x24 DUP3 ADD MSTORE PUSH32 0x596F7520646F6E2774206861766520616E7920726577617264506F696E747300 PUSH1 0x44 DUP3 ADD MSTORE PUSH1 0x64 ADD PUSH2 0x48D JUMP JUMPDEST PUSH1 0x2 SLOAD CALLER PUSH1 0x0 SWAP1 DUP2 MSTORE PUSH1 0x1 PUSH1 0x20 MSTORE PUSH1 0x40 DUP2 KECCAK256 SLOAD SWAP1 SWAP2 SWAP1 PUSH2 0x61A SWAP1 PUSH32 0x0 PUSH2 0x1D32 JUMP JUMPDEST PUSH2 0x624 SWAP2 SWAP1 PUSH2 0x1CF9 JUMP JUMPDEST CALLER PUSH1 0x0 DUP2 DUP2 MSTORE PUSH1 0x1 PUSH1 0x20 MSTORE PUSH1 0x40 DUP2 KECCAK256 SSTORE SWAP1 SWAP2 POP PUSH2 0x641 SWAP1 DUP3 PUSH2 0x1752 JUMP JUMPDEST POP JUMP JUMPDEST PUSH1 0x3 SLOAD PUSH20 0xFFFFFFFFFFFFFFFFFFFFFFFFFFFFFFFFFFFFFFFF AND PUSH2 0x6C3 JUMPI PUSH1 0x40 MLOAD PUSH32 0x8C379A000000000000000000000000000000000000000000000000000000000 DUP2 MSTORE PUSH1 0x20 PUSH1 0x4 DUP3 ADD MSTORE PUSH1 0x11 PUSH1 0x24 DUP3 ADD MSTORE PUSH32 0x706F6F6C546F6B656E206E6F7420736574000000000000000000000000000000 PUSH1 0x44 DUP3 ADD MSTORE PUSH1 0x64 ADD PUSH2 0x48D JUMP JUMPDEST PUSH2 0x6F2 PUSH3 0xFFFFFF DUP3 AND PUSH32 0x0 PUSH2 0x1D6F JUMP JUMPDEST NUMBER GT ISZERO PUSH2 0x781 JUMPI PUSH1 0x40 MLOAD PUSH32 0x8C379A000000000000000000000000000000000000000000000000000000000 DUP2 MSTORE PUSH1 0x20 PUSH1 0x4 DUP3 ADD MSTORE PUSH1 0x31 PUSH1 0x24 DUP3 ADD MSTORE PUSH32 0x596F7572206C6F636B20706572696F642065786365656473205374616B696E67 PUSH1 0x44 DUP3 ADD MSTORE PUSH32 0x2050726F6772616D206475726174696F6E000000000000000000000000000000 PUSH1 0x64 DUP3 ADD MSTORE PUSH1 0x84 ADD PUSH2 0x48D JUMP JUMPDEST CALLER PUSH1 0x0 SWAP1 DUP2 MSTORE PUSH1 0x20 DUP2 SWAP1 MSTORE PUSH1 0x40 SWAP1 KECCAK256 SLOAD PUSH9 0xFFFFFFFFFFFFFFFFFF AND ISZERO PUSH2 0x803 JUMPI PUSH1 0x40 MLOAD PUSH32 0x8C379A000000000000000000000000000000000000000000000000000000000 DUP2 MSTORE PUSH1 0x20 PUSH1 0x4 DUP3 ADD MSTORE PUSH1 0xF PUSH1 0x24 DUP3 ADD MSTORE PUSH32 0x416C7265616479207374616B696E670000000000000000000000000000000000 PUSH1 0x44 DUP3 ADD MSTORE PUSH1 0x64 ADD PUSH2 0x48D JUMP JUMPDEST PUSH1 0x0 PUSH2 0x80F DUP4 DUP4 PUSH2 0xB01 JUMP JUMPDEST PUSH1 0x40 DUP1 MLOAD PUSH1 0x80 DUP2 ADD DUP3 MSTORE PUSH9 0xFFFFFFFFFFFFFFFFFF DUP7 DUP2 AND DUP3 MSTORE PUSH3 0xFFFFFF DUP7 DUP2 AND PUSH1 0x20 DUP1 DUP6 ADD SWAP2 DUP3 MSTORE NUMBER PUSH4 0xFFFFFFFF SWAP1 DUP2 AND DUP7 DUP9 ADD SWAP1 DUP2 MSTORE PUSH16 0xFFFFFFFFFFFFFFFFFFFFFFFFFFFFFFFF DUP10 DUP2 AND PUSH1 0x60 DUP10 ADD DUP2 DUP2 MSTORE CALLER PUSH1 0x0 SWAP1 DUP2 MSTORE SWAP6 DUP7 SWAP1 MSTORE SWAP10 DUP6 KECCAK256 DUP10 MLOAD DUP2 SLOAD SWAP8 MLOAD SWAP5 MLOAD SWAP12 MLOAD SWAP10 AND PUSH32 0xFFFFFFFFFFFFFFFFFFFFFFFFFFFFFFFFFFFFFFFF000000000000000000000000 SWAP1 SWAP8 AND SWAP7 SWAP1 SWAP7 OR PUSH10 0x1000000000000000000 SWAP4 SWAP1 SWAP8 AND SWAP3 SWAP1 SWAP3 MUL SWAP6 SWAP1 SWAP6 OR PUSH12 0xFFFFFFFFFFFFFFFFFFFFFFFF AND PUSH13 0x1000000000000000000000000 SWAP9 SWAP1 SWAP3 AND SWAP8 SWAP1 SWAP8 MUL DUP5 AND OR PUSH17 0x100000000000000000000000000000000 SWAP5 SWAP1 SWAP4 AND SWAP4 SWAP1 SWAP4 MUL SWAP2 SWAP1 SWAP2 OR SWAP1 SSTORE PUSH1 0x2 DUP1 SLOAD SWAP5 SWAP6 POP SWAP2 SWAP4 PUSH2 0x914 SWAP1 DUP5 SWAP1 PUSH2 0x1CB9 JUMP JUMPDEST SWAP1 SWAP2 SSTORE POP POP CALLER PUSH1 0x0 SWAP1 DUP2 MSTORE PUSH1 0x1 PUSH1 0x20 MSTORE PUSH1 0x40 DUP2 KECCAK256 DUP1 SLOAD PUSH16 0xFFFFFFFFFFFFFFFFFFFFFFFFFFFFFFFF DUP6 AND SWAP3 SWAP1 PUSH2 0x94A SWAP1 DUP5 SWAP1 PUSH2 0x1CB9 JUMP JUMPDEST SWAP1 SWAP2 SSTORE POP POP PUSH1 0x3 SLOAD PUSH1 0x40 MLOAD PUSH32 0x23B872DD00000000000000000000000000000000000000000000000000000000 DUP2 MSTORE CALLER PUSH1 0x4 DUP3 ADD MSTORE ADDRESS PUSH1 0x24 DUP3 ADD MSTORE PUSH9 0xFFFFFFFFFFFFFFFFFF DUP7 AND PUSH1 0x44 DUP3 ADD MSTORE PUSH20 0xFFFFFFFFFFFFFFFFFFFFFFFFFFFFFFFFFFFFFFFF SWAP1 SWAP2 AND SWAP1 PUSH4 0x23B872DD SWAP1 PUSH1 0x64 ADD PUSH1 0x20 PUSH1 0x40 MLOAD DUP1 DUP4 SUB DUP2 PUSH1 0x0 DUP8 DUP1 EXTCODESIZE ISZERO DUP1 ISZERO PUSH2 0x9D1 JUMPI PUSH1 0x0 DUP1 REVERT JUMPDEST POP GAS CALL ISZERO DUP1 ISZERO PUSH2 0x9E5 JUMPI RETURNDATASIZE PUSH1 0x0 DUP1 RETURNDATACOPY RETURNDATASIZE PUSH1 0x0 REVERT JUMPDEST POP POP POP POP PUSH1 0x40 MLOAD RETURNDATASIZE PUSH1 0x1F NOT PUSH1 0x1F DUP3 ADD AND DUP3 ADD DUP1 PUSH1 0x40 MSTORE POP DUP2 ADD SWAP1 PUSH2 0xA09 SWAP2 SWAP1 PUSH2 0x1C35 JUMP JUMPDEST PUSH2 0xA95 JUMPI PUSH1 0x40 MLOAD PUSH32 0x8C379A000000000000000000000000000000000000000000000000000000000 DUP2 MSTORE PUSH1 0x20 PUSH1 0x4 DUP3 ADD MSTORE PUSH1 0x21 PUSH1 0x24 DUP3 ADD MSTORE PUSH32 0x5472616E7366657246726F6D206F6620706F6F6C546F6B656E73206661696C65 PUSH1 0x44 DUP3 ADD MSTORE PUSH32 0x6400000000000000000000000000000000000000000000000000000000000000 PUSH1 0x64 DUP3 ADD MSTORE PUSH1 0x84 ADD PUSH2 0x48D JUMP JUMPDEST PUSH1 0x40 DUP1 MLOAD CALLER DUP2 MSTORE PUSH9 0xFFFFFFFFFFFFFFFFFF DUP7 AND PUSH1 0x20 DUP3 ADD MSTORE PUSH3 0xFFFFFF DUP6 AND DUP2 DUP4 ADD MSTORE PUSH16 0xFFFFFFFFFFFFFFFFFFFFFFFFFFFFFFFF DUP5 AND PUSH1 0x60 DUP3 ADD MSTORE SWAP1 MLOAD PUSH32 0xE7DBEA143058F90BE7A1644E539342C25DDC5379868FE922BAB596DE99DEBF41 SWAP2 DUP2 SWAP1 SUB PUSH1 0x80 ADD SWAP1 LOG1 POP POP POP POP JUMP JUMPDEST PUSH1 0x0 DUP1 PUSH3 0xFFFFFF DUP4 AND PUSH2 0xB1F DUP2 PUSH9 0xFFFFFFFFFFFFFFFFFF DUP8 AND PUSH2 0x1D32 JUMP JUMPDEST PUSH2 0xB29 SWAP2 SWAP1 PUSH2 0x1D32 JUMP JUMPDEST SWAP1 POP PUSH1 0x0 DUP2 GT PUSH2 0xBBB JUMPI PUSH1 0x40 MLOAD PUSH32 0x8C379A000000000000000000000000000000000000000000000000000000000 DUP2 MSTORE PUSH1 0x20 PUSH1 0x4 DUP3 ADD MSTORE PUSH1 0x33 PUSH1 0x24 DUP3 ADD MSTORE PUSH32 0x4E65697468657220746F6B656E416D6F756E74206E6F72206C6F636B696E6750 PUSH1 0x44 DUP3 ADD MSTORE PUSH32 0x6572696F6420636F756C646E2774206265203000000000000000000000000000 PUSH1 0x64 DUP3 ADD MSTORE PUSH1 0x84 ADD PUSH2 0x48D JUMP JUMPDEST SWAP4 SWAP3 POP POP POP JUMP JUMPDEST PUSH1 0x0 PUSH2 0xBCD CALLER PUSH2 0x18EA JUMP JUMPDEST SWAP1 POP PUSH1 0x0 DUP2 GT PUSH2 0xC5F JUMPI PUSH1 0x40 MLOAD PUSH32 0x8C379A000000000000000000000000000000000000000000000000000000000 DUP2 MSTORE PUSH1 0x20 PUSH1 0x4 DUP3 ADD MSTORE PUSH1 0x22 PUSH1 0x24 DUP3 ADD MSTORE PUSH32 0x56657374696E672072656C656173653A206E6F20746F6B656E73206172652064 PUSH1 0x44 DUP3 ADD MSTORE PUSH32 0x7565000000000000000000000000000000000000000000000000000000000000 PUSH1 0x64 DUP3 ADD MSTORE PUSH1 0x84 ADD PUSH2 0x48D JUMP JUMPDEST CALLER PUSH1 0x0 SWAP1 DUP2 MSTORE PUSH1 0x5 PUSH1 0x20 MSTORE PUSH1 0x40 DUP2 KECCAK256 DUP1 SLOAD DUP4 SWAP3 SWAP1 PUSH2 0xC7E SWAP1 DUP5 SWAP1 PUSH2 0x1CB9 JUMP JUMPDEST SWAP1 SWAP2 SSTORE POP POP PUSH1 0x40 MLOAD PUSH32 0xA9059CBB00000000000000000000000000000000000000000000000000000000 DUP2 MSTORE CALLER PUSH1 0x4 DUP3 ADD MSTORE PUSH1 0x24 DUP2 ADD DUP3 SWAP1 MSTORE PUSH32 0x0 PUSH20 0xFFFFFFFFFFFFFFFFFFFFFFFFFFFFFFFFFFFFFFFF AND SWAP1 PUSH4 0xA9059CBB SWAP1 PUSH1 0x44 ADD PUSH1 0x20 PUSH1 0x40 MLOAD DUP1 DUP4 SUB DUP2 PUSH1 0x0 DUP8 DUP1 EXTCODESIZE ISZERO DUP1 ISZERO PUSH2 0xD11 JUMPI PUSH1 0x0 DUP1 REVERT JUMPDEST POP GAS CALL ISZERO DUP1 ISZERO PUSH2 0xD25 JUMPI RETURNDATASIZE PUSH1 0x0 DUP1 RETURNDATACOPY RETURNDATASIZE PUSH1 0x0 REVERT JUMPDEST POP POP POP POP PUSH1 0x40 MLOAD RETURNDATASIZE PUSH1 0x1F NOT PUSH1 0x1F DUP3 ADD AND DUP3 ADD DUP1 PUSH1 0x40 MSTORE POP DUP2 ADD SWAP1 PUSH2 0xD49 SWAP2 SWAP1 PUSH2 0x1C35 JUMP JUMPDEST PUSH2 0xDAF JUMPI PUSH1 0x40 MLOAD PUSH32 0x8C379A000000000000000000000000000000000000000000000000000000000 DUP2 MSTORE PUSH1 0x20 PUSH1 0x4 DUP3 ADD MSTORE PUSH1 0x1D PUSH1 0x24 DUP3 ADD MSTORE PUSH32 0x526577617264206F696C657273207472616E73666572206661696C6564000000 PUSH1 0x44 DUP3 ADD MSTORE PUSH1 0x64 ADD PUSH2 0x48D JUMP JUMPDEST PUSH1 0x40 DUP1 MLOAD CALLER DUP2 MSTORE PUSH1 0x20 DUP2 ADD DUP4 SWAP1 MSTORE PUSH32 0x769D4212C4FBFAA012A896B49E0F3BB14D32DD0D60CE1A13D357EE6B69DB77C2 SWAP2 ADD JUMPDEST PUSH1 0x40 MLOAD DUP1 SWAP2 SUB SWAP1 LOG1 POP JUMP JUMPDEST CALLER PUSH20 0xFFFFFFFFFFFFFFFFFFFFFFFFFFFFFFFFFFFFFFFF PUSH32 0x0 AND EQ PUSH2 0xE8B JUMPI PUSH1 0x40 MLOAD PUSH32 0x8C379A000000000000000000000000000000000000000000000000000000000 DUP2 MSTORE PUSH1 0x20 PUSH1 0x4 DUP3 ADD MSTORE PUSH1 0x1B PUSH1 0x24 DUP3 ADD MSTORE PUSH32 0x43616E206F6E6C792062652063616C6C6564206279206F776E65720000000000 PUSH1 0x44 DUP3 ADD MSTORE PUSH1 0x64 ADD PUSH2 0x48D JUMP JUMPDEST PUSH1 0x3 SLOAD PUSH20 0xFFFFFFFFFFFFFFFFFFFFFFFFFFFFFFFFFFFFFFFF AND ISZERO PUSH2 0xF0B JUMPI PUSH1 0x40 MLOAD PUSH32 0x8C379A000000000000000000000000000000000000000000000000000000000 DUP2 MSTORE PUSH1 0x20 PUSH1 0x4 DUP3 ADD MSTORE PUSH1 0x19 PUSH1 0x24 DUP3 ADD MSTORE PUSH32 0x706F6F6C546F6B656E2077617320616C72656164792073657400000000000000 PUSH1 0x44 DUP3 ADD MSTORE PUSH1 0x64 ADD PUSH2 0x48D JUMP JUMPDEST PUSH20 0xFFFFFFFFFFFFFFFFFFFFFFFFFFFFFFFFFFFFFFFF DUP3 AND PUSH2 0xF88 JUMPI PUSH1 0x40 MLOAD PUSH32 0x8C379A000000000000000000000000000000000000000000000000000000000 DUP2 MSTORE PUSH1 0x20 PUSH1 0x4 DUP3 ADD DUP2 SWAP1 MSTORE PUSH1 0x24 DUP3 ADD MSTORE PUSH32 0x706F6F6C546F6B656E20616464726573732063616E6E6F74206265207A65726F PUSH1 0x44 DUP3 ADD MSTORE PUSH1 0x64 ADD PUSH2 0x48D JUMP JUMPDEST PUSH1 0x3 DUP1 SLOAD PUSH32 0xFFFFFFFFFFFFFFFFFFFFFFFF0000000000000000000000000000000000000000 AND PUSH20 0xFFFFFFFFFFFFFFFFFFFFFFFFFFFFFFFFFFFFFFFF DUP5 DUP2 AND SWAP2 SWAP1 SWAP2 OR SWAP1 SWAP2 SSTORE PUSH1 0x40 MLOAD PUSH32 0x70A0823100000000000000000000000000000000000000000000000000000000 DUP2 MSTORE DUP3 DUP3 AND PUSH1 0x4 DUP3 ADD MSTORE PUSH32 0x0 SWAP2 PUSH32 0x0 AND SWAP1 PUSH4 0x70A08231 SWAP1 PUSH1 0x24 ADD PUSH1 0x20 PUSH1 0x40 MLOAD DUP1 DUP4 SUB DUP2 DUP7 DUP1 EXTCODESIZE ISZERO DUP1 ISZERO PUSH2 0x1061 JUMPI PUSH1 0x0 DUP1 REVERT JUMPDEST POP GAS STATICCALL ISZERO DUP1 ISZERO PUSH2 0x1075 JUMPI RETURNDATASIZE PUSH1 0x0 DUP1 RETURNDATACOPY RETURNDATASIZE PUSH1 0x0 REVERT JUMPDEST POP POP POP POP PUSH1 0x40 MLOAD RETURNDATASIZE PUSH1 0x1F NOT PUSH1 0x1F DUP3 ADD AND DUP3 ADD DUP1 PUSH1 0x40 MSTORE POP DUP2 ADD SWAP1 PUSH2 0x1099 SWAP2 SWAP1 PUSH2 0x1C55 JUMP JUMPDEST LT ISZERO PUSH2 0x1127 JUMPI PUSH1 0x40 MLOAD PUSH32 0x8C379A000000000000000000000000000000000000000000000000000000000 DUP2 MSTORE PUSH1 0x20 PUSH1 0x4 DUP3 ADD MSTORE PUSH1 0x2B PUSH1 0x24 DUP3 ADD MSTORE PUSH32 0x5374616B696E6746756E6420646F65736E2774206861766520656E6F75676820 PUSH1 0x44 DUP3 ADD MSTORE PUSH32 0x4F494C2062616C616E6365000000000000000000000000000000000000000000 PUSH1 0x64 DUP3 ADD MSTORE PUSH1 0x84 ADD PUSH2 0x48D JUMP JUMPDEST PUSH1 0x40 MLOAD PUSH32 0xDD62ED3E00000000000000000000000000000000000000000000000000000000 DUP2 MSTORE PUSH20 0xFFFFFFFFFFFFFFFFFFFFFFFFFFFFFFFFFFFFFFFF DUP3 DUP2 AND PUSH1 0x4 DUP4 ADD MSTORE ADDRESS PUSH1 0x24 DUP4 ADD MSTORE PUSH32 0x0 SWAP2 PUSH32 0x0 SWAP1 SWAP2 AND SWAP1 PUSH4 0xDD62ED3E SWAP1 PUSH1 0x44 ADD PUSH1 0x20 PUSH1 0x40 MLOAD DUP1 DUP4 SUB DUP2 DUP7 DUP1 EXTCODESIZE ISZERO DUP1 ISZERO PUSH2 0x11D8 JUMPI PUSH1 0x0 DUP1 REVERT JUMPDEST POP GAS STATICCALL ISZERO DUP1 ISZERO PUSH2 0x11EC JUMPI RETURNDATASIZE PUSH1 0x0 DUP1 RETURNDATACOPY RETURNDATASIZE PUSH1 0x0 REVERT JUMPDEST POP POP POP POP PUSH1 0x40 MLOAD RETURNDATASIZE PUSH1 0x1F NOT PUSH1 0x1F DUP3 ADD AND DUP3 ADD DUP1 PUSH1 0x40 MSTORE POP DUP2 ADD SWAP1 PUSH2 0x1210 SWAP2 SWAP1 PUSH2 0x1C55 JUMP JUMPDEST LT ISZERO PUSH2 0x129E JUMPI PUSH1 0x40 MLOAD PUSH32 0x8C379A000000000000000000000000000000000000000000000000000000000 DUP2 MSTORE PUSH1 0x20 PUSH1 0x4 DUP3 ADD MSTORE PUSH1 0x29 PUSH1 0x24 DUP3 ADD MSTORE PUSH32 0x5374616B696E6746756E6420646F65736E2774206861766520656E6F75676820 PUSH1 0x44 DUP3 ADD MSTORE PUSH32 0x616C6C6F77616E63650000000000000000000000000000000000000000000000 PUSH1 0x64 DUP3 ADD MSTORE PUSH1 0x84 ADD PUSH2 0x48D JUMP JUMPDEST PUSH1 0x40 MLOAD PUSH32 0x23B872DD00000000000000000000000000000000000000000000000000000000 DUP2 MSTORE PUSH20 0xFFFFFFFFFFFFFFFFFFFFFFFFFFFFFFFFFFFFFFFF DUP3 DUP2 AND PUSH1 0x4 DUP4 ADD MSTORE ADDRESS PUSH1 0x24 DUP4 ADD MSTORE PUSH32 0x0 PUSH1 0x44 DUP4 ADD MSTORE PUSH32 0x0 AND SWAP1 PUSH4 0x23B872DD SWAP1 PUSH1 0x64 ADD PUSH1 0x20 PUSH1 0x40 MLOAD DUP1 DUP4 SUB DUP2 PUSH1 0x0 DUP8 DUP1 EXTCODESIZE ISZERO DUP1 ISZERO PUSH2 0x1353 JUMPI PUSH1 0x0 DUP1 REVERT JUMPDEST POP GAS CALL ISZERO DUP1 ISZERO PUSH2 0x1367 JUMPI RETURNDATASIZE PUSH1 0x0 DUP1 RETURNDATACOPY RETURNDATASIZE PUSH1 0x0 REVERT JUMPDEST POP POP POP POP PUSH1 0x40 MLOAD RETURNDATASIZE PUSH1 0x1F NOT PUSH1 0x1F DUP3 ADD AND DUP3 ADD DUP1 PUSH1 0x40 MSTORE POP DUP2 ADD SWAP1 PUSH2 0x138B SWAP2 SWAP1 PUSH2 0x1C35 JUMP JUMPDEST PUSH2 0x1417 JUMPI PUSH1 0x40 MLOAD PUSH32 0x8C379A000000000000000000000000000000000000000000000000000000000 DUP2 MSTORE PUSH1 0x20 PUSH1 0x4 DUP3 ADD MSTORE PUSH1 0x2B PUSH1 0x24 DUP3 ADD MSTORE PUSH32 0x5472616E7366657246726F6D206F66204F494C2066726F6D205374616B696E67 PUSH1 0x44 DUP3 ADD MSTORE PUSH32 0x46756E64206661696C6564000000000000000000000000000000000000000000 PUSH1 0x64 DUP3 ADD MSTORE PUSH1 0x84 ADD PUSH2 0x48D JUMP JUMPDEST POP POP JUMP JUMPDEST PUSH1 0x3 SLOAD PUSH20 0xFFFFFFFFFFFFFFFFFFFFFFFFFFFFFFFFFFFFFFFF AND PUSH2 0x149A JUMPI PUSH1 0x40 MLOAD PUSH32 0x8C379A000000000000000000000000000000000000000000000000000000000 DUP2 MSTORE PUSH1 0x20 PUSH1 0x4 DUP3 ADD MSTORE PUSH1 0x11 PUSH1 0x24 DUP3 ADD MSTORE PUSH32 0x706F6F6C546F6B656E206E6F7420736574000000000000000000000000000000 PUSH1 0x44 DUP3 ADD MSTORE PUSH1 0x64 ADD PUSH2 0x48D JUMP JUMPDEST CALLER PUSH1 0x0 SWAP1 DUP2 MSTORE PUSH1 0x20 DUP2 DUP2 MSTORE PUSH1 0x40 SWAP2 DUP3 SWAP1 KECCAK256 DUP3 MLOAD PUSH1 0x80 DUP2 ADD DUP5 MSTORE SWAP1 SLOAD PUSH9 0xFFFFFFFFFFFFFFFFFF DUP2 AND DUP1 DUP4 MSTORE PUSH10 0x1000000000000000000 DUP3 DIV PUSH3 0xFFFFFF AND SWAP4 DUP4 ADD SWAP4 SWAP1 SWAP4 MSTORE PUSH13 0x1000000000000000000000000 DUP2 DIV PUSH4 0xFFFFFFFF AND SWAP4 DUP3 ADD SWAP4 SWAP1 SWAP4 MSTORE PUSH17 0x100000000000000000000000000000000 SWAP1 SWAP3 DIV PUSH16 0xFFFFFFFFFFFFFFFFFFFFFFFFFFFFFFFF AND PUSH1 0x60 DUP4 ADD MSTORE DUP1 PUSH2 0x158D JUMPI PUSH1 0x40 MLOAD PUSH32 0x8C379A000000000000000000000000000000000000000000000000000000000 DUP2 MSTORE PUSH1 0x20 PUSH1 0x4 DUP3 ADD DUP2 SWAP1 MSTORE PUSH1 0x24 DUP3 ADD MSTORE PUSH32 0x596F7520646F6E277420686176652061207374616B6520746F20756E6C6F636B PUSH1 0x44 DUP3 ADD MSTORE PUSH1 0x64 ADD PUSH2 0x48D JUMP JUMPDEST DUP2 PUSH1 0x40 ADD MLOAD PUSH4 0xFFFFFFFF AND NUMBER GT PUSH2 0x1626 JUMPI PUSH1 0x40 MLOAD PUSH32 0x8C379A000000000000000000000000000000000000000000000000000000000 DUP2 MSTORE PUSH1 0x20 PUSH1 0x4 DUP3 ADD MSTORE PUSH1 0x3C PUSH1 0x24 DUP3 ADD MSTORE PUSH32 0x596F752063616E277420776974686472617720746865207374616B6520696E20 PUSH1 0x44 DUP3 ADD MSTORE PUSH32 0x7468652073616D6520626C6F636B20697420776173206C6F636B656400000000 PUSH1 0x64 DUP3 ADD MSTORE PUSH1 0x84 ADD PUSH2 0x48D JUMP JUMPDEST PUSH2 0x162F DUP3 PUSH2 0x1929 JUMP JUMPDEST CALLER PUSH1 0x0 DUP2 DUP2 MSTORE PUSH1 0x20 DUP2 SWAP1 MSTORE PUSH1 0x40 DUP1 DUP3 KECCAK256 SWAP2 SWAP1 SWAP2 SSTORE PUSH1 0x3 SLOAD SWAP1 MLOAD PUSH32 0xA9059CBB00000000000000000000000000000000000000000000000000000000 DUP2 MSTORE PUSH1 0x4 DUP2 ADD SWAP3 SWAP1 SWAP3 MSTORE PUSH1 0x24 DUP3 ADD DUP4 SWAP1 MSTORE PUSH20 0xFFFFFFFFFFFFFFFFFFFFFFFFFFFFFFFFFFFFFFFF AND SWAP1 PUSH4 0xA9059CBB SWAP1 PUSH1 0x44 ADD PUSH1 0x20 PUSH1 0x40 MLOAD DUP1 DUP4 SUB DUP2 PUSH1 0x0 DUP8 DUP1 EXTCODESIZE ISZERO DUP1 ISZERO PUSH2 0x16B4 JUMPI PUSH1 0x0 DUP1 REVERT JUMPDEST POP GAS CALL ISZERO DUP1 ISZERO PUSH2 0x16C8 JUMPI RETURNDATASIZE PUSH1 0x0 DUP1 RETURNDATACOPY RETURNDATASIZE PUSH1 0x0 REVERT JUMPDEST POP POP POP POP PUSH1 0x40 MLOAD RETURNDATASIZE PUSH1 0x1F NOT PUSH1 0x1F DUP3 ADD AND DUP3 ADD DUP1 PUSH1 0x40 MSTORE POP DUP2 ADD SWAP1 PUSH2 0x16EC SWAP2 SWAP1 PUSH2 0x1C35 JUMP JUMPDEST PUSH2 0x1417 JUMPI PUSH1 0x40 MLOAD PUSH32 0x8C379A000000000000000000000000000000000000000000000000000000000 DUP2 MSTORE PUSH1 0x20 PUSH1 0x4 DUP3 ADD MSTORE PUSH1 0x1A PUSH1 0x24 DUP3 ADD MSTORE PUSH32 0x506F6F6C20746F6B656E207472616E73666572206661696C6564000000000000 PUSH1 0x44 DUP3 ADD MSTORE PUSH1 0x64 ADD PUSH2 0x48D JUMP JUMPDEST PUSH1 0x0 DUP2 GT PUSH2 0x17E2 JUMPI PUSH1 0x40 MLOAD PUSH32 0x8C379A000000000000000000000000000000000000000000000000000000000 DUP2 MSTORE PUSH1 0x20 PUSH1 0x4 DUP3 ADD MSTORE PUSH1 0x29 PUSH1 0x24 DUP3 ADD MSTORE PUSH32 0x596F75206469646E2774206561726E20616E7920696E746567657220616D6F75 PUSH1 0x44 DUP3 ADD MSTORE PUSH32 0x6E74206F66207765690000000000000000000000000000000000000000000000 PUSH1 0x64 DUP3 ADD MSTORE PUSH1 0x84 ADD PUSH2 0x48D JUMP JUMPDEST PUSH20 0xFFFFFFFFFFFFFFFFFFFFFFFFFFFFFFFFFFFFFFFF DUP3 AND PUSH2 0x1885 JUMPI PUSH1 0x40 MLOAD PUSH32 0x8C379A000000000000000000000000000000000000000000000000000000000 DUP2 MSTORE PUSH1 0x20 PUSH1 0x4 DUP3 ADD MSTORE PUSH1 0x2D PUSH1 0x24 DUP3 ADD MSTORE PUSH32 0x546F6B656E56657374696E673A2062656E656669636961727920697320746865 PUSH1 0x44 DUP3 ADD MSTORE PUSH32 0x207A65726F206164647265737300000000000000000000000000000000000000 PUSH1 0x64 DUP3 ADD MSTORE PUSH1 0x84 ADD PUSH2 0x48D JUMP JUMPDEST PUSH20 0xFFFFFFFFFFFFFFFFFFFFFFFFFFFFFFFFFFFFFFFF DUP3 AND PUSH1 0x0 DUP2 DUP2 MSTORE PUSH1 0x4 PUSH1 0x20 SWAP1 DUP2 MSTORE PUSH1 0x40 SWAP2 DUP3 SWAP1 KECCAK256 DUP5 SWAP1 SSTORE DUP2 MLOAD SWAP3 DUP4 MSTORE DUP3 ADD DUP4 SWAP1 MSTORE PUSH32 0x6E1AFD29522B0AAF986597BCC53F5FB4DAAE2AF7CFD41D00C384AB1BDF912B23 SWAP2 ADD PUSH1 0x40 MLOAD DUP1 SWAP2 SUB SWAP1 LOG1 POP POP JUMP JUMPDEST PUSH20 0xFFFFFFFFFFFFFFFFFFFFFFFFFFFFFFFFFFFFFFFF DUP2 AND PUSH1 0x0 SWAP1 DUP2 MSTORE PUSH1 0x5 PUSH1 0x20 MSTORE PUSH1 0x40 DUP2 KECCAK256 SLOAD PUSH2 0x1919 DUP4 PUSH2 0x1AC0 JUMP JUMPDEST PUSH2 0x1923 SWAP2 SWAP1 PUSH2 0x1D6F JUMP JUMPDEST SWAP3 SWAP2 POP POP JUMP JUMPDEST DUP1 PUSH1 0x20 ADD MLOAD PUSH3 0xFFFFFF AND DUP2 PUSH1 0x40 ADD MLOAD PUSH2 0x1942 SWAP2 SWAP1 PUSH2 0x1CD1 JUMP JUMPDEST PUSH4 0xFFFFFFFF AND NUMBER LT ISZERO PUSH2 0x1A49 JUMPI PUSH1 0x60 DUP2 ADD MLOAD CALLER PUSH1 0x0 SWAP1 DUP2 MSTORE PUSH1 0x1 PUSH1 0x20 MSTORE PUSH1 0x40 DUP2 KECCAK256 DUP1 SLOAD PUSH16 0xFFFFFFFFFFFFFFFFFFFFFFFFFFFFFFFF SWAP1 SWAP4 AND SWAP3 SWAP1 SWAP2 SWAP1 PUSH2 0x1988 SWAP1 DUP5 SWAP1 PUSH2 0x1D6F JUMP JUMPDEST SWAP3 POP POP DUP2 SWAP1 SSTORE POP DUP1 PUSH1 0x60 ADD MLOAD PUSH16 0xFFFFFFFFFFFFFFFFFFFFFFFFFFFFFFFF AND PUSH1 0x2 PUSH1 0x0 DUP3 DUP3 SLOAD PUSH2 0x19B7 SWAP2 SWAP1 PUSH2 0x1D6F JUMP JUMPDEST SWAP1 SWAP2 SSTORE POP POP DUP1 MLOAD PUSH1 0x20 DUP3 ADD MLOAD PUSH1 0x40 DUP4 ADD MLOAD PUSH32 0x6C6F3C7D8C87976393011CC962DA12841024BC1D62D2DE21716A6306AB314EF3 SWAP3 CALLER SWAP3 SWAP1 SWAP2 PUSH2 0x19FE SWAP1 PUSH4 0xFFFFFFFF AND NUMBER PUSH2 0x1D6F JUMP JUMPDEST PUSH1 0x40 DUP1 MLOAD PUSH20 0xFFFFFFFFFFFFFFFFFFFFFFFFFFFFFFFFFFFFFFFF SWAP1 SWAP6 AND DUP6 MSTORE PUSH9 0xFFFFFFFFFFFFFFFFFF SWAP1 SWAP4 AND PUSH1 0x20 DUP6 ADD MSTORE PUSH3 0xFFFFFF SWAP1 SWAP2 AND SWAP2 DUP4 ADD SWAP2 SWAP1 SWAP2 MSTORE PUSH1 0x60 DUP3 ADD MSTORE PUSH1 0x80 ADD PUSH2 0xDE1 JUMP JUMPDEST DUP1 MLOAD PUSH1 0x20 DUP1 DUP4 ADD MLOAD PUSH1 0x60 DUP1 DUP6 ADD MLOAD PUSH1 0x40 DUP1 MLOAD CALLER DUP2 MSTORE PUSH9 0xFFFFFFFFFFFFFFFFFF SWAP1 SWAP7 AND SWAP5 DUP7 ADD SWAP5 SWAP1 SWAP5 MSTORE PUSH3 0xFFFFFF SWAP1 SWAP3 AND SWAP3 DUP5 ADD SWAP3 SWAP1 SWAP3 MSTORE PUSH16 0xFFFFFFFFFFFFFFFFFFFFFFFFFFFFFFFF AND SWAP1 DUP3 ADD MSTORE PUSH32 0x391930AB48E95A9040C849CC86E1B2F63C711A1F59D6E324CE775DC9A0051056 SWAP1 PUSH1 0x80 ADD PUSH2 0xDE1 JUMP JUMPDEST PUSH1 0x0 PUSH2 0x1B0C PUSH32 0x0 PUSH32 0x0 PUSH2 0x1CB9 JUMP JUMPDEST NUMBER LT PUSH2 0x1B3B JUMPI POP PUSH20 0xFFFFFFFFFFFFFFFFFFFFFFFFFFFFFFFFFFFFFFFF AND PUSH1 0x0 SWAP1 DUP2 MSTORE PUSH1 0x4 PUSH1 0x20 MSTORE PUSH1 0x40 SWAP1 KECCAK256 SLOAD SWAP1 JUMP JUMPDEST PUSH32 0x0 PUSH2 0x1B86 PUSH32 0x0 NUMBER PUSH2 0x1D6F JUMP JUMPDEST PUSH20 0xFFFFFFFFFFFFFFFFFFFFFFFFFFFFFFFFFFFFFFFF DUP5 AND PUSH1 0x0 SWAP1 DUP2 MSTORE PUSH1 0x4 PUSH1 0x20 MSTORE PUSH1 0x40 SWAP1 KECCAK256 SLOAD PUSH2 0x1BB6 SWAP2 SWAP1 PUSH2 0x1D32 JUMP JUMPDEST PUSH2 0x1923 SWAP2 SWAP1 PUSH2 0x1CF9 JUMP JUMPDEST SWAP2 SWAP1 POP JUMP JUMPDEST DUP1 CALLDATALOAD PUSH20 0xFFFFFFFFFFFFFFFFFFFFFFFFFFFFFFFFFFFFFFFF DUP2 AND DUP2 EQ PUSH2 0x1BC0 JUMPI PUSH1 0x0 DUP1 REVERT JUMPDEST PUSH1 0x0 PUSH1 0x20 DUP3 DUP5 SUB SLT ISZERO PUSH2 0x1BFA JUMPI DUP1 DUP2 REVERT JUMPDEST PUSH2 0xBBB DUP3 PUSH2 0x1BC5 JUMP JUMPDEST PUSH1 0x0 DUP1 PUSH1 0x40 DUP4 DUP6 SUB SLT ISZERO PUSH2 0x1C15 JUMPI DUP1 DUP2 REVERT JUMPDEST PUSH2 0x1C1E DUP4 PUSH2 0x1BC5 JUMP JUMPDEST SWAP2 POP PUSH2 0x1C2C PUSH1 0x20 DUP5 ADD PUSH2 0x1BC5 JUMP JUMPDEST SWAP1 POP SWAP3 POP SWAP3 SWAP1 POP JUMP JUMPDEST PUSH1 0x0 PUSH1 0x20 DUP3 DUP5 SUB SLT ISZERO PUSH2 0x1C46 JUMPI DUP1 DUP2 REVERT JUMPDEST DUP2 MLOAD DUP1 ISZERO ISZERO DUP2 EQ PUSH2 0xBBB JUMPI DUP2 DUP3 REVERT JUMPDEST PUSH1 0x0 PUSH1 0x20 DUP3 DUP5 SUB SLT ISZERO PUSH2 0x1C66 JUMPI DUP1 DUP2 REVERT JUMPDEST POP MLOAD SWAP2 SWAP1 POP JUMP JUMPDEST PUSH1 0x0 DUP1 PUSH1 0x40 DUP4 DUP6 SUB SLT ISZERO PUSH2 0x1C7F JUMPI DUP2 DUP3 REVERT JUMPDEST DUP3 CALLDATALOAD PUSH9 0xFFFFFFFFFFFFFFFFFF DUP2 AND DUP2 EQ PUSH2 0x1C97 JUMPI DUP3 DUP4 REVERT JUMPDEST SWAP2 POP PUSH1 0x20 DUP4 ADD CALLDATALOAD PUSH3 0xFFFFFF DUP2 AND DUP2 EQ PUSH2 0x1CAE JUMPI DUP2 DUP3 REVERT JUMPDEST DUP1 SWAP2 POP POP SWAP3 POP SWAP3 SWAP1 POP JUMP JUMPDEST PUSH1 0x0 DUP3 NOT DUP3 GT ISZERO PUSH2 0x1CCC JUMPI PUSH2 0x1CCC PUSH2 0x1D86 JUMP JUMPDEST POP ADD SWAP1 JUMP JUMPDEST PUSH1 0x0 PUSH4 0xFFFFFFFF DUP1 DUP4 AND DUP2 DUP6 AND DUP1 DUP4 SUB DUP3 GT ISZERO PUSH2 0x1CF0 JUMPI PUSH2 0x1CF0 PUSH2 0x1D86 JUMP JUMPDEST ADD SWAP5 SWAP4 POP POP POP POP JUMP JUMPDEST PUSH1 0x0 DUP3 PUSH2 0x1D2D JUMPI PUSH32 0x4E487B7100000000000000000000000000000000000000000000000000000000 DUP2 MSTORE PUSH1 0x12 PUSH1 0x4 MSTORE PUSH1 0x24 DUP2 REVERT JUMPDEST POP DIV SWAP1 JUMP JUMPDEST PUSH1 0x0 DUP2 PUSH32 0xFFFFFFFFFFFFFFFFFFFFFFFFFFFFFFFFFFFFFFFFFFFFFFFFFFFFFFFFFFFFFFFF DIV DUP4 GT DUP3 ISZERO ISZERO AND ISZERO PUSH2 0x1D6A JUMPI PUSH2 0x1D6A PUSH2 0x1D86 JUMP JUMPDEST POP MUL SWAP1 JUMP JUMPDEST PUSH1 0x0 DUP3 DUP3 LT ISZERO PUSH2 0x1D81 JUMPI PUSH2 0x1D81 PUSH2 0x1D86 JUMP JUMPDEST POP SUB SWAP1 JUMP JUMPDEST PUSH32 0x4E487B7100000000000000000000000000000000000000000000000000000000 PUSH1 0x0 MSTORE PUSH1 0x11 PUSH1 0x4 MSTORE PUSH1 0x24 PUSH1 0x0 REVERT INVALID LOG2 PUSH5 0x6970667358 0x22 SLT KECCAK256 0xB2 SGT 0xDD RETURNDATASIZE 0xEF DUP4 SLOAD 0xC8 MLOAD 0x24 0xC7 PUSH29 0xB7C25D47BD8A5643391E9B3C6AC44CE1C6270FE564736F6C6343000804 STOP CALLER "
		},
		"gasEstimates": {
			"creation": {
				"codeDepositCost": "1531800",
				"executionCost": "infinite",
				"totalCost": "infinite"
			},
			"external": {
				"calculateStakingRewardPoints(uint72,uint24)": "infinite",
				"getRewards()": "infinite",
				"grantedTokens(address)": "1240",
				"lockTokens(uint72,uint24)": "infinite",
				"oilerToken()": "infinite",
				"owner()": "infinite",
				"poolToken()": "1080",
				"release()": "infinite",
				"releasedTokens(address)": "1241",
				"rewardPointsEarned(address)": "1241",
				"setPoolToken(address,address)": "infinite",
				"stakes(address)": "1443",
				"stakingFundAmount()": "infinite",
				"stakingProgramEndsBlock()": "infinite",
				"totalRewardPoints()": "1073",
				"unlockTokens()": "infinite",
				"vestingDuration()": "infinite"
			},
			"internal": {
				"_grantTokens(address,uint256)": "infinite",
				"_punishEarlyWithdrawal(struct Staking.Stake memory)": "infinite",
				"_releasableAmount(address)": "infinite",
				"_vestedAmount(address)": "infinite"
			}
		},
		"methodIdentifiers": {
			"calculateStakingRewardPoints(uint72,uint24)": "798633b9",
			"getRewards()": "0572b0cc",
			"grantedTokens(address)": "e0e4a722",
			"lockTokens(uint72,uint24)": "378592c8",
			"oilerToken()": "81e9207d",
			"owner()": "8da5cb5b",
			"poolToken()": "cbdf382c",
			"release()": "86d1a69f",
			"releasedTokens(address)": "70ff852b",
			"rewardPointsEarned(address)": "c959360b",
			"setPoolToken(address,address)": "f6ffab88",
			"stakes(address)": "16934fc4",
			"stakingFundAmount()": "52946b04",
			"stakingProgramEndsBlock()": "bc0925ae",
			"totalRewardPoints()": "c2e8caf6",
			"unlockTokens()": "f968f493",
			"vestingDuration()": "1514617e"
		}
	},
	"abi": [
		{
			"inputs": [
				{
					"internalType": "address",
					"name": "oilerToken_",
					"type": "address"
				},
				{
					"internalType": "uint256",
					"name": "stakingDurationInBlocks_",
					"type": "uint256"
				},
				{
					"internalType": "uint256",
					"name": "stakingFundAmount_",
					"type": "uint256"
				},
				{
					"internalType": "uint256",
					"name": "vestingDuration_",
					"type": "uint256"
				},
				{
					"internalType": "address",
					"name": "owner_",
					"type": "address"
				}
			],
			"stateMutability": "nonpayable",
			"type": "constructor"
		},
		{
			"anonymous": false,
			"inputs": [
				{
					"indexed": false,
					"internalType": "address",
					"name": "recipient",
					"type": "address"
				},
				{
					"indexed": false,
					"internalType": "uint256",
					"name": "amountEarned",
					"type": "uint256"
				}
			],
			"name": "RewardGranted",
			"type": "event"
		},
		{
			"anonymous": false,
			"inputs": [
				{
					"indexed": false,
					"internalType": "address",
					"name": "recipient",
					"type": "address"
				},
				{
					"indexed": false,
					"internalType": "uint256",
					"name": "tokenAmount",
					"type": "uint256"
				},
				{
					"indexed": false,
					"internalType": "uint256",
					"name": "lockingPeriodInBlocks",
					"type": "uint256"
				},
				{
					"indexed": false,
					"internalType": "uint256",
					"name": "expectedStakingRewardPoints",
					"type": "uint256"
				}
			],
			"name": "StakeLocked",
			"type": "event"
		},
		{
			"anonymous": false,
			"inputs": [
				{
					"indexed": false,
					"internalType": "address",
					"name": "recipient",
					"type": "address"
				},
				{
					"indexed": false,
					"internalType": "uint256",
					"name": "tokenAmount",
					"type": "uint256"
				},
				{
					"indexed": false,
					"internalType": "uint256",
					"name": "lockingPeriodInBlocks",
					"type": "uint256"
				},
				{
					"indexed": false,
					"internalType": "uint256",
					"name": "rewardPoints",
					"type": "uint256"
				}
			],
			"name": "StakeUnlocked",
			"type": "event"
		},
		{
			"anonymous": false,
			"inputs": [
				{
					"indexed": false,
					"internalType": "address",
					"name": "recipient",
					"type": "address"
				},
				{
					"indexed": false,
					"internalType": "uint256",
					"name": "tokenAmount",
					"type": "uint256"
				},
				{
					"indexed": false,
					"internalType": "uint256",
					"name": "lockingPeriodInBlocks",
					"type": "uint256"
				},
				{
					"indexed": false,
					"internalType": "uint256",
					"name": "actualLockingPeriodInBlocks",
					"type": "uint256"
				}
			],
			"name": "StakeUnlockedPrematurely",
			"type": "event"
		},
		{
			"anonymous": false,
			"inputs": [
				{
					"indexed": false,
					"internalType": "address",
					"name": "recipient",
					"type": "address"
				},
				{
					"indexed": false,
					"internalType": "uint256",
					"name": "amount",
					"type": "uint256"
				}
			],
			"name": "grantedTokensReleased",
			"type": "event"
		},
		{
			"inputs": [
				{
					"internalType": "uint72",
					"name": "tokenAmount_",
					"type": "uint72"
				},
				{
					"internalType": "uint24",
					"name": "lockingPeriodInBlocks_",
					"type": "uint24"
				}
			],
			"name": "calculateStakingRewardPoints",
			"outputs": [
				{
					"internalType": "uint128",
					"name": "",
					"type": "uint128"
				}
			],
			"stateMutability": "pure",
			"type": "function"
		},
		{
			"inputs": [],
			"name": "getRewards",
			"outputs": [],
			"stateMutability": "nonpayable",
			"type": "function"
		},
		{
			"inputs": [
				{
					"internalType": "address",
					"name": "",
					"type": "address"
				}
			],
			"name": "grantedTokens",
			"outputs": [
				{
					"internalType": "uint256",
					"name": "",
					"type": "uint256"
				}
			],
			"stateMutability": "view",
			"type": "function"
		},
		{
			"inputs": [
				{
					"internalType": "uint72",
					"name": "tokenAmount_",
					"type": "uint72"
				},
				{
					"internalType": "uint24",
					"name": "lockingPeriodInBlocks_",
					"type": "uint24"
				}
			],
			"name": "lockTokens",
			"outputs": [],
			"stateMutability": "nonpayable",
			"type": "function"
		},
		{
			"inputs": [],
			"name": "oilerToken",
			"outputs": [
				{
					"internalType": "contract IERC20",
					"name": "",
					"type": "address"
				}
			],
			"stateMutability": "view",
			"type": "function"
		},
		{
			"inputs": [],
			"name": "owner",
			"outputs": [
				{
					"internalType": "address",
					"name": "",
					"type": "address"
				}
			],
			"stateMutability": "view",
			"type": "function"
		},
		{
			"inputs": [],
			"name": "poolToken",
			"outputs": [
				{
					"internalType": "contract IERC20",
					"name": "",
					"type": "address"
				}
			],
			"stateMutability": "view",
			"type": "function"
		},
		{
			"inputs": [],
			"name": "release",
			"outputs": [],
			"stateMutability": "nonpayable",
			"type": "function"
		},
		{
			"inputs": [
				{
					"internalType": "address",
					"name": "",
					"type": "address"
				}
			],
			"name": "releasedTokens",
			"outputs": [
				{
					"internalType": "uint256",
					"name": "",
					"type": "uint256"
				}
			],
			"stateMutability": "view",
			"type": "function"
		},
		{
			"inputs": [
				{
					"internalType": "address",
					"name": "",
					"type": "address"
				}
			],
			"name": "rewardPointsEarned",
			"outputs": [
				{
					"internalType": "uint256",
					"name": "",
					"type": "uint256"
				}
			],
			"stateMutability": "view",
			"type": "function"
		},
		{
			"inputs": [
				{
					"internalType": "address",
					"name": "poolToken_",
					"type": "address"
				},
				{
					"internalType": "address",
					"name": "stakingFundAddress_",
					"type": "address"
				}
			],
			"name": "setPoolToken",
			"outputs": [],
			"stateMutability": "nonpayable",
			"type": "function"
		},
		{
			"inputs": [
				{
					"internalType": "address",
					"name": "",
					"type": "address"
				}
			],
			"name": "stakes",
			"outputs": [
				{
					"internalType": "uint72",
					"name": "tokenAmount",
					"type": "uint72"
				},
				{
					"internalType": "uint24",
					"name": "lockingPeriodInBlocks",
					"type": "uint24"
				},
				{
					"internalType": "uint32",
					"name": "startBlock",
					"type": "uint32"
				},
				{
					"internalType": "uint128",
					"name": "expectedStakingRewardPoints",
					"type": "uint128"
				}
			],
			"stateMutability": "view",
			"type": "function"
		},
		{
			"inputs": [],
			"name": "stakingFundAmount",
			"outputs": [
				{
					"internalType": "uint256",
					"name": "",
					"type": "uint256"
				}
			],
			"stateMutability": "view",
			"type": "function"
		},
		{
			"inputs": [],
			"name": "stakingProgramEndsBlock",
			"outputs": [
				{
					"internalType": "uint256",
					"name": "",
					"type": "uint256"
				}
			],
			"stateMutability": "view",
			"type": "function"
		},
		{
			"inputs": [],
			"name": "totalRewardPoints",
			"outputs": [
				{
					"internalType": "uint256",
					"name": "",
					"type": "uint256"
				}
			],
			"stateMutability": "view",
			"type": "function"
		},
		{
			"inputs": [],
			"name": "unlockTokens",
			"outputs": [],
			"stateMutability": "nonpayable",
			"type": "function"
		},
		{
			"inputs": [],
			"name": "vestingDuration",
			"outputs": [
				{
					"internalType": "uint256",
					"name": "",
					"type": "uint256"
				}
			],
			"stateMutability": "view",
			"type": "function"
		}
	]
}