{
	"Umbra-Cash/contracts/StealthKeyRegistry.sol": {
		"StealthKeyRegistry": {
			"abi": [
				{
					"inputs": [],
					"stateMutability": "nonpayable",
					"type": "constructor"
				},
				{
					"anonymous": false,
					"inputs": [
						{
							"indexed": true,
							"internalType": "address",
							"name": "registrant",
							"type": "address"
						},
						{
							"indexed": false,
							"internalType": "uint256",
							"name": "spendingPubKeyPrefix",
							"type": "uint256"
						},
						{
							"indexed": false,
							"internalType": "uint256",
							"name": "spendingPubKey",
							"type": "uint256"
						},
						{
							"indexed": false,
							"internalType": "uint256",
							"name": "viewingPubKeyPrefix",
							"type": "uint256"
						},
						{
							"indexed": false,
							"internalType": "uint256",
							"name": "viewingPubKey",
							"type": "uint256"
						}
					],
					"name": "StealthKeyChanged",
					"type": "event"
				},
				{
					"inputs": [],
					"name": "DOMAIN_SEPARATOR",
					"outputs": [
						{
							"internalType": "bytes32",
							"name": "",
							"type": "bytes32"
						}
					],
					"stateMutability": "view",
					"type": "function"
				},
				{
					"inputs": [],
					"name": "STEALTHKEYS_TYPEHASH",
					"outputs": [
						{
							"internalType": "bytes32",
							"name": "",
							"type": "bytes32"
						}
					],
					"stateMutability": "view",
					"type": "function"
				},
				{
					"inputs": [
						{
							"internalType": "uint256",
							"name": "_spendingPubKeyPrefix",
							"type": "uint256"
						},
						{
							"internalType": "uint256",
							"name": "_spendingPubKey",
							"type": "uint256"
						},
						{
							"internalType": "uint256",
							"name": "_viewingPubKeyPrefix",
							"type": "uint256"
						},
						{
							"internalType": "uint256",
							"name": "_viewingPubKey",
							"type": "uint256"
						}
					],
					"name": "setStealthKeys",
					"outputs": [],
					"stateMutability": "nonpayable",
					"type": "function"
				},
				{
					"inputs": [
						{
							"internalType": "address",
							"name": "_registrant",
							"type": "address"
						},
						{
							"internalType": "uint256",
							"name": "_spendingPubKeyPrefix",
							"type": "uint256"
						},
						{
							"internalType": "uint256",
							"name": "_spendingPubKey",
							"type": "uint256"
						},
						{
							"internalType": "uint256",
							"name": "_viewingPubKeyPrefix",
							"type": "uint256"
						},
						{
							"internalType": "uint256",
							"name": "_viewingPubKey",
							"type": "uint256"
						},
						{
							"internalType": "uint8",
							"name": "_v",
							"type": "uint8"
						},
						{
							"internalType": "bytes32",
							"name": "_r",
							"type": "bytes32"
						},
						{
							"internalType": "bytes32",
							"name": "_s",
							"type": "bytes32"
						}
					],
					"name": "setStealthKeysOnBehalf",
					"outputs": [],
					"stateMutability": "nonpayable",
					"type": "function"
				},
				{
					"inputs": [
						{
							"internalType": "address",
							"name": "_registrant",
							"type": "address"
						}
					],
					"name": "stealthKeys",
					"outputs": [
						{
							"internalType": "uint256",
							"name": "spendingPubKeyPrefix",
							"type": "uint256"
						},
						{
							"internalType": "uint256",
							"name": "spendingPubKey",
							"type": "uint256"
						},
						{
							"internalType": "uint256",
							"name": "viewingPubKeyPrefix",
							"type": "uint256"
						},
						{
							"internalType": "uint256",
							"name": "viewingPubKey",
							"type": "uint256"
						}
					],
					"stateMutability": "view",
					"type": "function"
				}
			],
			"devdoc": {
				"events": {
					"StealthKeyChanged(address,uint256,uint256,uint256,uint256)": {
						"details": "Event emitted when a user updates their registered stealth keys"
					}
				},
				"kind": "dev",
				"methods": {
					"constructor": {
						"details": "We wait until deployment to codify the domain separator because we need the chainId and the contract address"
					},
					"setStealthKeys(uint256,uint256,uint256,uint256)": {
						"params": {
							"_spendingPubKey": "The public key for generating a stealth address",
							"_spendingPubKeyPrefix": "Prefix of the spending public key (2 or 3)",
							"_viewingPubKey": "The public key to use for encryption",
							"_viewingPubKeyPrefix": "Prefix of the viewing public key (2 or 3)"
						}
					},
					"setStealthKeysOnBehalf(address,uint256,uint256,uint256,uint256,uint8,bytes32,bytes32)": {
						"params": {
							"_r": "ECDSA signature component: x-coordinate of `R`",
							"_registrant": "The address for which stealth keys are being registered, i.e. the address expected to be recovered from the provided signature",
							"_s": "ECDSA signature component: `s` value of the signature",
							"_spendingPubKey": "The public key for generating a stealth address",
							"_spendingPubKeyPrefix": "Prefix of the spending public key (2 or 3)",
							"_v": "ECDSA signature component: Parity of the `y` coordinate of point `R`",
							"_viewingPubKey": "The public key to use for encryption",
							"_viewingPubKeyPrefix": "Prefix of the viewing public key (2 or 3)"
						}
					},
					"stealthKeys(address)": {
						"params": {
							"_registrant": "The address whose keys to lookup."
						},
						"returns": {
							"spendingPubKey": "The public key for generating a stealth address",
							"spendingPubKeyPrefix": "Prefix of the spending public key (2 or 3)",
							"viewingPubKey": "The public key to use for encryption",
							"viewingPubKeyPrefix": "Prefix of the viewing public key (2 or 3)"
						}
					}
				},
				"stateVariables": {
					"DOMAIN_SEPARATOR": {
						"details": "The domain separator used for EIP-712 sigatures in setStealthKeysOnBehalf"
					},
					"STEALTHKEYS_TYPEHASH": {
						"details": "The payload typehash used for EIP-712 signatures in setStealthKeysOnBehalf"
					},
					"keys": {
						"details": "Mapping used to store two secp256k1 curve public keys used for receiving stealth payments. The mapping records two keys: a viewing key and a spending key, which can be set and read via the `setStealthKeys` and `stealthKey` methods respectively. The mapping associates the user's address to another mapping, which itself maps the public key prefix to the actual key . This scheme is used to avoid using an extra storage slot for the public key prefix. For a given address, the mapping may contain a spending key at position 0 or 1, and a viewing key at position 2 or 3. See the setter/getter methods for details of how these map to prefixes. For more on secp256k1 public keys and prefixes generally, see: https://github.com/ethereumbook/ethereumbook/blob/develop/04keys-addresses.asciidoc#generating-a-public-key"
					}
				},
				"version": 1
			},
			"evm": {
				"assembly": "    /* \"Umbra-Cash/contracts/StealthKeyRegistry.sol\":1329:8656  contract StealthKeyRegistry {... */\n  mstore(0x40, 0xa0)\n    /* \"Umbra-Cash/contracts/StealthKeyRegistry.sol\":3325:3648  constructor() {... */\n  callvalue\n  dup1\n  iszero\n  tag_1\n  jumpi\n  revert(0x00, 0x00)\ntag_1:\n  pop\n    /* \"Umbra-Cash/contracts/StealthKeyRegistry.sol\":3516:3551  bytes(\"Umbra Stealth Key Registry\") */\n  0x40\n  dup1\n  mload\n  dup1\n  dup3\n  add\n  dup3\n  mstore\n  0x1a\n  dup2\n  mstore\n  0x556d62726120537465616c7468204b6579205265676973747279000000000000\n  0x20\n  swap2\n  dup3\n  add\n  mstore\n    /* \"Umbra-Cash/contracts/StealthKeyRegistry.sol\":3572:3582  bytes(\"1\") */\n  dup2\n  mload\n  dup1\n  dup4\n  add\n  dup4\n  mstore\n  0x01\n  dup2\n  mstore\n  shl(0xf8, 0x31)\n  swap1\n  dup3\n  add\n  mstore\n    /* \"Umbra-Cash/contracts/StealthKeyRegistry.sol\":3381:3637  abi.encode(... */\n  dup2\n  mload\n    /* \"Umbra-Cash/contracts/StealthKeyRegistry.sol\":3401:3496  keccak256(\"EIP712Domain(string name,string version,uint256 chainId,address verifyingContract)\") */\n  0x8b73c3c69bb8fe3d512ecc4cf759cc79239f7b179b0ffacaa9a75d522b39400f\n    /* \"Umbra-Cash/contracts/StealthKeyRegistry.sol\":3381:3637  abi.encode(... */\n  swap2\n  dup2\n  add\n    /* \"#utility.yul\":273:298   */\n  swap2\n  swap1\n  swap2\n  mstore\n    /* \"Umbra-Cash/contracts/StealthKeyRegistry.sol\":3506:3552  keccak256(bytes(\"Umbra Stealth Key Registry\")) */\n  0x4baf469995623d4e8baaebc31ddb114fbc90e91c717e133da2fb936309b41eb9\n    /* \"#utility.yul\":314:332   */\n  swap2\n  dup2\n  add\n    /* \"#utility.yul\":307:341   */\n  swap2\n  swap1\n  swap2\n  mstore\n    /* \"Umbra-Cash/contracts/StealthKeyRegistry.sol\":3562:3583  keccak256(bytes(\"1\")) */\n  0xc89efdaa54c0f20c7adf612882df0950f5a951637e0307cdcb4c672f298b8bc6\n    /* \"#utility.yul\":357:375   */\n  0x60\n  dup3\n  add\n    /* \"#utility.yul\":350:384   */\n  mstore\n    /* \"Umbra-Cash/contracts/StealthKeyRegistry.sol\":3593:3606  block.chainid */\n  chainid\n    /* \"#utility.yul\":400:418   */\n  0x80\n  dup3\n  add\n    /* \"#utility.yul\":393:427   */\n  mstore\n    /* \"Umbra-Cash/contracts/StealthKeyRegistry.sol\":3624:3628  this */\n  address\n    /* \"#utility.yul\":443:462   */\n  0xa0\n  dup3\n  add\n    /* \"#utility.yul\":436:497   */\n  mstore\n    /* \"#utility.yul\":245:264   */\n  0xc0\n  add\n    /* \"Umbra-Cash/contracts/StealthKeyRegistry.sol\":3381:3637  abi.encode(... */\n  0x40\n  dup1\n  mload\n  not(0x1f)\n  dup2\n  dup5\n  sub\n  add\n  dup2\n  mstore\n  swap2\n  swap1\n  mstore\n    /* \"Umbra-Cash/contracts/StealthKeyRegistry.sol\":3364:3643  keccak256(... */\n  dup1\n  mload\n    /* \"Umbra-Cash/contracts/StealthKeyRegistry.sol\":3381:3637  abi.encode(... */\n  0x20\n    /* \"Umbra-Cash/contracts/StealthKeyRegistry.sol\":3364:3643  keccak256(... */\n  swap1\n  swap2\n  add\n  keccak256\n    /* \"Umbra-Cash/contracts/StealthKeyRegistry.sol\":3345:3643  DOMAIN_SEPARATOR = keccak256(... */\n  0x80\n  mstore\n    /* \"Umbra-Cash/contracts/StealthKeyRegistry.sol\":1329:8656  contract StealthKeyRegistry {... */\n  mload(0x80)\n  codecopy(0x00, dataOffset(sub_0), dataSize(sub_0))\n  0x00\n  assignImmutable(\"0x1572b593c53d839d80004aa4b8c51211864104f06ace9e22be9c4365b50655ea\")\n  return(0x00, dataSize(sub_0))\nstop\n\nsub_0: assembly {\n        /* \"Umbra-Cash/contracts/StealthKeyRegistry.sol\":1329:8656  contract StealthKeyRegistry {... */\n      mstore(0x40, 0x80)\n      callvalue\n      dup1\n      iszero\n      tag_1\n      jumpi\n      revert(0x00, 0x00)\n    tag_1:\n      pop\n      jumpi(tag_2, lt(calldatasize, 0x04))\n      shr(0xe0, calldataload(0x00))\n      dup1\n      0x100dcc53\n      eq\n      tag_3\n      jumpi\n      dup1\n      0x3644e515\n      eq\n      tag_4\n      jumpi\n      dup1\n      0x67eaa7ac\n      eq\n      tag_5\n      jumpi\n      dup1\n      0xbb8f257b\n      eq\n      tag_6\n      jumpi\n      dup1\n      0xcec2a787\n      eq\n      tag_7\n      jumpi\n    tag_2:\n      revert(0x00, 0x00)\n        /* \"Umbra-Cash/contracts/StealthKeyRegistry.sol\":5189:6245  function setStealthKeysOnBehalf(... */\n    tag_3:\n      tag_8\n      tag_9\n      calldatasize\n      0x04\n      tag_10\n      jump\t// in\n    tag_9:\n      tag_11\n      jump\t// in\n    tag_8:\n      stop\n        /* \"Umbra-Cash/contracts/StealthKeyRegistry.sol\":2192:2233  bytes32 public immutable DOMAIN_SEPARATOR */\n    tag_4:\n      tag_12\n      immutable(\"0x1572b593c53d839d80004aa4b8c51211864104f06ace9e22be9c4365b50655ea\")\n      dup2\n      jump\n    tag_12:\n      mload(0x40)\n        /* \"#utility.yul\":1413:1438   */\n      swap1\n      dup2\n      mstore\n        /* \"#utility.yul\":1401:1403   */\n      0x20\n        /* \"#utility.yul\":1386:1404   */\n      add\n        /* \"Umbra-Cash/contracts/StealthKeyRegistry.sol\":2192:2233  bytes32 public immutable DOMAIN_SEPARATOR */\n    tag_14:\n      mload(0x40)\n      dup1\n      swap2\n      sub\n      swap1\n      return\n        /* \"Umbra-Cash/contracts/StealthKeyRegistry.sol\":1912:2102  bytes32 public constant STEALTHKEYS_TYPEHASH =... */\n    tag_5:\n      tag_12\n        /* \"Umbra-Cash/contracts/StealthKeyRegistry.sol\":1963:2102  keccak256(... */\n      0xab73c83a21fb894c20095a8f28177984b02f6284c760e4c1ac2f82c3d34b79c1\n        /* \"Umbra-Cash/contracts/StealthKeyRegistry.sol\":1912:2102  bytes32 public constant STEALTHKEYS_TYPEHASH =... */\n      dup2\n      jump\n        /* \"Umbra-Cash/contracts/StealthKeyRegistry.sol\":4105:4384  function setStealthKeys(... */\n    tag_6:\n      tag_8\n      tag_20\n      calldatasize\n      0x04\n      tag_21\n      jump\t// in\n    tag_20:\n      tag_22\n      jump\t// in\n        /* \"Umbra-Cash/contracts/StealthKeyRegistry.sol\":7929:8654  function stealthKeys(address _registrant)... */\n    tag_7:\n      tag_23\n      tag_24\n      calldatasize\n      0x04\n      tag_25\n      jump\t// in\n    tag_24:\n      tag_26\n      jump\t// in\n    tag_23:\n      0x40\n      dup1\n      mload\n        /* \"#utility.yul\":2463:2488   */\n      swap5\n      dup6\n      mstore\n        /* \"#utility.yul\":2519:2521   */\n      0x20\n        /* \"#utility.yul\":2504:2522   */\n      dup6\n      add\n        /* \"#utility.yul\":2497:2531   */\n      swap4\n      swap1\n      swap4\n      mstore\n        /* \"#utility.yul\":2547:2565   */\n      swap2\n      dup4\n      add\n        /* \"#utility.yul\":2540:2574   */\n      mstore\n        /* \"#utility.yul\":2605:2607   */\n      0x60\n        /* \"#utility.yul\":2590:2608   */\n      dup3\n      add\n        /* \"#utility.yul\":2583:2617   */\n      mstore\n        /* \"#utility.yul\":2450:2453   */\n      0x80\n        /* \"#utility.yul\":2435:2454   */\n      add\n        /* \"Umbra-Cash/contracts/StealthKeyRegistry.sol\":7929:8654  function stealthKeys(address _registrant)... */\n      tag_14\n        /* \"#utility.yul\":2232:2623   */\n      jump\n        /* \"Umbra-Cash/contracts/StealthKeyRegistry.sol\":5189:6245  function setStealthKeysOnBehalf(... */\n    tag_11:\n        /* \"Umbra-Cash/contracts/StealthKeyRegistry.sol\":5610:5804  abi.encode(... */\n      0x40\n      dup1\n      mload\n        /* \"Umbra-Cash/contracts/StealthKeyRegistry.sol\":1963:2102  keccak256(... */\n      0xab73c83a21fb894c20095a8f28177984b02f6284c760e4c1ac2f82c3d34b79c1\n        /* \"Umbra-Cash/contracts/StealthKeyRegistry.sol\":5610:5804  abi.encode(... */\n      0x20\n      dup1\n      dup4\n      add\n        /* \"#utility.yul\":2887:2912   */\n      swap2\n      swap1\n      swap2\n      mstore\n        /* \"#utility.yul\":2928:2946   */\n      dup2\n      dup4\n      add\n        /* \"#utility.yul\":2921:2955   */\n      dup11\n      swap1\n      mstore\n        /* \"#utility.yul\":2971:2989   */\n      0x60\n      dup3\n      add\n        /* \"#utility.yul\":2964:2998   */\n      dup10\n      swap1\n      mstore\n        /* \"#utility.yul\":3014:3032   */\n      0x80\n      dup3\n      add\n        /* \"#utility.yul\":3007:3041   */\n      dup9\n      swap1\n      mstore\n        /* \"#utility.yul\":3057:3076   */\n      0xa0\n      dup1\n      dup4\n      add\n        /* \"#utility.yul\":3050:3085   */\n      dup9\n      swap1\n      mstore\n        /* \"Umbra-Cash/contracts/StealthKeyRegistry.sol\":5610:5804  abi.encode(... */\n      dup4\n      mload\n      dup1\n      dup5\n      sub\n      swap1\n      swap2\n      add\n      dup2\n      mstore\n        /* \"#utility.yul\":2859:2878   */\n      0xc0\n      dup4\n      add\n        /* \"Umbra-Cash/contracts/StealthKeyRegistry.sol\":5610:5804  abi.encode(... */\n      swap1\n      swap4\n      mstore\n        /* \"Umbra-Cash/contracts/StealthKeyRegistry.sol\":5587:5816  keccak256(... */\n      dup3\n      mload\n      swap3\n      add\n      swap2\n      swap1\n      swap2\n      keccak256\n      shl(0xf0, 0x1901)\n        /* \"Umbra-Cash/contracts/StealthKeyRegistry.sol\":5509:5826  abi.encodePacked(... */\n      0xe0\n      dup4\n      add\n        /* \"#utility.yul\":3354:3381   */\n      mstore\n        /* \"Umbra-Cash/contracts/StealthKeyRegistry.sol\":5559:5575  DOMAIN_SEPARATOR */\n      immutable(\"0x1572b593c53d839d80004aa4b8c51211864104f06ace9e22be9c4365b50655ea\")\n        /* \"#utility.yul\":3397:3408   */\n      0xe2\n      dup4\n      add\n        /* \"#utility.yul\":3390:3417   */\n      mstore\n        /* \"#utility.yul\":3433:3445   */\n      0x0102\n      dup3\n      add\n        /* \"#utility.yul\":3426:3454   */\n      mstore\n      0x00\n      swap1\n        /* \"#utility.yul\":3470:3482   */\n      0x0122\n      add\n        /* \"Umbra-Cash/contracts/StealthKeyRegistry.sol\":5509:5826  abi.encodePacked(... */\n      0x40\n      dup1\n      mload\n      not(0x1f)\n      dup2\n      dup5\n      sub\n      add\n      dup2\n      mstore\n      dup3\n      dup3\n      mstore\n        /* \"Umbra-Cash/contracts/StealthKeyRegistry.sol\":5490:5834  keccak256(... */\n      dup1\n      mload\n        /* \"Umbra-Cash/contracts/StealthKeyRegistry.sol\":5509:5826  abi.encodePacked(... */\n      0x20\n        /* \"Umbra-Cash/contracts/StealthKeyRegistry.sol\":5490:5834  keccak256(... */\n      swap2\n      dup3\n      add\n      keccak256\n        /* \"Umbra-Cash/contracts/StealthKeyRegistry.sol\":5913:5931  address _recovered */\n      0x00\n        /* \"Umbra-Cash/contracts/StealthKeyRegistry.sol\":5934:5964  ecrecover(_digest, _v, _r, _s) */\n      dup1\n      dup6\n      mstore\n      swap2\n      dup5\n      add\n      dup1\n      dup5\n      mstore\n        /* \"#utility.yul\":3720:3745   */\n      dup2\n      swap1\n      mstore\n        /* \"#utility.yul\":3793:3797   */\n      0xff\n        /* \"#utility.yul\":3781:3798   */\n      dup9\n      and\n        /* \"#utility.yul\":3761:3779   */\n      swap3\n      dup5\n      add\n        /* \"#utility.yul\":3754:3799   */\n      swap3\n      swap1\n      swap3\n      mstore\n        /* \"#utility.yul\":3815:3833   */\n      0x60\n      dup4\n      add\n        /* \"#utility.yul\":3808:3842   */\n      dup7\n      swap1\n      mstore\n        /* \"#utility.yul\":3858:3876   */\n      0x80\n      dup4\n      add\n        /* \"#utility.yul\":3851:3885   */\n      dup6\n      swap1\n      mstore\n        /* \"Umbra-Cash/contracts/StealthKeyRegistry.sol\":5490:5834  keccak256(... */\n      swap1\n      swap3\n      pop\n        /* \"Umbra-Cash/contracts/StealthKeyRegistry.sol\":5913:5931  address _recovered */\n      swap1\n        /* \"Umbra-Cash/contracts/StealthKeyRegistry.sol\":5934:5964  ecrecover(_digest, _v, _r, _s) */\n      0x01\n      swap1\n        /* \"#utility.yul\":3692:3711   */\n      0xa0\n      add\n        /* \"Umbra-Cash/contracts/StealthKeyRegistry.sol\":5934:5964  ecrecover(_digest, _v, _r, _s) */\n      0x20\n      mload(0x40)\n      0x20\n      dup2\n      sub\n      swap1\n      dup1\n      dup5\n      sub\n      swap1\n      dup6\n      gas\n      staticcall\n      iszero\n      dup1\n      iszero\n      tag_37\n      jumpi\n      returndatacopy(0x00, 0x00, returndatasize)\n      revert(0x00, returndatasize)\n    tag_37:\n      pop\n      pop\n      pop\n      mload(sub(mload(0x40), 0x20))\n        /* \"Umbra-Cash/contracts/StealthKeyRegistry.sol\":5913:5964  address _recovered = ecrecover(_digest, _v, _r, _s) */\n      swap1\n      pop\n        /* \"Umbra-Cash/contracts/StealthKeyRegistry.sol\":5992:6003  _registrant */\n      dup10\n      sub(shl(0xa0, 0x01), 0x01)\n        /* \"Umbra-Cash/contracts/StealthKeyRegistry.sol\":5978:6003  _recovered == _registrant */\n      and\n        /* \"Umbra-Cash/contracts/StealthKeyRegistry.sol\":5978:5988  _recovered */\n      dup2\n      sub(shl(0xa0, 0x01), 0x01)\n        /* \"Umbra-Cash/contracts/StealthKeyRegistry.sol\":5978:6003  _recovered == _registrant */\n      and\n      eq\n        /* \"Umbra-Cash/contracts/StealthKeyRegistry.sol\":5970:6045  require(_recovered == _registrant, \"StealthKeyRegistry: Invalid Signature\") */\n      tag_38\n      jumpi\n      mload(0x40)\n      shl(0xe5, 0x461bcd)\n      dup2\n      mstore\n        /* \"#utility.yul\":4098:4100   */\n      0x20\n        /* \"Umbra-Cash/contracts/StealthKeyRegistry.sol\":5970:6045  require(_recovered == _registrant, \"StealthKeyRegistry: Invalid Signature\") */\n      0x04\n      dup3\n      add\n        /* \"#utility.yul\":4080:4101   */\n      mstore\n        /* \"#utility.yul\":4137:4139   */\n      0x25\n        /* \"#utility.yul\":4117:4135   */\n      0x24\n      dup3\n      add\n        /* \"#utility.yul\":4110:4140   */\n      mstore\n        /* \"#utility.yul\":4176:4210   */\n      0x537465616c74684b657952656769737472793a20496e76616c6964205369676e\n        /* \"#utility.yul\":4156:4174   */\n      0x44\n      dup3\n      add\n        /* \"#utility.yul\":4149:4211   */\n      mstore\n      shl(0xd8, 0x6174757265)\n        /* \"#utility.yul\":4227:4245   */\n      0x64\n      dup3\n      add\n        /* \"#utility.yul\":4220:4255   */\n      mstore\n        /* \"#utility.yul\":4272:4291   */\n      0x84\n      add\n        /* \"Umbra-Cash/contracts/StealthKeyRegistry.sol\":5970:6045  require(_recovered == _registrant, \"StealthKeyRegistry: Invalid Signature\") */\n    tag_39:\n      mload(0x40)\n      dup1\n      swap2\n      sub\n      swap1\n      revert\n    tag_38:\n        /* \"Umbra-Cash/contracts/StealthKeyRegistry.sol\":6134:6240  _setStealthKeys(_registrant, _spendingPubKeyPrefix, _spendingPubKey, _viewingPubKeyPrefix, _viewingPubKey) */\n      tag_41\n        /* \"Umbra-Cash/contracts/StealthKeyRegistry.sol\":6150:6161  _registrant */\n      dup11\n        /* \"Umbra-Cash/contracts/StealthKeyRegistry.sol\":6163:6184  _spendingPubKeyPrefix */\n      dup11\n        /* \"Umbra-Cash/contracts/StealthKeyRegistry.sol\":6186:6201  _spendingPubKey */\n      dup11\n        /* \"Umbra-Cash/contracts/StealthKeyRegistry.sol\":6203:6223  _viewingPubKeyPrefix */\n      dup11\n        /* \"Umbra-Cash/contracts/StealthKeyRegistry.sol\":6225:6239  _viewingPubKey */\n      dup11\n        /* \"Umbra-Cash/contracts/StealthKeyRegistry.sol\":6134:6149  _setStealthKeys */\n      tag_42\n        /* \"Umbra-Cash/contracts/StealthKeyRegistry.sol\":6134:6240  _setStealthKeys(_registrant, _spendingPubKeyPrefix, _spendingPubKey, _viewingPubKeyPrefix, _viewingPubKey) */\n      jump\t// in\n    tag_41:\n        /* \"Umbra-Cash/contracts/StealthKeyRegistry.sol\":5431:6245  {... */\n      pop\n      pop\n        /* \"Umbra-Cash/contracts/StealthKeyRegistry.sol\":5189:6245  function setStealthKeysOnBehalf(... */\n      pop\n      pop\n      pop\n      pop\n      pop\n      pop\n      pop\n      pop\n      jump\t// out\n        /* \"Umbra-Cash/contracts/StealthKeyRegistry.sol\":4105:4384  function setStealthKeys(... */\n    tag_22:\n        /* \"Umbra-Cash/contracts/StealthKeyRegistry.sol\":4274:4379  _setStealthKeys(msg.sender, _spendingPubKeyPrefix, _spendingPubKey, _viewingPubKeyPrefix, _viewingPubKey) */\n      tag_44\n        /* \"Umbra-Cash/contracts/StealthKeyRegistry.sol\":4290:4300  msg.sender */\n      caller\n        /* \"Umbra-Cash/contracts/StealthKeyRegistry.sol\":4302:4323  _spendingPubKeyPrefix */\n      dup6\n        /* \"Umbra-Cash/contracts/StealthKeyRegistry.sol\":4325:4340  _spendingPubKey */\n      dup6\n        /* \"Umbra-Cash/contracts/StealthKeyRegistry.sol\":4342:4362  _viewingPubKeyPrefix */\n      dup6\n        /* \"Umbra-Cash/contracts/StealthKeyRegistry.sol\":4364:4378  _viewingPubKey */\n      dup6\n        /* \"Umbra-Cash/contracts/StealthKeyRegistry.sol\":4274:4289  _setStealthKeys */\n      tag_42\n        /* \"Umbra-Cash/contracts/StealthKeyRegistry.sol\":4274:4379  _setStealthKeys(msg.sender, _spendingPubKeyPrefix, _spendingPubKey, _viewingPubKeyPrefix, _viewingPubKey) */\n      jump\t// in\n    tag_44:\n        /* \"Umbra-Cash/contracts/StealthKeyRegistry.sol\":4105:4384  function setStealthKeys(... */\n      pop\n      pop\n      pop\n      pop\n      jump\t// out\n        /* \"Umbra-Cash/contracts/StealthKeyRegistry.sol\":7929:8654  function stealthKeys(address _registrant)... */\n    tag_26:\n      sub(shl(0xa0, 0x01), 0x01)\n        /* \"Umbra-Cash/contracts/StealthKeyRegistry.sol\":8154:8171  keys[_registrant] */\n      dup2\n      and\n        /* \"Umbra-Cash/contracts/StealthKeyRegistry.sol\":8013:8041  uint256 spendingPubKeyPrefix */\n      0x00\n        /* \"Umbra-Cash/contracts/StealthKeyRegistry.sol\":8154:8171  keys[_registrant] */\n      swap1\n      dup2\n      mstore\n      0x20\n      dup2\n      dup2\n      mstore\n      0x40\n      dup1\n      dup4\n      keccak256\n        /* \"Umbra-Cash/contracts/StealthKeyRegistry.sol\":8154:8174  keys[_registrant][0] */\n      dup4\n      dup1\n      mstore\n      swap1\n      swap2\n      mstore\n      dup2\n      keccak256\n      sload\n        /* \"Umbra-Cash/contracts/StealthKeyRegistry.sol\":8013:8041  uint256 spendingPubKeyPrefix */\n      dup2\n      swap1\n      dup2\n      swap1\n      dup2\n      swap1\n        /* \"Umbra-Cash/contracts/StealthKeyRegistry.sol\":8154:8179  keys[_registrant][0] != 0 */\n      iszero\n        /* \"Umbra-Cash/contracts/StealthKeyRegistry.sol\":8150:8355  if (keys[_registrant][0] != 0) {... */\n      tag_46\n      jumpi\n      sub(shl(0xa0, 0x01), 0x01)\n        /* \"Umbra-Cash/contracts/StealthKeyRegistry.sol\":8238:8255  keys[_registrant] */\n      dup6\n      and\n        /* \"Umbra-Cash/contracts/StealthKeyRegistry.sol\":8238:8242  keys */\n      0x00\n        /* \"Umbra-Cash/contracts/StealthKeyRegistry.sol\":8238:8255  keys[_registrant] */\n      swap1\n      dup2\n      mstore\n      0x20\n      dup2\n      dup2\n      mstore\n      0x40\n      dup1\n      dup4\n      keccak256\n        /* \"Umbra-Cash/contracts/StealthKeyRegistry.sol\":8238:8258  keys[_registrant][0] */\n      dup4\n      dup1\n      mstore\n      swap1\n      swap2\n      mstore\n      swap1\n      keccak256\n      sload\n        /* \"Umbra-Cash/contracts/StealthKeyRegistry.sol\":8212:8213  2 */\n      0x02\n      swap5\n      pop\n        /* \"Umbra-Cash/contracts/StealthKeyRegistry.sol\":8238:8258  keys[_registrant][0] */\n      swap3\n      pop\n        /* \"Umbra-Cash/contracts/StealthKeyRegistry.sol\":8150:8355  if (keys[_registrant][0] != 0) {... */\n      jump(tag_47)\n    tag_46:\n      sub(shl(0xa0, 0x01), 0x01)\n        /* \"Umbra-Cash/contracts/StealthKeyRegistry.sol\":8328:8345  keys[_registrant] */\n      dup6\n      and\n        /* \"Umbra-Cash/contracts/StealthKeyRegistry.sol\":8328:8332  keys */\n      0x00\n        /* \"Umbra-Cash/contracts/StealthKeyRegistry.sol\":8328:8345  keys[_registrant] */\n      swap1\n      dup2\n      mstore\n      0x20\n      dup2\n      dup2\n      mstore\n      0x40\n      dup1\n      dup4\n      keccak256\n        /* \"Umbra-Cash/contracts/StealthKeyRegistry.sol\":8346:8347  1 */\n      0x01\n        /* \"Umbra-Cash/contracts/StealthKeyRegistry.sol\":8328:8348  keys[_registrant][1] */\n      dup5\n      mstore\n      swap1\n      swap2\n      mstore\n      swap1\n      keccak256\n      sload\n        /* \"Umbra-Cash/contracts/StealthKeyRegistry.sol\":8302:8303  3 */\n      0x03\n      swap5\n      pop\n        /* \"Umbra-Cash/contracts/StealthKeyRegistry.sol\":8328:8348  keys[_registrant][1] */\n      swap3\n      pop\n        /* \"Umbra-Cash/contracts/StealthKeyRegistry.sol\":8150:8355  if (keys[_registrant][0] != 0) {... */\n    tag_47:\n      sub(shl(0xa0, 0x01), 0x01)\n        /* \"Umbra-Cash/contracts/StealthKeyRegistry.sol\":8365:8382  keys[_registrant] */\n      dup6\n      and\n        /* \"Umbra-Cash/contracts/StealthKeyRegistry.sol\":8365:8369  keys */\n      0x00\n        /* \"Umbra-Cash/contracts/StealthKeyRegistry.sol\":8365:8382  keys[_registrant] */\n      swap1\n      dup2\n      mstore\n      0x20\n      dup2\n      dup2\n      mstore\n      0x40\n      dup1\n      dup4\n      keccak256\n        /* \"Umbra-Cash/contracts/StealthKeyRegistry.sol\":8383:8384  2 */\n      0x02\n        /* \"Umbra-Cash/contracts/StealthKeyRegistry.sol\":8365:8385  keys[_registrant][2] */\n      dup5\n      mstore\n      swap1\n      swap2\n      mstore\n      swap1\n      keccak256\n      sload\n        /* \"Umbra-Cash/contracts/StealthKeyRegistry.sol\":8365:8390  keys[_registrant][2] != 0 */\n      iszero\n        /* \"Umbra-Cash/contracts/StealthKeyRegistry.sol\":8361:8562  if (keys[_registrant][2] != 0) {... */\n      tag_48\n      jumpi\n      pop\n      pop\n      sub(shl(0xa0, 0x01), 0x01)\n        /* \"Umbra-Cash/contracts/StealthKeyRegistry.sol\":8447:8464  keys[_registrant] */\n      dup4\n      and\n        /* \"Umbra-Cash/contracts/StealthKeyRegistry.sol\":8447:8451  keys */\n      0x00\n        /* \"Umbra-Cash/contracts/StealthKeyRegistry.sol\":8447:8464  keys[_registrant] */\n      swap1\n      dup2\n      mstore\n      0x20\n      dup2\n      dup2\n      mstore\n      0x40\n      dup1\n      dup4\n      keccak256\n        /* \"Umbra-Cash/contracts/StealthKeyRegistry.sol\":8422:8423  2 */\n      0x02\n        /* \"Umbra-Cash/contracts/StealthKeyRegistry.sol\":8447:8467  keys[_registrant][2] */\n      dup1\n      dup6\n      mstore\n      swap3\n      mstore\n      swap1\n      swap2\n      keccak256\n      sload\n        /* \"Umbra-Cash/contracts/StealthKeyRegistry.sol\":8361:8562  if (keys[_registrant][2] != 0) {... */\n      jump(tag_49)\n    tag_48:\n      pop\n      pop\n      sub(shl(0xa0, 0x01), 0x01)\n        /* \"Umbra-Cash/contracts/StealthKeyRegistry.sol\":8535:8552  keys[_registrant] */\n      dup4\n      and\n        /* \"Umbra-Cash/contracts/StealthKeyRegistry.sol\":8535:8539  keys */\n      0x00\n        /* \"Umbra-Cash/contracts/StealthKeyRegistry.sol\":8535:8552  keys[_registrant] */\n      swap1\n      dup2\n      mstore\n      0x20\n      dup2\n      dup2\n      mstore\n      0x40\n      dup1\n      dup4\n      keccak256\n        /* \"Umbra-Cash/contracts/StealthKeyRegistry.sol\":8510:8511  3 */\n      0x03\n        /* \"Umbra-Cash/contracts/StealthKeyRegistry.sol\":8535:8555  keys[_registrant][3] */\n      dup1\n      dup6\n      mstore\n      swap3\n      mstore\n      swap1\n      swap2\n      keccak256\n      sload\n        /* \"Umbra-Cash/contracts/StealthKeyRegistry.sol\":8361:8562  if (keys[_registrant][2] != 0) {... */\n    tag_49:\n        /* \"Umbra-Cash/contracts/StealthKeyRegistry.sol\":7929:8654  function stealthKeys(address _registrant)... */\n      swap2\n      swap4\n      pop\n      swap2\n      swap4\n      jump\t// out\n        /* \"Umbra-Cash/contracts/StealthKeyRegistry.sol\":6411:7395  function _setStealthKeys(... */\n    tag_42:\n        /* \"Umbra-Cash/contracts/StealthKeyRegistry.sol\":6622:6643  _spendingPubKeyPrefix */\n      dup4\n        /* \"Umbra-Cash/contracts/StealthKeyRegistry.sol\":6647:6648  2 */\n      0x02\n        /* \"Umbra-Cash/contracts/StealthKeyRegistry.sol\":6622:6648  _spendingPubKeyPrefix == 2 */\n      eq\n        /* \"Umbra-Cash/contracts/StealthKeyRegistry.sol\":6622:6678  _spendingPubKeyPrefix == 2 || _spendingPubKeyPrefix == 3 */\n      dup1\n      tag_51\n      jumpi\n      pop\n        /* \"Umbra-Cash/contracts/StealthKeyRegistry.sol\":6652:6673  _spendingPubKeyPrefix */\n      dup4\n        /* \"Umbra-Cash/contracts/StealthKeyRegistry.sol\":6677:6678  3 */\n      0x03\n        /* \"Umbra-Cash/contracts/StealthKeyRegistry.sol\":6652:6678  _spendingPubKeyPrefix == 3 */\n      eq\n        /* \"Umbra-Cash/contracts/StealthKeyRegistry.sol\":6622:6678  _spendingPubKeyPrefix == 2 || _spendingPubKeyPrefix == 3 */\n    tag_51:\n        /* \"Umbra-Cash/contracts/StealthKeyRegistry.sol\":6621:6747  (_spendingPubKeyPrefix == 2 || _spendingPubKeyPrefix == 3) &&... */\n      dup1\n      iszero\n      tag_53\n      jumpi\n      pop\n        /* \"Umbra-Cash/contracts/StealthKeyRegistry.sol\":6692:6712  _viewingPubKeyPrefix */\n      dup2\n        /* \"Umbra-Cash/contracts/StealthKeyRegistry.sol\":6716:6717  2 */\n      0x02\n        /* \"Umbra-Cash/contracts/StealthKeyRegistry.sol\":6692:6717  _viewingPubKeyPrefix == 2 */\n      eq\n        /* \"Umbra-Cash/contracts/StealthKeyRegistry.sol\":6692:6746  _viewingPubKeyPrefix == 2 || _viewingPubKeyPrefix == 3 */\n      dup1\n      tag_53\n      jumpi\n      pop\n        /* \"Umbra-Cash/contracts/StealthKeyRegistry.sol\":6721:6741  _viewingPubKeyPrefix */\n      dup2\n        /* \"Umbra-Cash/contracts/StealthKeyRegistry.sol\":6745:6746  3 */\n      0x03\n        /* \"Umbra-Cash/contracts/StealthKeyRegistry.sol\":6721:6746  _viewingPubKeyPrefix == 3 */\n      eq\n        /* \"Umbra-Cash/contracts/StealthKeyRegistry.sol\":6692:6746  _viewingPubKeyPrefix == 2 || _viewingPubKeyPrefix == 3 */\n    tag_53:\n        /* \"Umbra-Cash/contracts/StealthKeyRegistry.sol\":6606:6797  require(... */\n      tag_54\n      jumpi\n      mload(0x40)\n      shl(0xe5, 0x461bcd)\n      dup2\n      mstore\n        /* \"#utility.yul\":4504:4506   */\n      0x20\n        /* \"Umbra-Cash/contracts/StealthKeyRegistry.sol\":6606:6797  require(... */\n      0x04\n      dup3\n      add\n        /* \"#utility.yul\":4486:4507   */\n      mstore\n        /* \"#utility.yul\":4543:4545   */\n      0x22\n        /* \"#utility.yul\":4523:4541   */\n      0x24\n      dup3\n      add\n        /* \"#utility.yul\":4516:4546   */\n      mstore\n        /* \"#utility.yul\":4582:4616   */\n      0x537465616c74684b657952656769737472793a20496e76616c69642050726566\n        /* \"#utility.yul\":4562:4580   */\n      0x44\n      dup3\n      add\n        /* \"#utility.yul\":4555:4617   */\n      mstore\n      shl(0xf3, 0x0d2f)\n        /* \"#utility.yul\":4633:4651   */\n      0x64\n      dup3\n      add\n        /* \"#utility.yul\":4626:4658   */\n      mstore\n        /* \"#utility.yul\":4675:4694   */\n      0x84\n      add\n        /* \"Umbra-Cash/contracts/StealthKeyRegistry.sol\":6606:6797  require(... */\n      tag_39\n        /* \"#utility.yul\":4302:4700   */\n      jump\n        /* \"Umbra-Cash/contracts/StealthKeyRegistry.sol\":6606:6797  require(... */\n    tag_54:\n        /* \"Umbra-Cash/contracts/StealthKeyRegistry.sol\":6809:6917  StealthKeyChanged(_registrant, _spendingPubKeyPrefix, _spendingPubKey, _viewingPubKeyPrefix, _viewingPubKey) */\n      0x40\n      dup1\n      mload\n        /* \"#utility.yul\":2463:2488   */\n      dup6\n      dup2\n      mstore\n        /* \"#utility.yul\":2519:2521   */\n      0x20\n        /* \"#utility.yul\":2504:2522   */\n      dup2\n      add\n        /* \"#utility.yul\":2497:2531   */\n      dup6\n      swap1\n      mstore\n        /* \"#utility.yul\":2547:2565   */\n      swap1\n      dup2\n      add\n        /* \"#utility.yul\":2540:2574   */\n      dup4\n      swap1\n      mstore\n        /* \"#utility.yul\":2605:2607   */\n      0x60\n        /* \"#utility.yul\":2590:2608   */\n      dup2\n      add\n        /* \"#utility.yul\":2583:2617   */\n      dup3\n      swap1\n      mstore\n      sub(shl(0xa0, 0x01), 0x01)\n        /* \"Umbra-Cash/contracts/StealthKeyRegistry.sol\":6809:6917  StealthKeyChanged(_registrant, _spendingPubKeyPrefix, _spendingPubKey, _viewingPubKeyPrefix, _viewingPubKey) */\n      dup7\n      and\n      swap1\n      0xe879dede910dd3b22239a11044df83c95adcd4b54003516f42866cc1fe4f0a19\n      swap1\n        /* \"#utility.yul\":2450:2453   */\n      0x80\n        /* \"#utility.yul\":2435:2454   */\n      add\n        /* \"Umbra-Cash/contracts/StealthKeyRegistry.sol\":6809:6917  StealthKeyChanged(_registrant, _spendingPubKeyPrefix, _spendingPubKey, _viewingPubKeyPrefix, _viewingPubKey) */\n      mload(0x40)\n      dup1\n      swap2\n      sub\n      swap1\n      log2\n        /* \"Umbra-Cash/contracts/StealthKeyRegistry.sol\":7014:7040  _spendingPubKeyPrefix -= 2 */\n      tag_58\n        /* \"Umbra-Cash/contracts/StealthKeyRegistry.sol\":7039:7040  2 */\n      0x02\n        /* \"Umbra-Cash/contracts/StealthKeyRegistry.sol\":7014:7040  _spendingPubKeyPrefix -= 2 */\n      dup6\n      tag_59\n      jump\t// in\n    tag_58:\n      sub(shl(0xa0, 0x01), 0x01)\n        /* \"Umbra-Cash/contracts/StealthKeyRegistry.sol\":7106:7123  keys[_registrant] */\n      dup7\n      and\n        /* \"Umbra-Cash/contracts/StealthKeyRegistry.sol\":7106:7110  keys */\n      0x00\n        /* \"Umbra-Cash/contracts/StealthKeyRegistry.sol\":7106:7123  keys[_registrant] */\n      swap1\n      dup2\n      mstore\n      0x20\n      dup2\n      swap1\n      mstore\n      0x40\n      dup2\n      keccak256\n        /* \"Umbra-Cash/contracts/StealthKeyRegistry.sol\":7014:7040  _spendingPubKeyPrefix -= 2 */\n      swap2\n      swap6\n      pop\n        /* \"Umbra-Cash/contracts/StealthKeyRegistry.sol\":7124:7149  1 - _spendingPubKeyPrefix */\n      tag_60\n        /* \"Umbra-Cash/contracts/StealthKeyRegistry.sol\":7014:7040  _spendingPubKeyPrefix -= 2 */\n      dup7\n        /* \"Umbra-Cash/contracts/StealthKeyRegistry.sol\":7124:7125  1 */\n      0x01\n        /* \"Umbra-Cash/contracts/StealthKeyRegistry.sol\":7124:7149  1 - _spendingPubKeyPrefix */\n      tag_59\n      jump\t// in\n    tag_60:\n        /* \"Umbra-Cash/contracts/StealthKeyRegistry.sol\":7106:7150  keys[_registrant][1 - _spendingPubKeyPrefix] */\n      dup2\n      mstore\n      0x20\n      dup1\n      dup3\n      add\n      swap3\n      swap1\n      swap3\n      mstore\n      0x40\n      swap1\n      dup2\n      add\n      0x00\n      swap1\n      dup2\n      keccak256\n        /* \"Umbra-Cash/contracts/StealthKeyRegistry.sol\":7099:7150  delete keys[_registrant][1 - _spendingPubKeyPrefix] */\n      dup2\n      swap1\n      sstore\n      sub(shl(0xa0, 0x01), 0x01)\n        /* \"Umbra-Cash/contracts/StealthKeyRegistry.sol\":7163:7180  keys[_registrant] */\n      dup9\n      and\n      dup2\n      mstore\n      swap2\n      dup3\n      swap1\n      mstore\n      dup2\n      keccak256\n      swap1\n        /* \"Umbra-Cash/contracts/StealthKeyRegistry.sol\":7181:7205  5 - _viewingPubKeyPrefix */\n      tag_61\n        /* \"Umbra-Cash/contracts/StealthKeyRegistry.sol\":7185:7205  _viewingPubKeyPrefix */\n      dup5\n        /* \"Umbra-Cash/contracts/StealthKeyRegistry.sol\":7181:7182  5 */\n      0x05\n        /* \"Umbra-Cash/contracts/StealthKeyRegistry.sol\":7181:7205  5 - _viewingPubKeyPrefix */\n      tag_59\n      jump\t// in\n    tag_61:\n        /* \"Umbra-Cash/contracts/StealthKeyRegistry.sol\":7163:7206  keys[_registrant][5 - _viewingPubKeyPrefix] */\n      dup2\n      mstore\n      0x20\n      dup1\n      dup3\n      add\n      swap3\n      swap1\n      swap3\n      mstore\n      0x40\n      swap1\n      dup2\n      add\n      0x00\n      swap1\n      dup2\n      keccak256\n        /* \"Umbra-Cash/contracts/StealthKeyRegistry.sol\":7156:7206  delete keys[_registrant][5 - _viewingPubKeyPrefix] */\n      dup2\n      swap1\n      sstore\n      sub(shl(0xa0, 0x01), 0x01)\n        /* \"Umbra-Cash/contracts/StealthKeyRegistry.sol\":7270:7287  keys[_registrant] */\n      swap8\n      swap1\n      swap8\n      and\n      dup8\n      mstore\n      dup7\n      dup3\n      mstore\n      dup1\n      dup8\n      keccak256\n        /* \"Umbra-Cash/contracts/StealthKeyRegistry.sol\":7270:7310  keys[_registrant][_spendingPubKeyPrefix] */\n      swap6\n      dup8\n      mstore\n      swap5\n      swap1\n      mstore\n      dup4\n      dup6\n      keccak256\n        /* \"Umbra-Cash/contracts/StealthKeyRegistry.sol\":7270:7328  keys[_registrant][_spendingPubKeyPrefix] = _spendingPubKey */\n      swap3\n      swap1\n      swap3\n      sstore\n        /* \"Umbra-Cash/contracts/StealthKeyRegistry.sol\":7334:7373  keys[_registrant][_viewingPubKeyPrefix] */\n      dup4\n      mstore\n      swap2\n      keccak256\n        /* \"Umbra-Cash/contracts/StealthKeyRegistry.sol\":7334:7390  keys[_registrant][_viewingPubKeyPrefix] = _viewingPubKey */\n      sstore\n        /* \"Umbra-Cash/contracts/StealthKeyRegistry.sol\":6411:7395  function _setStealthKeys(... */\n      jump\t// out\n        /* \"#utility.yul\":14:187   */\n    tag_62:\n        /* \"#utility.yul\":82:102   */\n      dup1\n      calldataload\n      sub(shl(0xa0, 0x01), 0x01)\n        /* \"#utility.yul\":131:162   */\n      dup2\n      and\n        /* \"#utility.yul\":121:163   */\n      dup2\n      eq\n        /* \"#utility.yul\":111:181   */\n      tag_65\n      jumpi\n        /* \"#utility.yul\":177:178   */\n      0x00\n        /* \"#utility.yul\":174:175   */\n      0x00\n        /* \"#utility.yul\":167:179   */\n      revert\n        /* \"#utility.yul\":111:181   */\n    tag_65:\n        /* \"#utility.yul\":14:187   */\n      swap2\n      swap1\n      pop\n      jump\t// out\n        /* \"#utility.yul\":192:1262   */\n    tag_10:\n        /* \"#utility.yul\":312:318   */\n      0x00\n        /* \"#utility.yul\":320:326   */\n      0x00\n        /* \"#utility.yul\":328:334   */\n      0x00\n        /* \"#utility.yul\":336:342   */\n      0x00\n        /* \"#utility.yul\":344:350   */\n      0x00\n        /* \"#utility.yul\":352:358   */\n      0x00\n        /* \"#utility.yul\":360:366   */\n      0x00\n        /* \"#utility.yul\":368:374   */\n      0x00\n        /* \"#utility.yul\":421:424   */\n      0x0100\n        /* \"#utility.yul\":409:418   */\n      dup10\n        /* \"#utility.yul\":400:407   */\n      dup12\n        /* \"#utility.yul\":396:419   */\n      sub\n        /* \"#utility.yul\":392:425   */\n      slt\n        /* \"#utility.yul\":389:442   */\n      iszero\n      tag_67\n      jumpi\n        /* \"#utility.yul\":438:439   */\n      0x00\n        /* \"#utility.yul\":435:436   */\n      0x00\n        /* \"#utility.yul\":428:440   */\n      revert\n        /* \"#utility.yul\":389:442   */\n    tag_67:\n        /* \"#utility.yul\":461:490   */\n      tag_68\n        /* \"#utility.yul\":480:489   */\n      dup10\n        /* \"#utility.yul\":461:490   */\n      tag_62\n      jump\t// in\n    tag_68:\n        /* \"#utility.yul\":451:490   */\n      swap8\n      pop\n        /* \"#utility.yul\":559:561   */\n      0x20\n        /* \"#utility.yul\":544:562   */\n      dup10\n      add\n        /* \"#utility.yul\":531:563   */\n      calldataload\n      swap7\n      pop\n        /* \"#utility.yul\":660:662   */\n      0x40\n        /* \"#utility.yul\":645:663   */\n      dup10\n      add\n        /* \"#utility.yul\":632:664   */\n      calldataload\n      swap6\n      pop\n        /* \"#utility.yul\":763:765   */\n      0x60\n        /* \"#utility.yul\":748:766   */\n      dup10\n      add\n        /* \"#utility.yul\":735:767   */\n      calldataload\n      swap5\n      pop\n        /* \"#utility.yul\":866:869   */\n      0x80\n        /* \"#utility.yul\":851:870   */\n      dup10\n      add\n        /* \"#utility.yul\":838:871   */\n      calldataload\n      swap4\n      pop\n        /* \"#utility.yul\":949:952   */\n      0xa0\n        /* \"#utility.yul\":934:953   */\n      dup10\n      add\n        /* \"#utility.yul\":921:954   */\n      calldataload\n        /* \"#utility.yul\":998:1002   */\n      0xff\n        /* \"#utility.yul\":985:1003   */\n      dup2\n      and\n        /* \"#utility.yul\":973:1004   */\n      dup2\n      eq\n        /* \"#utility.yul\":963:1022   */\n      tag_69\n      jumpi\n        /* \"#utility.yul\":1018:1019   */\n      0x00\n        /* \"#utility.yul\":1015:1016   */\n      0x00\n        /* \"#utility.yul\":1008:1020   */\n      revert\n        /* \"#utility.yul\":963:1022   */\n    tag_69:\n        /* \"#utility.yul\":192:1262   */\n      swap8\n      swap11\n      swap7\n      swap10\n      pop\n      swap5\n      swap8\n      swap4\n      swap7\n      swap3\n      swap6\n        /* \"#utility.yul\":1041:1048   */\n      swap3\n      swap5\n      pop\n      pop\n      pop\n        /* \"#utility.yul\":1121:1124   */\n      0xc0\n        /* \"#utility.yul\":1106:1125   */\n      dup3\n      add\n        /* \"#utility.yul\":1093:1126   */\n      calldataload\n      swap2\n        /* \"#utility.yul\":1225:1228   */\n      0xe0\n        /* \"#utility.yul\":1210:1229   */\n      add\n        /* \"#utility.yul\":1197:1230   */\n      calldataload\n      swap1\n        /* \"#utility.yul\":192:1262   */\n      jump\t// out\n        /* \"#utility.yul\":1449:2036   */\n    tag_21:\n        /* \"#utility.yul\":1535:1541   */\n      0x00\n        /* \"#utility.yul\":1543:1549   */\n      0x00\n        /* \"#utility.yul\":1551:1557   */\n      0x00\n        /* \"#utility.yul\":1559:1565   */\n      0x00\n        /* \"#utility.yul\":1612:1615   */\n      0x80\n        /* \"#utility.yul\":1600:1609   */\n      dup6\n        /* \"#utility.yul\":1591:1598   */\n      dup8\n        /* \"#utility.yul\":1587:1610   */\n      sub\n        /* \"#utility.yul\":1583:1616   */\n      slt\n        /* \"#utility.yul\":1580:1633   */\n      iszero\n      tag_72\n      jumpi\n        /* \"#utility.yul\":1629:1630   */\n      0x00\n        /* \"#utility.yul\":1626:1627   */\n      0x00\n        /* \"#utility.yul\":1619:1631   */\n      revert\n        /* \"#utility.yul\":1580:1633   */\n    tag_72:\n      pop\n      pop\n        /* \"#utility.yul\":1674:1697   */\n      dup3\n      calldataload\n      swap5\n        /* \"#utility.yul\":1794:1796   */\n      0x20\n        /* \"#utility.yul\":1779:1797   */\n      dup5\n      add\n        /* \"#utility.yul\":1766:1798   */\n      calldataload\n      swap5\n      pop\n        /* \"#utility.yul\":1897:1899   */\n      0x40\n        /* \"#utility.yul\":1882:1900   */\n      dup5\n      add\n        /* \"#utility.yul\":1869:1901   */\n      calldataload\n      swap4\n        /* \"#utility.yul\":2000:2002   */\n      0x60\n        /* \"#utility.yul\":1985:2003   */\n      add\n        /* \"#utility.yul\":1972:2004   */\n      calldataload\n      swap3\n      pop\n        /* \"#utility.yul\":1449:2036   */\n      swap1\n      pop\n      jump\t// out\n        /* \"#utility.yul\":2041:2227   */\n    tag_25:\n        /* \"#utility.yul\":2100:2106   */\n      0x00\n        /* \"#utility.yul\":2153:2155   */\n      0x20\n        /* \"#utility.yul\":2141:2150   */\n      dup3\n        /* \"#utility.yul\":2132:2139   */\n      dup5\n        /* \"#utility.yul\":2128:2151   */\n      sub\n        /* \"#utility.yul\":2124:2156   */\n      slt\n        /* \"#utility.yul\":2121:2173   */\n      iszero\n      tag_74\n      jumpi\n        /* \"#utility.yul\":2169:2170   */\n      0x00\n        /* \"#utility.yul\":2166:2167   */\n      0x00\n        /* \"#utility.yul\":2159:2171   */\n      revert\n        /* \"#utility.yul\":2121:2173   */\n    tag_74:\n        /* \"#utility.yul\":2192:2221   */\n      tag_75\n        /* \"#utility.yul\":2211:2220   */\n      dup3\n        /* \"#utility.yul\":2192:2221   */\n      tag_62\n      jump\t// in\n    tag_75:\n        /* \"#utility.yul\":2182:2221   */\n      swap4\n        /* \"#utility.yul\":2041:2227   */\n      swap3\n      pop\n      pop\n      pop\n      jump\t// out\n        /* \"#utility.yul\":4705:4930   */\n    tag_59:\n        /* \"#utility.yul\":4772:4781   */\n      dup2\n      dup2\n      sub\n        /* \"#utility.yul\":4793:4804   */\n      dup2\n      dup2\n      gt\n        /* \"#utility.yul\":4790:4924   */\n      iszero\n      tag_83\n      jumpi\n        /* \"#utility.yul\":4846:4856   */\n      0x4e487b71\n        /* \"#utility.yul\":4841:4844   */\n      0xe0\n        /* \"#utility.yul\":4837:4857   */\n      shl\n        /* \"#utility.yul\":4834:4835   */\n      0x00\n        /* \"#utility.yul\":4827:4858   */\n      mstore\n        /* \"#utility.yul\":4881:4885   */\n      0x11\n        /* \"#utility.yul\":4878:4879   */\n      0x04\n        /* \"#utility.yul\":4871:4886   */\n      mstore\n        /* \"#utility.yul\":4909:4913   */\n      0x24\n        /* \"#utility.yul\":4906:4907   */\n      0x00\n        /* \"#utility.yul\":4899:4914   */\n      revert\n        /* \"#utility.yul\":4790:4924   */\n    tag_83:\n        /* \"#utility.yul\":4705:4930   */\n      swap3\n      swap2\n      pop\n      pop\n      jump\t// out\n\n    auxdata: 0xa26469706673582212206278dc42b08a82b85235b4e1395241015fa4a66f99f8a07fa274af0081a39c3a64736f6c634300081b0033\n}\n",
				"bytecode": {
					"linkReferences": {},
					"object": "60a060405234801561000f575f5ffd5b50604080518082018252601a81527f556d62726120537465616c7468204b65792052656769737472790000000000006020918201528151808301835260018152603160f81b9082015281517f8b73c3c69bb8fe3d512ecc4cf759cc79239f7b179b0ffacaa9a75d522b39400f918101919091527f4baf469995623d4e8baaebc31ddb114fbc90e91c717e133da2fb936309b41eb9918101919091527fc89efdaa54c0f20c7adf612882df0950f5a951637e0307cdcb4c672f298b8bc660608201524660808201523060a082015260c00160408051601f19818403018152919052805160209091012060805260805161066f6101185f395f818160730152610185015261066f5ff3fe608060405234801561000f575f5ffd5b5060043610610055575f3560e01c8063100dcc53146100595780633644e5151461006e57806367eaa7ac146100a8578063bb8f257b146100cf578063cec2a787146100e2575b5f5ffd5b61006c610067366004610556565b610115565b005b6100957f000000000000000000000000000000000000000000000000000000000000000081565b6040519081526020015b60405180910390f35b6100957fab73c83a21fb894c20095a8f28177984b02f6284c760e4c1ac2f82c3d34b79c181565b61006c6100dd3660046105c5565b6102b6565b6100f56100f03660046105f4565b6102c9565b60408051948552602085019390935291830152606082015260800161009f565b604080517fab73c83a21fb894c20095a8f28177984b02f6284c760e4c1ac2f82c3d34b79c16020808301919091528183018a9052606082018990526080820188905260a08083018890528351808403909101815260c08301909352825192019190912061190160f01b60e08301527f000000000000000000000000000000000000000000000000000000000000000060e28301526101028201525f906101220160408051601f1981840301815282825280516020918201205f80855291840180845281905260ff88169284019290925260608301869052608083018590529092509060019060a0016020604051602081039080840390855afa15801561021d573d5f5f3e3d5ffd5b505050602060405103519050896001600160a01b0316816001600160a01b03161461029d5760405162461bcd60e51b815260206004820152602560248201527f537465616c74684b657952656769737472793a20496e76616c6964205369676e604482015264617475726560d81b60648201526084015b60405180910390fd5b6102aa8a8a8a8a8a6103c8565b50505050505050505050565b6102c333858585856103c8565b50505050565b6001600160a01b0381165f9081526020818152604080832083805290915281205481908190819015610321576001600160a01b0385165f9081526020818152604080832083805290915290205460029450925061034a565b6001600160a01b0385165f90815260208181526040808320600184529091529020546003945092505b6001600160a01b0385165f90815260208181526040808320600284529091529020541561039b5750506001600160a01b0383165f9081526020818152604080832060028085529252909120546103c1565b50506001600160a01b0383165f9081526020818152604080832060038085529252909120545b9193509193565b83600214806103d75750836003145b80156103ed575081600214806103ed5750816003145b6104445760405162461bcd60e51b815260206004820152602260248201527f537465616c74684b657952656769737472793a20496e76616c696420507265666044820152610d2f60f31b6064820152608401610294565b6040805185815260208101859052908101839052606081018290526001600160a01b038616907fe879dede910dd3b22239a11044df83c95adcd4b54003516f42866cc1fe4f0a199060800160405180910390a26104a2600285610614565b6001600160a01b0386165f9081526020819052604081209195506104c7866001610614565b815260208082019290925260409081015f9081208190556001600160a01b0388168152918290528120906104fc846005610614565b815260208082019290925260409081015f9081208190556001600160a01b03979097168752868252808720958752949052838520929092558352912055565b80356001600160a01b0381168114610551575f5ffd5b919050565b5f5f5f5f5f5f5f5f610100898b03121561056e575f5ffd5b6105778961053b565b97506020890135965060408901359550606089013594506080890135935060a089013560ff811681146105a8575f5ffd5b979a969950949793969295929450505060c08201359160e0013590565b5f5f5f5f608085870312156105d8575f5ffd5b5050823594602084013594506040840135936060013592509050565b5f60208284031215610604575f5ffd5b61060d8261053b565b9392505050565b8181038181111561063357634e487b7160e01b5f52601160045260245ffd5b9291505056fea26469706673582212206278dc42b08a82b85235b4e1395241015fa4a66f99f8a07fa274af0081a39c3a64736f6c634300081b0033",
					"opcodes": "PUSH1 0xA0 PUSH1 0x40 MSTORE CALLVALUE DUP1 ISZERO PUSH2 0xF JUMPI PUSH0 PUSH0 REVERT JUMPDEST POP PUSH1 0x40 DUP1 MLOAD DUP1 DUP3 ADD DUP3 MSTORE PUSH1 0x1A DUP2 MSTORE PUSH32 0x556D62726120537465616C7468204B6579205265676973747279000000000000 PUSH1 0x20 SWAP2 DUP3 ADD MSTORE DUP2 MLOAD DUP1 DUP4 ADD DUP4 MSTORE PUSH1 0x1 DUP2 MSTORE PUSH1 0x31 PUSH1 0xF8 SHL SWAP1 DUP3 ADD MSTORE DUP2 MLOAD PUSH32 0x8B73C3C69BB8FE3D512ECC4CF759CC79239F7B179B0FFACAA9A75D522B39400F SWAP2 DUP2 ADD SWAP2 SWAP1 SWAP2 MSTORE PUSH32 0x4BAF469995623D4E8BAAEBC31DDB114FBC90E91C717E133DA2FB936309B41EB9 SWAP2 DUP2 ADD SWAP2 SWAP1 SWAP2 MSTORE PUSH32 0xC89EFDAA54C0F20C7ADF612882DF0950F5A951637E0307CDCB4C672F298B8BC6 PUSH1 0x60 DUP3 ADD MSTORE CHAINID PUSH1 0x80 DUP3 ADD MSTORE ADDRESS PUSH1 0xA0 DUP3 ADD MSTORE PUSH1 0xC0 ADD PUSH1 0x40 DUP1 MLOAD PUSH1 0x1F NOT DUP2 DUP5 SUB ADD DUP2 MSTORE SWAP2 SWAP1 MSTORE DUP1 MLOAD PUSH1 0x20 SWAP1 SWAP2 ADD KECCAK256 PUSH1 0x80 MSTORE PUSH1 0x80 MLOAD PUSH2 0x66F PUSH2 0x118 PUSH0 CODECOPY PUSH0 DUP2 DUP2 PUSH1 0x73 ADD MSTORE PUSH2 0x185 ADD MSTORE PUSH2 0x66F PUSH0 RETURN INVALID PUSH1 0x80 PUSH1 0x40 MSTORE CALLVALUE DUP1 ISZERO PUSH2 0xF JUMPI PUSH0 PUSH0 REVERT JUMPDEST POP PUSH1 0x4 CALLDATASIZE LT PUSH2 0x55 JUMPI PUSH0 CALLDATALOAD PUSH1 0xE0 SHR DUP1 PUSH4 0x100DCC53 EQ PUSH2 0x59 JUMPI DUP1 PUSH4 0x3644E515 EQ PUSH2 0x6E JUMPI DUP1 PUSH4 0x67EAA7AC EQ PUSH2 0xA8 JUMPI DUP1 PUSH4 0xBB8F257B EQ PUSH2 0xCF JUMPI DUP1 PUSH4 0xCEC2A787 EQ PUSH2 0xE2 JUMPI JUMPDEST PUSH0 PUSH0 REVERT JUMPDEST PUSH2 0x6C PUSH2 0x67 CALLDATASIZE PUSH1 0x4 PUSH2 0x556 JUMP JUMPDEST PUSH2 0x115 JUMP JUMPDEST STOP JUMPDEST PUSH2 0x95 PUSH32 0x0 DUP2 JUMP JUMPDEST PUSH1 0x40 MLOAD SWAP1 DUP2 MSTORE PUSH1 0x20 ADD JUMPDEST PUSH1 0x40 MLOAD DUP1 SWAP2 SUB SWAP1 RETURN JUMPDEST PUSH2 0x95 PUSH32 0xAB73C83A21FB894C20095A8F28177984B02F6284C760E4C1AC2F82C3D34B79C1 DUP2 JUMP JUMPDEST PUSH2 0x6C PUSH2 0xDD CALLDATASIZE PUSH1 0x4 PUSH2 0x5C5 JUMP JUMPDEST PUSH2 0x2B6 JUMP JUMPDEST PUSH2 0xF5 PUSH2 0xF0 CALLDATASIZE PUSH1 0x4 PUSH2 0x5F4 JUMP JUMPDEST PUSH2 0x2C9 JUMP JUMPDEST PUSH1 0x40 DUP1 MLOAD SWAP5 DUP6 MSTORE PUSH1 0x20 DUP6 ADD SWAP4 SWAP1 SWAP4 MSTORE SWAP2 DUP4 ADD MSTORE PUSH1 0x60 DUP3 ADD MSTORE PUSH1 0x80 ADD PUSH2 0x9F JUMP JUMPDEST PUSH1 0x40 DUP1 MLOAD PUSH32 0xAB73C83A21FB894C20095A8F28177984B02F6284C760E4C1AC2F82C3D34B79C1 PUSH1 0x20 DUP1 DUP4 ADD SWAP2 SWAP1 SWAP2 MSTORE DUP2 DUP4 ADD DUP11 SWAP1 MSTORE PUSH1 0x60 DUP3 ADD DUP10 SWAP1 MSTORE PUSH1 0x80 DUP3 ADD DUP9 SWAP1 MSTORE PUSH1 0xA0 DUP1 DUP4 ADD DUP9 SWAP1 MSTORE DUP4 MLOAD DUP1 DUP5 SUB SWAP1 SWAP2 ADD DUP2 MSTORE PUSH1 0xC0 DUP4 ADD SWAP1 SWAP4 MSTORE DUP3 MLOAD SWAP3 ADD SWAP2 SWAP1 SWAP2 KECCAK256 PUSH2 0x1901 PUSH1 0xF0 SHL PUSH1 0xE0 DUP4 ADD MSTORE PUSH32 0x0 PUSH1 0xE2 DUP4 ADD MSTORE PUSH2 0x102 DUP3 ADD MSTORE PUSH0 SWAP1 PUSH2 0x122 ADD PUSH1 0x40 DUP1 MLOAD PUSH1 0x1F NOT DUP2 DUP5 SUB ADD DUP2 MSTORE DUP3 DUP3 MSTORE DUP1 MLOAD PUSH1 0x20 SWAP2 DUP3 ADD KECCAK256 PUSH0 DUP1 DUP6 MSTORE SWAP2 DUP5 ADD DUP1 DUP5 MSTORE DUP2 SWAP1 MSTORE PUSH1 0xFF DUP9 AND SWAP3 DUP5 ADD SWAP3 SWAP1 SWAP3 MSTORE PUSH1 0x60 DUP4 ADD DUP7 SWAP1 MSTORE PUSH1 0x80 DUP4 ADD DUP6 SWAP1 MSTORE SWAP1 SWAP3 POP SWAP1 PUSH1 0x1 SWAP1 PUSH1 0xA0 ADD PUSH1 0x20 PUSH1 0x40 MLOAD PUSH1 0x20 DUP2 SUB SWAP1 DUP1 DUP5 SUB SWAP1 DUP6 GAS STATICCALL ISZERO DUP1 ISZERO PUSH2 0x21D JUMPI RETURNDATASIZE PUSH0 PUSH0 RETURNDATACOPY RETURNDATASIZE PUSH0 REVERT JUMPDEST POP POP POP PUSH1 0x20 PUSH1 0x40 MLOAD SUB MLOAD SWAP1 POP DUP10 PUSH1 0x1 PUSH1 0x1 PUSH1 0xA0 SHL SUB AND DUP2 PUSH1 0x1 PUSH1 0x1 PUSH1 0xA0 SHL SUB AND EQ PUSH2 0x29D JUMPI PUSH1 0x40 MLOAD PUSH3 0x461BCD PUSH1 0xE5 SHL DUP2 MSTORE PUSH1 0x20 PUSH1 0x4 DUP3 ADD MSTORE PUSH1 0x25 PUSH1 0x24 DUP3 ADD MSTORE PUSH32 0x537465616C74684B657952656769737472793A20496E76616C6964205369676E PUSH1 0x44 DUP3 ADD MSTORE PUSH5 0x6174757265 PUSH1 0xD8 SHL PUSH1 0x64 DUP3 ADD MSTORE PUSH1 0x84 ADD JUMPDEST PUSH1 0x40 MLOAD DUP1 SWAP2 SUB SWAP1 REVERT JUMPDEST PUSH2 0x2AA DUP11 DUP11 DUP11 DUP11 DUP11 PUSH2 0x3C8 JUMP JUMPDEST POP POP POP POP POP POP POP POP POP POP JUMP JUMPDEST PUSH2 0x2C3 CALLER DUP6 DUP6 DUP6 DUP6 PUSH2 0x3C8 JUMP JUMPDEST POP POP POP POP JUMP JUMPDEST PUSH1 0x1 PUSH1 0x1 PUSH1 0xA0 SHL SUB DUP2 AND PUSH0 SWAP1 DUP2 MSTORE PUSH1 0x20 DUP2 DUP2 MSTORE PUSH1 0x40 DUP1 DUP4 KECCAK256 DUP4 DUP1 MSTORE SWAP1 SWAP2 MSTORE DUP2 KECCAK256 SLOAD DUP2 SWAP1 DUP2 SWAP1 DUP2 SWAP1 ISZERO PUSH2 0x321 JUMPI PUSH1 0x1 PUSH1 0x1 PUSH1 0xA0 SHL SUB DUP6 AND PUSH0 SWAP1 DUP2 MSTORE PUSH1 0x20 DUP2 DUP2 MSTORE PUSH1 0x40 DUP1 DUP4 KECCAK256 DUP4 DUP1 MSTORE SWAP1 SWAP2 MSTORE SWAP1 KECCAK256 SLOAD PUSH1 0x2 SWAP5 POP SWAP3 POP PUSH2 0x34A JUMP JUMPDEST PUSH1 0x1 PUSH1 0x1 PUSH1 0xA0 SHL SUB DUP6 AND PUSH0 SWAP1 DUP2 MSTORE PUSH1 0x20 DUP2 DUP2 MSTORE PUSH1 0x40 DUP1 DUP4 KECCAK256 PUSH1 0x1 DUP5 MSTORE SWAP1 SWAP2 MSTORE SWAP1 KECCAK256 SLOAD PUSH1 0x3 SWAP5 POP SWAP3 POP JUMPDEST PUSH1 0x1 PUSH1 0x1 PUSH1 0xA0 SHL SUB DUP6 AND PUSH0 SWAP1 DUP2 MSTORE PUSH1 0x20 DUP2 DUP2 MSTORE PUSH1 0x40 DUP1 DUP4 KECCAK256 PUSH1 0x2 DUP5 MSTORE SWAP1 SWAP2 MSTORE SWAP1 KECCAK256 SLOAD ISZERO PUSH2 0x39B JUMPI POP POP PUSH1 0x1 PUSH1 0x1 PUSH1 0xA0 SHL SUB DUP4 AND PUSH0 SWAP1 DUP2 MSTORE PUSH1 0x20 DUP2 DUP2 MSTORE PUSH1 0x40 DUP1 DUP4 KECCAK256 PUSH1 0x2 DUP1 DUP6 MSTORE SWAP3 MSTORE SWAP1 SWAP2 KECCAK256 SLOAD PUSH2 0x3C1 JUMP JUMPDEST POP POP PUSH1 0x1 PUSH1 0x1 PUSH1 0xA0 SHL SUB DUP4 AND PUSH0 SWAP1 DUP2 MSTORE PUSH1 0x20 DUP2 DUP2 MSTORE PUSH1 0x40 DUP1 DUP4 KECCAK256 PUSH1 0x3 DUP1 DUP6 MSTORE SWAP3 MSTORE SWAP1 SWAP2 KECCAK256 SLOAD JUMPDEST SWAP2 SWAP4 POP SWAP2 SWAP4 JUMP JUMPDEST DUP4 PUSH1 0x2 EQ DUP1 PUSH2 0x3D7 JUMPI POP DUP4 PUSH1 0x3 EQ JUMPDEST DUP1 ISZERO PUSH2 0x3ED JUMPI POP DUP2 PUSH1 0x2 EQ DUP1 PUSH2 0x3ED JUMPI POP DUP2 PUSH1 0x3 EQ JUMPDEST PUSH2 0x444 JUMPI PUSH1 0x40 MLOAD PUSH3 0x461BCD PUSH1 0xE5 SHL DUP2 MSTORE PUSH1 0x20 PUSH1 0x4 DUP3 ADD MSTORE PUSH1 0x22 PUSH1 0x24 DUP3 ADD MSTORE PUSH32 0x537465616C74684B657952656769737472793A20496E76616C69642050726566 PUSH1 0x44 DUP3 ADD MSTORE PUSH2 0xD2F PUSH1 0xF3 SHL PUSH1 0x64 DUP3 ADD MSTORE PUSH1 0x84 ADD PUSH2 0x294 JUMP JUMPDEST PUSH1 0x40 DUP1 MLOAD DUP6 DUP2 MSTORE PUSH1 0x20 DUP2 ADD DUP6 SWAP1 MSTORE SWAP1 DUP2 ADD DUP4 SWAP1 MSTORE PUSH1 0x60 DUP2 ADD DUP3 SWAP1 MSTORE PUSH1 0x1 PUSH1 0x1 PUSH1 0xA0 SHL SUB DUP7 AND SWAP1 PUSH32 0xE879DEDE910DD3B22239A11044DF83C95ADCD4B54003516F42866CC1FE4F0A19 SWAP1 PUSH1 0x80 ADD PUSH1 0x40 MLOAD DUP1 SWAP2 SUB SWAP1 LOG2 PUSH2 0x4A2 PUSH1 0x2 DUP6 PUSH2 0x614 JUMP JUMPDEST PUSH1 0x1 PUSH1 0x1 PUSH1 0xA0 SHL SUB DUP7 AND PUSH0 SWAP1 DUP2 MSTORE PUSH1 0x20 DUP2 SWAP1 MSTORE PUSH1 0x40 DUP2 KECCAK256 SWAP2 SWAP6 POP PUSH2 0x4C7 DUP7 PUSH1 0x1 PUSH2 0x614 JUMP JUMPDEST DUP2 MSTORE PUSH1 0x20 DUP1 DUP3 ADD SWAP3 SWAP1 SWAP3 MSTORE PUSH1 0x40 SWAP1 DUP2 ADD PUSH0 SWAP1 DUP2 KECCAK256 DUP2 SWAP1 SSTORE PUSH1 0x1 PUSH1 0x1 PUSH1 0xA0 SHL SUB DUP9 AND DUP2 MSTORE SWAP2 DUP3 SWAP1 MSTORE DUP2 KECCAK256 SWAP1 PUSH2 0x4FC DUP5 PUSH1 0x5 PUSH2 0x614 JUMP JUMPDEST DUP2 MSTORE PUSH1 0x20 DUP1 DUP3 ADD SWAP3 SWAP1 SWAP3 MSTORE PUSH1 0x40 SWAP1 DUP2 ADD PUSH0 SWAP1 DUP2 KECCAK256 DUP2 SWAP1 SSTORE PUSH1 0x1 PUSH1 0x1 PUSH1 0xA0 SHL SUB SWAP8 SWAP1 SWAP8 AND DUP8 MSTORE DUP7 DUP3 MSTORE DUP1 DUP8 KECCAK256 SWAP6 DUP8 MSTORE SWAP5 SWAP1 MSTORE DUP4 DUP6 KECCAK256 SWAP3 SWAP1 SWAP3 SSTORE DUP4 MSTORE SWAP2 KECCAK256 SSTORE JUMP JUMPDEST DUP1 CALLDATALOAD PUSH1 0x1 PUSH1 0x1 PUSH1 0xA0 SHL SUB DUP2 AND DUP2 EQ PUSH2 0x551 JUMPI PUSH0 PUSH0 REVERT JUMPDEST SWAP2 SWAP1 POP JUMP JUMPDEST PUSH0 PUSH0 PUSH0 PUSH0 PUSH0 PUSH0 PUSH0 PUSH0 PUSH2 0x100 DUP10 DUP12 SUB SLT ISZERO PUSH2 0x56E JUMPI PUSH0 PUSH0 REVERT JUMPDEST PUSH2 0x577 DUP10 PUSH2 0x53B JUMP JUMPDEST SWAP8 POP PUSH1 0x20 DUP10 ADD CALLDATALOAD SWAP7 POP PUSH1 0x40 DUP10 ADD CALLDATALOAD SWAP6 POP PUSH1 0x60 DUP10 ADD CALLDATALOAD SWAP5 POP PUSH1 0x80 DUP10 ADD CALLDATALOAD SWAP4 POP PUSH1 0xA0 DUP10 ADD CALLDATALOAD PUSH1 0xFF DUP2 AND DUP2 EQ PUSH2 0x5A8 JUMPI PUSH0 PUSH0 REVERT JUMPDEST SWAP8 SWAP11 SWAP7 SWAP10 POP SWAP5 SWAP8 SWAP4 SWAP7 SWAP3 SWAP6 SWAP3 SWAP5 POP POP POP PUSH1 0xC0 DUP3 ADD CALLDATALOAD SWAP2 PUSH1 0xE0 ADD CALLDATALOAD SWAP1 JUMP JUMPDEST PUSH0 PUSH0 PUSH0 PUSH0 PUSH1 0x80 DUP6 DUP8 SUB SLT ISZERO PUSH2 0x5D8 JUMPI PUSH0 PUSH0 REVERT JUMPDEST POP POP DUP3 CALLDATALOAD SWAP5 PUSH1 0x20 DUP5 ADD CALLDATALOAD SWAP5 POP PUSH1 0x40 DUP5 ADD CALLDATALOAD SWAP4 PUSH1 0x60 ADD CALLDATALOAD SWAP3 POP SWAP1 POP JUMP JUMPDEST PUSH0 PUSH1 0x20 DUP3 DUP5 SUB SLT ISZERO PUSH2 0x604 JUMPI PUSH0 PUSH0 REVERT JUMPDEST PUSH2 0x60D DUP3 PUSH2 0x53B JUMP JUMPDEST SWAP4 SWAP3 POP POP POP JUMP JUMPDEST DUP2 DUP2 SUB DUP2 DUP2 GT ISZERO PUSH2 0x633 JUMPI PUSH4 0x4E487B71 PUSH1 0xE0 SHL PUSH0 MSTORE PUSH1 0x11 PUSH1 0x4 MSTORE PUSH1 0x24 PUSH0 REVERT JUMPDEST SWAP3 SWAP2 POP POP JUMP INVALID LOG2 PUSH5 0x6970667358 0x22 SLT KECCAK256 PUSH3 0x78DC42 0xB0 DUP11 DUP3 0xB8 MSTORE CALLDATALOAD 0xB4 0xE1 CODECOPY MSTORE COINBASE ADD PUSH0 LOG4 0xA6 PUSH16 0x99F8A07FA274AF0081A39C3A64736F6C PUSH4 0x4300081B STOP CALLER "
				},
				"gasEstimates": {
					"creation": {
						"codeDepositCost": "329400",
						"executionCost": "infinite",
						"totalCost": "infinite"
					},
					"external": {
						"DOMAIN_SEPARATOR()": "infinite",
						"STEALTHKEYS_TYPEHASH()": "205",
						"setStealthKeys(uint256,uint256,uint256,uint256)": "infinite",
						"setStealthKeysOnBehalf(address,uint256,uint256,uint256,uint256,uint8,bytes32,bytes32)": "infinite",
						"stealthKeys(address)": "9620"
					},
					"internal": {
						"_setStealthKeys(address,uint256,uint256,uint256,uint256)": "infinite"
					}
				},
				"methodIdentifiers": {
					"DOMAIN_SEPARATOR()": "3644e515",
					"STEALTHKEYS_TYPEHASH()": "67eaa7ac",
					"setStealthKeys(uint256,uint256,uint256,uint256)": "bb8f257b",
					"setStealthKeysOnBehalf(address,uint256,uint256,uint256,uint256,uint8,bytes32,bytes32)": "100dcc53",
					"stealthKeys(address)": "cec2a787"
				}
			},
			"storageLayout": {
				"storage": [
					{
						"astId": 30,
						"contract": "Umbra-Cash/contracts/StealthKeyRegistry.sol:StealthKeyRegistry",
						"label": "keys",
						"offset": 0,
						"slot": "0",
						"type": "t_mapping(t_address,t_mapping(t_uint256,t_uint256))"
					}
				],
				"types": {
					"t_address": {
						"encoding": "inplace",
						"label": "address",
						"numberOfBytes": "20"
					},
					"t_mapping(t_address,t_mapping(t_uint256,t_uint256))": {
						"encoding": "mapping",
						"key": "t_address",
						"label": "mapping(address => mapping(uint256 => uint256))",
						"numberOfBytes": "32",
						"value": "t_mapping(t_uint256,t_uint256)"
					},
					"t_mapping(t_uint256,t_uint256)": {
						"encoding": "mapping",
						"key": "t_uint256",
						"label": "mapping(uint256 => uint256)",
						"numberOfBytes": "32",
						"value": "t_uint256"
					},
					"t_uint256": {
						"encoding": "inplace",
						"label": "uint256",
						"numberOfBytes": "32"
					}
				}
			},
			"userdoc": {
				"kind": "user",
				"methods": {
					"setStealthKeys(uint256,uint256,uint256,uint256)": {
						"notice": "Sets stealth keys for the caller"
					},
					"setStealthKeysOnBehalf(address,uint256,uint256,uint256,uint256,uint8,bytes32,bytes32)": {
						"notice": "Sets stealth keys for the registrant using an EIP-712 signature to authenticate the update on their behalf."
					},
					"stealthKeys(address)": {
						"notice": "Returns the stealth key associated with an address."
					}
				},
				"version": 1
			}
		}
	}
}