{
	"data": {
		"bytecode": {
			"linkReferences": {},
			"object": "60c06040523480156200001157600080fd5b50604051620011ec380380620011ec833981810160405281019062000037919062000249565b808073ffffffffffffffffffffffffffffffffffffffff1660808173ffffffffffffffffffffffffffffffffffffffff16815250508073ffffffffffffffffffffffffffffffffffffffff1663026b1d5f6040518163ffffffff1660e01b8152600401602060405180830381865afa158015620000b8573d6000803e3d6000fd5b505050506040513d601f19601f82011682018060405250810190620000de9190620002ac565b73ffffffffffffffffffffffffffffffffffffffff1660a08173ffffffffffffffffffffffffffffffffffffffff1681525050508073ffffffffffffffffffffffffffffffffffffffff1663026b1d5f6040518163ffffffff1660e01b8152600401602060405180830381865afa1580156200015e573d6000803e3d6000fd5b505050506040513d601f19601f82011682018060405250810190620001849190620002ac565b600160006101000a81548173ffffffffffffffffffffffffffffffffffffffff021916908373ffffffffffffffffffffffffffffffffffffffff16021790555050620002de565b600080fd5b600073ffffffffffffffffffffffffffffffffffffffff82169050919050565b6000620001fd82620001d0565b9050919050565b60006200021182620001f0565b9050919050565b620002238162000204565b81146200022f57600080fd5b50565b600081519050620002438162000218565b92915050565b600060208284031215620002625762000261620001cb565b5b6000620002728482850162000232565b91505092915050565b6200028681620001f0565b81146200029257600080fd5b50565b600081519050620002a6816200027b565b92915050565b600060208284031215620002c557620002c4620001cb565b5b6000620002d58482850162000295565b91505092915050565b60805160a051610ee26200030a6000396000818161039a015261042c0152600060db0152610ee26000f3fe608060405234801561001057600080fd5b506004361061004c5760003560e01c80630542975c146100515780631416d7621461006f5780631b11d0ff1461008b5780637535d246146100bb575b600080fd5b6100596100d9565b60405161006691906106ad565b60405180910390f35b61008960048036038101906100849190610750565b6100fd565b005b6100a560048036038101906100a091906108d6565b6102d9565b6040516100b29190610988565b60405180910390f35b6100c361042a565b6040516100d091906109c4565b60405180910390f35b7f000000000000000000000000000000000000000000000000000000000000000081565b60008290508073ffffffffffffffffffffffffffffffffffffffff1663a0712d68836040518263ffffffff1660e01b815260040161013b91906109ee565b6020604051808303816000875af115801561015a573d6000803e3d6000fd5b505050506040513d601f19601f8201168201806040525081019061017e9190610a35565b508073ffffffffffffffffffffffffffffffffffffffff1663095ea7b3600160009054906101000a900473ffffffffffffffffffffffffffffffffffffffff167fffffffffffffffffffffffffffffffffffffffffffffffffffffffffffffffff6040518363ffffffff1660e01b81526004016101fc929190610a71565b6020604051808303816000875af115801561021b573d6000803e3d6000fd5b505050506040513d601f19601f8201168201806040525081019061023f9190610a35565b50600160009054906101000a900473ffffffffffffffffffffffffffffffffffffffff1673ffffffffffffffffffffffffffffffffffffffff1663617ba03784843060006040518563ffffffff1660e01b81526004016102a29493929190610ae3565b600060405180830381600087803b1580156102bc57600080fd5b505af11580156102d0573d6000803e3d6000fd5b50505050505050565b60008086905060006102f4868861044e90919063ffffffff16565b90506102ff88610468565b8173ffffffffffffffffffffffffffffffffffffffff1663a0712d68876040518263ffffffff1660e01b815260040161033891906109ee565b6020604051808303816000875af1158015610357573d6000803e3d6000fd5b505050506040513d601f19601f8201168201806040525081019061037b9190610a35565b508773ffffffffffffffffffffffffffffffffffffffff1663095ea7b37f0000000000000000000000000000000000000000000000000000000000000000836040518363ffffffff1660e01b81526004016103d7929190610a71565b6020604051808303816000875af11580156103f6573d6000803e3d6000fd5b505050506040513d601f19601f8201168201806040525081019061041a9190610a35565b5060019250505095945050505050565b7f000000000000000000000000000000000000000000000000000000000000000081565b600082828401915081101561046257600080fd5b92915050565b6000600160009054906101000a900473ffffffffffffffffffffffffffffffffffffffff1673ffffffffffffffffffffffffffffffffffffffff166335ea6a75836040518263ffffffff1660e01b81526004016104c59190610b28565b6101e060405180830381865afa1580156104e3573d6000803e3d6000fd5b505050506040513d601f19601f820116820180604052508101906105079190610dc3565b9050600082905060008173ffffffffffffffffffffffffffffffffffffffff166370a082318461010001516040518263ffffffff1660e01b815260040161054e9190610b28565b602060405180830381865afa15801561056b573d6000803e3d6000fd5b505050506040513d601f19601f8201168201806040525081019061058f9190610df1565b9050600160009054906101000a900473ffffffffffffffffffffffffffffffffffffffff1673ffffffffffffffffffffffffffffffffffffffff1663a415bcad858360026000306040518663ffffffff1660e01b81526004016105f6959493929190610e59565b600060405180830381600087803b15801561061057600080fd5b505af1158015610624573d6000803e3d6000fd5b5050505050505050565b600073ffffffffffffffffffffffffffffffffffffffff82169050919050565b6000819050919050565b600061067361066e6106698461062e565b61064e565b61062e565b9050919050565b600061068582610658565b9050919050565b60006106978261067a565b9050919050565b6106a78161068c565b82525050565b60006020820190506106c2600083018461069e565b92915050565b6000604051905090565b600080fd5b600080fd5b60006106e78261062e565b9050919050565b6106f7816106dc565b811461070257600080fd5b50565b600081359050610714816106ee565b92915050565b6000819050919050565b61072d8161071a565b811461073857600080fd5b50565b60008135905061074a81610724565b92915050565b60008060408385031215610767576107666106d2565b5b600061077585828601610705565b92505060206107868582860161073b565b9150509250929050565b600080fd5b600080fd5b6000601f19601f8301169050919050565b7f4e487b7100000000000000000000000000000000000000000000000000000000600052604160045260246000fd5b6107e38261079a565b810181811067ffffffffffffffff82111715610802576108016107ab565b5b80604052505050565b60006108156106c8565b905061082182826107da565b919050565b600067ffffffffffffffff821115610841576108406107ab565b5b61084a8261079a565b9050602081019050919050565b82818337600083830152505050565b600061087961087484610826565b61080b565b90508281526020810184848401111561089557610894610795565b5b6108a0848285610857565b509392505050565b600082601f8301126108bd576108bc610790565b5b81356108cd848260208601610866565b91505092915050565b600080600080600060a086880312156108f2576108f16106d2565b5b600061090088828901610705565b95505060206109118882890161073b565b94505060406109228882890161073b565b935050606061093388828901610705565b925050608086013567ffffffffffffffff811115610954576109536106d7565b5b610960888289016108a8565b9150509295509295909350565b60008115159050919050565b6109828161096d565b82525050565b600060208201905061099d6000830184610979565b92915050565b60006109ae8261067a565b9050919050565b6109be816109a3565b82525050565b60006020820190506109d960008301846109b5565b92915050565b6109e88161071a565b82525050565b6000602082019050610a0360008301846109df565b92915050565b610a128161096d565b8114610a1d57600080fd5b50565b600081519050610a2f81610a09565b92915050565b600060208284031215610a4b57610a4a6106d2565b5b6000610a5984828501610a20565b91505092915050565b610a6b816106dc565b82525050565b6000604082019050610a866000830185610a62565b610a9360208301846109df565b9392505050565b6000819050919050565b600061ffff82169050919050565b6000610acd610ac8610ac384610a9a565b61064e565b610aa4565b9050919050565b610add81610ab2565b82525050565b6000608082019050610af86000830187610a62565b610b0560208301866109df565b610b126040830185610a62565b610b1f6060830184610ad4565b95945050505050565b6000602082019050610b3d6000830184610a62565b92915050565b600080fd5b600081519050610b5781610724565b92915050565b600060208284031215610b7357610b72610b43565b5b610b7d602061080b565b90506000610b8d84828501610b48565b60008301525092915050565b60006fffffffffffffffffffffffffffffffff82169050919050565b610bbe81610b99565b8114610bc957600080fd5b50565b600081519050610bdb81610bb5565b92915050565b600064ffffffffff82169050919050565b610bfb81610be1565b8114610c0657600080fd5b50565b600081519050610c1881610bf2565b92915050565b610c2781610aa4565b8114610c3257600080fd5b50565b600081519050610c4481610c1e565b92915050565b600081519050610c59816106ee565b92915050565b60006101e08284031215610c7657610c75610b43565b5b610c816101e061080b565b90506000610c9184828501610b5d565b6000830152506020610ca584828501610bcc565b6020830152506040610cb984828501610bcc565b6040830152506060610ccd84828501610bcc565b6060830152506080610ce184828501610bcc565b60808301525060a0610cf584828501610bcc565b60a08301525060c0610d0984828501610c09565b60c08301525060e0610d1d84828501610c35565b60e083015250610100610d3284828501610c4a565b61010083015250610120610d4884828501610c4a565b61012083015250610140610d5e84828501610c4a565b61014083015250610160610d7484828501610c4a565b61016083015250610180610d8a84828501610bcc565b610180830152506101a0610da084828501610bcc565b6101a0830152506101c0610db684828501610bcc565b6101c08301525092915050565b60006101e08284031215610dda57610dd96106d2565b5b6000610de884828501610c5f565b91505092915050565b600060208284031215610e0757610e066106d2565b5b6000610e1584828501610b48565b91505092915050565b6000819050919050565b6000610e43610e3e610e3984610e1e565b61064e565b61071a565b9050919050565b610e5381610e28565b82525050565b600060a082019050610e6e6000830188610a62565b610e7b60208301876109df565b610e886040830186610e4a565b610e956060830185610ad4565b610ea26080830184610a62565b969550505050505056fea2646970667358221220bf68c73d01f09ddb3e6c8b51deb5e2c39bcd8af17a6ab7406cf9b1cca2dead9664736f6c634300080a0033",
			"opcodes": "PUSH1 0xC0 PUSH1 0x40 MSTORE CALLVALUE DUP1 ISZERO PUSH3 0x11 JUMPI PUSH1 0x0 DUP1 REVERT JUMPDEST POP PUSH1 0x40 MLOAD PUSH3 0x11EC CODESIZE SUB DUP1 PUSH3 0x11EC DUP4 CODECOPY DUP2 DUP2 ADD PUSH1 0x40 MSTORE DUP2 ADD SWAP1 PUSH3 0x37 SWAP2 SWAP1 PUSH3 0x249 JUMP JUMPDEST DUP1 DUP1 PUSH20 0xFFFFFFFFFFFFFFFFFFFFFFFFFFFFFFFFFFFFFFFF AND PUSH1 0x80 DUP2 PUSH20 0xFFFFFFFFFFFFFFFFFFFFFFFFFFFFFFFFFFFFFFFF AND DUP2 MSTORE POP POP DUP1 PUSH20 0xFFFFFFFFFFFFFFFFFFFFFFFFFFFFFFFFFFFFFFFF AND PUSH4 0x26B1D5F PUSH1 0x40 MLOAD DUP2 PUSH4 0xFFFFFFFF AND PUSH1 0xE0 SHL DUP2 MSTORE PUSH1 0x4 ADD PUSH1 0x20 PUSH1 0x40 MLOAD DUP1 DUP4 SUB DUP2 DUP7 GAS STATICCALL ISZERO DUP1 ISZERO PUSH3 0xB8 JUMPI RETURNDATASIZE PUSH1 0x0 DUP1 RETURNDATACOPY RETURNDATASIZE PUSH1 0x0 REVERT JUMPDEST POP POP POP POP PUSH1 0x40 MLOAD RETURNDATASIZE PUSH1 0x1F NOT PUSH1 0x1F DUP3 ADD AND DUP3 ADD DUP1 PUSH1 0x40 MSTORE POP DUP2 ADD SWAP1 PUSH3 0xDE SWAP2 SWAP1 PUSH3 0x2AC JUMP JUMPDEST PUSH20 0xFFFFFFFFFFFFFFFFFFFFFFFFFFFFFFFFFFFFFFFF AND PUSH1 0xA0 DUP2 PUSH20 0xFFFFFFFFFFFFFFFFFFFFFFFFFFFFFFFFFFFFFFFF AND DUP2 MSTORE POP POP POP DUP1 PUSH20 0xFFFFFFFFFFFFFFFFFFFFFFFFFFFFFFFFFFFFFFFF AND PUSH4 0x26B1D5F PUSH1 0x40 MLOAD DUP2 PUSH4 0xFFFFFFFF AND PUSH1 0xE0 SHL DUP2 MSTORE PUSH1 0x4 ADD PUSH1 0x20 PUSH1 0x40 MLOAD DUP1 DUP4 SUB DUP2 DUP7 GAS STATICCALL ISZERO DUP1 ISZERO PUSH3 0x15E JUMPI RETURNDATASIZE PUSH1 0x0 DUP1 RETURNDATACOPY RETURNDATASIZE PUSH1 0x0 REVERT JUMPDEST POP POP POP POP PUSH1 0x40 MLOAD RETURNDATASIZE PUSH1 0x1F NOT PUSH1 0x1F DUP3 ADD AND DUP3 ADD DUP1 PUSH1 0x40 MSTORE POP DUP2 ADD SWAP1 PUSH3 0x184 SWAP2 SWAP1 PUSH3 0x2AC JUMP JUMPDEST PUSH1 0x1 PUSH1 0x0 PUSH2 0x100 EXP DUP2 SLOAD DUP2 PUSH20 0xFFFFFFFFFFFFFFFFFFFFFFFFFFFFFFFFFFFFFFFF MUL NOT AND SWAP1 DUP4 PUSH20 0xFFFFFFFFFFFFFFFFFFFFFFFFFFFFFFFFFFFFFFFF AND MUL OR SWAP1 SSTORE POP POP PUSH3 0x2DE JUMP JUMPDEST PUSH1 0x0 DUP1 REVERT JUMPDEST PUSH1 0x0 PUSH20 0xFFFFFFFFFFFFFFFFFFFFFFFFFFFFFFFFFFFFFFFF DUP3 AND SWAP1 POP SWAP2 SWAP1 POP JUMP JUMPDEST PUSH1 0x0 PUSH3 0x1FD DUP3 PUSH3 0x1D0 JUMP JUMPDEST SWAP1 POP SWAP2 SWAP1 POP JUMP JUMPDEST PUSH1 0x0 PUSH3 0x211 DUP3 PUSH3 0x1F0 JUMP JUMPDEST SWAP1 POP SWAP2 SWAP1 POP JUMP JUMPDEST PUSH3 0x223 DUP2 PUSH3 0x204 JUMP JUMPDEST DUP2 EQ PUSH3 0x22F JUMPI PUSH1 0x0 DUP1 REVERT JUMPDEST POP JUMP JUMPDEST PUSH1 0x0 DUP2 MLOAD SWAP1 POP PUSH3 0x243 DUP2 PUSH3 0x218 JUMP JUMPDEST SWAP3 SWAP2 POP POP JUMP JUMPDEST PUSH1 0x0 PUSH1 0x20 DUP3 DUP5 SUB SLT ISZERO PUSH3 0x262 JUMPI PUSH3 0x261 PUSH3 0x1CB JUMP JUMPDEST JUMPDEST PUSH1 0x0 PUSH3 0x272 DUP5 DUP3 DUP6 ADD PUSH3 0x232 JUMP JUMPDEST SWAP2 POP POP SWAP3 SWAP2 POP POP JUMP JUMPDEST PUSH3 0x286 DUP2 PUSH3 0x1F0 JUMP JUMPDEST DUP2 EQ PUSH3 0x292 JUMPI PUSH1 0x0 DUP1 REVERT JUMPDEST POP JUMP JUMPDEST PUSH1 0x0 DUP2 MLOAD SWAP1 POP PUSH3 0x2A6 DUP2 PUSH3 0x27B JUMP JUMPDEST SWAP3 SWAP2 POP POP JUMP JUMPDEST PUSH1 0x0 PUSH1 0x20 DUP3 DUP5 SUB SLT ISZERO PUSH3 0x2C5 JUMPI PUSH3 0x2C4 PUSH3 0x1CB JUMP JUMPDEST JUMPDEST PUSH1 0x0 PUSH3 0x2D5 DUP5 DUP3 DUP6 ADD PUSH3 0x295 JUMP JUMPDEST SWAP2 POP POP SWAP3 SWAP2 POP POP JUMP JUMPDEST PUSH1 0x80 MLOAD PUSH1 0xA0 MLOAD PUSH2 0xEE2 PUSH3 0x30A PUSH1 0x0 CODECOPY PUSH1 0x0 DUP2 DUP2 PUSH2 0x39A ADD MSTORE PUSH2 0x42C ADD MSTORE PUSH1 0x0 PUSH1 0xDB ADD MSTORE PUSH2 0xEE2 PUSH1 0x0 RETURN INVALID PUSH1 0x80 PUSH1 0x40 MSTORE CALLVALUE DUP1 ISZERO PUSH2 0x10 JUMPI PUSH1 0x0 DUP1 REVERT JUMPDEST POP PUSH1 0x4 CALLDATASIZE LT PUSH2 0x4C JUMPI PUSH1 0x0 CALLDATALOAD PUSH1 0xE0 SHR DUP1 PUSH4 0x542975C EQ PUSH2 0x51 JUMPI DUP1 PUSH4 0x1416D762 EQ PUSH2 0x6F JUMPI DUP1 PUSH4 0x1B11D0FF EQ PUSH2 0x8B JUMPI DUP1 PUSH4 0x7535D246 EQ PUSH2 0xBB JUMPI JUMPDEST PUSH1 0x0 DUP1 REVERT JUMPDEST PUSH2 0x59 PUSH2 0xD9 JUMP JUMPDEST PUSH1 0x40 MLOAD PUSH2 0x66 SWAP2 SWAP1 PUSH2 0x6AD JUMP JUMPDEST PUSH1 0x40 MLOAD DUP1 SWAP2 SUB SWAP1 RETURN JUMPDEST PUSH2 0x89 PUSH1 0x4 DUP1 CALLDATASIZE SUB DUP2 ADD SWAP1 PUSH2 0x84 SWAP2 SWAP1 PUSH2 0x750 JUMP JUMPDEST PUSH2 0xFD JUMP JUMPDEST STOP JUMPDEST PUSH2 0xA5 PUSH1 0x4 DUP1 CALLDATASIZE SUB DUP2 ADD SWAP1 PUSH2 0xA0 SWAP2 SWAP1 PUSH2 0x8D6 JUMP JUMPDEST PUSH2 0x2D9 JUMP JUMPDEST PUSH1 0x40 MLOAD PUSH2 0xB2 SWAP2 SWAP1 PUSH2 0x988 JUMP JUMPDEST PUSH1 0x40 MLOAD DUP1 SWAP2 SUB SWAP1 RETURN JUMPDEST PUSH2 0xC3 PUSH2 0x42A JUMP JUMPDEST PUSH1 0x40 MLOAD PUSH2 0xD0 SWAP2 SWAP1 PUSH2 0x9C4 JUMP JUMPDEST PUSH1 0x40 MLOAD DUP1 SWAP2 SUB SWAP1 RETURN JUMPDEST PUSH32 0x0 DUP2 JUMP JUMPDEST PUSH1 0x0 DUP3 SWAP1 POP DUP1 PUSH20 0xFFFFFFFFFFFFFFFFFFFFFFFFFFFFFFFFFFFFFFFF AND PUSH4 0xA0712D68 DUP4 PUSH1 0x40 MLOAD DUP3 PUSH4 0xFFFFFFFF AND PUSH1 0xE0 SHL DUP2 MSTORE PUSH1 0x4 ADD PUSH2 0x13B SWAP2 SWAP1 PUSH2 0x9EE JUMP JUMPDEST PUSH1 0x20 PUSH1 0x40 MLOAD DUP1 DUP4 SUB DUP2 PUSH1 0x0 DUP8 GAS CALL ISZERO DUP1 ISZERO PUSH2 0x15A JUMPI RETURNDATASIZE PUSH1 0x0 DUP1 RETURNDATACOPY RETURNDATASIZE PUSH1 0x0 REVERT JUMPDEST POP POP POP POP PUSH1 0x40 MLOAD RETURNDATASIZE PUSH1 0x1F NOT PUSH1 0x1F DUP3 ADD AND DUP3 ADD DUP1 PUSH1 0x40 MSTORE POP DUP2 ADD SWAP1 PUSH2 0x17E SWAP2 SWAP1 PUSH2 0xA35 JUMP JUMPDEST POP DUP1 PUSH20 0xFFFFFFFFFFFFFFFFFFFFFFFFFFFFFFFFFFFFFFFF AND PUSH4 0x95EA7B3 PUSH1 0x1 PUSH1 0x0 SWAP1 SLOAD SWAP1 PUSH2 0x100 EXP SWAP1 DIV PUSH20 0xFFFFFFFFFFFFFFFFFFFFFFFFFFFFFFFFFFFFFFFF AND PUSH32 0xFFFFFFFFFFFFFFFFFFFFFFFFFFFFFFFFFFFFFFFFFFFFFFFFFFFFFFFFFFFFFFFF PUSH1 0x40 MLOAD DUP4 PUSH4 0xFFFFFFFF AND PUSH1 0xE0 SHL DUP2 MSTORE PUSH1 0x4 ADD PUSH2 0x1FC SWAP3 SWAP2 SWAP1 PUSH2 0xA71 JUMP JUMPDEST PUSH1 0x20 PUSH1 0x40 MLOAD DUP1 DUP4 SUB DUP2 PUSH1 0x0 DUP8 GAS CALL ISZERO DUP1 ISZERO PUSH2 0x21B JUMPI RETURNDATASIZE PUSH1 0x0 DUP1 RETURNDATACOPY RETURNDATASIZE PUSH1 0x0 REVERT JUMPDEST POP POP POP POP PUSH1 0x40 MLOAD RETURNDATASIZE PUSH1 0x1F NOT PUSH1 0x1F DUP3 ADD AND DUP3 ADD DUP1 PUSH1 0x40 MSTORE POP DUP2 ADD SWAP1 PUSH2 0x23F SWAP2 SWAP1 PUSH2 0xA35 JUMP JUMPDEST POP PUSH1 0x1 PUSH1 0x0 SWAP1 SLOAD SWAP1 PUSH2 0x100 EXP SWAP1 DIV PUSH20 0xFFFFFFFFFFFFFFFFFFFFFFFFFFFFFFFFFFFFFFFF AND PUSH20 0xFFFFFFFFFFFFFFFFFFFFFFFFFFFFFFFFFFFFFFFF AND PUSH4 0x617BA037 DUP5 DUP5 ADDRESS PUSH1 0x0 PUSH1 0x40 MLOAD DUP6 PUSH4 0xFFFFFFFF AND PUSH1 0xE0 SHL DUP2 MSTORE PUSH1 0x4 ADD PUSH2 0x2A2 SWAP5 SWAP4 SWAP3 SWAP2 SWAP1 PUSH2 0xAE3 JUMP JUMPDEST PUSH1 0x0 PUSH1 0x40 MLOAD DUP1 DUP4 SUB DUP2 PUSH1 0x0 DUP8 DUP1 EXTCODESIZE ISZERO DUP1 ISZERO PUSH2 0x2BC JUMPI PUSH1 0x0 DUP1 REVERT JUMPDEST POP GAS CALL ISZERO DUP1 ISZERO PUSH2 0x2D0 JUMPI RETURNDATASIZE PUSH1 0x0 DUP1 RETURNDATACOPY RETURNDATASIZE PUSH1 0x0 REVERT JUMPDEST POP POP POP POP POP POP POP JUMP JUMPDEST PUSH1 0x0 DUP1 DUP7 SWAP1 POP PUSH1 0x0 PUSH2 0x2F4 DUP7 DUP9 PUSH2 0x44E SWAP1 SWAP2 SWAP1 PUSH4 0xFFFFFFFF AND JUMP JUMPDEST SWAP1 POP PUSH2 0x2FF DUP9 PUSH2 0x468 JUMP JUMPDEST DUP2 PUSH20 0xFFFFFFFFFFFFFFFFFFFFFFFFFFFFFFFFFFFFFFFF AND PUSH4 0xA0712D68 DUP8 PUSH1 0x40 MLOAD DUP3 PUSH4 0xFFFFFFFF AND PUSH1 0xE0 SHL DUP2 MSTORE PUSH1 0x4 ADD PUSH2 0x338 SWAP2 SWAP1 PUSH2 0x9EE JUMP JUMPDEST PUSH1 0x20 PUSH1 0x40 MLOAD DUP1 DUP4 SUB DUP2 PUSH1 0x0 DUP8 GAS CALL ISZERO DUP1 ISZERO PUSH2 0x357 JUMPI RETURNDATASIZE PUSH1 0x0 DUP1 RETURNDATACOPY RETURNDATASIZE PUSH1 0x0 REVERT JUMPDEST POP POP POP POP PUSH1 0x40 MLOAD RETURNDATASIZE PUSH1 0x1F NOT PUSH1 0x1F DUP3 ADD AND DUP3 ADD DUP1 PUSH1 0x40 MSTORE POP DUP2 ADD SWAP1 PUSH2 0x37B SWAP2 SWAP1 PUSH2 0xA35 JUMP JUMPDEST POP DUP8 PUSH20 0xFFFFFFFFFFFFFFFFFFFFFFFFFFFFFFFFFFFFFFFF AND PUSH4 0x95EA7B3 PUSH32 0x0 DUP4 PUSH1 0x40 MLOAD DUP4 PUSH4 0xFFFFFFFF AND PUSH1 0xE0 SHL DUP2 MSTORE PUSH1 0x4 ADD PUSH2 0x3D7 SWAP3 SWAP2 SWAP1 PUSH2 0xA71 JUMP JUMPDEST PUSH1 0x20 PUSH1 0x40 MLOAD DUP1 DUP4 SUB DUP2 PUSH1 0x0 DUP8 GAS CALL ISZERO DUP1 ISZERO PUSH2 0x3F6 JUMPI RETURNDATASIZE PUSH1 0x0 DUP1 RETURNDATACOPY RETURNDATASIZE PUSH1 0x0 REVERT JUMPDEST POP POP POP POP PUSH1 0x40 MLOAD RETURNDATASIZE PUSH1 0x1F NOT PUSH1 0x1F DUP3 ADD AND DUP3 ADD DUP1 PUSH1 0x40 MSTORE POP DUP2 ADD SWAP1 PUSH2 0x41A SWAP2 SWAP1 PUSH2 0xA35 JUMP JUMPDEST POP PUSH1 0x1 SWAP3 POP POP POP SWAP6 SWAP5 POP POP POP POP POP JUMP JUMPDEST PUSH32 0x0 DUP2 JUMP JUMPDEST PUSH1 0x0 DUP3 DUP3 DUP5 ADD SWAP2 POP DUP2 LT ISZERO PUSH2 0x462 JUMPI PUSH1 0x0 DUP1 REVERT JUMPDEST SWAP3 SWAP2 POP POP JUMP JUMPDEST PUSH1 0x0 PUSH1 0x1 PUSH1 0x0 SWAP1 SLOAD SWAP1 PUSH2 0x100 EXP SWAP1 DIV PUSH20 0xFFFFFFFFFFFFFFFFFFFFFFFFFFFFFFFFFFFFFFFF AND PUSH20 0xFFFFFFFFFFFFFFFFFFFFFFFFFFFFFFFFFFFFFFFF AND PUSH4 0x35EA6A75 DUP4 PUSH1 0x40 MLOAD DUP3 PUSH4 0xFFFFFFFF AND PUSH1 0xE0 SHL DUP2 MSTORE PUSH1 0x4 ADD PUSH2 0x4C5 SWAP2 SWAP1 PUSH2 0xB28 JUMP JUMPDEST PUSH2 0x1E0 PUSH1 0x40 MLOAD DUP1 DUP4 SUB DUP2 DUP7 GAS STATICCALL ISZERO DUP1 ISZERO PUSH2 0x4E3 JUMPI RETURNDATASIZE PUSH1 0x0 DUP1 RETURNDATACOPY RETURNDATASIZE PUSH1 0x0 REVERT JUMPDEST POP POP POP POP PUSH1 0x40 MLOAD RETURNDATASIZE PUSH1 0x1F NOT PUSH1 0x1F DUP3 ADD AND DUP3 ADD DUP1 PUSH1 0x40 MSTORE POP DUP2 ADD SWAP1 PUSH2 0x507 SWAP2 SWAP1 PUSH2 0xDC3 JUMP JUMPDEST SWAP1 POP PUSH1 0x0 DUP3 SWAP1 POP PUSH1 0x0 DUP2 PUSH20 0xFFFFFFFFFFFFFFFFFFFFFFFFFFFFFFFFFFFFFFFF AND PUSH4 0x70A08231 DUP5 PUSH2 0x100 ADD MLOAD PUSH1 0x40 MLOAD DUP3 PUSH4 0xFFFFFFFF AND PUSH1 0xE0 SHL DUP2 MSTORE PUSH1 0x4 ADD PUSH2 0x54E SWAP2 SWAP1 PUSH2 0xB28 JUMP JUMPDEST PUSH1 0x20 PUSH1 0x40 MLOAD DUP1 DUP4 SUB DUP2 DUP7 GAS STATICCALL ISZERO DUP1 ISZERO PUSH2 0x56B JUMPI RETURNDATASIZE PUSH1 0x0 DUP1 RETURNDATACOPY RETURNDATASIZE PUSH1 0x0 REVERT JUMPDEST POP POP POP POP PUSH1 0x40 MLOAD RETURNDATASIZE PUSH1 0x1F NOT PUSH1 0x1F DUP3 ADD AND DUP3 ADD DUP1 PUSH1 0x40 MSTORE POP DUP2 ADD SWAP1 PUSH2 0x58F SWAP2 SWAP1 PUSH2 0xDF1 JUMP JUMPDEST SWAP1 POP PUSH1 0x1 PUSH1 0x0 SWAP1 SLOAD SWAP1 PUSH2 0x100 EXP SWAP1 DIV PUSH20 0xFFFFFFFFFFFFFFFFFFFFFFFFFFFFFFFFFFFFFFFF AND PUSH20 0xFFFFFFFFFFFFFFFFFFFFFFFFFFFFFFFFFFFFFFFF AND PUSH4 0xA415BCAD DUP6 DUP4 PUSH1 0x2 PUSH1 0x0 ADDRESS PUSH1 0x40 MLOAD DUP7 PUSH4 0xFFFFFFFF AND PUSH1 0xE0 SHL DUP2 MSTORE PUSH1 0x4 ADD PUSH2 0x5F6 SWAP6 SWAP5 SWAP4 SWAP3 SWAP2 SWAP1 PUSH2 0xE59 JUMP JUMPDEST PUSH1 0x0 PUSH1 0x40 MLOAD DUP1 DUP4 SUB DUP2 PUSH1 0x0 DUP8 DUP1 EXTCODESIZE ISZERO DUP1 ISZERO PUSH2 0x610 JUMPI PUSH1 0x0 DUP1 REVERT JUMPDEST POP GAS CALL ISZERO DUP1 ISZERO PUSH2 0x624 JUMPI RETURNDATASIZE PUSH1 0x0 DUP1 RETURNDATACOPY RETURNDATASIZE PUSH1 0x0 REVERT JUMPDEST POP POP POP POP POP POP POP POP JUMP JUMPDEST PUSH1 0x0 PUSH20 0xFFFFFFFFFFFFFFFFFFFFFFFFFFFFFFFFFFFFFFFF DUP3 AND SWAP1 POP SWAP2 SWAP1 POP JUMP JUMPDEST PUSH1 0x0 DUP2 SWAP1 POP SWAP2 SWAP1 POP JUMP JUMPDEST PUSH1 0x0 PUSH2 0x673 PUSH2 0x66E PUSH2 0x669 DUP5 PUSH2 0x62E JUMP JUMPDEST PUSH2 0x64E JUMP JUMPDEST PUSH2 0x62E JUMP JUMPDEST SWAP1 POP SWAP2 SWAP1 POP JUMP JUMPDEST PUSH1 0x0 PUSH2 0x685 DUP3 PUSH2 0x658 JUMP JUMPDEST SWAP1 POP SWAP2 SWAP1 POP JUMP JUMPDEST PUSH1 0x0 PUSH2 0x697 DUP3 PUSH2 0x67A JUMP JUMPDEST SWAP1 POP SWAP2 SWAP1 POP JUMP JUMPDEST PUSH2 0x6A7 DUP2 PUSH2 0x68C JUMP JUMPDEST DUP3 MSTORE POP POP JUMP JUMPDEST PUSH1 0x0 PUSH1 0x20 DUP3 ADD SWAP1 POP PUSH2 0x6C2 PUSH1 0x0 DUP4 ADD DUP5 PUSH2 0x69E JUMP JUMPDEST SWAP3 SWAP2 POP POP JUMP JUMPDEST PUSH1 0x0 PUSH1 0x40 MLOAD SWAP1 POP SWAP1 JUMP JUMPDEST PUSH1 0x0 DUP1 REVERT JUMPDEST PUSH1 0x0 DUP1 REVERT JUMPDEST PUSH1 0x0 PUSH2 0x6E7 DUP3 PUSH2 0x62E JUMP JUMPDEST SWAP1 POP SWAP2 SWAP1 POP JUMP JUMPDEST PUSH2 0x6F7 DUP2 PUSH2 0x6DC JUMP JUMPDEST DUP2 EQ PUSH2 0x702 JUMPI PUSH1 0x0 DUP1 REVERT JUMPDEST POP JUMP JUMPDEST PUSH1 0x0 DUP2 CALLDATALOAD SWAP1 POP PUSH2 0x714 DUP2 PUSH2 0x6EE JUMP JUMPDEST SWAP3 SWAP2 POP POP JUMP JUMPDEST PUSH1 0x0 DUP2 SWAP1 POP SWAP2 SWAP1 POP JUMP JUMPDEST PUSH2 0x72D DUP2 PUSH2 0x71A JUMP JUMPDEST DUP2 EQ PUSH2 0x738 JUMPI PUSH1 0x0 DUP1 REVERT JUMPDEST POP JUMP JUMPDEST PUSH1 0x0 DUP2 CALLDATALOAD SWAP1 POP PUSH2 0x74A DUP2 PUSH2 0x724 JUMP JUMPDEST SWAP3 SWAP2 POP POP JUMP JUMPDEST PUSH1 0x0 DUP1 PUSH1 0x40 DUP4 DUP6 SUB SLT ISZERO PUSH2 0x767 JUMPI PUSH2 0x766 PUSH2 0x6D2 JUMP JUMPDEST JUMPDEST PUSH1 0x0 PUSH2 0x775 DUP6 DUP3 DUP7 ADD PUSH2 0x705 JUMP JUMPDEST SWAP3 POP POP PUSH1 0x20 PUSH2 0x786 DUP6 DUP3 DUP7 ADD PUSH2 0x73B JUMP JUMPDEST SWAP2 POP POP SWAP3 POP SWAP3 SWAP1 POP JUMP JUMPDEST PUSH1 0x0 DUP1 REVERT JUMPDEST PUSH1 0x0 DUP1 REVERT JUMPDEST PUSH1 0x0 PUSH1 0x1F NOT PUSH1 0x1F DUP4 ADD AND SWAP1 POP SWAP2 SWAP1 POP JUMP JUMPDEST PUSH32 0x4E487B7100000000000000000000000000000000000000000000000000000000 PUSH1 0x0 MSTORE PUSH1 0x41 PUSH1 0x4 MSTORE PUSH1 0x24 PUSH1 0x0 REVERT JUMPDEST PUSH2 0x7E3 DUP3 PUSH2 0x79A JUMP JUMPDEST DUP2 ADD DUP2 DUP2 LT PUSH8 0xFFFFFFFFFFFFFFFF DUP3 GT OR ISZERO PUSH2 0x802 JUMPI PUSH2 0x801 PUSH2 0x7AB JUMP JUMPDEST JUMPDEST DUP1 PUSH1 0x40 MSTORE POP POP POP JUMP JUMPDEST PUSH1 0x0 PUSH2 0x815 PUSH2 0x6C8 JUMP JUMPDEST SWAP1 POP PUSH2 0x821 DUP3 DUP3 PUSH2 0x7DA JUMP JUMPDEST SWAP2 SWAP1 POP JUMP JUMPDEST PUSH1 0x0 PUSH8 0xFFFFFFFFFFFFFFFF DUP3 GT ISZERO PUSH2 0x841 JUMPI PUSH2 0x840 PUSH2 0x7AB JUMP JUMPDEST JUMPDEST PUSH2 0x84A DUP3 PUSH2 0x79A JUMP JUMPDEST SWAP1 POP PUSH1 0x20 DUP2 ADD SWAP1 POP SWAP2 SWAP1 POP JUMP JUMPDEST DUP3 DUP2 DUP4 CALLDATACOPY PUSH1 0x0 DUP4 DUP4 ADD MSTORE POP POP POP JUMP JUMPDEST PUSH1 0x0 PUSH2 0x879 PUSH2 0x874 DUP5 PUSH2 0x826 JUMP JUMPDEST PUSH2 0x80B JUMP JUMPDEST SWAP1 POP DUP3 DUP2 MSTORE PUSH1 0x20 DUP2 ADD DUP5 DUP5 DUP5 ADD GT ISZERO PUSH2 0x895 JUMPI PUSH2 0x894 PUSH2 0x795 JUMP JUMPDEST JUMPDEST PUSH2 0x8A0 DUP5 DUP3 DUP6 PUSH2 0x857 JUMP JUMPDEST POP SWAP4 SWAP3 POP POP POP JUMP JUMPDEST PUSH1 0x0 DUP3 PUSH1 0x1F DUP4 ADD SLT PUSH2 0x8BD JUMPI PUSH2 0x8BC PUSH2 0x790 JUMP JUMPDEST JUMPDEST DUP2 CALLDATALOAD PUSH2 0x8CD DUP5 DUP3 PUSH1 0x20 DUP7 ADD PUSH2 0x866 JUMP JUMPDEST SWAP2 POP POP SWAP3 SWAP2 POP POP JUMP JUMPDEST PUSH1 0x0 DUP1 PUSH1 0x0 DUP1 PUSH1 0x0 PUSH1 0xA0 DUP7 DUP9 SUB SLT ISZERO PUSH2 0x8F2 JUMPI PUSH2 0x8F1 PUSH2 0x6D2 JUMP JUMPDEST JUMPDEST PUSH1 0x0 PUSH2 0x900 DUP9 DUP3 DUP10 ADD PUSH2 0x705 JUMP JUMPDEST SWAP6 POP POP PUSH1 0x20 PUSH2 0x911 DUP9 DUP3 DUP10 ADD PUSH2 0x73B JUMP JUMPDEST SWAP5 POP POP PUSH1 0x40 PUSH2 0x922 DUP9 DUP3 DUP10 ADD PUSH2 0x73B JUMP JUMPDEST SWAP4 POP POP PUSH1 0x60 PUSH2 0x933 DUP9 DUP3 DUP10 ADD PUSH2 0x705 JUMP JUMPDEST SWAP3 POP POP PUSH1 0x80 DUP7 ADD CALLDATALOAD PUSH8 0xFFFFFFFFFFFFFFFF DUP2 GT ISZERO PUSH2 0x954 JUMPI PUSH2 0x953 PUSH2 0x6D7 JUMP JUMPDEST JUMPDEST PUSH2 0x960 DUP9 DUP3 DUP10 ADD PUSH2 0x8A8 JUMP JUMPDEST SWAP2 POP POP SWAP3 SWAP6 POP SWAP3 SWAP6 SWAP1 SWAP4 POP JUMP JUMPDEST PUSH1 0x0 DUP2 ISZERO ISZERO SWAP1 POP SWAP2 SWAP1 POP JUMP JUMPDEST PUSH2 0x982 DUP2 PUSH2 0x96D JUMP JUMPDEST DUP3 MSTORE POP POP JUMP JUMPDEST PUSH1 0x0 PUSH1 0x20 DUP3 ADD SWAP1 POP PUSH2 0x99D PUSH1 0x0 DUP4 ADD DUP5 PUSH2 0x979 JUMP JUMPDEST SWAP3 SWAP2 POP POP JUMP JUMPDEST PUSH1 0x0 PUSH2 0x9AE DUP3 PUSH2 0x67A JUMP JUMPDEST SWAP1 POP SWAP2 SWAP1 POP JUMP JUMPDEST PUSH2 0x9BE DUP2 PUSH2 0x9A3 JUMP JUMPDEST DUP3 MSTORE POP POP JUMP JUMPDEST PUSH1 0x0 PUSH1 0x20 DUP3 ADD SWAP1 POP PUSH2 0x9D9 PUSH1 0x0 DUP4 ADD DUP5 PUSH2 0x9B5 JUMP JUMPDEST SWAP3 SWAP2 POP POP JUMP JUMPDEST PUSH2 0x9E8 DUP2 PUSH2 0x71A JUMP JUMPDEST DUP3 MSTORE POP POP JUMP JUMPDEST PUSH1 0x0 PUSH1 0x20 DUP3 ADD SWAP1 POP PUSH2 0xA03 PUSH1 0x0 DUP4 ADD DUP5 PUSH2 0x9DF JUMP JUMPDEST SWAP3 SWAP2 POP POP JUMP JUMPDEST PUSH2 0xA12 DUP2 PUSH2 0x96D JUMP JUMPDEST DUP2 EQ PUSH2 0xA1D JUMPI PUSH1 0x0 DUP1 REVERT JUMPDEST POP JUMP JUMPDEST PUSH1 0x0 DUP2 MLOAD SWAP1 POP PUSH2 0xA2F DUP2 PUSH2 0xA09 JUMP JUMPDEST SWAP3 SWAP2 POP POP JUMP JUMPDEST PUSH1 0x0 PUSH1 0x20 DUP3 DUP5 SUB SLT ISZERO PUSH2 0xA4B JUMPI PUSH2 0xA4A PUSH2 0x6D2 JUMP JUMPDEST JUMPDEST PUSH1 0x0 PUSH2 0xA59 DUP5 DUP3 DUP6 ADD PUSH2 0xA20 JUMP JUMPDEST SWAP2 POP POP SWAP3 SWAP2 POP POP JUMP JUMPDEST PUSH2 0xA6B DUP2 PUSH2 0x6DC JUMP JUMPDEST DUP3 MSTORE POP POP JUMP JUMPDEST PUSH1 0x0 PUSH1 0x40 DUP3 ADD SWAP1 POP PUSH2 0xA86 PUSH1 0x0 DUP4 ADD DUP6 PUSH2 0xA62 JUMP JUMPDEST PUSH2 0xA93 PUSH1 0x20 DUP4 ADD DUP5 PUSH2 0x9DF JUMP JUMPDEST SWAP4 SWAP3 POP POP POP JUMP JUMPDEST PUSH1 0x0 DUP2 SWAP1 POP SWAP2 SWAP1 POP JUMP JUMPDEST PUSH1 0x0 PUSH2 0xFFFF DUP3 AND SWAP1 POP SWAP2 SWAP1 POP JUMP JUMPDEST PUSH1 0x0 PUSH2 0xACD PUSH2 0xAC8 PUSH2 0xAC3 DUP5 PUSH2 0xA9A JUMP JUMPDEST PUSH2 0x64E JUMP JUMPDEST PUSH2 0xAA4 JUMP JUMPDEST SWAP1 POP SWAP2 SWAP1 POP JUMP JUMPDEST PUSH2 0xADD DUP2 PUSH2 0xAB2 JUMP JUMPDEST DUP3 MSTORE POP POP JUMP JUMPDEST PUSH1 0x0 PUSH1 0x80 DUP3 ADD SWAP1 POP PUSH2 0xAF8 PUSH1 0x0 DUP4 ADD DUP8 PUSH2 0xA62 JUMP JUMPDEST PUSH2 0xB05 PUSH1 0x20 DUP4 ADD DUP7 PUSH2 0x9DF JUMP JUMPDEST PUSH2 0xB12 PUSH1 0x40 DUP4 ADD DUP6 PUSH2 0xA62 JUMP JUMPDEST PUSH2 0xB1F PUSH1 0x60 DUP4 ADD DUP5 PUSH2 0xAD4 JUMP JUMPDEST SWAP6 SWAP5 POP POP POP POP POP JUMP JUMPDEST PUSH1 0x0 PUSH1 0x20 DUP3 ADD SWAP1 POP PUSH2 0xB3D PUSH1 0x0 DUP4 ADD DUP5 PUSH2 0xA62 JUMP JUMPDEST SWAP3 SWAP2 POP POP JUMP JUMPDEST PUSH1 0x0 DUP1 REVERT JUMPDEST PUSH1 0x0 DUP2 MLOAD SWAP1 POP PUSH2 0xB57 DUP2 PUSH2 0x724 JUMP JUMPDEST SWAP3 SWAP2 POP POP JUMP JUMPDEST PUSH1 0x0 PUSH1 0x20 DUP3 DUP5 SUB SLT ISZERO PUSH2 0xB73 JUMPI PUSH2 0xB72 PUSH2 0xB43 JUMP JUMPDEST JUMPDEST PUSH2 0xB7D PUSH1 0x20 PUSH2 0x80B JUMP JUMPDEST SWAP1 POP PUSH1 0x0 PUSH2 0xB8D DUP5 DUP3 DUP6 ADD PUSH2 0xB48 JUMP JUMPDEST PUSH1 0x0 DUP4 ADD MSTORE POP SWAP3 SWAP2 POP POP JUMP JUMPDEST PUSH1 0x0 PUSH16 0xFFFFFFFFFFFFFFFFFFFFFFFFFFFFFFFF DUP3 AND SWAP1 POP SWAP2 SWAP1 POP JUMP JUMPDEST PUSH2 0xBBE DUP2 PUSH2 0xB99 JUMP JUMPDEST DUP2 EQ PUSH2 0xBC9 JUMPI PUSH1 0x0 DUP1 REVERT JUMPDEST POP JUMP JUMPDEST PUSH1 0x0 DUP2 MLOAD SWAP1 POP PUSH2 0xBDB DUP2 PUSH2 0xBB5 JUMP JUMPDEST SWAP3 SWAP2 POP POP JUMP JUMPDEST PUSH1 0x0 PUSH5 0xFFFFFFFFFF DUP3 AND SWAP1 POP SWAP2 SWAP1 POP JUMP JUMPDEST PUSH2 0xBFB DUP2 PUSH2 0xBE1 JUMP JUMPDEST DUP2 EQ PUSH2 0xC06 JUMPI PUSH1 0x0 DUP1 REVERT JUMPDEST POP JUMP JUMPDEST PUSH1 0x0 DUP2 MLOAD SWAP1 POP PUSH2 0xC18 DUP2 PUSH2 0xBF2 JUMP JUMPDEST SWAP3 SWAP2 POP POP JUMP JUMPDEST PUSH2 0xC27 DUP2 PUSH2 0xAA4 JUMP JUMPDEST DUP2 EQ PUSH2 0xC32 JUMPI PUSH1 0x0 DUP1 REVERT JUMPDEST POP JUMP JUMPDEST PUSH1 0x0 DUP2 MLOAD SWAP1 POP PUSH2 0xC44 DUP2 PUSH2 0xC1E JUMP JUMPDEST SWAP3 SWAP2 POP POP JUMP JUMPDEST PUSH1 0x0 DUP2 MLOAD SWAP1 POP PUSH2 0xC59 DUP2 PUSH2 0x6EE JUMP JUMPDEST SWAP3 SWAP2 POP POP JUMP JUMPDEST PUSH1 0x0 PUSH2 0x1E0 DUP3 DUP5 SUB SLT ISZERO PUSH2 0xC76 JUMPI PUSH2 0xC75 PUSH2 0xB43 JUMP JUMPDEST JUMPDEST PUSH2 0xC81 PUSH2 0x1E0 PUSH2 0x80B JUMP JUMPDEST SWAP1 POP PUSH1 0x0 PUSH2 0xC91 DUP5 DUP3 DUP6 ADD PUSH2 0xB5D JUMP JUMPDEST PUSH1 0x0 DUP4 ADD MSTORE POP PUSH1 0x20 PUSH2 0xCA5 DUP5 DUP3 DUP6 ADD PUSH2 0xBCC JUMP JUMPDEST PUSH1 0x20 DUP4 ADD MSTORE POP PUSH1 0x40 PUSH2 0xCB9 DUP5 DUP3 DUP6 ADD PUSH2 0xBCC JUMP JUMPDEST PUSH1 0x40 DUP4 ADD MSTORE POP PUSH1 0x60 PUSH2 0xCCD DUP5 DUP3 DUP6 ADD PUSH2 0xBCC JUMP JUMPDEST PUSH1 0x60 DUP4 ADD MSTORE POP PUSH1 0x80 PUSH2 0xCE1 DUP5 DUP3 DUP6 ADD PUSH2 0xBCC JUMP JUMPDEST PUSH1 0x80 DUP4 ADD MSTORE POP PUSH1 0xA0 PUSH2 0xCF5 DUP5 DUP3 DUP6 ADD PUSH2 0xBCC JUMP JUMPDEST PUSH1 0xA0 DUP4 ADD MSTORE POP PUSH1 0xC0 PUSH2 0xD09 DUP5 DUP3 DUP6 ADD PUSH2 0xC09 JUMP JUMPDEST PUSH1 0xC0 DUP4 ADD MSTORE POP PUSH1 0xE0 PUSH2 0xD1D DUP5 DUP3 DUP6 ADD PUSH2 0xC35 JUMP JUMPDEST PUSH1 0xE0 DUP4 ADD MSTORE POP PUSH2 0x100 PUSH2 0xD32 DUP5 DUP3 DUP6 ADD PUSH2 0xC4A JUMP JUMPDEST PUSH2 0x100 DUP4 ADD MSTORE POP PUSH2 0x120 PUSH2 0xD48 DUP5 DUP3 DUP6 ADD PUSH2 0xC4A JUMP JUMPDEST PUSH2 0x120 DUP4 ADD MSTORE POP PUSH2 0x140 PUSH2 0xD5E DUP5 DUP3 DUP6 ADD PUSH2 0xC4A JUMP JUMPDEST PUSH2 0x140 DUP4 ADD MSTORE POP PUSH2 0x160 PUSH2 0xD74 DUP5 DUP3 DUP6 ADD PUSH2 0xC4A JUMP JUMPDEST PUSH2 0x160 DUP4 ADD MSTORE POP PUSH2 0x180 PUSH2 0xD8A DUP5 DUP3 DUP6 ADD PUSH2 0xBCC JUMP JUMPDEST PUSH2 0x180 DUP4 ADD MSTORE POP PUSH2 0x1A0 PUSH2 0xDA0 DUP5 DUP3 DUP6 ADD PUSH2 0xBCC JUMP JUMPDEST PUSH2 0x1A0 DUP4 ADD MSTORE POP PUSH2 0x1C0 PUSH2 0xDB6 DUP5 DUP3 DUP6 ADD PUSH2 0xBCC JUMP JUMPDEST PUSH2 0x1C0 DUP4 ADD MSTORE POP SWAP3 SWAP2 POP POP JUMP JUMPDEST PUSH1 0x0 PUSH2 0x1E0 DUP3 DUP5 SUB SLT ISZERO PUSH2 0xDDA JUMPI PUSH2 0xDD9 PUSH2 0x6D2 JUMP JUMPDEST JUMPDEST PUSH1 0x0 PUSH2 0xDE8 DUP5 DUP3 DUP6 ADD PUSH2 0xC5F JUMP JUMPDEST SWAP2 POP POP SWAP3 SWAP2 POP POP JUMP JUMPDEST PUSH1 0x0 PUSH1 0x20 DUP3 DUP5 SUB SLT ISZERO PUSH2 0xE07 JUMPI PUSH2 0xE06 PUSH2 0x6D2 JUMP JUMPDEST JUMPDEST PUSH1 0x0 PUSH2 0xE15 DUP5 DUP3 DUP6 ADD PUSH2 0xB48 JUMP JUMPDEST SWAP2 POP POP SWAP3 SWAP2 POP POP JUMP JUMPDEST PUSH1 0x0 DUP2 SWAP1 POP SWAP2 SWAP1 POP JUMP JUMPDEST PUSH1 0x0 PUSH2 0xE43 PUSH2 0xE3E PUSH2 0xE39 DUP5 PUSH2 0xE1E JUMP JUMPDEST PUSH2 0x64E JUMP JUMPDEST PUSH2 0x71A JUMP JUMPDEST SWAP1 POP SWAP2 SWAP1 POP JUMP JUMPDEST PUSH2 0xE53 DUP2 PUSH2 0xE28 JUMP JUMPDEST DUP3 MSTORE POP POP JUMP JUMPDEST PUSH1 0x0 PUSH1 0xA0 DUP3 ADD SWAP1 POP PUSH2 0xE6E PUSH1 0x0 DUP4 ADD DUP9 PUSH2 0xA62 JUMP JUMPDEST PUSH2 0xE7B PUSH1 0x20 DUP4 ADD DUP8 PUSH2 0x9DF JUMP JUMPDEST PUSH2 0xE88 PUSH1 0x40 DUP4 ADD DUP7 PUSH2 0xE4A JUMP JUMPDEST PUSH2 0xE95 PUSH1 0x60 DUP4 ADD DUP6 PUSH2 0xAD4 JUMP JUMPDEST PUSH2 0xEA2 PUSH1 0x80 DUP4 ADD DUP5 PUSH2 0xA62 JUMP JUMPDEST SWAP7 SWAP6 POP POP POP POP POP POP JUMP INVALID LOG2 PUSH5 0x6970667358 0x22 SLT KECCAK256 0xBF PUSH9 0xC73D01F09DDB3E6C8B MLOAD 0xDE 0xB5 0xE2 0xC3 SWAP12 0xCD DUP11 CALL PUSH27 0x6AB7406CF9B1CCA2DEAD9664736F6C634300080A00330000000000 "
		},
		"gasEstimates": {
			"creation": {
				"codeDepositCost": "762000",
				"executionCost": "infinite",
				"totalCost": "infinite"
			},
			"external": {
				"ADDRESSES_PROVIDER()": "infinite",
				"POOL()": "infinite",
				"executeOperation(address,uint256,uint256,address,bytes)": "infinite",
				"supplyAsset(address,uint256)": "infinite"
			},
			"internal": {
				"_innerBorrow(address)": "infinite"
			}
		},
		"methodIdentifiers": {
			"ADDRESSES_PROVIDER()": "0542975c",
			"POOL()": "7535d246",
			"executeOperation(address,uint256,uint256,address,bytes)": "1b11d0ff",
			"supplyAsset(address,uint256)": "1416d762"
		}
	},
	"abi": [
		{
			"inputs": [
				{
					"internalType": "contract IPoolAddressesProvider",
					"name": "provider",
					"type": "address"
				}
			],
			"stateMutability": "nonpayable",
			"type": "constructor"
		},
		{
			"inputs": [],
			"name": "ADDRESSES_PROVIDER",
			"outputs": [
				{
					"internalType": "contract IPoolAddressesProvider",
					"name": "",
					"type": "address"
				}
			],
			"stateMutability": "view",
			"type": "function"
		},
		{
			"inputs": [],
			"name": "POOL",
			"outputs": [
				{
					"internalType": "contract IPool",
					"name": "",
					"type": "address"
				}
			],
			"stateMutability": "view",
			"type": "function"
		},
		{
			"inputs": [
				{
					"internalType": "address",
					"name": "asset",
					"type": "address"
				},
				{
					"internalType": "uint256",
					"name": "amount",
					"type": "uint256"
				},
				{
					"internalType": "uint256",
					"name": "premium",
					"type": "uint256"
				},
				{
					"internalType": "address",
					"name": "",
					"type": "address"
				},
				{
					"internalType": "bytes",
					"name": "",
					"type": "bytes"
				}
			],
			"name": "executeOperation",
			"outputs": [
				{
					"internalType": "bool",
					"name": "",
					"type": "bool"
				}
			],
			"stateMutability": "nonpayable",
			"type": "function"
		},
		{
			"inputs": [
				{
					"internalType": "address",
					"name": "asset",
					"type": "address"
				},
				{
					"internalType": "uint256",
					"name": "amount",
					"type": "uint256"
				}
			],
			"name": "supplyAsset",
			"outputs": [],
			"stateMutability": "nonpayable",
			"type": "function"
		}
	]
}