{
	"nft-staking-with-infinite-rewards/nft-staking-with-infinite-rewards.sol": {
		"NFTStakingPerToken": {
			"abi": [
				{
					"inputs": [
						{
							"internalType": "address",
							"name": "nftAddress",
							"type": "address"
						},
						{
							"internalType": "address",
							"name": "rewardTokenAddress",
							"type": "address"
						},
						{
							"internalType": "address",
							"name": "rewardWalletAddress",
							"type": "address"
						},
						{
							"internalType": "uint256",
							"name": "rewardRate",
							"type": "uint256"
						}
					],
					"stateMutability": "nonpayable",
					"type": "constructor"
				},
				{
					"inputs": [
						{
							"internalType": "address",
							"name": "account",
							"type": "address"
						}
					],
					"name": "available",
					"outputs": [
						{
							"internalType": "uint256",
							"name": "",
							"type": "uint256"
						}
					],
					"stateMutability": "view",
					"type": "function"
				},
				{
					"inputs": [
						{
							"internalType": "address",
							"name": "",
							"type": "address"
						}
					],
					"name": "balanceOf",
					"outputs": [
						{
							"internalType": "uint256",
							"name": "",
							"type": "uint256"
						}
					],
					"stateMutability": "view",
					"type": "function"
				},
				{
					"inputs": [
						{
							"internalType": "address",
							"name": "",
							"type": "address"
						}
					],
					"name": "lastUpdateTime",
					"outputs": [
						{
							"internalType": "uint256",
							"name": "",
							"type": "uint256"
						}
					],
					"stateMutability": "view",
					"type": "function"
				},
				{
					"inputs": [],
					"name": "nft",
					"outputs": [
						{
							"internalType": "contract IERC721",
							"name": "",
							"type": "address"
						}
					],
					"stateMutability": "view",
					"type": "function"
				},
				{
					"inputs": [
						{
							"internalType": "address",
							"name": "",
							"type": "address"
						},
						{
							"internalType": "address",
							"name": "from",
							"type": "address"
						},
						{
							"internalType": "uint256",
							"name": "tokenId",
							"type": "uint256"
						},
						{
							"internalType": "bytes",
							"name": "",
							"type": "bytes"
						}
					],
					"name": "onERC721Received",
					"outputs": [
						{
							"internalType": "bytes4",
							"name": "",
							"type": "bytes4"
						}
					],
					"stateMutability": "nonpayable",
					"type": "function"
				},
				{
					"inputs": [],
					"name": "redeem",
					"outputs": [],
					"stateMutability": "nonpayable",
					"type": "function"
				},
				{
					"inputs": [],
					"name": "rewardPerTokenPerDay",
					"outputs": [
						{
							"internalType": "uint256",
							"name": "",
							"type": "uint256"
						}
					],
					"stateMutability": "view",
					"type": "function"
				},
				{
					"inputs": [],
					"name": "rewardToken",
					"outputs": [
						{
							"internalType": "contract IERC20",
							"name": "",
							"type": "address"
						}
					],
					"stateMutability": "view",
					"type": "function"
				},
				{
					"inputs": [],
					"name": "rewardWallet",
					"outputs": [
						{
							"internalType": "address",
							"name": "",
							"type": "address"
						}
					],
					"stateMutability": "view",
					"type": "function"
				},
				{
					"inputs": [
						{
							"internalType": "uint256",
							"name": "tokenId",
							"type": "uint256"
						}
					],
					"name": "stake",
					"outputs": [],
					"stateMutability": "nonpayable",
					"type": "function"
				},
				{
					"inputs": [
						{
							"internalType": "uint256",
							"name": "tokenId",
							"type": "uint256"
						}
					],
					"name": "withdraw",
					"outputs": [],
					"stateMutability": "nonpayable",
					"type": "function"
				}
			],
			"devdoc": {
				"author": "Breakthrough Labs Inc.",
				"custom:address": "51",
				"custom:default-precision": "0",
				"custom:simple-description": "NFT staking contract that rewards stakers with an exact number of ERC20 tokens per day.",
				"custom:version": "1.0.0",
				"details": "NFT staking contract that rewards stakers with an exact number of ERC20 tokens per day. On deployment, the owner specifies a daily reward rate, and an address that tokens will be pulled from. Neither of these can be changed. Each staked NFT receives the same number of tokens every day. The per NFT rate stays the same even when the number of staked NFTs increases/decreases. A common usecase is for blockchain-based games, where each NFT rewards a certain number of lives per day.",
				"kind": "dev",
				"methods": {
					"available(address)": {
						"details": "returns the number of reward tokens available for an address",
						"params": {
							"account": "account"
						}
					},
					"constructor": {
						"params": {
							"nftAddress": "Staked NFT Address",
							"rewardRate": "# of tokens per staked NFT per day | precision:18",
							"rewardTokenAddress": "Reward Token Address",
							"rewardWalletAddress": "Wallet that holds rewards to be paid out"
						}
					},
					"redeem()": {
						"details": "redeems all of a user's reward tokens."
					},
					"stake(uint256)": {
						"details": "stakes a specific tokenID",
						"params": {
							"tokenId": "tokenId"
						}
					},
					"withdraw(uint256)": {
						"details": "withdraws a token from the staking contract",
						"params": {
							"tokenId": "tokenId"
						}
					}
				},
				"stateVariables": {
					"rewardPerTokenPerDay": {
						"custom:precision": "18"
					}
				},
				"title": "NFT Staking with Infinite Rewards",
				"version": 1
			},
			"evm": {
				"assembly": "    /* \"nft-staking-with-infinite-rewards/nft-staking-with-infinite-rewards.sol\":2582:5500  contract NFTStakingPerToken is Context, IERC721Receiver {... */\n  mstore(0x40, 0x80)\n    /* \"nft-staking-with-infinite-rewards/nft-staking-with-infinite-rewards.sol\":3294:3630  constructor(... */\n  callvalue\n  dup1\n  iszero\n  tag_1\n  jumpi\n  revert(0x00, 0x00)\ntag_1:\n  pop\n  mload(0x40)\n  sub(codesize, bytecodeSize)\n  dup1\n  bytecodeSize\n  dup4\n  codecopy\n  dup2\n  dup2\n  add\n  0x40\n  mstore\n  dup2\n  add\n  swap1\n  tag_2\n  swap2\n  swap1\n  tag_3\n  jump\t// in\ntag_2:\n    /* \"nft-staking-with-infinite-rewards/nft-staking-with-infinite-rewards.sol\":3471:3481  nftAddress */\n  dup4\n    /* \"nft-staking-with-infinite-rewards/nft-staking-with-infinite-rewards.sol\":3457:3460  nft */\n  0x00\n  0x00\n    /* \"nft-staking-with-infinite-rewards/nft-staking-with-infinite-rewards.sol\":3457:3482  nft = IERC721(nftAddress) */\n  0x0100\n  exp\n  dup2\n  sload\n  dup2\n  0xffffffffffffffffffffffffffffffffffffffff\n  mul\n  not\n  and\n  swap1\n  dup4\n  0xffffffffffffffffffffffffffffffffffffffff\n  and\n  mul\n  or\n  swap1\n  sstore\n  pop\n    /* \"nft-staking-with-infinite-rewards/nft-staking-with-infinite-rewards.sol\":3514:3532  rewardTokenAddress */\n  dup3\n    /* \"nft-staking-with-infinite-rewards/nft-staking-with-infinite-rewards.sol\":3493:3504  rewardToken */\n  0x01\n  0x00\n    /* \"nft-staking-with-infinite-rewards/nft-staking-with-infinite-rewards.sol\":3493:3533  rewardToken = IERC20(rewardTokenAddress) */\n  0x0100\n  exp\n  dup2\n  sload\n  dup2\n  0xffffffffffffffffffffffffffffffffffffffff\n  mul\n  not\n  and\n  swap1\n  dup4\n  0xffffffffffffffffffffffffffffffffffffffff\n  and\n  mul\n  or\n  swap1\n  sstore\n  pop\n    /* \"nft-staking-with-infinite-rewards/nft-staking-with-infinite-rewards.sol\":3559:3578  rewardWalletAddress */\n  dup2\n    /* \"nft-staking-with-infinite-rewards/nft-staking-with-infinite-rewards.sol\":3544:3556  rewardWallet */\n  0x02\n  0x00\n    /* \"nft-staking-with-infinite-rewards/nft-staking-with-infinite-rewards.sol\":3544:3578  rewardWallet = rewardWalletAddress */\n  0x0100\n  exp\n  dup2\n  sload\n  dup2\n  0xffffffffffffffffffffffffffffffffffffffff\n  mul\n  not\n  and\n  swap1\n  dup4\n  0xffffffffffffffffffffffffffffffffffffffff\n  and\n  mul\n  or\n  swap1\n  sstore\n  pop\n    /* \"nft-staking-with-infinite-rewards/nft-staking-with-infinite-rewards.sol\":3612:3622  rewardRate */\n  dup1\n    /* \"nft-staking-with-infinite-rewards/nft-staking-with-infinite-rewards.sol\":3589:3609  rewardPerTokenPerDay */\n  0x03\n    /* \"nft-staking-with-infinite-rewards/nft-staking-with-infinite-rewards.sol\":3589:3622  rewardPerTokenPerDay = rewardRate */\n  dup2\n  swap1\n  sstore\n  pop\n    /* \"nft-staking-with-infinite-rewards/nft-staking-with-infinite-rewards.sol\":3294:3630  constructor(... */\n  pop\n  pop\n  pop\n  pop\n    /* \"nft-staking-with-infinite-rewards/nft-staking-with-infinite-rewards.sol\":2582:5500  contract NFTStakingPerToken is Context, IERC721Receiver {... */\n  jump(tag_6)\n    /* \"#utility.yul\":88:205   */\ntag_8:\n    /* \"#utility.yul\":197:198   */\n  0x00\n    /* \"#utility.yul\":194:195   */\n  0x00\n    /* \"#utility.yul\":187:199   */\n  revert\n    /* \"#utility.yul\":334:460   */\ntag_10:\n    /* \"#utility.yul\":371:378   */\n  0x00\n    /* \"#utility.yul\":411:453   */\n  0xffffffffffffffffffffffffffffffffffffffff\n    /* \"#utility.yul\":404:409   */\n  dup3\n    /* \"#utility.yul\":400:454   */\n  and\n    /* \"#utility.yul\":389:454   */\n  swap1\n  pop\n    /* \"#utility.yul\":334:460   */\n  swap2\n  swap1\n  pop\n  jump\t// out\n    /* \"#utility.yul\":466:562   */\ntag_11:\n    /* \"#utility.yul\":503:510   */\n  0x00\n    /* \"#utility.yul\":532:556   */\n  tag_23\n    /* \"#utility.yul\":550:555   */\n  dup3\n    /* \"#utility.yul\":532:556   */\n  tag_10\n  jump\t// in\ntag_23:\n    /* \"#utility.yul\":521:556   */\n  swap1\n  pop\n    /* \"#utility.yul\":466:562   */\n  swap2\n  swap1\n  pop\n  jump\t// out\n    /* \"#utility.yul\":568:690   */\ntag_12:\n    /* \"#utility.yul\":641:665   */\n  tag_25\n    /* \"#utility.yul\":659:664   */\n  dup2\n    /* \"#utility.yul\":641:665   */\n  tag_11\n  jump\t// in\ntag_25:\n    /* \"#utility.yul\":634:639   */\n  dup2\n    /* \"#utility.yul\":631:666   */\n  eq\n    /* \"#utility.yul\":621:684   */\n  tag_26\n  jumpi\n    /* \"#utility.yul\":680:681   */\n  0x00\n    /* \"#utility.yul\":677:678   */\n  0x00\n    /* \"#utility.yul\":670:682   */\n  revert\n    /* \"#utility.yul\":621:684   */\ntag_26:\n    /* \"#utility.yul\":568:690   */\n  pop\n  jump\t// out\n    /* \"#utility.yul\":696:839   */\ntag_13:\n    /* \"#utility.yul\":753:758   */\n  0x00\n    /* \"#utility.yul\":784:790   */\n  dup2\n    /* \"#utility.yul\":778:791   */\n  mload\n    /* \"#utility.yul\":769:791   */\n  swap1\n  pop\n    /* \"#utility.yul\":800:833   */\n  tag_28\n    /* \"#utility.yul\":827:832   */\n  dup2\n    /* \"#utility.yul\":800:833   */\n  tag_12\n  jump\t// in\ntag_28:\n    /* \"#utility.yul\":696:839   */\n  swap3\n  swap2\n  pop\n  pop\n  jump\t// out\n    /* \"#utility.yul\":845:922   */\ntag_14:\n    /* \"#utility.yul\":882:889   */\n  0x00\n    /* \"#utility.yul\":911:916   */\n  dup2\n    /* \"#utility.yul\":900:916   */\n  swap1\n  pop\n    /* \"#utility.yul\":845:922   */\n  swap2\n  swap1\n  pop\n  jump\t// out\n    /* \"#utility.yul\":928:1050   */\ntag_15:\n    /* \"#utility.yul\":1001:1025   */\n  tag_31\n    /* \"#utility.yul\":1019:1024   */\n  dup2\n    /* \"#utility.yul\":1001:1025   */\n  tag_14\n  jump\t// in\ntag_31:\n    /* \"#utility.yul\":994:999   */\n  dup2\n    /* \"#utility.yul\":991:1026   */\n  eq\n    /* \"#utility.yul\":981:1044   */\n  tag_32\n  jumpi\n    /* \"#utility.yul\":1040:1041   */\n  0x00\n    /* \"#utility.yul\":1037:1038   */\n  0x00\n    /* \"#utility.yul\":1030:1042   */\n  revert\n    /* \"#utility.yul\":981:1044   */\ntag_32:\n    /* \"#utility.yul\":928:1050   */\n  pop\n  jump\t// out\n    /* \"#utility.yul\":1056:1199   */\ntag_16:\n    /* \"#utility.yul\":1113:1118   */\n  0x00\n    /* \"#utility.yul\":1144:1150   */\n  dup2\n    /* \"#utility.yul\":1138:1151   */\n  mload\n    /* \"#utility.yul\":1129:1151   */\n  swap1\n  pop\n    /* \"#utility.yul\":1160:1193   */\n  tag_34\n    /* \"#utility.yul\":1187:1192   */\n  dup2\n    /* \"#utility.yul\":1160:1193   */\n  tag_15\n  jump\t// in\ntag_34:\n    /* \"#utility.yul\":1056:1199   */\n  swap3\n  swap2\n  pop\n  pop\n  jump\t// out\n    /* \"#utility.yul\":1205:2025   */\ntag_3:\n    /* \"#utility.yul\":1302:1308   */\n  0x00\n    /* \"#utility.yul\":1310:1316   */\n  0x00\n    /* \"#utility.yul\":1318:1324   */\n  0x00\n    /* \"#utility.yul\":1326:1332   */\n  0x00\n    /* \"#utility.yul\":1375:1378   */\n  0x80\n    /* \"#utility.yul\":1363:1372   */\n  dup6\n    /* \"#utility.yul\":1354:1361   */\n  dup8\n    /* \"#utility.yul\":1350:1373   */\n  sub\n    /* \"#utility.yul\":1346:1379   */\n  slt\n    /* \"#utility.yul\":1343:1463   */\n  iszero\n  tag_36\n  jumpi\n    /* \"#utility.yul\":1382:1461   */\n  tag_37\n  tag_8\n  jump\t// in\ntag_37:\n    /* \"#utility.yul\":1343:1463   */\ntag_36:\n    /* \"#utility.yul\":1502:1503   */\n  0x00\n    /* \"#utility.yul\":1527:1591   */\n  tag_38\n    /* \"#utility.yul\":1583:1590   */\n  dup8\n    /* \"#utility.yul\":1574:1580   */\n  dup3\n    /* \"#utility.yul\":1563:1572   */\n  dup9\n    /* \"#utility.yul\":1559:1581   */\n  add\n    /* \"#utility.yul\":1527:1591   */\n  tag_13\n  jump\t// in\ntag_38:\n    /* \"#utility.yul\":1517:1591   */\n  swap5\n  pop\n    /* \"#utility.yul\":1473:1601   */\n  pop\n    /* \"#utility.yul\":1640:1642   */\n  0x20\n    /* \"#utility.yul\":1666:1730   */\n  tag_39\n    /* \"#utility.yul\":1722:1729   */\n  dup8\n    /* \"#utility.yul\":1713:1719   */\n  dup3\n    /* \"#utility.yul\":1702:1711   */\n  dup9\n    /* \"#utility.yul\":1698:1720   */\n  add\n    /* \"#utility.yul\":1666:1730   */\n  tag_13\n  jump\t// in\ntag_39:\n    /* \"#utility.yul\":1656:1730   */\n  swap4\n  pop\n    /* \"#utility.yul\":1611:1740   */\n  pop\n    /* \"#utility.yul\":1779:1781   */\n  0x40\n    /* \"#utility.yul\":1805:1869   */\n  tag_40\n    /* \"#utility.yul\":1861:1868   */\n  dup8\n    /* \"#utility.yul\":1852:1858   */\n  dup3\n    /* \"#utility.yul\":1841:1850   */\n  dup9\n    /* \"#utility.yul\":1837:1859   */\n  add\n    /* \"#utility.yul\":1805:1869   */\n  tag_13\n  jump\t// in\ntag_40:\n    /* \"#utility.yul\":1795:1869   */\n  swap3\n  pop\n    /* \"#utility.yul\":1750:1879   */\n  pop\n    /* \"#utility.yul\":1918:1920   */\n  0x60\n    /* \"#utility.yul\":1944:2008   */\n  tag_41\n    /* \"#utility.yul\":2000:2007   */\n  dup8\n    /* \"#utility.yul\":1991:1997   */\n  dup3\n    /* \"#utility.yul\":1980:1989   */\n  dup9\n    /* \"#utility.yul\":1976:1998   */\n  add\n    /* \"#utility.yul\":1944:2008   */\n  tag_16\n  jump\t// in\ntag_41:\n    /* \"#utility.yul\":1934:2008   */\n  swap2\n  pop\n    /* \"#utility.yul\":1889:2018   */\n  pop\n    /* \"#utility.yul\":1205:2025   */\n  swap3\n  swap6\n  swap2\n  swap5\n  pop\n  swap3\n  pop\n  jump\t// out\n    /* \"nft-staking-with-infinite-rewards/nft-staking-with-infinite-rewards.sol\":2582:5500  contract NFTStakingPerToken is Context, IERC721Receiver {... */\ntag_6:\n  dataSize(sub_0)\n  dup1\n  dataOffset(sub_0)\n  0x00\n  codecopy\n  0x00\n  return\nstop\n\nsub_0: assembly {\n        /* \"nft-staking-with-infinite-rewards/nft-staking-with-infinite-rewards.sol\":2582:5500  contract NFTStakingPerToken is Context, IERC721Receiver {... */\n      mstore(0x40, 0x80)\n      callvalue\n      dup1\n      iszero\n      tag_1\n      jumpi\n      revert(0x00, 0x00)\n    tag_1:\n      pop\n      jumpi(tag_2, lt(calldatasize, 0x04))\n      shr(0xe0, calldataload(0x00))\n      dup1\n      0x47ccca02\n      gt\n      tag_14\n      jumpi\n      dup1\n      0x47ccca02\n      eq\n      tag_8\n      jumpi\n      dup1\n      0x70a08231\n      eq\n      tag_9\n      jumpi\n      dup1\n      0xa694fc3a\n      eq\n      tag_10\n      jumpi\n      dup1\n      0xbe040fb0\n      eq\n      tag_11\n      jumpi\n      dup1\n      0xf7c618c1\n      eq\n      tag_12\n      jumpi\n      dup1\n      0xfb75b2c7\n      eq\n      tag_13\n      jumpi\n      jump(tag_2)\n    tag_14:\n      dup1\n      0x10098ad5\n      eq\n      tag_3\n      jumpi\n      dup1\n      0x150b7a02\n      eq\n      tag_4\n      jumpi\n      dup1\n      0x2ce9aead\n      eq\n      tag_5\n      jumpi\n      dup1\n      0x2d6a1fa6\n      eq\n      tag_6\n      jumpi\n      dup1\n      0x2e1a7d4d\n      eq\n      tag_7\n      jumpi\n    tag_2:\n      revert(0x00, 0x00)\n        /* \"nft-staking-with-infinite-rewards/nft-staking-with-infinite-rewards.sol\":3921:4230  function available(address account) public view returns (uint256) {... */\n    tag_3:\n      tag_15\n      0x04\n      dup1\n      calldatasize\n      sub\n      dup2\n      add\n      swap1\n      tag_16\n      swap2\n      swap1\n      tag_17\n      jump\t// in\n    tag_16:\n      tag_18\n      jump\t// in\n    tag_15:\n      mload(0x40)\n      tag_19\n      swap2\n      swap1\n      tag_20\n      jump\t// in\n    tag_19:\n      mload(0x40)\n      dup1\n      swap2\n      sub\n      swap1\n      return\n        /* \"nft-staking-with-infinite-rewards/nft-staking-with-infinite-rewards.sol\":5199:5497  function onERC721Received(... */\n    tag_4:\n      tag_21\n      0x04\n      dup1\n      calldatasize\n      sub\n      dup2\n      add\n      swap1\n      tag_22\n      swap2\n      swap1\n      tag_23\n      jump\t// in\n    tag_22:\n      tag_24\n      jump\t// in\n    tag_21:\n      mload(0x40)\n      tag_25\n      swap2\n      swap1\n      tag_26\n      jump\t// in\n    tag_25:\n      mload(0x40)\n      dup1\n      swap2\n      sub\n      swap1\n      return\n        /* \"nft-staking-with-infinite-rewards/nft-staking-with-infinite-rewards.sol\":2916:2965  mapping(address => uint256) public lastUpdateTime */\n    tag_5:\n      tag_27\n      0x04\n      dup1\n      calldatasize\n      sub\n      dup2\n      add\n      swap1\n      tag_28\n      swap2\n      swap1\n      tag_17\n      jump\t// in\n    tag_28:\n      tag_29\n      jump\t// in\n    tag_27:\n      mload(0x40)\n      tag_30\n      swap2\n      swap1\n      tag_20\n      jump\t// in\n    tag_30:\n      mload(0x40)\n      dup1\n      swap2\n      sub\n      swap1\n      return\n        /* \"nft-staking-with-infinite-rewards/nft-staking-with-infinite-rewards.sol\":2766:2801  uint256 public rewardPerTokenPerDay */\n    tag_6:\n      tag_31\n      tag_32\n      jump\t// in\n    tag_31:\n      mload(0x40)\n      tag_33\n      swap2\n      swap1\n      tag_20\n      jump\t// in\n    tag_33:\n      mload(0x40)\n      dup1\n      swap2\n      sub\n      swap1\n      return\n        /* \"nft-staking-with-infinite-rewards/nft-staking-with-infinite-rewards.sol\":4558:4852  function withdraw(uint256 tokenId) external update(_msgSender()) {... */\n    tag_7:\n      tag_34\n      0x04\n      dup1\n      calldatasize\n      sub\n      dup2\n      add\n      swap1\n      tag_35\n      swap2\n      swap1\n      tag_36\n      jump\t// in\n    tag_35:\n      tag_37\n      jump\t// in\n    tag_34:\n      stop\n        /* \"nft-staking-with-infinite-rewards/nft-staking-with-infinite-rewards.sol\":2645:2663  IERC721 public nft */\n    tag_8:\n      tag_38\n      tag_39\n      jump\t// in\n    tag_38:\n      mload(0x40)\n      tag_40\n      swap2\n      swap1\n      tag_41\n      jump\t// in\n    tag_40:\n      mload(0x40)\n      dup1\n      swap2\n      sub\n      swap1\n      return\n        /* \"nft-staking-with-infinite-rewards/nft-staking-with-infinite-rewards.sol\":2865:2909  mapping(address => uint256) public balanceOf */\n    tag_9:\n      tag_42\n      0x04\n      dup1\n      calldatasize\n      sub\n      dup2\n      add\n      swap1\n      tag_43\n      swap2\n      swap1\n      tag_17\n      jump\t// in\n    tag_43:\n      tag_44\n      jump\t// in\n    tag_42:\n      mload(0x40)\n      tag_45\n      swap2\n      swap1\n      tag_20\n      jump\t// in\n    tag_45:\n      mload(0x40)\n      dup1\n      swap2\n      sub\n      swap1\n      return\n        /* \"nft-staking-with-infinite-rewards/nft-staking-with-infinite-rewards.sol\":4326:4444  function stake(uint256 tokenId) external {... */\n    tag_10:\n      tag_46\n      0x04\n      dup1\n      calldatasize\n      sub\n      dup2\n      add\n      swap1\n      tag_47\n      swap2\n      swap1\n      tag_36\n      jump\t// in\n    tag_47:\n      tag_48\n      jump\t// in\n    tag_46:\n      stop\n        /* \"nft-staking-with-infinite-rewards/nft-staking-with-infinite-rewards.sol\":4930:5191  function redeem() external update(_msgSender()) {... */\n    tag_11:\n      tag_49\n      tag_50\n      jump\t// in\n    tag_49:\n      stop\n        /* \"nft-staking-with-infinite-rewards/nft-staking-with-infinite-rewards.sol\":2670:2695  IERC20 public rewardToken */\n    tag_12:\n      tag_51\n      tag_52\n      jump\t// in\n    tag_51:\n      mload(0x40)\n      tag_53\n      swap2\n      swap1\n      tag_54\n      jump\t// in\n    tag_53:\n      mload(0x40)\n      dup1\n      swap2\n      sub\n      swap1\n      return\n        /* \"nft-staking-with-infinite-rewards/nft-staking-with-infinite-rewards.sol\":2702:2729  address public rewardWallet */\n    tag_13:\n      tag_55\n      tag_56\n      jump\t// in\n    tag_55:\n      mload(0x40)\n      tag_57\n      swap2\n      swap1\n      tag_58\n      jump\t// in\n    tag_57:\n      mload(0x40)\n      dup1\n      swap2\n      sub\n      swap1\n      return\n        /* \"nft-staking-with-infinite-rewards/nft-staking-with-infinite-rewards.sol\":3921:4230  function available(address account) public view returns (uint256) {... */\n    tag_18:\n        /* \"nft-staking-with-infinite-rewards/nft-staking-with-infinite-rewards.sol\":3978:3985  uint256 */\n      0x00\n        /* \"nft-staking-with-infinite-rewards/nft-staking-with-infinite-rewards.sol\":3998:4017  uint256 timeElapsed */\n      0x00\n        /* \"nft-staking-with-infinite-rewards/nft-staking-with-infinite-rewards.sol\":4038:4052  lastUpdateTime */\n      0x06\n        /* \"nft-staking-with-infinite-rewards/nft-staking-with-infinite-rewards.sol\":4038:4061  lastUpdateTime[account] */\n      0x00\n        /* \"nft-staking-with-infinite-rewards/nft-staking-with-infinite-rewards.sol\":4053:4060  account */\n      dup5\n        /* \"nft-staking-with-infinite-rewards/nft-staking-with-infinite-rewards.sol\":4038:4061  lastUpdateTime[account] */\n      0xffffffffffffffffffffffffffffffffffffffff\n      and\n      0xffffffffffffffffffffffffffffffffffffffff\n      and\n      dup2\n      mstore\n      0x20\n      add\n      swap1\n      dup2\n      mstore\n      0x20\n      add\n      0x00\n      keccak256\n      sload\n        /* \"nft-staking-with-infinite-rewards/nft-staking-with-infinite-rewards.sol\":4020:4035  block.timestamp */\n      timestamp\n        /* \"nft-staking-with-infinite-rewards/nft-staking-with-infinite-rewards.sol\":4020:4061  block.timestamp - lastUpdateTime[account] */\n      tag_60\n      swap2\n      swap1\n      tag_61\n      jump\t// in\n    tag_60:\n        /* \"nft-staking-with-infinite-rewards/nft-staking-with-infinite-rewards.sol\":3998:4061  uint256 timeElapsed = block.timestamp - lastUpdateTime[account] */\n      swap1\n      pop\n        /* \"nft-staking-with-infinite-rewards/nft-staking-with-infinite-rewards.sol\":4072:4086  uint256 earned */\n      0x00\n        /* \"nft-staking-with-infinite-rewards/nft-staking-with-infinite-rewards.sol\":4175:4180  86400 */\n      0x015180\n        /* \"nft-staking-with-infinite-rewards/nft-staking-with-infinite-rewards.sol\":4151:4171  rewardPerTokenPerDay */\n      sload(0x03)\n        /* \"nft-staking-with-infinite-rewards/nft-staking-with-infinite-rewards.sol\":4124:4135  timeElapsed */\n      dup4\n        /* \"nft-staking-with-infinite-rewards/nft-staking-with-infinite-rewards.sol\":4090:4099  balanceOf */\n      0x05\n        /* \"nft-staking-with-infinite-rewards/nft-staking-with-infinite-rewards.sol\":4090:4108  balanceOf[account] */\n      0x00\n        /* \"nft-staking-with-infinite-rewards/nft-staking-with-infinite-rewards.sol\":4100:4107  account */\n      dup9\n        /* \"nft-staking-with-infinite-rewards/nft-staking-with-infinite-rewards.sol\":4090:4108  balanceOf[account] */\n      0xffffffffffffffffffffffffffffffffffffffff\n      and\n      0xffffffffffffffffffffffffffffffffffffffff\n      and\n      dup2\n      mstore\n      0x20\n      add\n      swap1\n      dup2\n      mstore\n      0x20\n      add\n      0x00\n      keccak256\n      sload\n        /* \"nft-staking-with-infinite-rewards/nft-staking-with-infinite-rewards.sol\":4090:4135  balanceOf[account] *... */\n      tag_62\n      swap2\n      swap1\n      tag_63\n      jump\t// in\n    tag_62:\n        /* \"nft-staking-with-infinite-rewards/nft-staking-with-infinite-rewards.sol\":4090:4171  balanceOf[account] *... */\n      tag_64\n      swap2\n      swap1\n      tag_63\n      jump\t// in\n    tag_64:\n        /* \"nft-staking-with-infinite-rewards/nft-staking-with-infinite-rewards.sol\":4089:4180  (balanceOf[account] *... */\n      tag_65\n      swap2\n      swap1\n      tag_66\n      jump\t// in\n    tag_65:\n        /* \"nft-staking-with-infinite-rewards/nft-staking-with-infinite-rewards.sol\":4072:4180  uint256 earned = (balanceOf[account] *... */\n      swap1\n      pop\n        /* \"nft-staking-with-infinite-rewards/nft-staking-with-infinite-rewards.sol\":4216:4222  earned */\n      dup1\n        /* \"nft-staking-with-infinite-rewards/nft-staking-with-infinite-rewards.sol\":4198:4204  reward */\n      0x07\n        /* \"nft-staking-with-infinite-rewards/nft-staking-with-infinite-rewards.sol\":4198:4213  reward[account] */\n      0x00\n        /* \"nft-staking-with-infinite-rewards/nft-staking-with-infinite-rewards.sol\":4205:4212  account */\n      dup7\n        /* \"nft-staking-with-infinite-rewards/nft-staking-with-infinite-rewards.sol\":4198:4213  reward[account] */\n      0xffffffffffffffffffffffffffffffffffffffff\n      and\n      0xffffffffffffffffffffffffffffffffffffffff\n      and\n      dup2\n      mstore\n      0x20\n      add\n      swap1\n      dup2\n      mstore\n      0x20\n      add\n      0x00\n      keccak256\n      sload\n        /* \"nft-staking-with-infinite-rewards/nft-staking-with-infinite-rewards.sol\":4198:4222  reward[account] + earned */\n      tag_67\n      swap2\n      swap1\n      tag_68\n      jump\t// in\n    tag_67:\n        /* \"nft-staking-with-infinite-rewards/nft-staking-with-infinite-rewards.sol\":4191:4222  return reward[account] + earned */\n      swap3\n      pop\n      pop\n      pop\n        /* \"nft-staking-with-infinite-rewards/nft-staking-with-infinite-rewards.sol\":3921:4230  function available(address account) public view returns (uint256) {... */\n      swap2\n      swap1\n      pop\n      jump\t// out\n        /* \"nft-staking-with-infinite-rewards/nft-staking-with-infinite-rewards.sol\":5199:5497  function onERC721Received(... */\n    tag_24:\n        /* \"nft-staking-with-infinite-rewards/nft-staking-with-infinite-rewards.sol\":5355:5361  bytes4 */\n      0x00\n        /* \"nft-staking-with-infinite-rewards/nft-staking-with-infinite-rewards.sol\":5340:5344  from */\n      dup5\n        /* \"nft-staking-with-infinite-rewards/nft-staking-with-infinite-rewards.sol\":3700:3718  available(account) */\n      tag_70\n        /* \"nft-staking-with-infinite-rewards/nft-staking-with-infinite-rewards.sol\":3710:3717  account */\n      dup2\n        /* \"nft-staking-with-infinite-rewards/nft-staking-with-infinite-rewards.sol\":3700:3709  available */\n      tag_18\n        /* \"nft-staking-with-infinite-rewards/nft-staking-with-infinite-rewards.sol\":3700:3718  available(account) */\n      jump\t// in\n    tag_70:\n        /* \"nft-staking-with-infinite-rewards/nft-staking-with-infinite-rewards.sol\":3682:3688  reward */\n      0x07\n        /* \"nft-staking-with-infinite-rewards/nft-staking-with-infinite-rewards.sol\":3682:3697  reward[account] */\n      0x00\n        /* \"nft-staking-with-infinite-rewards/nft-staking-with-infinite-rewards.sol\":3689:3696  account */\n      dup4\n        /* \"nft-staking-with-infinite-rewards/nft-staking-with-infinite-rewards.sol\":3682:3697  reward[account] */\n      0xffffffffffffffffffffffffffffffffffffffff\n      and\n      0xffffffffffffffffffffffffffffffffffffffff\n      and\n      dup2\n      mstore\n      0x20\n      add\n      swap1\n      dup2\n      mstore\n      0x20\n      add\n      0x00\n      keccak256\n        /* \"nft-staking-with-infinite-rewards/nft-staking-with-infinite-rewards.sol\":3682:3718  reward[account] = available(account) */\n      dup2\n      swap1\n      sstore\n      pop\n        /* \"nft-staking-with-infinite-rewards/nft-staking-with-infinite-rewards.sol\":3755:3770  block.timestamp */\n      timestamp\n        /* \"nft-staking-with-infinite-rewards/nft-staking-with-infinite-rewards.sol\":3729:3743  lastUpdateTime */\n      0x06\n        /* \"nft-staking-with-infinite-rewards/nft-staking-with-infinite-rewards.sol\":3729:3752  lastUpdateTime[account] */\n      0x00\n        /* \"nft-staking-with-infinite-rewards/nft-staking-with-infinite-rewards.sol\":3744:3751  account */\n      dup4\n        /* \"nft-staking-with-infinite-rewards/nft-staking-with-infinite-rewards.sol\":3729:3752  lastUpdateTime[account] */\n      0xffffffffffffffffffffffffffffffffffffffff\n      and\n      0xffffffffffffffffffffffffffffffffffffffff\n      and\n      dup2\n      mstore\n      0x20\n      add\n      swap1\n      dup2\n      mstore\n      0x20\n      add\n      0x00\n      keccak256\n        /* \"nft-staking-with-infinite-rewards/nft-staking-with-infinite-rewards.sol\":3729:3770  lastUpdateTime[account] = block.timestamp */\n      dup2\n      swap1\n      sstore\n      pop\n        /* \"nft-staking-with-infinite-rewards/nft-staking-with-infinite-rewards.sol\":5398:5402  from */\n      dup6\n        /* \"nft-staking-with-infinite-rewards/nft-staking-with-infinite-rewards.sol\":5374:5386  stakedTokens */\n      0x04\n        /* \"nft-staking-with-infinite-rewards/nft-staking-with-infinite-rewards.sol\":5374:5395  stakedTokens[tokenId] */\n      0x00\n        /* \"nft-staking-with-infinite-rewards/nft-staking-with-infinite-rewards.sol\":5387:5394  tokenId */\n      dup8\n        /* \"nft-staking-with-infinite-rewards/nft-staking-with-infinite-rewards.sol\":5374:5395  stakedTokens[tokenId] */\n      dup2\n      mstore\n      0x20\n      add\n      swap1\n      dup2\n      mstore\n      0x20\n      add\n      0x00\n      keccak256\n      0x00\n        /* \"nft-staking-with-infinite-rewards/nft-staking-with-infinite-rewards.sol\":5374:5402  stakedTokens[tokenId] = from */\n      0x0100\n      exp\n      dup2\n      sload\n      dup2\n      0xffffffffffffffffffffffffffffffffffffffff\n      mul\n      not\n      and\n      swap1\n      dup4\n      0xffffffffffffffffffffffffffffffffffffffff\n      and\n      mul\n      or\n      swap1\n      sstore\n      pop\n        /* \"nft-staking-with-infinite-rewards/nft-staking-with-infinite-rewards.sol\":5413:5422  balanceOf */\n      0x05\n        /* \"nft-staking-with-infinite-rewards/nft-staking-with-infinite-rewards.sol\":5413:5428  balanceOf[from] */\n      0x00\n        /* \"nft-staking-with-infinite-rewards/nft-staking-with-infinite-rewards.sol\":5423:5427  from */\n      dup8\n        /* \"nft-staking-with-infinite-rewards/nft-staking-with-infinite-rewards.sol\":5413:5428  balanceOf[from] */\n      0xffffffffffffffffffffffffffffffffffffffff\n      and\n      0xffffffffffffffffffffffffffffffffffffffff\n      and\n      dup2\n      mstore\n      0x20\n      add\n      swap1\n      dup2\n      mstore\n      0x20\n      add\n      0x00\n      keccak256\n      0x00\n        /* \"nft-staking-with-infinite-rewards/nft-staking-with-infinite-rewards.sol\":5413:5430  balanceOf[from]++ */\n      dup2\n      sload\n      dup1\n      swap3\n      swap2\n      swap1\n      tag_72\n      swap1\n      tag_73\n      jump\t// in\n    tag_72:\n      swap2\n      swap1\n      pop\n      sstore\n      pop\n        /* \"nft-staking-with-infinite-rewards/nft-staking-with-infinite-rewards.sol\":5448:5489  IERC721Receiver.onERC721Received.selector */\n      shl(0xe0, 0x150b7a02)\n        /* \"nft-staking-with-infinite-rewards/nft-staking-with-infinite-rewards.sol\":5441:5489  return IERC721Receiver.onERC721Received.selector */\n      swap2\n      pop\n        /* \"nft-staking-with-infinite-rewards/nft-staking-with-infinite-rewards.sol\":5199:5497  function onERC721Received(... */\n      pop\n      swap6\n      swap5\n      pop\n      pop\n      pop\n      pop\n      pop\n      jump\t// out\n        /* \"nft-staking-with-infinite-rewards/nft-staking-with-infinite-rewards.sol\":2916:2965  mapping(address => uint256) public lastUpdateTime */\n    tag_29:\n      mstore(0x20, 0x06)\n      dup1\n      0x00\n      mstore\n      keccak256(0x00, 0x40)\n      0x00\n      swap2\n      pop\n      swap1\n      pop\n      sload\n      dup2\n      jump\t// out\n        /* \"nft-staking-with-infinite-rewards/nft-staking-with-infinite-rewards.sol\":2766:2801  uint256 public rewardPerTokenPerDay */\n    tag_32:\n      sload(0x03)\n      dup2\n      jump\t// out\n        /* \"nft-staking-with-infinite-rewards/nft-staking-with-infinite-rewards.sol\":4558:4852  function withdraw(uint256 tokenId) external update(_msgSender()) {... */\n    tag_37:\n        /* \"nft-staking-with-infinite-rewards/nft-staking-with-infinite-rewards.sol\":4609:4621  _msgSender() */\n      tag_74\n        /* \"nft-staking-with-infinite-rewards/nft-staking-with-infinite-rewards.sol\":4609:4619  _msgSender */\n      tag_75\n        /* \"nft-staking-with-infinite-rewards/nft-staking-with-infinite-rewards.sol\":4609:4621  _msgSender() */\n      jump\t// in\n    tag_74:\n        /* \"nft-staking-with-infinite-rewards/nft-staking-with-infinite-rewards.sol\":3700:3718  available(account) */\n      tag_77\n        /* \"nft-staking-with-infinite-rewards/nft-staking-with-infinite-rewards.sol\":3710:3717  account */\n      dup2\n        /* \"nft-staking-with-infinite-rewards/nft-staking-with-infinite-rewards.sol\":3700:3709  available */\n      tag_18\n        /* \"nft-staking-with-infinite-rewards/nft-staking-with-infinite-rewards.sol\":3700:3718  available(account) */\n      jump\t// in\n    tag_77:\n        /* \"nft-staking-with-infinite-rewards/nft-staking-with-infinite-rewards.sol\":3682:3688  reward */\n      0x07\n        /* \"nft-staking-with-infinite-rewards/nft-staking-with-infinite-rewards.sol\":3682:3697  reward[account] */\n      0x00\n        /* \"nft-staking-with-infinite-rewards/nft-staking-with-infinite-rewards.sol\":3689:3696  account */\n      dup4\n        /* \"nft-staking-with-infinite-rewards/nft-staking-with-infinite-rewards.sol\":3682:3697  reward[account] */\n      0xffffffffffffffffffffffffffffffffffffffff\n      and\n      0xffffffffffffffffffffffffffffffffffffffff\n      and\n      dup2\n      mstore\n      0x20\n      add\n      swap1\n      dup2\n      mstore\n      0x20\n      add\n      0x00\n      keccak256\n        /* \"nft-staking-with-infinite-rewards/nft-staking-with-infinite-rewards.sol\":3682:3718  reward[account] = available(account) */\n      dup2\n      swap1\n      sstore\n      pop\n        /* \"nft-staking-with-infinite-rewards/nft-staking-with-infinite-rewards.sol\":3755:3770  block.timestamp */\n      timestamp\n        /* \"nft-staking-with-infinite-rewards/nft-staking-with-infinite-rewards.sol\":3729:3743  lastUpdateTime */\n      0x06\n        /* \"nft-staking-with-infinite-rewards/nft-staking-with-infinite-rewards.sol\":3729:3752  lastUpdateTime[account] */\n      0x00\n        /* \"nft-staking-with-infinite-rewards/nft-staking-with-infinite-rewards.sol\":3744:3751  account */\n      dup4\n        /* \"nft-staking-with-infinite-rewards/nft-staking-with-infinite-rewards.sol\":3729:3752  lastUpdateTime[account] */\n      0xffffffffffffffffffffffffffffffffffffffff\n      and\n      0xffffffffffffffffffffffffffffffffffffffff\n      and\n      dup2\n      mstore\n      0x20\n      add\n      swap1\n      dup2\n      mstore\n      0x20\n      add\n      0x00\n      keccak256\n        /* \"nft-staking-with-infinite-rewards/nft-staking-with-infinite-rewards.sol\":3729:3770  lastUpdateTime[account] = block.timestamp */\n      dup2\n      swap1\n      sstore\n      pop\n        /* \"nft-staking-with-infinite-rewards/nft-staking-with-infinite-rewards.sol\":4667:4679  _msgSender() */\n      tag_79\n        /* \"nft-staking-with-infinite-rewards/nft-staking-with-infinite-rewards.sol\":4667:4677  _msgSender */\n      tag_75\n        /* \"nft-staking-with-infinite-rewards/nft-staking-with-infinite-rewards.sol\":4667:4679  _msgSender() */\n      jump\t// in\n    tag_79:\n        /* \"nft-staking-with-infinite-rewards/nft-staking-with-infinite-rewards.sol\":4642:4679  stakedTokens[tokenId] == _msgSender() */\n      0xffffffffffffffffffffffffffffffffffffffff\n      and\n        /* \"nft-staking-with-infinite-rewards/nft-staking-with-infinite-rewards.sol\":4642:4654  stakedTokens */\n      0x04\n        /* \"nft-staking-with-infinite-rewards/nft-staking-with-infinite-rewards.sol\":4642:4663  stakedTokens[tokenId] */\n      0x00\n        /* \"nft-staking-with-infinite-rewards/nft-staking-with-infinite-rewards.sol\":4655:4662  tokenId */\n      dup5\n        /* \"nft-staking-with-infinite-rewards/nft-staking-with-infinite-rewards.sol\":4642:4663  stakedTokens[tokenId] */\n      dup2\n      mstore\n      0x20\n      add\n      swap1\n      dup2\n      mstore\n      0x20\n      add\n      0x00\n      keccak256\n      0x00\n      swap1\n      sload\n      swap1\n      0x0100\n      exp\n      swap1\n      div\n      0xffffffffffffffffffffffffffffffffffffffff\n      and\n        /* \"nft-staking-with-infinite-rewards/nft-staking-with-infinite-rewards.sol\":4642:4679  stakedTokens[tokenId] == _msgSender() */\n      0xffffffffffffffffffffffffffffffffffffffff\n      and\n      eq\n        /* \"nft-staking-with-infinite-rewards/nft-staking-with-infinite-rewards.sol\":4634:4704  require(stakedTokens[tokenId] == _msgSender(), \"Token is not staked.\") */\n      tag_80\n      jumpi\n      mload(0x40)\n      0x08c379a000000000000000000000000000000000000000000000000000000000\n      dup2\n      mstore\n      0x04\n      add\n      tag_81\n      swap1\n      tag_82\n      jump\t// in\n    tag_81:\n      mload(0x40)\n      dup1\n      swap2\n      sub\n      swap1\n      revert\n    tag_80:\n        /* \"nft-staking-with-infinite-rewards/nft-staking-with-infinite-rewards.sol\":4722:4734  stakedTokens */\n      0x04\n        /* \"nft-staking-with-infinite-rewards/nft-staking-with-infinite-rewards.sol\":4722:4743  stakedTokens[tokenId] */\n      0x00\n        /* \"nft-staking-with-infinite-rewards/nft-staking-with-infinite-rewards.sol\":4735:4742  tokenId */\n      dup4\n        /* \"nft-staking-with-infinite-rewards/nft-staking-with-infinite-rewards.sol\":4722:4743  stakedTokens[tokenId] */\n      dup2\n      mstore\n      0x20\n      add\n      swap1\n      dup2\n      mstore\n      0x20\n      add\n      0x00\n      keccak256\n      0x00\n        /* \"nft-staking-with-infinite-rewards/nft-staking-with-infinite-rewards.sol\":4715:4743  delete stakedTokens[tokenId] */\n      0x0100\n      exp\n      dup2\n      sload\n      swap1\n      0xffffffffffffffffffffffffffffffffffffffff\n      mul\n      not\n      and\n      swap1\n      sstore\n        /* \"nft-staking-with-infinite-rewards/nft-staking-with-infinite-rewards.sol\":4754:4763  balanceOf */\n      0x05\n        /* \"nft-staking-with-infinite-rewards/nft-staking-with-infinite-rewards.sol\":4754:4777  balanceOf[_msgSender()] */\n      0x00\n        /* \"nft-staking-with-infinite-rewards/nft-staking-with-infinite-rewards.sol\":4764:4776  _msgSender() */\n      tag_83\n        /* \"nft-staking-with-infinite-rewards/nft-staking-with-infinite-rewards.sol\":4764:4774  _msgSender */\n      tag_75\n        /* \"nft-staking-with-infinite-rewards/nft-staking-with-infinite-rewards.sol\":4764:4776  _msgSender() */\n      jump\t// in\n    tag_83:\n        /* \"nft-staking-with-infinite-rewards/nft-staking-with-infinite-rewards.sol\":4754:4777  balanceOf[_msgSender()] */\n      0xffffffffffffffffffffffffffffffffffffffff\n      and\n      0xffffffffffffffffffffffffffffffffffffffff\n      and\n      dup2\n      mstore\n      0x20\n      add\n      swap1\n      dup2\n      mstore\n      0x20\n      add\n      0x00\n      keccak256\n      0x00\n        /* \"nft-staking-with-infinite-rewards/nft-staking-with-infinite-rewards.sol\":4754:4779  balanceOf[_msgSender()]-- */\n      dup2\n      sload\n      dup1\n      swap3\n      swap2\n      swap1\n      tag_84\n      swap1\n      tag_85\n      jump\t// in\n    tag_84:\n      swap2\n      swap1\n      pop\n      sstore\n      pop\n        /* \"nft-staking-with-infinite-rewards/nft-staking-with-infinite-rewards.sol\":4790:4793  nft */\n      0x00\n      0x00\n      swap1\n      sload\n      swap1\n      0x0100\n      exp\n      swap1\n      div\n      0xffffffffffffffffffffffffffffffffffffffff\n      and\n        /* \"nft-staking-with-infinite-rewards/nft-staking-with-infinite-rewards.sol\":4790:4806  nft.transferFrom */\n      0xffffffffffffffffffffffffffffffffffffffff\n      and\n      0x23b872dd\n        /* \"nft-staking-with-infinite-rewards/nft-staking-with-infinite-rewards.sol\":4815:4819  this */\n      address\n        /* \"nft-staking-with-infinite-rewards/nft-staking-with-infinite-rewards.sol\":4822:4834  _msgSender() */\n      tag_86\n        /* \"nft-staking-with-infinite-rewards/nft-staking-with-infinite-rewards.sol\":4822:4832  _msgSender */\n      tag_75\n        /* \"nft-staking-with-infinite-rewards/nft-staking-with-infinite-rewards.sol\":4822:4834  _msgSender() */\n      jump\t// in\n    tag_86:\n        /* \"nft-staking-with-infinite-rewards/nft-staking-with-infinite-rewards.sol\":4836:4843  tokenId */\n      dup6\n        /* \"nft-staking-with-infinite-rewards/nft-staking-with-infinite-rewards.sol\":4790:4844  nft.transferFrom(address(this), _msgSender(), tokenId) */\n      mload(0x40)\n      dup5\n      0xffffffff\n      and\n      0xe0\n      shl\n      dup2\n      mstore\n      0x04\n      add\n      tag_87\n      swap4\n      swap3\n      swap2\n      swap1\n      tag_88\n      jump\t// in\n    tag_87:\n      0x00\n      mload(0x40)\n      dup1\n      dup4\n      sub\n      dup2\n      0x00\n      dup8\n      dup1\n      extcodesize\n      iszero\n      dup1\n      iszero\n      tag_89\n      jumpi\n      revert(0x00, 0x00)\n    tag_89:\n      pop\n      gas\n      call\n      iszero\n      dup1\n      iszero\n      tag_91\n      jumpi\n      returndatacopy(0x00, 0x00, returndatasize)\n      revert(0x00, returndatasize)\n    tag_91:\n      pop\n      pop\n      pop\n      pop\n        /* \"nft-staking-with-infinite-rewards/nft-staking-with-infinite-rewards.sol\":4558:4852  function withdraw(uint256 tokenId) external update(_msgSender()) {... */\n      pop\n      pop\n      jump\t// out\n        /* \"nft-staking-with-infinite-rewards/nft-staking-with-infinite-rewards.sol\":2645:2663  IERC721 public nft */\n    tag_39:\n      0x00\n      0x00\n      swap1\n      sload\n      swap1\n      0x0100\n      exp\n      swap1\n      div\n      0xffffffffffffffffffffffffffffffffffffffff\n      and\n      dup2\n      jump\t// out\n        /* \"nft-staking-with-infinite-rewards/nft-staking-with-infinite-rewards.sol\":2865:2909  mapping(address => uint256) public balanceOf */\n    tag_44:\n      mstore(0x20, 0x05)\n      dup1\n      0x00\n      mstore\n      keccak256(0x00, 0x40)\n      0x00\n      swap2\n      pop\n      swap1\n      pop\n      sload\n      dup2\n      jump\t// out\n        /* \"nft-staking-with-infinite-rewards/nft-staking-with-infinite-rewards.sol\":4326:4444  function stake(uint256 tokenId) external {... */\n    tag_48:\n        /* \"nft-staking-with-infinite-rewards/nft-staking-with-infinite-rewards.sol\":4378:4381  nft */\n      0x00\n      0x00\n      swap1\n      sload\n      swap1\n      0x0100\n      exp\n      swap1\n      div\n      0xffffffffffffffffffffffffffffffffffffffff\n      and\n        /* \"nft-staking-with-infinite-rewards/nft-staking-with-infinite-rewards.sol\":4378:4398  nft.safeTransferFrom */\n      0xffffffffffffffffffffffffffffffffffffffff\n      and\n      0x42842e0e\n        /* \"nft-staking-with-infinite-rewards/nft-staking-with-infinite-rewards.sol\":4399:4411  _msgSender() */\n      tag_93\n        /* \"nft-staking-with-infinite-rewards/nft-staking-with-infinite-rewards.sol\":4399:4409  _msgSender */\n      tag_75\n        /* \"nft-staking-with-infinite-rewards/nft-staking-with-infinite-rewards.sol\":4399:4411  _msgSender() */\n      jump\t// in\n    tag_93:\n        /* \"nft-staking-with-infinite-rewards/nft-staking-with-infinite-rewards.sol\":4421:4425  this */\n      address\n        /* \"nft-staking-with-infinite-rewards/nft-staking-with-infinite-rewards.sol\":4428:4435  tokenId */\n      dup5\n        /* \"nft-staking-with-infinite-rewards/nft-staking-with-infinite-rewards.sol\":4378:4436  nft.safeTransferFrom(_msgSender(), address(this), tokenId) */\n      mload(0x40)\n      dup5\n      0xffffffff\n      and\n      0xe0\n      shl\n      dup2\n      mstore\n      0x04\n      add\n      tag_94\n      swap4\n      swap3\n      swap2\n      swap1\n      tag_88\n      jump\t// in\n    tag_94:\n      0x00\n      mload(0x40)\n      dup1\n      dup4\n      sub\n      dup2\n      0x00\n      dup8\n      dup1\n      extcodesize\n      iszero\n      dup1\n      iszero\n      tag_95\n      jumpi\n      revert(0x00, 0x00)\n    tag_95:\n      pop\n      gas\n      call\n      iszero\n      dup1\n      iszero\n      tag_97\n      jumpi\n      returndatacopy(0x00, 0x00, returndatasize)\n      revert(0x00, returndatasize)\n    tag_97:\n      pop\n      pop\n      pop\n      pop\n        /* \"nft-staking-with-infinite-rewards/nft-staking-with-infinite-rewards.sol\":4326:4444  function stake(uint256 tokenId) external {... */\n      pop\n      jump\t// out\n        /* \"nft-staking-with-infinite-rewards/nft-staking-with-infinite-rewards.sol\":4930:5191  function redeem() external update(_msgSender()) {... */\n    tag_50:\n        /* \"nft-staking-with-infinite-rewards/nft-staking-with-infinite-rewards.sol\":4964:4976  _msgSender() */\n      tag_98\n        /* \"nft-staking-with-infinite-rewards/nft-staking-with-infinite-rewards.sol\":4964:4974  _msgSender */\n      tag_75\n        /* \"nft-staking-with-infinite-rewards/nft-staking-with-infinite-rewards.sol\":4964:4976  _msgSender() */\n      jump\t// in\n    tag_98:\n        /* \"nft-staking-with-infinite-rewards/nft-staking-with-infinite-rewards.sol\":3700:3718  available(account) */\n      tag_100\n        /* \"nft-staking-with-infinite-rewards/nft-staking-with-infinite-rewards.sol\":3710:3717  account */\n      dup2\n        /* \"nft-staking-with-infinite-rewards/nft-staking-with-infinite-rewards.sol\":3700:3709  available */\n      tag_18\n        /* \"nft-staking-with-infinite-rewards/nft-staking-with-infinite-rewards.sol\":3700:3718  available(account) */\n      jump\t// in\n    tag_100:\n        /* \"nft-staking-with-infinite-rewards/nft-staking-with-infinite-rewards.sol\":3682:3688  reward */\n      0x07\n        /* \"nft-staking-with-infinite-rewards/nft-staking-with-infinite-rewards.sol\":3682:3697  reward[account] */\n      0x00\n        /* \"nft-staking-with-infinite-rewards/nft-staking-with-infinite-rewards.sol\":3689:3696  account */\n      dup4\n        /* \"nft-staking-with-infinite-rewards/nft-staking-with-infinite-rewards.sol\":3682:3697  reward[account] */\n      0xffffffffffffffffffffffffffffffffffffffff\n      and\n      0xffffffffffffffffffffffffffffffffffffffff\n      and\n      dup2\n      mstore\n      0x20\n      add\n      swap1\n      dup2\n      mstore\n      0x20\n      add\n      0x00\n      keccak256\n        /* \"nft-staking-with-infinite-rewards/nft-staking-with-infinite-rewards.sol\":3682:3718  reward[account] = available(account) */\n      dup2\n      swap1\n      sstore\n      pop\n        /* \"nft-staking-with-infinite-rewards/nft-staking-with-infinite-rewards.sol\":3755:3770  block.timestamp */\n      timestamp\n        /* \"nft-staking-with-infinite-rewards/nft-staking-with-infinite-rewards.sol\":3729:3743  lastUpdateTime */\n      0x06\n        /* \"nft-staking-with-infinite-rewards/nft-staking-with-infinite-rewards.sol\":3729:3752  lastUpdateTime[account] */\n      0x00\n        /* \"nft-staking-with-infinite-rewards/nft-staking-with-infinite-rewards.sol\":3744:3751  account */\n      dup4\n        /* \"nft-staking-with-infinite-rewards/nft-staking-with-infinite-rewards.sol\":3729:3752  lastUpdateTime[account] */\n      0xffffffffffffffffffffffffffffffffffffffff\n      and\n      0xffffffffffffffffffffffffffffffffffffffff\n      and\n      dup2\n      mstore\n      0x20\n      add\n      swap1\n      dup2\n      mstore\n      0x20\n      add\n      0x00\n      keccak256\n        /* \"nft-staking-with-infinite-rewards/nft-staking-with-infinite-rewards.sol\":3729:3770  lastUpdateTime[account] = block.timestamp */\n      dup2\n      swap1\n      sstore\n      pop\n        /* \"nft-staking-with-infinite-rewards/nft-staking-with-infinite-rewards.sol\":4989:5003  uint256 amount */\n      0x00\n        /* \"nft-staking-with-infinite-rewards/nft-staking-with-infinite-rewards.sol\":5006:5012  reward */\n      0x07\n        /* \"nft-staking-with-infinite-rewards/nft-staking-with-infinite-rewards.sol\":5006:5026  reward[_msgSender()] */\n      0x00\n        /* \"nft-staking-with-infinite-rewards/nft-staking-with-infinite-rewards.sol\":5013:5025  _msgSender() */\n      tag_102\n        /* \"nft-staking-with-infinite-rewards/nft-staking-with-infinite-rewards.sol\":5013:5023  _msgSender */\n      tag_75\n        /* \"nft-staking-with-infinite-rewards/nft-staking-with-infinite-rewards.sol\":5013:5025  _msgSender() */\n      jump\t// in\n    tag_102:\n        /* \"nft-staking-with-infinite-rewards/nft-staking-with-infinite-rewards.sol\":5006:5026  reward[_msgSender()] */\n      0xffffffffffffffffffffffffffffffffffffffff\n      and\n      0xffffffffffffffffffffffffffffffffffffffff\n      and\n      dup2\n      mstore\n      0x20\n      add\n      swap1\n      dup2\n      mstore\n      0x20\n      add\n      0x00\n      keccak256\n      sload\n        /* \"nft-staking-with-infinite-rewards/nft-staking-with-infinite-rewards.sol\":4989:5026  uint256 amount = reward[_msgSender()] */\n      swap1\n      pop\n        /* \"nft-staking-with-infinite-rewards/nft-staking-with-infinite-rewards.sol\":5054:5055  0 */\n      0x00\n        /* \"nft-staking-with-infinite-rewards/nft-staking-with-infinite-rewards.sol\":5045:5051  amount */\n      dup2\n        /* \"nft-staking-with-infinite-rewards/nft-staking-with-infinite-rewards.sol\":5045:5055  amount > 0 */\n      gt\n        /* \"nft-staking-with-infinite-rewards/nft-staking-with-infinite-rewards.sol\":5037:5077  require(amount > 0, \"Nothing to redeem\") */\n      tag_103\n      jumpi\n      mload(0x40)\n      0x08c379a000000000000000000000000000000000000000000000000000000000\n      dup2\n      mstore\n      0x04\n      add\n      tag_104\n      swap1\n      tag_105\n      jump\t// in\n    tag_104:\n      mload(0x40)\n      dup1\n      swap2\n      sub\n      swap1\n      revert\n    tag_103:\n        /* \"nft-staking-with-infinite-rewards/nft-staking-with-infinite-rewards.sol\":5111:5112  0 */\n      0x00\n        /* \"nft-staking-with-infinite-rewards/nft-staking-with-infinite-rewards.sol\":5088:5094  reward */\n      0x07\n        /* \"nft-staking-with-infinite-rewards/nft-staking-with-infinite-rewards.sol\":5088:5108  reward[_msgSender()] */\n      0x00\n        /* \"nft-staking-with-infinite-rewards/nft-staking-with-infinite-rewards.sol\":5095:5107  _msgSender() */\n      tag_106\n        /* \"nft-staking-with-infinite-rewards/nft-staking-with-infinite-rewards.sol\":5095:5105  _msgSender */\n      tag_75\n        /* \"nft-staking-with-infinite-rewards/nft-staking-with-infinite-rewards.sol\":5095:5107  _msgSender() */\n      jump\t// in\n    tag_106:\n        /* \"nft-staking-with-infinite-rewards/nft-staking-with-infinite-rewards.sol\":5088:5108  reward[_msgSender()] */\n      0xffffffffffffffffffffffffffffffffffffffff\n      and\n      0xffffffffffffffffffffffffffffffffffffffff\n      and\n      dup2\n      mstore\n      0x20\n      add\n      swap1\n      dup2\n      mstore\n      0x20\n      add\n      0x00\n      keccak256\n        /* \"nft-staking-with-infinite-rewards/nft-staking-with-infinite-rewards.sol\":5088:5112  reward[_msgSender()] = 0 */\n      dup2\n      swap1\n      sstore\n      pop\n        /* \"nft-staking-with-infinite-rewards/nft-staking-with-infinite-rewards.sol\":5123:5134  rewardToken */\n      0x01\n      0x00\n      swap1\n      sload\n      swap1\n      0x0100\n      exp\n      swap1\n      div\n      0xffffffffffffffffffffffffffffffffffffffff\n      and\n        /* \"nft-staking-with-infinite-rewards/nft-staking-with-infinite-rewards.sol\":5123:5147  rewardToken.transferFrom */\n      0xffffffffffffffffffffffffffffffffffffffff\n      and\n      0x23b872dd\n        /* \"nft-staking-with-infinite-rewards/nft-staking-with-infinite-rewards.sol\":5148:5160  rewardWallet */\n      0x02\n      0x00\n      swap1\n      sload\n      swap1\n      0x0100\n      exp\n      swap1\n      div\n      0xffffffffffffffffffffffffffffffffffffffff\n      and\n        /* \"nft-staking-with-infinite-rewards/nft-staking-with-infinite-rewards.sol\":5162:5174  _msgSender() */\n      tag_107\n        /* \"nft-staking-with-infinite-rewards/nft-staking-with-infinite-rewards.sol\":5162:5172  _msgSender */\n      tag_75\n        /* \"nft-staking-with-infinite-rewards/nft-staking-with-infinite-rewards.sol\":5162:5174  _msgSender() */\n      jump\t// in\n    tag_107:\n        /* \"nft-staking-with-infinite-rewards/nft-staking-with-infinite-rewards.sol\":5176:5182  amount */\n      dup5\n        /* \"nft-staking-with-infinite-rewards/nft-staking-with-infinite-rewards.sol\":5123:5183  rewardToken.transferFrom(rewardWallet, _msgSender(), amount) */\n      mload(0x40)\n      dup5\n      0xffffffff\n      and\n      0xe0\n      shl\n      dup2\n      mstore\n      0x04\n      add\n      tag_108\n      swap4\n      swap3\n      swap2\n      swap1\n      tag_88\n      jump\t// in\n    tag_108:\n      0x20\n      mload(0x40)\n      dup1\n      dup4\n      sub\n      dup2\n      0x00\n      dup8\n      gas\n      call\n      iszero\n      dup1\n      iszero\n      tag_110\n      jumpi\n      returndatacopy(0x00, 0x00, returndatasize)\n      revert(0x00, returndatasize)\n    tag_110:\n      pop\n      pop\n      pop\n      pop\n      mload(0x40)\n      returndatasize\n      not(0x1f)\n      0x1f\n      dup3\n      add\n      and\n      dup3\n      add\n      dup1\n      0x40\n      mstore\n      pop\n      dup2\n      add\n      swap1\n      tag_111\n      swap2\n      swap1\n      tag_112\n      jump\t// in\n    tag_111:\n      pop\n        /* \"nft-staking-with-infinite-rewards/nft-staking-with-infinite-rewards.sol\":4978:5191  {... */\n      pop\n        /* \"nft-staking-with-infinite-rewards/nft-staking-with-infinite-rewards.sol\":4930:5191  function redeem() external update(_msgSender()) {... */\n      pop\n      jump\t// out\n        /* \"nft-staking-with-infinite-rewards/nft-staking-with-infinite-rewards.sol\":2670:2695  IERC20 public rewardToken */\n    tag_52:\n      0x01\n      0x00\n      swap1\n      sload\n      swap1\n      0x0100\n      exp\n      swap1\n      div\n      0xffffffffffffffffffffffffffffffffffffffff\n      and\n      dup2\n      jump\t// out\n        /* \"nft-staking-with-infinite-rewards/nft-staking-with-infinite-rewards.sol\":2702:2729  address public rewardWallet */\n    tag_56:\n      0x02\n      0x00\n      swap1\n      sload\n      swap1\n      0x0100\n      exp\n      swap1\n      div\n      0xffffffffffffffffffffffffffffffffffffffff\n      and\n      dup2\n      jump\t// out\n        /* \"nft-staking-with-infinite-rewards/@openzeppelin/contracts/utils/Context.sol\":1934:2030  function _msgSender() internal view virtual returns (address) {... */\n    tag_75:\n        /* \"nft-staking-with-infinite-rewards/@openzeppelin/contracts/utils/Context.sol\":1987:1994  address */\n      0x00\n        /* \"nft-staking-with-infinite-rewards/@openzeppelin/contracts/utils/Context.sol\":2013:2023  msg.sender */\n      caller\n        /* \"nft-staking-with-infinite-rewards/@openzeppelin/contracts/utils/Context.sol\":2006:2023  return msg.sender */\n      swap1\n      pop\n        /* \"nft-staking-with-infinite-rewards/@openzeppelin/contracts/utils/Context.sol\":1934:2030  function _msgSender() internal view virtual returns (address) {... */\n      swap1\n      jump\t// out\n        /* \"#utility.yul\":88:205   */\n    tag_115:\n        /* \"#utility.yul\":197:198   */\n      0x00\n        /* \"#utility.yul\":194:195   */\n      0x00\n        /* \"#utility.yul\":187:199   */\n      revert\n        /* \"#utility.yul\":211:328   */\n    tag_116:\n        /* \"#utility.yul\":320:321   */\n      0x00\n        /* \"#utility.yul\":317:318   */\n      0x00\n        /* \"#utility.yul\":310:322   */\n      revert\n        /* \"#utility.yul\":334:460   */\n    tag_117:\n        /* \"#utility.yul\":371:378   */\n      0x00\n        /* \"#utility.yul\":411:453   */\n      0xffffffffffffffffffffffffffffffffffffffff\n        /* \"#utility.yul\":404:409   */\n      dup3\n        /* \"#utility.yul\":400:454   */\n      and\n        /* \"#utility.yul\":389:454   */\n      swap1\n      pop\n        /* \"#utility.yul\":334:460   */\n      swap2\n      swap1\n      pop\n      jump\t// out\n        /* \"#utility.yul\":466:562   */\n    tag_118:\n        /* \"#utility.yul\":503:510   */\n      0x00\n        /* \"#utility.yul\":532:556   */\n      tag_155\n        /* \"#utility.yul\":550:555   */\n      dup3\n        /* \"#utility.yul\":532:556   */\n      tag_117\n      jump\t// in\n    tag_155:\n        /* \"#utility.yul\":521:556   */\n      swap1\n      pop\n        /* \"#utility.yul\":466:562   */\n      swap2\n      swap1\n      pop\n      jump\t// out\n        /* \"#utility.yul\":568:690   */\n    tag_119:\n        /* \"#utility.yul\":641:665   */\n      tag_157\n        /* \"#utility.yul\":659:664   */\n      dup2\n        /* \"#utility.yul\":641:665   */\n      tag_118\n      jump\t// in\n    tag_157:\n        /* \"#utility.yul\":634:639   */\n      dup2\n        /* \"#utility.yul\":631:666   */\n      eq\n        /* \"#utility.yul\":621:684   */\n      tag_158\n      jumpi\n        /* \"#utility.yul\":680:681   */\n      0x00\n        /* \"#utility.yul\":677:678   */\n      0x00\n        /* \"#utility.yul\":670:682   */\n      revert\n        /* \"#utility.yul\":621:684   */\n    tag_158:\n        /* \"#utility.yul\":568:690   */\n      pop\n      jump\t// out\n        /* \"#utility.yul\":696:835   */\n    tag_120:\n        /* \"#utility.yul\":742:747   */\n      0x00\n        /* \"#utility.yul\":780:786   */\n      dup2\n        /* \"#utility.yul\":767:787   */\n      calldataload\n        /* \"#utility.yul\":758:787   */\n      swap1\n      pop\n        /* \"#utility.yul\":796:829   */\n      tag_160\n        /* \"#utility.yul\":823:828   */\n      dup2\n        /* \"#utility.yul\":796:829   */\n      tag_119\n      jump\t// in\n    tag_160:\n        /* \"#utility.yul\":696:835   */\n      swap3\n      swap2\n      pop\n      pop\n      jump\t// out\n        /* \"#utility.yul\":841:1170   */\n    tag_17:\n        /* \"#utility.yul\":900:906   */\n      0x00\n        /* \"#utility.yul\":949:951   */\n      0x20\n        /* \"#utility.yul\":937:946   */\n      dup3\n        /* \"#utility.yul\":928:935   */\n      dup5\n        /* \"#utility.yul\":924:947   */\n      sub\n        /* \"#utility.yul\":920:952   */\n      slt\n        /* \"#utility.yul\":917:1036   */\n      iszero\n      tag_162\n      jumpi\n        /* \"#utility.yul\":955:1034   */\n      tag_163\n      tag_115\n      jump\t// in\n    tag_163:\n        /* \"#utility.yul\":917:1036   */\n    tag_162:\n        /* \"#utility.yul\":1075:1076   */\n      0x00\n        /* \"#utility.yul\":1100:1153   */\n      tag_164\n        /* \"#utility.yul\":1145:1152   */\n      dup5\n        /* \"#utility.yul\":1136:1142   */\n      dup3\n        /* \"#utility.yul\":1125:1134   */\n      dup6\n        /* \"#utility.yul\":1121:1143   */\n      add\n        /* \"#utility.yul\":1100:1153   */\n      tag_120\n      jump\t// in\n    tag_164:\n        /* \"#utility.yul\":1090:1153   */\n      swap2\n      pop\n        /* \"#utility.yul\":1046:1163   */\n      pop\n        /* \"#utility.yul\":841:1170   */\n      swap3\n      swap2\n      pop\n      pop\n      jump\t// out\n        /* \"#utility.yul\":1176:1253   */\n    tag_121:\n        /* \"#utility.yul\":1213:1220   */\n      0x00\n        /* \"#utility.yul\":1242:1247   */\n      dup2\n        /* \"#utility.yul\":1231:1247   */\n      swap1\n      pop\n        /* \"#utility.yul\":1176:1253   */\n      swap2\n      swap1\n      pop\n      jump\t// out\n        /* \"#utility.yul\":1259:1377   */\n    tag_122:\n        /* \"#utility.yul\":1346:1370   */\n      tag_167\n        /* \"#utility.yul\":1364:1369   */\n      dup2\n        /* \"#utility.yul\":1346:1370   */\n      tag_121\n      jump\t// in\n    tag_167:\n        /* \"#utility.yul\":1341:1344   */\n      dup3\n        /* \"#utility.yul\":1334:1371   */\n      mstore\n        /* \"#utility.yul\":1259:1377   */\n      pop\n      pop\n      jump\t// out\n        /* \"#utility.yul\":1383:1605   */\n    tag_20:\n        /* \"#utility.yul\":1476:1480   */\n      0x00\n        /* \"#utility.yul\":1514:1516   */\n      0x20\n        /* \"#utility.yul\":1503:1512   */\n      dup3\n        /* \"#utility.yul\":1499:1517   */\n      add\n        /* \"#utility.yul\":1491:1517   */\n      swap1\n      pop\n        /* \"#utility.yul\":1527:1598   */\n      tag_169\n        /* \"#utility.yul\":1595:1596   */\n      0x00\n        /* \"#utility.yul\":1584:1593   */\n      dup4\n        /* \"#utility.yul\":1580:1597   */\n      add\n        /* \"#utility.yul\":1571:1577   */\n      dup5\n        /* \"#utility.yul\":1527:1598   */\n      tag_122\n      jump\t// in\n    tag_169:\n        /* \"#utility.yul\":1383:1605   */\n      swap3\n      swap2\n      pop\n      pop\n      jump\t// out\n        /* \"#utility.yul\":1611:1733   */\n    tag_123:\n        /* \"#utility.yul\":1684:1708   */\n      tag_171\n        /* \"#utility.yul\":1702:1707   */\n      dup2\n        /* \"#utility.yul\":1684:1708   */\n      tag_121\n      jump\t// in\n    tag_171:\n        /* \"#utility.yul\":1677:1682   */\n      dup2\n        /* \"#utility.yul\":1674:1709   */\n      eq\n        /* \"#utility.yul\":1664:1727   */\n      tag_172\n      jumpi\n        /* \"#utility.yul\":1723:1724   */\n      0x00\n        /* \"#utility.yul\":1720:1721   */\n      0x00\n        /* \"#utility.yul\":1713:1725   */\n      revert\n        /* \"#utility.yul\":1664:1727   */\n    tag_172:\n        /* \"#utility.yul\":1611:1733   */\n      pop\n      jump\t// out\n        /* \"#utility.yul\":1739:1878   */\n    tag_124:\n        /* \"#utility.yul\":1785:1790   */\n      0x00\n        /* \"#utility.yul\":1823:1829   */\n      dup2\n        /* \"#utility.yul\":1810:1830   */\n      calldataload\n        /* \"#utility.yul\":1801:1830   */\n      swap1\n      pop\n        /* \"#utility.yul\":1839:1872   */\n      tag_174\n        /* \"#utility.yul\":1866:1871   */\n      dup2\n        /* \"#utility.yul\":1839:1872   */\n      tag_123\n      jump\t// in\n    tag_174:\n        /* \"#utility.yul\":1739:1878   */\n      swap3\n      swap2\n      pop\n      pop\n      jump\t// out\n        /* \"#utility.yul\":1884:2001   */\n    tag_125:\n        /* \"#utility.yul\":1993:1994   */\n      0x00\n        /* \"#utility.yul\":1990:1991   */\n      0x00\n        /* \"#utility.yul\":1983:1995   */\n      revert\n        /* \"#utility.yul\":2007:2124   */\n    tag_126:\n        /* \"#utility.yul\":2116:2117   */\n      0x00\n        /* \"#utility.yul\":2113:2114   */\n      0x00\n        /* \"#utility.yul\":2106:2118   */\n      revert\n        /* \"#utility.yul\":2130:2247   */\n    tag_127:\n        /* \"#utility.yul\":2239:2240   */\n      0x00\n        /* \"#utility.yul\":2236:2237   */\n      0x00\n        /* \"#utility.yul\":2229:2241   */\n      revert\n        /* \"#utility.yul\":2266:2818   */\n    tag_128:\n        /* \"#utility.yul\":2323:2331   */\n      0x00\n        /* \"#utility.yul\":2333:2339   */\n      0x00\n        /* \"#utility.yul\":2383:2386   */\n      dup4\n        /* \"#utility.yul\":2376:2380   */\n      0x1f\n        /* \"#utility.yul\":2368:2374   */\n      dup5\n        /* \"#utility.yul\":2364:2381   */\n      add\n        /* \"#utility.yul\":2360:2387   */\n      slt\n        /* \"#utility.yul\":2350:2472   */\n      tag_179\n      jumpi\n        /* \"#utility.yul\":2391:2470   */\n      tag_180\n      tag_125\n      jump\t// in\n    tag_180:\n        /* \"#utility.yul\":2350:2472   */\n    tag_179:\n        /* \"#utility.yul\":2504:2510   */\n      dup3\n        /* \"#utility.yul\":2491:2511   */\n      calldataload\n        /* \"#utility.yul\":2481:2511   */\n      swap1\n      pop\n        /* \"#utility.yul\":2534:2552   */\n      0xffffffffffffffff\n        /* \"#utility.yul\":2526:2532   */\n      dup2\n        /* \"#utility.yul\":2523:2553   */\n      gt\n        /* \"#utility.yul\":2520:2637   */\n      iszero\n      tag_181\n      jumpi\n        /* \"#utility.yul\":2556:2635   */\n      tag_182\n      tag_126\n      jump\t// in\n    tag_182:\n        /* \"#utility.yul\":2520:2637   */\n    tag_181:\n        /* \"#utility.yul\":2670:2674   */\n      0x20\n        /* \"#utility.yul\":2662:2668   */\n      dup4\n        /* \"#utility.yul\":2658:2675   */\n      add\n        /* \"#utility.yul\":2646:2675   */\n      swap2\n      pop\n        /* \"#utility.yul\":2724:2727   */\n      dup4\n        /* \"#utility.yul\":2716:2720   */\n      0x01\n        /* \"#utility.yul\":2708:2714   */\n      dup3\n        /* \"#utility.yul\":2704:2721   */\n      mul\n        /* \"#utility.yul\":2694:2702   */\n      dup4\n        /* \"#utility.yul\":2690:2722   */\n      add\n        /* \"#utility.yul\":2687:2728   */\n      gt\n        /* \"#utility.yul\":2684:2812   */\n      iszero\n      tag_183\n      jumpi\n        /* \"#utility.yul\":2731:2810   */\n      tag_184\n      tag_127\n      jump\t// in\n    tag_184:\n        /* \"#utility.yul\":2684:2812   */\n    tag_183:\n        /* \"#utility.yul\":2266:2818   */\n      swap3\n      pop\n      swap3\n      swap1\n      pop\n      jump\t// out\n        /* \"#utility.yul\":2824:3787   */\n    tag_23:\n        /* \"#utility.yul\":2921:2927   */\n      0x00\n        /* \"#utility.yul\":2929:2935   */\n      0x00\n        /* \"#utility.yul\":2937:2943   */\n      0x00\n        /* \"#utility.yul\":2945:2951   */\n      0x00\n        /* \"#utility.yul\":2953:2959   */\n      0x00\n        /* \"#utility.yul\":3002:3005   */\n      0x80\n        /* \"#utility.yul\":2990:2999   */\n      dup7\n        /* \"#utility.yul\":2981:2988   */\n      dup9\n        /* \"#utility.yul\":2977:3000   */\n      sub\n        /* \"#utility.yul\":2973:3006   */\n      slt\n        /* \"#utility.yul\":2970:3090   */\n      iszero\n      tag_186\n      jumpi\n        /* \"#utility.yul\":3009:3088   */\n      tag_187\n      tag_115\n      jump\t// in\n    tag_187:\n        /* \"#utility.yul\":2970:3090   */\n    tag_186:\n        /* \"#utility.yul\":3129:3130   */\n      0x00\n        /* \"#utility.yul\":3154:3207   */\n      tag_188\n        /* \"#utility.yul\":3199:3206   */\n      dup9\n        /* \"#utility.yul\":3190:3196   */\n      dup3\n        /* \"#utility.yul\":3179:3188   */\n      dup10\n        /* \"#utility.yul\":3175:3197   */\n      add\n        /* \"#utility.yul\":3154:3207   */\n      tag_120\n      jump\t// in\n    tag_188:\n        /* \"#utility.yul\":3144:3207   */\n      swap6\n      pop\n        /* \"#utility.yul\":3100:3217   */\n      pop\n        /* \"#utility.yul\":3256:3258   */\n      0x20\n        /* \"#utility.yul\":3282:3335   */\n      tag_189\n        /* \"#utility.yul\":3327:3334   */\n      dup9\n        /* \"#utility.yul\":3318:3324   */\n      dup3\n        /* \"#utility.yul\":3307:3316   */\n      dup10\n        /* \"#utility.yul\":3303:3325   */\n      add\n        /* \"#utility.yul\":3282:3335   */\n      tag_120\n      jump\t// in\n    tag_189:\n        /* \"#utility.yul\":3272:3335   */\n      swap5\n      pop\n        /* \"#utility.yul\":3227:3345   */\n      pop\n        /* \"#utility.yul\":3384:3386   */\n      0x40\n        /* \"#utility.yul\":3410:3463   */\n      tag_190\n        /* \"#utility.yul\":3455:3462   */\n      dup9\n        /* \"#utility.yul\":3446:3452   */\n      dup3\n        /* \"#utility.yul\":3435:3444   */\n      dup10\n        /* \"#utility.yul\":3431:3453   */\n      add\n        /* \"#utility.yul\":3410:3463   */\n      tag_124\n      jump\t// in\n    tag_190:\n        /* \"#utility.yul\":3400:3463   */\n      swap4\n      pop\n        /* \"#utility.yul\":3355:3473   */\n      pop\n        /* \"#utility.yul\":3540:3542   */\n      0x60\n        /* \"#utility.yul\":3529:3538   */\n      dup7\n        /* \"#utility.yul\":3525:3543   */\n      add\n        /* \"#utility.yul\":3512:3544   */\n      calldataload\n        /* \"#utility.yul\":3571:3589   */\n      0xffffffffffffffff\n        /* \"#utility.yul\":3563:3569   */\n      dup2\n        /* \"#utility.yul\":3560:3590   */\n      gt\n        /* \"#utility.yul\":3557:3674   */\n      iszero\n      tag_191\n      jumpi\n        /* \"#utility.yul\":3593:3672   */\n      tag_192\n      tag_116\n      jump\t// in\n    tag_192:\n        /* \"#utility.yul\":3557:3674   */\n    tag_191:\n        /* \"#utility.yul\":3706:3770   */\n      tag_193\n        /* \"#utility.yul\":3762:3769   */\n      dup9\n        /* \"#utility.yul\":3753:3759   */\n      dup3\n        /* \"#utility.yul\":3742:3751   */\n      dup10\n        /* \"#utility.yul\":3738:3760   */\n      add\n        /* \"#utility.yul\":3706:3770   */\n      tag_128\n      jump\t// in\n    tag_193:\n        /* \"#utility.yul\":3688:3770   */\n      swap3\n      pop\n      swap3\n      pop\n        /* \"#utility.yul\":3483:3780   */\n      pop\n        /* \"#utility.yul\":2824:3787   */\n      swap3\n      swap6\n      pop\n      swap3\n      swap6\n      swap1\n      swap4\n      pop\n      jump\t// out\n        /* \"#utility.yul\":3793:3942   */\n    tag_129:\n        /* \"#utility.yul\":3829:3836   */\n      0x00\n        /* \"#utility.yul\":3869:3935   */\n      0xffffffff00000000000000000000000000000000000000000000000000000000\n        /* \"#utility.yul\":3862:3867   */\n      dup3\n        /* \"#utility.yul\":3858:3936   */\n      and\n        /* \"#utility.yul\":3847:3936   */\n      swap1\n      pop\n        /* \"#utility.yul\":3793:3942   */\n      swap2\n      swap1\n      pop\n      jump\t// out\n        /* \"#utility.yul\":3948:4063   */\n    tag_130:\n        /* \"#utility.yul\":4033:4056   */\n      tag_196\n        /* \"#utility.yul\":4050:4055   */\n      dup2\n        /* \"#utility.yul\":4033:4056   */\n      tag_129\n      jump\t// in\n    tag_196:\n        /* \"#utility.yul\":4028:4031   */\n      dup3\n        /* \"#utility.yul\":4021:4057   */\n      mstore\n        /* \"#utility.yul\":3948:4063   */\n      pop\n      pop\n      jump\t// out\n        /* \"#utility.yul\":4069:4287   */\n    tag_26:\n        /* \"#utility.yul\":4160:4164   */\n      0x00\n        /* \"#utility.yul\":4198:4200   */\n      0x20\n        /* \"#utility.yul\":4187:4196   */\n      dup3\n        /* \"#utility.yul\":4183:4201   */\n      add\n        /* \"#utility.yul\":4175:4201   */\n      swap1\n      pop\n        /* \"#utility.yul\":4211:4280   */\n      tag_198\n        /* \"#utility.yul\":4277:4278   */\n      0x00\n        /* \"#utility.yul\":4266:4275   */\n      dup4\n        /* \"#utility.yul\":4262:4279   */\n      add\n        /* \"#utility.yul\":4253:4259   */\n      dup5\n        /* \"#utility.yul\":4211:4280   */\n      tag_130\n      jump\t// in\n    tag_198:\n        /* \"#utility.yul\":4069:4287   */\n      swap3\n      swap2\n      pop\n      pop\n      jump\t// out\n        /* \"#utility.yul\":4293:4622   */\n    tag_36:\n        /* \"#utility.yul\":4352:4358   */\n      0x00\n        /* \"#utility.yul\":4401:4403   */\n      0x20\n        /* \"#utility.yul\":4389:4398   */\n      dup3\n        /* \"#utility.yul\":4380:4387   */\n      dup5\n        /* \"#utility.yul\":4376:4399   */\n      sub\n        /* \"#utility.yul\":4372:4404   */\n      slt\n        /* \"#utility.yul\":4369:4488   */\n      iszero\n      tag_200\n      jumpi\n        /* \"#utility.yul\":4407:4486   */\n      tag_201\n      tag_115\n      jump\t// in\n    tag_201:\n        /* \"#utility.yul\":4369:4488   */\n    tag_200:\n        /* \"#utility.yul\":4527:4528   */\n      0x00\n        /* \"#utility.yul\":4552:4605   */\n      tag_202\n        /* \"#utility.yul\":4597:4604   */\n      dup5\n        /* \"#utility.yul\":4588:4594   */\n      dup3\n        /* \"#utility.yul\":4577:4586   */\n      dup6\n        /* \"#utility.yul\":4573:4595   */\n      add\n        /* \"#utility.yul\":4552:4605   */\n      tag_124\n      jump\t// in\n    tag_202:\n        /* \"#utility.yul\":4542:4605   */\n      swap2\n      pop\n        /* \"#utility.yul\":4498:4615   */\n      pop\n        /* \"#utility.yul\":4293:4622   */\n      swap3\n      swap2\n      pop\n      pop\n      jump\t// out\n        /* \"#utility.yul\":4628:4688   */\n    tag_131:\n        /* \"#utility.yul\":4656:4659   */\n      0x00\n        /* \"#utility.yul\":4677:4682   */\n      dup2\n        /* \"#utility.yul\":4670:4682   */\n      swap1\n      pop\n        /* \"#utility.yul\":4628:4688   */\n      swap2\n      swap1\n      pop\n      jump\t// out\n        /* \"#utility.yul\":4694:4836   */\n    tag_132:\n        /* \"#utility.yul\":4744:4753   */\n      0x00\n        /* \"#utility.yul\":4777:4830   */\n      tag_205\n        /* \"#utility.yul\":4795:4829   */\n      tag_206\n        /* \"#utility.yul\":4804:4828   */\n      tag_207\n        /* \"#utility.yul\":4822:4827   */\n      dup5\n        /* \"#utility.yul\":4804:4828   */\n      tag_117\n      jump\t// in\n    tag_207:\n        /* \"#utility.yul\":4795:4829   */\n      tag_131\n      jump\t// in\n    tag_206:\n        /* \"#utility.yul\":4777:4830   */\n      tag_117\n      jump\t// in\n    tag_205:\n        /* \"#utility.yul\":4764:4830   */\n      swap1\n      pop\n        /* \"#utility.yul\":4694:4836   */\n      swap2\n      swap1\n      pop\n      jump\t// out\n        /* \"#utility.yul\":4842:4968   */\n    tag_133:\n        /* \"#utility.yul\":4892:4901   */\n      0x00\n        /* \"#utility.yul\":4925:4962   */\n      tag_209\n        /* \"#utility.yul\":4956:4961   */\n      dup3\n        /* \"#utility.yul\":4925:4962   */\n      tag_132\n      jump\t// in\n    tag_209:\n        /* \"#utility.yul\":4912:4962   */\n      swap1\n      pop\n        /* \"#utility.yul\":4842:4968   */\n      swap2\n      swap1\n      pop\n      jump\t// out\n        /* \"#utility.yul\":4974:5115   */\n    tag_134:\n        /* \"#utility.yul\":5039:5048   */\n      0x00\n        /* \"#utility.yul\":5072:5109   */\n      tag_211\n        /* \"#utility.yul\":5103:5108   */\n      dup3\n        /* \"#utility.yul\":5072:5109   */\n      tag_133\n      jump\t// in\n    tag_211:\n        /* \"#utility.yul\":5059:5109   */\n      swap1\n      pop\n        /* \"#utility.yul\":4974:5115   */\n      swap2\n      swap1\n      pop\n      jump\t// out\n        /* \"#utility.yul\":5121:5282   */\n    tag_135:\n        /* \"#utility.yul\":5223:5275   */\n      tag_213\n        /* \"#utility.yul\":5269:5274   */\n      dup2\n        /* \"#utility.yul\":5223:5275   */\n      tag_134\n      jump\t// in\n    tag_213:\n        /* \"#utility.yul\":5218:5221   */\n      dup3\n        /* \"#utility.yul\":5211:5276   */\n      mstore\n        /* \"#utility.yul\":5121:5282   */\n      pop\n      pop\n      jump\t// out\n        /* \"#utility.yul\":5288:5540   */\n    tag_41:\n        /* \"#utility.yul\":5396:5400   */\n      0x00\n        /* \"#utility.yul\":5434:5436   */\n      0x20\n        /* \"#utility.yul\":5423:5432   */\n      dup3\n        /* \"#utility.yul\":5419:5437   */\n      add\n        /* \"#utility.yul\":5411:5437   */\n      swap1\n      pop\n        /* \"#utility.yul\":5447:5533   */\n      tag_215\n        /* \"#utility.yul\":5530:5531   */\n      0x00\n        /* \"#utility.yul\":5519:5528   */\n      dup4\n        /* \"#utility.yul\":5515:5532   */\n      add\n        /* \"#utility.yul\":5506:5512   */\n      dup5\n        /* \"#utility.yul\":5447:5533   */\n      tag_135\n      jump\t// in\n    tag_215:\n        /* \"#utility.yul\":5288:5540   */\n      swap3\n      swap2\n      pop\n      pop\n      jump\t// out\n        /* \"#utility.yul\":5546:5685   */\n    tag_136:\n        /* \"#utility.yul\":5609:5618   */\n      0x00\n        /* \"#utility.yul\":5642:5679   */\n      tag_217\n        /* \"#utility.yul\":5673:5678   */\n      dup3\n        /* \"#utility.yul\":5642:5679   */\n      tag_133\n      jump\t// in\n    tag_217:\n        /* \"#utility.yul\":5629:5679   */\n      swap1\n      pop\n        /* \"#utility.yul\":5546:5685   */\n      swap2\n      swap1\n      pop\n      jump\t// out\n        /* \"#utility.yul\":5691:5848   */\n    tag_137:\n        /* \"#utility.yul\":5791:5841   */\n      tag_219\n        /* \"#utility.yul\":5835:5840   */\n      dup2\n        /* \"#utility.yul\":5791:5841   */\n      tag_136\n      jump\t// in\n    tag_219:\n        /* \"#utility.yul\":5786:5789   */\n      dup3\n        /* \"#utility.yul\":5779:5842   */\n      mstore\n        /* \"#utility.yul\":5691:5848   */\n      pop\n      pop\n      jump\t// out\n        /* \"#utility.yul\":5854:6102   */\n    tag_54:\n        /* \"#utility.yul\":5960:5964   */\n      0x00\n        /* \"#utility.yul\":5998:6000   */\n      0x20\n        /* \"#utility.yul\":5987:5996   */\n      dup3\n        /* \"#utility.yul\":5983:6001   */\n      add\n        /* \"#utility.yul\":5975:6001   */\n      swap1\n      pop\n        /* \"#utility.yul\":6011:6095   */\n      tag_221\n        /* \"#utility.yul\":6092:6093   */\n      0x00\n        /* \"#utility.yul\":6081:6090   */\n      dup4\n        /* \"#utility.yul\":6077:6094   */\n      add\n        /* \"#utility.yul\":6068:6074   */\n      dup5\n        /* \"#utility.yul\":6011:6095   */\n      tag_137\n      jump\t// in\n    tag_221:\n        /* \"#utility.yul\":5854:6102   */\n      swap3\n      swap2\n      pop\n      pop\n      jump\t// out\n        /* \"#utility.yul\":6108:6226   */\n    tag_138:\n        /* \"#utility.yul\":6195:6219   */\n      tag_223\n        /* \"#utility.yul\":6213:6218   */\n      dup2\n        /* \"#utility.yul\":6195:6219   */\n      tag_118\n      jump\t// in\n    tag_223:\n        /* \"#utility.yul\":6190:6193   */\n      dup3\n        /* \"#utility.yul\":6183:6220   */\n      mstore\n        /* \"#utility.yul\":6108:6226   */\n      pop\n      pop\n      jump\t// out\n        /* \"#utility.yul\":6232:6454   */\n    tag_58:\n        /* \"#utility.yul\":6325:6329   */\n      0x00\n        /* \"#utility.yul\":6363:6365   */\n      0x20\n        /* \"#utility.yul\":6352:6361   */\n      dup3\n        /* \"#utility.yul\":6348:6366   */\n      add\n        /* \"#utility.yul\":6340:6366   */\n      swap1\n      pop\n        /* \"#utility.yul\":6376:6447   */\n      tag_225\n        /* \"#utility.yul\":6444:6445   */\n      0x00\n        /* \"#utility.yul\":6433:6442   */\n      dup4\n        /* \"#utility.yul\":6429:6446   */\n      add\n        /* \"#utility.yul\":6420:6426   */\n      dup5\n        /* \"#utility.yul\":6376:6447   */\n      tag_138\n      jump\t// in\n    tag_225:\n        /* \"#utility.yul\":6232:6454   */\n      swap3\n      swap2\n      pop\n      pop\n      jump\t// out\n        /* \"#utility.yul\":6460:6640   */\n    tag_139:\n        /* \"#utility.yul\":6508:6585   */\n      0x4e487b7100000000000000000000000000000000000000000000000000000000\n        /* \"#utility.yul\":6505:6506   */\n      0x00\n        /* \"#utility.yul\":6498:6586   */\n      mstore\n        /* \"#utility.yul\":6605:6609   */\n      0x11\n        /* \"#utility.yul\":6602:6603   */\n      0x04\n        /* \"#utility.yul\":6595:6610   */\n      mstore\n        /* \"#utility.yul\":6629:6633   */\n      0x24\n        /* \"#utility.yul\":6626:6627   */\n      0x00\n        /* \"#utility.yul\":6619:6634   */\n      revert\n        /* \"#utility.yul\":6646:6840   */\n    tag_61:\n        /* \"#utility.yul\":6686:6690   */\n      0x00\n        /* \"#utility.yul\":6706:6726   */\n      tag_228\n        /* \"#utility.yul\":6724:6725   */\n      dup3\n        /* \"#utility.yul\":6706:6726   */\n      tag_121\n      jump\t// in\n    tag_228:\n        /* \"#utility.yul\":6701:6726   */\n      swap2\n      pop\n        /* \"#utility.yul\":6740:6760   */\n      tag_229\n        /* \"#utility.yul\":6758:6759   */\n      dup4\n        /* \"#utility.yul\":6740:6760   */\n      tag_121\n      jump\t// in\n    tag_229:\n        /* \"#utility.yul\":6735:6760   */\n      swap3\n      pop\n        /* \"#utility.yul\":6784:6785   */\n      dup3\n        /* \"#utility.yul\":6781:6782   */\n      dup3\n        /* \"#utility.yul\":6777:6786   */\n      sub\n        /* \"#utility.yul\":6769:6786   */\n      swap1\n      pop\n        /* \"#utility.yul\":6808:6809   */\n      dup2\n        /* \"#utility.yul\":6802:6806   */\n      dup2\n        /* \"#utility.yul\":6799:6810   */\n      gt\n        /* \"#utility.yul\":6796:6833   */\n      iszero\n      tag_230\n      jumpi\n        /* \"#utility.yul\":6813:6831   */\n      tag_231\n      tag_139\n      jump\t// in\n    tag_231:\n        /* \"#utility.yul\":6796:6833   */\n    tag_230:\n        /* \"#utility.yul\":6646:6840   */\n      swap3\n      swap2\n      pop\n      pop\n      jump\t// out\n        /* \"#utility.yul\":6846:7256   */\n    tag_63:\n        /* \"#utility.yul\":6886:6893   */\n      0x00\n        /* \"#utility.yul\":6909:6929   */\n      tag_233\n        /* \"#utility.yul\":6927:6928   */\n      dup3\n        /* \"#utility.yul\":6909:6929   */\n      tag_121\n      jump\t// in\n    tag_233:\n        /* \"#utility.yul\":6904:6929   */\n      swap2\n      pop\n        /* \"#utility.yul\":6943:6963   */\n      tag_234\n        /* \"#utility.yul\":6961:6962   */\n      dup4\n        /* \"#utility.yul\":6943:6963   */\n      tag_121\n      jump\t// in\n    tag_234:\n        /* \"#utility.yul\":6938:6963   */\n      swap3\n      pop\n        /* \"#utility.yul\":6998:6999   */\n      dup3\n        /* \"#utility.yul\":6995:6996   */\n      dup3\n        /* \"#utility.yul\":6991:7000   */\n      mul\n        /* \"#utility.yul\":7020:7050   */\n      tag_235\n        /* \"#utility.yul\":7038:7049   */\n      dup2\n        /* \"#utility.yul\":7020:7050   */\n      tag_121\n      jump\t// in\n    tag_235:\n        /* \"#utility.yul\":7009:7050   */\n      swap2\n      pop\n        /* \"#utility.yul\":7199:7200   */\n      dup3\n        /* \"#utility.yul\":7190:7197   */\n      dup3\n        /* \"#utility.yul\":7186:7201   */\n      div\n        /* \"#utility.yul\":7183:7184   */\n      dup5\n        /* \"#utility.yul\":7180:7202   */\n      eq\n        /* \"#utility.yul\":7160:7161   */\n      dup4\n        /* \"#utility.yul\":7153:7162   */\n      iszero\n        /* \"#utility.yul\":7133:7216   */\n      or\n        /* \"#utility.yul\":7110:7249   */\n      tag_236\n      jumpi\n        /* \"#utility.yul\":7229:7247   */\n      tag_237\n      tag_139\n      jump\t// in\n    tag_237:\n        /* \"#utility.yul\":7110:7249   */\n    tag_236:\n        /* \"#utility.yul\":6894:7256   */\n      pop\n        /* \"#utility.yul\":6846:7256   */\n      swap3\n      swap2\n      pop\n      pop\n      jump\t// out\n        /* \"#utility.yul\":7262:7442   */\n    tag_140:\n        /* \"#utility.yul\":7310:7387   */\n      0x4e487b7100000000000000000000000000000000000000000000000000000000\n        /* \"#utility.yul\":7307:7308   */\n      0x00\n        /* \"#utility.yul\":7300:7388   */\n      mstore\n        /* \"#utility.yul\":7407:7411   */\n      0x12\n        /* \"#utility.yul\":7404:7405   */\n      0x04\n        /* \"#utility.yul\":7397:7412   */\n      mstore\n        /* \"#utility.yul\":7431:7435   */\n      0x24\n        /* \"#utility.yul\":7428:7429   */\n      0x00\n        /* \"#utility.yul\":7421:7436   */\n      revert\n        /* \"#utility.yul\":7448:7633   */\n    tag_66:\n        /* \"#utility.yul\":7488:7489   */\n      0x00\n        /* \"#utility.yul\":7505:7525   */\n      tag_240\n        /* \"#utility.yul\":7523:7524   */\n      dup3\n        /* \"#utility.yul\":7505:7525   */\n      tag_121\n      jump\t// in\n    tag_240:\n        /* \"#utility.yul\":7500:7525   */\n      swap2\n      pop\n        /* \"#utility.yul\":7539:7559   */\n      tag_241\n        /* \"#utility.yul\":7557:7558   */\n      dup4\n        /* \"#utility.yul\":7539:7559   */\n      tag_121\n      jump\t// in\n    tag_241:\n        /* \"#utility.yul\":7534:7559   */\n      swap3\n      pop\n        /* \"#utility.yul\":7578:7579   */\n      dup3\n        /* \"#utility.yul\":7568:7603   */\n      tag_242\n      jumpi\n        /* \"#utility.yul\":7583:7601   */\n      tag_243\n      tag_140\n      jump\t// in\n    tag_243:\n        /* \"#utility.yul\":7568:7603   */\n    tag_242:\n        /* \"#utility.yul\":7625:7626   */\n      dup3\n        /* \"#utility.yul\":7622:7623   */\n      dup3\n        /* \"#utility.yul\":7618:7627   */\n      div\n        /* \"#utility.yul\":7613:7627   */\n      swap1\n      pop\n        /* \"#utility.yul\":7448:7633   */\n      swap3\n      swap2\n      pop\n      pop\n      jump\t// out\n        /* \"#utility.yul\":7639:7830   */\n    tag_68:\n        /* \"#utility.yul\":7679:7682   */\n      0x00\n        /* \"#utility.yul\":7698:7718   */\n      tag_245\n        /* \"#utility.yul\":7716:7717   */\n      dup3\n        /* \"#utility.yul\":7698:7718   */\n      tag_121\n      jump\t// in\n    tag_245:\n        /* \"#utility.yul\":7693:7718   */\n      swap2\n      pop\n        /* \"#utility.yul\":7732:7752   */\n      tag_246\n        /* \"#utility.yul\":7750:7751   */\n      dup4\n        /* \"#utility.yul\":7732:7752   */\n      tag_121\n      jump\t// in\n    tag_246:\n        /* \"#utility.yul\":7727:7752   */\n      swap3\n      pop\n        /* \"#utility.yul\":7775:7776   */\n      dup3\n        /* \"#utility.yul\":7772:7773   */\n      dup3\n        /* \"#utility.yul\":7768:7777   */\n      add\n        /* \"#utility.yul\":7761:7777   */\n      swap1\n      pop\n        /* \"#utility.yul\":7796:7799   */\n      dup1\n        /* \"#utility.yul\":7793:7794   */\n      dup3\n        /* \"#utility.yul\":7790:7800   */\n      gt\n        /* \"#utility.yul\":7787:7823   */\n      iszero\n      tag_247\n      jumpi\n        /* \"#utility.yul\":7803:7821   */\n      tag_248\n      tag_139\n      jump\t// in\n    tag_248:\n        /* \"#utility.yul\":7787:7823   */\n    tag_247:\n        /* \"#utility.yul\":7639:7830   */\n      swap3\n      swap2\n      pop\n      pop\n      jump\t// out\n        /* \"#utility.yul\":7836:8069   */\n    tag_73:\n        /* \"#utility.yul\":7875:7878   */\n      0x00\n        /* \"#utility.yul\":7898:7922   */\n      tag_250\n        /* \"#utility.yul\":7916:7921   */\n      dup3\n        /* \"#utility.yul\":7898:7922   */\n      tag_121\n      jump\t// in\n    tag_250:\n        /* \"#utility.yul\":7889:7922   */\n      swap2\n      pop\n        /* \"#utility.yul\":7944:8010   */\n      0xffffffffffffffffffffffffffffffffffffffffffffffffffffffffffffffff\n        /* \"#utility.yul\":7937:7942   */\n      dup3\n        /* \"#utility.yul\":7934:8011   */\n      sub\n        /* \"#utility.yul\":7931:8034   */\n      tag_251\n      jumpi\n        /* \"#utility.yul\":8014:8032   */\n      tag_252\n      tag_139\n      jump\t// in\n    tag_252:\n        /* \"#utility.yul\":7931:8034   */\n    tag_251:\n        /* \"#utility.yul\":8061:8062   */\n      0x01\n        /* \"#utility.yul\":8054:8059   */\n      dup3\n        /* \"#utility.yul\":8050:8063   */\n      add\n        /* \"#utility.yul\":8043:8063   */\n      swap1\n      pop\n        /* \"#utility.yul\":7836:8069   */\n      swap2\n      swap1\n      pop\n      jump\t// out\n        /* \"#utility.yul\":8075:8244   */\n    tag_141:\n        /* \"#utility.yul\":8159:8170   */\n      0x00\n        /* \"#utility.yul\":8193:8199   */\n      dup3\n        /* \"#utility.yul\":8188:8191   */\n      dup3\n        /* \"#utility.yul\":8181:8200   */\n      mstore\n        /* \"#utility.yul\":8233:8237   */\n      0x20\n        /* \"#utility.yul\":8228:8231   */\n      dup3\n        /* \"#utility.yul\":8224:8238   */\n      add\n        /* \"#utility.yul\":8209:8238   */\n      swap1\n      pop\n        /* \"#utility.yul\":8075:8244   */\n      swap3\n      swap2\n      pop\n      pop\n      jump\t// out\n        /* \"#utility.yul\":8250:8420   */\n    tag_142:\n        /* \"#utility.yul\":8390:8412   */\n      0x546f6b656e206973206e6f74207374616b65642e000000000000000000000000\n        /* \"#utility.yul\":8386:8387   */\n      0x00\n        /* \"#utility.yul\":8378:8384   */\n      dup3\n        /* \"#utility.yul\":8374:8388   */\n      add\n        /* \"#utility.yul\":8367:8413   */\n      mstore\n        /* \"#utility.yul\":8250:8420   */\n      pop\n      jump\t// out\n        /* \"#utility.yul\":8426:8792   */\n    tag_143:\n        /* \"#utility.yul\":8568:8571   */\n      0x00\n        /* \"#utility.yul\":8589:8656   */\n      tag_256\n        /* \"#utility.yul\":8653:8655   */\n      0x14\n        /* \"#utility.yul\":8648:8651   */\n      dup4\n        /* \"#utility.yul\":8589:8656   */\n      tag_141\n      jump\t// in\n    tag_256:\n        /* \"#utility.yul\":8582:8656   */\n      swap2\n      pop\n        /* \"#utility.yul\":8665:8758   */\n      tag_257\n        /* \"#utility.yul\":8754:8757   */\n      dup3\n        /* \"#utility.yul\":8665:8758   */\n      tag_142\n      jump\t// in\n    tag_257:\n        /* \"#utility.yul\":8783:8785   */\n      0x20\n        /* \"#utility.yul\":8778:8781   */\n      dup3\n        /* \"#utility.yul\":8774:8786   */\n      add\n        /* \"#utility.yul\":8767:8786   */\n      swap1\n      pop\n        /* \"#utility.yul\":8426:8792   */\n      swap2\n      swap1\n      pop\n      jump\t// out\n        /* \"#utility.yul\":8798:9217   */\n    tag_82:\n        /* \"#utility.yul\":8964:8968   */\n      0x00\n        /* \"#utility.yul\":9002:9004   */\n      0x20\n        /* \"#utility.yul\":8991:9000   */\n      dup3\n        /* \"#utility.yul\":8987:9005   */\n      add\n        /* \"#utility.yul\":8979:9005   */\n      swap1\n      pop\n        /* \"#utility.yul\":9051:9060   */\n      dup2\n        /* \"#utility.yul\":9045:9049   */\n      dup2\n        /* \"#utility.yul\":9041:9061   */\n      sub\n        /* \"#utility.yul\":9037:9038   */\n      0x00\n        /* \"#utility.yul\":9026:9035   */\n      dup4\n        /* \"#utility.yul\":9022:9039   */\n      add\n        /* \"#utility.yul\":9015:9062   */\n      mstore\n        /* \"#utility.yul\":9079:9210   */\n      tag_259\n        /* \"#utility.yul\":9205:9209   */\n      dup2\n        /* \"#utility.yul\":9079:9210   */\n      tag_143\n      jump\t// in\n    tag_259:\n        /* \"#utility.yul\":9071:9210   */\n      swap1\n      pop\n        /* \"#utility.yul\":8798:9217   */\n      swap2\n      swap1\n      pop\n      jump\t// out\n        /* \"#utility.yul\":9223:9394   */\n    tag_85:\n        /* \"#utility.yul\":9262:9265   */\n      0x00\n        /* \"#utility.yul\":9285:9309   */\n      tag_261\n        /* \"#utility.yul\":9303:9308   */\n      dup3\n        /* \"#utility.yul\":9285:9309   */\n      tag_121\n      jump\t// in\n    tag_261:\n        /* \"#utility.yul\":9276:9309   */\n      swap2\n      pop\n        /* \"#utility.yul\":9331:9335   */\n      0x00\n        /* \"#utility.yul\":9324:9329   */\n      dup3\n        /* \"#utility.yul\":9321:9336   */\n      sub\n        /* \"#utility.yul\":9318:9359   */\n      tag_262\n      jumpi\n        /* \"#utility.yul\":9339:9357   */\n      tag_263\n      tag_139\n      jump\t// in\n    tag_263:\n        /* \"#utility.yul\":9318:9359   */\n    tag_262:\n        /* \"#utility.yul\":9386:9387   */\n      0x01\n        /* \"#utility.yul\":9379:9384   */\n      dup3\n        /* \"#utility.yul\":9375:9388   */\n      sub\n        /* \"#utility.yul\":9368:9388   */\n      swap1\n      pop\n        /* \"#utility.yul\":9223:9394   */\n      swap2\n      swap1\n      pop\n      jump\t// out\n        /* \"#utility.yul\":9400:9842   */\n    tag_88:\n        /* \"#utility.yul\":9549:9553   */\n      0x00\n        /* \"#utility.yul\":9587:9589   */\n      0x60\n        /* \"#utility.yul\":9576:9585   */\n      dup3\n        /* \"#utility.yul\":9572:9590   */\n      add\n        /* \"#utility.yul\":9564:9590   */\n      swap1\n      pop\n        /* \"#utility.yul\":9600:9671   */\n      tag_265\n        /* \"#utility.yul\":9668:9669   */\n      0x00\n        /* \"#utility.yul\":9657:9666   */\n      dup4\n        /* \"#utility.yul\":9653:9670   */\n      add\n        /* \"#utility.yul\":9644:9650   */\n      dup7\n        /* \"#utility.yul\":9600:9671   */\n      tag_138\n      jump\t// in\n    tag_265:\n        /* \"#utility.yul\":9681:9753   */\n      tag_266\n        /* \"#utility.yul\":9749:9751   */\n      0x20\n        /* \"#utility.yul\":9738:9747   */\n      dup4\n        /* \"#utility.yul\":9734:9752   */\n      add\n        /* \"#utility.yul\":9725:9731   */\n      dup6\n        /* \"#utility.yul\":9681:9753   */\n      tag_138\n      jump\t// in\n    tag_266:\n        /* \"#utility.yul\":9763:9835   */\n      tag_267\n        /* \"#utility.yul\":9831:9833   */\n      0x40\n        /* \"#utility.yul\":9820:9829   */\n      dup4\n        /* \"#utility.yul\":9816:9834   */\n      add\n        /* \"#utility.yul\":9807:9813   */\n      dup5\n        /* \"#utility.yul\":9763:9835   */\n      tag_122\n      jump\t// in\n    tag_267:\n        /* \"#utility.yul\":9400:9842   */\n      swap5\n      swap4\n      pop\n      pop\n      pop\n      pop\n      jump\t// out\n        /* \"#utility.yul\":9848:10015   */\n    tag_144:\n        /* \"#utility.yul\":9988:10007   */\n      0x4e6f7468696e6720746f2072656465656d000000000000000000000000000000\n        /* \"#utility.yul\":9984:9985   */\n      0x00\n        /* \"#utility.yul\":9976:9982   */\n      dup3\n        /* \"#utility.yul\":9972:9986   */\n      add\n        /* \"#utility.yul\":9965:10008   */\n      mstore\n        /* \"#utility.yul\":9848:10015   */\n      pop\n      jump\t// out\n        /* \"#utility.yul\":10021:10387   */\n    tag_145:\n        /* \"#utility.yul\":10163:10166   */\n      0x00\n        /* \"#utility.yul\":10184:10251   */\n      tag_270\n        /* \"#utility.yul\":10248:10250   */\n      0x11\n        /* \"#utility.yul\":10243:10246   */\n      dup4\n        /* \"#utility.yul\":10184:10251   */\n      tag_141\n      jump\t// in\n    tag_270:\n        /* \"#utility.yul\":10177:10251   */\n      swap2\n      pop\n        /* \"#utility.yul\":10260:10353   */\n      tag_271\n        /* \"#utility.yul\":10349:10352   */\n      dup3\n        /* \"#utility.yul\":10260:10353   */\n      tag_144\n      jump\t// in\n    tag_271:\n        /* \"#utility.yul\":10378:10380   */\n      0x20\n        /* \"#utility.yul\":10373:10376   */\n      dup3\n        /* \"#utility.yul\":10369:10381   */\n      add\n        /* \"#utility.yul\":10362:10381   */\n      swap1\n      pop\n        /* \"#utility.yul\":10021:10387   */\n      swap2\n      swap1\n      pop\n      jump\t// out\n        /* \"#utility.yul\":10393:10812   */\n    tag_105:\n        /* \"#utility.yul\":10559:10563   */\n      0x00\n        /* \"#utility.yul\":10597:10599   */\n      0x20\n        /* \"#utility.yul\":10586:10595   */\n      dup3\n        /* \"#utility.yul\":10582:10600   */\n      add\n        /* \"#utility.yul\":10574:10600   */\n      swap1\n      pop\n        /* \"#utility.yul\":10646:10655   */\n      dup2\n        /* \"#utility.yul\":10640:10644   */\n      dup2\n        /* \"#utility.yul\":10636:10656   */\n      sub\n        /* \"#utility.yul\":10632:10633   */\n      0x00\n        /* \"#utility.yul\":10621:10630   */\n      dup4\n        /* \"#utility.yul\":10617:10634   */\n      add\n        /* \"#utility.yul\":10610:10657   */\n      mstore\n        /* \"#utility.yul\":10674:10805   */\n      tag_273\n        /* \"#utility.yul\":10800:10804   */\n      dup2\n        /* \"#utility.yul\":10674:10805   */\n      tag_145\n      jump\t// in\n    tag_273:\n        /* \"#utility.yul\":10666:10805   */\n      swap1\n      pop\n        /* \"#utility.yul\":10393:10812   */\n      swap2\n      swap1\n      pop\n      jump\t// out\n        /* \"#utility.yul\":10818:10908   */\n    tag_146:\n        /* \"#utility.yul\":10852:10859   */\n      0x00\n        /* \"#utility.yul\":10895:10900   */\n      dup2\n        /* \"#utility.yul\":10888:10901   */\n      iszero\n        /* \"#utility.yul\":10881:10902   */\n      iszero\n        /* \"#utility.yul\":10870:10902   */\n      swap1\n      pop\n        /* \"#utility.yul\":10818:10908   */\n      swap2\n      swap1\n      pop\n      jump\t// out\n        /* \"#utility.yul\":10914:11030   */\n    tag_147:\n        /* \"#utility.yul\":10984:11005   */\n      tag_276\n        /* \"#utility.yul\":10999:11004   */\n      dup2\n        /* \"#utility.yul\":10984:11005   */\n      tag_146\n      jump\t// in\n    tag_276:\n        /* \"#utility.yul\":10977:10982   */\n      dup2\n        /* \"#utility.yul\":10974:11006   */\n      eq\n        /* \"#utility.yul\":10964:11024   */\n      tag_277\n      jumpi\n        /* \"#utility.yul\":11020:11021   */\n      0x00\n        /* \"#utility.yul\":11017:11018   */\n      0x00\n        /* \"#utility.yul\":11010:11022   */\n      revert\n        /* \"#utility.yul\":10964:11024   */\n    tag_277:\n        /* \"#utility.yul\":10914:11030   */\n      pop\n      jump\t// out\n        /* \"#utility.yul\":11036:11173   */\n    tag_148:\n        /* \"#utility.yul\":11090:11095   */\n      0x00\n        /* \"#utility.yul\":11121:11127   */\n      dup2\n        /* \"#utility.yul\":11115:11128   */\n      mload\n        /* \"#utility.yul\":11106:11128   */\n      swap1\n      pop\n        /* \"#utility.yul\":11137:11167   */\n      tag_279\n        /* \"#utility.yul\":11161:11166   */\n      dup2\n        /* \"#utility.yul\":11137:11167   */\n      tag_147\n      jump\t// in\n    tag_279:\n        /* \"#utility.yul\":11036:11173   */\n      swap3\n      swap2\n      pop\n      pop\n      jump\t// out\n        /* \"#utility.yul\":11179:11524   */\n    tag_112:\n        /* \"#utility.yul\":11246:11252   */\n      0x00\n        /* \"#utility.yul\":11295:11297   */\n      0x20\n        /* \"#utility.yul\":11283:11292   */\n      dup3\n        /* \"#utility.yul\":11274:11281   */\n      dup5\n        /* \"#utility.yul\":11270:11293   */\n      sub\n        /* \"#utility.yul\":11266:11298   */\n      slt\n        /* \"#utility.yul\":11263:11382   */\n      iszero\n      tag_281\n      jumpi\n        /* \"#utility.yul\":11301:11380   */\n      tag_282\n      tag_115\n      jump\t// in\n    tag_282:\n        /* \"#utility.yul\":11263:11382   */\n    tag_281:\n        /* \"#utility.yul\":11421:11422   */\n      0x00\n        /* \"#utility.yul\":11446:11507   */\n      tag_283\n        /* \"#utility.yul\":11499:11506   */\n      dup5\n        /* \"#utility.yul\":11490:11496   */\n      dup3\n        /* \"#utility.yul\":11479:11488   */\n      dup6\n        /* \"#utility.yul\":11475:11497   */\n      add\n        /* \"#utility.yul\":11446:11507   */\n      tag_148\n      jump\t// in\n    tag_283:\n        /* \"#utility.yul\":11436:11507   */\n      swap2\n      pop\n        /* \"#utility.yul\":11392:11517   */\n      pop\n        /* \"#utility.yul\":11179:11524   */\n      swap3\n      swap2\n      pop\n      pop\n      jump\t// out\n\n    auxdata: 0xa26469706673582212209972ca08ed8462783d2eaccc641c3ff5e9dee2185b0972e94da54f74d786569b64736f6c634300081b0033\n}\n",
				"bytecode": {
					"linkReferences": {},
					"object": "608060405234801561000f575f5ffd5b5060405161129f38038061129f83398181016040528101906100319190610191565b835f5f6101000a81548173ffffffffffffffffffffffffffffffffffffffff021916908373ffffffffffffffffffffffffffffffffffffffff1602179055508260015f6101000a81548173ffffffffffffffffffffffffffffffffffffffff021916908373ffffffffffffffffffffffffffffffffffffffff1602179055508160025f6101000a81548173ffffffffffffffffffffffffffffffffffffffff021916908373ffffffffffffffffffffffffffffffffffffffff16021790555080600381905550505050506101f5565b5f5ffd5b5f73ffffffffffffffffffffffffffffffffffffffff82169050919050565b5f61012d82610104565b9050919050565b61013d81610123565b8114610147575f5ffd5b50565b5f8151905061015881610134565b92915050565b5f819050919050565b6101708161015e565b811461017a575f5ffd5b50565b5f8151905061018b81610167565b92915050565b5f5f5f5f608085870312156101a9576101a8610100565b5b5f6101b68782880161014a565b94505060206101c78782880161014a565b93505060406101d88782880161014a565b92505060606101e98782880161017d565b91505092959194509250565b61109d806102025f395ff3fe608060405234801561000f575f5ffd5b50600436106100a7575f3560e01c806347ccca021161006f57806347ccca021461017557806370a0823114610193578063a694fc3a146101c3578063be040fb0146101df578063f7c618c1146101e9578063fb75b2c714610207576100a7565b806310098ad5146100ab578063150b7a02146100db5780632ce9aead1461010b5780632d6a1fa61461013b5780632e1a7d4d14610159575b5f5ffd5b6100c560048036038101906100c09190610a95565b610225565b6040516100d29190610ad8565b60405180910390f35b6100f560048036038101906100f09190610b7c565b61032b565b6040516101029190610c3a565b60405180910390f35b61012560048036038101906101209190610a95565b61046e565b6040516101329190610ad8565b60405180910390f35b610143610483565b6040516101509190610ad8565b60405180910390f35b610173600480360381019061016e9190610c53565b610489565b005b61017d6106e3565b60405161018a9190610cd9565b60405180910390f35b6101ad60048036038101906101a89190610a95565b610707565b6040516101ba9190610ad8565b60405180910390f35b6101dd60048036038101906101d89190610c53565b61071c565b005b6101e76107b0565b005b6101f16109e2565b6040516101fe9190610d12565b60405180910390f35b61020f610a07565b60405161021c9190610d3a565b60405180910390f35b5f5f60065f8473ffffffffffffffffffffffffffffffffffffffff1673ffffffffffffffffffffffffffffffffffffffff1681526020019081526020015f2054426102709190610d80565b90505f620151806003548360055f8873ffffffffffffffffffffffffffffffffffffffff1673ffffffffffffffffffffffffffffffffffffffff1681526020019081526020015f20546102c39190610db3565b6102cd9190610db3565b6102d79190610e21565b90508060075f8673ffffffffffffffffffffffffffffffffffffffff1673ffffffffffffffffffffffffffffffffffffffff1681526020019081526020015f20546103229190610e51565b92505050919050565b5f8461033681610225565b60075f8373ffffffffffffffffffffffffffffffffffffffff1673ffffffffffffffffffffffffffffffffffffffff1681526020019081526020015f20819055504260065f8373ffffffffffffffffffffffffffffffffffffffff1673ffffffffffffffffffffffffffffffffffffffff1681526020019081526020015f20819055508560045f8781526020019081526020015f205f6101000a81548173ffffffffffffffffffffffffffffffffffffffff021916908373ffffffffffffffffffffffffffffffffffffffff16021790555060055f8773ffffffffffffffffffffffffffffffffffffffff1673ffffffffffffffffffffffffffffffffffffffff1681526020019081526020015f205f81548092919061045590610e84565b919050555063150b7a0260e01b91505095945050505050565b6006602052805f5260405f205f915090505481565b60035481565b610491610a2c565b61049a81610225565b60075f8373ffffffffffffffffffffffffffffffffffffffff1673ffffffffffffffffffffffffffffffffffffffff1681526020019081526020015f20819055504260065f8373ffffffffffffffffffffffffffffffffffffffff1673ffffffffffffffffffffffffffffffffffffffff1681526020019081526020015f2081905550610525610a2c565b73ffffffffffffffffffffffffffffffffffffffff1660045f8481526020019081526020015f205f9054906101000a900473ffffffffffffffffffffffffffffffffffffffff1673ffffffffffffffffffffffffffffffffffffffff16146105c2576040517f08c379a00000000000000000000000000000000000000000000000000000000081526004016105b990610f25565b60405180910390fd5b60045f8381526020019081526020015f205f6101000a81549073ffffffffffffffffffffffffffffffffffffffff021916905560055f610600610a2c565b73ffffffffffffffffffffffffffffffffffffffff1673ffffffffffffffffffffffffffffffffffffffff1681526020019081526020015f205f81548092919061064990610f43565b91905055505f5f9054906101000a900473ffffffffffffffffffffffffffffffffffffffff1673ffffffffffffffffffffffffffffffffffffffff166323b872dd30610693610a2c565b856040518463ffffffff1660e01b81526004016106b293929190610f6a565b5f604051808303815f87803b1580156106c9575f5ffd5b505af11580156106db573d5f5f3e3d5ffd5b505050505050565b5f5f9054906101000a900473ffffffffffffffffffffffffffffffffffffffff1681565b6005602052805f5260405f205f915090505481565b5f5f9054906101000a900473ffffffffffffffffffffffffffffffffffffffff1673ffffffffffffffffffffffffffffffffffffffff166342842e0e610760610a2c565b30846040518463ffffffff1660e01b815260040161078093929190610f6a565b5f604051808303815f87803b158015610797575f5ffd5b505af11580156107a9573d5f5f3e3d5ffd5b5050505050565b6107b8610a2c565b6107c181610225565b60075f8373ffffffffffffffffffffffffffffffffffffffff1673ffffffffffffffffffffffffffffffffffffffff1681526020019081526020015f20819055504260065f8373ffffffffffffffffffffffffffffffffffffffff1673ffffffffffffffffffffffffffffffffffffffff1681526020019081526020015f20819055505f60075f610850610a2c565b73ffffffffffffffffffffffffffffffffffffffff1673ffffffffffffffffffffffffffffffffffffffff1681526020019081526020015f205490505f81116108ce576040517f08c379a00000000000000000000000000000000000000000000000000000000081526004016108c590610fe9565b60405180910390fd5b5f60075f6108da610a2c565b73ffffffffffffffffffffffffffffffffffffffff1673ffffffffffffffffffffffffffffffffffffffff1681526020019081526020015f208190555060015f9054906101000a900473ffffffffffffffffffffffffffffffffffffffff1673ffffffffffffffffffffffffffffffffffffffff166323b872dd60025f9054906101000a900473ffffffffffffffffffffffffffffffffffffffff1661097e610a2c565b846040518463ffffffff1660e01b815260040161099d93929190610f6a565b6020604051808303815f875af11580156109b9573d5f5f3e3d5ffd5b505050506040513d601f19601f820116820180604052508101906109dd919061103c565b505050565b60015f9054906101000a900473ffffffffffffffffffffffffffffffffffffffff1681565b60025f9054906101000a900473ffffffffffffffffffffffffffffffffffffffff1681565b5f33905090565b5f5ffd5b5f5ffd5b5f73ffffffffffffffffffffffffffffffffffffffff82169050919050565b5f610a6482610a3b565b9050919050565b610a7481610a5a565b8114610a7e575f5ffd5b50565b5f81359050610a8f81610a6b565b92915050565b5f60208284031215610aaa57610aa9610a33565b5b5f610ab784828501610a81565b91505092915050565b5f819050919050565b610ad281610ac0565b82525050565b5f602082019050610aeb5f830184610ac9565b92915050565b610afa81610ac0565b8114610b04575f5ffd5b50565b5f81359050610b1581610af1565b92915050565b5f5ffd5b5f5ffd5b5f5ffd5b5f5f83601f840112610b3c57610b3b610b1b565b5b8235905067ffffffffffffffff811115610b5957610b58610b1f565b5b602083019150836001820283011115610b7557610b74610b23565b5b9250929050565b5f5f5f5f5f60808688031215610b9557610b94610a33565b5b5f610ba288828901610a81565b9550506020610bb388828901610a81565b9450506040610bc488828901610b07565b935050606086013567ffffffffffffffff811115610be557610be4610a37565b5b610bf188828901610b27565b92509250509295509295909350565b5f7fffffffff0000000000000000000000000000000000000000000000000000000082169050919050565b610c3481610c00565b82525050565b5f602082019050610c4d5f830184610c2b565b92915050565b5f60208284031215610c6857610c67610a33565b5b5f610c7584828501610b07565b91505092915050565b5f819050919050565b5f610ca1610c9c610c9784610a3b565b610c7e565b610a3b565b9050919050565b5f610cb282610c87565b9050919050565b5f610cc382610ca8565b9050919050565b610cd381610cb9565b82525050565b5f602082019050610cec5f830184610cca565b92915050565b5f610cfc82610ca8565b9050919050565b610d0c81610cf2565b82525050565b5f602082019050610d255f830184610d03565b92915050565b610d3481610a5a565b82525050565b5f602082019050610d4d5f830184610d2b565b92915050565b7f4e487b71000000000000000000000000000000000000000000000000000000005f52601160045260245ffd5b5f610d8a82610ac0565b9150610d9583610ac0565b9250828203905081811115610dad57610dac610d53565b5b92915050565b5f610dbd82610ac0565b9150610dc883610ac0565b9250828202610dd681610ac0565b91508282048414831517610ded57610dec610d53565b5b5092915050565b7f4e487b71000000000000000000000000000000000000000000000000000000005f52601260045260245ffd5b5f610e2b82610ac0565b9150610e3683610ac0565b925082610e4657610e45610df4565b5b828204905092915050565b5f610e5b82610ac0565b9150610e6683610ac0565b9250828201905080821115610e7e57610e7d610d53565b5b92915050565b5f610e8e82610ac0565b91507fffffffffffffffffffffffffffffffffffffffffffffffffffffffffffffffff8203610ec057610ebf610d53565b5b600182019050919050565b5f82825260208201905092915050565b7f546f6b656e206973206e6f74207374616b65642e0000000000000000000000005f82015250565b5f610f0f601483610ecb565b9150610f1a82610edb565b602082019050919050565b5f6020820190508181035f830152610f3c81610f03565b9050919050565b5f610f4d82610ac0565b91505f8203610f5f57610f5e610d53565b5b600182039050919050565b5f606082019050610f7d5f830186610d2b565b610f8a6020830185610d2b565b610f976040830184610ac9565b949350505050565b7f4e6f7468696e6720746f2072656465656d0000000000000000000000000000005f82015250565b5f610fd3601183610ecb565b9150610fde82610f9f565b602082019050919050565b5f6020820190508181035f83015261100081610fc7565b9050919050565b5f8115159050919050565b61101b81611007565b8114611025575f5ffd5b50565b5f8151905061103681611012565b92915050565b5f6020828403121561105157611050610a33565b5b5f61105e84828501611028565b9150509291505056fea26469706673582212209972ca08ed8462783d2eaccc641c3ff5e9dee2185b0972e94da54f74d786569b64736f6c634300081b0033",
					"opcodes": "PUSH1 0x80 PUSH1 0x40 MSTORE CALLVALUE DUP1 ISZERO PUSH2 0xF JUMPI PUSH0 PUSH0 REVERT JUMPDEST POP PUSH1 0x40 MLOAD PUSH2 0x129F CODESIZE SUB DUP1 PUSH2 0x129F DUP4 CODECOPY DUP2 DUP2 ADD PUSH1 0x40 MSTORE DUP2 ADD SWAP1 PUSH2 0x31 SWAP2 SWAP1 PUSH2 0x191 JUMP JUMPDEST DUP4 PUSH0 PUSH0 PUSH2 0x100 EXP DUP2 SLOAD DUP2 PUSH20 0xFFFFFFFFFFFFFFFFFFFFFFFFFFFFFFFFFFFFFFFF MUL NOT AND SWAP1 DUP4 PUSH20 0xFFFFFFFFFFFFFFFFFFFFFFFFFFFFFFFFFFFFFFFF AND MUL OR SWAP1 SSTORE POP DUP3 PUSH1 0x1 PUSH0 PUSH2 0x100 EXP DUP2 SLOAD DUP2 PUSH20 0xFFFFFFFFFFFFFFFFFFFFFFFFFFFFFFFFFFFFFFFF MUL NOT AND SWAP1 DUP4 PUSH20 0xFFFFFFFFFFFFFFFFFFFFFFFFFFFFFFFFFFFFFFFF AND MUL OR SWAP1 SSTORE POP DUP2 PUSH1 0x2 PUSH0 PUSH2 0x100 EXP DUP2 SLOAD DUP2 PUSH20 0xFFFFFFFFFFFFFFFFFFFFFFFFFFFFFFFFFFFFFFFF MUL NOT AND SWAP1 DUP4 PUSH20 0xFFFFFFFFFFFFFFFFFFFFFFFFFFFFFFFFFFFFFFFF AND MUL OR SWAP1 SSTORE POP DUP1 PUSH1 0x3 DUP2 SWAP1 SSTORE POP POP POP POP POP PUSH2 0x1F5 JUMP JUMPDEST PUSH0 PUSH0 REVERT JUMPDEST PUSH0 PUSH20 0xFFFFFFFFFFFFFFFFFFFFFFFFFFFFFFFFFFFFFFFF DUP3 AND SWAP1 POP SWAP2 SWAP1 POP JUMP JUMPDEST PUSH0 PUSH2 0x12D DUP3 PUSH2 0x104 JUMP JUMPDEST SWAP1 POP SWAP2 SWAP1 POP JUMP JUMPDEST PUSH2 0x13D DUP2 PUSH2 0x123 JUMP JUMPDEST DUP2 EQ PUSH2 0x147 JUMPI PUSH0 PUSH0 REVERT JUMPDEST POP JUMP JUMPDEST PUSH0 DUP2 MLOAD SWAP1 POP PUSH2 0x158 DUP2 PUSH2 0x134 JUMP JUMPDEST SWAP3 SWAP2 POP POP JUMP JUMPDEST PUSH0 DUP2 SWAP1 POP SWAP2 SWAP1 POP JUMP JUMPDEST PUSH2 0x170 DUP2 PUSH2 0x15E JUMP JUMPDEST DUP2 EQ PUSH2 0x17A JUMPI PUSH0 PUSH0 REVERT JUMPDEST POP JUMP JUMPDEST PUSH0 DUP2 MLOAD SWAP1 POP PUSH2 0x18B DUP2 PUSH2 0x167 JUMP JUMPDEST SWAP3 SWAP2 POP POP JUMP JUMPDEST PUSH0 PUSH0 PUSH0 PUSH0 PUSH1 0x80 DUP6 DUP8 SUB SLT ISZERO PUSH2 0x1A9 JUMPI PUSH2 0x1A8 PUSH2 0x100 JUMP JUMPDEST JUMPDEST PUSH0 PUSH2 0x1B6 DUP8 DUP3 DUP9 ADD PUSH2 0x14A JUMP JUMPDEST SWAP5 POP POP PUSH1 0x20 PUSH2 0x1C7 DUP8 DUP3 DUP9 ADD PUSH2 0x14A JUMP JUMPDEST SWAP4 POP POP PUSH1 0x40 PUSH2 0x1D8 DUP8 DUP3 DUP9 ADD PUSH2 0x14A JUMP JUMPDEST SWAP3 POP POP PUSH1 0x60 PUSH2 0x1E9 DUP8 DUP3 DUP9 ADD PUSH2 0x17D JUMP JUMPDEST SWAP2 POP POP SWAP3 SWAP6 SWAP2 SWAP5 POP SWAP3 POP JUMP JUMPDEST PUSH2 0x109D DUP1 PUSH2 0x202 PUSH0 CODECOPY PUSH0 RETURN INVALID PUSH1 0x80 PUSH1 0x40 MSTORE CALLVALUE DUP1 ISZERO PUSH2 0xF JUMPI PUSH0 PUSH0 REVERT JUMPDEST POP PUSH1 0x4 CALLDATASIZE LT PUSH2 0xA7 JUMPI PUSH0 CALLDATALOAD PUSH1 0xE0 SHR DUP1 PUSH4 0x47CCCA02 GT PUSH2 0x6F JUMPI DUP1 PUSH4 0x47CCCA02 EQ PUSH2 0x175 JUMPI DUP1 PUSH4 0x70A08231 EQ PUSH2 0x193 JUMPI DUP1 PUSH4 0xA694FC3A EQ PUSH2 0x1C3 JUMPI DUP1 PUSH4 0xBE040FB0 EQ PUSH2 0x1DF JUMPI DUP1 PUSH4 0xF7C618C1 EQ PUSH2 0x1E9 JUMPI DUP1 PUSH4 0xFB75B2C7 EQ PUSH2 0x207 JUMPI PUSH2 0xA7 JUMP JUMPDEST DUP1 PUSH4 0x10098AD5 EQ PUSH2 0xAB JUMPI DUP1 PUSH4 0x150B7A02 EQ PUSH2 0xDB JUMPI DUP1 PUSH4 0x2CE9AEAD EQ PUSH2 0x10B JUMPI DUP1 PUSH4 0x2D6A1FA6 EQ PUSH2 0x13B JUMPI DUP1 PUSH4 0x2E1A7D4D EQ PUSH2 0x159 JUMPI JUMPDEST PUSH0 PUSH0 REVERT JUMPDEST PUSH2 0xC5 PUSH1 0x4 DUP1 CALLDATASIZE SUB DUP2 ADD SWAP1 PUSH2 0xC0 SWAP2 SWAP1 PUSH2 0xA95 JUMP JUMPDEST PUSH2 0x225 JUMP JUMPDEST PUSH1 0x40 MLOAD PUSH2 0xD2 SWAP2 SWAP1 PUSH2 0xAD8 JUMP JUMPDEST PUSH1 0x40 MLOAD DUP1 SWAP2 SUB SWAP1 RETURN JUMPDEST PUSH2 0xF5 PUSH1 0x4 DUP1 CALLDATASIZE SUB DUP2 ADD SWAP1 PUSH2 0xF0 SWAP2 SWAP1 PUSH2 0xB7C JUMP JUMPDEST PUSH2 0x32B JUMP JUMPDEST PUSH1 0x40 MLOAD PUSH2 0x102 SWAP2 SWAP1 PUSH2 0xC3A JUMP JUMPDEST PUSH1 0x40 MLOAD DUP1 SWAP2 SUB SWAP1 RETURN JUMPDEST PUSH2 0x125 PUSH1 0x4 DUP1 CALLDATASIZE SUB DUP2 ADD SWAP1 PUSH2 0x120 SWAP2 SWAP1 PUSH2 0xA95 JUMP JUMPDEST PUSH2 0x46E JUMP JUMPDEST PUSH1 0x40 MLOAD PUSH2 0x132 SWAP2 SWAP1 PUSH2 0xAD8 JUMP JUMPDEST PUSH1 0x40 MLOAD DUP1 SWAP2 SUB SWAP1 RETURN JUMPDEST PUSH2 0x143 PUSH2 0x483 JUMP JUMPDEST PUSH1 0x40 MLOAD PUSH2 0x150 SWAP2 SWAP1 PUSH2 0xAD8 JUMP JUMPDEST PUSH1 0x40 MLOAD DUP1 SWAP2 SUB SWAP1 RETURN JUMPDEST PUSH2 0x173 PUSH1 0x4 DUP1 CALLDATASIZE SUB DUP2 ADD SWAP1 PUSH2 0x16E SWAP2 SWAP1 PUSH2 0xC53 JUMP JUMPDEST PUSH2 0x489 JUMP JUMPDEST STOP JUMPDEST PUSH2 0x17D PUSH2 0x6E3 JUMP JUMPDEST PUSH1 0x40 MLOAD PUSH2 0x18A SWAP2 SWAP1 PUSH2 0xCD9 JUMP JUMPDEST PUSH1 0x40 MLOAD DUP1 SWAP2 SUB SWAP1 RETURN JUMPDEST PUSH2 0x1AD PUSH1 0x4 DUP1 CALLDATASIZE SUB DUP2 ADD SWAP1 PUSH2 0x1A8 SWAP2 SWAP1 PUSH2 0xA95 JUMP JUMPDEST PUSH2 0x707 JUMP JUMPDEST PUSH1 0x40 MLOAD PUSH2 0x1BA SWAP2 SWAP1 PUSH2 0xAD8 JUMP JUMPDEST PUSH1 0x40 MLOAD DUP1 SWAP2 SUB SWAP1 RETURN JUMPDEST PUSH2 0x1DD PUSH1 0x4 DUP1 CALLDATASIZE SUB DUP2 ADD SWAP1 PUSH2 0x1D8 SWAP2 SWAP1 PUSH2 0xC53 JUMP JUMPDEST PUSH2 0x71C JUMP JUMPDEST STOP JUMPDEST PUSH2 0x1E7 PUSH2 0x7B0 JUMP JUMPDEST STOP JUMPDEST PUSH2 0x1F1 PUSH2 0x9E2 JUMP JUMPDEST PUSH1 0x40 MLOAD PUSH2 0x1FE SWAP2 SWAP1 PUSH2 0xD12 JUMP JUMPDEST PUSH1 0x40 MLOAD DUP1 SWAP2 SUB SWAP1 RETURN JUMPDEST PUSH2 0x20F PUSH2 0xA07 JUMP JUMPDEST PUSH1 0x40 MLOAD PUSH2 0x21C SWAP2 SWAP1 PUSH2 0xD3A JUMP JUMPDEST PUSH1 0x40 MLOAD DUP1 SWAP2 SUB SWAP1 RETURN JUMPDEST PUSH0 PUSH0 PUSH1 0x6 PUSH0 DUP5 PUSH20 0xFFFFFFFFFFFFFFFFFFFFFFFFFFFFFFFFFFFFFFFF AND PUSH20 0xFFFFFFFFFFFFFFFFFFFFFFFFFFFFFFFFFFFFFFFF AND DUP2 MSTORE PUSH1 0x20 ADD SWAP1 DUP2 MSTORE PUSH1 0x20 ADD PUSH0 KECCAK256 SLOAD TIMESTAMP PUSH2 0x270 SWAP2 SWAP1 PUSH2 0xD80 JUMP JUMPDEST SWAP1 POP PUSH0 PUSH3 0x15180 PUSH1 0x3 SLOAD DUP4 PUSH1 0x5 PUSH0 DUP9 PUSH20 0xFFFFFFFFFFFFFFFFFFFFFFFFFFFFFFFFFFFFFFFF AND PUSH20 0xFFFFFFFFFFFFFFFFFFFFFFFFFFFFFFFFFFFFFFFF AND DUP2 MSTORE PUSH1 0x20 ADD SWAP1 DUP2 MSTORE PUSH1 0x20 ADD PUSH0 KECCAK256 SLOAD PUSH2 0x2C3 SWAP2 SWAP1 PUSH2 0xDB3 JUMP JUMPDEST PUSH2 0x2CD SWAP2 SWAP1 PUSH2 0xDB3 JUMP JUMPDEST PUSH2 0x2D7 SWAP2 SWAP1 PUSH2 0xE21 JUMP JUMPDEST SWAP1 POP DUP1 PUSH1 0x7 PUSH0 DUP7 PUSH20 0xFFFFFFFFFFFFFFFFFFFFFFFFFFFFFFFFFFFFFFFF AND PUSH20 0xFFFFFFFFFFFFFFFFFFFFFFFFFFFFFFFFFFFFFFFF AND DUP2 MSTORE PUSH1 0x20 ADD SWAP1 DUP2 MSTORE PUSH1 0x20 ADD PUSH0 KECCAK256 SLOAD PUSH2 0x322 SWAP2 SWAP1 PUSH2 0xE51 JUMP JUMPDEST SWAP3 POP POP POP SWAP2 SWAP1 POP JUMP JUMPDEST PUSH0 DUP5 PUSH2 0x336 DUP2 PUSH2 0x225 JUMP JUMPDEST PUSH1 0x7 PUSH0 DUP4 PUSH20 0xFFFFFFFFFFFFFFFFFFFFFFFFFFFFFFFFFFFFFFFF AND PUSH20 0xFFFFFFFFFFFFFFFFFFFFFFFFFFFFFFFFFFFFFFFF AND DUP2 MSTORE PUSH1 0x20 ADD SWAP1 DUP2 MSTORE PUSH1 0x20 ADD PUSH0 KECCAK256 DUP2 SWAP1 SSTORE POP TIMESTAMP PUSH1 0x6 PUSH0 DUP4 PUSH20 0xFFFFFFFFFFFFFFFFFFFFFFFFFFFFFFFFFFFFFFFF AND PUSH20 0xFFFFFFFFFFFFFFFFFFFFFFFFFFFFFFFFFFFFFFFF AND DUP2 MSTORE PUSH1 0x20 ADD SWAP1 DUP2 MSTORE PUSH1 0x20 ADD PUSH0 KECCAK256 DUP2 SWAP1 SSTORE POP DUP6 PUSH1 0x4 PUSH0 DUP8 DUP2 MSTORE PUSH1 0x20 ADD SWAP1 DUP2 MSTORE PUSH1 0x20 ADD PUSH0 KECCAK256 PUSH0 PUSH2 0x100 EXP DUP2 SLOAD DUP2 PUSH20 0xFFFFFFFFFFFFFFFFFFFFFFFFFFFFFFFFFFFFFFFF MUL NOT AND SWAP1 DUP4 PUSH20 0xFFFFFFFFFFFFFFFFFFFFFFFFFFFFFFFFFFFFFFFF AND MUL OR SWAP1 SSTORE POP PUSH1 0x5 PUSH0 DUP8 PUSH20 0xFFFFFFFFFFFFFFFFFFFFFFFFFFFFFFFFFFFFFFFF AND PUSH20 0xFFFFFFFFFFFFFFFFFFFFFFFFFFFFFFFFFFFFFFFF AND DUP2 MSTORE PUSH1 0x20 ADD SWAP1 DUP2 MSTORE PUSH1 0x20 ADD PUSH0 KECCAK256 PUSH0 DUP2 SLOAD DUP1 SWAP3 SWAP2 SWAP1 PUSH2 0x455 SWAP1 PUSH2 0xE84 JUMP JUMPDEST SWAP2 SWAP1 POP SSTORE POP PUSH4 0x150B7A02 PUSH1 0xE0 SHL SWAP2 POP POP SWAP6 SWAP5 POP POP POP POP POP JUMP JUMPDEST PUSH1 0x6 PUSH1 0x20 MSTORE DUP1 PUSH0 MSTORE PUSH1 0x40 PUSH0 KECCAK256 PUSH0 SWAP2 POP SWAP1 POP SLOAD DUP2 JUMP JUMPDEST PUSH1 0x3 SLOAD DUP2 JUMP JUMPDEST PUSH2 0x491 PUSH2 0xA2C JUMP JUMPDEST PUSH2 0x49A DUP2 PUSH2 0x225 JUMP JUMPDEST PUSH1 0x7 PUSH0 DUP4 PUSH20 0xFFFFFFFFFFFFFFFFFFFFFFFFFFFFFFFFFFFFFFFF AND PUSH20 0xFFFFFFFFFFFFFFFFFFFFFFFFFFFFFFFFFFFFFFFF AND DUP2 MSTORE PUSH1 0x20 ADD SWAP1 DUP2 MSTORE PUSH1 0x20 ADD PUSH0 KECCAK256 DUP2 SWAP1 SSTORE POP TIMESTAMP PUSH1 0x6 PUSH0 DUP4 PUSH20 0xFFFFFFFFFFFFFFFFFFFFFFFFFFFFFFFFFFFFFFFF AND PUSH20 0xFFFFFFFFFFFFFFFFFFFFFFFFFFFFFFFFFFFFFFFF AND DUP2 MSTORE PUSH1 0x20 ADD SWAP1 DUP2 MSTORE PUSH1 0x20 ADD PUSH0 KECCAK256 DUP2 SWAP1 SSTORE POP PUSH2 0x525 PUSH2 0xA2C JUMP JUMPDEST PUSH20 0xFFFFFFFFFFFFFFFFFFFFFFFFFFFFFFFFFFFFFFFF AND PUSH1 0x4 PUSH0 DUP5 DUP2 MSTORE PUSH1 0x20 ADD SWAP1 DUP2 MSTORE PUSH1 0x20 ADD PUSH0 KECCAK256 PUSH0 SWAP1 SLOAD SWAP1 PUSH2 0x100 EXP SWAP1 DIV PUSH20 0xFFFFFFFFFFFFFFFFFFFFFFFFFFFFFFFFFFFFFFFF AND PUSH20 0xFFFFFFFFFFFFFFFFFFFFFFFFFFFFFFFFFFFFFFFF AND EQ PUSH2 0x5C2 JUMPI PUSH1 0x40 MLOAD PUSH32 0x8C379A000000000000000000000000000000000000000000000000000000000 DUP2 MSTORE PUSH1 0x4 ADD PUSH2 0x5B9 SWAP1 PUSH2 0xF25 JUMP JUMPDEST PUSH1 0x40 MLOAD DUP1 SWAP2 SUB SWAP1 REVERT JUMPDEST PUSH1 0x4 PUSH0 DUP4 DUP2 MSTORE PUSH1 0x20 ADD SWAP1 DUP2 MSTORE PUSH1 0x20 ADD PUSH0 KECCAK256 PUSH0 PUSH2 0x100 EXP DUP2 SLOAD SWAP1 PUSH20 0xFFFFFFFFFFFFFFFFFFFFFFFFFFFFFFFFFFFFFFFF MUL NOT AND SWAP1 SSTORE PUSH1 0x5 PUSH0 PUSH2 0x600 PUSH2 0xA2C JUMP JUMPDEST PUSH20 0xFFFFFFFFFFFFFFFFFFFFFFFFFFFFFFFFFFFFFFFF AND PUSH20 0xFFFFFFFFFFFFFFFFFFFFFFFFFFFFFFFFFFFFFFFF AND DUP2 MSTORE PUSH1 0x20 ADD SWAP1 DUP2 MSTORE PUSH1 0x20 ADD PUSH0 KECCAK256 PUSH0 DUP2 SLOAD DUP1 SWAP3 SWAP2 SWAP1 PUSH2 0x649 SWAP1 PUSH2 0xF43 JUMP JUMPDEST SWAP2 SWAP1 POP SSTORE POP PUSH0 PUSH0 SWAP1 SLOAD SWAP1 PUSH2 0x100 EXP SWAP1 DIV PUSH20 0xFFFFFFFFFFFFFFFFFFFFFFFFFFFFFFFFFFFFFFFF AND PUSH20 0xFFFFFFFFFFFFFFFFFFFFFFFFFFFFFFFFFFFFFFFF AND PUSH4 0x23B872DD ADDRESS PUSH2 0x693 PUSH2 0xA2C JUMP JUMPDEST DUP6 PUSH1 0x40 MLOAD DUP5 PUSH4 0xFFFFFFFF AND PUSH1 0xE0 SHL DUP2 MSTORE PUSH1 0x4 ADD PUSH2 0x6B2 SWAP4 SWAP3 SWAP2 SWAP1 PUSH2 0xF6A JUMP JUMPDEST PUSH0 PUSH1 0x40 MLOAD DUP1 DUP4 SUB DUP2 PUSH0 DUP8 DUP1 EXTCODESIZE ISZERO DUP1 ISZERO PUSH2 0x6C9 JUMPI PUSH0 PUSH0 REVERT JUMPDEST POP GAS CALL ISZERO DUP1 ISZERO PUSH2 0x6DB JUMPI RETURNDATASIZE PUSH0 PUSH0 RETURNDATACOPY RETURNDATASIZE PUSH0 REVERT JUMPDEST POP POP POP POP POP POP JUMP JUMPDEST PUSH0 PUSH0 SWAP1 SLOAD SWAP1 PUSH2 0x100 EXP SWAP1 DIV PUSH20 0xFFFFFFFFFFFFFFFFFFFFFFFFFFFFFFFFFFFFFFFF AND DUP2 JUMP JUMPDEST PUSH1 0x5 PUSH1 0x20 MSTORE DUP1 PUSH0 MSTORE PUSH1 0x40 PUSH0 KECCAK256 PUSH0 SWAP2 POP SWAP1 POP SLOAD DUP2 JUMP JUMPDEST PUSH0 PUSH0 SWAP1 SLOAD SWAP1 PUSH2 0x100 EXP SWAP1 DIV PUSH20 0xFFFFFFFFFFFFFFFFFFFFFFFFFFFFFFFFFFFFFFFF AND PUSH20 0xFFFFFFFFFFFFFFFFFFFFFFFFFFFFFFFFFFFFFFFF AND PUSH4 0x42842E0E PUSH2 0x760 PUSH2 0xA2C JUMP JUMPDEST ADDRESS DUP5 PUSH1 0x40 MLOAD DUP5 PUSH4 0xFFFFFFFF AND PUSH1 0xE0 SHL DUP2 MSTORE PUSH1 0x4 ADD PUSH2 0x780 SWAP4 SWAP3 SWAP2 SWAP1 PUSH2 0xF6A JUMP JUMPDEST PUSH0 PUSH1 0x40 MLOAD DUP1 DUP4 SUB DUP2 PUSH0 DUP8 DUP1 EXTCODESIZE ISZERO DUP1 ISZERO PUSH2 0x797 JUMPI PUSH0 PUSH0 REVERT JUMPDEST POP GAS CALL ISZERO DUP1 ISZERO PUSH2 0x7A9 JUMPI RETURNDATASIZE PUSH0 PUSH0 RETURNDATACOPY RETURNDATASIZE PUSH0 REVERT JUMPDEST POP POP POP POP POP JUMP JUMPDEST PUSH2 0x7B8 PUSH2 0xA2C JUMP JUMPDEST PUSH2 0x7C1 DUP2 PUSH2 0x225 JUMP JUMPDEST PUSH1 0x7 PUSH0 DUP4 PUSH20 0xFFFFFFFFFFFFFFFFFFFFFFFFFFFFFFFFFFFFFFFF AND PUSH20 0xFFFFFFFFFFFFFFFFFFFFFFFFFFFFFFFFFFFFFFFF AND DUP2 MSTORE PUSH1 0x20 ADD SWAP1 DUP2 MSTORE PUSH1 0x20 ADD PUSH0 KECCAK256 DUP2 SWAP1 SSTORE POP TIMESTAMP PUSH1 0x6 PUSH0 DUP4 PUSH20 0xFFFFFFFFFFFFFFFFFFFFFFFFFFFFFFFFFFFFFFFF AND PUSH20 0xFFFFFFFFFFFFFFFFFFFFFFFFFFFFFFFFFFFFFFFF AND DUP2 MSTORE PUSH1 0x20 ADD SWAP1 DUP2 MSTORE PUSH1 0x20 ADD PUSH0 KECCAK256 DUP2 SWAP1 SSTORE POP PUSH0 PUSH1 0x7 PUSH0 PUSH2 0x850 PUSH2 0xA2C JUMP JUMPDEST PUSH20 0xFFFFFFFFFFFFFFFFFFFFFFFFFFFFFFFFFFFFFFFF AND PUSH20 0xFFFFFFFFFFFFFFFFFFFFFFFFFFFFFFFFFFFFFFFF AND DUP2 MSTORE PUSH1 0x20 ADD SWAP1 DUP2 MSTORE PUSH1 0x20 ADD PUSH0 KECCAK256 SLOAD SWAP1 POP PUSH0 DUP2 GT PUSH2 0x8CE JUMPI PUSH1 0x40 MLOAD PUSH32 0x8C379A000000000000000000000000000000000000000000000000000000000 DUP2 MSTORE PUSH1 0x4 ADD PUSH2 0x8C5 SWAP1 PUSH2 0xFE9 JUMP JUMPDEST PUSH1 0x40 MLOAD DUP1 SWAP2 SUB SWAP1 REVERT JUMPDEST PUSH0 PUSH1 0x7 PUSH0 PUSH2 0x8DA PUSH2 0xA2C JUMP JUMPDEST PUSH20 0xFFFFFFFFFFFFFFFFFFFFFFFFFFFFFFFFFFFFFFFF AND PUSH20 0xFFFFFFFFFFFFFFFFFFFFFFFFFFFFFFFFFFFFFFFF AND DUP2 MSTORE PUSH1 0x20 ADD SWAP1 DUP2 MSTORE PUSH1 0x20 ADD PUSH0 KECCAK256 DUP2 SWAP1 SSTORE POP PUSH1 0x1 PUSH0 SWAP1 SLOAD SWAP1 PUSH2 0x100 EXP SWAP1 DIV PUSH20 0xFFFFFFFFFFFFFFFFFFFFFFFFFFFFFFFFFFFFFFFF AND PUSH20 0xFFFFFFFFFFFFFFFFFFFFFFFFFFFFFFFFFFFFFFFF AND PUSH4 0x23B872DD PUSH1 0x2 PUSH0 SWAP1 SLOAD SWAP1 PUSH2 0x100 EXP SWAP1 DIV PUSH20 0xFFFFFFFFFFFFFFFFFFFFFFFFFFFFFFFFFFFFFFFF AND PUSH2 0x97E PUSH2 0xA2C JUMP JUMPDEST DUP5 PUSH1 0x40 MLOAD DUP5 PUSH4 0xFFFFFFFF AND PUSH1 0xE0 SHL DUP2 MSTORE PUSH1 0x4 ADD PUSH2 0x99D SWAP4 SWAP3 SWAP2 SWAP1 PUSH2 0xF6A JUMP JUMPDEST PUSH1 0x20 PUSH1 0x40 MLOAD DUP1 DUP4 SUB DUP2 PUSH0 DUP8 GAS CALL ISZERO DUP1 ISZERO PUSH2 0x9B9 JUMPI RETURNDATASIZE PUSH0 PUSH0 RETURNDATACOPY RETURNDATASIZE PUSH0 REVERT JUMPDEST POP POP POP POP PUSH1 0x40 MLOAD RETURNDATASIZE PUSH1 0x1F NOT PUSH1 0x1F DUP3 ADD AND DUP3 ADD DUP1 PUSH1 0x40 MSTORE POP DUP2 ADD SWAP1 PUSH2 0x9DD SWAP2 SWAP1 PUSH2 0x103C JUMP JUMPDEST POP POP POP JUMP JUMPDEST PUSH1 0x1 PUSH0 SWAP1 SLOAD SWAP1 PUSH2 0x100 EXP SWAP1 DIV PUSH20 0xFFFFFFFFFFFFFFFFFFFFFFFFFFFFFFFFFFFFFFFF AND DUP2 JUMP JUMPDEST PUSH1 0x2 PUSH0 SWAP1 SLOAD SWAP1 PUSH2 0x100 EXP SWAP1 DIV PUSH20 0xFFFFFFFFFFFFFFFFFFFFFFFFFFFFFFFFFFFFFFFF AND DUP2 JUMP JUMPDEST PUSH0 CALLER SWAP1 POP SWAP1 JUMP JUMPDEST PUSH0 PUSH0 REVERT JUMPDEST PUSH0 PUSH0 REVERT JUMPDEST PUSH0 PUSH20 0xFFFFFFFFFFFFFFFFFFFFFFFFFFFFFFFFFFFFFFFF DUP3 AND SWAP1 POP SWAP2 SWAP1 POP JUMP JUMPDEST PUSH0 PUSH2 0xA64 DUP3 PUSH2 0xA3B JUMP JUMPDEST SWAP1 POP SWAP2 SWAP1 POP JUMP JUMPDEST PUSH2 0xA74 DUP2 PUSH2 0xA5A JUMP JUMPDEST DUP2 EQ PUSH2 0xA7E JUMPI PUSH0 PUSH0 REVERT JUMPDEST POP JUMP JUMPDEST PUSH0 DUP2 CALLDATALOAD SWAP1 POP PUSH2 0xA8F DUP2 PUSH2 0xA6B JUMP JUMPDEST SWAP3 SWAP2 POP POP JUMP JUMPDEST PUSH0 PUSH1 0x20 DUP3 DUP5 SUB SLT ISZERO PUSH2 0xAAA JUMPI PUSH2 0xAA9 PUSH2 0xA33 JUMP JUMPDEST JUMPDEST PUSH0 PUSH2 0xAB7 DUP5 DUP3 DUP6 ADD PUSH2 0xA81 JUMP JUMPDEST SWAP2 POP POP SWAP3 SWAP2 POP POP JUMP JUMPDEST PUSH0 DUP2 SWAP1 POP SWAP2 SWAP1 POP JUMP JUMPDEST PUSH2 0xAD2 DUP2 PUSH2 0xAC0 JUMP JUMPDEST DUP3 MSTORE POP POP JUMP JUMPDEST PUSH0 PUSH1 0x20 DUP3 ADD SWAP1 POP PUSH2 0xAEB PUSH0 DUP4 ADD DUP5 PUSH2 0xAC9 JUMP JUMPDEST SWAP3 SWAP2 POP POP JUMP JUMPDEST PUSH2 0xAFA DUP2 PUSH2 0xAC0 JUMP JUMPDEST DUP2 EQ PUSH2 0xB04 JUMPI PUSH0 PUSH0 REVERT JUMPDEST POP JUMP JUMPDEST PUSH0 DUP2 CALLDATALOAD SWAP1 POP PUSH2 0xB15 DUP2 PUSH2 0xAF1 JUMP JUMPDEST SWAP3 SWAP2 POP POP JUMP JUMPDEST PUSH0 PUSH0 REVERT JUMPDEST PUSH0 PUSH0 REVERT JUMPDEST PUSH0 PUSH0 REVERT JUMPDEST PUSH0 PUSH0 DUP4 PUSH1 0x1F DUP5 ADD SLT PUSH2 0xB3C JUMPI PUSH2 0xB3B PUSH2 0xB1B JUMP JUMPDEST JUMPDEST DUP3 CALLDATALOAD SWAP1 POP PUSH8 0xFFFFFFFFFFFFFFFF DUP2 GT ISZERO PUSH2 0xB59 JUMPI PUSH2 0xB58 PUSH2 0xB1F JUMP JUMPDEST JUMPDEST PUSH1 0x20 DUP4 ADD SWAP2 POP DUP4 PUSH1 0x1 DUP3 MUL DUP4 ADD GT ISZERO PUSH2 0xB75 JUMPI PUSH2 0xB74 PUSH2 0xB23 JUMP JUMPDEST JUMPDEST SWAP3 POP SWAP3 SWAP1 POP JUMP JUMPDEST PUSH0 PUSH0 PUSH0 PUSH0 PUSH0 PUSH1 0x80 DUP7 DUP9 SUB SLT ISZERO PUSH2 0xB95 JUMPI PUSH2 0xB94 PUSH2 0xA33 JUMP JUMPDEST JUMPDEST PUSH0 PUSH2 0xBA2 DUP9 DUP3 DUP10 ADD PUSH2 0xA81 JUMP JUMPDEST SWAP6 POP POP PUSH1 0x20 PUSH2 0xBB3 DUP9 DUP3 DUP10 ADD PUSH2 0xA81 JUMP JUMPDEST SWAP5 POP POP PUSH1 0x40 PUSH2 0xBC4 DUP9 DUP3 DUP10 ADD PUSH2 0xB07 JUMP JUMPDEST SWAP4 POP POP PUSH1 0x60 DUP7 ADD CALLDATALOAD PUSH8 0xFFFFFFFFFFFFFFFF DUP2 GT ISZERO PUSH2 0xBE5 JUMPI PUSH2 0xBE4 PUSH2 0xA37 JUMP JUMPDEST JUMPDEST PUSH2 0xBF1 DUP9 DUP3 DUP10 ADD PUSH2 0xB27 JUMP JUMPDEST SWAP3 POP SWAP3 POP POP SWAP3 SWAP6 POP SWAP3 SWAP6 SWAP1 SWAP4 POP JUMP JUMPDEST PUSH0 PUSH32 0xFFFFFFFF00000000000000000000000000000000000000000000000000000000 DUP3 AND SWAP1 POP SWAP2 SWAP1 POP JUMP JUMPDEST PUSH2 0xC34 DUP2 PUSH2 0xC00 JUMP JUMPDEST DUP3 MSTORE POP POP JUMP JUMPDEST PUSH0 PUSH1 0x20 DUP3 ADD SWAP1 POP PUSH2 0xC4D PUSH0 DUP4 ADD DUP5 PUSH2 0xC2B JUMP JUMPDEST SWAP3 SWAP2 POP POP JUMP JUMPDEST PUSH0 PUSH1 0x20 DUP3 DUP5 SUB SLT ISZERO PUSH2 0xC68 JUMPI PUSH2 0xC67 PUSH2 0xA33 JUMP JUMPDEST JUMPDEST PUSH0 PUSH2 0xC75 DUP5 DUP3 DUP6 ADD PUSH2 0xB07 JUMP JUMPDEST SWAP2 POP POP SWAP3 SWAP2 POP POP JUMP JUMPDEST PUSH0 DUP2 SWAP1 POP SWAP2 SWAP1 POP JUMP JUMPDEST PUSH0 PUSH2 0xCA1 PUSH2 0xC9C PUSH2 0xC97 DUP5 PUSH2 0xA3B JUMP JUMPDEST PUSH2 0xC7E JUMP JUMPDEST PUSH2 0xA3B JUMP JUMPDEST SWAP1 POP SWAP2 SWAP1 POP JUMP JUMPDEST PUSH0 PUSH2 0xCB2 DUP3 PUSH2 0xC87 JUMP JUMPDEST SWAP1 POP SWAP2 SWAP1 POP JUMP JUMPDEST PUSH0 PUSH2 0xCC3 DUP3 PUSH2 0xCA8 JUMP JUMPDEST SWAP1 POP SWAP2 SWAP1 POP JUMP JUMPDEST PUSH2 0xCD3 DUP2 PUSH2 0xCB9 JUMP JUMPDEST DUP3 MSTORE POP POP JUMP JUMPDEST PUSH0 PUSH1 0x20 DUP3 ADD SWAP1 POP PUSH2 0xCEC PUSH0 DUP4 ADD DUP5 PUSH2 0xCCA JUMP JUMPDEST SWAP3 SWAP2 POP POP JUMP JUMPDEST PUSH0 PUSH2 0xCFC DUP3 PUSH2 0xCA8 JUMP JUMPDEST SWAP1 POP SWAP2 SWAP1 POP JUMP JUMPDEST PUSH2 0xD0C DUP2 PUSH2 0xCF2 JUMP JUMPDEST DUP3 MSTORE POP POP JUMP JUMPDEST PUSH0 PUSH1 0x20 DUP3 ADD SWAP1 POP PUSH2 0xD25 PUSH0 DUP4 ADD DUP5 PUSH2 0xD03 JUMP JUMPDEST SWAP3 SWAP2 POP POP JUMP JUMPDEST PUSH2 0xD34 DUP2 PUSH2 0xA5A JUMP JUMPDEST DUP3 MSTORE POP POP JUMP JUMPDEST PUSH0 PUSH1 0x20 DUP3 ADD SWAP1 POP PUSH2 0xD4D PUSH0 DUP4 ADD DUP5 PUSH2 0xD2B JUMP JUMPDEST SWAP3 SWAP2 POP POP JUMP JUMPDEST PUSH32 0x4E487B7100000000000000000000000000000000000000000000000000000000 PUSH0 MSTORE PUSH1 0x11 PUSH1 0x4 MSTORE PUSH1 0x24 PUSH0 REVERT JUMPDEST PUSH0 PUSH2 0xD8A DUP3 PUSH2 0xAC0 JUMP JUMPDEST SWAP2 POP PUSH2 0xD95 DUP4 PUSH2 0xAC0 JUMP JUMPDEST SWAP3 POP DUP3 DUP3 SUB SWAP1 POP DUP2 DUP2 GT ISZERO PUSH2 0xDAD JUMPI PUSH2 0xDAC PUSH2 0xD53 JUMP JUMPDEST JUMPDEST SWAP3 SWAP2 POP POP JUMP JUMPDEST PUSH0 PUSH2 0xDBD DUP3 PUSH2 0xAC0 JUMP JUMPDEST SWAP2 POP PUSH2 0xDC8 DUP4 PUSH2 0xAC0 JUMP JUMPDEST SWAP3 POP DUP3 DUP3 MUL PUSH2 0xDD6 DUP2 PUSH2 0xAC0 JUMP JUMPDEST SWAP2 POP DUP3 DUP3 DIV DUP5 EQ DUP4 ISZERO OR PUSH2 0xDED JUMPI PUSH2 0xDEC PUSH2 0xD53 JUMP JUMPDEST JUMPDEST POP SWAP3 SWAP2 POP POP JUMP JUMPDEST PUSH32 0x4E487B7100000000000000000000000000000000000000000000000000000000 PUSH0 MSTORE PUSH1 0x12 PUSH1 0x4 MSTORE PUSH1 0x24 PUSH0 REVERT JUMPDEST PUSH0 PUSH2 0xE2B DUP3 PUSH2 0xAC0 JUMP JUMPDEST SWAP2 POP PUSH2 0xE36 DUP4 PUSH2 0xAC0 JUMP JUMPDEST SWAP3 POP DUP3 PUSH2 0xE46 JUMPI PUSH2 0xE45 PUSH2 0xDF4 JUMP JUMPDEST JUMPDEST DUP3 DUP3 DIV SWAP1 POP SWAP3 SWAP2 POP POP JUMP JUMPDEST PUSH0 PUSH2 0xE5B DUP3 PUSH2 0xAC0 JUMP JUMPDEST SWAP2 POP PUSH2 0xE66 DUP4 PUSH2 0xAC0 JUMP JUMPDEST SWAP3 POP DUP3 DUP3 ADD SWAP1 POP DUP1 DUP3 GT ISZERO PUSH2 0xE7E JUMPI PUSH2 0xE7D PUSH2 0xD53 JUMP JUMPDEST JUMPDEST SWAP3 SWAP2 POP POP JUMP JUMPDEST PUSH0 PUSH2 0xE8E DUP3 PUSH2 0xAC0 JUMP JUMPDEST SWAP2 POP PUSH32 0xFFFFFFFFFFFFFFFFFFFFFFFFFFFFFFFFFFFFFFFFFFFFFFFFFFFFFFFFFFFFFFFF DUP3 SUB PUSH2 0xEC0 JUMPI PUSH2 0xEBF PUSH2 0xD53 JUMP JUMPDEST JUMPDEST PUSH1 0x1 DUP3 ADD SWAP1 POP SWAP2 SWAP1 POP JUMP JUMPDEST PUSH0 DUP3 DUP3 MSTORE PUSH1 0x20 DUP3 ADD SWAP1 POP SWAP3 SWAP2 POP POP JUMP JUMPDEST PUSH32 0x546F6B656E206973206E6F74207374616B65642E000000000000000000000000 PUSH0 DUP3 ADD MSTORE POP JUMP JUMPDEST PUSH0 PUSH2 0xF0F PUSH1 0x14 DUP4 PUSH2 0xECB JUMP JUMPDEST SWAP2 POP PUSH2 0xF1A DUP3 PUSH2 0xEDB JUMP JUMPDEST PUSH1 0x20 DUP3 ADD SWAP1 POP SWAP2 SWAP1 POP JUMP JUMPDEST PUSH0 PUSH1 0x20 DUP3 ADD SWAP1 POP DUP2 DUP2 SUB PUSH0 DUP4 ADD MSTORE PUSH2 0xF3C DUP2 PUSH2 0xF03 JUMP JUMPDEST SWAP1 POP SWAP2 SWAP1 POP JUMP JUMPDEST PUSH0 PUSH2 0xF4D DUP3 PUSH2 0xAC0 JUMP JUMPDEST SWAP2 POP PUSH0 DUP3 SUB PUSH2 0xF5F JUMPI PUSH2 0xF5E PUSH2 0xD53 JUMP JUMPDEST JUMPDEST PUSH1 0x1 DUP3 SUB SWAP1 POP SWAP2 SWAP1 POP JUMP JUMPDEST PUSH0 PUSH1 0x60 DUP3 ADD SWAP1 POP PUSH2 0xF7D PUSH0 DUP4 ADD DUP7 PUSH2 0xD2B JUMP JUMPDEST PUSH2 0xF8A PUSH1 0x20 DUP4 ADD DUP6 PUSH2 0xD2B JUMP JUMPDEST PUSH2 0xF97 PUSH1 0x40 DUP4 ADD DUP5 PUSH2 0xAC9 JUMP JUMPDEST SWAP5 SWAP4 POP POP POP POP JUMP JUMPDEST PUSH32 0x4E6F7468696E6720746F2072656465656D000000000000000000000000000000 PUSH0 DUP3 ADD MSTORE POP JUMP JUMPDEST PUSH0 PUSH2 0xFD3 PUSH1 0x11 DUP4 PUSH2 0xECB JUMP JUMPDEST SWAP2 POP PUSH2 0xFDE DUP3 PUSH2 0xF9F JUMP JUMPDEST PUSH1 0x20 DUP3 ADD SWAP1 POP SWAP2 SWAP1 POP JUMP JUMPDEST PUSH0 PUSH1 0x20 DUP3 ADD SWAP1 POP DUP2 DUP2 SUB PUSH0 DUP4 ADD MSTORE PUSH2 0x1000 DUP2 PUSH2 0xFC7 JUMP JUMPDEST SWAP1 POP SWAP2 SWAP1 POP JUMP JUMPDEST PUSH0 DUP2 ISZERO ISZERO SWAP1 POP SWAP2 SWAP1 POP JUMP JUMPDEST PUSH2 0x101B DUP2 PUSH2 0x1007 JUMP JUMPDEST DUP2 EQ PUSH2 0x1025 JUMPI PUSH0 PUSH0 REVERT JUMPDEST POP JUMP JUMPDEST PUSH0 DUP2 MLOAD SWAP1 POP PUSH2 0x1036 DUP2 PUSH2 0x1012 JUMP JUMPDEST SWAP3 SWAP2 POP POP JUMP JUMPDEST PUSH0 PUSH1 0x20 DUP3 DUP5 SUB SLT ISZERO PUSH2 0x1051 JUMPI PUSH2 0x1050 PUSH2 0xA33 JUMP JUMPDEST JUMPDEST PUSH0 PUSH2 0x105E DUP5 DUP3 DUP6 ADD PUSH2 0x1028 JUMP JUMPDEST SWAP2 POP POP SWAP3 SWAP2 POP POP JUMP INVALID LOG2 PUSH5 0x6970667358 0x22 SLT KECCAK256 SWAP10 PUSH19 0xCA08ED8462783D2EACCC641C3FF5E9DEE2185B MULMOD PUSH19 0xE94DA54F74D786569B64736F6C634300081B00 CALLER "
				},
				"gasEstimates": {
					"creation": {
						"codeDepositCost": "850600",
						"executionCost": "infinite",
						"totalCost": "infinite"
					},
					"external": {
						"available(address)": "infinite",
						"balanceOf(address)": "2824",
						"lastUpdateTime(address)": "2847",
						"nft()": "infinite",
						"onERC721Received(address,address,uint256,bytes)": "infinite",
						"redeem()": "infinite",
						"rewardPerTokenPerDay()": "2492",
						"rewardToken()": "infinite",
						"rewardWallet()": "2618",
						"stake(uint256)": "infinite",
						"withdraw(uint256)": "infinite"
					}
				},
				"methodIdentifiers": {
					"available(address)": "10098ad5",
					"balanceOf(address)": "70a08231",
					"lastUpdateTime(address)": "2ce9aead",
					"nft()": "47ccca02",
					"onERC721Received(address,address,uint256,bytes)": "150b7a02",
					"redeem()": "be040fb0",
					"rewardPerTokenPerDay()": "2d6a1fa6",
					"rewardToken()": "f7c618c1",
					"rewardWallet()": "fb75b2c7",
					"stake(uint256)": "a694fc3a",
					"withdraw(uint256)": "2e1a7d4d"
				}
			},
			"storageLayout": {
				"storage": [
					{
						"astId": 259,
						"contract": "nft-staking-with-infinite-rewards/nft-staking-with-infinite-rewards.sol:NFTStakingPerToken",
						"label": "nft",
						"offset": 0,
						"slot": "0",
						"type": "t_contract(IERC721)193"
					},
					{
						"astId": 262,
						"contract": "nft-staking-with-infinite-rewards/nft-staking-with-infinite-rewards.sol:NFTStakingPerToken",
						"label": "rewardToken",
						"offset": 0,
						"slot": "1",
						"type": "t_contract(IERC20)77"
					},
					{
						"astId": 264,
						"contract": "nft-staking-with-infinite-rewards/nft-staking-with-infinite-rewards.sol:NFTStakingPerToken",
						"label": "rewardWallet",
						"offset": 0,
						"slot": "2",
						"type": "t_address"
					},
					{
						"astId": 267,
						"contract": "nft-staking-with-infinite-rewards/nft-staking-with-infinite-rewards.sol:NFTStakingPerToken",
						"label": "rewardPerTokenPerDay",
						"offset": 0,
						"slot": "3",
						"type": "t_uint256"
					},
					{
						"astId": 271,
						"contract": "nft-staking-with-infinite-rewards/nft-staking-with-infinite-rewards.sol:NFTStakingPerToken",
						"label": "stakedTokens",
						"offset": 0,
						"slot": "4",
						"type": "t_mapping(t_uint256,t_address)"
					},
					{
						"astId": 275,
						"contract": "nft-staking-with-infinite-rewards/nft-staking-with-infinite-rewards.sol:NFTStakingPerToken",
						"label": "balanceOf",
						"offset": 0,
						"slot": "5",
						"type": "t_mapping(t_address,t_uint256)"
					},
					{
						"astId": 279,
						"contract": "nft-staking-with-infinite-rewards/nft-staking-with-infinite-rewards.sol:NFTStakingPerToken",
						"label": "lastUpdateTime",
						"offset": 0,
						"slot": "6",
						"type": "t_mapping(t_address,t_uint256)"
					},
					{
						"astId": 283,
						"contract": "nft-staking-with-infinite-rewards/nft-staking-with-infinite-rewards.sol:NFTStakingPerToken",
						"label": "reward",
						"offset": 0,
						"slot": "7",
						"type": "t_mapping(t_address,t_uint256)"
					}
				],
				"types": {
					"t_address": {
						"encoding": "inplace",
						"label": "address",
						"numberOfBytes": "20"
					},
					"t_contract(IERC20)77": {
						"encoding": "inplace",
						"label": "contract IERC20",
						"numberOfBytes": "20"
					},
					"t_contract(IERC721)193": {
						"encoding": "inplace",
						"label": "contract IERC721",
						"numberOfBytes": "20"
					},
					"t_mapping(t_address,t_uint256)": {
						"encoding": "mapping",
						"key": "t_address",
						"label": "mapping(address => uint256)",
						"numberOfBytes": "32",
						"value": "t_uint256"
					},
					"t_mapping(t_uint256,t_address)": {
						"encoding": "mapping",
						"key": "t_uint256",
						"label": "mapping(uint256 => address)",
						"numberOfBytes": "32",
						"value": "t_address"
					},
					"t_uint256": {
						"encoding": "inplace",
						"label": "uint256",
						"numberOfBytes": "32"
					}
				}
			},
			"userdoc": {
				"kind": "user",
				"methods": {},
				"notice": "Staking, NFT, ERC721",
				"version": 1
			}
		}
	}
}