{
	"data": {
		"bytecode": {
			"linkReferences": {},
			"object": "60a06040526001600c5f6101000a81548160ff02191690831515021790555060405161406e38038061406e833981810160405281019061003f91906102f1565b8484815f908161004f91906105c3565b50806001908161005f91906105c3565b50505061007e6100736100a760201b60201c565b6100ae60201b60201c565b82600b908161008d91906105c3565b50806080818152505081600d819055505050505050610692565b5f33905090565b5f600a5f9054906101000a900473ffffffffffffffffffffffffffffffffffffffff16905081600a5f6101000a81548173ffffffffffffffffffffffffffffffffffffffff021916908373ffffffffffffffffffffffffffffffffffffffff1602179055508173ffffffffffffffffffffffffffffffffffffffff168173ffffffffffffffffffffffffffffffffffffffff167f8be0079c531659141344cd1fd0a4f28419497f9722a3daafe3b4186f6b6457e060405160405180910390a35050565b5f604051905090565b5f5ffd5b5f5ffd5b5f5ffd5b5f5ffd5b5f601f19601f8301169050919050565b7f4e487b71000000000000000000000000000000000000000000000000000000005f52604160045260245ffd5b6101d08261018a565b810181811067ffffffffffffffff821117156101ef576101ee61019a565b5b80604052505050565b5f610201610171565b905061020d82826101c7565b919050565b5f67ffffffffffffffff82111561022c5761022b61019a565b5b6102358261018a565b9050602081019050919050565b8281835e5f83830152505050565b5f61026261025d84610212565b6101f8565b90508281526020810184848401111561027e5761027d610186565b5b610289848285610242565b509392505050565b5f82601f8301126102a5576102a4610182565b5b81516102b5848260208601610250565b91505092915050565b5f819050919050565b6102d0816102be565b81146102da575f5ffd5b50565b5f815190506102eb816102c7565b92915050565b5f5f5f5f5f60a0868803121561030a5761030961017a565b5b5f86015167ffffffffffffffff8111156103275761032661017e565b5b61033388828901610291565b955050602086015167ffffffffffffffff8111156103545761035361017e565b5b61036088828901610291565b945050604086015167ffffffffffffffff8111156103815761038061017e565b5b61038d88828901610291565b935050606061039e888289016102dd565b92505060806103af888289016102dd565b9150509295509295909350565b5f81519050919050565b7f4e487b71000000000000000000000000000000000000000000000000000000005f52602260045260245ffd5b5f600282049050600182168061040a57607f821691505b60208210810361041d5761041c6103c6565b5b50919050565b5f819050815f5260205f209050919050565b5f6020601f8301049050919050565b5f82821b905092915050565b5f6008830261047f7fffffffffffffffffffffffffffffffffffffffffffffffffffffffffffffffff82610444565b6104898683610444565b95508019841693508086168417925050509392505050565b5f819050919050565b5f6104c46104bf6104ba846102be565b6104a1565b6102be565b9050919050565b5f819050919050565b6104dd836104aa565b6104f16104e9826104cb565b848454610450565b825550505050565b5f5f905090565b6105086104f9565b6105138184846104d4565b505050565b5b818110156105365761052b5f82610500565b600181019050610519565b5050565b601f82111561057b5761054c81610423565b61055584610435565b81016020851015610564578190505b61057861057085610435565b830182610518565b50505b505050565b5f82821c905092915050565b5f61059b5f1984600802610580565b1980831691505092915050565b5f6105b3838361058c565b9150826002028217905092915050565b6105cc826103bc565b67ffffffffffffffff8111156105e5576105e461019a565b5b6105ef82546103f3565b6105fa82828561053a565b5f60209050601f83116001811461062b575f8415610619578287015190505b61062385826105a8565b86555061068a565b601f19841661063986610423565b5f5b828110156106605784890151825560018201915060208501945060208101905061063b565b8683101561067d5784890151610679601f89168261058c565b8355505b6001600288020188555050505b505050505050565b6080516139b66106b85f395f81816109d401528181610c740152610e2d01526139b65ff3fe6080604052600436106101b6575f3560e01c80636352211e116100eb578063a0712d6811610089578063c87b56dd11610063578063c87b56dd146105ce578063e985e9c51461060a578063eb8d244414610646578063f2fde38b14610670576101b6565b8063a0712d6814610562578063a22cb4651461057e578063b88d4fde146105a6576101b6565b8063819b25ba116100c5578063819b25ba146104bc5780638da5cb5b146104e457806395d89b411461050e5780639d1b464a14610538576101b6565b80636352211e1461042e57806370a082311461046a578063715018a6146104a6576101b6565b806323b872dd116101585780633ccfd60b116101325780633ccfd60b1461038c57806342842e0e146103a25780634f6ccce7146103ca57806355f804b314610406576101b6565b806323b872dd146102fe5780632f745c591461032657806332cb6b0c14610362576101b6565b8063081812fc11610194578063081812fc14610248578063095ea7b31461028457806318160ddd146102ac57806318b20071146102d6576101b6565b806301ffc9a7146101ba57806302c88989146101f657806306fdde031461021e575b5f5ffd5b3480156101c5575f5ffd5b506101e060048036038101906101db9190612477565b610698565b6040516101ed91906124bc565b60405180910390f35b348015610201575f5ffd5b5061021c600480360381019061021791906124ff565b6106a9565b005b348015610229575f5ffd5b506102326106cd565b60405161023f919061259a565b60405180910390f35b348015610253575f5ffd5b5061026e600480360381019061026991906125ed565b61075c565b60405161027b9190612657565b60405180910390f35b34801561028f575f5ffd5b506102aa60048036038101906102a5919061269a565b61079e565b005b3480156102b7575f5ffd5b506102c06108b4565b6040516102cd91906126e7565b60405180910390f35b3480156102e1575f5ffd5b506102fc60048036038101906102f791906125ed565b6108c0565b005b348015610309575f5ffd5b50610324600480360381019061031f9190612700565b6108d2565b005b348015610331575f5ffd5b5061034c6004803603810190610347919061269a565b610932565b60405161035991906126e7565b60405180910390f35b34801561036d575f5ffd5b506103766109d2565b60405161038391906126e7565b60405180910390f35b348015610397575f5ffd5b506103a06109f6565b005b3480156103ad575f5ffd5b506103c860048036038101906103c39190612700565b610a44565b005b3480156103d5575f5ffd5b506103f060048036038101906103eb91906125ed565b610a63565b6040516103fd91906126e7565b60405180910390f35b348015610411575f5ffd5b5061042c6004803603810190610427919061287c565b610ad1565b005b348015610439575f5ffd5b50610454600480360381019061044f91906125ed565b610aec565b6040516104619190612657565b60405180910390f35b348015610475575f5ffd5b50610490600480360381019061048b91906128c3565b610b98565b60405161049d91906126e7565b60405180910390f35b3480156104b1575f5ffd5b506104ba610c4c565b005b3480156104c7575f5ffd5b506104e260048036038101906104dd91906125ed565b610c5f565b005b3480156104ef575f5ffd5b506104f8610d14565b6040516105059190612657565b60405180910390f35b348015610519575f5ffd5b50610522610d3c565b60405161052f919061259a565b60405180910390f35b348015610543575f5ffd5b5061054c610dcc565b60405161055991906126e7565b60405180910390f35b61057c600480360381019061057791906125ed565b610dd2565b005b348015610589575f5ffd5b506105a4600480360381019061059f91906128ee565b610f1d565b005b3480156105b1575f5ffd5b506105cc60048036038101906105c791906129ca565b610f33565b005b3480156105d9575f5ffd5b506105f460048036038101906105ef91906125ed565b610f95565b604051610601919061259a565b60405180910390f35b348015610615575f5ffd5b50610630600480360381019061062b9190612a4a565b610ffa565b60405161063d91906124bc565b60405180910390f35b348015610651575f5ffd5b5061065a611088565b60405161066791906124bc565b60405180910390f35b34801561067b575f5ffd5b50610696600480360381019061069191906128c3565b61109a565b005b5f6106a28261111c565b9050919050565b6106b1611195565b80600c5f6101000a81548160ff02191690831515021790555050565b60605f80546106db90612ab5565b80601f016020809104026020016040519081016040528092919081815260200182805461070790612ab5565b80156107525780601f1061072957610100808354040283529160200191610752565b820191905f5260205f20905b81548152906001019060200180831161073557829003601f168201915b5050505050905090565b5f61076682611213565b60045f8381526020019081526020015f205f9054906101000a900473ffffffffffffffffffffffffffffffffffffffff169050919050565b5f6107a882610aec565b90508073ffffffffffffffffffffffffffffffffffffffff168373ffffffffffffffffffffffffffffffffffffffff1603610818576040517f08c379a000000000000000000000000000000000000000000000000000000000815260040161080f90612b55565b60405180910390fd5b8073ffffffffffffffffffffffffffffffffffffffff1661083761125e565b73ffffffffffffffffffffffffffffffffffffffff16148061086657506108658161086061125e565b610ffa565b5b6108a5576040517f08c379a000000000000000000000000000000000000000000000000000000000815260040161089c90612be3565b60405180910390fd5b6108af8383611265565b505050565b5f600880549050905090565b6108c8611195565b80600d8190555050565b6108e36108dd61125e565b8261131b565b610922576040517f08c379a000000000000000000000000000000000000000000000000000000000815260040161091990612c71565b60405180910390fd5b61092d8383836113af565b505050565b5f61093c83610b98565b821061097d576040517f08c379a000000000000000000000000000000000000000000000000000000000815260040161097490612cff565b60405180910390fd5b60065f8473ffffffffffffffffffffffffffffffffffffffff1673ffffffffffffffffffffffffffffffffffffffff1681526020019081526020015f205f8381526020019081526020015f2054905092915050565b7f000000000000000000000000000000000000000000000000000000000000000081565b6109fe611195565b3373ffffffffffffffffffffffffffffffffffffffff166108fc4790811502906040515f60405180830381858888f19350505050158015610a41573d5f5f3e3d5ffd5b50565b610a5e83838360405180602001604052805f815250610f33565b505050565b5f610a6c6108b4565b8210610aad576040517f08c379a0000000000000000000000000000000000000000000000000000000008152600401610aa490612d8d565b60405180910390fd5b60088281548110610ac157610ac0612dab565b5b905f5260205f2001549050919050565b610ad9611195565b80600b9081610ae89190612f78565b5050565b5f5f60025f8481526020019081526020015f205f9054906101000a900473ffffffffffffffffffffffffffffffffffffffff1690505f73ffffffffffffffffffffffffffffffffffffffff168173ffffffffffffffffffffffffffffffffffffffff1603610b8f576040517f08c379a0000000000000000000000000000000000000000000000000000000008152600401610b8690613091565b60405180910390fd5b80915050919050565b5f5f73ffffffffffffffffffffffffffffffffffffffff168273ffffffffffffffffffffffffffffffffffffffff1603610c07576040517f08c379a0000000000000000000000000000000000000000000000000000000008152600401610bfe9061311f565b60405180910390fd5b60035f8373ffffffffffffffffffffffffffffffffffffffff1673ffffffffffffffffffffffffffffffffffffffff1681526020019081526020015f20549050919050565b610c54611195565b610c5d5f61160a565b565b610c67611195565b5f610c706108b4565b90507f00000000000000000000000000000000000000000000000000000000000000008282610c9f919061316a565b1115610ce0576040517f08c379a0000000000000000000000000000000000000000000000000000000008152600401610cd7906131e7565b60405180910390fd5b5f5f90505b82811015610d0f57610d02338284610cfd919061316a565b6116cd565b8080600101915050610ce5565b505050565b5f600a5f9054906101000a900473ffffffffffffffffffffffffffffffffffffffff16905090565b606060018054610d4b90612ab5565b80601f0160208091040260200160405190810160405280929190818152602001828054610d7790612ab5565b8015610dc25780601f10610d9957610100808354040283529160200191610dc2565b820191905f5260205f20905b815481529060010190602001808311610da557829003601f168201915b5050505050905090565b600d5481565b5f610ddb6108b4565b9050600c5f9054906101000a900460ff16610e2b576040517f08c379a0000000000000000000000000000000000000000000000000000000008152600401610e2290613275565b60405180910390fd5b7f00000000000000000000000000000000000000000000000000000000000000008282610e58919061316a565b1115610e99576040517f08c379a0000000000000000000000000000000000000000000000000000000008152600401610e90906131e7565b60405180910390fd5b3482600d54610ea89190613293565b1115610ee9576040517f08c379a0000000000000000000000000000000000000000000000000000000008152600401610ee09061331e565b60405180910390fd5b5f5f90505b82811015610f1857610f0b338284610f06919061316a565b6116cd565b8080600101915050610eee565b505050565b610f2f610f2861125e565b83836116ea565b5050565b610f44610f3e61125e565b8361131b565b610f83576040517f08c379a0000000000000000000000000000000000000000000000000000000008152600401610f7a90612c71565b60405180910390fd5b610f8f84848484611851565b50505050565b6060610fa082611213565b5f610fa96118ad565b90505f815111610fc75760405180602001604052805f815250610ff2565b80610fd18461193d565b604051602001610fe2929190613376565b6040516020818303038152906040525b915050919050565b5f60055f8473ffffffffffffffffffffffffffffffffffffffff1673ffffffffffffffffffffffffffffffffffffffff1681526020019081526020015f205f8373ffffffffffffffffffffffffffffffffffffffff1673ffffffffffffffffffffffffffffffffffffffff1681526020019081526020015f205f9054906101000a900460ff16905092915050565b600c5f9054906101000a900460ff1681565b6110a2611195565b5f73ffffffffffffffffffffffffffffffffffffffff168173ffffffffffffffffffffffffffffffffffffffff1603611110576040517f08c379a000000000000000000000000000000000000000000000000000000000815260040161110790613409565b60405180910390fd5b6111198161160a565b50565b5f7f780e9d63000000000000000000000000000000000000000000000000000000007bffffffffffffffffffffffffffffffffffffffffffffffffffffffff1916827bffffffffffffffffffffffffffffffffffffffffffffffffffffffff1916148061118e575061118d82611a96565b5b9050919050565b61119d61125e565b73ffffffffffffffffffffffffffffffffffffffff166111bb610d14565b73ffffffffffffffffffffffffffffffffffffffff1614611211576040517f08c379a000000000000000000000000000000000000000000000000000000000815260040161120890613471565b60405180910390fd5b565b61121c81611b77565b61125b576040517f08c379a000000000000000000000000000000000000000000000000000000000815260040161125290613091565b60405180910390fd5b50565b5f33905090565b8160045f8381526020019081526020015f205f6101000a81548173ffffffffffffffffffffffffffffffffffffffff021916908373ffffffffffffffffffffffffffffffffffffffff160217905550808273ffffffffffffffffffffffffffffffffffffffff166112d583610aec565b73ffffffffffffffffffffffffffffffffffffffff167f8c5be1e5ebec7d5bd14f71427d1e84f3dd0314c0f7b2291e5b200ac8c7c3b92560405160405180910390a45050565b5f5f61132683610aec565b90508073ffffffffffffffffffffffffffffffffffffffff168473ffffffffffffffffffffffffffffffffffffffff16148061136857506113678185610ffa565b5b806113a657508373ffffffffffffffffffffffffffffffffffffffff1661138e8461075c565b73ffffffffffffffffffffffffffffffffffffffff16145b91505092915050565b8273ffffffffffffffffffffffffffffffffffffffff166113cf82610aec565b73ffffffffffffffffffffffffffffffffffffffff1614611425576040517f08c379a000000000000000000000000000000000000000000000000000000000815260040161141c906134ff565b60405180910390fd5b5f73ffffffffffffffffffffffffffffffffffffffff168273ffffffffffffffffffffffffffffffffffffffff1603611493576040517f08c379a000000000000000000000000000000000000000000000000000000000815260040161148a9061358d565b60405180910390fd5b61149e838383611bdf565b6114a85f82611265565b600160035f8573ffffffffffffffffffffffffffffffffffffffff1673ffffffffffffffffffffffffffffffffffffffff1681526020019081526020015f205f8282546114f591906135ab565b92505081905550600160035f8473ffffffffffffffffffffffffffffffffffffffff1673ffffffffffffffffffffffffffffffffffffffff1681526020019081526020015f205f828254611549919061316a565b925050819055508160025f8381526020019081526020015f205f6101000a81548173ffffffffffffffffffffffffffffffffffffffff021916908373ffffffffffffffffffffffffffffffffffffffff160217905550808273ffffffffffffffffffffffffffffffffffffffff168473ffffffffffffffffffffffffffffffffffffffff167fddf252ad1be2c89b69c2b068fc378daa952ba7f163c4a11628f55a4df523b3ef60405160405180910390a4611605838383611bef565b505050565b5f600a5f9054906101000a900473ffffffffffffffffffffffffffffffffffffffff16905081600a5f6101000a81548173ffffffffffffffffffffffffffffffffffffffff021916908373ffffffffffffffffffffffffffffffffffffffff1602179055508173ffffffffffffffffffffffffffffffffffffffff168173ffffffffffffffffffffffffffffffffffffffff167f8be0079c531659141344cd1fd0a4f28419497f9722a3daafe3b4186f6b6457e060405160405180910390a35050565b6116e6828260405180602001604052805f815250611bf4565b5050565b8173ffffffffffffffffffffffffffffffffffffffff168373ffffffffffffffffffffffffffffffffffffffff1603611758576040517f08c379a000000000000000000000000000000000000000000000000000000000815260040161174f90613628565b60405180910390fd5b8060055f8573ffffffffffffffffffffffffffffffffffffffff1673ffffffffffffffffffffffffffffffffffffffff1681526020019081526020015f205f8473ffffffffffffffffffffffffffffffffffffffff1673ffffffffffffffffffffffffffffffffffffffff1681526020019081526020015f205f6101000a81548160ff0219169083151502179055508173ffffffffffffffffffffffffffffffffffffffff168373ffffffffffffffffffffffffffffffffffffffff167f17307eab39ab6107e8899845ad3d59bd9653f200f220920489ca2b5937696c318360405161184491906124bc565b60405180910390a3505050565b61185c8484846113af565b61186884848484611c4e565b6118a7576040517f08c379a000000000000000000000000000000000000000000000000000000000815260040161189e906136b6565b60405180910390fd5b50505050565b6060600b80546118bc90612ab5565b80601f01602080910402602001604051908101604052809291908181526020018280546118e890612ab5565b80156119335780601f1061190a57610100808354040283529160200191611933565b820191905f5260205f20905b81548152906001019060200180831161191657829003601f168201915b5050505050905090565b60605f8203611983576040518060400160405280600181526020017f30000000000000000000000000000000000000000000000000000000000000008152509050611a91565b5f8290505f5b5f82146119b257808061199b906136d4565b915050600a826119ab9190613748565b9150611989565b5f8167ffffffffffffffff8111156119cd576119cc612758565b5b6040519080825280601f01601f1916602001820160405280156119ff5781602001600182028036833780820191505090505b5090505b5f8514611a8a57600182611a1791906135ab565b9150600a85611a269190613778565b6030611a32919061316a565b60f81b818381518110611a4857611a47612dab565b5b60200101907effffffffffffffffffffffffffffffffffffffffffffffffffffffffffffff191690815f1a905350600a85611a839190613748565b9450611a03565b8093505050505b919050565b5f7f80ac58cd000000000000000000000000000000000000000000000000000000007bffffffffffffffffffffffffffffffffffffffffffffffffffffffff1916827bffffffffffffffffffffffffffffffffffffffffffffffffffffffff19161480611b6057507f5b5e139f000000000000000000000000000000000000000000000000000000007bffffffffffffffffffffffffffffffffffffffffffffffffffffffff1916827bffffffffffffffffffffffffffffffffffffffffffffffffffffffff1916145b80611b705750611b6f82611dd0565b5b9050919050565b5f5f73ffffffffffffffffffffffffffffffffffffffff1660025f8481526020019081526020015f205f9054906101000a900473ffffffffffffffffffffffffffffffffffffffff1673ffffffffffffffffffffffffffffffffffffffff1614159050919050565b611bea838383611e39565b505050565b505050565b611bfe8383611f49565b611c0a5f848484611c4e565b611c49576040517f08c379a0000000000000000000000000000000000000000000000000000000008152600401611c40906136b6565b60405180910390fd5b505050565b5f611c6e8473ffffffffffffffffffffffffffffffffffffffff16612118565b15611dc3578373ffffffffffffffffffffffffffffffffffffffff1663150b7a02611c9761125e565b8786866040518563ffffffff1660e01b8152600401611cb994939291906137fa565b6020604051808303815f875af1925050508015611cf457506040513d601f19601f82011682018060405250810190611cf19190613858565b60015b611d73573d805f8114611d22576040519150601f19603f3d011682016040523d82523d5f602084013e611d27565b606091505b505f815103611d6b576040517f08c379a0000000000000000000000000000000000000000000000000000000008152600401611d62906136b6565b60405180910390fd5b805181602001fd5b63150b7a0260e01b7bffffffffffffffffffffffffffffffffffffffffffffffffffffffff1916817bffffffffffffffffffffffffffffffffffffffffffffffffffffffff191614915050611dc8565b600190505b949350505050565b5f7f01ffc9a7000000000000000000000000000000000000000000000000000000007bffffffffffffffffffffffffffffffffffffffffffffffffffffffff1916827bffffffffffffffffffffffffffffffffffffffffffffffffffffffff1916149050919050565b611e4483838361213a565b5f73ffffffffffffffffffffffffffffffffffffffff168373ffffffffffffffffffffffffffffffffffffffff1603611e8557611e808161213f565b611ec4565b8173ffffffffffffffffffffffffffffffffffffffff168373ffffffffffffffffffffffffffffffffffffffff1614611ec357611ec28382612183565b5b5b5f73ffffffffffffffffffffffffffffffffffffffff168273ffffffffffffffffffffffffffffffffffffffff1603611f0557611f00816122d9565b611f44565b8273ffffffffffffffffffffffffffffffffffffffff168273ffffffffffffffffffffffffffffffffffffffff1614611f4357611f428282612399565b5b5b505050565b5f73ffffffffffffffffffffffffffffffffffffffff168273ffffffffffffffffffffffffffffffffffffffff1603611fb7576040517f08c379a0000000000000000000000000000000000000000000000000000000008152600401611fae906138cd565b60405180910390fd5b611fc081611b77565b15612000576040517f08c379a0000000000000000000000000000000000000000000000000000000008152600401611ff790613935565b60405180910390fd5b61200b5f8383611bdf565b600160035f8473ffffffffffffffffffffffffffffffffffffffff1673ffffffffffffffffffffffffffffffffffffffff1681526020019081526020015f205f828254612058919061316a565b925050819055508160025f8381526020019081526020015f205f6101000a81548173ffffffffffffffffffffffffffffffffffffffff021916908373ffffffffffffffffffffffffffffffffffffffff160217905550808273ffffffffffffffffffffffffffffffffffffffff165f73ffffffffffffffffffffffffffffffffffffffff167fddf252ad1be2c89b69c2b068fc378daa952ba7f163c4a11628f55a4df523b3ef60405160405180910390a46121145f8383611bef565b5050565b5f5f8273ffffffffffffffffffffffffffffffffffffffff163b119050919050565b505050565b60088054905060095f8381526020019081526020015f2081905550600881908060018154018082558091505060019003905f5260205f20015f909190919091505550565b5f600161218f84610b98565b61219991906135ab565b90505f60075f8481526020019081526020015f20549050818114612270575f60065f8673ffffffffffffffffffffffffffffffffffffffff1673ffffffffffffffffffffffffffffffffffffffff1681526020019081526020015f205f8481526020019081526020015f205490508060065f8773ffffffffffffffffffffffffffffffffffffffff1673ffffffffffffffffffffffffffffffffffffffff1681526020019081526020015f205f8481526020019081526020015f20819055508160075f8381526020019081526020015f2081905550505b60075f8481526020019081526020015f205f905560065f8573ffffffffffffffffffffffffffffffffffffffff1673ffffffffffffffffffffffffffffffffffffffff1681526020019081526020015f205f8381526020019081526020015f205f905550505050565b5f60016008805490506122ec91906135ab565b90505f60095f8481526020019081526020015f205490505f6008838154811061231857612317612dab565b5b905f5260205f2001549050806008838154811061233857612337612dab565b5b905f5260205f2001819055508160095f8381526020019081526020015f208190555060095f8581526020019081526020015f205f905560088054806123805761237f613953565b5b600190038181905f5260205f20015f9055905550505050565b5f6123a383610b98565b90508160065f8573ffffffffffffffffffffffffffffffffffffffff1673ffffffffffffffffffffffffffffffffffffffff1681526020019081526020015f205f8381526020019081526020015f20819055508060075f8481526020019081526020015f2081905550505050565b5f604051905090565b5f5ffd5b5f5ffd5b5f7fffffffff0000000000000000000000000000000000000000000000000000000082169050919050565b61245681612422565b8114612460575f5ffd5b50565b5f813590506124718161244d565b92915050565b5f6020828403121561248c5761248b61241a565b5b5f61249984828501612463565b91505092915050565b5f8115159050919050565b6124b6816124a2565b82525050565b5f6020820190506124cf5f8301846124ad565b92915050565b6124de816124a2565b81146124e8575f5ffd5b50565b5f813590506124f9816124d5565b92915050565b5f602082840312156125145761251361241a565b5b5f612521848285016124eb565b91505092915050565b5f81519050919050565b5f82825260208201905092915050565b8281835e5f83830152505050565b5f601f19601f8301169050919050565b5f61256c8261252a565b6125768185612534565b9350612586818560208601612544565b61258f81612552565b840191505092915050565b5f6020820190508181035f8301526125b28184612562565b905092915050565b5f819050919050565b6125cc816125ba565b81146125d6575f5ffd5b50565b5f813590506125e7816125c3565b92915050565b5f602082840312156126025761260161241a565b5b5f61260f848285016125d9565b91505092915050565b5f73ffffffffffffffffffffffffffffffffffffffff82169050919050565b5f61264182612618565b9050919050565b61265181612637565b82525050565b5f60208201905061266a5f830184612648565b92915050565b61267981612637565b8114612683575f5ffd5b50565b5f8135905061269481612670565b92915050565b5f5f604083850312156126b0576126af61241a565b5b5f6126bd85828601612686565b92505060206126ce858286016125d9565b9150509250929050565b6126e1816125ba565b82525050565b5f6020820190506126fa5f8301846126d8565b92915050565b5f5f5f606084860312156127175761271661241a565b5b5f61272486828701612686565b935050602061273586828701612686565b9250506040612746868287016125d9565b9150509250925092565b5f5ffd5b5f5ffd5b7f4e487b71000000000000000000000000000000000000000000000000000000005f52604160045260245ffd5b61278e82612552565b810181811067ffffffffffffffff821117156127ad576127ac612758565b5b80604052505050565b5f6127bf612411565b90506127cb8282612785565b919050565b5f67ffffffffffffffff8211156127ea576127e9612758565b5b6127f382612552565b9050602081019050919050565b828183375f83830152505050565b5f61282061281b846127d0565b6127b6565b90508281526020810184848401111561283c5761283b612754565b5b612847848285612800565b509392505050565b5f82601f83011261286357612862612750565b5b813561287384826020860161280e565b91505092915050565b5f602082840312156128915761289061241a565b5b5f82013567ffffffffffffffff8111156128ae576128ad61241e565b5b6128ba8482850161284f565b91505092915050565b5f602082840312156128d8576128d761241a565b5b5f6128e584828501612686565b91505092915050565b5f5f604083850312156129045761290361241a565b5b5f61291185828601612686565b9250506020612922858286016124eb565b9150509250929050565b5f67ffffffffffffffff82111561294657612945612758565b5b61294f82612552565b9050602081019050919050565b5f61296e6129698461292c565b6127b6565b90508281526020810184848401111561298a57612989612754565b5b612995848285612800565b509392505050565b5f82601f8301126129b1576129b0612750565b5b81356129c184826020860161295c565b91505092915050565b5f5f5f5f608085870312156129e2576129e161241a565b5b5f6129ef87828801612686565b9450506020612a0087828801612686565b9350506040612a11878288016125d9565b925050606085013567ffffffffffffffff811115612a3257612a3161241e565b5b612a3e8782880161299d565b91505092959194509250565b5f5f60408385031215612a6057612a5f61241a565b5b5f612a6d85828601612686565b9250506020612a7e85828601612686565b9150509250929050565b7f4e487b71000000000000000000000000000000000000000000000000000000005f52602260045260245ffd5b5f6002820490506001821680612acc57607f821691505b602082108103612adf57612ade612a88565b5b50919050565b7f4552433732313a20617070726f76616c20746f2063757272656e74206f776e655f8201527f7200000000000000000000000000000000000000000000000000000000000000602082015250565b5f612b3f602183612534565b9150612b4a82612ae5565b604082019050919050565b5f6020820190508181035f830152612b6c81612b33565b9050919050565b7f4552433732313a20617070726f76652063616c6c6572206973206e6f7420746f5f8201527f6b656e206f776e6572206e6f7220617070726f76656420666f7220616c6c0000602082015250565b5f612bcd603e83612534565b9150612bd882612b73565b604082019050919050565b5f6020820190508181035f830152612bfa81612bc1565b9050919050565b7f4552433732313a2063616c6c6572206973206e6f7420746f6b656e206f776e655f8201527f72206e6f7220617070726f766564000000000000000000000000000000000000602082015250565b5f612c5b602e83612534565b9150612c6682612c01565b604082019050919050565b5f6020820190508181035f830152612c8881612c4f565b9050919050565b7f455243373231456e756d657261626c653a206f776e657220696e646578206f755f8201527f74206f6620626f756e6473000000000000000000000000000000000000000000602082015250565b5f612ce9602b83612534565b9150612cf482612c8f565b604082019050919050565b5f6020820190508181035f830152612d1681612cdd565b9050919050565b7f455243373231456e756d657261626c653a20676c6f62616c20696e646578206f5f8201527f7574206f6620626f756e64730000000000000000000000000000000000000000602082015250565b5f612d77602c83612534565b9150612d8282612d1d565b604082019050919050565b5f6020820190508181035f830152612da481612d6b565b9050919050565b7f4e487b71000000000000000000000000000000000000000000000000000000005f52603260045260245ffd5b5f819050815f5260205f209050919050565b5f6020601f8301049050919050565b5f82821b905092915050565b5f60088302612e347fffffffffffffffffffffffffffffffffffffffffffffffffffffffffffffffff82612df9565b612e3e8683612df9565b95508019841693508086168417925050509392505050565b5f819050919050565b5f612e79612e74612e6f846125ba565b612e56565b6125ba565b9050919050565b5f819050919050565b612e9283612e5f565b612ea6612e9e82612e80565b848454612e05565b825550505050565b5f5f905090565b612ebd612eae565b612ec8818484612e89565b505050565b5b81811015612eeb57612ee05f82612eb5565b600181019050612ece565b5050565b601f821115612f3057612f0181612dd8565b612f0a84612dea565b81016020851015612f19578190505b612f2d612f2585612dea565b830182612ecd565b50505b505050565b5f82821c905092915050565b5f612f505f1984600802612f35565b1980831691505092915050565b5f612f688383612f41565b9150826002028217905092915050565b612f818261252a565b67ffffffffffffffff811115612f9a57612f99612758565b5b612fa48254612ab5565b612faf828285612eef565b5f60209050601f831160018114612fe0575f8415612fce578287015190505b612fd88582612f5d565b86555061303f565b601f198416612fee86612dd8565b5f5b8281101561301557848901518255600182019150602085019450602081019050612ff0565b86831015613032578489015161302e601f891682612f41565b8355505b6001600288020188555050505b505050505050565b7f4552433732313a20696e76616c696420746f6b656e20494400000000000000005f82015250565b5f61307b601883612534565b915061308682613047565b602082019050919050565b5f6020820190508181035f8301526130a88161306f565b9050919050565b7f4552433732313a2061646472657373207a65726f206973206e6f7420612076615f8201527f6c6964206f776e65720000000000000000000000000000000000000000000000602082015250565b5f613109602983612534565b9150613114826130af565b604082019050919050565b5f6020820190508181035f830152613136816130fd565b9050919050565b7f4e487b71000000000000000000000000000000000000000000000000000000005f52601160045260245ffd5b5f613174826125ba565b915061317f836125ba565b92508282019050808211156131975761319661313d565b5b92915050565b7f507572636861736520776f756c6420657863656564206d617820746f6b656e735f82015250565b5f6131d1602083612534565b91506131dc8261319d565b602082019050919050565b5f6020820190508181035f8301526131fe816131c5565b9050919050565b7f53616c65206d7573742062652061637469766520746f206d696e7420746f6b655f8201527f6e73000000000000000000000000000000000000000000000000000000000000602082015250565b5f61325f602283612534565b915061326a82613205565b604082019050919050565b5f6020820190508181035f83015261328c81613253565b9050919050565b5f61329d826125ba565b91506132a8836125ba565b92508282026132b6816125ba565b915082820484148315176132cd576132cc61313d565b5b5092915050565b7f56616c75652073656e74206973206e6f7420636f7272656374000000000000005f82015250565b5f613308601983612534565b9150613313826132d4565b602082019050919050565b5f6020820190508181035f830152613335816132fc565b9050919050565b5f81905092915050565b5f6133508261252a565b61335a818561333c565b935061336a818560208601612544565b80840191505092915050565b5f6133818285613346565b915061338d8284613346565b91508190509392505050565b7f4f776e61626c653a206e6577206f776e657220697320746865207a65726f20615f8201527f6464726573730000000000000000000000000000000000000000000000000000602082015250565b5f6133f3602683612534565b91506133fe82613399565b604082019050919050565b5f6020820190508181035f830152613420816133e7565b9050919050565b7f4f776e61626c653a2063616c6c6572206973206e6f7420746865206f776e65725f82015250565b5f61345b602083612534565b915061346682613427565b602082019050919050565b5f6020820190508181035f8301526134888161344f565b9050919050565b7f4552433732313a207472616e736665722066726f6d20696e636f7272656374205f8201527f6f776e6572000000000000000000000000000000000000000000000000000000602082015250565b5f6134e9602583612534565b91506134f48261348f565b604082019050919050565b5f6020820190508181035f830152613516816134dd565b9050919050565b7f4552433732313a207472616e7366657220746f20746865207a65726f206164645f8201527f7265737300000000000000000000000000000000000000000000000000000000602082015250565b5f613577602483612534565b91506135828261351d565b604082019050919050565b5f6020820190508181035f8301526135a48161356b565b9050919050565b5f6135b5826125ba565b91506135c0836125ba565b92508282039050818111156135d8576135d761313d565b5b92915050565b7f4552433732313a20617070726f766520746f2063616c6c6572000000000000005f82015250565b5f613612601983612534565b915061361d826135de565b602082019050919050565b5f6020820190508181035f83015261363f81613606565b9050919050565b7f4552433732313a207472616e7366657220746f206e6f6e2045524337323152655f8201527f63656976657220696d706c656d656e7465720000000000000000000000000000602082015250565b5f6136a0603283612534565b91506136ab82613646565b604082019050919050565b5f6020820190508181035f8301526136cd81613694565b9050919050565b5f6136de826125ba565b91507fffffffffffffffffffffffffffffffffffffffffffffffffffffffffffffffff82036137105761370f61313d565b5b600182019050919050565b7f4e487b71000000000000000000000000000000000000000000000000000000005f52601260045260245ffd5b5f613752826125ba565b915061375d836125ba565b92508261376d5761376c61371b565b5b828204905092915050565b5f613782826125ba565b915061378d836125ba565b92508261379d5761379c61371b565b5b828206905092915050565b5f81519050919050565b5f82825260208201905092915050565b5f6137cc826137a8565b6137d681856137b2565b93506137e6818560208601612544565b6137ef81612552565b840191505092915050565b5f60808201905061380d5f830187612648565b61381a6020830186612648565b61382760408301856126d8565b818103606083015261383981846137c2565b905095945050505050565b5f815190506138528161244d565b92915050565b5f6020828403121561386d5761386c61241a565b5b5f61387a84828501613844565b91505092915050565b7f4552433732313a206d696e7420746f20746865207a65726f20616464726573735f82015250565b5f6138b7602083612534565b91506138c282613883565b602082019050919050565b5f6020820190508181035f8301526138e4816138ab565b9050919050565b7f4552433732313a20746f6b656e20616c7265616479206d696e746564000000005f82015250565b5f61391f601c83612534565b915061392a826138eb565b602082019050919050565b5f6020820190508181035f83015261394c81613913565b9050919050565b7f4e487b71000000000000000000000000000000000000000000000000000000005f52603160045260245ffdfea264697066735822122080ff6cc2c06ddf26c099adea3de2c1aaafcdf5aeac73718de28242dd4aa8647d64736f6c634300081b0033",
			"opcodes": "PUSH1 0xA0 PUSH1 0x40 MSTORE PUSH1 0x1 PUSH1 0xC PUSH0 PUSH2 0x100 EXP DUP2 SLOAD DUP2 PUSH1 0xFF MUL NOT AND SWAP1 DUP4 ISZERO ISZERO MUL OR SWAP1 SSTORE POP PUSH1 0x40 MLOAD PUSH2 0x406E CODESIZE SUB DUP1 PUSH2 0x406E DUP4 CODECOPY DUP2 DUP2 ADD PUSH1 0x40 MSTORE DUP2 ADD SWAP1 PUSH2 0x3F SWAP2 SWAP1 PUSH2 0x2F1 JUMP JUMPDEST DUP5 DUP5 DUP2 PUSH0 SWAP1 DUP2 PUSH2 0x4F SWAP2 SWAP1 PUSH2 0x5C3 JUMP JUMPDEST POP DUP1 PUSH1 0x1 SWAP1 DUP2 PUSH2 0x5F SWAP2 SWAP1 PUSH2 0x5C3 JUMP JUMPDEST POP POP POP PUSH2 0x7E PUSH2 0x73 PUSH2 0xA7 PUSH1 0x20 SHL PUSH1 0x20 SHR JUMP JUMPDEST PUSH2 0xAE PUSH1 0x20 SHL PUSH1 0x20 SHR JUMP JUMPDEST DUP3 PUSH1 0xB SWAP1 DUP2 PUSH2 0x8D SWAP2 SWAP1 PUSH2 0x5C3 JUMP JUMPDEST POP DUP1 PUSH1 0x80 DUP2 DUP2 MSTORE POP POP DUP2 PUSH1 0xD DUP2 SWAP1 SSTORE POP POP POP POP POP POP PUSH2 0x692 JUMP JUMPDEST PUSH0 CALLER SWAP1 POP SWAP1 JUMP JUMPDEST PUSH0 PUSH1 0xA PUSH0 SWAP1 SLOAD SWAP1 PUSH2 0x100 EXP SWAP1 DIV PUSH20 0xFFFFFFFFFFFFFFFFFFFFFFFFFFFFFFFFFFFFFFFF AND SWAP1 POP DUP2 PUSH1 0xA PUSH0 PUSH2 0x100 EXP DUP2 SLOAD DUP2 PUSH20 0xFFFFFFFFFFFFFFFFFFFFFFFFFFFFFFFFFFFFFFFF MUL NOT AND SWAP1 DUP4 PUSH20 0xFFFFFFFFFFFFFFFFFFFFFFFFFFFFFFFFFFFFFFFF AND MUL OR SWAP1 SSTORE POP DUP2 PUSH20 0xFFFFFFFFFFFFFFFFFFFFFFFFFFFFFFFFFFFFFFFF AND DUP2 PUSH20 0xFFFFFFFFFFFFFFFFFFFFFFFFFFFFFFFFFFFFFFFF AND PUSH32 0x8BE0079C531659141344CD1FD0A4F28419497F9722A3DAAFE3B4186F6B6457E0 PUSH1 0x40 MLOAD PUSH1 0x40 MLOAD DUP1 SWAP2 SUB SWAP1 LOG3 POP POP JUMP JUMPDEST PUSH0 PUSH1 0x40 MLOAD SWAP1 POP SWAP1 JUMP JUMPDEST PUSH0 PUSH0 REVERT JUMPDEST PUSH0 PUSH0 REVERT JUMPDEST PUSH0 PUSH0 REVERT JUMPDEST PUSH0 PUSH0 REVERT JUMPDEST PUSH0 PUSH1 0x1F NOT PUSH1 0x1F DUP4 ADD AND SWAP1 POP SWAP2 SWAP1 POP JUMP JUMPDEST PUSH32 0x4E487B7100000000000000000000000000000000000000000000000000000000 PUSH0 MSTORE PUSH1 0x41 PUSH1 0x4 MSTORE PUSH1 0x24 PUSH0 REVERT JUMPDEST PUSH2 0x1D0 DUP3 PUSH2 0x18A JUMP JUMPDEST DUP2 ADD DUP2 DUP2 LT PUSH8 0xFFFFFFFFFFFFFFFF DUP3 GT OR ISZERO PUSH2 0x1EF JUMPI PUSH2 0x1EE PUSH2 0x19A JUMP JUMPDEST JUMPDEST DUP1 PUSH1 0x40 MSTORE POP POP POP JUMP JUMPDEST PUSH0 PUSH2 0x201 PUSH2 0x171 JUMP JUMPDEST SWAP1 POP PUSH2 0x20D DUP3 DUP3 PUSH2 0x1C7 JUMP JUMPDEST SWAP2 SWAP1 POP JUMP JUMPDEST PUSH0 PUSH8 0xFFFFFFFFFFFFFFFF DUP3 GT ISZERO PUSH2 0x22C JUMPI PUSH2 0x22B PUSH2 0x19A JUMP JUMPDEST JUMPDEST PUSH2 0x235 DUP3 PUSH2 0x18A JUMP JUMPDEST SWAP1 POP PUSH1 0x20 DUP2 ADD SWAP1 POP SWAP2 SWAP1 POP JUMP JUMPDEST DUP3 DUP2 DUP4 MCOPY PUSH0 DUP4 DUP4 ADD MSTORE POP POP POP JUMP JUMPDEST PUSH0 PUSH2 0x262 PUSH2 0x25D DUP5 PUSH2 0x212 JUMP JUMPDEST PUSH2 0x1F8 JUMP JUMPDEST SWAP1 POP DUP3 DUP2 MSTORE PUSH1 0x20 DUP2 ADD DUP5 DUP5 DUP5 ADD GT ISZERO PUSH2 0x27E JUMPI PUSH2 0x27D PUSH2 0x186 JUMP JUMPDEST JUMPDEST PUSH2 0x289 DUP5 DUP3 DUP6 PUSH2 0x242 JUMP JUMPDEST POP SWAP4 SWAP3 POP POP POP JUMP JUMPDEST PUSH0 DUP3 PUSH1 0x1F DUP4 ADD SLT PUSH2 0x2A5 JUMPI PUSH2 0x2A4 PUSH2 0x182 JUMP JUMPDEST JUMPDEST DUP2 MLOAD PUSH2 0x2B5 DUP5 DUP3 PUSH1 0x20 DUP7 ADD PUSH2 0x250 JUMP JUMPDEST SWAP2 POP POP SWAP3 SWAP2 POP POP JUMP JUMPDEST PUSH0 DUP2 SWAP1 POP SWAP2 SWAP1 POP JUMP JUMPDEST PUSH2 0x2D0 DUP2 PUSH2 0x2BE JUMP JUMPDEST DUP2 EQ PUSH2 0x2DA JUMPI PUSH0 PUSH0 REVERT JUMPDEST POP JUMP JUMPDEST PUSH0 DUP2 MLOAD SWAP1 POP PUSH2 0x2EB DUP2 PUSH2 0x2C7 JUMP JUMPDEST SWAP3 SWAP2 POP POP JUMP JUMPDEST PUSH0 PUSH0 PUSH0 PUSH0 PUSH0 PUSH1 0xA0 DUP7 DUP9 SUB SLT ISZERO PUSH2 0x30A JUMPI PUSH2 0x309 PUSH2 0x17A JUMP JUMPDEST JUMPDEST PUSH0 DUP7 ADD MLOAD PUSH8 0xFFFFFFFFFFFFFFFF DUP2 GT ISZERO PUSH2 0x327 JUMPI PUSH2 0x326 PUSH2 0x17E JUMP JUMPDEST JUMPDEST PUSH2 0x333 DUP9 DUP3 DUP10 ADD PUSH2 0x291 JUMP JUMPDEST SWAP6 POP POP PUSH1 0x20 DUP7 ADD MLOAD PUSH8 0xFFFFFFFFFFFFFFFF DUP2 GT ISZERO PUSH2 0x354 JUMPI PUSH2 0x353 PUSH2 0x17E JUMP JUMPDEST JUMPDEST PUSH2 0x360 DUP9 DUP3 DUP10 ADD PUSH2 0x291 JUMP JUMPDEST SWAP5 POP POP PUSH1 0x40 DUP7 ADD MLOAD PUSH8 0xFFFFFFFFFFFFFFFF DUP2 GT ISZERO PUSH2 0x381 JUMPI PUSH2 0x380 PUSH2 0x17E JUMP JUMPDEST JUMPDEST PUSH2 0x38D DUP9 DUP3 DUP10 ADD PUSH2 0x291 JUMP JUMPDEST SWAP4 POP POP PUSH1 0x60 PUSH2 0x39E DUP9 DUP3 DUP10 ADD PUSH2 0x2DD JUMP JUMPDEST SWAP3 POP POP PUSH1 0x80 PUSH2 0x3AF DUP9 DUP3 DUP10 ADD PUSH2 0x2DD JUMP JUMPDEST SWAP2 POP POP SWAP3 SWAP6 POP SWAP3 SWAP6 SWAP1 SWAP4 POP JUMP JUMPDEST PUSH0 DUP2 MLOAD SWAP1 POP SWAP2 SWAP1 POP JUMP JUMPDEST PUSH32 0x4E487B7100000000000000000000000000000000000000000000000000000000 PUSH0 MSTORE PUSH1 0x22 PUSH1 0x4 MSTORE PUSH1 0x24 PUSH0 REVERT JUMPDEST PUSH0 PUSH1 0x2 DUP3 DIV SWAP1 POP PUSH1 0x1 DUP3 AND DUP1 PUSH2 0x40A JUMPI PUSH1 0x7F DUP3 AND SWAP2 POP JUMPDEST PUSH1 0x20 DUP3 LT DUP2 SUB PUSH2 0x41D JUMPI PUSH2 0x41C PUSH2 0x3C6 JUMP JUMPDEST JUMPDEST POP SWAP2 SWAP1 POP JUMP JUMPDEST PUSH0 DUP2 SWAP1 POP DUP2 PUSH0 MSTORE PUSH1 0x20 PUSH0 KECCAK256 SWAP1 POP SWAP2 SWAP1 POP JUMP JUMPDEST PUSH0 PUSH1 0x20 PUSH1 0x1F DUP4 ADD DIV SWAP1 POP SWAP2 SWAP1 POP JUMP JUMPDEST PUSH0 DUP3 DUP3 SHL SWAP1 POP SWAP3 SWAP2 POP POP JUMP JUMPDEST PUSH0 PUSH1 0x8 DUP4 MUL PUSH2 0x47F PUSH32 0xFFFFFFFFFFFFFFFFFFFFFFFFFFFFFFFFFFFFFFFFFFFFFFFFFFFFFFFFFFFFFFFF DUP3 PUSH2 0x444 JUMP JUMPDEST PUSH2 0x489 DUP7 DUP4 PUSH2 0x444 JUMP JUMPDEST SWAP6 POP DUP1 NOT DUP5 AND SWAP4 POP DUP1 DUP7 AND DUP5 OR SWAP3 POP POP POP SWAP4 SWAP3 POP POP POP JUMP JUMPDEST PUSH0 DUP2 SWAP1 POP SWAP2 SWAP1 POP JUMP JUMPDEST PUSH0 PUSH2 0x4C4 PUSH2 0x4BF PUSH2 0x4BA DUP5 PUSH2 0x2BE JUMP JUMPDEST PUSH2 0x4A1 JUMP JUMPDEST PUSH2 0x2BE JUMP JUMPDEST SWAP1 POP SWAP2 SWAP1 POP JUMP JUMPDEST PUSH0 DUP2 SWAP1 POP SWAP2 SWAP1 POP JUMP JUMPDEST PUSH2 0x4DD DUP4 PUSH2 0x4AA JUMP JUMPDEST PUSH2 0x4F1 PUSH2 0x4E9 DUP3 PUSH2 0x4CB JUMP JUMPDEST DUP5 DUP5 SLOAD PUSH2 0x450 JUMP JUMPDEST DUP3 SSTORE POP POP POP POP JUMP JUMPDEST PUSH0 PUSH0 SWAP1 POP SWAP1 JUMP JUMPDEST PUSH2 0x508 PUSH2 0x4F9 JUMP JUMPDEST PUSH2 0x513 DUP2 DUP5 DUP5 PUSH2 0x4D4 JUMP JUMPDEST POP POP POP JUMP JUMPDEST JUMPDEST DUP2 DUP2 LT ISZERO PUSH2 0x536 JUMPI PUSH2 0x52B PUSH0 DUP3 PUSH2 0x500 JUMP JUMPDEST PUSH1 0x1 DUP2 ADD SWAP1 POP PUSH2 0x519 JUMP JUMPDEST POP POP JUMP JUMPDEST PUSH1 0x1F DUP3 GT ISZERO PUSH2 0x57B JUMPI PUSH2 0x54C DUP2 PUSH2 0x423 JUMP JUMPDEST PUSH2 0x555 DUP5 PUSH2 0x435 JUMP JUMPDEST DUP2 ADD PUSH1 0x20 DUP6 LT ISZERO PUSH2 0x564 JUMPI DUP2 SWAP1 POP JUMPDEST PUSH2 0x578 PUSH2 0x570 DUP6 PUSH2 0x435 JUMP JUMPDEST DUP4 ADD DUP3 PUSH2 0x518 JUMP JUMPDEST POP POP JUMPDEST POP POP POP JUMP JUMPDEST PUSH0 DUP3 DUP3 SHR SWAP1 POP SWAP3 SWAP2 POP POP JUMP JUMPDEST PUSH0 PUSH2 0x59B PUSH0 NOT DUP5 PUSH1 0x8 MUL PUSH2 0x580 JUMP JUMPDEST NOT DUP1 DUP4 AND SWAP2 POP POP SWAP3 SWAP2 POP POP JUMP JUMPDEST PUSH0 PUSH2 0x5B3 DUP4 DUP4 PUSH2 0x58C JUMP JUMPDEST SWAP2 POP DUP3 PUSH1 0x2 MUL DUP3 OR SWAP1 POP SWAP3 SWAP2 POP POP JUMP JUMPDEST PUSH2 0x5CC DUP3 PUSH2 0x3BC JUMP JUMPDEST PUSH8 0xFFFFFFFFFFFFFFFF DUP2 GT ISZERO PUSH2 0x5E5 JUMPI PUSH2 0x5E4 PUSH2 0x19A JUMP JUMPDEST JUMPDEST PUSH2 0x5EF DUP3 SLOAD PUSH2 0x3F3 JUMP JUMPDEST PUSH2 0x5FA DUP3 DUP3 DUP6 PUSH2 0x53A JUMP JUMPDEST PUSH0 PUSH1 0x20 SWAP1 POP PUSH1 0x1F DUP4 GT PUSH1 0x1 DUP2 EQ PUSH2 0x62B JUMPI PUSH0 DUP5 ISZERO PUSH2 0x619 JUMPI DUP3 DUP8 ADD MLOAD SWAP1 POP JUMPDEST PUSH2 0x623 DUP6 DUP3 PUSH2 0x5A8 JUMP JUMPDEST DUP7 SSTORE POP PUSH2 0x68A JUMP JUMPDEST PUSH1 0x1F NOT DUP5 AND PUSH2 0x639 DUP7 PUSH2 0x423 JUMP JUMPDEST PUSH0 JUMPDEST DUP3 DUP2 LT ISZERO PUSH2 0x660 JUMPI DUP5 DUP10 ADD MLOAD DUP3 SSTORE PUSH1 0x1 DUP3 ADD SWAP2 POP PUSH1 0x20 DUP6 ADD SWAP5 POP PUSH1 0x20 DUP2 ADD SWAP1 POP PUSH2 0x63B JUMP JUMPDEST DUP7 DUP4 LT ISZERO PUSH2 0x67D JUMPI DUP5 DUP10 ADD MLOAD PUSH2 0x679 PUSH1 0x1F DUP10 AND DUP3 PUSH2 0x58C JUMP JUMPDEST DUP4 SSTORE POP JUMPDEST PUSH1 0x1 PUSH1 0x2 DUP9 MUL ADD DUP9 SSTORE POP POP POP JUMPDEST POP POP POP POP POP POP JUMP JUMPDEST PUSH1 0x80 MLOAD PUSH2 0x39B6 PUSH2 0x6B8 PUSH0 CODECOPY PUSH0 DUP2 DUP2 PUSH2 0x9D4 ADD MSTORE DUP2 DUP2 PUSH2 0xC74 ADD MSTORE PUSH2 0xE2D ADD MSTORE PUSH2 0x39B6 PUSH0 RETURN INVALID PUSH1 0x80 PUSH1 0x40 MSTORE PUSH1 0x4 CALLDATASIZE LT PUSH2 0x1B6 JUMPI PUSH0 CALLDATALOAD PUSH1 0xE0 SHR DUP1 PUSH4 0x6352211E GT PUSH2 0xEB JUMPI DUP1 PUSH4 0xA0712D68 GT PUSH2 0x89 JUMPI DUP1 PUSH4 0xC87B56DD GT PUSH2 0x63 JUMPI DUP1 PUSH4 0xC87B56DD EQ PUSH2 0x5CE JUMPI DUP1 PUSH4 0xE985E9C5 EQ PUSH2 0x60A JUMPI DUP1 PUSH4 0xEB8D2444 EQ PUSH2 0x646 JUMPI DUP1 PUSH4 0xF2FDE38B EQ PUSH2 0x670 JUMPI PUSH2 0x1B6 JUMP JUMPDEST DUP1 PUSH4 0xA0712D68 EQ PUSH2 0x562 JUMPI DUP1 PUSH4 0xA22CB465 EQ PUSH2 0x57E JUMPI DUP1 PUSH4 0xB88D4FDE EQ PUSH2 0x5A6 JUMPI PUSH2 0x1B6 JUMP JUMPDEST DUP1 PUSH4 0x819B25BA GT PUSH2 0xC5 JUMPI DUP1 PUSH4 0x819B25BA EQ PUSH2 0x4BC JUMPI DUP1 PUSH4 0x8DA5CB5B EQ PUSH2 0x4E4 JUMPI DUP1 PUSH4 0x95D89B41 EQ PUSH2 0x50E JUMPI DUP1 PUSH4 0x9D1B464A EQ PUSH2 0x538 JUMPI PUSH2 0x1B6 JUMP JUMPDEST DUP1 PUSH4 0x6352211E EQ PUSH2 0x42E JUMPI DUP1 PUSH4 0x70A08231 EQ PUSH2 0x46A JUMPI DUP1 PUSH4 0x715018A6 EQ PUSH2 0x4A6 JUMPI PUSH2 0x1B6 JUMP JUMPDEST DUP1 PUSH4 0x23B872DD GT PUSH2 0x158 JUMPI DUP1 PUSH4 0x3CCFD60B GT PUSH2 0x132 JUMPI DUP1 PUSH4 0x3CCFD60B EQ PUSH2 0x38C JUMPI DUP1 PUSH4 0x42842E0E EQ PUSH2 0x3A2 JUMPI DUP1 PUSH4 0x4F6CCCE7 EQ PUSH2 0x3CA JUMPI DUP1 PUSH4 0x55F804B3 EQ PUSH2 0x406 JUMPI PUSH2 0x1B6 JUMP JUMPDEST DUP1 PUSH4 0x23B872DD EQ PUSH2 0x2FE JUMPI DUP1 PUSH4 0x2F745C59 EQ PUSH2 0x326 JUMPI DUP1 PUSH4 0x32CB6B0C EQ PUSH2 0x362 JUMPI PUSH2 0x1B6 JUMP JUMPDEST DUP1 PUSH4 0x81812FC GT PUSH2 0x194 JUMPI DUP1 PUSH4 0x81812FC EQ PUSH2 0x248 JUMPI DUP1 PUSH4 0x95EA7B3 EQ PUSH2 0x284 JUMPI DUP1 PUSH4 0x18160DDD EQ PUSH2 0x2AC JUMPI DUP1 PUSH4 0x18B20071 EQ PUSH2 0x2D6 JUMPI PUSH2 0x1B6 JUMP JUMPDEST DUP1 PUSH4 0x1FFC9A7 EQ PUSH2 0x1BA JUMPI DUP1 PUSH4 0x2C88989 EQ PUSH2 0x1F6 JUMPI DUP1 PUSH4 0x6FDDE03 EQ PUSH2 0x21E JUMPI JUMPDEST PUSH0 PUSH0 REVERT JUMPDEST CALLVALUE DUP1 ISZERO PUSH2 0x1C5 JUMPI PUSH0 PUSH0 REVERT JUMPDEST POP PUSH2 0x1E0 PUSH1 0x4 DUP1 CALLDATASIZE SUB DUP2 ADD SWAP1 PUSH2 0x1DB SWAP2 SWAP1 PUSH2 0x2477 JUMP JUMPDEST PUSH2 0x698 JUMP JUMPDEST PUSH1 0x40 MLOAD PUSH2 0x1ED SWAP2 SWAP1 PUSH2 0x24BC JUMP JUMPDEST PUSH1 0x40 MLOAD DUP1 SWAP2 SUB SWAP1 RETURN JUMPDEST CALLVALUE DUP1 ISZERO PUSH2 0x201 JUMPI PUSH0 PUSH0 REVERT JUMPDEST POP PUSH2 0x21C PUSH1 0x4 DUP1 CALLDATASIZE SUB DUP2 ADD SWAP1 PUSH2 0x217 SWAP2 SWAP1 PUSH2 0x24FF JUMP JUMPDEST PUSH2 0x6A9 JUMP JUMPDEST STOP JUMPDEST CALLVALUE DUP1 ISZERO PUSH2 0x229 JUMPI PUSH0 PUSH0 REVERT JUMPDEST POP PUSH2 0x232 PUSH2 0x6CD JUMP JUMPDEST PUSH1 0x40 MLOAD PUSH2 0x23F SWAP2 SWAP1 PUSH2 0x259A JUMP JUMPDEST PUSH1 0x40 MLOAD DUP1 SWAP2 SUB SWAP1 RETURN JUMPDEST CALLVALUE DUP1 ISZERO PUSH2 0x253 JUMPI PUSH0 PUSH0 REVERT JUMPDEST POP PUSH2 0x26E PUSH1 0x4 DUP1 CALLDATASIZE SUB DUP2 ADD SWAP1 PUSH2 0x269 SWAP2 SWAP1 PUSH2 0x25ED JUMP JUMPDEST PUSH2 0x75C JUMP JUMPDEST PUSH1 0x40 MLOAD PUSH2 0x27B SWAP2 SWAP1 PUSH2 0x2657 JUMP JUMPDEST PUSH1 0x40 MLOAD DUP1 SWAP2 SUB SWAP1 RETURN JUMPDEST CALLVALUE DUP1 ISZERO PUSH2 0x28F JUMPI PUSH0 PUSH0 REVERT JUMPDEST POP PUSH2 0x2AA PUSH1 0x4 DUP1 CALLDATASIZE SUB DUP2 ADD SWAP1 PUSH2 0x2A5 SWAP2 SWAP1 PUSH2 0x269A JUMP JUMPDEST PUSH2 0x79E JUMP JUMPDEST STOP JUMPDEST CALLVALUE DUP1 ISZERO PUSH2 0x2B7 JUMPI PUSH0 PUSH0 REVERT JUMPDEST POP PUSH2 0x2C0 PUSH2 0x8B4 JUMP JUMPDEST PUSH1 0x40 MLOAD PUSH2 0x2CD SWAP2 SWAP1 PUSH2 0x26E7 JUMP JUMPDEST PUSH1 0x40 MLOAD DUP1 SWAP2 SUB SWAP1 RETURN JUMPDEST CALLVALUE DUP1 ISZERO PUSH2 0x2E1 JUMPI PUSH0 PUSH0 REVERT JUMPDEST POP PUSH2 0x2FC PUSH1 0x4 DUP1 CALLDATASIZE SUB DUP2 ADD SWAP1 PUSH2 0x2F7 SWAP2 SWAP1 PUSH2 0x25ED JUMP JUMPDEST PUSH2 0x8C0 JUMP JUMPDEST STOP JUMPDEST CALLVALUE DUP1 ISZERO PUSH2 0x309 JUMPI PUSH0 PUSH0 REVERT JUMPDEST POP PUSH2 0x324 PUSH1 0x4 DUP1 CALLDATASIZE SUB DUP2 ADD SWAP1 PUSH2 0x31F SWAP2 SWAP1 PUSH2 0x2700 JUMP JUMPDEST PUSH2 0x8D2 JUMP JUMPDEST STOP JUMPDEST CALLVALUE DUP1 ISZERO PUSH2 0x331 JUMPI PUSH0 PUSH0 REVERT JUMPDEST POP PUSH2 0x34C PUSH1 0x4 DUP1 CALLDATASIZE SUB DUP2 ADD SWAP1 PUSH2 0x347 SWAP2 SWAP1 PUSH2 0x269A JUMP JUMPDEST PUSH2 0x932 JUMP JUMPDEST PUSH1 0x40 MLOAD PUSH2 0x359 SWAP2 SWAP1 PUSH2 0x26E7 JUMP JUMPDEST PUSH1 0x40 MLOAD DUP1 SWAP2 SUB SWAP1 RETURN JUMPDEST CALLVALUE DUP1 ISZERO PUSH2 0x36D JUMPI PUSH0 PUSH0 REVERT JUMPDEST POP PUSH2 0x376 PUSH2 0x9D2 JUMP JUMPDEST PUSH1 0x40 MLOAD PUSH2 0x383 SWAP2 SWAP1 PUSH2 0x26E7 JUMP JUMPDEST PUSH1 0x40 MLOAD DUP1 SWAP2 SUB SWAP1 RETURN JUMPDEST CALLVALUE DUP1 ISZERO PUSH2 0x397 JUMPI PUSH0 PUSH0 REVERT JUMPDEST POP PUSH2 0x3A0 PUSH2 0x9F6 JUMP JUMPDEST STOP JUMPDEST CALLVALUE DUP1 ISZERO PUSH2 0x3AD JUMPI PUSH0 PUSH0 REVERT JUMPDEST POP PUSH2 0x3C8 PUSH1 0x4 DUP1 CALLDATASIZE SUB DUP2 ADD SWAP1 PUSH2 0x3C3 SWAP2 SWAP1 PUSH2 0x2700 JUMP JUMPDEST PUSH2 0xA44 JUMP JUMPDEST STOP JUMPDEST CALLVALUE DUP1 ISZERO PUSH2 0x3D5 JUMPI PUSH0 PUSH0 REVERT JUMPDEST POP PUSH2 0x3F0 PUSH1 0x4 DUP1 CALLDATASIZE SUB DUP2 ADD SWAP1 PUSH2 0x3EB SWAP2 SWAP1 PUSH2 0x25ED JUMP JUMPDEST PUSH2 0xA63 JUMP JUMPDEST PUSH1 0x40 MLOAD PUSH2 0x3FD SWAP2 SWAP1 PUSH2 0x26E7 JUMP JUMPDEST PUSH1 0x40 MLOAD DUP1 SWAP2 SUB SWAP1 RETURN JUMPDEST CALLVALUE DUP1 ISZERO PUSH2 0x411 JUMPI PUSH0 PUSH0 REVERT JUMPDEST POP PUSH2 0x42C PUSH1 0x4 DUP1 CALLDATASIZE SUB DUP2 ADD SWAP1 PUSH2 0x427 SWAP2 SWAP1 PUSH2 0x287C JUMP JUMPDEST PUSH2 0xAD1 JUMP JUMPDEST STOP JUMPDEST CALLVALUE DUP1 ISZERO PUSH2 0x439 JUMPI PUSH0 PUSH0 REVERT JUMPDEST POP PUSH2 0x454 PUSH1 0x4 DUP1 CALLDATASIZE SUB DUP2 ADD SWAP1 PUSH2 0x44F SWAP2 SWAP1 PUSH2 0x25ED JUMP JUMPDEST PUSH2 0xAEC JUMP JUMPDEST PUSH1 0x40 MLOAD PUSH2 0x461 SWAP2 SWAP1 PUSH2 0x2657 JUMP JUMPDEST PUSH1 0x40 MLOAD DUP1 SWAP2 SUB SWAP1 RETURN JUMPDEST CALLVALUE DUP1 ISZERO PUSH2 0x475 JUMPI PUSH0 PUSH0 REVERT JUMPDEST POP PUSH2 0x490 PUSH1 0x4 DUP1 CALLDATASIZE SUB DUP2 ADD SWAP1 PUSH2 0x48B SWAP2 SWAP1 PUSH2 0x28C3 JUMP JUMPDEST PUSH2 0xB98 JUMP JUMPDEST PUSH1 0x40 MLOAD PUSH2 0x49D SWAP2 SWAP1 PUSH2 0x26E7 JUMP JUMPDEST PUSH1 0x40 MLOAD DUP1 SWAP2 SUB SWAP1 RETURN JUMPDEST CALLVALUE DUP1 ISZERO PUSH2 0x4B1 JUMPI PUSH0 PUSH0 REVERT JUMPDEST POP PUSH2 0x4BA PUSH2 0xC4C JUMP JUMPDEST STOP JUMPDEST CALLVALUE DUP1 ISZERO PUSH2 0x4C7 JUMPI PUSH0 PUSH0 REVERT JUMPDEST POP PUSH2 0x4E2 PUSH1 0x4 DUP1 CALLDATASIZE SUB DUP2 ADD SWAP1 PUSH2 0x4DD SWAP2 SWAP1 PUSH2 0x25ED JUMP JUMPDEST PUSH2 0xC5F JUMP JUMPDEST STOP JUMPDEST CALLVALUE DUP1 ISZERO PUSH2 0x4EF JUMPI PUSH0 PUSH0 REVERT JUMPDEST POP PUSH2 0x4F8 PUSH2 0xD14 JUMP JUMPDEST PUSH1 0x40 MLOAD PUSH2 0x505 SWAP2 SWAP1 PUSH2 0x2657 JUMP JUMPDEST PUSH1 0x40 MLOAD DUP1 SWAP2 SUB SWAP1 RETURN JUMPDEST CALLVALUE DUP1 ISZERO PUSH2 0x519 JUMPI PUSH0 PUSH0 REVERT JUMPDEST POP PUSH2 0x522 PUSH2 0xD3C JUMP JUMPDEST PUSH1 0x40 MLOAD PUSH2 0x52F SWAP2 SWAP1 PUSH2 0x259A JUMP JUMPDEST PUSH1 0x40 MLOAD DUP1 SWAP2 SUB SWAP1 RETURN JUMPDEST CALLVALUE DUP1 ISZERO PUSH2 0x543 JUMPI PUSH0 PUSH0 REVERT JUMPDEST POP PUSH2 0x54C PUSH2 0xDCC JUMP JUMPDEST PUSH1 0x40 MLOAD PUSH2 0x559 SWAP2 SWAP1 PUSH2 0x26E7 JUMP JUMPDEST PUSH1 0x40 MLOAD DUP1 SWAP2 SUB SWAP1 RETURN JUMPDEST PUSH2 0x57C PUSH1 0x4 DUP1 CALLDATASIZE SUB DUP2 ADD SWAP1 PUSH2 0x577 SWAP2 SWAP1 PUSH2 0x25ED JUMP JUMPDEST PUSH2 0xDD2 JUMP JUMPDEST STOP JUMPDEST CALLVALUE DUP1 ISZERO PUSH2 0x589 JUMPI PUSH0 PUSH0 REVERT JUMPDEST POP PUSH2 0x5A4 PUSH1 0x4 DUP1 CALLDATASIZE SUB DUP2 ADD SWAP1 PUSH2 0x59F SWAP2 SWAP1 PUSH2 0x28EE JUMP JUMPDEST PUSH2 0xF1D JUMP JUMPDEST STOP JUMPDEST CALLVALUE DUP1 ISZERO PUSH2 0x5B1 JUMPI PUSH0 PUSH0 REVERT JUMPDEST POP PUSH2 0x5CC PUSH1 0x4 DUP1 CALLDATASIZE SUB DUP2 ADD SWAP1 PUSH2 0x5C7 SWAP2 SWAP1 PUSH2 0x29CA JUMP JUMPDEST PUSH2 0xF33 JUMP JUMPDEST STOP JUMPDEST CALLVALUE DUP1 ISZERO PUSH2 0x5D9 JUMPI PUSH0 PUSH0 REVERT JUMPDEST POP PUSH2 0x5F4 PUSH1 0x4 DUP1 CALLDATASIZE SUB DUP2 ADD SWAP1 PUSH2 0x5EF SWAP2 SWAP1 PUSH2 0x25ED JUMP JUMPDEST PUSH2 0xF95 JUMP JUMPDEST PUSH1 0x40 MLOAD PUSH2 0x601 SWAP2 SWAP1 PUSH2 0x259A JUMP JUMPDEST PUSH1 0x40 MLOAD DUP1 SWAP2 SUB SWAP1 RETURN JUMPDEST CALLVALUE DUP1 ISZERO PUSH2 0x615 JUMPI PUSH0 PUSH0 REVERT JUMPDEST POP PUSH2 0x630 PUSH1 0x4 DUP1 CALLDATASIZE SUB DUP2 ADD SWAP1 PUSH2 0x62B SWAP2 SWAP1 PUSH2 0x2A4A JUMP JUMPDEST PUSH2 0xFFA JUMP JUMPDEST PUSH1 0x40 MLOAD PUSH2 0x63D SWAP2 SWAP1 PUSH2 0x24BC JUMP JUMPDEST PUSH1 0x40 MLOAD DUP1 SWAP2 SUB SWAP1 RETURN JUMPDEST CALLVALUE DUP1 ISZERO PUSH2 0x651 JUMPI PUSH0 PUSH0 REVERT JUMPDEST POP PUSH2 0x65A PUSH2 0x1088 JUMP JUMPDEST PUSH1 0x40 MLOAD PUSH2 0x667 SWAP2 SWAP1 PUSH2 0x24BC JUMP JUMPDEST PUSH1 0x40 MLOAD DUP1 SWAP2 SUB SWAP1 RETURN JUMPDEST CALLVALUE DUP1 ISZERO PUSH2 0x67B JUMPI PUSH0 PUSH0 REVERT JUMPDEST POP PUSH2 0x696 PUSH1 0x4 DUP1 CALLDATASIZE SUB DUP2 ADD SWAP1 PUSH2 0x691 SWAP2 SWAP1 PUSH2 0x28C3 JUMP JUMPDEST PUSH2 0x109A JUMP JUMPDEST STOP JUMPDEST PUSH0 PUSH2 0x6A2 DUP3 PUSH2 0x111C JUMP JUMPDEST SWAP1 POP SWAP2 SWAP1 POP JUMP JUMPDEST PUSH2 0x6B1 PUSH2 0x1195 JUMP JUMPDEST DUP1 PUSH1 0xC PUSH0 PUSH2 0x100 EXP DUP2 SLOAD DUP2 PUSH1 0xFF MUL NOT AND SWAP1 DUP4 ISZERO ISZERO MUL OR SWAP1 SSTORE POP POP JUMP JUMPDEST PUSH1 0x60 PUSH0 DUP1 SLOAD PUSH2 0x6DB SWAP1 PUSH2 0x2AB5 JUMP JUMPDEST DUP1 PUSH1 0x1F ADD PUSH1 0x20 DUP1 SWAP2 DIV MUL PUSH1 0x20 ADD PUSH1 0x40 MLOAD SWAP1 DUP2 ADD PUSH1 0x40 MSTORE DUP1 SWAP3 SWAP2 SWAP1 DUP2 DUP2 MSTORE PUSH1 0x20 ADD DUP3 DUP1 SLOAD PUSH2 0x707 SWAP1 PUSH2 0x2AB5 JUMP JUMPDEST DUP1 ISZERO PUSH2 0x752 JUMPI DUP1 PUSH1 0x1F LT PUSH2 0x729 JUMPI PUSH2 0x100 DUP1 DUP4 SLOAD DIV MUL DUP4 MSTORE SWAP2 PUSH1 0x20 ADD SWAP2 PUSH2 0x752 JUMP JUMPDEST DUP3 ADD SWAP2 SWAP1 PUSH0 MSTORE PUSH1 0x20 PUSH0 KECCAK256 SWAP1 JUMPDEST DUP2 SLOAD DUP2 MSTORE SWAP1 PUSH1 0x1 ADD SWAP1 PUSH1 0x20 ADD DUP1 DUP4 GT PUSH2 0x735 JUMPI DUP3 SWAP1 SUB PUSH1 0x1F AND DUP3 ADD SWAP2 JUMPDEST POP POP POP POP POP SWAP1 POP SWAP1 JUMP JUMPDEST PUSH0 PUSH2 0x766 DUP3 PUSH2 0x1213 JUMP JUMPDEST PUSH1 0x4 PUSH0 DUP4 DUP2 MSTORE PUSH1 0x20 ADD SWAP1 DUP2 MSTORE PUSH1 0x20 ADD PUSH0 KECCAK256 PUSH0 SWAP1 SLOAD SWAP1 PUSH2 0x100 EXP SWAP1 DIV PUSH20 0xFFFFFFFFFFFFFFFFFFFFFFFFFFFFFFFFFFFFFFFF AND SWAP1 POP SWAP2 SWAP1 POP JUMP JUMPDEST PUSH0 PUSH2 0x7A8 DUP3 PUSH2 0xAEC JUMP JUMPDEST SWAP1 POP DUP1 PUSH20 0xFFFFFFFFFFFFFFFFFFFFFFFFFFFFFFFFFFFFFFFF AND DUP4 PUSH20 0xFFFFFFFFFFFFFFFFFFFFFFFFFFFFFFFFFFFFFFFF AND SUB PUSH2 0x818 JUMPI PUSH1 0x40 MLOAD PUSH32 0x8C379A000000000000000000000000000000000000000000000000000000000 DUP2 MSTORE PUSH1 0x4 ADD PUSH2 0x80F SWAP1 PUSH2 0x2B55 JUMP JUMPDEST PUSH1 0x40 MLOAD DUP1 SWAP2 SUB SWAP1 REVERT JUMPDEST DUP1 PUSH20 0xFFFFFFFFFFFFFFFFFFFFFFFFFFFFFFFFFFFFFFFF AND PUSH2 0x837 PUSH2 0x125E JUMP JUMPDEST PUSH20 0xFFFFFFFFFFFFFFFFFFFFFFFFFFFFFFFFFFFFFFFF AND EQ DUP1 PUSH2 0x866 JUMPI POP PUSH2 0x865 DUP2 PUSH2 0x860 PUSH2 0x125E JUMP JUMPDEST PUSH2 0xFFA JUMP JUMPDEST JUMPDEST PUSH2 0x8A5 JUMPI PUSH1 0x40 MLOAD PUSH32 0x8C379A000000000000000000000000000000000000000000000000000000000 DUP2 MSTORE PUSH1 0x4 ADD PUSH2 0x89C SWAP1 PUSH2 0x2BE3 JUMP JUMPDEST PUSH1 0x40 MLOAD DUP1 SWAP2 SUB SWAP1 REVERT JUMPDEST PUSH2 0x8AF DUP4 DUP4 PUSH2 0x1265 JUMP JUMPDEST POP POP POP JUMP JUMPDEST PUSH0 PUSH1 0x8 DUP1 SLOAD SWAP1 POP SWAP1 POP SWAP1 JUMP JUMPDEST PUSH2 0x8C8 PUSH2 0x1195 JUMP JUMPDEST DUP1 PUSH1 0xD DUP2 SWAP1 SSTORE POP POP JUMP JUMPDEST PUSH2 0x8E3 PUSH2 0x8DD PUSH2 0x125E JUMP JUMPDEST DUP3 PUSH2 0x131B JUMP JUMPDEST PUSH2 0x922 JUMPI PUSH1 0x40 MLOAD PUSH32 0x8C379A000000000000000000000000000000000000000000000000000000000 DUP2 MSTORE PUSH1 0x4 ADD PUSH2 0x919 SWAP1 PUSH2 0x2C71 JUMP JUMPDEST PUSH1 0x40 MLOAD DUP1 SWAP2 SUB SWAP1 REVERT JUMPDEST PUSH2 0x92D DUP4 DUP4 DUP4 PUSH2 0x13AF JUMP JUMPDEST POP POP POP JUMP JUMPDEST PUSH0 PUSH2 0x93C DUP4 PUSH2 0xB98 JUMP JUMPDEST DUP3 LT PUSH2 0x97D JUMPI PUSH1 0x40 MLOAD PUSH32 0x8C379A000000000000000000000000000000000000000000000000000000000 DUP2 MSTORE PUSH1 0x4 ADD PUSH2 0x974 SWAP1 PUSH2 0x2CFF JUMP JUMPDEST PUSH1 0x40 MLOAD DUP1 SWAP2 SUB SWAP1 REVERT JUMPDEST PUSH1 0x6 PUSH0 DUP5 PUSH20 0xFFFFFFFFFFFFFFFFFFFFFFFFFFFFFFFFFFFFFFFF AND PUSH20 0xFFFFFFFFFFFFFFFFFFFFFFFFFFFFFFFFFFFFFFFF AND DUP2 MSTORE PUSH1 0x20 ADD SWAP1 DUP2 MSTORE PUSH1 0x20 ADD PUSH0 KECCAK256 PUSH0 DUP4 DUP2 MSTORE PUSH1 0x20 ADD SWAP1 DUP2 MSTORE PUSH1 0x20 ADD PUSH0 KECCAK256 SLOAD SWAP1 POP SWAP3 SWAP2 POP POP JUMP JUMPDEST PUSH32 0x0 DUP2 JUMP JUMPDEST PUSH2 0x9FE PUSH2 0x1195 JUMP JUMPDEST CALLER PUSH20 0xFFFFFFFFFFFFFFFFFFFFFFFFFFFFFFFFFFFFFFFF AND PUSH2 0x8FC SELFBALANCE SWAP1 DUP2 ISZERO MUL SWAP1 PUSH1 0x40 MLOAD PUSH0 PUSH1 0x40 MLOAD DUP1 DUP4 SUB DUP2 DUP6 DUP9 DUP9 CALL SWAP4 POP POP POP POP ISZERO DUP1 ISZERO PUSH2 0xA41 JUMPI RETURNDATASIZE PUSH0 PUSH0 RETURNDATACOPY RETURNDATASIZE PUSH0 REVERT JUMPDEST POP JUMP JUMPDEST PUSH2 0xA5E DUP4 DUP4 DUP4 PUSH1 0x40 MLOAD DUP1 PUSH1 0x20 ADD PUSH1 0x40 MSTORE DUP1 PUSH0 DUP2 MSTORE POP PUSH2 0xF33 JUMP JUMPDEST POP POP POP JUMP JUMPDEST PUSH0 PUSH2 0xA6C PUSH2 0x8B4 JUMP JUMPDEST DUP3 LT PUSH2 0xAAD JUMPI PUSH1 0x40 MLOAD PUSH32 0x8C379A000000000000000000000000000000000000000000000000000000000 DUP2 MSTORE PUSH1 0x4 ADD PUSH2 0xAA4 SWAP1 PUSH2 0x2D8D JUMP JUMPDEST PUSH1 0x40 MLOAD DUP1 SWAP2 SUB SWAP1 REVERT JUMPDEST PUSH1 0x8 DUP3 DUP2 SLOAD DUP2 LT PUSH2 0xAC1 JUMPI PUSH2 0xAC0 PUSH2 0x2DAB JUMP JUMPDEST JUMPDEST SWAP1 PUSH0 MSTORE PUSH1 0x20 PUSH0 KECCAK256 ADD SLOAD SWAP1 POP SWAP2 SWAP1 POP JUMP JUMPDEST PUSH2 0xAD9 PUSH2 0x1195 JUMP JUMPDEST DUP1 PUSH1 0xB SWAP1 DUP2 PUSH2 0xAE8 SWAP2 SWAP1 PUSH2 0x2F78 JUMP JUMPDEST POP POP JUMP JUMPDEST PUSH0 PUSH0 PUSH1 0x2 PUSH0 DUP5 DUP2 MSTORE PUSH1 0x20 ADD SWAP1 DUP2 MSTORE PUSH1 0x20 ADD PUSH0 KECCAK256 PUSH0 SWAP1 SLOAD SWAP1 PUSH2 0x100 EXP SWAP1 DIV PUSH20 0xFFFFFFFFFFFFFFFFFFFFFFFFFFFFFFFFFFFFFFFF AND SWAP1 POP PUSH0 PUSH20 0xFFFFFFFFFFFFFFFFFFFFFFFFFFFFFFFFFFFFFFFF AND DUP2 PUSH20 0xFFFFFFFFFFFFFFFFFFFFFFFFFFFFFFFFFFFFFFFF AND SUB PUSH2 0xB8F JUMPI PUSH1 0x40 MLOAD PUSH32 0x8C379A000000000000000000000000000000000000000000000000000000000 DUP2 MSTORE PUSH1 0x4 ADD PUSH2 0xB86 SWAP1 PUSH2 0x3091 JUMP JUMPDEST PUSH1 0x40 MLOAD DUP1 SWAP2 SUB SWAP1 REVERT JUMPDEST DUP1 SWAP2 POP POP SWAP2 SWAP1 POP JUMP JUMPDEST PUSH0 PUSH0 PUSH20 0xFFFFFFFFFFFFFFFFFFFFFFFFFFFFFFFFFFFFFFFF AND DUP3 PUSH20 0xFFFFFFFFFFFFFFFFFFFFFFFFFFFFFFFFFFFFFFFF AND SUB PUSH2 0xC07 JUMPI PUSH1 0x40 MLOAD PUSH32 0x8C379A000000000000000000000000000000000000000000000000000000000 DUP2 MSTORE PUSH1 0x4 ADD PUSH2 0xBFE SWAP1 PUSH2 0x311F JUMP JUMPDEST PUSH1 0x40 MLOAD DUP1 SWAP2 SUB SWAP1 REVERT JUMPDEST PUSH1 0x3 PUSH0 DUP4 PUSH20 0xFFFFFFFFFFFFFFFFFFFFFFFFFFFFFFFFFFFFFFFF AND PUSH20 0xFFFFFFFFFFFFFFFFFFFFFFFFFFFFFFFFFFFFFFFF AND DUP2 MSTORE PUSH1 0x20 ADD SWAP1 DUP2 MSTORE PUSH1 0x20 ADD PUSH0 KECCAK256 SLOAD SWAP1 POP SWAP2 SWAP1 POP JUMP JUMPDEST PUSH2 0xC54 PUSH2 0x1195 JUMP JUMPDEST PUSH2 0xC5D PUSH0 PUSH2 0x160A JUMP JUMPDEST JUMP JUMPDEST PUSH2 0xC67 PUSH2 0x1195 JUMP JUMPDEST PUSH0 PUSH2 0xC70 PUSH2 0x8B4 JUMP JUMPDEST SWAP1 POP PUSH32 0x0 DUP3 DUP3 PUSH2 0xC9F SWAP2 SWAP1 PUSH2 0x316A JUMP JUMPDEST GT ISZERO PUSH2 0xCE0 JUMPI PUSH1 0x40 MLOAD PUSH32 0x8C379A000000000000000000000000000000000000000000000000000000000 DUP2 MSTORE PUSH1 0x4 ADD PUSH2 0xCD7 SWAP1 PUSH2 0x31E7 JUMP JUMPDEST PUSH1 0x40 MLOAD DUP1 SWAP2 SUB SWAP1 REVERT JUMPDEST PUSH0 PUSH0 SWAP1 POP JUMPDEST DUP3 DUP2 LT ISZERO PUSH2 0xD0F JUMPI PUSH2 0xD02 CALLER DUP3 DUP5 PUSH2 0xCFD SWAP2 SWAP1 PUSH2 0x316A JUMP JUMPDEST PUSH2 0x16CD JUMP JUMPDEST DUP1 DUP1 PUSH1 0x1 ADD SWAP2 POP POP PUSH2 0xCE5 JUMP JUMPDEST POP POP POP JUMP JUMPDEST PUSH0 PUSH1 0xA PUSH0 SWAP1 SLOAD SWAP1 PUSH2 0x100 EXP SWAP1 DIV PUSH20 0xFFFFFFFFFFFFFFFFFFFFFFFFFFFFFFFFFFFFFFFF AND SWAP1 POP SWAP1 JUMP JUMPDEST PUSH1 0x60 PUSH1 0x1 DUP1 SLOAD PUSH2 0xD4B SWAP1 PUSH2 0x2AB5 JUMP JUMPDEST DUP1 PUSH1 0x1F ADD PUSH1 0x20 DUP1 SWAP2 DIV MUL PUSH1 0x20 ADD PUSH1 0x40 MLOAD SWAP1 DUP2 ADD PUSH1 0x40 MSTORE DUP1 SWAP3 SWAP2 SWAP1 DUP2 DUP2 MSTORE PUSH1 0x20 ADD DUP3 DUP1 SLOAD PUSH2 0xD77 SWAP1 PUSH2 0x2AB5 JUMP JUMPDEST DUP1 ISZERO PUSH2 0xDC2 JUMPI DUP1 PUSH1 0x1F LT PUSH2 0xD99 JUMPI PUSH2 0x100 DUP1 DUP4 SLOAD DIV MUL DUP4 MSTORE SWAP2 PUSH1 0x20 ADD SWAP2 PUSH2 0xDC2 JUMP JUMPDEST DUP3 ADD SWAP2 SWAP1 PUSH0 MSTORE PUSH1 0x20 PUSH0 KECCAK256 SWAP1 JUMPDEST DUP2 SLOAD DUP2 MSTORE SWAP1 PUSH1 0x1 ADD SWAP1 PUSH1 0x20 ADD DUP1 DUP4 GT PUSH2 0xDA5 JUMPI DUP3 SWAP1 SUB PUSH1 0x1F AND DUP3 ADD SWAP2 JUMPDEST POP POP POP POP POP SWAP1 POP SWAP1 JUMP JUMPDEST PUSH1 0xD SLOAD DUP2 JUMP JUMPDEST PUSH0 PUSH2 0xDDB PUSH2 0x8B4 JUMP JUMPDEST SWAP1 POP PUSH1 0xC PUSH0 SWAP1 SLOAD SWAP1 PUSH2 0x100 EXP SWAP1 DIV PUSH1 0xFF AND PUSH2 0xE2B JUMPI PUSH1 0x40 MLOAD PUSH32 0x8C379A000000000000000000000000000000000000000000000000000000000 DUP2 MSTORE PUSH1 0x4 ADD PUSH2 0xE22 SWAP1 PUSH2 0x3275 JUMP JUMPDEST PUSH1 0x40 MLOAD DUP1 SWAP2 SUB SWAP1 REVERT JUMPDEST PUSH32 0x0 DUP3 DUP3 PUSH2 0xE58 SWAP2 SWAP1 PUSH2 0x316A JUMP JUMPDEST GT ISZERO PUSH2 0xE99 JUMPI PUSH1 0x40 MLOAD PUSH32 0x8C379A000000000000000000000000000000000000000000000000000000000 DUP2 MSTORE PUSH1 0x4 ADD PUSH2 0xE90 SWAP1 PUSH2 0x31E7 JUMP JUMPDEST PUSH1 0x40 MLOAD DUP1 SWAP2 SUB SWAP1 REVERT JUMPDEST CALLVALUE DUP3 PUSH1 0xD SLOAD PUSH2 0xEA8 SWAP2 SWAP1 PUSH2 0x3293 JUMP JUMPDEST GT ISZERO PUSH2 0xEE9 JUMPI PUSH1 0x40 MLOAD PUSH32 0x8C379A000000000000000000000000000000000000000000000000000000000 DUP2 MSTORE PUSH1 0x4 ADD PUSH2 0xEE0 SWAP1 PUSH2 0x331E JUMP JUMPDEST PUSH1 0x40 MLOAD DUP1 SWAP2 SUB SWAP1 REVERT JUMPDEST PUSH0 PUSH0 SWAP1 POP JUMPDEST DUP3 DUP2 LT ISZERO PUSH2 0xF18 JUMPI PUSH2 0xF0B CALLER DUP3 DUP5 PUSH2 0xF06 SWAP2 SWAP1 PUSH2 0x316A JUMP JUMPDEST PUSH2 0x16CD JUMP JUMPDEST DUP1 DUP1 PUSH1 0x1 ADD SWAP2 POP POP PUSH2 0xEEE JUMP JUMPDEST POP POP POP JUMP JUMPDEST PUSH2 0xF2F PUSH2 0xF28 PUSH2 0x125E JUMP JUMPDEST DUP4 DUP4 PUSH2 0x16EA JUMP JUMPDEST POP POP JUMP JUMPDEST PUSH2 0xF44 PUSH2 0xF3E PUSH2 0x125E JUMP JUMPDEST DUP4 PUSH2 0x131B JUMP JUMPDEST PUSH2 0xF83 JUMPI PUSH1 0x40 MLOAD PUSH32 0x8C379A000000000000000000000000000000000000000000000000000000000 DUP2 MSTORE PUSH1 0x4 ADD PUSH2 0xF7A SWAP1 PUSH2 0x2C71 JUMP JUMPDEST PUSH1 0x40 MLOAD DUP1 SWAP2 SUB SWAP1 REVERT JUMPDEST PUSH2 0xF8F DUP5 DUP5 DUP5 DUP5 PUSH2 0x1851 JUMP JUMPDEST POP POP POP POP JUMP JUMPDEST PUSH1 0x60 PUSH2 0xFA0 DUP3 PUSH2 0x1213 JUMP JUMPDEST PUSH0 PUSH2 0xFA9 PUSH2 0x18AD JUMP JUMPDEST SWAP1 POP PUSH0 DUP2 MLOAD GT PUSH2 0xFC7 JUMPI PUSH1 0x40 MLOAD DUP1 PUSH1 0x20 ADD PUSH1 0x40 MSTORE DUP1 PUSH0 DUP2 MSTORE POP PUSH2 0xFF2 JUMP JUMPDEST DUP1 PUSH2 0xFD1 DUP5 PUSH2 0x193D JUMP JUMPDEST PUSH1 0x40 MLOAD PUSH1 0x20 ADD PUSH2 0xFE2 SWAP3 SWAP2 SWAP1 PUSH2 0x3376 JUMP JUMPDEST PUSH1 0x40 MLOAD PUSH1 0x20 DUP2 DUP4 SUB SUB DUP2 MSTORE SWAP1 PUSH1 0x40 MSTORE JUMPDEST SWAP2 POP POP SWAP2 SWAP1 POP JUMP JUMPDEST PUSH0 PUSH1 0x5 PUSH0 DUP5 PUSH20 0xFFFFFFFFFFFFFFFFFFFFFFFFFFFFFFFFFFFFFFFF AND PUSH20 0xFFFFFFFFFFFFFFFFFFFFFFFFFFFFFFFFFFFFFFFF AND DUP2 MSTORE PUSH1 0x20 ADD SWAP1 DUP2 MSTORE PUSH1 0x20 ADD PUSH0 KECCAK256 PUSH0 DUP4 PUSH20 0xFFFFFFFFFFFFFFFFFFFFFFFFFFFFFFFFFFFFFFFF AND PUSH20 0xFFFFFFFFFFFFFFFFFFFFFFFFFFFFFFFFFFFFFFFF AND DUP2 MSTORE PUSH1 0x20 ADD SWAP1 DUP2 MSTORE PUSH1 0x20 ADD PUSH0 KECCAK256 PUSH0 SWAP1 SLOAD SWAP1 PUSH2 0x100 EXP SWAP1 DIV PUSH1 0xFF AND SWAP1 POP SWAP3 SWAP2 POP POP JUMP JUMPDEST PUSH1 0xC PUSH0 SWAP1 SLOAD SWAP1 PUSH2 0x100 EXP SWAP1 DIV PUSH1 0xFF AND DUP2 JUMP JUMPDEST PUSH2 0x10A2 PUSH2 0x1195 JUMP JUMPDEST PUSH0 PUSH20 0xFFFFFFFFFFFFFFFFFFFFFFFFFFFFFFFFFFFFFFFF AND DUP2 PUSH20 0xFFFFFFFFFFFFFFFFFFFFFFFFFFFFFFFFFFFFFFFF AND SUB PUSH2 0x1110 JUMPI PUSH1 0x40 MLOAD PUSH32 0x8C379A000000000000000000000000000000000000000000000000000000000 DUP2 MSTORE PUSH1 0x4 ADD PUSH2 0x1107 SWAP1 PUSH2 0x3409 JUMP JUMPDEST PUSH1 0x40 MLOAD DUP1 SWAP2 SUB SWAP1 REVERT JUMPDEST PUSH2 0x1119 DUP2 PUSH2 0x160A JUMP JUMPDEST POP JUMP JUMPDEST PUSH0 PUSH32 0x780E9D6300000000000000000000000000000000000000000000000000000000 PUSH28 0xFFFFFFFFFFFFFFFFFFFFFFFFFFFFFFFFFFFFFFFFFFFFFFFFFFFFFFFF NOT AND DUP3 PUSH28 0xFFFFFFFFFFFFFFFFFFFFFFFFFFFFFFFFFFFFFFFFFFFFFFFFFFFFFFFF NOT AND EQ DUP1 PUSH2 0x118E JUMPI POP PUSH2 0x118D DUP3 PUSH2 0x1A96 JUMP JUMPDEST JUMPDEST SWAP1 POP SWAP2 SWAP1 POP JUMP JUMPDEST PUSH2 0x119D PUSH2 0x125E JUMP JUMPDEST PUSH20 0xFFFFFFFFFFFFFFFFFFFFFFFFFFFFFFFFFFFFFFFF AND PUSH2 0x11BB PUSH2 0xD14 JUMP JUMPDEST PUSH20 0xFFFFFFFFFFFFFFFFFFFFFFFFFFFFFFFFFFFFFFFF AND EQ PUSH2 0x1211 JUMPI PUSH1 0x40 MLOAD PUSH32 0x8C379A000000000000000000000000000000000000000000000000000000000 DUP2 MSTORE PUSH1 0x4 ADD PUSH2 0x1208 SWAP1 PUSH2 0x3471 JUMP JUMPDEST PUSH1 0x40 MLOAD DUP1 SWAP2 SUB SWAP1 REVERT JUMPDEST JUMP JUMPDEST PUSH2 0x121C DUP2 PUSH2 0x1B77 JUMP JUMPDEST PUSH2 0x125B JUMPI PUSH1 0x40 MLOAD PUSH32 0x8C379A000000000000000000000000000000000000000000000000000000000 DUP2 MSTORE PUSH1 0x4 ADD PUSH2 0x1252 SWAP1 PUSH2 0x3091 JUMP JUMPDEST PUSH1 0x40 MLOAD DUP1 SWAP2 SUB SWAP1 REVERT JUMPDEST POP JUMP JUMPDEST PUSH0 CALLER SWAP1 POP SWAP1 JUMP JUMPDEST DUP2 PUSH1 0x4 PUSH0 DUP4 DUP2 MSTORE PUSH1 0x20 ADD SWAP1 DUP2 MSTORE PUSH1 0x20 ADD PUSH0 KECCAK256 PUSH0 PUSH2 0x100 EXP DUP2 SLOAD DUP2 PUSH20 0xFFFFFFFFFFFFFFFFFFFFFFFFFFFFFFFFFFFFFFFF MUL NOT AND SWAP1 DUP4 PUSH20 0xFFFFFFFFFFFFFFFFFFFFFFFFFFFFFFFFFFFFFFFF AND MUL OR SWAP1 SSTORE POP DUP1 DUP3 PUSH20 0xFFFFFFFFFFFFFFFFFFFFFFFFFFFFFFFFFFFFFFFF AND PUSH2 0x12D5 DUP4 PUSH2 0xAEC JUMP JUMPDEST PUSH20 0xFFFFFFFFFFFFFFFFFFFFFFFFFFFFFFFFFFFFFFFF AND PUSH32 0x8C5BE1E5EBEC7D5BD14F71427D1E84F3DD0314C0F7B2291E5B200AC8C7C3B925 PUSH1 0x40 MLOAD PUSH1 0x40 MLOAD DUP1 SWAP2 SUB SWAP1 LOG4 POP POP JUMP JUMPDEST PUSH0 PUSH0 PUSH2 0x1326 DUP4 PUSH2 0xAEC JUMP JUMPDEST SWAP1 POP DUP1 PUSH20 0xFFFFFFFFFFFFFFFFFFFFFFFFFFFFFFFFFFFFFFFF AND DUP5 PUSH20 0xFFFFFFFFFFFFFFFFFFFFFFFFFFFFFFFFFFFFFFFF AND EQ DUP1 PUSH2 0x1368 JUMPI POP PUSH2 0x1367 DUP2 DUP6 PUSH2 0xFFA JUMP JUMPDEST JUMPDEST DUP1 PUSH2 0x13A6 JUMPI POP DUP4 PUSH20 0xFFFFFFFFFFFFFFFFFFFFFFFFFFFFFFFFFFFFFFFF AND PUSH2 0x138E DUP5 PUSH2 0x75C JUMP JUMPDEST PUSH20 0xFFFFFFFFFFFFFFFFFFFFFFFFFFFFFFFFFFFFFFFF AND EQ JUMPDEST SWAP2 POP POP SWAP3 SWAP2 POP POP JUMP JUMPDEST DUP3 PUSH20 0xFFFFFFFFFFFFFFFFFFFFFFFFFFFFFFFFFFFFFFFF AND PUSH2 0x13CF DUP3 PUSH2 0xAEC JUMP JUMPDEST PUSH20 0xFFFFFFFFFFFFFFFFFFFFFFFFFFFFFFFFFFFFFFFF AND EQ PUSH2 0x1425 JUMPI PUSH1 0x40 MLOAD PUSH32 0x8C379A000000000000000000000000000000000000000000000000000000000 DUP2 MSTORE PUSH1 0x4 ADD PUSH2 0x141C SWAP1 PUSH2 0x34FF JUMP JUMPDEST PUSH1 0x40 MLOAD DUP1 SWAP2 SUB SWAP1 REVERT JUMPDEST PUSH0 PUSH20 0xFFFFFFFFFFFFFFFFFFFFFFFFFFFFFFFFFFFFFFFF AND DUP3 PUSH20 0xFFFFFFFFFFFFFFFFFFFFFFFFFFFFFFFFFFFFFFFF AND SUB PUSH2 0x1493 JUMPI PUSH1 0x40 MLOAD PUSH32 0x8C379A000000000000000000000000000000000000000000000000000000000 DUP2 MSTORE PUSH1 0x4 ADD PUSH2 0x148A SWAP1 PUSH2 0x358D JUMP JUMPDEST PUSH1 0x40 MLOAD DUP1 SWAP2 SUB SWAP1 REVERT JUMPDEST PUSH2 0x149E DUP4 DUP4 DUP4 PUSH2 0x1BDF JUMP JUMPDEST PUSH2 0x14A8 PUSH0 DUP3 PUSH2 0x1265 JUMP JUMPDEST PUSH1 0x1 PUSH1 0x3 PUSH0 DUP6 PUSH20 0xFFFFFFFFFFFFFFFFFFFFFFFFFFFFFFFFFFFFFFFF AND PUSH20 0xFFFFFFFFFFFFFFFFFFFFFFFFFFFFFFFFFFFFFFFF AND DUP2 MSTORE PUSH1 0x20 ADD SWAP1 DUP2 MSTORE PUSH1 0x20 ADD PUSH0 KECCAK256 PUSH0 DUP3 DUP3 SLOAD PUSH2 0x14F5 SWAP2 SWAP1 PUSH2 0x35AB JUMP JUMPDEST SWAP3 POP POP DUP2 SWAP1 SSTORE POP PUSH1 0x1 PUSH1 0x3 PUSH0 DUP5 PUSH20 0xFFFFFFFFFFFFFFFFFFFFFFFFFFFFFFFFFFFFFFFF AND PUSH20 0xFFFFFFFFFFFFFFFFFFFFFFFFFFFFFFFFFFFFFFFF AND DUP2 MSTORE PUSH1 0x20 ADD SWAP1 DUP2 MSTORE PUSH1 0x20 ADD PUSH0 KECCAK256 PUSH0 DUP3 DUP3 SLOAD PUSH2 0x1549 SWAP2 SWAP1 PUSH2 0x316A JUMP JUMPDEST SWAP3 POP POP DUP2 SWAP1 SSTORE POP DUP2 PUSH1 0x2 PUSH0 DUP4 DUP2 MSTORE PUSH1 0x20 ADD SWAP1 DUP2 MSTORE PUSH1 0x20 ADD PUSH0 KECCAK256 PUSH0 PUSH2 0x100 EXP DUP2 SLOAD DUP2 PUSH20 0xFFFFFFFFFFFFFFFFFFFFFFFFFFFFFFFFFFFFFFFF MUL NOT AND SWAP1 DUP4 PUSH20 0xFFFFFFFFFFFFFFFFFFFFFFFFFFFFFFFFFFFFFFFF AND MUL OR SWAP1 SSTORE POP DUP1 DUP3 PUSH20 0xFFFFFFFFFFFFFFFFFFFFFFFFFFFFFFFFFFFFFFFF AND DUP5 PUSH20 0xFFFFFFFFFFFFFFFFFFFFFFFFFFFFFFFFFFFFFFFF AND PUSH32 0xDDF252AD1BE2C89B69C2B068FC378DAA952BA7F163C4A11628F55A4DF523B3EF PUSH1 0x40 MLOAD PUSH1 0x40 MLOAD DUP1 SWAP2 SUB SWAP1 LOG4 PUSH2 0x1605 DUP4 DUP4 DUP4 PUSH2 0x1BEF JUMP JUMPDEST POP POP POP JUMP JUMPDEST PUSH0 PUSH1 0xA PUSH0 SWAP1 SLOAD SWAP1 PUSH2 0x100 EXP SWAP1 DIV PUSH20 0xFFFFFFFFFFFFFFFFFFFFFFFFFFFFFFFFFFFFFFFF AND SWAP1 POP DUP2 PUSH1 0xA PUSH0 PUSH2 0x100 EXP DUP2 SLOAD DUP2 PUSH20 0xFFFFFFFFFFFFFFFFFFFFFFFFFFFFFFFFFFFFFFFF MUL NOT AND SWAP1 DUP4 PUSH20 0xFFFFFFFFFFFFFFFFFFFFFFFFFFFFFFFFFFFFFFFF AND MUL OR SWAP1 SSTORE POP DUP2 PUSH20 0xFFFFFFFFFFFFFFFFFFFFFFFFFFFFFFFFFFFFFFFF AND DUP2 PUSH20 0xFFFFFFFFFFFFFFFFFFFFFFFFFFFFFFFFFFFFFFFF AND PUSH32 0x8BE0079C531659141344CD1FD0A4F28419497F9722A3DAAFE3B4186F6B6457E0 PUSH1 0x40 MLOAD PUSH1 0x40 MLOAD DUP1 SWAP2 SUB SWAP1 LOG3 POP POP JUMP JUMPDEST PUSH2 0x16E6 DUP3 DUP3 PUSH1 0x40 MLOAD DUP1 PUSH1 0x20 ADD PUSH1 0x40 MSTORE DUP1 PUSH0 DUP2 MSTORE POP PUSH2 0x1BF4 JUMP JUMPDEST POP POP JUMP JUMPDEST DUP2 PUSH20 0xFFFFFFFFFFFFFFFFFFFFFFFFFFFFFFFFFFFFFFFF AND DUP4 PUSH20 0xFFFFFFFFFFFFFFFFFFFFFFFFFFFFFFFFFFFFFFFF AND SUB PUSH2 0x1758 JUMPI PUSH1 0x40 MLOAD PUSH32 0x8C379A000000000000000000000000000000000000000000000000000000000 DUP2 MSTORE PUSH1 0x4 ADD PUSH2 0x174F SWAP1 PUSH2 0x3628 JUMP JUMPDEST PUSH1 0x40 MLOAD DUP1 SWAP2 SUB SWAP1 REVERT JUMPDEST DUP1 PUSH1 0x5 PUSH0 DUP6 PUSH20 0xFFFFFFFFFFFFFFFFFFFFFFFFFFFFFFFFFFFFFFFF AND PUSH20 0xFFFFFFFFFFFFFFFFFFFFFFFFFFFFFFFFFFFFFFFF AND DUP2 MSTORE PUSH1 0x20 ADD SWAP1 DUP2 MSTORE PUSH1 0x20 ADD PUSH0 KECCAK256 PUSH0 DUP5 PUSH20 0xFFFFFFFFFFFFFFFFFFFFFFFFFFFFFFFFFFFFFFFF AND PUSH20 0xFFFFFFFFFFFFFFFFFFFFFFFFFFFFFFFFFFFFFFFF AND DUP2 MSTORE PUSH1 0x20 ADD SWAP1 DUP2 MSTORE PUSH1 0x20 ADD PUSH0 KECCAK256 PUSH0 PUSH2 0x100 EXP DUP2 SLOAD DUP2 PUSH1 0xFF MUL NOT AND SWAP1 DUP4 ISZERO ISZERO MUL OR SWAP1 SSTORE POP DUP2 PUSH20 0xFFFFFFFFFFFFFFFFFFFFFFFFFFFFFFFFFFFFFFFF AND DUP4 PUSH20 0xFFFFFFFFFFFFFFFFFFFFFFFFFFFFFFFFFFFFFFFF AND PUSH32 0x17307EAB39AB6107E8899845AD3D59BD9653F200F220920489CA2B5937696C31 DUP4 PUSH1 0x40 MLOAD PUSH2 0x1844 SWAP2 SWAP1 PUSH2 0x24BC JUMP JUMPDEST PUSH1 0x40 MLOAD DUP1 SWAP2 SUB SWAP1 LOG3 POP POP POP JUMP JUMPDEST PUSH2 0x185C DUP5 DUP5 DUP5 PUSH2 0x13AF JUMP JUMPDEST PUSH2 0x1868 DUP5 DUP5 DUP5 DUP5 PUSH2 0x1C4E JUMP JUMPDEST PUSH2 0x18A7 JUMPI PUSH1 0x40 MLOAD PUSH32 0x8C379A000000000000000000000000000000000000000000000000000000000 DUP2 MSTORE PUSH1 0x4 ADD PUSH2 0x189E SWAP1 PUSH2 0x36B6 JUMP JUMPDEST PUSH1 0x40 MLOAD DUP1 SWAP2 SUB SWAP1 REVERT JUMPDEST POP POP POP POP JUMP JUMPDEST PUSH1 0x60 PUSH1 0xB DUP1 SLOAD PUSH2 0x18BC SWAP1 PUSH2 0x2AB5 JUMP JUMPDEST DUP1 PUSH1 0x1F ADD PUSH1 0x20 DUP1 SWAP2 DIV MUL PUSH1 0x20 ADD PUSH1 0x40 MLOAD SWAP1 DUP2 ADD PUSH1 0x40 MSTORE DUP1 SWAP3 SWAP2 SWAP1 DUP2 DUP2 MSTORE PUSH1 0x20 ADD DUP3 DUP1 SLOAD PUSH2 0x18E8 SWAP1 PUSH2 0x2AB5 JUMP JUMPDEST DUP1 ISZERO PUSH2 0x1933 JUMPI DUP1 PUSH1 0x1F LT PUSH2 0x190A JUMPI PUSH2 0x100 DUP1 DUP4 SLOAD DIV MUL DUP4 MSTORE SWAP2 PUSH1 0x20 ADD SWAP2 PUSH2 0x1933 JUMP JUMPDEST DUP3 ADD SWAP2 SWAP1 PUSH0 MSTORE PUSH1 0x20 PUSH0 KECCAK256 SWAP1 JUMPDEST DUP2 SLOAD DUP2 MSTORE SWAP1 PUSH1 0x1 ADD SWAP1 PUSH1 0x20 ADD DUP1 DUP4 GT PUSH2 0x1916 JUMPI DUP3 SWAP1 SUB PUSH1 0x1F AND DUP3 ADD SWAP2 JUMPDEST POP POP POP POP POP SWAP1 POP SWAP1 JUMP JUMPDEST PUSH1 0x60 PUSH0 DUP3 SUB PUSH2 0x1983 JUMPI PUSH1 0x40 MLOAD DUP1 PUSH1 0x40 ADD PUSH1 0x40 MSTORE DUP1 PUSH1 0x1 DUP2 MSTORE PUSH1 0x20 ADD PUSH32 0x3000000000000000000000000000000000000000000000000000000000000000 DUP2 MSTORE POP SWAP1 POP PUSH2 0x1A91 JUMP JUMPDEST PUSH0 DUP3 SWAP1 POP PUSH0 JUMPDEST PUSH0 DUP3 EQ PUSH2 0x19B2 JUMPI DUP1 DUP1 PUSH2 0x199B SWAP1 PUSH2 0x36D4 JUMP JUMPDEST SWAP2 POP POP PUSH1 0xA DUP3 PUSH2 0x19AB SWAP2 SWAP1 PUSH2 0x3748 JUMP JUMPDEST SWAP2 POP PUSH2 0x1989 JUMP JUMPDEST PUSH0 DUP2 PUSH8 0xFFFFFFFFFFFFFFFF DUP2 GT ISZERO PUSH2 0x19CD JUMPI PUSH2 0x19CC PUSH2 0x2758 JUMP JUMPDEST JUMPDEST PUSH1 0x40 MLOAD SWAP1 DUP1 DUP3 MSTORE DUP1 PUSH1 0x1F ADD PUSH1 0x1F NOT AND PUSH1 0x20 ADD DUP3 ADD PUSH1 0x40 MSTORE DUP1 ISZERO PUSH2 0x19FF JUMPI DUP2 PUSH1 0x20 ADD PUSH1 0x1 DUP3 MUL DUP1 CALLDATASIZE DUP4 CALLDATACOPY DUP1 DUP3 ADD SWAP2 POP POP SWAP1 POP JUMPDEST POP SWAP1 POP JUMPDEST PUSH0 DUP6 EQ PUSH2 0x1A8A JUMPI PUSH1 0x1 DUP3 PUSH2 0x1A17 SWAP2 SWAP1 PUSH2 0x35AB JUMP JUMPDEST SWAP2 POP PUSH1 0xA DUP6 PUSH2 0x1A26 SWAP2 SWAP1 PUSH2 0x3778 JUMP JUMPDEST PUSH1 0x30 PUSH2 0x1A32 SWAP2 SWAP1 PUSH2 0x316A JUMP JUMPDEST PUSH1 0xF8 SHL DUP2 DUP4 DUP2 MLOAD DUP2 LT PUSH2 0x1A48 JUMPI PUSH2 0x1A47 PUSH2 0x2DAB JUMP JUMPDEST JUMPDEST PUSH1 0x20 ADD ADD SWAP1 PUSH31 0xFFFFFFFFFFFFFFFFFFFFFFFFFFFFFFFFFFFFFFFFFFFFFFFFFFFFFFFFFFFFFF NOT AND SWAP1 DUP2 PUSH0 BYTE SWAP1 MSTORE8 POP PUSH1 0xA DUP6 PUSH2 0x1A83 SWAP2 SWAP1 PUSH2 0x3748 JUMP JUMPDEST SWAP5 POP PUSH2 0x1A03 JUMP JUMPDEST DUP1 SWAP4 POP POP POP POP JUMPDEST SWAP2 SWAP1 POP JUMP JUMPDEST PUSH0 PUSH32 0x80AC58CD00000000000000000000000000000000000000000000000000000000 PUSH28 0xFFFFFFFFFFFFFFFFFFFFFFFFFFFFFFFFFFFFFFFFFFFFFFFFFFFFFFFF NOT AND DUP3 PUSH28 0xFFFFFFFFFFFFFFFFFFFFFFFFFFFFFFFFFFFFFFFFFFFFFFFFFFFFFFFF NOT AND EQ DUP1 PUSH2 0x1B60 JUMPI POP PUSH32 0x5B5E139F00000000000000000000000000000000000000000000000000000000 PUSH28 0xFFFFFFFFFFFFFFFFFFFFFFFFFFFFFFFFFFFFFFFFFFFFFFFFFFFFFFFF NOT AND DUP3 PUSH28 0xFFFFFFFFFFFFFFFFFFFFFFFFFFFFFFFFFFFFFFFFFFFFFFFFFFFFFFFF NOT AND EQ JUMPDEST DUP1 PUSH2 0x1B70 JUMPI POP PUSH2 0x1B6F DUP3 PUSH2 0x1DD0 JUMP JUMPDEST JUMPDEST SWAP1 POP SWAP2 SWAP1 POP JUMP JUMPDEST PUSH0 PUSH0 PUSH20 0xFFFFFFFFFFFFFFFFFFFFFFFFFFFFFFFFFFFFFFFF AND PUSH1 0x2 PUSH0 DUP5 DUP2 MSTORE PUSH1 0x20 ADD SWAP1 DUP2 MSTORE PUSH1 0x20 ADD PUSH0 KECCAK256 PUSH0 SWAP1 SLOAD SWAP1 PUSH2 0x100 EXP SWAP1 DIV PUSH20 0xFFFFFFFFFFFFFFFFFFFFFFFFFFFFFFFFFFFFFFFF AND PUSH20 0xFFFFFFFFFFFFFFFFFFFFFFFFFFFFFFFFFFFFFFFF AND EQ ISZERO SWAP1 POP SWAP2 SWAP1 POP JUMP JUMPDEST PUSH2 0x1BEA DUP4 DUP4 DUP4 PUSH2 0x1E39 JUMP JUMPDEST POP POP POP JUMP JUMPDEST POP POP POP JUMP JUMPDEST PUSH2 0x1BFE DUP4 DUP4 PUSH2 0x1F49 JUMP JUMPDEST PUSH2 0x1C0A PUSH0 DUP5 DUP5 DUP5 PUSH2 0x1C4E JUMP JUMPDEST PUSH2 0x1C49 JUMPI PUSH1 0x40 MLOAD PUSH32 0x8C379A000000000000000000000000000000000000000000000000000000000 DUP2 MSTORE PUSH1 0x4 ADD PUSH2 0x1C40 SWAP1 PUSH2 0x36B6 JUMP JUMPDEST PUSH1 0x40 MLOAD DUP1 SWAP2 SUB SWAP1 REVERT JUMPDEST POP POP POP JUMP JUMPDEST PUSH0 PUSH2 0x1C6E DUP5 PUSH20 0xFFFFFFFFFFFFFFFFFFFFFFFFFFFFFFFFFFFFFFFF AND PUSH2 0x2118 JUMP JUMPDEST ISZERO PUSH2 0x1DC3 JUMPI DUP4 PUSH20 0xFFFFFFFFFFFFFFFFFFFFFFFFFFFFFFFFFFFFFFFF AND PUSH4 0x150B7A02 PUSH2 0x1C97 PUSH2 0x125E JUMP JUMPDEST DUP8 DUP7 DUP7 PUSH1 0x40 MLOAD DUP6 PUSH4 0xFFFFFFFF AND PUSH1 0xE0 SHL DUP2 MSTORE PUSH1 0x4 ADD PUSH2 0x1CB9 SWAP5 SWAP4 SWAP3 SWAP2 SWAP1 PUSH2 0x37FA JUMP JUMPDEST PUSH1 0x20 PUSH1 0x40 MLOAD DUP1 DUP4 SUB DUP2 PUSH0 DUP8 GAS CALL SWAP3 POP POP POP DUP1 ISZERO PUSH2 0x1CF4 JUMPI POP PUSH1 0x40 MLOAD RETURNDATASIZE PUSH1 0x1F NOT PUSH1 0x1F DUP3 ADD AND DUP3 ADD DUP1 PUSH1 0x40 MSTORE POP DUP2 ADD SWAP1 PUSH2 0x1CF1 SWAP2 SWAP1 PUSH2 0x3858 JUMP JUMPDEST PUSH1 0x1 JUMPDEST PUSH2 0x1D73 JUMPI RETURNDATASIZE DUP1 PUSH0 DUP2 EQ PUSH2 0x1D22 JUMPI PUSH1 0x40 MLOAD SWAP2 POP PUSH1 0x1F NOT PUSH1 0x3F RETURNDATASIZE ADD AND DUP3 ADD PUSH1 0x40 MSTORE RETURNDATASIZE DUP3 MSTORE RETURNDATASIZE PUSH0 PUSH1 0x20 DUP5 ADD RETURNDATACOPY PUSH2 0x1D27 JUMP JUMPDEST PUSH1 0x60 SWAP2 POP JUMPDEST POP PUSH0 DUP2 MLOAD SUB PUSH2 0x1D6B JUMPI PUSH1 0x40 MLOAD PUSH32 0x8C379A000000000000000000000000000000000000000000000000000000000 DUP2 MSTORE PUSH1 0x4 ADD PUSH2 0x1D62 SWAP1 PUSH2 0x36B6 JUMP JUMPDEST PUSH1 0x40 MLOAD DUP1 SWAP2 SUB SWAP1 REVERT JUMPDEST DUP1 MLOAD DUP2 PUSH1 0x20 ADD REVERT JUMPDEST PUSH4 0x150B7A02 PUSH1 0xE0 SHL PUSH28 0xFFFFFFFFFFFFFFFFFFFFFFFFFFFFFFFFFFFFFFFFFFFFFFFFFFFFFFFF NOT AND DUP2 PUSH28 0xFFFFFFFFFFFFFFFFFFFFFFFFFFFFFFFFFFFFFFFFFFFFFFFFFFFFFFFF NOT AND EQ SWAP2 POP POP PUSH2 0x1DC8 JUMP JUMPDEST PUSH1 0x1 SWAP1 POP JUMPDEST SWAP5 SWAP4 POP POP POP POP JUMP JUMPDEST PUSH0 PUSH32 0x1FFC9A700000000000000000000000000000000000000000000000000000000 PUSH28 0xFFFFFFFFFFFFFFFFFFFFFFFFFFFFFFFFFFFFFFFFFFFFFFFFFFFFFFFF NOT AND DUP3 PUSH28 0xFFFFFFFFFFFFFFFFFFFFFFFFFFFFFFFFFFFFFFFFFFFFFFFFFFFFFFFF NOT AND EQ SWAP1 POP SWAP2 SWAP1 POP JUMP JUMPDEST PUSH2 0x1E44 DUP4 DUP4 DUP4 PUSH2 0x213A JUMP JUMPDEST PUSH0 PUSH20 0xFFFFFFFFFFFFFFFFFFFFFFFFFFFFFFFFFFFFFFFF AND DUP4 PUSH20 0xFFFFFFFFFFFFFFFFFFFFFFFFFFFFFFFFFFFFFFFF AND SUB PUSH2 0x1E85 JUMPI PUSH2 0x1E80 DUP2 PUSH2 0x213F JUMP JUMPDEST PUSH2 0x1EC4 JUMP JUMPDEST DUP2 PUSH20 0xFFFFFFFFFFFFFFFFFFFFFFFFFFFFFFFFFFFFFFFF AND DUP4 PUSH20 0xFFFFFFFFFFFFFFFFFFFFFFFFFFFFFFFFFFFFFFFF AND EQ PUSH2 0x1EC3 JUMPI PUSH2 0x1EC2 DUP4 DUP3 PUSH2 0x2183 JUMP JUMPDEST JUMPDEST JUMPDEST PUSH0 PUSH20 0xFFFFFFFFFFFFFFFFFFFFFFFFFFFFFFFFFFFFFFFF AND DUP3 PUSH20 0xFFFFFFFFFFFFFFFFFFFFFFFFFFFFFFFFFFFFFFFF AND SUB PUSH2 0x1F05 JUMPI PUSH2 0x1F00 DUP2 PUSH2 0x22D9 JUMP JUMPDEST PUSH2 0x1F44 JUMP JUMPDEST DUP3 PUSH20 0xFFFFFFFFFFFFFFFFFFFFFFFFFFFFFFFFFFFFFFFF AND DUP3 PUSH20 0xFFFFFFFFFFFFFFFFFFFFFFFFFFFFFFFFFFFFFFFF AND EQ PUSH2 0x1F43 JUMPI PUSH2 0x1F42 DUP3 DUP3 PUSH2 0x2399 JUMP JUMPDEST JUMPDEST JUMPDEST POP POP POP JUMP JUMPDEST PUSH0 PUSH20 0xFFFFFFFFFFFFFFFFFFFFFFFFFFFFFFFFFFFFFFFF AND DUP3 PUSH20 0xFFFFFFFFFFFFFFFFFFFFFFFFFFFFFFFFFFFFFFFF AND SUB PUSH2 0x1FB7 JUMPI PUSH1 0x40 MLOAD PUSH32 0x8C379A000000000000000000000000000000000000000000000000000000000 DUP2 MSTORE PUSH1 0x4 ADD PUSH2 0x1FAE SWAP1 PUSH2 0x38CD JUMP JUMPDEST PUSH1 0x40 MLOAD DUP1 SWAP2 SUB SWAP1 REVERT JUMPDEST PUSH2 0x1FC0 DUP2 PUSH2 0x1B77 JUMP JUMPDEST ISZERO PUSH2 0x2000 JUMPI PUSH1 0x40 MLOAD PUSH32 0x8C379A000000000000000000000000000000000000000000000000000000000 DUP2 MSTORE PUSH1 0x4 ADD PUSH2 0x1FF7 SWAP1 PUSH2 0x3935 JUMP JUMPDEST PUSH1 0x40 MLOAD DUP1 SWAP2 SUB SWAP1 REVERT JUMPDEST PUSH2 0x200B PUSH0 DUP4 DUP4 PUSH2 0x1BDF JUMP JUMPDEST PUSH1 0x1 PUSH1 0x3 PUSH0 DUP5 PUSH20 0xFFFFFFFFFFFFFFFFFFFFFFFFFFFFFFFFFFFFFFFF AND PUSH20 0xFFFFFFFFFFFFFFFFFFFFFFFFFFFFFFFFFFFFFFFF AND DUP2 MSTORE PUSH1 0x20 ADD SWAP1 DUP2 MSTORE PUSH1 0x20 ADD PUSH0 KECCAK256 PUSH0 DUP3 DUP3 SLOAD PUSH2 0x2058 SWAP2 SWAP1 PUSH2 0x316A JUMP JUMPDEST SWAP3 POP POP DUP2 SWAP1 SSTORE POP DUP2 PUSH1 0x2 PUSH0 DUP4 DUP2 MSTORE PUSH1 0x20 ADD SWAP1 DUP2 MSTORE PUSH1 0x20 ADD PUSH0 KECCAK256 PUSH0 PUSH2 0x100 EXP DUP2 SLOAD DUP2 PUSH20 0xFFFFFFFFFFFFFFFFFFFFFFFFFFFFFFFFFFFFFFFF MUL NOT AND SWAP1 DUP4 PUSH20 0xFFFFFFFFFFFFFFFFFFFFFFFFFFFFFFFFFFFFFFFF AND MUL OR SWAP1 SSTORE POP DUP1 DUP3 PUSH20 0xFFFFFFFFFFFFFFFFFFFFFFFFFFFFFFFFFFFFFFFF AND PUSH0 PUSH20 0xFFFFFFFFFFFFFFFFFFFFFFFFFFFFFFFFFFFFFFFF AND PUSH32 0xDDF252AD1BE2C89B69C2B068FC378DAA952BA7F163C4A11628F55A4DF523B3EF PUSH1 0x40 MLOAD PUSH1 0x40 MLOAD DUP1 SWAP2 SUB SWAP1 LOG4 PUSH2 0x2114 PUSH0 DUP4 DUP4 PUSH2 0x1BEF JUMP JUMPDEST POP POP JUMP JUMPDEST PUSH0 PUSH0 DUP3 PUSH20 0xFFFFFFFFFFFFFFFFFFFFFFFFFFFFFFFFFFFFFFFF AND EXTCODESIZE GT SWAP1 POP SWAP2 SWAP1 POP JUMP JUMPDEST POP POP POP JUMP JUMPDEST PUSH1 0x8 DUP1 SLOAD SWAP1 POP PUSH1 0x9 PUSH0 DUP4 DUP2 MSTORE PUSH1 0x20 ADD SWAP1 DUP2 MSTORE PUSH1 0x20 ADD PUSH0 KECCAK256 DUP2 SWAP1 SSTORE POP PUSH1 0x8 DUP2 SWAP1 DUP1 PUSH1 0x1 DUP2 SLOAD ADD DUP1 DUP3 SSTORE DUP1 SWAP2 POP POP PUSH1 0x1 SWAP1 SUB SWAP1 PUSH0 MSTORE PUSH1 0x20 PUSH0 KECCAK256 ADD PUSH0 SWAP1 SWAP2 SWAP1 SWAP2 SWAP1 SWAP2 POP SSTORE POP JUMP JUMPDEST PUSH0 PUSH1 0x1 PUSH2 0x218F DUP5 PUSH2 0xB98 JUMP JUMPDEST PUSH2 0x2199 SWAP2 SWAP1 PUSH2 0x35AB JUMP JUMPDEST SWAP1 POP PUSH0 PUSH1 0x7 PUSH0 DUP5 DUP2 MSTORE PUSH1 0x20 ADD SWAP1 DUP2 MSTORE PUSH1 0x20 ADD PUSH0 KECCAK256 SLOAD SWAP1 POP DUP2 DUP2 EQ PUSH2 0x2270 JUMPI PUSH0 PUSH1 0x6 PUSH0 DUP7 PUSH20 0xFFFFFFFFFFFFFFFFFFFFFFFFFFFFFFFFFFFFFFFF AND PUSH20 0xFFFFFFFFFFFFFFFFFFFFFFFFFFFFFFFFFFFFFFFF AND DUP2 MSTORE PUSH1 0x20 ADD SWAP1 DUP2 MSTORE PUSH1 0x20 ADD PUSH0 KECCAK256 PUSH0 DUP5 DUP2 MSTORE PUSH1 0x20 ADD SWAP1 DUP2 MSTORE PUSH1 0x20 ADD PUSH0 KECCAK256 SLOAD SWAP1 POP DUP1 PUSH1 0x6 PUSH0 DUP8 PUSH20 0xFFFFFFFFFFFFFFFFFFFFFFFFFFFFFFFFFFFFFFFF AND PUSH20 0xFFFFFFFFFFFFFFFFFFFFFFFFFFFFFFFFFFFFFFFF AND DUP2 MSTORE PUSH1 0x20 ADD SWAP1 DUP2 MSTORE PUSH1 0x20 ADD PUSH0 KECCAK256 PUSH0 DUP5 DUP2 MSTORE PUSH1 0x20 ADD SWAP1 DUP2 MSTORE PUSH1 0x20 ADD PUSH0 KECCAK256 DUP2 SWAP1 SSTORE POP DUP2 PUSH1 0x7 PUSH0 DUP4 DUP2 MSTORE PUSH1 0x20 ADD SWAP1 DUP2 MSTORE PUSH1 0x20 ADD PUSH0 KECCAK256 DUP2 SWAP1 SSTORE POP POP JUMPDEST PUSH1 0x7 PUSH0 DUP5 DUP2 MSTORE PUSH1 0x20 ADD SWAP1 DUP2 MSTORE PUSH1 0x20 ADD PUSH0 KECCAK256 PUSH0 SWAP1 SSTORE PUSH1 0x6 PUSH0 DUP6 PUSH20 0xFFFFFFFFFFFFFFFFFFFFFFFFFFFFFFFFFFFFFFFF AND PUSH20 0xFFFFFFFFFFFFFFFFFFFFFFFFFFFFFFFFFFFFFFFF AND DUP2 MSTORE PUSH1 0x20 ADD SWAP1 DUP2 MSTORE PUSH1 0x20 ADD PUSH0 KECCAK256 PUSH0 DUP4 DUP2 MSTORE PUSH1 0x20 ADD SWAP1 DUP2 MSTORE PUSH1 0x20 ADD PUSH0 KECCAK256 PUSH0 SWAP1 SSTORE POP POP POP POP JUMP JUMPDEST PUSH0 PUSH1 0x1 PUSH1 0x8 DUP1 SLOAD SWAP1 POP PUSH2 0x22EC SWAP2 SWAP1 PUSH2 0x35AB JUMP JUMPDEST SWAP1 POP PUSH0 PUSH1 0x9 PUSH0 DUP5 DUP2 MSTORE PUSH1 0x20 ADD SWAP1 DUP2 MSTORE PUSH1 0x20 ADD PUSH0 KECCAK256 SLOAD SWAP1 POP PUSH0 PUSH1 0x8 DUP4 DUP2 SLOAD DUP2 LT PUSH2 0x2318 JUMPI PUSH2 0x2317 PUSH2 0x2DAB JUMP JUMPDEST JUMPDEST SWAP1 PUSH0 MSTORE PUSH1 0x20 PUSH0 KECCAK256 ADD SLOAD SWAP1 POP DUP1 PUSH1 0x8 DUP4 DUP2 SLOAD DUP2 LT PUSH2 0x2338 JUMPI PUSH2 0x2337 PUSH2 0x2DAB JUMP JUMPDEST JUMPDEST SWAP1 PUSH0 MSTORE PUSH1 0x20 PUSH0 KECCAK256 ADD DUP2 SWAP1 SSTORE POP DUP2 PUSH1 0x9 PUSH0 DUP4 DUP2 MSTORE PUSH1 0x20 ADD SWAP1 DUP2 MSTORE PUSH1 0x20 ADD PUSH0 KECCAK256 DUP2 SWAP1 SSTORE POP PUSH1 0x9 PUSH0 DUP6 DUP2 MSTORE PUSH1 0x20 ADD SWAP1 DUP2 MSTORE PUSH1 0x20 ADD PUSH0 KECCAK256 PUSH0 SWAP1 SSTORE PUSH1 0x8 DUP1 SLOAD DUP1 PUSH2 0x2380 JUMPI PUSH2 0x237F PUSH2 0x3953 JUMP JUMPDEST JUMPDEST PUSH1 0x1 SWAP1 SUB DUP2 DUP2 SWAP1 PUSH0 MSTORE PUSH1 0x20 PUSH0 KECCAK256 ADD PUSH0 SWAP1 SSTORE SWAP1 SSTORE POP POP POP POP JUMP JUMPDEST PUSH0 PUSH2 0x23A3 DUP4 PUSH2 0xB98 JUMP JUMPDEST SWAP1 POP DUP2 PUSH1 0x6 PUSH0 DUP6 PUSH20 0xFFFFFFFFFFFFFFFFFFFFFFFFFFFFFFFFFFFFFFFF AND PUSH20 0xFFFFFFFFFFFFFFFFFFFFFFFFFFFFFFFFFFFFFFFF AND DUP2 MSTORE PUSH1 0x20 ADD SWAP1 DUP2 MSTORE PUSH1 0x20 ADD PUSH0 KECCAK256 PUSH0 DUP4 DUP2 MSTORE PUSH1 0x20 ADD SWAP1 DUP2 MSTORE PUSH1 0x20 ADD PUSH0 KECCAK256 DUP2 SWAP1 SSTORE POP DUP1 PUSH1 0x7 PUSH0 DUP5 DUP2 MSTORE PUSH1 0x20 ADD SWAP1 DUP2 MSTORE PUSH1 0x20 ADD PUSH0 KECCAK256 DUP2 SWAP1 SSTORE POP POP POP POP JUMP JUMPDEST PUSH0 PUSH1 0x40 MLOAD SWAP1 POP SWAP1 JUMP JUMPDEST PUSH0 PUSH0 REVERT JUMPDEST PUSH0 PUSH0 REVERT JUMPDEST PUSH0 PUSH32 0xFFFFFFFF00000000000000000000000000000000000000000000000000000000 DUP3 AND SWAP1 POP SWAP2 SWAP1 POP JUMP JUMPDEST PUSH2 0x2456 DUP2 PUSH2 0x2422 JUMP JUMPDEST DUP2 EQ PUSH2 0x2460 JUMPI PUSH0 PUSH0 REVERT JUMPDEST POP JUMP JUMPDEST PUSH0 DUP2 CALLDATALOAD SWAP1 POP PUSH2 0x2471 DUP2 PUSH2 0x244D JUMP JUMPDEST SWAP3 SWAP2 POP POP JUMP JUMPDEST PUSH0 PUSH1 0x20 DUP3 DUP5 SUB SLT ISZERO PUSH2 0x248C JUMPI PUSH2 0x248B PUSH2 0x241A JUMP JUMPDEST JUMPDEST PUSH0 PUSH2 0x2499 DUP5 DUP3 DUP6 ADD PUSH2 0x2463 JUMP JUMPDEST SWAP2 POP POP SWAP3 SWAP2 POP POP JUMP JUMPDEST PUSH0 DUP2 ISZERO ISZERO SWAP1 POP SWAP2 SWAP1 POP JUMP JUMPDEST PUSH2 0x24B6 DUP2 PUSH2 0x24A2 JUMP JUMPDEST DUP3 MSTORE POP POP JUMP JUMPDEST PUSH0 PUSH1 0x20 DUP3 ADD SWAP1 POP PUSH2 0x24CF PUSH0 DUP4 ADD DUP5 PUSH2 0x24AD JUMP JUMPDEST SWAP3 SWAP2 POP POP JUMP JUMPDEST PUSH2 0x24DE DUP2 PUSH2 0x24A2 JUMP JUMPDEST DUP2 EQ PUSH2 0x24E8 JUMPI PUSH0 PUSH0 REVERT JUMPDEST POP JUMP JUMPDEST PUSH0 DUP2 CALLDATALOAD SWAP1 POP PUSH2 0x24F9 DUP2 PUSH2 0x24D5 JUMP JUMPDEST SWAP3 SWAP2 POP POP JUMP JUMPDEST PUSH0 PUSH1 0x20 DUP3 DUP5 SUB SLT ISZERO PUSH2 0x2514 JUMPI PUSH2 0x2513 PUSH2 0x241A JUMP JUMPDEST JUMPDEST PUSH0 PUSH2 0x2521 DUP5 DUP3 DUP6 ADD PUSH2 0x24EB JUMP JUMPDEST SWAP2 POP POP SWAP3 SWAP2 POP POP JUMP JUMPDEST PUSH0 DUP2 MLOAD SWAP1 POP SWAP2 SWAP1 POP JUMP JUMPDEST PUSH0 DUP3 DUP3 MSTORE PUSH1 0x20 DUP3 ADD SWAP1 POP SWAP3 SWAP2 POP POP JUMP JUMPDEST DUP3 DUP2 DUP4 MCOPY PUSH0 DUP4 DUP4 ADD MSTORE POP POP POP JUMP JUMPDEST PUSH0 PUSH1 0x1F NOT PUSH1 0x1F DUP4 ADD AND SWAP1 POP SWAP2 SWAP1 POP JUMP JUMPDEST PUSH0 PUSH2 0x256C DUP3 PUSH2 0x252A JUMP JUMPDEST PUSH2 0x2576 DUP2 DUP6 PUSH2 0x2534 JUMP JUMPDEST SWAP4 POP PUSH2 0x2586 DUP2 DUP6 PUSH1 0x20 DUP7 ADD PUSH2 0x2544 JUMP JUMPDEST PUSH2 0x258F DUP2 PUSH2 0x2552 JUMP JUMPDEST DUP5 ADD SWAP2 POP POP SWAP3 SWAP2 POP POP JUMP JUMPDEST PUSH0 PUSH1 0x20 DUP3 ADD SWAP1 POP DUP2 DUP2 SUB PUSH0 DUP4 ADD MSTORE PUSH2 0x25B2 DUP2 DUP5 PUSH2 0x2562 JUMP JUMPDEST SWAP1 POP SWAP3 SWAP2 POP POP JUMP JUMPDEST PUSH0 DUP2 SWAP1 POP SWAP2 SWAP1 POP JUMP JUMPDEST PUSH2 0x25CC DUP2 PUSH2 0x25BA JUMP JUMPDEST DUP2 EQ PUSH2 0x25D6 JUMPI PUSH0 PUSH0 REVERT JUMPDEST POP JUMP JUMPDEST PUSH0 DUP2 CALLDATALOAD SWAP1 POP PUSH2 0x25E7 DUP2 PUSH2 0x25C3 JUMP JUMPDEST SWAP3 SWAP2 POP POP JUMP JUMPDEST PUSH0 PUSH1 0x20 DUP3 DUP5 SUB SLT ISZERO PUSH2 0x2602 JUMPI PUSH2 0x2601 PUSH2 0x241A JUMP JUMPDEST JUMPDEST PUSH0 PUSH2 0x260F DUP5 DUP3 DUP6 ADD PUSH2 0x25D9 JUMP JUMPDEST SWAP2 POP POP SWAP3 SWAP2 POP POP JUMP JUMPDEST PUSH0 PUSH20 0xFFFFFFFFFFFFFFFFFFFFFFFFFFFFFFFFFFFFFFFF DUP3 AND SWAP1 POP SWAP2 SWAP1 POP JUMP JUMPDEST PUSH0 PUSH2 0x2641 DUP3 PUSH2 0x2618 JUMP JUMPDEST SWAP1 POP SWAP2 SWAP1 POP JUMP JUMPDEST PUSH2 0x2651 DUP2 PUSH2 0x2637 JUMP JUMPDEST DUP3 MSTORE POP POP JUMP JUMPDEST PUSH0 PUSH1 0x20 DUP3 ADD SWAP1 POP PUSH2 0x266A PUSH0 DUP4 ADD DUP5 PUSH2 0x2648 JUMP JUMPDEST SWAP3 SWAP2 POP POP JUMP JUMPDEST PUSH2 0x2679 DUP2 PUSH2 0x2637 JUMP JUMPDEST DUP2 EQ PUSH2 0x2683 JUMPI PUSH0 PUSH0 REVERT JUMPDEST POP JUMP JUMPDEST PUSH0 DUP2 CALLDATALOAD SWAP1 POP PUSH2 0x2694 DUP2 PUSH2 0x2670 JUMP JUMPDEST SWAP3 SWAP2 POP POP JUMP JUMPDEST PUSH0 PUSH0 PUSH1 0x40 DUP4 DUP6 SUB SLT ISZERO PUSH2 0x26B0 JUMPI PUSH2 0x26AF PUSH2 0x241A JUMP JUMPDEST JUMPDEST PUSH0 PUSH2 0x26BD DUP6 DUP3 DUP7 ADD PUSH2 0x2686 JUMP JUMPDEST SWAP3 POP POP PUSH1 0x20 PUSH2 0x26CE DUP6 DUP3 DUP7 ADD PUSH2 0x25D9 JUMP JUMPDEST SWAP2 POP POP SWAP3 POP SWAP3 SWAP1 POP JUMP JUMPDEST PUSH2 0x26E1 DUP2 PUSH2 0x25BA JUMP JUMPDEST DUP3 MSTORE POP POP JUMP JUMPDEST PUSH0 PUSH1 0x20 DUP3 ADD SWAP1 POP PUSH2 0x26FA PUSH0 DUP4 ADD DUP5 PUSH2 0x26D8 JUMP JUMPDEST SWAP3 SWAP2 POP POP JUMP JUMPDEST PUSH0 PUSH0 PUSH0 PUSH1 0x60 DUP5 DUP7 SUB SLT ISZERO PUSH2 0x2717 JUMPI PUSH2 0x2716 PUSH2 0x241A JUMP JUMPDEST JUMPDEST PUSH0 PUSH2 0x2724 DUP7 DUP3 DUP8 ADD PUSH2 0x2686 JUMP JUMPDEST SWAP4 POP POP PUSH1 0x20 PUSH2 0x2735 DUP7 DUP3 DUP8 ADD PUSH2 0x2686 JUMP JUMPDEST SWAP3 POP POP PUSH1 0x40 PUSH2 0x2746 DUP7 DUP3 DUP8 ADD PUSH2 0x25D9 JUMP JUMPDEST SWAP2 POP POP SWAP3 POP SWAP3 POP SWAP3 JUMP JUMPDEST PUSH0 PUSH0 REVERT JUMPDEST PUSH0 PUSH0 REVERT JUMPDEST PUSH32 0x4E487B7100000000000000000000000000000000000000000000000000000000 PUSH0 MSTORE PUSH1 0x41 PUSH1 0x4 MSTORE PUSH1 0x24 PUSH0 REVERT JUMPDEST PUSH2 0x278E DUP3 PUSH2 0x2552 JUMP JUMPDEST DUP2 ADD DUP2 DUP2 LT PUSH8 0xFFFFFFFFFFFFFFFF DUP3 GT OR ISZERO PUSH2 0x27AD JUMPI PUSH2 0x27AC PUSH2 0x2758 JUMP JUMPDEST JUMPDEST DUP1 PUSH1 0x40 MSTORE POP POP POP JUMP JUMPDEST PUSH0 PUSH2 0x27BF PUSH2 0x2411 JUMP JUMPDEST SWAP1 POP PUSH2 0x27CB DUP3 DUP3 PUSH2 0x2785 JUMP JUMPDEST SWAP2 SWAP1 POP JUMP JUMPDEST PUSH0 PUSH8 0xFFFFFFFFFFFFFFFF DUP3 GT ISZERO PUSH2 0x27EA JUMPI PUSH2 0x27E9 PUSH2 0x2758 JUMP JUMPDEST JUMPDEST PUSH2 0x27F3 DUP3 PUSH2 0x2552 JUMP JUMPDEST SWAP1 POP PUSH1 0x20 DUP2 ADD SWAP1 POP SWAP2 SWAP1 POP JUMP JUMPDEST DUP3 DUP2 DUP4 CALLDATACOPY PUSH0 DUP4 DUP4 ADD MSTORE POP POP POP JUMP JUMPDEST PUSH0 PUSH2 0x2820 PUSH2 0x281B DUP5 PUSH2 0x27D0 JUMP JUMPDEST PUSH2 0x27B6 JUMP JUMPDEST SWAP1 POP DUP3 DUP2 MSTORE PUSH1 0x20 DUP2 ADD DUP5 DUP5 DUP5 ADD GT ISZERO PUSH2 0x283C JUMPI PUSH2 0x283B PUSH2 0x2754 JUMP JUMPDEST JUMPDEST PUSH2 0x2847 DUP5 DUP3 DUP6 PUSH2 0x2800 JUMP JUMPDEST POP SWAP4 SWAP3 POP POP POP JUMP JUMPDEST PUSH0 DUP3 PUSH1 0x1F DUP4 ADD SLT PUSH2 0x2863 JUMPI PUSH2 0x2862 PUSH2 0x2750 JUMP JUMPDEST JUMPDEST DUP2 CALLDATALOAD PUSH2 0x2873 DUP5 DUP3 PUSH1 0x20 DUP7 ADD PUSH2 0x280E JUMP JUMPDEST SWAP2 POP POP SWAP3 SWAP2 POP POP JUMP JUMPDEST PUSH0 PUSH1 0x20 DUP3 DUP5 SUB SLT ISZERO PUSH2 0x2891 JUMPI PUSH2 0x2890 PUSH2 0x241A JUMP JUMPDEST JUMPDEST PUSH0 DUP3 ADD CALLDATALOAD PUSH8 0xFFFFFFFFFFFFFFFF DUP2 GT ISZERO PUSH2 0x28AE JUMPI PUSH2 0x28AD PUSH2 0x241E JUMP JUMPDEST JUMPDEST PUSH2 0x28BA DUP5 DUP3 DUP6 ADD PUSH2 0x284F JUMP JUMPDEST SWAP2 POP POP SWAP3 SWAP2 POP POP JUMP JUMPDEST PUSH0 PUSH1 0x20 DUP3 DUP5 SUB SLT ISZERO PUSH2 0x28D8 JUMPI PUSH2 0x28D7 PUSH2 0x241A JUMP JUMPDEST JUMPDEST PUSH0 PUSH2 0x28E5 DUP5 DUP3 DUP6 ADD PUSH2 0x2686 JUMP JUMPDEST SWAP2 POP POP SWAP3 SWAP2 POP POP JUMP JUMPDEST PUSH0 PUSH0 PUSH1 0x40 DUP4 DUP6 SUB SLT ISZERO PUSH2 0x2904 JUMPI PUSH2 0x2903 PUSH2 0x241A JUMP JUMPDEST JUMPDEST PUSH0 PUSH2 0x2911 DUP6 DUP3 DUP7 ADD PUSH2 0x2686 JUMP JUMPDEST SWAP3 POP POP PUSH1 0x20 PUSH2 0x2922 DUP6 DUP3 DUP7 ADD PUSH2 0x24EB JUMP JUMPDEST SWAP2 POP POP SWAP3 POP SWAP3 SWAP1 POP JUMP JUMPDEST PUSH0 PUSH8 0xFFFFFFFFFFFFFFFF DUP3 GT ISZERO PUSH2 0x2946 JUMPI PUSH2 0x2945 PUSH2 0x2758 JUMP JUMPDEST JUMPDEST PUSH2 0x294F DUP3 PUSH2 0x2552 JUMP JUMPDEST SWAP1 POP PUSH1 0x20 DUP2 ADD SWAP1 POP SWAP2 SWAP1 POP JUMP JUMPDEST PUSH0 PUSH2 0x296E PUSH2 0x2969 DUP5 PUSH2 0x292C JUMP JUMPDEST PUSH2 0x27B6 JUMP JUMPDEST SWAP1 POP DUP3 DUP2 MSTORE PUSH1 0x20 DUP2 ADD DUP5 DUP5 DUP5 ADD GT ISZERO PUSH2 0x298A JUMPI PUSH2 0x2989 PUSH2 0x2754 JUMP JUMPDEST JUMPDEST PUSH2 0x2995 DUP5 DUP3 DUP6 PUSH2 0x2800 JUMP JUMPDEST POP SWAP4 SWAP3 POP POP POP JUMP JUMPDEST PUSH0 DUP3 PUSH1 0x1F DUP4 ADD SLT PUSH2 0x29B1 JUMPI PUSH2 0x29B0 PUSH2 0x2750 JUMP JUMPDEST JUMPDEST DUP2 CALLDATALOAD PUSH2 0x29C1 DUP5 DUP3 PUSH1 0x20 DUP7 ADD PUSH2 0x295C JUMP JUMPDEST SWAP2 POP POP SWAP3 SWAP2 POP POP JUMP JUMPDEST PUSH0 PUSH0 PUSH0 PUSH0 PUSH1 0x80 DUP6 DUP8 SUB SLT ISZERO PUSH2 0x29E2 JUMPI PUSH2 0x29E1 PUSH2 0x241A JUMP JUMPDEST JUMPDEST PUSH0 PUSH2 0x29EF DUP8 DUP3 DUP9 ADD PUSH2 0x2686 JUMP JUMPDEST SWAP5 POP POP PUSH1 0x20 PUSH2 0x2A00 DUP8 DUP3 DUP9 ADD PUSH2 0x2686 JUMP JUMPDEST SWAP4 POP POP PUSH1 0x40 PUSH2 0x2A11 DUP8 DUP3 DUP9 ADD PUSH2 0x25D9 JUMP JUMPDEST SWAP3 POP POP PUSH1 0x60 DUP6 ADD CALLDATALOAD PUSH8 0xFFFFFFFFFFFFFFFF DUP2 GT ISZERO PUSH2 0x2A32 JUMPI PUSH2 0x2A31 PUSH2 0x241E JUMP JUMPDEST JUMPDEST PUSH2 0x2A3E DUP8 DUP3 DUP9 ADD PUSH2 0x299D JUMP JUMPDEST SWAP2 POP POP SWAP3 SWAP6 SWAP2 SWAP5 POP SWAP3 POP JUMP JUMPDEST PUSH0 PUSH0 PUSH1 0x40 DUP4 DUP6 SUB SLT ISZERO PUSH2 0x2A60 JUMPI PUSH2 0x2A5F PUSH2 0x241A JUMP JUMPDEST JUMPDEST PUSH0 PUSH2 0x2A6D DUP6 DUP3 DUP7 ADD PUSH2 0x2686 JUMP JUMPDEST SWAP3 POP POP PUSH1 0x20 PUSH2 0x2A7E DUP6 DUP3 DUP7 ADD PUSH2 0x2686 JUMP JUMPDEST SWAP2 POP POP SWAP3 POP SWAP3 SWAP1 POP JUMP JUMPDEST PUSH32 0x4E487B7100000000000000000000000000000000000000000000000000000000 PUSH0 MSTORE PUSH1 0x22 PUSH1 0x4 MSTORE PUSH1 0x24 PUSH0 REVERT JUMPDEST PUSH0 PUSH1 0x2 DUP3 DIV SWAP1 POP PUSH1 0x1 DUP3 AND DUP1 PUSH2 0x2ACC JUMPI PUSH1 0x7F DUP3 AND SWAP2 POP JUMPDEST PUSH1 0x20 DUP3 LT DUP2 SUB PUSH2 0x2ADF JUMPI PUSH2 0x2ADE PUSH2 0x2A88 JUMP JUMPDEST JUMPDEST POP SWAP2 SWAP1 POP JUMP JUMPDEST PUSH32 0x4552433732313A20617070726F76616C20746F2063757272656E74206F776E65 PUSH0 DUP3 ADD MSTORE PUSH32 0x7200000000000000000000000000000000000000000000000000000000000000 PUSH1 0x20 DUP3 ADD MSTORE POP JUMP JUMPDEST PUSH0 PUSH2 0x2B3F PUSH1 0x21 DUP4 PUSH2 0x2534 JUMP JUMPDEST SWAP2 POP PUSH2 0x2B4A DUP3 PUSH2 0x2AE5 JUMP JUMPDEST PUSH1 0x40 DUP3 ADD SWAP1 POP SWAP2 SWAP1 POP JUMP JUMPDEST PUSH0 PUSH1 0x20 DUP3 ADD SWAP1 POP DUP2 DUP2 SUB PUSH0 DUP4 ADD MSTORE PUSH2 0x2B6C DUP2 PUSH2 0x2B33 JUMP JUMPDEST SWAP1 POP SWAP2 SWAP1 POP JUMP JUMPDEST PUSH32 0x4552433732313A20617070726F76652063616C6C6572206973206E6F7420746F PUSH0 DUP3 ADD MSTORE PUSH32 0x6B656E206F776E6572206E6F7220617070726F76656420666F7220616C6C0000 PUSH1 0x20 DUP3 ADD MSTORE POP JUMP JUMPDEST PUSH0 PUSH2 0x2BCD PUSH1 0x3E DUP4 PUSH2 0x2534 JUMP JUMPDEST SWAP2 POP PUSH2 0x2BD8 DUP3 PUSH2 0x2B73 JUMP JUMPDEST PUSH1 0x40 DUP3 ADD SWAP1 POP SWAP2 SWAP1 POP JUMP JUMPDEST PUSH0 PUSH1 0x20 DUP3 ADD SWAP1 POP DUP2 DUP2 SUB PUSH0 DUP4 ADD MSTORE PUSH2 0x2BFA DUP2 PUSH2 0x2BC1 JUMP JUMPDEST SWAP1 POP SWAP2 SWAP1 POP JUMP JUMPDEST PUSH32 0x4552433732313A2063616C6C6572206973206E6F7420746F6B656E206F776E65 PUSH0 DUP3 ADD MSTORE PUSH32 0x72206E6F7220617070726F766564000000000000000000000000000000000000 PUSH1 0x20 DUP3 ADD MSTORE POP JUMP JUMPDEST PUSH0 PUSH2 0x2C5B PUSH1 0x2E DUP4 PUSH2 0x2534 JUMP JUMPDEST SWAP2 POP PUSH2 0x2C66 DUP3 PUSH2 0x2C01 JUMP JUMPDEST PUSH1 0x40 DUP3 ADD SWAP1 POP SWAP2 SWAP1 POP JUMP JUMPDEST PUSH0 PUSH1 0x20 DUP3 ADD SWAP1 POP DUP2 DUP2 SUB PUSH0 DUP4 ADD MSTORE PUSH2 0x2C88 DUP2 PUSH2 0x2C4F JUMP JUMPDEST SWAP1 POP SWAP2 SWAP1 POP JUMP JUMPDEST PUSH32 0x455243373231456E756D657261626C653A206F776E657220696E646578206F75 PUSH0 DUP3 ADD MSTORE PUSH32 0x74206F6620626F756E6473000000000000000000000000000000000000000000 PUSH1 0x20 DUP3 ADD MSTORE POP JUMP JUMPDEST PUSH0 PUSH2 0x2CE9 PUSH1 0x2B DUP4 PUSH2 0x2534 JUMP JUMPDEST SWAP2 POP PUSH2 0x2CF4 DUP3 PUSH2 0x2C8F JUMP JUMPDEST PUSH1 0x40 DUP3 ADD SWAP1 POP SWAP2 SWAP1 POP JUMP JUMPDEST PUSH0 PUSH1 0x20 DUP3 ADD SWAP1 POP DUP2 DUP2 SUB PUSH0 DUP4 ADD MSTORE PUSH2 0x2D16 DUP2 PUSH2 0x2CDD JUMP JUMPDEST SWAP1 POP SWAP2 SWAP1 POP JUMP JUMPDEST PUSH32 0x455243373231456E756D657261626C653A20676C6F62616C20696E646578206F PUSH0 DUP3 ADD MSTORE PUSH32 0x7574206F6620626F756E64730000000000000000000000000000000000000000 PUSH1 0x20 DUP3 ADD MSTORE POP JUMP JUMPDEST PUSH0 PUSH2 0x2D77 PUSH1 0x2C DUP4 PUSH2 0x2534 JUMP JUMPDEST SWAP2 POP PUSH2 0x2D82 DUP3 PUSH2 0x2D1D JUMP JUMPDEST PUSH1 0x40 DUP3 ADD SWAP1 POP SWAP2 SWAP1 POP JUMP JUMPDEST PUSH0 PUSH1 0x20 DUP3 ADD SWAP1 POP DUP2 DUP2 SUB PUSH0 DUP4 ADD MSTORE PUSH2 0x2DA4 DUP2 PUSH2 0x2D6B JUMP JUMPDEST SWAP1 POP SWAP2 SWAP1 POP JUMP JUMPDEST PUSH32 0x4E487B7100000000000000000000000000000000000000000000000000000000 PUSH0 MSTORE PUSH1 0x32 PUSH1 0x4 MSTORE PUSH1 0x24 PUSH0 REVERT JUMPDEST PUSH0 DUP2 SWAP1 POP DUP2 PUSH0 MSTORE PUSH1 0x20 PUSH0 KECCAK256 SWAP1 POP SWAP2 SWAP1 POP JUMP JUMPDEST PUSH0 PUSH1 0x20 PUSH1 0x1F DUP4 ADD DIV SWAP1 POP SWAP2 SWAP1 POP JUMP JUMPDEST PUSH0 DUP3 DUP3 SHL SWAP1 POP SWAP3 SWAP2 POP POP JUMP JUMPDEST PUSH0 PUSH1 0x8 DUP4 MUL PUSH2 0x2E34 PUSH32 0xFFFFFFFFFFFFFFFFFFFFFFFFFFFFFFFFFFFFFFFFFFFFFFFFFFFFFFFFFFFFFFFF DUP3 PUSH2 0x2DF9 JUMP JUMPDEST PUSH2 0x2E3E DUP7 DUP4 PUSH2 0x2DF9 JUMP JUMPDEST SWAP6 POP DUP1 NOT DUP5 AND SWAP4 POP DUP1 DUP7 AND DUP5 OR SWAP3 POP POP POP SWAP4 SWAP3 POP POP POP JUMP JUMPDEST PUSH0 DUP2 SWAP1 POP SWAP2 SWAP1 POP JUMP JUMPDEST PUSH0 PUSH2 0x2E79 PUSH2 0x2E74 PUSH2 0x2E6F DUP5 PUSH2 0x25BA JUMP JUMPDEST PUSH2 0x2E56 JUMP JUMPDEST PUSH2 0x25BA JUMP JUMPDEST SWAP1 POP SWAP2 SWAP1 POP JUMP JUMPDEST PUSH0 DUP2 SWAP1 POP SWAP2 SWAP1 POP JUMP JUMPDEST PUSH2 0x2E92 DUP4 PUSH2 0x2E5F JUMP JUMPDEST PUSH2 0x2EA6 PUSH2 0x2E9E DUP3 PUSH2 0x2E80 JUMP JUMPDEST DUP5 DUP5 SLOAD PUSH2 0x2E05 JUMP JUMPDEST DUP3 SSTORE POP POP POP POP JUMP JUMPDEST PUSH0 PUSH0 SWAP1 POP SWAP1 JUMP JUMPDEST PUSH2 0x2EBD PUSH2 0x2EAE JUMP JUMPDEST PUSH2 0x2EC8 DUP2 DUP5 DUP5 PUSH2 0x2E89 JUMP JUMPDEST POP POP POP JUMP JUMPDEST JUMPDEST DUP2 DUP2 LT ISZERO PUSH2 0x2EEB JUMPI PUSH2 0x2EE0 PUSH0 DUP3 PUSH2 0x2EB5 JUMP JUMPDEST PUSH1 0x1 DUP2 ADD SWAP1 POP PUSH2 0x2ECE JUMP JUMPDEST POP POP JUMP JUMPDEST PUSH1 0x1F DUP3 GT ISZERO PUSH2 0x2F30 JUMPI PUSH2 0x2F01 DUP2 PUSH2 0x2DD8 JUMP JUMPDEST PUSH2 0x2F0A DUP5 PUSH2 0x2DEA JUMP JUMPDEST DUP2 ADD PUSH1 0x20 DUP6 LT ISZERO PUSH2 0x2F19 JUMPI DUP2 SWAP1 POP JUMPDEST PUSH2 0x2F2D PUSH2 0x2F25 DUP6 PUSH2 0x2DEA JUMP JUMPDEST DUP4 ADD DUP3 PUSH2 0x2ECD JUMP JUMPDEST POP POP JUMPDEST POP POP POP JUMP JUMPDEST PUSH0 DUP3 DUP3 SHR SWAP1 POP SWAP3 SWAP2 POP POP JUMP JUMPDEST PUSH0 PUSH2 0x2F50 PUSH0 NOT DUP5 PUSH1 0x8 MUL PUSH2 0x2F35 JUMP JUMPDEST NOT DUP1 DUP4 AND SWAP2 POP POP SWAP3 SWAP2 POP POP JUMP JUMPDEST PUSH0 PUSH2 0x2F68 DUP4 DUP4 PUSH2 0x2F41 JUMP JUMPDEST SWAP2 POP DUP3 PUSH1 0x2 MUL DUP3 OR SWAP1 POP SWAP3 SWAP2 POP POP JUMP JUMPDEST PUSH2 0x2F81 DUP3 PUSH2 0x252A JUMP JUMPDEST PUSH8 0xFFFFFFFFFFFFFFFF DUP2 GT ISZERO PUSH2 0x2F9A JUMPI PUSH2 0x2F99 PUSH2 0x2758 JUMP JUMPDEST JUMPDEST PUSH2 0x2FA4 DUP3 SLOAD PUSH2 0x2AB5 JUMP JUMPDEST PUSH2 0x2FAF DUP3 DUP3 DUP6 PUSH2 0x2EEF JUMP JUMPDEST PUSH0 PUSH1 0x20 SWAP1 POP PUSH1 0x1F DUP4 GT PUSH1 0x1 DUP2 EQ PUSH2 0x2FE0 JUMPI PUSH0 DUP5 ISZERO PUSH2 0x2FCE JUMPI DUP3 DUP8 ADD MLOAD SWAP1 POP JUMPDEST PUSH2 0x2FD8 DUP6 DUP3 PUSH2 0x2F5D JUMP JUMPDEST DUP7 SSTORE POP PUSH2 0x303F JUMP JUMPDEST PUSH1 0x1F NOT DUP5 AND PUSH2 0x2FEE DUP7 PUSH2 0x2DD8 JUMP JUMPDEST PUSH0 JUMPDEST DUP3 DUP2 LT ISZERO PUSH2 0x3015 JUMPI DUP5 DUP10 ADD MLOAD DUP3 SSTORE PUSH1 0x1 DUP3 ADD SWAP2 POP PUSH1 0x20 DUP6 ADD SWAP5 POP PUSH1 0x20 DUP2 ADD SWAP1 POP PUSH2 0x2FF0 JUMP JUMPDEST DUP7 DUP4 LT ISZERO PUSH2 0x3032 JUMPI DUP5 DUP10 ADD MLOAD PUSH2 0x302E PUSH1 0x1F DUP10 AND DUP3 PUSH2 0x2F41 JUMP JUMPDEST DUP4 SSTORE POP JUMPDEST PUSH1 0x1 PUSH1 0x2 DUP9 MUL ADD DUP9 SSTORE POP POP POP JUMPDEST POP POP POP POP POP POP JUMP JUMPDEST PUSH32 0x4552433732313A20696E76616C696420746F6B656E2049440000000000000000 PUSH0 DUP3 ADD MSTORE POP JUMP JUMPDEST PUSH0 PUSH2 0x307B PUSH1 0x18 DUP4 PUSH2 0x2534 JUMP JUMPDEST SWAP2 POP PUSH2 0x3086 DUP3 PUSH2 0x3047 JUMP JUMPDEST PUSH1 0x20 DUP3 ADD SWAP1 POP SWAP2 SWAP1 POP JUMP JUMPDEST PUSH0 PUSH1 0x20 DUP3 ADD SWAP1 POP DUP2 DUP2 SUB PUSH0 DUP4 ADD MSTORE PUSH2 0x30A8 DUP2 PUSH2 0x306F JUMP JUMPDEST SWAP1 POP SWAP2 SWAP1 POP JUMP JUMPDEST PUSH32 0x4552433732313A2061646472657373207A65726F206973206E6F742061207661 PUSH0 DUP3 ADD MSTORE PUSH32 0x6C6964206F776E65720000000000000000000000000000000000000000000000 PUSH1 0x20 DUP3 ADD MSTORE POP JUMP JUMPDEST PUSH0 PUSH2 0x3109 PUSH1 0x29 DUP4 PUSH2 0x2534 JUMP JUMPDEST SWAP2 POP PUSH2 0x3114 DUP3 PUSH2 0x30AF JUMP JUMPDEST PUSH1 0x40 DUP3 ADD SWAP1 POP SWAP2 SWAP1 POP JUMP JUMPDEST PUSH0 PUSH1 0x20 DUP3 ADD SWAP1 POP DUP2 DUP2 SUB PUSH0 DUP4 ADD MSTORE PUSH2 0x3136 DUP2 PUSH2 0x30FD JUMP JUMPDEST SWAP1 POP SWAP2 SWAP1 POP JUMP JUMPDEST PUSH32 0x4E487B7100000000000000000000000000000000000000000000000000000000 PUSH0 MSTORE PUSH1 0x11 PUSH1 0x4 MSTORE PUSH1 0x24 PUSH0 REVERT JUMPDEST PUSH0 PUSH2 0x3174 DUP3 PUSH2 0x25BA JUMP JUMPDEST SWAP2 POP PUSH2 0x317F DUP4 PUSH2 0x25BA JUMP JUMPDEST SWAP3 POP DUP3 DUP3 ADD SWAP1 POP DUP1 DUP3 GT ISZERO PUSH2 0x3197 JUMPI PUSH2 0x3196 PUSH2 0x313D JUMP JUMPDEST JUMPDEST SWAP3 SWAP2 POP POP JUMP JUMPDEST PUSH32 0x507572636861736520776F756C6420657863656564206D617820746F6B656E73 PUSH0 DUP3 ADD MSTORE POP JUMP JUMPDEST PUSH0 PUSH2 0x31D1 PUSH1 0x20 DUP4 PUSH2 0x2534 JUMP JUMPDEST SWAP2 POP PUSH2 0x31DC DUP3 PUSH2 0x319D JUMP JUMPDEST PUSH1 0x20 DUP3 ADD SWAP1 POP SWAP2 SWAP1 POP JUMP JUMPDEST PUSH0 PUSH1 0x20 DUP3 ADD SWAP1 POP DUP2 DUP2 SUB PUSH0 DUP4 ADD MSTORE PUSH2 0x31FE DUP2 PUSH2 0x31C5 JUMP JUMPDEST SWAP1 POP SWAP2 SWAP1 POP JUMP JUMPDEST PUSH32 0x53616C65206D7573742062652061637469766520746F206D696E7420746F6B65 PUSH0 DUP3 ADD MSTORE PUSH32 0x6E73000000000000000000000000000000000000000000000000000000000000 PUSH1 0x20 DUP3 ADD MSTORE POP JUMP JUMPDEST PUSH0 PUSH2 0x325F PUSH1 0x22 DUP4 PUSH2 0x2534 JUMP JUMPDEST SWAP2 POP PUSH2 0x326A DUP3 PUSH2 0x3205 JUMP JUMPDEST PUSH1 0x40 DUP3 ADD SWAP1 POP SWAP2 SWAP1 POP JUMP JUMPDEST PUSH0 PUSH1 0x20 DUP3 ADD SWAP1 POP DUP2 DUP2 SUB PUSH0 DUP4 ADD MSTORE PUSH2 0x328C DUP2 PUSH2 0x3253 JUMP JUMPDEST SWAP1 POP SWAP2 SWAP1 POP JUMP JUMPDEST PUSH0 PUSH2 0x329D DUP3 PUSH2 0x25BA JUMP JUMPDEST SWAP2 POP PUSH2 0x32A8 DUP4 PUSH2 0x25BA JUMP JUMPDEST SWAP3 POP DUP3 DUP3 MUL PUSH2 0x32B6 DUP2 PUSH2 0x25BA JUMP JUMPDEST SWAP2 POP DUP3 DUP3 DIV DUP5 EQ DUP4 ISZERO OR PUSH2 0x32CD JUMPI PUSH2 0x32CC PUSH2 0x313D JUMP JUMPDEST JUMPDEST POP SWAP3 SWAP2 POP POP JUMP JUMPDEST PUSH32 0x56616C75652073656E74206973206E6F7420636F727265637400000000000000 PUSH0 DUP3 ADD MSTORE POP JUMP JUMPDEST PUSH0 PUSH2 0x3308 PUSH1 0x19 DUP4 PUSH2 0x2534 JUMP JUMPDEST SWAP2 POP PUSH2 0x3313 DUP3 PUSH2 0x32D4 JUMP JUMPDEST PUSH1 0x20 DUP3 ADD SWAP1 POP SWAP2 SWAP1 POP JUMP JUMPDEST PUSH0 PUSH1 0x20 DUP3 ADD SWAP1 POP DUP2 DUP2 SUB PUSH0 DUP4 ADD MSTORE PUSH2 0x3335 DUP2 PUSH2 0x32FC JUMP JUMPDEST SWAP1 POP SWAP2 SWAP1 POP JUMP JUMPDEST PUSH0 DUP2 SWAP1 POP SWAP3 SWAP2 POP POP JUMP JUMPDEST PUSH0 PUSH2 0x3350 DUP3 PUSH2 0x252A JUMP JUMPDEST PUSH2 0x335A DUP2 DUP6 PUSH2 0x333C JUMP JUMPDEST SWAP4 POP PUSH2 0x336A DUP2 DUP6 PUSH1 0x20 DUP7 ADD PUSH2 0x2544 JUMP JUMPDEST DUP1 DUP5 ADD SWAP2 POP POP SWAP3 SWAP2 POP POP JUMP JUMPDEST PUSH0 PUSH2 0x3381 DUP3 DUP6 PUSH2 0x3346 JUMP JUMPDEST SWAP2 POP PUSH2 0x338D DUP3 DUP5 PUSH2 0x3346 JUMP JUMPDEST SWAP2 POP DUP2 SWAP1 POP SWAP4 SWAP3 POP POP POP JUMP JUMPDEST PUSH32 0x4F776E61626C653A206E6577206F776E657220697320746865207A65726F2061 PUSH0 DUP3 ADD MSTORE PUSH32 0x6464726573730000000000000000000000000000000000000000000000000000 PUSH1 0x20 DUP3 ADD MSTORE POP JUMP JUMPDEST PUSH0 PUSH2 0x33F3 PUSH1 0x26 DUP4 PUSH2 0x2534 JUMP JUMPDEST SWAP2 POP PUSH2 0x33FE DUP3 PUSH2 0x3399 JUMP JUMPDEST PUSH1 0x40 DUP3 ADD SWAP1 POP SWAP2 SWAP1 POP JUMP JUMPDEST PUSH0 PUSH1 0x20 DUP3 ADD SWAP1 POP DUP2 DUP2 SUB PUSH0 DUP4 ADD MSTORE PUSH2 0x3420 DUP2 PUSH2 0x33E7 JUMP JUMPDEST SWAP1 POP SWAP2 SWAP1 POP JUMP JUMPDEST PUSH32 0x4F776E61626C653A2063616C6C6572206973206E6F7420746865206F776E6572 PUSH0 DUP3 ADD MSTORE POP JUMP JUMPDEST PUSH0 PUSH2 0x345B PUSH1 0x20 DUP4 PUSH2 0x2534 JUMP JUMPDEST SWAP2 POP PUSH2 0x3466 DUP3 PUSH2 0x3427 JUMP JUMPDEST PUSH1 0x20 DUP3 ADD SWAP1 POP SWAP2 SWAP1 POP JUMP JUMPDEST PUSH0 PUSH1 0x20 DUP3 ADD SWAP1 POP DUP2 DUP2 SUB PUSH0 DUP4 ADD MSTORE PUSH2 0x3488 DUP2 PUSH2 0x344F JUMP JUMPDEST SWAP1 POP SWAP2 SWAP1 POP JUMP JUMPDEST PUSH32 0x4552433732313A207472616E736665722066726F6D20696E636F727265637420 PUSH0 DUP3 ADD MSTORE PUSH32 0x6F776E6572000000000000000000000000000000000000000000000000000000 PUSH1 0x20 DUP3 ADD MSTORE POP JUMP JUMPDEST PUSH0 PUSH2 0x34E9 PUSH1 0x25 DUP4 PUSH2 0x2534 JUMP JUMPDEST SWAP2 POP PUSH2 0x34F4 DUP3 PUSH2 0x348F JUMP JUMPDEST PUSH1 0x40 DUP3 ADD SWAP1 POP SWAP2 SWAP1 POP JUMP JUMPDEST PUSH0 PUSH1 0x20 DUP3 ADD SWAP1 POP DUP2 DUP2 SUB PUSH0 DUP4 ADD MSTORE PUSH2 0x3516 DUP2 PUSH2 0x34DD JUMP JUMPDEST SWAP1 POP SWAP2 SWAP1 POP JUMP JUMPDEST PUSH32 0x4552433732313A207472616E7366657220746F20746865207A65726F20616464 PUSH0 DUP3 ADD MSTORE PUSH32 0x7265737300000000000000000000000000000000000000000000000000000000 PUSH1 0x20 DUP3 ADD MSTORE POP JUMP JUMPDEST PUSH0 PUSH2 0x3577 PUSH1 0x24 DUP4 PUSH2 0x2534 JUMP JUMPDEST SWAP2 POP PUSH2 0x3582 DUP3 PUSH2 0x351D JUMP JUMPDEST PUSH1 0x40 DUP3 ADD SWAP1 POP SWAP2 SWAP1 POP JUMP JUMPDEST PUSH0 PUSH1 0x20 DUP3 ADD SWAP1 POP DUP2 DUP2 SUB PUSH0 DUP4 ADD MSTORE PUSH2 0x35A4 DUP2 PUSH2 0x356B JUMP JUMPDEST SWAP1 POP SWAP2 SWAP1 POP JUMP JUMPDEST PUSH0 PUSH2 0x35B5 DUP3 PUSH2 0x25BA JUMP JUMPDEST SWAP2 POP PUSH2 0x35C0 DUP4 PUSH2 0x25BA JUMP JUMPDEST SWAP3 POP DUP3 DUP3 SUB SWAP1 POP DUP2 DUP2 GT ISZERO PUSH2 0x35D8 JUMPI PUSH2 0x35D7 PUSH2 0x313D JUMP JUMPDEST JUMPDEST SWAP3 SWAP2 POP POP JUMP JUMPDEST PUSH32 0x4552433732313A20617070726F766520746F2063616C6C657200000000000000 PUSH0 DUP3 ADD MSTORE POP JUMP JUMPDEST PUSH0 PUSH2 0x3612 PUSH1 0x19 DUP4 PUSH2 0x2534 JUMP JUMPDEST SWAP2 POP PUSH2 0x361D DUP3 PUSH2 0x35DE JUMP JUMPDEST PUSH1 0x20 DUP3 ADD SWAP1 POP SWAP2 SWAP1 POP JUMP JUMPDEST PUSH0 PUSH1 0x20 DUP3 ADD SWAP1 POP DUP2 DUP2 SUB PUSH0 DUP4 ADD MSTORE PUSH2 0x363F DUP2 PUSH2 0x3606 JUMP JUMPDEST SWAP1 POP SWAP2 SWAP1 POP JUMP JUMPDEST PUSH32 0x4552433732313A207472616E7366657220746F206E6F6E204552433732315265 PUSH0 DUP3 ADD MSTORE PUSH32 0x63656976657220696D706C656D656E7465720000000000000000000000000000 PUSH1 0x20 DUP3 ADD MSTORE POP JUMP JUMPDEST PUSH0 PUSH2 0x36A0 PUSH1 0x32 DUP4 PUSH2 0x2534 JUMP JUMPDEST SWAP2 POP PUSH2 0x36AB DUP3 PUSH2 0x3646 JUMP JUMPDEST PUSH1 0x40 DUP3 ADD SWAP1 POP SWAP2 SWAP1 POP JUMP JUMPDEST PUSH0 PUSH1 0x20 DUP3 ADD SWAP1 POP DUP2 DUP2 SUB PUSH0 DUP4 ADD MSTORE PUSH2 0x36CD DUP2 PUSH2 0x3694 JUMP JUMPDEST SWAP1 POP SWAP2 SWAP1 POP JUMP JUMPDEST PUSH0 PUSH2 0x36DE DUP3 PUSH2 0x25BA JUMP JUMPDEST SWAP2 POP PUSH32 0xFFFFFFFFFFFFFFFFFFFFFFFFFFFFFFFFFFFFFFFFFFFFFFFFFFFFFFFFFFFFFFFF DUP3 SUB PUSH2 0x3710 JUMPI PUSH2 0x370F PUSH2 0x313D JUMP JUMPDEST JUMPDEST PUSH1 0x1 DUP3 ADD SWAP1 POP SWAP2 SWAP1 POP JUMP JUMPDEST PUSH32 0x4E487B7100000000000000000000000000000000000000000000000000000000 PUSH0 MSTORE PUSH1 0x12 PUSH1 0x4 MSTORE PUSH1 0x24 PUSH0 REVERT JUMPDEST PUSH0 PUSH2 0x3752 DUP3 PUSH2 0x25BA JUMP JUMPDEST SWAP2 POP PUSH2 0x375D DUP4 PUSH2 0x25BA JUMP JUMPDEST SWAP3 POP DUP3 PUSH2 0x376D JUMPI PUSH2 0x376C PUSH2 0x371B JUMP JUMPDEST JUMPDEST DUP3 DUP3 DIV SWAP1 POP SWAP3 SWAP2 POP POP JUMP JUMPDEST PUSH0 PUSH2 0x3782 DUP3 PUSH2 0x25BA JUMP JUMPDEST SWAP2 POP PUSH2 0x378D DUP4 PUSH2 0x25BA JUMP JUMPDEST SWAP3 POP DUP3 PUSH2 0x379D JUMPI PUSH2 0x379C PUSH2 0x371B JUMP JUMPDEST JUMPDEST DUP3 DUP3 MOD SWAP1 POP SWAP3 SWAP2 POP POP JUMP JUMPDEST PUSH0 DUP2 MLOAD SWAP1 POP SWAP2 SWAP1 POP JUMP JUMPDEST PUSH0 DUP3 DUP3 MSTORE PUSH1 0x20 DUP3 ADD SWAP1 POP SWAP3 SWAP2 POP POP JUMP JUMPDEST PUSH0 PUSH2 0x37CC DUP3 PUSH2 0x37A8 JUMP JUMPDEST PUSH2 0x37D6 DUP2 DUP6 PUSH2 0x37B2 JUMP JUMPDEST SWAP4 POP PUSH2 0x37E6 DUP2 DUP6 PUSH1 0x20 DUP7 ADD PUSH2 0x2544 JUMP JUMPDEST PUSH2 0x37EF DUP2 PUSH2 0x2552 JUMP JUMPDEST DUP5 ADD SWAP2 POP POP SWAP3 SWAP2 POP POP JUMP JUMPDEST PUSH0 PUSH1 0x80 DUP3 ADD SWAP1 POP PUSH2 0x380D PUSH0 DUP4 ADD DUP8 PUSH2 0x2648 JUMP JUMPDEST PUSH2 0x381A PUSH1 0x20 DUP4 ADD DUP7 PUSH2 0x2648 JUMP JUMPDEST PUSH2 0x3827 PUSH1 0x40 DUP4 ADD DUP6 PUSH2 0x26D8 JUMP JUMPDEST DUP2 DUP2 SUB PUSH1 0x60 DUP4 ADD MSTORE PUSH2 0x3839 DUP2 DUP5 PUSH2 0x37C2 JUMP JUMPDEST SWAP1 POP SWAP6 SWAP5 POP POP POP POP POP JUMP JUMPDEST PUSH0 DUP2 MLOAD SWAP1 POP PUSH2 0x3852 DUP2 PUSH2 0x244D JUMP JUMPDEST SWAP3 SWAP2 POP POP JUMP JUMPDEST PUSH0 PUSH1 0x20 DUP3 DUP5 SUB SLT ISZERO PUSH2 0x386D JUMPI PUSH2 0x386C PUSH2 0x241A JUMP JUMPDEST JUMPDEST PUSH0 PUSH2 0x387A DUP5 DUP3 DUP6 ADD PUSH2 0x3844 JUMP JUMPDEST SWAP2 POP POP SWAP3 SWAP2 POP POP JUMP JUMPDEST PUSH32 0x4552433732313A206D696E7420746F20746865207A65726F2061646472657373 PUSH0 DUP3 ADD MSTORE POP JUMP JUMPDEST PUSH0 PUSH2 0x38B7 PUSH1 0x20 DUP4 PUSH2 0x2534 JUMP JUMPDEST SWAP2 POP PUSH2 0x38C2 DUP3 PUSH2 0x3883 JUMP JUMPDEST PUSH1 0x20 DUP3 ADD SWAP1 POP SWAP2 SWAP1 POP JUMP JUMPDEST PUSH0 PUSH1 0x20 DUP3 ADD SWAP1 POP DUP2 DUP2 SUB PUSH0 DUP4 ADD MSTORE PUSH2 0x38E4 DUP2 PUSH2 0x38AB JUMP JUMPDEST SWAP1 POP SWAP2 SWAP1 POP JUMP JUMPDEST PUSH32 0x4552433732313A20746F6B656E20616C7265616479206D696E74656400000000 PUSH0 DUP3 ADD MSTORE POP JUMP JUMPDEST PUSH0 PUSH2 0x391F PUSH1 0x1C DUP4 PUSH2 0x2534 JUMP JUMPDEST SWAP2 POP PUSH2 0x392A DUP3 PUSH2 0x38EB JUMP JUMPDEST PUSH1 0x20 DUP3 ADD SWAP1 POP SWAP2 SWAP1 POP JUMP JUMPDEST PUSH0 PUSH1 0x20 DUP3 ADD SWAP1 POP DUP2 DUP2 SUB PUSH0 DUP4 ADD MSTORE PUSH2 0x394C DUP2 PUSH2 0x3913 JUMP JUMPDEST SWAP1 POP SWAP2 SWAP1 POP JUMP JUMPDEST PUSH32 0x4E487B7100000000000000000000000000000000000000000000000000000000 PUSH0 MSTORE PUSH1 0x31 PUSH1 0x4 MSTORE PUSH1 0x24 PUSH0 REVERT INVALID LOG2 PUSH5 0x6970667358 0x22 SLT KECCAK256 DUP1 SELFDESTRUCT PUSH13 0xC2C06DDF26C099ADEA3DE2C1AA 0xAF 0xCD CREATE2 0xAE 0xAC PUSH20 0x718DE28242DD4AA8647D64736F6C634300081B00 CALLER "
		},
		"gasEstimates": {
			"creation": {
				"codeDepositCost": "2954800",
				"executionCost": "infinite",
				"totalCost": "infinite"
			},
			"external": {
				"MAX_SUPPLY()": "infinite",
				"approve(address,uint256)": "infinite",
				"balanceOf(address)": "2931",
				"currentPrice()": "2536",
				"getApproved(uint256)": "5217",
				"isApprovedForAll(address,address)": "infinite",
				"mint(uint256)": "infinite",
				"name()": "infinite",
				"owner()": "2582",
				"ownerOf(uint256)": "2986",
				"renounceOwnership()": "30480",
				"reserve(uint256)": "infinite",
				"safeTransferFrom(address,address,uint256)": "infinite",
				"safeTransferFrom(address,address,uint256,bytes)": "infinite",
				"saleIsActive()": "2554",
				"setApprovalForAll(address,bool)": "infinite",
				"setBaseURI(string)": "infinite",
				"setCurrentPrice(uint256)": "24888",
				"setSaleIsActive(bool)": "27003",
				"supportsInterface(bytes4)": "940",
				"symbol()": "infinite",
				"tokenByIndex(uint256)": "infinite",
				"tokenOfOwnerByIndex(address,uint256)": "infinite",
				"tokenURI(uint256)": "infinite",
				"totalSupply()": "2530",
				"transferFrom(address,address,uint256)": "infinite",
				"transferOwnership(address)": "30841",
				"withdraw()": "infinite"
			},
			"internal": {
				"_baseURI()": "infinite",
				"_beforeTokenTransfer(address,address,uint256)": "infinite"
			}
		},
		"methodIdentifiers": {
			"MAX_SUPPLY()": "32cb6b0c",
			"approve(address,uint256)": "095ea7b3",
			"balanceOf(address)": "70a08231",
			"currentPrice()": "9d1b464a",
			"getApproved(uint256)": "081812fc",
			"isApprovedForAll(address,address)": "e985e9c5",
			"mint(uint256)": "a0712d68",
			"name()": "06fdde03",
			"owner()": "8da5cb5b",
			"ownerOf(uint256)": "6352211e",
			"renounceOwnership()": "715018a6",
			"reserve(uint256)": "819b25ba",
			"safeTransferFrom(address,address,uint256)": "42842e0e",
			"safeTransferFrom(address,address,uint256,bytes)": "b88d4fde",
			"saleIsActive()": "eb8d2444",
			"setApprovalForAll(address,bool)": "a22cb465",
			"setBaseURI(string)": "55f804b3",
			"setCurrentPrice(uint256)": "18b20071",
			"setSaleIsActive(bool)": "02c88989",
			"supportsInterface(bytes4)": "01ffc9a7",
			"symbol()": "95d89b41",
			"tokenByIndex(uint256)": "4f6ccce7",
			"tokenOfOwnerByIndex(address,uint256)": "2f745c59",
			"tokenURI(uint256)": "c87b56dd",
			"totalSupply()": "18160ddd",
			"transferFrom(address,address,uint256)": "23b872dd",
			"transferOwnership(address)": "f2fde38b",
			"withdraw()": "3ccfd60b"
		}
	},
	"abi": [
		{
			"inputs": [
				{
					"internalType": "string",
					"name": "_name",
					"type": "string"
				},
				{
					"internalType": "string",
					"name": "_symbol",
					"type": "string"
				},
				{
					"internalType": "string",
					"name": "_uri",
					"type": "string"
				},
				{
					"internalType": "uint256",
					"name": "price",
					"type": "uint256"
				},
				{
					"internalType": "uint256",
					"name": "maxSupply",
					"type": "uint256"
				}
			],
			"stateMutability": "payable",
			"type": "constructor"
		},
		{
			"anonymous": false,
			"inputs": [
				{
					"indexed": true,
					"internalType": "address",
					"name": "owner",
					"type": "address"
				},
				{
					"indexed": true,
					"internalType": "address",
					"name": "approved",
					"type": "address"
				},
				{
					"indexed": true,
					"internalType": "uint256",
					"name": "tokenId",
					"type": "uint256"
				}
			],
			"name": "Approval",
			"type": "event"
		},
		{
			"anonymous": false,
			"inputs": [
				{
					"indexed": true,
					"internalType": "address",
					"name": "owner",
					"type": "address"
				},
				{
					"indexed": true,
					"internalType": "address",
					"name": "operator",
					"type": "address"
				},
				{
					"indexed": false,
					"internalType": "bool",
					"name": "approved",
					"type": "bool"
				}
			],
			"name": "ApprovalForAll",
			"type": "event"
		},
		{
			"anonymous": false,
			"inputs": [
				{
					"indexed": true,
					"internalType": "address",
					"name": "previousOwner",
					"type": "address"
				},
				{
					"indexed": true,
					"internalType": "address",
					"name": "newOwner",
					"type": "address"
				}
			],
			"name": "OwnershipTransferred",
			"type": "event"
		},
		{
			"anonymous": false,
			"inputs": [
				{
					"indexed": true,
					"internalType": "address",
					"name": "from",
					"type": "address"
				},
				{
					"indexed": true,
					"internalType": "address",
					"name": "to",
					"type": "address"
				},
				{
					"indexed": true,
					"internalType": "uint256",
					"name": "tokenId",
					"type": "uint256"
				}
			],
			"name": "Transfer",
			"type": "event"
		},
		{
			"inputs": [],
			"name": "MAX_SUPPLY",
			"outputs": [
				{
					"internalType": "uint256",
					"name": "",
					"type": "uint256"
				}
			],
			"stateMutability": "view",
			"type": "function"
		},
		{
			"inputs": [
				{
					"internalType": "address",
					"name": "to",
					"type": "address"
				},
				{
					"internalType": "uint256",
					"name": "tokenId",
					"type": "uint256"
				}
			],
			"name": "approve",
			"outputs": [],
			"stateMutability": "nonpayable",
			"type": "function"
		},
		{
			"inputs": [
				{
					"internalType": "address",
					"name": "owner",
					"type": "address"
				}
			],
			"name": "balanceOf",
			"outputs": [
				{
					"internalType": "uint256",
					"name": "",
					"type": "uint256"
				}
			],
			"stateMutability": "view",
			"type": "function"
		},
		{
			"inputs": [],
			"name": "currentPrice",
			"outputs": [
				{
					"internalType": "uint256",
					"name": "",
					"type": "uint256"
				}
			],
			"stateMutability": "view",
			"type": "function"
		},
		{
			"inputs": [
				{
					"internalType": "uint256",
					"name": "tokenId",
					"type": "uint256"
				}
			],
			"name": "getApproved",
			"outputs": [
				{
					"internalType": "address",
					"name": "",
					"type": "address"
				}
			],
			"stateMutability": "view",
			"type": "function"
		},
		{
			"inputs": [
				{
					"internalType": "address",
					"name": "owner",
					"type": "address"
				},
				{
					"internalType": "address",
					"name": "operator",
					"type": "address"
				}
			],
			"name": "isApprovedForAll",
			"outputs": [
				{
					"internalType": "bool",
					"name": "",
					"type": "bool"
				}
			],
			"stateMutability": "view",
			"type": "function"
		},
		{
			"inputs": [
				{
					"internalType": "uint256",
					"name": "amount",
					"type": "uint256"
				}
			],
			"name": "mint",
			"outputs": [],
			"stateMutability": "payable",
			"type": "function"
		},
		{
			"inputs": [],
			"name": "name",
			"outputs": [
				{
					"internalType": "string",
					"name": "",
					"type": "string"
				}
			],
			"stateMutability": "view",
			"type": "function"
		},
		{
			"inputs": [],
			"name": "owner",
			"outputs": [
				{
					"internalType": "address",
					"name": "",
					"type": "address"
				}
			],
			"stateMutability": "view",
			"type": "function"
		},
		{
			"inputs": [
				{
					"internalType": "uint256",
					"name": "tokenId",
					"type": "uint256"
				}
			],
			"name": "ownerOf",
			"outputs": [
				{
					"internalType": "address",
					"name": "",
					"type": "address"
				}
			],
			"stateMutability": "view",
			"type": "function"
		},
		{
			"inputs": [],
			"name": "renounceOwnership",
			"outputs": [],
			"stateMutability": "nonpayable",
			"type": "function"
		},
		{
			"inputs": [
				{
					"internalType": "uint256",
					"name": "n",
					"type": "uint256"
				}
			],
			"name": "reserve",
			"outputs": [],
			"stateMutability": "nonpayable",
			"type": "function"
		},
		{
			"inputs": [
				{
					"internalType": "address",
					"name": "from",
					"type": "address"
				},
				{
					"internalType": "address",
					"name": "to",
					"type": "address"
				},
				{
					"internalType": "uint256",
					"name": "tokenId",
					"type": "uint256"
				}
			],
			"name": "safeTransferFrom",
			"outputs": [],
			"stateMutability": "nonpayable",
			"type": "function"
		},
		{
			"inputs": [
				{
					"internalType": "address",
					"name": "from",
					"type": "address"
				},
				{
					"internalType": "address",
					"name": "to",
					"type": "address"
				},
				{
					"internalType": "uint256",
					"name": "tokenId",
					"type": "uint256"
				},
				{
					"internalType": "bytes",
					"name": "data",
					"type": "bytes"
				}
			],
			"name": "safeTransferFrom",
			"outputs": [],
			"stateMutability": "nonpayable",
			"type": "function"
		},
		{
			"inputs": [],
			"name": "saleIsActive",
			"outputs": [
				{
					"internalType": "bool",
					"name": "",
					"type": "bool"
				}
			],
			"stateMutability": "view",
			"type": "function"
		},
		{
			"inputs": [
				{
					"internalType": "address",
					"name": "operator",
					"type": "address"
				},
				{
					"internalType": "bool",
					"name": "approved",
					"type": "bool"
				}
			],
			"name": "setApprovalForAll",
			"outputs": [],
			"stateMutability": "nonpayable",
			"type": "function"
		},
		{
			"inputs": [
				{
					"internalType": "string",
					"name": "baseURI_",
					"type": "string"
				}
			],
			"name": "setBaseURI",
			"outputs": [],
			"stateMutability": "nonpayable",
			"type": "function"
		},
		{
			"inputs": [
				{
					"internalType": "uint256",
					"name": "price",
					"type": "uint256"
				}
			],
			"name": "setCurrentPrice",
			"outputs": [],
			"stateMutability": "nonpayable",
			"type": "function"
		},
		{
			"inputs": [
				{
					"internalType": "bool",
					"name": "isActive",
					"type": "bool"
				}
			],
			"name": "setSaleIsActive",
			"outputs": [],
			"stateMutability": "nonpayable",
			"type": "function"
		},
		{
			"inputs": [
				{
					"internalType": "bytes4",
					"name": "interfaceId",
					"type": "bytes4"
				}
			],
			"name": "supportsInterface",
			"outputs": [
				{
					"internalType": "bool",
					"name": "",
					"type": "bool"
				}
			],
			"stateMutability": "view",
			"type": "function"
		},
		{
			"inputs": [],
			"name": "symbol",
			"outputs": [
				{
					"internalType": "string",
					"name": "",
					"type": "string"
				}
			],
			"stateMutability": "view",
			"type": "function"
		},
		{
			"inputs": [
				{
					"internalType": "uint256",
					"name": "index",
					"type": "uint256"
				}
			],
			"name": "tokenByIndex",
			"outputs": [
				{
					"internalType": "uint256",
					"name": "",
					"type": "uint256"
				}
			],
			"stateMutability": "view",
			"type": "function"
		},
		{
			"inputs": [
				{
					"internalType": "address",
					"name": "owner",
					"type": "address"
				},
				{
					"internalType": "uint256",
					"name": "index",
					"type": "uint256"
				}
			],
			"name": "tokenOfOwnerByIndex",
			"outputs": [
				{
					"internalType": "uint256",
					"name": "",
					"type": "uint256"
				}
			],
			"stateMutability": "view",
			"type": "function"
		},
		{
			"inputs": [
				{
					"internalType": "uint256",
					"name": "tokenId",
					"type": "uint256"
				}
			],
			"name": "tokenURI",
			"outputs": [
				{
					"internalType": "string",
					"name": "",
					"type": "string"
				}
			],
			"stateMutability": "view",
			"type": "function"
		},
		{
			"inputs": [],
			"name": "totalSupply",
			"outputs": [
				{
					"internalType": "uint256",
					"name": "",
					"type": "uint256"
				}
			],
			"stateMutability": "view",
			"type": "function"
		},
		{
			"inputs": [
				{
					"internalType": "address",
					"name": "from",
					"type": "address"
				},
				{
					"internalType": "address",
					"name": "to",
					"type": "address"
				},
				{
					"internalType": "uint256",
					"name": "tokenId",
					"type": "uint256"
				}
			],
			"name": "transferFrom",
			"outputs": [],
			"stateMutability": "nonpayable",
			"type": "function"
		},
		{
			"inputs": [
				{
					"internalType": "address",
					"name": "newOwner",
					"type": "address"
				}
			],
			"name": "transferOwnership",
			"outputs": [],
			"stateMutability": "nonpayable",
			"type": "function"
		},
		{
			"inputs": [],
			"name": "withdraw",
			"outputs": [],
			"stateMutability": "nonpayable",
			"type": "function"
		}
	]
}